{
	"contracts/CoreClashGameV2.sol": {
		"CoreClashGame": {
			"abi": [
				{
					"inputs": [],
					"stateMutability": "nonpayable",
					"type": "constructor"
				},
				{
					"inputs": [],
					"name": "EmptyRarity",
					"type": "error"
				},
				{
					"inputs": [],
					"name": "LengthMismatch",
					"type": "error"
				},
				{
					"inputs": [],
					"name": "NotOwner",
					"type": "error"
				},
				{
					"inputs": [
						{
							"internalType": "address",
							"name": "token",
							"type": "address"
						}
					],
					"name": "SafeERC20FailedOperation",
					"type": "error"
				},
				{
					"anonymous": false,
					"inputs": [
						{
							"indexed": true,
							"internalType": "uint256",
							"name": "gameId",
							"type": "uint256"
						},
						{
							"indexed": true,
							"internalType": "address",
							"name": "player",
							"type": "address"
						}
					],
					"name": "CommitSubmitted",
					"type": "event"
				},
				{
					"anonymous": false,
					"inputs": [
						{
							"indexed": true,
							"internalType": "uint256",
							"name": "gameId",
							"type": "uint256"
						},
						{
							"indexed": true,
							"internalType": "address",
							"name": "player1",
							"type": "address"
						}
					],
					"name": "GameCreated",
					"type": "event"
				},
				{
					"anonymous": false,
					"inputs": [
						{
							"indexed": true,
							"internalType": "uint256",
							"name": "gameId",
							"type": "uint256"
						},
						{
							"indexed": true,
							"internalType": "address",
							"name": "player2",
							"type": "address"
						}
					],
					"name": "GameJoined",
					"type": "event"
				},
				{
					"anonymous": false,
					"inputs": [
						{
							"indexed": true,
							"internalType": "uint256",
							"name": "gameId",
							"type": "uint256"
						},
						{
							"indexed": false,
							"internalType": "address",
							"name": "winner",
							"type": "address"
						}
					],
					"name": "GameSettled",
					"type": "event"
				},
				{
					"anonymous": false,
					"inputs": [
						{
							"indexed": true,
							"internalType": "address",
							"name": "oldOwner",
							"type": "address"
						},
						{
							"indexed": true,
							"internalType": "address",
							"name": "newOwner",
							"type": "address"
						}
					],
					"name": "OwnershipTransferred",
					"type": "event"
				},
				{
					"anonymous": false,
					"inputs": [
						{
							"indexed": false,
							"internalType": "string",
							"name": "rarity",
							"type": "string"
						},
						{
							"indexed": false,
							"internalType": "bool",
							"name": "restricted",
							"type": "bool"
						}
					],
					"name": "RarityRestrictionSet",
					"type": "event"
				},
				{
					"anonymous": false,
					"inputs": [
						{
							"indexed": true,
							"internalType": "uint256",
							"name": "gameId",
							"type": "uint256"
						},
						{
							"indexed": true,
							"internalType": "address",
							"name": "player",
							"type": "address"
						}
					],
					"name": "Revealed",
					"type": "event"
				},
				{
					"anonymous": false,
					"inputs": [
						{
							"indexed": true,
							"internalType": "uint256",
							"name": "gameId",
							"type": "uint256"
						},
						{
							"indexed": false,
							"internalType": "address",
							"name": "winner",
							"type": "address"
						}
					],
					"name": "WinnerPosted",
					"type": "event"
				},
				{
					"inputs": [],
					"name": "COMMIT_TYPEHASH",
					"outputs": [
						{
							"internalType": "bytes32",
							"name": "",
							"type": "bytes32"
						}
					],
					"stateMutability": "view",
					"type": "function"
				},
				{
					"inputs": [],
					"name": "DOMAIN_SEPARATOR",
					"outputs": [
						{
							"internalType": "bytes32",
							"name": "",
							"type": "bytes32"
						}
					],
					"stateMutability": "view",
					"type": "function"
				},
				{
					"inputs": [],
					"name": "REVEAL_WINDOW",
					"outputs": [
						{
							"internalType": "uint256",
							"name": "",
							"type": "uint256"
						}
					],
					"stateMutability": "view",
					"type": "function"
				},
				{
					"inputs": [
						{
							"internalType": "address",
							"name": "",
							"type": "address"
						}
					],
					"name": "allowedERC20",
					"outputs": [
						{
							"internalType": "bool",
							"name": "",
							"type": "bool"
						}
					],
					"stateMutability": "view",
					"type": "function"
				},
				{
					"inputs": [
						{
							"internalType": "uint256",
							"name": "",
							"type": "uint256"
						}
					],
					"name": "backendWinner",
					"outputs": [
						{
							"internalType": "address",
							"name": "",
							"type": "address"
						}
					],
					"stateMutability": "view",
					"type": "function"
				},
				{
					"inputs": [
						{
							"internalType": "address",
							"name": "stakeToken",
							"type": "address"
						},
						{
							"internalType": "uint256",
							"name": "stakeAmount",
							"type": "uint256"
						},
						{
							"internalType": "bytes32",
							"name": "commit",
							"type": "bytes32"
						}
					],
					"name": "createGame",
					"outputs": [],
					"stateMutability": "nonpayable",
					"type": "function"
				},
				{
					"inputs": [
						{
							"internalType": "uint256",
							"name": "",
							"type": "uint256"
						}
					],
					"name": "games",
					"outputs": [
						{
							"internalType": "address",
							"name": "player1",
							"type": "address"
						},
						{
							"internalType": "address",
							"name": "player2",
							"type": "address"
						},
						{
							"internalType": "address",
							"name": "stakeToken",
							"type": "address"
						},
						{
							"internalType": "uint256",
							"name": "stakeAmount",
							"type": "uint256"
						},
						{
							"internalType": "bytes32",
							"name": "player1Commit",
							"type": "bytes32"
						},
						{
							"internalType": "bytes32",
							"name": "player2Commit",
							"type": "bytes32"
						},
						{
							"internalType": "bool",
							"name": "player1Revealed",
							"type": "bool"
						},
						{
							"internalType": "bool",
							"name": "player2Revealed",
							"type": "bool"
						},
						{
							"internalType": "uint256",
							"name": "createdAt",
							"type": "uint256"
						},
						{
							"internalType": "uint256",
							"name": "joinTimestamp",
							"type": "uint256"
						},
						{
							"internalType": "uint256",
							"name": "revealDeadline",
							"type": "uint256"
						},
						{
							"internalType": "bool",
							"name": "settled",
							"type": "bool"
						}
					],
					"stateMutability": "view",
					"type": "function"
				},
				{
					"inputs": [],
					"name": "gamesLength",
					"outputs": [
						{
							"internalType": "uint256",
							"name": "",
							"type": "uint256"
						}
					],
					"stateMutability": "view",
					"type": "function"
				},
				{
					"inputs": [
						{
							"internalType": "string",
							"name": "rarity",
							"type": "string"
						}
					],
					"name": "isRestrictedRarity",
					"outputs": [
						{
							"internalType": "bool",
							"name": "",
							"type": "bool"
						}
					],
					"stateMutability": "view",
					"type": "function"
				},
				{
					"inputs": [
						{
							"internalType": "uint256",
							"name": "gameId",
							"type": "uint256"
						},
						{
							"internalType": "bytes32",
							"name": "commit",
							"type": "bytes32"
						}
					],
					"name": "joinGame",
					"outputs": [],
					"stateMutability": "nonpayable",
					"type": "function"
				},
				{
					"inputs": [],
					"name": "owner",
					"outputs": [
						{
							"internalType": "address",
							"name": "",
							"type": "address"
						}
					],
					"stateMutability": "view",
					"type": "function"
				},
				{
					"inputs": [],
					"name": "platformFee",
					"outputs": [
						{
							"internalType": "uint256",
							"name": "",
							"type": "uint256"
						}
					],
					"stateMutability": "view",
					"type": "function"
				},
				{
					"inputs": [
						{
							"internalType": "uint256",
							"name": "gameId",
							"type": "uint256"
						},
						{
							"internalType": "address",
							"name": "winner",
							"type": "address"
						}
					],
					"name": "postWinner",
					"outputs": [],
					"stateMutability": "nonpayable",
					"type": "function"
				},
				{
					"inputs": [
						{
							"internalType": "uint256",
							"name": "gameId",
							"type": "uint256"
						},
						{
							"internalType": "uint256",
							"name": "salt",
							"type": "uint256"
						},
						{
							"internalType": "address[3]",
							"name": "nftContracts",
							"type": "address[3]"
						},
						{
							"internalType": "uint256[3]",
							"name": "nftIds",
							"type": "uint256[3]"
						},
						{
							"internalType": "string[3]",
							"name": "backgrounds",
							"type": "string[3]"
						}
					],
					"name": "reveal",
					"outputs": [],
					"stateMutability": "nonpayable",
					"type": "function"
				},
				{
					"inputs": [
						{
							"internalType": "address",
							"name": "token",
							"type": "address"
						},
						{
							"internalType": "bool",
							"name": "allowed",
							"type": "bool"
						}
					],
					"name": "setAllowedERC20",
					"outputs": [],
					"stateMutability": "nonpayable",
					"type": "function"
				},
				{
					"inputs": [
						{
							"internalType": "uint256",
							"name": "feeBps",
							"type": "uint256"
						}
					],
					"name": "setPlatformFee",
					"outputs": [],
					"stateMutability": "nonpayable",
					"type": "function"
				},
				{
					"inputs": [
						{
							"internalType": "string[]",
							"name": "rarities",
							"type": "string[]"
						},
						{
							"internalType": "bool[]",
							"name": "restricted",
							"type": "bool[]"
						}
					],
					"name": "setRestrictedRarities",
					"outputs": [],
					"stateMutability": "nonpayable",
					"type": "function"
				},
				{
					"inputs": [
						{
							"internalType": "string",
							"name": "rarity",
							"type": "string"
						},
						{
							"internalType": "bool",
							"name": "restricted",
							"type": "bool"
						}
					],
					"name": "setRestrictedRarity",
					"outputs": [],
					"stateMutability": "nonpayable",
					"type": "function"
				},
				{
					"inputs": [
						{
							"internalType": "address",
							"name": "wallet",
							"type": "address"
						}
					],
					"name": "setTeamWallet",
					"outputs": [],
					"stateMutability": "nonpayable",
					"type": "function"
				},
				{
					"inputs": [
						{
							"internalType": "uint256",
							"name": "gameId",
							"type": "uint256"
						}
					],
					"name": "settleGame",
					"outputs": [],
					"stateMutability": "nonpayable",
					"type": "function"
				},
				{
					"inputs": [
						{
							"internalType": "uint256",
							"name": "gameId",
							"type": "uint256"
						},
						{
							"internalType": "bytes32",
							"name": "commit",
							"type": "bytes32"
						},
						{
							"internalType": "uint8",
							"name": "v",
							"type": "uint8"
						},
						{
							"internalType": "bytes32",
							"name": "r",
							"type": "bytes32"
						},
						{
							"internalType": "bytes32",
							"name": "s",
							"type": "bytes32"
						}
					],
					"name": "submitCommit",
					"outputs": [],
					"stateMutability": "nonpayable",
					"type": "function"
				},
				{
					"inputs": [],
					"name": "teamWallet",
					"outputs": [
						{
							"internalType": "address",
							"name": "",
							"type": "address"
						}
					],
					"stateMutability": "view",
					"type": "function"
				},
				{
					"inputs": [
						{
							"internalType": "address",
							"name": "newOwner",
							"type": "address"
						}
					],
					"name": "transferOwnership",
					"outputs": [],
					"stateMutability": "nonpayable",
					"type": "function"
				}
			],
			"devdoc": {
				"errors": {
					"SafeERC20FailedOperation(address)": [
						{
							"details": "An operation with an ERC-20 token failed."
						}
					]
				},
				"kind": "dev",
				"methods": {},
				"version": 1
			},
			"evm": {
				"assembly": "    /* \"contracts/CoreClashGameV2.sol\":292:11234  contract CoreClashGame is CoreClashRarityLookupTable {... */\n  mstore(0x40, 0x80)\n    /* \"contracts/CoreClashGameV2.sol\":2491:2909  constructor() {... */\n  callvalue\n  dup1\n  iszero\n  tag_1\n  jumpi\n  0x00\n  dup1\n  revert\ntag_1:\n  pop\n    /* \"contracts/CoreClashRarityLookupTable.sol\":1741:1746  owner */\n  0x01\n    /* \"contracts/CoreClashRarityLookupTable.sol\":1741:1759  owner = msg.sender */\n  dup1\n  sload\n  not(sub(shl(0xa0, 0x01), 0x01))\n  and\n    /* \"contracts/CoreClashRarityLookupTable.sol\":1749:1759  msg.sender */\n  caller\n    /* \"contracts/CoreClashRarityLookupTable.sol\":1741:1759  owner = msg.sender */\n  or\n  swap1\n  sstore\n    /* \"contracts/CoreClashRarityLookupTable.sol\":1770:1792  _initDefaultRarities() */\n  tag_5\n    /* \"contracts/CoreClashRarityLookupTable.sol\":1770:1790  _initDefaultRarities */\n  tag_6\n    /* \"contracts/CoreClashRarityLookupTable.sol\":1770:1792  _initDefaultRarities() */\n  jump\t// in\ntag_5:\n    /* \"contracts/CoreClashGameV2.sol\":2752:2770  bytes(\"CoreClash\") */\n  0x40\n  dup1\n  mload\n  dup1\n  dup3\n  add\n  dup3\n  mstore\n  0x09\n  dup2\n  mstore\n  shl(0xbb, 0x086dee4ca86d8c2e6d)\n  0x20\n  swap2\n  dup3\n  add\n  mstore\n    /* \"contracts/CoreClashGameV2.sol\":2800:2810  bytes(\"1\") */\n  dup2\n  mload\n  dup1\n  dup4\n  add\n  dup4\n  mstore\n  0x01\n  dup2\n  mstore\n  shl(0xf8, 0x31)\n  swap1\n  dup3\n  add\n  mstore\n    /* \"contracts/CoreClashGameV2.sol\":2559:2890  abi.encode(... */\n  dup2\n  mload\n    /* \"contracts/CoreClashGameV2.sol\":2588:2723  keccak256(... */\n  0x8b73c3c69bb8fe3d512ecc4cf759cc79239f7b179b0ffacaa9a75d522b39400f\n    /* \"contracts/CoreClashGameV2.sol\":2559:2890  abi.encode(... */\n  dup2\n  dup4\n  add\n    /* \"#utility.yul\":273:298   */\n  mstore\n    /* \"contracts/CoreClashGameV2.sol\":2742:2771  keccak256(bytes(\"CoreClash\")) */\n  0x0c679178cea08b1ad1ee3cb6425bc9132165f9002dd9b983dbbc3e17f33dbc13\n    /* \"#utility.yul\":314:332   */\n  dup2\n  dup5\n  add\n    /* \"#utility.yul\":307:341   */\n  mstore\n    /* \"contracts/CoreClashGameV2.sol\":2790:2811  keccak256(bytes(\"1\")) */\n  0xc89efdaa54c0f20c7adf612882df0950f5a951637e0307cdcb4c672f298b8bc6\n    /* \"#utility.yul\":357:375   */\n  0x60\n  dup3\n  add\n    /* \"#utility.yul\":350:384   */\n  mstore\n    /* \"contracts/CoreClashGameV2.sol\":2830:2843  block.chainid */\n  chainid\n    /* \"#utility.yul\":400:418   */\n  0x80\n  dup3\n  add\n    /* \"#utility.yul\":393:427   */\n  mstore\n    /* \"contracts/CoreClashGameV2.sol\":2870:2874  this */\n  address\n    /* \"#utility.yul\":443:462   */\n  0xa0\n  dup1\n  dup4\n  add\n    /* \"#utility.yul\":436:497   */\n  swap2\n  swap1\n  swap2\n  mstore\n    /* \"contracts/CoreClashGameV2.sol\":2559:2890  abi.encode(... */\n  dup4\n  mload\n  dup1\n  dup4\n  sub\n  swap1\n  swap2\n  add\n  dup2\n  mstore\n    /* \"#utility.yul\":245:264   */\n  0xc0\n  swap1\n  swap2\n  add\n    /* \"contracts/CoreClashGameV2.sol\":2559:2890  abi.encode(... */\n  swap1\n  swap3\n  mstore\n    /* \"contracts/CoreClashGameV2.sol\":2535:2901  keccak256(... */\n  dup2\n  mload\n  swap2\n  add\n  keccak256\n    /* \"contracts/CoreClashGameV2.sol\":2516:2532  DOMAIN_SEPARATOR */\n  0x02\n    /* \"contracts/CoreClashGameV2.sol\":2516:2901  DOMAIN_SEPARATOR = keccak256(... */\n  sstore\n    /* \"contracts/CoreClashGameV2.sol\":292:11234  contract CoreClashGame is CoreClashRarityLookupTable {... */\n  jump(tag_20)\n    /* \"contracts/CoreClashRarityLookupTable.sol\":1808:2119  function _initDefaultRarities() internal {... */\ntag_6:\n    /* \"contracts/CoreClashRarityLookupTable.sol\":1860:1896  _setRestrictedInternal(\"Gold\", true) */\n  0x40\n  dup1\n  mload\n  dup1\n  dup3\n  add\n  swap1\n  swap2\n  mstore\n  0x04\n  dup2\n  mstore\n  shl(0xe2, 0x11dbdb19)\n  0x20\n  dup3\n  add\n  mstore\n  tag_12\n  swap1\n    /* \"contracts/CoreClashRarityLookupTable.sol\":1891:1895  true */\n  0x01\n    /* \"contracts/CoreClashRarityLookupTable.sol\":1860:1882  _setRestrictedInternal */\n  tag_13\n    /* \"contracts/CoreClashRarityLookupTable.sol\":1860:1896  _setRestrictedInternal(\"Gold\", true) */\n  jump\t// in\ntag_12:\n    /* \"contracts/CoreClashRarityLookupTable.sol\":1907:1945  _setRestrictedInternal(\"Silver\", true) */\n  0x40\n  dup1\n  mload\n  dup1\n  dup3\n  add\n  swap1\n  swap2\n  mstore\n  0x06\n  dup2\n  mstore\n  shl(0xd1, 0x29b4b63b32b9)\n  0x20\n  dup3\n  add\n  mstore\n  tag_14\n  swap1\n    /* \"contracts/CoreClashRarityLookupTable.sol\":1940:1944  true */\n  0x01\n    /* \"contracts/CoreClashRarityLookupTable.sol\":1907:1929  _setRestrictedInternal */\n  tag_13\n    /* \"contracts/CoreClashRarityLookupTable.sol\":1907:1945  _setRestrictedInternal(\"Silver\", true) */\n  jump\t// in\ntag_14:\n    /* \"contracts/CoreClashRarityLookupTable.sol\":1956:2001  _setRestrictedInternal(\"Verdant Green\", true) */\n  0x40\n  dup1\n  mload\n  dup1\n  dup3\n  add\n  swap1\n  swap2\n  mstore\n  0x0d\n  dup2\n  mstore\n  shl(0x99, 0x2b32b93230b73a1023b932b2b7)\n  0x20\n  dup3\n  add\n  mstore\n  tag_15\n  swap1\n    /* \"contracts/CoreClashRarityLookupTable.sol\":1996:2000  true */\n  0x01\n    /* \"contracts/CoreClashRarityLookupTable.sol\":1956:1978  _setRestrictedInternal */\n  tag_13\n    /* \"contracts/CoreClashRarityLookupTable.sol\":1956:2001  _setRestrictedInternal(\"Verdant Green\", true) */\n  jump\t// in\ntag_15:\n    /* \"contracts/CoreClashRarityLookupTable.sol\":2012:2053  _setRestrictedInternal(\"Rose Gold\", true) */\n  0x40\n  dup1\n  mload\n  dup1\n  dup3\n  add\n  swap1\n  swap2\n  mstore\n  0x09\n  dup2\n  mstore\n  shl(0xba, 0x149bdcd94811dbdb19)\n  0x20\n  dup3\n  add\n  mstore\n  tag_16\n  swap1\n    /* \"contracts/CoreClashRarityLookupTable.sol\":2048:2052  true */\n  0x01\n    /* \"contracts/CoreClashRarityLookupTable.sol\":2012:2034  _setRestrictedInternal */\n  tag_13\n    /* \"contracts/CoreClashRarityLookupTable.sol\":2012:2053  _setRestrictedInternal(\"Rose Gold\", true) */\n  jump\t// in\ntag_16:\n    /* \"contracts/CoreClashRarityLookupTable.sol\":1808:2119  function _initDefaultRarities() internal {... */\n  jump\t// out\n    /* \"contracts/CoreClashRarityLookupTable.sol\":2318:2583  function _setRestrictedInternal(... */\ntag_13:\n    /* \"contracts/CoreClashRarityLookupTable.sol\":2449:2473  keccak256(bytes(rarity)) */\n  dup2\n  mload\n  0x20\n  dup1\n  dup5\n  add\n  swap2\n  swap1\n  swap2\n  keccak256\n    /* \"contracts/CoreClashRarityLookupTable.sol\":2434:2446  bytes32 hash */\n  0x00\n    /* \"contracts/CoreClashRarityLookupTable.sol\":2484:2506  restrictedRarity[hash] */\n  dup2\n  dup2\n  mstore\n  swap2\n  dup3\n  swap1\n  mstore\n  0x40\n  swap2\n  dup3\n  swap1\n  keccak256\n    /* \"contracts/CoreClashRarityLookupTable.sol\":2484:2519  restrictedRarity[hash] = restricted */\n  dup1\n  sload\n  not(0xff)\n  and\n  dup5\n  iszero\n  iszero\n  or\n  swap1\n  sstore\n    /* \"contracts/CoreClashRarityLookupTable.sol\":2535:2575  RarityRestrictionSet(rarity, restricted) */\n  swap1\n  mload\n  0x71597d70b120b69b2ed3763b127f0f73d5475cd67f32065088360e0586a8b250\n  swap1\n  tag_18\n  swap1\n    /* \"contracts/CoreClashRarityLookupTable.sol\":2449:2473  keccak256(bytes(rarity)) */\n  dup6\n  swap1\n    /* \"contracts/CoreClashRarityLookupTable.sol\":2484:2519  restrictedRarity[hash] = restricted */\n  dup6\n  swap1\n    /* \"contracts/CoreClashRarityLookupTable.sol\":2535:2575  RarityRestrictionSet(rarity, restricted) */\n  tag_19\n  jump\t// in\ntag_18:\n  mload(0x40)\n  dup1\n  swap2\n  sub\n  swap1\n  log1\n    /* \"contracts/CoreClashRarityLookupTable.sol\":2423:2583  {... */\n  pop\n    /* \"contracts/CoreClashRarityLookupTable.sol\":2318:2583  function _setRestrictedInternal(... */\n  pop\n  pop\n  jump\t// out\n    /* \"#utility.yul\":508:1122   */\ntag_19:\n    /* \"#utility.yul\":679:681   */\n  0x40\n    /* \"#utility.yul\":668:677   */\n  dup2\n    /* \"#utility.yul\":661:682   */\n  mstore\n    /* \"#utility.yul\":642:646   */\n  0x00\n    /* \"#utility.yul\":711:717   */\n  dup4\n    /* \"#utility.yul\":705:718   */\n  mload\n    /* \"#utility.yul\":754:760   */\n  dup1\n    /* \"#utility.yul\":749:751   */\n  0x40\n    /* \"#utility.yul\":738:747   */\n  dup5\n    /* \"#utility.yul\":734:752   */\n  add\n    /* \"#utility.yul\":727:761   */\n  mstore\n    /* \"#utility.yul\":779:780   */\n  0x00\n    /* \"#utility.yul\":789:933   */\ntag_23:\n    /* \"#utility.yul\":803:809   */\n  dup2\n    /* \"#utility.yul\":800:801   */\n  dup2\n    /* \"#utility.yul\":797:810   */\n  lt\n    /* \"#utility.yul\":789:933   */\n  iszero\n  tag_25\n  jumpi\n    /* \"#utility.yul\":916:920   */\n  0x20\n    /* \"#utility.yul\":900:914   */\n  dup2\n  dup8\n  add\n    /* \"#utility.yul\":896:921   */\n  dup2\n  add\n    /* \"#utility.yul\":890:922   */\n  mload\n    /* \"#utility.yul\":885:887   */\n  0x60\n    /* \"#utility.yul\":866:883   */\n  dup7\n  dup5\n  add\n    /* \"#utility.yul\":862:888   */\n  add\n    /* \"#utility.yul\":855:923   */\n  mstore\n    /* \"#utility.yul\":818:830   */\n  add\n    /* \"#utility.yul\":789:933   */\n  jump(tag_23)\ntag_25:\n    /* \"#utility.yul\":793:796   */\n  pop\n    /* \"#utility.yul\":982:983   */\n  0x00\n    /* \"#utility.yul\":977:979   */\n  0x60\n    /* \"#utility.yul\":968:974   */\n  dup3\n    /* \"#utility.yul\":957:966   */\n  dup6\n    /* \"#utility.yul\":953:975   */\n  add\n    /* \"#utility.yul\":949:980   */\n  add\n    /* \"#utility.yul\":942:984   */\n  mstore\n    /* \"#utility.yul\":1052:1054   */\n  0x60\n    /* \"#utility.yul\":1045:1047   */\n  0x1f\n    /* \"#utility.yul\":1041:1048   */\n  not\n    /* \"#utility.yul\":1036:1038   */\n  0x1f\n    /* \"#utility.yul\":1028:1034   */\n  dup4\n    /* \"#utility.yul\":1024:1039   */\n  add\n    /* \"#utility.yul\":1020:1049   */\n  and\n    /* \"#utility.yul\":1009:1018   */\n  dup5\n    /* \"#utility.yul\":1005:1050   */\n  add\n    /* \"#utility.yul\":1001:1055   */\n  add\n    /* \"#utility.yul\":993:1055   */\n  swap2\n  pop\n  pop\n    /* \"#utility.yul\":1107:1113   */\n  dup3\n    /* \"#utility.yul\":1100:1114   */\n  iszero\n    /* \"#utility.yul\":1093:1115   */\n  iszero\n    /* \"#utility.yul\":1086:1090   */\n  0x20\n    /* \"#utility.yul\":1075:1084   */\n  dup4\n    /* \"#utility.yul\":1071:1091   */\n  add\n    /* \"#utility.yul\":1064:1116   */\n  mstore\n    /* \"#utility.yul\":508:1122   */\n  swap4\n  swap3\n  pop\n  pop\n  pop\n  jump\t// out\ntag_20:\n    /* \"contracts/CoreClashGameV2.sol\":292:11234  contract CoreClashGame is CoreClashRarityLookupTable {... */\n  dataSize(sub_0)\n  dup1\n  dataOffset(sub_0)\n  0x00\n  codecopy\n  0x00\n  return\nstop\n\nsub_0: assembly {\n        /* \"contracts/CoreClashGameV2.sol\":292:11234  contract CoreClashGame is CoreClashRarityLookupTable {... */\n      mstore(0x40, 0x80)\n      callvalue\n      dup1\n      iszero\n      tag_1\n      jumpi\n      0x00\n      dup1\n      revert\n    tag_1:\n      pop\n      jumpi(tag_2, lt(calldatasize, 0x04))\n      shr(0xe0, calldataload(0x00))\n      dup1\n      0x4c7b0754\n      gt\n      tag_26\n      jumpi\n      dup1\n      0xa8a6196f\n      gt\n      tag_27\n      jumpi\n      dup1\n      0xa8a6196f\n      eq\n      tag_20\n      jumpi\n      dup1\n      0xac952671\n      eq\n      tag_21\n      jumpi\n      dup1\n      0xb710c52c\n      eq\n      tag_22\n      jumpi\n      dup1\n      0xda6636cc\n      eq\n      tag_23\n      jumpi\n      dup1\n      0xf2fde38b\n      eq\n      tag_24\n      jumpi\n      dup1\n      0xf969e592\n      eq\n      tag_25\n      jumpi\n      0x00\n      dup1\n      revert\n    tag_27:\n      dup1\n      0x4c7b0754\n      eq\n      tag_14\n      jumpi\n      dup1\n      0x4e714ac3\n      eq\n      tag_15\n      jumpi\n      dup1\n      0x59927044\n      eq\n      tag_16\n      jumpi\n      dup1\n      0x6093ae62\n      eq\n      tag_17\n      jumpi\n      dup1\n      0x78150b06\n      eq\n      tag_18\n      jumpi\n      dup1\n      0x8da5cb5b\n      eq\n      tag_19\n      jumpi\n      0x00\n      dup1\n      revert\n    tag_26:\n      dup1\n      0x17e931cf\n      gt\n      tag_28\n      jumpi\n      dup1\n      0x17e931cf\n      eq\n      tag_8\n      jumpi\n      dup1\n      0x20eba3f2\n      eq\n      tag_9\n      jumpi\n      dup1\n      0x26232a2e\n      eq\n      tag_10\n      jumpi\n      dup1\n      0x312d7bbc\n      eq\n      tag_11\n      jumpi\n      dup1\n      0x3644e515\n      eq\n      tag_12\n      jumpi\n      dup1\n      0x37479beb\n      eq\n      tag_13\n      jumpi\n      0x00\n      dup1\n      revert\n    tag_28:\n      dup1\n      0x03b55dac\n      eq\n      tag_3\n      jumpi\n      dup1\n      0x117a5b90\n      eq\n      tag_4\n      jumpi\n      dup1\n      0x12e8e2c3\n      eq\n      tag_5\n      jumpi\n      dup1\n      0x14f8fb9b\n      eq\n      tag_6\n      jumpi\n      dup1\n      0x1525ff7d\n      eq\n      tag_7\n      jumpi\n    tag_2:\n      0x00\n      dup1\n      revert\n        /* \"contracts/CoreClashGameV2.sol\":4569:5504  function createGame(... */\n    tag_3:\n      tag_29\n      tag_30\n      calldatasize\n      0x04\n      tag_31\n      jump\t// in\n    tag_30:\n      tag_32\n      jump\t// in\n    tag_29:\n      stop\n        /* \"contracts/CoreClashGameV2.sol\":1350:1369  Game[] public games */\n    tag_4:\n      tag_33\n      tag_34\n      calldatasize\n      0x04\n      tag_35\n      jump\t// in\n    tag_34:\n      tag_36\n      jump\t// in\n    tag_33:\n      0x40\n      dup1\n      mload\n      sub(shl(0xa0, 0x01), 0x01)\n        /* \"#utility.yul\":1218:1233   */\n      swap14\n      dup15\n      and\n        /* \"#utility.yul\":1200:1234   */\n      dup2\n      mstore\n        /* \"#utility.yul\":1270:1285   */\n      swap12\n      dup14\n      and\n        /* \"#utility.yul\":1265:1267   */\n      0x20\n        /* \"#utility.yul\":1250:1268   */\n      dup14\n      add\n        /* \"#utility.yul\":1243:1286   */\n      mstore\n        /* \"#utility.yul\":1322:1337   */\n      swap10\n      swap1\n      swap12\n      and\n        /* \"#utility.yul\":1302:1320   */\n      swap9\n      dup11\n      add\n        /* \"#utility.yul\":1295:1338   */\n      swap9\n      swap1\n      swap9\n      mstore\n        /* \"#utility.yul\":1369:1371   */\n      0x60\n        /* \"#utility.yul\":1354:1372   */\n      dup10\n      add\n        /* \"#utility.yul\":1347:1381   */\n      swap7\n      swap1\n      swap7\n      mstore\n        /* \"#utility.yul\":1412:1415   */\n      0x80\n        /* \"#utility.yul\":1397:1416   */\n      dup9\n      add\n        /* \"#utility.yul\":1390:1425   */\n      swap5\n      swap1\n      swap5\n      mstore\n        /* \"#utility.yul\":1180:1183   */\n      0xa0\n        /* \"#utility.yul\":1441:1460   */\n      dup8\n      add\n        /* \"#utility.yul\":1434:1469   */\n      swap3\n      swap1\n      swap3\n      mstore\n        /* \"#utility.yul\":1513:1527   */\n      iszero\n        /* \"#utility.yul\":1506:1528   */\n      iszero\n        /* \"#utility.yul\":1500:1503   */\n      0xc0\n        /* \"#utility.yul\":1485:1504   */\n      dup7\n      add\n        /* \"#utility.yul\":1478:1529   */\n      mstore\n        /* \"#utility.yul\":1573:1587   */\n      iszero\n        /* \"#utility.yul\":1566:1588   */\n      iszero\n        /* \"#utility.yul\":1560:1563   */\n      0xe0\n        /* \"#utility.yul\":1545:1564   */\n      dup6\n      add\n        /* \"#utility.yul\":1538:1589   */\n      mstore\n        /* \"#utility.yul\":1620:1623   */\n      0x0100\n        /* \"#utility.yul\":1605:1624   */\n      dup5\n      add\n        /* \"#utility.yul\":1598:1633   */\n      mstore\n        /* \"#utility.yul\":1664:1667   */\n      0x0120\n        /* \"#utility.yul\":1649:1668   */\n      dup4\n      add\n        /* \"#utility.yul\":1642:1677   */\n      mstore\n        /* \"#utility.yul\":1708:1711   */\n      0x0140\n        /* \"#utility.yul\":1693:1712   */\n      dup3\n      add\n        /* \"#utility.yul\":1686:1722   */\n      mstore\n        /* \"#utility.yul\":1766:1781   */\n      swap1\n      iszero\n        /* \"#utility.yul\":1759:1782   */\n      iszero\n        /* \"#utility.yul\":1753:1756   */\n      0x0160\n        /* \"#utility.yul\":1738:1757   */\n      dup3\n      add\n        /* \"#utility.yul\":1731:1783   */\n      mstore\n        /* \"#utility.yul\":1149:1152   */\n      0x0180\n        /* \"#utility.yul\":1134:1153   */\n      add\n        /* \"contracts/CoreClashGameV2.sol\":1350:1369  Game[] public games */\n    tag_37:\n      mload(0x40)\n      dup1\n      swap2\n      sub\n      swap1\n      return\n        /* \"contracts/CoreClashGameV2.sol\":3594:3742  function setPlatformFee(uint256 feeBps) external onlyOwner {... */\n    tag_5:\n      tag_29\n      tag_40\n      calldatasize\n      0x04\n      tag_35\n      jump\t// in\n    tag_40:\n      tag_41\n      jump\t// in\n        /* \"contracts/CoreClashGameV2.sol\":1378:1422  mapping(address => bool) public allowedERC20 */\n    tag_6:\n      tag_42\n      tag_43\n      calldatasize\n      0x04\n      tag_44\n      jump\t// in\n    tag_43:\n      mstore(0x20, 0x04)\n      0x00\n      swap1\n      dup2\n      mstore\n      0x40\n      swap1\n      keccak256\n      sload\n      0xff\n      and\n      dup2\n      jump\n    tag_42:\n      mload(0x40)\n        /* \"#utility.yul\":2211:2225   */\n      swap1\n      iszero\n        /* \"#utility.yul\":2204:2226   */\n      iszero\n        /* \"#utility.yul\":2186:2227   */\n      dup2\n      mstore\n        /* \"#utility.yul\":2174:2176   */\n      0x20\n        /* \"#utility.yul\":2159:2177   */\n      add\n        /* \"contracts/CoreClashGameV2.sol\":1378:1422  mapping(address => bool) public allowedERC20 */\n      tag_37\n        /* \"#utility.yul\":2046:2233   */\n      jump\n        /* \"contracts/CoreClashGameV2.sol\":3750:3902  function setTeamWallet(address wallet) external onlyOwner {... */\n    tag_7:\n      tag_29\n      tag_49\n      calldatasize\n      0x04\n      tag_44\n      jump\t// in\n    tag_49:\n      tag_50\n      jump\t// in\n        /* \"contracts/CoreClashGameV2.sol\":571:617  uint256 public constant REVEAL_WINDOW = 5 days */\n    tag_8:\n      tag_51\n        /* \"contracts/CoreClashGameV2.sol\":611:617  5 days */\n      0x069780\n        /* \"contracts/CoreClashGameV2.sol\":571:617  uint256 public constant REVEAL_WINDOW = 5 days */\n      dup2\n      jump\n    tag_51:\n      mload(0x40)\n        /* \"#utility.yul\":2384:2409   */\n      swap1\n      dup2\n      mstore\n        /* \"#utility.yul\":2372:2374   */\n      0x20\n        /* \"#utility.yul\":2357:2375   */\n      add\n        /* \"contracts/CoreClashGameV2.sol\":571:617  uint256 public constant REVEAL_WINDOW = 5 days */\n      tag_37\n        /* \"#utility.yul\":2238:2415   */\n      jump\n        /* \"contracts/CoreClashGameV2.sol\":1598:1691  function gamesLength() external view returns (uint256) {... */\n    tag_9:\n        /* \"contracts/CoreClashGameV2.sol\":1671:1676  games */\n      0x03\n        /* \"contracts/CoreClashGameV2.sol\":1671:1683  games.length */\n      sload\n        /* \"contracts/CoreClashGameV2.sol\":1598:1691  function gamesLength() external view returns (uint256) {... */\n      jump(tag_51)\n        /* \"contracts/CoreClashGameV2.sol\":1547:1573  uint256 public platformFee */\n    tag_10:\n      tag_51\n      sload(0x07)\n      dup2\n      jump\n        /* \"contracts/CoreClashGameV2.sol\":9183:10002  function settleGame(uint256 gameId) external {... */\n    tag_11:\n      tag_29\n      tag_62\n      calldatasize\n      0x04\n      tag_35\n      jump\t// in\n    tag_62:\n      tag_63\n      jump\t// in\n        /* \"contracts/CoreClashGameV2.sol\":736:767  bytes32 public DOMAIN_SEPARATOR */\n    tag_12:\n      tag_51\n      sload(0x02)\n      dup2\n      jump\n        /* \"contracts/CoreClashGameV2.sol\":626:727  bytes32 public constant COMMIT_TYPEHASH =... */\n    tag_13:\n      tag_51\n        /* \"contracts/CoreClashGameV2.sol\":677:727  keccak256(\"Commit(uint256 gameId,bytes32 commit)\") */\n      0xf9a4bb626f7677582ca1a01dcf5e2aa8f3de98d999adc0598509571b99fe8adb\n        /* \"contracts/CoreClashGameV2.sol\":626:727  bytes32 public constant COMMIT_TYPEHASH =... */\n      dup2\n      jump\n        /* \"contracts/CoreClashGameV2.sol\":1429:1477  mapping(uint256 => address) public backendWinner */\n    tag_14:\n      tag_71\n      tag_72\n      calldatasize\n      0x04\n      tag_35\n      jump\t// in\n    tag_72:\n      mstore(0x20, 0x05)\n      0x00\n      swap1\n      dup2\n      mstore\n      0x40\n      swap1\n      keccak256\n      sload\n      sub(shl(0xa0, 0x01), 0x01)\n      and\n      dup2\n      jump\n    tag_71:\n      mload(0x40)\n      sub(shl(0xa0, 0x01), 0x01)\n        /* \"#utility.yul\":2766:2798   */\n      swap1\n      swap2\n      and\n        /* \"#utility.yul\":2748:2799   */\n      dup2\n      mstore\n        /* \"#utility.yul\":2736:2738   */\n      0x20\n        /* \"#utility.yul\":2721:2739   */\n      add\n        /* \"contracts/CoreClashGameV2.sol\":1429:1477  mapping(uint256 => address) public backendWinner */\n      tag_37\n        /* \"#utility.yul\":2602:2805   */\n      jump\n        /* \"contracts/CoreClashRarityLookupTable.sol\":3861:4022  function isRestrictedRarity(... */\n    tag_15:\n      tag_42\n      tag_77\n      calldatasize\n      0x04\n      tag_78\n      jump\t// in\n    tag_77:\n        /* \"contracts/CoreClashRarityLookupTable.sol\":3989:4013  keccak256(bytes(rarity)) */\n      dup1\n      mload\n      0x20\n      swap2\n      dup3\n      add\n      keccak256\n        /* \"contracts/CoreClashRarityLookupTable.sol\":3948:3952  bool */\n      0x00\n        /* \"contracts/CoreClashRarityLookupTable.sol\":3972:4014  restrictedRarity[keccak256(bytes(rarity))] */\n      swap1\n      dup2\n      mstore\n      swap1\n      dup2\n      swap1\n      mstore\n      0x40\n      swap1\n      keccak256\n      sload\n      0xff\n      and\n      swap1\n        /* \"contracts/CoreClashRarityLookupTable.sol\":3861:4022  function isRestrictedRarity(... */\n      jump\n        /* \"contracts/CoreClashGameV2.sol\":1515:1540  address public teamWallet */\n    tag_16:\n      sload(0x06)\n      tag_71\n      swap1\n      sub(shl(0xa0, 0x01), 0x01)\n      and\n      dup2\n      jump\n        /* \"contracts/CoreClashRarityLookupTable.sol\":2778:3015  function setRestrictedRarity(... */\n    tag_17:\n      tag_29\n      tag_85\n      calldatasize\n      0x04\n      tag_86\n      jump\t// in\n    tag_85:\n      tag_87\n      jump\t// in\n        /* \"contracts/CoreClashGameV2.sol\":3465:3586  function setAllowedERC20(address token, bool allowed) external onlyOwner {... */\n    tag_18:\n      tag_29\n      tag_89\n      calldatasize\n      0x04\n      tag_90\n      jump\t// in\n    tag_89:\n      tag_91\n      jump\t// in\n        /* \"contracts/CoreClashRarityLookupTable.sol\":1214:1234  address public owner */\n    tag_19:\n      sload(0x01)\n      tag_71\n      swap1\n      sub(shl(0xa0, 0x01), 0x01)\n      and\n      dup2\n      jump\n        /* \"contracts/CoreClashGameV2.sol\":6448:7273  function submitCommit(... */\n    tag_20:\n      tag_29\n      tag_96\n      calldatasize\n      0x04\n      tag_97\n      jump\t// in\n    tag_96:\n      tag_98\n      jump\t// in\n        /* \"contracts/CoreClashGameV2.sol\":5692:6255  function joinGame(... */\n    tag_21:\n      tag_29\n      tag_100\n      calldatasize\n      0x04\n      tag_101\n      jump\t// in\n    tag_100:\n      tag_102\n      jump\t// in\n        /* \"contracts/CoreClashGameV2.sol\":8576:8992  function postWinner(uint256 gameId, address winner) external onlyOwner {... */\n    tag_22:\n      tag_29\n      tag_104\n      calldatasize\n      0x04\n      tag_105\n      jump\t// in\n    tag_104:\n      tag_106\n      jump\t// in\n        /* \"contracts/CoreClashGameV2.sol\":7456:8381  function reveal(... */\n    tag_23:\n      tag_29\n      tag_108\n      calldatasize\n      0x04\n      tag_109\n      jump\t// in\n    tag_108:\n      tag_110\n      jump\t// in\n        /* \"contracts/CoreClashRarityLookupTable.sol\":3452:3662  function transferOwnership(address newOwner) external onlyOwner {... */\n    tag_24:\n      tag_29\n      tag_112\n      calldatasize\n      0x04\n      tag_44\n      jump\t// in\n    tag_112:\n      tag_113\n      jump\t// in\n        /* \"contracts/CoreClashRarityLookupTable.sol\":3023:3444  function setRestrictedRarities(... */\n    tag_25:\n      tag_29\n      tag_115\n      calldatasize\n      0x04\n      tag_116\n      jump\t// in\n    tag_115:\n      tag_117\n      jump\t// in\n        /* \"contracts/CoreClashGameV2.sol\":4569:5504  function createGame(... */\n    tag_32:\n      sub(shl(0xa0, 0x01), 0x01)\n        /* \"contracts/CoreClashGameV2.sol\":4708:4732  allowedERC20[stakeToken] */\n      dup4\n      and\n      0x00\n      swap1\n      dup2\n      mstore\n        /* \"contracts/CoreClashGameV2.sol\":4708:4720  allowedERC20 */\n      0x04\n        /* \"contracts/CoreClashGameV2.sol\":4708:4732  allowedERC20[stakeToken] */\n      0x20\n      mstore\n      0x40\n      swap1\n      keccak256\n      sload\n      0xff\n      and\n        /* \"contracts/CoreClashGameV2.sol\":4700:4754  require(allowedERC20[stakeToken], \"ERC20 not allowed\") */\n      tag_119\n      jumpi\n      mload(0x40)\n      shl(0xe5, 0x461bcd)\n      dup2\n      mstore\n        /* \"#utility.yul\":8450:8452   */\n      0x20\n        /* \"contracts/CoreClashGameV2.sol\":4700:4754  require(allowedERC20[stakeToken], \"ERC20 not allowed\") */\n      0x04\n      dup3\n      add\n        /* \"#utility.yul\":8432:8453   */\n      mstore\n        /* \"#utility.yul\":8489:8491   */\n      0x11\n        /* \"#utility.yul\":8469:8487   */\n      0x24\n      dup3\n      add\n        /* \"#utility.yul\":8462:8492   */\n      mstore\n      shl(0x7a, 0x115490cc8c081b9bdd08185b1b1bddd959)\n        /* \"#utility.yul\":8508:8526   */\n      0x44\n      dup3\n      add\n        /* \"#utility.yul\":8501:8548   */\n      mstore\n        /* \"#utility.yul\":8565:8583   */\n      0x64\n      add\n        /* \"contracts/CoreClashGameV2.sol\":4700:4754  require(allowedERC20[stakeToken], \"ERC20 not allowed\") */\n    tag_120:\n      mload(0x40)\n      dup1\n      swap2\n      sub\n      swap1\n      revert\n    tag_119:\n        /* \"contracts/CoreClashGameV2.sol\":4767:4892  IERC20(stakeToken).safeTransferFrom(... */\n      tag_122\n      sub(shl(0xa0, 0x01), 0x01)\n        /* \"contracts/CoreClashGameV2.sol\":4767:4802  IERC20(stakeToken).safeTransferFrom */\n      dup5\n      and\n        /* \"contracts/CoreClashGameV2.sol\":4817:4827  msg.sender */\n      caller\n        /* \"contracts/CoreClashGameV2.sol\":4850:4854  this */\n      address\n        /* \"contracts/CoreClashGameV2.sol\":4870:4881  stakeAmount */\n      dup6\n        /* \"contracts/CoreClashGameV2.sol\":4767:4802  IERC20(stakeToken).safeTransferFrom */\n      tag_123\n        /* \"contracts/CoreClashGameV2.sol\":4767:4892  IERC20(stakeToken).safeTransferFrom(... */\n      jump\t// in\n    tag_122:\n        /* \"contracts/CoreClashGameV2.sol\":4905:4910  games */\n      0x03\n        /* \"contracts/CoreClashGameV2.sol\":4930:5426  Game({... */\n      mload(0x40)\n      dup1\n      0x0180\n      add\n      0x40\n      mstore\n      dup1\n        /* \"contracts/CoreClashGameV2.sol\":4963:4973  msg.sender */\n      caller\n      sub(shl(0xa0, 0x01), 0x01)\n        /* \"contracts/CoreClashGameV2.sol\":4930:5426  Game({... */\n      and\n      dup2\n      mstore\n      0x20\n      add\n        /* \"contracts/CoreClashGameV2.sol\":5009:5010  0 */\n      0x00\n      sub(shl(0xa0, 0x01), 0x01)\n        /* \"contracts/CoreClashGameV2.sol\":4930:5426  Game({... */\n      and\n      dup2\n      mstore\n      0x20\n      add\n        /* \"contracts/CoreClashGameV2.sol\":5042:5052  stakeToken */\n      dup6\n      sub(shl(0xa0, 0x01), 0x01)\n        /* \"contracts/CoreClashGameV2.sol\":4930:5426  Game({... */\n      and\n      dup2\n      mstore\n      0x20\n      add\n        /* \"contracts/CoreClashGameV2.sol\":5084:5095  stakeAmount */\n      dup5\n        /* \"contracts/CoreClashGameV2.sol\":4930:5426  Game({... */\n      dup2\n      mstore\n      0x20\n      add\n        /* \"contracts/CoreClashGameV2.sol\":5129:5135  commit */\n      dup4\n        /* \"contracts/CoreClashGameV2.sol\":4930:5426  Game({... */\n      dup2\n      mstore\n      0x20\n      add\n        /* \"contracts/CoreClashGameV2.sol\":5177:5178  0 */\n      0x00\n        /* \"contracts/CoreClashGameV2.sol\":5169:5179  bytes32(0) */\n      dup1\n      shl\n        /* \"contracts/CoreClashGameV2.sol\":4930:5426  Game({... */\n      dup2\n      mstore\n      0x20\n      add\n        /* \"contracts/CoreClashGameV2.sol\":5215:5220  false */\n      0x00\n        /* \"contracts/CoreClashGameV2.sol\":4930:5426  Game({... */\n      iszero\n      iszero\n      dup2\n      mstore\n      0x20\n      add\n        /* \"contracts/CoreClashGameV2.sol\":5256:5261  false */\n      0x00\n        /* \"contracts/CoreClashGameV2.sol\":4930:5426  Game({... */\n      iszero\n      iszero\n      dup2\n      mstore\n      0x20\n      add\n        /* \"contracts/CoreClashGameV2.sol\":5291:5306  block.timestamp */\n      timestamp\n        /* \"contracts/CoreClashGameV2.sol\":4930:5426  Game({... */\n      dup2\n      mstore\n      0x20\n      add\n        /* \"contracts/CoreClashGameV2.sol\":5340:5341  0 */\n      0x00\n        /* \"contracts/CoreClashGameV2.sol\":4930:5426  Game({... */\n      dup2\n      mstore\n      0x20\n      add\n        /* \"contracts/CoreClashGameV2.sol\":5376:5377  0 */\n      0x00\n        /* \"contracts/CoreClashGameV2.sol\":4930:5426  Game({... */\n      dup2\n      mstore\n      0x20\n      add\n        /* \"contracts/CoreClashGameV2.sol\":5405:5410  false */\n      0x00\n        /* \"contracts/CoreClashGameV2.sol\":4930:5426  Game({... */\n      iszero\n      iszero\n      dup2\n      mstore\n      pop\n        /* \"contracts/CoreClashGameV2.sol\":4905:5437  games.push(... */\n      swap1\n      dup1\n      0x01\n      dup2\n      sload\n      add\n      dup1\n      dup3\n      sstore\n      dup1\n      swap2\n      pop\n      pop\n      0x01\n      swap1\n      sub\n      swap1\n      0x00\n      mstore\n      keccak256(0x00, 0x20)\n      swap1\n      0x0b\n      mul\n      add\n      0x00\n      swap1\n      swap2\n      swap1\n      swap2\n      swap1\n      swap2\n      pop\n      0x00\n      dup3\n      add\n      mload\n      dup2\n      0x00\n      add\n      exp(0x0100, 0x00)\n      dup2\n      sload\n      dup2\n      sub(shl(0xa0, 0x01), 0x01)\n      mul\n      not\n      and\n      swap1\n      dup4\n      sub(shl(0xa0, 0x01), 0x01)\n      and\n      mul\n      or\n      swap1\n      sstore\n      pop\n      0x20\n      dup3\n      add\n      mload\n      dup2\n      0x01\n      add\n      exp(0x0100, 0x00)\n      dup2\n      sload\n      dup2\n      sub(shl(0xa0, 0x01), 0x01)\n      mul\n      not\n      and\n      swap1\n      dup4\n      sub(shl(0xa0, 0x01), 0x01)\n      and\n      mul\n      or\n      swap1\n      sstore\n      pop\n      0x40\n      dup3\n      add\n      mload\n      dup2\n      0x02\n      add\n      exp(0x0100, 0x00)\n      dup2\n      sload\n      dup2\n      sub(shl(0xa0, 0x01), 0x01)\n      mul\n      not\n      and\n      swap1\n      dup4\n      sub(shl(0xa0, 0x01), 0x01)\n      and\n      mul\n      or\n      swap1\n      sstore\n      pop\n      0x60\n      dup3\n      add\n      mload\n      dup2\n      0x03\n      add\n      sstore\n      0x80\n      dup3\n      add\n      mload\n      dup2\n      0x04\n      add\n      sstore\n      0xa0\n      dup3\n      add\n      mload\n      dup2\n      0x05\n      add\n      sstore\n      0xc0\n      dup3\n      add\n      mload\n      dup2\n      0x06\n      add\n      exp(0x0100, 0x00)\n      dup2\n      sload\n      dup2\n      0xff\n      mul\n      not\n      and\n      swap1\n      dup4\n      iszero\n      iszero\n      mul\n      or\n      swap1\n      sstore\n      pop\n      0xe0\n      dup3\n      add\n      mload\n      dup2\n      0x06\n      add\n      exp(0x0100, 0x01)\n      dup2\n      sload\n      dup2\n      0xff\n      mul\n      not\n      and\n      swap1\n      dup4\n      iszero\n      iszero\n      mul\n      or\n      swap1\n      sstore\n      pop\n      0x0100\n      dup3\n      add\n      mload\n      dup2\n      0x07\n      add\n      sstore\n      0x0120\n      dup3\n      add\n      mload\n      dup2\n      0x08\n      add\n      sstore\n      0x0140\n      dup3\n      add\n      mload\n      dup2\n      0x09\n      add\n      sstore\n      0x0160\n      dup3\n      add\n      mload\n      dup2\n      0x0a\n      add\n      exp(0x0100, 0x00)\n      dup2\n      sload\n      dup2\n      0xff\n      mul\n      not\n      and\n      swap1\n      dup4\n      iszero\n      iszero\n      mul\n      or\n      swap1\n      sstore\n      pop\n      pop\n      pop\n        /* \"contracts/CoreClashGameV2.sol\":5485:5495  msg.sender */\n      caller\n      sub(shl(0xa0, 0x01), 0x01)\n        /* \"contracts/CoreClashGameV2.sol\":5455:5496  GameCreated(games.length - 1, msg.sender) */\n      and\n        /* \"contracts/CoreClashGameV2.sol\":5482:5483  1 */\n      0x01\n        /* \"contracts/CoreClashGameV2.sol\":5467:5472  games */\n      0x03\n        /* \"contracts/CoreClashGameV2.sol\":5467:5479  games.length */\n      dup1\n      sload\n      swap1\n      pop\n        /* \"contracts/CoreClashGameV2.sol\":5467:5483  games.length - 1 */\n      tag_125\n      swap2\n      swap1\n      tag_126\n      jump\t// in\n    tag_125:\n        /* \"contracts/CoreClashGameV2.sol\":5455:5496  GameCreated(games.length - 1, msg.sender) */\n      mload(0x40)\n      0xc3e0f84839dc888c892a013d10c8f9d6dc05a21a879d0ce468ca558013e9121c\n      swap1\n      0x00\n      swap1\n      log3\n        /* \"contracts/CoreClashGameV2.sol\":4569:5504  function createGame(... */\n      pop\n      pop\n      pop\n      jump\t// out\n        /* \"contracts/CoreClashGameV2.sol\":1350:1369  Game[] public games */\n    tag_36:\n      0x03\n      dup2\n      dup2\n      sload\n      dup2\n      lt\n      tag_127\n      jumpi\n      0x00\n      dup1\n      revert\n    tag_127:\n      0x00\n      swap2\n      dup3\n      mstore\n      0x20\n      swap1\n      swap2\n      keccak256\n      0x0b\n      swap1\n      swap2\n      mul\n      add\n      dup1\n      sload\n      0x01\n      dup3\n      add\n      sload\n      0x02\n      dup4\n      add\n      sload\n      0x03\n      dup5\n      add\n      sload\n      0x04\n      dup6\n      add\n      sload\n      0x05\n      dup7\n      add\n      sload\n      0x06\n      dup8\n      add\n      sload\n      0x07\n      dup9\n      add\n      sload\n      0x08\n      dup10\n      add\n      sload\n      0x09\n      dup11\n      add\n      sload\n      0x0a\n      swap1\n      swap11\n      add\n      sload\n      sub(shl(0xa0, 0x01), 0x01)\n      swap10\n      dup11\n      and\n      swap12\n      pop\n      swap8\n      dup10\n      and\n      swap10\n      swap9\n      swap1\n      swap7\n      and\n      swap8\n      swap5\n      swap7\n      swap4\n      swap6\n      swap3\n      swap5\n      0xff\n      dup1\n      dup5\n      and\n      swap6\n      0x0100\n      swap1\n      swap5\n      div\n      dup2\n      and\n      swap5\n      swap3\n      swap4\n      and\n      dup13\n      jump\t// out\n        /* \"contracts/CoreClashGameV2.sol\":3594:3742  function setPlatformFee(uint256 feeBps) external onlyOwner {... */\n    tag_41:\n        /* \"contracts/CoreClashRarityLookupTable.sol\":1477:1482  owner */\n      and(sub(shl(0xa0, 0x01), 0x01), sload(0x01))\n        /* \"contracts/CoreClashRarityLookupTable.sol\":1463:1473  msg.sender */\n      caller\n        /* \"contracts/CoreClashRarityLookupTable.sol\":1463:1482  msg.sender != owner */\n      eq\n        /* \"contracts/CoreClashRarityLookupTable.sol\":1459:1501  if (msg.sender != owner) revert NotOwner() */\n      tag_130\n      jumpi\n        /* \"contracts/CoreClashRarityLookupTable.sol\":1491:1501  NotOwner() */\n      mload(0x40)\n      shl(0xe0, 0x30cd7471)\n      dup2\n      mstore\n      0x04\n      add\n      mload(0x40)\n      dup1\n      swap2\n      sub\n      swap1\n      revert\n        /* \"contracts/CoreClashRarityLookupTable.sol\":1459:1501  if (msg.sender != owner) revert NotOwner() */\n    tag_130:\n        /* \"contracts/CoreClashGameV2.sol\":3682:3686  1000 */\n      0x03e8\n        /* \"contracts/CoreClashGameV2.sol\":3672:3678  feeBps */\n      dup2\n        /* \"contracts/CoreClashGameV2.sol\":3672:3686  feeBps <= 1000 */\n      gt\n      iszero\n        /* \"contracts/CoreClashGameV2.sol\":3664:3703  require(feeBps <= 1000, \"Fee too high\") */\n      tag_132\n      jumpi\n      mload(0x40)\n      shl(0xe5, 0x461bcd)\n      dup2\n      mstore\n        /* \"#utility.yul\":9061:9063   */\n      0x20\n        /* \"contracts/CoreClashGameV2.sol\":3664:3703  require(feeBps <= 1000, \"Fee too high\") */\n      0x04\n      dup3\n      add\n        /* \"#utility.yul\":9043:9064   */\n      mstore\n        /* \"#utility.yul\":9100:9102   */\n      0x0c\n        /* \"#utility.yul\":9080:9098   */\n      0x24\n      dup3\n      add\n        /* \"#utility.yul\":9073:9103   */\n      mstore\n      shl(0xa3, 0x08ccaca40e8dede40d0d2ced)\n        /* \"#utility.yul\":9119:9137   */\n      0x44\n      dup3\n      add\n        /* \"#utility.yul\":9112:9154   */\n      mstore\n        /* \"#utility.yul\":9171:9189   */\n      0x64\n      add\n        /* \"contracts/CoreClashGameV2.sol\":3664:3703  require(feeBps <= 1000, \"Fee too high\") */\n      tag_120\n        /* \"#utility.yul\":8859:9195   */\n      jump\n        /* \"contracts/CoreClashGameV2.sol\":3664:3703  require(feeBps <= 1000, \"Fee too high\") */\n    tag_132:\n        /* \"contracts/CoreClashGameV2.sol\":3714:3725  platformFee */\n      0x07\n        /* \"contracts/CoreClashGameV2.sol\":3714:3734  platformFee = feeBps */\n      sstore\n        /* \"contracts/CoreClashGameV2.sol\":3594:3742  function setPlatformFee(uint256 feeBps) external onlyOwner {... */\n      jump\t// out\n        /* \"contracts/CoreClashGameV2.sol\":3750:3902  function setTeamWallet(address wallet) external onlyOwner {... */\n    tag_50:\n        /* \"contracts/CoreClashRarityLookupTable.sol\":1477:1482  owner */\n      and(sub(shl(0xa0, 0x01), 0x01), sload(0x01))\n        /* \"contracts/CoreClashRarityLookupTable.sol\":1463:1473  msg.sender */\n      caller\n        /* \"contracts/CoreClashRarityLookupTable.sol\":1463:1482  msg.sender != owner */\n      eq\n        /* \"contracts/CoreClashRarityLookupTable.sol\":1459:1501  if (msg.sender != owner) revert NotOwner() */\n      tag_136\n      jumpi\n        /* \"contracts/CoreClashRarityLookupTable.sol\":1491:1501  NotOwner() */\n      mload(0x40)\n      shl(0xe0, 0x30cd7471)\n      dup2\n      mstore\n      0x04\n      add\n      mload(0x40)\n      dup1\n      swap2\n      sub\n      swap1\n      revert\n        /* \"contracts/CoreClashRarityLookupTable.sol\":1459:1501  if (msg.sender != owner) revert NotOwner() */\n    tag_136:\n      sub(shl(0xa0, 0x01), 0x01)\n        /* \"contracts/CoreClashGameV2.sol\":3827:3847  wallet != address(0) */\n      dup2\n      and\n        /* \"contracts/CoreClashGameV2.sol\":3819:3864  require(wallet != address(0), \"Zero address\") */\n      tag_138\n      jumpi\n      mload(0x40)\n      shl(0xe5, 0x461bcd)\n      dup2\n      mstore\n        /* \"#utility.yul\":9402:9404   */\n      0x20\n        /* \"contracts/CoreClashGameV2.sol\":3819:3864  require(wallet != address(0), \"Zero address\") */\n      0x04\n      dup3\n      add\n        /* \"#utility.yul\":9384:9405   */\n      mstore\n        /* \"#utility.yul\":9441:9443   */\n      0x0c\n        /* \"#utility.yul\":9421:9439   */\n      0x24\n      dup3\n      add\n        /* \"#utility.yul\":9414:9444   */\n      mstore\n      shl(0xa0, 0x5a65726f2061646472657373)\n        /* \"#utility.yul\":9460:9478   */\n      0x44\n      dup3\n      add\n        /* \"#utility.yul\":9453:9495   */\n      mstore\n        /* \"#utility.yul\":9512:9530   */\n      0x64\n      add\n        /* \"contracts/CoreClashGameV2.sol\":3819:3864  require(wallet != address(0), \"Zero address\") */\n      tag_120\n        /* \"#utility.yul\":9200:9536   */\n      jump\n        /* \"contracts/CoreClashGameV2.sol\":3819:3864  require(wallet != address(0), \"Zero address\") */\n    tag_138:\n        /* \"contracts/CoreClashGameV2.sol\":3875:3885  teamWallet */\n      0x06\n        /* \"contracts/CoreClashGameV2.sol\":3875:3894  teamWallet = wallet */\n      dup1\n      sload\n      not(sub(shl(0xa0, 0x01), 0x01))\n      and\n      sub(shl(0xa0, 0x01), 0x01)\n      swap3\n      swap1\n      swap3\n      and\n      swap2\n      swap1\n      swap2\n      or\n      swap1\n      sstore\n        /* \"contracts/CoreClashGameV2.sol\":3750:3902  function setTeamWallet(address wallet) external onlyOwner {... */\n      jump\t// out\n        /* \"contracts/CoreClashGameV2.sol\":9183:10002  function settleGame(uint256 gameId) external {... */\n    tag_63:\n        /* \"contracts/CoreClashGameV2.sol\":9239:9253  Game storage g */\n      0x00\n        /* \"contracts/CoreClashGameV2.sol\":9256:9261  games */\n      0x03\n        /* \"contracts/CoreClashGameV2.sol\":9262:9268  gameId */\n      dup3\n        /* \"contracts/CoreClashGameV2.sol\":9256:9269  games[gameId] */\n      dup2\n      sload\n      dup2\n      lt\n      tag_144\n      jumpi\n      tag_144\n      tag_145\n      jump\t// in\n    tag_144:\n      0x00\n      swap2\n      dup3\n      mstore\n      0x20\n      swap1\n      swap2\n      keccak256\n      0x0b\n      swap1\n      swap2\n      mul\n      add\n        /* \"contracts/CoreClashGameV2.sol\":9289:9298  g.settled */\n      0x0a\n      dup2\n      add\n      sload\n        /* \"contracts/CoreClashGameV2.sol\":9256:9269  games[gameId] */\n      swap1\n      swap2\n      pop\n        /* \"contracts/CoreClashGameV2.sol\":9289:9298  g.settled */\n      0xff\n      and\n        /* \"contracts/CoreClashGameV2.sol\":9288:9298  !g.settled */\n      iszero\n        /* \"contracts/CoreClashGameV2.sol\":9280:9310  require(!g.settled, \"Settled\") */\n      tag_147\n      jumpi\n      mload(0x40)\n      shl(0xe5, 0x461bcd)\n      dup2\n      mstore\n      0x04\n      add\n      tag_120\n      swap1\n      tag_149\n      jump\t// in\n    tag_147:\n        /* \"contracts/CoreClashGameV2.sol\":9374:9375  g */\n      dup1\n        /* \"contracts/CoreClashGameV2.sol\":9374:9390  g.revealDeadline */\n      0x09\n      add\n      sload\n        /* \"contracts/CoreClashGameV2.sol\":9356:9371  block.timestamp */\n      timestamp\n        /* \"contracts/CoreClashGameV2.sol\":9356:9390  block.timestamp > g.revealDeadline */\n      gt\n        /* \"contracts/CoreClashGameV2.sol\":9352:9829  if (block.timestamp > g.revealDeadline) {... */\n      iszero\n      tag_159\n      jumpi\n        /* \"contracts/CoreClashGameV2.sol\":9411:9428  g.player1Revealed */\n      0x06\n      dup2\n      add\n      sload\n      0xff\n      and\n        /* \"contracts/CoreClashGameV2.sol\":9411:9450  g.player1Revealed && !g.player2Revealed */\n      dup1\n      iszero\n      tag_151\n      jumpi\n      pop\n        /* \"contracts/CoreClashGameV2.sol\":9433:9450  g.player2Revealed */\n      0x06\n      dup2\n      add\n      sload\n      0x0100\n      swap1\n      div\n      0xff\n      and\n        /* \"contracts/CoreClashGameV2.sol\":9432:9450  !g.player2Revealed */\n      iszero\n        /* \"contracts/CoreClashGameV2.sol\":9411:9450  g.player1Revealed && !g.player2Revealed */\n    tag_151:\n        /* \"contracts/CoreClashGameV2.sol\":9407:9538  if (g.player1Revealed && !g.player2Revealed) {... */\n      iszero\n      tag_152\n      jumpi\n        /* \"contracts/CoreClashGameV2.sol\":9487:9496  g.player1 */\n      dup1\n      sload\n        /* \"contracts/CoreClashGameV2.sol\":9471:9497  _payout(gameId, g.player1) */\n      tag_153\n      swap1\n        /* \"contracts/CoreClashGameV2.sol\":9479:9485  gameId */\n      dup4\n      swap1\n      sub(shl(0xa0, 0x01), 0x01)\n        /* \"contracts/CoreClashGameV2.sol\":9487:9496  g.player1 */\n      and\n        /* \"contracts/CoreClashGameV2.sol\":9471:9478  _payout */\n      tag_154\n        /* \"contracts/CoreClashGameV2.sol\":9471:9497  _payout(gameId, g.player1) */\n      jump\t// in\n    tag_153:\n        /* \"contracts/CoreClashGameV2.sol\":9516:9523  return; */\n      pop\n        /* \"contracts/CoreClashGameV2.sol\":9183:10002  function settleGame(uint256 gameId) external {... */\n      pop\n      jump\t// out\n        /* \"contracts/CoreClashGameV2.sol\":9407:9538  if (g.player1Revealed && !g.player2Revealed) {... */\n    tag_152:\n        /* \"contracts/CoreClashGameV2.sol\":9556:9573  g.player2Revealed */\n      0x06\n      dup2\n      add\n      sload\n      0x0100\n      swap1\n      div\n      0xff\n      and\n        /* \"contracts/CoreClashGameV2.sol\":9556:9595  g.player2Revealed && !g.player1Revealed */\n      dup1\n      iszero\n      tag_155\n      jumpi\n      pop\n        /* \"contracts/CoreClashGameV2.sol\":9578:9595  g.player1Revealed */\n      0x06\n      dup2\n      add\n      sload\n      0xff\n      and\n        /* \"contracts/CoreClashGameV2.sol\":9577:9595  !g.player1Revealed */\n      iszero\n        /* \"contracts/CoreClashGameV2.sol\":9556:9595  g.player2Revealed && !g.player1Revealed */\n    tag_155:\n        /* \"contracts/CoreClashGameV2.sol\":9552:9683  if (g.player2Revealed && !g.player1Revealed) {... */\n      iszero\n      tag_156\n      jumpi\n        /* \"contracts/CoreClashGameV2.sol\":9632:9641  g.player2 */\n      0x01\n      dup2\n      add\n      sload\n        /* \"contracts/CoreClashGameV2.sol\":9616:9642  _payout(gameId, g.player2) */\n      tag_153\n      swap1\n        /* \"contracts/CoreClashGameV2.sol\":9624:9630  gameId */\n      dup4\n      swap1\n      sub(shl(0xa0, 0x01), 0x01)\n        /* \"contracts/CoreClashGameV2.sol\":9632:9641  g.player2 */\n      and\n        /* \"contracts/CoreClashGameV2.sol\":9616:9623  _payout */\n      tag_154\n        /* \"contracts/CoreClashGameV2.sol\":9616:9642  _payout(gameId, g.player2) */\n      jump\t// in\n        /* \"contracts/CoreClashGameV2.sol\":9552:9683  if (g.player2Revealed && !g.player1Revealed) {... */\n    tag_156:\n        /* \"contracts/CoreClashGameV2.sol\":9702:9719  g.player1Revealed */\n      0x06\n      dup2\n      add\n      sload\n      0xff\n      and\n        /* \"contracts/CoreClashGameV2.sol\":9701:9719  !g.player1Revealed */\n      iszero\n        /* \"contracts/CoreClashGameV2.sol\":9701:9741  !g.player1Revealed && !g.player2Revealed */\n      dup1\n      iszero\n      tag_158\n      jumpi\n      pop\n        /* \"contracts/CoreClashGameV2.sol\":9724:9741  g.player2Revealed */\n      0x06\n      dup2\n      add\n      sload\n      0x0100\n      swap1\n      div\n      0xff\n      and\n        /* \"contracts/CoreClashGameV2.sol\":9723:9741  !g.player2Revealed */\n      iszero\n        /* \"contracts/CoreClashGameV2.sol\":9701:9741  !g.player1Revealed && !g.player2Revealed */\n    tag_158:\n        /* \"contracts/CoreClashGameV2.sol\":9697:9818  if (!g.player1Revealed && !g.player2Revealed) {... */\n      iszero\n      tag_159\n      jumpi\n        /* \"contracts/CoreClashGameV2.sol\":9762:9777  _refund(gameId) */\n      tag_153\n        /* \"contracts/CoreClashGameV2.sol\":9770:9776  gameId */\n      dup3\n        /* \"contracts/CoreClashGameV2.sol\":9762:9769  _refund */\n      tag_161\n        /* \"contracts/CoreClashGameV2.sol\":9762:9777  _refund(gameId) */\n      jump\t// in\n        /* \"contracts/CoreClashGameV2.sol\":9697:9818  if (!g.player1Revealed && !g.player2Revealed) {... */\n    tag_159:\n        /* \"contracts/CoreClashGameV2.sol\":9863:9880  g.player1Revealed */\n      0x06\n      dup2\n      add\n      sload\n      0xff\n      and\n        /* \"contracts/CoreClashGameV2.sol\":9863:9901  g.player1Revealed && g.player2Revealed */\n      dup1\n      iszero\n      tag_162\n      jumpi\n      pop\n        /* \"contracts/CoreClashGameV2.sol\":9884:9901  g.player2Revealed */\n      0x06\n      dup2\n      add\n      sload\n      0x0100\n      swap1\n      div\n      0xff\n      and\n        /* \"contracts/CoreClashGameV2.sol\":9863:9901  g.player1Revealed && g.player2Revealed */\n    tag_162:\n        /* \"contracts/CoreClashGameV2.sol\":9841:9943  require(... */\n      tag_163\n      jumpi\n      mload(0x40)\n      shl(0xe5, 0x461bcd)\n      dup2\n      mstore\n        /* \"#utility.yul\":10210:10212   */\n      0x20\n        /* \"contracts/CoreClashGameV2.sol\":9841:9943  require(... */\n      0x04\n      dup3\n      add\n        /* \"#utility.yul\":10192:10213   */\n      mstore\n        /* \"#utility.yul\":10249:10251   */\n      0x0e\n        /* \"#utility.yul\":10229:10247   */\n      0x24\n      dup3\n      add\n        /* \"#utility.yul\":10222:10252   */\n      mstore\n      shl(0x90, 0x52657665616c2070656e64696e67)\n        /* \"#utility.yul\":10268:10286   */\n      0x44\n      dup3\n      add\n        /* \"#utility.yul\":10261:10305   */\n      mstore\n        /* \"#utility.yul\":10322:10340   */\n      0x64\n      add\n        /* \"contracts/CoreClashGameV2.sol\":9841:9943  require(... */\n      tag_120\n        /* \"#utility.yul\":10008:10346   */\n      jump\n        /* \"contracts/CoreClashGameV2.sol\":9841:9943  require(... */\n    tag_163:\n        /* \"contracts/CoreClashGameV2.sol\":9972:9993  backendWinner[gameId] */\n      0x00\n      dup3\n      dup2\n      mstore\n        /* \"contracts/CoreClashGameV2.sol\":9972:9985  backendWinner */\n      0x05\n        /* \"contracts/CoreClashGameV2.sol\":9972:9993  backendWinner[gameId] */\n      0x20\n      mstore\n      0x40\n      swap1\n      keccak256\n      sload\n        /* \"contracts/CoreClashGameV2.sol\":9956:9994  _payout(gameId, backendWinner[gameId]) */\n      tag_153\n      swap1\n        /* \"contracts/CoreClashGameV2.sol\":9964:9970  gameId */\n      dup4\n      swap1\n      sub(shl(0xa0, 0x01), 0x01)\n        /* \"contracts/CoreClashGameV2.sol\":9972:9993  backendWinner[gameId] */\n      and\n        /* \"contracts/CoreClashGameV2.sol\":9956:9963  _payout */\n      tag_154\n        /* \"contracts/CoreClashGameV2.sol\":9956:9994  _payout(gameId, backendWinner[gameId]) */\n      jump\t// in\n        /* \"contracts/CoreClashRarityLookupTable.sol\":2778:3015  function setRestrictedRarity(... */\n    tag_87:\n        /* \"contracts/CoreClashRarityLookupTable.sol\":1477:1482  owner */\n      and(sub(shl(0xa0, 0x01), 0x01), sload(0x01))\n        /* \"contracts/CoreClashRarityLookupTable.sol\":1463:1473  msg.sender */\n      caller\n        /* \"contracts/CoreClashRarityLookupTable.sol\":1463:1482  msg.sender != owner */\n      eq\n        /* \"contracts/CoreClashRarityLookupTable.sol\":1459:1501  if (msg.sender != owner) revert NotOwner() */\n      tag_169\n      jumpi\n        /* \"contracts/CoreClashRarityLookupTable.sol\":1491:1501  NotOwner() */\n      mload(0x40)\n      shl(0xe0, 0x30cd7471)\n      dup2\n      mstore\n      0x04\n      add\n      mload(0x40)\n      dup1\n      swap2\n      sub\n      swap1\n      revert\n        /* \"contracts/CoreClashRarityLookupTable.sol\":1459:1501  if (msg.sender != owner) revert NotOwner() */\n    tag_169:\n        /* \"contracts/CoreClashRarityLookupTable.sol\":2931:2932  0 */\n      0x00\n        /* \"contracts/CoreClashRarityLookupTable.sol\":2907:2932  bytes(rarity).length == 0 */\n      dup3\n      swap1\n      sub\n        /* \"contracts/CoreClashRarityLookupTable.sol\":2903:2954  if (bytes(rarity).length == 0) revert EmptyRarity() */\n      tag_171\n      jumpi\n        /* \"contracts/CoreClashRarityLookupTable.sol\":2941:2954  EmptyRarity() */\n      mload(0x40)\n      shl(0xe1, 0x4b78778d)\n      dup2\n      mstore\n      0x04\n      add\n      mload(0x40)\n      dup1\n      swap2\n      sub\n      swap1\n      revert\n        /* \"contracts/CoreClashRarityLookupTable.sol\":2903:2954  if (bytes(rarity).length == 0) revert EmptyRarity() */\n    tag_171:\n        /* \"contracts/CoreClashRarityLookupTable.sol\":2965:3007  _setRestrictedInternal(rarity, restricted) */\n      tag_172\n        /* \"contracts/CoreClashRarityLookupTable.sol\":2988:2994  rarity */\n      dup4\n      dup4\n        /* \"contracts/CoreClashRarityLookupTable.sol\":2965:3007  _setRestrictedInternal(rarity, restricted) */\n      dup1\n      dup1\n      0x1f\n      add\n      0x20\n      dup1\n      swap2\n      div\n      mul\n      0x20\n      add\n      mload(0x40)\n      swap1\n      dup2\n      add\n      0x40\n      mstore\n      dup1\n      swap4\n      swap3\n      swap2\n      swap1\n      dup2\n      dup2\n      mstore\n      0x20\n      add\n      dup4\n      dup4\n      dup1\n      dup3\n      dup5\n      calldatacopy\n      0x00\n      swap3\n      add\n      swap2\n      swap1\n      swap2\n      mstore\n      pop\n        /* \"contracts/CoreClashRarityLookupTable.sol\":2996:3006  restricted */\n      dup6\n      swap3\n      pop\n        /* \"contracts/CoreClashRarityLookupTable.sol\":2965:2987  _setRestrictedInternal */\n      tag_173\n      swap2\n      pop\n      pop\n        /* \"contracts/CoreClashRarityLookupTable.sol\":2965:3007  _setRestrictedInternal(rarity, restricted) */\n      jump\t// in\n    tag_172:\n        /* \"contracts/CoreClashRarityLookupTable.sol\":2778:3015  function setRestrictedRarity(... */\n      pop\n      pop\n      pop\n      jump\t// out\n        /* \"contracts/CoreClashGameV2.sol\":3465:3586  function setAllowedERC20(address token, bool allowed) external onlyOwner {... */\n    tag_91:\n        /* \"contracts/CoreClashRarityLookupTable.sol\":1477:1482  owner */\n      and(sub(shl(0xa0, 0x01), 0x01), sload(0x01))\n        /* \"contracts/CoreClashRarityLookupTable.sol\":1463:1473  msg.sender */\n      caller\n        /* \"contracts/CoreClashRarityLookupTable.sol\":1463:1482  msg.sender != owner */\n      eq\n        /* \"contracts/CoreClashRarityLookupTable.sol\":1459:1501  if (msg.sender != owner) revert NotOwner() */\n      tag_175\n      jumpi\n        /* \"contracts/CoreClashRarityLookupTable.sol\":1491:1501  NotOwner() */\n      mload(0x40)\n      shl(0xe0, 0x30cd7471)\n      dup2\n      mstore\n      0x04\n      add\n      mload(0x40)\n      dup1\n      swap2\n      sub\n      swap1\n      revert\n        /* \"contracts/CoreClashRarityLookupTable.sol\":1459:1501  if (msg.sender != owner) revert NotOwner() */\n    tag_175:\n      sub(shl(0xa0, 0x01), 0x01)\n        /* \"contracts/CoreClashGameV2.sol\":3549:3568  allowedERC20[token] */\n      swap2\n      swap1\n      swap2\n      and\n      0x00\n      swap1\n      dup2\n      mstore\n        /* \"contracts/CoreClashGameV2.sol\":3549:3561  allowedERC20 */\n      0x04\n        /* \"contracts/CoreClashGameV2.sol\":3549:3568  allowedERC20[token] */\n      0x20\n      mstore\n      0x40\n      swap1\n      keccak256\n        /* \"contracts/CoreClashGameV2.sol\":3549:3578  allowedERC20[token] = allowed */\n      dup1\n      sload\n      not(0xff)\n      and\n      swap2\n      iszero\n      iszero\n      swap2\n      swap1\n      swap2\n      or\n      swap1\n      sstore\n        /* \"contracts/CoreClashGameV2.sol\":3465:3586  function setAllowedERC20(address token, bool allowed) external onlyOwner {... */\n      jump\t// out\n        /* \"contracts/CoreClashGameV2.sol\":6448:7273  function submitCommit(... */\n    tag_98:\n        /* \"contracts/CoreClashGameV2.sol\":6605:6619  Game storage g */\n      0x00\n        /* \"contracts/CoreClashGameV2.sol\":6622:6627  games */\n      0x03\n        /* \"contracts/CoreClashGameV2.sol\":6628:6634  gameId */\n      dup7\n        /* \"contracts/CoreClashGameV2.sol\":6622:6635  games[gameId] */\n      dup2\n      sload\n      dup2\n      lt\n      tag_179\n      jumpi\n      tag_179\n      tag_145\n      jump\t// in\n    tag_179:\n      0x00\n      swap2\n      dup3\n      mstore\n      0x20\n      dup1\n      dup4\n      keccak256\n        /* \"contracts/CoreClashGameV2.sol\":6753:6769  DOMAIN_SEPARATOR */\n      sload(0x02)\n        /* \"contracts/CoreClashGameV2.sol\":6798:6841  abi.encode(COMMIT_TYPEHASH, gameId, commit) */\n      0x40\n      dup1\n      mload\n        /* \"contracts/CoreClashGameV2.sol\":677:727  keccak256(\"Commit(uint256 gameId,bytes32 commit)\") */\n      0xf9a4bb626f7677582ca1a01dcf5e2aa8f3de98d999adc0598509571b99fe8adb\n        /* \"contracts/CoreClashGameV2.sol\":6798:6841  abi.encode(COMMIT_TYPEHASH, gameId, commit) */\n      dup2\n      dup7\n      add\n        /* \"#utility.yul\":10553:10578   */\n      mstore\n        /* \"#utility.yul\":10594:10612   */\n      dup1\n      dup3\n      add\n        /* \"#utility.yul\":10587:10621   */\n      dup14\n      swap1\n      mstore\n        /* \"#utility.yul\":10637:10655   */\n      0x60\n      dup1\n      dup3\n      add\n        /* \"#utility.yul\":10630:10664   */\n      dup14\n      swap1\n      mstore\n        /* \"contracts/CoreClashGameV2.sol\":6798:6841  abi.encode(COMMIT_TYPEHASH, gameId, commit) */\n      dup3\n      mload\n      dup1\n      dup4\n      sub\n      swap1\n      swap2\n      add\n      dup2\n      mstore\n        /* \"#utility.yul\":10526:10544   */\n      0x80\n      dup3\n      add\n        /* \"contracts/CoreClashGameV2.sol\":6798:6841  abi.encode(COMMIT_TYPEHASH, gameId, commit) */\n      swap1\n      swap3\n      mstore\n        /* \"contracts/CoreClashGameV2.sol\":6788:6842  keccak256(abi.encode(COMMIT_TYPEHASH, gameId, commit)) */\n      dup2\n      mload\n      swap2\n      swap1\n      swap5\n      add\n      keccak256\n      shl(0xf0, 0x1901)\n        /* \"contracts/CoreClashGameV2.sol\":6689:6857  abi.encodePacked(... */\n      0xa0\n      dup6\n      add\n        /* \"#utility.yul\":10933:10960   */\n      mstore\n        /* \"#utility.yul\":10976:10987   */\n      0xa2\n      dup5\n      add\n        /* \"#utility.yul\":10969:10996   */\n      swap2\n      swap1\n      swap2\n      mstore\n        /* \"#utility.yul\":11012:11024   */\n      0xc2\n      dup4\n      add\n        /* \"#utility.yul\":11005:11033   */\n      mstore\n        /* \"contracts/CoreClashGameV2.sol\":6622:6635  games[gameId] */\n      0x0b\n      swap3\n      swap1\n      swap3\n      mul\n      swap1\n      swap2\n      add\n      swap3\n      pop\n        /* \"#utility.yul\":11049:11061   */\n      0xe2\n      add\n        /* \"contracts/CoreClashGameV2.sol\":6689:6857  abi.encodePacked(... */\n      0x40\n      dup1\n      mload\n      not(0x1f)\n      dup2\n      dup5\n      sub\n      add\n      dup2\n      mstore\n      dup3\n      dup3\n      mstore\n        /* \"contracts/CoreClashGameV2.sol\":6665:6868  keccak256(... */\n      dup1\n      mload\n        /* \"contracts/CoreClashGameV2.sol\":6689:6857  abi.encodePacked(... */\n      0x20\n        /* \"contracts/CoreClashGameV2.sol\":6665:6868  keccak256(... */\n      swap2\n      dup3\n      add\n      keccak256\n        /* \"contracts/CoreClashGameV2.sol\":6881:6895  address signer */\n      0x00\n        /* \"contracts/CoreClashGameV2.sol\":6898:6924  ecrecover(digest, v, r, s) */\n      dup1\n      dup6\n      mstore\n      swap2\n      dup5\n      add\n      dup1\n      dup5\n      mstore\n        /* \"#utility.yul\":11299:11324   */\n      dup2\n      swap1\n      mstore\n        /* \"#utility.yul\":11372:11376   */\n      0xff\n        /* \"#utility.yul\":11360:11377   */\n      dup10\n      and\n        /* \"#utility.yul\":11340:11358   */\n      swap3\n      dup5\n      add\n        /* \"#utility.yul\":11333:11378   */\n      swap3\n      swap1\n      swap3\n      mstore\n        /* \"#utility.yul\":11394:11412   */\n      0x60\n      dup4\n      add\n        /* \"#utility.yul\":11387:11421   */\n      dup8\n      swap1\n      mstore\n        /* \"#utility.yul\":11437:11455   */\n      0x80\n      dup4\n      add\n        /* \"#utility.yul\":11430:11464   */\n      dup7\n      swap1\n      mstore\n        /* \"contracts/CoreClashGameV2.sol\":6665:6868  keccak256(... */\n      swap1\n      swap3\n      pop\n        /* \"contracts/CoreClashGameV2.sol\":6881:6895  address signer */\n      swap1\n        /* \"contracts/CoreClashGameV2.sol\":6898:6924  ecrecover(digest, v, r, s) */\n      0x01\n      swap1\n        /* \"#utility.yul\":11271:11290   */\n      0xa0\n      add\n        /* \"contracts/CoreClashGameV2.sol\":6898:6924  ecrecover(digest, v, r, s) */\n      0x20\n      mload(0x40)\n      0x20\n      dup2\n      sub\n      swap1\n      dup1\n      dup5\n      sub\n      swap1\n      dup6\n      gas\n      staticcall\n      iszero\n      dup1\n      iszero\n      tag_188\n      jumpi\n      returndatasize\n      0x00\n      dup1\n      returndatacopy\n      revert(0x00, returndatasize)\n    tag_188:\n      pop\n      pop\n      mload(add(not(0x1f), mload(0x40)))\n      swap2\n      pop\n      pop\n      sub(shl(0xa0, 0x01), 0x01)\n        /* \"contracts/CoreClashGameV2.sol\":6943:6963  signer == msg.sender */\n      dup2\n      and\n        /* \"contracts/CoreClashGameV2.sol\":6953:6963  msg.sender */\n      caller\n        /* \"contracts/CoreClashGameV2.sol\":6943:6963  signer == msg.sender */\n      eq\n        /* \"contracts/CoreClashGameV2.sol\":6935:6981  require(signer == msg.sender, \"Bad signature\") */\n      tag_189\n      jumpi\n      mload(0x40)\n      shl(0xe5, 0x461bcd)\n      dup2\n      mstore\n        /* \"#utility.yul\":11677:11679   */\n      0x20\n        /* \"contracts/CoreClashGameV2.sol\":6935:6981  require(signer == msg.sender, \"Bad signature\") */\n      0x04\n      dup3\n      add\n        /* \"#utility.yul\":11659:11680   */\n      mstore\n        /* \"#utility.yul\":11716:11718   */\n      0x0d\n        /* \"#utility.yul\":11696:11714   */\n      0x24\n      dup3\n      add\n        /* \"#utility.yul\":11689:11719   */\n      mstore\n      shl(0x98, 0x426164207369676e6174757265)\n        /* \"#utility.yul\":11735:11753   */\n      0x44\n      dup3\n      add\n        /* \"#utility.yul\":11728:11771   */\n      mstore\n        /* \"#utility.yul\":11788:11806   */\n      0x64\n      add\n        /* \"contracts/CoreClashGameV2.sol\":6935:6981  require(signer == msg.sender, \"Bad signature\") */\n      tag_120\n        /* \"#utility.yul\":11475:11812   */\n      jump\n        /* \"contracts/CoreClashGameV2.sol\":6935:6981  require(signer == msg.sender, \"Bad signature\") */\n    tag_189:\n        /* \"contracts/CoreClashGameV2.sol\":7012:7021  g.player1 */\n      dup3\n      sload\n      sub(shl(0xa0, 0x01), 0x01)\n      and\n        /* \"contracts/CoreClashGameV2.sol\":6998:7008  msg.sender */\n      caller\n        /* \"contracts/CoreClashGameV2.sol\":6998:7021  msg.sender == g.player1 */\n      sub\n        /* \"contracts/CoreClashGameV2.sol\":6994:7213  if (msg.sender == g.player1) {... */\n      tag_192\n      jumpi\n        /* \"contracts/CoreClashGameV2.sol\":7038:7053  g.player1Commit */\n      0x04\n      dup4\n      add\n        /* \"contracts/CoreClashGameV2.sol\":7038:7062  g.player1Commit = commit */\n      dup8\n      swap1\n      sstore\n        /* \"contracts/CoreClashGameV2.sol\":6994:7213  if (msg.sender == g.player1) {... */\n      jump(tag_195)\n    tag_192:\n        /* \"contracts/CoreClashGameV2.sol\":7098:7107  g.player2 */\n      0x01\n      dup4\n      add\n      sload\n      sub(shl(0xa0, 0x01), 0x01)\n      and\n        /* \"contracts/CoreClashGameV2.sol\":7084:7094  msg.sender */\n      caller\n        /* \"contracts/CoreClashGameV2.sol\":7084:7107  msg.sender == g.player2 */\n      sub\n        /* \"contracts/CoreClashGameV2.sol\":7080:7213  if (msg.sender == g.player2) {... */\n      tag_194\n      jumpi\n        /* \"contracts/CoreClashGameV2.sol\":7124:7139  g.player2Commit */\n      0x05\n      dup4\n      add\n        /* \"contracts/CoreClashGameV2.sol\":7124:7148  g.player2Commit = commit */\n      dup8\n      swap1\n      sstore\n        /* \"contracts/CoreClashGameV2.sol\":7080:7213  if (msg.sender == g.player2) {... */\n      jump(tag_195)\n    tag_194:\n        /* \"contracts/CoreClashGameV2.sol\":7181:7201  revert(\"Not player\") */\n      mload(0x40)\n      shl(0xe5, 0x461bcd)\n      dup2\n      mstore\n        /* \"#utility.yul\":12019:12021   */\n      0x20\n        /* \"contracts/CoreClashGameV2.sol\":7181:7201  revert(\"Not player\") */\n      0x04\n      dup3\n      add\n        /* \"#utility.yul\":12001:12022   */\n      mstore\n        /* \"#utility.yul\":12058:12060   */\n      0x0a\n        /* \"#utility.yul\":12038:12056   */\n      0x24\n      dup3\n      add\n        /* \"#utility.yul\":12031:12061   */\n      mstore\n      shl(0xb1, 0x2737ba10383630bcb2b9)\n        /* \"#utility.yul\":12077:12095   */\n      0x44\n      dup3\n      add\n        /* \"#utility.yul\":12070:12110   */\n      mstore\n        /* \"#utility.yul\":12127:12145   */\n      0x64\n      add\n        /* \"contracts/CoreClashGameV2.sol\":7181:7201  revert(\"Not player\") */\n      tag_120\n        /* \"#utility.yul\":11817:12151   */\n      jump\n        /* \"contracts/CoreClashGameV2.sol\":7080:7213  if (msg.sender == g.player2) {... */\n    tag_195:\n        /* \"contracts/CoreClashGameV2.sol\":7230:7265  CommitSubmitted(gameId, msg.sender) */\n      mload(0x40)\n        /* \"contracts/CoreClashGameV2.sol\":7254:7264  msg.sender */\n      caller\n      swap1\n        /* \"contracts/CoreClashGameV2.sol\":7246:7252  gameId */\n      dup10\n      swap1\n        /* \"contracts/CoreClashGameV2.sol\":7230:7265  CommitSubmitted(gameId, msg.sender) */\n      0xaf398d01fa79335dfe9179fda01a76ccb61aa3c3e0eb5cb31ede3dcea66af762\n      swap1\n      0x00\n      swap1\n      log3\n        /* \"contracts/CoreClashGameV2.sol\":6594:7273  {... */\n      pop\n      pop\n      pop\n        /* \"contracts/CoreClashGameV2.sol\":6448:7273  function submitCommit(... */\n      pop\n      pop\n      pop\n      pop\n      pop\n      jump\t// out\n        /* \"contracts/CoreClashGameV2.sol\":5692:6255  function joinGame(... */\n    tag_102:\n        /* \"contracts/CoreClashGameV2.sol\":5787:5801  Game storage g */\n      0x00\n        /* \"contracts/CoreClashGameV2.sol\":5804:5809  games */\n      0x03\n        /* \"contracts/CoreClashGameV2.sol\":5810:5816  gameId */\n      dup4\n        /* \"contracts/CoreClashGameV2.sol\":5804:5817  games[gameId] */\n      dup2\n      sload\n      dup2\n      lt\n      tag_200\n      jumpi\n      tag_200\n      tag_145\n      jump\t// in\n    tag_200:\n      0x00\n      swap2\n      dup3\n      mstore\n      0x20\n      swap1\n      swap2\n      keccak256\n      0x0b\n      swap1\n      swap2\n      mul\n      add\n        /* \"contracts/CoreClashGameV2.sol\":5838:5847  g.player2 */\n      0x01\n      dup2\n      add\n      sload\n        /* \"contracts/CoreClashGameV2.sol\":5804:5817  games[gameId] */\n      swap1\n      swap2\n      pop\n      sub(shl(0xa0, 0x01), 0x01)\n        /* \"contracts/CoreClashGameV2.sol\":5838:5847  g.player2 */\n      and\n        /* \"contracts/CoreClashGameV2.sol\":5838:5861  g.player2 == address(0) */\n      iszero\n        /* \"contracts/CoreClashGameV2.sol\":5830:5880  require(g.player2 == address(0), \"Already joined\") */\n      tag_202\n      jumpi\n      mload(0x40)\n      shl(0xe5, 0x461bcd)\n      dup2\n      mstore\n        /* \"#utility.yul\":12358:12360   */\n      0x20\n        /* \"contracts/CoreClashGameV2.sol\":5830:5880  require(g.player2 == address(0), \"Already joined\") */\n      0x04\n      dup3\n      add\n        /* \"#utility.yul\":12340:12361   */\n      mstore\n        /* \"#utility.yul\":12397:12399   */\n      0x0e\n        /* \"#utility.yul\":12377:12395   */\n      0x24\n      dup3\n      add\n        /* \"#utility.yul\":12370:12400   */\n      mstore\n      shl(0x92, 0x105b1c9958591e481a9bda5b9959)\n        /* \"#utility.yul\":12416:12434   */\n      0x44\n      dup3\n      add\n        /* \"#utility.yul\":12409:12453   */\n      mstore\n        /* \"#utility.yul\":12470:12488   */\n      0x64\n      add\n        /* \"contracts/CoreClashGameV2.sol\":5830:5880  require(g.player2 == address(0), \"Already joined\") */\n      tag_120\n        /* \"#utility.yul\":12156:12494   */\n      jump\n        /* \"contracts/CoreClashGameV2.sol\":5830:5880  require(g.player2 == address(0), \"Already joined\") */\n    tag_202:\n        /* \"contracts/CoreClashGameV2.sol\":5998:6011  g.stakeAmount */\n      0x03\n      dup2\n      add\n      sload\n        /* \"contracts/CoreClashGameV2.sol\":5900:5912  g.stakeToken */\n      0x02\n      dup3\n      add\n      sload\n        /* \"contracts/CoreClashGameV2.sol\":5893:6022  IERC20(g.stakeToken).safeTransferFrom(... */\n      tag_205\n      swap2\n      sub(shl(0xa0, 0x01), 0x01)\n        /* \"contracts/CoreClashGameV2.sol\":5900:5912  g.stakeToken */\n      swap1\n      swap2\n      and\n      swap1\n        /* \"contracts/CoreClashGameV2.sol\":5945:5955  msg.sender */\n      caller\n      swap1\n        /* \"contracts/CoreClashGameV2.sol\":5978:5982  this */\n      address\n      swap1\n        /* \"contracts/CoreClashGameV2.sol\":5893:5930  IERC20(g.stakeToken).safeTransferFrom */\n      tag_123\n        /* \"contracts/CoreClashGameV2.sol\":5893:6022  IERC20(g.stakeToken).safeTransferFrom(... */\n      jump\t// in\n    tag_205:\n        /* \"contracts/CoreClashGameV2.sol\":6035:6044  g.player2 */\n      0x01\n      dup2\n      add\n        /* \"contracts/CoreClashGameV2.sol\":6035:6057  g.player2 = msg.sender */\n      dup1\n      sload\n      not(sub(shl(0xa0, 0x01), 0x01))\n      and\n        /* \"contracts/CoreClashGameV2.sol\":6047:6057  msg.sender */\n      caller\n        /* \"contracts/CoreClashGameV2.sol\":6035:6057  g.player2 = msg.sender */\n      or\n      swap1\n      sstore\n        /* \"contracts/CoreClashGameV2.sol\":6068:6083  g.player2Commit */\n      0x05\n      dup2\n      add\n        /* \"contracts/CoreClashGameV2.sol\":6068:6092  g.player2Commit = commit */\n      dup3\n      swap1\n      sstore\n        /* \"contracts/CoreClashGameV2.sol\":6123:6138  block.timestamp */\n      timestamp\n        /* \"contracts/CoreClashGameV2.sol\":6105:6120  g.joinTimestamp */\n      0x08\n      dup3\n      add\n        /* \"contracts/CoreClashGameV2.sol\":6105:6138  g.joinTimestamp = block.timestamp */\n      dup2\n      swap1\n      sstore\n        /* \"contracts/CoreClashGameV2.sol\":6168:6199  block.timestamp + REVEAL_WINDOW */\n      tag_206\n      swap1\n        /* \"contracts/CoreClashGameV2.sol\":611:617  5 days */\n      0x069780\n      swap1\n        /* \"contracts/CoreClashGameV2.sol\":6168:6199  block.timestamp + REVEAL_WINDOW */\n      tag_207\n      jump\t// in\n    tag_206:\n        /* \"contracts/CoreClashGameV2.sol\":6149:6165  g.revealDeadline */\n      0x09\n      dup3\n      add\n        /* \"contracts/CoreClashGameV2.sol\":6149:6199  g.revealDeadline = block.timestamp + REVEAL_WINDOW */\n      sstore\n        /* \"contracts/CoreClashGameV2.sol\":6217:6247  GameJoined(gameId, msg.sender) */\n      mload(0x40)\n        /* \"contracts/CoreClashGameV2.sol\":6236:6246  msg.sender */\n      caller\n      swap1\n        /* \"contracts/CoreClashGameV2.sol\":6228:6234  gameId */\n      dup5\n      swap1\n        /* \"contracts/CoreClashGameV2.sol\":6217:6247  GameJoined(gameId, msg.sender) */\n      0x45c4f9cbafe186141862608c493f28b823fde4c2142bedc3f5169961a73fdd22\n      swap1\n      0x00\n      swap1\n      log3\n        /* \"contracts/CoreClashGameV2.sol\":5776:6255  {... */\n      pop\n        /* \"contracts/CoreClashGameV2.sol\":5692:6255  function joinGame(... */\n      pop\n      pop\n      jump\t// out\n        /* \"contracts/CoreClashGameV2.sol\":8576:8992  function postWinner(uint256 gameId, address winner) external onlyOwner {... */\n    tag_106:\n        /* \"contracts/CoreClashRarityLookupTable.sol\":1477:1482  owner */\n      and(sub(shl(0xa0, 0x01), 0x01), sload(0x01))\n        /* \"contracts/CoreClashRarityLookupTable.sol\":1463:1473  msg.sender */\n      caller\n        /* \"contracts/CoreClashRarityLookupTable.sol\":1463:1482  msg.sender != owner */\n      eq\n        /* \"contracts/CoreClashRarityLookupTable.sol\":1459:1501  if (msg.sender != owner) revert NotOwner() */\n      tag_209\n      jumpi\n        /* \"contracts/CoreClashRarityLookupTable.sol\":1491:1501  NotOwner() */\n      mload(0x40)\n      shl(0xe0, 0x30cd7471)\n      dup2\n      mstore\n      0x04\n      add\n      mload(0x40)\n      dup1\n      swap2\n      sub\n      swap1\n      revert\n        /* \"contracts/CoreClashRarityLookupTable.sol\":1459:1501  if (msg.sender != owner) revert NotOwner() */\n    tag_209:\n        /* \"contracts/CoreClashGameV2.sol\":8658:8672  Game storage g */\n      0x00\n        /* \"contracts/CoreClashGameV2.sol\":8675:8680  games */\n      0x03\n        /* \"contracts/CoreClashGameV2.sol\":8681:8687  gameId */\n      dup4\n        /* \"contracts/CoreClashGameV2.sol\":8675:8688  games[gameId] */\n      dup2\n      sload\n      dup2\n      lt\n      tag_212\n      jumpi\n      tag_212\n      tag_145\n      jump\t// in\n    tag_212:\n      0x00\n      swap2\n      dup3\n      mstore\n      0x20\n      swap1\n      swap2\n      keccak256\n      0x0b\n      swap1\n      swap2\n      mul\n      add\n        /* \"contracts/CoreClashGameV2.sol\":8708:8717  g.settled */\n      0x0a\n      dup2\n      add\n      sload\n        /* \"contracts/CoreClashGameV2.sol\":8675:8688  games[gameId] */\n      swap1\n      swap2\n      pop\n        /* \"contracts/CoreClashGameV2.sol\":8708:8717  g.settled */\n      0xff\n      and\n        /* \"contracts/CoreClashGameV2.sol\":8707:8717  !g.settled */\n      iszero\n        /* \"contracts/CoreClashGameV2.sol\":8699:8729  require(!g.settled, \"Settled\") */\n      tag_214\n      jumpi\n      mload(0x40)\n      shl(0xe5, 0x461bcd)\n      dup2\n      mstore\n      0x04\n      add\n      tag_120\n      swap1\n      tag_149\n      jump\t// in\n    tag_214:\n        /* \"contracts/CoreClashGameV2.sol\":8772:8781  g.player1 */\n      dup1\n      sload\n      sub(shl(0xa0, 0x01), 0x01)\n        /* \"contracts/CoreClashGameV2.sol\":8762:8781  winner == g.player1 */\n      dup4\n      dup2\n      and\n        /* \"contracts/CoreClashGameV2.sol\":8772:8781  g.player1 */\n      swap2\n      and\n        /* \"contracts/CoreClashGameV2.sol\":8762:8781  winner == g.player1 */\n      eq\n      dup1\n        /* \"contracts/CoreClashGameV2.sol\":8762:8821  winner == g.player1 ||... */\n      tag_216\n      jumpi\n      pop\n        /* \"contracts/CoreClashGameV2.sol\":8812:8821  g.player2 */\n      0x01\n      dup2\n      add\n      sload\n      sub(shl(0xa0, 0x01), 0x01)\n        /* \"contracts/CoreClashGameV2.sol\":8802:8821  winner == g.player2 */\n      dup4\n      dup2\n      and\n        /* \"contracts/CoreClashGameV2.sol\":8812:8821  g.player2 */\n      swap2\n      and\n        /* \"contracts/CoreClashGameV2.sol\":8802:8821  winner == g.player2 */\n      eq\n        /* \"contracts/CoreClashGameV2.sol\":8762:8821  winner == g.player1 ||... */\n    tag_216:\n        /* \"contracts/CoreClashGameV2.sol\":8762:8862  winner == g.player1 ||... */\n      dup1\n      tag_217\n      jumpi\n      pop\n      sub(shl(0xa0, 0x01), 0x01)\n        /* \"contracts/CoreClashGameV2.sol\":8842:8862  winner == address(0) */\n      dup3\n      and\n      iszero\n        /* \"contracts/CoreClashGameV2.sol\":8762:8862  winner == g.player1 ||... */\n    tag_217:\n        /* \"contracts/CoreClashGameV2.sol\":8740:8897  require(... */\n      tag_218\n      jumpi\n      mload(0x40)\n      shl(0xe5, 0x461bcd)\n      dup2\n      mstore\n        /* \"#utility.yul\":12831:12833   */\n      0x20\n        /* \"contracts/CoreClashGameV2.sol\":8740:8897  require(... */\n      0x04\n      dup3\n      add\n        /* \"#utility.yul\":12813:12834   */\n      mstore\n        /* \"#utility.yul\":12870:12871   */\n      0x07\n        /* \"#utility.yul\":12850:12868   */\n      0x24\n      dup3\n      add\n        /* \"#utility.yul\":12843:12872   */\n      mstore\n      shl(0xca, 0x125b9d985b1a59)\n        /* \"#utility.yul\":12888:12906   */\n      0x44\n      dup3\n      add\n        /* \"#utility.yul\":12881:12918   */\n      mstore\n        /* \"#utility.yul\":12935:12953   */\n      0x64\n      add\n        /* \"contracts/CoreClashGameV2.sol\":8740:8897  require(... */\n      tag_120\n        /* \"#utility.yul\":12629:12959   */\n      jump\n        /* \"contracts/CoreClashGameV2.sol\":8740:8897  require(... */\n    tag_218:\n        /* \"contracts/CoreClashGameV2.sol\":8910:8931  backendWinner[gameId] */\n      0x00\n      dup4\n      dup2\n      mstore\n        /* \"contracts/CoreClashGameV2.sol\":8910:8923  backendWinner */\n      0x05\n        /* \"contracts/CoreClashGameV2.sol\":8910:8931  backendWinner[gameId] */\n      0x20\n      swap1\n      dup2\n      mstore\n      0x40\n      swap2\n      dup3\n      swap1\n      keccak256\n        /* \"contracts/CoreClashGameV2.sol\":8910:8940  backendWinner[gameId] = winner */\n      dup1\n      sload\n      not(sub(shl(0xa0, 0x01), 0x01))\n      and\n      sub(shl(0xa0, 0x01), 0x01)\n      dup7\n      and\n      swap1\n      dup2\n      or\n      swap1\n      swap2\n      sstore\n        /* \"contracts/CoreClashGameV2.sol\":8956:8984  WinnerPosted(gameId, winner) */\n      swap2\n      mload\n        /* \"#utility.yul\":2748:2799   */\n      swap2\n      dup3\n      mstore\n        /* \"contracts/CoreClashGameV2.sol\":8910:8931  backendWinner[gameId] */\n      dup5\n      swap2\n        /* \"contracts/CoreClashGameV2.sol\":8956:8984  WinnerPosted(gameId, winner) */\n      0x4074d0bff1fdf28c9bc2363d469257d9ff1ab7fc537134b28bb50738757f8eba\n      swap2\n        /* \"#utility.yul\":2721:2739   */\n      add\n        /* \"contracts/CoreClashGameV2.sol\":8956:8984  WinnerPosted(gameId, winner) */\n      mload(0x40)\n      dup1\n      swap2\n      sub\n      swap1\n      log2\n        /* \"contracts/CoreClashGameV2.sol\":8647:8992  {... */\n      pop\n        /* \"contracts/CoreClashGameV2.sol\":8576:8992  function postWinner(uint256 gameId, address winner) external onlyOwner {... */\n      pop\n      pop\n      jump\t// out\n        /* \"contracts/CoreClashGameV2.sol\":7456:8381  function reveal(... */\n    tag_110:\n        /* \"contracts/CoreClashGameV2.sol\":7640:7654  Game storage g */\n      0x00\n        /* \"contracts/CoreClashGameV2.sol\":7657:7662  games */\n      0x03\n        /* \"contracts/CoreClashGameV2.sol\":7663:7669  gameId */\n      dup7\n        /* \"contracts/CoreClashGameV2.sol\":7657:7670  games[gameId] */\n      dup2\n      sload\n      dup2\n      lt\n      tag_224\n      jumpi\n      tag_224\n      tag_145\n      jump\t// in\n    tag_224:\n      0x00\n      swap2\n      dup3\n      mstore\n      0x20\n      swap1\n      swap2\n      keccak256\n      0x0b\n      swap1\n      swap2\n      mul\n      add\n        /* \"contracts/CoreClashGameV2.sol\":7686:7695  g.settled */\n      0x0a\n      dup2\n      add\n      sload\n        /* \"contracts/CoreClashGameV2.sol\":7657:7670  games[gameId] */\n      swap1\n      swap2\n      pop\n        /* \"contracts/CoreClashGameV2.sol\":7686:7695  g.settled */\n      0xff\n      and\n        /* \"contracts/CoreClashGameV2.sol\":7685:7695  !g.settled */\n      iszero\n        /* \"contracts/CoreClashGameV2.sol\":7677:7707  require(!g.settled, \"Settled\") */\n      tag_226\n      jumpi\n      mload(0x40)\n      shl(0xe5, 0x461bcd)\n      dup2\n      mstore\n      0x04\n      add\n      tag_120\n      swap1\n      tag_149\n      jump\t// in\n    tag_226:\n        /* \"contracts/CoreClashGameV2.sol\":7716:7744  _validateRarity(backgrounds) */\n      tag_228\n        /* \"contracts/CoreClashGameV2.sol\":7732:7743  backgrounds */\n      dup3\n        /* \"contracts/CoreClashGameV2.sol\":7716:7731  _validateRarity */\n      tag_229\n        /* \"contracts/CoreClashGameV2.sol\":7716:7744  _validateRarity(backgrounds) */\n      jump\t// in\n    tag_228:\n        /* \"contracts/CoreClashGameV2.sol\":7751:7800  _checkOwnership(msg.sender, nftContracts, nftIds) */\n      tag_230\n        /* \"contracts/CoreClashGameV2.sol\":7767:7777  msg.sender */\n      caller\n        /* \"contracts/CoreClashGameV2.sol\":7779:7791  nftContracts */\n      dup6\n        /* \"contracts/CoreClashGameV2.sol\":7793:7799  nftIds */\n      dup6\n        /* \"contracts/CoreClashGameV2.sol\":7751:7766  _checkOwnership */\n      tag_231\n        /* \"contracts/CoreClashGameV2.sol\":7751:7800  _checkOwnership(msg.sender, nftContracts, nftIds) */\n      jump\t// in\n    tag_230:\n        /* \"contracts/CoreClashGameV2.sol\":7809:7825  bytes32 computed */\n      0x00\n        /* \"contracts/CoreClashGameV2.sol\":7828:7904  _computeCommit(... */\n      tag_232\n        /* \"contracts/CoreClashGameV2.sol\":7853:7857  salt */\n      dup7\n        /* \"contracts/CoreClashGameV2.sol\":7868:7880  nftContracts */\n      dup7\n        /* \"contracts/CoreClashGameV2.sol\":7891:7897  nftIds */\n      dup7\n        /* \"contracts/CoreClashGameV2.sol\":7828:7842  _computeCommit */\n      tag_233\n        /* \"contracts/CoreClashGameV2.sol\":7828:7904  _computeCommit(... */\n      jump\t// in\n    tag_232:\n        /* \"contracts/CoreClashGameV2.sol\":7939:7948  g.player1 */\n      dup3\n      sload\n        /* \"contracts/CoreClashGameV2.sol\":7809:7904  bytes32 computed = _computeCommit(... */\n      swap1\n      swap2\n      pop\n      sub(shl(0xa0, 0x01), 0x01)\n        /* \"contracts/CoreClashGameV2.sol\":7939:7948  g.player1 */\n      and\n        /* \"contracts/CoreClashGameV2.sol\":7925:7935  msg.sender */\n      caller\n        /* \"contracts/CoreClashGameV2.sol\":7925:7948  msg.sender == g.player1 */\n      sub\n        /* \"contracts/CoreClashGameV2.sol\":7921:8336  if (msg.sender == g.player1) {... */\n      tag_234\n      jumpi\n        /* \"contracts/CoreClashGameV2.sol\":7970:7987  g.player1Revealed */\n      0x06\n      dup3\n      add\n      sload\n      0xff\n      and\n        /* \"contracts/CoreClashGameV2.sol\":7969:7987  !g.player1Revealed */\n      iszero\n        /* \"contracts/CoreClashGameV2.sol\":7961:7999  require(!g.player1Revealed, \"Already\") */\n      tag_235\n      jumpi\n      mload(0x40)\n      shl(0xe5, 0x461bcd)\n      dup2\n      mstore\n        /* \"#utility.yul\":13166:13168   */\n      0x20\n        /* \"contracts/CoreClashGameV2.sol\":7961:7999  require(!g.player1Revealed, \"Already\") */\n      0x04\n      dup3\n      add\n        /* \"#utility.yul\":13148:13169   */\n      mstore\n        /* \"#utility.yul\":13205:13206   */\n      0x07\n        /* \"#utility.yul\":13185:13203   */\n      0x24\n      dup3\n      add\n        /* \"#utility.yul\":13178:13207   */\n      mstore\n      shl(0xc8, 0x416c7265616479)\n        /* \"#utility.yul\":13223:13241   */\n      0x44\n      dup3\n      add\n        /* \"#utility.yul\":13216:13253   */\n      mstore\n        /* \"#utility.yul\":13270:13288   */\n      0x64\n      add\n        /* \"contracts/CoreClashGameV2.sol\":7961:7999  require(!g.player1Revealed, \"Already\") */\n      tag_120\n        /* \"#utility.yul\":12964:13294   */\n      jump\n        /* \"contracts/CoreClashGameV2.sol\":7961:7999  require(!g.player1Revealed, \"Already\") */\n    tag_235:\n        /* \"contracts/CoreClashGameV2.sol\":8030:8031  g */\n      dup2\n        /* \"contracts/CoreClashGameV2.sol\":8030:8045  g.player1Commit */\n      0x04\n      add\n      sload\n        /* \"contracts/CoreClashGameV2.sol\":8018:8026  computed */\n      dup2\n        /* \"contracts/CoreClashGameV2.sol\":8018:8045  computed == g.player1Commit */\n      eq\n        /* \"contracts/CoreClashGameV2.sol\":8010:8060  require(computed == g.player1Commit, \"Bad reveal\") */\n      tag_238\n      jumpi\n      mload(0x40)\n      shl(0xe5, 0x461bcd)\n      dup2\n      mstore\n        /* \"#utility.yul\":13501:13503   */\n      0x20\n        /* \"contracts/CoreClashGameV2.sol\":8010:8060  require(computed == g.player1Commit, \"Bad reveal\") */\n      0x04\n      dup3\n      add\n        /* \"#utility.yul\":13483:13504   */\n      mstore\n        /* \"#utility.yul\":13540:13542   */\n      0x0a\n        /* \"#utility.yul\":13520:13538   */\n      0x24\n      dup3\n      add\n        /* \"#utility.yul\":13513:13543   */\n      mstore\n      shl(0xb2, 0x109859081c995d99585b)\n        /* \"#utility.yul\":13559:13577   */\n      0x44\n      dup3\n      add\n        /* \"#utility.yul\":13552:13592   */\n      mstore\n        /* \"#utility.yul\":13609:13627   */\n      0x64\n      add\n        /* \"contracts/CoreClashGameV2.sol\":8010:8060  require(computed == g.player1Commit, \"Bad reveal\") */\n      tag_120\n        /* \"#utility.yul\":13299:13633   */\n      jump\n        /* \"contracts/CoreClashGameV2.sol\":8010:8060  require(computed == g.player1Commit, \"Bad reveal\") */\n    tag_238:\n        /* \"contracts/CoreClashGameV2.sol\":8071:8088  g.player1Revealed */\n      0x06\n      dup3\n      add\n        /* \"contracts/CoreClashGameV2.sol\":8071:8095  g.player1Revealed = true */\n      dup1\n      sload\n      not(0xff)\n      and\n        /* \"contracts/CoreClashGameV2.sol\":8091:8095  true */\n      0x01\n        /* \"contracts/CoreClashGameV2.sol\":8071:8095  g.player1Revealed = true */\n      or\n      swap1\n      sstore\n        /* \"contracts/CoreClashGameV2.sol\":7921:8336  if (msg.sender == g.player1) {... */\n      jump(tag_247)\n    tag_234:\n        /* \"contracts/CoreClashGameV2.sol\":8127:8136  g.player2 */\n      0x01\n      dup3\n      add\n      sload\n      sub(shl(0xa0, 0x01), 0x01)\n      and\n        /* \"contracts/CoreClashGameV2.sol\":8113:8123  msg.sender */\n      caller\n        /* \"contracts/CoreClashGameV2.sol\":8113:8136  msg.sender == g.player2 */\n      sub\n        /* \"contracts/CoreClashGameV2.sol\":8109:8336  if (msg.sender == g.player2) {... */\n      tag_194\n      jumpi\n        /* \"contracts/CoreClashGameV2.sol\":8158:8175  g.player2Revealed */\n      0x06\n      dup3\n      add\n      sload\n      0x0100\n      swap1\n      div\n      0xff\n      and\n        /* \"contracts/CoreClashGameV2.sol\":8157:8175  !g.player2Revealed */\n      iszero\n        /* \"contracts/CoreClashGameV2.sol\":8149:8187  require(!g.player2Revealed, \"Already\") */\n      tag_243\n      jumpi\n      mload(0x40)\n      shl(0xe5, 0x461bcd)\n      dup2\n      mstore\n        /* \"#utility.yul\":13166:13168   */\n      0x20\n        /* \"contracts/CoreClashGameV2.sol\":8149:8187  require(!g.player2Revealed, \"Already\") */\n      0x04\n      dup3\n      add\n        /* \"#utility.yul\":13148:13169   */\n      mstore\n        /* \"#utility.yul\":13205:13206   */\n      0x07\n        /* \"#utility.yul\":13185:13203   */\n      0x24\n      dup3\n      add\n        /* \"#utility.yul\":13178:13207   */\n      mstore\n      shl(0xc8, 0x416c7265616479)\n        /* \"#utility.yul\":13223:13241   */\n      0x44\n      dup3\n      add\n        /* \"#utility.yul\":13216:13253   */\n      mstore\n        /* \"#utility.yul\":13270:13288   */\n      0x64\n      add\n        /* \"contracts/CoreClashGameV2.sol\":8149:8187  require(!g.player2Revealed, \"Already\") */\n      tag_120\n        /* \"#utility.yul\":12964:13294   */\n      jump\n        /* \"contracts/CoreClashGameV2.sol\":8149:8187  require(!g.player2Revealed, \"Already\") */\n    tag_243:\n        /* \"contracts/CoreClashGameV2.sol\":8218:8219  g */\n      dup2\n        /* \"contracts/CoreClashGameV2.sol\":8218:8233  g.player2Commit */\n      0x05\n      add\n      sload\n        /* \"contracts/CoreClashGameV2.sol\":8206:8214  computed */\n      dup2\n        /* \"contracts/CoreClashGameV2.sol\":8206:8233  computed == g.player2Commit */\n      eq\n        /* \"contracts/CoreClashGameV2.sol\":8198:8248  require(computed == g.player2Commit, \"Bad reveal\") */\n      tag_245\n      jumpi\n      mload(0x40)\n      shl(0xe5, 0x461bcd)\n      dup2\n      mstore\n        /* \"#utility.yul\":13501:13503   */\n      0x20\n        /* \"contracts/CoreClashGameV2.sol\":8198:8248  require(computed == g.player2Commit, \"Bad reveal\") */\n      0x04\n      dup3\n      add\n        /* \"#utility.yul\":13483:13504   */\n      mstore\n        /* \"#utility.yul\":13540:13542   */\n      0x0a\n        /* \"#utility.yul\":13520:13538   */\n      0x24\n      dup3\n      add\n        /* \"#utility.yul\":13513:13543   */\n      mstore\n      shl(0xb2, 0x109859081c995d99585b)\n        /* \"#utility.yul\":13559:13577   */\n      0x44\n      dup3\n      add\n        /* \"#utility.yul\":13552:13592   */\n      mstore\n        /* \"#utility.yul\":13609:13627   */\n      0x64\n      add\n        /* \"contracts/CoreClashGameV2.sol\":8198:8248  require(computed == g.player2Commit, \"Bad reveal\") */\n      tag_120\n        /* \"#utility.yul\":13299:13633   */\n      jump\n        /* \"contracts/CoreClashGameV2.sol\":8198:8248  require(computed == g.player2Commit, \"Bad reveal\") */\n    tag_245:\n        /* \"contracts/CoreClashGameV2.sol\":8259:8276  g.player2Revealed */\n      0x06\n      dup3\n      add\n        /* \"contracts/CoreClashGameV2.sol\":8259:8283  g.player2Revealed = true */\n      dup1\n      sload\n      not(0xff00)\n      and\n      0x0100\n      or\n      swap1\n      sstore\n        /* \"contracts/CoreClashGameV2.sol\":8109:8336  if (msg.sender == g.player2) {... */\n    tag_247:\n        /* \"contracts/CoreClashGameV2.sol\":8349:8377  Revealed(gameId, msg.sender) */\n      mload(0x40)\n        /* \"contracts/CoreClashGameV2.sol\":8366:8376  msg.sender */\n      caller\n      swap1\n        /* \"contracts/CoreClashGameV2.sol\":8358:8364  gameId */\n      dup9\n      swap1\n        /* \"contracts/CoreClashGameV2.sol\":8349:8377  Revealed(gameId, msg.sender) */\n      0x6e9dac3f3f833c1d527aa989d3a673884ddc11e31fdccc11ccd8aebf1ae069ac\n      swap1\n      0x00\n      swap1\n      log3\n        /* \"contracts/CoreClashGameV2.sol\":7633:8381  {... */\n      pop\n      pop\n        /* \"contracts/CoreClashGameV2.sol\":7456:8381  function reveal(... */\n      pop\n      pop\n      pop\n      pop\n      pop\n      jump\t// out\n        /* \"contracts/CoreClashRarityLookupTable.sol\":3452:3662  function transferOwnership(address newOwner) external onlyOwner {... */\n    tag_113:\n        /* \"contracts/CoreClashRarityLookupTable.sol\":1477:1482  owner */\n      and(sub(shl(0xa0, 0x01), 0x01), sload(0x01))\n        /* \"contracts/CoreClashRarityLookupTable.sol\":1463:1473  msg.sender */\n      caller\n        /* \"contracts/CoreClashRarityLookupTable.sol\":1463:1482  msg.sender != owner */\n      eq\n        /* \"contracts/CoreClashRarityLookupTable.sol\":1459:1501  if (msg.sender != owner) revert NotOwner() */\n      tag_250\n      jumpi\n        /* \"contracts/CoreClashRarityLookupTable.sol\":1491:1501  NotOwner() */\n      mload(0x40)\n      shl(0xe0, 0x30cd7471)\n      dup2\n      mstore\n      0x04\n      add\n      mload(0x40)\n      dup1\n      swap2\n      sub\n      swap1\n      revert\n        /* \"contracts/CoreClashRarityLookupTable.sol\":1459:1501  if (msg.sender != owner) revert NotOwner() */\n    tag_250:\n      sub(shl(0xa0, 0x01), 0x01)\n        /* \"contracts/CoreClashRarityLookupTable.sol\":3535:3557  newOwner != address(0) */\n      dup2\n      and\n        /* \"contracts/CoreClashRarityLookupTable.sol\":3527:3574  require(newOwner != address(0), \"Zero address\") */\n      tag_252\n      jumpi\n      mload(0x40)\n      shl(0xe5, 0x461bcd)\n      dup2\n      mstore\n        /* \"#utility.yul\":9402:9404   */\n      0x20\n        /* \"contracts/CoreClashRarityLookupTable.sol\":3527:3574  require(newOwner != address(0), \"Zero address\") */\n      0x04\n      dup3\n      add\n        /* \"#utility.yul\":9384:9405   */\n      mstore\n        /* \"#utility.yul\":9441:9443   */\n      0x0c\n        /* \"#utility.yul\":9421:9439   */\n      0x24\n      dup3\n      add\n        /* \"#utility.yul\":9414:9444   */\n      mstore\n      shl(0xa0, 0x5a65726f2061646472657373)\n        /* \"#utility.yul\":9460:9478   */\n      0x44\n      dup3\n      add\n        /* \"#utility.yul\":9453:9495   */\n      mstore\n        /* \"#utility.yul\":9512:9530   */\n      0x64\n      add\n        /* \"contracts/CoreClashRarityLookupTable.sol\":3527:3574  require(newOwner != address(0), \"Zero address\") */\n      tag_120\n        /* \"#utility.yul\":9200:9536   */\n      jump\n        /* \"contracts/CoreClashRarityLookupTable.sol\":3527:3574  require(newOwner != address(0), \"Zero address\") */\n    tag_252:\n        /* \"contracts/CoreClashRarityLookupTable.sol\":3611:3616  owner */\n      sload(0x01)\n        /* \"contracts/CoreClashRarityLookupTable.sol\":3590:3627  OwnershipTransferred(owner, newOwner) */\n      mload(0x40)\n      sub(shl(0xa0, 0x01), 0x01)\n      dup1\n      dup5\n      and\n      swap3\n        /* \"contracts/CoreClashRarityLookupTable.sol\":3611:3616  owner */\n      and\n      swap1\n        /* \"contracts/CoreClashRarityLookupTable.sol\":3590:3627  OwnershipTransferred(owner, newOwner) */\n      0x8be0079c531659141344cd1fd0a4f28419497f9722a3daafe3b4186f6b6457e0\n      swap1\n        /* \"contracts/CoreClashRarityLookupTable.sol\":3611:3616  owner */\n      0x00\n      swap1\n        /* \"contracts/CoreClashRarityLookupTable.sol\":3590:3627  OwnershipTransferred(owner, newOwner) */\n      log3\n        /* \"contracts/CoreClashRarityLookupTable.sol\":3638:3643  owner */\n      0x01\n        /* \"contracts/CoreClashRarityLookupTable.sol\":3638:3654  owner = newOwner */\n      dup1\n      sload\n      not(sub(shl(0xa0, 0x01), 0x01))\n      and\n      sub(shl(0xa0, 0x01), 0x01)\n      swap3\n      swap1\n      swap3\n      and\n      swap2\n      swap1\n      swap2\n      or\n      swap1\n      sstore\n        /* \"contracts/CoreClashRarityLookupTable.sol\":3452:3662  function transferOwnership(address newOwner) external onlyOwner {... */\n      jump\t// out\n        /* \"contracts/CoreClashRarityLookupTable.sol\":3023:3444  function setRestrictedRarities(... */\n    tag_117:\n        /* \"contracts/CoreClashRarityLookupTable.sol\":1477:1482  owner */\n      and(sub(shl(0xa0, 0x01), 0x01), sload(0x01))\n        /* \"contracts/CoreClashRarityLookupTable.sol\":1463:1473  msg.sender */\n      caller\n        /* \"contracts/CoreClashRarityLookupTable.sol\":1463:1482  msg.sender != owner */\n      eq\n        /* \"contracts/CoreClashRarityLookupTable.sol\":1459:1501  if (msg.sender != owner) revert NotOwner() */\n      tag_255\n      jumpi\n        /* \"contracts/CoreClashRarityLookupTable.sol\":1491:1501  NotOwner() */\n      mload(0x40)\n      shl(0xe0, 0x30cd7471)\n      dup2\n      mstore\n      0x04\n      add\n      mload(0x40)\n      dup1\n      swap2\n      sub\n      swap1\n      revert\n        /* \"contracts/CoreClashRarityLookupTable.sol\":1459:1501  if (msg.sender != owner) revert NotOwner() */\n    tag_255:\n        /* \"contracts/CoreClashRarityLookupTable.sol\":3169:3205  rarities.length != restricted.length */\n      dup3\n      dup2\n      eq\n        /* \"contracts/CoreClashRarityLookupTable.sol\":3165:3230  if (rarities.length != restricted.length) revert LengthMismatch() */\n      tag_257\n      jumpi\n        /* \"contracts/CoreClashRarityLookupTable.sol\":3214:3230  LengthMismatch() */\n      mload(0x40)\n      not(sub(shl(0xe3, 0x1398b9), 0x01))\n      dup2\n      mstore\n      0x04\n      add\n      mload(0x40)\n      dup1\n      swap2\n      sub\n      swap1\n      revert\n        /* \"contracts/CoreClashRarityLookupTable.sol\":3165:3230  if (rarities.length != restricted.length) revert LengthMismatch() */\n    tag_257:\n        /* \"contracts/CoreClashRarityLookupTable.sol\":3248:3257  uint256 i */\n      0x00\n        /* \"contracts/CoreClashRarityLookupTable.sol\":3243:3437  for (uint256 i = 0; i < rarities.length; i++) {... */\n    tag_258:\n        /* \"contracts/CoreClashRarityLookupTable.sol\":3263:3282  i < rarities.length */\n      dup4\n      dup2\n      lt\n        /* \"contracts/CoreClashRarityLookupTable.sol\":3243:3437  for (uint256 i = 0; i < rarities.length; i++) {... */\n      iszero\n      tag_259\n      jumpi\n        /* \"contracts/CoreClashRarityLookupTable.sol\":3314:3322  rarities */\n      dup5\n      dup5\n        /* \"contracts/CoreClashRarityLookupTable.sol\":3323:3324  i */\n      dup3\n        /* \"contracts/CoreClashRarityLookupTable.sol\":3314:3325  rarities[i] */\n      dup2\n      dup2\n      lt\n      tag_262\n      jumpi\n      tag_262\n      tag_145\n      jump\t// in\n    tag_262:\n      swap1\n      pop\n      0x20\n      mul\n      dup2\n      add\n      swap1\n      tag_263\n      swap2\n      swap1\n      tag_264\n      jump\t// in\n    tag_263:\n        /* \"contracts/CoreClashRarityLookupTable.sol\":3308:3333  bytes(rarities[i]).length */\n      swap1\n      pop\n        /* \"contracts/CoreClashRarityLookupTable.sol\":3337:3338  0 */\n      0x00\n        /* \"contracts/CoreClashRarityLookupTable.sol\":3308:3338  bytes(rarities[i]).length == 0 */\n      sub\n        /* \"contracts/CoreClashRarityLookupTable.sol\":3304:3360  if (bytes(rarities[i]).length == 0) revert EmptyRarity() */\n      tag_265\n      jumpi\n        /* \"contracts/CoreClashRarityLookupTable.sol\":3347:3360  EmptyRarity() */\n      mload(0x40)\n      shl(0xe1, 0x4b78778d)\n      dup2\n      mstore\n      0x04\n      add\n      mload(0x40)\n      dup1\n      swap2\n      sub\n      swap1\n      revert\n        /* \"contracts/CoreClashRarityLookupTable.sol\":3304:3360  if (bytes(rarities[i]).length == 0) revert EmptyRarity() */\n    tag_265:\n        /* \"contracts/CoreClashRarityLookupTable.sol\":3375:3425  _setRestrictedInternal(rarities[i], restricted[i]) */\n      tag_266\n        /* \"contracts/CoreClashRarityLookupTable.sol\":3398:3406  rarities */\n      dup6\n      dup6\n        /* \"contracts/CoreClashRarityLookupTable.sol\":3407:3408  i */\n      dup4\n        /* \"contracts/CoreClashRarityLookupTable.sol\":3398:3409  rarities[i] */\n      dup2\n      dup2\n      lt\n      tag_268\n      jumpi\n      tag_268\n      tag_145\n      jump\t// in\n    tag_268:\n      swap1\n      pop\n      0x20\n      mul\n      dup2\n      add\n      swap1\n      tag_269\n      swap2\n      swap1\n      tag_264\n      jump\t// in\n    tag_269:\n        /* \"contracts/CoreClashRarityLookupTable.sol\":3375:3425  _setRestrictedInternal(rarities[i], restricted[i]) */\n      dup1\n      dup1\n      0x1f\n      add\n      0x20\n      dup1\n      swap2\n      div\n      mul\n      0x20\n      add\n      mload(0x40)\n      swap1\n      dup2\n      add\n      0x40\n      mstore\n      dup1\n      swap4\n      swap3\n      swap2\n      swap1\n      dup2\n      dup2\n      mstore\n      0x20\n      add\n      dup4\n      dup4\n      dup1\n      dup3\n      dup5\n      calldatacopy\n      0x00\n      swap3\n      add\n      swap2\n      swap1\n      swap2\n      mstore\n      pop\n        /* \"contracts/CoreClashRarityLookupTable.sol\":3411:3421  restricted */\n      dup8\n      swap3\n      pop\n      dup7\n      swap2\n      pop\n        /* \"contracts/CoreClashRarityLookupTable.sol\":3422:3423  i */\n      dup6\n      swap1\n      pop\n        /* \"contracts/CoreClashRarityLookupTable.sol\":3411:3424  restricted[i] */\n      dup2\n      dup2\n      lt\n      tag_271\n      jumpi\n      tag_271\n      tag_145\n      jump\t// in\n    tag_271:\n      swap1\n      pop\n      0x20\n      mul\n      add\n      0x20\n      dup2\n      add\n      swap1\n      tag_272\n      swap2\n      swap1\n      tag_273\n      jump\t// in\n    tag_272:\n        /* \"contracts/CoreClashRarityLookupTable.sol\":3375:3397  _setRestrictedInternal */\n      tag_173\n        /* \"contracts/CoreClashRarityLookupTable.sol\":3375:3425  _setRestrictedInternal(rarities[i], restricted[i]) */\n      jump\t// in\n    tag_266:\n        /* \"contracts/CoreClashRarityLookupTable.sol\":3284:3287  i++ */\n      0x01\n      add\n        /* \"contracts/CoreClashRarityLookupTable.sol\":3243:3437  for (uint256 i = 0; i < rarities.length; i++) {... */\n      jump(tag_258)\n    tag_259:\n      pop\n        /* \"contracts/CoreClashRarityLookupTable.sol\":3023:3444  function setRestrictedRarities(... */\n      pop\n      pop\n      pop\n      pop\n      jump\t// out\n        /* \"@openzeppelin/contracts/token/ERC20/utils/SafeERC20.sol\":1618:1806  function safeTransferFrom(IERC20 token, address from, address to, uint256 value) internal {... */\n    tag_123:\n        /* \"@openzeppelin/contracts/token/ERC20/utils/SafeERC20.sol\":1745:1798  abi.encodeCall(token.transferFrom, (from, to, value)) */\n      mload(0x40)\n      sub(shl(0xa0, 0x01), 0x01)\n        /* \"#utility.yul\":14608:14623   */\n      dup5\n      dup2\n      and\n        /* \"@openzeppelin/contracts/token/ERC20/utils/SafeERC20.sol\":1745:1798  abi.encodeCall(token.transferFrom, (from, to, value)) */\n      0x24\n      dup4\n      add\n        /* \"#utility.yul\":14590:14624   */\n      mstore\n        /* \"#utility.yul\":14660:14675   */\n      dup4\n      dup2\n      and\n        /* \"#utility.yul\":14640:14658   */\n      0x44\n      dup4\n      add\n        /* \"#utility.yul\":14633:14676   */\n      mstore\n        /* \"#utility.yul\":14692:14710   */\n      0x64\n      dup3\n      add\n        /* \"#utility.yul\":14685:14719   */\n      dup4\n      swap1\n      mstore\n        /* \"@openzeppelin/contracts/token/ERC20/utils/SafeERC20.sol\":1718:1799  _callOptionalReturn(token, abi.encodeCall(token.transferFrom, (from, to, value))) */\n      tag_275\n      swap2\n        /* \"@openzeppelin/contracts/token/ERC20/utils/SafeERC20.sol\":1738:1743  token */\n      dup7\n      swap2\n        /* \"@openzeppelin/contracts/token/ERC20/utils/SafeERC20.sol\":1760:1778  token.transferFrom */\n      dup3\n      and\n      swap1\n      0x23b872dd\n      swap1\n        /* \"#utility.yul\":14525:14543   */\n      0x84\n      add\n        /* \"@openzeppelin/contracts/token/ERC20/utils/SafeERC20.sol\":1745:1798  abi.encodeCall(token.transferFrom, (from, to, value)) */\n    tag_276:\n      mload(0x40)\n      0x20\n      dup2\n      dup4\n      sub\n      sub\n      dup2\n      mstore\n      swap1\n      0x40\n      mstore\n      swap2\n      pop\n      0xe0\n      shl\n      0x20\n      dup3\n      add\n      dup1\n      mload\n      sub(shl(0xe0, 0x01), 0x01)\n      dup4\n      dup2\n      dup4\n      and\n      or\n      dup4\n      mstore\n      pop\n      pop\n      pop\n      pop\n        /* \"@openzeppelin/contracts/token/ERC20/utils/SafeERC20.sol\":1718:1737  _callOptionalReturn */\n      tag_278\n        /* \"@openzeppelin/contracts/token/ERC20/utils/SafeERC20.sol\":1718:1799  _callOptionalReturn(token, abi.encodeCall(token.transferFrom, (from, to, value))) */\n      jump\t// in\n    tag_275:\n        /* \"@openzeppelin/contracts/token/ERC20/utils/SafeERC20.sol\":1618:1806  function safeTransferFrom(IERC20 token, address from, address to, uint256 value) internal {... */\n      pop\n      pop\n      pop\n      pop\n      jump\t// out\n        /* \"contracts/CoreClashGameV2.sol\":10196:10914  function _payout(uint256 gameId, address winner) internal {... */\n    tag_154:\n        /* \"contracts/CoreClashGameV2.sol\":10265:10279  Game storage g */\n      0x00\n        /* \"contracts/CoreClashGameV2.sol\":10282:10287  games */\n      0x03\n        /* \"contracts/CoreClashGameV2.sol\":10288:10294  gameId */\n      dup4\n        /* \"contracts/CoreClashGameV2.sol\":10282:10295  games[gameId] */\n      dup2\n      sload\n      dup2\n      lt\n      tag_281\n      jumpi\n      tag_281\n      tag_145\n      jump\t// in\n    tag_281:\n      0x00\n      swap2\n      dup3\n      mstore\n      0x20\n      dup3\n      keccak256\n        /* \"contracts/CoreClashGameV2.sol\":10306:10315  g.settled */\n      0x0a\n        /* \"contracts/CoreClashGameV2.sol\":10282:10295  games[gameId] */\n      0x0b\n      swap1\n      swap3\n      mul\n      add\n        /* \"contracts/CoreClashGameV2.sol\":10306:10315  g.settled */\n      swap1\n      dup2\n      add\n        /* \"contracts/CoreClashGameV2.sol\":10306:10322  g.settled = true */\n      dup1\n      sload\n      not(0xff)\n      and\n        /* \"contracts/CoreClashGameV2.sol\":10318:10322  true */\n      0x01\n        /* \"contracts/CoreClashGameV2.sol\":10306:10322  g.settled = true */\n      or\n      swap1\n      sstore\n        /* \"contracts/CoreClashGameV2.sol\":10349:10362  g.stakeAmount */\n      0x03\n      dup2\n      add\n      sload\n        /* \"contracts/CoreClashGameV2.sol\":10282:10295  games[gameId] */\n      swap1\n      swap3\n      pop\n        /* \"contracts/CoreClashGameV2.sol\":10349:10366  g.stakeAmount * 2 */\n      tag_283\n      swap1\n        /* \"contracts/CoreClashGameV2.sol\":10365:10366  2 */\n      0x02\n        /* \"contracts/CoreClashGameV2.sol\":10349:10366  g.stakeAmount * 2 */\n      tag_284\n      jump\t// in\n    tag_283:\n        /* \"contracts/CoreClashGameV2.sol\":10335:10366  uint256 pot = g.stakeAmount * 2 */\n      swap1\n      pop\n        /* \"contracts/CoreClashGameV2.sol\":10377:10388  uint256 fee */\n      0x00\n        /* \"contracts/CoreClashGameV2.sol\":10413:10419  10_000 */\n      0x2710\n        /* \"contracts/CoreClashGameV2.sol\":10398:10409  platformFee */\n      sload(0x07)\n        /* \"contracts/CoreClashGameV2.sol\":10392:10395  pot */\n      dup4\n        /* \"contracts/CoreClashGameV2.sol\":10392:10409  pot * platformFee */\n      tag_285\n      swap2\n      swap1\n      tag_284\n      jump\t// in\n    tag_285:\n        /* \"contracts/CoreClashGameV2.sol\":10391:10419  (pot * platformFee) / 10_000 */\n      tag_286\n      swap2\n      swap1\n      tag_287\n      jump\t// in\n    tag_286:\n        /* \"contracts/CoreClashGameV2.sol\":10377:10419  uint256 fee = (pot * platformFee) / 10_000 */\n      swap1\n      pop\n        /* \"contracts/CoreClashGameV2.sol\":10430:10444  uint256 payout */\n      0x00\n        /* \"contracts/CoreClashGameV2.sol\":10447:10456  pot - fee */\n      tag_288\n        /* \"contracts/CoreClashGameV2.sol\":10377:10419  uint256 fee = (pot * platformFee) / 10_000 */\n      dup3\n        /* \"contracts/CoreClashGameV2.sol\":10447:10450  pot */\n      dup5\n        /* \"contracts/CoreClashGameV2.sol\":10447:10456  pot - fee */\n      tag_126\n      jump\t// in\n    tag_288:\n        /* \"contracts/CoreClashGameV2.sol\":10430:10456  uint256 payout = pot - fee */\n      swap1\n      pop\n        /* \"contracts/CoreClashGameV2.sol\":10473:10480  fee > 0 */\n      dup2\n      iszero\n        /* \"contracts/CoreClashGameV2.sol\":10469:10559  if (fee > 0) {... */\n      tag_290\n      jumpi\n        /* \"contracts/CoreClashGameV2.sol\":10531:10541  teamWallet */\n      sload(0x06)\n        /* \"contracts/CoreClashGameV2.sol\":10504:10516  g.stakeToken */\n      0x02\n      dup6\n      add\n      sload\n        /* \"contracts/CoreClashGameV2.sol\":10497:10547  IERC20(g.stakeToken).safeTransfer(teamWallet, fee) */\n      tag_290\n      swap2\n      sub(shl(0xa0, 0x01), 0x01)\n        /* \"contracts/CoreClashGameV2.sol\":10504:10516  g.stakeToken */\n      swap2\n      dup3\n      and\n      swap2\n        /* \"contracts/CoreClashGameV2.sol\":10531:10541  teamWallet */\n      and\n        /* \"contracts/CoreClashGameV2.sol\":10543:10546  fee */\n      dup5\n        /* \"contracts/CoreClashGameV2.sol\":10497:10530  IERC20(g.stakeToken).safeTransfer */\n      tag_291\n        /* \"contracts/CoreClashGameV2.sol\":10497:10547  IERC20(g.stakeToken).safeTransfer(teamWallet, fee) */\n      jump\t// in\n    tag_290:\n      sub(shl(0xa0, 0x01), 0x01)\n        /* \"contracts/CoreClashGameV2.sol\":10575:10595  winner != address(0) */\n      dup6\n      and\n      iszero\n        /* \"contracts/CoreClashGameV2.sol\":10571:10862  if (winner != address(0)) {... */\n      tag_292\n      jumpi\n        /* \"contracts/CoreClashGameV2.sol\":10619:10631  g.stakeToken */\n      0x02\n      dup5\n      add\n      sload\n        /* \"contracts/CoreClashGameV2.sol\":10612:10661  IERC20(g.stakeToken).safeTransfer(winner, payout) */\n      tag_293\n      swap1\n      sub(shl(0xa0, 0x01), 0x01)\n        /* \"contracts/CoreClashGameV2.sol\":10619:10631  g.stakeToken */\n      and\n        /* \"contracts/CoreClashGameV2.sol\":10646:10652  winner */\n      dup7\n        /* \"contracts/CoreClashGameV2.sol\":10654:10660  payout */\n      dup4\n        /* \"contracts/CoreClashGameV2.sol\":10612:10645  IERC20(g.stakeToken).safeTransfer */\n      tag_291\n        /* \"contracts/CoreClashGameV2.sol\":10612:10661  IERC20(g.stakeToken).safeTransfer(winner, payout) */\n      jump\t// in\n    tag_293:\n        /* \"contracts/CoreClashGameV2.sol\":10571:10862  if (winner != address(0)) {... */\n      jump(tag_297)\n    tag_292:\n        /* \"contracts/CoreClashGameV2.sol\":10748:10757  g.player1 */\n      dup4\n      sload\n        /* \"contracts/CoreClashGameV2.sol\":10714:10770  IERC20(g.stakeToken).safeTransfer(g.player1, payout / 2) */\n      tag_295\n      swap1\n      sub(shl(0xa0, 0x01), 0x01)\n        /* \"contracts/CoreClashGameV2.sol\":10748:10757  g.player1 */\n      and\n        /* \"contracts/CoreClashGameV2.sol\":10759:10769  payout / 2 */\n      tag_296\n        /* \"contracts/CoreClashGameV2.sol\":10768:10769  2 */\n      0x02\n        /* \"contracts/CoreClashGameV2.sol\":10759:10765  payout */\n      dup5\n        /* \"contracts/CoreClashGameV2.sol\":10759:10769  payout / 2 */\n      tag_287\n      jump\t// in\n    tag_296:\n        /* \"contracts/CoreClashGameV2.sol\":10721:10733  g.stakeToken */\n      0x02\n      dup8\n      add\n      sload\n      sub(shl(0xa0, 0x01), 0x01)\n      and\n      swap2\n        /* \"contracts/CoreClashGameV2.sol\":10714:10770  IERC20(g.stakeToken).safeTransfer(g.player1, payout / 2) */\n      swap1\n        /* \"contracts/CoreClashGameV2.sol\":10714:10747  IERC20(g.stakeToken).safeTransfer */\n      tag_291\n        /* \"contracts/CoreClashGameV2.sol\":10714:10770  IERC20(g.stakeToken).safeTransfer(g.player1, payout / 2) */\n      jump\t// in\n    tag_295:\n        /* \"contracts/CoreClashGameV2.sol\":10819:10828  g.player2 */\n      0x01\n      dup5\n      add\n      sload\n        /* \"contracts/CoreClashGameV2.sol\":10785:10850  IERC20(g.stakeToken).safeTransfer(g.player2, payout - payout / 2) */\n      tag_297\n      swap1\n      sub(shl(0xa0, 0x01), 0x01)\n        /* \"contracts/CoreClashGameV2.sol\":10819:10828  g.player2 */\n      and\n        /* \"contracts/CoreClashGameV2.sol\":10839:10849  payout / 2 */\n      tag_298\n        /* \"contracts/CoreClashGameV2.sol\":10848:10849  2 */\n      0x02\n        /* \"contracts/CoreClashGameV2.sol\":10839:10845  payout */\n      dup5\n        /* \"contracts/CoreClashGameV2.sol\":10839:10849  payout / 2 */\n      tag_287\n      jump\t// in\n    tag_298:\n        /* \"contracts/CoreClashGameV2.sol\":10830:10849  payout - payout / 2 */\n      tag_296\n      swap1\n        /* \"contracts/CoreClashGameV2.sol\":10830:10836  payout */\n      dup5\n        /* \"contracts/CoreClashGameV2.sol\":10830:10849  payout - payout / 2 */\n      tag_126\n      jump\t// in\n        /* \"contracts/CoreClashGameV2.sol\":10785:10850  IERC20(g.stakeToken).safeTransfer(g.player2, payout - payout / 2) */\n    tag_297:\n        /* \"contracts/CoreClashGameV2.sol\":10879:10906  GameSettled(gameId, winner) */\n      mload(0x40)\n      sub(shl(0xa0, 0x01), 0x01)\n        /* \"#utility.yul\":2766:2798   */\n      dup7\n      and\n        /* \"#utility.yul\":2748:2799   */\n      dup2\n      mstore\n        /* \"contracts/CoreClashGameV2.sol\":10891:10897  gameId */\n      dup7\n      swap1\n        /* \"contracts/CoreClashGameV2.sol\":10879:10906  GameSettled(gameId, winner) */\n      0xf27faae2acd1ebca672f8ca0d896f3e0eb13164004932b3fbcfc2547167c8bb7\n      swap1\n        /* \"#utility.yul\":2736:2738   */\n      0x20\n        /* \"#utility.yul\":2721:2739   */\n      add\n        /* \"contracts/CoreClashGameV2.sol\":10879:10906  GameSettled(gameId, winner) */\n      mload(0x40)\n      dup1\n      swap2\n      sub\n      swap1\n      log2\n        /* \"contracts/CoreClashGameV2.sol\":10254:10914  {... */\n      pop\n      pop\n      pop\n      pop\n        /* \"contracts/CoreClashGameV2.sol\":10196:10914  function _payout(uint256 gameId, address winner) internal {... */\n      pop\n      pop\n      jump\t// out\n        /* \"contracts/CoreClashGameV2.sol\":10922:11231  function _refund(uint256 gameId) internal {... */\n    tag_161:\n        /* \"contracts/CoreClashGameV2.sol\":10975:10989  Game storage g */\n      0x00\n        /* \"contracts/CoreClashGameV2.sol\":10992:10997  games */\n      0x03\n        /* \"contracts/CoreClashGameV2.sol\":10998:11004  gameId */\n      dup3\n        /* \"contracts/CoreClashGameV2.sol\":10992:11005  games[gameId] */\n      dup2\n      sload\n      dup2\n      lt\n      tag_303\n      jumpi\n      tag_303\n      tag_145\n      jump\t// in\n    tag_303:\n      0x00\n      swap2\n      dup3\n      mstore\n      0x20\n      swap1\n      swap2\n      keccak256\n        /* \"contracts/CoreClashGameV2.sol\":11016:11025  g.settled */\n      0x0a\n        /* \"contracts/CoreClashGameV2.sol\":10992:11005  games[gameId] */\n      0x0b\n      swap1\n      swap3\n      mul\n      add\n        /* \"contracts/CoreClashGameV2.sol\":11016:11025  g.settled */\n      swap1\n      dup2\n      add\n        /* \"contracts/CoreClashGameV2.sol\":11016:11032  g.settled = true */\n      dup1\n      sload\n      not(0xff)\n      and\n        /* \"contracts/CoreClashGameV2.sol\":11028:11032  true */\n      0x01\n        /* \"contracts/CoreClashGameV2.sol\":11016:11032  g.settled = true */\n      or\n      swap1\n      sstore\n        /* \"contracts/CoreClashGameV2.sol\":11079:11088  g.player1 */\n      dup1\n      sload\n        /* \"contracts/CoreClashGameV2.sol\":11090:11103  g.stakeAmount */\n      0x03\n      dup3\n      add\n      sload\n        /* \"contracts/CoreClashGameV2.sol\":11052:11064  g.stakeToken */\n      0x02\n      dup4\n      add\n      sload\n        /* \"contracts/CoreClashGameV2.sol\":10992:11005  games[gameId] */\n      swap3\n      swap4\n      pop\n        /* \"contracts/CoreClashGameV2.sol\":11045:11104  IERC20(g.stakeToken).safeTransfer(g.player1, g.stakeAmount) */\n      tag_305\n      swap3\n      sub(shl(0xa0, 0x01), 0x01)\n        /* \"contracts/CoreClashGameV2.sol\":11052:11064  g.stakeToken */\n      swap1\n      dup2\n      and\n      swap3\n        /* \"contracts/CoreClashGameV2.sol\":11079:11088  g.player1 */\n      and\n      swap1\n        /* \"contracts/CoreClashGameV2.sol\":11045:11078  IERC20(g.stakeToken).safeTransfer */\n      tag_291\n        /* \"contracts/CoreClashGameV2.sol\":11045:11104  IERC20(g.stakeToken).safeTransfer(g.player1, g.stakeAmount) */\n      jump\t// in\n    tag_305:\n        /* \"contracts/CoreClashGameV2.sol\":11149:11158  g.player2 */\n      0x01\n      dup2\n      add\n      sload\n        /* \"contracts/CoreClashGameV2.sol\":11160:11173  g.stakeAmount */\n      0x03\n      dup3\n      add\n      sload\n        /* \"contracts/CoreClashGameV2.sol\":11122:11134  g.stakeToken */\n      0x02\n      dup4\n      add\n      sload\n        /* \"contracts/CoreClashGameV2.sol\":11115:11174  IERC20(g.stakeToken).safeTransfer(g.player2, g.stakeAmount) */\n      tag_306\n      swap3\n      sub(shl(0xa0, 0x01), 0x01)\n        /* \"contracts/CoreClashGameV2.sol\":11122:11134  g.stakeToken */\n      swap2\n      dup3\n      and\n      swap3\n        /* \"contracts/CoreClashGameV2.sol\":11149:11158  g.player2 */\n      swap2\n      and\n      swap1\n        /* \"contracts/CoreClashGameV2.sol\":11115:11148  IERC20(g.stakeToken).safeTransfer */\n      tag_291\n        /* \"contracts/CoreClashGameV2.sol\":11115:11174  IERC20(g.stakeToken).safeTransfer(g.player2, g.stakeAmount) */\n      jump\t// in\n    tag_306:\n        /* \"contracts/CoreClashGameV2.sol\":11192:11223  GameSettled(gameId, address(0)) */\n      mload(0x40)\n        /* \"contracts/CoreClashGameV2.sol\":11220:11221  0 */\n      0x00\n        /* \"#utility.yul\":2748:2799   */\n      dup2\n      mstore\n        /* \"contracts/CoreClashGameV2.sol\":11204:11210  gameId */\n      dup3\n      swap1\n        /* \"contracts/CoreClashGameV2.sol\":11192:11223  GameSettled(gameId, address(0)) */\n      0xf27faae2acd1ebca672f8ca0d896f3e0eb13164004932b3fbcfc2547167c8bb7\n      swap1\n        /* \"#utility.yul\":2736:2738   */\n      0x20\n        /* \"#utility.yul\":2721:2739   */\n      add\n        /* \"contracts/CoreClashGameV2.sol\":11192:11223  GameSettled(gameId, address(0)) */\n      mload(0x40)\n      dup1\n      swap2\n      sub\n      swap1\n      log2\n        /* \"contracts/CoreClashGameV2.sol\":10964:11231  {... */\n      pop\n        /* \"contracts/CoreClashGameV2.sol\":10922:11231  function _refund(uint256 gameId) internal {... */\n      pop\n      jump\t// out\n        /* \"contracts/CoreClashRarityLookupTable.sol\":2318:2583  function _setRestrictedInternal(... */\n    tag_173:\n        /* \"contracts/CoreClashRarityLookupTable.sol\":2449:2473  keccak256(bytes(rarity)) */\n      dup2\n      mload\n      0x20\n      dup1\n      dup5\n      add\n      swap2\n      swap1\n      swap2\n      keccak256\n        /* \"contracts/CoreClashRarityLookupTable.sol\":2434:2446  bytes32 hash */\n      0x00\n        /* \"contracts/CoreClashRarityLookupTable.sol\":2484:2506  restrictedRarity[hash] */\n      dup2\n      dup2\n      mstore\n      swap2\n      dup3\n      swap1\n      mstore\n      0x40\n      swap2\n      dup3\n      swap1\n      keccak256\n        /* \"contracts/CoreClashRarityLookupTable.sol\":2484:2519  restrictedRarity[hash] = restricted */\n      dup1\n      sload\n      not(0xff)\n      and\n      dup5\n      iszero\n      iszero\n      or\n      swap1\n      sstore\n        /* \"contracts/CoreClashRarityLookupTable.sol\":2535:2575  RarityRestrictionSet(rarity, restricted) */\n      swap1\n      mload\n      0x71597d70b120b69b2ed3763b127f0f73d5475cd67f32065088360e0586a8b250\n      swap1\n      tag_309\n      swap1\n        /* \"contracts/CoreClashRarityLookupTable.sol\":2449:2473  keccak256(bytes(rarity)) */\n      dup6\n      swap1\n        /* \"contracts/CoreClashRarityLookupTable.sol\":2484:2519  restrictedRarity[hash] = restricted */\n      dup6\n      swap1\n        /* \"contracts/CoreClashRarityLookupTable.sol\":2535:2575  RarityRestrictionSet(rarity, restricted) */\n      tag_310\n      jump\t// in\n    tag_309:\n      mload(0x40)\n      dup1\n      swap2\n      sub\n      swap1\n      log1\n        /* \"contracts/CoreClashRarityLookupTable.sol\":2423:2583  {... */\n      pop\n        /* \"contracts/CoreClashRarityLookupTable.sol\":2318:2583  function _setRestrictedInternal(... */\n      pop\n      pop\n      jump\t// out\n        /* \"contracts/CoreClashRarityLookupTable.sol\":4334:4812  function _validateRarity(... */\n    tag_229:\n        /* \"contracts/CoreClashRarityLookupTable.sol\":4412:4436  bytes32[3] memory hashes */\n      tag_312\n      tag_313\n      jump\t// in\n    tag_312:\n        /* \"contracts/CoreClashRarityLookupTable.sol\":4450:4459  uint256 i */\n      0x00\n        /* \"contracts/CoreClashRarityLookupTable.sol\":4445:4532  for (uint256 i = 0; i < 3; i++) {... */\n    tag_314:\n        /* \"contracts/CoreClashRarityLookupTable.sol\":4469:4470  3 */\n      0x03\n        /* \"contracts/CoreClashRarityLookupTable.sol\":4465:4466  i */\n      dup2\n        /* \"contracts/CoreClashRarityLookupTable.sol\":4465:4470  i < 3 */\n      lt\n        /* \"contracts/CoreClashRarityLookupTable.sol\":4445:4532  for (uint256 i = 0; i < 3; i++) {... */\n      iszero\n      tag_315\n      jumpi\n        /* \"contracts/CoreClashRarityLookupTable.sol\":4516:4519  bgs */\n      dup3\n        /* \"contracts/CoreClashRarityLookupTable.sol\":4520:4521  i */\n      dup2\n        /* \"contracts/CoreClashRarityLookupTable.sol\":4516:4522  bgs[i] */\n      0x03\n      dup2\n      lt\n      tag_318\n      jumpi\n      tag_318\n      tag_145\n      jump\t// in\n    tag_318:\n      0x20\n      mul\n      dup2\n      add\n      swap1\n      tag_319\n      swap2\n      swap1\n      tag_264\n      jump\t// in\n    tag_319:\n        /* \"contracts/CoreClashRarityLookupTable.sol\":4500:4524  keccak256(bytes(bgs[i])) */\n      mload(0x40)\n      tag_320\n      swap3\n      swap2\n      swap1\n      tag_321\n      jump\t// in\n    tag_320:\n      mload(0x40)\n      dup1\n      swap2\n      sub\n      swap1\n      keccak256\n        /* \"contracts/CoreClashRarityLookupTable.sol\":4488:4494  hashes */\n      dup3\n        /* \"contracts/CoreClashRarityLookupTable.sol\":4495:4496  i */\n      dup3\n        /* \"contracts/CoreClashRarityLookupTable.sol\":4488:4497  hashes[i] */\n      0x03\n      dup2\n      lt\n      tag_323\n      jumpi\n      tag_323\n      tag_145\n      jump\t// in\n    tag_323:\n      0x20\n      mul\n      add\n        /* \"contracts/CoreClashRarityLookupTable.sol\":4488:4524  hashes[i] = keccak256(bytes(bgs[i])) */\n      mstore\n        /* \"contracts/CoreClashRarityLookupTable.sol\":4472:4475  i++ */\n      0x01\n      add\n        /* \"contracts/CoreClashRarityLookupTable.sol\":4445:4532  for (uint256 i = 0; i < 3; i++) {... */\n      jump(tag_314)\n    tag_315:\n      pop\n        /* \"contracts/CoreClashRarityLookupTable.sol\":4545:4554  uint256 i */\n      0x00\n        /* \"contracts/CoreClashRarityLookupTable.sol\":4540:4809  for (uint256 i = 0; i < 3; i++) {... */\n    tag_324:\n        /* \"contracts/CoreClashRarityLookupTable.sol\":4564:4565  3 */\n      0x03\n        /* \"contracts/CoreClashRarityLookupTable.sol\":4560:4561  i */\n      dup2\n        /* \"contracts/CoreClashRarityLookupTable.sol\":4560:4565  i < 3 */\n      lt\n        /* \"contracts/CoreClashRarityLookupTable.sol\":4540:4809  for (uint256 i = 0; i < 3; i++) {... */\n      iszero\n      tag_172\n      jumpi\n        /* \"contracts/CoreClashRarityLookupTable.sol\":4588:4604  restrictedRarity */\n      0x00\n        /* \"contracts/CoreClashRarityLookupTable.sol\":4588:4615  restrictedRarity[hashes[i]] */\n      dup1\n        /* \"contracts/CoreClashRarityLookupTable.sol\":4605:4611  hashes */\n      dup4\n        /* \"contracts/CoreClashRarityLookupTable.sol\":4612:4613  i */\n      dup4\n        /* \"contracts/CoreClashRarityLookupTable.sol\":4605:4614  hashes[i] */\n      0x03\n      dup2\n      lt\n      tag_328\n      jumpi\n      tag_328\n      tag_145\n      jump\t// in\n    tag_328:\n      0x20\n      swap1\n      dup2\n      mul\n      swap2\n      swap1\n      swap2\n      add\n      mload\n        /* \"contracts/CoreClashRarityLookupTable.sol\":4588:4615  restrictedRarity[hashes[i]] */\n      dup3\n      mstore\n      dup2\n      add\n      swap2\n      swap1\n      swap2\n      mstore\n      0x40\n      add\n      0x00\n      keccak256\n      sload\n      0xff\n      and\n        /* \"contracts/CoreClashRarityLookupTable.sol\":4583:4625  if (!restrictedRarity[hashes[i]]) continue */\n      iszero\n        /* \"contracts/CoreClashRarityLookupTable.sol\":4617:4625  continue */\n      tag_326\n        /* \"contracts/CoreClashRarityLookupTable.sol\":4583:4625  if (!restrictedRarity[hashes[i]]) continue */\n      jumpi\n        /* \"contracts/CoreClashRarityLookupTable.sol\":4638:4651  uint256 count */\n      0x00\n      dup1\n        /* \"contracts/CoreClashRarityLookupTable.sol\":4662:4756  for (uint256 j = 0; j < 3; j++) {... */\n    tag_330:\n        /* \"contracts/CoreClashRarityLookupTable.sol\":4686:4687  3 */\n      0x03\n        /* \"contracts/CoreClashRarityLookupTable.sol\":4682:4683  j */\n      dup2\n        /* \"contracts/CoreClashRarityLookupTable.sol\":4682:4687  j < 3 */\n      lt\n        /* \"contracts/CoreClashRarityLookupTable.sol\":4662:4756  for (uint256 j = 0; j < 3; j++) {... */\n      iszero\n      tag_331\n      jumpi\n        /* \"contracts/CoreClashRarityLookupTable.sol\":4726:4732  hashes */\n      dup4\n        /* \"contracts/CoreClashRarityLookupTable.sol\":4733:4734  i */\n      dup4\n        /* \"contracts/CoreClashRarityLookupTable.sol\":4726:4735  hashes[i] */\n      0x03\n      dup2\n      lt\n      tag_334\n      jumpi\n      tag_334\n      tag_145\n      jump\t// in\n    tag_334:\n      0x20\n      mul\n      add\n      mload\n        /* \"contracts/CoreClashRarityLookupTable.sol\":4713:4719  hashes */\n      dup5\n        /* \"contracts/CoreClashRarityLookupTable.sol\":4720:4721  j */\n      dup3\n        /* \"contracts/CoreClashRarityLookupTable.sol\":4713:4722  hashes[j] */\n      0x03\n      dup2\n      lt\n      tag_336\n      jumpi\n      tag_336\n      tag_145\n      jump\t// in\n    tag_336:\n      0x20\n      mul\n      add\n      mload\n        /* \"contracts/CoreClashRarityLookupTable.sol\":4713:4735  hashes[j] == hashes[i] */\n      sub\n        /* \"contracts/CoreClashRarityLookupTable.sol\":4709:4744  if (hashes[j] == hashes[i]) count++ */\n      tag_337\n      jumpi\n        /* \"contracts/CoreClashRarityLookupTable.sol\":4737:4744  count++ */\n      dup2\n      tag_338\n      dup2\n      tag_339\n      jump\t// in\n    tag_338:\n      swap3\n      pop\n      pop\n        /* \"contracts/CoreClashRarityLookupTable.sol\":4709:4744  if (hashes[j] == hashes[i]) count++ */\n    tag_337:\n        /* \"contracts/CoreClashRarityLookupTable.sol\":4689:4692  j++ */\n      0x01\n      add\n        /* \"contracts/CoreClashRarityLookupTable.sol\":4662:4756  for (uint256 j = 0; j < 3; j++) {... */\n      jump(tag_330)\n    tag_331:\n      pop\n        /* \"contracts/CoreClashRarityLookupTable.sol\":4785:4786  1 */\n      0x01\n        /* \"contracts/CoreClashRarityLookupTable.sol\":4776:4781  count */\n      dup2\n        /* \"contracts/CoreClashRarityLookupTable.sol\":4776:4786  count <= 1 */\n      gt\n      iszero\n        /* \"contracts/CoreClashRarityLookupTable.sol\":4768:4801  require(count <= 1, \"Rarity dup\") */\n      tag_340\n      jumpi\n      mload(0x40)\n      shl(0xe5, 0x461bcd)\n      dup2\n      mstore\n        /* \"#utility.yul\":16362:16364   */\n      0x20\n        /* \"contracts/CoreClashRarityLookupTable.sol\":4768:4801  require(count <= 1, \"Rarity dup\") */\n      0x04\n      dup3\n      add\n        /* \"#utility.yul\":16344:16365   */\n      mstore\n        /* \"#utility.yul\":16401:16403   */\n      0x0a\n        /* \"#utility.yul\":16381:16399   */\n      0x24\n      dup3\n      add\n        /* \"#utility.yul\":16374:16404   */\n      mstore\n      shl(0xb4, 0x05261726974792064757)\n        /* \"#utility.yul\":16420:16438   */\n      0x44\n      dup3\n      add\n        /* \"#utility.yul\":16413:16453   */\n      mstore\n        /* \"#utility.yul\":16470:16488   */\n      0x64\n      add\n        /* \"contracts/CoreClashRarityLookupTable.sol\":4768:4801  require(count <= 1, \"Rarity dup\") */\n      tag_120\n        /* \"#utility.yul\":16160:16494   */\n      jump\n        /* \"contracts/CoreClashRarityLookupTable.sol\":4768:4801  require(count <= 1, \"Rarity dup\") */\n    tag_340:\n        /* \"contracts/CoreClashRarityLookupTable.sol\":4572:4809  {... */\n      pop\n        /* \"contracts/CoreClashRarityLookupTable.sol\":4540:4809  for (uint256 i = 0; i < 3; i++) {... */\n    tag_326:\n        /* \"contracts/CoreClashRarityLookupTable.sol\":4567:4570  i++ */\n      0x01\n      add\n        /* \"contracts/CoreClashRarityLookupTable.sol\":4540:4809  for (uint256 i = 0; i < 3; i++) {... */\n      jump(tag_324)\n        /* \"contracts/CoreClashGameV2.sol\":3101:3457  function _checkOwnership(... */\n    tag_231:\n        /* \"contracts/CoreClashGameV2.sol\":3268:3277  uint256 i */\n      0x00\n        /* \"contracts/CoreClashGameV2.sol\":3263:3450  for (uint256 i = 0; i < 3; i++) {... */\n    tag_344:\n        /* \"contracts/CoreClashGameV2.sol\":3287:3288  3 */\n      0x03\n        /* \"contracts/CoreClashGameV2.sol\":3283:3284  i */\n      dup2\n        /* \"contracts/CoreClashGameV2.sol\":3283:3288  i < 3 */\n      lt\n        /* \"contracts/CoreClashGameV2.sol\":3263:3450  for (uint256 i = 0; i < 3; i++) {... */\n      iszero\n      tag_275\n      jumpi\n        /* \"contracts/CoreClashGameV2.sol\":3383:3389  sender */\n      dup4\n      sub(shl(0xa0, 0x01), 0x01)\n        /* \"contracts/CoreClashGameV2.sol\":3336:3389  IERC721(nftContracts[i]).ownerOf(nftIds[i]) == sender */\n      and\n        /* \"contracts/CoreClashGameV2.sol\":3344:3356  nftContracts */\n      dup4\n        /* \"contracts/CoreClashGameV2.sol\":3357:3358  i */\n      dup3\n        /* \"contracts/CoreClashGameV2.sol\":3344:3359  nftContracts[i] */\n      0x03\n      dup2\n      lt\n      tag_348\n      jumpi\n      tag_348\n      tag_145\n      jump\t// in\n    tag_348:\n      0x20\n      mul\n      add\n      0x20\n      dup2\n      add\n      swap1\n      tag_349\n      swap2\n      swap1\n      tag_44\n      jump\t// in\n    tag_349:\n      sub(shl(0xa0, 0x01), 0x01)\n        /* \"contracts/CoreClashGameV2.sol\":3336:3368  IERC721(nftContracts[i]).ownerOf */\n      and\n      0x6352211e\n        /* \"contracts/CoreClashGameV2.sol\":3369:3375  nftIds */\n      dup5\n        /* \"contracts/CoreClashGameV2.sol\":3376:3377  i */\n      dup5\n        /* \"contracts/CoreClashGameV2.sol\":3369:3378  nftIds[i] */\n      0x03\n      dup2\n      lt\n      tag_351\n      jumpi\n      tag_351\n      tag_145\n      jump\t// in\n    tag_351:\n      0x20\n      mul\n      add\n      calldataload\n        /* \"contracts/CoreClashGameV2.sol\":3336:3379  IERC721(nftContracts[i]).ownerOf(nftIds[i]) */\n      mload(0x40)\n      dup3\n      0xffffffff\n      and\n      0xe0\n      shl\n      dup2\n      mstore\n      0x04\n      add\n      tag_352\n      swap2\n        /* \"#utility.yul\":2384:2409   */\n      dup2\n      mstore\n        /* \"#utility.yul\":2372:2374   */\n      0x20\n        /* \"#utility.yul\":2357:2375   */\n      add\n      swap1\n        /* \"#utility.yul\":2238:2415   */\n      jump\n        /* \"contracts/CoreClashGameV2.sol\":3336:3379  IERC721(nftContracts[i]).ownerOf(nftIds[i]) */\n    tag_352:\n      0x20\n      mload(0x40)\n      dup1\n      dup4\n      sub\n      dup2\n      dup7\n      gas\n      staticcall\n      iszero\n      dup1\n      iszero\n      tag_354\n      jumpi\n      returndatasize\n      0x00\n      dup1\n      returndatacopy\n      revert(0x00, returndatasize)\n    tag_354:\n      pop\n      pop\n      pop\n      pop\n      mload(0x40)\n      returndatasize\n      not(0x1f)\n      0x1f\n      dup3\n      add\n      and\n      dup3\n      add\n      dup1\n      0x40\n      mstore\n      pop\n      dup2\n      add\n      swap1\n      tag_355\n      swap2\n      swap1\n      tag_356\n      jump\t// in\n    tag_355:\n      sub(shl(0xa0, 0x01), 0x01)\n        /* \"contracts/CoreClashGameV2.sol\":3336:3389  IERC721(nftContracts[i]).ownerOf(nftIds[i]) == sender */\n      and\n      eq\n        /* \"contracts/CoreClashGameV2.sol\":3310:3438  require(... */\n      tag_357\n      jumpi\n      mload(0x40)\n      shl(0xe5, 0x461bcd)\n      dup2\n      mstore\n        /* \"#utility.yul\":16957:16959   */\n      0x20\n        /* \"contracts/CoreClashGameV2.sol\":3310:3438  require(... */\n      0x04\n      dup3\n      add\n        /* \"#utility.yul\":16939:16960   */\n      mstore\n        /* \"#utility.yul\":16996:16998   */\n      0x0d\n        /* \"#utility.yul\":16976:16994   */\n      0x24\n      dup3\n      add\n        /* \"#utility.yul\":16969:16999   */\n      mstore\n      shl(0x99, 0x2737ba1027232a1037bbb732b9)\n        /* \"#utility.yul\":17015:17033   */\n      0x44\n      dup3\n      add\n        /* \"#utility.yul\":17008:17051   */\n      mstore\n        /* \"#utility.yul\":17068:17086   */\n      0x64\n      add\n        /* \"contracts/CoreClashGameV2.sol\":3310:3438  require(... */\n      tag_120\n        /* \"#utility.yul\":16755:17092   */\n      jump\n        /* \"contracts/CoreClashGameV2.sol\":3310:3438  require(... */\n    tag_357:\n        /* \"contracts/CoreClashGameV2.sol\":3290:3293  i++ */\n      0x01\n      add\n        /* \"contracts/CoreClashGameV2.sol\":3263:3450  for (uint256 i = 0; i < 3; i++) {... */\n      jump(tag_344)\n        /* \"contracts/CoreClashGameV2.sol\":3910:4377  function _computeCommit(... */\n    tag_233:\n        /* \"contracts/CoreClashGameV2.sol\":4067:4074  bytes32 */\n      0x00\n        /* \"contracts/CoreClashGameV2.sol\":4153:4157  salt */\n      dup4\n        /* \"contracts/CoreClashGameV2.sol\":4176:4191  nftContracts[0] */\n      tag_363\n      0x20\n      dup6\n      add\n        /* \"contracts/CoreClashGameV2.sol\":4176:4188  nftContracts */\n      dup6\n        /* \"contracts/CoreClashGameV2.sol\":4176:4191  nftContracts[0] */\n      tag_44\n      jump\t// in\n    tag_363:\n        /* \"contracts/CoreClashGameV2.sol\":4210:4225  nftContracts[1] */\n      tag_366\n      0x40\n      dup7\n      add\n      0x20\n      dup8\n      add\n      tag_44\n      jump\t// in\n    tag_366:\n        /* \"contracts/CoreClashGameV2.sol\":4244:4259  nftContracts[2] */\n      tag_369\n      0x60\n      dup8\n      add\n      0x40\n      dup9\n      add\n      tag_44\n      jump\t// in\n    tag_369:\n        /* \"contracts/CoreClashGameV2.sol\":4118:4358  abi.encodePacked(... */\n      0x40\n      dup1\n      mload\n        /* \"contracts/CoreClashGameV2.sol\":4278:4287  nftIds[0] */\n      0x20\n        /* \"contracts/CoreClashGameV2.sol\":4118:4358  abi.encodePacked(... */\n      dup2\n      dup2\n      add\n        /* \"#utility.yul\":17394:17413   */\n      swap7\n      swap1\n      swap7\n      mstore\n        /* \"#utility.yul\":17501:17503   */\n      0x60\n        /* \"#utility.yul\":17497:17512   */\n      swap5\n      dup6\n      shl\n      not(0xffffffffffffffffffffffff)\n        /* \"#utility.yul\":17493:17517   */\n      swap1\n      dup2\n      and\n        /* \"#utility.yul\":17479:17491   */\n      dup3\n      dup5\n      add\n        /* \"#utility.yul\":17472:17518   */\n      mstore\n        /* \"#utility.yul\":17552:17567   */\n      swap4\n      dup6\n      shl\n        /* \"#utility.yul\":17548:17572   */\n      dup5\n      and\n        /* \"#utility.yul\":17534:17546   */\n      0x54\n      dup3\n      add\n        /* \"#utility.yul\":17527:17573   */\n      mstore\n        /* \"#utility.yul\":17607:17622   */\n      swap2\n      swap1\n      swap4\n      shl\n        /* \"#utility.yul\":17603:17627   */\n      swap1\n      swap2\n      and\n        /* \"#utility.yul\":17589:17601   */\n      0x68\n      dup3\n      add\n        /* \"#utility.yul\":17582:17628   */\n      mstore\n        /* \"contracts/CoreClashGameV2.sol\":4278:4287  nftIds[0] */\n      dup5\n      calldataload\n        /* \"#utility.yul\":17644:17656   */\n      0x7c\n      dup3\n      add\n        /* \"#utility.yul\":17637:17665   */\n      mstore\n        /* \"contracts/CoreClashGameV2.sol\":4306:4315  nftIds[1] */\n      swap2\n      dup5\n      add\n      calldataload\n        /* \"#utility.yul\":17681:17694   */\n      0x9c\n      dup4\n      add\n        /* \"#utility.yul\":17674:17703   */\n      mstore\n        /* \"contracts/CoreClashGameV2.sol\":4334:4343  nftIds[2] */\n      dup4\n      add\n      calldataload\n        /* \"#utility.yul\":17719:17732   */\n      0xbc\n      dup3\n      add\n        /* \"#utility.yul\":17712:17741   */\n      mstore\n        /* \"#utility.yul\":17757:17770   */\n      0xdc\n      add\n        /* \"contracts/CoreClashGameV2.sol\":4118:4358  abi.encodePacked(... */\n      mload(0x40)\n      0x20\n      dup2\n      dup4\n      sub\n      sub\n      dup2\n      mstore\n      swap1\n      0x40\n      mstore\n        /* \"contracts/CoreClashGameV2.sol\":4094:4369  keccak256(... */\n      dup1\n      mload\n      swap1\n      0x20\n      add\n      keccak256\n        /* \"contracts/CoreClashGameV2.sol\":4087:4369  return keccak256(... */\n      swap1\n      pop\n        /* \"contracts/CoreClashGameV2.sol\":3910:4377  function _computeCommit(... */\n      swap4\n      swap3\n      pop\n      pop\n      pop\n      jump\t// out\n        /* \"@openzeppelin/contracts/token/ERC20/utils/SafeERC20.sol\":8370:9090  function _callOptionalReturn(IERC20 token, bytes memory data) private {... */\n    tag_278:\n        /* \"@openzeppelin/contracts/token/ERC20/utils/SafeERC20.sol\":8450:8468  uint256 returnSize */\n      0x00\n        /* \"@openzeppelin/contracts/token/ERC20/utils/SafeERC20.sol\":8478:8497  uint256 returnValue */\n      dup1\n        /* \"@openzeppelin/contracts/token/ERC20/utils/SafeERC20.sol\":8616:8620  0x20 */\n      0x20\n        /* \"@openzeppelin/contracts/token/ERC20/utils/SafeERC20.sol\":8613:8614  0 */\n      0x00\n        /* \"@openzeppelin/contracts/token/ERC20/utils/SafeERC20.sol\":8606:8610  data */\n      dup5\n        /* \"@openzeppelin/contracts/token/ERC20/utils/SafeERC20.sol\":8600:8611  mload(data) */\n      mload\n        /* \"@openzeppelin/contracts/token/ERC20/utils/SafeERC20.sol\":8593:8597  0x20 */\n      0x20\n        /* \"@openzeppelin/contracts/token/ERC20/utils/SafeERC20.sol\":8587:8591  data */\n      dup7\n        /* \"@openzeppelin/contracts/token/ERC20/utils/SafeERC20.sol\":8583:8598  add(data, 0x20) */\n      add\n        /* \"@openzeppelin/contracts/token/ERC20/utils/SafeERC20.sol\":8580:8581  0 */\n      0x00\n        /* \"@openzeppelin/contracts/token/ERC20/utils/SafeERC20.sol\":8573:8578  token */\n      dup9\n        /* \"@openzeppelin/contracts/token/ERC20/utils/SafeERC20.sol\":8566:8571  gas() */\n      gas\n        /* \"@openzeppelin/contracts/token/ERC20/utils/SafeERC20.sol\":8561:8621  call(gas(), token, 0, add(data, 0x20), mload(data), 0, 0x20) */\n      call\n        /* \"@openzeppelin/contracts/token/ERC20/utils/SafeERC20.sol\":8673:8680  success */\n      dup1\n        /* \"@openzeppelin/contracts/token/ERC20/utils/SafeERC20.sol\":8663:8839  if iszero(success) {... */\n      tag_379\n      jumpi\n        /* \"@openzeppelin/contracts/token/ERC20/utils/SafeERC20.sol\":8717:8721  0x40 */\n      0x40\n        /* \"@openzeppelin/contracts/token/ERC20/utils/SafeERC20.sol\":8711:8722  mload(0x40) */\n      mload\n        /* \"@openzeppelin/contracts/token/ERC20/utils/SafeERC20.sol\":8762:8778  returndatasize() */\n      returndatasize\n        /* \"@openzeppelin/contracts/token/ERC20/utils/SafeERC20.sol\":8759:8760  0 */\n      0x00\n        /* \"@openzeppelin/contracts/token/ERC20/utils/SafeERC20.sol\":8754:8757  ptr */\n      dup3\n        /* \"@openzeppelin/contracts/token/ERC20/utils/SafeERC20.sol\":8739:8779  returndatacopy(ptr, 0, returndatasize()) */\n      returndatacopy\n        /* \"@openzeppelin/contracts/token/ERC20/utils/SafeERC20.sol\":8808:8824  returndatasize() */\n      returndatasize\n        /* \"@openzeppelin/contracts/token/ERC20/utils/SafeERC20.sol\":8803:8806  ptr */\n      dup2\n        /* \"@openzeppelin/contracts/token/ERC20/utils/SafeERC20.sol\":8796:8825  revert(ptr, returndatasize()) */\n      revert\n        /* \"@openzeppelin/contracts/token/ERC20/utils/SafeERC20.sol\":8663:8839  if iszero(success) {... */\n    tag_379:\n      pop\n      pop\n        /* \"@openzeppelin/contracts/token/ERC20/utils/SafeERC20.sol\":8916:8917  0 */\n      0x00\n        /* \"@openzeppelin/contracts/token/ERC20/utils/SafeERC20.sol\":8910:8918  mload(0) */\n      mload\n        /* \"@openzeppelin/contracts/token/ERC20/utils/SafeERC20.sol\":8866:8882  returndatasize() */\n      returndatasize\n      swap2\n      pop\n        /* \"@openzeppelin/contracts/token/ERC20/utils/SafeERC20.sol\":8942:8957  returnSize == 0 */\n      dup2\n      iszero\n        /* \"@openzeppelin/contracts/token/ERC20/utils/SafeERC20.sol\":8942:9010  returnSize == 0 ? address(token).code.length == 0 : returnValue != 1 */\n      tag_380\n      jumpi\n        /* \"@openzeppelin/contracts/token/ERC20/utils/SafeERC20.sol\":8994:9005  returnValue */\n      dup1\n        /* \"@openzeppelin/contracts/token/ERC20/utils/SafeERC20.sol\":9009:9010  1 */\n      0x01\n        /* \"@openzeppelin/contracts/token/ERC20/utils/SafeERC20.sol\":8994:9010  returnValue != 1 */\n      eq\n      iszero\n        /* \"@openzeppelin/contracts/token/ERC20/utils/SafeERC20.sol\":8942:9010  returnSize == 0 ? address(token).code.length == 0 : returnValue != 1 */\n      jump(tag_381)\n    tag_380:\n      sub(shl(0xa0, 0x01), 0x01)\n        /* \"@openzeppelin/contracts/token/ERC20/utils/SafeERC20.sol\":8960:8986  address(token).code.length */\n      dup5\n      and\n      extcodesize\n        /* \"@openzeppelin/contracts/token/ERC20/utils/SafeERC20.sol\":8960:8991  address(token).code.length == 0 */\n      iszero\n        /* \"@openzeppelin/contracts/token/ERC20/utils/SafeERC20.sol\":8942:9010  returnSize == 0 ? address(token).code.length == 0 : returnValue != 1 */\n    tag_381:\n        /* \"@openzeppelin/contracts/token/ERC20/utils/SafeERC20.sol\":8938:9084  if (returnSize == 0 ? address(token).code.length == 0 : returnValue != 1) {... */\n      iszero\n      tag_275\n      jumpi\n        /* \"@openzeppelin/contracts/token/ERC20/utils/SafeERC20.sol\":9033:9073  SafeERC20FailedOperation(address(token)) */\n      mload(0x40)\n      shl(0xe0, 0x5274afe7)\n      dup2\n      mstore\n      sub(shl(0xa0, 0x01), 0x01)\n        /* \"#utility.yul\":2766:2798   */\n      dup6\n      and\n        /* \"@openzeppelin/contracts/token/ERC20/utils/SafeERC20.sol\":9033:9073  SafeERC20FailedOperation(address(token)) */\n      0x04\n      dup3\n      add\n        /* \"#utility.yul\":2748:2799   */\n      mstore\n        /* \"#utility.yul\":2721:2739   */\n      0x24\n      add\n        /* \"@openzeppelin/contracts/token/ERC20/utils/SafeERC20.sol\":9033:9073  SafeERC20FailedOperation(address(token)) */\n      tag_120\n        /* \"#utility.yul\":2602:2805   */\n      jump\n        /* \"@openzeppelin/contracts/token/ERC20/utils/SafeERC20.sol\":1219:1379  function safeTransfer(IERC20 token, address to, uint256 value) internal {... */\n    tag_291:\n        /* \"@openzeppelin/contracts/token/ERC20/utils/SafeERC20.sol\":1328:1371  abi.encodeCall(token.transfer, (to, value)) */\n      mload(0x40)\n      sub(shl(0xa0, 0x01), 0x01)\n        /* \"#utility.yul\":17973:18005   */\n      dup4\n      dup2\n      and\n        /* \"@openzeppelin/contracts/token/ERC20/utils/SafeERC20.sol\":1328:1371  abi.encodeCall(token.transfer, (to, value)) */\n      0x24\n      dup4\n      add\n        /* \"#utility.yul\":17955:18006   */\n      mstore\n        /* \"#utility.yul\":18022:18040   */\n      0x44\n      dup3\n      add\n        /* \"#utility.yul\":18015:18049   */\n      dup4\n      swap1\n      mstore\n        /* \"@openzeppelin/contracts/token/ERC20/utils/SafeERC20.sol\":1301:1372  _callOptionalReturn(token, abi.encodeCall(token.transfer, (to, value))) */\n      tag_172\n      swap2\n        /* \"@openzeppelin/contracts/token/ERC20/utils/SafeERC20.sol\":1321:1326  token */\n      dup6\n      swap2\n        /* \"@openzeppelin/contracts/token/ERC20/utils/SafeERC20.sol\":1343:1357  token.transfer */\n      dup3\n      and\n      swap1\n      0xa9059cbb\n      swap1\n        /* \"#utility.yul\":17928:17946   */\n      0x64\n      add\n        /* \"@openzeppelin/contracts/token/ERC20/utils/SafeERC20.sol\":1328:1371  abi.encodeCall(token.transfer, (to, value)) */\n      tag_276\n        /* \"#utility.yul\":17781:18055   */\n      jump\n    tag_313:\n      mload(0x40)\n      dup1\n      0x60\n      add\n      0x40\n      mstore\n      dup1\n      0x03\n      swap1\n      0x20\n      dup3\n      mul\n      dup1\n      calldatasize\n      dup4\n      calldatacopy\n      pop\n      swap2\n      swap3\n      swap2\n      pop\n      pop\n      jump\t// out\n        /* \"#utility.yul\":14:145   */\n    tag_388:\n      sub(shl(0xa0, 0x01), 0x01)\n        /* \"#utility.yul\":89:120   */\n      dup2\n      and\n        /* \"#utility.yul\":79:121   */\n      dup2\n      eq\n        /* \"#utility.yul\":69:139   */\n      tag_396\n      jumpi\n        /* \"#utility.yul\":135:136   */\n      0x00\n        /* \"#utility.yul\":132:133   */\n      dup1\n        /* \"#utility.yul\":125:137   */\n      revert\n        /* \"#utility.yul\":69:139   */\n    tag_396:\n        /* \"#utility.yul\":14:145   */\n      pop\n      jump\t// out\n        /* \"#utility.yul\":150:533   */\n    tag_31:\n        /* \"#utility.yul\":227:233   */\n      0x00\n        /* \"#utility.yul\":235:241   */\n      dup1\n        /* \"#utility.yul\":243:249   */\n      0x00\n        /* \"#utility.yul\":296:298   */\n      0x60\n        /* \"#utility.yul\":284:293   */\n      dup5\n        /* \"#utility.yul\":275:282   */\n      dup7\n        /* \"#utility.yul\":271:294   */\n      sub\n        /* \"#utility.yul\":267:299   */\n      slt\n        /* \"#utility.yul\":264:316   */\n      iszero\n      tag_398\n      jumpi\n        /* \"#utility.yul\":312:313   */\n      0x00\n        /* \"#utility.yul\":309:310   */\n      dup1\n        /* \"#utility.yul\":302:314   */\n      revert\n        /* \"#utility.yul\":264:316   */\n    tag_398:\n        /* \"#utility.yul\":351:360   */\n      dup4\n        /* \"#utility.yul\":338:361   */\n      calldataload\n        /* \"#utility.yul\":370:401   */\n      tag_399\n        /* \"#utility.yul\":395:400   */\n      dup2\n        /* \"#utility.yul\":370:401   */\n      tag_388\n      jump\t// in\n    tag_399:\n        /* \"#utility.yul\":420:425   */\n      swap6\n        /* \"#utility.yul\":472:474   */\n      0x20\n        /* \"#utility.yul\":457:475   */\n      dup6\n      add\n        /* \"#utility.yul\":444:476   */\n      calldataload\n      swap6\n      pop\n        /* \"#utility.yul\":523:525   */\n      0x40\n        /* \"#utility.yul\":508:526   */\n      swap1\n      swap5\n      add\n        /* \"#utility.yul\":495:527   */\n      calldataload\n      swap4\n        /* \"#utility.yul\":150:533   */\n      swap3\n      pop\n      pop\n      pop\n      jump\t// out\n        /* \"#utility.yul\":538:718   */\n    tag_35:\n        /* \"#utility.yul\":597:603   */\n      0x00\n        /* \"#utility.yul\":650:652   */\n      0x20\n        /* \"#utility.yul\":638:647   */\n      dup3\n        /* \"#utility.yul\":629:636   */\n      dup5\n        /* \"#utility.yul\":625:648   */\n      sub\n        /* \"#utility.yul\":621:653   */\n      slt\n        /* \"#utility.yul\":618:670   */\n      iszero\n      tag_401\n      jumpi\n        /* \"#utility.yul\":666:667   */\n      0x00\n        /* \"#utility.yul\":663:664   */\n      dup1\n        /* \"#utility.yul\":656:668   */\n      revert\n        /* \"#utility.yul\":618:670   */\n    tag_401:\n      pop\n        /* \"#utility.yul\":689:712   */\n      calldataload\n      swap2\n        /* \"#utility.yul\":538:718   */\n      swap1\n      pop\n      jump\t// out\n        /* \"#utility.yul\":1794:2041   */\n    tag_44:\n        /* \"#utility.yul\":1853:1859   */\n      0x00\n        /* \"#utility.yul\":1906:1908   */\n      0x20\n        /* \"#utility.yul\":1894:1903   */\n      dup3\n        /* \"#utility.yul\":1885:1892   */\n      dup5\n        /* \"#utility.yul\":1881:1904   */\n      sub\n        /* \"#utility.yul\":1877:1909   */\n      slt\n        /* \"#utility.yul\":1874:1926   */\n      iszero\n      tag_404\n      jumpi\n        /* \"#utility.yul\":1922:1923   */\n      0x00\n        /* \"#utility.yul\":1919:1920   */\n      dup1\n        /* \"#utility.yul\":1912:1924   */\n      revert\n        /* \"#utility.yul\":1874:1926   */\n    tag_404:\n        /* \"#utility.yul\":1961:1970   */\n      dup2\n        /* \"#utility.yul\":1948:1971   */\n      calldataload\n        /* \"#utility.yul\":1980:2011   */\n      tag_405\n        /* \"#utility.yul\":2005:2010   */\n      dup2\n        /* \"#utility.yul\":1980:2011   */\n      tag_388\n      jump\t// in\n    tag_405:\n        /* \"#utility.yul\":2030:2035   */\n      swap4\n        /* \"#utility.yul\":1794:2041   */\n      swap3\n      pop\n      pop\n      pop\n      jump\t// out\n        /* \"#utility.yul\":2810:2937   */\n    tag_389:\n        /* \"#utility.yul\":2871:2881   */\n      0x4e487b71\n        /* \"#utility.yul\":2866:2869   */\n      0xe0\n        /* \"#utility.yul\":2862:2882   */\n      shl\n        /* \"#utility.yul\":2859:2860   */\n      0x00\n        /* \"#utility.yul\":2852:2883   */\n      mstore\n        /* \"#utility.yul\":2902:2906   */\n      0x41\n        /* \"#utility.yul\":2899:2900   */\n      0x04\n        /* \"#utility.yul\":2892:2907   */\n      mstore\n        /* \"#utility.yul\":2926:2930   */\n      0x24\n        /* \"#utility.yul\":2923:2924   */\n      0x00\n        /* \"#utility.yul\":2916:2931   */\n      revert\n        /* \"#utility.yul\":2942:3864   */\n    tag_78:\n        /* \"#utility.yul\":3011:3017   */\n      0x00\n        /* \"#utility.yul\":3064:3066   */\n      0x20\n        /* \"#utility.yul\":3052:3061   */\n      dup3\n        /* \"#utility.yul\":3043:3050   */\n      dup5\n        /* \"#utility.yul\":3039:3062   */\n      sub\n        /* \"#utility.yul\":3035:3067   */\n      slt\n        /* \"#utility.yul\":3032:3084   */\n      iszero\n      tag_412\n      jumpi\n        /* \"#utility.yul\":3080:3081   */\n      0x00\n        /* \"#utility.yul\":3077:3078   */\n      dup1\n        /* \"#utility.yul\":3070:3082   */\n      revert\n        /* \"#utility.yul\":3032:3084   */\n    tag_412:\n        /* \"#utility.yul\":3120:3129   */\n      dup2\n        /* \"#utility.yul\":3107:3130   */\n      calldataload\n        /* \"#utility.yul\":3149:3167   */\n      0xffffffffffffffff\n        /* \"#utility.yul\":3190:3192   */\n      dup1\n        /* \"#utility.yul\":3182:3188   */\n      dup3\n        /* \"#utility.yul\":3179:3193   */\n      gt\n        /* \"#utility.yul\":3176:3210   */\n      iszero\n      tag_413\n      jumpi\n        /* \"#utility.yul\":3206:3207   */\n      0x00\n        /* \"#utility.yul\":3203:3204   */\n      dup1\n        /* \"#utility.yul\":3196:3208   */\n      revert\n        /* \"#utility.yul\":3176:3210   */\n    tag_413:\n        /* \"#utility.yul\":3244:3250   */\n      dup2\n        /* \"#utility.yul\":3233:3242   */\n      dup5\n        /* \"#utility.yul\":3229:3251   */\n      add\n        /* \"#utility.yul\":3219:3251   */\n      swap2\n      pop\n        /* \"#utility.yul\":3289:3296   */\n      dup5\n        /* \"#utility.yul\":3282:3286   */\n      0x1f\n        /* \"#utility.yul\":3278:3280   */\n      dup4\n        /* \"#utility.yul\":3274:3287   */\n      add\n        /* \"#utility.yul\":3270:3297   */\n      slt\n        /* \"#utility.yul\":3260:3315   */\n      tag_414\n      jumpi\n        /* \"#utility.yul\":3311:3312   */\n      0x00\n        /* \"#utility.yul\":3308:3309   */\n      dup1\n        /* \"#utility.yul\":3301:3313   */\n      revert\n        /* \"#utility.yul\":3260:3315   */\n    tag_414:\n        /* \"#utility.yul\":3347:3349   */\n      dup2\n        /* \"#utility.yul\":3334:3350   */\n      calldataload\n        /* \"#utility.yul\":3369:3371   */\n      dup2\n        /* \"#utility.yul\":3365:3367   */\n      dup2\n        /* \"#utility.yul\":3362:3372   */\n      gt\n        /* \"#utility.yul\":3359:3395   */\n      iszero\n      tag_416\n      jumpi\n        /* \"#utility.yul\":3375:3393   */\n      tag_416\n      tag_389\n      jump\t// in\n    tag_416:\n        /* \"#utility.yul\":3450:3452   */\n      0x40\n        /* \"#utility.yul\":3444:3453   */\n      mload\n        /* \"#utility.yul\":3418:3420   */\n      0x1f\n        /* \"#utility.yul\":3504:3517   */\n      dup3\n      add\n      not(0x1f)\n        /* \"#utility.yul\":3500:3522   */\n      swap1\n      dup2\n      and\n        /* \"#utility.yul\":3524:3526   */\n      0x3f\n        /* \"#utility.yul\":3496:3527   */\n      add\n        /* \"#utility.yul\":3492:3532   */\n      and\n        /* \"#utility.yul\":3480:3533   */\n      dup2\n      add\n      swap1\n        /* \"#utility.yul\":3548:3566   */\n      dup4\n      dup3\n      gt\n        /* \"#utility.yul\":3568:3590   */\n      dup2\n      dup4\n      lt\n        /* \"#utility.yul\":3545:3591   */\n      or\n        /* \"#utility.yul\":3542:3614   */\n      iszero\n      tag_418\n      jumpi\n        /* \"#utility.yul\":3594:3612   */\n      tag_418\n      tag_389\n      jump\t// in\n    tag_418:\n        /* \"#utility.yul\":3634:3644   */\n      dup2\n        /* \"#utility.yul\":3630:3632   */\n      0x40\n        /* \"#utility.yul\":3623:3645   */\n      mstore\n        /* \"#utility.yul\":3669:3671   */\n      dup3\n        /* \"#utility.yul\":3661:3667   */\n      dup2\n        /* \"#utility.yul\":3654:3672   */\n      mstore\n        /* \"#utility.yul\":3709:3716   */\n      dup8\n        /* \"#utility.yul\":3704:3706   */\n      0x20\n        /* \"#utility.yul\":3699:3701   */\n      dup5\n        /* \"#utility.yul\":3695:3697   */\n      dup8\n        /* \"#utility.yul\":3691:3702   */\n      add\n        /* \"#utility.yul\":3687:3707   */\n      add\n        /* \"#utility.yul\":3684:3717   */\n      gt\n        /* \"#utility.yul\":3681:3734   */\n      iszero\n      tag_419\n      jumpi\n        /* \"#utility.yul\":3730:3731   */\n      0x00\n        /* \"#utility.yul\":3727:3728   */\n      dup1\n        /* \"#utility.yul\":3720:3732   */\n      revert\n        /* \"#utility.yul\":3681:3734   */\n    tag_419:\n        /* \"#utility.yul\":3786:3788   */\n      dup3\n        /* \"#utility.yul\":3781:3783   */\n      0x20\n        /* \"#utility.yul\":3777:3779   */\n      dup7\n        /* \"#utility.yul\":3773:3784   */\n      add\n        /* \"#utility.yul\":3768:3770   */\n      0x20\n        /* \"#utility.yul\":3760:3766   */\n      dup4\n        /* \"#utility.yul\":3756:3771   */\n      add\n        /* \"#utility.yul\":3743:3789   */\n      calldatacopy\n        /* \"#utility.yul\":3831:3832   */\n      0x00\n        /* \"#utility.yul\":3809:3824   */\n      swap3\n      dup2\n      add\n        /* \"#utility.yul\":3826:3828   */\n      0x20\n        /* \"#utility.yul\":3805:3829   */\n      add\n        /* \"#utility.yul\":3798:3833   */\n      swap3\n      swap1\n      swap3\n      mstore\n      pop\n        /* \"#utility.yul\":3813:3819   */\n      swap6\n        /* \"#utility.yul\":2942:3864   */\n      swap5\n      pop\n      pop\n      pop\n      pop\n      pop\n      jump\t// out\n        /* \"#utility.yul\":3869:4029   */\n    tag_390:\n        /* \"#utility.yul\":3934:3954   */\n      dup1\n      calldataload\n        /* \"#utility.yul\":3990:4003   */\n      dup1\n      iszero\n        /* \"#utility.yul\":3983:4004   */\n      iszero\n        /* \"#utility.yul\":3973:4005   */\n      dup2\n      eq\n        /* \"#utility.yul\":3963:4023   */\n      tag_421\n      jumpi\n        /* \"#utility.yul\":4019:4020   */\n      0x00\n        /* \"#utility.yul\":4016:4017   */\n      dup1\n        /* \"#utility.yul\":4009:4021   */\n      revert\n        /* \"#utility.yul\":3963:4023   */\n    tag_421:\n        /* \"#utility.yul\":3869:4029   */\n      swap2\n      swap1\n      pop\n      jump\t// out\n        /* \"#utility.yul\":4034:4700   */\n    tag_86:\n        /* \"#utility.yul\":4111:4117   */\n      0x00\n        /* \"#utility.yul\":4119:4125   */\n      dup1\n        /* \"#utility.yul\":4127:4133   */\n      0x00\n        /* \"#utility.yul\":4180:4182   */\n      0x40\n        /* \"#utility.yul\":4168:4177   */\n      dup5\n        /* \"#utility.yul\":4159:4166   */\n      dup7\n        /* \"#utility.yul\":4155:4178   */\n      sub\n        /* \"#utility.yul\":4151:4183   */\n      slt\n        /* \"#utility.yul\":4148:4200   */\n      iszero\n      tag_423\n      jumpi\n        /* \"#utility.yul\":4196:4197   */\n      0x00\n        /* \"#utility.yul\":4193:4194   */\n      dup1\n        /* \"#utility.yul\":4186:4198   */\n      revert\n        /* \"#utility.yul\":4148:4200   */\n    tag_423:\n        /* \"#utility.yul\":4236:4245   */\n      dup4\n        /* \"#utility.yul\":4223:4246   */\n      calldataload\n        /* \"#utility.yul\":4265:4283   */\n      0xffffffffffffffff\n        /* \"#utility.yul\":4306:4308   */\n      dup1\n        /* \"#utility.yul\":4298:4304   */\n      dup3\n        /* \"#utility.yul\":4295:4309   */\n      gt\n        /* \"#utility.yul\":4292:4326   */\n      iszero\n      tag_424\n      jumpi\n        /* \"#utility.yul\":4322:4323   */\n      0x00\n        /* \"#utility.yul\":4319:4320   */\n      dup1\n        /* \"#utility.yul\":4312:4324   */\n      revert\n        /* \"#utility.yul\":4292:4326   */\n    tag_424:\n        /* \"#utility.yul\":4360:4366   */\n      dup2\n        /* \"#utility.yul\":4349:4358   */\n      dup7\n        /* \"#utility.yul\":4345:4367   */\n      add\n        /* \"#utility.yul\":4335:4367   */\n      swap2\n      pop\n        /* \"#utility.yul\":4405:4412   */\n      dup7\n        /* \"#utility.yul\":4398:4402   */\n      0x1f\n        /* \"#utility.yul\":4394:4396   */\n      dup4\n        /* \"#utility.yul\":4390:4403   */\n      add\n        /* \"#utility.yul\":4386:4413   */\n      slt\n        /* \"#utility.yul\":4376:4431   */\n      tag_425\n      jumpi\n        /* \"#utility.yul\":4427:4428   */\n      0x00\n        /* \"#utility.yul\":4424:4425   */\n      dup1\n        /* \"#utility.yul\":4417:4429   */\n      revert\n        /* \"#utility.yul\":4376:4431   */\n    tag_425:\n        /* \"#utility.yul\":4467:4469   */\n      dup2\n        /* \"#utility.yul\":4454:4470   */\n      calldataload\n        /* \"#utility.yul\":4493:4495   */\n      dup2\n        /* \"#utility.yul\":4485:4491   */\n      dup2\n        /* \"#utility.yul\":4482:4496   */\n      gt\n        /* \"#utility.yul\":4479:4513   */\n      iszero\n      tag_426\n      jumpi\n        /* \"#utility.yul\":4509:4510   */\n      0x00\n        /* \"#utility.yul\":4506:4507   */\n      dup1\n        /* \"#utility.yul\":4499:4511   */\n      revert\n        /* \"#utility.yul\":4479:4513   */\n    tag_426:\n        /* \"#utility.yul\":4556:4563   */\n      dup8\n        /* \"#utility.yul\":4549:4553   */\n      0x20\n        /* \"#utility.yul\":4540:4546   */\n      dup3\n        /* \"#utility.yul\":4536:4538   */\n      dup6\n        /* \"#utility.yul\":4532:4547   */\n      add\n        /* \"#utility.yul\":4528:4554   */\n      add\n        /* \"#utility.yul\":4525:4564   */\n      gt\n        /* \"#utility.yul\":4522:4581   */\n      iszero\n      tag_427\n      jumpi\n        /* \"#utility.yul\":4577:4578   */\n      0x00\n        /* \"#utility.yul\":4574:4575   */\n      dup1\n        /* \"#utility.yul\":4567:4579   */\n      revert\n        /* \"#utility.yul\":4522:4581   */\n    tag_427:\n        /* \"#utility.yul\":4608:4612   */\n      0x20\n        /* \"#utility.yul\":4600:4613   */\n      swap3\n      dup4\n      add\n      swap6\n      pop\n        /* \"#utility.yul\":4632:4638   */\n      swap4\n      pop\n        /* \"#utility.yul\":4657:4694   */\n      tag_428\n      swap2\n        /* \"#utility.yul\":4673:4693   */\n      dup7\n      add\n      swap1\n      pop\n        /* \"#utility.yul\":4657:4694   */\n      tag_390\n      jump\t// in\n    tag_428:\n        /* \"#utility.yul\":4647:4694   */\n      swap1\n      pop\n        /* \"#utility.yul\":4034:4700   */\n      swap3\n      pop\n      swap3\n      pop\n      swap3\n      jump\t// out\n        /* \"#utility.yul\":4705:5020   */\n    tag_90:\n        /* \"#utility.yul\":4770:4776   */\n      0x00\n        /* \"#utility.yul\":4778:4784   */\n      dup1\n        /* \"#utility.yul\":4831:4833   */\n      0x40\n        /* \"#utility.yul\":4819:4828   */\n      dup4\n        /* \"#utility.yul\":4810:4817   */\n      dup6\n        /* \"#utility.yul\":4806:4829   */\n      sub\n        /* \"#utility.yul\":4802:4834   */\n      slt\n        /* \"#utility.yul\":4799:4851   */\n      iszero\n      tag_430\n      jumpi\n        /* \"#utility.yul\":4847:4848   */\n      0x00\n        /* \"#utility.yul\":4844:4845   */\n      dup1\n        /* \"#utility.yul\":4837:4849   */\n      revert\n        /* \"#utility.yul\":4799:4851   */\n    tag_430:\n        /* \"#utility.yul\":4886:4895   */\n      dup3\n        /* \"#utility.yul\":4873:4896   */\n      calldataload\n        /* \"#utility.yul\":4905:4936   */\n      tag_431\n        /* \"#utility.yul\":4930:4935   */\n      dup2\n        /* \"#utility.yul\":4905:4936   */\n      tag_388\n      jump\t// in\n    tag_431:\n        /* \"#utility.yul\":4955:4960   */\n      swap2\n      pop\n        /* \"#utility.yul\":4979:5014   */\n      tag_432\n        /* \"#utility.yul\":5010:5012   */\n      0x20\n        /* \"#utility.yul\":4995:5013   */\n      dup5\n      add\n        /* \"#utility.yul\":4979:5014   */\n      tag_390\n      jump\t// in\n    tag_432:\n        /* \"#utility.yul\":4969:5014   */\n      swap1\n      pop\n        /* \"#utility.yul\":4705:5020   */\n      swap3\n      pop\n      swap3\n      swap1\n      pop\n      jump\t// out\n        /* \"#utility.yul\":5025:5568   */\n    tag_97:\n        /* \"#utility.yul\":5118:5124   */\n      0x00\n        /* \"#utility.yul\":5126:5132   */\n      dup1\n        /* \"#utility.yul\":5134:5140   */\n      0x00\n        /* \"#utility.yul\":5142:5148   */\n      dup1\n        /* \"#utility.yul\":5150:5156   */\n      0x00\n        /* \"#utility.yul\":5203:5206   */\n      0xa0\n        /* \"#utility.yul\":5191:5200   */\n      dup7\n        /* \"#utility.yul\":5182:5189   */\n      dup9\n        /* \"#utility.yul\":5178:5201   */\n      sub\n        /* \"#utility.yul\":5174:5207   */\n      slt\n        /* \"#utility.yul\":5171:5224   */\n      iszero\n      tag_434\n      jumpi\n        /* \"#utility.yul\":5220:5221   */\n      0x00\n        /* \"#utility.yul\":5217:5218   */\n      dup1\n        /* \"#utility.yul\":5210:5222   */\n      revert\n        /* \"#utility.yul\":5171:5224   */\n    tag_434:\n        /* \"#utility.yul\":5256:5265   */\n      dup6\n        /* \"#utility.yul\":5243:5266   */\n      calldataload\n        /* \"#utility.yul\":5233:5266   */\n      swap5\n      pop\n        /* \"#utility.yul\":5313:5315   */\n      0x20\n        /* \"#utility.yul\":5302:5311   */\n      dup7\n        /* \"#utility.yul\":5298:5316   */\n      add\n        /* \"#utility.yul\":5285:5317   */\n      calldataload\n        /* \"#utility.yul\":5275:5317   */\n      swap4\n      pop\n        /* \"#utility.yul\":5367:5369   */\n      0x40\n        /* \"#utility.yul\":5356:5365   */\n      dup7\n        /* \"#utility.yul\":5352:5370   */\n      add\n        /* \"#utility.yul\":5339:5371   */\n      calldataload\n        /* \"#utility.yul\":5411:5415   */\n      0xff\n        /* \"#utility.yul\":5404:5409   */\n      dup2\n        /* \"#utility.yul\":5400:5416   */\n      and\n        /* \"#utility.yul\":5393:5398   */\n      dup2\n        /* \"#utility.yul\":5390:5417   */\n      eq\n        /* \"#utility.yul\":5380:5435   */\n      tag_435\n      jumpi\n        /* \"#utility.yul\":5431:5432   */\n      0x00\n        /* \"#utility.yul\":5428:5429   */\n      dup1\n        /* \"#utility.yul\":5421:5433   */\n      revert\n        /* \"#utility.yul\":5380:5435   */\n    tag_435:\n        /* \"#utility.yul\":5025:5568   */\n      swap5\n      swap8\n      swap4\n      swap7\n      pop\n        /* \"#utility.yul\":5454:5459   */\n      swap4\n      swap5\n        /* \"#utility.yul\":5506:5508   */\n      0x60\n        /* \"#utility.yul\":5491:5509   */\n      dup2\n      add\n        /* \"#utility.yul\":5478:5510   */\n      calldataload\n      swap5\n      pop\n        /* \"#utility.yul\":5557:5560   */\n      0x80\n        /* \"#utility.yul\":5542:5561   */\n      add\n        /* \"#utility.yul\":5529:5562   */\n      calldataload\n      swap3\n        /* \"#utility.yul\":5025:5568   */\n      swap2\n      pop\n      pop\n      jump\t// out\n        /* \"#utility.yul\":5573:5821   */\n    tag_101:\n        /* \"#utility.yul\":5641:5647   */\n      0x00\n        /* \"#utility.yul\":5649:5655   */\n      dup1\n        /* \"#utility.yul\":5702:5704   */\n      0x40\n        /* \"#utility.yul\":5690:5699   */\n      dup4\n        /* \"#utility.yul\":5681:5688   */\n      dup6\n        /* \"#utility.yul\":5677:5700   */\n      sub\n        /* \"#utility.yul\":5673:5705   */\n      slt\n        /* \"#utility.yul\":5670:5722   */\n      iszero\n      tag_437\n      jumpi\n        /* \"#utility.yul\":5718:5719   */\n      0x00\n        /* \"#utility.yul\":5715:5716   */\n      dup1\n        /* \"#utility.yul\":5708:5720   */\n      revert\n        /* \"#utility.yul\":5670:5722   */\n    tag_437:\n      pop\n      pop\n        /* \"#utility.yul\":5741:5764   */\n      dup1\n      calldataload\n      swap3\n        /* \"#utility.yul\":5811:5813   */\n      0x20\n        /* \"#utility.yul\":5796:5814   */\n      swap1\n      swap2\n      add\n        /* \"#utility.yul\":5783:5815   */\n      calldataload\n      swap2\n      pop\n        /* \"#utility.yul\":5573:5821   */\n      jump\t// out\n        /* \"#utility.yul\":5826:6141   */\n    tag_105:\n        /* \"#utility.yul\":5894:5900   */\n      0x00\n        /* \"#utility.yul\":5902:5908   */\n      dup1\n        /* \"#utility.yul\":5955:5957   */\n      0x40\n        /* \"#utility.yul\":5943:5952   */\n      dup4\n        /* \"#utility.yul\":5934:5941   */\n      dup6\n        /* \"#utility.yul\":5930:5953   */\n      sub\n        /* \"#utility.yul\":5926:5958   */\n      slt\n        /* \"#utility.yul\":5923:5975   */\n      iszero\n      tag_439\n      jumpi\n        /* \"#utility.yul\":5971:5972   */\n      0x00\n        /* \"#utility.yul\":5968:5969   */\n      dup1\n        /* \"#utility.yul\":5961:5973   */\n      revert\n        /* \"#utility.yul\":5923:5975   */\n    tag_439:\n        /* \"#utility.yul\":6007:6016   */\n      dup3\n        /* \"#utility.yul\":5994:6017   */\n      calldataload\n        /* \"#utility.yul\":5984:6017   */\n      swap2\n      pop\n        /* \"#utility.yul\":6067:6069   */\n      0x20\n        /* \"#utility.yul\":6056:6065   */\n      dup4\n        /* \"#utility.yul\":6052:6070   */\n      add\n        /* \"#utility.yul\":6039:6071   */\n      calldataload\n        /* \"#utility.yul\":6080:6111   */\n      tag_440\n        /* \"#utility.yul\":6105:6110   */\n      dup2\n        /* \"#utility.yul\":6080:6111   */\n      tag_388\n      jump\t// in\n    tag_440:\n        /* \"#utility.yul\":6130:6135   */\n      dup1\n        /* \"#utility.yul\":6120:6135   */\n      swap2\n      pop\n      pop\n        /* \"#utility.yul\":5826:6141   */\n      swap3\n      pop\n      swap3\n      swap1\n      pop\n      jump\t// out\n        /* \"#utility.yul\":6146:6305   */\n    tag_391:\n        /* \"#utility.yul\":6240:6246   */\n      dup1\n        /* \"#utility.yul\":6273:6275   */\n      0x60\n        /* \"#utility.yul\":6261:6276   */\n      dup2\n      add\n        /* \"#utility.yul\":6258:6282   */\n      dup4\n      lt\n        /* \"#utility.yul\":6255:6299   */\n      iszero\n      tag_442\n      jumpi\n        /* \"#utility.yul\":6295:6296   */\n      0x00\n        /* \"#utility.yul\":6292:6293   */\n      dup1\n        /* \"#utility.yul\":6285:6297   */\n      revert\n        /* \"#utility.yul\":6255:6299   */\n    tag_442:\n        /* \"#utility.yul\":6146:6305   */\n      swap3\n      swap2\n      pop\n      pop\n      jump\t// out\n        /* \"#utility.yul\":6310:7060   */\n    tag_109:\n        /* \"#utility.yul\":6492:6498   */\n      0x00\n        /* \"#utility.yul\":6500:6506   */\n      dup1\n        /* \"#utility.yul\":6508:6514   */\n      0x00\n        /* \"#utility.yul\":6516:6522   */\n      dup1\n        /* \"#utility.yul\":6524:6530   */\n      0x00\n        /* \"#utility.yul\":6577:6580   */\n      0x0120\n        /* \"#utility.yul\":6565:6574   */\n      dup7\n        /* \"#utility.yul\":6556:6563   */\n      dup9\n        /* \"#utility.yul\":6552:6575   */\n      sub\n        /* \"#utility.yul\":6548:6581   */\n      slt\n        /* \"#utility.yul\":6545:6598   */\n      iszero\n      tag_444\n      jumpi\n        /* \"#utility.yul\":6594:6595   */\n      0x00\n        /* \"#utility.yul\":6591:6592   */\n      dup1\n        /* \"#utility.yul\":6584:6596   */\n      revert\n        /* \"#utility.yul\":6545:6598   */\n    tag_444:\n        /* \"#utility.yul\":6630:6639   */\n      dup6\n        /* \"#utility.yul\":6617:6640   */\n      calldataload\n        /* \"#utility.yul\":6607:6640   */\n      swap5\n      pop\n        /* \"#utility.yul\":6687:6689   */\n      0x20\n        /* \"#utility.yul\":6676:6685   */\n      dup7\n        /* \"#utility.yul\":6672:6690   */\n      add\n        /* \"#utility.yul\":6659:6691   */\n      calldataload\n        /* \"#utility.yul\":6649:6691   */\n      swap4\n      pop\n        /* \"#utility.yul\":6710:6772   */\n      tag_445\n        /* \"#utility.yul\":6764:6771   */\n      dup8\n        /* \"#utility.yul\":6759:6761   */\n      0x40\n        /* \"#utility.yul\":6748:6757   */\n      dup9\n        /* \"#utility.yul\":6744:6762   */\n      add\n        /* \"#utility.yul\":6710:6772   */\n      tag_391\n      jump\t// in\n    tag_445:\n        /* \"#utility.yul\":6700:6772   */\n      swap3\n      pop\n        /* \"#utility.yul\":6791:6854   */\n      tag_446\n        /* \"#utility.yul\":6846:6853   */\n      dup8\n        /* \"#utility.yul\":6840:6843   */\n      0xa0\n        /* \"#utility.yul\":6829:6838   */\n      dup9\n        /* \"#utility.yul\":6825:6844   */\n      add\n        /* \"#utility.yul\":6791:6854   */\n      tag_391\n      jump\t// in\n    tag_446:\n        /* \"#utility.yul\":6781:6854   */\n      swap2\n      pop\n        /* \"#utility.yul\":6905:6908   */\n      0x0100\n        /* \"#utility.yul\":6894:6903   */\n      dup7\n        /* \"#utility.yul\":6890:6909   */\n      add\n        /* \"#utility.yul\":6877:6910   */\n      calldataload\n        /* \"#utility.yul\":6933:6951   */\n      0xffffffffffffffff\n        /* \"#utility.yul\":6925:6931   */\n      dup2\n        /* \"#utility.yul\":6922:6952   */\n      gt\n        /* \"#utility.yul\":6919:6969   */\n      iszero\n      tag_447\n      jumpi\n        /* \"#utility.yul\":6965:6966   */\n      0x00\n        /* \"#utility.yul\":6962:6963   */\n      dup1\n        /* \"#utility.yul\":6955:6967   */\n      revert\n        /* \"#utility.yul\":6919:6969   */\n    tag_447:\n        /* \"#utility.yul\":6988:7054   */\n      tag_448\n        /* \"#utility.yul\":7046:7053   */\n      dup9\n        /* \"#utility.yul\":7037:7043   */\n      dup3\n        /* \"#utility.yul\":7026:7035   */\n      dup10\n        /* \"#utility.yul\":7022:7044   */\n      add\n        /* \"#utility.yul\":6988:7054   */\n      tag_391\n      jump\t// in\n    tag_448:\n        /* \"#utility.yul\":6978:7054   */\n      swap2\n      pop\n      pop\n        /* \"#utility.yul\":6310:7060   */\n      swap3\n      swap6\n      pop\n      swap3\n      swap6\n      swap1\n      swap4\n      pop\n      jump\t// out\n        /* \"#utility.yul\":7065:7440   */\n    tag_392:\n        /* \"#utility.yul\":7136:7144   */\n      0x00\n        /* \"#utility.yul\":7146:7152   */\n      dup1\n        /* \"#utility.yul\":7200:7203   */\n      dup4\n        /* \"#utility.yul\":7193:7197   */\n      0x1f\n        /* \"#utility.yul\":7185:7191   */\n      dup5\n        /* \"#utility.yul\":7181:7198   */\n      add\n        /* \"#utility.yul\":7177:7204   */\n      slt\n        /* \"#utility.yul\":7167:7222   */\n      tag_450\n      jumpi\n        /* \"#utility.yul\":7218:7219   */\n      0x00\n        /* \"#utility.yul\":7215:7216   */\n      dup1\n        /* \"#utility.yul\":7208:7220   */\n      revert\n        /* \"#utility.yul\":7167:7222   */\n    tag_450:\n      pop\n        /* \"#utility.yul\":7241:7261   */\n      dup2\n      calldataload\n        /* \"#utility.yul\":7284:7302   */\n      0xffffffffffffffff\n        /* \"#utility.yul\":7273:7303   */\n      dup2\n      gt\n        /* \"#utility.yul\":7270:7320   */\n      iszero\n      tag_451\n      jumpi\n        /* \"#utility.yul\":7316:7317   */\n      0x00\n        /* \"#utility.yul\":7313:7314   */\n      dup1\n        /* \"#utility.yul\":7306:7318   */\n      revert\n        /* \"#utility.yul\":7270:7320   */\n    tag_451:\n        /* \"#utility.yul\":7353:7357   */\n      0x20\n        /* \"#utility.yul\":7345:7351   */\n      dup4\n        /* \"#utility.yul\":7341:7358   */\n      add\n        /* \"#utility.yul\":7329:7358   */\n      swap2\n      pop\n        /* \"#utility.yul\":7413:7416   */\n      dup4\n        /* \"#utility.yul\":7406:7410   */\n      0x20\n        /* \"#utility.yul\":7396:7402   */\n      dup3\n        /* \"#utility.yul\":7393:7394   */\n      0x05\n        /* \"#utility.yul\":7389:7403   */\n      shl\n        /* \"#utility.yul\":7381:7387   */\n      dup6\n        /* \"#utility.yul\":7377:7404   */\n      add\n        /* \"#utility.yul\":7373:7411   */\n      add\n        /* \"#utility.yul\":7370:7417   */\n      gt\n        /* \"#utility.yul\":7367:7434   */\n      iszero\n      tag_452\n      jumpi\n        /* \"#utility.yul\":7430:7431   */\n      0x00\n        /* \"#utility.yul\":7427:7428   */\n      dup1\n        /* \"#utility.yul\":7420:7432   */\n      revert\n        /* \"#utility.yul\":7367:7434   */\n    tag_452:\n        /* \"#utility.yul\":7065:7440   */\n      swap3\n      pop\n      swap3\n      swap1\n      pop\n      jump\t// out\n        /* \"#utility.yul\":7445:8243   */\n    tag_116:\n        /* \"#utility.yul\":7576:7582   */\n      0x00\n        /* \"#utility.yul\":7584:7590   */\n      dup1\n        /* \"#utility.yul\":7592:7598   */\n      0x00\n        /* \"#utility.yul\":7600:7606   */\n      dup1\n        /* \"#utility.yul\":7653:7655   */\n      0x40\n        /* \"#utility.yul\":7641:7650   */\n      dup6\n        /* \"#utility.yul\":7632:7639   */\n      dup8\n        /* \"#utility.yul\":7628:7651   */\n      sub\n        /* \"#utility.yul\":7624:7656   */\n      slt\n        /* \"#utility.yul\":7621:7673   */\n      iszero\n      tag_454\n      jumpi\n        /* \"#utility.yul\":7669:7670   */\n      0x00\n        /* \"#utility.yul\":7666:7667   */\n      dup1\n        /* \"#utility.yul\":7659:7671   */\n      revert\n        /* \"#utility.yul\":7621:7673   */\n    tag_454:\n        /* \"#utility.yul\":7709:7718   */\n      dup5\n        /* \"#utility.yul\":7696:7719   */\n      calldataload\n        /* \"#utility.yul\":7738:7756   */\n      0xffffffffffffffff\n        /* \"#utility.yul\":7779:7781   */\n      dup1\n        /* \"#utility.yul\":7771:7777   */\n      dup3\n        /* \"#utility.yul\":7768:7782   */\n      gt\n        /* \"#utility.yul\":7765:7799   */\n      iszero\n      tag_455\n      jumpi\n        /* \"#utility.yul\":7795:7796   */\n      0x00\n        /* \"#utility.yul\":7792:7793   */\n      dup1\n        /* \"#utility.yul\":7785:7797   */\n      revert\n        /* \"#utility.yul\":7765:7799   */\n    tag_455:\n        /* \"#utility.yul\":7834:7912   */\n      tag_456\n        /* \"#utility.yul\":7904:7911   */\n      dup9\n        /* \"#utility.yul\":7895:7901   */\n      dup4\n        /* \"#utility.yul\":7884:7893   */\n      dup10\n        /* \"#utility.yul\":7880:7902   */\n      add\n        /* \"#utility.yul\":7834:7912   */\n      tag_392\n      jump\t// in\n    tag_456:\n        /* \"#utility.yul\":7931:7939   */\n      swap1\n      swap7\n      pop\n        /* \"#utility.yul\":7808:7912   */\n      swap5\n      pop\n        /* \"#utility.yul\":8019:8021   */\n      0x20\n        /* \"#utility.yul\":8004:8022   */\n      dup8\n      add\n        /* \"#utility.yul\":7991:8023   */\n      calldataload\n      swap2\n      pop\n        /* \"#utility.yul\":8035:8051   */\n      dup1\n      dup3\n      gt\n        /* \"#utility.yul\":8032:8068   */\n      iszero\n      tag_457\n      jumpi\n        /* \"#utility.yul\":8064:8065   */\n      0x00\n        /* \"#utility.yul\":8061:8062   */\n      dup1\n        /* \"#utility.yul\":8054:8066   */\n      revert\n        /* \"#utility.yul\":8032:8068   */\n    tag_457:\n      pop\n        /* \"#utility.yul\":8103:8183   */\n      tag_458\n        /* \"#utility.yul\":8175:8182   */\n      dup8\n        /* \"#utility.yul\":8164:8172   */\n      dup3\n        /* \"#utility.yul\":8153:8162   */\n      dup9\n        /* \"#utility.yul\":8149:8173   */\n      add\n        /* \"#utility.yul\":8103:8183   */\n      tag_392\n      jump\t// in\n    tag_458:\n        /* \"#utility.yul\":7445:8243   */\n      swap6\n      swap9\n      swap5\n      swap8\n      pop\n        /* \"#utility.yul\":8202:8210   */\n      swap6\n      pop\n      pop\n      pop\n      pop\n        /* \"#utility.yul\":7445:8243   */\n      jump\t// out\n        /* \"#utility.yul\":8594:8721   */\n    tag_393:\n        /* \"#utility.yul\":8655:8665   */\n      0x4e487b71\n        /* \"#utility.yul\":8650:8653   */\n      0xe0\n        /* \"#utility.yul\":8646:8666   */\n      shl\n        /* \"#utility.yul\":8643:8644   */\n      0x00\n        /* \"#utility.yul\":8636:8667   */\n      mstore\n        /* \"#utility.yul\":8686:8690   */\n      0x11\n        /* \"#utility.yul\":8683:8684   */\n      0x04\n        /* \"#utility.yul\":8676:8691   */\n      mstore\n        /* \"#utility.yul\":8710:8714   */\n      0x24\n        /* \"#utility.yul\":8707:8708   */\n      0x00\n        /* \"#utility.yul\":8700:8715   */\n      revert\n        /* \"#utility.yul\":8726:8854   */\n    tag_126:\n        /* \"#utility.yul\":8793:8802   */\n      dup2\n      dup2\n      sub\n        /* \"#utility.yul\":8814:8825   */\n      dup2\n      dup2\n      gt\n        /* \"#utility.yul\":8811:8848   */\n      iszero\n      tag_442\n      jumpi\n        /* \"#utility.yul\":8828:8846   */\n      tag_442\n      tag_393\n      jump\t// in\n        /* \"#utility.yul\":9541:9668   */\n    tag_145:\n        /* \"#utility.yul\":9602:9612   */\n      0x4e487b71\n        /* \"#utility.yul\":9597:9600   */\n      0xe0\n        /* \"#utility.yul\":9593:9613   */\n      shl\n        /* \"#utility.yul\":9590:9591   */\n      0x00\n        /* \"#utility.yul\":9583:9614   */\n      mstore\n        /* \"#utility.yul\":9633:9637   */\n      0x32\n        /* \"#utility.yul\":9630:9631   */\n      0x04\n        /* \"#utility.yul\":9623:9638   */\n      mstore\n        /* \"#utility.yul\":9657:9661   */\n      0x24\n        /* \"#utility.yul\":9654:9655   */\n      0x00\n        /* \"#utility.yul\":9647:9662   */\n      revert\n        /* \"#utility.yul\":9673:10003   */\n    tag_149:\n        /* \"#utility.yul\":9875:9877   */\n      0x20\n        /* \"#utility.yul\":9857:9878   */\n      dup1\n      dup3\n      mstore\n        /* \"#utility.yul\":9914:9915   */\n      0x07\n        /* \"#utility.yul\":9894:9912   */\n      swap1\n      dup3\n      add\n        /* \"#utility.yul\":9887:9916   */\n      mstore\n      shl(0xca, 0x14d95d1d1b1959)\n        /* \"#utility.yul\":9947:9949   */\n      0x40\n        /* \"#utility.yul\":9932:9950   */\n      dup3\n      add\n        /* \"#utility.yul\":9925:9962   */\n      mstore\n        /* \"#utility.yul\":9994:9996   */\n      0x60\n        /* \"#utility.yul\":9979:9997   */\n      add\n      swap1\n        /* \"#utility.yul\":9673:10003   */\n      jump\t// out\n        /* \"#utility.yul\":12499:12624   */\n    tag_207:\n        /* \"#utility.yul\":12564:12573   */\n      dup1\n      dup3\n      add\n        /* \"#utility.yul\":12585:12595   */\n      dup1\n      dup3\n      gt\n        /* \"#utility.yul\":12582:12618   */\n      iszero\n      tag_442\n      jumpi\n        /* \"#utility.yul\":12598:12616   */\n      tag_442\n      tag_393\n      jump\t// in\n        /* \"#utility.yul\":13638:14160   */\n    tag_264:\n        /* \"#utility.yul\":13716:13720   */\n      0x00\n        /* \"#utility.yul\":13722:13728   */\n      dup1\n        /* \"#utility.yul\":13782:13793   */\n      dup4\n        /* \"#utility.yul\":13769:13794   */\n      calldataload\n        /* \"#utility.yul\":13876:13878   */\n      0x1e\n        /* \"#utility.yul\":13872:13879   */\n      not\n        /* \"#utility.yul\":13861:13869   */\n      dup5\n        /* \"#utility.yul\":13845:13859   */\n      calldatasize\n        /* \"#utility.yul\":13841:13870   */\n      sub\n        /* \"#utility.yul\":13837:13880   */\n      add\n        /* \"#utility.yul\":13817:13835   */\n      dup2\n        /* \"#utility.yul\":13813:13881   */\n      slt\n        /* \"#utility.yul\":13803:13899   */\n      tag_482\n      jumpi\n        /* \"#utility.yul\":13895:13896   */\n      0x00\n        /* \"#utility.yul\":13892:13893   */\n      dup1\n        /* \"#utility.yul\":13885:13897   */\n      revert\n        /* \"#utility.yul\":13803:13899   */\n    tag_482:\n        /* \"#utility.yul\":13922:13955   */\n      dup4\n      add\n        /* \"#utility.yul\":13974:13994   */\n      dup1\n      calldataload\n      swap2\n      pop\n        /* \"#utility.yul\":14017:14035   */\n      0xffffffffffffffff\n        /* \"#utility.yul\":14006:14036   */\n      dup3\n      gt\n        /* \"#utility.yul\":14003:14053   */\n      iszero\n      tag_483\n      jumpi\n        /* \"#utility.yul\":14049:14050   */\n      0x00\n        /* \"#utility.yul\":14046:14047   */\n      dup1\n        /* \"#utility.yul\":14039:14051   */\n      revert\n        /* \"#utility.yul\":14003:14053   */\n    tag_483:\n        /* \"#utility.yul\":14082:14086   */\n      0x20\n        /* \"#utility.yul\":14070:14087   */\n      add\n      swap2\n      pop\n        /* \"#utility.yul\":14113:14127   */\n      calldatasize\n        /* \"#utility.yul\":14109:14136   */\n      dup2\n      swap1\n      sub\n        /* \"#utility.yul\":14099:14137   */\n      dup3\n      sgt\n        /* \"#utility.yul\":14096:14154   */\n      iszero\n      tag_452\n      jumpi\n        /* \"#utility.yul\":14150:14151   */\n      0x00\n        /* \"#utility.yul\":14147:14148   */\n      dup1\n        /* \"#utility.yul\":14140:14152   */\n      revert\n        /* \"#utility.yul\":14165:14345   */\n    tag_273:\n        /* \"#utility.yul\":14221:14227   */\n      0x00\n        /* \"#utility.yul\":14274:14276   */\n      0x20\n        /* \"#utility.yul\":14262:14271   */\n      dup3\n        /* \"#utility.yul\":14253:14260   */\n      dup5\n        /* \"#utility.yul\":14249:14272   */\n      sub\n        /* \"#utility.yul\":14245:14277   */\n      slt\n        /* \"#utility.yul\":14242:14294   */\n      iszero\n      tag_486\n      jumpi\n        /* \"#utility.yul\":14290:14291   */\n      0x00\n        /* \"#utility.yul\":14287:14288   */\n      dup1\n        /* \"#utility.yul\":14280:14292   */\n      revert\n        /* \"#utility.yul\":14242:14294   */\n    tag_486:\n        /* \"#utility.yul\":14313:14339   */\n      tag_405\n        /* \"#utility.yul\":14329:14338   */\n      dup3\n        /* \"#utility.yul\":14313:14339   */\n      tag_390\n      jump\t// in\n        /* \"#utility.yul\":14730:14898   */\n    tag_284:\n        /* \"#utility.yul\":14803:14812   */\n      dup1\n      dup3\n      mul\n        /* \"#utility.yul\":14834:14843   */\n      dup2\n      iszero\n        /* \"#utility.yul\":14851:14866   */\n      dup3\n      dup3\n      div\n        /* \"#utility.yul\":14845:14867   */\n      dup5\n      eq\n        /* \"#utility.yul\":14831:14868   */\n      or\n        /* \"#utility.yul\":14821:14892   */\n      tag_442\n      jumpi\n        /* \"#utility.yul\":14872:14890   */\n      tag_442\n      tag_393\n      jump\t// in\n        /* \"#utility.yul\":14903:15120   */\n    tag_287:\n        /* \"#utility.yul\":14943:14944   */\n      0x00\n        /* \"#utility.yul\":14969:14970   */\n      dup3\n        /* \"#utility.yul\":14959:15091   */\n      tag_493\n      jumpi\n        /* \"#utility.yul\":15013:15023   */\n      0x4e487b71\n        /* \"#utility.yul\":15008:15011   */\n      0xe0\n        /* \"#utility.yul\":15004:15024   */\n      shl\n        /* \"#utility.yul\":15001:15002   */\n      0x00\n        /* \"#utility.yul\":14994:15025   */\n      mstore\n        /* \"#utility.yul\":15048:15052   */\n      0x12\n        /* \"#utility.yul\":15045:15046   */\n      0x04\n        /* \"#utility.yul\":15038:15053   */\n      mstore\n        /* \"#utility.yul\":15076:15080   */\n      0x24\n        /* \"#utility.yul\":15073:15074   */\n      0x00\n        /* \"#utility.yul\":15066:15081   */\n      revert\n        /* \"#utility.yul\":14959:15091   */\n    tag_493:\n      pop\n        /* \"#utility.yul\":15105:15114   */\n      div\n      swap1\n        /* \"#utility.yul\":14903:15120   */\n      jump\t// out\n        /* \"#utility.yul\":15125:15739   */\n    tag_310:\n        /* \"#utility.yul\":15296:15298   */\n      0x40\n        /* \"#utility.yul\":15285:15294   */\n      dup2\n        /* \"#utility.yul\":15278:15299   */\n      mstore\n        /* \"#utility.yul\":15259:15263   */\n      0x00\n        /* \"#utility.yul\":15328:15334   */\n      dup4\n        /* \"#utility.yul\":15322:15335   */\n      mload\n        /* \"#utility.yul\":15371:15377   */\n      dup1\n        /* \"#utility.yul\":15366:15368   */\n      0x40\n        /* \"#utility.yul\":15355:15364   */\n      dup5\n        /* \"#utility.yul\":15351:15369   */\n      add\n        /* \"#utility.yul\":15344:15378   */\n      mstore\n        /* \"#utility.yul\":15396:15397   */\n      0x00\n        /* \"#utility.yul\":15406:15550   */\n    tag_495:\n        /* \"#utility.yul\":15420:15426   */\n      dup2\n        /* \"#utility.yul\":15417:15418   */\n      dup2\n        /* \"#utility.yul\":15414:15427   */\n      lt\n        /* \"#utility.yul\":15406:15550   */\n      iszero\n      tag_497\n      jumpi\n        /* \"#utility.yul\":15533:15537   */\n      0x20\n        /* \"#utility.yul\":15517:15531   */\n      dup2\n      dup8\n      add\n        /* \"#utility.yul\":15513:15538   */\n      dup2\n      add\n        /* \"#utility.yul\":15507:15539   */\n      mload\n        /* \"#utility.yul\":15502:15504   */\n      0x60\n        /* \"#utility.yul\":15483:15500   */\n      dup7\n      dup5\n      add\n        /* \"#utility.yul\":15479:15505   */\n      add\n        /* \"#utility.yul\":15472:15540   */\n      mstore\n        /* \"#utility.yul\":15435:15447   */\n      add\n        /* \"#utility.yul\":15406:15550   */\n      jump(tag_495)\n    tag_497:\n        /* \"#utility.yul\":15410:15413   */\n      pop\n        /* \"#utility.yul\":15599:15600   */\n      0x00\n        /* \"#utility.yul\":15594:15596   */\n      0x60\n        /* \"#utility.yul\":15585:15591   */\n      dup3\n        /* \"#utility.yul\":15574:15583   */\n      dup6\n        /* \"#utility.yul\":15570:15592   */\n      add\n        /* \"#utility.yul\":15566:15597   */\n      add\n        /* \"#utility.yul\":15559:15601   */\n      mstore\n        /* \"#utility.yul\":15669:15671   */\n      0x60\n        /* \"#utility.yul\":15662:15664   */\n      0x1f\n        /* \"#utility.yul\":15658:15665   */\n      not\n        /* \"#utility.yul\":15653:15655   */\n      0x1f\n        /* \"#utility.yul\":15645:15651   */\n      dup4\n        /* \"#utility.yul\":15641:15656   */\n      add\n        /* \"#utility.yul\":15637:15666   */\n      and\n        /* \"#utility.yul\":15626:15635   */\n      dup5\n        /* \"#utility.yul\":15622:15667   */\n      add\n        /* \"#utility.yul\":15618:15672   */\n      add\n        /* \"#utility.yul\":15610:15672   */\n      swap2\n      pop\n      pop\n        /* \"#utility.yul\":15724:15730   */\n      dup3\n        /* \"#utility.yul\":15717:15731   */\n      iszero\n        /* \"#utility.yul\":15710:15732   */\n      iszero\n        /* \"#utility.yul\":15703:15707   */\n      0x20\n        /* \"#utility.yul\":15692:15701   */\n      dup4\n        /* \"#utility.yul\":15688:15708   */\n      add\n        /* \"#utility.yul\":15681:15733   */\n      mstore\n        /* \"#utility.yul\":15125:15739   */\n      swap4\n      swap3\n      pop\n      pop\n      pop\n      jump\t// out\n        /* \"#utility.yul\":15744:16015   */\n    tag_321:\n        /* \"#utility.yul\":15927:15933   */\n      dup2\n        /* \"#utility.yul\":15919:15925   */\n      dup4\n        /* \"#utility.yul\":15914:15917   */\n      dup3\n        /* \"#utility.yul\":15901:15934   */\n      calldatacopy\n        /* \"#utility.yul\":15883:15886   */\n      0x00\n        /* \"#utility.yul\":15953:15969   */\n      swap2\n      add\n        /* \"#utility.yul\":15978:15991   */\n      swap1\n      dup2\n      mstore\n        /* \"#utility.yul\":15953:15969   */\n      swap2\n        /* \"#utility.yul\":15744:16015   */\n      swap1\n      pop\n      jump\t// out\n        /* \"#utility.yul\":16020:16155   */\n    tag_339:\n        /* \"#utility.yul\":16059:16062   */\n      0x00\n        /* \"#utility.yul\":16080:16097   */\n      0x01\n      dup3\n      add\n        /* \"#utility.yul\":16077:16120   */\n      tag_501\n      jumpi\n        /* \"#utility.yul\":16100:16118   */\n      tag_501\n      tag_393\n      jump\t// in\n    tag_501:\n      pop\n        /* \"#utility.yul\":16147:16148   */\n      0x01\n        /* \"#utility.yul\":16136:16149   */\n      add\n      swap1\n        /* \"#utility.yul\":16020:16155   */\n      jump\t// out\n        /* \"#utility.yul\":16499:16750   */\n    tag_356:\n        /* \"#utility.yul\":16569:16575   */\n      0x00\n        /* \"#utility.yul\":16622:16624   */\n      0x20\n        /* \"#utility.yul\":16610:16619   */\n      dup3\n        /* \"#utility.yul\":16601:16608   */\n      dup5\n        /* \"#utility.yul\":16597:16620   */\n      sub\n        /* \"#utility.yul\":16593:16625   */\n      slt\n        /* \"#utility.yul\":16590:16642   */\n      iszero\n      tag_504\n      jumpi\n        /* \"#utility.yul\":16638:16639   */\n      0x00\n        /* \"#utility.yul\":16635:16636   */\n      dup1\n        /* \"#utility.yul\":16628:16640   */\n      revert\n        /* \"#utility.yul\":16590:16642   */\n    tag_504:\n        /* \"#utility.yul\":16670:16679   */\n      dup2\n        /* \"#utility.yul\":16664:16680   */\n      mload\n        /* \"#utility.yul\":16689:16720   */\n      tag_405\n        /* \"#utility.yul\":16714:16719   */\n      dup2\n        /* \"#utility.yul\":16689:16720   */\n      tag_388\n      jump\t// in\n\n    auxdata: 0xa26469706673582212202e35a67aeb2a540d73ef2a861ecace23257d4b16a6ec31ab3be2825d94f8739664736f6c63430008180033\n}\n",
				"bytecode": {
					"linkReferences": {},
					"object": "60806040523480156200001157600080fd5b50600180546001600160a01b031916331790556200002e62000104565b6040805180820182526009815268086dee4ca86d8c2e6d60bb1b6020918201528151808301835260018152603160f81b9082015281517f8b73c3c69bb8fe3d512ecc4cf759cc79239f7b179b0ffacaa9a75d522b39400f818301527f0c679178cea08b1ad1ee3cb6425bc9132165f9002dd9b983dbbc3e17f33dbc13818401527fc89efdaa54c0f20c7adf612882df0950f5a951637e0307cdcb4c672f298b8bc660608201524660808201523060a0808301919091528351808303909101815260c0909101909252815191012060025562000275565b60408051808201909152600481526311dbdb1960e21b60208201526200012c906001620001b6565b60408051808201909152600681526529b4b63b32b960d11b602082015262000156906001620001b6565b60408051808201909152600d81526c2b32b93230b73a1023b932b2b760991b602082015262000187906001620001b6565b604080518082019091526009815268149bdcd94811dbdb1960ba1b6020820152620001b4906001620001b6565b565b8151602080840191909120600081815291829052604091829020805460ff191684151517905590517f71597d70b120b69b2ed3763b127f0f73d5475cd67f32065088360e0586a8b250906200020f90859085906200021c565b60405180910390a1505050565b604081526000835180604084015260005b818110156200024c57602081870181015160608684010152016200022d565b506000606082850101526060601f19601f83011684010191505082151560208301529392505050565b611f3580620002856000396000f3fe608060405234801561001057600080fd5b506004361061014d5760003560e01c80634c7b0754116100c3578063a8a6196f1161007c578063a8a6196f14610369578063ac9526711461037c578063b710c52c1461038f578063da6636cc146103a2578063f2fde38b146103b5578063f969e592146103c857600080fd5b80634c7b0754146102b25780634e714ac3146102f3578063599270441461031d5780636093ae621461033057806378150b06146103435780638da5cb5b1461035657600080fd5b806317e931cf1161011557806317e931cf1461024657806320eba3f21461025e57806326232a2e14610266578063312d7bbc1461026f5780633644e5151461028257806337479beb1461028b57600080fd5b806303b55dac14610152578063117a5b901461016757806312e8e2c3146101ed57806314f8fb9b146102005780631525ff7d14610233575b600080fd5b61016561016036600461196a565b6103db565b005b61017a61017536600461199f565b61066b565b604080516001600160a01b039d8e1681529b8d1660208d015299909b16988a01989098526060890196909652608088019490945260a0870192909252151560c0860152151560e0850152610100840152610120830152610140820152901515610160820152610180015b60405180910390f35b6101656101fb36600461199f565b6106f1565b61022361020e3660046119b8565b60046020526000908152604090205460ff1681565b60405190151581526020016101e4565b6101656102413660046119b8565b610762565b6102506206978081565b6040519081526020016101e4565b600354610250565b61025060075481565b61016561027d36600461199f565b6107f4565b61025060025481565b6102507ff9a4bb626f7677582ca1a01dcf5e2aa8f3de98d999adc0598509571b99fe8adb81565b6102db6102c036600461199f565b6005602052600090815260409020546001600160a01b031681565b6040516001600160a01b0390911681526020016101e4565b6102236103013660046119f2565b8051602091820120600090815290819052604090205460ff1690565b6006546102db906001600160a01b031681565b61016561033e366004611ab8565b610970565b610165610351366004611b39565b610a03565b6001546102db906001600160a01b031681565b610165610377366004611b6e565b610a59565b61016561038a366004611bbd565b610c59565b61016561039d366004611bdf565b610d58565b6101656103b0366004611c26565b610ea7565b6101656103c33660046119b8565b61109c565b6101656103d6366004611ce8565b611168565b6001600160a01b03831660009081526004602052604090205460ff1661043c5760405162461bcd60e51b8152602060048201526011602482015270115490cc8c081b9bdd08185b1b1bddd959607a1b60448201526064015b60405180910390fd5b6104516001600160a01b0384163330856112a0565b6003604051806101800160405280336001600160a01b0316815260200160006001600160a01b03168152602001856001600160a01b031681526020018481526020018381526020016000801b815260200160001515815260200160001515815260200142815260200160008152602001600081526020016000151581525090806001815401808255809150506001900390600052602060002090600b020160009091909190915060008201518160000160006101000a8154816001600160a01b0302191690836001600160a01b0316021790555060208201518160010160006101000a8154816001600160a01b0302191690836001600160a01b0316021790555060408201518160020160006101000a8154816001600160a01b0302191690836001600160a01b03160217905550606082015181600301556080820151816004015560a0820151816005015560c08201518160060160006101000a81548160ff02191690831515021790555060e08201518160060160016101000a81548160ff02191690831515021790555061010082015181600701556101208201518160080155610140820151816009015561016082015181600a0160006101000a81548160ff0219169083151502179055505050336001600160a01b0316600160038054905061063d9190611d6a565b6040517fc3e0f84839dc888c892a013d10c8f9d6dc05a21a879d0ce468ca558013e9121c90600090a3505050565b6003818154811061067b57600080fd5b60009182526020909120600b9091020180546001820154600283015460038401546004850154600586015460068701546007880154600889015460098a0154600a909a01546001600160a01b03998a169b5097891699989096169794969395929460ff808416956101009094048116949293168c565b6001546001600160a01b0316331461071c576040516330cd747160e01b815260040160405180910390fd5b6103e881111561075d5760405162461bcd60e51b815260206004820152600c60248201526b08ccaca40e8dede40d0d2ced60a31b6044820152606401610433565b600755565b6001546001600160a01b0316331461078d576040516330cd747160e01b815260040160405180910390fd5b6001600160a01b0381166107d25760405162461bcd60e51b815260206004820152600c60248201526b5a65726f206164647265737360a01b6044820152606401610433565b600680546001600160a01b0319166001600160a01b0392909216919091179055565b60006003828154811061080957610809611d7d565b60009182526020909120600b90910201600a81015490915060ff16156108415760405162461bcd60e51b815260040161043390611d93565b80600901544211156108f357600681015460ff16801561086b57506006810154610100900460ff16155b1561088a5780546108869083906001600160a01b031661130d565b5050565b6006810154610100900460ff1680156108a85750600681015460ff16155b156108c65760018101546108869083906001600160a01b031661130d565b600681015460ff161580156108e557506006810154610100900460ff16155b156108f35761088682611471565b600681015460ff16801561091057506006810154610100900460ff165b61094d5760405162461bcd60e51b815260206004820152600e60248201526d52657665616c2070656e64696e6760901b6044820152606401610433565b6000828152600560205260409020546108869083906001600160a01b031661130d565b6001546001600160a01b0316331461099b576040516330cd747160e01b815260040160405180910390fd5b60008290036109bd57604051634b78778d60e11b815260040160405180910390fd5b6109fe83838080601f01602080910402602001604051908101604052809392919081815260200183838082843760009201919091525085925061152d915050565b505050565b6001546001600160a01b03163314610a2e576040516330cd747160e01b815260040160405180910390fd5b6001600160a01b03919091166000908152600460205260409020805460ff1916911515919091179055565b600060038681548110610a6e57610a6e611d7d565b60009182526020808320600254604080517ff9a4bb626f7677582ca1a01dcf5e2aa8f3de98d999adc0598509571b99fe8adb818601528082018d905260608082018d905282518083039091018152608082019092528151919094012061190160f01b60a085015260a284019190915260c2830152600b92909202909101925060e20160408051601f198184030181528282528051602091820120600080855291840180845281905260ff89169284019290925260608301879052608083018690529092509060019060a0016020604051602081039080840390855afa158015610b5b573d6000803e3d6000fd5b5050604051601f1901519150506001600160a01b0381163314610bb05760405162461bcd60e51b815260206004820152600d60248201526c426164207369676e617475726560981b6044820152606401610433565b82546001600160a01b03163303610bcd5760048301879055610c22565b60018301546001600160a01b03163303610bed5760058301879055610c22565b60405162461bcd60e51b815260206004820152600a6024820152692737ba10383630bcb2b960b11b6044820152606401610433565b604051339089907faf398d01fa79335dfe9179fda01a76ccb61aa3c3e0eb5cb31ede3dcea66af76290600090a35050505050505050565b600060038381548110610c6e57610c6e611d7d565b60009182526020909120600b9091020160018101549091506001600160a01b031615610ccd5760405162461bcd60e51b815260206004820152600e60248201526d105b1c9958591e481a9bda5b995960921b6044820152606401610433565b60038101546002820154610cf0916001600160a01b0390911690339030906112a0565b6001810180546001600160a01b03191633179055600581018290554260088201819055610d21906206978090611db4565b6009820155604051339084907f45c4f9cbafe186141862608c493f28b823fde4c2142bedc3f5169961a73fdd2290600090a3505050565b6001546001600160a01b03163314610d83576040516330cd747160e01b815260040160405180910390fd5b600060038381548110610d9857610d98611d7d565b60009182526020909120600b90910201600a81015490915060ff1615610dd05760405162461bcd60e51b815260040161043390611d93565b80546001600160a01b0383811691161480610dfa575060018101546001600160a01b038381169116145b80610e0c57506001600160a01b038216155b610e425760405162461bcd60e51b8152602060048201526007602482015266125b9d985b1a5960ca1b6044820152606401610433565b60008381526005602090815260409182902080546001600160a01b0319166001600160a01b038616908117909155915191825284917f4074d0bff1fdf28c9bc2363d469257d9ff1ab7fc537134b28bb50738757f8eba910160405180910390a2505050565b600060038681548110610ebc57610ebc611d7d565b60009182526020909120600b90910201600a81015490915060ff1615610ef45760405162461bcd60e51b815260040161043390611d93565b610efd82611591565b610f083385856116de565b6000610f158686866117eb565b82549091506001600160a01b03163303610fbc57600682015460ff1615610f685760405162461bcd60e51b8152602060048201526007602482015266416c726561647960c81b6044820152606401610433565b81600401548114610fa85760405162461bcd60e51b815260206004820152600a602482015269109859081c995d99585b60b21b6044820152606401610433565b60068201805460ff19166001179055611066565b60018201546001600160a01b03163303610bed576006820154610100900460ff16156110145760405162461bcd60e51b8152602060048201526007602482015266416c726561647960c81b6044820152606401610433565b816005015481146110545760405162461bcd60e51b815260206004820152600a602482015269109859081c995d99585b60b21b6044820152606401610433565b60068201805461ff0019166101001790555b604051339088907f6e9dac3f3f833c1d527aa989d3a673884ddc11e31fdccc11ccd8aebf1ae069ac90600090a350505050505050565b6001546001600160a01b031633146110c7576040516330cd747160e01b815260040160405180910390fd5b6001600160a01b03811661110c5760405162461bcd60e51b815260206004820152600c60248201526b5a65726f206164647265737360a01b6044820152606401610433565b6001546040516001600160a01b038084169216907f8be0079c531659141344cd1fd0a4f28419497f9722a3daafe3b4186f6b6457e090600090a3600180546001600160a01b0319166001600160a01b0392909216919091179055565b6001546001600160a01b03163314611193576040516330cd747160e01b815260040160405180910390fd5b8281146111b6576040516001621398b960e31b0319815260040160405180910390fd5b60005b83811015611299578484828181106111d3576111d3611d7d565b90506020028101906111e59190611dc7565b905060000361120757604051634b78778d60e11b815260040160405180910390fd5b61129185858381811061121c5761121c611d7d565b905060200281019061122e9190611dc7565b8080601f01602080910402602001604051908101604052809392919081815260200183838082843760009201919091525087925086915085905081811061127757611277611d7d565b905060200201602081019061128c9190611e0e565b61152d565b6001016111b9565b5050505050565b6040516001600160a01b0384811660248301528381166044830152606482018390526113079186918216906323b872dd906084015b604051602081830303815290604052915060e01b6020820180516001600160e01b038381831617835250505050611892565b50505050565b60006003838154811061132257611322611d7d565b600091825260208220600a600b90920201908101805460ff191660011790556003810154909250611354906002611e29565b90506000612710600754836113699190611e29565b6113739190611e40565b905060006113818284611d6a565b905081156113a85760065460028501546113a8916001600160a01b03918216911684611903565b6001600160a01b038516156113d55760028401546113d0906001600160a01b03168683611903565b61142b565b8354611404906001600160a01b03166113ef600284611e40565b60028701546001600160a01b03169190611903565b600184015461142b906001600160a01b0316611421600284611e40565b6113ef9084611d6a565b6040516001600160a01b038616815286907ff27faae2acd1ebca672f8ca0d896f3e0eb13164004932b3fbcfc2547167c8bb79060200160405180910390a2505050505050565b60006003828154811061148657611486611d7d565b60009182526020909120600a600b90920201908101805460ff191660011790558054600382015460028301549293506114cc926001600160a01b03908116921690611903565b6001810154600382015460028301546114f3926001600160a01b0391821692911690611903565b6040516000815282907ff27faae2acd1ebca672f8ca0d896f3e0eb13164004932b3fbcfc2547167c8bb79060200160405180910390a25050565b8151602080840191909120600081815291829052604091829020805460ff191684151517905590517f71597d70b120b69b2ed3763b127f0f73d5475cd67f32065088360e0586a8b250906115849085908590611e62565b60405180910390a1505050565b611599611934565b60005b60038110156115fc578281600381106115b7576115b7611d7d565b6020028101906115c79190611dc7565b6040516115d5929190611eb9565b60405180910390208282600381106115ef576115ef611d7d565b602002015260010161159c565b5060005b60038110156109fe5760008083836003811061161e5761161e611d7d565b6020908102919091015182528101919091526040016000205460ff16156116d6576000805b60038110156116955783836003811061165e5761165e611d7d565b602002015184826003811061167557611675611d7d565b60200201510361168d578161168981611ec9565b9250505b600101611643565b5060018111156116d45760405162461bcd60e51b815260206004820152600a6024820152690526172697479206475760b41b6044820152606401610433565b505b600101611600565b60005b600381101561130757836001600160a01b031683826003811061170657611706611d7d565b60200201602081019061171991906119b8565b6001600160a01b0316636352211e84846003811061173957611739611d7d565b60200201356040518263ffffffff1660e01b815260040161175c91815260200190565b602060405180830381865afa158015611779573d6000803e3d6000fd5b505050506040513d601f19601f8201168201806040525081019061179d9190611ee2565b6001600160a01b0316146117e35760405162461bcd60e51b815260206004820152600d60248201526c2737ba1027232a1037bbb732b960991b6044820152606401610433565b6001016116e1565b6000836117fb60208501856119b8565b61180b60408601602087016119b8565b61181b60608701604088016119b8565b60408051602081810196909652606094851b6bffffffffffffffffffffffff199081168284015293851b841660548201529190931b90911660688201528435607c82015291840135609c83015283013560bc82015260dc016040516020818303038152906040528051906020012090509392505050565b600080602060008451602086016000885af1806118b5576040513d6000823e3d81fd5b50506000513d915081156118cd5780600114156118da565b6001600160a01b0384163b155b1561130757604051635274afe760e01b81526001600160a01b0385166004820152602401610433565b6040516001600160a01b038381166024830152604482018390526109fe91859182169063a9059cbb906064016112d5565b60405180606001604052806003906020820280368337509192915050565b6001600160a01b038116811461196757600080fd5b50565b60008060006060848603121561197f57600080fd5b833561198a81611952565b95602085013595506040909401359392505050565b6000602082840312156119b157600080fd5b5035919050565b6000602082840312156119ca57600080fd5b81356119d581611952565b9392505050565b634e487b7160e01b600052604160045260246000fd5b600060208284031215611a0457600080fd5b813567ffffffffffffffff80821115611a1c57600080fd5b818401915084601f830112611a3057600080fd5b813581811115611a4257611a426119dc565b604051601f8201601f19908116603f01168101908382118183101715611a6a57611a6a6119dc565b81604052828152876020848701011115611a8357600080fd5b826020860160208301376000928101602001929092525095945050505050565b80358015158114611ab357600080fd5b919050565b600080600060408486031215611acd57600080fd5b833567ffffffffffffffff80821115611ae557600080fd5b818601915086601f830112611af957600080fd5b813581811115611b0857600080fd5b876020828501011115611b1a57600080fd5b602092830195509350611b309186019050611aa3565b90509250925092565b60008060408385031215611b4c57600080fd5b8235611b5781611952565b9150611b6560208401611aa3565b90509250929050565b600080600080600060a08688031215611b8657600080fd5b8535945060208601359350604086013560ff81168114611ba557600080fd5b94979396509394606081013594506080013592915050565b60008060408385031215611bd057600080fd5b50508035926020909101359150565b60008060408385031215611bf257600080fd5b823591506020830135611c0481611952565b809150509250929050565b8060608101831015611c2057600080fd5b92915050565b60008060008060006101208688031215611c3f57600080fd5b8535945060208601359350611c578760408801611c0f565b9250611c668760a08801611c0f565b915061010086013567ffffffffffffffff811115611c8357600080fd5b611c8f88828901611c0f565b9150509295509295909350565b60008083601f840112611cae57600080fd5b50813567ffffffffffffffff811115611cc657600080fd5b6020830191508360208260051b8501011115611ce157600080fd5b9250929050565b60008060008060408587031215611cfe57600080fd5b843567ffffffffffffffff80821115611d1657600080fd5b611d2288838901611c9c565b90965094506020870135915080821115611d3b57600080fd5b50611d4887828801611c9c565b95989497509550505050565b634e487b7160e01b600052601160045260246000fd5b81810381811115611c2057611c20611d54565b634e487b7160e01b600052603260045260246000fd5b60208082526007908201526614d95d1d1b195960ca1b604082015260600190565b80820180821115611c2057611c20611d54565b6000808335601e19843603018112611dde57600080fd5b83018035915067ffffffffffffffff821115611df957600080fd5b602001915036819003821315611ce157600080fd5b600060208284031215611e2057600080fd5b6119d582611aa3565b8082028115828204841417611c2057611c20611d54565b600082611e5d57634e487b7160e01b600052601260045260246000fd5b500490565b604081526000835180604084015260005b81811015611e905760208187018101516060868401015201611e73565b506000606082850101526060601f19601f83011684010191505082151560208301529392505050565b8183823760009101908152919050565b600060018201611edb57611edb611d54565b5060010190565b600060208284031215611ef457600080fd5b81516119d58161195256fea26469706673582212202e35a67aeb2a540d73ef2a861ecace23257d4b16a6ec31ab3be2825d94f8739664736f6c63430008180033",
					"opcodes": "PUSH1 0x80 PUSH1 0x40 MSTORE CALLVALUE DUP1 ISZERO PUSH3 0x11 JUMPI PUSH1 0x0 DUP1 REVERT JUMPDEST POP PUSH1 0x1 DUP1 SLOAD PUSH1 0x1 PUSH1 0x1 PUSH1 0xA0 SHL SUB NOT AND CALLER OR SWAP1 SSTORE PUSH3 0x2E PUSH3 0x104 JUMP JUMPDEST PUSH1 0x40 DUP1 MLOAD DUP1 DUP3 ADD DUP3 MSTORE PUSH1 0x9 DUP2 MSTORE PUSH9 0x86DEE4CA86D8C2E6D PUSH1 0xBB SHL PUSH1 0x20 SWAP2 DUP3 ADD MSTORE DUP2 MLOAD DUP1 DUP4 ADD DUP4 MSTORE PUSH1 0x1 DUP2 MSTORE PUSH1 0x31 PUSH1 0xF8 SHL SWAP1 DUP3 ADD MSTORE DUP2 MLOAD PUSH32 0x8B73C3C69BB8FE3D512ECC4CF759CC79239F7B179B0FFACAA9A75D522B39400F DUP2 DUP4 ADD MSTORE PUSH32 0xC679178CEA08B1AD1EE3CB6425BC9132165F9002DD9B983DBBC3E17F33DBC13 DUP2 DUP5 ADD MSTORE PUSH32 0xC89EFDAA54C0F20C7ADF612882DF0950F5A951637E0307CDCB4C672F298B8BC6 PUSH1 0x60 DUP3 ADD MSTORE CHAINID PUSH1 0x80 DUP3 ADD MSTORE ADDRESS PUSH1 0xA0 DUP1 DUP4 ADD SWAP2 SWAP1 SWAP2 MSTORE DUP4 MLOAD DUP1 DUP4 SUB SWAP1 SWAP2 ADD DUP2 MSTORE PUSH1 0xC0 SWAP1 SWAP2 ADD SWAP1 SWAP3 MSTORE DUP2 MLOAD SWAP2 ADD KECCAK256 PUSH1 0x2 SSTORE PUSH3 0x275 JUMP JUMPDEST PUSH1 0x40 DUP1 MLOAD DUP1 DUP3 ADD SWAP1 SWAP2 MSTORE PUSH1 0x4 DUP2 MSTORE PUSH4 0x11DBDB19 PUSH1 0xE2 SHL PUSH1 0x20 DUP3 ADD MSTORE PUSH3 0x12C SWAP1 PUSH1 0x1 PUSH3 0x1B6 JUMP JUMPDEST PUSH1 0x40 DUP1 MLOAD DUP1 DUP3 ADD SWAP1 SWAP2 MSTORE PUSH1 0x6 DUP2 MSTORE PUSH6 0x29B4B63B32B9 PUSH1 0xD1 SHL PUSH1 0x20 DUP3 ADD MSTORE PUSH3 0x156 SWAP1 PUSH1 0x1 PUSH3 0x1B6 JUMP JUMPDEST PUSH1 0x40 DUP1 MLOAD DUP1 DUP3 ADD SWAP1 SWAP2 MSTORE PUSH1 0xD DUP2 MSTORE PUSH13 0x2B32B93230B73A1023B932B2B7 PUSH1 0x99 SHL PUSH1 0x20 DUP3 ADD MSTORE PUSH3 0x187 SWAP1 PUSH1 0x1 PUSH3 0x1B6 JUMP JUMPDEST PUSH1 0x40 DUP1 MLOAD DUP1 DUP3 ADD SWAP1 SWAP2 MSTORE PUSH1 0x9 DUP2 MSTORE PUSH9 0x149BDCD94811DBDB19 PUSH1 0xBA SHL PUSH1 0x20 DUP3 ADD MSTORE PUSH3 0x1B4 SWAP1 PUSH1 0x1 PUSH3 0x1B6 JUMP JUMPDEST JUMP JUMPDEST DUP2 MLOAD PUSH1 0x20 DUP1 DUP5 ADD SWAP2 SWAP1 SWAP2 KECCAK256 PUSH1 0x0 DUP2 DUP2 MSTORE SWAP2 DUP3 SWAP1 MSTORE PUSH1 0x40 SWAP2 DUP3 SWAP1 KECCAK256 DUP1 SLOAD PUSH1 0xFF NOT AND DUP5 ISZERO ISZERO OR SWAP1 SSTORE SWAP1 MLOAD PUSH32 0x71597D70B120B69B2ED3763B127F0F73D5475CD67F32065088360E0586A8B250 SWAP1 PUSH3 0x20F SWAP1 DUP6 SWAP1 DUP6 SWAP1 PUSH3 0x21C JUMP JUMPDEST PUSH1 0x40 MLOAD DUP1 SWAP2 SUB SWAP1 LOG1 POP POP POP JUMP JUMPDEST PUSH1 0x40 DUP2 MSTORE PUSH1 0x0 DUP4 MLOAD DUP1 PUSH1 0x40 DUP5 ADD MSTORE PUSH1 0x0 JUMPDEST DUP2 DUP2 LT ISZERO PUSH3 0x24C JUMPI PUSH1 0x20 DUP2 DUP8 ADD DUP2 ADD MLOAD PUSH1 0x60 DUP7 DUP5 ADD ADD MSTORE ADD PUSH3 0x22D JUMP JUMPDEST POP PUSH1 0x0 PUSH1 0x60 DUP3 DUP6 ADD ADD MSTORE PUSH1 0x60 PUSH1 0x1F NOT PUSH1 0x1F DUP4 ADD AND DUP5 ADD ADD SWAP2 POP POP DUP3 ISZERO ISZERO PUSH1 0x20 DUP4 ADD MSTORE SWAP4 SWAP3 POP POP POP JUMP JUMPDEST PUSH2 0x1F35 DUP1 PUSH3 0x285 PUSH1 0x0 CODECOPY PUSH1 0x0 RETURN INVALID PUSH1 0x80 PUSH1 0x40 MSTORE CALLVALUE DUP1 ISZERO PUSH2 0x10 JUMPI PUSH1 0x0 DUP1 REVERT JUMPDEST POP PUSH1 0x4 CALLDATASIZE LT PUSH2 0x14D JUMPI PUSH1 0x0 CALLDATALOAD PUSH1 0xE0 SHR DUP1 PUSH4 0x4C7B0754 GT PUSH2 0xC3 JUMPI DUP1 PUSH4 0xA8A6196F GT PUSH2 0x7C JUMPI DUP1 PUSH4 0xA8A6196F EQ PUSH2 0x369 JUMPI DUP1 PUSH4 0xAC952671 EQ PUSH2 0x37C JUMPI DUP1 PUSH4 0xB710C52C EQ PUSH2 0x38F JUMPI DUP1 PUSH4 0xDA6636CC EQ PUSH2 0x3A2 JUMPI DUP1 PUSH4 0xF2FDE38B EQ PUSH2 0x3B5 JUMPI DUP1 PUSH4 0xF969E592 EQ PUSH2 0x3C8 JUMPI PUSH1 0x0 DUP1 REVERT JUMPDEST DUP1 PUSH4 0x4C7B0754 EQ PUSH2 0x2B2 JUMPI DUP1 PUSH4 0x4E714AC3 EQ PUSH2 0x2F3 JUMPI DUP1 PUSH4 0x59927044 EQ PUSH2 0x31D JUMPI DUP1 PUSH4 0x6093AE62 EQ PUSH2 0x330 JUMPI DUP1 PUSH4 0x78150B06 EQ PUSH2 0x343 JUMPI DUP1 PUSH4 0x8DA5CB5B EQ PUSH2 0x356 JUMPI PUSH1 0x0 DUP1 REVERT JUMPDEST DUP1 PUSH4 0x17E931CF GT PUSH2 0x115 JUMPI DUP1 PUSH4 0x17E931CF EQ PUSH2 0x246 JUMPI DUP1 PUSH4 0x20EBA3F2 EQ PUSH2 0x25E JUMPI DUP1 PUSH4 0x26232A2E EQ PUSH2 0x266 JUMPI DUP1 PUSH4 0x312D7BBC EQ PUSH2 0x26F JUMPI DUP1 PUSH4 0x3644E515 EQ PUSH2 0x282 JUMPI DUP1 PUSH4 0x37479BEB EQ PUSH2 0x28B JUMPI PUSH1 0x0 DUP1 REVERT JUMPDEST DUP1 PUSH4 0x3B55DAC EQ PUSH2 0x152 JUMPI DUP1 PUSH4 0x117A5B90 EQ PUSH2 0x167 JUMPI DUP1 PUSH4 0x12E8E2C3 EQ PUSH2 0x1ED JUMPI DUP1 PUSH4 0x14F8FB9B EQ PUSH2 0x200 JUMPI DUP1 PUSH4 0x1525FF7D EQ PUSH2 0x233 JUMPI JUMPDEST PUSH1 0x0 DUP1 REVERT JUMPDEST PUSH2 0x165 PUSH2 0x160 CALLDATASIZE PUSH1 0x4 PUSH2 0x196A JUMP JUMPDEST PUSH2 0x3DB JUMP JUMPDEST STOP JUMPDEST PUSH2 0x17A PUSH2 0x175 CALLDATASIZE PUSH1 0x4 PUSH2 0x199F JUMP JUMPDEST PUSH2 0x66B JUMP JUMPDEST PUSH1 0x40 DUP1 MLOAD PUSH1 0x1 PUSH1 0x1 PUSH1 0xA0 SHL SUB SWAP14 DUP15 AND DUP2 MSTORE SWAP12 DUP14 AND PUSH1 0x20 DUP14 ADD MSTORE SWAP10 SWAP1 SWAP12 AND SWAP9 DUP11 ADD SWAP9 SWAP1 SWAP9 MSTORE PUSH1 0x60 DUP10 ADD SWAP7 SWAP1 SWAP7 MSTORE PUSH1 0x80 DUP9 ADD SWAP5 SWAP1 SWAP5 MSTORE PUSH1 0xA0 DUP8 ADD SWAP3 SWAP1 SWAP3 MSTORE ISZERO ISZERO PUSH1 0xC0 DUP7 ADD MSTORE ISZERO ISZERO PUSH1 0xE0 DUP6 ADD MSTORE PUSH2 0x100 DUP5 ADD MSTORE PUSH2 0x120 DUP4 ADD MSTORE PUSH2 0x140 DUP3 ADD MSTORE SWAP1 ISZERO ISZERO PUSH2 0x160 DUP3 ADD MSTORE PUSH2 0x180 ADD JUMPDEST PUSH1 0x40 MLOAD DUP1 SWAP2 SUB SWAP1 RETURN JUMPDEST PUSH2 0x165 PUSH2 0x1FB CALLDATASIZE PUSH1 0x4 PUSH2 0x199F JUMP JUMPDEST PUSH2 0x6F1 JUMP JUMPDEST PUSH2 0x223 PUSH2 0x20E CALLDATASIZE PUSH1 0x4 PUSH2 0x19B8 JUMP JUMPDEST PUSH1 0x4 PUSH1 0x20 MSTORE PUSH1 0x0 SWAP1 DUP2 MSTORE PUSH1 0x40 SWAP1 KECCAK256 SLOAD PUSH1 0xFF AND DUP2 JUMP JUMPDEST PUSH1 0x40 MLOAD SWAP1 ISZERO ISZERO DUP2 MSTORE PUSH1 0x20 ADD PUSH2 0x1E4 JUMP JUMPDEST PUSH2 0x165 PUSH2 0x241 CALLDATASIZE PUSH1 0x4 PUSH2 0x19B8 JUMP JUMPDEST PUSH2 0x762 JUMP JUMPDEST PUSH2 0x250 PUSH3 0x69780 DUP2 JUMP JUMPDEST PUSH1 0x40 MLOAD SWAP1 DUP2 MSTORE PUSH1 0x20 ADD PUSH2 0x1E4 JUMP JUMPDEST PUSH1 0x3 SLOAD PUSH2 0x250 JUMP JUMPDEST PUSH2 0x250 PUSH1 0x7 SLOAD DUP2 JUMP JUMPDEST PUSH2 0x165 PUSH2 0x27D CALLDATASIZE PUSH1 0x4 PUSH2 0x199F JUMP JUMPDEST PUSH2 0x7F4 JUMP JUMPDEST PUSH2 0x250 PUSH1 0x2 SLOAD DUP2 JUMP JUMPDEST PUSH2 0x250 PUSH32 0xF9A4BB626F7677582CA1A01DCF5E2AA8F3DE98D999ADC0598509571B99FE8ADB DUP2 JUMP JUMPDEST PUSH2 0x2DB PUSH2 0x2C0 CALLDATASIZE PUSH1 0x4 PUSH2 0x199F JUMP JUMPDEST PUSH1 0x5 PUSH1 0x20 MSTORE PUSH1 0x0 SWAP1 DUP2 MSTORE PUSH1 0x40 SWAP1 KECCAK256 SLOAD PUSH1 0x1 PUSH1 0x1 PUSH1 0xA0 SHL SUB AND DUP2 JUMP JUMPDEST PUSH1 0x40 MLOAD PUSH1 0x1 PUSH1 0x1 PUSH1 0xA0 SHL SUB SWAP1 SWAP2 AND DUP2 MSTORE PUSH1 0x20 ADD PUSH2 0x1E4 JUMP JUMPDEST PUSH2 0x223 PUSH2 0x301 CALLDATASIZE PUSH1 0x4 PUSH2 0x19F2 JUMP JUMPDEST DUP1 MLOAD PUSH1 0x20 SWAP2 DUP3 ADD KECCAK256 PUSH1 0x0 SWAP1 DUP2 MSTORE SWAP1 DUP2 SWAP1 MSTORE PUSH1 0x40 SWAP1 KECCAK256 SLOAD PUSH1 0xFF AND SWAP1 JUMP JUMPDEST PUSH1 0x6 SLOAD PUSH2 0x2DB SWAP1 PUSH1 0x1 PUSH1 0x1 PUSH1 0xA0 SHL SUB AND DUP2 JUMP JUMPDEST PUSH2 0x165 PUSH2 0x33E CALLDATASIZE PUSH1 0x4 PUSH2 0x1AB8 JUMP JUMPDEST PUSH2 0x970 JUMP JUMPDEST PUSH2 0x165 PUSH2 0x351 CALLDATASIZE PUSH1 0x4 PUSH2 0x1B39 JUMP JUMPDEST PUSH2 0xA03 JUMP JUMPDEST PUSH1 0x1 SLOAD PUSH2 0x2DB SWAP1 PUSH1 0x1 PUSH1 0x1 PUSH1 0xA0 SHL SUB AND DUP2 JUMP JUMPDEST PUSH2 0x165 PUSH2 0x377 CALLDATASIZE PUSH1 0x4 PUSH2 0x1B6E JUMP JUMPDEST PUSH2 0xA59 JUMP JUMPDEST PUSH2 0x165 PUSH2 0x38A CALLDATASIZE PUSH1 0x4 PUSH2 0x1BBD JUMP JUMPDEST PUSH2 0xC59 JUMP JUMPDEST PUSH2 0x165 PUSH2 0x39D CALLDATASIZE PUSH1 0x4 PUSH2 0x1BDF JUMP JUMPDEST PUSH2 0xD58 JUMP JUMPDEST PUSH2 0x165 PUSH2 0x3B0 CALLDATASIZE PUSH1 0x4 PUSH2 0x1C26 JUMP JUMPDEST PUSH2 0xEA7 JUMP JUMPDEST PUSH2 0x165 PUSH2 0x3C3 CALLDATASIZE PUSH1 0x4 PUSH2 0x19B8 JUMP JUMPDEST PUSH2 0x109C JUMP JUMPDEST PUSH2 0x165 PUSH2 0x3D6 CALLDATASIZE PUSH1 0x4 PUSH2 0x1CE8 JUMP JUMPDEST PUSH2 0x1168 JUMP JUMPDEST PUSH1 0x1 PUSH1 0x1 PUSH1 0xA0 SHL SUB DUP4 AND PUSH1 0x0 SWAP1 DUP2 MSTORE PUSH1 0x4 PUSH1 0x20 MSTORE PUSH1 0x40 SWAP1 KECCAK256 SLOAD PUSH1 0xFF AND PUSH2 0x43C JUMPI PUSH1 0x40 MLOAD PUSH3 0x461BCD PUSH1 0xE5 SHL DUP2 MSTORE PUSH1 0x20 PUSH1 0x4 DUP3 ADD MSTORE PUSH1 0x11 PUSH1 0x24 DUP3 ADD MSTORE PUSH17 0x115490CC8C081B9BDD08185B1B1BDDD959 PUSH1 0x7A SHL PUSH1 0x44 DUP3 ADD MSTORE PUSH1 0x64 ADD JUMPDEST PUSH1 0x40 MLOAD DUP1 SWAP2 SUB SWAP1 REVERT JUMPDEST PUSH2 0x451 PUSH1 0x1 PUSH1 0x1 PUSH1 0xA0 SHL SUB DUP5 AND CALLER ADDRESS DUP6 PUSH2 0x12A0 JUMP JUMPDEST PUSH1 0x3 PUSH1 0x40 MLOAD DUP1 PUSH2 0x180 ADD PUSH1 0x40 MSTORE DUP1 CALLER PUSH1 0x1 PUSH1 0x1 PUSH1 0xA0 SHL SUB AND DUP2 MSTORE PUSH1 0x20 ADD PUSH1 0x0 PUSH1 0x1 PUSH1 0x1 PUSH1 0xA0 SHL SUB AND DUP2 MSTORE PUSH1 0x20 ADD DUP6 PUSH1 0x1 PUSH1 0x1 PUSH1 0xA0 SHL SUB AND DUP2 MSTORE PUSH1 0x20 ADD DUP5 DUP2 MSTORE PUSH1 0x20 ADD DUP4 DUP2 MSTORE PUSH1 0x20 ADD PUSH1 0x0 DUP1 SHL DUP2 MSTORE PUSH1 0x20 ADD PUSH1 0x0 ISZERO ISZERO DUP2 MSTORE PUSH1 0x20 ADD PUSH1 0x0 ISZERO ISZERO DUP2 MSTORE PUSH1 0x20 ADD TIMESTAMP DUP2 MSTORE PUSH1 0x20 ADD PUSH1 0x0 DUP2 MSTORE PUSH1 0x20 ADD PUSH1 0x0 DUP2 MSTORE PUSH1 0x20 ADD PUSH1 0x0 ISZERO ISZERO DUP2 MSTORE POP SWAP1 DUP1 PUSH1 0x1 DUP2 SLOAD ADD DUP1 DUP3 SSTORE DUP1 SWAP2 POP POP PUSH1 0x1 SWAP1 SUB SWAP1 PUSH1 0x0 MSTORE PUSH1 0x20 PUSH1 0x0 KECCAK256 SWAP1 PUSH1 0xB MUL ADD PUSH1 0x0 SWAP1 SWAP2 SWAP1 SWAP2 SWAP1 SWAP2 POP PUSH1 0x0 DUP3 ADD MLOAD DUP2 PUSH1 0x0 ADD PUSH1 0x0 PUSH2 0x100 EXP DUP2 SLOAD DUP2 PUSH1 0x1 PUSH1 0x1 PUSH1 0xA0 SHL SUB MUL NOT AND SWAP1 DUP4 PUSH1 0x1 PUSH1 0x1 PUSH1 0xA0 SHL SUB AND MUL OR SWAP1 SSTORE POP PUSH1 0x20 DUP3 ADD MLOAD DUP2 PUSH1 0x1 ADD PUSH1 0x0 PUSH2 0x100 EXP DUP2 SLOAD DUP2 PUSH1 0x1 PUSH1 0x1 PUSH1 0xA0 SHL SUB MUL NOT AND SWAP1 DUP4 PUSH1 0x1 PUSH1 0x1 PUSH1 0xA0 SHL SUB AND MUL OR SWAP1 SSTORE POP PUSH1 0x40 DUP3 ADD MLOAD DUP2 PUSH1 0x2 ADD PUSH1 0x0 PUSH2 0x100 EXP DUP2 SLOAD DUP2 PUSH1 0x1 PUSH1 0x1 PUSH1 0xA0 SHL SUB MUL NOT AND SWAP1 DUP4 PUSH1 0x1 PUSH1 0x1 PUSH1 0xA0 SHL SUB AND MUL OR SWAP1 SSTORE POP PUSH1 0x60 DUP3 ADD MLOAD DUP2 PUSH1 0x3 ADD SSTORE PUSH1 0x80 DUP3 ADD MLOAD DUP2 PUSH1 0x4 ADD SSTORE PUSH1 0xA0 DUP3 ADD MLOAD DUP2 PUSH1 0x5 ADD SSTORE PUSH1 0xC0 DUP3 ADD MLOAD DUP2 PUSH1 0x6 ADD PUSH1 0x0 PUSH2 0x100 EXP DUP2 SLOAD DUP2 PUSH1 0xFF MUL NOT AND SWAP1 DUP4 ISZERO ISZERO MUL OR SWAP1 SSTORE POP PUSH1 0xE0 DUP3 ADD MLOAD DUP2 PUSH1 0x6 ADD PUSH1 0x1 PUSH2 0x100 EXP DUP2 SLOAD DUP2 PUSH1 0xFF MUL NOT AND SWAP1 DUP4 ISZERO ISZERO MUL OR SWAP1 SSTORE POP PUSH2 0x100 DUP3 ADD MLOAD DUP2 PUSH1 0x7 ADD SSTORE PUSH2 0x120 DUP3 ADD MLOAD DUP2 PUSH1 0x8 ADD SSTORE PUSH2 0x140 DUP3 ADD MLOAD DUP2 PUSH1 0x9 ADD SSTORE PUSH2 0x160 DUP3 ADD MLOAD DUP2 PUSH1 0xA ADD PUSH1 0x0 PUSH2 0x100 EXP DUP2 SLOAD DUP2 PUSH1 0xFF MUL NOT AND SWAP1 DUP4 ISZERO ISZERO MUL OR SWAP1 SSTORE POP POP POP CALLER PUSH1 0x1 PUSH1 0x1 PUSH1 0xA0 SHL SUB AND PUSH1 0x1 PUSH1 0x3 DUP1 SLOAD SWAP1 POP PUSH2 0x63D SWAP2 SWAP1 PUSH2 0x1D6A JUMP JUMPDEST PUSH1 0x40 MLOAD PUSH32 0xC3E0F84839DC888C892A013D10C8F9D6DC05A21A879D0CE468CA558013E9121C SWAP1 PUSH1 0x0 SWAP1 LOG3 POP POP POP JUMP JUMPDEST PUSH1 0x3 DUP2 DUP2 SLOAD DUP2 LT PUSH2 0x67B JUMPI PUSH1 0x0 DUP1 REVERT JUMPDEST PUSH1 0x0 SWAP2 DUP3 MSTORE PUSH1 0x20 SWAP1 SWAP2 KECCAK256 PUSH1 0xB SWAP1 SWAP2 MUL ADD DUP1 SLOAD PUSH1 0x1 DUP3 ADD SLOAD PUSH1 0x2 DUP4 ADD SLOAD PUSH1 0x3 DUP5 ADD SLOAD PUSH1 0x4 DUP6 ADD SLOAD PUSH1 0x5 DUP7 ADD SLOAD PUSH1 0x6 DUP8 ADD SLOAD PUSH1 0x7 DUP9 ADD SLOAD PUSH1 0x8 DUP10 ADD SLOAD PUSH1 0x9 DUP11 ADD SLOAD PUSH1 0xA SWAP1 SWAP11 ADD SLOAD PUSH1 0x1 PUSH1 0x1 PUSH1 0xA0 SHL SUB SWAP10 DUP11 AND SWAP12 POP SWAP8 DUP10 AND SWAP10 SWAP9 SWAP1 SWAP7 AND SWAP8 SWAP5 SWAP7 SWAP4 SWAP6 SWAP3 SWAP5 PUSH1 0xFF DUP1 DUP5 AND SWAP6 PUSH2 0x100 SWAP1 SWAP5 DIV DUP2 AND SWAP5 SWAP3 SWAP4 AND DUP13 JUMP JUMPDEST PUSH1 0x1 SLOAD PUSH1 0x1 PUSH1 0x1 PUSH1 0xA0 SHL SUB AND CALLER EQ PUSH2 0x71C JUMPI PUSH1 0x40 MLOAD PUSH4 0x30CD7471 PUSH1 0xE0 SHL DUP2 MSTORE PUSH1 0x4 ADD PUSH1 0x40 MLOAD DUP1 SWAP2 SUB SWAP1 REVERT JUMPDEST PUSH2 0x3E8 DUP2 GT ISZERO PUSH2 0x75D JUMPI PUSH1 0x40 MLOAD PUSH3 0x461BCD PUSH1 0xE5 SHL DUP2 MSTORE PUSH1 0x20 PUSH1 0x4 DUP3 ADD MSTORE PUSH1 0xC PUSH1 0x24 DUP3 ADD MSTORE PUSH12 0x8CCACA40E8DEDE40D0D2CED PUSH1 0xA3 SHL PUSH1 0x44 DUP3 ADD MSTORE PUSH1 0x64 ADD PUSH2 0x433 JUMP JUMPDEST PUSH1 0x7 SSTORE JUMP JUMPDEST PUSH1 0x1 SLOAD PUSH1 0x1 PUSH1 0x1 PUSH1 0xA0 SHL SUB AND CALLER EQ PUSH2 0x78D JUMPI PUSH1 0x40 MLOAD PUSH4 0x30CD7471 PUSH1 0xE0 SHL DUP2 MSTORE PUSH1 0x4 ADD PUSH1 0x40 MLOAD DUP1 SWAP2 SUB SWAP1 REVERT JUMPDEST PUSH1 0x1 PUSH1 0x1 PUSH1 0xA0 SHL SUB DUP2 AND PUSH2 0x7D2 JUMPI PUSH1 0x40 MLOAD PUSH3 0x461BCD PUSH1 0xE5 SHL DUP2 MSTORE PUSH1 0x20 PUSH1 0x4 DUP3 ADD MSTORE PUSH1 0xC PUSH1 0x24 DUP3 ADD MSTORE PUSH12 0x5A65726F2061646472657373 PUSH1 0xA0 SHL PUSH1 0x44 DUP3 ADD MSTORE PUSH1 0x64 ADD PUSH2 0x433 JUMP JUMPDEST PUSH1 0x6 DUP1 SLOAD PUSH1 0x1 PUSH1 0x1 PUSH1 0xA0 SHL SUB NOT AND PUSH1 0x1 PUSH1 0x1 PUSH1 0xA0 SHL SUB SWAP3 SWAP1 SWAP3 AND SWAP2 SWAP1 SWAP2 OR SWAP1 SSTORE JUMP JUMPDEST PUSH1 0x0 PUSH1 0x3 DUP3 DUP2 SLOAD DUP2 LT PUSH2 0x809 JUMPI PUSH2 0x809 PUSH2 0x1D7D JUMP JUMPDEST PUSH1 0x0 SWAP2 DUP3 MSTORE PUSH1 0x20 SWAP1 SWAP2 KECCAK256 PUSH1 0xB SWAP1 SWAP2 MUL ADD PUSH1 0xA DUP2 ADD SLOAD SWAP1 SWAP2 POP PUSH1 0xFF AND ISZERO PUSH2 0x841 JUMPI PUSH1 0x40 MLOAD PUSH3 0x461BCD PUSH1 0xE5 SHL DUP2 MSTORE PUSH1 0x4 ADD PUSH2 0x433 SWAP1 PUSH2 0x1D93 JUMP JUMPDEST DUP1 PUSH1 0x9 ADD SLOAD TIMESTAMP GT ISZERO PUSH2 0x8F3 JUMPI PUSH1 0x6 DUP2 ADD SLOAD PUSH1 0xFF AND DUP1 ISZERO PUSH2 0x86B JUMPI POP PUSH1 0x6 DUP2 ADD SLOAD PUSH2 0x100 SWAP1 DIV PUSH1 0xFF AND ISZERO JUMPDEST ISZERO PUSH2 0x88A JUMPI DUP1 SLOAD PUSH2 0x886 SWAP1 DUP4 SWAP1 PUSH1 0x1 PUSH1 0x1 PUSH1 0xA0 SHL SUB AND PUSH2 0x130D JUMP JUMPDEST POP POP JUMP JUMPDEST PUSH1 0x6 DUP2 ADD SLOAD PUSH2 0x100 SWAP1 DIV PUSH1 0xFF AND DUP1 ISZERO PUSH2 0x8A8 JUMPI POP PUSH1 0x6 DUP2 ADD SLOAD PUSH1 0xFF AND ISZERO JUMPDEST ISZERO PUSH2 0x8C6 JUMPI PUSH1 0x1 DUP2 ADD SLOAD PUSH2 0x886 SWAP1 DUP4 SWAP1 PUSH1 0x1 PUSH1 0x1 PUSH1 0xA0 SHL SUB AND PUSH2 0x130D JUMP JUMPDEST PUSH1 0x6 DUP2 ADD SLOAD PUSH1 0xFF AND ISZERO DUP1 ISZERO PUSH2 0x8E5 JUMPI POP PUSH1 0x6 DUP2 ADD SLOAD PUSH2 0x100 SWAP1 DIV PUSH1 0xFF AND ISZERO JUMPDEST ISZERO PUSH2 0x8F3 JUMPI PUSH2 0x886 DUP3 PUSH2 0x1471 JUMP JUMPDEST PUSH1 0x6 DUP2 ADD SLOAD PUSH1 0xFF AND DUP1 ISZERO PUSH2 0x910 JUMPI POP PUSH1 0x6 DUP2 ADD SLOAD PUSH2 0x100 SWAP1 DIV PUSH1 0xFF AND JUMPDEST PUSH2 0x94D JUMPI PUSH1 0x40 MLOAD PUSH3 0x461BCD PUSH1 0xE5 SHL DUP2 MSTORE PUSH1 0x20 PUSH1 0x4 DUP3 ADD MSTORE PUSH1 0xE PUSH1 0x24 DUP3 ADD MSTORE PUSH14 0x52657665616C2070656E64696E67 PUSH1 0x90 SHL PUSH1 0x44 DUP3 ADD MSTORE PUSH1 0x64 ADD PUSH2 0x433 JUMP JUMPDEST PUSH1 0x0 DUP3 DUP2 MSTORE PUSH1 0x5 PUSH1 0x20 MSTORE PUSH1 0x40 SWAP1 KECCAK256 SLOAD PUSH2 0x886 SWAP1 DUP4 SWAP1 PUSH1 0x1 PUSH1 0x1 PUSH1 0xA0 SHL SUB AND PUSH2 0x130D JUMP JUMPDEST PUSH1 0x1 SLOAD PUSH1 0x1 PUSH1 0x1 PUSH1 0xA0 SHL SUB AND CALLER EQ PUSH2 0x99B JUMPI PUSH1 0x40 MLOAD PUSH4 0x30CD7471 PUSH1 0xE0 SHL DUP2 MSTORE PUSH1 0x4 ADD PUSH1 0x40 MLOAD DUP1 SWAP2 SUB SWAP1 REVERT JUMPDEST PUSH1 0x0 DUP3 SWAP1 SUB PUSH2 0x9BD JUMPI PUSH1 0x40 MLOAD PUSH4 0x4B78778D PUSH1 0xE1 SHL DUP2 MSTORE PUSH1 0x4 ADD PUSH1 0x40 MLOAD DUP1 SWAP2 SUB SWAP1 REVERT JUMPDEST PUSH2 0x9FE DUP4 DUP4 DUP1 DUP1 PUSH1 0x1F ADD PUSH1 0x20 DUP1 SWAP2 DIV MUL PUSH1 0x20 ADD PUSH1 0x40 MLOAD SWAP1 DUP2 ADD PUSH1 0x40 MSTORE DUP1 SWAP4 SWAP3 SWAP2 SWAP1 DUP2 DUP2 MSTORE PUSH1 0x20 ADD DUP4 DUP4 DUP1 DUP3 DUP5 CALLDATACOPY PUSH1 0x0 SWAP3 ADD SWAP2 SWAP1 SWAP2 MSTORE POP DUP6 SWAP3 POP PUSH2 0x152D SWAP2 POP POP JUMP JUMPDEST POP POP POP JUMP JUMPDEST PUSH1 0x1 SLOAD PUSH1 0x1 PUSH1 0x1 PUSH1 0xA0 SHL SUB AND CALLER EQ PUSH2 0xA2E JUMPI PUSH1 0x40 MLOAD PUSH4 0x30CD7471 PUSH1 0xE0 SHL DUP2 MSTORE PUSH1 0x4 ADD PUSH1 0x40 MLOAD DUP1 SWAP2 SUB SWAP1 REVERT JUMPDEST PUSH1 0x1 PUSH1 0x1 PUSH1 0xA0 SHL SUB SWAP2 SWAP1 SWAP2 AND PUSH1 0x0 SWAP1 DUP2 MSTORE PUSH1 0x4 PUSH1 0x20 MSTORE PUSH1 0x40 SWAP1 KECCAK256 DUP1 SLOAD PUSH1 0xFF NOT AND SWAP2 ISZERO ISZERO SWAP2 SWAP1 SWAP2 OR SWAP1 SSTORE JUMP JUMPDEST PUSH1 0x0 PUSH1 0x3 DUP7 DUP2 SLOAD DUP2 LT PUSH2 0xA6E JUMPI PUSH2 0xA6E PUSH2 0x1D7D JUMP JUMPDEST PUSH1 0x0 SWAP2 DUP3 MSTORE PUSH1 0x20 DUP1 DUP4 KECCAK256 PUSH1 0x2 SLOAD PUSH1 0x40 DUP1 MLOAD PUSH32 0xF9A4BB626F7677582CA1A01DCF5E2AA8F3DE98D999ADC0598509571B99FE8ADB DUP2 DUP7 ADD MSTORE DUP1 DUP3 ADD DUP14 SWAP1 MSTORE PUSH1 0x60 DUP1 DUP3 ADD DUP14 SWAP1 MSTORE DUP3 MLOAD DUP1 DUP4 SUB SWAP1 SWAP2 ADD DUP2 MSTORE PUSH1 0x80 DUP3 ADD SWAP1 SWAP3 MSTORE DUP2 MLOAD SWAP2 SWAP1 SWAP5 ADD KECCAK256 PUSH2 0x1901 PUSH1 0xF0 SHL PUSH1 0xA0 DUP6 ADD MSTORE PUSH1 0xA2 DUP5 ADD SWAP2 SWAP1 SWAP2 MSTORE PUSH1 0xC2 DUP4 ADD MSTORE PUSH1 0xB SWAP3 SWAP1 SWAP3 MUL SWAP1 SWAP2 ADD SWAP3 POP PUSH1 0xE2 ADD PUSH1 0x40 DUP1 MLOAD PUSH1 0x1F NOT DUP2 DUP5 SUB ADD DUP2 MSTORE DUP3 DUP3 MSTORE DUP1 MLOAD PUSH1 0x20 SWAP2 DUP3 ADD KECCAK256 PUSH1 0x0 DUP1 DUP6 MSTORE SWAP2 DUP5 ADD DUP1 DUP5 MSTORE DUP2 SWAP1 MSTORE PUSH1 0xFF DUP10 AND SWAP3 DUP5 ADD SWAP3 SWAP1 SWAP3 MSTORE PUSH1 0x60 DUP4 ADD DUP8 SWAP1 MSTORE PUSH1 0x80 DUP4 ADD DUP7 SWAP1 MSTORE SWAP1 SWAP3 POP SWAP1 PUSH1 0x1 SWAP1 PUSH1 0xA0 ADD PUSH1 0x20 PUSH1 0x40 MLOAD PUSH1 0x20 DUP2 SUB SWAP1 DUP1 DUP5 SUB SWAP1 DUP6 GAS STATICCALL ISZERO DUP1 ISZERO PUSH2 0xB5B JUMPI RETURNDATASIZE PUSH1 0x0 DUP1 RETURNDATACOPY RETURNDATASIZE PUSH1 0x0 REVERT JUMPDEST POP POP PUSH1 0x40 MLOAD PUSH1 0x1F NOT ADD MLOAD SWAP2 POP POP PUSH1 0x1 PUSH1 0x1 PUSH1 0xA0 SHL SUB DUP2 AND CALLER EQ PUSH2 0xBB0 JUMPI PUSH1 0x40 MLOAD PUSH3 0x461BCD PUSH1 0xE5 SHL DUP2 MSTORE PUSH1 0x20 PUSH1 0x4 DUP3 ADD MSTORE PUSH1 0xD PUSH1 0x24 DUP3 ADD MSTORE PUSH13 0x426164207369676E6174757265 PUSH1 0x98 SHL PUSH1 0x44 DUP3 ADD MSTORE PUSH1 0x64 ADD PUSH2 0x433 JUMP JUMPDEST DUP3 SLOAD PUSH1 0x1 PUSH1 0x1 PUSH1 0xA0 SHL SUB AND CALLER SUB PUSH2 0xBCD JUMPI PUSH1 0x4 DUP4 ADD DUP8 SWAP1 SSTORE PUSH2 0xC22 JUMP JUMPDEST PUSH1 0x1 DUP4 ADD SLOAD PUSH1 0x1 PUSH1 0x1 PUSH1 0xA0 SHL SUB AND CALLER SUB PUSH2 0xBED JUMPI PUSH1 0x5 DUP4 ADD DUP8 SWAP1 SSTORE PUSH2 0xC22 JUMP JUMPDEST PUSH1 0x40 MLOAD PUSH3 0x461BCD PUSH1 0xE5 SHL DUP2 MSTORE PUSH1 0x20 PUSH1 0x4 DUP3 ADD MSTORE PUSH1 0xA PUSH1 0x24 DUP3 ADD MSTORE PUSH10 0x2737BA10383630BCB2B9 PUSH1 0xB1 SHL PUSH1 0x44 DUP3 ADD MSTORE PUSH1 0x64 ADD PUSH2 0x433 JUMP JUMPDEST PUSH1 0x40 MLOAD CALLER SWAP1 DUP10 SWAP1 PUSH32 0xAF398D01FA79335DFE9179FDA01A76CCB61AA3C3E0EB5CB31EDE3DCEA66AF762 SWAP1 PUSH1 0x0 SWAP1 LOG3 POP POP POP POP POP POP POP POP JUMP JUMPDEST PUSH1 0x0 PUSH1 0x3 DUP4 DUP2 SLOAD DUP2 LT PUSH2 0xC6E JUMPI PUSH2 0xC6E PUSH2 0x1D7D JUMP JUMPDEST PUSH1 0x0 SWAP2 DUP3 MSTORE PUSH1 0x20 SWAP1 SWAP2 KECCAK256 PUSH1 0xB SWAP1 SWAP2 MUL ADD PUSH1 0x1 DUP2 ADD SLOAD SWAP1 SWAP2 POP PUSH1 0x1 PUSH1 0x1 PUSH1 0xA0 SHL SUB AND ISZERO PUSH2 0xCCD JUMPI PUSH1 0x40 MLOAD PUSH3 0x461BCD PUSH1 0xE5 SHL DUP2 MSTORE PUSH1 0x20 PUSH1 0x4 DUP3 ADD MSTORE PUSH1 0xE PUSH1 0x24 DUP3 ADD MSTORE PUSH14 0x105B1C9958591E481A9BDA5B9959 PUSH1 0x92 SHL PUSH1 0x44 DUP3 ADD MSTORE PUSH1 0x64 ADD PUSH2 0x433 JUMP JUMPDEST PUSH1 0x3 DUP2 ADD SLOAD PUSH1 0x2 DUP3 ADD SLOAD PUSH2 0xCF0 SWAP2 PUSH1 0x1 PUSH1 0x1 PUSH1 0xA0 SHL SUB SWAP1 SWAP2 AND SWAP1 CALLER SWAP1 ADDRESS SWAP1 PUSH2 0x12A0 JUMP JUMPDEST PUSH1 0x1 DUP2 ADD DUP1 SLOAD PUSH1 0x1 PUSH1 0x1 PUSH1 0xA0 SHL SUB NOT AND CALLER OR SWAP1 SSTORE PUSH1 0x5 DUP2 ADD DUP3 SWAP1 SSTORE TIMESTAMP PUSH1 0x8 DUP3 ADD DUP2 SWAP1 SSTORE PUSH2 0xD21 SWAP1 PUSH3 0x69780 SWAP1 PUSH2 0x1DB4 JUMP JUMPDEST PUSH1 0x9 DUP3 ADD SSTORE PUSH1 0x40 MLOAD CALLER SWAP1 DUP5 SWAP1 PUSH32 0x45C4F9CBAFE186141862608C493F28B823FDE4C2142BEDC3F5169961A73FDD22 SWAP1 PUSH1 0x0 SWAP1 LOG3 POP POP POP JUMP JUMPDEST PUSH1 0x1 SLOAD PUSH1 0x1 PUSH1 0x1 PUSH1 0xA0 SHL SUB AND CALLER EQ PUSH2 0xD83 JUMPI PUSH1 0x40 MLOAD PUSH4 0x30CD7471 PUSH1 0xE0 SHL DUP2 MSTORE PUSH1 0x4 ADD PUSH1 0x40 MLOAD DUP1 SWAP2 SUB SWAP1 REVERT JUMPDEST PUSH1 0x0 PUSH1 0x3 DUP4 DUP2 SLOAD DUP2 LT PUSH2 0xD98 JUMPI PUSH2 0xD98 PUSH2 0x1D7D JUMP JUMPDEST PUSH1 0x0 SWAP2 DUP3 MSTORE PUSH1 0x20 SWAP1 SWAP2 KECCAK256 PUSH1 0xB SWAP1 SWAP2 MUL ADD PUSH1 0xA DUP2 ADD SLOAD SWAP1 SWAP2 POP PUSH1 0xFF AND ISZERO PUSH2 0xDD0 JUMPI PUSH1 0x40 MLOAD PUSH3 0x461BCD PUSH1 0xE5 SHL DUP2 MSTORE PUSH1 0x4 ADD PUSH2 0x433 SWAP1 PUSH2 0x1D93 JUMP JUMPDEST DUP1 SLOAD PUSH1 0x1 PUSH1 0x1 PUSH1 0xA0 SHL SUB DUP4 DUP2 AND SWAP2 AND EQ DUP1 PUSH2 0xDFA JUMPI POP PUSH1 0x1 DUP2 ADD SLOAD PUSH1 0x1 PUSH1 0x1 PUSH1 0xA0 SHL SUB DUP4 DUP2 AND SWAP2 AND EQ JUMPDEST DUP1 PUSH2 0xE0C JUMPI POP PUSH1 0x1 PUSH1 0x1 PUSH1 0xA0 SHL SUB DUP3 AND ISZERO JUMPDEST PUSH2 0xE42 JUMPI PUSH1 0x40 MLOAD PUSH3 0x461BCD PUSH1 0xE5 SHL DUP2 MSTORE PUSH1 0x20 PUSH1 0x4 DUP3 ADD MSTORE PUSH1 0x7 PUSH1 0x24 DUP3 ADD MSTORE PUSH7 0x125B9D985B1A59 PUSH1 0xCA SHL PUSH1 0x44 DUP3 ADD MSTORE PUSH1 0x64 ADD PUSH2 0x433 JUMP JUMPDEST PUSH1 0x0 DUP4 DUP2 MSTORE PUSH1 0x5 PUSH1 0x20 SWAP1 DUP2 MSTORE PUSH1 0x40 SWAP2 DUP3 SWAP1 KECCAK256 DUP1 SLOAD PUSH1 0x1 PUSH1 0x1 PUSH1 0xA0 SHL SUB NOT AND PUSH1 0x1 PUSH1 0x1 PUSH1 0xA0 SHL SUB DUP7 AND SWAP1 DUP2 OR SWAP1 SWAP2 SSTORE SWAP2 MLOAD SWAP2 DUP3 MSTORE DUP5 SWAP2 PUSH32 0x4074D0BFF1FDF28C9BC2363D469257D9FF1AB7FC537134B28BB50738757F8EBA SWAP2 ADD PUSH1 0x40 MLOAD DUP1 SWAP2 SUB SWAP1 LOG2 POP POP POP JUMP JUMPDEST PUSH1 0x0 PUSH1 0x3 DUP7 DUP2 SLOAD DUP2 LT PUSH2 0xEBC JUMPI PUSH2 0xEBC PUSH2 0x1D7D JUMP JUMPDEST PUSH1 0x0 SWAP2 DUP3 MSTORE PUSH1 0x20 SWAP1 SWAP2 KECCAK256 PUSH1 0xB SWAP1 SWAP2 MUL ADD PUSH1 0xA DUP2 ADD SLOAD SWAP1 SWAP2 POP PUSH1 0xFF AND ISZERO PUSH2 0xEF4 JUMPI PUSH1 0x40 MLOAD PUSH3 0x461BCD PUSH1 0xE5 SHL DUP2 MSTORE PUSH1 0x4 ADD PUSH2 0x433 SWAP1 PUSH2 0x1D93 JUMP JUMPDEST PUSH2 0xEFD DUP3 PUSH2 0x1591 JUMP JUMPDEST PUSH2 0xF08 CALLER DUP6 DUP6 PUSH2 0x16DE JUMP JUMPDEST PUSH1 0x0 PUSH2 0xF15 DUP7 DUP7 DUP7 PUSH2 0x17EB JUMP JUMPDEST DUP3 SLOAD SWAP1 SWAP2 POP PUSH1 0x1 PUSH1 0x1 PUSH1 0xA0 SHL SUB AND CALLER SUB PUSH2 0xFBC JUMPI PUSH1 0x6 DUP3 ADD SLOAD PUSH1 0xFF AND ISZERO PUSH2 0xF68 JUMPI PUSH1 0x40 MLOAD PUSH3 0x461BCD PUSH1 0xE5 SHL DUP2 MSTORE PUSH1 0x20 PUSH1 0x4 DUP3 ADD MSTORE PUSH1 0x7 PUSH1 0x24 DUP3 ADD MSTORE PUSH7 0x416C7265616479 PUSH1 0xC8 SHL PUSH1 0x44 DUP3 ADD MSTORE PUSH1 0x64 ADD PUSH2 0x433 JUMP JUMPDEST DUP2 PUSH1 0x4 ADD SLOAD DUP2 EQ PUSH2 0xFA8 JUMPI PUSH1 0x40 MLOAD PUSH3 0x461BCD PUSH1 0xE5 SHL DUP2 MSTORE PUSH1 0x20 PUSH1 0x4 DUP3 ADD MSTORE PUSH1 0xA PUSH1 0x24 DUP3 ADD MSTORE PUSH10 0x109859081C995D99585B PUSH1 0xB2 SHL PUSH1 0x44 DUP3 ADD MSTORE PUSH1 0x64 ADD PUSH2 0x433 JUMP JUMPDEST PUSH1 0x6 DUP3 ADD DUP1 SLOAD PUSH1 0xFF NOT AND PUSH1 0x1 OR SWAP1 SSTORE PUSH2 0x1066 JUMP JUMPDEST PUSH1 0x1 DUP3 ADD SLOAD PUSH1 0x1 PUSH1 0x1 PUSH1 0xA0 SHL SUB AND CALLER SUB PUSH2 0xBED JUMPI PUSH1 0x6 DUP3 ADD SLOAD PUSH2 0x100 SWAP1 DIV PUSH1 0xFF AND ISZERO PUSH2 0x1014 JUMPI PUSH1 0x40 MLOAD PUSH3 0x461BCD PUSH1 0xE5 SHL DUP2 MSTORE PUSH1 0x20 PUSH1 0x4 DUP3 ADD MSTORE PUSH1 0x7 PUSH1 0x24 DUP3 ADD MSTORE PUSH7 0x416C7265616479 PUSH1 0xC8 SHL PUSH1 0x44 DUP3 ADD MSTORE PUSH1 0x64 ADD PUSH2 0x433 JUMP JUMPDEST DUP2 PUSH1 0x5 ADD SLOAD DUP2 EQ PUSH2 0x1054 JUMPI PUSH1 0x40 MLOAD PUSH3 0x461BCD PUSH1 0xE5 SHL DUP2 MSTORE PUSH1 0x20 PUSH1 0x4 DUP3 ADD MSTORE PUSH1 0xA PUSH1 0x24 DUP3 ADD MSTORE PUSH10 0x109859081C995D99585B PUSH1 0xB2 SHL PUSH1 0x44 DUP3 ADD MSTORE PUSH1 0x64 ADD PUSH2 0x433 JUMP JUMPDEST PUSH1 0x6 DUP3 ADD DUP1 SLOAD PUSH2 0xFF00 NOT AND PUSH2 0x100 OR SWAP1 SSTORE JUMPDEST PUSH1 0x40 MLOAD CALLER SWAP1 DUP9 SWAP1 PUSH32 0x6E9DAC3F3F833C1D527AA989D3A673884DDC11E31FDCCC11CCD8AEBF1AE069AC SWAP1 PUSH1 0x0 SWAP1 LOG3 POP POP POP POP POP POP POP JUMP JUMPDEST PUSH1 0x1 SLOAD PUSH1 0x1 PUSH1 0x1 PUSH1 0xA0 SHL SUB AND CALLER EQ PUSH2 0x10C7 JUMPI PUSH1 0x40 MLOAD PUSH4 0x30CD7471 PUSH1 0xE0 SHL DUP2 MSTORE PUSH1 0x4 ADD PUSH1 0x40 MLOAD DUP1 SWAP2 SUB SWAP1 REVERT JUMPDEST PUSH1 0x1 PUSH1 0x1 PUSH1 0xA0 SHL SUB DUP2 AND PUSH2 0x110C JUMPI PUSH1 0x40 MLOAD PUSH3 0x461BCD PUSH1 0xE5 SHL DUP2 MSTORE PUSH1 0x20 PUSH1 0x4 DUP3 ADD MSTORE PUSH1 0xC PUSH1 0x24 DUP3 ADD MSTORE PUSH12 0x5A65726F2061646472657373 PUSH1 0xA0 SHL PUSH1 0x44 DUP3 ADD MSTORE PUSH1 0x64 ADD PUSH2 0x433 JUMP JUMPDEST PUSH1 0x1 SLOAD PUSH1 0x40 MLOAD PUSH1 0x1 PUSH1 0x1 PUSH1 0xA0 SHL SUB DUP1 DUP5 AND SWAP3 AND SWAP1 PUSH32 0x8BE0079C531659141344CD1FD0A4F28419497F9722A3DAAFE3B4186F6B6457E0 SWAP1 PUSH1 0x0 SWAP1 LOG3 PUSH1 0x1 DUP1 SLOAD PUSH1 0x1 PUSH1 0x1 PUSH1 0xA0 SHL SUB NOT AND PUSH1 0x1 PUSH1 0x1 PUSH1 0xA0 SHL SUB SWAP3 SWAP1 SWAP3 AND SWAP2 SWAP1 SWAP2 OR SWAP1 SSTORE JUMP JUMPDEST PUSH1 0x1 SLOAD PUSH1 0x1 PUSH1 0x1 PUSH1 0xA0 SHL SUB AND CALLER EQ PUSH2 0x1193 JUMPI PUSH1 0x40 MLOAD PUSH4 0x30CD7471 PUSH1 0xE0 SHL DUP2 MSTORE PUSH1 0x4 ADD PUSH1 0x40 MLOAD DUP1 SWAP2 SUB SWAP1 REVERT JUMPDEST DUP3 DUP2 EQ PUSH2 0x11B6 JUMPI PUSH1 0x40 MLOAD PUSH1 0x1 PUSH3 0x1398B9 PUSH1 0xE3 SHL SUB NOT DUP2 MSTORE PUSH1 0x4 ADD PUSH1 0x40 MLOAD DUP1 SWAP2 SUB SWAP1 REVERT JUMPDEST PUSH1 0x0 JUMPDEST DUP4 DUP2 LT ISZERO PUSH2 0x1299 JUMPI DUP5 DUP5 DUP3 DUP2 DUP2 LT PUSH2 0x11D3 JUMPI PUSH2 0x11D3 PUSH2 0x1D7D JUMP JUMPDEST SWAP1 POP PUSH1 0x20 MUL DUP2 ADD SWAP1 PUSH2 0x11E5 SWAP2 SWAP1 PUSH2 0x1DC7 JUMP JUMPDEST SWAP1 POP PUSH1 0x0 SUB PUSH2 0x1207 JUMPI PUSH1 0x40 MLOAD PUSH4 0x4B78778D PUSH1 0xE1 SHL DUP2 MSTORE PUSH1 0x4 ADD PUSH1 0x40 MLOAD DUP1 SWAP2 SUB SWAP1 REVERT JUMPDEST PUSH2 0x1291 DUP6 DUP6 DUP4 DUP2 DUP2 LT PUSH2 0x121C JUMPI PUSH2 0x121C PUSH2 0x1D7D JUMP JUMPDEST SWAP1 POP PUSH1 0x20 MUL DUP2 ADD SWAP1 PUSH2 0x122E SWAP2 SWAP1 PUSH2 0x1DC7 JUMP JUMPDEST DUP1 DUP1 PUSH1 0x1F ADD PUSH1 0x20 DUP1 SWAP2 DIV MUL PUSH1 0x20 ADD PUSH1 0x40 MLOAD SWAP1 DUP2 ADD PUSH1 0x40 MSTORE DUP1 SWAP4 SWAP3 SWAP2 SWAP1 DUP2 DUP2 MSTORE PUSH1 0x20 ADD DUP4 DUP4 DUP1 DUP3 DUP5 CALLDATACOPY PUSH1 0x0 SWAP3 ADD SWAP2 SWAP1 SWAP2 MSTORE POP DUP8 SWAP3 POP DUP7 SWAP2 POP DUP6 SWAP1 POP DUP2 DUP2 LT PUSH2 0x1277 JUMPI PUSH2 0x1277 PUSH2 0x1D7D JUMP JUMPDEST SWAP1 POP PUSH1 0x20 MUL ADD PUSH1 0x20 DUP2 ADD SWAP1 PUSH2 0x128C SWAP2 SWAP1 PUSH2 0x1E0E JUMP JUMPDEST PUSH2 0x152D JUMP JUMPDEST PUSH1 0x1 ADD PUSH2 0x11B9 JUMP JUMPDEST POP POP POP POP POP JUMP JUMPDEST PUSH1 0x40 MLOAD PUSH1 0x1 PUSH1 0x1 PUSH1 0xA0 SHL SUB DUP5 DUP2 AND PUSH1 0x24 DUP4 ADD MSTORE DUP4 DUP2 AND PUSH1 0x44 DUP4 ADD MSTORE PUSH1 0x64 DUP3 ADD DUP4 SWAP1 MSTORE PUSH2 0x1307 SWAP2 DUP7 SWAP2 DUP3 AND SWAP1 PUSH4 0x23B872DD SWAP1 PUSH1 0x84 ADD JUMPDEST PUSH1 0x40 MLOAD PUSH1 0x20 DUP2 DUP4 SUB SUB DUP2 MSTORE SWAP1 PUSH1 0x40 MSTORE SWAP2 POP PUSH1 0xE0 SHL PUSH1 0x20 DUP3 ADD DUP1 MLOAD PUSH1 0x1 PUSH1 0x1 PUSH1 0xE0 SHL SUB DUP4 DUP2 DUP4 AND OR DUP4 MSTORE POP POP POP POP PUSH2 0x1892 JUMP JUMPDEST POP POP POP POP JUMP JUMPDEST PUSH1 0x0 PUSH1 0x3 DUP4 DUP2 SLOAD DUP2 LT PUSH2 0x1322 JUMPI PUSH2 0x1322 PUSH2 0x1D7D JUMP JUMPDEST PUSH1 0x0 SWAP2 DUP3 MSTORE PUSH1 0x20 DUP3 KECCAK256 PUSH1 0xA PUSH1 0xB SWAP1 SWAP3 MUL ADD SWAP1 DUP2 ADD DUP1 SLOAD PUSH1 0xFF NOT AND PUSH1 0x1 OR SWAP1 SSTORE PUSH1 0x3 DUP2 ADD SLOAD SWAP1 SWAP3 POP PUSH2 0x1354 SWAP1 PUSH1 0x2 PUSH2 0x1E29 JUMP JUMPDEST SWAP1 POP PUSH1 0x0 PUSH2 0x2710 PUSH1 0x7 SLOAD DUP4 PUSH2 0x1369 SWAP2 SWAP1 PUSH2 0x1E29 JUMP JUMPDEST PUSH2 0x1373 SWAP2 SWAP1 PUSH2 0x1E40 JUMP JUMPDEST SWAP1 POP PUSH1 0x0 PUSH2 0x1381 DUP3 DUP5 PUSH2 0x1D6A JUMP JUMPDEST SWAP1 POP DUP2 ISZERO PUSH2 0x13A8 JUMPI PUSH1 0x6 SLOAD PUSH1 0x2 DUP6 ADD SLOAD PUSH2 0x13A8 SWAP2 PUSH1 0x1 PUSH1 0x1 PUSH1 0xA0 SHL SUB SWAP2 DUP3 AND SWAP2 AND DUP5 PUSH2 0x1903 JUMP JUMPDEST PUSH1 0x1 PUSH1 0x1 PUSH1 0xA0 SHL SUB DUP6 AND ISZERO PUSH2 0x13D5 JUMPI PUSH1 0x2 DUP5 ADD SLOAD PUSH2 0x13D0 SWAP1 PUSH1 0x1 PUSH1 0x1 PUSH1 0xA0 SHL SUB AND DUP7 DUP4 PUSH2 0x1903 JUMP JUMPDEST PUSH2 0x142B JUMP JUMPDEST DUP4 SLOAD PUSH2 0x1404 SWAP1 PUSH1 0x1 PUSH1 0x1 PUSH1 0xA0 SHL SUB AND PUSH2 0x13EF PUSH1 0x2 DUP5 PUSH2 0x1E40 JUMP JUMPDEST PUSH1 0x2 DUP8 ADD SLOAD PUSH1 0x1 PUSH1 0x1 PUSH1 0xA0 SHL SUB AND SWAP2 SWAP1 PUSH2 0x1903 JUMP JUMPDEST PUSH1 0x1 DUP5 ADD SLOAD PUSH2 0x142B SWAP1 PUSH1 0x1 PUSH1 0x1 PUSH1 0xA0 SHL SUB AND PUSH2 0x1421 PUSH1 0x2 DUP5 PUSH2 0x1E40 JUMP JUMPDEST PUSH2 0x13EF SWAP1 DUP5 PUSH2 0x1D6A JUMP JUMPDEST PUSH1 0x40 MLOAD PUSH1 0x1 PUSH1 0x1 PUSH1 0xA0 SHL SUB DUP7 AND DUP2 MSTORE DUP7 SWAP1 PUSH32 0xF27FAAE2ACD1EBCA672F8CA0D896F3E0EB13164004932B3FBCFC2547167C8BB7 SWAP1 PUSH1 0x20 ADD PUSH1 0x40 MLOAD DUP1 SWAP2 SUB SWAP1 LOG2 POP POP POP POP POP POP JUMP JUMPDEST PUSH1 0x0 PUSH1 0x3 DUP3 DUP2 SLOAD DUP2 LT PUSH2 0x1486 JUMPI PUSH2 0x1486 PUSH2 0x1D7D JUMP JUMPDEST PUSH1 0x0 SWAP2 DUP3 MSTORE PUSH1 0x20 SWAP1 SWAP2 KECCAK256 PUSH1 0xA PUSH1 0xB SWAP1 SWAP3 MUL ADD SWAP1 DUP2 ADD DUP1 SLOAD PUSH1 0xFF NOT AND PUSH1 0x1 OR SWAP1 SSTORE DUP1 SLOAD PUSH1 0x3 DUP3 ADD SLOAD PUSH1 0x2 DUP4 ADD SLOAD SWAP3 SWAP4 POP PUSH2 0x14CC SWAP3 PUSH1 0x1 PUSH1 0x1 PUSH1 0xA0 SHL SUB SWAP1 DUP2 AND SWAP3 AND SWAP1 PUSH2 0x1903 JUMP JUMPDEST PUSH1 0x1 DUP2 ADD SLOAD PUSH1 0x3 DUP3 ADD SLOAD PUSH1 0x2 DUP4 ADD SLOAD PUSH2 0x14F3 SWAP3 PUSH1 0x1 PUSH1 0x1 PUSH1 0xA0 SHL SUB SWAP2 DUP3 AND SWAP3 SWAP2 AND SWAP1 PUSH2 0x1903 JUMP JUMPDEST PUSH1 0x40 MLOAD PUSH1 0x0 DUP2 MSTORE DUP3 SWAP1 PUSH32 0xF27FAAE2ACD1EBCA672F8CA0D896F3E0EB13164004932B3FBCFC2547167C8BB7 SWAP1 PUSH1 0x20 ADD PUSH1 0x40 MLOAD DUP1 SWAP2 SUB SWAP1 LOG2 POP POP JUMP JUMPDEST DUP2 MLOAD PUSH1 0x20 DUP1 DUP5 ADD SWAP2 SWAP1 SWAP2 KECCAK256 PUSH1 0x0 DUP2 DUP2 MSTORE SWAP2 DUP3 SWAP1 MSTORE PUSH1 0x40 SWAP2 DUP3 SWAP1 KECCAK256 DUP1 SLOAD PUSH1 0xFF NOT AND DUP5 ISZERO ISZERO OR SWAP1 SSTORE SWAP1 MLOAD PUSH32 0x71597D70B120B69B2ED3763B127F0F73D5475CD67F32065088360E0586A8B250 SWAP1 PUSH2 0x1584 SWAP1 DUP6 SWAP1 DUP6 SWAP1 PUSH2 0x1E62 JUMP JUMPDEST PUSH1 0x40 MLOAD DUP1 SWAP2 SUB SWAP1 LOG1 POP POP POP JUMP JUMPDEST PUSH2 0x1599 PUSH2 0x1934 JUMP JUMPDEST PUSH1 0x0 JUMPDEST PUSH1 0x3 DUP2 LT ISZERO PUSH2 0x15FC JUMPI DUP3 DUP2 PUSH1 0x3 DUP2 LT PUSH2 0x15B7 JUMPI PUSH2 0x15B7 PUSH2 0x1D7D JUMP JUMPDEST PUSH1 0x20 MUL DUP2 ADD SWAP1 PUSH2 0x15C7 SWAP2 SWAP1 PUSH2 0x1DC7 JUMP JUMPDEST PUSH1 0x40 MLOAD PUSH2 0x15D5 SWAP3 SWAP2 SWAP1 PUSH2 0x1EB9 JUMP JUMPDEST PUSH1 0x40 MLOAD DUP1 SWAP2 SUB SWAP1 KECCAK256 DUP3 DUP3 PUSH1 0x3 DUP2 LT PUSH2 0x15EF JUMPI PUSH2 0x15EF PUSH2 0x1D7D JUMP JUMPDEST PUSH1 0x20 MUL ADD MSTORE PUSH1 0x1 ADD PUSH2 0x159C JUMP JUMPDEST POP PUSH1 0x0 JUMPDEST PUSH1 0x3 DUP2 LT ISZERO PUSH2 0x9FE JUMPI PUSH1 0x0 DUP1 DUP4 DUP4 PUSH1 0x3 DUP2 LT PUSH2 0x161E JUMPI PUSH2 0x161E PUSH2 0x1D7D JUMP JUMPDEST PUSH1 0x20 SWAP1 DUP2 MUL SWAP2 SWAP1 SWAP2 ADD MLOAD DUP3 MSTORE DUP2 ADD SWAP2 SWAP1 SWAP2 MSTORE PUSH1 0x40 ADD PUSH1 0x0 KECCAK256 SLOAD PUSH1 0xFF AND ISZERO PUSH2 0x16D6 JUMPI PUSH1 0x0 DUP1 JUMPDEST PUSH1 0x3 DUP2 LT ISZERO PUSH2 0x1695 JUMPI DUP4 DUP4 PUSH1 0x3 DUP2 LT PUSH2 0x165E JUMPI PUSH2 0x165E PUSH2 0x1D7D JUMP JUMPDEST PUSH1 0x20 MUL ADD MLOAD DUP5 DUP3 PUSH1 0x3 DUP2 LT PUSH2 0x1675 JUMPI PUSH2 0x1675 PUSH2 0x1D7D JUMP JUMPDEST PUSH1 0x20 MUL ADD MLOAD SUB PUSH2 0x168D JUMPI DUP2 PUSH2 0x1689 DUP2 PUSH2 0x1EC9 JUMP JUMPDEST SWAP3 POP POP JUMPDEST PUSH1 0x1 ADD PUSH2 0x1643 JUMP JUMPDEST POP PUSH1 0x1 DUP2 GT ISZERO PUSH2 0x16D4 JUMPI PUSH1 0x40 MLOAD PUSH3 0x461BCD PUSH1 0xE5 SHL DUP2 MSTORE PUSH1 0x20 PUSH1 0x4 DUP3 ADD MSTORE PUSH1 0xA PUSH1 0x24 DUP3 ADD MSTORE PUSH10 0x5261726974792064757 PUSH1 0xB4 SHL PUSH1 0x44 DUP3 ADD MSTORE PUSH1 0x64 ADD PUSH2 0x433 JUMP JUMPDEST POP JUMPDEST PUSH1 0x1 ADD PUSH2 0x1600 JUMP JUMPDEST PUSH1 0x0 JUMPDEST PUSH1 0x3 DUP2 LT ISZERO PUSH2 0x1307 JUMPI DUP4 PUSH1 0x1 PUSH1 0x1 PUSH1 0xA0 SHL SUB AND DUP4 DUP3 PUSH1 0x3 DUP2 LT PUSH2 0x1706 JUMPI PUSH2 0x1706 PUSH2 0x1D7D JUMP JUMPDEST PUSH1 0x20 MUL ADD PUSH1 0x20 DUP2 ADD SWAP1 PUSH2 0x1719 SWAP2 SWAP1 PUSH2 0x19B8 JUMP JUMPDEST PUSH1 0x1 PUSH1 0x1 PUSH1 0xA0 SHL SUB AND PUSH4 0x6352211E DUP5 DUP5 PUSH1 0x3 DUP2 LT PUSH2 0x1739 JUMPI PUSH2 0x1739 PUSH2 0x1D7D JUMP JUMPDEST PUSH1 0x20 MUL ADD CALLDATALOAD PUSH1 0x40 MLOAD DUP3 PUSH4 0xFFFFFFFF AND PUSH1 0xE0 SHL DUP2 MSTORE PUSH1 0x4 ADD PUSH2 0x175C SWAP2 DUP2 MSTORE PUSH1 0x20 ADD SWAP1 JUMP JUMPDEST PUSH1 0x20 PUSH1 0x40 MLOAD DUP1 DUP4 SUB DUP2 DUP7 GAS STATICCALL ISZERO DUP1 ISZERO PUSH2 0x1779 JUMPI RETURNDATASIZE PUSH1 0x0 DUP1 RETURNDATACOPY RETURNDATASIZE PUSH1 0x0 REVERT JUMPDEST POP POP POP POP PUSH1 0x40 MLOAD RETURNDATASIZE PUSH1 0x1F NOT PUSH1 0x1F DUP3 ADD AND DUP3 ADD DUP1 PUSH1 0x40 MSTORE POP DUP2 ADD SWAP1 PUSH2 0x179D SWAP2 SWAP1 PUSH2 0x1EE2 JUMP JUMPDEST PUSH1 0x1 PUSH1 0x1 PUSH1 0xA0 SHL SUB AND EQ PUSH2 0x17E3 JUMPI PUSH1 0x40 MLOAD PUSH3 0x461BCD PUSH1 0xE5 SHL DUP2 MSTORE PUSH1 0x20 PUSH1 0x4 DUP3 ADD MSTORE PUSH1 0xD PUSH1 0x24 DUP3 ADD MSTORE PUSH13 0x2737BA1027232A1037BBB732B9 PUSH1 0x99 SHL PUSH1 0x44 DUP3 ADD MSTORE PUSH1 0x64 ADD PUSH2 0x433 JUMP JUMPDEST PUSH1 0x1 ADD PUSH2 0x16E1 JUMP JUMPDEST PUSH1 0x0 DUP4 PUSH2 0x17FB PUSH1 0x20 DUP6 ADD DUP6 PUSH2 0x19B8 JUMP JUMPDEST PUSH2 0x180B PUSH1 0x40 DUP7 ADD PUSH1 0x20 DUP8 ADD PUSH2 0x19B8 JUMP JUMPDEST PUSH2 0x181B PUSH1 0x60 DUP8 ADD PUSH1 0x40 DUP9 ADD PUSH2 0x19B8 JUMP JUMPDEST PUSH1 0x40 DUP1 MLOAD PUSH1 0x20 DUP2 DUP2 ADD SWAP7 SWAP1 SWAP7 MSTORE PUSH1 0x60 SWAP5 DUP6 SHL PUSH12 0xFFFFFFFFFFFFFFFFFFFFFFFF NOT SWAP1 DUP2 AND DUP3 DUP5 ADD MSTORE SWAP4 DUP6 SHL DUP5 AND PUSH1 0x54 DUP3 ADD MSTORE SWAP2 SWAP1 SWAP4 SHL SWAP1 SWAP2 AND PUSH1 0x68 DUP3 ADD MSTORE DUP5 CALLDATALOAD PUSH1 0x7C DUP3 ADD MSTORE SWAP2 DUP5 ADD CALLDATALOAD PUSH1 0x9C DUP4 ADD MSTORE DUP4 ADD CALLDATALOAD PUSH1 0xBC DUP3 ADD MSTORE PUSH1 0xDC ADD PUSH1 0x40 MLOAD PUSH1 0x20 DUP2 DUP4 SUB SUB DUP2 MSTORE SWAP1 PUSH1 0x40 MSTORE DUP1 MLOAD SWAP1 PUSH1 0x20 ADD KECCAK256 SWAP1 POP SWAP4 SWAP3 POP POP POP JUMP JUMPDEST PUSH1 0x0 DUP1 PUSH1 0x20 PUSH1 0x0 DUP5 MLOAD PUSH1 0x20 DUP7 ADD PUSH1 0x0 DUP9 GAS CALL DUP1 PUSH2 0x18B5 JUMPI PUSH1 0x40 MLOAD RETURNDATASIZE PUSH1 0x0 DUP3 RETURNDATACOPY RETURNDATASIZE DUP2 REVERT JUMPDEST POP POP PUSH1 0x0 MLOAD RETURNDATASIZE SWAP2 POP DUP2 ISZERO PUSH2 0x18CD JUMPI DUP1 PUSH1 0x1 EQ ISZERO PUSH2 0x18DA JUMP JUMPDEST PUSH1 0x1 PUSH1 0x1 PUSH1 0xA0 SHL SUB DUP5 AND EXTCODESIZE ISZERO JUMPDEST ISZERO PUSH2 0x1307 JUMPI PUSH1 0x40 MLOAD PUSH4 0x5274AFE7 PUSH1 0xE0 SHL DUP2 MSTORE PUSH1 0x1 PUSH1 0x1 PUSH1 0xA0 SHL SUB DUP6 AND PUSH1 0x4 DUP3 ADD MSTORE PUSH1 0x24 ADD PUSH2 0x433 JUMP JUMPDEST PUSH1 0x40 MLOAD PUSH1 0x1 PUSH1 0x1 PUSH1 0xA0 SHL SUB DUP4 DUP2 AND PUSH1 0x24 DUP4 ADD MSTORE PUSH1 0x44 DUP3 ADD DUP4 SWAP1 MSTORE PUSH2 0x9FE SWAP2 DUP6 SWAP2 DUP3 AND SWAP1 PUSH4 0xA9059CBB SWAP1 PUSH1 0x64 ADD PUSH2 0x12D5 JUMP JUMPDEST PUSH1 0x40 MLOAD DUP1 PUSH1 0x60 ADD PUSH1 0x40 MSTORE DUP1 PUSH1 0x3 SWAP1 PUSH1 0x20 DUP3 MUL DUP1 CALLDATASIZE DUP4 CALLDATACOPY POP SWAP2 SWAP3 SWAP2 POP POP JUMP JUMPDEST PUSH1 0x1 PUSH1 0x1 PUSH1 0xA0 SHL SUB DUP2 AND DUP2 EQ PUSH2 0x1967 JUMPI PUSH1 0x0 DUP1 REVERT JUMPDEST POP JUMP JUMPDEST PUSH1 0x0 DUP1 PUSH1 0x0 PUSH1 0x60 DUP5 DUP7 SUB SLT ISZERO PUSH2 0x197F JUMPI PUSH1 0x0 DUP1 REVERT JUMPDEST DUP4 CALLDATALOAD PUSH2 0x198A DUP2 PUSH2 0x1952 JUMP JUMPDEST SWAP6 PUSH1 0x20 DUP6 ADD CALLDATALOAD SWAP6 POP PUSH1 0x40 SWAP1 SWAP5 ADD CALLDATALOAD SWAP4 SWAP3 POP POP POP JUMP JUMPDEST PUSH1 0x0 PUSH1 0x20 DUP3 DUP5 SUB SLT ISZERO PUSH2 0x19B1 JUMPI PUSH1 0x0 DUP1 REVERT JUMPDEST POP CALLDATALOAD SWAP2 SWAP1 POP JUMP JUMPDEST PUSH1 0x0 PUSH1 0x20 DUP3 DUP5 SUB SLT ISZERO PUSH2 0x19CA JUMPI PUSH1 0x0 DUP1 REVERT JUMPDEST DUP2 CALLDATALOAD PUSH2 0x19D5 DUP2 PUSH2 0x1952 JUMP JUMPDEST SWAP4 SWAP3 POP POP POP JUMP JUMPDEST PUSH4 0x4E487B71 PUSH1 0xE0 SHL PUSH1 0x0 MSTORE PUSH1 0x41 PUSH1 0x4 MSTORE PUSH1 0x24 PUSH1 0x0 REVERT JUMPDEST PUSH1 0x0 PUSH1 0x20 DUP3 DUP5 SUB SLT ISZERO PUSH2 0x1A04 JUMPI PUSH1 0x0 DUP1 REVERT JUMPDEST DUP2 CALLDATALOAD PUSH8 0xFFFFFFFFFFFFFFFF DUP1 DUP3 GT ISZERO PUSH2 0x1A1C JUMPI PUSH1 0x0 DUP1 REVERT JUMPDEST DUP2 DUP5 ADD SWAP2 POP DUP5 PUSH1 0x1F DUP4 ADD SLT PUSH2 0x1A30 JUMPI PUSH1 0x0 DUP1 REVERT JUMPDEST DUP2 CALLDATALOAD DUP2 DUP2 GT ISZERO PUSH2 0x1A42 JUMPI PUSH2 0x1A42 PUSH2 0x19DC JUMP JUMPDEST PUSH1 0x40 MLOAD PUSH1 0x1F DUP3 ADD PUSH1 0x1F NOT SWAP1 DUP2 AND PUSH1 0x3F ADD AND DUP2 ADD SWAP1 DUP4 DUP3 GT DUP2 DUP4 LT OR ISZERO PUSH2 0x1A6A JUMPI PUSH2 0x1A6A PUSH2 0x19DC JUMP JUMPDEST DUP2 PUSH1 0x40 MSTORE DUP3 DUP2 MSTORE DUP8 PUSH1 0x20 DUP5 DUP8 ADD ADD GT ISZERO PUSH2 0x1A83 JUMPI PUSH1 0x0 DUP1 REVERT JUMPDEST DUP3 PUSH1 0x20 DUP7 ADD PUSH1 0x20 DUP4 ADD CALLDATACOPY PUSH1 0x0 SWAP3 DUP2 ADD PUSH1 0x20 ADD SWAP3 SWAP1 SWAP3 MSTORE POP SWAP6 SWAP5 POP POP POP POP POP JUMP JUMPDEST DUP1 CALLDATALOAD DUP1 ISZERO ISZERO DUP2 EQ PUSH2 0x1AB3 JUMPI PUSH1 0x0 DUP1 REVERT JUMPDEST SWAP2 SWAP1 POP JUMP JUMPDEST PUSH1 0x0 DUP1 PUSH1 0x0 PUSH1 0x40 DUP5 DUP7 SUB SLT ISZERO PUSH2 0x1ACD JUMPI PUSH1 0x0 DUP1 REVERT JUMPDEST DUP4 CALLDATALOAD PUSH8 0xFFFFFFFFFFFFFFFF DUP1 DUP3 GT ISZERO PUSH2 0x1AE5 JUMPI PUSH1 0x0 DUP1 REVERT JUMPDEST DUP2 DUP7 ADD SWAP2 POP DUP7 PUSH1 0x1F DUP4 ADD SLT PUSH2 0x1AF9 JUMPI PUSH1 0x0 DUP1 REVERT JUMPDEST DUP2 CALLDATALOAD DUP2 DUP2 GT ISZERO PUSH2 0x1B08 JUMPI PUSH1 0x0 DUP1 REVERT JUMPDEST DUP8 PUSH1 0x20 DUP3 DUP6 ADD ADD GT ISZERO PUSH2 0x1B1A JUMPI PUSH1 0x0 DUP1 REVERT JUMPDEST PUSH1 0x20 SWAP3 DUP4 ADD SWAP6 POP SWAP4 POP PUSH2 0x1B30 SWAP2 DUP7 ADD SWAP1 POP PUSH2 0x1AA3 JUMP JUMPDEST SWAP1 POP SWAP3 POP SWAP3 POP SWAP3 JUMP JUMPDEST PUSH1 0x0 DUP1 PUSH1 0x40 DUP4 DUP6 SUB SLT ISZERO PUSH2 0x1B4C JUMPI PUSH1 0x0 DUP1 REVERT JUMPDEST DUP3 CALLDATALOAD PUSH2 0x1B57 DUP2 PUSH2 0x1952 JUMP JUMPDEST SWAP2 POP PUSH2 0x1B65 PUSH1 0x20 DUP5 ADD PUSH2 0x1AA3 JUMP JUMPDEST SWAP1 POP SWAP3 POP SWAP3 SWAP1 POP JUMP JUMPDEST PUSH1 0x0 DUP1 PUSH1 0x0 DUP1 PUSH1 0x0 PUSH1 0xA0 DUP7 DUP9 SUB SLT ISZERO PUSH2 0x1B86 JUMPI PUSH1 0x0 DUP1 REVERT JUMPDEST DUP6 CALLDATALOAD SWAP5 POP PUSH1 0x20 DUP7 ADD CALLDATALOAD SWAP4 POP PUSH1 0x40 DUP7 ADD CALLDATALOAD PUSH1 0xFF DUP2 AND DUP2 EQ PUSH2 0x1BA5 JUMPI PUSH1 0x0 DUP1 REVERT JUMPDEST SWAP5 SWAP8 SWAP4 SWAP7 POP SWAP4 SWAP5 PUSH1 0x60 DUP2 ADD CALLDATALOAD SWAP5 POP PUSH1 0x80 ADD CALLDATALOAD SWAP3 SWAP2 POP POP JUMP JUMPDEST PUSH1 0x0 DUP1 PUSH1 0x40 DUP4 DUP6 SUB SLT ISZERO PUSH2 0x1BD0 JUMPI PUSH1 0x0 DUP1 REVERT JUMPDEST POP POP DUP1 CALLDATALOAD SWAP3 PUSH1 0x20 SWAP1 SWAP2 ADD CALLDATALOAD SWAP2 POP JUMP JUMPDEST PUSH1 0x0 DUP1 PUSH1 0x40 DUP4 DUP6 SUB SLT ISZERO PUSH2 0x1BF2 JUMPI PUSH1 0x0 DUP1 REVERT JUMPDEST DUP3 CALLDATALOAD SWAP2 POP PUSH1 0x20 DUP4 ADD CALLDATALOAD PUSH2 0x1C04 DUP2 PUSH2 0x1952 JUMP JUMPDEST DUP1 SWAP2 POP POP SWAP3 POP SWAP3 SWAP1 POP JUMP JUMPDEST DUP1 PUSH1 0x60 DUP2 ADD DUP4 LT ISZERO PUSH2 0x1C20 JUMPI PUSH1 0x0 DUP1 REVERT JUMPDEST SWAP3 SWAP2 POP POP JUMP JUMPDEST PUSH1 0x0 DUP1 PUSH1 0x0 DUP1 PUSH1 0x0 PUSH2 0x120 DUP7 DUP9 SUB SLT ISZERO PUSH2 0x1C3F JUMPI PUSH1 0x0 DUP1 REVERT JUMPDEST DUP6 CALLDATALOAD SWAP5 POP PUSH1 0x20 DUP7 ADD CALLDATALOAD SWAP4 POP PUSH2 0x1C57 DUP8 PUSH1 0x40 DUP9 ADD PUSH2 0x1C0F JUMP JUMPDEST SWAP3 POP PUSH2 0x1C66 DUP8 PUSH1 0xA0 DUP9 ADD PUSH2 0x1C0F JUMP JUMPDEST SWAP2 POP PUSH2 0x100 DUP7 ADD CALLDATALOAD PUSH8 0xFFFFFFFFFFFFFFFF DUP2 GT ISZERO PUSH2 0x1C83 JUMPI PUSH1 0x0 DUP1 REVERT JUMPDEST PUSH2 0x1C8F DUP9 DUP3 DUP10 ADD PUSH2 0x1C0F JUMP JUMPDEST SWAP2 POP POP SWAP3 SWAP6 POP SWAP3 SWAP6 SWAP1 SWAP4 POP JUMP JUMPDEST PUSH1 0x0 DUP1 DUP4 PUSH1 0x1F DUP5 ADD SLT PUSH2 0x1CAE JUMPI PUSH1 0x0 DUP1 REVERT JUMPDEST POP DUP2 CALLDATALOAD PUSH8 0xFFFFFFFFFFFFFFFF DUP2 GT ISZERO PUSH2 0x1CC6 JUMPI PUSH1 0x0 DUP1 REVERT JUMPDEST PUSH1 0x20 DUP4 ADD SWAP2 POP DUP4 PUSH1 0x20 DUP3 PUSH1 0x5 SHL DUP6 ADD ADD GT ISZERO PUSH2 0x1CE1 JUMPI PUSH1 0x0 DUP1 REVERT JUMPDEST SWAP3 POP SWAP3 SWAP1 POP JUMP JUMPDEST PUSH1 0x0 DUP1 PUSH1 0x0 DUP1 PUSH1 0x40 DUP6 DUP8 SUB SLT ISZERO PUSH2 0x1CFE JUMPI PUSH1 0x0 DUP1 REVERT JUMPDEST DUP5 CALLDATALOAD PUSH8 0xFFFFFFFFFFFFFFFF DUP1 DUP3 GT ISZERO PUSH2 0x1D16 JUMPI PUSH1 0x0 DUP1 REVERT JUMPDEST PUSH2 0x1D22 DUP9 DUP4 DUP10 ADD PUSH2 0x1C9C JUMP JUMPDEST SWAP1 SWAP7 POP SWAP5 POP PUSH1 0x20 DUP8 ADD CALLDATALOAD SWAP2 POP DUP1 DUP3 GT ISZERO PUSH2 0x1D3B JUMPI PUSH1 0x0 DUP1 REVERT JUMPDEST POP PUSH2 0x1D48 DUP8 DUP3 DUP9 ADD PUSH2 0x1C9C JUMP JUMPDEST SWAP6 SWAP9 SWAP5 SWAP8 POP SWAP6 POP POP POP POP JUMP JUMPDEST PUSH4 0x4E487B71 PUSH1 0xE0 SHL PUSH1 0x0 MSTORE PUSH1 0x11 PUSH1 0x4 MSTORE PUSH1 0x24 PUSH1 0x0 REVERT JUMPDEST DUP2 DUP2 SUB DUP2 DUP2 GT ISZERO PUSH2 0x1C20 JUMPI PUSH2 0x1C20 PUSH2 0x1D54 JUMP JUMPDEST PUSH4 0x4E487B71 PUSH1 0xE0 SHL PUSH1 0x0 MSTORE PUSH1 0x32 PUSH1 0x4 MSTORE PUSH1 0x24 PUSH1 0x0 REVERT JUMPDEST PUSH1 0x20 DUP1 DUP3 MSTORE PUSH1 0x7 SWAP1 DUP3 ADD MSTORE PUSH7 0x14D95D1D1B1959 PUSH1 0xCA SHL PUSH1 0x40 DUP3 ADD MSTORE PUSH1 0x60 ADD SWAP1 JUMP JUMPDEST DUP1 DUP3 ADD DUP1 DUP3 GT ISZERO PUSH2 0x1C20 JUMPI PUSH2 0x1C20 PUSH2 0x1D54 JUMP JUMPDEST PUSH1 0x0 DUP1 DUP4 CALLDATALOAD PUSH1 0x1E NOT DUP5 CALLDATASIZE SUB ADD DUP2 SLT PUSH2 0x1DDE JUMPI PUSH1 0x0 DUP1 REVERT JUMPDEST DUP4 ADD DUP1 CALLDATALOAD SWAP2 POP PUSH8 0xFFFFFFFFFFFFFFFF DUP3 GT ISZERO PUSH2 0x1DF9 JUMPI PUSH1 0x0 DUP1 REVERT JUMPDEST PUSH1 0x20 ADD SWAP2 POP CALLDATASIZE DUP2 SWAP1 SUB DUP3 SGT ISZERO PUSH2 0x1CE1 JUMPI PUSH1 0x0 DUP1 REVERT JUMPDEST PUSH1 0x0 PUSH1 0x20 DUP3 DUP5 SUB SLT ISZERO PUSH2 0x1E20 JUMPI PUSH1 0x0 DUP1 REVERT JUMPDEST PUSH2 0x19D5 DUP3 PUSH2 0x1AA3 JUMP JUMPDEST DUP1 DUP3 MUL DUP2 ISZERO DUP3 DUP3 DIV DUP5 EQ OR PUSH2 0x1C20 JUMPI PUSH2 0x1C20 PUSH2 0x1D54 JUMP JUMPDEST PUSH1 0x0 DUP3 PUSH2 0x1E5D JUMPI PUSH4 0x4E487B71 PUSH1 0xE0 SHL PUSH1 0x0 MSTORE PUSH1 0x12 PUSH1 0x4 MSTORE PUSH1 0x24 PUSH1 0x0 REVERT JUMPDEST POP DIV SWAP1 JUMP JUMPDEST PUSH1 0x40 DUP2 MSTORE PUSH1 0x0 DUP4 MLOAD DUP1 PUSH1 0x40 DUP5 ADD MSTORE PUSH1 0x0 JUMPDEST DUP2 DUP2 LT ISZERO PUSH2 0x1E90 JUMPI PUSH1 0x20 DUP2 DUP8 ADD DUP2 ADD MLOAD PUSH1 0x60 DUP7 DUP5 ADD ADD MSTORE ADD PUSH2 0x1E73 JUMP JUMPDEST POP PUSH1 0x0 PUSH1 0x60 DUP3 DUP6 ADD ADD MSTORE PUSH1 0x60 PUSH1 0x1F NOT PUSH1 0x1F DUP4 ADD AND DUP5 ADD ADD SWAP2 POP POP DUP3 ISZERO ISZERO PUSH1 0x20 DUP4 ADD MSTORE SWAP4 SWAP3 POP POP POP JUMP JUMPDEST DUP2 DUP4 DUP3 CALLDATACOPY PUSH1 0x0 SWAP2 ADD SWAP1 DUP2 MSTORE SWAP2 SWAP1 POP JUMP JUMPDEST PUSH1 0x0 PUSH1 0x1 DUP3 ADD PUSH2 0x1EDB JUMPI PUSH2 0x1EDB PUSH2 0x1D54 JUMP JUMPDEST POP PUSH1 0x1 ADD SWAP1 JUMP JUMPDEST PUSH1 0x0 PUSH1 0x20 DUP3 DUP5 SUB SLT ISZERO PUSH2 0x1EF4 JUMPI PUSH1 0x0 DUP1 REVERT JUMPDEST DUP2 MLOAD PUSH2 0x19D5 DUP2 PUSH2 0x1952 JUMP INVALID LOG2 PUSH5 0x6970667358 0x22 SLT KECCAK256 0x2E CALLDATALOAD 0xA6 PUSH27 0xEB2A540D73EF2A861ECACE23257D4B16A6EC31AB3BE2825D94F873 SWAP7 PUSH5 0x736F6C6343 STOP ADDMOD XOR STOP CALLER "
				},
				"gasEstimates": {
					"creation": {
						"codeDepositCost": "1597800",
						"executionCost": "infinite",
						"totalCost": "infinite"
					},
					"external": {
						"COMMIT_TYPEHASH()": "328",
						"DOMAIN_SEPARATOR()": "2406",
						"REVEAL_WINDOW()": "218",
						"allowedERC20(address)": "2615",
						"backendWinner(uint256)": "2500",
						"createGame(address,uint256,bytes32)": "infinite",
						"games(uint256)": "26103",
						"gamesLength()": "2337",
						"isRestrictedRarity(string)": "infinite",
						"joinGame(uint256,bytes32)": "infinite",
						"owner()": "2470",
						"platformFee()": "2362",
						"postWinner(uint256,address)": "37015",
						"reveal(uint256,uint256,address[3],uint256[3],string[3])": "infinite",
						"setAllowedERC20(address,bool)": "26969",
						"setPlatformFee(uint256)": "24558",
						"setRestrictedRarities(string[],bool[])": "infinite",
						"setRestrictedRarity(string,bool)": "infinite",
						"setTeamWallet(address)": "26852",
						"settleGame(uint256)": "infinite",
						"submitCommit(uint256,bytes32,uint8,bytes32,bytes32)": "infinite",
						"teamWallet()": "2404",
						"transferOwnership(address)": "30504"
					},
					"internal": {
						"_checkOwnership(address,address[3] calldata,uint256[3] calldata)": "infinite",
						"_computeCommit(uint256,address[3] calldata,uint256[3] calldata)": "infinite",
						"_payout(uint256,address)": "infinite",
						"_refund(uint256)": "infinite"
					}
				},
				"methodIdentifiers": {
					"COMMIT_TYPEHASH()": "37479beb",
					"DOMAIN_SEPARATOR()": "3644e515",
					"REVEAL_WINDOW()": "17e931cf",
					"allowedERC20(address)": "14f8fb9b",
					"backendWinner(uint256)": "4c7b0754",
					"createGame(address,uint256,bytes32)": "03b55dac",
					"games(uint256)": "117a5b90",
					"gamesLength()": "20eba3f2",
					"isRestrictedRarity(string)": "4e714ac3",
					"joinGame(uint256,bytes32)": "ac952671",
					"owner()": "8da5cb5b",
					"platformFee()": "26232a2e",
					"postWinner(uint256,address)": "b710c52c",
					"reveal(uint256,uint256,address[3],uint256[3],string[3])": "da6636cc",
					"setAllowedERC20(address,bool)": "78150b06",
					"setPlatformFee(uint256)": "12e8e2c3",
					"setRestrictedRarities(string[],bool[])": "f969e592",
					"setRestrictedRarity(string,bool)": "6093ae62",
					"setTeamWallet(address)": "1525ff7d",
					"settleGame(uint256)": "312d7bbc",
					"submitCommit(uint256,bytes32,uint8,bytes32,bytes32)": "a8a6196f",
					"teamWallet()": "59927044",
					"transferOwnership(address)": "f2fde38b"
				}
			},
			"storageLayout": {
				"storage": [
					{
						"astId": 1720,
						"contract": "contracts/CoreClashGameV2.sol:CoreClashGame",
						"label": "restrictedRarity",
						"offset": 0,
						"slot": "0",
						"type": "t_mapping(t_bytes32,t_bool)"
					},
					{
						"astId": 1722,
						"contract": "contracts/CoreClashGameV2.sol:CoreClashGame",
						"label": "owner",
						"offset": 0,
						"slot": "1",
						"type": "t_address"
					},
					{
						"astId": 782,
						"contract": "contracts/CoreClashGameV2.sol:CoreClashGame",
						"label": "DOMAIN_SEPARATOR",
						"offset": 0,
						"slot": "2",
						"type": "t_bytes32"
					},
					{
						"astId": 811,
						"contract": "contracts/CoreClashGameV2.sol:CoreClashGame",
						"label": "games",
						"offset": 0,
						"slot": "3",
						"type": "t_array(t_struct(Game)807_storage)dyn_storage"
					},
					{
						"astId": 815,
						"contract": "contracts/CoreClashGameV2.sol:CoreClashGame",
						"label": "allowedERC20",
						"offset": 0,
						"slot": "4",
						"type": "t_mapping(t_address,t_bool)"
					},
					{
						"astId": 819,
						"contract": "contracts/CoreClashGameV2.sol:CoreClashGame",
						"label": "backendWinner",
						"offset": 0,
						"slot": "5",
						"type": "t_mapping(t_uint256,t_address)"
					},
					{
						"astId": 821,
						"contract": "contracts/CoreClashGameV2.sol:CoreClashGame",
						"label": "teamWallet",
						"offset": 0,
						"slot": "6",
						"type": "t_address"
					},
					{
						"astId": 823,
						"contract": "contracts/CoreClashGameV2.sol:CoreClashGame",
						"label": "platformFee",
						"offset": 0,
						"slot": "7",
						"type": "t_uint256"
					}
				],
				"types": {
					"t_address": {
						"encoding": "inplace",
						"label": "address",
						"numberOfBytes": "20"
					},
					"t_array(t_struct(Game)807_storage)dyn_storage": {
						"base": "t_struct(Game)807_storage",
						"encoding": "dynamic_array",
						"label": "struct CoreClashGame.Game[]",
						"numberOfBytes": "32"
					},
					"t_bool": {
						"encoding": "inplace",
						"label": "bool",
						"numberOfBytes": "1"
					},
					"t_bytes32": {
						"encoding": "inplace",
						"label": "bytes32",
						"numberOfBytes": "32"
					},
					"t_mapping(t_address,t_bool)": {
						"encoding": "mapping",
						"key": "t_address",
						"label": "mapping(address => bool)",
						"numberOfBytes": "32",
						"value": "t_bool"
					},
					"t_mapping(t_bytes32,t_bool)": {
						"encoding": "mapping",
						"key": "t_bytes32",
						"label": "mapping(bytes32 => bool)",
						"numberOfBytes": "32",
						"value": "t_bool"
					},
					"t_mapping(t_uint256,t_address)": {
						"encoding": "mapping",
						"key": "t_uint256",
						"label": "mapping(uint256 => address)",
						"numberOfBytes": "32",
						"value": "t_address"
					},
					"t_struct(Game)807_storage": {
						"encoding": "inplace",
						"label": "struct CoreClashGame.Game",
						"members": [
							{
								"astId": 784,
								"contract": "contracts/CoreClashGameV2.sol:CoreClashGame",
								"label": "player1",
								"offset": 0,
								"slot": "0",
								"type": "t_address"
							},
							{
								"astId": 786,
								"contract": "contracts/CoreClashGameV2.sol:CoreClashGame",
								"label": "player2",
								"offset": 0,
								"slot": "1",
								"type": "t_address"
							},
							{
								"astId": 788,
								"contract": "contracts/CoreClashGameV2.sol:CoreClashGame",
								"label": "stakeToken",
								"offset": 0,
								"slot": "2",
								"type": "t_address"
							},
							{
								"astId": 790,
								"contract": "contracts/CoreClashGameV2.sol:CoreClashGame",
								"label": "stakeAmount",
								"offset": 0,
								"slot": "3",
								"type": "t_uint256"
							},
							{
								"astId": 792,
								"contract": "contracts/CoreClashGameV2.sol:CoreClashGame",
								"label": "player1Commit",
								"offset": 0,
								"slot": "4",
								"type": "t_bytes32"
							},
							{
								"astId": 794,
								"contract": "contracts/CoreClashGameV2.sol:CoreClashGame",
								"label": "player2Commit",
								"offset": 0,
								"slot": "5",
								"type": "t_bytes32"
							},
							{
								"astId": 796,
								"contract": "contracts/CoreClashGameV2.sol:CoreClashGame",
								"label": "player1Revealed",
								"offset": 0,
								"slot": "6",
								"type": "t_bool"
							},
							{
								"astId": 798,
								"contract": "contracts/CoreClashGameV2.sol:CoreClashGame",
								"label": "player2Revealed",
								"offset": 1,
								"slot": "6",
								"type": "t_bool"
							},
							{
								"astId": 800,
								"contract": "contracts/CoreClashGameV2.sol:CoreClashGame",
								"label": "createdAt",
								"offset": 0,
								"slot": "7",
								"type": "t_uint256"
							},
							{
								"astId": 802,
								"contract": "contracts/CoreClashGameV2.sol:CoreClashGame",
								"label": "joinTimestamp",
								"offset": 0,
								"slot": "8",
								"type": "t_uint256"
							},
							{
								"astId": 804,
								"contract": "contracts/CoreClashGameV2.sol:CoreClashGame",
								"label": "revealDeadline",
								"offset": 0,
								"slot": "9",
								"type": "t_uint256"
							},
							{
								"astId": 806,
								"contract": "contracts/CoreClashGameV2.sol:CoreClashGame",
								"label": "settled",
								"offset": 0,
								"slot": "10",
								"type": "t_bool"
							}
						],
						"numberOfBytes": "352"
					},
					"t_uint256": {
						"encoding": "inplace",
						"label": "uint256",
						"numberOfBytes": "32"
					}
				}
			},
			"userdoc": {
				"kind": "user",
				"methods": {},
				"version": 1
			}
		}
	}
}