{
	"contracts/VerdantKinFeeReflection.sol": {
		"VerdantKinFeeReflection": {
			"abi": [
				{
					"inputs": [
						{
							"internalType": "address",
							"name": "v3RouterAddr",
							"type": "address"
						},
						{
							"internalType": "address",
							"name": "v2RouterAddr",
							"type": "address"
						},
						{
							"internalType": "address",
							"name": "_club",
							"type": "address"
						},
						{
							"internalType": "address",
							"name": "_coreToken",
							"type": "address"
						},
						{
							"internalType": "address",
							"name": "_wetn",
							"type": "address"
						},
						{
							"internalType": "address",
							"name": "_owner",
							"type": "address"
						},
						{
							"internalType": "address payable",
							"name": "_coreWallet",
							"type": "address"
						},
						{
							"internalType": "address payable",
							"name": "_teamWallet",
							"type": "address"
						}
					],
					"stateMutability": "nonpayable",
					"type": "constructor"
				},
				{
					"inputs": [
						{
							"internalType": "address",
							"name": "owner",
							"type": "address"
						}
					],
					"name": "OwnableInvalidOwner",
					"type": "error"
				},
				{
					"inputs": [
						{
							"internalType": "address",
							"name": "account",
							"type": "address"
						}
					],
					"name": "OwnableUnauthorizedAccount",
					"type": "error"
				},
				{
					"inputs": [],
					"name": "ReentrancyGuardReentrantCall",
					"type": "error"
				},
				{
					"anonymous": false,
					"inputs": [
						{
							"indexed": false,
							"internalType": "uint256",
							"name": "clubBurned",
							"type": "uint256"
						}
					],
					"name": "ClubBuyAndBurn",
					"type": "event"
				},
				{
					"anonymous": false,
					"inputs": [
						{
							"indexed": false,
							"internalType": "uint256",
							"name": "coreBurned",
							"type": "uint256"
						}
					],
					"name": "CoreBuyAndBurn",
					"type": "event"
				},
				{
					"anonymous": false,
					"inputs": [
						{
							"indexed": false,
							"internalType": "uint256",
							"name": "amount",
							"type": "uint256"
						},
						{
							"indexed": false,
							"internalType": "address",
							"name": "to",
							"type": "address"
						}
					],
					"name": "ETHRescued",
					"type": "event"
				},
				{
					"anonymous": false,
					"inputs": [
						{
							"indexed": false,
							"internalType": "uint256",
							"name": "amountIn",
							"type": "uint256"
						},
						{
							"indexed": false,
							"internalType": "uint256",
							"name": "coreShare",
							"type": "uint256"
						},
						{
							"indexed": false,
							"internalType": "uint256",
							"name": "teamShare",
							"type": "uint256"
						},
						{
							"indexed": false,
							"internalType": "uint256",
							"name": "clubShare",
							"type": "uint256"
						}
					],
					"name": "FeeProcessed",
					"type": "event"
				},
				{
					"anonymous": false,
					"inputs": [
						{
							"indexed": false,
							"internalType": "address",
							"name": "nftContract",
							"type": "address"
						}
					],
					"name": "NFTUnwhitelisted",
					"type": "event"
				},
				{
					"anonymous": false,
					"inputs": [
						{
							"indexed": false,
							"internalType": "address",
							"name": "nftContract",
							"type": "address"
						}
					],
					"name": "NFTWhitelisted",
					"type": "event"
				},
				{
					"anonymous": false,
					"inputs": [
						{
							"indexed": true,
							"internalType": "address",
							"name": "previousOwner",
							"type": "address"
						},
						{
							"indexed": true,
							"internalType": "address",
							"name": "newOwner",
							"type": "address"
						}
					],
					"name": "OwnershipTransferred",
					"type": "event"
				},
				{
					"anonymous": false,
					"inputs": [
						{
							"indexed": false,
							"internalType": "address",
							"name": "token",
							"type": "address"
						},
						{
							"indexed": false,
							"internalType": "uint256",
							"name": "amount",
							"type": "uint256"
						},
						{
							"indexed": false,
							"internalType": "address",
							"name": "to",
							"type": "address"
						}
					],
					"name": "TokensRescued",
					"type": "event"
				},
				{
					"stateMutability": "payable",
					"type": "fallback"
				},
				{
					"inputs": [],
					"name": "BURN_ADDRESS",
					"outputs": [
						{
							"internalType": "address",
							"name": "",
							"type": "address"
						}
					],
					"stateMutability": "view",
					"type": "function"
				},
				{
					"inputs": [],
					"name": "DEAD_ADDRESS",
					"outputs": [
						{
							"internalType": "address",
							"name": "",
							"type": "address"
						}
					],
					"stateMutability": "view",
					"type": "function"
				},
				{
					"inputs": [],
					"name": "WETN",
					"outputs": [
						{
							"internalType": "address",
							"name": "",
							"type": "address"
						}
					],
					"stateMutability": "view",
					"type": "function"
				},
				{
					"inputs": [
						{
							"internalType": "address",
							"name": "nftContract",
							"type": "address"
						}
					],
					"name": "addWhitelistedNFT",
					"outputs": [],
					"stateMutability": "nonpayable",
					"type": "function"
				},
				{
					"inputs": [],
					"name": "autoBuyAndBurn",
					"outputs": [
						{
							"internalType": "bool",
							"name": "",
							"type": "bool"
						}
					],
					"stateMutability": "view",
					"type": "function"
				},
				{
					"inputs": [],
					"name": "autoBuyAndBurnCore",
					"outputs": [
						{
							"internalType": "bool",
							"name": "",
							"type": "bool"
						}
					],
					"stateMutability": "view",
					"type": "function"
				},
				{
					"inputs": [],
					"name": "club",
					"outputs": [
						{
							"internalType": "address",
							"name": "",
							"type": "address"
						}
					],
					"stateMutability": "view",
					"type": "function"
				},
				{
					"inputs": [],
					"name": "clubBalance",
					"outputs": [
						{
							"internalType": "uint256",
							"name": "",
							"type": "uint256"
						}
					],
					"stateMutability": "view",
					"type": "function"
				},
				{
					"inputs": [],
					"name": "coreBalance",
					"outputs": [
						{
							"internalType": "uint256",
							"name": "",
							"type": "uint256"
						}
					],
					"stateMutability": "view",
					"type": "function"
				},
				{
					"inputs": [],
					"name": "coreToken",
					"outputs": [
						{
							"internalType": "address",
							"name": "",
							"type": "address"
						}
					],
					"stateMutability": "view",
					"type": "function"
				},
				{
					"inputs": [],
					"name": "coreWallet",
					"outputs": [
						{
							"internalType": "address payable",
							"name": "",
							"type": "address"
						}
					],
					"stateMutability": "view",
					"type": "function"
				},
				{
					"inputs": [
						{
							"internalType": "address",
							"name": "nftContract",
							"type": "address"
						}
					],
					"name": "isWhitelistedNFT",
					"outputs": [
						{
							"internalType": "bool",
							"name": "",
							"type": "bool"
						}
					],
					"stateMutability": "view",
					"type": "function"
				},
				{
					"inputs": [],
					"name": "manualBuyAndBurn",
					"outputs": [],
					"stateMutability": "nonpayable",
					"type": "function"
				},
				{
					"inputs": [],
					"name": "manualBuyAndBurnCore",
					"outputs": [],
					"stateMutability": "nonpayable",
					"type": "function"
				},
				{
					"inputs": [],
					"name": "owner",
					"outputs": [
						{
							"internalType": "address",
							"name": "",
							"type": "address"
						}
					],
					"stateMutability": "view",
					"type": "function"
				},
				{
					"inputs": [],
					"name": "processIncomingTokens",
					"outputs": [],
					"stateMutability": "nonpayable",
					"type": "function"
				},
				{
					"inputs": [
						{
							"internalType": "address",
							"name": "nftContract",
							"type": "address"
						}
					],
					"name": "removeWhitelistedNFT",
					"outputs": [],
					"stateMutability": "nonpayable",
					"type": "function"
				},
				{
					"inputs": [],
					"name": "renounceOwnership",
					"outputs": [],
					"stateMutability": "nonpayable",
					"type": "function"
				},
				{
					"inputs": [
						{
							"internalType": "uint256",
							"name": "amount",
							"type": "uint256"
						},
						{
							"internalType": "address payable",
							"name": "to",
							"type": "address"
						}
					],
					"name": "rescueETH",
					"outputs": [],
					"stateMutability": "nonpayable",
					"type": "function"
				},
				{
					"inputs": [
						{
							"internalType": "address",
							"name": "token",
							"type": "address"
						},
						{
							"internalType": "uint256",
							"name": "amount",
							"type": "uint256"
						},
						{
							"internalType": "address",
							"name": "to",
							"type": "address"
						}
					],
					"name": "rescueTokens",
					"outputs": [],
					"stateMutability": "nonpayable",
					"type": "function"
				},
				{
					"inputs": [
						{
							"internalType": "bool",
							"name": "_autoBuyAndBurn",
							"type": "bool"
						}
					],
					"name": "setAutoBuyAndBurn",
					"outputs": [],
					"stateMutability": "nonpayable",
					"type": "function"
				},
				{
					"inputs": [
						{
							"internalType": "bool",
							"name": "_autoBuyAndBurnCore",
							"type": "bool"
						}
					],
					"name": "setAutoBuyAndBurnCore",
					"outputs": [],
					"stateMutability": "nonpayable",
					"type": "function"
				},
				{
					"inputs": [],
					"name": "teamBalance",
					"outputs": [
						{
							"internalType": "uint256",
							"name": "",
							"type": "uint256"
						}
					],
					"stateMutability": "view",
					"type": "function"
				},
				{
					"inputs": [],
					"name": "teamWallet",
					"outputs": [
						{
							"internalType": "address payable",
							"name": "",
							"type": "address"
						}
					],
					"stateMutability": "view",
					"type": "function"
				},
				{
					"inputs": [],
					"name": "teamWithdraw",
					"outputs": [],
					"stateMutability": "nonpayable",
					"type": "function"
				},
				{
					"inputs": [
						{
							"internalType": "address",
							"name": "newOwner",
							"type": "address"
						}
					],
					"name": "transferOwnership",
					"outputs": [],
					"stateMutability": "nonpayable",
					"type": "function"
				},
				{
					"inputs": [
						{
							"internalType": "address",
							"name": "",
							"type": "address"
						}
					],
					"name": "whitelistedNFTs",
					"outputs": [
						{
							"internalType": "bool",
							"name": "",
							"type": "bool"
						}
					],
					"stateMutability": "view",
					"type": "function"
				},
				{
					"stateMutability": "payable",
					"type": "receive"
				}
			],
			"devdoc": {
				"errors": {
					"OwnableInvalidOwner(address)": [
						{
							"details": "The owner is not a valid owner account. (eg. `address(0)`)"
						}
					],
					"OwnableUnauthorizedAccount(address)": [
						{
							"details": "The caller account is not authorized to perform an operation."
						}
					],
					"ReentrancyGuardReentrantCall()": [
						{
							"details": "Unauthorized reentrant call."
						}
					]
				},
				"kind": "dev",
				"methods": {
					"owner()": {
						"details": "Returns the address of the current owner."
					},
					"renounceOwnership()": {
						"details": "Leaves the contract without owner. It will not be possible to call `onlyOwner` functions. Can only be called by the current owner. NOTE: Renouncing ownership will leave the contract without an owner, thereby disabling any functionality that is only available to the owner."
					},
					"transferOwnership(address)": {
						"details": "Transfers ownership of the contract to a new account (`newOwner`). Can only be called by the current owner."
					}
				},
				"version": 1
			},
			"evm": {
				"assembly": "    /* \"contracts/VerdantKinFeeReflection.sol\":178:10729  contract VerdantKinFeeReflection is ReentrancyGuard, Ownable {... */\n  mstore(0x40, 0x0180)\n    /* \"contracts/VerdantKinFeeReflection.sol\":872:914  0x000000000000000000000000000000000000dEaD */\n  0xdead\n    /* \"contracts/VerdantKinFeeReflection.sol\":832:914  address public immutable DEAD_ADDRESS = 0x000000000000000000000000000000000000dEaD */\n  0xffffffffffffffffffffffffffffffffffffffff\n  and\n  0x0120\n  swap1\n  0xffffffffffffffffffffffffffffffffffffffff\n  and\n  dup2\n  mstore\n  pop\n    /* \"contracts/VerdantKinFeeReflection.sol\":970:971  0 */\n  0x00\n    /* \"contracts/VerdantKinFeeReflection.sol\":922:972  address public immutable BURN_ADDRESS = address(0) */\n  0xffffffffffffffffffffffffffffffffffffffff\n  and\n  0x0140\n  swap1\n  0xffffffffffffffffffffffffffffffffffffffff\n  and\n  dup2\n  mstore\n  pop\n    /* \"contracts/VerdantKinFeeReflection.sol\":1048:1052  3000 */\n  0x0bb8\n    /* \"contracts/VerdantKinFeeReflection.sol\":1013:1052  uint24 private immutable poolFee = 3000 */\n  0xffffff\n  and\n  0x0160\n  swap1\n  0xffffff\n  and\n  dup2\n  mstore\n  pop\n    /* \"contracts/VerdantKinFeeReflection.sol\":2330:3046  constructor(... */\n  callvalue\n  dup1\n  iszero\n  tag_1\n  jumpi\n  0x00\n  dup1\n  revert\ntag_1:\n  pop\n  mload(0x40)\n  sub(codesize, bytecodeSize)\n  dup1\n  bytecodeSize\n  dup4\n  codecopy\n  dup2\n  dup2\n  add\n  0x40\n  mstore\n  dup2\n  add\n  swap1\n  tag_2\n  swap2\n  swap1\n  tag_3\n  jump\t// in\ntag_2:\n    /* \"contracts/VerdantKinFeeReflection.sol\":2649:2655  _owner */\n  dup3\n    /* \"@openzeppelin/contracts/utils/ReentrancyGuard.sol\":1857:1858  1 */\n  0x01\n    /* \"@openzeppelin/contracts/utils/ReentrancyGuard.sol\":2061:2068  _status */\n  0x00\n    /* \"@openzeppelin/contracts/utils/ReentrancyGuard.sol\":2061:2082  _status = NOT_ENTERED */\n  dup2\n  swap1\n  sstore\n  pop\n    /* \"@openzeppelin/contracts/access/Ownable.sol\":1297:1298  0 */\n  0x00\n    /* \"@openzeppelin/contracts/access/Ownable.sol\":1273:1299  initialOwner == address(0) */\n  0xffffffffffffffffffffffffffffffffffffffff\n  and\n    /* \"@openzeppelin/contracts/access/Ownable.sol\":1273:1285  initialOwner */\n  dup2\n    /* \"@openzeppelin/contracts/access/Ownable.sol\":1273:1299  initialOwner == address(0) */\n  0xffffffffffffffffffffffffffffffffffffffff\n  and\n  sub\n    /* \"@openzeppelin/contracts/access/Ownable.sol\":1269:1364  if (initialOwner == address(0)) {... */\n  tag_9\n  jumpi\n    /* \"@openzeppelin/contracts/access/Ownable.sol\":1350:1351  0 */\n  0x00\n    /* \"@openzeppelin/contracts/access/Ownable.sol\":1322:1353  OwnableInvalidOwner(address(0)) */\n  mload(0x40)\n  0x1e4fbdf700000000000000000000000000000000000000000000000000000000\n  dup2\n  mstore\n  0x04\n  add\n  tag_10\n  swap2\n  swap1\n  tag_11\n  jump\t// in\ntag_10:\n  mload(0x40)\n  dup1\n  swap2\n  sub\n  swap1\n  revert\n    /* \"@openzeppelin/contracts/access/Ownable.sol\":1269:1364  if (initialOwner == address(0)) {... */\ntag_9:\n    /* \"@openzeppelin/contracts/access/Ownable.sol\":1373:1405  _transferOwnership(initialOwner) */\n  tag_12\n    /* \"@openzeppelin/contracts/access/Ownable.sol\":1392:1404  initialOwner */\n  dup2\n    /* \"@openzeppelin/contracts/access/Ownable.sol\":1373:1391  _transferOwnership */\n  shl(0x20, tag_13)\n    /* \"@openzeppelin/contracts/access/Ownable.sol\":1373:1405  _transferOwnership(initialOwner) */\n  0x20\n  shr\n  jump\t// in\ntag_12:\n    /* \"@openzeppelin/contracts/access/Ownable.sol\":1225:1412  constructor(address initialOwner) {... */\n  pop\n    /* \"contracts/VerdantKinFeeReflection.sol\":2688:2700  v3RouterAddr */\n  dup8\n    /* \"contracts/VerdantKinFeeReflection.sol\":2668:2676  v3Router */\n  0x02\n  0x00\n    /* \"contracts/VerdantKinFeeReflection.sol\":2668:2701  v3Router = V3Router(v3RouterAddr) */\n  0x0100\n  exp\n  dup2\n  sload\n  dup2\n  0xffffffffffffffffffffffffffffffffffffffff\n  mul\n  not\n  and\n  swap1\n  dup4\n  0xffffffffffffffffffffffffffffffffffffffff\n  and\n  mul\n  or\n  swap1\n  sstore\n  pop\n    /* \"contracts/VerdantKinFeeReflection.sol\":2739:2751  v2RouterAddr */\n  dup7\n    /* \"contracts/VerdantKinFeeReflection.sol\":2712:2720  v2Router */\n  0x03\n  0x00\n    /* \"contracts/VerdantKinFeeReflection.sol\":2712:2752  v2Router = UniswapV2Router(v2RouterAddr) */\n  0x0100\n  exp\n  dup2\n  sload\n  dup2\n  0xffffffffffffffffffffffffffffffffffffffff\n  mul\n  not\n  and\n  swap1\n  dup4\n  0xffffffffffffffffffffffffffffffffffffffff\n  and\n  mul\n  or\n  swap1\n  sstore\n  pop\n    /* \"contracts/VerdantKinFeeReflection.sol\":2792:2797  _club */\n  dup6\n    /* \"contracts/VerdantKinFeeReflection.sol\":2785:2797  club = _club */\n  0xffffffffffffffffffffffffffffffffffffffff\n  and\n  0xc0\n  dup2\n  0xffffffffffffffffffffffffffffffffffffffff\n  and\n  dup2\n  mstore\n  pop\n  pop\n    /* \"contracts/VerdantKinFeeReflection.sol\":2820:2830  _coreToken */\n  dup5\n    /* \"contracts/VerdantKinFeeReflection.sol\":2808:2830  coreToken = _coreToken */\n  0xffffffffffffffffffffffffffffffffffffffff\n  and\n  0xe0\n  dup2\n  0xffffffffffffffffffffffffffffffffffffffff\n  and\n  dup2\n  mstore\n  pop\n  pop\n    /* \"contracts/VerdantKinFeeReflection.sol\":2871:2876  _wetn */\n  dup4\n    /* \"contracts/VerdantKinFeeReflection.sol\":2864:2876  WETN = _wetn */\n  0xffffffffffffffffffffffffffffffffffffffff\n  and\n  0x0100\n  dup2\n  0xffffffffffffffffffffffffffffffffffffffff\n  and\n  dup2\n  mstore\n  pop\n  pop\n    /* \"contracts/VerdantKinFeeReflection.sol\":2900:2911  _coreWallet */\n  dup2\n    /* \"contracts/VerdantKinFeeReflection.sol\":2887:2911  coreWallet = _coreWallet */\n  0xffffffffffffffffffffffffffffffffffffffff\n  and\n  0x80\n  dup2\n  0xffffffffffffffffffffffffffffffffffffffff\n  and\n  dup2\n  mstore\n  pop\n  pop\n    /* \"contracts/VerdantKinFeeReflection.sol\":2935:2946  _teamWallet */\n  dup1\n    /* \"contracts/VerdantKinFeeReflection.sol\":2922:2946  teamWallet = _teamWallet */\n  0xffffffffffffffffffffffffffffffffffffffff\n  and\n  0xa0\n  dup2\n  0xffffffffffffffffffffffffffffffffffffffff\n  and\n  dup2\n  mstore\n  pop\n  pop\n    /* \"contracts/VerdantKinFeeReflection.sol\":2974:2978  true */\n  0x01\n    /* \"contracts/VerdantKinFeeReflection.sol\":2957:2971  autoBuyAndBurn */\n  0x08\n  0x00\n    /* \"contracts/VerdantKinFeeReflection.sol\":2957:2978  autoBuyAndBurn = true */\n  0x0100\n  exp\n  dup2\n  sload\n  dup2\n  0xff\n  mul\n  not\n  and\n  swap1\n  dup4\n  iszero\n  iszero\n  mul\n  or\n  swap1\n  sstore\n  pop\n    /* \"contracts/VerdantKinFeeReflection.sol\":3010:3014  true */\n  0x01\n    /* \"contracts/VerdantKinFeeReflection.sol\":2989:3007  autoBuyAndBurnCore */\n  0x08\n  0x01\n    /* \"contracts/VerdantKinFeeReflection.sol\":2989:3014  autoBuyAndBurnCore = true */\n  0x0100\n  exp\n  dup2\n  sload\n  dup2\n  0xff\n  mul\n  not\n  and\n  swap1\n  dup4\n  iszero\n  iszero\n  mul\n  or\n  swap1\n  sstore\n  pop\n    /* \"contracts/VerdantKinFeeReflection.sol\":2330:3046  constructor(... */\n  pop\n  pop\n  pop\n  pop\n  pop\n  pop\n  pop\n  pop\n    /* \"contracts/VerdantKinFeeReflection.sol\":178:10729  contract VerdantKinFeeReflection is ReentrancyGuard, Ownable {... */\n  jump(tag_15)\n    /* \"@openzeppelin/contracts/access/Ownable.sol\":2912:3099  function _transferOwnership(address newOwner) internal virtual {... */\ntag_13:\n    /* \"@openzeppelin/contracts/access/Ownable.sol\":2985:3001  address oldOwner */\n  0x00\n    /* \"@openzeppelin/contracts/access/Ownable.sol\":3004:3010  _owner */\n  0x01\n  0x00\n  swap1\n  sload\n  swap1\n  0x0100\n  exp\n  swap1\n  div\n  0xffffffffffffffffffffffffffffffffffffffff\n  and\n    /* \"@openzeppelin/contracts/access/Ownable.sol\":2985:3010  address oldOwner = _owner */\n  swap1\n  pop\n    /* \"@openzeppelin/contracts/access/Ownable.sol\":3029:3037  newOwner */\n  dup2\n    /* \"@openzeppelin/contracts/access/Ownable.sol\":3020:3026  _owner */\n  0x01\n  0x00\n    /* \"@openzeppelin/contracts/access/Ownable.sol\":3020:3037  _owner = newOwner */\n  0x0100\n  exp\n  dup2\n  sload\n  dup2\n  0xffffffffffffffffffffffffffffffffffffffff\n  mul\n  not\n  and\n  swap1\n  dup4\n  0xffffffffffffffffffffffffffffffffffffffff\n  and\n  mul\n  or\n  swap1\n  sstore\n  pop\n    /* \"@openzeppelin/contracts/access/Ownable.sol\":3083:3091  newOwner */\n  dup2\n    /* \"@openzeppelin/contracts/access/Ownable.sol\":3052:3092  OwnershipTransferred(oldOwner, newOwner) */\n  0xffffffffffffffffffffffffffffffffffffffff\n  and\n    /* \"@openzeppelin/contracts/access/Ownable.sol\":3073:3081  oldOwner */\n  dup2\n    /* \"@openzeppelin/contracts/access/Ownable.sol\":3052:3092  OwnershipTransferred(oldOwner, newOwner) */\n  0xffffffffffffffffffffffffffffffffffffffff\n  and\n  0x8be0079c531659141344cd1fd0a4f28419497f9722a3daafe3b4186f6b6457e0\n  mload(0x40)\n  mload(0x40)\n  dup1\n  swap2\n  sub\n  swap1\n  log3\n    /* \"@openzeppelin/contracts/access/Ownable.sol\":2975:3099  {... */\n  pop\n    /* \"@openzeppelin/contracts/access/Ownable.sol\":2912:3099  function _transferOwnership(address newOwner) internal virtual {... */\n  pop\n  jump\t// out\n    /* \"#utility.yul\":88:205   */\ntag_18:\n    /* \"#utility.yul\":197:198   */\n  0x00\n    /* \"#utility.yul\":194:195   */\n  dup1\n    /* \"#utility.yul\":187:199   */\n  revert\n    /* \"#utility.yul\":334:460   */\ntag_20:\n    /* \"#utility.yul\":371:378   */\n  0x00\n    /* \"#utility.yul\":411:453   */\n  0xffffffffffffffffffffffffffffffffffffffff\n    /* \"#utility.yul\":404:409   */\n  dup3\n    /* \"#utility.yul\":400:454   */\n  and\n    /* \"#utility.yul\":389:454   */\n  swap1\n  pop\n    /* \"#utility.yul\":334:460   */\n  swap2\n  swap1\n  pop\n  jump\t// out\n    /* \"#utility.yul\":466:562   */\ntag_21:\n    /* \"#utility.yul\":503:510   */\n  0x00\n    /* \"#utility.yul\":532:556   */\n  tag_34\n    /* \"#utility.yul\":550:555   */\n  dup3\n    /* \"#utility.yul\":532:556   */\n  tag_20\n  jump\t// in\ntag_34:\n    /* \"#utility.yul\":521:556   */\n  swap1\n  pop\n    /* \"#utility.yul\":466:562   */\n  swap2\n  swap1\n  pop\n  jump\t// out\n    /* \"#utility.yul\":568:690   */\ntag_22:\n    /* \"#utility.yul\":641:665   */\n  tag_36\n    /* \"#utility.yul\":659:664   */\n  dup2\n    /* \"#utility.yul\":641:665   */\n  tag_21\n  jump\t// in\ntag_36:\n    /* \"#utility.yul\":634:639   */\n  dup2\n    /* \"#utility.yul\":631:666   */\n  eq\n    /* \"#utility.yul\":621:684   */\n  tag_37\n  jumpi\n    /* \"#utility.yul\":680:681   */\n  0x00\n    /* \"#utility.yul\":677:678   */\n  dup1\n    /* \"#utility.yul\":670:682   */\n  revert\n    /* \"#utility.yul\":621:684   */\ntag_37:\n    /* \"#utility.yul\":568:690   */\n  pop\n  jump\t// out\n    /* \"#utility.yul\":696:839   */\ntag_23:\n    /* \"#utility.yul\":753:758   */\n  0x00\n    /* \"#utility.yul\":784:790   */\n  dup2\n    /* \"#utility.yul\":778:791   */\n  mload\n    /* \"#utility.yul\":769:791   */\n  swap1\n  pop\n    /* \"#utility.yul\":800:833   */\n  tag_39\n    /* \"#utility.yul\":827:832   */\n  dup2\n    /* \"#utility.yul\":800:833   */\n  tag_22\n  jump\t// in\ntag_39:\n    /* \"#utility.yul\":696:839   */\n  swap3\n  swap2\n  pop\n  pop\n  jump\t// out\n    /* \"#utility.yul\":845:949   */\ntag_24:\n    /* \"#utility.yul\":890:897   */\n  0x00\n    /* \"#utility.yul\":919:943   */\n  tag_41\n    /* \"#utility.yul\":937:942   */\n  dup3\n    /* \"#utility.yul\":919:943   */\n  tag_20\n  jump\t// in\ntag_41:\n    /* \"#utility.yul\":908:943   */\n  swap1\n  pop\n    /* \"#utility.yul\":845:949   */\n  swap2\n  swap1\n  pop\n  jump\t// out\n    /* \"#utility.yul\":955:1093   */\ntag_25:\n    /* \"#utility.yul\":1036:1068   */\n  tag_43\n    /* \"#utility.yul\":1062:1067   */\n  dup2\n    /* \"#utility.yul\":1036:1068   */\n  tag_24\n  jump\t// in\ntag_43:\n    /* \"#utility.yul\":1029:1034   */\n  dup2\n    /* \"#utility.yul\":1026:1069   */\n  eq\n    /* \"#utility.yul\":1016:1087   */\n  tag_44\n  jumpi\n    /* \"#utility.yul\":1083:1084   */\n  0x00\n    /* \"#utility.yul\":1080:1081   */\n  dup1\n    /* \"#utility.yul\":1073:1085   */\n  revert\n    /* \"#utility.yul\":1016:1087   */\ntag_44:\n    /* \"#utility.yul\":955:1093   */\n  pop\n  jump\t// out\n    /* \"#utility.yul\":1099:1258   */\ntag_26:\n    /* \"#utility.yul\":1164:1169   */\n  0x00\n    /* \"#utility.yul\":1195:1201   */\n  dup2\n    /* \"#utility.yul\":1189:1202   */\n  mload\n    /* \"#utility.yul\":1180:1202   */\n  swap1\n  pop\n    /* \"#utility.yul\":1211:1252   */\n  tag_46\n    /* \"#utility.yul\":1246:1251   */\n  dup2\n    /* \"#utility.yul\":1211:1252   */\n  tag_25\n  jump\t// in\ntag_46:\n    /* \"#utility.yul\":1099:1258   */\n  swap3\n  swap2\n  pop\n  pop\n  jump\t// out\n    /* \"#utility.yul\":1264:2744   */\ntag_3:\n    /* \"#utility.yul\":1413:1419   */\n  0x00\n    /* \"#utility.yul\":1421:1427   */\n  dup1\n    /* \"#utility.yul\":1429:1435   */\n  0x00\n    /* \"#utility.yul\":1437:1443   */\n  dup1\n    /* \"#utility.yul\":1445:1451   */\n  0x00\n    /* \"#utility.yul\":1453:1459   */\n  dup1\n    /* \"#utility.yul\":1461:1467   */\n  0x00\n    /* \"#utility.yul\":1469:1475   */\n  dup1\n    /* \"#utility.yul\":1518:1521   */\n  0x0100\n    /* \"#utility.yul\":1506:1515   */\n  dup10\n    /* \"#utility.yul\":1497:1504   */\n  dup12\n    /* \"#utility.yul\":1493:1516   */\n  sub\n    /* \"#utility.yul\":1489:1522   */\n  slt\n    /* \"#utility.yul\":1486:1606   */\n  iszero\n  tag_48\n  jumpi\n    /* \"#utility.yul\":1525:1604   */\n  tag_49\n  tag_18\n  jump\t// in\ntag_49:\n    /* \"#utility.yul\":1486:1606   */\ntag_48:\n    /* \"#utility.yul\":1645:1646   */\n  0x00\n    /* \"#utility.yul\":1670:1734   */\n  tag_50\n    /* \"#utility.yul\":1726:1733   */\n  dup12\n    /* \"#utility.yul\":1717:1723   */\n  dup3\n    /* \"#utility.yul\":1706:1715   */\n  dup13\n    /* \"#utility.yul\":1702:1724   */\n  add\n    /* \"#utility.yul\":1670:1734   */\n  tag_23\n  jump\t// in\ntag_50:\n    /* \"#utility.yul\":1660:1734   */\n  swap9\n  pop\n    /* \"#utility.yul\":1616:1744   */\n  pop\n    /* \"#utility.yul\":1783:1785   */\n  0x20\n    /* \"#utility.yul\":1809:1873   */\n  tag_51\n    /* \"#utility.yul\":1865:1872   */\n  dup12\n    /* \"#utility.yul\":1856:1862   */\n  dup3\n    /* \"#utility.yul\":1845:1854   */\n  dup13\n    /* \"#utility.yul\":1841:1863   */\n  add\n    /* \"#utility.yul\":1809:1873   */\n  tag_23\n  jump\t// in\ntag_51:\n    /* \"#utility.yul\":1799:1873   */\n  swap8\n  pop\n    /* \"#utility.yul\":1754:1883   */\n  pop\n    /* \"#utility.yul\":1922:1924   */\n  0x40\n    /* \"#utility.yul\":1948:2012   */\n  tag_52\n    /* \"#utility.yul\":2004:2011   */\n  dup12\n    /* \"#utility.yul\":1995:2001   */\n  dup3\n    /* \"#utility.yul\":1984:1993   */\n  dup13\n    /* \"#utility.yul\":1980:2002   */\n  add\n    /* \"#utility.yul\":1948:2012   */\n  tag_23\n  jump\t// in\ntag_52:\n    /* \"#utility.yul\":1938:2012   */\n  swap7\n  pop\n    /* \"#utility.yul\":1893:2022   */\n  pop\n    /* \"#utility.yul\":2061:2063   */\n  0x60\n    /* \"#utility.yul\":2087:2151   */\n  tag_53\n    /* \"#utility.yul\":2143:2150   */\n  dup12\n    /* \"#utility.yul\":2134:2140   */\n  dup3\n    /* \"#utility.yul\":2123:2132   */\n  dup13\n    /* \"#utility.yul\":2119:2141   */\n  add\n    /* \"#utility.yul\":2087:2151   */\n  tag_23\n  jump\t// in\ntag_53:\n    /* \"#utility.yul\":2077:2151   */\n  swap6\n  pop\n    /* \"#utility.yul\":2032:2161   */\n  pop\n    /* \"#utility.yul\":2200:2203   */\n  0x80\n    /* \"#utility.yul\":2227:2291   */\n  tag_54\n    /* \"#utility.yul\":2283:2290   */\n  dup12\n    /* \"#utility.yul\":2274:2280   */\n  dup3\n    /* \"#utility.yul\":2263:2272   */\n  dup13\n    /* \"#utility.yul\":2259:2281   */\n  add\n    /* \"#utility.yul\":2227:2291   */\n  tag_23\n  jump\t// in\ntag_54:\n    /* \"#utility.yul\":2217:2291   */\n  swap5\n  pop\n    /* \"#utility.yul\":2171:2301   */\n  pop\n    /* \"#utility.yul\":2340:2343   */\n  0xa0\n    /* \"#utility.yul\":2367:2431   */\n  tag_55\n    /* \"#utility.yul\":2423:2430   */\n  dup12\n    /* \"#utility.yul\":2414:2420   */\n  dup3\n    /* \"#utility.yul\":2403:2412   */\n  dup13\n    /* \"#utility.yul\":2399:2421   */\n  add\n    /* \"#utility.yul\":2367:2431   */\n  tag_23\n  jump\t// in\ntag_55:\n    /* \"#utility.yul\":2357:2431   */\n  swap4\n  pop\n    /* \"#utility.yul\":2311:2441   */\n  pop\n    /* \"#utility.yul\":2480:2483   */\n  0xc0\n    /* \"#utility.yul\":2507:2579   */\n  tag_56\n    /* \"#utility.yul\":2571:2578   */\n  dup12\n    /* \"#utility.yul\":2562:2568   */\n  dup3\n    /* \"#utility.yul\":2551:2560   */\n  dup13\n    /* \"#utility.yul\":2547:2569   */\n  add\n    /* \"#utility.yul\":2507:2579   */\n  tag_26\n  jump\t// in\ntag_56:\n    /* \"#utility.yul\":2497:2579   */\n  swap3\n  pop\n    /* \"#utility.yul\":2451:2589   */\n  pop\n    /* \"#utility.yul\":2628:2631   */\n  0xe0\n    /* \"#utility.yul\":2655:2727   */\n  tag_57\n    /* \"#utility.yul\":2719:2726   */\n  dup12\n    /* \"#utility.yul\":2710:2716   */\n  dup3\n    /* \"#utility.yul\":2699:2708   */\n  dup13\n    /* \"#utility.yul\":2695:2717   */\n  add\n    /* \"#utility.yul\":2655:2727   */\n  tag_26\n  jump\t// in\ntag_57:\n    /* \"#utility.yul\":2645:2727   */\n  swap2\n  pop\n    /* \"#utility.yul\":2599:2737   */\n  pop\n    /* \"#utility.yul\":1264:2744   */\n  swap3\n  swap6\n  swap9\n  pop\n  swap3\n  swap6\n  swap9\n  swap1\n  swap4\n  swap7\n  pop\n  jump\t// out\n    /* \"#utility.yul\":2750:2868   */\ntag_27:\n    /* \"#utility.yul\":2837:2861   */\n  tag_59\n    /* \"#utility.yul\":2855:2860   */\n  dup2\n    /* \"#utility.yul\":2837:2861   */\n  tag_21\n  jump\t// in\ntag_59:\n    /* \"#utility.yul\":2832:2835   */\n  dup3\n    /* \"#utility.yul\":2825:2862   */\n  mstore\n    /* \"#utility.yul\":2750:2868   */\n  pop\n  pop\n  jump\t// out\n    /* \"#utility.yul\":2874:3096   */\ntag_11:\n    /* \"#utility.yul\":2967:2971   */\n  0x00\n    /* \"#utility.yul\":3005:3007   */\n  0x20\n    /* \"#utility.yul\":2994:3003   */\n  dup3\n    /* \"#utility.yul\":2990:3008   */\n  add\n    /* \"#utility.yul\":2982:3008   */\n  swap1\n  pop\n    /* \"#utility.yul\":3018:3089   */\n  tag_61\n    /* \"#utility.yul\":3086:3087   */\n  0x00\n    /* \"#utility.yul\":3075:3084   */\n  dup4\n    /* \"#utility.yul\":3071:3088   */\n  add\n    /* \"#utility.yul\":3062:3068   */\n  dup5\n    /* \"#utility.yul\":3018:3089   */\n  tag_27\n  jump\t// in\ntag_61:\n    /* \"#utility.yul\":2874:3096   */\n  swap3\n  swap2\n  pop\n  pop\n  jump\t// out\n    /* \"contracts/VerdantKinFeeReflection.sol\":178:10729  contract VerdantKinFeeReflection is ReentrancyGuard, Ownable {... */\ntag_15:\n  mload(0x80)\n  mload(0xa0)\n  mload(0xc0)\n  mload(0xe0)\n  mload(0x0100)\n  mload(0x0120)\n  mload(0x0140)\n  mload(0x0160)\n  codecopy(0x00, dataOffset(sub_0), dataSize(sub_0))\n  0x00\n  assignImmutable(\"0x98f4d6eec7613e33b36335f2ce6a27018d9a9f0999ab27807ed26ac6fd46f1a2\")\n  0x00\n  assignImmutable(\"0x980c46aeb242fb2816eec3c43a568cdc6adda404b46e62cce4e3fe7d929881e3\")\n  0x00\n  assignImmutable(\"0x7d94b1fd5befe75fac04677148728067a5c7750c4535d59cf8d692301dae078c\")\n  0x00\n  assignImmutable(\"0xb7020dd003fcd4d96af1507ff4dc7e2c1158f23ad0bacfdf3455869cf9fb4898\")\n  0x00\n  assignImmutable(\"0x4b4b9efaff899efa2095e6e12f4c7ffa5d130c6cf88a562d7f7bbc11486ed4fb\")\n  0x00\n  assignImmutable(\"0x3884709d17f664eaba4ac467a7268cd72e3e0fe0c4e85152b1894161243c55c2\")\n  0x00\n  assignImmutable(\"0x16c8a63d520d02dbd3ba67dd93cae5eadc6219145ea2099e8e9f17a2533fafa7\")\n  0x00\n  assignImmutable(\"0x6ca54da2c4784ea43fd88b3402de07ae4bced597cbb19f323b7595857a6720ae\")\n  return(0x00, dataSize(sub_0))\nstop\n\nsub_0: assembly {\n        /* \"contracts/VerdantKinFeeReflection.sol\":178:10729  contract VerdantKinFeeReflection is ReentrancyGuard, Ownable {... */\n      mstore(0x40, 0x80)\n      jumpi(tag_1, lt(calldatasize, 0x04))\n      shr(0xe0, calldataload(0x00))\n      dup1\n      0x715018a6\n      gt\n      tag_30\n      jumpi\n      dup1\n      0xb37fd190\n      gt\n      tag_31\n      jumpi\n      dup1\n      0xdc05a309\n      gt\n      tag_32\n      jumpi\n      dup1\n      0xdc05a309\n      eq\n      tag_26\n      jumpi\n      dup1\n      0xdc1a4d9e\n      eq\n      tag_27\n      jumpi\n      dup1\n      0xf2fde38b\n      eq\n      tag_28\n      jumpi\n      dup1\n      0xfccc2813\n      eq\n      tag_29\n      jumpi\n      jump(tag_2)\n    tag_32:\n      dup1\n      0xb37fd190\n      eq\n      tag_23\n      jumpi\n      dup1\n      0xba779ed5\n      eq\n      tag_24\n      jumpi\n      dup1\n      0xcfbb7d36\n      eq\n      tag_25\n      jumpi\n      jump(tag_2)\n    tag_31:\n      dup1\n      0x8465093e\n      gt\n      tag_33\n      jumpi\n      dup1\n      0x8465093e\n      eq\n      tag_19\n      jumpi\n      dup1\n      0x89e85217\n      eq\n      tag_20\n      jumpi\n      dup1\n      0x8da5cb5b\n      eq\n      tag_21\n      jumpi\n      dup1\n      0xa0558c3f\n      eq\n      tag_22\n      jumpi\n      jump(tag_2)\n    tag_33:\n      dup1\n      0x715018a6\n      eq\n      tag_16\n      jumpi\n      dup1\n      0x7499aff4\n      eq\n      tag_17\n      jumpi\n      dup1\n      0x7581aa60\n      eq\n      tag_18\n      jumpi\n      jump(tag_2)\n    tag_30:\n      dup1\n      0x3f0c188f\n      gt\n      tag_34\n      jumpi\n      dup1\n      0x59927044\n      gt\n      tag_35\n      jumpi\n      dup1\n      0x59927044\n      eq\n      tag_12\n      jumpi\n      dup1\n      0x62ab05e7\n      eq\n      tag_13\n      jumpi\n      dup1\n      0x66650b7b\n      eq\n      tag_14\n      jumpi\n      dup1\n      0x6cdf0e40\n      eq\n      tag_15\n      jumpi\n      jump(tag_2)\n    tag_35:\n      dup1\n      0x3f0c188f\n      eq\n      tag_9\n      jumpi\n      dup1\n      0x4e6fd6c4\n      eq\n      tag_10\n      jumpi\n      dup1\n      0x57d1fdcd\n      eq\n      tag_11\n      jumpi\n      jump(tag_2)\n    tag_34:\n      dup1\n      0x0c2b72e9\n      eq\n      tag_3\n      jumpi\n      dup1\n      0x0efd0973\n      eq\n      tag_4\n      jumpi\n      dup1\n      0x138b7338\n      eq\n      tag_5\n      jumpi\n      dup1\n      0x210009cf\n      eq\n      tag_6\n      jumpi\n      dup1\n      0x2b7459b9\n      eq\n      tag_7\n      jumpi\n      dup1\n      0x3d65de44\n      eq\n      tag_8\n      jumpi\n      jump(tag_2)\n    tag_1:\n      jumpi(tag_2, calldatasize)\n        /* \"contracts/VerdantKinFeeReflection.sol\":10514:10518  WETN */\n      immutable(\"0xb7020dd003fcd4d96af1507ff4dc7e2c1158f23ad0bacfdf3455869cf9fb4898\")\n        /* \"contracts/VerdantKinFeeReflection.sol\":10492:10519  msg.sender != address(WETN) */\n      0xffffffffffffffffffffffffffffffffffffffff\n      and\n        /* \"contracts/VerdantKinFeeReflection.sol\":10492:10502  msg.sender */\n      caller\n        /* \"contracts/VerdantKinFeeReflection.sol\":10492:10519  msg.sender != address(WETN) */\n      0xffffffffffffffffffffffffffffffffffffffff\n      and\n      eq\n        /* \"contracts/VerdantKinFeeReflection.sol\":10489:10577  if(msg.sender != address(WETN)){... */\n      tag_38\n      jumpi\n        /* \"contracts/VerdantKinFeeReflection.sol\":10535:10565  _processIncomingFee(msg.value) */\n      tag_39\n        /* \"contracts/VerdantKinFeeReflection.sol\":10555:10564  msg.value */\n      callvalue\n        /* \"contracts/VerdantKinFeeReflection.sol\":10535:10554  _processIncomingFee */\n      tag_40\n        /* \"contracts/VerdantKinFeeReflection.sol\":10535:10565  _processIncomingFee(msg.value) */\n      jump\t// in\n    tag_39:\n        /* \"contracts/VerdantKinFeeReflection.sol\":10489:10577  if(msg.sender != address(WETN)){... */\n    tag_38:\n        /* \"contracts/VerdantKinFeeReflection.sol\":178:10729  contract VerdantKinFeeReflection is ReentrancyGuard, Ownable {... */\n      stop\n    tag_2:\n        /* \"contracts/VerdantKinFeeReflection.sol\":10656:10660  WETN */\n      immutable(\"0xb7020dd003fcd4d96af1507ff4dc7e2c1158f23ad0bacfdf3455869cf9fb4898\")\n        /* \"contracts/VerdantKinFeeReflection.sol\":10634:10661  msg.sender != address(WETN) */\n      0xffffffffffffffffffffffffffffffffffffffff\n      and\n        /* \"contracts/VerdantKinFeeReflection.sol\":10634:10644  msg.sender */\n      caller\n        /* \"contracts/VerdantKinFeeReflection.sol\":10634:10661  msg.sender != address(WETN) */\n      0xffffffffffffffffffffffffffffffffffffffff\n      and\n      eq\n        /* \"contracts/VerdantKinFeeReflection.sol\":10631:10719  if(msg.sender != address(WETN)){... */\n      tag_43\n      jumpi\n        /* \"contracts/VerdantKinFeeReflection.sol\":10677:10707  _processIncomingFee(msg.value) */\n      tag_44\n        /* \"contracts/VerdantKinFeeReflection.sol\":10697:10706  msg.value */\n      callvalue\n        /* \"contracts/VerdantKinFeeReflection.sol\":10677:10696  _processIncomingFee */\n      tag_40\n        /* \"contracts/VerdantKinFeeReflection.sol\":10677:10707  _processIncomingFee(msg.value) */\n      jump\t// in\n    tag_44:\n        /* \"contracts/VerdantKinFeeReflection.sol\":10631:10719  if(msg.sender != address(WETN)){... */\n    tag_43:\n        /* \"contracts/VerdantKinFeeReflection.sol\":178:10729  contract VerdantKinFeeReflection is ReentrancyGuard, Ownable {... */\n      stop\n        /* \"contracts/VerdantKinFeeReflection.sol\":638:672  address public immutable coreToken */\n    tag_3:\n      callvalue\n      dup1\n      iszero\n      tag_45\n      jumpi\n      0x00\n      dup1\n      revert\n    tag_45:\n      pop\n      tag_46\n      tag_47\n      jump\t// in\n    tag_46:\n      mload(0x40)\n      tag_48\n      swap2\n      swap1\n      tag_49\n      jump\t// in\n    tag_48:\n      mload(0x40)\n      dup1\n      swap2\n      sub\n      swap1\n      return\n        /* \"contracts/VerdantKinFeeReflection.sol\":541:570  address public immutable club */\n    tag_4:\n      callvalue\n      dup1\n      iszero\n      tag_50\n      jumpi\n      0x00\n      dup1\n      revert\n    tag_50:\n      pop\n      tag_51\n      tag_52\n      jump\t// in\n    tag_51:\n      mload(0x40)\n      tag_53\n      swap2\n      swap1\n      tag_49\n      jump\t// in\n    tag_53:\n      mload(0x40)\n      dup1\n      swap2\n      sub\n      swap1\n      return\n        /* \"contracts/VerdantKinFeeReflection.sol\":3941:4071  function isWhitelistedNFT(address nftContract) external view returns (bool) {... */\n    tag_5:\n      callvalue\n      dup1\n      iszero\n      tag_54\n      jumpi\n      0x00\n      dup1\n      revert\n    tag_54:\n      pop\n      tag_55\n      0x04\n      dup1\n      calldatasize\n      sub\n      dup2\n      add\n      swap1\n      tag_56\n      swap2\n      swap1\n      tag_57\n      jump\t// in\n    tag_56:\n      tag_58\n      jump\t// in\n    tag_55:\n      mload(0x40)\n      tag_59\n      swap2\n      swap1\n      tag_60\n      jump\t// in\n    tag_59:\n      mload(0x40)\n      dup1\n      swap2\n      sub\n      swap1\n      return\n        /* \"contracts/VerdantKinFeeReflection.sol\":3696:3933  function removeWhitelistedNFT(address nftContract) external onlyOwner {... */\n    tag_6:\n      callvalue\n      dup1\n      iszero\n      tag_61\n      jumpi\n      0x00\n      dup1\n      revert\n    tag_61:\n      pop\n      tag_62\n      0x04\n      dup1\n      calldatasize\n      sub\n      dup2\n      add\n      swap1\n      tag_63\n      swap2\n      swap1\n      tag_57\n      jump\t// in\n    tag_63:\n      tag_64\n      jump\t// in\n    tag_62:\n      stop\n        /* \"contracts/VerdantKinFeeReflection.sol\":4923:5055  function setAutoBuyAndBurn(bool _autoBuyAndBurn) external onlyOwner nonReentrant {... */\n    tag_7:\n      callvalue\n      dup1\n      iszero\n      tag_65\n      jumpi\n      0x00\n      dup1\n      revert\n    tag_65:\n      pop\n      tag_66\n      0x04\n      dup1\n      calldatasize\n      sub\n      dup2\n      add\n      swap1\n      tag_67\n      swap2\n      swap1\n      tag_68\n      jump\t// in\n    tag_67:\n      tag_69\n      jump\t// in\n    tag_66:\n      stop\n        /* \"contracts/VerdantKinFeeReflection.sol\":1503:1529  uint256 public clubBalance */\n    tag_8:\n      callvalue\n      dup1\n      iszero\n      tag_70\n      jumpi\n      0x00\n      dup1\n      revert\n    tag_70:\n      pop\n      tag_71\n      tag_72\n      jump\t// in\n    tag_71:\n      mload(0x40)\n      tag_73\n      swap2\n      swap1\n      tag_74\n      jump\t// in\n    tag_73:\n      mload(0x40)\n      dup1\n      swap2\n      sub\n      swap1\n      return\n        /* \"contracts/VerdantKinFeeReflection.sol\":1359:1406  mapping(address => bool) public whitelistedNFTs */\n    tag_9:\n      callvalue\n      dup1\n      iszero\n      tag_75\n      jumpi\n      0x00\n      dup1\n      revert\n    tag_75:\n      pop\n      tag_76\n      0x04\n      dup1\n      calldatasize\n      sub\n      dup2\n      add\n      swap1\n      tag_77\n      swap2\n      swap1\n      tag_57\n      jump\t// in\n    tag_77:\n      tag_78\n      jump\t// in\n    tag_76:\n      mload(0x40)\n      tag_79\n      swap2\n      swap1\n      tag_60\n      jump\t// in\n    tag_79:\n      mload(0x40)\n      dup1\n      swap2\n      sub\n      swap1\n      return\n        /* \"contracts/VerdantKinFeeReflection.sol\":832:914  address public immutable DEAD_ADDRESS = 0x000000000000000000000000000000000000dEaD */\n    tag_10:\n      callvalue\n      dup1\n      iszero\n      tag_80\n      jumpi\n      0x00\n      dup1\n      revert\n    tag_80:\n      pop\n      tag_81\n      tag_82\n      jump\t// in\n    tag_81:\n      mload(0x40)\n      tag_83\n      swap2\n      swap1\n      tag_49\n      jump\t// in\n    tag_83:\n      mload(0x40)\n      dup1\n      swap2\n      sub\n      swap1\n      return\n        /* \"contracts/VerdantKinFeeReflection.sol\":5465:5737  function manualBuyAndBurn() external onlyOwner nonReentrant { // Updated: Now handles both club and core... */\n    tag_11:\n      callvalue\n      dup1\n      iszero\n      tag_84\n      jumpi\n      0x00\n      dup1\n      revert\n    tag_84:\n      pop\n      tag_85\n      tag_86\n      jump\t// in\n    tag_85:\n      stop\n        /* \"contracts/VerdantKinFeeReflection.sol\":444:487  address payable public immutable teamWallet */\n    tag_12:\n      callvalue\n      dup1\n      iszero\n      tag_87\n      jumpi\n      0x00\n      dup1\n      revert\n    tag_87:\n      pop\n      tag_88\n      tag_89\n      jump\t// in\n    tag_88:\n      mload(0x40)\n      tag_90\n      swap2\n      swap1\n      tag_91\n      jump\t// in\n    tag_90:\n      mload(0x40)\n      dup1\n      swap2\n      sub\n      swap1\n      return\n        /* \"contracts/VerdantKinFeeReflection.sol\":347:390  address payable public immutable coreWallet */\n    tag_13:\n      callvalue\n      dup1\n      iszero\n      tag_92\n      jumpi\n      0x00\n      dup1\n      revert\n    tag_92:\n      pop\n      tag_93\n      tag_94\n      jump\t// in\n    tag_93:\n      mload(0x40)\n      tag_95\n      swap2\n      swap1\n      tag_91\n      jump\t// in\n    tag_95:\n      mload(0x40)\n      dup1\n      swap2\n      sub\n      swap1\n      return\n        /* \"contracts/VerdantKinFeeReflection.sol\":735:764  address public immutable WETN */\n    tag_14:\n      callvalue\n      dup1\n      iszero\n      tag_96\n      jumpi\n      0x00\n      dup1\n      revert\n    tag_96:\n      pop\n      tag_97\n      tag_98\n      jump\t// in\n    tag_97:\n      mload(0x40)\n      tag_99\n      swap2\n      swap1\n      tag_49\n      jump\t// in\n    tag_99:\n      mload(0x40)\n      dup1\n      swap2\n      sub\n      swap1\n      return\n        /* \"contracts/VerdantKinFeeReflection.sol\":5063:5245  function setAutoBuyAndBurnCore(bool _autoBuyAndBurnCore) external onlyOwner nonReentrant { // Add: Setter for core auto-burn... */\n    tag_15:\n      callvalue\n      dup1\n      iszero\n      tag_100\n      jumpi\n      0x00\n      dup1\n      revert\n    tag_100:\n      pop\n      tag_101\n      0x04\n      dup1\n      calldatasize\n      sub\n      dup2\n      add\n      swap1\n      tag_102\n      swap2\n      swap1\n      tag_68\n      jump\t// in\n    tag_102:\n      tag_103\n      jump\t// in\n    tag_101:\n      stop\n        /* \"@openzeppelin/contracts/access/Ownable.sol\":2293:2394  function renounceOwnership() public virtual onlyOwner {... */\n    tag_16:\n      callvalue\n      dup1\n      iszero\n      tag_104\n      jumpi\n      0x00\n      dup1\n      revert\n    tag_104:\n      pop\n      tag_105\n      tag_106\n      jump\t// in\n    tag_105:\n      stop\n        /* \"contracts/VerdantKinFeeReflection.sol\":1536:1562  uint256 public coreBalance */\n    tag_17:\n      callvalue\n      dup1\n      iszero\n      tag_107\n      jumpi\n      0x00\n      dup1\n      revert\n    tag_107:\n      pop\n      tag_108\n      tag_109\n      jump\t// in\n    tag_108:\n      mload(0x40)\n      tag_110\n      swap2\n      swap1\n      tag_74\n      jump\t// in\n    tag_110:\n      mload(0x40)\n      dup1\n      swap2\n      sub\n      swap1\n      return\n        /* \"contracts/VerdantKinFeeReflection.sol\":1637:1667  bool public autoBuyAndBurnCore */\n    tag_18:\n      callvalue\n      dup1\n      iszero\n      tag_111\n      jumpi\n      0x00\n      dup1\n      revert\n    tag_111:\n      pop\n      tag_112\n      tag_113\n      jump\t// in\n    tag_112:\n      mload(0x40)\n      tag_114\n      swap2\n      swap1\n      tag_60\n      jump\t// in\n    tag_114:\n      mload(0x40)\n      dup1\n      swap2\n      sub\n      swap1\n      return\n        /* \"contracts/VerdantKinFeeReflection.sol\":3375:3688  function addWhitelistedNFT(address nftContract) external onlyOwner {... */\n    tag_19:\n      callvalue\n      dup1\n      iszero\n      tag_115\n      jumpi\n      0x00\n      dup1\n      revert\n    tag_115:\n      pop\n      tag_116\n      0x04\n      dup1\n      calldatasize\n      sub\n      dup2\n      add\n      swap1\n      tag_117\n      swap2\n      swap1\n      tag_57\n      jump\t// in\n    tag_117:\n      tag_118\n      jump\t// in\n    tag_116:\n      stop\n        /* \"contracts/VerdantKinFeeReflection.sol\":1569:1595  uint256 public teamBalance */\n    tag_20:\n      callvalue\n      dup1\n      iszero\n      tag_119\n      jumpi\n      0x00\n      dup1\n      revert\n    tag_119:\n      pop\n      tag_120\n      tag_121\n      jump\t// in\n    tag_120:\n      mload(0x40)\n      tag_122\n      swap2\n      swap1\n      tag_74\n      jump\t// in\n    tag_122:\n      mload(0x40)\n      dup1\n      swap2\n      sub\n      swap1\n      return\n        /* \"@openzeppelin/contracts/access/Ownable.sol\":1638:1723  function owner() public view virtual returns (address) {... */\n    tag_21:\n      callvalue\n      dup1\n      iszero\n      tag_123\n      jumpi\n      0x00\n      dup1\n      revert\n    tag_123:\n      pop\n      tag_124\n      tag_125\n      jump\t// in\n    tag_124:\n      mload(0x40)\n      tag_126\n      swap2\n      swap1\n      tag_49\n      jump\t// in\n    tag_126:\n      mload(0x40)\n      dup1\n      swap2\n      sub\n      swap1\n      return\n        /* \"contracts/VerdantKinFeeReflection.sol\":9008:9417  function rescueETH(uint256 amount, address payable to) external onlyOwner nonReentrant {... */\n    tag_22:\n      callvalue\n      dup1\n      iszero\n      tag_127\n      jumpi\n      0x00\n      dup1\n      revert\n    tag_127:\n      pop\n      tag_128\n      0x04\n      dup1\n      calldatasize\n      sub\n      dup2\n      add\n      swap1\n      tag_129\n      swap2\n      swap1\n      tag_130\n      jump\t// in\n    tag_129:\n      tag_131\n      jump\t// in\n    tag_128:\n      stop\n        /* \"contracts/VerdantKinFeeReflection.sol\":9515:10345  function rescueTokens(address token, uint256 amount, address to) external onlyOwner nonReentrant {... */\n    tag_23:\n      callvalue\n      dup1\n      iszero\n      tag_132\n      jumpi\n      0x00\n      dup1\n      revert\n    tag_132:\n      pop\n      tag_133\n      0x04\n      dup1\n      calldatasize\n      sub\n      dup2\n      add\n      swap1\n      tag_134\n      swap2\n      swap1\n      tag_135\n      jump\t// in\n    tag_134:\n      tag_136\n      jump\t// in\n    tag_133:\n      stop\n        /* \"contracts/VerdantKinFeeReflection.sol\":1604:1630  bool public autoBuyAndBurn */\n    tag_24:\n      callvalue\n      dup1\n      iszero\n      tag_137\n      jumpi\n      0x00\n      dup1\n      revert\n    tag_137:\n      pop\n      tag_138\n      tag_139\n      jump\t// in\n    tag_138:\n      mload(0x40)\n      tag_140\n      swap2\n      swap1\n      tag_60\n      jump\t// in\n    tag_140:\n      mload(0x40)\n      dup1\n      swap2\n      sub\n      swap1\n      return\n        /* \"contracts/VerdantKinFeeReflection.sol\":4167:4827  function teamWithdraw() external onlyOwner nonReentrant {... */\n    tag_25:\n      callvalue\n      dup1\n      iszero\n      tag_141\n      jumpi\n      0x00\n      dup1\n      revert\n    tag_141:\n      pop\n      tag_142\n      tag_143\n      jump\t// in\n    tag_142:\n      stop\n        /* \"contracts/VerdantKinFeeReflection.sol\":5348:5457  function processIncomingTokens() external onlyOwnerOrWhitelistedNFT {... */\n    tag_26:\n      callvalue\n      dup1\n      iszero\n      tag_144\n      jumpi\n      0x00\n      dup1\n      revert\n    tag_144:\n      pop\n      tag_145\n      tag_146\n      jump\t// in\n    tag_145:\n      stop\n        /* \"contracts/VerdantKinFeeReflection.sol\":5745:5945  function manualBuyAndBurnCore() external onlyOwner nonReentrant { // Add: Separate manual for core only... */\n    tag_27:\n      callvalue\n      dup1\n      iszero\n      tag_147\n      jumpi\n      0x00\n      dup1\n      revert\n    tag_147:\n      pop\n      tag_148\n      tag_149\n      jump\t// in\n    tag_148:\n      stop\n        /* \"@openzeppelin/contracts/access/Ownable.sol\":2543:2758  function transferOwnership(address newOwner) public virtual onlyOwner {... */\n    tag_28:\n      callvalue\n      dup1\n      iszero\n      tag_150\n      jumpi\n      0x00\n      dup1\n      revert\n    tag_150:\n      pop\n      tag_151\n      0x04\n      dup1\n      calldatasize\n      sub\n      dup2\n      add\n      swap1\n      tag_152\n      swap2\n      swap1\n      tag_57\n      jump\t// in\n    tag_152:\n      tag_153\n      jump\t// in\n    tag_151:\n      stop\n        /* \"contracts/VerdantKinFeeReflection.sol\":922:972  address public immutable BURN_ADDRESS = address(0) */\n    tag_29:\n      callvalue\n      dup1\n      iszero\n      tag_154\n      jumpi\n      0x00\n      dup1\n      revert\n    tag_154:\n      pop\n      tag_155\n      tag_156\n      jump\t// in\n    tag_155:\n      mload(0x40)\n      tag_157\n      swap2\n      swap1\n      tag_49\n      jump\t// in\n    tag_157:\n      mload(0x40)\n      dup1\n      swap2\n      sub\n      swap1\n      return\n        /* \"contracts/VerdantKinFeeReflection.sol\":6048:7125  function _processIncomingFee(uint256 amount) internal {... */\n    tag_40:\n        /* \"contracts/VerdantKinFeeReflection.sol\":6125:6126  0 */\n      0x00\n        /* \"contracts/VerdantKinFeeReflection.sol\":6116:6122  amount */\n      dup2\n        /* \"contracts/VerdantKinFeeReflection.sol\":6116:6126  amount > 0 */\n      gt\n        /* \"contracts/VerdantKinFeeReflection.sol\":6113:6190  if(amount > 0){... */\n      iszero\n      tag_159\n      jumpi\n        /* \"contracts/VerdantKinFeeReflection.sol\":6148:6152  WETN */\n      immutable(\"0xb7020dd003fcd4d96af1507ff4dc7e2c1158f23ad0bacfdf3455869cf9fb4898\")\n        /* \"contracts/VerdantKinFeeReflection.sol\":6142:6161  IWETN(WETN).deposit */\n      0xffffffffffffffffffffffffffffffffffffffff\n      and\n      0xd0e30db0\n        /* \"contracts/VerdantKinFeeReflection.sol\":6169:6175  amount */\n      dup3\n        /* \"contracts/VerdantKinFeeReflection.sol\":6142:6178  IWETN(WETN).deposit{value: amount}() */\n      mload(0x40)\n      dup3\n      0xffffffff\n      and\n      0xe0\n      shl\n      dup2\n      mstore\n      0x04\n      add\n      0x00\n      mload(0x40)\n      dup1\n      dup4\n      sub\n      dup2\n      dup6\n      dup9\n      dup1\n      extcodesize\n      iszero\n      dup1\n      iszero\n      tag_160\n      jumpi\n      0x00\n      dup1\n      revert\n    tag_160:\n      pop\n      gas\n      call\n      iszero\n      dup1\n      iszero\n      tag_162\n      jumpi\n      returndatasize\n      0x00\n      dup1\n      returndatacopy\n      revert(0x00, returndatasize)\n    tag_162:\n      pop\n      pop\n      pop\n      pop\n      pop\n        /* \"contracts/VerdantKinFeeReflection.sol\":6113:6190  if(amount > 0){... */\n    tag_159:\n        /* \"contracts/VerdantKinFeeReflection.sol\":6218:6237  uint256 currentWetn */\n      0x00\n        /* \"contracts/VerdantKinFeeReflection.sol\":6246:6250  WETN */\n      immutable(\"0xb7020dd003fcd4d96af1507ff4dc7e2c1158f23ad0bacfdf3455869cf9fb4898\")\n        /* \"contracts/VerdantKinFeeReflection.sol\":6240:6261  IWETN(WETN).balanceOf */\n      0xffffffffffffffffffffffffffffffffffffffff\n      and\n      0x70a08231\n        /* \"contracts/VerdantKinFeeReflection.sol\":6270:6274  this */\n      address\n        /* \"contracts/VerdantKinFeeReflection.sol\":6240:6276  IWETN(WETN).balanceOf(address(this)) */\n      mload(0x40)\n      dup3\n      0xffffffff\n      and\n      0xe0\n      shl\n      dup2\n      mstore\n      0x04\n      add\n      tag_163\n      swap2\n      swap1\n      tag_49\n      jump\t// in\n    tag_163:\n      0x20\n      mload(0x40)\n      dup1\n      dup4\n      sub\n      dup2\n      dup7\n      gas\n      staticcall\n      iszero\n      dup1\n      iszero\n      tag_165\n      jumpi\n      returndatasize\n      0x00\n      dup1\n      returndatacopy\n      revert(0x00, returndatasize)\n    tag_165:\n      pop\n      pop\n      pop\n      pop\n      mload(0x40)\n      returndatasize\n      not(0x1f)\n      0x1f\n      dup3\n      add\n      and\n      dup3\n      add\n      dup1\n      0x40\n      mstore\n      pop\n      dup2\n      add\n      swap1\n      tag_166\n      swap2\n      swap1\n      tag_167\n      jump\t// in\n    tag_166:\n        /* \"contracts/VerdantKinFeeReflection.sol\":6218:6276  uint256 currentWetn = IWETN(WETN).balanceOf(address(this)) */\n      swap1\n      pop\n        /* \"contracts/VerdantKinFeeReflection.sol\":6287:6303  uint256 expected */\n      0x00\n        /* \"contracts/VerdantKinFeeReflection.sol\":6334:6345  clubBalance */\n      sload(0x05)\n        /* \"contracts/VerdantKinFeeReflection.sol\":6320:6331  teamBalance */\n      sload(0x07)\n        /* \"contracts/VerdantKinFeeReflection.sol\":6306:6317  coreBalance */\n      sload(0x06)\n        /* \"contracts/VerdantKinFeeReflection.sol\":6306:6331  coreBalance + teamBalance */\n      tag_168\n      swap2\n      swap1\n      tag_169\n      jump\t// in\n    tag_168:\n        /* \"contracts/VerdantKinFeeReflection.sol\":6306:6345  coreBalance + teamBalance + clubBalance */\n      tag_170\n      swap2\n      swap1\n      tag_169\n      jump\t// in\n    tag_170:\n        /* \"contracts/VerdantKinFeeReflection.sol\":6287:6345  uint256 expected = coreBalance + teamBalance + clubBalance */\n      swap1\n      pop\n        /* \"contracts/VerdantKinFeeReflection.sol\":6379:6387  expected */\n      dup1\n        /* \"contracts/VerdantKinFeeReflection.sol\":6364:6375  currentWetn */\n      dup3\n        /* \"contracts/VerdantKinFeeReflection.sol\":6364:6387  currentWetn >= expected */\n      lt\n      iszero\n        /* \"contracts/VerdantKinFeeReflection.sol\":6356:6405  require(currentWetn >= expected, \"Balance error\") */\n      tag_171\n      jumpi\n      mload(0x40)\n      0x08c379a000000000000000000000000000000000000000000000000000000000\n      dup2\n      mstore\n      0x04\n      add\n      tag_172\n      swap1\n      tag_173\n      jump\t// in\n    tag_172:\n      mload(0x40)\n      dup1\n      swap2\n      sub\n      swap1\n      revert\n    tag_171:\n        /* \"contracts/VerdantKinFeeReflection.sol\":6426:6442  uint256 incoming */\n      0x00\n        /* \"contracts/VerdantKinFeeReflection.sol\":6459:6467  expected */\n      dup2\n        /* \"contracts/VerdantKinFeeReflection.sol\":6445:6456  currentWetn */\n      dup4\n        /* \"contracts/VerdantKinFeeReflection.sol\":6445:6467  currentWetn - expected */\n      tag_174\n      swap2\n      swap1\n      tag_175\n      jump\t// in\n    tag_174:\n        /* \"contracts/VerdantKinFeeReflection.sol\":6426:6467  uint256 incoming = currentWetn - expected */\n      swap1\n      pop\n        /* \"contracts/VerdantKinFeeReflection.sol\":6494:6495  0 */\n      0x00\n        /* \"contracts/VerdantKinFeeReflection.sol\":6483:6491  incoming */\n      dup2\n        /* \"contracts/VerdantKinFeeReflection.sol\":6483:6495  incoming > 0 */\n      gt\n        /* \"contracts/VerdantKinFeeReflection.sol\":6480:7118  if(incoming > 0){... */\n      iszero\n      tag_176\n      jumpi\n        /* \"contracts/VerdantKinFeeReflection.sol\":6511:6530  uint256 corePortion */\n      0x00\n        /* \"contracts/VerdantKinFeeReflection.sol\":6551:6554  100 */\n      0x64\n        /* \"contracts/VerdantKinFeeReflection.sol\":6545:6547  60 */\n      0x3c\n        /* \"contracts/VerdantKinFeeReflection.sol\":6534:6542  incoming */\n      dup4\n        /* \"contracts/VerdantKinFeeReflection.sol\":6534:6547  incoming * 60 */\n      tag_177\n      swap2\n      swap1\n      tag_178\n      jump\t// in\n    tag_177:\n        /* \"contracts/VerdantKinFeeReflection.sol\":6533:6554  (incoming * 60) / 100 */\n      tag_179\n      swap2\n      swap1\n      tag_180\n      jump\t// in\n    tag_179:\n        /* \"contracts/VerdantKinFeeReflection.sol\":6511:6554  uint256 corePortion = (incoming * 60) / 100 */\n      swap1\n      pop\n        /* \"contracts/VerdantKinFeeReflection.sol\":6569:6588  uint256 clubPortion */\n      0x00\n        /* \"contracts/VerdantKinFeeReflection.sol\":6609:6612  100 */\n      0x64\n        /* \"contracts/VerdantKinFeeReflection.sol\":6603:6605  10 */\n      0x0a\n        /* \"contracts/VerdantKinFeeReflection.sol\":6592:6600  incoming */\n      dup5\n        /* \"contracts/VerdantKinFeeReflection.sol\":6592:6605  incoming * 10 */\n      tag_181\n      swap2\n      swap1\n      tag_178\n      jump\t// in\n    tag_181:\n        /* \"contracts/VerdantKinFeeReflection.sol\":6591:6612  (incoming * 10) / 100 */\n      tag_182\n      swap2\n      swap1\n      tag_180\n      jump\t// in\n    tag_182:\n        /* \"contracts/VerdantKinFeeReflection.sol\":6569:6612  uint256 clubPortion = (incoming * 10) / 100 */\n      swap1\n      pop\n        /* \"contracts/VerdantKinFeeReflection.sol\":6627:6646  uint256 teamPortion */\n      0x00\n        /* \"contracts/VerdantKinFeeReflection.sol\":6674:6685  clubPortion */\n      dup2\n        /* \"contracts/VerdantKinFeeReflection.sol\":6660:6671  corePortion */\n      dup4\n        /* \"contracts/VerdantKinFeeReflection.sol\":6649:6657  incoming */\n      dup6\n        /* \"contracts/VerdantKinFeeReflection.sol\":6649:6671  incoming - corePortion */\n      tag_183\n      swap2\n      swap1\n      tag_175\n      jump\t// in\n    tag_183:\n        /* \"contracts/VerdantKinFeeReflection.sol\":6649:6685  incoming - corePortion - clubPortion */\n      tag_184\n      swap2\n      swap1\n      tag_175\n      jump\t// in\n    tag_184:\n        /* \"contracts/VerdantKinFeeReflection.sol\":6627:6685  uint256 teamPortion = incoming - corePortion - clubPortion */\n      swap1\n      pop\n        /* \"contracts/VerdantKinFeeReflection.sol\":6717:6728  corePortion */\n      dup3\n        /* \"contracts/VerdantKinFeeReflection.sol\":6702:6713  coreBalance */\n      0x06\n      0x00\n        /* \"contracts/VerdantKinFeeReflection.sol\":6702:6728  coreBalance += corePortion */\n      dup3\n      dup3\n      sload\n      tag_185\n      swap2\n      swap1\n      tag_169\n      jump\t// in\n    tag_185:\n      swap3\n      pop\n      pop\n      dup2\n      swap1\n      sstore\n      pop\n        /* \"contracts/VerdantKinFeeReflection.sol\":6758:6769  teamPortion */\n      dup1\n        /* \"contracts/VerdantKinFeeReflection.sol\":6743:6754  teamBalance */\n      0x07\n      0x00\n        /* \"contracts/VerdantKinFeeReflection.sol\":6743:6769  teamBalance += teamPortion */\n      dup3\n      dup3\n      sload\n      tag_186\n      swap2\n      swap1\n      tag_169\n      jump\t// in\n    tag_186:\n      swap3\n      pop\n      pop\n      dup2\n      swap1\n      sstore\n      pop\n        /* \"contracts/VerdantKinFeeReflection.sol\":6799:6810  clubPortion */\n      dup2\n        /* \"contracts/VerdantKinFeeReflection.sol\":6784:6795  clubBalance */\n      0x05\n      0x00\n        /* \"contracts/VerdantKinFeeReflection.sol\":6784:6810  clubBalance += clubPortion */\n      dup3\n      dup3\n      sload\n      tag_187\n      swap2\n      swap1\n      tag_169\n      jump\t// in\n    tag_187:\n      swap3\n      pop\n      pop\n      dup2\n      swap1\n      sstore\n      pop\n        /* \"contracts/VerdantKinFeeReflection.sol\":6832:6893  FeeProcessed(incoming, corePortion, teamPortion, clubPortion) */\n      0x4816db49bfc91a0172699baedf430e5d308b8034f966fb25681b27c17bcd3a47\n        /* \"contracts/VerdantKinFeeReflection.sol\":6845:6853  incoming */\n      dup5\n        /* \"contracts/VerdantKinFeeReflection.sol\":6855:6866  corePortion */\n      dup5\n        /* \"contracts/VerdantKinFeeReflection.sol\":6868:6879  teamPortion */\n      dup4\n        /* \"contracts/VerdantKinFeeReflection.sol\":6881:6892  clubPortion */\n      dup6\n        /* \"contracts/VerdantKinFeeReflection.sol\":6832:6893  FeeProcessed(incoming, corePortion, teamPortion, clubPortion) */\n      mload(0x40)\n      tag_188\n      swap5\n      swap4\n      swap3\n      swap2\n      swap1\n      tag_189\n      jump\t// in\n    tag_188:\n      mload(0x40)\n      dup1\n      swap2\n      sub\n      swap1\n      log1\n        /* \"contracts/VerdantKinFeeReflection.sol\":6925:6939  autoBuyAndBurn */\n      0x08\n      0x00\n      swap1\n      sload\n      swap1\n      0x0100\n      exp\n      swap1\n      div\n      0xff\n      and\n        /* \"contracts/VerdantKinFeeReflection.sol\":6922:6988  if(autoBuyAndBurn){... */\n      iszero\n      tag_190\n      jumpi\n        /* \"contracts/VerdantKinFeeReflection.sol\":6959:6972  _buyAndBurn() */\n      tag_191\n        /* \"contracts/VerdantKinFeeReflection.sol\":6959:6970  _buyAndBurn */\n      tag_192\n        /* \"contracts/VerdantKinFeeReflection.sol\":6959:6972  _buyAndBurn() */\n      jump\t// in\n    tag_191:\n        /* \"contracts/VerdantKinFeeReflection.sol\":6922:6988  if(autoBuyAndBurn){... */\n    tag_190:\n        /* \"contracts/VerdantKinFeeReflection.sol\":7005:7023  autoBuyAndBurnCore */\n      0x08\n      0x01\n      swap1\n      sload\n      swap1\n      0x0100\n      exp\n      swap1\n      div\n      0xff\n      and\n        /* \"contracts/VerdantKinFeeReflection.sol\":7002:7107  if(autoBuyAndBurnCore){ // Add: Trigger core auto-burn... */\n      iszero\n      tag_193\n      jumpi\n        /* \"contracts/VerdantKinFeeReflection.sol\":7074:7091  _buyAndBurnCore() */\n      tag_194\n        /* \"contracts/VerdantKinFeeReflection.sol\":7074:7089  _buyAndBurnCore */\n      tag_195\n        /* \"contracts/VerdantKinFeeReflection.sol\":7074:7091  _buyAndBurnCore() */\n      jump\t// in\n    tag_194:\n        /* \"contracts/VerdantKinFeeReflection.sol\":7002:7107  if(autoBuyAndBurnCore){ // Add: Trigger core auto-burn... */\n    tag_193:\n        /* \"contracts/VerdantKinFeeReflection.sol\":6496:7118  {... */\n      pop\n      pop\n      pop\n        /* \"contracts/VerdantKinFeeReflection.sol\":6480:7118  if(incoming > 0){... */\n    tag_176:\n        /* \"contracts/VerdantKinFeeReflection.sol\":6102:7125  {... */\n      pop\n      pop\n      pop\n        /* \"contracts/VerdantKinFeeReflection.sol\":6048:7125  function _processIncomingFee(uint256 amount) internal {... */\n      pop\n      jump\t// out\n        /* \"contracts/VerdantKinFeeReflection.sol\":638:672  address public immutable coreToken */\n    tag_47:\n      immutable(\"0x4b4b9efaff899efa2095e6e12f4c7ffa5d130c6cf88a562d7f7bbc11486ed4fb\")\n      dup2\n      jump\t// out\n        /* \"contracts/VerdantKinFeeReflection.sol\":541:570  address public immutable club */\n    tag_52:\n      immutable(\"0x3884709d17f664eaba4ac467a7268cd72e3e0fe0c4e85152b1894161243c55c2\")\n      dup2\n      jump\t// out\n        /* \"contracts/VerdantKinFeeReflection.sol\":3941:4071  function isWhitelistedNFT(address nftContract) external view returns (bool) {... */\n    tag_58:\n        /* \"contracts/VerdantKinFeeReflection.sol\":4011:4015  bool */\n      0x00\n        /* \"contracts/VerdantKinFeeReflection.sol\":4035:4050  whitelistedNFTs */\n      0x04\n        /* \"contracts/VerdantKinFeeReflection.sol\":4035:4063  whitelistedNFTs[nftContract] */\n      0x00\n        /* \"contracts/VerdantKinFeeReflection.sol\":4051:4062  nftContract */\n      dup4\n        /* \"contracts/VerdantKinFeeReflection.sol\":4035:4063  whitelistedNFTs[nftContract] */\n      0xffffffffffffffffffffffffffffffffffffffff\n      and\n      0xffffffffffffffffffffffffffffffffffffffff\n      and\n      dup2\n      mstore\n      0x20\n      add\n      swap1\n      dup2\n      mstore\n      0x20\n      add\n      0x00\n      keccak256\n      0x00\n      swap1\n      sload\n      swap1\n      0x0100\n      exp\n      swap1\n      div\n      0xff\n      and\n        /* \"contracts/VerdantKinFeeReflection.sol\":4028:4063  return whitelistedNFTs[nftContract] */\n      swap1\n      pop\n        /* \"contracts/VerdantKinFeeReflection.sol\":3941:4071  function isWhitelistedNFT(address nftContract) external view returns (bool) {... */\n      swap2\n      swap1\n      pop\n      jump\t// out\n        /* \"contracts/VerdantKinFeeReflection.sol\":3696:3933  function removeWhitelistedNFT(address nftContract) external onlyOwner {... */\n    tag_64:\n        /* \"@openzeppelin/contracts/access/Ownable.sol\":1531:1544  _checkOwner() */\n      tag_198\n        /* \"@openzeppelin/contracts/access/Ownable.sol\":1531:1542  _checkOwner */\n      tag_199\n        /* \"@openzeppelin/contracts/access/Ownable.sol\":1531:1544  _checkOwner() */\n      jump\t// in\n    tag_198:\n        /* \"contracts/VerdantKinFeeReflection.sol\":3785:3800  whitelistedNFTs */\n      0x04\n        /* \"contracts/VerdantKinFeeReflection.sol\":3785:3813  whitelistedNFTs[nftContract] */\n      0x00\n        /* \"contracts/VerdantKinFeeReflection.sol\":3801:3812  nftContract */\n      dup3\n        /* \"contracts/VerdantKinFeeReflection.sol\":3785:3813  whitelistedNFTs[nftContract] */\n      0xffffffffffffffffffffffffffffffffffffffff\n      and\n      0xffffffffffffffffffffffffffffffffffffffff\n      and\n      dup2\n      mstore\n      0x20\n      add\n      swap1\n      dup2\n      mstore\n      0x20\n      add\n      0x00\n      keccak256\n      0x00\n      swap1\n      sload\n      swap1\n      0x0100\n      exp\n      swap1\n      div\n      0xff\n      and\n        /* \"contracts/VerdantKinFeeReflection.sol\":3777:3833  require(whitelistedNFTs[nftContract], \"Not whitelisted\") */\n      tag_201\n      jumpi\n      mload(0x40)\n      0x08c379a000000000000000000000000000000000000000000000000000000000\n      dup2\n      mstore\n      0x04\n      add\n      tag_202\n      swap1\n      tag_203\n      jump\t// in\n    tag_202:\n      mload(0x40)\n      dup1\n      swap2\n      sub\n      swap1\n      revert\n    tag_201:\n        /* \"contracts/VerdantKinFeeReflection.sol\":3875:3880  false */\n      0x00\n        /* \"contracts/VerdantKinFeeReflection.sol\":3844:3859  whitelistedNFTs */\n      0x04\n        /* \"contracts/VerdantKinFeeReflection.sol\":3844:3872  whitelistedNFTs[nftContract] */\n      0x00\n        /* \"contracts/VerdantKinFeeReflection.sol\":3860:3871  nftContract */\n      dup4\n        /* \"contracts/VerdantKinFeeReflection.sol\":3844:3872  whitelistedNFTs[nftContract] */\n      0xffffffffffffffffffffffffffffffffffffffff\n      and\n      0xffffffffffffffffffffffffffffffffffffffff\n      and\n      dup2\n      mstore\n      0x20\n      add\n      swap1\n      dup2\n      mstore\n      0x20\n      add\n      0x00\n      keccak256\n      0x00\n        /* \"contracts/VerdantKinFeeReflection.sol\":3844:3880  whitelistedNFTs[nftContract] = false */\n      0x0100\n      exp\n      dup2\n      sload\n      dup2\n      0xff\n      mul\n      not\n      and\n      swap1\n      dup4\n      iszero\n      iszero\n      mul\n      or\n      swap1\n      sstore\n      pop\n        /* \"contracts/VerdantKinFeeReflection.sol\":3896:3925  NFTUnwhitelisted(nftContract) */\n      0xd9ea38e99b87231f31b9da68de3c78d56418e10e2e64d338c9f438ab75681ebc\n        /* \"contracts/VerdantKinFeeReflection.sol\":3913:3924  nftContract */\n      dup2\n        /* \"contracts/VerdantKinFeeReflection.sol\":3896:3925  NFTUnwhitelisted(nftContract) */\n      mload(0x40)\n      tag_204\n      swap2\n      swap1\n      tag_49\n      jump\t// in\n    tag_204:\n      mload(0x40)\n      dup1\n      swap2\n      sub\n      swap1\n      log1\n        /* \"contracts/VerdantKinFeeReflection.sol\":3696:3933  function removeWhitelistedNFT(address nftContract) external onlyOwner {... */\n      pop\n      jump\t// out\n        /* \"contracts/VerdantKinFeeReflection.sol\":4923:5055  function setAutoBuyAndBurn(bool _autoBuyAndBurn) external onlyOwner nonReentrant {... */\n    tag_69:\n        /* \"@openzeppelin/contracts/access/Ownable.sol\":1531:1544  _checkOwner() */\n      tag_206\n        /* \"@openzeppelin/contracts/access/Ownable.sol\":1531:1542  _checkOwner */\n      tag_199\n        /* \"@openzeppelin/contracts/access/Ownable.sol\":1531:1544  _checkOwner() */\n      jump\t// in\n    tag_206:\n        /* \"@openzeppelin/contracts/utils/ReentrancyGuard.sol\":2500:2521  _nonReentrantBefore() */\n      tag_208\n        /* \"@openzeppelin/contracts/utils/ReentrancyGuard.sol\":2500:2519  _nonReentrantBefore */\n      tag_209\n        /* \"@openzeppelin/contracts/utils/ReentrancyGuard.sol\":2500:2521  _nonReentrantBefore() */\n      jump\t// in\n    tag_208:\n        /* \"contracts/VerdantKinFeeReflection.sol\":5032:5047  _autoBuyAndBurn */\n      dup1\n        /* \"contracts/VerdantKinFeeReflection.sol\":5015:5029  autoBuyAndBurn */\n      0x08\n      0x00\n        /* \"contracts/VerdantKinFeeReflection.sol\":5015:5047  autoBuyAndBurn = _autoBuyAndBurn */\n      0x0100\n      exp\n      dup2\n      sload\n      dup2\n      0xff\n      mul\n      not\n      and\n      swap1\n      dup4\n      iszero\n      iszero\n      mul\n      or\n      swap1\n      sstore\n      pop\n        /* \"@openzeppelin/contracts/utils/ReentrancyGuard.sol\":2542:2562  _nonReentrantAfter() */\n      tag_211\n        /* \"@openzeppelin/contracts/utils/ReentrancyGuard.sol\":2542:2560  _nonReentrantAfter */\n      tag_212\n        /* \"@openzeppelin/contracts/utils/ReentrancyGuard.sol\":2542:2562  _nonReentrantAfter() */\n      jump\t// in\n    tag_211:\n        /* \"contracts/VerdantKinFeeReflection.sol\":4923:5055  function setAutoBuyAndBurn(bool _autoBuyAndBurn) external onlyOwner nonReentrant {... */\n      pop\n      jump\t// out\n        /* \"contracts/VerdantKinFeeReflection.sol\":1503:1529  uint256 public clubBalance */\n    tag_72:\n      sload(0x05)\n      dup2\n      jump\t// out\n        /* \"contracts/VerdantKinFeeReflection.sol\":1359:1406  mapping(address => bool) public whitelistedNFTs */\n    tag_78:\n      mstore(0x20, 0x04)\n      dup1\n      0x00\n      mstore\n      keccak256(0x00, 0x40)\n      0x00\n      swap2\n      pop\n      sload\n      swap1\n      0x0100\n      exp\n      swap1\n      div\n      0xff\n      and\n      dup2\n      jump\t// out\n        /* \"contracts/VerdantKinFeeReflection.sol\":832:914  address public immutable DEAD_ADDRESS = 0x000000000000000000000000000000000000dEaD */\n    tag_82:\n      immutable(\"0x7d94b1fd5befe75fac04677148728067a5c7750c4535d59cf8d692301dae078c\")\n      dup2\n      jump\t// out\n        /* \"contracts/VerdantKinFeeReflection.sol\":5465:5737  function manualBuyAndBurn() external onlyOwner nonReentrant { // Updated: Now handles both club and core... */\n    tag_86:\n        /* \"@openzeppelin/contracts/access/Ownable.sol\":1531:1544  _checkOwner() */\n      tag_214\n        /* \"@openzeppelin/contracts/access/Ownable.sol\":1531:1542  _checkOwner */\n      tag_199\n        /* \"@openzeppelin/contracts/access/Ownable.sol\":1531:1544  _checkOwner() */\n      jump\t// in\n    tag_214:\n        /* \"@openzeppelin/contracts/utils/ReentrancyGuard.sol\":2500:2521  _nonReentrantBefore() */\n      tag_216\n        /* \"@openzeppelin/contracts/utils/ReentrancyGuard.sol\":2500:2519  _nonReentrantBefore */\n      tag_209\n        /* \"@openzeppelin/contracts/utils/ReentrancyGuard.sol\":2500:2521  _nonReentrantBefore() */\n      jump\t// in\n    tag_216:\n        /* \"contracts/VerdantKinFeeReflection.sol\":5601:5602  0 */\n      0x00\n        /* \"contracts/VerdantKinFeeReflection.sol\":5587:5598  clubBalance */\n      sload(0x05)\n        /* \"contracts/VerdantKinFeeReflection.sol\":5587:5602  clubBalance > 0 */\n      gt\n        /* \"contracts/VerdantKinFeeReflection.sol\":5587:5621  clubBalance > 0 || coreBalance > 0 */\n      dup1\n      tag_218\n      jumpi\n      pop\n        /* \"contracts/VerdantKinFeeReflection.sol\":5620:5621  0 */\n      0x00\n        /* \"contracts/VerdantKinFeeReflection.sol\":5606:5617  coreBalance */\n      sload(0x06)\n        /* \"contracts/VerdantKinFeeReflection.sol\":5606:5621  coreBalance > 0 */\n      gt\n        /* \"contracts/VerdantKinFeeReflection.sol\":5587:5621  clubBalance > 0 || coreBalance > 0 */\n    tag_218:\n        /* \"contracts/VerdantKinFeeReflection.sol\":5579:5645  require(clubBalance > 0 || coreBalance > 0, \"No balances to burn\") */\n      tag_219\n      jumpi\n      mload(0x40)\n      0x08c379a000000000000000000000000000000000000000000000000000000000\n      dup2\n      mstore\n      0x04\n      add\n      tag_220\n      swap1\n      tag_221\n      jump\t// in\n    tag_220:\n      mload(0x40)\n      dup1\n      swap2\n      sub\n      swap1\n      revert\n    tag_219:\n        /* \"contracts/VerdantKinFeeReflection.sol\":5656:5669  _buyAndBurn() */\n      tag_222\n        /* \"contracts/VerdantKinFeeReflection.sol\":5656:5667  _buyAndBurn */\n      tag_192\n        /* \"contracts/VerdantKinFeeReflection.sol\":5656:5669  _buyAndBurn() */\n      jump\t// in\n    tag_222:\n        /* \"contracts/VerdantKinFeeReflection.sol\":5680:5697  _buyAndBurnCore() */\n      tag_223\n        /* \"contracts/VerdantKinFeeReflection.sol\":5680:5695  _buyAndBurnCore */\n      tag_195\n        /* \"contracts/VerdantKinFeeReflection.sol\":5680:5697  _buyAndBurnCore() */\n      jump\t// in\n    tag_223:\n        /* \"@openzeppelin/contracts/utils/ReentrancyGuard.sol\":2542:2562  _nonReentrantAfter() */\n      tag_224\n        /* \"@openzeppelin/contracts/utils/ReentrancyGuard.sol\":2542:2560  _nonReentrantAfter */\n      tag_212\n        /* \"@openzeppelin/contracts/utils/ReentrancyGuard.sol\":2542:2562  _nonReentrantAfter() */\n      jump\t// in\n    tag_224:\n        /* \"contracts/VerdantKinFeeReflection.sol\":5465:5737  function manualBuyAndBurn() external onlyOwner nonReentrant { // Updated: Now handles both club and core... */\n      jump\t// out\n        /* \"contracts/VerdantKinFeeReflection.sol\":444:487  address payable public immutable teamWallet */\n    tag_89:\n      immutable(\"0x16c8a63d520d02dbd3ba67dd93cae5eadc6219145ea2099e8e9f17a2533fafa7\")\n      dup2\n      jump\t// out\n        /* \"contracts/VerdantKinFeeReflection.sol\":347:390  address payable public immutable coreWallet */\n    tag_94:\n      immutable(\"0x6ca54da2c4784ea43fd88b3402de07ae4bced597cbb19f323b7595857a6720ae\")\n      dup2\n      jump\t// out\n        /* \"contracts/VerdantKinFeeReflection.sol\":735:764  address public immutable WETN */\n    tag_98:\n      immutable(\"0xb7020dd003fcd4d96af1507ff4dc7e2c1158f23ad0bacfdf3455869cf9fb4898\")\n      dup2\n      jump\t// out\n        /* \"contracts/VerdantKinFeeReflection.sol\":5063:5245  function setAutoBuyAndBurnCore(bool _autoBuyAndBurnCore) external onlyOwner nonReentrant { // Add: Setter for core auto-burn... */\n    tag_103:\n        /* \"@openzeppelin/contracts/access/Ownable.sol\":1531:1544  _checkOwner() */\n      tag_226\n        /* \"@openzeppelin/contracts/access/Ownable.sol\":1531:1542  _checkOwner */\n      tag_199\n        /* \"@openzeppelin/contracts/access/Ownable.sol\":1531:1544  _checkOwner() */\n      jump\t// in\n    tag_226:\n        /* \"@openzeppelin/contracts/utils/ReentrancyGuard.sol\":2500:2521  _nonReentrantBefore() */\n      tag_228\n        /* \"@openzeppelin/contracts/utils/ReentrancyGuard.sol\":2500:2519  _nonReentrantBefore */\n      tag_209\n        /* \"@openzeppelin/contracts/utils/ReentrancyGuard.sol\":2500:2521  _nonReentrantBefore() */\n      jump\t// in\n    tag_228:\n        /* \"contracts/VerdantKinFeeReflection.sol\":5218:5237  _autoBuyAndBurnCore */\n      dup1\n        /* \"contracts/VerdantKinFeeReflection.sol\":5197:5215  autoBuyAndBurnCore */\n      0x08\n      0x01\n        /* \"contracts/VerdantKinFeeReflection.sol\":5197:5237  autoBuyAndBurnCore = _autoBuyAndBurnCore */\n      0x0100\n      exp\n      dup2\n      sload\n      dup2\n      0xff\n      mul\n      not\n      and\n      swap1\n      dup4\n      iszero\n      iszero\n      mul\n      or\n      swap1\n      sstore\n      pop\n        /* \"@openzeppelin/contracts/utils/ReentrancyGuard.sol\":2542:2562  _nonReentrantAfter() */\n      tag_230\n        /* \"@openzeppelin/contracts/utils/ReentrancyGuard.sol\":2542:2560  _nonReentrantAfter */\n      tag_212\n        /* \"@openzeppelin/contracts/utils/ReentrancyGuard.sol\":2542:2562  _nonReentrantAfter() */\n      jump\t// in\n    tag_230:\n        /* \"contracts/VerdantKinFeeReflection.sol\":5063:5245  function setAutoBuyAndBurnCore(bool _autoBuyAndBurnCore) external onlyOwner nonReentrant { // Add: Setter for core auto-burn... */\n      pop\n      jump\t// out\n        /* \"@openzeppelin/contracts/access/Ownable.sol\":2293:2394  function renounceOwnership() public virtual onlyOwner {... */\n    tag_106:\n        /* \"@openzeppelin/contracts/access/Ownable.sol\":1531:1544  _checkOwner() */\n      tag_232\n        /* \"@openzeppelin/contracts/access/Ownable.sol\":1531:1542  _checkOwner */\n      tag_199\n        /* \"@openzeppelin/contracts/access/Ownable.sol\":1531:1544  _checkOwner() */\n      jump\t// in\n    tag_232:\n        /* \"@openzeppelin/contracts/access/Ownable.sol\":2357:2387  _transferOwnership(address(0)) */\n      tag_234\n        /* \"@openzeppelin/contracts/access/Ownable.sol\":2384:2385  0 */\n      0x00\n        /* \"@openzeppelin/contracts/access/Ownable.sol\":2357:2375  _transferOwnership */\n      tag_235\n        /* \"@openzeppelin/contracts/access/Ownable.sol\":2357:2387  _transferOwnership(address(0)) */\n      jump\t// in\n    tag_234:\n        /* \"@openzeppelin/contracts/access/Ownable.sol\":2293:2394  function renounceOwnership() public virtual onlyOwner {... */\n      jump\t// out\n        /* \"contracts/VerdantKinFeeReflection.sol\":1536:1562  uint256 public coreBalance */\n    tag_109:\n      sload(0x06)\n      dup2\n      jump\t// out\n        /* \"contracts/VerdantKinFeeReflection.sol\":1637:1667  bool public autoBuyAndBurnCore */\n    tag_113:\n      0x08\n      0x01\n      swap1\n      sload\n      swap1\n      0x0100\n      exp\n      swap1\n      div\n      0xff\n      and\n      dup2\n      jump\t// out\n        /* \"contracts/VerdantKinFeeReflection.sol\":3375:3688  function addWhitelistedNFT(address nftContract) external onlyOwner {... */\n    tag_118:\n        /* \"@openzeppelin/contracts/access/Ownable.sol\":1531:1544  _checkOwner() */\n      tag_237\n        /* \"@openzeppelin/contracts/access/Ownable.sol\":1531:1542  _checkOwner */\n      tag_199\n        /* \"@openzeppelin/contracts/access/Ownable.sol\":1531:1544  _checkOwner() */\n      jump\t// in\n    tag_237:\n        /* \"contracts/VerdantKinFeeReflection.sol\":3484:3485  0 */\n      0x00\n        /* \"contracts/VerdantKinFeeReflection.sol\":3461:3486  nftContract != address(0) */\n      0xffffffffffffffffffffffffffffffffffffffff\n      and\n        /* \"contracts/VerdantKinFeeReflection.sol\":3461:3472  nftContract */\n      dup2\n        /* \"contracts/VerdantKinFeeReflection.sol\":3461:3486  nftContract != address(0) */\n      0xffffffffffffffffffffffffffffffffffffffff\n      and\n      sub\n        /* \"contracts/VerdantKinFeeReflection.sol\":3453:3519  require(nftContract != address(0), \"Invalid NFT contract address\") */\n      tag_239\n      jumpi\n      mload(0x40)\n      0x08c379a000000000000000000000000000000000000000000000000000000000\n      dup2\n      mstore\n      0x04\n      add\n      tag_240\n      swap1\n      tag_241\n      jump\t// in\n    tag_240:\n      mload(0x40)\n      dup1\n      swap2\n      sub\n      swap1\n      revert\n    tag_239:\n        /* \"contracts/VerdantKinFeeReflection.sol\":3539:3554  whitelistedNFTs */\n      0x04\n        /* \"contracts/VerdantKinFeeReflection.sol\":3539:3567  whitelistedNFTs[nftContract] */\n      0x00\n        /* \"contracts/VerdantKinFeeReflection.sol\":3555:3566  nftContract */\n      dup3\n        /* \"contracts/VerdantKinFeeReflection.sol\":3539:3567  whitelistedNFTs[nftContract] */\n      0xffffffffffffffffffffffffffffffffffffffff\n      and\n      0xffffffffffffffffffffffffffffffffffffffff\n      and\n      dup2\n      mstore\n      0x20\n      add\n      swap1\n      dup2\n      mstore\n      0x20\n      add\n      0x00\n      keccak256\n      0x00\n      swap1\n      sload\n      swap1\n      0x0100\n      exp\n      swap1\n      div\n      0xff\n      and\n        /* \"contracts/VerdantKinFeeReflection.sol\":3538:3567  !whitelistedNFTs[nftContract] */\n      iszero\n        /* \"contracts/VerdantKinFeeReflection.sol\":3530:3591  require(!whitelistedNFTs[nftContract], \"Already whitelisted\") */\n      tag_242\n      jumpi\n      mload(0x40)\n      0x08c379a000000000000000000000000000000000000000000000000000000000\n      dup2\n      mstore\n      0x04\n      add\n      tag_243\n      swap1\n      tag_244\n      jump\t// in\n    tag_243:\n      mload(0x40)\n      dup1\n      swap2\n      sub\n      swap1\n      revert\n    tag_242:\n        /* \"contracts/VerdantKinFeeReflection.sol\":3633:3637  true */\n      0x01\n        /* \"contracts/VerdantKinFeeReflection.sol\":3602:3617  whitelistedNFTs */\n      0x04\n        /* \"contracts/VerdantKinFeeReflection.sol\":3602:3630  whitelistedNFTs[nftContract] */\n      0x00\n        /* \"contracts/VerdantKinFeeReflection.sol\":3618:3629  nftContract */\n      dup4\n        /* \"contracts/VerdantKinFeeReflection.sol\":3602:3630  whitelistedNFTs[nftContract] */\n      0xffffffffffffffffffffffffffffffffffffffff\n      and\n      0xffffffffffffffffffffffffffffffffffffffff\n      and\n      dup2\n      mstore\n      0x20\n      add\n      swap1\n      dup2\n      mstore\n      0x20\n      add\n      0x00\n      keccak256\n      0x00\n        /* \"contracts/VerdantKinFeeReflection.sol\":3602:3637  whitelistedNFTs[nftContract] = true */\n      0x0100\n      exp\n      dup2\n      sload\n      dup2\n      0xff\n      mul\n      not\n      and\n      swap1\n      dup4\n      iszero\n      iszero\n      mul\n      or\n      swap1\n      sstore\n      pop\n        /* \"contracts/VerdantKinFeeReflection.sol\":3653:3680  NFTWhitelisted(nftContract) */\n      0x797c25843e35d46f4254028734c97d60f3f93aaccc1dd994dd6b90683fdb2486\n        /* \"contracts/VerdantKinFeeReflection.sol\":3668:3679  nftContract */\n      dup2\n        /* \"contracts/VerdantKinFeeReflection.sol\":3653:3680  NFTWhitelisted(nftContract) */\n      mload(0x40)\n      tag_245\n      swap2\n      swap1\n      tag_49\n      jump\t// in\n    tag_245:\n      mload(0x40)\n      dup1\n      swap2\n      sub\n      swap1\n      log1\n        /* \"contracts/VerdantKinFeeReflection.sol\":3375:3688  function addWhitelistedNFT(address nftContract) external onlyOwner {... */\n      pop\n      jump\t// out\n        /* \"contracts/VerdantKinFeeReflection.sol\":1569:1595  uint256 public teamBalance */\n    tag_121:\n      sload(0x07)\n      dup2\n      jump\t// out\n        /* \"@openzeppelin/contracts/access/Ownable.sol\":1638:1723  function owner() public view virtual returns (address) {... */\n    tag_125:\n        /* \"@openzeppelin/contracts/access/Ownable.sol\":1684:1691  address */\n      0x00\n        /* \"@openzeppelin/contracts/access/Ownable.sol\":1710:1716  _owner */\n      0x01\n      0x00\n      swap1\n      sload\n      swap1\n      0x0100\n      exp\n      swap1\n      div\n      0xffffffffffffffffffffffffffffffffffffffff\n      and\n        /* \"@openzeppelin/contracts/access/Ownable.sol\":1703:1716  return _owner */\n      swap1\n      pop\n        /* \"@openzeppelin/contracts/access/Ownable.sol\":1638:1723  function owner() public view virtual returns (address) {... */\n      swap1\n      jump\t// out\n        /* \"contracts/VerdantKinFeeReflection.sol\":9008:9417  function rescueETH(uint256 amount, address payable to) external onlyOwner nonReentrant {... */\n    tag_131:\n        /* \"@openzeppelin/contracts/access/Ownable.sol\":1531:1544  _checkOwner() */\n      tag_248\n        /* \"@openzeppelin/contracts/access/Ownable.sol\":1531:1542  _checkOwner */\n      tag_199\n        /* \"@openzeppelin/contracts/access/Ownable.sol\":1531:1544  _checkOwner() */\n      jump\t// in\n    tag_248:\n        /* \"@openzeppelin/contracts/utils/ReentrancyGuard.sol\":2500:2521  _nonReentrantBefore() */\n      tag_250\n        /* \"@openzeppelin/contracts/utils/ReentrancyGuard.sol\":2500:2519  _nonReentrantBefore */\n      tag_209\n        /* \"@openzeppelin/contracts/utils/ReentrancyGuard.sol\":2500:2521  _nonReentrantBefore() */\n      jump\t// in\n    tag_250:\n        /* \"contracts/VerdantKinFeeReflection.sol\":9128:9129  0 */\n      0x00\n        /* \"contracts/VerdantKinFeeReflection.sol\":9114:9130  to != address(0) */\n      0xffffffffffffffffffffffffffffffffffffffff\n      and\n        /* \"contracts/VerdantKinFeeReflection.sol\":9114:9116  to */\n      dup2\n        /* \"contracts/VerdantKinFeeReflection.sol\":9114:9130  to != address(0) */\n      0xffffffffffffffffffffffffffffffffffffffff\n      and\n      sub\n        /* \"contracts/VerdantKinFeeReflection.sol\":9106:9152  require(to != address(0), \"Invalid recipient\") */\n      tag_252\n      jumpi\n      mload(0x40)\n      0x08c379a000000000000000000000000000000000000000000000000000000000\n      dup2\n      mstore\n      0x04\n      add\n      tag_253\n      swap1\n      tag_254\n      jump\t// in\n    tag_253:\n      mload(0x40)\n      dup1\n      swap2\n      sub\n      swap1\n      revert\n    tag_252:\n        /* \"contracts/VerdantKinFeeReflection.sol\":9163:9182  uint256 contractETH */\n      0x00\n        /* \"contracts/VerdantKinFeeReflection.sol\":9185:9206  address(this).balance */\n      selfbalance\n        /* \"contracts/VerdantKinFeeReflection.sol\":9163:9206  uint256 contractETH = address(this).balance */\n      swap1\n      pop\n        /* \"contracts/VerdantKinFeeReflection.sol\":9235:9246  contractETH */\n      dup1\n        /* \"contracts/VerdantKinFeeReflection.sol\":9225:9231  amount */\n      dup4\n        /* \"contracts/VerdantKinFeeReflection.sol\":9225:9246  amount <= contractETH */\n      gt\n      iszero\n        /* \"contracts/VerdantKinFeeReflection.sol\":9217:9265  require(amount <= contractETH, \"Not enough ETH\") */\n      tag_255\n      jumpi\n      mload(0x40)\n      0x08c379a000000000000000000000000000000000000000000000000000000000\n      dup2\n      mstore\n      0x04\n      add\n      tag_256\n      swap1\n      tag_257\n      jump\t// in\n    tag_256:\n      mload(0x40)\n      dup1\n      swap2\n      sub\n      swap1\n      revert\n    tag_255:\n        /* \"contracts/VerdantKinFeeReflection.sol\":9277:9289  bool success */\n      0x00\n        /* \"contracts/VerdantKinFeeReflection.sol\":9295:9297  to */\n      dup3\n        /* \"contracts/VerdantKinFeeReflection.sol\":9295:9302  to.call */\n      0xffffffffffffffffffffffffffffffffffffffff\n      and\n        /* \"contracts/VerdantKinFeeReflection.sol\":9310:9316  amount */\n      dup5\n        /* \"contracts/VerdantKinFeeReflection.sol\":9295:9321  to.call{value: amount}(\"\") */\n      mload(0x40)\n      tag_258\n      swap1\n      tag_259\n      jump\t// in\n    tag_258:\n      0x00\n      mload(0x40)\n      dup1\n      dup4\n      sub\n      dup2\n      dup6\n      dup8\n      gas\n      call\n      swap3\n      pop\n      pop\n      pop\n      returndatasize\n      dup1\n      0x00\n      dup2\n      eq\n      tag_262\n      jumpi\n      mload(0x40)\n      swap2\n      pop\n      and(add(returndatasize, 0x3f), not(0x1f))\n      dup3\n      add\n      0x40\n      mstore\n      returndatasize\n      dup3\n      mstore\n      returndatasize\n      0x00\n      0x20\n      dup5\n      add\n      returndatacopy\n      jump(tag_261)\n    tag_262:\n      0x60\n      swap2\n      pop\n    tag_261:\n      pop\n        /* \"contracts/VerdantKinFeeReflection.sol\":9276:9321  (bool success, ) = to.call{value: amount}(\"\") */\n      pop\n      swap1\n      pop\n        /* \"contracts/VerdantKinFeeReflection.sol\":9340:9347  success */\n      dup1\n        /* \"contracts/VerdantKinFeeReflection.sol\":9332:9371  require(success, \"ETH transfer failed\") */\n      tag_263\n      jumpi\n      mload(0x40)\n      0x08c379a000000000000000000000000000000000000000000000000000000000\n      dup2\n      mstore\n      0x04\n      add\n      tag_264\n      swap1\n      tag_265\n      jump\t// in\n    tag_264:\n      mload(0x40)\n      dup1\n      swap2\n      sub\n      swap1\n      revert\n    tag_263:\n        /* \"contracts/VerdantKinFeeReflection.sol\":9387:9409  ETHRescued(amount, to) */\n      0xcd7fef3a642dcf99ce1004b2a15d31e91398f01974500b64eab8fc50fef2d3b1\n        /* \"contracts/VerdantKinFeeReflection.sol\":9398:9404  amount */\n      dup5\n        /* \"contracts/VerdantKinFeeReflection.sol\":9406:9408  to */\n      dup5\n        /* \"contracts/VerdantKinFeeReflection.sol\":9387:9409  ETHRescued(amount, to) */\n      mload(0x40)\n      tag_266\n      swap3\n      swap2\n      swap1\n      tag_267\n      jump\t// in\n    tag_266:\n      mload(0x40)\n      dup1\n      swap2\n      sub\n      swap1\n      log1\n        /* \"contracts/VerdantKinFeeReflection.sol\":9095:9417  {... */\n      pop\n      pop\n        /* \"@openzeppelin/contracts/utils/ReentrancyGuard.sol\":2542:2562  _nonReentrantAfter() */\n      tag_268\n        /* \"@openzeppelin/contracts/utils/ReentrancyGuard.sol\":2542:2560  _nonReentrantAfter */\n      tag_212\n        /* \"@openzeppelin/contracts/utils/ReentrancyGuard.sol\":2542:2562  _nonReentrantAfter() */\n      jump\t// in\n    tag_268:\n        /* \"contracts/VerdantKinFeeReflection.sol\":9008:9417  function rescueETH(uint256 amount, address payable to) external onlyOwner nonReentrant {... */\n      pop\n      pop\n      jump\t// out\n        /* \"contracts/VerdantKinFeeReflection.sol\":9515:10345  function rescueTokens(address token, uint256 amount, address to) external onlyOwner nonReentrant {... */\n    tag_136:\n        /* \"@openzeppelin/contracts/access/Ownable.sol\":1531:1544  _checkOwner() */\n      tag_270\n        /* \"@openzeppelin/contracts/access/Ownable.sol\":1531:1542  _checkOwner */\n      tag_199\n        /* \"@openzeppelin/contracts/access/Ownable.sol\":1531:1544  _checkOwner() */\n      jump\t// in\n    tag_270:\n        /* \"@openzeppelin/contracts/utils/ReentrancyGuard.sol\":2500:2521  _nonReentrantBefore() */\n      tag_272\n        /* \"@openzeppelin/contracts/utils/ReentrancyGuard.sol\":2500:2519  _nonReentrantBefore */\n      tag_209\n        /* \"@openzeppelin/contracts/utils/ReentrancyGuard.sol\":2500:2521  _nonReentrantBefore() */\n      jump\t// in\n    tag_272:\n        /* \"contracts/VerdantKinFeeReflection.sol\":9645:9646  0 */\n      0x00\n        /* \"contracts/VerdantKinFeeReflection.sol\":9631:9647  to != address(0) */\n      0xffffffffffffffffffffffffffffffffffffffff\n      and\n        /* \"contracts/VerdantKinFeeReflection.sol\":9631:9633  to */\n      dup2\n        /* \"contracts/VerdantKinFeeReflection.sol\":9631:9647  to != address(0) */\n      0xffffffffffffffffffffffffffffffffffffffff\n      and\n      sub\n        /* \"contracts/VerdantKinFeeReflection.sol\":9623:9669  require(to != address(0), \"Invalid recipient\") */\n      tag_274\n      jumpi\n      mload(0x40)\n      0x08c379a000000000000000000000000000000000000000000000000000000000\n      dup2\n      mstore\n      0x04\n      add\n      tag_275\n      swap1\n      tag_254\n      jump\t// in\n    tag_275:\n      mload(0x40)\n      dup1\n      swap2\n      sub\n      swap1\n      revert\n    tag_274:\n        /* \"contracts/VerdantKinFeeReflection.sol\":9680:9692  IERC20 erc20 */\n      0x00\n        /* \"contracts/VerdantKinFeeReflection.sol\":9702:9707  token */\n      dup4\n        /* \"contracts/VerdantKinFeeReflection.sol\":9680:9708  IERC20 erc20 = IERC20(token) */\n      swap1\n      pop\n        /* \"contracts/VerdantKinFeeReflection.sol\":9719:9734  uint256 balance */\n      0x00\n        /* \"contracts/VerdantKinFeeReflection.sol\":9737:9742  erc20 */\n      dup2\n        /* \"contracts/VerdantKinFeeReflection.sol\":9737:9752  erc20.balanceOf */\n      0xffffffffffffffffffffffffffffffffffffffff\n      and\n      0x70a08231\n        /* \"contracts/VerdantKinFeeReflection.sol\":9761:9765  this */\n      address\n        /* \"contracts/VerdantKinFeeReflection.sol\":9737:9767  erc20.balanceOf(address(this)) */\n      mload(0x40)\n      dup3\n      0xffffffff\n      and\n      0xe0\n      shl\n      dup2\n      mstore\n      0x04\n      add\n      tag_276\n      swap2\n      swap1\n      tag_49\n      jump\t// in\n    tag_276:\n      0x20\n      mload(0x40)\n      dup1\n      dup4\n      sub\n      dup2\n      dup7\n      gas\n      staticcall\n      iszero\n      dup1\n      iszero\n      tag_278\n      jumpi\n      returndatasize\n      0x00\n      dup1\n      returndatacopy\n      revert(0x00, returndatasize)\n    tag_278:\n      pop\n      pop\n      pop\n      pop\n      mload(0x40)\n      returndatasize\n      not(0x1f)\n      0x1f\n      dup3\n      add\n      and\n      dup3\n      add\n      dup1\n      0x40\n      mstore\n      pop\n      dup2\n      add\n      swap1\n      tag_279\n      swap2\n      swap1\n      tag_167\n      jump\t// in\n    tag_279:\n        /* \"contracts/VerdantKinFeeReflection.sol\":9719:9767  uint256 balance = erc20.balanceOf(address(this)) */\n      swap1\n      pop\n        /* \"contracts/VerdantKinFeeReflection.sol\":9796:9803  balance */\n      dup1\n        /* \"contracts/VerdantKinFeeReflection.sol\":9786:9792  amount */\n      dup5\n        /* \"contracts/VerdantKinFeeReflection.sol\":9786:9803  amount <= balance */\n      gt\n      iszero\n        /* \"contracts/VerdantKinFeeReflection.sol\":9778:9832  require(amount <= balance, \"Not enough token balance\") */\n      tag_280\n      jumpi\n      mload(0x40)\n      0x08c379a000000000000000000000000000000000000000000000000000000000\n      dup2\n      mstore\n      0x04\n      add\n      tag_281\n      swap1\n      tag_282\n      jump\t// in\n    tag_281:\n      mload(0x40)\n      dup1\n      swap2\n      sub\n      swap1\n      revert\n    tag_280:\n        /* \"contracts/VerdantKinFeeReflection.sol\":9926:9930  WETN */\n      immutable(\"0xb7020dd003fcd4d96af1507ff4dc7e2c1158f23ad0bacfdf3455869cf9fb4898\")\n        /* \"contracts/VerdantKinFeeReflection.sol\":9917:9930  token == WETN */\n      0xffffffffffffffffffffffffffffffffffffffff\n      and\n        /* \"contracts/VerdantKinFeeReflection.sol\":9917:9922  token */\n      dup6\n        /* \"contracts/VerdantKinFeeReflection.sol\":9917:9930  token == WETN */\n      0xffffffffffffffffffffffffffffffffffffffff\n      and\n      sub\n        /* \"contracts/VerdantKinFeeReflection.sol\":9913:10190  if (token == WETN) {... */\n      tag_283\n      jumpi\n        /* \"contracts/VerdantKinFeeReflection.sol\":9947:9970  uint256 protectedAmount */\n      0x00\n        /* \"contracts/VerdantKinFeeReflection.sol\":10001:10012  clubBalance */\n      sload(0x05)\n        /* \"contracts/VerdantKinFeeReflection.sol\":9987:9998  teamBalance */\n      sload(0x07)\n        /* \"contracts/VerdantKinFeeReflection.sol\":9973:9984  coreBalance */\n      sload(0x06)\n        /* \"contracts/VerdantKinFeeReflection.sol\":9973:9998  coreBalance + teamBalance */\n      tag_284\n      swap2\n      swap1\n      tag_169\n      jump\t// in\n    tag_284:\n        /* \"contracts/VerdantKinFeeReflection.sol\":9973:10012  coreBalance + teamBalance + clubBalance */\n      tag_285\n      swap2\n      swap1\n      tag_169\n      jump\t// in\n    tag_285:\n        /* \"contracts/VerdantKinFeeReflection.sol\":9947:10012  uint256 protectedAmount = coreBalance + teamBalance + clubBalance */\n      swap1\n      pop\n        /* \"contracts/VerdantKinFeeReflection.sol\":10045:10060  protectedAmount */\n      dup1\n        /* \"contracts/VerdantKinFeeReflection.sol\":10035:10042  balance */\n      dup3\n        /* \"contracts/VerdantKinFeeReflection.sol\":10035:10060  balance > protectedAmount */\n      gt\n        /* \"contracts/VerdantKinFeeReflection.sol\":10027:10089  require(balance > protectedAmount, \"No excess WETN to rescue\") */\n      tag_286\n      jumpi\n      mload(0x40)\n      0x08c379a000000000000000000000000000000000000000000000000000000000\n      dup2\n      mstore\n      0x04\n      add\n      tag_287\n      swap1\n      tag_288\n      jump\t// in\n    tag_287:\n      mload(0x40)\n      dup1\n      swap2\n      sub\n      swap1\n      revert\n    tag_286:\n        /* \"contracts/VerdantKinFeeReflection.sol\":10132:10147  protectedAmount */\n      dup1\n        /* \"contracts/VerdantKinFeeReflection.sol\":10122:10129  balance */\n      dup3\n        /* \"contracts/VerdantKinFeeReflection.sol\":10122:10147  balance - protectedAmount */\n      tag_289\n      swap2\n      swap1\n      tag_175\n      jump\t// in\n    tag_289:\n        /* \"contracts/VerdantKinFeeReflection.sol\":10112:10118  amount */\n      dup6\n        /* \"contracts/VerdantKinFeeReflection.sol\":10112:10147  amount <= balance - protectedAmount */\n      gt\n      iszero\n        /* \"contracts/VerdantKinFeeReflection.sol\":10104:10178  require(amount <= balance - protectedAmount, \"Amount exceeds excess WETN\") */\n      tag_290\n      jumpi\n      mload(0x40)\n      0x08c379a000000000000000000000000000000000000000000000000000000000\n      dup2\n      mstore\n      0x04\n      add\n      tag_291\n      swap1\n      tag_292\n      jump\t// in\n    tag_291:\n      mload(0x40)\n      dup1\n      swap2\n      sub\n      swap1\n      revert\n    tag_290:\n        /* \"contracts/VerdantKinFeeReflection.sol\":9932:10190  {... */\n      pop\n        /* \"contracts/VerdantKinFeeReflection.sol\":9913:10190  if (token == WETN) {... */\n    tag_283:\n        /* \"contracts/VerdantKinFeeReflection.sol\":10202:10211  bool sent */\n      0x00\n        /* \"contracts/VerdantKinFeeReflection.sol\":10214:10219  erc20 */\n      dup3\n        /* \"contracts/VerdantKinFeeReflection.sol\":10214:10228  erc20.transfer */\n      0xffffffffffffffffffffffffffffffffffffffff\n      and\n      0xa9059cbb\n        /* \"contracts/VerdantKinFeeReflection.sol\":10229:10231  to */\n      dup6\n        /* \"contracts/VerdantKinFeeReflection.sol\":10233:10239  amount */\n      dup8\n        /* \"contracts/VerdantKinFeeReflection.sol\":10214:10240  erc20.transfer(to, amount) */\n      mload(0x40)\n      dup4\n      0xffffffff\n      and\n      0xe0\n      shl\n      dup2\n      mstore\n      0x04\n      add\n      tag_293\n      swap3\n      swap2\n      swap1\n      tag_294\n      jump\t// in\n    tag_293:\n      0x20\n      mload(0x40)\n      dup1\n      dup4\n      sub\n      dup2\n      0x00\n      dup8\n      gas\n      call\n      iszero\n      dup1\n      iszero\n      tag_296\n      jumpi\n      returndatasize\n      0x00\n      dup1\n      returndatacopy\n      revert(0x00, returndatasize)\n    tag_296:\n      pop\n      pop\n      pop\n      pop\n      mload(0x40)\n      returndatasize\n      not(0x1f)\n      0x1f\n      dup3\n      add\n      and\n      dup3\n      add\n      dup1\n      0x40\n      mstore\n      pop\n      dup2\n      add\n      swap1\n      tag_297\n      swap2\n      swap1\n      tag_298\n      jump\t// in\n    tag_297:\n        /* \"contracts/VerdantKinFeeReflection.sol\":10202:10240  bool sent = erc20.transfer(to, amount) */\n      swap1\n      pop\n        /* \"contracts/VerdantKinFeeReflection.sol\":10259:10263  sent */\n      dup1\n        /* \"contracts/VerdantKinFeeReflection.sol\":10251:10289  require(sent, \"Token transfer failed\") */\n      tag_299\n      jumpi\n      mload(0x40)\n      0x08c379a000000000000000000000000000000000000000000000000000000000\n      dup2\n      mstore\n      0x04\n      add\n      tag_300\n      swap1\n      tag_301\n      jump\t// in\n    tag_300:\n      mload(0x40)\n      dup1\n      swap2\n      sub\n      swap1\n      revert\n    tag_299:\n        /* \"contracts/VerdantKinFeeReflection.sol\":10305:10337  TokensRescued(token, amount, to) */\n      0xfb475a842bad10d3800b61bd1a92e716051afba979b124b583bd99a2d1d7bfd5\n        /* \"contracts/VerdantKinFeeReflection.sol\":10319:10324  token */\n      dup7\n        /* \"contracts/VerdantKinFeeReflection.sol\":10326:10332  amount */\n      dup7\n        /* \"contracts/VerdantKinFeeReflection.sol\":10334:10336  to */\n      dup7\n        /* \"contracts/VerdantKinFeeReflection.sol\":10305:10337  TokensRescued(token, amount, to) */\n      mload(0x40)\n      tag_302\n      swap4\n      swap3\n      swap2\n      swap1\n      tag_303\n      jump\t// in\n    tag_302:\n      mload(0x40)\n      dup1\n      swap2\n      sub\n      swap1\n      log1\n        /* \"contracts/VerdantKinFeeReflection.sol\":9612:10345  {... */\n      pop\n      pop\n      pop\n        /* \"@openzeppelin/contracts/utils/ReentrancyGuard.sol\":2542:2562  _nonReentrantAfter() */\n      tag_304\n        /* \"@openzeppelin/contracts/utils/ReentrancyGuard.sol\":2542:2560  _nonReentrantAfter */\n      tag_212\n        /* \"@openzeppelin/contracts/utils/ReentrancyGuard.sol\":2542:2562  _nonReentrantAfter() */\n      jump\t// in\n    tag_304:\n        /* \"contracts/VerdantKinFeeReflection.sol\":9515:10345  function rescueTokens(address token, uint256 amount, address to) external onlyOwner nonReentrant {... */\n      pop\n      pop\n      pop\n      jump\t// out\n        /* \"contracts/VerdantKinFeeReflection.sol\":1604:1630  bool public autoBuyAndBurn */\n    tag_139:\n      0x08\n      0x00\n      swap1\n      sload\n      swap1\n      0x0100\n      exp\n      swap1\n      div\n      0xff\n      and\n      dup2\n      jump\t// out\n        /* \"contracts/VerdantKinFeeReflection.sol\":4167:4827  function teamWithdraw() external onlyOwner nonReentrant {... */\n    tag_143:\n        /* \"@openzeppelin/contracts/access/Ownable.sol\":1531:1544  _checkOwner() */\n      tag_306\n        /* \"@openzeppelin/contracts/access/Ownable.sol\":1531:1542  _checkOwner */\n      tag_199\n        /* \"@openzeppelin/contracts/access/Ownable.sol\":1531:1544  _checkOwner() */\n      jump\t// in\n    tag_306:\n        /* \"@openzeppelin/contracts/utils/ReentrancyGuard.sol\":2500:2521  _nonReentrantBefore() */\n      tag_308\n        /* \"@openzeppelin/contracts/utils/ReentrancyGuard.sol\":2500:2519  _nonReentrantBefore */\n      tag_209\n        /* \"@openzeppelin/contracts/utils/ReentrancyGuard.sol\":2500:2521  _nonReentrantBefore() */\n      jump\t// in\n    tag_308:\n        /* \"contracts/VerdantKinFeeReflection.sol\":4234:4256  _processIncomingFee(0) */\n      tag_310\n        /* \"contracts/VerdantKinFeeReflection.sol\":4254:4255  0 */\n      0x00\n        /* \"contracts/VerdantKinFeeReflection.sol\":4234:4253  _processIncomingFee */\n      tag_40\n        /* \"contracts/VerdantKinFeeReflection.sol\":4234:4256  _processIncomingFee(0) */\n      jump\t// in\n    tag_310:\n        /* \"contracts/VerdantKinFeeReflection.sol\":4269:4292  uint256 totalToWithdraw */\n      0x00\n        /* \"contracts/VerdantKinFeeReflection.sol\":4309:4320  teamBalance */\n      sload(0x07)\n        /* \"contracts/VerdantKinFeeReflection.sol\":4295:4306  coreBalance */\n      sload(0x06)\n        /* \"contracts/VerdantKinFeeReflection.sol\":4295:4320  coreBalance + teamBalance */\n      tag_311\n      swap2\n      swap1\n      tag_169\n      jump\t// in\n    tag_311:\n        /* \"contracts/VerdantKinFeeReflection.sol\":4269:4320  uint256 totalToWithdraw = coreBalance + teamBalance */\n      swap1\n      pop\n        /* \"contracts/VerdantKinFeeReflection.sol\":4353:4354  0 */\n      0x00\n        /* \"contracts/VerdantKinFeeReflection.sol\":4335:4350  totalToWithdraw */\n      dup2\n        /* \"contracts/VerdantKinFeeReflection.sol\":4335:4354  totalToWithdraw > 0 */\n      gt\n        /* \"contracts/VerdantKinFeeReflection.sol\":4331:4420  if (totalToWithdraw > 0) {... */\n      iszero\n      tag_312\n      jumpi\n        /* \"contracts/VerdantKinFeeReflection.sol\":4377:4381  WETN */\n      immutable(\"0xb7020dd003fcd4d96af1507ff4dc7e2c1158f23ad0bacfdf3455869cf9fb4898\")\n        /* \"contracts/VerdantKinFeeReflection.sol\":4371:4391  IWETN(WETN).withdraw */\n      0xffffffffffffffffffffffffffffffffffffffff\n      and\n      0x2e1a7d4d\n        /* \"contracts/VerdantKinFeeReflection.sol\":4392:4407  totalToWithdraw */\n      dup3\n        /* \"contracts/VerdantKinFeeReflection.sol\":4371:4408  IWETN(WETN).withdraw(totalToWithdraw) */\n      mload(0x40)\n      dup3\n      0xffffffff\n      and\n      0xe0\n      shl\n      dup2\n      mstore\n      0x04\n      add\n      tag_313\n      swap2\n      swap1\n      tag_74\n      jump\t// in\n    tag_313:\n      0x00\n      mload(0x40)\n      dup1\n      dup4\n      sub\n      dup2\n      0x00\n      dup8\n      dup1\n      extcodesize\n      iszero\n      dup1\n      iszero\n      tag_314\n      jumpi\n      0x00\n      dup1\n      revert\n    tag_314:\n      pop\n      gas\n      call\n      iszero\n      dup1\n      iszero\n      tag_316\n      jumpi\n      returndatasize\n      0x00\n      dup1\n      returndatacopy\n      revert(0x00, returndatasize)\n    tag_316:\n      pop\n      pop\n      pop\n      pop\n        /* \"contracts/VerdantKinFeeReflection.sol\":4331:4420  if (totalToWithdraw > 0) {... */\n    tag_312:\n        /* \"contracts/VerdantKinFeeReflection.sol\":4450:4451  0 */\n      0x00\n        /* \"contracts/VerdantKinFeeReflection.sol\":4436:4447  coreBalance */\n      sload(0x06)\n        /* \"contracts/VerdantKinFeeReflection.sol\":4436:4451  coreBalance > 0 */\n      gt\n        /* \"contracts/VerdantKinFeeReflection.sol\":4432:4620  if (coreBalance > 0) {... */\n      iszero\n      tag_317\n      jumpi\n        /* \"contracts/VerdantKinFeeReflection.sol\":4469:4476  bool s1 */\n      0x00\n        /* \"contracts/VerdantKinFeeReflection.sol\":4482:4492  coreWallet */\n      immutable(\"0x6ca54da2c4784ea43fd88b3402de07ae4bced597cbb19f323b7595857a6720ae\")\n        /* \"contracts/VerdantKinFeeReflection.sol\":4482:4497  coreWallet.call */\n      0xffffffffffffffffffffffffffffffffffffffff\n      and\n        /* \"contracts/VerdantKinFeeReflection.sol\":4505:4516  coreBalance */\n      sload(0x06)\n        /* \"contracts/VerdantKinFeeReflection.sol\":4482:4521  coreWallet.call{value: coreBalance}(\"\") */\n      mload(0x40)\n      tag_318\n      swap1\n      tag_259\n      jump\t// in\n    tag_318:\n      0x00\n      mload(0x40)\n      dup1\n      dup4\n      sub\n      dup2\n      dup6\n      dup8\n      gas\n      call\n      swap3\n      pop\n      pop\n      pop\n      returndatasize\n      dup1\n      0x00\n      dup2\n      eq\n      tag_321\n      jumpi\n      mload(0x40)\n      swap2\n      pop\n      and(add(returndatasize, 0x3f), not(0x1f))\n      dup3\n      add\n      0x40\n      mstore\n      returndatasize\n      dup3\n      mstore\n      returndatasize\n      0x00\n      0x20\n      dup5\n      add\n      returndatacopy\n      jump(tag_320)\n    tag_321:\n      0x60\n      swap2\n      pop\n    tag_320:\n      pop\n        /* \"contracts/VerdantKinFeeReflection.sol\":4468:4521  (bool s1, ) = coreWallet.call{value: coreBalance}(\"\") */\n      pop\n      swap1\n      pop\n        /* \"contracts/VerdantKinFeeReflection.sol\":4544:4546  s1 */\n      dup1\n        /* \"contracts/VerdantKinFeeReflection.sol\":4536:4578  require(s1, \"Core wallet transfer failed\") */\n      tag_322\n      jumpi\n      mload(0x40)\n      0x08c379a000000000000000000000000000000000000000000000000000000000\n      dup2\n      mstore\n      0x04\n      add\n      tag_323\n      swap1\n      tag_324\n      jump\t// in\n    tag_323:\n      mload(0x40)\n      dup1\n      swap2\n      sub\n      swap1\n      revert\n    tag_322:\n        /* \"contracts/VerdantKinFeeReflection.sol\":4607:4608  0 */\n      0x00\n        /* \"contracts/VerdantKinFeeReflection.sol\":4593:4604  coreBalance */\n      0x06\n        /* \"contracts/VerdantKinFeeReflection.sol\":4593:4608  coreBalance = 0 */\n      dup2\n      swap1\n      sstore\n      pop\n        /* \"contracts/VerdantKinFeeReflection.sol\":4453:4620  {... */\n      pop\n        /* \"contracts/VerdantKinFeeReflection.sol\":4432:4620  if (coreBalance > 0) {... */\n    tag_317:\n        /* \"contracts/VerdantKinFeeReflection.sol\":4650:4651  0 */\n      0x00\n        /* \"contracts/VerdantKinFeeReflection.sol\":4636:4647  teamBalance */\n      sload(0x07)\n        /* \"contracts/VerdantKinFeeReflection.sol\":4636:4651  teamBalance > 0 */\n      gt\n        /* \"contracts/VerdantKinFeeReflection.sol\":4632:4820  if (teamBalance > 0) {... */\n      iszero\n      tag_325\n      jumpi\n        /* \"contracts/VerdantKinFeeReflection.sol\":4669:4676  bool s2 */\n      0x00\n        /* \"contracts/VerdantKinFeeReflection.sol\":4682:4692  teamWallet */\n      immutable(\"0x16c8a63d520d02dbd3ba67dd93cae5eadc6219145ea2099e8e9f17a2533fafa7\")\n        /* \"contracts/VerdantKinFeeReflection.sol\":4682:4697  teamWallet.call */\n      0xffffffffffffffffffffffffffffffffffffffff\n      and\n        /* \"contracts/VerdantKinFeeReflection.sol\":4705:4716  teamBalance */\n      sload(0x07)\n        /* \"contracts/VerdantKinFeeReflection.sol\":4682:4721  teamWallet.call{value: teamBalance}(\"\") */\n      mload(0x40)\n      tag_326\n      swap1\n      tag_259\n      jump\t// in\n    tag_326:\n      0x00\n      mload(0x40)\n      dup1\n      dup4\n      sub\n      dup2\n      dup6\n      dup8\n      gas\n      call\n      swap3\n      pop\n      pop\n      pop\n      returndatasize\n      dup1\n      0x00\n      dup2\n      eq\n      tag_329\n      jumpi\n      mload(0x40)\n      swap2\n      pop\n      and(add(returndatasize, 0x3f), not(0x1f))\n      dup3\n      add\n      0x40\n      mstore\n      returndatasize\n      dup3\n      mstore\n      returndatasize\n      0x00\n      0x20\n      dup5\n      add\n      returndatacopy\n      jump(tag_328)\n    tag_329:\n      0x60\n      swap2\n      pop\n    tag_328:\n      pop\n        /* \"contracts/VerdantKinFeeReflection.sol\":4668:4721  (bool s2, ) = teamWallet.call{value: teamBalance}(\"\") */\n      pop\n      swap1\n      pop\n        /* \"contracts/VerdantKinFeeReflection.sol\":4744:4746  s2 */\n      dup1\n        /* \"contracts/VerdantKinFeeReflection.sol\":4736:4778  require(s2, \"Team wallet transfer failed\") */\n      tag_330\n      jumpi\n      mload(0x40)\n      0x08c379a000000000000000000000000000000000000000000000000000000000\n      dup2\n      mstore\n      0x04\n      add\n      tag_331\n      swap1\n      tag_332\n      jump\t// in\n    tag_331:\n      mload(0x40)\n      dup1\n      swap2\n      sub\n      swap1\n      revert\n    tag_330:\n        /* \"contracts/VerdantKinFeeReflection.sol\":4807:4808  0 */\n      0x00\n        /* \"contracts/VerdantKinFeeReflection.sol\":4793:4804  teamBalance */\n      0x07\n        /* \"contracts/VerdantKinFeeReflection.sol\":4793:4808  teamBalance = 0 */\n      dup2\n      swap1\n      sstore\n      pop\n        /* \"contracts/VerdantKinFeeReflection.sol\":4653:4820  {... */\n      pop\n        /* \"contracts/VerdantKinFeeReflection.sol\":4632:4820  if (teamBalance > 0) {... */\n    tag_325:\n        /* \"contracts/VerdantKinFeeReflection.sol\":4223:4827  {... */\n      pop\n        /* \"@openzeppelin/contracts/utils/ReentrancyGuard.sol\":2542:2562  _nonReentrantAfter() */\n      tag_333\n        /* \"@openzeppelin/contracts/utils/ReentrancyGuard.sol\":2542:2560  _nonReentrantAfter */\n      tag_212\n        /* \"@openzeppelin/contracts/utils/ReentrancyGuard.sol\":2542:2562  _nonReentrantAfter() */\n      jump\t// in\n    tag_333:\n        /* \"contracts/VerdantKinFeeReflection.sol\":4167:4827  function teamWithdraw() external onlyOwner nonReentrant {... */\n      jump\t// out\n        /* \"contracts/VerdantKinFeeReflection.sol\":5348:5457  function processIncomingTokens() external onlyOwnerOrWhitelistedNFT {... */\n    tag_146:\n        /* \"contracts/VerdantKinFeeReflection.sol\":3238:3245  owner() */\n      tag_335\n        /* \"contracts/VerdantKinFeeReflection.sol\":3238:3243  owner */\n      tag_125\n        /* \"contracts/VerdantKinFeeReflection.sol\":3238:3245  owner() */\n      jump\t// in\n    tag_335:\n        /* \"contracts/VerdantKinFeeReflection.sol\":3224:3245  msg.sender == owner() */\n      0xffffffffffffffffffffffffffffffffffffffff\n      and\n        /* \"contracts/VerdantKinFeeReflection.sol\":3224:3234  msg.sender */\n      caller\n        /* \"contracts/VerdantKinFeeReflection.sol\":3224:3245  msg.sender == owner() */\n      0xffffffffffffffffffffffffffffffffffffffff\n      and\n      eq\n        /* \"contracts/VerdantKinFeeReflection.sol\":3224:3276  msg.sender == owner() || whitelistedNFTs[msg.sender] */\n      dup1\n      tag_336\n      jumpi\n      pop\n        /* \"contracts/VerdantKinFeeReflection.sol\":3249:3264  whitelistedNFTs */\n      0x04\n        /* \"contracts/VerdantKinFeeReflection.sol\":3249:3276  whitelistedNFTs[msg.sender] */\n      0x00\n        /* \"contracts/VerdantKinFeeReflection.sol\":3265:3275  msg.sender */\n      caller\n        /* \"contracts/VerdantKinFeeReflection.sol\":3249:3276  whitelistedNFTs[msg.sender] */\n      0xffffffffffffffffffffffffffffffffffffffff\n      and\n      0xffffffffffffffffffffffffffffffffffffffff\n      and\n      dup2\n      mstore\n      0x20\n      add\n      swap1\n      dup2\n      mstore\n      0x20\n      add\n      0x00\n      keccak256\n      0x00\n      swap1\n      sload\n      swap1\n      0x0100\n      exp\n      swap1\n      div\n      0xff\n      and\n        /* \"contracts/VerdantKinFeeReflection.sol\":3224:3276  msg.sender == owner() || whitelistedNFTs[msg.sender] */\n    tag_336:\n        /* \"contracts/VerdantKinFeeReflection.sol\":3202:3347  require(... */\n      tag_337\n      jumpi\n      mload(0x40)\n      0x08c379a000000000000000000000000000000000000000000000000000000000\n      dup2\n      mstore\n      0x04\n      add\n      tag_338\n      swap1\n      tag_339\n      jump\t// in\n    tag_338:\n      mload(0x40)\n      dup1\n      swap2\n      sub\n      swap1\n      revert\n    tag_337:\n        /* \"contracts/VerdantKinFeeReflection.sol\":5427:5449  _processIncomingFee(0) */\n      tag_341\n        /* \"contracts/VerdantKinFeeReflection.sol\":5447:5448  0 */\n      0x00\n        /* \"contracts/VerdantKinFeeReflection.sol\":5427:5446  _processIncomingFee */\n      tag_40\n        /* \"contracts/VerdantKinFeeReflection.sol\":5427:5449  _processIncomingFee(0) */\n      jump\t// in\n    tag_341:\n        /* \"contracts/VerdantKinFeeReflection.sol\":5348:5457  function processIncomingTokens() external onlyOwnerOrWhitelistedNFT {... */\n      jump\t// out\n        /* \"contracts/VerdantKinFeeReflection.sol\":5745:5945  function manualBuyAndBurnCore() external onlyOwner nonReentrant { // Add: Separate manual for core only... */\n    tag_149:\n        /* \"@openzeppelin/contracts/access/Ownable.sol\":1531:1544  _checkOwner() */\n      tag_343\n        /* \"@openzeppelin/contracts/access/Ownable.sol\":1531:1542  _checkOwner */\n      tag_199\n        /* \"@openzeppelin/contracts/access/Ownable.sol\":1531:1544  _checkOwner() */\n      jump\t// in\n    tag_343:\n        /* \"@openzeppelin/contracts/utils/ReentrancyGuard.sol\":2500:2521  _nonReentrantBefore() */\n      tag_345\n        /* \"@openzeppelin/contracts/utils/ReentrancyGuard.sol\":2500:2519  _nonReentrantBefore */\n      tag_209\n        /* \"@openzeppelin/contracts/utils/ReentrancyGuard.sol\":2500:2521  _nonReentrantBefore() */\n      jump\t// in\n    tag_345:\n        /* \"contracts/VerdantKinFeeReflection.sol\":5880:5881  0 */\n      0x00\n        /* \"contracts/VerdantKinFeeReflection.sol\":5866:5877  coreBalance */\n      sload(0x06)\n        /* \"contracts/VerdantKinFeeReflection.sol\":5866:5881  coreBalance > 0 */\n      gt\n        /* \"contracts/VerdantKinFeeReflection.sol\":5858:5909  require(coreBalance > 0, \"No core balance to burn\") */\n      tag_347\n      jumpi\n      mload(0x40)\n      0x08c379a000000000000000000000000000000000000000000000000000000000\n      dup2\n      mstore\n      0x04\n      add\n      tag_348\n      swap1\n      tag_349\n      jump\t// in\n    tag_348:\n      mload(0x40)\n      dup1\n      swap2\n      sub\n      swap1\n      revert\n    tag_347:\n        /* \"contracts/VerdantKinFeeReflection.sol\":5920:5937  _buyAndBurnCore() */\n      tag_350\n        /* \"contracts/VerdantKinFeeReflection.sol\":5920:5935  _buyAndBurnCore */\n      tag_195\n        /* \"contracts/VerdantKinFeeReflection.sol\":5920:5937  _buyAndBurnCore() */\n      jump\t// in\n    tag_350:\n        /* \"@openzeppelin/contracts/utils/ReentrancyGuard.sol\":2542:2562  _nonReentrantAfter() */\n      tag_351\n        /* \"@openzeppelin/contracts/utils/ReentrancyGuard.sol\":2542:2560  _nonReentrantAfter */\n      tag_212\n        /* \"@openzeppelin/contracts/utils/ReentrancyGuard.sol\":2542:2562  _nonReentrantAfter() */\n      jump\t// in\n    tag_351:\n        /* \"contracts/VerdantKinFeeReflection.sol\":5745:5945  function manualBuyAndBurnCore() external onlyOwner nonReentrant { // Add: Separate manual for core only... */\n      jump\t// out\n        /* \"@openzeppelin/contracts/access/Ownable.sol\":2543:2758  function transferOwnership(address newOwner) public virtual onlyOwner {... */\n    tag_153:\n        /* \"@openzeppelin/contracts/access/Ownable.sol\":1531:1544  _checkOwner() */\n      tag_353\n        /* \"@openzeppelin/contracts/access/Ownable.sol\":1531:1542  _checkOwner */\n      tag_199\n        /* \"@openzeppelin/contracts/access/Ownable.sol\":1531:1544  _checkOwner() */\n      jump\t// in\n    tag_353:\n        /* \"@openzeppelin/contracts/access/Ownable.sol\":2647:2648  0 */\n      0x00\n        /* \"@openzeppelin/contracts/access/Ownable.sol\":2627:2649  newOwner == address(0) */\n      0xffffffffffffffffffffffffffffffffffffffff\n      and\n        /* \"@openzeppelin/contracts/access/Ownable.sol\":2627:2635  newOwner */\n      dup2\n        /* \"@openzeppelin/contracts/access/Ownable.sol\":2627:2649  newOwner == address(0) */\n      0xffffffffffffffffffffffffffffffffffffffff\n      and\n      sub\n        /* \"@openzeppelin/contracts/access/Ownable.sol\":2623:2714  if (newOwner == address(0)) {... */\n      tag_355\n      jumpi\n        /* \"@openzeppelin/contracts/access/Ownable.sol\":2700:2701  0 */\n      0x00\n        /* \"@openzeppelin/contracts/access/Ownable.sol\":2672:2703  OwnableInvalidOwner(address(0)) */\n      mload(0x40)\n      0x1e4fbdf700000000000000000000000000000000000000000000000000000000\n      dup2\n      mstore\n      0x04\n      add\n      tag_356\n      swap2\n      swap1\n      tag_49\n      jump\t// in\n    tag_356:\n      mload(0x40)\n      dup1\n      swap2\n      sub\n      swap1\n      revert\n        /* \"@openzeppelin/contracts/access/Ownable.sol\":2623:2714  if (newOwner == address(0)) {... */\n    tag_355:\n        /* \"@openzeppelin/contracts/access/Ownable.sol\":2723:2751  _transferOwnership(newOwner) */\n      tag_357\n        /* \"@openzeppelin/contracts/access/Ownable.sol\":2742:2750  newOwner */\n      dup2\n        /* \"@openzeppelin/contracts/access/Ownable.sol\":2723:2741  _transferOwnership */\n      tag_235\n        /* \"@openzeppelin/contracts/access/Ownable.sol\":2723:2751  _transferOwnership(newOwner) */\n      jump\t// in\n    tag_357:\n        /* \"@openzeppelin/contracts/access/Ownable.sol\":2543:2758  function transferOwnership(address newOwner) public virtual onlyOwner {... */\n      pop\n      jump\t// out\n        /* \"contracts/VerdantKinFeeReflection.sol\":922:972  address public immutable BURN_ADDRESS = address(0) */\n    tag_156:\n      immutable(\"0x980c46aeb242fb2816eec3c43a568cdc6adda404b46e62cce4e3fe7d929881e3\")\n      dup2\n      jump\t// out\n        /* \"contracts/VerdantKinFeeReflection.sol\":7133:7766  function _buyAndBurn() internal {... */\n    tag_192:\n        /* \"contracts/VerdantKinFeeReflection.sol\":7194:7195  0 */\n      0x00\n        /* \"contracts/VerdantKinFeeReflection.sol\":7180:7191  clubBalance */\n      sload(0x05)\n        /* \"contracts/VerdantKinFeeReflection.sol\":7180:7195  clubBalance > 0 */\n      gt\n        /* \"contracts/VerdantKinFeeReflection.sol\":7176:7759  if (clubBalance > 0) {... */\n      iszero\n      tag_359\n      jumpi\n        /* \"contracts/VerdantKinFeeReflection.sol\":7218:7222  WETN */\n      immutable(\"0xb7020dd003fcd4d96af1507ff4dc7e2c1158f23ad0bacfdf3455869cf9fb4898\")\n        /* \"contracts/VerdantKinFeeReflection.sol\":7212:7231  IWETN(WETN).approve */\n      0xffffffffffffffffffffffffffffffffffffffff\n      and\n      0x095ea7b3\n        /* \"contracts/VerdantKinFeeReflection.sol\":7240:7248  v3Router */\n      0x02\n      0x00\n      swap1\n      sload\n      swap1\n      0x0100\n      exp\n      swap1\n      div\n      0xffffffffffffffffffffffffffffffffffffffff\n      and\n        /* \"contracts/VerdantKinFeeReflection.sol\":7251:7262  clubBalance */\n      sload(0x05)\n        /* \"contracts/VerdantKinFeeReflection.sol\":7212:7263  IWETN(WETN).approve(address(v3Router), clubBalance) */\n      mload(0x40)\n      dup4\n      0xffffffff\n      and\n      0xe0\n      shl\n      dup2\n      mstore\n      0x04\n      add\n      tag_360\n      swap3\n      swap2\n      swap1\n      tag_294\n      jump\t// in\n    tag_360:\n      0x20\n      mload(0x40)\n      dup1\n      dup4\n      sub\n      dup2\n      0x00\n      dup8\n      gas\n      call\n      iszero\n      dup1\n      iszero\n      tag_362\n      jumpi\n      returndatasize\n      0x00\n      dup1\n      returndatacopy\n      revert(0x00, returndatasize)\n    tag_362:\n      pop\n      pop\n      pop\n      pop\n      mload(0x40)\n      returndatasize\n      not(0x1f)\n      0x1f\n      dup3\n      add\n      and\n      dup3\n      add\n      dup1\n      0x40\n      mstore\n      pop\n      dup2\n      add\n      swap1\n      tag_363\n      swap2\n      swap1\n      tag_298\n      jump\t// in\n    tag_363:\n      pop\n        /* \"contracts/VerdantKinFeeReflection.sol\":7281:7324  V3Router.ExactInputParams memory clubParams */\n      0x00\n        /* \"contracts/VerdantKinFeeReflection.sol\":7327:7551  V3Router.ExactInputParams({... */\n      mload(0x40)\n      dup1\n      0x80\n      add\n      0x40\n      mstore\n      dup1\n        /* \"contracts/VerdantKinFeeReflection.sol\":7395:7399  WETN */\n      immutable(\"0xb7020dd003fcd4d96af1507ff4dc7e2c1158f23ad0bacfdf3455869cf9fb4898\")\n        /* \"contracts/VerdantKinFeeReflection.sol\":7401:7408  poolFee */\n      immutable(\"0x98f4d6eec7613e33b36335f2ce6a27018d9a9f0999ab27807ed26ac6fd46f1a2\")\n        /* \"contracts/VerdantKinFeeReflection.sol\":7410:7414  club */\n      immutable(\"0x3884709d17f664eaba4ac467a7268cd72e3e0fe0c4e85152b1894161243c55c2\")\n        /* \"contracts/VerdantKinFeeReflection.sol\":7378:7415  abi.encodePacked(WETN, poolFee, club) */\n      add(0x20, mload(0x40))\n      tag_364\n      swap4\n      swap3\n      swap2\n      swap1\n      tag_365\n      jump\t// in\n    tag_364:\n      mload(0x40)\n      0x20\n      dup2\n      dup4\n      sub\n      sub\n      dup2\n      mstore\n      swap1\n      0x40\n      mstore\n        /* \"contracts/VerdantKinFeeReflection.sol\":7327:7551  V3Router.ExactInputParams({... */\n      dup2\n      mstore\n      0x20\n      add\n        /* \"contracts/VerdantKinFeeReflection.sol\":7445:7457  DEAD_ADDRESS */\n      immutable(\"0x7d94b1fd5befe75fac04677148728067a5c7750c4535d59cf8d692301dae078c\")\n        /* \"contracts/VerdantKinFeeReflection.sol\":7327:7551  V3Router.ExactInputParams({... */\n      0xffffffffffffffffffffffffffffffffffffffff\n      and\n      dup2\n      mstore\n      0x20\n      add\n        /* \"contracts/VerdantKinFeeReflection.sol\":7486:7497  clubBalance */\n      sload(0x05)\n        /* \"contracts/VerdantKinFeeReflection.sol\":7327:7551  V3Router.ExactInputParams({... */\n      dup2\n      mstore\n      0x20\n      add\n        /* \"contracts/VerdantKinFeeReflection.sol\":7534:7535  0 */\n      0x00\n        /* \"contracts/VerdantKinFeeReflection.sol\":7327:7551  V3Router.ExactInputParams({... */\n      dup2\n      mstore\n      pop\n        /* \"contracts/VerdantKinFeeReflection.sol\":7281:7551  V3Router.ExactInputParams memory clubParams = V3Router.ExactInputParams({... */\n      swap1\n      pop\n        /* \"contracts/VerdantKinFeeReflection.sol\":7566:7581  uint clubBurned */\n      0x00\n        /* \"contracts/VerdantKinFeeReflection.sol\":7584:7592  v3Router */\n      0x02\n      0x00\n      swap1\n      sload\n      swap1\n      0x0100\n      exp\n      swap1\n      div\n      0xffffffffffffffffffffffffffffffffffffffff\n      and\n        /* \"contracts/VerdantKinFeeReflection.sol\":7584:7603  v3Router.exactInput */\n      0xffffffffffffffffffffffffffffffffffffffff\n      and\n      0xb858183f\n        /* \"contracts/VerdantKinFeeReflection.sol\":7604:7614  clubParams */\n      dup4\n        /* \"contracts/VerdantKinFeeReflection.sol\":7584:7615  v3Router.exactInput(clubParams) */\n      mload(0x40)\n      dup3\n      0xffffffff\n      and\n      0xe0\n      shl\n      dup2\n      mstore\n      0x04\n      add\n      tag_366\n      swap2\n      swap1\n      tag_367\n      jump\t// in\n    tag_366:\n      0x20\n      mload(0x40)\n      dup1\n      dup4\n      sub\n      dup2\n      0x00\n      dup8\n      gas\n      call\n      iszero\n      dup1\n      iszero\n      tag_369\n      jumpi\n      returndatasize\n      0x00\n      dup1\n      returndatacopy\n      revert(0x00, returndatasize)\n    tag_369:\n      pop\n      pop\n      pop\n      pop\n      mload(0x40)\n      returndatasize\n      not(0x1f)\n      0x1f\n      dup3\n      add\n      and\n      dup3\n      add\n      dup1\n      0x40\n      mstore\n      pop\n      dup2\n      add\n      swap1\n      tag_370\n      swap2\n      swap1\n      tag_167\n      jump\t// in\n    tag_370:\n        /* \"contracts/VerdantKinFeeReflection.sol\":7566:7615  uint clubBurned = v3Router.exactInput(clubParams) */\n      swap1\n      pop\n        /* \"contracts/VerdantKinFeeReflection.sol\":7644:7645  0 */\n      0x00\n        /* \"contracts/VerdantKinFeeReflection.sol\":7630:7641  clubBalance */\n      0x05\n        /* \"contracts/VerdantKinFeeReflection.sol\":7630:7645  clubBalance = 0 */\n      dup2\n      swap1\n      sstore\n      pop\n        /* \"contracts/VerdantKinFeeReflection.sol\":7679:7680  0 */\n      0x00\n        /* \"contracts/VerdantKinFeeReflection.sol\":7666:7676  clubBurned */\n      dup2\n        /* \"contracts/VerdantKinFeeReflection.sol\":7666:7680  clubBurned > 0 */\n      gt\n        /* \"contracts/VerdantKinFeeReflection.sol\":7662:7748  if (clubBurned > 0) {... */\n      iszero\n      tag_371\n      jumpi\n        /* \"contracts/VerdantKinFeeReflection.sol\":7706:7732  ClubBuyAndBurn(clubBurned) */\n      0x9f7c0331cae72869b1e69d00e6dbfceb0e02266830e12339f841d334bc614127\n        /* \"contracts/VerdantKinFeeReflection.sol\":7721:7731  clubBurned */\n      dup2\n        /* \"contracts/VerdantKinFeeReflection.sol\":7706:7732  ClubBuyAndBurn(clubBurned) */\n      mload(0x40)\n      tag_372\n      swap2\n      swap1\n      tag_74\n      jump\t// in\n    tag_372:\n      mload(0x40)\n      dup1\n      swap2\n      sub\n      swap1\n      log1\n        /* \"contracts/VerdantKinFeeReflection.sol\":7662:7748  if (clubBurned > 0) {... */\n    tag_371:\n        /* \"contracts/VerdantKinFeeReflection.sol\":7197:7759  {... */\n      pop\n      pop\n        /* \"contracts/VerdantKinFeeReflection.sol\":7176:7759  if (clubBalance > 0) {... */\n    tag_359:\n        /* \"contracts/VerdantKinFeeReflection.sol\":7133:7766  function _buyAndBurn() internal {... */\n      jump\t// out\n        /* \"contracts/VerdantKinFeeReflection.sol\":7774:8836  function _buyAndBurnCore() internal { // Add: New function for core V2 burn... */\n    tag_195:\n        /* \"contracts/VerdantKinFeeReflection.sol\":7877:7878  0 */\n      0x00\n        /* \"contracts/VerdantKinFeeReflection.sol\":7863:7874  coreBalance */\n      sload(0x06)\n        /* \"contracts/VerdantKinFeeReflection.sol\":7863:7878  coreBalance > 0 */\n      gt\n        /* \"contracts/VerdantKinFeeReflection.sol\":7859:8829  if (coreBalance > 0) {... */\n      iszero\n      tag_374\n      jumpi\n        /* \"contracts/VerdantKinFeeReflection.sol\":7895:7916  address[] memory path */\n      0x00\n        /* \"contracts/VerdantKinFeeReflection.sol\":7933:7934  2 */\n      0x02\n        /* \"contracts/VerdantKinFeeReflection.sol\":7919:7935  new address[](2) */\n      0xffffffffffffffff\n      dup2\n      gt\n      iszero\n      tag_375\n      jumpi\n      tag_376\n      tag_377\n      jump\t// in\n    tag_376:\n    tag_375:\n      mload(0x40)\n      swap1\n      dup1\n      dup3\n      mstore\n      dup1\n      0x20\n      mul\n      0x20\n      add\n      dup3\n      add\n      0x40\n      mstore\n      dup1\n      iszero\n      tag_378\n      jumpi\n      dup2\n      0x20\n      add\n      0x20\n      dup3\n      mul\n      dup1\n      calldatasize\n      dup4\n      calldatacopy\n      dup1\n      dup3\n      add\n      swap2\n      pop\n      pop\n      swap1\n      pop\n    tag_378:\n      pop\n        /* \"contracts/VerdantKinFeeReflection.sol\":7895:7935  address[] memory path = new address[](2) */\n      swap1\n      pop\n        /* \"contracts/VerdantKinFeeReflection.sol\":7960:7964  WETN */\n      immutable(\"0xb7020dd003fcd4d96af1507ff4dc7e2c1158f23ad0bacfdf3455869cf9fb4898\")\n        /* \"contracts/VerdantKinFeeReflection.sol\":7950:7954  path */\n      dup2\n        /* \"contracts/VerdantKinFeeReflection.sol\":7955:7956  0 */\n      0x00\n        /* \"contracts/VerdantKinFeeReflection.sol\":7950:7957  path[0] */\n      dup2\n      mload\n      dup2\n      lt\n      tag_379\n      jumpi\n      tag_380\n      tag_381\n      jump\t// in\n    tag_380:\n    tag_379:\n      0x20\n      mul\n      0x20\n      add\n      add\n        /* \"contracts/VerdantKinFeeReflection.sol\":7950:7964  path[0] = WETN */\n      swap1\n      0xffffffffffffffffffffffffffffffffffffffff\n      and\n      swap1\n      dup2\n      0xffffffffffffffffffffffffffffffffffffffff\n      and\n      dup2\n      mstore\n      pop\n      pop\n        /* \"contracts/VerdantKinFeeReflection.sol\":7989:7998  coreToken */\n      immutable(\"0x4b4b9efaff899efa2095e6e12f4c7ffa5d130c6cf88a562d7f7bbc11486ed4fb\")\n        /* \"contracts/VerdantKinFeeReflection.sol\":7979:7983  path */\n      dup2\n        /* \"contracts/VerdantKinFeeReflection.sol\":7984:7985  1 */\n      0x01\n        /* \"contracts/VerdantKinFeeReflection.sol\":7979:7986  path[1] */\n      dup2\n      mload\n      dup2\n      lt\n      tag_382\n      jumpi\n      tag_383\n      tag_381\n      jump\t// in\n    tag_383:\n    tag_382:\n      0x20\n      mul\n      0x20\n      add\n      add\n        /* \"contracts/VerdantKinFeeReflection.sol\":7979:7998  path[1] = coreToken */\n      swap1\n      0xffffffffffffffffffffffffffffffffffffffff\n      and\n      swap1\n      dup2\n      0xffffffffffffffffffffffffffffffffffffffff\n      and\n      dup2\n      mstore\n      pop\n      pop\n        /* \"contracts/VerdantKinFeeReflection.sol\":8015:8036  uint[] memory amounts */\n      0x00\n        /* \"contracts/VerdantKinFeeReflection.sol\":8039:8047  v2Router */\n      0x03\n      0x00\n      swap1\n      sload\n      swap1\n      0x0100\n      exp\n      swap1\n      div\n      0xffffffffffffffffffffffffffffffffffffffff\n      and\n        /* \"contracts/VerdantKinFeeReflection.sol\":8039:8061  v2Router.getAmountsOut */\n      0xffffffffffffffffffffffffffffffffffffffff\n      and\n      0xd06ca61f\n        /* \"contracts/VerdantKinFeeReflection.sol\":8062:8073  coreBalance */\n      sload(0x06)\n        /* \"contracts/VerdantKinFeeReflection.sol\":8075:8079  path */\n      dup5\n        /* \"contracts/VerdantKinFeeReflection.sol\":8039:8080  v2Router.getAmountsOut(coreBalance, path) */\n      mload(0x40)\n      dup4\n      0xffffffff\n      and\n      0xe0\n      shl\n      dup2\n      mstore\n      0x04\n      add\n      tag_384\n      swap3\n      swap2\n      swap1\n      tag_385\n      jump\t// in\n    tag_384:\n      0x00\n      mload(0x40)\n      dup1\n      dup4\n      sub\n      dup2\n      dup7\n      gas\n      staticcall\n      iszero\n      dup1\n      iszero\n      tag_387\n      jumpi\n      returndatasize\n      0x00\n      dup1\n      returndatacopy\n      revert(0x00, returndatasize)\n    tag_387:\n      pop\n      pop\n      pop\n      pop\n      mload(0x40)\n      returndatasize\n      0x00\n      dup3\n      returndatacopy\n      returndatasize\n      not(0x1f)\n      0x1f\n      dup3\n      add\n      and\n      dup3\n      add\n      dup1\n      0x40\n      mstore\n      pop\n      dup2\n      add\n      swap1\n      tag_388\n      swap2\n      swap1\n      tag_389\n      jump\t// in\n    tag_388:\n        /* \"contracts/VerdantKinFeeReflection.sol\":8015:8080  uint[] memory amounts = v2Router.getAmountsOut(coreBalance, path) */\n      swap1\n      pop\n        /* \"contracts/VerdantKinFeeReflection.sol\":8095:8111  uint expectedOut */\n      0x00\n        /* \"contracts/VerdantKinFeeReflection.sol\":8114:8121  amounts */\n      dup2\n        /* \"contracts/VerdantKinFeeReflection.sol\":8122:8123  1 */\n      0x01\n        /* \"contracts/VerdantKinFeeReflection.sol\":8114:8124  amounts[1] */\n      dup2\n      mload\n      dup2\n      lt\n      tag_390\n      jumpi\n      tag_391\n      tag_381\n      jump\t// in\n    tag_391:\n    tag_390:\n      0x20\n      mul\n      0x20\n      add\n      add\n      mload\n        /* \"contracts/VerdantKinFeeReflection.sol\":8095:8124  uint expectedOut = amounts[1] */\n      swap1\n      pop\n        /* \"contracts/VerdantKinFeeReflection.sol\":8139:8156  uint amountOutMin */\n      0x00\n        /* \"contracts/VerdantKinFeeReflection.sol\":8180:8183  100 */\n      0x64\n        /* \"contracts/VerdantKinFeeReflection.sol\":8174:8176  80 */\n      0x50\n        /* \"contracts/VerdantKinFeeReflection.sol\":8160:8171  expectedOut */\n      dup4\n        /* \"contracts/VerdantKinFeeReflection.sol\":8160:8176  expectedOut * 80 */\n      tag_392\n      swap2\n      swap1\n      tag_178\n      jump\t// in\n    tag_392:\n        /* \"contracts/VerdantKinFeeReflection.sol\":8159:8183  (expectedOut * 80) / 100 */\n      tag_393\n      swap2\n      swap1\n      tag_180\n      jump\t// in\n    tag_393:\n        /* \"contracts/VerdantKinFeeReflection.sol\":8139:8183  uint amountOutMin = (expectedOut * 80) / 100 */\n      swap1\n      pop\n        /* \"contracts/VerdantKinFeeReflection.sol\":8232:8236  WETN */\n      immutable(\"0xb7020dd003fcd4d96af1507ff4dc7e2c1158f23ad0bacfdf3455869cf9fb4898\")\n        /* \"contracts/VerdantKinFeeReflection.sol\":8226:8245  IWETN(WETN).approve */\n      0xffffffffffffffffffffffffffffffffffffffff\n      and\n      0x095ea7b3\n        /* \"contracts/VerdantKinFeeReflection.sol\":8254:8262  v2Router */\n      0x03\n      0x00\n      swap1\n      sload\n      swap1\n      0x0100\n      exp\n      swap1\n      div\n      0xffffffffffffffffffffffffffffffffffffffff\n      and\n        /* \"contracts/VerdantKinFeeReflection.sol\":8265:8276  coreBalance */\n      sload(0x06)\n        /* \"contracts/VerdantKinFeeReflection.sol\":8226:8277  IWETN(WETN).approve(address(v2Router), coreBalance) */\n      mload(0x40)\n      dup4\n      0xffffffff\n      and\n      0xe0\n      shl\n      dup2\n      mstore\n      0x04\n      add\n      tag_394\n      swap3\n      swap2\n      swap1\n      tag_294\n      jump\t// in\n    tag_394:\n      0x20\n      mload(0x40)\n      dup1\n      dup4\n      sub\n      dup2\n      0x00\n      dup8\n      gas\n      call\n      iszero\n      dup1\n      iszero\n      tag_396\n      jumpi\n      returndatasize\n      0x00\n      dup1\n      returndatacopy\n      revert(0x00, returndatasize)\n    tag_396:\n      pop\n      pop\n      pop\n      pop\n      mload(0x40)\n      returndatasize\n      not(0x1f)\n      0x1f\n      dup3\n      add\n      and\n      dup3\n      add\n      dup1\n      0x40\n      mstore\n      pop\n      dup2\n      add\n      swap1\n      tag_397\n      swap2\n      swap1\n      tag_298\n      jump\t// in\n    tag_397:\n      pop\n        /* \"contracts/VerdantKinFeeReflection.sol\":8295:8319  uint[] memory amountsOut */\n      0x00\n        /* \"contracts/VerdantKinFeeReflection.sol\":8322:8330  v2Router */\n      0x03\n      0x00\n      swap1\n      sload\n      swap1\n      0x0100\n      exp\n      swap1\n      div\n      0xffffffffffffffffffffffffffffffffffffffff\n      and\n        /* \"contracts/VerdantKinFeeReflection.sol\":8322:8355  v2Router.swapExactTokensForTokens */\n      0xffffffffffffffffffffffffffffffffffffffff\n      and\n      0x38ed1739\n        /* \"contracts/VerdantKinFeeReflection.sol\":8374:8385  coreBalance */\n      sload(0x06)\n        /* \"contracts/VerdantKinFeeReflection.sol\":8404:8416  amountOutMin */\n      dup5\n        /* \"contracts/VerdantKinFeeReflection.sol\":8435:8439  path */\n      dup9\n        /* \"contracts/VerdantKinFeeReflection.sol\":8458:8470  BURN_ADDRESS */\n      immutable(\"0x980c46aeb242fb2816eec3c43a568cdc6adda404b46e62cce4e3fe7d929881e3\")\n        /* \"contracts/VerdantKinFeeReflection.sol\":8550:8553  300 */\n      0x012c\n        /* \"contracts/VerdantKinFeeReflection.sol\":8532:8547  block.timestamp */\n      timestamp\n        /* \"contracts/VerdantKinFeeReflection.sol\":8532:8553  block.timestamp + 300 */\n      tag_398\n      swap2\n      swap1\n      tag_169\n      jump\t// in\n    tag_398:\n        /* \"contracts/VerdantKinFeeReflection.sol\":8322:8587  v2Router.swapExactTokensForTokens(... */\n      mload(0x40)\n      dup7\n      0xffffffff\n      and\n      0xe0\n      shl\n      dup2\n      mstore\n      0x04\n      add\n      tag_399\n      swap6\n      swap5\n      swap4\n      swap3\n      swap2\n      swap1\n      tag_400\n      jump\t// in\n    tag_399:\n      0x00\n      mload(0x40)\n      dup1\n      dup4\n      sub\n      dup2\n      0x00\n      dup8\n      gas\n      call\n      iszero\n      dup1\n      iszero\n      tag_402\n      jumpi\n      returndatasize\n      0x00\n      dup1\n      returndatacopy\n      revert(0x00, returndatasize)\n    tag_402:\n      pop\n      pop\n      pop\n      pop\n      mload(0x40)\n      returndatasize\n      0x00\n      dup3\n      returndatacopy\n      returndatasize\n      not(0x1f)\n      0x1f\n      dup3\n      add\n      and\n      dup3\n      add\n      dup1\n      0x40\n      mstore\n      pop\n      dup2\n      add\n      swap1\n      tag_403\n      swap2\n      swap1\n      tag_389\n      jump\t// in\n    tag_403:\n        /* \"contracts/VerdantKinFeeReflection.sol\":8295:8587  uint[] memory amountsOut = v2Router.swapExactTokensForTokens(... */\n      swap1\n      pop\n        /* \"contracts/VerdantKinFeeReflection.sol\":8602:8617  uint coreBurned */\n      0x00\n        /* \"contracts/VerdantKinFeeReflection.sol\":8620:8630  amountsOut */\n      dup2\n        /* \"contracts/VerdantKinFeeReflection.sol\":8651:8652  1 */\n      0x01\n        /* \"contracts/VerdantKinFeeReflection.sol\":8631:8641  amountsOut */\n      dup4\n        /* \"contracts/VerdantKinFeeReflection.sol\":8631:8648  amountsOut.length */\n      mload\n        /* \"contracts/VerdantKinFeeReflection.sol\":8631:8652  amountsOut.length - 1 */\n      tag_404\n      swap2\n      swap1\n      tag_175\n      jump\t// in\n    tag_404:\n        /* \"contracts/VerdantKinFeeReflection.sol\":8620:8653  amountsOut[amountsOut.length - 1] */\n      dup2\n      mload\n      dup2\n      lt\n      tag_405\n      jumpi\n      tag_406\n      tag_381\n      jump\t// in\n    tag_406:\n    tag_405:\n      0x20\n      mul\n      0x20\n      add\n      add\n      mload\n        /* \"contracts/VerdantKinFeeReflection.sol\":8602:8653  uint coreBurned = amountsOut[amountsOut.length - 1] */\n      swap1\n      pop\n        /* \"contracts/VerdantKinFeeReflection.sol\":8714:8715  0 */\n      0x00\n        /* \"contracts/VerdantKinFeeReflection.sol\":8700:8711  coreBalance */\n      0x06\n        /* \"contracts/VerdantKinFeeReflection.sol\":8700:8715  coreBalance = 0 */\n      dup2\n      swap1\n      sstore\n      pop\n        /* \"contracts/VerdantKinFeeReflection.sol\":8749:8750  0 */\n      0x00\n        /* \"contracts/VerdantKinFeeReflection.sol\":8736:8746  coreBurned */\n      dup2\n        /* \"contracts/VerdantKinFeeReflection.sol\":8736:8750  coreBurned > 0 */\n      gt\n        /* \"contracts/VerdantKinFeeReflection.sol\":8732:8818  if (coreBurned > 0) {... */\n      iszero\n      tag_407\n      jumpi\n        /* \"contracts/VerdantKinFeeReflection.sol\":8776:8802  CoreBuyAndBurn(coreBurned) */\n      0xcb42363dcc1840222268fe43eebc976f3e311a14761e5396eb394ebdac90a582\n        /* \"contracts/VerdantKinFeeReflection.sol\":8791:8801  coreBurned */\n      dup2\n        /* \"contracts/VerdantKinFeeReflection.sol\":8776:8802  CoreBuyAndBurn(coreBurned) */\n      mload(0x40)\n      tag_408\n      swap2\n      swap1\n      tag_74\n      jump\t// in\n    tag_408:\n      mload(0x40)\n      dup1\n      swap2\n      sub\n      swap1\n      log1\n        /* \"contracts/VerdantKinFeeReflection.sol\":8732:8818  if (coreBurned > 0) {... */\n    tag_407:\n        /* \"contracts/VerdantKinFeeReflection.sol\":7880:8829  {... */\n      pop\n      pop\n      pop\n      pop\n      pop\n      pop\n        /* \"contracts/VerdantKinFeeReflection.sol\":7859:8829  if (coreBalance > 0) {... */\n    tag_374:\n        /* \"contracts/VerdantKinFeeReflection.sol\":7774:8836  function _buyAndBurnCore() internal { // Add: New function for core V2 burn... */\n      jump\t// out\n        /* \"@openzeppelin/contracts/access/Ownable.sol\":1796:1958  function _checkOwner() internal view virtual {... */\n    tag_199:\n        /* \"@openzeppelin/contracts/access/Ownable.sol\":1866:1878  _msgSender() */\n      tag_410\n        /* \"@openzeppelin/contracts/access/Ownable.sol\":1866:1876  _msgSender */\n      tag_411\n        /* \"@openzeppelin/contracts/access/Ownable.sol\":1866:1878  _msgSender() */\n      jump\t// in\n    tag_410:\n        /* \"@openzeppelin/contracts/access/Ownable.sol\":1855:1878  owner() != _msgSender() */\n      0xffffffffffffffffffffffffffffffffffffffff\n      and\n        /* \"@openzeppelin/contracts/access/Ownable.sol\":1855:1862  owner() */\n      tag_412\n        /* \"@openzeppelin/contracts/access/Ownable.sol\":1855:1860  owner */\n      tag_125\n        /* \"@openzeppelin/contracts/access/Ownable.sol\":1855:1862  owner() */\n      jump\t// in\n    tag_412:\n        /* \"@openzeppelin/contracts/access/Ownable.sol\":1855:1878  owner() != _msgSender() */\n      0xffffffffffffffffffffffffffffffffffffffff\n      and\n      eq\n        /* \"@openzeppelin/contracts/access/Ownable.sol\":1851:1952  if (owner() != _msgSender()) {... */\n      tag_413\n      jumpi\n        /* \"@openzeppelin/contracts/access/Ownable.sol\":1928:1940  _msgSender() */\n      tag_414\n        /* \"@openzeppelin/contracts/access/Ownable.sol\":1928:1938  _msgSender */\n      tag_411\n        /* \"@openzeppelin/contracts/access/Ownable.sol\":1928:1940  _msgSender() */\n      jump\t// in\n    tag_414:\n        /* \"@openzeppelin/contracts/access/Ownable.sol\":1901:1941  OwnableUnauthorizedAccount(_msgSender()) */\n      mload(0x40)\n      0x118cdaa700000000000000000000000000000000000000000000000000000000\n      dup2\n      mstore\n      0x04\n      add\n      tag_415\n      swap2\n      swap1\n      tag_49\n      jump\t// in\n    tag_415:\n      mload(0x40)\n      dup1\n      swap2\n      sub\n      swap1\n      revert\n        /* \"@openzeppelin/contracts/access/Ownable.sol\":1851:1952  if (owner() != _msgSender()) {... */\n    tag_413:\n        /* \"@openzeppelin/contracts/access/Ownable.sol\":1796:1958  function _checkOwner() internal view virtual {... */\n      jump\t// out\n        /* \"@openzeppelin/contracts/utils/ReentrancyGuard.sol\":2575:2882  function _nonReentrantBefore() private {... */\n    tag_209:\n        /* \"@openzeppelin/contracts/utils/ReentrancyGuard.sol\":1899:1900  2 */\n      0x02\n        /* \"@openzeppelin/contracts/utils/ReentrancyGuard.sol\":2702:2709  _status */\n      sload(0x00)\n        /* \"@openzeppelin/contracts/utils/ReentrancyGuard.sol\":2702:2720  _status == ENTERED */\n      sub\n        /* \"@openzeppelin/contracts/utils/ReentrancyGuard.sol\":2698:2784  if (_status == ENTERED) {... */\n      tag_417\n      jumpi\n        /* \"@openzeppelin/contracts/utils/ReentrancyGuard.sol\":2743:2773  ReentrancyGuardReentrantCall() */\n      mload(0x40)\n      0x3ee5aeb500000000000000000000000000000000000000000000000000000000\n      dup2\n      mstore\n      0x04\n      add\n      mload(0x40)\n      dup1\n      swap2\n      sub\n      swap1\n      revert\n        /* \"@openzeppelin/contracts/utils/ReentrancyGuard.sol\":2698:2784  if (_status == ENTERED) {... */\n    tag_417:\n        /* \"@openzeppelin/contracts/utils/ReentrancyGuard.sol\":1899:1900  2 */\n      0x02\n        /* \"@openzeppelin/contracts/utils/ReentrancyGuard.sol\":2858:2865  _status */\n      0x00\n        /* \"@openzeppelin/contracts/utils/ReentrancyGuard.sol\":2858:2875  _status = ENTERED */\n      dup2\n      swap1\n      sstore\n      pop\n        /* \"@openzeppelin/contracts/utils/ReentrancyGuard.sol\":2575:2882  function _nonReentrantBefore() private {... */\n      jump\t// out\n        /* \"@openzeppelin/contracts/utils/ReentrancyGuard.sol\":2888:3096  function _nonReentrantAfter() private {... */\n    tag_212:\n        /* \"@openzeppelin/contracts/utils/ReentrancyGuard.sol\":1857:1858  1 */\n      0x01\n        /* \"@openzeppelin/contracts/utils/ReentrancyGuard.sol\":3068:3075  _status */\n      0x00\n        /* \"@openzeppelin/contracts/utils/ReentrancyGuard.sol\":3068:3089  _status = NOT_ENTERED */\n      dup2\n      swap1\n      sstore\n      pop\n        /* \"@openzeppelin/contracts/utils/ReentrancyGuard.sol\":2888:3096  function _nonReentrantAfter() private {... */\n      jump\t// out\n        /* \"@openzeppelin/contracts/access/Ownable.sol\":2912:3099  function _transferOwnership(address newOwner) internal virtual {... */\n    tag_235:\n        /* \"@openzeppelin/contracts/access/Ownable.sol\":2985:3001  address oldOwner */\n      0x00\n        /* \"@openzeppelin/contracts/access/Ownable.sol\":3004:3010  _owner */\n      0x01\n      0x00\n      swap1\n      sload\n      swap1\n      0x0100\n      exp\n      swap1\n      div\n      0xffffffffffffffffffffffffffffffffffffffff\n      and\n        /* \"@openzeppelin/contracts/access/Ownable.sol\":2985:3010  address oldOwner = _owner */\n      swap1\n      pop\n        /* \"@openzeppelin/contracts/access/Ownable.sol\":3029:3037  newOwner */\n      dup2\n        /* \"@openzeppelin/contracts/access/Ownable.sol\":3020:3026  _owner */\n      0x01\n      0x00\n        /* \"@openzeppelin/contracts/access/Ownable.sol\":3020:3037  _owner = newOwner */\n      0x0100\n      exp\n      dup2\n      sload\n      dup2\n      0xffffffffffffffffffffffffffffffffffffffff\n      mul\n      not\n      and\n      swap1\n      dup4\n      0xffffffffffffffffffffffffffffffffffffffff\n      and\n      mul\n      or\n      swap1\n      sstore\n      pop\n        /* \"@openzeppelin/contracts/access/Ownable.sol\":3083:3091  newOwner */\n      dup2\n        /* \"@openzeppelin/contracts/access/Ownable.sol\":3052:3092  OwnershipTransferred(oldOwner, newOwner) */\n      0xffffffffffffffffffffffffffffffffffffffff\n      and\n        /* \"@openzeppelin/contracts/access/Ownable.sol\":3073:3081  oldOwner */\n      dup2\n        /* \"@openzeppelin/contracts/access/Ownable.sol\":3052:3092  OwnershipTransferred(oldOwner, newOwner) */\n      0xffffffffffffffffffffffffffffffffffffffff\n      and\n      0x8be0079c531659141344cd1fd0a4f28419497f9722a3daafe3b4186f6b6457e0\n      mload(0x40)\n      mload(0x40)\n      dup1\n      swap2\n      sub\n      swap1\n      log3\n        /* \"@openzeppelin/contracts/access/Ownable.sol\":2975:3099  {... */\n      pop\n        /* \"@openzeppelin/contracts/access/Ownable.sol\":2912:3099  function _transferOwnership(address newOwner) internal virtual {... */\n      pop\n      jump\t// out\n        /* \"@openzeppelin/contracts/utils/Context.sol\":656:752  function _msgSender() internal view virtual returns (address) {... */\n    tag_411:\n        /* \"@openzeppelin/contracts/utils/Context.sol\":709:716  address */\n      0x00\n        /* \"@openzeppelin/contracts/utils/Context.sol\":735:745  msg.sender */\n      caller\n        /* \"@openzeppelin/contracts/utils/Context.sol\":728:745  return msg.sender */\n      swap1\n      pop\n        /* \"@openzeppelin/contracts/utils/Context.sol\":656:752  function _msgSender() internal view virtual returns (address) {... */\n      swap1\n      jump\t// out\n        /* \"#utility.yul\":7:133   */\n    tag_421:\n        /* \"#utility.yul\":44:51   */\n      0x00\n        /* \"#utility.yul\":84:126   */\n      0xffffffffffffffffffffffffffffffffffffffff\n        /* \"#utility.yul\":77:82   */\n      dup3\n        /* \"#utility.yul\":73:127   */\n      and\n        /* \"#utility.yul\":62:127   */\n      swap1\n      pop\n        /* \"#utility.yul\":7:133   */\n      swap2\n      swap1\n      pop\n      jump\t// out\n        /* \"#utility.yul\":139:235   */\n    tag_422:\n        /* \"#utility.yul\":176:183   */\n      0x00\n        /* \"#utility.yul\":205:229   */\n      tag_518\n        /* \"#utility.yul\":223:228   */\n      dup3\n        /* \"#utility.yul\":205:229   */\n      tag_421\n      jump\t// in\n    tag_518:\n        /* \"#utility.yul\":194:229   */\n      swap1\n      pop\n        /* \"#utility.yul\":139:235   */\n      swap2\n      swap1\n      pop\n      jump\t// out\n        /* \"#utility.yul\":241:359   */\n    tag_423:\n        /* \"#utility.yul\":328:352   */\n      tag_520\n        /* \"#utility.yul\":346:351   */\n      dup2\n        /* \"#utility.yul\":328:352   */\n      tag_422\n      jump\t// in\n    tag_520:\n        /* \"#utility.yul\":323:326   */\n      dup3\n        /* \"#utility.yul\":316:353   */\n      mstore\n        /* \"#utility.yul\":241:359   */\n      pop\n      pop\n      jump\t// out\n        /* \"#utility.yul\":365:587   */\n    tag_49:\n        /* \"#utility.yul\":458:462   */\n      0x00\n        /* \"#utility.yul\":496:498   */\n      0x20\n        /* \"#utility.yul\":485:494   */\n      dup3\n        /* \"#utility.yul\":481:499   */\n      add\n        /* \"#utility.yul\":473:499   */\n      swap1\n      pop\n        /* \"#utility.yul\":509:580   */\n      tag_522\n        /* \"#utility.yul\":577:578   */\n      0x00\n        /* \"#utility.yul\":566:575   */\n      dup4\n        /* \"#utility.yul\":562:579   */\n      add\n        /* \"#utility.yul\":553:559   */\n      dup5\n        /* \"#utility.yul\":509:580   */\n      tag_423\n      jump\t// in\n    tag_522:\n        /* \"#utility.yul\":365:587   */\n      swap3\n      swap2\n      pop\n      pop\n      jump\t// out\n        /* \"#utility.yul\":593:668   */\n    tag_424:\n        /* \"#utility.yul\":626:632   */\n      0x00\n        /* \"#utility.yul\":659:661   */\n      0x40\n        /* \"#utility.yul\":653:662   */\n      mload\n        /* \"#utility.yul\":643:662   */\n      swap1\n      pop\n        /* \"#utility.yul\":593:668   */\n      swap1\n      jump\t// out\n        /* \"#utility.yul\":674:791   */\n    tag_425:\n        /* \"#utility.yul\":783:784   */\n      0x00\n        /* \"#utility.yul\":780:781   */\n      dup1\n        /* \"#utility.yul\":773:785   */\n      revert\n        /* \"#utility.yul\":797:914   */\n    tag_426:\n        /* \"#utility.yul\":906:907   */\n      0x00\n        /* \"#utility.yul\":903:904   */\n      dup1\n        /* \"#utility.yul\":896:908   */\n      revert\n        /* \"#utility.yul\":920:1042   */\n    tag_427:\n        /* \"#utility.yul\":993:1017   */\n      tag_527\n        /* \"#utility.yul\":1011:1016   */\n      dup2\n        /* \"#utility.yul\":993:1017   */\n      tag_422\n      jump\t// in\n    tag_527:\n        /* \"#utility.yul\":986:991   */\n      dup2\n        /* \"#utility.yul\":983:1018   */\n      eq\n        /* \"#utility.yul\":973:1036   */\n      tag_528\n      jumpi\n        /* \"#utility.yul\":1032:1033   */\n      0x00\n        /* \"#utility.yul\":1029:1030   */\n      dup1\n        /* \"#utility.yul\":1022:1034   */\n      revert\n        /* \"#utility.yul\":973:1036   */\n    tag_528:\n        /* \"#utility.yul\":920:1042   */\n      pop\n      jump\t// out\n        /* \"#utility.yul\":1048:1187   */\n    tag_428:\n        /* \"#utility.yul\":1094:1099   */\n      0x00\n        /* \"#utility.yul\":1132:1138   */\n      dup2\n        /* \"#utility.yul\":1119:1139   */\n      calldataload\n        /* \"#utility.yul\":1110:1139   */\n      swap1\n      pop\n        /* \"#utility.yul\":1148:1181   */\n      tag_530\n        /* \"#utility.yul\":1175:1180   */\n      dup2\n        /* \"#utility.yul\":1148:1181   */\n      tag_427\n      jump\t// in\n    tag_530:\n        /* \"#utility.yul\":1048:1187   */\n      swap3\n      swap2\n      pop\n      pop\n      jump\t// out\n        /* \"#utility.yul\":1193:1522   */\n    tag_57:\n        /* \"#utility.yul\":1252:1258   */\n      0x00\n        /* \"#utility.yul\":1301:1303   */\n      0x20\n        /* \"#utility.yul\":1289:1298   */\n      dup3\n        /* \"#utility.yul\":1280:1287   */\n      dup5\n        /* \"#utility.yul\":1276:1299   */\n      sub\n        /* \"#utility.yul\":1272:1304   */\n      slt\n        /* \"#utility.yul\":1269:1388   */\n      iszero\n      tag_532\n      jumpi\n        /* \"#utility.yul\":1307:1386   */\n      tag_533\n      tag_425\n      jump\t// in\n    tag_533:\n        /* \"#utility.yul\":1269:1388   */\n    tag_532:\n        /* \"#utility.yul\":1427:1428   */\n      0x00\n        /* \"#utility.yul\":1452:1505   */\n      tag_534\n        /* \"#utility.yul\":1497:1504   */\n      dup5\n        /* \"#utility.yul\":1488:1494   */\n      dup3\n        /* \"#utility.yul\":1477:1486   */\n      dup6\n        /* \"#utility.yul\":1473:1495   */\n      add\n        /* \"#utility.yul\":1452:1505   */\n      tag_428\n      jump\t// in\n    tag_534:\n        /* \"#utility.yul\":1442:1505   */\n      swap2\n      pop\n        /* \"#utility.yul\":1398:1515   */\n      pop\n        /* \"#utility.yul\":1193:1522   */\n      swap3\n      swap2\n      pop\n      pop\n      jump\t// out\n        /* \"#utility.yul\":1528:1618   */\n    tag_429:\n        /* \"#utility.yul\":1562:1569   */\n      0x00\n        /* \"#utility.yul\":1605:1610   */\n      dup2\n        /* \"#utility.yul\":1598:1611   */\n      iszero\n        /* \"#utility.yul\":1591:1612   */\n      iszero\n        /* \"#utility.yul\":1580:1612   */\n      swap1\n      pop\n        /* \"#utility.yul\":1528:1618   */\n      swap2\n      swap1\n      pop\n      jump\t// out\n        /* \"#utility.yul\":1624:1733   */\n    tag_430:\n        /* \"#utility.yul\":1705:1726   */\n      tag_537\n        /* \"#utility.yul\":1720:1725   */\n      dup2\n        /* \"#utility.yul\":1705:1726   */\n      tag_429\n      jump\t// in\n    tag_537:\n        /* \"#utility.yul\":1700:1703   */\n      dup3\n        /* \"#utility.yul\":1693:1727   */\n      mstore\n        /* \"#utility.yul\":1624:1733   */\n      pop\n      pop\n      jump\t// out\n        /* \"#utility.yul\":1739:1949   */\n    tag_60:\n        /* \"#utility.yul\":1826:1830   */\n      0x00\n        /* \"#utility.yul\":1864:1866   */\n      0x20\n        /* \"#utility.yul\":1853:1862   */\n      dup3\n        /* \"#utility.yul\":1849:1867   */\n      add\n        /* \"#utility.yul\":1841:1867   */\n      swap1\n      pop\n        /* \"#utility.yul\":1877:1942   */\n      tag_539\n        /* \"#utility.yul\":1939:1940   */\n      0x00\n        /* \"#utility.yul\":1928:1937   */\n      dup4\n        /* \"#utility.yul\":1924:1941   */\n      add\n        /* \"#utility.yul\":1915:1921   */\n      dup5\n        /* \"#utility.yul\":1877:1942   */\n      tag_430\n      jump\t// in\n    tag_539:\n        /* \"#utility.yul\":1739:1949   */\n      swap3\n      swap2\n      pop\n      pop\n      jump\t// out\n        /* \"#utility.yul\":1955:2071   */\n    tag_431:\n        /* \"#utility.yul\":2025:2046   */\n      tag_541\n        /* \"#utility.yul\":2040:2045   */\n      dup2\n        /* \"#utility.yul\":2025:2046   */\n      tag_429\n      jump\t// in\n    tag_541:\n        /* \"#utility.yul\":2018:2023   */\n      dup2\n        /* \"#utility.yul\":2015:2047   */\n      eq\n        /* \"#utility.yul\":2005:2065   */\n      tag_542\n      jumpi\n        /* \"#utility.yul\":2061:2062   */\n      0x00\n        /* \"#utility.yul\":2058:2059   */\n      dup1\n        /* \"#utility.yul\":2051:2063   */\n      revert\n        /* \"#utility.yul\":2005:2065   */\n    tag_542:\n        /* \"#utility.yul\":1955:2071   */\n      pop\n      jump\t// out\n        /* \"#utility.yul\":2077:2210   */\n    tag_432:\n        /* \"#utility.yul\":2120:2125   */\n      0x00\n        /* \"#utility.yul\":2158:2164   */\n      dup2\n        /* \"#utility.yul\":2145:2165   */\n      calldataload\n        /* \"#utility.yul\":2136:2165   */\n      swap1\n      pop\n        /* \"#utility.yul\":2174:2204   */\n      tag_544\n        /* \"#utility.yul\":2198:2203   */\n      dup2\n        /* \"#utility.yul\":2174:2204   */\n      tag_431\n      jump\t// in\n    tag_544:\n        /* \"#utility.yul\":2077:2210   */\n      swap3\n      swap2\n      pop\n      pop\n      jump\t// out\n        /* \"#utility.yul\":2216:2539   */\n    tag_68:\n        /* \"#utility.yul\":2272:2278   */\n      0x00\n        /* \"#utility.yul\":2321:2323   */\n      0x20\n        /* \"#utility.yul\":2309:2318   */\n      dup3\n        /* \"#utility.yul\":2300:2307   */\n      dup5\n        /* \"#utility.yul\":2296:2319   */\n      sub\n        /* \"#utility.yul\":2292:2324   */\n      slt\n        /* \"#utility.yul\":2289:2408   */\n      iszero\n      tag_546\n      jumpi\n        /* \"#utility.yul\":2327:2406   */\n      tag_547\n      tag_425\n      jump\t// in\n    tag_547:\n        /* \"#utility.yul\":2289:2408   */\n    tag_546:\n        /* \"#utility.yul\":2447:2448   */\n      0x00\n        /* \"#utility.yul\":2472:2522   */\n      tag_548\n        /* \"#utility.yul\":2514:2521   */\n      dup5\n        /* \"#utility.yul\":2505:2511   */\n      dup3\n        /* \"#utility.yul\":2494:2503   */\n      dup6\n        /* \"#utility.yul\":2490:2512   */\n      add\n        /* \"#utility.yul\":2472:2522   */\n      tag_432\n      jump\t// in\n    tag_548:\n        /* \"#utility.yul\":2462:2522   */\n      swap2\n      pop\n        /* \"#utility.yul\":2418:2532   */\n      pop\n        /* \"#utility.yul\":2216:2539   */\n      swap3\n      swap2\n      pop\n      pop\n      jump\t// out\n        /* \"#utility.yul\":2545:2622   */\n    tag_433:\n        /* \"#utility.yul\":2582:2589   */\n      0x00\n        /* \"#utility.yul\":2611:2616   */\n      dup2\n        /* \"#utility.yul\":2600:2616   */\n      swap1\n      pop\n        /* \"#utility.yul\":2545:2622   */\n      swap2\n      swap1\n      pop\n      jump\t// out\n        /* \"#utility.yul\":2628:2746   */\n    tag_434:\n        /* \"#utility.yul\":2715:2739   */\n      tag_551\n        /* \"#utility.yul\":2733:2738   */\n      dup2\n        /* \"#utility.yul\":2715:2739   */\n      tag_433\n      jump\t// in\n    tag_551:\n        /* \"#utility.yul\":2710:2713   */\n      dup3\n        /* \"#utility.yul\":2703:2740   */\n      mstore\n        /* \"#utility.yul\":2628:2746   */\n      pop\n      pop\n      jump\t// out\n        /* \"#utility.yul\":2752:2974   */\n    tag_74:\n        /* \"#utility.yul\":2845:2849   */\n      0x00\n        /* \"#utility.yul\":2883:2885   */\n      0x20\n        /* \"#utility.yul\":2872:2881   */\n      dup3\n        /* \"#utility.yul\":2868:2886   */\n      add\n        /* \"#utility.yul\":2860:2886   */\n      swap1\n      pop\n        /* \"#utility.yul\":2896:2967   */\n      tag_553\n        /* \"#utility.yul\":2964:2965   */\n      0x00\n        /* \"#utility.yul\":2953:2962   */\n      dup4\n        /* \"#utility.yul\":2949:2966   */\n      add\n        /* \"#utility.yul\":2940:2946   */\n      dup5\n        /* \"#utility.yul\":2896:2967   */\n      tag_434\n      jump\t// in\n    tag_553:\n        /* \"#utility.yul\":2752:2974   */\n      swap3\n      swap2\n      pop\n      pop\n      jump\t// out\n        /* \"#utility.yul\":2980:3084   */\n    tag_435:\n        /* \"#utility.yul\":3025:3032   */\n      0x00\n        /* \"#utility.yul\":3054:3078   */\n      tag_555\n        /* \"#utility.yul\":3072:3077   */\n      dup3\n        /* \"#utility.yul\":3054:3078   */\n      tag_421\n      jump\t// in\n    tag_555:\n        /* \"#utility.yul\":3043:3078   */\n      swap1\n      pop\n        /* \"#utility.yul\":2980:3084   */\n      swap2\n      swap1\n      pop\n      jump\t// out\n        /* \"#utility.yul\":3090:3232   */\n    tag_436:\n        /* \"#utility.yul\":3193:3225   */\n      tag_557\n        /* \"#utility.yul\":3219:3224   */\n      dup2\n        /* \"#utility.yul\":3193:3225   */\n      tag_435\n      jump\t// in\n    tag_557:\n        /* \"#utility.yul\":3188:3191   */\n      dup3\n        /* \"#utility.yul\":3181:3226   */\n      mstore\n        /* \"#utility.yul\":3090:3232   */\n      pop\n      pop\n      jump\t// out\n        /* \"#utility.yul\":3238:3492   */\n    tag_91:\n        /* \"#utility.yul\":3347:3351   */\n      0x00\n        /* \"#utility.yul\":3385:3387   */\n      0x20\n        /* \"#utility.yul\":3374:3383   */\n      dup3\n        /* \"#utility.yul\":3370:3388   */\n      add\n        /* \"#utility.yul\":3362:3388   */\n      swap1\n      pop\n        /* \"#utility.yul\":3398:3485   */\n      tag_559\n        /* \"#utility.yul\":3482:3483   */\n      0x00\n        /* \"#utility.yul\":3471:3480   */\n      dup4\n        /* \"#utility.yul\":3467:3484   */\n      add\n        /* \"#utility.yul\":3458:3464   */\n      dup5\n        /* \"#utility.yul\":3398:3485   */\n      tag_436\n      jump\t// in\n    tag_559:\n        /* \"#utility.yul\":3238:3492   */\n      swap3\n      swap2\n      pop\n      pop\n      jump\t// out\n        /* \"#utility.yul\":3498:3620   */\n    tag_437:\n        /* \"#utility.yul\":3571:3595   */\n      tag_561\n        /* \"#utility.yul\":3589:3594   */\n      dup2\n        /* \"#utility.yul\":3571:3595   */\n      tag_433\n      jump\t// in\n    tag_561:\n        /* \"#utility.yul\":3564:3569   */\n      dup2\n        /* \"#utility.yul\":3561:3596   */\n      eq\n        /* \"#utility.yul\":3551:3614   */\n      tag_562\n      jumpi\n        /* \"#utility.yul\":3610:3611   */\n      0x00\n        /* \"#utility.yul\":3607:3608   */\n      dup1\n        /* \"#utility.yul\":3600:3612   */\n      revert\n        /* \"#utility.yul\":3551:3614   */\n    tag_562:\n        /* \"#utility.yul\":3498:3620   */\n      pop\n      jump\t// out\n        /* \"#utility.yul\":3626:3765   */\n    tag_438:\n        /* \"#utility.yul\":3672:3677   */\n      0x00\n        /* \"#utility.yul\":3710:3716   */\n      dup2\n        /* \"#utility.yul\":3697:3717   */\n      calldataload\n        /* \"#utility.yul\":3688:3717   */\n      swap1\n      pop\n        /* \"#utility.yul\":3726:3759   */\n      tag_564\n        /* \"#utility.yul\":3753:3758   */\n      dup2\n        /* \"#utility.yul\":3726:3759   */\n      tag_437\n      jump\t// in\n    tag_564:\n        /* \"#utility.yul\":3626:3765   */\n      swap3\n      swap2\n      pop\n      pop\n      jump\t// out\n        /* \"#utility.yul\":3771:3909   */\n    tag_439:\n        /* \"#utility.yul\":3852:3884   */\n      tag_566\n        /* \"#utility.yul\":3878:3883   */\n      dup2\n        /* \"#utility.yul\":3852:3884   */\n      tag_435\n      jump\t// in\n    tag_566:\n        /* \"#utility.yul\":3845:3850   */\n      dup2\n        /* \"#utility.yul\":3842:3885   */\n      eq\n        /* \"#utility.yul\":3832:3903   */\n      tag_567\n      jumpi\n        /* \"#utility.yul\":3899:3900   */\n      0x00\n        /* \"#utility.yul\":3896:3897   */\n      dup1\n        /* \"#utility.yul\":3889:3901   */\n      revert\n        /* \"#utility.yul\":3832:3903   */\n    tag_567:\n        /* \"#utility.yul\":3771:3909   */\n      pop\n      jump\t// out\n        /* \"#utility.yul\":3915:4070   */\n    tag_440:\n        /* \"#utility.yul\":3969:3974   */\n      0x00\n        /* \"#utility.yul\":4007:4013   */\n      dup2\n        /* \"#utility.yul\":3994:4014   */\n      calldataload\n        /* \"#utility.yul\":3985:4014   */\n      swap1\n      pop\n        /* \"#utility.yul\":4023:4064   */\n      tag_569\n        /* \"#utility.yul\":4058:4063   */\n      dup2\n        /* \"#utility.yul\":4023:4064   */\n      tag_439\n      jump\t// in\n    tag_569:\n        /* \"#utility.yul\":3915:4070   */\n      swap3\n      swap2\n      pop\n      pop\n      jump\t// out\n        /* \"#utility.yul\":4076:4566   */\n    tag_130:\n        /* \"#utility.yul\":4152:4158   */\n      0x00\n        /* \"#utility.yul\":4160:4166   */\n      dup1\n        /* \"#utility.yul\":4209:4211   */\n      0x40\n        /* \"#utility.yul\":4197:4206   */\n      dup4\n        /* \"#utility.yul\":4188:4195   */\n      dup6\n        /* \"#utility.yul\":4184:4207   */\n      sub\n        /* \"#utility.yul\":4180:4212   */\n      slt\n        /* \"#utility.yul\":4177:4296   */\n      iszero\n      tag_571\n      jumpi\n        /* \"#utility.yul\":4215:4294   */\n      tag_572\n      tag_425\n      jump\t// in\n    tag_572:\n        /* \"#utility.yul\":4177:4296   */\n    tag_571:\n        /* \"#utility.yul\":4335:4336   */\n      0x00\n        /* \"#utility.yul\":4360:4413   */\n      tag_573\n        /* \"#utility.yul\":4405:4412   */\n      dup6\n        /* \"#utility.yul\":4396:4402   */\n      dup3\n        /* \"#utility.yul\":4385:4394   */\n      dup7\n        /* \"#utility.yul\":4381:4403   */\n      add\n        /* \"#utility.yul\":4360:4413   */\n      tag_438\n      jump\t// in\n    tag_573:\n        /* \"#utility.yul\":4350:4413   */\n      swap3\n      pop\n        /* \"#utility.yul\":4306:4423   */\n      pop\n        /* \"#utility.yul\":4462:4464   */\n      0x20\n        /* \"#utility.yul\":4488:4549   */\n      tag_574\n        /* \"#utility.yul\":4541:4548   */\n      dup6\n        /* \"#utility.yul\":4532:4538   */\n      dup3\n        /* \"#utility.yul\":4521:4530   */\n      dup7\n        /* \"#utility.yul\":4517:4539   */\n      add\n        /* \"#utility.yul\":4488:4549   */\n      tag_440\n      jump\t// in\n    tag_574:\n        /* \"#utility.yul\":4478:4549   */\n      swap2\n      pop\n        /* \"#utility.yul\":4433:4559   */\n      pop\n        /* \"#utility.yul\":4076:4566   */\n      swap3\n      pop\n      swap3\n      swap1\n      pop\n      jump\t// out\n        /* \"#utility.yul\":4572:5191   */\n    tag_135:\n        /* \"#utility.yul\":4649:4655   */\n      0x00\n        /* \"#utility.yul\":4657:4663   */\n      dup1\n        /* \"#utility.yul\":4665:4671   */\n      0x00\n        /* \"#utility.yul\":4714:4716   */\n      0x60\n        /* \"#utility.yul\":4702:4711   */\n      dup5\n        /* \"#utility.yul\":4693:4700   */\n      dup7\n        /* \"#utility.yul\":4689:4712   */\n      sub\n        /* \"#utility.yul\":4685:4717   */\n      slt\n        /* \"#utility.yul\":4682:4801   */\n      iszero\n      tag_576\n      jumpi\n        /* \"#utility.yul\":4720:4799   */\n      tag_577\n      tag_425\n      jump\t// in\n    tag_577:\n        /* \"#utility.yul\":4682:4801   */\n    tag_576:\n        /* \"#utility.yul\":4840:4841   */\n      0x00\n        /* \"#utility.yul\":4865:4918   */\n      tag_578\n        /* \"#utility.yul\":4910:4917   */\n      dup7\n        /* \"#utility.yul\":4901:4907   */\n      dup3\n        /* \"#utility.yul\":4890:4899   */\n      dup8\n        /* \"#utility.yul\":4886:4908   */\n      add\n        /* \"#utility.yul\":4865:4918   */\n      tag_428\n      jump\t// in\n    tag_578:\n        /* \"#utility.yul\":4855:4918   */\n      swap4\n      pop\n        /* \"#utility.yul\":4811:4928   */\n      pop\n        /* \"#utility.yul\":4967:4969   */\n      0x20\n        /* \"#utility.yul\":4993:5046   */\n      tag_579\n        /* \"#utility.yul\":5038:5045   */\n      dup7\n        /* \"#utility.yul\":5029:5035   */\n      dup3\n        /* \"#utility.yul\":5018:5027   */\n      dup8\n        /* \"#utility.yul\":5014:5036   */\n      add\n        /* \"#utility.yul\":4993:5046   */\n      tag_438\n      jump\t// in\n    tag_579:\n        /* \"#utility.yul\":4983:5046   */\n      swap3\n      pop\n        /* \"#utility.yul\":4938:5056   */\n      pop\n        /* \"#utility.yul\":5095:5097   */\n      0x40\n        /* \"#utility.yul\":5121:5174   */\n      tag_580\n        /* \"#utility.yul\":5166:5173   */\n      dup7\n        /* \"#utility.yul\":5157:5163   */\n      dup3\n        /* \"#utility.yul\":5146:5155   */\n      dup8\n        /* \"#utility.yul\":5142:5164   */\n      add\n        /* \"#utility.yul\":5121:5174   */\n      tag_428\n      jump\t// in\n    tag_580:\n        /* \"#utility.yul\":5111:5174   */\n      swap2\n      pop\n        /* \"#utility.yul\":5066:5184   */\n      pop\n        /* \"#utility.yul\":4572:5191   */\n      swap3\n      pop\n      swap3\n      pop\n      swap3\n      jump\t// out\n        /* \"#utility.yul\":5197:5340   */\n    tag_441:\n        /* \"#utility.yul\":5254:5259   */\n      0x00\n        /* \"#utility.yul\":5285:5291   */\n      dup2\n        /* \"#utility.yul\":5279:5292   */\n      mload\n        /* \"#utility.yul\":5270:5292   */\n      swap1\n      pop\n        /* \"#utility.yul\":5301:5334   */\n      tag_582\n        /* \"#utility.yul\":5328:5333   */\n      dup2\n        /* \"#utility.yul\":5301:5334   */\n      tag_437\n      jump\t// in\n    tag_582:\n        /* \"#utility.yul\":5197:5340   */\n      swap3\n      swap2\n      pop\n      pop\n      jump\t// out\n        /* \"#utility.yul\":5346:5697   */\n    tag_167:\n        /* \"#utility.yul\":5416:5422   */\n      0x00\n        /* \"#utility.yul\":5465:5467   */\n      0x20\n        /* \"#utility.yul\":5453:5462   */\n      dup3\n        /* \"#utility.yul\":5444:5451   */\n      dup5\n        /* \"#utility.yul\":5440:5463   */\n      sub\n        /* \"#utility.yul\":5436:5468   */\n      slt\n        /* \"#utility.yul\":5433:5552   */\n      iszero\n      tag_584\n      jumpi\n        /* \"#utility.yul\":5471:5550   */\n      tag_585\n      tag_425\n      jump\t// in\n    tag_585:\n        /* \"#utility.yul\":5433:5552   */\n    tag_584:\n        /* \"#utility.yul\":5591:5592   */\n      0x00\n        /* \"#utility.yul\":5616:5680   */\n      tag_586\n        /* \"#utility.yul\":5672:5679   */\n      dup5\n        /* \"#utility.yul\":5663:5669   */\n      dup3\n        /* \"#utility.yul\":5652:5661   */\n      dup6\n        /* \"#utility.yul\":5648:5670   */\n      add\n        /* \"#utility.yul\":5616:5680   */\n      tag_441\n      jump\t// in\n    tag_586:\n        /* \"#utility.yul\":5606:5680   */\n      swap2\n      pop\n        /* \"#utility.yul\":5562:5690   */\n      pop\n        /* \"#utility.yul\":5346:5697   */\n      swap3\n      swap2\n      pop\n      pop\n      jump\t// out\n        /* \"#utility.yul\":5703:5883   */\n    tag_442:\n        /* \"#utility.yul\":5751:5828   */\n      0x4e487b7100000000000000000000000000000000000000000000000000000000\n        /* \"#utility.yul\":5748:5749   */\n      0x00\n        /* \"#utility.yul\":5741:5829   */\n      mstore\n        /* \"#utility.yul\":5848:5852   */\n      0x11\n        /* \"#utility.yul\":5845:5846   */\n      0x04\n        /* \"#utility.yul\":5838:5853   */\n      mstore\n        /* \"#utility.yul\":5872:5876   */\n      0x24\n        /* \"#utility.yul\":5869:5870   */\n      0x00\n        /* \"#utility.yul\":5862:5877   */\n      revert\n        /* \"#utility.yul\":5889:6080   */\n    tag_169:\n        /* \"#utility.yul\":5929:5932   */\n      0x00\n        /* \"#utility.yul\":5948:5968   */\n      tag_589\n        /* \"#utility.yul\":5966:5967   */\n      dup3\n        /* \"#utility.yul\":5948:5968   */\n      tag_433\n      jump\t// in\n    tag_589:\n        /* \"#utility.yul\":5943:5968   */\n      swap2\n      pop\n        /* \"#utility.yul\":5982:6002   */\n      tag_590\n        /* \"#utility.yul\":6000:6001   */\n      dup4\n        /* \"#utility.yul\":5982:6002   */\n      tag_433\n      jump\t// in\n    tag_590:\n        /* \"#utility.yul\":5977:6002   */\n      swap3\n      pop\n        /* \"#utility.yul\":6025:6026   */\n      dup3\n        /* \"#utility.yul\":6022:6023   */\n      dup3\n        /* \"#utility.yul\":6018:6027   */\n      add\n        /* \"#utility.yul\":6011:6027   */\n      swap1\n      pop\n        /* \"#utility.yul\":6046:6049   */\n      dup1\n        /* \"#utility.yul\":6043:6044   */\n      dup3\n        /* \"#utility.yul\":6040:6050   */\n      gt\n        /* \"#utility.yul\":6037:6073   */\n      iszero\n      tag_591\n      jumpi\n        /* \"#utility.yul\":6053:6071   */\n      tag_592\n      tag_442\n      jump\t// in\n    tag_592:\n        /* \"#utility.yul\":6037:6073   */\n    tag_591:\n        /* \"#utility.yul\":5889:6080   */\n      swap3\n      swap2\n      pop\n      pop\n      jump\t// out\n        /* \"#utility.yul\":6086:6255   */\n    tag_443:\n        /* \"#utility.yul\":6170:6181   */\n      0x00\n        /* \"#utility.yul\":6204:6210   */\n      dup3\n        /* \"#utility.yul\":6199:6202   */\n      dup3\n        /* \"#utility.yul\":6192:6211   */\n      mstore\n        /* \"#utility.yul\":6244:6248   */\n      0x20\n        /* \"#utility.yul\":6239:6242   */\n      dup3\n        /* \"#utility.yul\":6235:6249   */\n      add\n        /* \"#utility.yul\":6220:6249   */\n      swap1\n      pop\n        /* \"#utility.yul\":6086:6255   */\n      swap3\n      swap2\n      pop\n      pop\n      jump\t// out\n        /* \"#utility.yul\":6261:6424   */\n    tag_444:\n        /* \"#utility.yul\":6401:6416   */\n      0x42616c616e6365206572726f7200000000000000000000000000000000000000\n        /* \"#utility.yul\":6397:6398   */\n      0x00\n        /* \"#utility.yul\":6389:6395   */\n      dup3\n        /* \"#utility.yul\":6385:6399   */\n      add\n        /* \"#utility.yul\":6378:6417   */\n      mstore\n        /* \"#utility.yul\":6261:6424   */\n      pop\n      jump\t// out\n        /* \"#utility.yul\":6430:6796   */\n    tag_445:\n        /* \"#utility.yul\":6572:6575   */\n      0x00\n        /* \"#utility.yul\":6593:6660   */\n      tag_596\n        /* \"#utility.yul\":6657:6659   */\n      0x0d\n        /* \"#utility.yul\":6652:6655   */\n      dup4\n        /* \"#utility.yul\":6593:6660   */\n      tag_443\n      jump\t// in\n    tag_596:\n        /* \"#utility.yul\":6586:6660   */\n      swap2\n      pop\n        /* \"#utility.yul\":6669:6762   */\n      tag_597\n        /* \"#utility.yul\":6758:6761   */\n      dup3\n        /* \"#utility.yul\":6669:6762   */\n      tag_444\n      jump\t// in\n    tag_597:\n        /* \"#utility.yul\":6787:6789   */\n      0x20\n        /* \"#utility.yul\":6782:6785   */\n      dup3\n        /* \"#utility.yul\":6778:6790   */\n      add\n        /* \"#utility.yul\":6771:6790   */\n      swap1\n      pop\n        /* \"#utility.yul\":6430:6796   */\n      swap2\n      swap1\n      pop\n      jump\t// out\n        /* \"#utility.yul\":6802:7221   */\n    tag_173:\n        /* \"#utility.yul\":6968:6972   */\n      0x00\n        /* \"#utility.yul\":7006:7008   */\n      0x20\n        /* \"#utility.yul\":6995:7004   */\n      dup3\n        /* \"#utility.yul\":6991:7009   */\n      add\n        /* \"#utility.yul\":6983:7009   */\n      swap1\n      pop\n        /* \"#utility.yul\":7055:7064   */\n      dup2\n        /* \"#utility.yul\":7049:7053   */\n      dup2\n        /* \"#utility.yul\":7045:7065   */\n      sub\n        /* \"#utility.yul\":7041:7042   */\n      0x00\n        /* \"#utility.yul\":7030:7039   */\n      dup4\n        /* \"#utility.yul\":7026:7043   */\n      add\n        /* \"#utility.yul\":7019:7066   */\n      mstore\n        /* \"#utility.yul\":7083:7214   */\n      tag_599\n        /* \"#utility.yul\":7209:7213   */\n      dup2\n        /* \"#utility.yul\":7083:7214   */\n      tag_445\n      jump\t// in\n    tag_599:\n        /* \"#utility.yul\":7075:7214   */\n      swap1\n      pop\n        /* \"#utility.yul\":6802:7221   */\n      swap2\n      swap1\n      pop\n      jump\t// out\n        /* \"#utility.yul\":7227:7421   */\n    tag_175:\n        /* \"#utility.yul\":7267:7271   */\n      0x00\n        /* \"#utility.yul\":7287:7307   */\n      tag_601\n        /* \"#utility.yul\":7305:7306   */\n      dup3\n        /* \"#utility.yul\":7287:7307   */\n      tag_433\n      jump\t// in\n    tag_601:\n        /* \"#utility.yul\":7282:7307   */\n      swap2\n      pop\n        /* \"#utility.yul\":7321:7341   */\n      tag_602\n        /* \"#utility.yul\":7339:7340   */\n      dup4\n        /* \"#utility.yul\":7321:7341   */\n      tag_433\n      jump\t// in\n    tag_602:\n        /* \"#utility.yul\":7316:7341   */\n      swap3\n      pop\n        /* \"#utility.yul\":7365:7366   */\n      dup3\n        /* \"#utility.yul\":7362:7363   */\n      dup3\n        /* \"#utility.yul\":7358:7367   */\n      sub\n        /* \"#utility.yul\":7350:7367   */\n      swap1\n      pop\n        /* \"#utility.yul\":7389:7390   */\n      dup2\n        /* \"#utility.yul\":7383:7387   */\n      dup2\n        /* \"#utility.yul\":7380:7391   */\n      gt\n        /* \"#utility.yul\":7377:7414   */\n      iszero\n      tag_603\n      jumpi\n        /* \"#utility.yul\":7394:7412   */\n      tag_604\n      tag_442\n      jump\t// in\n    tag_604:\n        /* \"#utility.yul\":7377:7414   */\n    tag_603:\n        /* \"#utility.yul\":7227:7421   */\n      swap3\n      swap2\n      pop\n      pop\n      jump\t// out\n        /* \"#utility.yul\":7427:7837   */\n    tag_178:\n        /* \"#utility.yul\":7467:7474   */\n      0x00\n        /* \"#utility.yul\":7490:7510   */\n      tag_606\n        /* \"#utility.yul\":7508:7509   */\n      dup3\n        /* \"#utility.yul\":7490:7510   */\n      tag_433\n      jump\t// in\n    tag_606:\n        /* \"#utility.yul\":7485:7510   */\n      swap2\n      pop\n        /* \"#utility.yul\":7524:7544   */\n      tag_607\n        /* \"#utility.yul\":7542:7543   */\n      dup4\n        /* \"#utility.yul\":7524:7544   */\n      tag_433\n      jump\t// in\n    tag_607:\n        /* \"#utility.yul\":7519:7544   */\n      swap3\n      pop\n        /* \"#utility.yul\":7579:7580   */\n      dup3\n        /* \"#utility.yul\":7576:7577   */\n      dup3\n        /* \"#utility.yul\":7572:7581   */\n      mul\n        /* \"#utility.yul\":7601:7631   */\n      tag_608\n        /* \"#utility.yul\":7619:7630   */\n      dup2\n        /* \"#utility.yul\":7601:7631   */\n      tag_433\n      jump\t// in\n    tag_608:\n        /* \"#utility.yul\":7590:7631   */\n      swap2\n      pop\n        /* \"#utility.yul\":7780:7781   */\n      dup3\n        /* \"#utility.yul\":7771:7778   */\n      dup3\n        /* \"#utility.yul\":7767:7782   */\n      div\n        /* \"#utility.yul\":7764:7765   */\n      dup5\n        /* \"#utility.yul\":7761:7783   */\n      eq\n        /* \"#utility.yul\":7741:7742   */\n      dup4\n        /* \"#utility.yul\":7734:7743   */\n      iszero\n        /* \"#utility.yul\":7714:7797   */\n      or\n        /* \"#utility.yul\":7691:7830   */\n      tag_609\n      jumpi\n        /* \"#utility.yul\":7810:7828   */\n      tag_610\n      tag_442\n      jump\t// in\n    tag_610:\n        /* \"#utility.yul\":7691:7830   */\n    tag_609:\n        /* \"#utility.yul\":7475:7837   */\n      pop\n        /* \"#utility.yul\":7427:7837   */\n      swap3\n      swap2\n      pop\n      pop\n      jump\t// out\n        /* \"#utility.yul\":7843:8023   */\n    tag_446:\n        /* \"#utility.yul\":7891:7968   */\n      0x4e487b7100000000000000000000000000000000000000000000000000000000\n        /* \"#utility.yul\":7888:7889   */\n      0x00\n        /* \"#utility.yul\":7881:7969   */\n      mstore\n        /* \"#utility.yul\":7988:7992   */\n      0x12\n        /* \"#utility.yul\":7985:7986   */\n      0x04\n        /* \"#utility.yul\":7978:7993   */\n      mstore\n        /* \"#utility.yul\":8012:8016   */\n      0x24\n        /* \"#utility.yul\":8009:8010   */\n      0x00\n        /* \"#utility.yul\":8002:8017   */\n      revert\n        /* \"#utility.yul\":8029:8214   */\n    tag_180:\n        /* \"#utility.yul\":8069:8070   */\n      0x00\n        /* \"#utility.yul\":8086:8106   */\n      tag_613\n        /* \"#utility.yul\":8104:8105   */\n      dup3\n        /* \"#utility.yul\":8086:8106   */\n      tag_433\n      jump\t// in\n    tag_613:\n        /* \"#utility.yul\":8081:8106   */\n      swap2\n      pop\n        /* \"#utility.yul\":8120:8140   */\n      tag_614\n        /* \"#utility.yul\":8138:8139   */\n      dup4\n        /* \"#utility.yul\":8120:8140   */\n      tag_433\n      jump\t// in\n    tag_614:\n        /* \"#utility.yul\":8115:8140   */\n      swap3\n      pop\n        /* \"#utility.yul\":8159:8160   */\n      dup3\n        /* \"#utility.yul\":8149:8184   */\n      tag_615\n      jumpi\n        /* \"#utility.yul\":8164:8182   */\n      tag_616\n      tag_446\n      jump\t// in\n    tag_616:\n        /* \"#utility.yul\":8149:8184   */\n    tag_615:\n        /* \"#utility.yul\":8206:8207   */\n      dup3\n        /* \"#utility.yul\":8203:8204   */\n      dup3\n        /* \"#utility.yul\":8199:8208   */\n      div\n        /* \"#utility.yul\":8194:8208   */\n      swap1\n      pop\n        /* \"#utility.yul\":8029:8214   */\n      swap3\n      swap2\n      pop\n      pop\n      jump\t// out\n        /* \"#utility.yul\":8220:8773   */\n    tag_189:\n        /* \"#utility.yul\":8397:8401   */\n      0x00\n        /* \"#utility.yul\":8435:8438   */\n      0x80\n        /* \"#utility.yul\":8424:8433   */\n      dup3\n        /* \"#utility.yul\":8420:8439   */\n      add\n        /* \"#utility.yul\":8412:8439   */\n      swap1\n      pop\n        /* \"#utility.yul\":8449:8520   */\n      tag_618\n        /* \"#utility.yul\":8517:8518   */\n      0x00\n        /* \"#utility.yul\":8506:8515   */\n      dup4\n        /* \"#utility.yul\":8502:8519   */\n      add\n        /* \"#utility.yul\":8493:8499   */\n      dup8\n        /* \"#utility.yul\":8449:8520   */\n      tag_434\n      jump\t// in\n    tag_618:\n        /* \"#utility.yul\":8530:8602   */\n      tag_619\n        /* \"#utility.yul\":8598:8600   */\n      0x20\n        /* \"#utility.yul\":8587:8596   */\n      dup4\n        /* \"#utility.yul\":8583:8601   */\n      add\n        /* \"#utility.yul\":8574:8580   */\n      dup7\n        /* \"#utility.yul\":8530:8602   */\n      tag_434\n      jump\t// in\n    tag_619:\n        /* \"#utility.yul\":8612:8684   */\n      tag_620\n        /* \"#utility.yul\":8680:8682   */\n      0x40\n        /* \"#utility.yul\":8669:8678   */\n      dup4\n        /* \"#utility.yul\":8665:8683   */\n      add\n        /* \"#utility.yul\":8656:8662   */\n      dup6\n        /* \"#utility.yul\":8612:8684   */\n      tag_434\n      jump\t// in\n    tag_620:\n        /* \"#utility.yul\":8694:8766   */\n      tag_621\n        /* \"#utility.yul\":8762:8764   */\n      0x60\n        /* \"#utility.yul\":8751:8760   */\n      dup4\n        /* \"#utility.yul\":8747:8765   */\n      add\n        /* \"#utility.yul\":8738:8744   */\n      dup5\n        /* \"#utility.yul\":8694:8766   */\n      tag_434\n      jump\t// in\n    tag_621:\n        /* \"#utility.yul\":8220:8773   */\n      swap6\n      swap5\n      pop\n      pop\n      pop\n      pop\n      pop\n      jump\t// out\n        /* \"#utility.yul\":8779:8944   */\n    tag_447:\n        /* \"#utility.yul\":8919:8936   */\n      0x4e6f742077686974656c69737465640000000000000000000000000000000000\n        /* \"#utility.yul\":8915:8916   */\n      0x00\n        /* \"#utility.yul\":8907:8913   */\n      dup3\n        /* \"#utility.yul\":8903:8917   */\n      add\n        /* \"#utility.yul\":8896:8937   */\n      mstore\n        /* \"#utility.yul\":8779:8944   */\n      pop\n      jump\t// out\n        /* \"#utility.yul\":8950:9316   */\n    tag_448:\n        /* \"#utility.yul\":9092:9095   */\n      0x00\n        /* \"#utility.yul\":9113:9180   */\n      tag_624\n        /* \"#utility.yul\":9177:9179   */\n      0x0f\n        /* \"#utility.yul\":9172:9175   */\n      dup4\n        /* \"#utility.yul\":9113:9180   */\n      tag_443\n      jump\t// in\n    tag_624:\n        /* \"#utility.yul\":9106:9180   */\n      swap2\n      pop\n        /* \"#utility.yul\":9189:9282   */\n      tag_625\n        /* \"#utility.yul\":9278:9281   */\n      dup3\n        /* \"#utility.yul\":9189:9282   */\n      tag_447\n      jump\t// in\n    tag_625:\n        /* \"#utility.yul\":9307:9309   */\n      0x20\n        /* \"#utility.yul\":9302:9305   */\n      dup3\n        /* \"#utility.yul\":9298:9310   */\n      add\n        /* \"#utility.yul\":9291:9310   */\n      swap1\n      pop\n        /* \"#utility.yul\":8950:9316   */\n      swap2\n      swap1\n      pop\n      jump\t// out\n        /* \"#utility.yul\":9322:9741   */\n    tag_203:\n        /* \"#utility.yul\":9488:9492   */\n      0x00\n        /* \"#utility.yul\":9526:9528   */\n      0x20\n        /* \"#utility.yul\":9515:9524   */\n      dup3\n        /* \"#utility.yul\":9511:9529   */\n      add\n        /* \"#utility.yul\":9503:9529   */\n      swap1\n      pop\n        /* \"#utility.yul\":9575:9584   */\n      dup2\n        /* \"#utility.yul\":9569:9573   */\n      dup2\n        /* \"#utility.yul\":9565:9585   */\n      sub\n        /* \"#utility.yul\":9561:9562   */\n      0x00\n        /* \"#utility.yul\":9550:9559   */\n      dup4\n        /* \"#utility.yul\":9546:9563   */\n      add\n        /* \"#utility.yul\":9539:9586   */\n      mstore\n        /* \"#utility.yul\":9603:9734   */\n      tag_627\n        /* \"#utility.yul\":9729:9733   */\n      dup2\n        /* \"#utility.yul\":9603:9734   */\n      tag_448\n      jump\t// in\n    tag_627:\n        /* \"#utility.yul\":9595:9734   */\n      swap1\n      pop\n        /* \"#utility.yul\":9322:9741   */\n      swap2\n      swap1\n      pop\n      jump\t// out\n        /* \"#utility.yul\":9747:9916   */\n    tag_449:\n        /* \"#utility.yul\":9887:9908   */\n      0x4e6f2062616c616e63657320746f206275726e00000000000000000000000000\n        /* \"#utility.yul\":9883:9884   */\n      0x00\n        /* \"#utility.yul\":9875:9881   */\n      dup3\n        /* \"#utility.yul\":9871:9885   */\n      add\n        /* \"#utility.yul\":9864:9909   */\n      mstore\n        /* \"#utility.yul\":9747:9916   */\n      pop\n      jump\t// out\n        /* \"#utility.yul\":9922:10288   */\n    tag_450:\n        /* \"#utility.yul\":10064:10067   */\n      0x00\n        /* \"#utility.yul\":10085:10152   */\n      tag_630\n        /* \"#utility.yul\":10149:10151   */\n      0x13\n        /* \"#utility.yul\":10144:10147   */\n      dup4\n        /* \"#utility.yul\":10085:10152   */\n      tag_443\n      jump\t// in\n    tag_630:\n        /* \"#utility.yul\":10078:10152   */\n      swap2\n      pop\n        /* \"#utility.yul\":10161:10254   */\n      tag_631\n        /* \"#utility.yul\":10250:10253   */\n      dup3\n        /* \"#utility.yul\":10161:10254   */\n      tag_449\n      jump\t// in\n    tag_631:\n        /* \"#utility.yul\":10279:10281   */\n      0x20\n        /* \"#utility.yul\":10274:10277   */\n      dup3\n        /* \"#utility.yul\":10270:10282   */\n      add\n        /* \"#utility.yul\":10263:10282   */\n      swap1\n      pop\n        /* \"#utility.yul\":9922:10288   */\n      swap2\n      swap1\n      pop\n      jump\t// out\n        /* \"#utility.yul\":10294:10713   */\n    tag_221:\n        /* \"#utility.yul\":10460:10464   */\n      0x00\n        /* \"#utility.yul\":10498:10500   */\n      0x20\n        /* \"#utility.yul\":10487:10496   */\n      dup3\n        /* \"#utility.yul\":10483:10501   */\n      add\n        /* \"#utility.yul\":10475:10501   */\n      swap1\n      pop\n        /* \"#utility.yul\":10547:10556   */\n      dup2\n        /* \"#utility.yul\":10541:10545   */\n      dup2\n        /* \"#utility.yul\":10537:10557   */\n      sub\n        /* \"#utility.yul\":10533:10534   */\n      0x00\n        /* \"#utility.yul\":10522:10531   */\n      dup4\n        /* \"#utility.yul\":10518:10535   */\n      add\n        /* \"#utility.yul\":10511:10558   */\n      mstore\n        /* \"#utility.yul\":10575:10706   */\n      tag_633\n        /* \"#utility.yul\":10701:10705   */\n      dup2\n        /* \"#utility.yul\":10575:10706   */\n      tag_450\n      jump\t// in\n    tag_633:\n        /* \"#utility.yul\":10567:10706   */\n      swap1\n      pop\n        /* \"#utility.yul\":10294:10713   */\n      swap2\n      swap1\n      pop\n      jump\t// out\n        /* \"#utility.yul\":10719:10897   */\n    tag_451:\n        /* \"#utility.yul\":10859:10889   */\n      0x496e76616c6964204e465420636f6e7472616374206164647265737300000000\n        /* \"#utility.yul\":10855:10856   */\n      0x00\n        /* \"#utility.yul\":10847:10853   */\n      dup3\n        /* \"#utility.yul\":10843:10857   */\n      add\n        /* \"#utility.yul\":10836:10890   */\n      mstore\n        /* \"#utility.yul\":10719:10897   */\n      pop\n      jump\t// out\n        /* \"#utility.yul\":10903:11269   */\n    tag_452:\n        /* \"#utility.yul\":11045:11048   */\n      0x00\n        /* \"#utility.yul\":11066:11133   */\n      tag_636\n        /* \"#utility.yul\":11130:11132   */\n      0x1c\n        /* \"#utility.yul\":11125:11128   */\n      dup4\n        /* \"#utility.yul\":11066:11133   */\n      tag_443\n      jump\t// in\n    tag_636:\n        /* \"#utility.yul\":11059:11133   */\n      swap2\n      pop\n        /* \"#utility.yul\":11142:11235   */\n      tag_637\n        /* \"#utility.yul\":11231:11234   */\n      dup3\n        /* \"#utility.yul\":11142:11235   */\n      tag_451\n      jump\t// in\n    tag_637:\n        /* \"#utility.yul\":11260:11262   */\n      0x20\n        /* \"#utility.yul\":11255:11258   */\n      dup3\n        /* \"#utility.yul\":11251:11263   */\n      add\n        /* \"#utility.yul\":11244:11263   */\n      swap1\n      pop\n        /* \"#utility.yul\":10903:11269   */\n      swap2\n      swap1\n      pop\n      jump\t// out\n        /* \"#utility.yul\":11275:11694   */\n    tag_241:\n        /* \"#utility.yul\":11441:11445   */\n      0x00\n        /* \"#utility.yul\":11479:11481   */\n      0x20\n        /* \"#utility.yul\":11468:11477   */\n      dup3\n        /* \"#utility.yul\":11464:11482   */\n      add\n        /* \"#utility.yul\":11456:11482   */\n      swap1\n      pop\n        /* \"#utility.yul\":11528:11537   */\n      dup2\n        /* \"#utility.yul\":11522:11526   */\n      dup2\n        /* \"#utility.yul\":11518:11538   */\n      sub\n        /* \"#utility.yul\":11514:11515   */\n      0x00\n        /* \"#utility.yul\":11503:11512   */\n      dup4\n        /* \"#utility.yul\":11499:11516   */\n      add\n        /* \"#utility.yul\":11492:11539   */\n      mstore\n        /* \"#utility.yul\":11556:11687   */\n      tag_639\n        /* \"#utility.yul\":11682:11686   */\n      dup2\n        /* \"#utility.yul\":11556:11687   */\n      tag_452\n      jump\t// in\n    tag_639:\n        /* \"#utility.yul\":11548:11687   */\n      swap1\n      pop\n        /* \"#utility.yul\":11275:11694   */\n      swap2\n      swap1\n      pop\n      jump\t// out\n        /* \"#utility.yul\":11700:11869   */\n    tag_453:\n        /* \"#utility.yul\":11840:11861   */\n      0x416c72656164792077686974656c697374656400000000000000000000000000\n        /* \"#utility.yul\":11836:11837   */\n      0x00\n        /* \"#utility.yul\":11828:11834   */\n      dup3\n        /* \"#utility.yul\":11824:11838   */\n      add\n        /* \"#utility.yul\":11817:11862   */\n      mstore\n        /* \"#utility.yul\":11700:11869   */\n      pop\n      jump\t// out\n        /* \"#utility.yul\":11875:12241   */\n    tag_454:\n        /* \"#utility.yul\":12017:12020   */\n      0x00\n        /* \"#utility.yul\":12038:12105   */\n      tag_642\n        /* \"#utility.yul\":12102:12104   */\n      0x13\n        /* \"#utility.yul\":12097:12100   */\n      dup4\n        /* \"#utility.yul\":12038:12105   */\n      tag_443\n      jump\t// in\n    tag_642:\n        /* \"#utility.yul\":12031:12105   */\n      swap2\n      pop\n        /* \"#utility.yul\":12114:12207   */\n      tag_643\n        /* \"#utility.yul\":12203:12206   */\n      dup3\n        /* \"#utility.yul\":12114:12207   */\n      tag_453\n      jump\t// in\n    tag_643:\n        /* \"#utility.yul\":12232:12234   */\n      0x20\n        /* \"#utility.yul\":12227:12230   */\n      dup3\n        /* \"#utility.yul\":12223:12235   */\n      add\n        /* \"#utility.yul\":12216:12235   */\n      swap1\n      pop\n        /* \"#utility.yul\":11875:12241   */\n      swap2\n      swap1\n      pop\n      jump\t// out\n        /* \"#utility.yul\":12247:12666   */\n    tag_244:\n        /* \"#utility.yul\":12413:12417   */\n      0x00\n        /* \"#utility.yul\":12451:12453   */\n      0x20\n        /* \"#utility.yul\":12440:12449   */\n      dup3\n        /* \"#utility.yul\":12436:12454   */\n      add\n        /* \"#utility.yul\":12428:12454   */\n      swap1\n      pop\n        /* \"#utility.yul\":12500:12509   */\n      dup2\n        /* \"#utility.yul\":12494:12498   */\n      dup2\n        /* \"#utility.yul\":12490:12510   */\n      sub\n        /* \"#utility.yul\":12486:12487   */\n      0x00\n        /* \"#utility.yul\":12475:12484   */\n      dup4\n        /* \"#utility.yul\":12471:12488   */\n      add\n        /* \"#utility.yul\":12464:12511   */\n      mstore\n        /* \"#utility.yul\":12528:12659   */\n      tag_645\n        /* \"#utility.yul\":12654:12658   */\n      dup2\n        /* \"#utility.yul\":12528:12659   */\n      tag_454\n      jump\t// in\n    tag_645:\n        /* \"#utility.yul\":12520:12659   */\n      swap1\n      pop\n        /* \"#utility.yul\":12247:12666   */\n      swap2\n      swap1\n      pop\n      jump\t// out\n        /* \"#utility.yul\":12672:12839   */\n    tag_455:\n        /* \"#utility.yul\":12812:12831   */\n      0x496e76616c696420726563697069656e74000000000000000000000000000000\n        /* \"#utility.yul\":12808:12809   */\n      0x00\n        /* \"#utility.yul\":12800:12806   */\n      dup3\n        /* \"#utility.yul\":12796:12810   */\n      add\n        /* \"#utility.yul\":12789:12832   */\n      mstore\n        /* \"#utility.yul\":12672:12839   */\n      pop\n      jump\t// out\n        /* \"#utility.yul\":12845:13211   */\n    tag_456:\n        /* \"#utility.yul\":12987:12990   */\n      0x00\n        /* \"#utility.yul\":13008:13075   */\n      tag_648\n        /* \"#utility.yul\":13072:13074   */\n      0x11\n        /* \"#utility.yul\":13067:13070   */\n      dup4\n        /* \"#utility.yul\":13008:13075   */\n      tag_443\n      jump\t// in\n    tag_648:\n        /* \"#utility.yul\":13001:13075   */\n      swap2\n      pop\n        /* \"#utility.yul\":13084:13177   */\n      tag_649\n        /* \"#utility.yul\":13173:13176   */\n      dup3\n        /* \"#utility.yul\":13084:13177   */\n      tag_455\n      jump\t// in\n    tag_649:\n        /* \"#utility.yul\":13202:13204   */\n      0x20\n        /* \"#utility.yul\":13197:13200   */\n      dup3\n        /* \"#utility.yul\":13193:13205   */\n      add\n        /* \"#utility.yul\":13186:13205   */\n      swap1\n      pop\n        /* \"#utility.yul\":12845:13211   */\n      swap2\n      swap1\n      pop\n      jump\t// out\n        /* \"#utility.yul\":13217:13636   */\n    tag_254:\n        /* \"#utility.yul\":13383:13387   */\n      0x00\n        /* \"#utility.yul\":13421:13423   */\n      0x20\n        /* \"#utility.yul\":13410:13419   */\n      dup3\n        /* \"#utility.yul\":13406:13424   */\n      add\n        /* \"#utility.yul\":13398:13424   */\n      swap1\n      pop\n        /* \"#utility.yul\":13470:13479   */\n      dup2\n        /* \"#utility.yul\":13464:13468   */\n      dup2\n        /* \"#utility.yul\":13460:13480   */\n      sub\n        /* \"#utility.yul\":13456:13457   */\n      0x00\n        /* \"#utility.yul\":13445:13454   */\n      dup4\n        /* \"#utility.yul\":13441:13458   */\n      add\n        /* \"#utility.yul\":13434:13481   */\n      mstore\n        /* \"#utility.yul\":13498:13629   */\n      tag_651\n        /* \"#utility.yul\":13624:13628   */\n      dup2\n        /* \"#utility.yul\":13498:13629   */\n      tag_456\n      jump\t// in\n    tag_651:\n        /* \"#utility.yul\":13490:13629   */\n      swap1\n      pop\n        /* \"#utility.yul\":13217:13636   */\n      swap2\n      swap1\n      pop\n      jump\t// out\n        /* \"#utility.yul\":13642:13806   */\n    tag_457:\n        /* \"#utility.yul\":13782:13798   */\n      0x4e6f7420656e6f75676820455448000000000000000000000000000000000000\n        /* \"#utility.yul\":13778:13779   */\n      0x00\n        /* \"#utility.yul\":13770:13776   */\n      dup3\n        /* \"#utility.yul\":13766:13780   */\n      add\n        /* \"#utility.yul\":13759:13799   */\n      mstore\n        /* \"#utility.yul\":13642:13806   */\n      pop\n      jump\t// out\n        /* \"#utility.yul\":13812:14178   */\n    tag_458:\n        /* \"#utility.yul\":13954:13957   */\n      0x00\n        /* \"#utility.yul\":13975:14042   */\n      tag_654\n        /* \"#utility.yul\":14039:14041   */\n      0x0e\n        /* \"#utility.yul\":14034:14037   */\n      dup4\n        /* \"#utility.yul\":13975:14042   */\n      tag_443\n      jump\t// in\n    tag_654:\n        /* \"#utility.yul\":13968:14042   */\n      swap2\n      pop\n        /* \"#utility.yul\":14051:14144   */\n      tag_655\n        /* \"#utility.yul\":14140:14143   */\n      dup3\n        /* \"#utility.yul\":14051:14144   */\n      tag_457\n      jump\t// in\n    tag_655:\n        /* \"#utility.yul\":14169:14171   */\n      0x20\n        /* \"#utility.yul\":14164:14167   */\n      dup3\n        /* \"#utility.yul\":14160:14172   */\n      add\n        /* \"#utility.yul\":14153:14172   */\n      swap1\n      pop\n        /* \"#utility.yul\":13812:14178   */\n      swap2\n      swap1\n      pop\n      jump\t// out\n        /* \"#utility.yul\":14184:14603   */\n    tag_257:\n        /* \"#utility.yul\":14350:14354   */\n      0x00\n        /* \"#utility.yul\":14388:14390   */\n      0x20\n        /* \"#utility.yul\":14377:14386   */\n      dup3\n        /* \"#utility.yul\":14373:14391   */\n      add\n        /* \"#utility.yul\":14365:14391   */\n      swap1\n      pop\n        /* \"#utility.yul\":14437:14446   */\n      dup2\n        /* \"#utility.yul\":14431:14435   */\n      dup2\n        /* \"#utility.yul\":14427:14447   */\n      sub\n        /* \"#utility.yul\":14423:14424   */\n      0x00\n        /* \"#utility.yul\":14412:14421   */\n      dup4\n        /* \"#utility.yul\":14408:14425   */\n      add\n        /* \"#utility.yul\":14401:14448   */\n      mstore\n        /* \"#utility.yul\":14465:14596   */\n      tag_657\n        /* \"#utility.yul\":14591:14595   */\n      dup2\n        /* \"#utility.yul\":14465:14596   */\n      tag_458\n      jump\t// in\n    tag_657:\n        /* \"#utility.yul\":14457:14596   */\n      swap1\n      pop\n        /* \"#utility.yul\":14184:14603   */\n      swap2\n      swap1\n      pop\n      jump\t// out\n        /* \"#utility.yul\":14609:14756   */\n    tag_459:\n        /* \"#utility.yul\":14710:14721   */\n      0x00\n        /* \"#utility.yul\":14747:14750   */\n      dup2\n        /* \"#utility.yul\":14732:14750   */\n      swap1\n      pop\n        /* \"#utility.yul\":14609:14756   */\n      swap3\n      swap2\n      pop\n      pop\n      jump\t// out\n        /* \"#utility.yul\":14762:14876   */\n    tag_460:\n      pop\n      jump\t// out\n        /* \"#utility.yul\":14882:15280   */\n    tag_461:\n        /* \"#utility.yul\":15041:15044   */\n      0x00\n        /* \"#utility.yul\":15062:15145   */\n      tag_661\n        /* \"#utility.yul\":15143:15144   */\n      0x00\n        /* \"#utility.yul\":15138:15141   */\n      dup4\n        /* \"#utility.yul\":15062:15145   */\n      tag_459\n      jump\t// in\n    tag_661:\n        /* \"#utility.yul\":15055:15145   */\n      swap2\n      pop\n        /* \"#utility.yul\":15154:15247   */\n      tag_662\n        /* \"#utility.yul\":15243:15246   */\n      dup3\n        /* \"#utility.yul\":15154:15247   */\n      tag_460\n      jump\t// in\n    tag_662:\n        /* \"#utility.yul\":15272:15273   */\n      0x00\n        /* \"#utility.yul\":15267:15270   */\n      dup3\n        /* \"#utility.yul\":15263:15274   */\n      add\n        /* \"#utility.yul\":15256:15274   */\n      swap1\n      pop\n        /* \"#utility.yul\":14882:15280   */\n      swap2\n      swap1\n      pop\n      jump\t// out\n        /* \"#utility.yul\":15286:15665   */\n    tag_259:\n        /* \"#utility.yul\":15470:15473   */\n      0x00\n        /* \"#utility.yul\":15492:15639   */\n      tag_664\n        /* \"#utility.yul\":15635:15638   */\n      dup3\n        /* \"#utility.yul\":15492:15639   */\n      tag_461\n      jump\t// in\n    tag_664:\n        /* \"#utility.yul\":15485:15639   */\n      swap2\n      pop\n        /* \"#utility.yul\":15656:15659   */\n      dup2\n        /* \"#utility.yul\":15649:15659   */\n      swap1\n      pop\n        /* \"#utility.yul\":15286:15665   */\n      swap2\n      swap1\n      pop\n      jump\t// out\n        /* \"#utility.yul\":15671:15840   */\n    tag_462:\n        /* \"#utility.yul\":15811:15832   */\n      0x455448207472616e73666572206661696c656400000000000000000000000000\n        /* \"#utility.yul\":15807:15808   */\n      0x00\n        /* \"#utility.yul\":15799:15805   */\n      dup3\n        /* \"#utility.yul\":15795:15809   */\n      add\n        /* \"#utility.yul\":15788:15833   */\n      mstore\n        /* \"#utility.yul\":15671:15840   */\n      pop\n      jump\t// out\n        /* \"#utility.yul\":15846:16212   */\n    tag_463:\n        /* \"#utility.yul\":15988:15991   */\n      0x00\n        /* \"#utility.yul\":16009:16076   */\n      tag_667\n        /* \"#utility.yul\":16073:16075   */\n      0x13\n        /* \"#utility.yul\":16068:16071   */\n      dup4\n        /* \"#utility.yul\":16009:16076   */\n      tag_443\n      jump\t// in\n    tag_667:\n        /* \"#utility.yul\":16002:16076   */\n      swap2\n      pop\n        /* \"#utility.yul\":16085:16178   */\n      tag_668\n        /* \"#utility.yul\":16174:16177   */\n      dup3\n        /* \"#utility.yul\":16085:16178   */\n      tag_462\n      jump\t// in\n    tag_668:\n        /* \"#utility.yul\":16203:16205   */\n      0x20\n        /* \"#utility.yul\":16198:16201   */\n      dup3\n        /* \"#utility.yul\":16194:16206   */\n      add\n        /* \"#utility.yul\":16187:16206   */\n      swap1\n      pop\n        /* \"#utility.yul\":15846:16212   */\n      swap2\n      swap1\n      pop\n      jump\t// out\n        /* \"#utility.yul\":16218:16637   */\n    tag_265:\n        /* \"#utility.yul\":16384:16388   */\n      0x00\n        /* \"#utility.yul\":16422:16424   */\n      0x20\n        /* \"#utility.yul\":16411:16420   */\n      dup3\n        /* \"#utility.yul\":16407:16425   */\n      add\n        /* \"#utility.yul\":16399:16425   */\n      swap1\n      pop\n        /* \"#utility.yul\":16471:16480   */\n      dup2\n        /* \"#utility.yul\":16465:16469   */\n      dup2\n        /* \"#utility.yul\":16461:16481   */\n      sub\n        /* \"#utility.yul\":16457:16458   */\n      0x00\n        /* \"#utility.yul\":16446:16455   */\n      dup4\n        /* \"#utility.yul\":16442:16459   */\n      add\n        /* \"#utility.yul\":16435:16482   */\n      mstore\n        /* \"#utility.yul\":16499:16630   */\n      tag_670\n        /* \"#utility.yul\":16625:16629   */\n      dup2\n        /* \"#utility.yul\":16499:16630   */\n      tag_463\n      jump\t// in\n    tag_670:\n        /* \"#utility.yul\":16491:16630   */\n      swap1\n      pop\n        /* \"#utility.yul\":16218:16637   */\n      swap2\n      swap1\n      pop\n      jump\t// out\n        /* \"#utility.yul\":16643:16703   */\n    tag_464:\n        /* \"#utility.yul\":16671:16674   */\n      0x00\n        /* \"#utility.yul\":16692:16697   */\n      dup2\n        /* \"#utility.yul\":16685:16697   */\n      swap1\n      pop\n        /* \"#utility.yul\":16643:16703   */\n      swap2\n      swap1\n      pop\n      jump\t// out\n        /* \"#utility.yul\":16709:16851   */\n    tag_465:\n        /* \"#utility.yul\":16759:16768   */\n      0x00\n        /* \"#utility.yul\":16792:16845   */\n      tag_673\n        /* \"#utility.yul\":16810:16844   */\n      tag_674\n        /* \"#utility.yul\":16819:16843   */\n      tag_675\n        /* \"#utility.yul\":16837:16842   */\n      dup5\n        /* \"#utility.yul\":16819:16843   */\n      tag_421\n      jump\t// in\n    tag_675:\n        /* \"#utility.yul\":16810:16844   */\n      tag_464\n      jump\t// in\n    tag_674:\n        /* \"#utility.yul\":16792:16845   */\n      tag_421\n      jump\t// in\n    tag_673:\n        /* \"#utility.yul\":16779:16845   */\n      swap1\n      pop\n        /* \"#utility.yul\":16709:16851   */\n      swap2\n      swap1\n      pop\n      jump\t// out\n        /* \"#utility.yul\":16857:16983   */\n    tag_466:\n        /* \"#utility.yul\":16907:16916   */\n      0x00\n        /* \"#utility.yul\":16940:16977   */\n      tag_677\n        /* \"#utility.yul\":16971:16976   */\n      dup3\n        /* \"#utility.yul\":16940:16977   */\n      tag_465\n      jump\t// in\n    tag_677:\n        /* \"#utility.yul\":16927:16977   */\n      swap1\n      pop\n        /* \"#utility.yul\":16857:16983   */\n      swap2\n      swap1\n      pop\n      jump\t// out\n        /* \"#utility.yul\":16989:17123   */\n    tag_467:\n        /* \"#utility.yul\":17047:17056   */\n      0x00\n        /* \"#utility.yul\":17080:17117   */\n      tag_679\n        /* \"#utility.yul\":17111:17116   */\n      dup3\n        /* \"#utility.yul\":17080:17117   */\n      tag_466\n      jump\t// in\n    tag_679:\n        /* \"#utility.yul\":17067:17117   */\n      swap1\n      pop\n        /* \"#utility.yul\":16989:17123   */\n      swap2\n      swap1\n      pop\n      jump\t// out\n        /* \"#utility.yul\":17129:17276   */\n    tag_468:\n        /* \"#utility.yul\":17224:17269   */\n      tag_681\n        /* \"#utility.yul\":17263:17268   */\n      dup2\n        /* \"#utility.yul\":17224:17269   */\n      tag_467\n      jump\t// in\n    tag_681:\n        /* \"#utility.yul\":17219:17222   */\n      dup3\n        /* \"#utility.yul\":17212:17270   */\n      mstore\n        /* \"#utility.yul\":17129:17276   */\n      pop\n      pop\n      jump\t// out\n        /* \"#utility.yul\":17282:17630   */\n    tag_267:\n        /* \"#utility.yul\":17411:17415   */\n      0x00\n        /* \"#utility.yul\":17449:17451   */\n      0x40\n        /* \"#utility.yul\":17438:17447   */\n      dup3\n        /* \"#utility.yul\":17434:17452   */\n      add\n        /* \"#utility.yul\":17426:17452   */\n      swap1\n      pop\n        /* \"#utility.yul\":17462:17533   */\n      tag_683\n        /* \"#utility.yul\":17530:17531   */\n      0x00\n        /* \"#utility.yul\":17519:17528   */\n      dup4\n        /* \"#utility.yul\":17515:17532   */\n      add\n        /* \"#utility.yul\":17506:17512   */\n      dup6\n        /* \"#utility.yul\":17462:17533   */\n      tag_434\n      jump\t// in\n    tag_683:\n        /* \"#utility.yul\":17543:17623   */\n      tag_684\n        /* \"#utility.yul\":17619:17621   */\n      0x20\n        /* \"#utility.yul\":17608:17617   */\n      dup4\n        /* \"#utility.yul\":17604:17622   */\n      add\n        /* \"#utility.yul\":17595:17601   */\n      dup5\n        /* \"#utility.yul\":17543:17623   */\n      tag_468\n      jump\t// in\n    tag_684:\n        /* \"#utility.yul\":17282:17630   */\n      swap4\n      swap3\n      pop\n      pop\n      pop\n      jump\t// out\n        /* \"#utility.yul\":17636:17810   */\n    tag_469:\n        /* \"#utility.yul\":17776:17802   */\n      0x4e6f7420656e6f75676820746f6b656e2062616c616e63650000000000000000\n        /* \"#utility.yul\":17772:17773   */\n      0x00\n        /* \"#utility.yul\":17764:17770   */\n      dup3\n        /* \"#utility.yul\":17760:17774   */\n      add\n        /* \"#utility.yul\":17753:17803   */\n      mstore\n        /* \"#utility.yul\":17636:17810   */\n      pop\n      jump\t// out\n        /* \"#utility.yul\":17816:18182   */\n    tag_470:\n        /* \"#utility.yul\":17958:17961   */\n      0x00\n        /* \"#utility.yul\":17979:18046   */\n      tag_687\n        /* \"#utility.yul\":18043:18045   */\n      0x18\n        /* \"#utility.yul\":18038:18041   */\n      dup4\n        /* \"#utility.yul\":17979:18046   */\n      tag_443\n      jump\t// in\n    tag_687:\n        /* \"#utility.yul\":17972:18046   */\n      swap2\n      pop\n        /* \"#utility.yul\":18055:18148   */\n      tag_688\n        /* \"#utility.yul\":18144:18147   */\n      dup3\n        /* \"#utility.yul\":18055:18148   */\n      tag_469\n      jump\t// in\n    tag_688:\n        /* \"#utility.yul\":18173:18175   */\n      0x20\n        /* \"#utility.yul\":18168:18171   */\n      dup3\n        /* \"#utility.yul\":18164:18176   */\n      add\n        /* \"#utility.yul\":18157:18176   */\n      swap1\n      pop\n        /* \"#utility.yul\":17816:18182   */\n      swap2\n      swap1\n      pop\n      jump\t// out\n        /* \"#utility.yul\":18188:18607   */\n    tag_282:\n        /* \"#utility.yul\":18354:18358   */\n      0x00\n        /* \"#utility.yul\":18392:18394   */\n      0x20\n        /* \"#utility.yul\":18381:18390   */\n      dup3\n        /* \"#utility.yul\":18377:18395   */\n      add\n        /* \"#utility.yul\":18369:18395   */\n      swap1\n      pop\n        /* \"#utility.yul\":18441:18450   */\n      dup2\n        /* \"#utility.yul\":18435:18439   */\n      dup2\n        /* \"#utility.yul\":18431:18451   */\n      sub\n        /* \"#utility.yul\":18427:18428   */\n      0x00\n        /* \"#utility.yul\":18416:18425   */\n      dup4\n        /* \"#utility.yul\":18412:18429   */\n      add\n        /* \"#utility.yul\":18405:18452   */\n      mstore\n        /* \"#utility.yul\":18469:18600   */\n      tag_690\n        /* \"#utility.yul\":18595:18599   */\n      dup2\n        /* \"#utility.yul\":18469:18600   */\n      tag_470\n      jump\t// in\n    tag_690:\n        /* \"#utility.yul\":18461:18600   */\n      swap1\n      pop\n        /* \"#utility.yul\":18188:18607   */\n      swap2\n      swap1\n      pop\n      jump\t// out\n        /* \"#utility.yul\":18613:18787   */\n    tag_471:\n        /* \"#utility.yul\":18753:18779   */\n      0x4e6f20657863657373205745544e20746f207265736375650000000000000000\n        /* \"#utility.yul\":18749:18750   */\n      0x00\n        /* \"#utility.yul\":18741:18747   */\n      dup3\n        /* \"#utility.yul\":18737:18751   */\n      add\n        /* \"#utility.yul\":18730:18780   */\n      mstore\n        /* \"#utility.yul\":18613:18787   */\n      pop\n      jump\t// out\n        /* \"#utility.yul\":18793:19159   */\n    tag_472:\n        /* \"#utility.yul\":18935:18938   */\n      0x00\n        /* \"#utility.yul\":18956:19023   */\n      tag_693\n        /* \"#utility.yul\":19020:19022   */\n      0x18\n        /* \"#utility.yul\":19015:19018   */\n      dup4\n        /* \"#utility.yul\":18956:19023   */\n      tag_443\n      jump\t// in\n    tag_693:\n        /* \"#utility.yul\":18949:19023   */\n      swap2\n      pop\n        /* \"#utility.yul\":19032:19125   */\n      tag_694\n        /* \"#utility.yul\":19121:19124   */\n      dup3\n        /* \"#utility.yul\":19032:19125   */\n      tag_471\n      jump\t// in\n    tag_694:\n        /* \"#utility.yul\":19150:19152   */\n      0x20\n        /* \"#utility.yul\":19145:19148   */\n      dup3\n        /* \"#utility.yul\":19141:19153   */\n      add\n        /* \"#utility.yul\":19134:19153   */\n      swap1\n      pop\n        /* \"#utility.yul\":18793:19159   */\n      swap2\n      swap1\n      pop\n      jump\t// out\n        /* \"#utility.yul\":19165:19584   */\n    tag_288:\n        /* \"#utility.yul\":19331:19335   */\n      0x00\n        /* \"#utility.yul\":19369:19371   */\n      0x20\n        /* \"#utility.yul\":19358:19367   */\n      dup3\n        /* \"#utility.yul\":19354:19372   */\n      add\n        /* \"#utility.yul\":19346:19372   */\n      swap1\n      pop\n        /* \"#utility.yul\":19418:19427   */\n      dup2\n        /* \"#utility.yul\":19412:19416   */\n      dup2\n        /* \"#utility.yul\":19408:19428   */\n      sub\n        /* \"#utility.yul\":19404:19405   */\n      0x00\n        /* \"#utility.yul\":19393:19402   */\n      dup4\n        /* \"#utility.yul\":19389:19406   */\n      add\n        /* \"#utility.yul\":19382:19429   */\n      mstore\n        /* \"#utility.yul\":19446:19577   */\n      tag_696\n        /* \"#utility.yul\":19572:19576   */\n      dup2\n        /* \"#utility.yul\":19446:19577   */\n      tag_472\n      jump\t// in\n    tag_696:\n        /* \"#utility.yul\":19438:19577   */\n      swap1\n      pop\n        /* \"#utility.yul\":19165:19584   */\n      swap2\n      swap1\n      pop\n      jump\t// out\n        /* \"#utility.yul\":19590:19766   */\n    tag_473:\n        /* \"#utility.yul\":19730:19758   */\n      0x416d6f756e74206578636565647320657863657373205745544e000000000000\n        /* \"#utility.yul\":19726:19727   */\n      0x00\n        /* \"#utility.yul\":19718:19724   */\n      dup3\n        /* \"#utility.yul\":19714:19728   */\n      add\n        /* \"#utility.yul\":19707:19759   */\n      mstore\n        /* \"#utility.yul\":19590:19766   */\n      pop\n      jump\t// out\n        /* \"#utility.yul\":19772:20138   */\n    tag_474:\n        /* \"#utility.yul\":19914:19917   */\n      0x00\n        /* \"#utility.yul\":19935:20002   */\n      tag_699\n        /* \"#utility.yul\":19999:20001   */\n      0x1a\n        /* \"#utility.yul\":19994:19997   */\n      dup4\n        /* \"#utility.yul\":19935:20002   */\n      tag_443\n      jump\t// in\n    tag_699:\n        /* \"#utility.yul\":19928:20002   */\n      swap2\n      pop\n        /* \"#utility.yul\":20011:20104   */\n      tag_700\n        /* \"#utility.yul\":20100:20103   */\n      dup3\n        /* \"#utility.yul\":20011:20104   */\n      tag_473\n      jump\t// in\n    tag_700:\n        /* \"#utility.yul\":20129:20131   */\n      0x20\n        /* \"#utility.yul\":20124:20127   */\n      dup3\n        /* \"#utility.yul\":20120:20132   */\n      add\n        /* \"#utility.yul\":20113:20132   */\n      swap1\n      pop\n        /* \"#utility.yul\":19772:20138   */\n      swap2\n      swap1\n      pop\n      jump\t// out\n        /* \"#utility.yul\":20144:20563   */\n    tag_292:\n        /* \"#utility.yul\":20310:20314   */\n      0x00\n        /* \"#utility.yul\":20348:20350   */\n      0x20\n        /* \"#utility.yul\":20337:20346   */\n      dup3\n        /* \"#utility.yul\":20333:20351   */\n      add\n        /* \"#utility.yul\":20325:20351   */\n      swap1\n      pop\n        /* \"#utility.yul\":20397:20406   */\n      dup2\n        /* \"#utility.yul\":20391:20395   */\n      dup2\n        /* \"#utility.yul\":20387:20407   */\n      sub\n        /* \"#utility.yul\":20383:20384   */\n      0x00\n        /* \"#utility.yul\":20372:20381   */\n      dup4\n        /* \"#utility.yul\":20368:20385   */\n      add\n        /* \"#utility.yul\":20361:20408   */\n      mstore\n        /* \"#utility.yul\":20425:20556   */\n      tag_702\n        /* \"#utility.yul\":20551:20555   */\n      dup2\n        /* \"#utility.yul\":20425:20556   */\n      tag_474\n      jump\t// in\n    tag_702:\n        /* \"#utility.yul\":20417:20556   */\n      swap1\n      pop\n        /* \"#utility.yul\":20144:20563   */\n      swap2\n      swap1\n      pop\n      jump\t// out\n        /* \"#utility.yul\":20569:20901   */\n    tag_294:\n        /* \"#utility.yul\":20690:20694   */\n      0x00\n        /* \"#utility.yul\":20728:20730   */\n      0x40\n        /* \"#utility.yul\":20717:20726   */\n      dup3\n        /* \"#utility.yul\":20713:20731   */\n      add\n        /* \"#utility.yul\":20705:20731   */\n      swap1\n      pop\n        /* \"#utility.yul\":20741:20812   */\n      tag_704\n        /* \"#utility.yul\":20809:20810   */\n      0x00\n        /* \"#utility.yul\":20798:20807   */\n      dup4\n        /* \"#utility.yul\":20794:20811   */\n      add\n        /* \"#utility.yul\":20785:20791   */\n      dup6\n        /* \"#utility.yul\":20741:20812   */\n      tag_423\n      jump\t// in\n    tag_704:\n        /* \"#utility.yul\":20822:20894   */\n      tag_705\n        /* \"#utility.yul\":20890:20892   */\n      0x20\n        /* \"#utility.yul\":20879:20888   */\n      dup4\n        /* \"#utility.yul\":20875:20893   */\n      add\n        /* \"#utility.yul\":20866:20872   */\n      dup5\n        /* \"#utility.yul\":20822:20894   */\n      tag_434\n      jump\t// in\n    tag_705:\n        /* \"#utility.yul\":20569:20901   */\n      swap4\n      swap3\n      pop\n      pop\n      pop\n      jump\t// out\n        /* \"#utility.yul\":20907:21044   */\n    tag_475:\n        /* \"#utility.yul\":20961:20966   */\n      0x00\n        /* \"#utility.yul\":20992:20998   */\n      dup2\n        /* \"#utility.yul\":20986:20999   */\n      mload\n        /* \"#utility.yul\":20977:20999   */\n      swap1\n      pop\n        /* \"#utility.yul\":21008:21038   */\n      tag_707\n        /* \"#utility.yul\":21032:21037   */\n      dup2\n        /* \"#utility.yul\":21008:21038   */\n      tag_431\n      jump\t// in\n    tag_707:\n        /* \"#utility.yul\":20907:21044   */\n      swap3\n      swap2\n      pop\n      pop\n      jump\t// out\n        /* \"#utility.yul\":21050:21395   */\n    tag_298:\n        /* \"#utility.yul\":21117:21123   */\n      0x00\n        /* \"#utility.yul\":21166:21168   */\n      0x20\n        /* \"#utility.yul\":21154:21163   */\n      dup3\n        /* \"#utility.yul\":21145:21152   */\n      dup5\n        /* \"#utility.yul\":21141:21164   */\n      sub\n        /* \"#utility.yul\":21137:21169   */\n      slt\n        /* \"#utility.yul\":21134:21253   */\n      iszero\n      tag_709\n      jumpi\n        /* \"#utility.yul\":21172:21251   */\n      tag_710\n      tag_425\n      jump\t// in\n    tag_710:\n        /* \"#utility.yul\":21134:21253   */\n    tag_709:\n        /* \"#utility.yul\":21292:21293   */\n      0x00\n        /* \"#utility.yul\":21317:21378   */\n      tag_711\n        /* \"#utility.yul\":21370:21377   */\n      dup5\n        /* \"#utility.yul\":21361:21367   */\n      dup3\n        /* \"#utility.yul\":21350:21359   */\n      dup6\n        /* \"#utility.yul\":21346:21368   */\n      add\n        /* \"#utility.yul\":21317:21378   */\n      tag_475\n      jump\t// in\n    tag_711:\n        /* \"#utility.yul\":21307:21378   */\n      swap2\n      pop\n        /* \"#utility.yul\":21263:21388   */\n      pop\n        /* \"#utility.yul\":21050:21395   */\n      swap3\n      swap2\n      pop\n      pop\n      jump\t// out\n        /* \"#utility.yul\":21401:21572   */\n    tag_476:\n        /* \"#utility.yul\":21541:21564   */\n      0x546f6b656e207472616e73666572206661696c65640000000000000000000000\n        /* \"#utility.yul\":21537:21538   */\n      0x00\n        /* \"#utility.yul\":21529:21535   */\n      dup3\n        /* \"#utility.yul\":21525:21539   */\n      add\n        /* \"#utility.yul\":21518:21565   */\n      mstore\n        /* \"#utility.yul\":21401:21572   */\n      pop\n      jump\t// out\n        /* \"#utility.yul\":21578:21944   */\n    tag_477:\n        /* \"#utility.yul\":21720:21723   */\n      0x00\n        /* \"#utility.yul\":21741:21808   */\n      tag_714\n        /* \"#utility.yul\":21805:21807   */\n      0x15\n        /* \"#utility.yul\":21800:21803   */\n      dup4\n        /* \"#utility.yul\":21741:21808   */\n      tag_443\n      jump\t// in\n    tag_714:\n        /* \"#utility.yul\":21734:21808   */\n      swap2\n      pop\n        /* \"#utility.yul\":21817:21910   */\n      tag_715\n        /* \"#utility.yul\":21906:21909   */\n      dup3\n        /* \"#utility.yul\":21817:21910   */\n      tag_476\n      jump\t// in\n    tag_715:\n        /* \"#utility.yul\":21935:21937   */\n      0x20\n        /* \"#utility.yul\":21930:21933   */\n      dup3\n        /* \"#utility.yul\":21926:21938   */\n      add\n        /* \"#utility.yul\":21919:21938   */\n      swap1\n      pop\n        /* \"#utility.yul\":21578:21944   */\n      swap2\n      swap1\n      pop\n      jump\t// out\n        /* \"#utility.yul\":21950:22369   */\n    tag_301:\n        /* \"#utility.yul\":22116:22120   */\n      0x00\n        /* \"#utility.yul\":22154:22156   */\n      0x20\n        /* \"#utility.yul\":22143:22152   */\n      dup3\n        /* \"#utility.yul\":22139:22157   */\n      add\n        /* \"#utility.yul\":22131:22157   */\n      swap1\n      pop\n        /* \"#utility.yul\":22203:22212   */\n      dup2\n        /* \"#utility.yul\":22197:22201   */\n      dup2\n        /* \"#utility.yul\":22193:22213   */\n      sub\n        /* \"#utility.yul\":22189:22190   */\n      0x00\n        /* \"#utility.yul\":22178:22187   */\n      dup4\n        /* \"#utility.yul\":22174:22191   */\n      add\n        /* \"#utility.yul\":22167:22214   */\n      mstore\n        /* \"#utility.yul\":22231:22362   */\n      tag_717\n        /* \"#utility.yul\":22357:22361   */\n      dup2\n        /* \"#utility.yul\":22231:22362   */\n      tag_477\n      jump\t// in\n    tag_717:\n        /* \"#utility.yul\":22223:22362   */\n      swap1\n      pop\n        /* \"#utility.yul\":21950:22369   */\n      swap2\n      swap1\n      pop\n      jump\t// out\n        /* \"#utility.yul\":22375:22817   */\n    tag_303:\n        /* \"#utility.yul\":22524:22528   */\n      0x00\n        /* \"#utility.yul\":22562:22564   */\n      0x60\n        /* \"#utility.yul\":22551:22560   */\n      dup3\n        /* \"#utility.yul\":22547:22565   */\n      add\n        /* \"#utility.yul\":22539:22565   */\n      swap1\n      pop\n        /* \"#utility.yul\":22575:22646   */\n      tag_719\n        /* \"#utility.yul\":22643:22644   */\n      0x00\n        /* \"#utility.yul\":22632:22641   */\n      dup4\n        /* \"#utility.yul\":22628:22645   */\n      add\n        /* \"#utility.yul\":22619:22625   */\n      dup7\n        /* \"#utility.yul\":22575:22646   */\n      tag_423\n      jump\t// in\n    tag_719:\n        /* \"#utility.yul\":22656:22728   */\n      tag_720\n        /* \"#utility.yul\":22724:22726   */\n      0x20\n        /* \"#utility.yul\":22713:22722   */\n      dup4\n        /* \"#utility.yul\":22709:22727   */\n      add\n        /* \"#utility.yul\":22700:22706   */\n      dup6\n        /* \"#utility.yul\":22656:22728   */\n      tag_434\n      jump\t// in\n    tag_720:\n        /* \"#utility.yul\":22738:22810   */\n      tag_721\n        /* \"#utility.yul\":22806:22808   */\n      0x40\n        /* \"#utility.yul\":22795:22804   */\n      dup4\n        /* \"#utility.yul\":22791:22809   */\n      add\n        /* \"#utility.yul\":22782:22788   */\n      dup5\n        /* \"#utility.yul\":22738:22810   */\n      tag_423\n      jump\t// in\n    tag_721:\n        /* \"#utility.yul\":22375:22817   */\n      swap5\n      swap4\n      pop\n      pop\n      pop\n      pop\n      jump\t// out\n        /* \"#utility.yul\":22823:23000   */\n    tag_478:\n        /* \"#utility.yul\":22963:22992   */\n      0x436f72652077616c6c6574207472616e73666572206661696c65640000000000\n        /* \"#utility.yul\":22959:22960   */\n      0x00\n        /* \"#utility.yul\":22951:22957   */\n      dup3\n        /* \"#utility.yul\":22947:22961   */\n      add\n        /* \"#utility.yul\":22940:22993   */\n      mstore\n        /* \"#utility.yul\":22823:23000   */\n      pop\n      jump\t// out\n        /* \"#utility.yul\":23006:23372   */\n    tag_479:\n        /* \"#utility.yul\":23148:23151   */\n      0x00\n        /* \"#utility.yul\":23169:23236   */\n      tag_724\n        /* \"#utility.yul\":23233:23235   */\n      0x1b\n        /* \"#utility.yul\":23228:23231   */\n      dup4\n        /* \"#utility.yul\":23169:23236   */\n      tag_443\n      jump\t// in\n    tag_724:\n        /* \"#utility.yul\":23162:23236   */\n      swap2\n      pop\n        /* \"#utility.yul\":23245:23338   */\n      tag_725\n        /* \"#utility.yul\":23334:23337   */\n      dup3\n        /* \"#utility.yul\":23245:23338   */\n      tag_478\n      jump\t// in\n    tag_725:\n        /* \"#utility.yul\":23363:23365   */\n      0x20\n        /* \"#utility.yul\":23358:23361   */\n      dup3\n        /* \"#utility.yul\":23354:23366   */\n      add\n        /* \"#utility.yul\":23347:23366   */\n      swap1\n      pop\n        /* \"#utility.yul\":23006:23372   */\n      swap2\n      swap1\n      pop\n      jump\t// out\n        /* \"#utility.yul\":23378:23797   */\n    tag_324:\n        /* \"#utility.yul\":23544:23548   */\n      0x00\n        /* \"#utility.yul\":23582:23584   */\n      0x20\n        /* \"#utility.yul\":23571:23580   */\n      dup3\n        /* \"#utility.yul\":23567:23585   */\n      add\n        /* \"#utility.yul\":23559:23585   */\n      swap1\n      pop\n        /* \"#utility.yul\":23631:23640   */\n      dup2\n        /* \"#utility.yul\":23625:23629   */\n      dup2\n        /* \"#utility.yul\":23621:23641   */\n      sub\n        /* \"#utility.yul\":23617:23618   */\n      0x00\n        /* \"#utility.yul\":23606:23615   */\n      dup4\n        /* \"#utility.yul\":23602:23619   */\n      add\n        /* \"#utility.yul\":23595:23642   */\n      mstore\n        /* \"#utility.yul\":23659:23790   */\n      tag_727\n        /* \"#utility.yul\":23785:23789   */\n      dup2\n        /* \"#utility.yul\":23659:23790   */\n      tag_479\n      jump\t// in\n    tag_727:\n        /* \"#utility.yul\":23651:23790   */\n      swap1\n      pop\n        /* \"#utility.yul\":23378:23797   */\n      swap2\n      swap1\n      pop\n      jump\t// out\n        /* \"#utility.yul\":23803:23980   */\n    tag_480:\n        /* \"#utility.yul\":23943:23972   */\n      0x5465616d2077616c6c6574207472616e73666572206661696c65640000000000\n        /* \"#utility.yul\":23939:23940   */\n      0x00\n        /* \"#utility.yul\":23931:23937   */\n      dup3\n        /* \"#utility.yul\":23927:23941   */\n      add\n        /* \"#utility.yul\":23920:23973   */\n      mstore\n        /* \"#utility.yul\":23803:23980   */\n      pop\n      jump\t// out\n        /* \"#utility.yul\":23986:24352   */\n    tag_481:\n        /* \"#utility.yul\":24128:24131   */\n      0x00\n        /* \"#utility.yul\":24149:24216   */\n      tag_730\n        /* \"#utility.yul\":24213:24215   */\n      0x1b\n        /* \"#utility.yul\":24208:24211   */\n      dup4\n        /* \"#utility.yul\":24149:24216   */\n      tag_443\n      jump\t// in\n    tag_730:\n        /* \"#utility.yul\":24142:24216   */\n      swap2\n      pop\n        /* \"#utility.yul\":24225:24318   */\n      tag_731\n        /* \"#utility.yul\":24314:24317   */\n      dup3\n        /* \"#utility.yul\":24225:24318   */\n      tag_480\n      jump\t// in\n    tag_731:\n        /* \"#utility.yul\":24343:24345   */\n      0x20\n        /* \"#utility.yul\":24338:24341   */\n      dup3\n        /* \"#utility.yul\":24334:24346   */\n      add\n        /* \"#utility.yul\":24327:24346   */\n      swap1\n      pop\n        /* \"#utility.yul\":23986:24352   */\n      swap2\n      swap1\n      pop\n      jump\t// out\n        /* \"#utility.yul\":24358:24777   */\n    tag_332:\n        /* \"#utility.yul\":24524:24528   */\n      0x00\n        /* \"#utility.yul\":24562:24564   */\n      0x20\n        /* \"#utility.yul\":24551:24560   */\n      dup3\n        /* \"#utility.yul\":24547:24565   */\n      add\n        /* \"#utility.yul\":24539:24565   */\n      swap1\n      pop\n        /* \"#utility.yul\":24611:24620   */\n      dup2\n        /* \"#utility.yul\":24605:24609   */\n      dup2\n        /* \"#utility.yul\":24601:24621   */\n      sub\n        /* \"#utility.yul\":24597:24598   */\n      0x00\n        /* \"#utility.yul\":24586:24595   */\n      dup4\n        /* \"#utility.yul\":24582:24599   */\n      add\n        /* \"#utility.yul\":24575:24622   */\n      mstore\n        /* \"#utility.yul\":24639:24770   */\n      tag_733\n        /* \"#utility.yul\":24765:24769   */\n      dup2\n        /* \"#utility.yul\":24639:24770   */\n      tag_481\n      jump\t// in\n    tag_733:\n        /* \"#utility.yul\":24631:24770   */\n      swap1\n      pop\n        /* \"#utility.yul\":24358:24777   */\n      swap2\n      swap1\n      pop\n      jump\t// out\n        /* \"#utility.yul\":24783:25013   */\n    tag_482:\n        /* \"#utility.yul\":24923:24957   */\n      0x556e617574686f72697a65643a204f6e6c79206f776e6572206f722077686974\n        /* \"#utility.yul\":24919:24920   */\n      0x00\n        /* \"#utility.yul\":24911:24917   */\n      dup3\n        /* \"#utility.yul\":24907:24921   */\n      add\n        /* \"#utility.yul\":24900:24958   */\n      mstore\n        /* \"#utility.yul\":24992:25005   */\n      0x656c6973746564204e4654000000000000000000000000000000000000000000\n        /* \"#utility.yul\":24987:24989   */\n      0x20\n        /* \"#utility.yul\":24979:24985   */\n      dup3\n        /* \"#utility.yul\":24975:24990   */\n      add\n        /* \"#utility.yul\":24968:25006   */\n      mstore\n        /* \"#utility.yul\":24783:25013   */\n      pop\n      jump\t// out\n        /* \"#utility.yul\":25019:25385   */\n    tag_483:\n        /* \"#utility.yul\":25161:25164   */\n      0x00\n        /* \"#utility.yul\":25182:25249   */\n      tag_736\n        /* \"#utility.yul\":25246:25248   */\n      0x2b\n        /* \"#utility.yul\":25241:25244   */\n      dup4\n        /* \"#utility.yul\":25182:25249   */\n      tag_443\n      jump\t// in\n    tag_736:\n        /* \"#utility.yul\":25175:25249   */\n      swap2\n      pop\n        /* \"#utility.yul\":25258:25351   */\n      tag_737\n        /* \"#utility.yul\":25347:25350   */\n      dup3\n        /* \"#utility.yul\":25258:25351   */\n      tag_482\n      jump\t// in\n    tag_737:\n        /* \"#utility.yul\":25376:25378   */\n      0x40\n        /* \"#utility.yul\":25371:25374   */\n      dup3\n        /* \"#utility.yul\":25367:25379   */\n      add\n        /* \"#utility.yul\":25360:25379   */\n      swap1\n      pop\n        /* \"#utility.yul\":25019:25385   */\n      swap2\n      swap1\n      pop\n      jump\t// out\n        /* \"#utility.yul\":25391:25810   */\n    tag_339:\n        /* \"#utility.yul\":25557:25561   */\n      0x00\n        /* \"#utility.yul\":25595:25597   */\n      0x20\n        /* \"#utility.yul\":25584:25593   */\n      dup3\n        /* \"#utility.yul\":25580:25598   */\n      add\n        /* \"#utility.yul\":25572:25598   */\n      swap1\n      pop\n        /* \"#utility.yul\":25644:25653   */\n      dup2\n        /* \"#utility.yul\":25638:25642   */\n      dup2\n        /* \"#utility.yul\":25634:25654   */\n      sub\n        /* \"#utility.yul\":25630:25631   */\n      0x00\n        /* \"#utility.yul\":25619:25628   */\n      dup4\n        /* \"#utility.yul\":25615:25632   */\n      add\n        /* \"#utility.yul\":25608:25655   */\n      mstore\n        /* \"#utility.yul\":25672:25803   */\n      tag_739\n        /* \"#utility.yul\":25798:25802   */\n      dup2\n        /* \"#utility.yul\":25672:25803   */\n      tag_483\n      jump\t// in\n    tag_739:\n        /* \"#utility.yul\":25664:25803   */\n      swap1\n      pop\n        /* \"#utility.yul\":25391:25810   */\n      swap2\n      swap1\n      pop\n      jump\t// out\n        /* \"#utility.yul\":25816:25989   */\n    tag_484:\n        /* \"#utility.yul\":25956:25981   */\n      0x4e6f20636f72652062616c616e636520746f206275726e000000000000000000\n        /* \"#utility.yul\":25952:25953   */\n      0x00\n        /* \"#utility.yul\":25944:25950   */\n      dup3\n        /* \"#utility.yul\":25940:25954   */\n      add\n        /* \"#utility.yul\":25933:25982   */\n      mstore\n        /* \"#utility.yul\":25816:25989   */\n      pop\n      jump\t// out\n        /* \"#utility.yul\":25995:26361   */\n    tag_485:\n        /* \"#utility.yul\":26137:26140   */\n      0x00\n        /* \"#utility.yul\":26158:26225   */\n      tag_742\n        /* \"#utility.yul\":26222:26224   */\n      0x17\n        /* \"#utility.yul\":26217:26220   */\n      dup4\n        /* \"#utility.yul\":26158:26225   */\n      tag_443\n      jump\t// in\n    tag_742:\n        /* \"#utility.yul\":26151:26225   */\n      swap2\n      pop\n        /* \"#utility.yul\":26234:26327   */\n      tag_743\n        /* \"#utility.yul\":26323:26326   */\n      dup3\n        /* \"#utility.yul\":26234:26327   */\n      tag_484\n      jump\t// in\n    tag_743:\n        /* \"#utility.yul\":26352:26354   */\n      0x20\n        /* \"#utility.yul\":26347:26350   */\n      dup3\n        /* \"#utility.yul\":26343:26355   */\n      add\n        /* \"#utility.yul\":26336:26355   */\n      swap1\n      pop\n        /* \"#utility.yul\":25995:26361   */\n      swap2\n      swap1\n      pop\n      jump\t// out\n        /* \"#utility.yul\":26367:26786   */\n    tag_349:\n        /* \"#utility.yul\":26533:26537   */\n      0x00\n        /* \"#utility.yul\":26571:26573   */\n      0x20\n        /* \"#utility.yul\":26560:26569   */\n      dup3\n        /* \"#utility.yul\":26556:26574   */\n      add\n        /* \"#utility.yul\":26548:26574   */\n      swap1\n      pop\n        /* \"#utility.yul\":26620:26629   */\n      dup2\n        /* \"#utility.yul\":26614:26618   */\n      dup2\n        /* \"#utility.yul\":26610:26630   */\n      sub\n        /* \"#utility.yul\":26606:26607   */\n      0x00\n        /* \"#utility.yul\":26595:26604   */\n      dup4\n        /* \"#utility.yul\":26591:26608   */\n      add\n        /* \"#utility.yul\":26584:26631   */\n      mstore\n        /* \"#utility.yul\":26648:26779   */\n      tag_745\n        /* \"#utility.yul\":26774:26778   */\n      dup2\n        /* \"#utility.yul\":26648:26779   */\n      tag_485\n      jump\t// in\n    tag_745:\n        /* \"#utility.yul\":26640:26779   */\n      swap1\n      pop\n        /* \"#utility.yul\":26367:26786   */\n      swap2\n      swap1\n      pop\n      jump\t// out\n        /* \"#utility.yul\":26792:26886   */\n    tag_486:\n        /* \"#utility.yul\":26825:26833   */\n      0x00\n        /* \"#utility.yul\":26873:26878   */\n      dup2\n        /* \"#utility.yul\":26869:26871   */\n      0x60\n        /* \"#utility.yul\":26865:26879   */\n      shl\n        /* \"#utility.yul\":26844:26879   */\n      swap1\n      pop\n        /* \"#utility.yul\":26792:26886   */\n      swap2\n      swap1\n      pop\n      jump\t// out\n        /* \"#utility.yul\":26892:26986   */\n    tag_487:\n        /* \"#utility.yul\":26931:26938   */\n      0x00\n        /* \"#utility.yul\":26960:26980   */\n      tag_748\n        /* \"#utility.yul\":26974:26979   */\n      dup3\n        /* \"#utility.yul\":26960:26980   */\n      tag_486\n      jump\t// in\n    tag_748:\n        /* \"#utility.yul\":26949:26980   */\n      swap1\n      pop\n        /* \"#utility.yul\":26892:26986   */\n      swap2\n      swap1\n      pop\n      jump\t// out\n        /* \"#utility.yul\":26992:27092   */\n    tag_488:\n        /* \"#utility.yul\":27031:27038   */\n      0x00\n        /* \"#utility.yul\":27060:27086   */\n      tag_750\n        /* \"#utility.yul\":27080:27085   */\n      dup3\n        /* \"#utility.yul\":27060:27086   */\n      tag_487\n      jump\t// in\n    tag_750:\n        /* \"#utility.yul\":27049:27086   */\n      swap1\n      pop\n        /* \"#utility.yul\":26992:27092   */\n      swap2\n      swap1\n      pop\n      jump\t// out\n        /* \"#utility.yul\":27098:27255   */\n    tag_489:\n        /* \"#utility.yul\":27203:27248   */\n      tag_752\n        /* \"#utility.yul\":27223:27247   */\n      tag_753\n        /* \"#utility.yul\":27241:27246   */\n      dup3\n        /* \"#utility.yul\":27223:27247   */\n      tag_422\n      jump\t// in\n    tag_753:\n        /* \"#utility.yul\":27203:27248   */\n      tag_488\n      jump\t// in\n    tag_752:\n        /* \"#utility.yul\":27198:27201   */\n      dup3\n        /* \"#utility.yul\":27191:27249   */\n      mstore\n        /* \"#utility.yul\":27098:27255   */\n      pop\n      pop\n      jump\t// out\n        /* \"#utility.yul\":27261:27352   */\n    tag_490:\n        /* \"#utility.yul\":27297:27304   */\n      0x00\n        /* \"#utility.yul\":27337:27345   */\n      0xffffff\n        /* \"#utility.yul\":27330:27335   */\n      dup3\n        /* \"#utility.yul\":27326:27346   */\n      and\n        /* \"#utility.yul\":27315:27346   */\n      swap1\n      pop\n        /* \"#utility.yul\":27261:27352   */\n      swap2\n      swap1\n      pop\n      jump\t// out\n        /* \"#utility.yul\":27358:27454   */\n    tag_491:\n        /* \"#utility.yul\":27392:27400   */\n      0x00\n        /* \"#utility.yul\":27441:27446   */\n      dup2\n        /* \"#utility.yul\":27436:27439   */\n      0xe8\n        /* \"#utility.yul\":27432:27447   */\n      shl\n        /* \"#utility.yul\":27411:27447   */\n      swap1\n      pop\n        /* \"#utility.yul\":27358:27454   */\n      swap2\n      swap1\n      pop\n      jump\t// out\n        /* \"#utility.yul\":27460:27554   */\n    tag_492:\n        /* \"#utility.yul\":27498:27505   */\n      0x00\n        /* \"#utility.yul\":27527:27548   */\n      tag_757\n        /* \"#utility.yul\":27542:27547   */\n      dup3\n        /* \"#utility.yul\":27527:27548   */\n      tag_491\n      jump\t// in\n    tag_757:\n        /* \"#utility.yul\":27516:27548   */\n      swap1\n      pop\n        /* \"#utility.yul\":27460:27554   */\n      swap2\n      swap1\n      pop\n      jump\t// out\n        /* \"#utility.yul\":27560:27713   */\n    tag_493:\n        /* \"#utility.yul\":27663:27706   */\n      tag_759\n        /* \"#utility.yul\":27682:27705   */\n      tag_760\n        /* \"#utility.yul\":27699:27704   */\n      dup3\n        /* \"#utility.yul\":27682:27705   */\n      tag_490\n      jump\t// in\n    tag_760:\n        /* \"#utility.yul\":27663:27706   */\n      tag_492\n      jump\t// in\n    tag_759:\n        /* \"#utility.yul\":27658:27661   */\n      dup3\n        /* \"#utility.yul\":27651:27707   */\n      mstore\n        /* \"#utility.yul\":27560:27713   */\n      pop\n      pop\n      jump\t// out\n        /* \"#utility.yul\":27719:28252   */\n    tag_365:\n        /* \"#utility.yul\":27885:27888   */\n      0x00\n        /* \"#utility.yul\":27900:27975   */\n      tag_762\n        /* \"#utility.yul\":27971:27974   */\n      dup3\n        /* \"#utility.yul\":27962:27968   */\n      dup7\n        /* \"#utility.yul\":27900:27975   */\n      tag_489\n      jump\t// in\n    tag_762:\n        /* \"#utility.yul\":28000:28002   */\n      0x14\n        /* \"#utility.yul\":27995:27998   */\n      dup3\n        /* \"#utility.yul\":27991:28003   */\n      add\n        /* \"#utility.yul\":27984:28003   */\n      swap2\n      pop\n        /* \"#utility.yul\":28013:28086   */\n      tag_763\n        /* \"#utility.yul\":28082:28085   */\n      dup3\n        /* \"#utility.yul\":28073:28079   */\n      dup6\n        /* \"#utility.yul\":28013:28086   */\n      tag_493\n      jump\t// in\n    tag_763:\n        /* \"#utility.yul\":28111:28112   */\n      0x03\n        /* \"#utility.yul\":28106:28109   */\n      dup3\n        /* \"#utility.yul\":28102:28113   */\n      add\n        /* \"#utility.yul\":28095:28113   */\n      swap2\n      pop\n        /* \"#utility.yul\":28123:28198   */\n      tag_764\n        /* \"#utility.yul\":28194:28197   */\n      dup3\n        /* \"#utility.yul\":28185:28191   */\n      dup5\n        /* \"#utility.yul\":28123:28198   */\n      tag_489\n      jump\t// in\n    tag_764:\n        /* \"#utility.yul\":28223:28225   */\n      0x14\n        /* \"#utility.yul\":28218:28221   */\n      dup3\n        /* \"#utility.yul\":28214:28226   */\n      add\n        /* \"#utility.yul\":28207:28226   */\n      swap2\n      pop\n        /* \"#utility.yul\":28243:28246   */\n      dup2\n        /* \"#utility.yul\":28236:28246   */\n      swap1\n      pop\n        /* \"#utility.yul\":27719:28252   */\n      swap5\n      swap4\n      pop\n      pop\n      pop\n      pop\n      jump\t// out\n        /* \"#utility.yul\":28258:28356   */\n    tag_494:\n        /* \"#utility.yul\":28309:28315   */\n      0x00\n        /* \"#utility.yul\":28343:28348   */\n      dup2\n        /* \"#utility.yul\":28337:28349   */\n      mload\n        /* \"#utility.yul\":28327:28349   */\n      swap1\n      pop\n        /* \"#utility.yul\":28258:28356   */\n      swap2\n      swap1\n      pop\n      jump\t// out\n        /* \"#utility.yul\":28362:28520   */\n    tag_495:\n        /* \"#utility.yul\":28435:28446   */\n      0x00\n        /* \"#utility.yul\":28469:28475   */\n      dup3\n        /* \"#utility.yul\":28464:28467   */\n      dup3\n        /* \"#utility.yul\":28457:28476   */\n      mstore\n        /* \"#utility.yul\":28509:28513   */\n      0x20\n        /* \"#utility.yul\":28504:28507   */\n      dup3\n        /* \"#utility.yul\":28500:28514   */\n      add\n        /* \"#utility.yul\":28485:28514   */\n      swap1\n      pop\n        /* \"#utility.yul\":28362:28520   */\n      swap3\n      swap2\n      pop\n      pop\n      jump\t// out\n        /* \"#utility.yul\":28526:28772   */\n    tag_496:\n        /* \"#utility.yul\":28607:28608   */\n      0x00\n        /* \"#utility.yul\":28617:28730   */\n    tag_768:\n        /* \"#utility.yul\":28631:28637   */\n      dup4\n        /* \"#utility.yul\":28628:28629   */\n      dup2\n        /* \"#utility.yul\":28625:28638   */\n      lt\n        /* \"#utility.yul\":28617:28730   */\n      iszero\n      tag_770\n      jumpi\n        /* \"#utility.yul\":28716:28717   */\n      dup1\n        /* \"#utility.yul\":28711:28714   */\n      dup3\n        /* \"#utility.yul\":28707:28718   */\n      add\n        /* \"#utility.yul\":28701:28719   */\n      mload\n        /* \"#utility.yul\":28697:28698   */\n      dup2\n        /* \"#utility.yul\":28692:28695   */\n      dup5\n        /* \"#utility.yul\":28688:28699   */\n      add\n        /* \"#utility.yul\":28681:28720   */\n      mstore\n        /* \"#utility.yul\":28653:28655   */\n      0x20\n        /* \"#utility.yul\":28650:28651   */\n      dup2\n        /* \"#utility.yul\":28646:28656   */\n      add\n        /* \"#utility.yul\":28641:28656   */\n      swap1\n      pop\n        /* \"#utility.yul\":28617:28730   */\n      jump(tag_768)\n    tag_770:\n        /* \"#utility.yul\":28764:28765   */\n      0x00\n        /* \"#utility.yul\":28755:28761   */\n      dup5\n        /* \"#utility.yul\":28750:28753   */\n      dup5\n        /* \"#utility.yul\":28746:28762   */\n      add\n        /* \"#utility.yul\":28739:28766   */\n      mstore\n        /* \"#utility.yul\":28588:28772   */\n      pop\n        /* \"#utility.yul\":28526:28772   */\n      pop\n      pop\n      pop\n      jump\t// out\n        /* \"#utility.yul\":28778:28880   */\n    tag_497:\n        /* \"#utility.yul\":28819:28825   */\n      0x00\n        /* \"#utility.yul\":28870:28872   */\n      0x1f\n        /* \"#utility.yul\":28866:28873   */\n      not\n        /* \"#utility.yul\":28861:28863   */\n      0x1f\n        /* \"#utility.yul\":28854:28859   */\n      dup4\n        /* \"#utility.yul\":28850:28864   */\n      add\n        /* \"#utility.yul\":28846:28874   */\n      and\n        /* \"#utility.yul\":28836:28874   */\n      swap1\n      pop\n        /* \"#utility.yul\":28778:28880   */\n      swap2\n      swap1\n      pop\n      jump\t// out\n        /* \"#utility.yul\":28886:29239   */\n    tag_498:\n        /* \"#utility.yul\":28962:28965   */\n      0x00\n        /* \"#utility.yul\":28990:29028   */\n      tag_773\n        /* \"#utility.yul\":29022:29027   */\n      dup3\n        /* \"#utility.yul\":28990:29028   */\n      tag_494\n      jump\t// in\n    tag_773:\n        /* \"#utility.yul\":29044:29104   */\n      tag_774\n        /* \"#utility.yul\":29097:29103   */\n      dup2\n        /* \"#utility.yul\":29092:29095   */\n      dup6\n        /* \"#utility.yul\":29044:29104   */\n      tag_495\n      jump\t// in\n    tag_774:\n        /* \"#utility.yul\":29037:29104   */\n      swap4\n      pop\n        /* \"#utility.yul\":29113:29178   */\n      tag_775\n        /* \"#utility.yul\":29171:29177   */\n      dup2\n        /* \"#utility.yul\":29166:29169   */\n      dup6\n        /* \"#utility.yul\":29159:29163   */\n      0x20\n        /* \"#utility.yul\":29152:29157   */\n      dup7\n        /* \"#utility.yul\":29148:29164   */\n      add\n        /* \"#utility.yul\":29113:29178   */\n      tag_496\n      jump\t// in\n    tag_775:\n        /* \"#utility.yul\":29203:29232   */\n      tag_776\n        /* \"#utility.yul\":29225:29231   */\n      dup2\n        /* \"#utility.yul\":29203:29232   */\n      tag_497\n      jump\t// in\n    tag_776:\n        /* \"#utility.yul\":29198:29201   */\n      dup5\n        /* \"#utility.yul\":29194:29233   */\n      add\n        /* \"#utility.yul\":29187:29233   */\n      swap2\n      pop\n        /* \"#utility.yul\":28966:29239   */\n      pop\n        /* \"#utility.yul\":28886:29239   */\n      swap3\n      swap2\n      pop\n      pop\n      jump\t// out\n        /* \"#utility.yul\":29245:29353   */\n    tag_499:\n        /* \"#utility.yul\":29322:29346   */\n      tag_778\n        /* \"#utility.yul\":29340:29345   */\n      dup2\n        /* \"#utility.yul\":29322:29346   */\n      tag_422\n      jump\t// in\n    tag_778:\n        /* \"#utility.yul\":29317:29320   */\n      dup3\n        /* \"#utility.yul\":29310:29347   */\n      mstore\n        /* \"#utility.yul\":29245:29353   */\n      pop\n      pop\n      jump\t// out\n        /* \"#utility.yul\":29359:29467   */\n    tag_500:\n        /* \"#utility.yul\":29436:29460   */\n      tag_780\n        /* \"#utility.yul\":29454:29459   */\n      dup2\n        /* \"#utility.yul\":29436:29460   */\n      tag_433\n      jump\t// in\n    tag_780:\n        /* \"#utility.yul\":29431:29434   */\n      dup3\n        /* \"#utility.yul\":29424:29461   */\n      mstore\n        /* \"#utility.yul\":29359:29467   */\n      pop\n      pop\n      jump\t// out\n        /* \"#utility.yul\":29549:30540   */\n    tag_501:\n        /* \"#utility.yul\":29686:29689   */\n      0x00\n        /* \"#utility.yul\":29722:29726   */\n      0x80\n        /* \"#utility.yul\":29717:29720   */\n      dup4\n        /* \"#utility.yul\":29713:29727   */\n      add\n        /* \"#utility.yul\":29809:29813   */\n      0x00\n        /* \"#utility.yul\":29802:29807   */\n      dup4\n        /* \"#utility.yul\":29798:29814   */\n      add\n        /* \"#utility.yul\":29792:29815   */\n      mload\n        /* \"#utility.yul\":29862:29865   */\n      dup5\n        /* \"#utility.yul\":29856:29860   */\n      dup3\n        /* \"#utility.yul\":29852:29866   */\n      sub\n        /* \"#utility.yul\":29845:29849   */\n      0x00\n        /* \"#utility.yul\":29840:29843   */\n      dup7\n        /* \"#utility.yul\":29836:29850   */\n      add\n        /* \"#utility.yul\":29829:29867   */\n      mstore\n        /* \"#utility.yul\":29888:29959   */\n      tag_782\n        /* \"#utility.yul\":29954:29958   */\n      dup3\n        /* \"#utility.yul\":29940:29952   */\n      dup3\n        /* \"#utility.yul\":29888:29959   */\n      tag_498\n      jump\t// in\n    tag_782:\n        /* \"#utility.yul\":29880:29959   */\n      swap2\n      pop\n        /* \"#utility.yul\":29737:29970   */\n      pop\n        /* \"#utility.yul\":30057:30061   */\n      0x20\n        /* \"#utility.yul\":30050:30055   */\n      dup4\n        /* \"#utility.yul\":30046:30062   */\n      add\n        /* \"#utility.yul\":30040:30063   */\n      mload\n        /* \"#utility.yul\":30076:30139   */\n      tag_783\n        /* \"#utility.yul\":30133:30137   */\n      0x20\n        /* \"#utility.yul\":30128:30131   */\n      dup7\n        /* \"#utility.yul\":30124:30138   */\n      add\n        /* \"#utility.yul\":30110:30122   */\n      dup3\n        /* \"#utility.yul\":30076:30139   */\n      tag_499\n      jump\t// in\n    tag_783:\n        /* \"#utility.yul\":29980:30149   */\n      pop\n        /* \"#utility.yul\":30235:30239   */\n      0x40\n        /* \"#utility.yul\":30228:30233   */\n      dup4\n        /* \"#utility.yul\":30224:30240   */\n      add\n        /* \"#utility.yul\":30218:30241   */\n      mload\n        /* \"#utility.yul\":30254:30317   */\n      tag_784\n        /* \"#utility.yul\":30311:30315   */\n      0x40\n        /* \"#utility.yul\":30306:30309   */\n      dup7\n        /* \"#utility.yul\":30302:30316   */\n      add\n        /* \"#utility.yul\":30288:30300   */\n      dup3\n        /* \"#utility.yul\":30254:30317   */\n      tag_500\n      jump\t// in\n    tag_784:\n        /* \"#utility.yul\":30159:30327   */\n      pop\n        /* \"#utility.yul\":30421:30425   */\n      0x60\n        /* \"#utility.yul\":30414:30419   */\n      dup4\n        /* \"#utility.yul\":30410:30426   */\n      add\n        /* \"#utility.yul\":30404:30427   */\n      mload\n        /* \"#utility.yul\":30440:30503   */\n      tag_785\n        /* \"#utility.yul\":30497:30501   */\n      0x60\n        /* \"#utility.yul\":30492:30495   */\n      dup7\n        /* \"#utility.yul\":30488:30502   */\n      add\n        /* \"#utility.yul\":30474:30486   */\n      dup3\n        /* \"#utility.yul\":30440:30503   */\n      tag_500\n      jump\t// in\n    tag_785:\n        /* \"#utility.yul\":30337:30513   */\n      pop\n        /* \"#utility.yul\":30530:30534   */\n      dup1\n        /* \"#utility.yul\":30523:30534   */\n      swap2\n      pop\n        /* \"#utility.yul\":29691:30540   */\n      pop\n        /* \"#utility.yul\":29549:30540   */\n      swap3\n      swap2\n      pop\n      pop\n      jump\t// out\n        /* \"#utility.yul\":30546:30955   */\n    tag_367:\n        /* \"#utility.yul\":30707:30711   */\n      0x00\n        /* \"#utility.yul\":30745:30747   */\n      0x20\n        /* \"#utility.yul\":30734:30743   */\n      dup3\n        /* \"#utility.yul\":30730:30748   */\n      add\n        /* \"#utility.yul\":30722:30748   */\n      swap1\n      pop\n        /* \"#utility.yul\":30794:30803   */\n      dup2\n        /* \"#utility.yul\":30788:30792   */\n      dup2\n        /* \"#utility.yul\":30784:30804   */\n      sub\n        /* \"#utility.yul\":30780:30781   */\n      0x00\n        /* \"#utility.yul\":30769:30778   */\n      dup4\n        /* \"#utility.yul\":30765:30782   */\n      add\n        /* \"#utility.yul\":30758:30805   */\n      mstore\n        /* \"#utility.yul\":30822:30948   */\n      tag_787\n        /* \"#utility.yul\":30943:30947   */\n      dup2\n        /* \"#utility.yul\":30934:30940   */\n      dup5\n        /* \"#utility.yul\":30822:30948   */\n      tag_501\n      jump\t// in\n    tag_787:\n        /* \"#utility.yul\":30814:30948   */\n      swap1\n      pop\n        /* \"#utility.yul\":30546:30955   */\n      swap3\n      swap2\n      pop\n      pop\n      jump\t// out\n        /* \"#utility.yul\":30961:31141   */\n    tag_377:\n        /* \"#utility.yul\":31009:31086   */\n      0x4e487b7100000000000000000000000000000000000000000000000000000000\n        /* \"#utility.yul\":31006:31007   */\n      0x00\n        /* \"#utility.yul\":30999:31087   */\n      mstore\n        /* \"#utility.yul\":31106:31110   */\n      0x41\n        /* \"#utility.yul\":31103:31104   */\n      0x04\n        /* \"#utility.yul\":31096:31111   */\n      mstore\n        /* \"#utility.yul\":31130:31134   */\n      0x24\n        /* \"#utility.yul\":31127:31128   */\n      0x00\n        /* \"#utility.yul\":31120:31135   */\n      revert\n        /* \"#utility.yul\":31147:31327   */\n    tag_381:\n        /* \"#utility.yul\":31195:31272   */\n      0x4e487b7100000000000000000000000000000000000000000000000000000000\n        /* \"#utility.yul\":31192:31193   */\n      0x00\n        /* \"#utility.yul\":31185:31273   */\n      mstore\n        /* \"#utility.yul\":31292:31296   */\n      0x32\n        /* \"#utility.yul\":31289:31290   */\n      0x04\n        /* \"#utility.yul\":31282:31297   */\n      mstore\n        /* \"#utility.yul\":31316:31320   */\n      0x24\n        /* \"#utility.yul\":31313:31314   */\n      0x00\n        /* \"#utility.yul\":31306:31321   */\n      revert\n        /* \"#utility.yul\":31333:31447   */\n    tag_502:\n        /* \"#utility.yul\":31400:31406   */\n      0x00\n        /* \"#utility.yul\":31434:31439   */\n      dup2\n        /* \"#utility.yul\":31428:31440   */\n      mload\n        /* \"#utility.yul\":31418:31440   */\n      swap1\n      pop\n        /* \"#utility.yul\":31333:31447   */\n      swap2\n      swap1\n      pop\n      jump\t// out\n        /* \"#utility.yul\":31453:31637   */\n    tag_503:\n        /* \"#utility.yul\":31552:31563   */\n      0x00\n        /* \"#utility.yul\":31586:31592   */\n      dup3\n        /* \"#utility.yul\":31581:31584   */\n      dup3\n        /* \"#utility.yul\":31574:31593   */\n      mstore\n        /* \"#utility.yul\":31626:31630   */\n      0x20\n        /* \"#utility.yul\":31621:31624   */\n      dup3\n        /* \"#utility.yul\":31617:31631   */\n      add\n        /* \"#utility.yul\":31602:31631   */\n      swap1\n      pop\n        /* \"#utility.yul\":31453:31637   */\n      swap3\n      swap2\n      pop\n      pop\n      jump\t// out\n        /* \"#utility.yul\":31643:31775   */\n    tag_504:\n        /* \"#utility.yul\":31710:31714   */\n      0x00\n        /* \"#utility.yul\":31733:31736   */\n      dup2\n        /* \"#utility.yul\":31725:31736   */\n      swap1\n      pop\n        /* \"#utility.yul\":31763:31767   */\n      0x20\n        /* \"#utility.yul\":31758:31761   */\n      dup3\n        /* \"#utility.yul\":31754:31768   */\n      add\n        /* \"#utility.yul\":31746:31768   */\n      swap1\n      pop\n        /* \"#utility.yul\":31643:31775   */\n      swap2\n      swap1\n      pop\n      jump\t// out\n        /* \"#utility.yul\":31781:31960   */\n    tag_505:\n        /* \"#utility.yul\":31850:31860   */\n      0x00\n        /* \"#utility.yul\":31871:31917   */\n      tag_794\n        /* \"#utility.yul\":31913:31916   */\n      dup4\n        /* \"#utility.yul\":31905:31911   */\n      dup4\n        /* \"#utility.yul\":31871:31917   */\n      tag_499\n      jump\t// in\n    tag_794:\n        /* \"#utility.yul\":31949:31953   */\n      0x20\n        /* \"#utility.yul\":31944:31947   */\n      dup4\n        /* \"#utility.yul\":31940:31954   */\n      add\n        /* \"#utility.yul\":31926:31954   */\n      swap1\n      pop\n        /* \"#utility.yul\":31781:31960   */\n      swap3\n      swap2\n      pop\n      pop\n      jump\t// out\n        /* \"#utility.yul\":31966:32079   */\n    tag_506:\n        /* \"#utility.yul\":32036:32040   */\n      0x00\n        /* \"#utility.yul\":32068:32072   */\n      0x20\n        /* \"#utility.yul\":32063:32066   */\n      dup3\n        /* \"#utility.yul\":32059:32073   */\n      add\n        /* \"#utility.yul\":32051:32073   */\n      swap1\n      pop\n        /* \"#utility.yul\":31966:32079   */\n      swap2\n      swap1\n      pop\n      jump\t// out\n        /* \"#utility.yul\":32115:32847   */\n    tag_507:\n        /* \"#utility.yul\":32234:32237   */\n      0x00\n        /* \"#utility.yul\":32263:32317   */\n      tag_797\n        /* \"#utility.yul\":32311:32316   */\n      dup3\n        /* \"#utility.yul\":32263:32317   */\n      tag_502\n      jump\t// in\n    tag_797:\n        /* \"#utility.yul\":32333:32419   */\n      tag_798\n        /* \"#utility.yul\":32412:32418   */\n      dup2\n        /* \"#utility.yul\":32407:32410   */\n      dup6\n        /* \"#utility.yul\":32333:32419   */\n      tag_503\n      jump\t// in\n    tag_798:\n        /* \"#utility.yul\":32326:32419   */\n      swap4\n      pop\n        /* \"#utility.yul\":32443:32499   */\n      tag_799\n        /* \"#utility.yul\":32493:32498   */\n      dup4\n        /* \"#utility.yul\":32443:32499   */\n      tag_504\n      jump\t// in\n    tag_799:\n        /* \"#utility.yul\":32522:32529   */\n      dup1\n        /* \"#utility.yul\":32553:32554   */\n      0x00\n        /* \"#utility.yul\":32538:32822   */\n    tag_800:\n        /* \"#utility.yul\":32563:32569   */\n      dup4\n        /* \"#utility.yul\":32560:32561   */\n      dup2\n        /* \"#utility.yul\":32557:32570   */\n      lt\n        /* \"#utility.yul\":32538:32822   */\n      iszero\n      tag_802\n      jumpi\n        /* \"#utility.yul\":32639:32645   */\n      dup2\n        /* \"#utility.yul\":32633:32646   */\n      mload\n        /* \"#utility.yul\":32666:32729   */\n      tag_803\n        /* \"#utility.yul\":32725:32728   */\n      dup9\n        /* \"#utility.yul\":32710:32723   */\n      dup3\n        /* \"#utility.yul\":32666:32729   */\n      tag_505\n      jump\t// in\n    tag_803:\n        /* \"#utility.yul\":32659:32729   */\n      swap8\n      pop\n        /* \"#utility.yul\":32752:32812   */\n      tag_804\n        /* \"#utility.yul\":32805:32811   */\n      dup4\n        /* \"#utility.yul\":32752:32812   */\n      tag_506\n      jump\t// in\n    tag_804:\n        /* \"#utility.yul\":32742:32812   */\n      swap3\n      pop\n        /* \"#utility.yul\":32598:32822   */\n      pop\n        /* \"#utility.yul\":32585:32586   */\n      0x01\n        /* \"#utility.yul\":32582:32583   */\n      dup2\n        /* \"#utility.yul\":32578:32587   */\n      add\n        /* \"#utility.yul\":32573:32587   */\n      swap1\n      pop\n        /* \"#utility.yul\":32538:32822   */\n      jump(tag_800)\n    tag_802:\n        /* \"#utility.yul\":32542:32556   */\n      pop\n        /* \"#utility.yul\":32838:32841   */\n      dup6\n        /* \"#utility.yul\":32831:32841   */\n      swap4\n      pop\n        /* \"#utility.yul\":32239:32847   */\n      pop\n      pop\n      pop\n        /* \"#utility.yul\":32115:32847   */\n      swap3\n      swap2\n      pop\n      pop\n      jump\t// out\n        /* \"#utility.yul\":32853:33336   */\n    tag_385:\n        /* \"#utility.yul\":33024:33028   */\n      0x00\n        /* \"#utility.yul\":33062:33064   */\n      0x40\n        /* \"#utility.yul\":33051:33060   */\n      dup3\n        /* \"#utility.yul\":33047:33065   */\n      add\n        /* \"#utility.yul\":33039:33065   */\n      swap1\n      pop\n        /* \"#utility.yul\":33075:33146   */\n      tag_806\n        /* \"#utility.yul\":33143:33144   */\n      0x00\n        /* \"#utility.yul\":33132:33141   */\n      dup4\n        /* \"#utility.yul\":33128:33145   */\n      add\n        /* \"#utility.yul\":33119:33125   */\n      dup6\n        /* \"#utility.yul\":33075:33146   */\n      tag_434\n      jump\t// in\n    tag_806:\n        /* \"#utility.yul\":33193:33202   */\n      dup2\n        /* \"#utility.yul\":33187:33191   */\n      dup2\n        /* \"#utility.yul\":33183:33203   */\n      sub\n        /* \"#utility.yul\":33178:33180   */\n      0x20\n        /* \"#utility.yul\":33167:33176   */\n      dup4\n        /* \"#utility.yul\":33163:33181   */\n      add\n        /* \"#utility.yul\":33156:33204   */\n      mstore\n        /* \"#utility.yul\":33221:33329   */\n      tag_807\n        /* \"#utility.yul\":33324:33328   */\n      dup2\n        /* \"#utility.yul\":33315:33321   */\n      dup5\n        /* \"#utility.yul\":33221:33329   */\n      tag_507\n      jump\t// in\n    tag_807:\n        /* \"#utility.yul\":33213:33329   */\n      swap1\n      pop\n        /* \"#utility.yul\":32853:33336   */\n      swap4\n      swap3\n      pop\n      pop\n      pop\n      jump\t// out\n        /* \"#utility.yul\":33342:33459   */\n    tag_508:\n        /* \"#utility.yul\":33451:33452   */\n      0x00\n        /* \"#utility.yul\":33448:33449   */\n      dup1\n        /* \"#utility.yul\":33441:33453   */\n      revert\n        /* \"#utility.yul\":33465:33746   */\n    tag_509:\n        /* \"#utility.yul\":33548:33575   */\n      tag_810\n        /* \"#utility.yul\":33570:33574   */\n      dup3\n        /* \"#utility.yul\":33548:33575   */\n      tag_497\n      jump\t// in\n    tag_810:\n        /* \"#utility.yul\":33540:33546   */\n      dup2\n        /* \"#utility.yul\":33536:33576   */\n      add\n        /* \"#utility.yul\":33678:33684   */\n      dup2\n        /* \"#utility.yul\":33666:33676   */\n      dup2\n        /* \"#utility.yul\":33663:33685   */\n      lt\n        /* \"#utility.yul\":33642:33660   */\n      0xffffffffffffffff\n        /* \"#utility.yul\":33630:33640   */\n      dup3\n        /* \"#utility.yul\":33627:33661   */\n      gt\n        /* \"#utility.yul\":33624:33686   */\n      or\n        /* \"#utility.yul\":33621:33709   */\n      iszero\n      tag_811\n      jumpi\n        /* \"#utility.yul\":33689:33707   */\n      tag_812\n      tag_377\n      jump\t// in\n    tag_812:\n        /* \"#utility.yul\":33621:33709   */\n    tag_811:\n        /* \"#utility.yul\":33729:33739   */\n      dup1\n        /* \"#utility.yul\":33725:33727   */\n      0x40\n        /* \"#utility.yul\":33718:33740   */\n      mstore\n        /* \"#utility.yul\":33508:33746   */\n      pop\n        /* \"#utility.yul\":33465:33746   */\n      pop\n      pop\n      jump\t// out\n        /* \"#utility.yul\":33752:33881   */\n    tag_510:\n        /* \"#utility.yul\":33786:33792   */\n      0x00\n        /* \"#utility.yul\":33813:33833   */\n      tag_814\n      tag_424\n      jump\t// in\n    tag_814:\n        /* \"#utility.yul\":33803:33833   */\n      swap1\n      pop\n        /* \"#utility.yul\":33842:33875   */\n      tag_815\n        /* \"#utility.yul\":33870:33874   */\n      dup3\n        /* \"#utility.yul\":33862:33868   */\n      dup3\n        /* \"#utility.yul\":33842:33875   */\n      tag_509\n      jump\t// in\n    tag_815:\n        /* \"#utility.yul\":33752:33881   */\n      swap2\n      swap1\n      pop\n      jump\t// out\n        /* \"#utility.yul\":33887:34198   */\n    tag_511:\n        /* \"#utility.yul\":33964:33968   */\n      0x00\n        /* \"#utility.yul\":34054:34072   */\n      0xffffffffffffffff\n        /* \"#utility.yul\":34046:34052   */\n      dup3\n        /* \"#utility.yul\":34043:34073   */\n      gt\n        /* \"#utility.yul\":34040:34096   */\n      iszero\n      tag_817\n      jumpi\n        /* \"#utility.yul\":34076:34094   */\n      tag_818\n      tag_377\n      jump\t// in\n    tag_818:\n        /* \"#utility.yul\":34040:34096   */\n    tag_817:\n        /* \"#utility.yul\":34126:34130   */\n      0x20\n        /* \"#utility.yul\":34118:34124   */\n      dup3\n        /* \"#utility.yul\":34114:34131   */\n      mul\n        /* \"#utility.yul\":34106:34131   */\n      swap1\n      pop\n        /* \"#utility.yul\":34186:34190   */\n      0x20\n        /* \"#utility.yul\":34180:34184   */\n      dup2\n        /* \"#utility.yul\":34176:34191   */\n      add\n        /* \"#utility.yul\":34168:34191   */\n      swap1\n      pop\n        /* \"#utility.yul\":33887:34198   */\n      swap2\n      swap1\n      pop\n      jump\t// out\n        /* \"#utility.yul\":34204:34321   */\n    tag_512:\n        /* \"#utility.yul\":34313:34314   */\n      0x00\n        /* \"#utility.yul\":34310:34311   */\n      dup1\n        /* \"#utility.yul\":34303:34315   */\n      revert\n        /* \"#utility.yul\":34344:35076   */\n    tag_513:\n        /* \"#utility.yul\":34451:34456   */\n      0x00\n        /* \"#utility.yul\":34476:34557   */\n      tag_821\n        /* \"#utility.yul\":34492:34556   */\n      tag_822\n        /* \"#utility.yul\":34549:34555   */\n      dup5\n        /* \"#utility.yul\":34492:34556   */\n      tag_511\n      jump\t// in\n    tag_822:\n        /* \"#utility.yul\":34476:34557   */\n      tag_510\n      jump\t// in\n    tag_821:\n        /* \"#utility.yul\":34467:34557   */\n      swap1\n      pop\n        /* \"#utility.yul\":34577:34582   */\n      dup1\n        /* \"#utility.yul\":34606:34612   */\n      dup4\n        /* \"#utility.yul\":34599:34604   */\n      dup3\n        /* \"#utility.yul\":34592:34613   */\n      mstore\n        /* \"#utility.yul\":34640:34644   */\n      0x20\n        /* \"#utility.yul\":34633:34638   */\n      dup3\n        /* \"#utility.yul\":34629:34645   */\n      add\n        /* \"#utility.yul\":34622:34645   */\n      swap1\n      pop\n        /* \"#utility.yul\":34693:34697   */\n      0x20\n        /* \"#utility.yul\":34685:34691   */\n      dup5\n        /* \"#utility.yul\":34681:34698   */\n      mul\n        /* \"#utility.yul\":34673:34679   */\n      dup4\n        /* \"#utility.yul\":34669:34699   */\n      add\n        /* \"#utility.yul\":34722:34725   */\n      dup6\n        /* \"#utility.yul\":34714:34720   */\n      dup2\n        /* \"#utility.yul\":34711:34726   */\n      gt\n        /* \"#utility.yul\":34708:34830   */\n      iszero\n      tag_823\n      jumpi\n        /* \"#utility.yul\":34741:34820   */\n      tag_824\n      tag_512\n      jump\t// in\n    tag_824:\n        /* \"#utility.yul\":34708:34830   */\n    tag_823:\n        /* \"#utility.yul\":34856:34862   */\n      dup4\n        /* \"#utility.yul\":34839:35070   */\n    tag_825:\n        /* \"#utility.yul\":34873:34879   */\n      dup2\n        /* \"#utility.yul\":34868:34871   */\n      dup2\n        /* \"#utility.yul\":34865:34880   */\n      lt\n        /* \"#utility.yul\":34839:35070   */\n      iszero\n      tag_827\n      jumpi\n        /* \"#utility.yul\":34948:34951   */\n      dup1\n        /* \"#utility.yul\":34977:35025   */\n      tag_828\n        /* \"#utility.yul\":35021:35024   */\n      dup9\n        /* \"#utility.yul\":35009:35019   */\n      dup3\n        /* \"#utility.yul\":34977:35025   */\n      tag_441\n      jump\t// in\n    tag_828:\n        /* \"#utility.yul\":34972:34975   */\n      dup5\n        /* \"#utility.yul\":34965:35026   */\n      mstore\n        /* \"#utility.yul\":35055:35059   */\n      0x20\n        /* \"#utility.yul\":35050:35053   */\n      dup5\n        /* \"#utility.yul\":35046:35060   */\n      add\n        /* \"#utility.yul\":35039:35060   */\n      swap4\n      pop\n        /* \"#utility.yul\":34915:35070   */\n      pop\n        /* \"#utility.yul\":34899:34903   */\n      0x20\n        /* \"#utility.yul\":34894:34897   */\n      dup2\n        /* \"#utility.yul\":34890:34904   */\n      add\n        /* \"#utility.yul\":34883:34904   */\n      swap1\n      pop\n        /* \"#utility.yul\":34839:35070   */\n      jump(tag_825)\n    tag_827:\n        /* \"#utility.yul\":34843:34864   */\n      pop\n        /* \"#utility.yul\":34457:35076   */\n      pop\n      pop\n        /* \"#utility.yul\":34344:35076   */\n      swap4\n      swap3\n      pop\n      pop\n      pop\n      jump\t// out\n        /* \"#utility.yul\":35099:35484   */\n    tag_514:\n        /* \"#utility.yul\":35181:35186   */\n      0x00\n        /* \"#utility.yul\":35230:35233   */\n      dup3\n        /* \"#utility.yul\":35223:35227   */\n      0x1f\n        /* \"#utility.yul\":35215:35221   */\n      dup4\n        /* \"#utility.yul\":35211:35228   */\n      add\n        /* \"#utility.yul\":35207:35234   */\n      slt\n        /* \"#utility.yul\":35197:35319   */\n      tag_830\n      jumpi\n        /* \"#utility.yul\":35238:35317   */\n      tag_831\n      tag_508\n      jump\t// in\n    tag_831:\n        /* \"#utility.yul\":35197:35319   */\n    tag_830:\n        /* \"#utility.yul\":35348:35354   */\n      dup2\n        /* \"#utility.yul\":35342:35355   */\n      mload\n        /* \"#utility.yul\":35373:35478   */\n      tag_832\n        /* \"#utility.yul\":35474:35477   */\n      dup5\n        /* \"#utility.yul\":35466:35472   */\n      dup3\n        /* \"#utility.yul\":35459:35463   */\n      0x20\n        /* \"#utility.yul\":35451:35457   */\n      dup7\n        /* \"#utility.yul\":35447:35464   */\n      add\n        /* \"#utility.yul\":35373:35478   */\n      tag_513\n      jump\t// in\n    tag_832:\n        /* \"#utility.yul\":35364:35478   */\n      swap2\n      pop\n        /* \"#utility.yul\":35187:35484   */\n      pop\n        /* \"#utility.yul\":35099:35484   */\n      swap3\n      swap2\n      pop\n      pop\n      jump\t// out\n        /* \"#utility.yul\":35490:36044   */\n    tag_389:\n        /* \"#utility.yul\":35585:35591   */\n      0x00\n        /* \"#utility.yul\":35634:35636   */\n      0x20\n        /* \"#utility.yul\":35622:35631   */\n      dup3\n        /* \"#utility.yul\":35613:35620   */\n      dup5\n        /* \"#utility.yul\":35609:35632   */\n      sub\n        /* \"#utility.yul\":35605:35637   */\n      slt\n        /* \"#utility.yul\":35602:35721   */\n      iszero\n      tag_834\n      jumpi\n        /* \"#utility.yul\":35640:35719   */\n      tag_835\n      tag_425\n      jump\t// in\n    tag_835:\n        /* \"#utility.yul\":35602:35721   */\n    tag_834:\n        /* \"#utility.yul\":35781:35782   */\n      0x00\n        /* \"#utility.yul\":35770:35779   */\n      dup3\n        /* \"#utility.yul\":35766:35783   */\n      add\n        /* \"#utility.yul\":35760:35784   */\n      mload\n        /* \"#utility.yul\":35811:35829   */\n      0xffffffffffffffff\n        /* \"#utility.yul\":35803:35809   */\n      dup2\n        /* \"#utility.yul\":35800:35830   */\n      gt\n        /* \"#utility.yul\":35797:35914   */\n      iszero\n      tag_836\n      jumpi\n        /* \"#utility.yul\":35833:35912   */\n      tag_837\n      tag_426\n      jump\t// in\n    tag_837:\n        /* \"#utility.yul\":35797:35914   */\n    tag_836:\n        /* \"#utility.yul\":35938:36027   */\n      tag_838\n        /* \"#utility.yul\":36019:36026   */\n      dup5\n        /* \"#utility.yul\":36010:36016   */\n      dup3\n        /* \"#utility.yul\":35999:36008   */\n      dup6\n        /* \"#utility.yul\":35995:36017   */\n      add\n        /* \"#utility.yul\":35938:36027   */\n      tag_514\n      jump\t// in\n    tag_838:\n        /* \"#utility.yul\":35928:36027   */\n      swap2\n      pop\n        /* \"#utility.yul\":35731:36037   */\n      pop\n        /* \"#utility.yul\":35490:36044   */\n      swap3\n      swap2\n      pop\n      pop\n      jump\t// out\n        /* \"#utility.yul\":36050:36865   */\n    tag_400:\n        /* \"#utility.yul\":36305:36309   */\n      0x00\n        /* \"#utility.yul\":36343:36346   */\n      0xa0\n        /* \"#utility.yul\":36332:36341   */\n      dup3\n        /* \"#utility.yul\":36328:36347   */\n      add\n        /* \"#utility.yul\":36320:36347   */\n      swap1\n      pop\n        /* \"#utility.yul\":36357:36428   */\n      tag_840\n        /* \"#utility.yul\":36425:36426   */\n      0x00\n        /* \"#utility.yul\":36414:36423   */\n      dup4\n        /* \"#utility.yul\":36410:36427   */\n      add\n        /* \"#utility.yul\":36401:36407   */\n      dup9\n        /* \"#utility.yul\":36357:36428   */\n      tag_434\n      jump\t// in\n    tag_840:\n        /* \"#utility.yul\":36438:36510   */\n      tag_841\n        /* \"#utility.yul\":36506:36508   */\n      0x20\n        /* \"#utility.yul\":36495:36504   */\n      dup4\n        /* \"#utility.yul\":36491:36509   */\n      add\n        /* \"#utility.yul\":36482:36488   */\n      dup8\n        /* \"#utility.yul\":36438:36510   */\n      tag_434\n      jump\t// in\n    tag_841:\n        /* \"#utility.yul\":36557:36566   */\n      dup2\n        /* \"#utility.yul\":36551:36555   */\n      dup2\n        /* \"#utility.yul\":36547:36567   */\n      sub\n        /* \"#utility.yul\":36542:36544   */\n      0x40\n        /* \"#utility.yul\":36531:36540   */\n      dup4\n        /* \"#utility.yul\":36527:36545   */\n      add\n        /* \"#utility.yul\":36520:36568   */\n      mstore\n        /* \"#utility.yul\":36585:36693   */\n      tag_842\n        /* \"#utility.yul\":36688:36692   */\n      dup2\n        /* \"#utility.yul\":36679:36685   */\n      dup7\n        /* \"#utility.yul\":36585:36693   */\n      tag_507\n      jump\t// in\n    tag_842:\n        /* \"#utility.yul\":36577:36693   */\n      swap1\n      pop\n        /* \"#utility.yul\":36703:36775   */\n      tag_843\n        /* \"#utility.yul\":36771:36773   */\n      0x60\n        /* \"#utility.yul\":36760:36769   */\n      dup4\n        /* \"#utility.yul\":36756:36774   */\n      add\n        /* \"#utility.yul\":36747:36753   */\n      dup6\n        /* \"#utility.yul\":36703:36775   */\n      tag_423\n      jump\t// in\n    tag_843:\n        /* \"#utility.yul\":36785:36858   */\n      tag_844\n        /* \"#utility.yul\":36853:36856   */\n      0x80\n        /* \"#utility.yul\":36842:36851   */\n      dup4\n        /* \"#utility.yul\":36838:36857   */\n      add\n        /* \"#utility.yul\":36829:36835   */\n      dup5\n        /* \"#utility.yul\":36785:36858   */\n      tag_434\n      jump\t// in\n    tag_844:\n        /* \"#utility.yul\":36050:36865   */\n      swap7\n      swap6\n      pop\n      pop\n      pop\n      pop\n      pop\n      pop\n      jump\t// out\n\n    auxdata: 0xa2646970667358221220f9f6f636ffc0a8e99b1110d293380e60b7e253d7d629047978c454186d31e20364736f6c63430008140033\n}\n",
				"bytecode": {
					"linkReferences": {},
					"object": "61018060405261dead73ffffffffffffffffffffffffffffffffffffffff166101209073ffffffffffffffffffffffffffffffffffffffff16815250600073ffffffffffffffffffffffffffffffffffffffff166101409073ffffffffffffffffffffffffffffffffffffffff16815250610bb862ffffff166101609062ffffff168152503480156200009157600080fd5b5060405162003933380380620039338339818101604052810190620000b7919062000487565b826001600081905550600073ffffffffffffffffffffffffffffffffffffffff168173ffffffffffffffffffffffffffffffffffffffff1603620001355760006040517f1e4fbdf70000000000000000000000000000000000000000000000000000000081526004016200012c919062000561565b60405180910390fd5b62000146816200031260201b60201c565b5087600260006101000a81548173ffffffffffffffffffffffffffffffffffffffff021916908373ffffffffffffffffffffffffffffffffffffffff16021790555086600360006101000a81548173ffffffffffffffffffffffffffffffffffffffff021916908373ffffffffffffffffffffffffffffffffffffffff1602179055508573ffffffffffffffffffffffffffffffffffffffff1660c08173ffffffffffffffffffffffffffffffffffffffff16815250508473ffffffffffffffffffffffffffffffffffffffff1660e08173ffffffffffffffffffffffffffffffffffffffff16815250508373ffffffffffffffffffffffffffffffffffffffff166101008173ffffffffffffffffffffffffffffffffffffffff16815250508173ffffffffffffffffffffffffffffffffffffffff1660808173ffffffffffffffffffffffffffffffffffffffff16815250508073ffffffffffffffffffffffffffffffffffffffff1660a08173ffffffffffffffffffffffffffffffffffffffff16815250506001600860006101000a81548160ff0219169083151502179055506001600860016101000a81548160ff02191690831515021790555050505050505050506200057e565b6000600160009054906101000a900473ffffffffffffffffffffffffffffffffffffffff16905081600160006101000a81548173ffffffffffffffffffffffffffffffffffffffff021916908373ffffffffffffffffffffffffffffffffffffffff1602179055508173ffffffffffffffffffffffffffffffffffffffff168173ffffffffffffffffffffffffffffffffffffffff167f8be0079c531659141344cd1fd0a4f28419497f9722a3daafe3b4186f6b6457e060405160405180910390a35050565b600080fd5b600073ffffffffffffffffffffffffffffffffffffffff82169050919050565b60006200040a82620003dd565b9050919050565b6200041c81620003fd565b81146200042857600080fd5b50565b6000815190506200043c8162000411565b92915050565b60006200044f82620003dd565b9050919050565b620004618162000442565b81146200046d57600080fd5b50565b600081519050620004818162000456565b92915050565b600080600080600080600080610100898b031215620004ab57620004aa620003d8565b5b6000620004bb8b828c016200042b565b9850506020620004ce8b828c016200042b565b9750506040620004e18b828c016200042b565b9650506060620004f48b828c016200042b565b9550506080620005078b828c016200042b565b94505060a06200051a8b828c016200042b565b93505060c06200052d8b828c0162000470565b92505060e0620005408b828c0162000470565b9150509295985092959890939650565b6200055b81620003fd565b82525050565b600060208201905062000578600083018462000550565b92915050565b60805160a05160c05160e051610100516101205161014051610160516132df6200065460003960006119570152600081816118370152611e1f015260008181610b8801526119bf0152600081816101a701528181610206015281816106a90152818161072d01528181610c70015281816111bb01528181611418015281816118660152818161193601528181611b530152611d170152600081816109690152611bc201526000818161098d0152611978015260008181610c280152611594015260008181610c4c01526114b101526132df6000f3fe6080604052600436106101a05760003560e01c8063715018a6116100ec578063b37fd1901161008a578063dc05a30911610064578063dc05a3091461061c578063dc1a4d9e14610633578063f2fde38b1461064a578063fccc28131461067357610204565b8063b37fd190146105b1578063ba779ed5146105da578063cfbb7d361461060557610204565b80638465093e116100c65780638465093e1461050957806389e85217146105325780638da5cb5b1461055d578063a0558c3f1461058857610204565b8063715018a61461049c5780637499aff4146104b35780637581aa60146104de57610204565b80633f0c188f11610159578063599270441161013357806359927044146103f257806362ab05e71461041d57806366650b7b146104485780636cdf0e401461047357610204565b80633f0c188f146103735780634e6fd6c4146103b057806357d1fdcd146103db57610204565b80630c2b72e9146102635780630efd09731461028e578063138b7338146102b9578063210009cf146102f65780632b7459b91461031f5780633d65de441461034857610204565b36610204577f000000000000000000000000000000000000000000000000000000000000000073ffffffffffffffffffffffffffffffffffffffff163373ffffffffffffffffffffffffffffffffffffffff1614610202576102013461069e565b5b005b7f000000000000000000000000000000000000000000000000000000000000000073ffffffffffffffffffffffffffffffffffffffff163373ffffffffffffffffffffffffffffffffffffffff1614610261576102603461069e565b5b005b34801561026f57600080fd5b50610278610967565b604051610285919061211a565b60405180910390f35b34801561029a57600080fd5b506102a361098b565b6040516102b0919061211a565b60405180910390f35b3480156102c557600080fd5b506102e060048036038101906102db9190612175565b6109af565b6040516102ed91906121bd565b60405180910390f35b34801561030257600080fd5b5061031d60048036038101906103189190612175565b610a05565b005b34801561032b57600080fd5b5061034660048036038101906103419190612204565b610b2b565b005b34801561035457600080fd5b5061035d610b60565b60405161036a919061224a565b60405180910390f35b34801561037f57600080fd5b5061039a60048036038101906103959190612175565b610b66565b6040516103a791906121bd565b60405180910390f35b3480156103bc57600080fd5b506103c5610b86565b6040516103d2919061211a565b60405180910390f35b3480156103e757600080fd5b506103f0610baa565b005b3480156103fe57600080fd5b50610407610c26565b6040516104149190612286565b60405180910390f35b34801561042957600080fd5b50610432610c4a565b60405161043f9190612286565b60405180910390f35b34801561045457600080fd5b5061045d610c6e565b60405161046a919061211a565b60405180910390f35b34801561047f57600080fd5b5061049a60048036038101906104959190612204565b610c92565b005b3480156104a857600080fd5b506104b1610cc7565b005b3480156104bf57600080fd5b506104c8610cdb565b6040516104d5919061224a565b60405180910390f35b3480156104ea57600080fd5b506104f3610ce1565b60405161050091906121bd565b60405180910390f35b34801561051557600080fd5b50610530600480360381019061052b9190612175565b610cf4565b005b34801561053e57600080fd5b50610547610e8a565b604051610554919061224a565b60405180910390f35b34801561056957600080fd5b50610572610e90565b60405161057f919061211a565b60405180910390f35b34801561059457600080fd5b506105af60048036038101906105aa91906122f9565b610eba565b005b3480156105bd57600080fd5b506105d860048036038101906105d39190612339565b611074565b005b3480156105e657600080fd5b506105ef6113cc565b6040516105fc91906121bd565b60405180910390f35b34801561061157600080fd5b5061061a6113df565b005b34801561062857600080fd5b50610631611673565b005b34801561063f57600080fd5b50610648611748565b005b34801561065657600080fd5b50610671600480360381019061066c9190612175565b6117af565b005b34801561067f57600080fd5b50610688611835565b604051610695919061211a565b60405180910390f35b6000811115610729577f000000000000000000000000000000000000000000000000000000000000000073ffffffffffffffffffffffffffffffffffffffff1663d0e30db0826040518263ffffffff1660e01b81526004016000604051808303818588803b15801561070f57600080fd5b505af1158015610723573d6000803e3d6000fd5b50505050505b60007f000000000000000000000000000000000000000000000000000000000000000073ffffffffffffffffffffffffffffffffffffffff166370a08231306040518263ffffffff1660e01b8152600401610784919061211a565b602060405180830381865afa1580156107a1573d6000803e3d6000fd5b505050506040513d601f19601f820116820180604052508101906107c591906123a1565b905060006005546007546006546107dc91906123fd565b6107e691906123fd565b90508082101561082b576040517f08c379a00000000000000000000000000000000000000000000000000000000081526004016108229061248e565b60405180910390fd5b6000818361083991906124ae565b905060008111156109615760006064603c8361085591906124e2565b61085f9190612553565b905060006064600a8461087291906124e2565b61087c9190612553565b9050600081838561088d91906124ae565b61089791906124ae565b905082600660008282546108ab91906123fd565b9250508190555080600760008282546108c491906123fd565b9250508190555081600560008282546108dd91906123fd565b925050819055507f4816db49bfc91a0172699baedf430e5d308b8034f966fb25681b27c17bcd3a47848483856040516109199493929190612584565b60405180910390a1600860009054906101000a900460ff161561093f5761093e611859565b5b600860019054906101000a900460ff161561095d5761095c611af8565b5b5050505b50505050565b7f000000000000000000000000000000000000000000000000000000000000000081565b7f000000000000000000000000000000000000000000000000000000000000000081565b6000600460008373ffffffffffffffffffffffffffffffffffffffff1673ffffffffffffffffffffffffffffffffffffffff16815260200190815260200160002060009054906101000a900460ff169050919050565b610a0d611f34565b600460008273ffffffffffffffffffffffffffffffffffffffff1673ffffffffffffffffffffffffffffffffffffffff16815260200190815260200160002060009054906101000a900460ff16610a99576040517f08c379a0000000000000000000000000000000000000000000000000000000008152600401610a9090612615565b60405180910390fd5b6000600460008373ffffffffffffffffffffffffffffffffffffffff1673ffffffffffffffffffffffffffffffffffffffff16815260200190815260200160002060006101000a81548160ff0219169083151502179055507fd9ea38e99b87231f31b9da68de3c78d56418e10e2e64d338c9f438ab75681ebc81604051610b20919061211a565b60405180910390a150565b610b33611f34565b610b3b611fbb565b80600860006101000a81548160ff021916908315150217905550610b5d612001565b50565b60055481565b60046020528060005260406000206000915054906101000a900460ff1681565b7f000000000000000000000000000000000000000000000000000000000000000081565b610bb2611f34565b610bba611fbb565b60006005541180610bcd57506000600654115b610c0c576040517f08c379a0000000000000000000000000000000000000000000000000000000008152600401610c0390612681565b60405180910390fd5b610c14611859565b610c1c611af8565b610c24612001565b565b7f000000000000000000000000000000000000000000000000000000000000000081565b7f000000000000000000000000000000000000000000000000000000000000000081565b7f000000000000000000000000000000000000000000000000000000000000000081565b610c9a611f34565b610ca2611fbb565b80600860016101000a81548160ff021916908315150217905550610cc4612001565b50565b610ccf611f34565b610cd9600061200b565b565b60065481565b600860019054906101000a900460ff1681565b610cfc611f34565b600073ffffffffffffffffffffffffffffffffffffffff168173ffffffffffffffffffffffffffffffffffffffff1603610d6b576040517f08c379a0000000000000000000000000000000000000000000000000000000008152600401610d62906126ed565b60405180910390fd5b600460008273ffffffffffffffffffffffffffffffffffffffff1673ffffffffffffffffffffffffffffffffffffffff16815260200190815260200160002060009054906101000a900460ff1615610df8576040517f08c379a0000000000000000000000000000000000000000000000000000000008152600401610def90612759565b60405180910390fd5b6001600460008373ffffffffffffffffffffffffffffffffffffffff1673ffffffffffffffffffffffffffffffffffffffff16815260200190815260200160002060006101000a81548160ff0219169083151502179055507f797c25843e35d46f4254028734c97d60f3f93aaccc1dd994dd6b90683fdb248681604051610e7f919061211a565b60405180910390a150565b60075481565b6000600160009054906101000a900473ffffffffffffffffffffffffffffffffffffffff16905090565b610ec2611f34565b610eca611fbb565b600073ffffffffffffffffffffffffffffffffffffffff168173ffffffffffffffffffffffffffffffffffffffff1603610f39576040517f08c379a0000000000000000000000000000000000000000000000000000000008152600401610f30906127c5565b60405180910390fd5b600047905080831115610f81576040517f08c379a0000000000000000000000000000000000000000000000000000000008152600401610f7890612831565b60405180910390fd5b60008273ffffffffffffffffffffffffffffffffffffffff1684604051610fa790612882565b60006040518083038185875af1925050503d8060008114610fe4576040519150601f19603f3d011682016040523d82523d6000602084013e610fe9565b606091505b505090508061102d576040517f08c379a0000000000000000000000000000000000000000000000000000000008152600401611024906128e3565b60405180910390fd5b7fcd7fef3a642dcf99ce1004b2a15d31e91398f01974500b64eab8fc50fef2d3b1848460405161105e929190612962565b60405180910390a15050611070612001565b5050565b61107c611f34565b611084611fbb565b600073ffffffffffffffffffffffffffffffffffffffff168173ffffffffffffffffffffffffffffffffffffffff16036110f3576040517f08c379a00000000000000000000000000000000000000000000000000000000081526004016110ea906127c5565b60405180910390fd5b600083905060008173ffffffffffffffffffffffffffffffffffffffff166370a08231306040518263ffffffff1660e01b8152600401611133919061211a565b602060405180830381865afa158015611150573d6000803e3d6000fd5b505050506040513d601f19601f8201168201806040525081019061117491906123a1565b9050808411156111b9576040517f08c379a00000000000000000000000000000000000000000000000000000000081526004016111b0906129d7565b60405180910390fd5b7f000000000000000000000000000000000000000000000000000000000000000073ffffffffffffffffffffffffffffffffffffffff168573ffffffffffffffffffffffffffffffffffffffff16036112bf57600060055460075460065461122191906123fd565b61122b91906123fd565b905080821161126f576040517f08c379a000000000000000000000000000000000000000000000000000000000815260040161126690612a43565b60405180910390fd5b808261127b91906124ae565b8511156112bd576040517f08c379a00000000000000000000000000000000000000000000000000000000081526004016112b490612aaf565b60405180910390fd5b505b60008273ffffffffffffffffffffffffffffffffffffffff1663a9059cbb85876040518363ffffffff1660e01b81526004016112fc929190612acf565b6020604051808303816000875af115801561131b573d6000803e3d6000fd5b505050506040513d601f19601f8201168201806040525081019061133f9190612b0d565b905080611381576040517f08c379a000000000000000000000000000000000000000000000000000000000815260040161137890612b86565b60405180910390fd5b7ffb475a842bad10d3800b61bd1a92e716051afba979b124b583bd99a2d1d7bfd58686866040516113b493929190612ba6565b60405180910390a15050506113c7612001565b505050565b600860009054906101000a900460ff1681565b6113e7611f34565b6113ef611fbb565b6113f9600061069e565b600060075460065461140b91906123fd565b905060008111156114a2577f000000000000000000000000000000000000000000000000000000000000000073ffffffffffffffffffffffffffffffffffffffff16632e1a7d4d826040518263ffffffff1660e01b815260040161146f919061224a565b600060405180830381600087803b15801561148957600080fd5b505af115801561149d573d6000803e3d6000fd5b505050505b600060065411156115855760007f000000000000000000000000000000000000000000000000000000000000000073ffffffffffffffffffffffffffffffffffffffff166006546040516114f590612882565b60006040518083038185875af1925050503d8060008114611532576040519150601f19603f3d011682016040523d82523d6000602084013e611537565b606091505b505090508061157b576040517f08c379a000000000000000000000000000000000000000000000000000000000815260040161157290612c29565b60405180910390fd5b6000600681905550505b600060075411156116685760007f000000000000000000000000000000000000000000000000000000000000000073ffffffffffffffffffffffffffffffffffffffff166007546040516115d890612882565b60006040518083038185875af1925050503d8060008114611615576040519150601f19603f3d011682016040523d82523d6000602084013e61161a565b606091505b505090508061165e576040517f08c379a000000000000000000000000000000000000000000000000000000000815260040161165590612c95565b60405180910390fd5b6000600781905550505b50611671612001565b565b61167b610e90565b73ffffffffffffffffffffffffffffffffffffffff163373ffffffffffffffffffffffffffffffffffffffff1614806116fd5750600460003373ffffffffffffffffffffffffffffffffffffffff1673ffffffffffffffffffffffffffffffffffffffff16815260200190815260200160002060009054906101000a900460ff165b61173c576040517f08c379a000000000000000000000000000000000000000000000000000000000815260040161173390612d27565b60405180910390fd5b611746600061069e565b565b611750611f34565b611758611fbb565b60006006541161179d576040517f08c379a000000000000000000000000000000000000000000000000000000000815260040161179490612d93565b60405180910390fd5b6117a5611af8565b6117ad612001565b565b6117b7611f34565b600073ffffffffffffffffffffffffffffffffffffffff168173ffffffffffffffffffffffffffffffffffffffff16036118295760006040517f1e4fbdf7000000000000000000000000000000000000000000000000000000008152600401611820919061211a565b60405180910390fd5b6118328161200b565b50565b7f000000000000000000000000000000000000000000000000000000000000000081565b60006005541115611af6577f000000000000000000000000000000000000000000000000000000000000000073ffffffffffffffffffffffffffffffffffffffff1663095ea7b3600260009054906101000a900473ffffffffffffffffffffffffffffffffffffffff166005546040518363ffffffff1660e01b81526004016118e3929190612acf565b6020604051808303816000875af1158015611902573d6000803e3d6000fd5b505050506040513d601f19601f820116820180604052508101906119269190612b0d565b50600060405180608001604052807f00000000000000000000000000000000000000000000000000000000000000007f00000000000000000000000000000000000000000000000000000000000000007f00000000000000000000000000000000000000000000000000000000000000006040516020016119a993929190612e40565b60405160208183030381529060405281526020017f000000000000000000000000000000000000000000000000000000000000000073ffffffffffffffffffffffffffffffffffffffff1681526020016005548152602001600081525090506000600260009054906101000a900473ffffffffffffffffffffffffffffffffffffffff1673ffffffffffffffffffffffffffffffffffffffff1663b858183f836040518263ffffffff1660e01b8152600401611a659190612f8e565b6020604051808303816000875af1158015611a84573d6000803e3d6000fd5b505050506040513d601f19601f82011682018060405250810190611aa891906123a1565b905060006005819055506000811115611af3577f9f7c0331cae72869b1e69d00e6dbfceb0e02266830e12339f841d334bc61412781604051611aea919061224a565b60405180910390a15b50505b565b60006006541115611f32576000600267ffffffffffffffff811115611b2057611b1f612fb0565b5b604051908082528060200260200182016040528015611b4e5781602001602082028036833780820191505090505b5090507f000000000000000000000000000000000000000000000000000000000000000081600081518110611b8657611b85612fdf565b5b602002602001019073ffffffffffffffffffffffffffffffffffffffff16908173ffffffffffffffffffffffffffffffffffffffff16815250507f000000000000000000000000000000000000000000000000000000000000000081600181518110611bf557611bf4612fdf565b5b602002602001019073ffffffffffffffffffffffffffffffffffffffff16908173ffffffffffffffffffffffffffffffffffffffff16815250506000600360009054906101000a900473ffffffffffffffffffffffffffffffffffffffff1673ffffffffffffffffffffffffffffffffffffffff1663d06ca61f600654846040518363ffffffff1660e01b8152600401611c909291906130bd565b600060405180830381865afa158015611cad573d6000803e3d6000fd5b505050506040513d6000823e3d601f19601f82011682018060405250810190611cd69190613206565b9050600081600181518110611cee57611ced612fdf565b5b6020026020010151905060006064605083611d0991906124e2565b611d139190612553565b90507f000000000000000000000000000000000000000000000000000000000000000073ffffffffffffffffffffffffffffffffffffffff1663095ea7b3600360009054906101000a900473ffffffffffffffffffffffffffffffffffffffff166006546040518363ffffffff1660e01b8152600401611d94929190612acf565b6020604051808303816000875af1158015611db3573d6000803e3d6000fd5b505050506040513d601f19601f82011682018060405250810190611dd79190612b0d565b506000600360009054906101000a900473ffffffffffffffffffffffffffffffffffffffff1673ffffffffffffffffffffffffffffffffffffffff166338ed173960065484887f000000000000000000000000000000000000000000000000000000000000000061012c42611e4c91906123fd565b6040518663ffffffff1660e01b8152600401611e6c95949392919061324f565b6000604051808303816000875af1158015611e8b573d6000803e3d6000fd5b505050506040513d6000823e3d601f19601f82011682018060405250810190611eb49190613206565b905060008160018351611ec791906124ae565b81518110611ed857611ed7612fdf565b5b6020026020010151905060006006819055506000811115611f2b577fcb42363dcc1840222268fe43eebc976f3e311a14761e5396eb394ebdac90a58281604051611f22919061224a565b60405180910390a15b5050505050505b565b611f3c6120d1565b73ffffffffffffffffffffffffffffffffffffffff16611f5a610e90565b73ffffffffffffffffffffffffffffffffffffffff1614611fb957611f7d6120d1565b6040517f118cdaa7000000000000000000000000000000000000000000000000000000008152600401611fb0919061211a565b60405180910390fd5b565b600260005403611ff7576040517f3ee5aeb500000000000000000000000000000000000000000000000000000000815260040160405180910390fd5b6002600081905550565b6001600081905550565b6000600160009054906101000a900473ffffffffffffffffffffffffffffffffffffffff16905081600160006101000a81548173ffffffffffffffffffffffffffffffffffffffff021916908373ffffffffffffffffffffffffffffffffffffffff1602179055508173ffffffffffffffffffffffffffffffffffffffff168173ffffffffffffffffffffffffffffffffffffffff167f8be0079c531659141344cd1fd0a4f28419497f9722a3daafe3b4186f6b6457e060405160405180910390a35050565b600033905090565b600073ffffffffffffffffffffffffffffffffffffffff82169050919050565b6000612104826120d9565b9050919050565b612114816120f9565b82525050565b600060208201905061212f600083018461210b565b92915050565b6000604051905090565b600080fd5b600080fd5b612152816120f9565b811461215d57600080fd5b50565b60008135905061216f81612149565b92915050565b60006020828403121561218b5761218a61213f565b5b600061219984828501612160565b91505092915050565b60008115159050919050565b6121b7816121a2565b82525050565b60006020820190506121d260008301846121ae565b92915050565b6121e1816121a2565b81146121ec57600080fd5b50565b6000813590506121fe816121d8565b92915050565b60006020828403121561221a5761221961213f565b5b6000612228848285016121ef565b91505092915050565b6000819050919050565b61224481612231565b82525050565b600060208201905061225f600083018461223b565b92915050565b6000612270826120d9565b9050919050565b61228081612265565b82525050565b600060208201905061229b6000830184612277565b92915050565b6122aa81612231565b81146122b557600080fd5b50565b6000813590506122c7816122a1565b92915050565b6122d681612265565b81146122e157600080fd5b50565b6000813590506122f3816122cd565b92915050565b600080604083850312156123105761230f61213f565b5b600061231e858286016122b8565b925050602061232f858286016122e4565b9150509250929050565b6000806000606084860312156123525761235161213f565b5b600061236086828701612160565b9350506020612371868287016122b8565b925050604061238286828701612160565b9150509250925092565b60008151905061239b816122a1565b92915050565b6000602082840312156123b7576123b661213f565b5b60006123c58482850161238c565b91505092915050565b7f4e487b7100000000000000000000000000000000000000000000000000000000600052601160045260246000fd5b600061240882612231565b915061241383612231565b925082820190508082111561242b5761242a6123ce565b5b92915050565b600082825260208201905092915050565b7f42616c616e6365206572726f7200000000000000000000000000000000000000600082015250565b6000612478600d83612431565b915061248382612442565b602082019050919050565b600060208201905081810360008301526124a78161246b565b9050919050565b60006124b982612231565b91506124c483612231565b92508282039050818111156124dc576124db6123ce565b5b92915050565b60006124ed82612231565b91506124f883612231565b925082820261250681612231565b9150828204841483151761251d5761251c6123ce565b5b5092915050565b7f4e487b7100000000000000000000000000000000000000000000000000000000600052601260045260246000fd5b600061255e82612231565b915061256983612231565b92508261257957612578612524565b5b828204905092915050565b6000608082019050612599600083018761223b565b6125a6602083018661223b565b6125b3604083018561223b565b6125c0606083018461223b565b95945050505050565b7f4e6f742077686974656c69737465640000000000000000000000000000000000600082015250565b60006125ff600f83612431565b915061260a826125c9565b602082019050919050565b6000602082019050818103600083015261262e816125f2565b9050919050565b7f4e6f2062616c616e63657320746f206275726e00000000000000000000000000600082015250565b600061266b601383612431565b915061267682612635565b602082019050919050565b6000602082019050818103600083015261269a8161265e565b9050919050565b7f496e76616c6964204e465420636f6e7472616374206164647265737300000000600082015250565b60006126d7601c83612431565b91506126e2826126a1565b602082019050919050565b60006020820190508181036000830152612706816126ca565b9050919050565b7f416c72656164792077686974656c697374656400000000000000000000000000600082015250565b6000612743601383612431565b915061274e8261270d565b602082019050919050565b6000602082019050818103600083015261277281612736565b9050919050565b7f496e76616c696420726563697069656e74000000000000000000000000000000600082015250565b60006127af601183612431565b91506127ba82612779565b602082019050919050565b600060208201905081810360008301526127de816127a2565b9050919050565b7f4e6f7420656e6f75676820455448000000000000000000000000000000000000600082015250565b600061281b600e83612431565b9150612826826127e5565b602082019050919050565b6000602082019050818103600083015261284a8161280e565b9050919050565b600081905092915050565b50565b600061286c600083612851565b91506128778261285c565b600082019050919050565b600061288d8261285f565b9150819050919050565b7f455448207472616e73666572206661696c656400000000000000000000000000600082015250565b60006128cd601383612431565b91506128d882612897565b602082019050919050565b600060208201905081810360008301526128fc816128c0565b9050919050565b6000819050919050565b600061292861292361291e846120d9565b612903565b6120d9565b9050919050565b600061293a8261290d565b9050919050565b600061294c8261292f565b9050919050565b61295c81612941565b82525050565b6000604082019050612977600083018561223b565b6129846020830184612953565b9392505050565b7f4e6f7420656e6f75676820746f6b656e2062616c616e63650000000000000000600082015250565b60006129c1601883612431565b91506129cc8261298b565b602082019050919050565b600060208201905081810360008301526129f0816129b4565b9050919050565b7f4e6f20657863657373205745544e20746f207265736375650000000000000000600082015250565b6000612a2d601883612431565b9150612a38826129f7565b602082019050919050565b60006020820190508181036000830152612a5c81612a20565b9050919050565b7f416d6f756e74206578636565647320657863657373205745544e000000000000600082015250565b6000612a99601a83612431565b9150612aa482612a63565b602082019050919050565b60006020820190508181036000830152612ac881612a8c565b9050919050565b6000604082019050612ae4600083018561210b565b612af1602083018461223b565b9392505050565b600081519050612b07816121d8565b92915050565b600060208284031215612b2357612b2261213f565b5b6000612b3184828501612af8565b91505092915050565b7f546f6b656e207472616e73666572206661696c65640000000000000000000000600082015250565b6000612b70601583612431565b9150612b7b82612b3a565b602082019050919050565b60006020820190508181036000830152612b9f81612b63565b9050919050565b6000606082019050612bbb600083018661210b565b612bc8602083018561223b565b612bd5604083018461210b565b949350505050565b7f436f72652077616c6c6574207472616e73666572206661696c65640000000000600082015250565b6000612c13601b83612431565b9150612c1e82612bdd565b602082019050919050565b60006020820190508181036000830152612c4281612c06565b9050919050565b7f5465616d2077616c6c6574207472616e73666572206661696c65640000000000600082015250565b6000612c7f601b83612431565b9150612c8a82612c49565b602082019050919050565b60006020820190508181036000830152612cae81612c72565b9050919050565b7f556e617574686f72697a65643a204f6e6c79206f776e6572206f72207768697460008201527f656c6973746564204e4654000000000000000000000000000000000000000000602082015250565b6000612d11602b83612431565b9150612d1c82612cb5565b604082019050919050565b60006020820190508181036000830152612d4081612d04565b9050919050565b7f4e6f20636f72652062616c616e636520746f206275726e000000000000000000600082015250565b6000612d7d601783612431565b9150612d8882612d47565b602082019050919050565b60006020820190508181036000830152612dac81612d70565b9050919050565b60008160601b9050919050565b6000612dcb82612db3565b9050919050565b6000612ddd82612dc0565b9050919050565b612df5612df0826120f9565b612dd2565b82525050565b600062ffffff82169050919050565b60008160e81b9050919050565b6000612e2282612e0a565b9050919050565b612e3a612e3582612dfb565b612e17565b82525050565b6000612e4c8286612de4565b601482019150612e5c8285612e29565b600382019150612e6c8284612de4565b601482019150819050949350505050565b600081519050919050565b600082825260208201905092915050565b60005b83811015612eb7578082015181840152602081019050612e9c565b60008484015250505050565b6000601f19601f8301169050919050565b6000612edf82612e7d565b612ee98185612e88565b9350612ef9818560208601612e99565b612f0281612ec3565b840191505092915050565b612f16816120f9565b82525050565b612f2581612231565b82525050565b60006080830160008301518482036000860152612f488282612ed4565b9150506020830151612f5d6020860182612f0d565b506040830151612f706040860182612f1c565b506060830151612f836060860182612f1c565b508091505092915050565b60006020820190508181036000830152612fa88184612f2b565b905092915050565b7f4e487b7100000000000000000000000000000000000000000000000000000000600052604160045260246000fd5b7f4e487b7100000000000000000000000000000000000000000000000000000000600052603260045260246000fd5b600081519050919050565b600082825260208201905092915050565b6000819050602082019050919050565b60006130468383612f0d565b60208301905092915050565b6000602082019050919050565b600061306a8261300e565b6130748185613019565b935061307f8361302a565b8060005b838110156130b0578151613097888261303a565b97506130a283613052565b925050600181019050613083565b5085935050505092915050565b60006040820190506130d2600083018561223b565b81810360208301526130e4818461305f565b90509392505050565b600080fd5b6130fb82612ec3565b810181811067ffffffffffffffff8211171561311a57613119612fb0565b5b80604052505050565b600061312d612135565b905061313982826130f2565b919050565b600067ffffffffffffffff82111561315957613158612fb0565b5b602082029050602081019050919050565b600080fd5b600061318261317d8461313e565b613123565b905080838252602082019050602084028301858111156131a5576131a461316a565b5b835b818110156131ce57806131ba888261238c565b8452602084019350506020810190506131a7565b5050509392505050565b600082601f8301126131ed576131ec6130ed565b5b81516131fd84826020860161316f565b91505092915050565b60006020828403121561321c5761321b61213f565b5b600082015167ffffffffffffffff81111561323a57613239612144565b5b613246848285016131d8565b91505092915050565b600060a082019050613264600083018861223b565b613271602083018761223b565b8181036040830152613283818661305f565b9050613292606083018561210b565b61329f608083018461223b565b969550505050505056fea2646970667358221220f9f6f636ffc0a8e99b1110d293380e60b7e253d7d629047978c454186d31e20364736f6c63430008140033",
					"opcodes": "PUSH2 0x180 PUSH1 0x40 MSTORE PUSH2 0xDEAD PUSH20 0xFFFFFFFFFFFFFFFFFFFFFFFFFFFFFFFFFFFFFFFF AND PUSH2 0x120 SWAP1 PUSH20 0xFFFFFFFFFFFFFFFFFFFFFFFFFFFFFFFFFFFFFFFF AND DUP2 MSTORE POP PUSH1 0x0 PUSH20 0xFFFFFFFFFFFFFFFFFFFFFFFFFFFFFFFFFFFFFFFF AND PUSH2 0x140 SWAP1 PUSH20 0xFFFFFFFFFFFFFFFFFFFFFFFFFFFFFFFFFFFFFFFF AND DUP2 MSTORE POP PUSH2 0xBB8 PUSH3 0xFFFFFF AND PUSH2 0x160 SWAP1 PUSH3 0xFFFFFF AND DUP2 MSTORE POP CALLVALUE DUP1 ISZERO PUSH3 0x91 JUMPI PUSH1 0x0 DUP1 REVERT JUMPDEST POP PUSH1 0x40 MLOAD PUSH3 0x3933 CODESIZE SUB DUP1 PUSH3 0x3933 DUP4 CODECOPY DUP2 DUP2 ADD PUSH1 0x40 MSTORE DUP2 ADD SWAP1 PUSH3 0xB7 SWAP2 SWAP1 PUSH3 0x487 JUMP JUMPDEST DUP3 PUSH1 0x1 PUSH1 0x0 DUP2 SWAP1 SSTORE POP PUSH1 0x0 PUSH20 0xFFFFFFFFFFFFFFFFFFFFFFFFFFFFFFFFFFFFFFFF AND DUP2 PUSH20 0xFFFFFFFFFFFFFFFFFFFFFFFFFFFFFFFFFFFFFFFF AND SUB PUSH3 0x135 JUMPI PUSH1 0x0 PUSH1 0x40 MLOAD PUSH32 0x1E4FBDF700000000000000000000000000000000000000000000000000000000 DUP2 MSTORE PUSH1 0x4 ADD PUSH3 0x12C SWAP2 SWAP1 PUSH3 0x561 JUMP JUMPDEST PUSH1 0x40 MLOAD DUP1 SWAP2 SUB SWAP1 REVERT JUMPDEST PUSH3 0x146 DUP2 PUSH3 0x312 PUSH1 0x20 SHL PUSH1 0x20 SHR JUMP JUMPDEST POP DUP8 PUSH1 0x2 PUSH1 0x0 PUSH2 0x100 EXP DUP2 SLOAD DUP2 PUSH20 0xFFFFFFFFFFFFFFFFFFFFFFFFFFFFFFFFFFFFFFFF MUL NOT AND SWAP1 DUP4 PUSH20 0xFFFFFFFFFFFFFFFFFFFFFFFFFFFFFFFFFFFFFFFF AND MUL OR SWAP1 SSTORE POP DUP7 PUSH1 0x3 PUSH1 0x0 PUSH2 0x100 EXP DUP2 SLOAD DUP2 PUSH20 0xFFFFFFFFFFFFFFFFFFFFFFFFFFFFFFFFFFFFFFFF MUL NOT AND SWAP1 DUP4 PUSH20 0xFFFFFFFFFFFFFFFFFFFFFFFFFFFFFFFFFFFFFFFF AND MUL OR SWAP1 SSTORE POP DUP6 PUSH20 0xFFFFFFFFFFFFFFFFFFFFFFFFFFFFFFFFFFFFFFFF AND PUSH1 0xC0 DUP2 PUSH20 0xFFFFFFFFFFFFFFFFFFFFFFFFFFFFFFFFFFFFFFFF AND DUP2 MSTORE POP POP DUP5 PUSH20 0xFFFFFFFFFFFFFFFFFFFFFFFFFFFFFFFFFFFFFFFF AND PUSH1 0xE0 DUP2 PUSH20 0xFFFFFFFFFFFFFFFFFFFFFFFFFFFFFFFFFFFFFFFF AND DUP2 MSTORE POP POP DUP4 PUSH20 0xFFFFFFFFFFFFFFFFFFFFFFFFFFFFFFFFFFFFFFFF AND PUSH2 0x100 DUP2 PUSH20 0xFFFFFFFFFFFFFFFFFFFFFFFFFFFFFFFFFFFFFFFF AND DUP2 MSTORE POP POP DUP2 PUSH20 0xFFFFFFFFFFFFFFFFFFFFFFFFFFFFFFFFFFFFFFFF AND PUSH1 0x80 DUP2 PUSH20 0xFFFFFFFFFFFFFFFFFFFFFFFFFFFFFFFFFFFFFFFF AND DUP2 MSTORE POP POP DUP1 PUSH20 0xFFFFFFFFFFFFFFFFFFFFFFFFFFFFFFFFFFFFFFFF AND PUSH1 0xA0 DUP2 PUSH20 0xFFFFFFFFFFFFFFFFFFFFFFFFFFFFFFFFFFFFFFFF AND DUP2 MSTORE POP POP PUSH1 0x1 PUSH1 0x8 PUSH1 0x0 PUSH2 0x100 EXP DUP2 SLOAD DUP2 PUSH1 0xFF MUL NOT AND SWAP1 DUP4 ISZERO ISZERO MUL OR SWAP1 SSTORE POP PUSH1 0x1 PUSH1 0x8 PUSH1 0x1 PUSH2 0x100 EXP DUP2 SLOAD DUP2 PUSH1 0xFF MUL NOT AND SWAP1 DUP4 ISZERO ISZERO MUL OR SWAP1 SSTORE POP POP POP POP POP POP POP POP POP PUSH3 0x57E JUMP JUMPDEST PUSH1 0x0 PUSH1 0x1 PUSH1 0x0 SWAP1 SLOAD SWAP1 PUSH2 0x100 EXP SWAP1 DIV PUSH20 0xFFFFFFFFFFFFFFFFFFFFFFFFFFFFFFFFFFFFFFFF AND SWAP1 POP DUP2 PUSH1 0x1 PUSH1 0x0 PUSH2 0x100 EXP DUP2 SLOAD DUP2 PUSH20 0xFFFFFFFFFFFFFFFFFFFFFFFFFFFFFFFFFFFFFFFF MUL NOT AND SWAP1 DUP4 PUSH20 0xFFFFFFFFFFFFFFFFFFFFFFFFFFFFFFFFFFFFFFFF AND MUL OR SWAP1 SSTORE POP DUP2 PUSH20 0xFFFFFFFFFFFFFFFFFFFFFFFFFFFFFFFFFFFFFFFF AND DUP2 PUSH20 0xFFFFFFFFFFFFFFFFFFFFFFFFFFFFFFFFFFFFFFFF AND PUSH32 0x8BE0079C531659141344CD1FD0A4F28419497F9722A3DAAFE3B4186F6B6457E0 PUSH1 0x40 MLOAD PUSH1 0x40 MLOAD DUP1 SWAP2 SUB SWAP1 LOG3 POP POP JUMP JUMPDEST PUSH1 0x0 DUP1 REVERT JUMPDEST PUSH1 0x0 PUSH20 0xFFFFFFFFFFFFFFFFFFFFFFFFFFFFFFFFFFFFFFFF DUP3 AND SWAP1 POP SWAP2 SWAP1 POP JUMP JUMPDEST PUSH1 0x0 PUSH3 0x40A DUP3 PUSH3 0x3DD JUMP JUMPDEST SWAP1 POP SWAP2 SWAP1 POP JUMP JUMPDEST PUSH3 0x41C DUP2 PUSH3 0x3FD JUMP JUMPDEST DUP2 EQ PUSH3 0x428 JUMPI PUSH1 0x0 DUP1 REVERT JUMPDEST POP JUMP JUMPDEST PUSH1 0x0 DUP2 MLOAD SWAP1 POP PUSH3 0x43C DUP2 PUSH3 0x411 JUMP JUMPDEST SWAP3 SWAP2 POP POP JUMP JUMPDEST PUSH1 0x0 PUSH3 0x44F DUP3 PUSH3 0x3DD JUMP JUMPDEST SWAP1 POP SWAP2 SWAP1 POP JUMP JUMPDEST PUSH3 0x461 DUP2 PUSH3 0x442 JUMP JUMPDEST DUP2 EQ PUSH3 0x46D JUMPI PUSH1 0x0 DUP1 REVERT JUMPDEST POP JUMP JUMPDEST PUSH1 0x0 DUP2 MLOAD SWAP1 POP PUSH3 0x481 DUP2 PUSH3 0x456 JUMP JUMPDEST SWAP3 SWAP2 POP POP JUMP JUMPDEST PUSH1 0x0 DUP1 PUSH1 0x0 DUP1 PUSH1 0x0 DUP1 PUSH1 0x0 DUP1 PUSH2 0x100 DUP10 DUP12 SUB SLT ISZERO PUSH3 0x4AB JUMPI PUSH3 0x4AA PUSH3 0x3D8 JUMP JUMPDEST JUMPDEST PUSH1 0x0 PUSH3 0x4BB DUP12 DUP3 DUP13 ADD PUSH3 0x42B JUMP JUMPDEST SWAP9 POP POP PUSH1 0x20 PUSH3 0x4CE DUP12 DUP3 DUP13 ADD PUSH3 0x42B JUMP JUMPDEST SWAP8 POP POP PUSH1 0x40 PUSH3 0x4E1 DUP12 DUP3 DUP13 ADD PUSH3 0x42B JUMP JUMPDEST SWAP7 POP POP PUSH1 0x60 PUSH3 0x4F4 DUP12 DUP3 DUP13 ADD PUSH3 0x42B JUMP JUMPDEST SWAP6 POP POP PUSH1 0x80 PUSH3 0x507 DUP12 DUP3 DUP13 ADD PUSH3 0x42B JUMP JUMPDEST SWAP5 POP POP PUSH1 0xA0 PUSH3 0x51A DUP12 DUP3 DUP13 ADD PUSH3 0x42B JUMP JUMPDEST SWAP4 POP POP PUSH1 0xC0 PUSH3 0x52D DUP12 DUP3 DUP13 ADD PUSH3 0x470 JUMP JUMPDEST SWAP3 POP POP PUSH1 0xE0 PUSH3 0x540 DUP12 DUP3 DUP13 ADD PUSH3 0x470 JUMP JUMPDEST SWAP2 POP POP SWAP3 SWAP6 SWAP9 POP SWAP3 SWAP6 SWAP9 SWAP1 SWAP4 SWAP7 POP JUMP JUMPDEST PUSH3 0x55B DUP2 PUSH3 0x3FD JUMP JUMPDEST DUP3 MSTORE POP POP JUMP JUMPDEST PUSH1 0x0 PUSH1 0x20 DUP3 ADD SWAP1 POP PUSH3 0x578 PUSH1 0x0 DUP4 ADD DUP5 PUSH3 0x550 JUMP JUMPDEST SWAP3 SWAP2 POP POP JUMP JUMPDEST PUSH1 0x80 MLOAD PUSH1 0xA0 MLOAD PUSH1 0xC0 MLOAD PUSH1 0xE0 MLOAD PUSH2 0x100 MLOAD PUSH2 0x120 MLOAD PUSH2 0x140 MLOAD PUSH2 0x160 MLOAD PUSH2 0x32DF PUSH3 0x654 PUSH1 0x0 CODECOPY PUSH1 0x0 PUSH2 0x1957 ADD MSTORE PUSH1 0x0 DUP2 DUP2 PUSH2 0x1837 ADD MSTORE PUSH2 0x1E1F ADD MSTORE PUSH1 0x0 DUP2 DUP2 PUSH2 0xB88 ADD MSTORE PUSH2 0x19BF ADD MSTORE PUSH1 0x0 DUP2 DUP2 PUSH2 0x1A7 ADD MSTORE DUP2 DUP2 PUSH2 0x206 ADD MSTORE DUP2 DUP2 PUSH2 0x6A9 ADD MSTORE DUP2 DUP2 PUSH2 0x72D ADD MSTORE DUP2 DUP2 PUSH2 0xC70 ADD MSTORE DUP2 DUP2 PUSH2 0x11BB ADD MSTORE DUP2 DUP2 PUSH2 0x1418 ADD MSTORE DUP2 DUP2 PUSH2 0x1866 ADD MSTORE DUP2 DUP2 PUSH2 0x1936 ADD MSTORE DUP2 DUP2 PUSH2 0x1B53 ADD MSTORE PUSH2 0x1D17 ADD MSTORE PUSH1 0x0 DUP2 DUP2 PUSH2 0x969 ADD MSTORE PUSH2 0x1BC2 ADD MSTORE PUSH1 0x0 DUP2 DUP2 PUSH2 0x98D ADD MSTORE PUSH2 0x1978 ADD MSTORE PUSH1 0x0 DUP2 DUP2 PUSH2 0xC28 ADD MSTORE PUSH2 0x1594 ADD MSTORE PUSH1 0x0 DUP2 DUP2 PUSH2 0xC4C ADD MSTORE PUSH2 0x14B1 ADD MSTORE PUSH2 0x32DF PUSH1 0x0 RETURN INVALID PUSH1 0x80 PUSH1 0x40 MSTORE PUSH1 0x4 CALLDATASIZE LT PUSH2 0x1A0 JUMPI PUSH1 0x0 CALLDATALOAD PUSH1 0xE0 SHR DUP1 PUSH4 0x715018A6 GT PUSH2 0xEC JUMPI DUP1 PUSH4 0xB37FD190 GT PUSH2 0x8A JUMPI DUP1 PUSH4 0xDC05A309 GT PUSH2 0x64 JUMPI DUP1 PUSH4 0xDC05A309 EQ PUSH2 0x61C JUMPI DUP1 PUSH4 0xDC1A4D9E EQ PUSH2 0x633 JUMPI DUP1 PUSH4 0xF2FDE38B EQ PUSH2 0x64A JUMPI DUP1 PUSH4 0xFCCC2813 EQ PUSH2 0x673 JUMPI PUSH2 0x204 JUMP JUMPDEST DUP1 PUSH4 0xB37FD190 EQ PUSH2 0x5B1 JUMPI DUP1 PUSH4 0xBA779ED5 EQ PUSH2 0x5DA JUMPI DUP1 PUSH4 0xCFBB7D36 EQ PUSH2 0x605 JUMPI PUSH2 0x204 JUMP JUMPDEST DUP1 PUSH4 0x8465093E GT PUSH2 0xC6 JUMPI DUP1 PUSH4 0x8465093E EQ PUSH2 0x509 JUMPI DUP1 PUSH4 0x89E85217 EQ PUSH2 0x532 JUMPI DUP1 PUSH4 0x8DA5CB5B EQ PUSH2 0x55D JUMPI DUP1 PUSH4 0xA0558C3F EQ PUSH2 0x588 JUMPI PUSH2 0x204 JUMP JUMPDEST DUP1 PUSH4 0x715018A6 EQ PUSH2 0x49C JUMPI DUP1 PUSH4 0x7499AFF4 EQ PUSH2 0x4B3 JUMPI DUP1 PUSH4 0x7581AA60 EQ PUSH2 0x4DE JUMPI PUSH2 0x204 JUMP JUMPDEST DUP1 PUSH4 0x3F0C188F GT PUSH2 0x159 JUMPI DUP1 PUSH4 0x59927044 GT PUSH2 0x133 JUMPI DUP1 PUSH4 0x59927044 EQ PUSH2 0x3F2 JUMPI DUP1 PUSH4 0x62AB05E7 EQ PUSH2 0x41D JUMPI DUP1 PUSH4 0x66650B7B EQ PUSH2 0x448 JUMPI DUP1 PUSH4 0x6CDF0E40 EQ PUSH2 0x473 JUMPI PUSH2 0x204 JUMP JUMPDEST DUP1 PUSH4 0x3F0C188F EQ PUSH2 0x373 JUMPI DUP1 PUSH4 0x4E6FD6C4 EQ PUSH2 0x3B0 JUMPI DUP1 PUSH4 0x57D1FDCD EQ PUSH2 0x3DB JUMPI PUSH2 0x204 JUMP JUMPDEST DUP1 PUSH4 0xC2B72E9 EQ PUSH2 0x263 JUMPI DUP1 PUSH4 0xEFD0973 EQ PUSH2 0x28E JUMPI DUP1 PUSH4 0x138B7338 EQ PUSH2 0x2B9 JUMPI DUP1 PUSH4 0x210009CF EQ PUSH2 0x2F6 JUMPI DUP1 PUSH4 0x2B7459B9 EQ PUSH2 0x31F JUMPI DUP1 PUSH4 0x3D65DE44 EQ PUSH2 0x348 JUMPI PUSH2 0x204 JUMP JUMPDEST CALLDATASIZE PUSH2 0x204 JUMPI PUSH32 0x0 PUSH20 0xFFFFFFFFFFFFFFFFFFFFFFFFFFFFFFFFFFFFFFFF AND CALLER PUSH20 0xFFFFFFFFFFFFFFFFFFFFFFFFFFFFFFFFFFFFFFFF AND EQ PUSH2 0x202 JUMPI PUSH2 0x201 CALLVALUE PUSH2 0x69E JUMP JUMPDEST JUMPDEST STOP JUMPDEST PUSH32 0x0 PUSH20 0xFFFFFFFFFFFFFFFFFFFFFFFFFFFFFFFFFFFFFFFF AND CALLER PUSH20 0xFFFFFFFFFFFFFFFFFFFFFFFFFFFFFFFFFFFFFFFF AND EQ PUSH2 0x261 JUMPI PUSH2 0x260 CALLVALUE PUSH2 0x69E JUMP JUMPDEST JUMPDEST STOP JUMPDEST CALLVALUE DUP1 ISZERO PUSH2 0x26F JUMPI PUSH1 0x0 DUP1 REVERT JUMPDEST POP PUSH2 0x278 PUSH2 0x967 JUMP JUMPDEST PUSH1 0x40 MLOAD PUSH2 0x285 SWAP2 SWAP1 PUSH2 0x211A JUMP JUMPDEST PUSH1 0x40 MLOAD DUP1 SWAP2 SUB SWAP1 RETURN JUMPDEST CALLVALUE DUP1 ISZERO PUSH2 0x29A JUMPI PUSH1 0x0 DUP1 REVERT JUMPDEST POP PUSH2 0x2A3 PUSH2 0x98B JUMP JUMPDEST PUSH1 0x40 MLOAD PUSH2 0x2B0 SWAP2 SWAP1 PUSH2 0x211A JUMP JUMPDEST PUSH1 0x40 MLOAD DUP1 SWAP2 SUB SWAP1 RETURN JUMPDEST CALLVALUE DUP1 ISZERO PUSH2 0x2C5 JUMPI PUSH1 0x0 DUP1 REVERT JUMPDEST POP PUSH2 0x2E0 PUSH1 0x4 DUP1 CALLDATASIZE SUB DUP2 ADD SWAP1 PUSH2 0x2DB SWAP2 SWAP1 PUSH2 0x2175 JUMP JUMPDEST PUSH2 0x9AF JUMP JUMPDEST PUSH1 0x40 MLOAD PUSH2 0x2ED SWAP2 SWAP1 PUSH2 0x21BD JUMP JUMPDEST PUSH1 0x40 MLOAD DUP1 SWAP2 SUB SWAP1 RETURN JUMPDEST CALLVALUE DUP1 ISZERO PUSH2 0x302 JUMPI PUSH1 0x0 DUP1 REVERT JUMPDEST POP PUSH2 0x31D PUSH1 0x4 DUP1 CALLDATASIZE SUB DUP2 ADD SWAP1 PUSH2 0x318 SWAP2 SWAP1 PUSH2 0x2175 JUMP JUMPDEST PUSH2 0xA05 JUMP JUMPDEST STOP JUMPDEST CALLVALUE DUP1 ISZERO PUSH2 0x32B JUMPI PUSH1 0x0 DUP1 REVERT JUMPDEST POP PUSH2 0x346 PUSH1 0x4 DUP1 CALLDATASIZE SUB DUP2 ADD SWAP1 PUSH2 0x341 SWAP2 SWAP1 PUSH2 0x2204 JUMP JUMPDEST PUSH2 0xB2B JUMP JUMPDEST STOP JUMPDEST CALLVALUE DUP1 ISZERO PUSH2 0x354 JUMPI PUSH1 0x0 DUP1 REVERT JUMPDEST POP PUSH2 0x35D PUSH2 0xB60 JUMP JUMPDEST PUSH1 0x40 MLOAD PUSH2 0x36A SWAP2 SWAP1 PUSH2 0x224A JUMP JUMPDEST PUSH1 0x40 MLOAD DUP1 SWAP2 SUB SWAP1 RETURN JUMPDEST CALLVALUE DUP1 ISZERO PUSH2 0x37F JUMPI PUSH1 0x0 DUP1 REVERT JUMPDEST POP PUSH2 0x39A PUSH1 0x4 DUP1 CALLDATASIZE SUB DUP2 ADD SWAP1 PUSH2 0x395 SWAP2 SWAP1 PUSH2 0x2175 JUMP JUMPDEST PUSH2 0xB66 JUMP JUMPDEST PUSH1 0x40 MLOAD PUSH2 0x3A7 SWAP2 SWAP1 PUSH2 0x21BD JUMP JUMPDEST PUSH1 0x40 MLOAD DUP1 SWAP2 SUB SWAP1 RETURN JUMPDEST CALLVALUE DUP1 ISZERO PUSH2 0x3BC JUMPI PUSH1 0x0 DUP1 REVERT JUMPDEST POP PUSH2 0x3C5 PUSH2 0xB86 JUMP JUMPDEST PUSH1 0x40 MLOAD PUSH2 0x3D2 SWAP2 SWAP1 PUSH2 0x211A JUMP JUMPDEST PUSH1 0x40 MLOAD DUP1 SWAP2 SUB SWAP1 RETURN JUMPDEST CALLVALUE DUP1 ISZERO PUSH2 0x3E7 JUMPI PUSH1 0x0 DUP1 REVERT JUMPDEST POP PUSH2 0x3F0 PUSH2 0xBAA JUMP JUMPDEST STOP JUMPDEST CALLVALUE DUP1 ISZERO PUSH2 0x3FE JUMPI PUSH1 0x0 DUP1 REVERT JUMPDEST POP PUSH2 0x407 PUSH2 0xC26 JUMP JUMPDEST PUSH1 0x40 MLOAD PUSH2 0x414 SWAP2 SWAP1 PUSH2 0x2286 JUMP JUMPDEST PUSH1 0x40 MLOAD DUP1 SWAP2 SUB SWAP1 RETURN JUMPDEST CALLVALUE DUP1 ISZERO PUSH2 0x429 JUMPI PUSH1 0x0 DUP1 REVERT JUMPDEST POP PUSH2 0x432 PUSH2 0xC4A JUMP JUMPDEST PUSH1 0x40 MLOAD PUSH2 0x43F SWAP2 SWAP1 PUSH2 0x2286 JUMP JUMPDEST PUSH1 0x40 MLOAD DUP1 SWAP2 SUB SWAP1 RETURN JUMPDEST CALLVALUE DUP1 ISZERO PUSH2 0x454 JUMPI PUSH1 0x0 DUP1 REVERT JUMPDEST POP PUSH2 0x45D PUSH2 0xC6E JUMP JUMPDEST PUSH1 0x40 MLOAD PUSH2 0x46A SWAP2 SWAP1 PUSH2 0x211A JUMP JUMPDEST PUSH1 0x40 MLOAD DUP1 SWAP2 SUB SWAP1 RETURN JUMPDEST CALLVALUE DUP1 ISZERO PUSH2 0x47F JUMPI PUSH1 0x0 DUP1 REVERT JUMPDEST POP PUSH2 0x49A PUSH1 0x4 DUP1 CALLDATASIZE SUB DUP2 ADD SWAP1 PUSH2 0x495 SWAP2 SWAP1 PUSH2 0x2204 JUMP JUMPDEST PUSH2 0xC92 JUMP JUMPDEST STOP JUMPDEST CALLVALUE DUP1 ISZERO PUSH2 0x4A8 JUMPI PUSH1 0x0 DUP1 REVERT JUMPDEST POP PUSH2 0x4B1 PUSH2 0xCC7 JUMP JUMPDEST STOP JUMPDEST CALLVALUE DUP1 ISZERO PUSH2 0x4BF JUMPI PUSH1 0x0 DUP1 REVERT JUMPDEST POP PUSH2 0x4C8 PUSH2 0xCDB JUMP JUMPDEST PUSH1 0x40 MLOAD PUSH2 0x4D5 SWAP2 SWAP1 PUSH2 0x224A JUMP JUMPDEST PUSH1 0x40 MLOAD DUP1 SWAP2 SUB SWAP1 RETURN JUMPDEST CALLVALUE DUP1 ISZERO PUSH2 0x4EA JUMPI PUSH1 0x0 DUP1 REVERT JUMPDEST POP PUSH2 0x4F3 PUSH2 0xCE1 JUMP JUMPDEST PUSH1 0x40 MLOAD PUSH2 0x500 SWAP2 SWAP1 PUSH2 0x21BD JUMP JUMPDEST PUSH1 0x40 MLOAD DUP1 SWAP2 SUB SWAP1 RETURN JUMPDEST CALLVALUE DUP1 ISZERO PUSH2 0x515 JUMPI PUSH1 0x0 DUP1 REVERT JUMPDEST POP PUSH2 0x530 PUSH1 0x4 DUP1 CALLDATASIZE SUB DUP2 ADD SWAP1 PUSH2 0x52B SWAP2 SWAP1 PUSH2 0x2175 JUMP JUMPDEST PUSH2 0xCF4 JUMP JUMPDEST STOP JUMPDEST CALLVALUE DUP1 ISZERO PUSH2 0x53E JUMPI PUSH1 0x0 DUP1 REVERT JUMPDEST POP PUSH2 0x547 PUSH2 0xE8A JUMP JUMPDEST PUSH1 0x40 MLOAD PUSH2 0x554 SWAP2 SWAP1 PUSH2 0x224A JUMP JUMPDEST PUSH1 0x40 MLOAD DUP1 SWAP2 SUB SWAP1 RETURN JUMPDEST CALLVALUE DUP1 ISZERO PUSH2 0x569 JUMPI PUSH1 0x0 DUP1 REVERT JUMPDEST POP PUSH2 0x572 PUSH2 0xE90 JUMP JUMPDEST PUSH1 0x40 MLOAD PUSH2 0x57F SWAP2 SWAP1 PUSH2 0x211A JUMP JUMPDEST PUSH1 0x40 MLOAD DUP1 SWAP2 SUB SWAP1 RETURN JUMPDEST CALLVALUE DUP1 ISZERO PUSH2 0x594 JUMPI PUSH1 0x0 DUP1 REVERT JUMPDEST POP PUSH2 0x5AF PUSH1 0x4 DUP1 CALLDATASIZE SUB DUP2 ADD SWAP1 PUSH2 0x5AA SWAP2 SWAP1 PUSH2 0x22F9 JUMP JUMPDEST PUSH2 0xEBA JUMP JUMPDEST STOP JUMPDEST CALLVALUE DUP1 ISZERO PUSH2 0x5BD JUMPI PUSH1 0x0 DUP1 REVERT JUMPDEST POP PUSH2 0x5D8 PUSH1 0x4 DUP1 CALLDATASIZE SUB DUP2 ADD SWAP1 PUSH2 0x5D3 SWAP2 SWAP1 PUSH2 0x2339 JUMP JUMPDEST PUSH2 0x1074 JUMP JUMPDEST STOP JUMPDEST CALLVALUE DUP1 ISZERO PUSH2 0x5E6 JUMPI PUSH1 0x0 DUP1 REVERT JUMPDEST POP PUSH2 0x5EF PUSH2 0x13CC JUMP JUMPDEST PUSH1 0x40 MLOAD PUSH2 0x5FC SWAP2 SWAP1 PUSH2 0x21BD JUMP JUMPDEST PUSH1 0x40 MLOAD DUP1 SWAP2 SUB SWAP1 RETURN JUMPDEST CALLVALUE DUP1 ISZERO PUSH2 0x611 JUMPI PUSH1 0x0 DUP1 REVERT JUMPDEST POP PUSH2 0x61A PUSH2 0x13DF JUMP JUMPDEST STOP JUMPDEST CALLVALUE DUP1 ISZERO PUSH2 0x628 JUMPI PUSH1 0x0 DUP1 REVERT JUMPDEST POP PUSH2 0x631 PUSH2 0x1673 JUMP JUMPDEST STOP JUMPDEST CALLVALUE DUP1 ISZERO PUSH2 0x63F JUMPI PUSH1 0x0 DUP1 REVERT JUMPDEST POP PUSH2 0x648 PUSH2 0x1748 JUMP JUMPDEST STOP JUMPDEST CALLVALUE DUP1 ISZERO PUSH2 0x656 JUMPI PUSH1 0x0 DUP1 REVERT JUMPDEST POP PUSH2 0x671 PUSH1 0x4 DUP1 CALLDATASIZE SUB DUP2 ADD SWAP1 PUSH2 0x66C SWAP2 SWAP1 PUSH2 0x2175 JUMP JUMPDEST PUSH2 0x17AF JUMP JUMPDEST STOP JUMPDEST CALLVALUE DUP1 ISZERO PUSH2 0x67F JUMPI PUSH1 0x0 DUP1 REVERT JUMPDEST POP PUSH2 0x688 PUSH2 0x1835 JUMP JUMPDEST PUSH1 0x40 MLOAD PUSH2 0x695 SWAP2 SWAP1 PUSH2 0x211A JUMP JUMPDEST PUSH1 0x40 MLOAD DUP1 SWAP2 SUB SWAP1 RETURN JUMPDEST PUSH1 0x0 DUP2 GT ISZERO PUSH2 0x729 JUMPI PUSH32 0x0 PUSH20 0xFFFFFFFFFFFFFFFFFFFFFFFFFFFFFFFFFFFFFFFF AND PUSH4 0xD0E30DB0 DUP3 PUSH1 0x40 MLOAD DUP3 PUSH4 0xFFFFFFFF AND PUSH1 0xE0 SHL DUP2 MSTORE PUSH1 0x4 ADD PUSH1 0x0 PUSH1 0x40 MLOAD DUP1 DUP4 SUB DUP2 DUP6 DUP9 DUP1 EXTCODESIZE ISZERO DUP1 ISZERO PUSH2 0x70F JUMPI PUSH1 0x0 DUP1 REVERT JUMPDEST POP GAS CALL ISZERO DUP1 ISZERO PUSH2 0x723 JUMPI RETURNDATASIZE PUSH1 0x0 DUP1 RETURNDATACOPY RETURNDATASIZE PUSH1 0x0 REVERT JUMPDEST POP POP POP POP POP JUMPDEST PUSH1 0x0 PUSH32 0x0 PUSH20 0xFFFFFFFFFFFFFFFFFFFFFFFFFFFFFFFFFFFFFFFF AND PUSH4 0x70A08231 ADDRESS PUSH1 0x40 MLOAD DUP3 PUSH4 0xFFFFFFFF AND PUSH1 0xE0 SHL DUP2 MSTORE PUSH1 0x4 ADD PUSH2 0x784 SWAP2 SWAP1 PUSH2 0x211A JUMP JUMPDEST PUSH1 0x20 PUSH1 0x40 MLOAD DUP1 DUP4 SUB DUP2 DUP7 GAS STATICCALL ISZERO DUP1 ISZERO PUSH2 0x7A1 JUMPI RETURNDATASIZE PUSH1 0x0 DUP1 RETURNDATACOPY RETURNDATASIZE PUSH1 0x0 REVERT JUMPDEST POP POP POP POP PUSH1 0x40 MLOAD RETURNDATASIZE PUSH1 0x1F NOT PUSH1 0x1F DUP3 ADD AND DUP3 ADD DUP1 PUSH1 0x40 MSTORE POP DUP2 ADD SWAP1 PUSH2 0x7C5 SWAP2 SWAP1 PUSH2 0x23A1 JUMP JUMPDEST SWAP1 POP PUSH1 0x0 PUSH1 0x5 SLOAD PUSH1 0x7 SLOAD PUSH1 0x6 SLOAD PUSH2 0x7DC SWAP2 SWAP1 PUSH2 0x23FD JUMP JUMPDEST PUSH2 0x7E6 SWAP2 SWAP1 PUSH2 0x23FD JUMP JUMPDEST SWAP1 POP DUP1 DUP3 LT ISZERO PUSH2 0x82B JUMPI PUSH1 0x40 MLOAD PUSH32 0x8C379A000000000000000000000000000000000000000000000000000000000 DUP2 MSTORE PUSH1 0x4 ADD PUSH2 0x822 SWAP1 PUSH2 0x248E JUMP JUMPDEST PUSH1 0x40 MLOAD DUP1 SWAP2 SUB SWAP1 REVERT JUMPDEST PUSH1 0x0 DUP2 DUP4 PUSH2 0x839 SWAP2 SWAP1 PUSH2 0x24AE JUMP JUMPDEST SWAP1 POP PUSH1 0x0 DUP2 GT ISZERO PUSH2 0x961 JUMPI PUSH1 0x0 PUSH1 0x64 PUSH1 0x3C DUP4 PUSH2 0x855 SWAP2 SWAP1 PUSH2 0x24E2 JUMP JUMPDEST PUSH2 0x85F SWAP2 SWAP1 PUSH2 0x2553 JUMP JUMPDEST SWAP1 POP PUSH1 0x0 PUSH1 0x64 PUSH1 0xA DUP5 PUSH2 0x872 SWAP2 SWAP1 PUSH2 0x24E2 JUMP JUMPDEST PUSH2 0x87C SWAP2 SWAP1 PUSH2 0x2553 JUMP JUMPDEST SWAP1 POP PUSH1 0x0 DUP2 DUP4 DUP6 PUSH2 0x88D SWAP2 SWAP1 PUSH2 0x24AE JUMP JUMPDEST PUSH2 0x897 SWAP2 SWAP1 PUSH2 0x24AE JUMP JUMPDEST SWAP1 POP DUP3 PUSH1 0x6 PUSH1 0x0 DUP3 DUP3 SLOAD PUSH2 0x8AB SWAP2 SWAP1 PUSH2 0x23FD JUMP JUMPDEST SWAP3 POP POP DUP2 SWAP1 SSTORE POP DUP1 PUSH1 0x7 PUSH1 0x0 DUP3 DUP3 SLOAD PUSH2 0x8C4 SWAP2 SWAP1 PUSH2 0x23FD JUMP JUMPDEST SWAP3 POP POP DUP2 SWAP1 SSTORE POP DUP2 PUSH1 0x5 PUSH1 0x0 DUP3 DUP3 SLOAD PUSH2 0x8DD SWAP2 SWAP1 PUSH2 0x23FD JUMP JUMPDEST SWAP3 POP POP DUP2 SWAP1 SSTORE POP PUSH32 0x4816DB49BFC91A0172699BAEDF430E5D308B8034F966FB25681B27C17BCD3A47 DUP5 DUP5 DUP4 DUP6 PUSH1 0x40 MLOAD PUSH2 0x919 SWAP5 SWAP4 SWAP3 SWAP2 SWAP1 PUSH2 0x2584 JUMP JUMPDEST PUSH1 0x40 MLOAD DUP1 SWAP2 SUB SWAP1 LOG1 PUSH1 0x8 PUSH1 0x0 SWAP1 SLOAD SWAP1 PUSH2 0x100 EXP SWAP1 DIV PUSH1 0xFF AND ISZERO PUSH2 0x93F JUMPI PUSH2 0x93E PUSH2 0x1859 JUMP JUMPDEST JUMPDEST PUSH1 0x8 PUSH1 0x1 SWAP1 SLOAD SWAP1 PUSH2 0x100 EXP SWAP1 DIV PUSH1 0xFF AND ISZERO PUSH2 0x95D JUMPI PUSH2 0x95C PUSH2 0x1AF8 JUMP JUMPDEST JUMPDEST POP POP POP JUMPDEST POP POP POP POP JUMP JUMPDEST PUSH32 0x0 DUP2 JUMP JUMPDEST PUSH32 0x0 DUP2 JUMP JUMPDEST PUSH1 0x0 PUSH1 0x4 PUSH1 0x0 DUP4 PUSH20 0xFFFFFFFFFFFFFFFFFFFFFFFFFFFFFFFFFFFFFFFF AND PUSH20 0xFFFFFFFFFFFFFFFFFFFFFFFFFFFFFFFFFFFFFFFF AND DUP2 MSTORE PUSH1 0x20 ADD SWAP1 DUP2 MSTORE PUSH1 0x20 ADD PUSH1 0x0 KECCAK256 PUSH1 0x0 SWAP1 SLOAD SWAP1 PUSH2 0x100 EXP SWAP1 DIV PUSH1 0xFF AND SWAP1 POP SWAP2 SWAP1 POP JUMP JUMPDEST PUSH2 0xA0D PUSH2 0x1F34 JUMP JUMPDEST PUSH1 0x4 PUSH1 0x0 DUP3 PUSH20 0xFFFFFFFFFFFFFFFFFFFFFFFFFFFFFFFFFFFFFFFF AND PUSH20 0xFFFFFFFFFFFFFFFFFFFFFFFFFFFFFFFFFFFFFFFF AND DUP2 MSTORE PUSH1 0x20 ADD SWAP1 DUP2 MSTORE PUSH1 0x20 ADD PUSH1 0x0 KECCAK256 PUSH1 0x0 SWAP1 SLOAD SWAP1 PUSH2 0x100 EXP SWAP1 DIV PUSH1 0xFF AND PUSH2 0xA99 JUMPI PUSH1 0x40 MLOAD PUSH32 0x8C379A000000000000000000000000000000000000000000000000000000000 DUP2 MSTORE PUSH1 0x4 ADD PUSH2 0xA90 SWAP1 PUSH2 0x2615 JUMP JUMPDEST PUSH1 0x40 MLOAD DUP1 SWAP2 SUB SWAP1 REVERT JUMPDEST PUSH1 0x0 PUSH1 0x4 PUSH1 0x0 DUP4 PUSH20 0xFFFFFFFFFFFFFFFFFFFFFFFFFFFFFFFFFFFFFFFF AND PUSH20 0xFFFFFFFFFFFFFFFFFFFFFFFFFFFFFFFFFFFFFFFF AND DUP2 MSTORE PUSH1 0x20 ADD SWAP1 DUP2 MSTORE PUSH1 0x20 ADD PUSH1 0x0 KECCAK256 PUSH1 0x0 PUSH2 0x100 EXP DUP2 SLOAD DUP2 PUSH1 0xFF MUL NOT AND SWAP1 DUP4 ISZERO ISZERO MUL OR SWAP1 SSTORE POP PUSH32 0xD9EA38E99B87231F31B9DA68DE3C78D56418E10E2E64D338C9F438AB75681EBC DUP2 PUSH1 0x40 MLOAD PUSH2 0xB20 SWAP2 SWAP1 PUSH2 0x211A JUMP JUMPDEST PUSH1 0x40 MLOAD DUP1 SWAP2 SUB SWAP1 LOG1 POP JUMP JUMPDEST PUSH2 0xB33 PUSH2 0x1F34 JUMP JUMPDEST PUSH2 0xB3B PUSH2 0x1FBB JUMP JUMPDEST DUP1 PUSH1 0x8 PUSH1 0x0 PUSH2 0x100 EXP DUP2 SLOAD DUP2 PUSH1 0xFF MUL NOT AND SWAP1 DUP4 ISZERO ISZERO MUL OR SWAP1 SSTORE POP PUSH2 0xB5D PUSH2 0x2001 JUMP JUMPDEST POP JUMP JUMPDEST PUSH1 0x5 SLOAD DUP2 JUMP JUMPDEST PUSH1 0x4 PUSH1 0x20 MSTORE DUP1 PUSH1 0x0 MSTORE PUSH1 0x40 PUSH1 0x0 KECCAK256 PUSH1 0x0 SWAP2 POP SLOAD SWAP1 PUSH2 0x100 EXP SWAP1 DIV PUSH1 0xFF AND DUP2 JUMP JUMPDEST PUSH32 0x0 DUP2 JUMP JUMPDEST PUSH2 0xBB2 PUSH2 0x1F34 JUMP JUMPDEST PUSH2 0xBBA PUSH2 0x1FBB JUMP JUMPDEST PUSH1 0x0 PUSH1 0x5 SLOAD GT DUP1 PUSH2 0xBCD JUMPI POP PUSH1 0x0 PUSH1 0x6 SLOAD GT JUMPDEST PUSH2 0xC0C JUMPI PUSH1 0x40 MLOAD PUSH32 0x8C379A000000000000000000000000000000000000000000000000000000000 DUP2 MSTORE PUSH1 0x4 ADD PUSH2 0xC03 SWAP1 PUSH2 0x2681 JUMP JUMPDEST PUSH1 0x40 MLOAD DUP1 SWAP2 SUB SWAP1 REVERT JUMPDEST PUSH2 0xC14 PUSH2 0x1859 JUMP JUMPDEST PUSH2 0xC1C PUSH2 0x1AF8 JUMP JUMPDEST PUSH2 0xC24 PUSH2 0x2001 JUMP JUMPDEST JUMP JUMPDEST PUSH32 0x0 DUP2 JUMP JUMPDEST PUSH32 0x0 DUP2 JUMP JUMPDEST PUSH32 0x0 DUP2 JUMP JUMPDEST PUSH2 0xC9A PUSH2 0x1F34 JUMP JUMPDEST PUSH2 0xCA2 PUSH2 0x1FBB JUMP JUMPDEST DUP1 PUSH1 0x8 PUSH1 0x1 PUSH2 0x100 EXP DUP2 SLOAD DUP2 PUSH1 0xFF MUL NOT AND SWAP1 DUP4 ISZERO ISZERO MUL OR SWAP1 SSTORE POP PUSH2 0xCC4 PUSH2 0x2001 JUMP JUMPDEST POP JUMP JUMPDEST PUSH2 0xCCF PUSH2 0x1F34 JUMP JUMPDEST PUSH2 0xCD9 PUSH1 0x0 PUSH2 0x200B JUMP JUMPDEST JUMP JUMPDEST PUSH1 0x6 SLOAD DUP2 JUMP JUMPDEST PUSH1 0x8 PUSH1 0x1 SWAP1 SLOAD SWAP1 PUSH2 0x100 EXP SWAP1 DIV PUSH1 0xFF AND DUP2 JUMP JUMPDEST PUSH2 0xCFC PUSH2 0x1F34 JUMP JUMPDEST PUSH1 0x0 PUSH20 0xFFFFFFFFFFFFFFFFFFFFFFFFFFFFFFFFFFFFFFFF AND DUP2 PUSH20 0xFFFFFFFFFFFFFFFFFFFFFFFFFFFFFFFFFFFFFFFF AND SUB PUSH2 0xD6B JUMPI PUSH1 0x40 MLOAD PUSH32 0x8C379A000000000000000000000000000000000000000000000000000000000 DUP2 MSTORE PUSH1 0x4 ADD PUSH2 0xD62 SWAP1 PUSH2 0x26ED JUMP JUMPDEST PUSH1 0x40 MLOAD DUP1 SWAP2 SUB SWAP1 REVERT JUMPDEST PUSH1 0x4 PUSH1 0x0 DUP3 PUSH20 0xFFFFFFFFFFFFFFFFFFFFFFFFFFFFFFFFFFFFFFFF AND PUSH20 0xFFFFFFFFFFFFFFFFFFFFFFFFFFFFFFFFFFFFFFFF AND DUP2 MSTORE PUSH1 0x20 ADD SWAP1 DUP2 MSTORE PUSH1 0x20 ADD PUSH1 0x0 KECCAK256 PUSH1 0x0 SWAP1 SLOAD SWAP1 PUSH2 0x100 EXP SWAP1 DIV PUSH1 0xFF AND ISZERO PUSH2 0xDF8 JUMPI PUSH1 0x40 MLOAD PUSH32 0x8C379A000000000000000000000000000000000000000000000000000000000 DUP2 MSTORE PUSH1 0x4 ADD PUSH2 0xDEF SWAP1 PUSH2 0x2759 JUMP JUMPDEST PUSH1 0x40 MLOAD DUP1 SWAP2 SUB SWAP1 REVERT JUMPDEST PUSH1 0x1 PUSH1 0x4 PUSH1 0x0 DUP4 PUSH20 0xFFFFFFFFFFFFFFFFFFFFFFFFFFFFFFFFFFFFFFFF AND PUSH20 0xFFFFFFFFFFFFFFFFFFFFFFFFFFFFFFFFFFFFFFFF AND DUP2 MSTORE PUSH1 0x20 ADD SWAP1 DUP2 MSTORE PUSH1 0x20 ADD PUSH1 0x0 KECCAK256 PUSH1 0x0 PUSH2 0x100 EXP DUP2 SLOAD DUP2 PUSH1 0xFF MUL NOT AND SWAP1 DUP4 ISZERO ISZERO MUL OR SWAP1 SSTORE POP PUSH32 0x797C25843E35D46F4254028734C97D60F3F93AACCC1DD994DD6B90683FDB2486 DUP2 PUSH1 0x40 MLOAD PUSH2 0xE7F SWAP2 SWAP1 PUSH2 0x211A JUMP JUMPDEST PUSH1 0x40 MLOAD DUP1 SWAP2 SUB SWAP1 LOG1 POP JUMP JUMPDEST PUSH1 0x7 SLOAD DUP2 JUMP JUMPDEST PUSH1 0x0 PUSH1 0x1 PUSH1 0x0 SWAP1 SLOAD SWAP1 PUSH2 0x100 EXP SWAP1 DIV PUSH20 0xFFFFFFFFFFFFFFFFFFFFFFFFFFFFFFFFFFFFFFFF AND SWAP1 POP SWAP1 JUMP JUMPDEST PUSH2 0xEC2 PUSH2 0x1F34 JUMP JUMPDEST PUSH2 0xECA PUSH2 0x1FBB JUMP JUMPDEST PUSH1 0x0 PUSH20 0xFFFFFFFFFFFFFFFFFFFFFFFFFFFFFFFFFFFFFFFF AND DUP2 PUSH20 0xFFFFFFFFFFFFFFFFFFFFFFFFFFFFFFFFFFFFFFFF AND SUB PUSH2 0xF39 JUMPI PUSH1 0x40 MLOAD PUSH32 0x8C379A000000000000000000000000000000000000000000000000000000000 DUP2 MSTORE PUSH1 0x4 ADD PUSH2 0xF30 SWAP1 PUSH2 0x27C5 JUMP JUMPDEST PUSH1 0x40 MLOAD DUP1 SWAP2 SUB SWAP1 REVERT JUMPDEST PUSH1 0x0 SELFBALANCE SWAP1 POP DUP1 DUP4 GT ISZERO PUSH2 0xF81 JUMPI PUSH1 0x40 MLOAD PUSH32 0x8C379A000000000000000000000000000000000000000000000000000000000 DUP2 MSTORE PUSH1 0x4 ADD PUSH2 0xF78 SWAP1 PUSH2 0x2831 JUMP JUMPDEST PUSH1 0x40 MLOAD DUP1 SWAP2 SUB SWAP1 REVERT JUMPDEST PUSH1 0x0 DUP3 PUSH20 0xFFFFFFFFFFFFFFFFFFFFFFFFFFFFFFFFFFFFFFFF AND DUP5 PUSH1 0x40 MLOAD PUSH2 0xFA7 SWAP1 PUSH2 0x2882 JUMP JUMPDEST PUSH1 0x0 PUSH1 0x40 MLOAD DUP1 DUP4 SUB DUP2 DUP6 DUP8 GAS CALL SWAP3 POP POP POP RETURNDATASIZE DUP1 PUSH1 0x0 DUP2 EQ PUSH2 0xFE4 JUMPI PUSH1 0x40 MLOAD SWAP2 POP PUSH1 0x1F NOT PUSH1 0x3F RETURNDATASIZE ADD AND DUP3 ADD PUSH1 0x40 MSTORE RETURNDATASIZE DUP3 MSTORE RETURNDATASIZE PUSH1 0x0 PUSH1 0x20 DUP5 ADD RETURNDATACOPY PUSH2 0xFE9 JUMP JUMPDEST PUSH1 0x60 SWAP2 POP JUMPDEST POP POP SWAP1 POP DUP1 PUSH2 0x102D JUMPI PUSH1 0x40 MLOAD PUSH32 0x8C379A000000000000000000000000000000000000000000000000000000000 DUP2 MSTORE PUSH1 0x4 ADD PUSH2 0x1024 SWAP1 PUSH2 0x28E3 JUMP JUMPDEST PUSH1 0x40 MLOAD DUP1 SWAP2 SUB SWAP1 REVERT JUMPDEST PUSH32 0xCD7FEF3A642DCF99CE1004B2A15D31E91398F01974500B64EAB8FC50FEF2D3B1 DUP5 DUP5 PUSH1 0x40 MLOAD PUSH2 0x105E SWAP3 SWAP2 SWAP1 PUSH2 0x2962 JUMP JUMPDEST PUSH1 0x40 MLOAD DUP1 SWAP2 SUB SWAP1 LOG1 POP POP PUSH2 0x1070 PUSH2 0x2001 JUMP JUMPDEST POP POP JUMP JUMPDEST PUSH2 0x107C PUSH2 0x1F34 JUMP JUMPDEST PUSH2 0x1084 PUSH2 0x1FBB JUMP JUMPDEST PUSH1 0x0 PUSH20 0xFFFFFFFFFFFFFFFFFFFFFFFFFFFFFFFFFFFFFFFF AND DUP2 PUSH20 0xFFFFFFFFFFFFFFFFFFFFFFFFFFFFFFFFFFFFFFFF AND SUB PUSH2 0x10F3 JUMPI PUSH1 0x40 MLOAD PUSH32 0x8C379A000000000000000000000000000000000000000000000000000000000 DUP2 MSTORE PUSH1 0x4 ADD PUSH2 0x10EA SWAP1 PUSH2 0x27C5 JUMP JUMPDEST PUSH1 0x40 MLOAD DUP1 SWAP2 SUB SWAP1 REVERT JUMPDEST PUSH1 0x0 DUP4 SWAP1 POP PUSH1 0x0 DUP2 PUSH20 0xFFFFFFFFFFFFFFFFFFFFFFFFFFFFFFFFFFFFFFFF AND PUSH4 0x70A08231 ADDRESS PUSH1 0x40 MLOAD DUP3 PUSH4 0xFFFFFFFF AND PUSH1 0xE0 SHL DUP2 MSTORE PUSH1 0x4 ADD PUSH2 0x1133 SWAP2 SWAP1 PUSH2 0x211A JUMP JUMPDEST PUSH1 0x20 PUSH1 0x40 MLOAD DUP1 DUP4 SUB DUP2 DUP7 GAS STATICCALL ISZERO DUP1 ISZERO PUSH2 0x1150 JUMPI RETURNDATASIZE PUSH1 0x0 DUP1 RETURNDATACOPY RETURNDATASIZE PUSH1 0x0 REVERT JUMPDEST POP POP POP POP PUSH1 0x40 MLOAD RETURNDATASIZE PUSH1 0x1F NOT PUSH1 0x1F DUP3 ADD AND DUP3 ADD DUP1 PUSH1 0x40 MSTORE POP DUP2 ADD SWAP1 PUSH2 0x1174 SWAP2 SWAP1 PUSH2 0x23A1 JUMP JUMPDEST SWAP1 POP DUP1 DUP5 GT ISZERO PUSH2 0x11B9 JUMPI PUSH1 0x40 MLOAD PUSH32 0x8C379A000000000000000000000000000000000000000000000000000000000 DUP2 MSTORE PUSH1 0x4 ADD PUSH2 0x11B0 SWAP1 PUSH2 0x29D7 JUMP JUMPDEST PUSH1 0x40 MLOAD DUP1 SWAP2 SUB SWAP1 REVERT JUMPDEST PUSH32 0x0 PUSH20 0xFFFFFFFFFFFFFFFFFFFFFFFFFFFFFFFFFFFFFFFF AND DUP6 PUSH20 0xFFFFFFFFFFFFFFFFFFFFFFFFFFFFFFFFFFFFFFFF AND SUB PUSH2 0x12BF JUMPI PUSH1 0x0 PUSH1 0x5 SLOAD PUSH1 0x7 SLOAD PUSH1 0x6 SLOAD PUSH2 0x1221 SWAP2 SWAP1 PUSH2 0x23FD JUMP JUMPDEST PUSH2 0x122B SWAP2 SWAP1 PUSH2 0x23FD JUMP JUMPDEST SWAP1 POP DUP1 DUP3 GT PUSH2 0x126F JUMPI PUSH1 0x40 MLOAD PUSH32 0x8C379A000000000000000000000000000000000000000000000000000000000 DUP2 MSTORE PUSH1 0x4 ADD PUSH2 0x1266 SWAP1 PUSH2 0x2A43 JUMP JUMPDEST PUSH1 0x40 MLOAD DUP1 SWAP2 SUB SWAP1 REVERT JUMPDEST DUP1 DUP3 PUSH2 0x127B SWAP2 SWAP1 PUSH2 0x24AE JUMP JUMPDEST DUP6 GT ISZERO PUSH2 0x12BD JUMPI PUSH1 0x40 MLOAD PUSH32 0x8C379A000000000000000000000000000000000000000000000000000000000 DUP2 MSTORE PUSH1 0x4 ADD PUSH2 0x12B4 SWAP1 PUSH2 0x2AAF JUMP JUMPDEST PUSH1 0x40 MLOAD DUP1 SWAP2 SUB SWAP1 REVERT JUMPDEST POP JUMPDEST PUSH1 0x0 DUP3 PUSH20 0xFFFFFFFFFFFFFFFFFFFFFFFFFFFFFFFFFFFFFFFF AND PUSH4 0xA9059CBB DUP6 DUP8 PUSH1 0x40 MLOAD DUP4 PUSH4 0xFFFFFFFF AND PUSH1 0xE0 SHL DUP2 MSTORE PUSH1 0x4 ADD PUSH2 0x12FC SWAP3 SWAP2 SWAP1 PUSH2 0x2ACF JUMP JUMPDEST PUSH1 0x20 PUSH1 0x40 MLOAD DUP1 DUP4 SUB DUP2 PUSH1 0x0 DUP8 GAS CALL ISZERO DUP1 ISZERO PUSH2 0x131B JUMPI RETURNDATASIZE PUSH1 0x0 DUP1 RETURNDATACOPY RETURNDATASIZE PUSH1 0x0 REVERT JUMPDEST POP POP POP POP PUSH1 0x40 MLOAD RETURNDATASIZE PUSH1 0x1F NOT PUSH1 0x1F DUP3 ADD AND DUP3 ADD DUP1 PUSH1 0x40 MSTORE POP DUP2 ADD SWAP1 PUSH2 0x133F SWAP2 SWAP1 PUSH2 0x2B0D JUMP JUMPDEST SWAP1 POP DUP1 PUSH2 0x1381 JUMPI PUSH1 0x40 MLOAD PUSH32 0x8C379A000000000000000000000000000000000000000000000000000000000 DUP2 MSTORE PUSH1 0x4 ADD PUSH2 0x1378 SWAP1 PUSH2 0x2B86 JUMP JUMPDEST PUSH1 0x40 MLOAD DUP1 SWAP2 SUB SWAP1 REVERT JUMPDEST PUSH32 0xFB475A842BAD10D3800B61BD1A92E716051AFBA979B124B583BD99A2D1D7BFD5 DUP7 DUP7 DUP7 PUSH1 0x40 MLOAD PUSH2 0x13B4 SWAP4 SWAP3 SWAP2 SWAP1 PUSH2 0x2BA6 JUMP JUMPDEST PUSH1 0x40 MLOAD DUP1 SWAP2 SUB SWAP1 LOG1 POP POP POP PUSH2 0x13C7 PUSH2 0x2001 JUMP JUMPDEST POP POP POP JUMP JUMPDEST PUSH1 0x8 PUSH1 0x0 SWAP1 SLOAD SWAP1 PUSH2 0x100 EXP SWAP1 DIV PUSH1 0xFF AND DUP2 JUMP JUMPDEST PUSH2 0x13E7 PUSH2 0x1F34 JUMP JUMPDEST PUSH2 0x13EF PUSH2 0x1FBB JUMP JUMPDEST PUSH2 0x13F9 PUSH1 0x0 PUSH2 0x69E JUMP JUMPDEST PUSH1 0x0 PUSH1 0x7 SLOAD PUSH1 0x6 SLOAD PUSH2 0x140B SWAP2 SWAP1 PUSH2 0x23FD JUMP JUMPDEST SWAP1 POP PUSH1 0x0 DUP2 GT ISZERO PUSH2 0x14A2 JUMPI PUSH32 0x0 PUSH20 0xFFFFFFFFFFFFFFFFFFFFFFFFFFFFFFFFFFFFFFFF AND PUSH4 0x2E1A7D4D DUP3 PUSH1 0x40 MLOAD DUP3 PUSH4 0xFFFFFFFF AND PUSH1 0xE0 SHL DUP2 MSTORE PUSH1 0x4 ADD PUSH2 0x146F SWAP2 SWAP1 PUSH2 0x224A JUMP JUMPDEST PUSH1 0x0 PUSH1 0x40 MLOAD DUP1 DUP4 SUB DUP2 PUSH1 0x0 DUP8 DUP1 EXTCODESIZE ISZERO DUP1 ISZERO PUSH2 0x1489 JUMPI PUSH1 0x0 DUP1 REVERT JUMPDEST POP GAS CALL ISZERO DUP1 ISZERO PUSH2 0x149D JUMPI RETURNDATASIZE PUSH1 0x0 DUP1 RETURNDATACOPY RETURNDATASIZE PUSH1 0x0 REVERT JUMPDEST POP POP POP POP JUMPDEST PUSH1 0x0 PUSH1 0x6 SLOAD GT ISZERO PUSH2 0x1585 JUMPI PUSH1 0x0 PUSH32 0x0 PUSH20 0xFFFFFFFFFFFFFFFFFFFFFFFFFFFFFFFFFFFFFFFF AND PUSH1 0x6 SLOAD PUSH1 0x40 MLOAD PUSH2 0x14F5 SWAP1 PUSH2 0x2882 JUMP JUMPDEST PUSH1 0x0 PUSH1 0x40 MLOAD DUP1 DUP4 SUB DUP2 DUP6 DUP8 GAS CALL SWAP3 POP POP POP RETURNDATASIZE DUP1 PUSH1 0x0 DUP2 EQ PUSH2 0x1532 JUMPI PUSH1 0x40 MLOAD SWAP2 POP PUSH1 0x1F NOT PUSH1 0x3F RETURNDATASIZE ADD AND DUP3 ADD PUSH1 0x40 MSTORE RETURNDATASIZE DUP3 MSTORE RETURNDATASIZE PUSH1 0x0 PUSH1 0x20 DUP5 ADD RETURNDATACOPY PUSH2 0x1537 JUMP JUMPDEST PUSH1 0x60 SWAP2 POP JUMPDEST POP POP SWAP1 POP DUP1 PUSH2 0x157B JUMPI PUSH1 0x40 MLOAD PUSH32 0x8C379A000000000000000000000000000000000000000000000000000000000 DUP2 MSTORE PUSH1 0x4 ADD PUSH2 0x1572 SWAP1 PUSH2 0x2C29 JUMP JUMPDEST PUSH1 0x40 MLOAD DUP1 SWAP2 SUB SWAP1 REVERT JUMPDEST PUSH1 0x0 PUSH1 0x6 DUP2 SWAP1 SSTORE POP POP JUMPDEST PUSH1 0x0 PUSH1 0x7 SLOAD GT ISZERO PUSH2 0x1668 JUMPI PUSH1 0x0 PUSH32 0x0 PUSH20 0xFFFFFFFFFFFFFFFFFFFFFFFFFFFFFFFFFFFFFFFF AND PUSH1 0x7 SLOAD PUSH1 0x40 MLOAD PUSH2 0x15D8 SWAP1 PUSH2 0x2882 JUMP JUMPDEST PUSH1 0x0 PUSH1 0x40 MLOAD DUP1 DUP4 SUB DUP2 DUP6 DUP8 GAS CALL SWAP3 POP POP POP RETURNDATASIZE DUP1 PUSH1 0x0 DUP2 EQ PUSH2 0x1615 JUMPI PUSH1 0x40 MLOAD SWAP2 POP PUSH1 0x1F NOT PUSH1 0x3F RETURNDATASIZE ADD AND DUP3 ADD PUSH1 0x40 MSTORE RETURNDATASIZE DUP3 MSTORE RETURNDATASIZE PUSH1 0x0 PUSH1 0x20 DUP5 ADD RETURNDATACOPY PUSH2 0x161A JUMP JUMPDEST PUSH1 0x60 SWAP2 POP JUMPDEST POP POP SWAP1 POP DUP1 PUSH2 0x165E JUMPI PUSH1 0x40 MLOAD PUSH32 0x8C379A000000000000000000000000000000000000000000000000000000000 DUP2 MSTORE PUSH1 0x4 ADD PUSH2 0x1655 SWAP1 PUSH2 0x2C95 JUMP JUMPDEST PUSH1 0x40 MLOAD DUP1 SWAP2 SUB SWAP1 REVERT JUMPDEST PUSH1 0x0 PUSH1 0x7 DUP2 SWAP1 SSTORE POP POP JUMPDEST POP PUSH2 0x1671 PUSH2 0x2001 JUMP JUMPDEST JUMP JUMPDEST PUSH2 0x167B PUSH2 0xE90 JUMP JUMPDEST PUSH20 0xFFFFFFFFFFFFFFFFFFFFFFFFFFFFFFFFFFFFFFFF AND CALLER PUSH20 0xFFFFFFFFFFFFFFFFFFFFFFFFFFFFFFFFFFFFFFFF AND EQ DUP1 PUSH2 0x16FD JUMPI POP PUSH1 0x4 PUSH1 0x0 CALLER PUSH20 0xFFFFFFFFFFFFFFFFFFFFFFFFFFFFFFFFFFFFFFFF AND PUSH20 0xFFFFFFFFFFFFFFFFFFFFFFFFFFFFFFFFFFFFFFFF AND DUP2 MSTORE PUSH1 0x20 ADD SWAP1 DUP2 MSTORE PUSH1 0x20 ADD PUSH1 0x0 KECCAK256 PUSH1 0x0 SWAP1 SLOAD SWAP1 PUSH2 0x100 EXP SWAP1 DIV PUSH1 0xFF AND JUMPDEST PUSH2 0x173C JUMPI PUSH1 0x40 MLOAD PUSH32 0x8C379A000000000000000000000000000000000000000000000000000000000 DUP2 MSTORE PUSH1 0x4 ADD PUSH2 0x1733 SWAP1 PUSH2 0x2D27 JUMP JUMPDEST PUSH1 0x40 MLOAD DUP1 SWAP2 SUB SWAP1 REVERT JUMPDEST PUSH2 0x1746 PUSH1 0x0 PUSH2 0x69E JUMP JUMPDEST JUMP JUMPDEST PUSH2 0x1750 PUSH2 0x1F34 JUMP JUMPDEST PUSH2 0x1758 PUSH2 0x1FBB JUMP JUMPDEST PUSH1 0x0 PUSH1 0x6 SLOAD GT PUSH2 0x179D JUMPI PUSH1 0x40 MLOAD PUSH32 0x8C379A000000000000000000000000000000000000000000000000000000000 DUP2 MSTORE PUSH1 0x4 ADD PUSH2 0x1794 SWAP1 PUSH2 0x2D93 JUMP JUMPDEST PUSH1 0x40 MLOAD DUP1 SWAP2 SUB SWAP1 REVERT JUMPDEST PUSH2 0x17A5 PUSH2 0x1AF8 JUMP JUMPDEST PUSH2 0x17AD PUSH2 0x2001 JUMP JUMPDEST JUMP JUMPDEST PUSH2 0x17B7 PUSH2 0x1F34 JUMP JUMPDEST PUSH1 0x0 PUSH20 0xFFFFFFFFFFFFFFFFFFFFFFFFFFFFFFFFFFFFFFFF AND DUP2 PUSH20 0xFFFFFFFFFFFFFFFFFFFFFFFFFFFFFFFFFFFFFFFF AND SUB PUSH2 0x1829 JUMPI PUSH1 0x0 PUSH1 0x40 MLOAD PUSH32 0x1E4FBDF700000000000000000000000000000000000000000000000000000000 DUP2 MSTORE PUSH1 0x4 ADD PUSH2 0x1820 SWAP2 SWAP1 PUSH2 0x211A JUMP JUMPDEST PUSH1 0x40 MLOAD DUP1 SWAP2 SUB SWAP1 REVERT JUMPDEST PUSH2 0x1832 DUP2 PUSH2 0x200B JUMP JUMPDEST POP JUMP JUMPDEST PUSH32 0x0 DUP2 JUMP JUMPDEST PUSH1 0x0 PUSH1 0x5 SLOAD GT ISZERO PUSH2 0x1AF6 JUMPI PUSH32 0x0 PUSH20 0xFFFFFFFFFFFFFFFFFFFFFFFFFFFFFFFFFFFFFFFF AND PUSH4 0x95EA7B3 PUSH1 0x2 PUSH1 0x0 SWAP1 SLOAD SWAP1 PUSH2 0x100 EXP SWAP1 DIV PUSH20 0xFFFFFFFFFFFFFFFFFFFFFFFFFFFFFFFFFFFFFFFF AND PUSH1 0x5 SLOAD PUSH1 0x40 MLOAD DUP4 PUSH4 0xFFFFFFFF AND PUSH1 0xE0 SHL DUP2 MSTORE PUSH1 0x4 ADD PUSH2 0x18E3 SWAP3 SWAP2 SWAP1 PUSH2 0x2ACF JUMP JUMPDEST PUSH1 0x20 PUSH1 0x40 MLOAD DUP1 DUP4 SUB DUP2 PUSH1 0x0 DUP8 GAS CALL ISZERO DUP1 ISZERO PUSH2 0x1902 JUMPI RETURNDATASIZE PUSH1 0x0 DUP1 RETURNDATACOPY RETURNDATASIZE PUSH1 0x0 REVERT JUMPDEST POP POP POP POP PUSH1 0x40 MLOAD RETURNDATASIZE PUSH1 0x1F NOT PUSH1 0x1F DUP3 ADD AND DUP3 ADD DUP1 PUSH1 0x40 MSTORE POP DUP2 ADD SWAP1 PUSH2 0x1926 SWAP2 SWAP1 PUSH2 0x2B0D JUMP JUMPDEST POP PUSH1 0x0 PUSH1 0x40 MLOAD DUP1 PUSH1 0x80 ADD PUSH1 0x40 MSTORE DUP1 PUSH32 0x0 PUSH32 0x0 PUSH32 0x0 PUSH1 0x40 MLOAD PUSH1 0x20 ADD PUSH2 0x19A9 SWAP4 SWAP3 SWAP2 SWAP1 PUSH2 0x2E40 JUMP JUMPDEST PUSH1 0x40 MLOAD PUSH1 0x20 DUP2 DUP4 SUB SUB DUP2 MSTORE SWAP1 PUSH1 0x40 MSTORE DUP2 MSTORE PUSH1 0x20 ADD PUSH32 0x0 PUSH20 0xFFFFFFFFFFFFFFFFFFFFFFFFFFFFFFFFFFFFFFFF AND DUP2 MSTORE PUSH1 0x20 ADD PUSH1 0x5 SLOAD DUP2 MSTORE PUSH1 0x20 ADD PUSH1 0x0 DUP2 MSTORE POP SWAP1 POP PUSH1 0x0 PUSH1 0x2 PUSH1 0x0 SWAP1 SLOAD SWAP1 PUSH2 0x100 EXP SWAP1 DIV PUSH20 0xFFFFFFFFFFFFFFFFFFFFFFFFFFFFFFFFFFFFFFFF AND PUSH20 0xFFFFFFFFFFFFFFFFFFFFFFFFFFFFFFFFFFFFFFFF AND PUSH4 0xB858183F DUP4 PUSH1 0x40 MLOAD DUP3 PUSH4 0xFFFFFFFF AND PUSH1 0xE0 SHL DUP2 MSTORE PUSH1 0x4 ADD PUSH2 0x1A65 SWAP2 SWAP1 PUSH2 0x2F8E JUMP JUMPDEST PUSH1 0x20 PUSH1 0x40 MLOAD DUP1 DUP4 SUB DUP2 PUSH1 0x0 DUP8 GAS CALL ISZERO DUP1 ISZERO PUSH2 0x1A84 JUMPI RETURNDATASIZE PUSH1 0x0 DUP1 RETURNDATACOPY RETURNDATASIZE PUSH1 0x0 REVERT JUMPDEST POP POP POP POP PUSH1 0x40 MLOAD RETURNDATASIZE PUSH1 0x1F NOT PUSH1 0x1F DUP3 ADD AND DUP3 ADD DUP1 PUSH1 0x40 MSTORE POP DUP2 ADD SWAP1 PUSH2 0x1AA8 SWAP2 SWAP1 PUSH2 0x23A1 JUMP JUMPDEST SWAP1 POP PUSH1 0x0 PUSH1 0x5 DUP2 SWAP1 SSTORE POP PUSH1 0x0 DUP2 GT ISZERO PUSH2 0x1AF3 JUMPI PUSH32 0x9F7C0331CAE72869B1E69D00E6DBFCEB0E02266830E12339F841D334BC614127 DUP2 PUSH1 0x40 MLOAD PUSH2 0x1AEA SWAP2 SWAP1 PUSH2 0x224A JUMP JUMPDEST PUSH1 0x40 MLOAD DUP1 SWAP2 SUB SWAP1 LOG1 JUMPDEST POP POP JUMPDEST JUMP JUMPDEST PUSH1 0x0 PUSH1 0x6 SLOAD GT ISZERO PUSH2 0x1F32 JUMPI PUSH1 0x0 PUSH1 0x2 PUSH8 0xFFFFFFFFFFFFFFFF DUP2 GT ISZERO PUSH2 0x1B20 JUMPI PUSH2 0x1B1F PUSH2 0x2FB0 JUMP JUMPDEST JUMPDEST PUSH1 0x40 MLOAD SWAP1 DUP1 DUP3 MSTORE DUP1 PUSH1 0x20 MUL PUSH1 0x20 ADD DUP3 ADD PUSH1 0x40 MSTORE DUP1 ISZERO PUSH2 0x1B4E JUMPI DUP2 PUSH1 0x20 ADD PUSH1 0x20 DUP3 MUL DUP1 CALLDATASIZE DUP4 CALLDATACOPY DUP1 DUP3 ADD SWAP2 POP POP SWAP1 POP JUMPDEST POP SWAP1 POP PUSH32 0x0 DUP2 PUSH1 0x0 DUP2 MLOAD DUP2 LT PUSH2 0x1B86 JUMPI PUSH2 0x1B85 PUSH2 0x2FDF JUMP JUMPDEST JUMPDEST PUSH1 0x20 MUL PUSH1 0x20 ADD ADD SWAP1 PUSH20 0xFFFFFFFFFFFFFFFFFFFFFFFFFFFFFFFFFFFFFFFF AND SWAP1 DUP2 PUSH20 0xFFFFFFFFFFFFFFFFFFFFFFFFFFFFFFFFFFFFFFFF AND DUP2 MSTORE POP POP PUSH32 0x0 DUP2 PUSH1 0x1 DUP2 MLOAD DUP2 LT PUSH2 0x1BF5 JUMPI PUSH2 0x1BF4 PUSH2 0x2FDF JUMP JUMPDEST JUMPDEST PUSH1 0x20 MUL PUSH1 0x20 ADD ADD SWAP1 PUSH20 0xFFFFFFFFFFFFFFFFFFFFFFFFFFFFFFFFFFFFFFFF AND SWAP1 DUP2 PUSH20 0xFFFFFFFFFFFFFFFFFFFFFFFFFFFFFFFFFFFFFFFF AND DUP2 MSTORE POP POP PUSH1 0x0 PUSH1 0x3 PUSH1 0x0 SWAP1 SLOAD SWAP1 PUSH2 0x100 EXP SWAP1 DIV PUSH20 0xFFFFFFFFFFFFFFFFFFFFFFFFFFFFFFFFFFFFFFFF AND PUSH20 0xFFFFFFFFFFFFFFFFFFFFFFFFFFFFFFFFFFFFFFFF AND PUSH4 0xD06CA61F PUSH1 0x6 SLOAD DUP5 PUSH1 0x40 MLOAD DUP4 PUSH4 0xFFFFFFFF AND PUSH1 0xE0 SHL DUP2 MSTORE PUSH1 0x4 ADD PUSH2 0x1C90 SWAP3 SWAP2 SWAP1 PUSH2 0x30BD JUMP JUMPDEST PUSH1 0x0 PUSH1 0x40 MLOAD DUP1 DUP4 SUB DUP2 DUP7 GAS STATICCALL ISZERO DUP1 ISZERO PUSH2 0x1CAD JUMPI RETURNDATASIZE PUSH1 0x0 DUP1 RETURNDATACOPY RETURNDATASIZE PUSH1 0x0 REVERT JUMPDEST POP POP POP POP PUSH1 0x40 MLOAD RETURNDATASIZE PUSH1 0x0 DUP3 RETURNDATACOPY RETURNDATASIZE PUSH1 0x1F NOT PUSH1 0x1F DUP3 ADD AND DUP3 ADD DUP1 PUSH1 0x40 MSTORE POP DUP2 ADD SWAP1 PUSH2 0x1CD6 SWAP2 SWAP1 PUSH2 0x3206 JUMP JUMPDEST SWAP1 POP PUSH1 0x0 DUP2 PUSH1 0x1 DUP2 MLOAD DUP2 LT PUSH2 0x1CEE JUMPI PUSH2 0x1CED PUSH2 0x2FDF JUMP JUMPDEST JUMPDEST PUSH1 0x20 MUL PUSH1 0x20 ADD ADD MLOAD SWAP1 POP PUSH1 0x0 PUSH1 0x64 PUSH1 0x50 DUP4 PUSH2 0x1D09 SWAP2 SWAP1 PUSH2 0x24E2 JUMP JUMPDEST PUSH2 0x1D13 SWAP2 SWAP1 PUSH2 0x2553 JUMP JUMPDEST SWAP1 POP PUSH32 0x0 PUSH20 0xFFFFFFFFFFFFFFFFFFFFFFFFFFFFFFFFFFFFFFFF AND PUSH4 0x95EA7B3 PUSH1 0x3 PUSH1 0x0 SWAP1 SLOAD SWAP1 PUSH2 0x100 EXP SWAP1 DIV PUSH20 0xFFFFFFFFFFFFFFFFFFFFFFFFFFFFFFFFFFFFFFFF AND PUSH1 0x6 SLOAD PUSH1 0x40 MLOAD DUP4 PUSH4 0xFFFFFFFF AND PUSH1 0xE0 SHL DUP2 MSTORE PUSH1 0x4 ADD PUSH2 0x1D94 SWAP3 SWAP2 SWAP1 PUSH2 0x2ACF JUMP JUMPDEST PUSH1 0x20 PUSH1 0x40 MLOAD DUP1 DUP4 SUB DUP2 PUSH1 0x0 DUP8 GAS CALL ISZERO DUP1 ISZERO PUSH2 0x1DB3 JUMPI RETURNDATASIZE PUSH1 0x0 DUP1 RETURNDATACOPY RETURNDATASIZE PUSH1 0x0 REVERT JUMPDEST POP POP POP POP PUSH1 0x40 MLOAD RETURNDATASIZE PUSH1 0x1F NOT PUSH1 0x1F DUP3 ADD AND DUP3 ADD DUP1 PUSH1 0x40 MSTORE POP DUP2 ADD SWAP1 PUSH2 0x1DD7 SWAP2 SWAP1 PUSH2 0x2B0D JUMP JUMPDEST POP PUSH1 0x0 PUSH1 0x3 PUSH1 0x0 SWAP1 SLOAD SWAP1 PUSH2 0x100 EXP SWAP1 DIV PUSH20 0xFFFFFFFFFFFFFFFFFFFFFFFFFFFFFFFFFFFFFFFF AND PUSH20 0xFFFFFFFFFFFFFFFFFFFFFFFFFFFFFFFFFFFFFFFF AND PUSH4 0x38ED1739 PUSH1 0x6 SLOAD DUP5 DUP9 PUSH32 0x0 PUSH2 0x12C TIMESTAMP PUSH2 0x1E4C SWAP2 SWAP1 PUSH2 0x23FD JUMP JUMPDEST PUSH1 0x40 MLOAD DUP7 PUSH4 0xFFFFFFFF AND PUSH1 0xE0 SHL DUP2 MSTORE PUSH1 0x4 ADD PUSH2 0x1E6C SWAP6 SWAP5 SWAP4 SWAP3 SWAP2 SWAP1 PUSH2 0x324F JUMP JUMPDEST PUSH1 0x0 PUSH1 0x40 MLOAD DUP1 DUP4 SUB DUP2 PUSH1 0x0 DUP8 GAS CALL ISZERO DUP1 ISZERO PUSH2 0x1E8B JUMPI RETURNDATASIZE PUSH1 0x0 DUP1 RETURNDATACOPY RETURNDATASIZE PUSH1 0x0 REVERT JUMPDEST POP POP POP POP PUSH1 0x40 MLOAD RETURNDATASIZE PUSH1 0x0 DUP3 RETURNDATACOPY RETURNDATASIZE PUSH1 0x1F NOT PUSH1 0x1F DUP3 ADD AND DUP3 ADD DUP1 PUSH1 0x40 MSTORE POP DUP2 ADD SWAP1 PUSH2 0x1EB4 SWAP2 SWAP1 PUSH2 0x3206 JUMP JUMPDEST SWAP1 POP PUSH1 0x0 DUP2 PUSH1 0x1 DUP4 MLOAD PUSH2 0x1EC7 SWAP2 SWAP1 PUSH2 0x24AE JUMP JUMPDEST DUP2 MLOAD DUP2 LT PUSH2 0x1ED8 JUMPI PUSH2 0x1ED7 PUSH2 0x2FDF JUMP JUMPDEST JUMPDEST PUSH1 0x20 MUL PUSH1 0x20 ADD ADD MLOAD SWAP1 POP PUSH1 0x0 PUSH1 0x6 DUP2 SWAP1 SSTORE POP PUSH1 0x0 DUP2 GT ISZERO PUSH2 0x1F2B JUMPI PUSH32 0xCB42363DCC1840222268FE43EEBC976F3E311A14761E5396EB394EBDAC90A582 DUP2 PUSH1 0x40 MLOAD PUSH2 0x1F22 SWAP2 SWAP1 PUSH2 0x224A JUMP JUMPDEST PUSH1 0x40 MLOAD DUP1 SWAP2 SUB SWAP1 LOG1 JUMPDEST POP POP POP POP POP POP JUMPDEST JUMP JUMPDEST PUSH2 0x1F3C PUSH2 0x20D1 JUMP JUMPDEST PUSH20 0xFFFFFFFFFFFFFFFFFFFFFFFFFFFFFFFFFFFFFFFF AND PUSH2 0x1F5A PUSH2 0xE90 JUMP JUMPDEST PUSH20 0xFFFFFFFFFFFFFFFFFFFFFFFFFFFFFFFFFFFFFFFF AND EQ PUSH2 0x1FB9 JUMPI PUSH2 0x1F7D PUSH2 0x20D1 JUMP JUMPDEST PUSH1 0x40 MLOAD PUSH32 0x118CDAA700000000000000000000000000000000000000000000000000000000 DUP2 MSTORE PUSH1 0x4 ADD PUSH2 0x1FB0 SWAP2 SWAP1 PUSH2 0x211A JUMP JUMPDEST PUSH1 0x40 MLOAD DUP1 SWAP2 SUB SWAP1 REVERT JUMPDEST JUMP JUMPDEST PUSH1 0x2 PUSH1 0x0 SLOAD SUB PUSH2 0x1FF7 JUMPI PUSH1 0x40 MLOAD PUSH32 0x3EE5AEB500000000000000000000000000000000000000000000000000000000 DUP2 MSTORE PUSH1 0x4 ADD PUSH1 0x40 MLOAD DUP1 SWAP2 SUB SWAP1 REVERT JUMPDEST PUSH1 0x2 PUSH1 0x0 DUP2 SWAP1 SSTORE POP JUMP JUMPDEST PUSH1 0x1 PUSH1 0x0 DUP2 SWAP1 SSTORE POP JUMP JUMPDEST PUSH1 0x0 PUSH1 0x1 PUSH1 0x0 SWAP1 SLOAD SWAP1 PUSH2 0x100 EXP SWAP1 DIV PUSH20 0xFFFFFFFFFFFFFFFFFFFFFFFFFFFFFFFFFFFFFFFF AND SWAP1 POP DUP2 PUSH1 0x1 PUSH1 0x0 PUSH2 0x100 EXP DUP2 SLOAD DUP2 PUSH20 0xFFFFFFFFFFFFFFFFFFFFFFFFFFFFFFFFFFFFFFFF MUL NOT AND SWAP1 DUP4 PUSH20 0xFFFFFFFFFFFFFFFFFFFFFFFFFFFFFFFFFFFFFFFF AND MUL OR SWAP1 SSTORE POP DUP2 PUSH20 0xFFFFFFFFFFFFFFFFFFFFFFFFFFFFFFFFFFFFFFFF AND DUP2 PUSH20 0xFFFFFFFFFFFFFFFFFFFFFFFFFFFFFFFFFFFFFFFF AND PUSH32 0x8BE0079C531659141344CD1FD0A4F28419497F9722A3DAAFE3B4186F6B6457E0 PUSH1 0x40 MLOAD PUSH1 0x40 MLOAD DUP1 SWAP2 SUB SWAP1 LOG3 POP POP JUMP JUMPDEST PUSH1 0x0 CALLER SWAP1 POP SWAP1 JUMP JUMPDEST PUSH1 0x0 PUSH20 0xFFFFFFFFFFFFFFFFFFFFFFFFFFFFFFFFFFFFFFFF DUP3 AND SWAP1 POP SWAP2 SWAP1 POP JUMP JUMPDEST PUSH1 0x0 PUSH2 0x2104 DUP3 PUSH2 0x20D9 JUMP JUMPDEST SWAP1 POP SWAP2 SWAP1 POP JUMP JUMPDEST PUSH2 0x2114 DUP2 PUSH2 0x20F9 JUMP JUMPDEST DUP3 MSTORE POP POP JUMP JUMPDEST PUSH1 0x0 PUSH1 0x20 DUP3 ADD SWAP1 POP PUSH2 0x212F PUSH1 0x0 DUP4 ADD DUP5 PUSH2 0x210B JUMP JUMPDEST SWAP3 SWAP2 POP POP JUMP JUMPDEST PUSH1 0x0 PUSH1 0x40 MLOAD SWAP1 POP SWAP1 JUMP JUMPDEST PUSH1 0x0 DUP1 REVERT JUMPDEST PUSH1 0x0 DUP1 REVERT JUMPDEST PUSH2 0x2152 DUP2 PUSH2 0x20F9 JUMP JUMPDEST DUP2 EQ PUSH2 0x215D JUMPI PUSH1 0x0 DUP1 REVERT JUMPDEST POP JUMP JUMPDEST PUSH1 0x0 DUP2 CALLDATALOAD SWAP1 POP PUSH2 0x216F DUP2 PUSH2 0x2149 JUMP JUMPDEST SWAP3 SWAP2 POP POP JUMP JUMPDEST PUSH1 0x0 PUSH1 0x20 DUP3 DUP5 SUB SLT ISZERO PUSH2 0x218B JUMPI PUSH2 0x218A PUSH2 0x213F JUMP JUMPDEST JUMPDEST PUSH1 0x0 PUSH2 0x2199 DUP5 DUP3 DUP6 ADD PUSH2 0x2160 JUMP JUMPDEST SWAP2 POP POP SWAP3 SWAP2 POP POP JUMP JUMPDEST PUSH1 0x0 DUP2 ISZERO ISZERO SWAP1 POP SWAP2 SWAP1 POP JUMP JUMPDEST PUSH2 0x21B7 DUP2 PUSH2 0x21A2 JUMP JUMPDEST DUP3 MSTORE POP POP JUMP JUMPDEST PUSH1 0x0 PUSH1 0x20 DUP3 ADD SWAP1 POP PUSH2 0x21D2 PUSH1 0x0 DUP4 ADD DUP5 PUSH2 0x21AE JUMP JUMPDEST SWAP3 SWAP2 POP POP JUMP JUMPDEST PUSH2 0x21E1 DUP2 PUSH2 0x21A2 JUMP JUMPDEST DUP2 EQ PUSH2 0x21EC JUMPI PUSH1 0x0 DUP1 REVERT JUMPDEST POP JUMP JUMPDEST PUSH1 0x0 DUP2 CALLDATALOAD SWAP1 POP PUSH2 0x21FE DUP2 PUSH2 0x21D8 JUMP JUMPDEST SWAP3 SWAP2 POP POP JUMP JUMPDEST PUSH1 0x0 PUSH1 0x20 DUP3 DUP5 SUB SLT ISZERO PUSH2 0x221A JUMPI PUSH2 0x2219 PUSH2 0x213F JUMP JUMPDEST JUMPDEST PUSH1 0x0 PUSH2 0x2228 DUP5 DUP3 DUP6 ADD PUSH2 0x21EF JUMP JUMPDEST SWAP2 POP POP SWAP3 SWAP2 POP POP JUMP JUMPDEST PUSH1 0x0 DUP2 SWAP1 POP SWAP2 SWAP1 POP JUMP JUMPDEST PUSH2 0x2244 DUP2 PUSH2 0x2231 JUMP JUMPDEST DUP3 MSTORE POP POP JUMP JUMPDEST PUSH1 0x0 PUSH1 0x20 DUP3 ADD SWAP1 POP PUSH2 0x225F PUSH1 0x0 DUP4 ADD DUP5 PUSH2 0x223B JUMP JUMPDEST SWAP3 SWAP2 POP POP JUMP JUMPDEST PUSH1 0x0 PUSH2 0x2270 DUP3 PUSH2 0x20D9 JUMP JUMPDEST SWAP1 POP SWAP2 SWAP1 POP JUMP JUMPDEST PUSH2 0x2280 DUP2 PUSH2 0x2265 JUMP JUMPDEST DUP3 MSTORE POP POP JUMP JUMPDEST PUSH1 0x0 PUSH1 0x20 DUP3 ADD SWAP1 POP PUSH2 0x229B PUSH1 0x0 DUP4 ADD DUP5 PUSH2 0x2277 JUMP JUMPDEST SWAP3 SWAP2 POP POP JUMP JUMPDEST PUSH2 0x22AA DUP2 PUSH2 0x2231 JUMP JUMPDEST DUP2 EQ PUSH2 0x22B5 JUMPI PUSH1 0x0 DUP1 REVERT JUMPDEST POP JUMP JUMPDEST PUSH1 0x0 DUP2 CALLDATALOAD SWAP1 POP PUSH2 0x22C7 DUP2 PUSH2 0x22A1 JUMP JUMPDEST SWAP3 SWAP2 POP POP JUMP JUMPDEST PUSH2 0x22D6 DUP2 PUSH2 0x2265 JUMP JUMPDEST DUP2 EQ PUSH2 0x22E1 JUMPI PUSH1 0x0 DUP1 REVERT JUMPDEST POP JUMP JUMPDEST PUSH1 0x0 DUP2 CALLDATALOAD SWAP1 POP PUSH2 0x22F3 DUP2 PUSH2 0x22CD JUMP JUMPDEST SWAP3 SWAP2 POP POP JUMP JUMPDEST PUSH1 0x0 DUP1 PUSH1 0x40 DUP4 DUP6 SUB SLT ISZERO PUSH2 0x2310 JUMPI PUSH2 0x230F PUSH2 0x213F JUMP JUMPDEST JUMPDEST PUSH1 0x0 PUSH2 0x231E DUP6 DUP3 DUP7 ADD PUSH2 0x22B8 JUMP JUMPDEST SWAP3 POP POP PUSH1 0x20 PUSH2 0x232F DUP6 DUP3 DUP7 ADD PUSH2 0x22E4 JUMP JUMPDEST SWAP2 POP POP SWAP3 POP SWAP3 SWAP1 POP JUMP JUMPDEST PUSH1 0x0 DUP1 PUSH1 0x0 PUSH1 0x60 DUP5 DUP7 SUB SLT ISZERO PUSH2 0x2352 JUMPI PUSH2 0x2351 PUSH2 0x213F JUMP JUMPDEST JUMPDEST PUSH1 0x0 PUSH2 0x2360 DUP7 DUP3 DUP8 ADD PUSH2 0x2160 JUMP JUMPDEST SWAP4 POP POP PUSH1 0x20 PUSH2 0x2371 DUP7 DUP3 DUP8 ADD PUSH2 0x22B8 JUMP JUMPDEST SWAP3 POP POP PUSH1 0x40 PUSH2 0x2382 DUP7 DUP3 DUP8 ADD PUSH2 0x2160 JUMP JUMPDEST SWAP2 POP POP SWAP3 POP SWAP3 POP SWAP3 JUMP JUMPDEST PUSH1 0x0 DUP2 MLOAD SWAP1 POP PUSH2 0x239B DUP2 PUSH2 0x22A1 JUMP JUMPDEST SWAP3 SWAP2 POP POP JUMP JUMPDEST PUSH1 0x0 PUSH1 0x20 DUP3 DUP5 SUB SLT ISZERO PUSH2 0x23B7 JUMPI PUSH2 0x23B6 PUSH2 0x213F JUMP JUMPDEST JUMPDEST PUSH1 0x0 PUSH2 0x23C5 DUP5 DUP3 DUP6 ADD PUSH2 0x238C JUMP JUMPDEST SWAP2 POP POP SWAP3 SWAP2 POP POP JUMP JUMPDEST PUSH32 0x4E487B7100000000000000000000000000000000000000000000000000000000 PUSH1 0x0 MSTORE PUSH1 0x11 PUSH1 0x4 MSTORE PUSH1 0x24 PUSH1 0x0 REVERT JUMPDEST PUSH1 0x0 PUSH2 0x2408 DUP3 PUSH2 0x2231 JUMP JUMPDEST SWAP2 POP PUSH2 0x2413 DUP4 PUSH2 0x2231 JUMP JUMPDEST SWAP3 POP DUP3 DUP3 ADD SWAP1 POP DUP1 DUP3 GT ISZERO PUSH2 0x242B JUMPI PUSH2 0x242A PUSH2 0x23CE JUMP JUMPDEST JUMPDEST SWAP3 SWAP2 POP POP JUMP JUMPDEST PUSH1 0x0 DUP3 DUP3 MSTORE PUSH1 0x20 DUP3 ADD SWAP1 POP SWAP3 SWAP2 POP POP JUMP JUMPDEST PUSH32 0x42616C616E6365206572726F7200000000000000000000000000000000000000 PUSH1 0x0 DUP3 ADD MSTORE POP JUMP JUMPDEST PUSH1 0x0 PUSH2 0x2478 PUSH1 0xD DUP4 PUSH2 0x2431 JUMP JUMPDEST SWAP2 POP PUSH2 0x2483 DUP3 PUSH2 0x2442 JUMP JUMPDEST PUSH1 0x20 DUP3 ADD SWAP1 POP SWAP2 SWAP1 POP JUMP JUMPDEST PUSH1 0x0 PUSH1 0x20 DUP3 ADD SWAP1 POP DUP2 DUP2 SUB PUSH1 0x0 DUP4 ADD MSTORE PUSH2 0x24A7 DUP2 PUSH2 0x246B JUMP JUMPDEST SWAP1 POP SWAP2 SWAP1 POP JUMP JUMPDEST PUSH1 0x0 PUSH2 0x24B9 DUP3 PUSH2 0x2231 JUMP JUMPDEST SWAP2 POP PUSH2 0x24C4 DUP4 PUSH2 0x2231 JUMP JUMPDEST SWAP3 POP DUP3 DUP3 SUB SWAP1 POP DUP2 DUP2 GT ISZERO PUSH2 0x24DC JUMPI PUSH2 0x24DB PUSH2 0x23CE JUMP JUMPDEST JUMPDEST SWAP3 SWAP2 POP POP JUMP JUMPDEST PUSH1 0x0 PUSH2 0x24ED DUP3 PUSH2 0x2231 JUMP JUMPDEST SWAP2 POP PUSH2 0x24F8 DUP4 PUSH2 0x2231 JUMP JUMPDEST SWAP3 POP DUP3 DUP3 MUL PUSH2 0x2506 DUP2 PUSH2 0x2231 JUMP JUMPDEST SWAP2 POP DUP3 DUP3 DIV DUP5 EQ DUP4 ISZERO OR PUSH2 0x251D JUMPI PUSH2 0x251C PUSH2 0x23CE JUMP JUMPDEST JUMPDEST POP SWAP3 SWAP2 POP POP JUMP JUMPDEST PUSH32 0x4E487B7100000000000000000000000000000000000000000000000000000000 PUSH1 0x0 MSTORE PUSH1 0x12 PUSH1 0x4 MSTORE PUSH1 0x24 PUSH1 0x0 REVERT JUMPDEST PUSH1 0x0 PUSH2 0x255E DUP3 PUSH2 0x2231 JUMP JUMPDEST SWAP2 POP PUSH2 0x2569 DUP4 PUSH2 0x2231 JUMP JUMPDEST SWAP3 POP DUP3 PUSH2 0x2579 JUMPI PUSH2 0x2578 PUSH2 0x2524 JUMP JUMPDEST JUMPDEST DUP3 DUP3 DIV SWAP1 POP SWAP3 SWAP2 POP POP JUMP JUMPDEST PUSH1 0x0 PUSH1 0x80 DUP3 ADD SWAP1 POP PUSH2 0x2599 PUSH1 0x0 DUP4 ADD DUP8 PUSH2 0x223B JUMP JUMPDEST PUSH2 0x25A6 PUSH1 0x20 DUP4 ADD DUP7 PUSH2 0x223B JUMP JUMPDEST PUSH2 0x25B3 PUSH1 0x40 DUP4 ADD DUP6 PUSH2 0x223B JUMP JUMPDEST PUSH2 0x25C0 PUSH1 0x60 DUP4 ADD DUP5 PUSH2 0x223B JUMP JUMPDEST SWAP6 SWAP5 POP POP POP POP POP JUMP JUMPDEST PUSH32 0x4E6F742077686974656C69737465640000000000000000000000000000000000 PUSH1 0x0 DUP3 ADD MSTORE POP JUMP JUMPDEST PUSH1 0x0 PUSH2 0x25FF PUSH1 0xF DUP4 PUSH2 0x2431 JUMP JUMPDEST SWAP2 POP PUSH2 0x260A DUP3 PUSH2 0x25C9 JUMP JUMPDEST PUSH1 0x20 DUP3 ADD SWAP1 POP SWAP2 SWAP1 POP JUMP JUMPDEST PUSH1 0x0 PUSH1 0x20 DUP3 ADD SWAP1 POP DUP2 DUP2 SUB PUSH1 0x0 DUP4 ADD MSTORE PUSH2 0x262E DUP2 PUSH2 0x25F2 JUMP JUMPDEST SWAP1 POP SWAP2 SWAP1 POP JUMP JUMPDEST PUSH32 0x4E6F2062616C616E63657320746F206275726E00000000000000000000000000 PUSH1 0x0 DUP3 ADD MSTORE POP JUMP JUMPDEST PUSH1 0x0 PUSH2 0x266B PUSH1 0x13 DUP4 PUSH2 0x2431 JUMP JUMPDEST SWAP2 POP PUSH2 0x2676 DUP3 PUSH2 0x2635 JUMP JUMPDEST PUSH1 0x20 DUP3 ADD SWAP1 POP SWAP2 SWAP1 POP JUMP JUMPDEST PUSH1 0x0 PUSH1 0x20 DUP3 ADD SWAP1 POP DUP2 DUP2 SUB PUSH1 0x0 DUP4 ADD MSTORE PUSH2 0x269A DUP2 PUSH2 0x265E JUMP JUMPDEST SWAP1 POP SWAP2 SWAP1 POP JUMP JUMPDEST PUSH32 0x496E76616C6964204E465420636F6E7472616374206164647265737300000000 PUSH1 0x0 DUP3 ADD MSTORE POP JUMP JUMPDEST PUSH1 0x0 PUSH2 0x26D7 PUSH1 0x1C DUP4 PUSH2 0x2431 JUMP JUMPDEST SWAP2 POP PUSH2 0x26E2 DUP3 PUSH2 0x26A1 JUMP JUMPDEST PUSH1 0x20 DUP3 ADD SWAP1 POP SWAP2 SWAP1 POP JUMP JUMPDEST PUSH1 0x0 PUSH1 0x20 DUP3 ADD SWAP1 POP DUP2 DUP2 SUB PUSH1 0x0 DUP4 ADD MSTORE PUSH2 0x2706 DUP2 PUSH2 0x26CA JUMP JUMPDEST SWAP1 POP SWAP2 SWAP1 POP JUMP JUMPDEST PUSH32 0x416C72656164792077686974656C697374656400000000000000000000000000 PUSH1 0x0 DUP3 ADD MSTORE POP JUMP JUMPDEST PUSH1 0x0 PUSH2 0x2743 PUSH1 0x13 DUP4 PUSH2 0x2431 JUMP JUMPDEST SWAP2 POP PUSH2 0x274E DUP3 PUSH2 0x270D JUMP JUMPDEST PUSH1 0x20 DUP3 ADD SWAP1 POP SWAP2 SWAP1 POP JUMP JUMPDEST PUSH1 0x0 PUSH1 0x20 DUP3 ADD SWAP1 POP DUP2 DUP2 SUB PUSH1 0x0 DUP4 ADD MSTORE PUSH2 0x2772 DUP2 PUSH2 0x2736 JUMP JUMPDEST SWAP1 POP SWAP2 SWAP1 POP JUMP JUMPDEST PUSH32 0x496E76616C696420726563697069656E74000000000000000000000000000000 PUSH1 0x0 DUP3 ADD MSTORE POP JUMP JUMPDEST PUSH1 0x0 PUSH2 0x27AF PUSH1 0x11 DUP4 PUSH2 0x2431 JUMP JUMPDEST SWAP2 POP PUSH2 0x27BA DUP3 PUSH2 0x2779 JUMP JUMPDEST PUSH1 0x20 DUP3 ADD SWAP1 POP SWAP2 SWAP1 POP JUMP JUMPDEST PUSH1 0x0 PUSH1 0x20 DUP3 ADD SWAP1 POP DUP2 DUP2 SUB PUSH1 0x0 DUP4 ADD MSTORE PUSH2 0x27DE DUP2 PUSH2 0x27A2 JUMP JUMPDEST SWAP1 POP SWAP2 SWAP1 POP JUMP JUMPDEST PUSH32 0x4E6F7420656E6F75676820455448000000000000000000000000000000000000 PUSH1 0x0 DUP3 ADD MSTORE POP JUMP JUMPDEST PUSH1 0x0 PUSH2 0x281B PUSH1 0xE DUP4 PUSH2 0x2431 JUMP JUMPDEST SWAP2 POP PUSH2 0x2826 DUP3 PUSH2 0x27E5 JUMP JUMPDEST PUSH1 0x20 DUP3 ADD SWAP1 POP SWAP2 SWAP1 POP JUMP JUMPDEST PUSH1 0x0 PUSH1 0x20 DUP3 ADD SWAP1 POP DUP2 DUP2 SUB PUSH1 0x0 DUP4 ADD MSTORE PUSH2 0x284A DUP2 PUSH2 0x280E JUMP JUMPDEST SWAP1 POP SWAP2 SWAP1 POP JUMP JUMPDEST PUSH1 0x0 DUP2 SWAP1 POP SWAP3 SWAP2 POP POP JUMP JUMPDEST POP JUMP JUMPDEST PUSH1 0x0 PUSH2 0x286C PUSH1 0x0 DUP4 PUSH2 0x2851 JUMP JUMPDEST SWAP2 POP PUSH2 0x2877 DUP3 PUSH2 0x285C JUMP JUMPDEST PUSH1 0x0 DUP3 ADD SWAP1 POP SWAP2 SWAP1 POP JUMP JUMPDEST PUSH1 0x0 PUSH2 0x288D DUP3 PUSH2 0x285F JUMP JUMPDEST SWAP2 POP DUP2 SWAP1 POP SWAP2 SWAP1 POP JUMP JUMPDEST PUSH32 0x455448207472616E73666572206661696C656400000000000000000000000000 PUSH1 0x0 DUP3 ADD MSTORE POP JUMP JUMPDEST PUSH1 0x0 PUSH2 0x28CD PUSH1 0x13 DUP4 PUSH2 0x2431 JUMP JUMPDEST SWAP2 POP PUSH2 0x28D8 DUP3 PUSH2 0x2897 JUMP JUMPDEST PUSH1 0x20 DUP3 ADD SWAP1 POP SWAP2 SWAP1 POP JUMP JUMPDEST PUSH1 0x0 PUSH1 0x20 DUP3 ADD SWAP1 POP DUP2 DUP2 SUB PUSH1 0x0 DUP4 ADD MSTORE PUSH2 0x28FC DUP2 PUSH2 0x28C0 JUMP JUMPDEST SWAP1 POP SWAP2 SWAP1 POP JUMP JUMPDEST PUSH1 0x0 DUP2 SWAP1 POP SWAP2 SWAP1 POP JUMP JUMPDEST PUSH1 0x0 PUSH2 0x2928 PUSH2 0x2923 PUSH2 0x291E DUP5 PUSH2 0x20D9 JUMP JUMPDEST PUSH2 0x2903 JUMP JUMPDEST PUSH2 0x20D9 JUMP JUMPDEST SWAP1 POP SWAP2 SWAP1 POP JUMP JUMPDEST PUSH1 0x0 PUSH2 0x293A DUP3 PUSH2 0x290D JUMP JUMPDEST SWAP1 POP SWAP2 SWAP1 POP JUMP JUMPDEST PUSH1 0x0 PUSH2 0x294C DUP3 PUSH2 0x292F JUMP JUMPDEST SWAP1 POP SWAP2 SWAP1 POP JUMP JUMPDEST PUSH2 0x295C DUP2 PUSH2 0x2941 JUMP JUMPDEST DUP3 MSTORE POP POP JUMP JUMPDEST PUSH1 0x0 PUSH1 0x40 DUP3 ADD SWAP1 POP PUSH2 0x2977 PUSH1 0x0 DUP4 ADD DUP6 PUSH2 0x223B JUMP JUMPDEST PUSH2 0x2984 PUSH1 0x20 DUP4 ADD DUP5 PUSH2 0x2953 JUMP JUMPDEST SWAP4 SWAP3 POP POP POP JUMP JUMPDEST PUSH32 0x4E6F7420656E6F75676820746F6B656E2062616C616E63650000000000000000 PUSH1 0x0 DUP3 ADD MSTORE POP JUMP JUMPDEST PUSH1 0x0 PUSH2 0x29C1 PUSH1 0x18 DUP4 PUSH2 0x2431 JUMP JUMPDEST SWAP2 POP PUSH2 0x29CC DUP3 PUSH2 0x298B JUMP JUMPDEST PUSH1 0x20 DUP3 ADD SWAP1 POP SWAP2 SWAP1 POP JUMP JUMPDEST PUSH1 0x0 PUSH1 0x20 DUP3 ADD SWAP1 POP DUP2 DUP2 SUB PUSH1 0x0 DUP4 ADD MSTORE PUSH2 0x29F0 DUP2 PUSH2 0x29B4 JUMP JUMPDEST SWAP1 POP SWAP2 SWAP1 POP JUMP JUMPDEST PUSH32 0x4E6F20657863657373205745544E20746F207265736375650000000000000000 PUSH1 0x0 DUP3 ADD MSTORE POP JUMP JUMPDEST PUSH1 0x0 PUSH2 0x2A2D PUSH1 0x18 DUP4 PUSH2 0x2431 JUMP JUMPDEST SWAP2 POP PUSH2 0x2A38 DUP3 PUSH2 0x29F7 JUMP JUMPDEST PUSH1 0x20 DUP3 ADD SWAP1 POP SWAP2 SWAP1 POP JUMP JUMPDEST PUSH1 0x0 PUSH1 0x20 DUP3 ADD SWAP1 POP DUP2 DUP2 SUB PUSH1 0x0 DUP4 ADD MSTORE PUSH2 0x2A5C DUP2 PUSH2 0x2A20 JUMP JUMPDEST SWAP1 POP SWAP2 SWAP1 POP JUMP JUMPDEST PUSH32 0x416D6F756E74206578636565647320657863657373205745544E000000000000 PUSH1 0x0 DUP3 ADD MSTORE POP JUMP JUMPDEST PUSH1 0x0 PUSH2 0x2A99 PUSH1 0x1A DUP4 PUSH2 0x2431 JUMP JUMPDEST SWAP2 POP PUSH2 0x2AA4 DUP3 PUSH2 0x2A63 JUMP JUMPDEST PUSH1 0x20 DUP3 ADD SWAP1 POP SWAP2 SWAP1 POP JUMP JUMPDEST PUSH1 0x0 PUSH1 0x20 DUP3 ADD SWAP1 POP DUP2 DUP2 SUB PUSH1 0x0 DUP4 ADD MSTORE PUSH2 0x2AC8 DUP2 PUSH2 0x2A8C JUMP JUMPDEST SWAP1 POP SWAP2 SWAP1 POP JUMP JUMPDEST PUSH1 0x0 PUSH1 0x40 DUP3 ADD SWAP1 POP PUSH2 0x2AE4 PUSH1 0x0 DUP4 ADD DUP6 PUSH2 0x210B JUMP JUMPDEST PUSH2 0x2AF1 PUSH1 0x20 DUP4 ADD DUP5 PUSH2 0x223B JUMP JUMPDEST SWAP4 SWAP3 POP POP POP JUMP JUMPDEST PUSH1 0x0 DUP2 MLOAD SWAP1 POP PUSH2 0x2B07 DUP2 PUSH2 0x21D8 JUMP JUMPDEST SWAP3 SWAP2 POP POP JUMP JUMPDEST PUSH1 0x0 PUSH1 0x20 DUP3 DUP5 SUB SLT ISZERO PUSH2 0x2B23 JUMPI PUSH2 0x2B22 PUSH2 0x213F JUMP JUMPDEST JUMPDEST PUSH1 0x0 PUSH2 0x2B31 DUP5 DUP3 DUP6 ADD PUSH2 0x2AF8 JUMP JUMPDEST SWAP2 POP POP SWAP3 SWAP2 POP POP JUMP JUMPDEST PUSH32 0x546F6B656E207472616E73666572206661696C65640000000000000000000000 PUSH1 0x0 DUP3 ADD MSTORE POP JUMP JUMPDEST PUSH1 0x0 PUSH2 0x2B70 PUSH1 0x15 DUP4 PUSH2 0x2431 JUMP JUMPDEST SWAP2 POP PUSH2 0x2B7B DUP3 PUSH2 0x2B3A JUMP JUMPDEST PUSH1 0x20 DUP3 ADD SWAP1 POP SWAP2 SWAP1 POP JUMP JUMPDEST PUSH1 0x0 PUSH1 0x20 DUP3 ADD SWAP1 POP DUP2 DUP2 SUB PUSH1 0x0 DUP4 ADD MSTORE PUSH2 0x2B9F DUP2 PUSH2 0x2B63 JUMP JUMPDEST SWAP1 POP SWAP2 SWAP1 POP JUMP JUMPDEST PUSH1 0x0 PUSH1 0x60 DUP3 ADD SWAP1 POP PUSH2 0x2BBB PUSH1 0x0 DUP4 ADD DUP7 PUSH2 0x210B JUMP JUMPDEST PUSH2 0x2BC8 PUSH1 0x20 DUP4 ADD DUP6 PUSH2 0x223B JUMP JUMPDEST PUSH2 0x2BD5 PUSH1 0x40 DUP4 ADD DUP5 PUSH2 0x210B JUMP JUMPDEST SWAP5 SWAP4 POP POP POP POP JUMP JUMPDEST PUSH32 0x436F72652077616C6C6574207472616E73666572206661696C65640000000000 PUSH1 0x0 DUP3 ADD MSTORE POP JUMP JUMPDEST PUSH1 0x0 PUSH2 0x2C13 PUSH1 0x1B DUP4 PUSH2 0x2431 JUMP JUMPDEST SWAP2 POP PUSH2 0x2C1E DUP3 PUSH2 0x2BDD JUMP JUMPDEST PUSH1 0x20 DUP3 ADD SWAP1 POP SWAP2 SWAP1 POP JUMP JUMPDEST PUSH1 0x0 PUSH1 0x20 DUP3 ADD SWAP1 POP DUP2 DUP2 SUB PUSH1 0x0 DUP4 ADD MSTORE PUSH2 0x2C42 DUP2 PUSH2 0x2C06 JUMP JUMPDEST SWAP1 POP SWAP2 SWAP1 POP JUMP JUMPDEST PUSH32 0x5465616D2077616C6C6574207472616E73666572206661696C65640000000000 PUSH1 0x0 DUP3 ADD MSTORE POP JUMP JUMPDEST PUSH1 0x0 PUSH2 0x2C7F PUSH1 0x1B DUP4 PUSH2 0x2431 JUMP JUMPDEST SWAP2 POP PUSH2 0x2C8A DUP3 PUSH2 0x2C49 JUMP JUMPDEST PUSH1 0x20 DUP3 ADD SWAP1 POP SWAP2 SWAP1 POP JUMP JUMPDEST PUSH1 0x0 PUSH1 0x20 DUP3 ADD SWAP1 POP DUP2 DUP2 SUB PUSH1 0x0 DUP4 ADD MSTORE PUSH2 0x2CAE DUP2 PUSH2 0x2C72 JUMP JUMPDEST SWAP1 POP SWAP2 SWAP1 POP JUMP JUMPDEST PUSH32 0x556E617574686F72697A65643A204F6E6C79206F776E6572206F722077686974 PUSH1 0x0 DUP3 ADD MSTORE PUSH32 0x656C6973746564204E4654000000000000000000000000000000000000000000 PUSH1 0x20 DUP3 ADD MSTORE POP JUMP JUMPDEST PUSH1 0x0 PUSH2 0x2D11 PUSH1 0x2B DUP4 PUSH2 0x2431 JUMP JUMPDEST SWAP2 POP PUSH2 0x2D1C DUP3 PUSH2 0x2CB5 JUMP JUMPDEST PUSH1 0x40 DUP3 ADD SWAP1 POP SWAP2 SWAP1 POP JUMP JUMPDEST PUSH1 0x0 PUSH1 0x20 DUP3 ADD SWAP1 POP DUP2 DUP2 SUB PUSH1 0x0 DUP4 ADD MSTORE PUSH2 0x2D40 DUP2 PUSH2 0x2D04 JUMP JUMPDEST SWAP1 POP SWAP2 SWAP1 POP JUMP JUMPDEST PUSH32 0x4E6F20636F72652062616C616E636520746F206275726E000000000000000000 PUSH1 0x0 DUP3 ADD MSTORE POP JUMP JUMPDEST PUSH1 0x0 PUSH2 0x2D7D PUSH1 0x17 DUP4 PUSH2 0x2431 JUMP JUMPDEST SWAP2 POP PUSH2 0x2D88 DUP3 PUSH2 0x2D47 JUMP JUMPDEST PUSH1 0x20 DUP3 ADD SWAP1 POP SWAP2 SWAP1 POP JUMP JUMPDEST PUSH1 0x0 PUSH1 0x20 DUP3 ADD SWAP1 POP DUP2 DUP2 SUB PUSH1 0x0 DUP4 ADD MSTORE PUSH2 0x2DAC DUP2 PUSH2 0x2D70 JUMP JUMPDEST SWAP1 POP SWAP2 SWAP1 POP JUMP JUMPDEST PUSH1 0x0 DUP2 PUSH1 0x60 SHL SWAP1 POP SWAP2 SWAP1 POP JUMP JUMPDEST PUSH1 0x0 PUSH2 0x2DCB DUP3 PUSH2 0x2DB3 JUMP JUMPDEST SWAP1 POP SWAP2 SWAP1 POP JUMP JUMPDEST PUSH1 0x0 PUSH2 0x2DDD DUP3 PUSH2 0x2DC0 JUMP JUMPDEST SWAP1 POP SWAP2 SWAP1 POP JUMP JUMPDEST PUSH2 0x2DF5 PUSH2 0x2DF0 DUP3 PUSH2 0x20F9 JUMP JUMPDEST PUSH2 0x2DD2 JUMP JUMPDEST DUP3 MSTORE POP POP JUMP JUMPDEST PUSH1 0x0 PUSH3 0xFFFFFF DUP3 AND SWAP1 POP SWAP2 SWAP1 POP JUMP JUMPDEST PUSH1 0x0 DUP2 PUSH1 0xE8 SHL SWAP1 POP SWAP2 SWAP1 POP JUMP JUMPDEST PUSH1 0x0 PUSH2 0x2E22 DUP3 PUSH2 0x2E0A JUMP JUMPDEST SWAP1 POP SWAP2 SWAP1 POP JUMP JUMPDEST PUSH2 0x2E3A PUSH2 0x2E35 DUP3 PUSH2 0x2DFB JUMP JUMPDEST PUSH2 0x2E17 JUMP JUMPDEST DUP3 MSTORE POP POP JUMP JUMPDEST PUSH1 0x0 PUSH2 0x2E4C DUP3 DUP7 PUSH2 0x2DE4 JUMP JUMPDEST PUSH1 0x14 DUP3 ADD SWAP2 POP PUSH2 0x2E5C DUP3 DUP6 PUSH2 0x2E29 JUMP JUMPDEST PUSH1 0x3 DUP3 ADD SWAP2 POP PUSH2 0x2E6C DUP3 DUP5 PUSH2 0x2DE4 JUMP JUMPDEST PUSH1 0x14 DUP3 ADD SWAP2 POP DUP2 SWAP1 POP SWAP5 SWAP4 POP POP POP POP JUMP JUMPDEST PUSH1 0x0 DUP2 MLOAD SWAP1 POP SWAP2 SWAP1 POP JUMP JUMPDEST PUSH1 0x0 DUP3 DUP3 MSTORE PUSH1 0x20 DUP3 ADD SWAP1 POP SWAP3 SWAP2 POP POP JUMP JUMPDEST PUSH1 0x0 JUMPDEST DUP4 DUP2 LT ISZERO PUSH2 0x2EB7 JUMPI DUP1 DUP3 ADD MLOAD DUP2 DUP5 ADD MSTORE PUSH1 0x20 DUP2 ADD SWAP1 POP PUSH2 0x2E9C JUMP JUMPDEST PUSH1 0x0 DUP5 DUP5 ADD MSTORE POP POP POP POP JUMP JUMPDEST PUSH1 0x0 PUSH1 0x1F NOT PUSH1 0x1F DUP4 ADD AND SWAP1 POP SWAP2 SWAP1 POP JUMP JUMPDEST PUSH1 0x0 PUSH2 0x2EDF DUP3 PUSH2 0x2E7D JUMP JUMPDEST PUSH2 0x2EE9 DUP2 DUP6 PUSH2 0x2E88 JUMP JUMPDEST SWAP4 POP PUSH2 0x2EF9 DUP2 DUP6 PUSH1 0x20 DUP7 ADD PUSH2 0x2E99 JUMP JUMPDEST PUSH2 0x2F02 DUP2 PUSH2 0x2EC3 JUMP JUMPDEST DUP5 ADD SWAP2 POP POP SWAP3 SWAP2 POP POP JUMP JUMPDEST PUSH2 0x2F16 DUP2 PUSH2 0x20F9 JUMP JUMPDEST DUP3 MSTORE POP POP JUMP JUMPDEST PUSH2 0x2F25 DUP2 PUSH2 0x2231 JUMP JUMPDEST DUP3 MSTORE POP POP JUMP JUMPDEST PUSH1 0x0 PUSH1 0x80 DUP4 ADD PUSH1 0x0 DUP4 ADD MLOAD DUP5 DUP3 SUB PUSH1 0x0 DUP7 ADD MSTORE PUSH2 0x2F48 DUP3 DUP3 PUSH2 0x2ED4 JUMP JUMPDEST SWAP2 POP POP PUSH1 0x20 DUP4 ADD MLOAD PUSH2 0x2F5D PUSH1 0x20 DUP7 ADD DUP3 PUSH2 0x2F0D JUMP JUMPDEST POP PUSH1 0x40 DUP4 ADD MLOAD PUSH2 0x2F70 PUSH1 0x40 DUP7 ADD DUP3 PUSH2 0x2F1C JUMP JUMPDEST POP PUSH1 0x60 DUP4 ADD MLOAD PUSH2 0x2F83 PUSH1 0x60 DUP7 ADD DUP3 PUSH2 0x2F1C JUMP JUMPDEST POP DUP1 SWAP2 POP POP SWAP3 SWAP2 POP POP JUMP JUMPDEST PUSH1 0x0 PUSH1 0x20 DUP3 ADD SWAP1 POP DUP2 DUP2 SUB PUSH1 0x0 DUP4 ADD MSTORE PUSH2 0x2FA8 DUP2 DUP5 PUSH2 0x2F2B JUMP JUMPDEST SWAP1 POP SWAP3 SWAP2 POP POP JUMP JUMPDEST PUSH32 0x4E487B7100000000000000000000000000000000000000000000000000000000 PUSH1 0x0 MSTORE PUSH1 0x41 PUSH1 0x4 MSTORE PUSH1 0x24 PUSH1 0x0 REVERT JUMPDEST PUSH32 0x4E487B7100000000000000000000000000000000000000000000000000000000 PUSH1 0x0 MSTORE PUSH1 0x32 PUSH1 0x4 MSTORE PUSH1 0x24 PUSH1 0x0 REVERT JUMPDEST PUSH1 0x0 DUP2 MLOAD SWAP1 POP SWAP2 SWAP1 POP JUMP JUMPDEST PUSH1 0x0 DUP3 DUP3 MSTORE PUSH1 0x20 DUP3 ADD SWAP1 POP SWAP3 SWAP2 POP POP JUMP JUMPDEST PUSH1 0x0 DUP2 SWAP1 POP PUSH1 0x20 DUP3 ADD SWAP1 POP SWAP2 SWAP1 POP JUMP JUMPDEST PUSH1 0x0 PUSH2 0x3046 DUP4 DUP4 PUSH2 0x2F0D JUMP JUMPDEST PUSH1 0x20 DUP4 ADD SWAP1 POP SWAP3 SWAP2 POP POP JUMP JUMPDEST PUSH1 0x0 PUSH1 0x20 DUP3 ADD SWAP1 POP SWAP2 SWAP1 POP JUMP JUMPDEST PUSH1 0x0 PUSH2 0x306A DUP3 PUSH2 0x300E JUMP JUMPDEST PUSH2 0x3074 DUP2 DUP6 PUSH2 0x3019 JUMP JUMPDEST SWAP4 POP PUSH2 0x307F DUP4 PUSH2 0x302A JUMP JUMPDEST DUP1 PUSH1 0x0 JUMPDEST DUP4 DUP2 LT ISZERO PUSH2 0x30B0 JUMPI DUP2 MLOAD PUSH2 0x3097 DUP9 DUP3 PUSH2 0x303A JUMP JUMPDEST SWAP8 POP PUSH2 0x30A2 DUP4 PUSH2 0x3052 JUMP JUMPDEST SWAP3 POP POP PUSH1 0x1 DUP2 ADD SWAP1 POP PUSH2 0x3083 JUMP JUMPDEST POP DUP6 SWAP4 POP POP POP POP SWAP3 SWAP2 POP POP JUMP JUMPDEST PUSH1 0x0 PUSH1 0x40 DUP3 ADD SWAP1 POP PUSH2 0x30D2 PUSH1 0x0 DUP4 ADD DUP6 PUSH2 0x223B JUMP JUMPDEST DUP2 DUP2 SUB PUSH1 0x20 DUP4 ADD MSTORE PUSH2 0x30E4 DUP2 DUP5 PUSH2 0x305F JUMP JUMPDEST SWAP1 POP SWAP4 SWAP3 POP POP POP JUMP JUMPDEST PUSH1 0x0 DUP1 REVERT JUMPDEST PUSH2 0x30FB DUP3 PUSH2 0x2EC3 JUMP JUMPDEST DUP2 ADD DUP2 DUP2 LT PUSH8 0xFFFFFFFFFFFFFFFF DUP3 GT OR ISZERO PUSH2 0x311A JUMPI PUSH2 0x3119 PUSH2 0x2FB0 JUMP JUMPDEST JUMPDEST DUP1 PUSH1 0x40 MSTORE POP POP POP JUMP JUMPDEST PUSH1 0x0 PUSH2 0x312D PUSH2 0x2135 JUMP JUMPDEST SWAP1 POP PUSH2 0x3139 DUP3 DUP3 PUSH2 0x30F2 JUMP JUMPDEST SWAP2 SWAP1 POP JUMP JUMPDEST PUSH1 0x0 PUSH8 0xFFFFFFFFFFFFFFFF DUP3 GT ISZERO PUSH2 0x3159 JUMPI PUSH2 0x3158 PUSH2 0x2FB0 JUMP JUMPDEST JUMPDEST PUSH1 0x20 DUP3 MUL SWAP1 POP PUSH1 0x20 DUP2 ADD SWAP1 POP SWAP2 SWAP1 POP JUMP JUMPDEST PUSH1 0x0 DUP1 REVERT JUMPDEST PUSH1 0x0 PUSH2 0x3182 PUSH2 0x317D DUP5 PUSH2 0x313E JUMP JUMPDEST PUSH2 0x3123 JUMP JUMPDEST SWAP1 POP DUP1 DUP4 DUP3 MSTORE PUSH1 0x20 DUP3 ADD SWAP1 POP PUSH1 0x20 DUP5 MUL DUP4 ADD DUP6 DUP2 GT ISZERO PUSH2 0x31A5 JUMPI PUSH2 0x31A4 PUSH2 0x316A JUMP JUMPDEST JUMPDEST DUP4 JUMPDEST DUP2 DUP2 LT ISZERO PUSH2 0x31CE JUMPI DUP1 PUSH2 0x31BA DUP9 DUP3 PUSH2 0x238C JUMP JUMPDEST DUP5 MSTORE PUSH1 0x20 DUP5 ADD SWAP4 POP POP PUSH1 0x20 DUP2 ADD SWAP1 POP PUSH2 0x31A7 JUMP JUMPDEST POP POP POP SWAP4 SWAP3 POP POP POP JUMP JUMPDEST PUSH1 0x0 DUP3 PUSH1 0x1F DUP4 ADD SLT PUSH2 0x31ED JUMPI PUSH2 0x31EC PUSH2 0x30ED JUMP JUMPDEST JUMPDEST DUP2 MLOAD PUSH2 0x31FD DUP5 DUP3 PUSH1 0x20 DUP7 ADD PUSH2 0x316F JUMP JUMPDEST SWAP2 POP POP SWAP3 SWAP2 POP POP JUMP JUMPDEST PUSH1 0x0 PUSH1 0x20 DUP3 DUP5 SUB SLT ISZERO PUSH2 0x321C JUMPI PUSH2 0x321B PUSH2 0x213F JUMP JUMPDEST JUMPDEST PUSH1 0x0 DUP3 ADD MLOAD PUSH8 0xFFFFFFFFFFFFFFFF DUP2 GT ISZERO PUSH2 0x323A JUMPI PUSH2 0x3239 PUSH2 0x2144 JUMP JUMPDEST JUMPDEST PUSH2 0x3246 DUP5 DUP3 DUP6 ADD PUSH2 0x31D8 JUMP JUMPDEST SWAP2 POP POP SWAP3 SWAP2 POP POP JUMP JUMPDEST PUSH1 0x0 PUSH1 0xA0 DUP3 ADD SWAP1 POP PUSH2 0x3264 PUSH1 0x0 DUP4 ADD DUP9 PUSH2 0x223B JUMP JUMPDEST PUSH2 0x3271 PUSH1 0x20 DUP4 ADD DUP8 PUSH2 0x223B JUMP JUMPDEST DUP2 DUP2 SUB PUSH1 0x40 DUP4 ADD MSTORE PUSH2 0x3283 DUP2 DUP7 PUSH2 0x305F JUMP JUMPDEST SWAP1 POP PUSH2 0x3292 PUSH1 0x60 DUP4 ADD DUP6 PUSH2 0x210B JUMP JUMPDEST PUSH2 0x329F PUSH1 0x80 DUP4 ADD DUP5 PUSH2 0x223B JUMP JUMPDEST SWAP7 SWAP6 POP POP POP POP POP POP JUMP INVALID LOG2 PUSH5 0x6970667358 0x22 SLT KECCAK256 0xF9 0xF6 0xF6 CALLDATASIZE SELFDESTRUCT 0xC0 0xA8 0xE9 SWAP12 GT LT 0xD2 SWAP4 CODESIZE 0xE PUSH1 0xB7 0xE2 MSTORE8 0xD7 0xD6 0x29 DIV PUSH26 0x78C454186D31E20364736F6C6343000814003300000000000000 "
				},
				"gasEstimates": {
					"creation": {
						"codeDepositCost": "2604600",
						"executionCost": "infinite",
						"totalCost": "infinite"
					},
					"external": {
						"": "infinite",
						"BURN_ADDRESS()": "infinite",
						"DEAD_ADDRESS()": "infinite",
						"WETN()": "infinite",
						"addWhitelistedNFT(address)": "infinite",
						"autoBuyAndBurn()": "2538",
						"autoBuyAndBurnCore()": "2611",
						"club()": "infinite",
						"clubBalance()": "2563",
						"coreBalance()": "2497",
						"coreToken()": "infinite",
						"coreWallet()": "infinite",
						"isWhitelistedNFT(address)": "2951",
						"manualBuyAndBurn()": "infinite",
						"manualBuyAndBurnCore()": "infinite",
						"owner()": "2611",
						"processIncomingTokens()": "infinite",
						"removeWhitelistedNFT(address)": "infinite",
						"renounceOwnership()": "infinite",
						"rescueETH(uint256,address)": "infinite",
						"rescueTokens(address,uint256,address)": "infinite",
						"setAutoBuyAndBurn(bool)": "infinite",
						"setAutoBuyAndBurnCore(bool)": "infinite",
						"teamBalance()": "2496",
						"teamWallet()": "infinite",
						"teamWithdraw()": "infinite",
						"transferOwnership(address)": "infinite",
						"whitelistedNFTs(address)": "2891"
					},
					"internal": {
						"_buyAndBurn()": "infinite",
						"_buyAndBurnCore()": "infinite",
						"_processIncomingFee(uint256)": "infinite"
					}
				},
				"methodIdentifiers": {
					"BURN_ADDRESS()": "fccc2813",
					"DEAD_ADDRESS()": "4e6fd6c4",
					"WETN()": "66650b7b",
					"addWhitelistedNFT(address)": "8465093e",
					"autoBuyAndBurn()": "ba779ed5",
					"autoBuyAndBurnCore()": "7581aa60",
					"club()": "0efd0973",
					"clubBalance()": "3d65de44",
					"coreBalance()": "7499aff4",
					"coreToken()": "0c2b72e9",
					"coreWallet()": "62ab05e7",
					"isWhitelistedNFT(address)": "138b7338",
					"manualBuyAndBurn()": "57d1fdcd",
					"manualBuyAndBurnCore()": "dc1a4d9e",
					"owner()": "8da5cb5b",
					"processIncomingTokens()": "dc05a309",
					"removeWhitelistedNFT(address)": "210009cf",
					"renounceOwnership()": "715018a6",
					"rescueETH(uint256,address)": "a0558c3f",
					"rescueTokens(address,uint256,address)": "b37fd190",
					"setAutoBuyAndBurn(bool)": "2b7459b9",
					"setAutoBuyAndBurnCore(bool)": "6cdf0e40",
					"teamBalance()": "89e85217",
					"teamWallet()": "59927044",
					"teamWithdraw()": "cfbb7d36",
					"transferOwnership(address)": "f2fde38b",
					"whitelistedNFTs(address)": "3f0c188f"
				}
			},
			"storageLayout": {
				"storage": [
					{
						"astId": 188,
						"contract": "contracts/VerdantKinFeeReflection.sol:VerdantKinFeeReflection",
						"label": "_status",
						"offset": 0,
						"slot": "0",
						"type": "t_uint256"
					},
					{
						"astId": 8,
						"contract": "contracts/VerdantKinFeeReflection.sol:VerdantKinFeeReflection",
						"label": "_owner",
						"offset": 0,
						"slot": "1",
						"type": "t_address"
					},
					{
						"astId": 279,
						"contract": "contracts/VerdantKinFeeReflection.sol:VerdantKinFeeReflection",
						"label": "v3Router",
						"offset": 0,
						"slot": "2",
						"type": "t_contract(V3Router)1161"
					},
					{
						"astId": 282,
						"contract": "contracts/VerdantKinFeeReflection.sol:VerdantKinFeeReflection",
						"label": "v2Router",
						"offset": 0,
						"slot": "3",
						"type": "t_contract(UniswapV2Router)1190"
					},
					{
						"astId": 286,
						"contract": "contracts/VerdantKinFeeReflection.sol:VerdantKinFeeReflection",
						"label": "whitelistedNFTs",
						"offset": 0,
						"slot": "4",
						"type": "t_mapping(t_address,t_bool)"
					},
					{
						"astId": 288,
						"contract": "contracts/VerdantKinFeeReflection.sol:VerdantKinFeeReflection",
						"label": "clubBalance",
						"offset": 0,
						"slot": "5",
						"type": "t_uint256"
					},
					{
						"astId": 290,
						"contract": "contracts/VerdantKinFeeReflection.sol:VerdantKinFeeReflection",
						"label": "coreBalance",
						"offset": 0,
						"slot": "6",
						"type": "t_uint256"
					},
					{
						"astId": 292,
						"contract": "contracts/VerdantKinFeeReflection.sol:VerdantKinFeeReflection",
						"label": "teamBalance",
						"offset": 0,
						"slot": "7",
						"type": "t_uint256"
					},
					{
						"astId": 294,
						"contract": "contracts/VerdantKinFeeReflection.sol:VerdantKinFeeReflection",
						"label": "autoBuyAndBurn",
						"offset": 0,
						"slot": "8",
						"type": "t_bool"
					},
					{
						"astId": 296,
						"contract": "contracts/VerdantKinFeeReflection.sol:VerdantKinFeeReflection",
						"label": "autoBuyAndBurnCore",
						"offset": 1,
						"slot": "8",
						"type": "t_bool"
					}
				],
				"types": {
					"t_address": {
						"encoding": "inplace",
						"label": "address",
						"numberOfBytes": "20"
					},
					"t_bool": {
						"encoding": "inplace",
						"label": "bool",
						"numberOfBytes": "1"
					},
					"t_contract(UniswapV2Router)1190": {
						"encoding": "inplace",
						"label": "contract UniswapV2Router",
						"numberOfBytes": "20"
					},
					"t_contract(V3Router)1161": {
						"encoding": "inplace",
						"label": "contract V3Router",
						"numberOfBytes": "20"
					},
					"t_mapping(t_address,t_bool)": {
						"encoding": "mapping",
						"key": "t_address",
						"label": "mapping(address => bool)",
						"numberOfBytes": "32",
						"value": "t_bool"
					},
					"t_uint256": {
						"encoding": "inplace",
						"label": "uint256",
						"numberOfBytes": "32"
					}
				}
			},
			"userdoc": {
				"kind": "user",
				"methods": {
					"rescueETH(uint256,address)": {
						"notice": "Rescue any ETH accidentally sent to the contract"
					},
					"rescueTokens(address,uint256,address)": {
						"notice": "Rescue any ERC20 tokens (including WETN if not part of tracked balances)"
					}
				},
				"version": 1
			}
		}
	}
}