{
	"contracts/PlanetZephyrosFeeReflection.sol": {
		"PlanetZephyrosFeeReflection": {
			"abi": [
				{
					"inputs": [
						{
							"internalType": "address",
							"name": "v3RouterAddr",
							"type": "address"
						},
						{
							"internalType": "address",
							"name": "v2RouterAddr",
							"type": "address"
						},
						{
							"internalType": "address",
							"name": "_club",
							"type": "address"
						},
						{
							"internalType": "address",
							"name": "_coreToken",
							"type": "address"
						},
						{
							"internalType": "address",
							"name": "_wetn",
							"type": "address"
						},
						{
							"internalType": "address",
							"name": "_owner",
							"type": "address"
						},
						{
							"internalType": "address payable",
							"name": "_coreWallet",
							"type": "address"
						},
						{
							"internalType": "address payable",
							"name": "_teamWallet",
							"type": "address"
						}
					],
					"stateMutability": "nonpayable",
					"type": "constructor"
				},
				{
					"inputs": [
						{
							"internalType": "address",
							"name": "owner",
							"type": "address"
						}
					],
					"name": "OwnableInvalidOwner",
					"type": "error"
				},
				{
					"inputs": [
						{
							"internalType": "address",
							"name": "account",
							"type": "address"
						}
					],
					"name": "OwnableUnauthorizedAccount",
					"type": "error"
				},
				{
					"inputs": [],
					"name": "ReentrancyGuardReentrantCall",
					"type": "error"
				},
				{
					"anonymous": false,
					"inputs": [
						{
							"indexed": false,
							"internalType": "uint256",
							"name": "clubBurned",
							"type": "uint256"
						}
					],
					"name": "ClubBuyAndBurn",
					"type": "event"
				},
				{
					"anonymous": false,
					"inputs": [
						{
							"indexed": false,
							"internalType": "uint256",
							"name": "coreBurned",
							"type": "uint256"
						}
					],
					"name": "CoreBuyAndBurn",
					"type": "event"
				},
				{
					"anonymous": false,
					"inputs": [
						{
							"indexed": false,
							"internalType": "uint256",
							"name": "amount",
							"type": "uint256"
						},
						{
							"indexed": false,
							"internalType": "address",
							"name": "to",
							"type": "address"
						}
					],
					"name": "ETHRescued",
					"type": "event"
				},
				{
					"anonymous": false,
					"inputs": [
						{
							"indexed": false,
							"internalType": "uint256",
							"name": "amountIn",
							"type": "uint256"
						},
						{
							"indexed": false,
							"internalType": "uint256",
							"name": "coreShare",
							"type": "uint256"
						},
						{
							"indexed": false,
							"internalType": "uint256",
							"name": "teamShare",
							"type": "uint256"
						},
						{
							"indexed": false,
							"internalType": "uint256",
							"name": "clubShare",
							"type": "uint256"
						}
					],
					"name": "FeeProcessed",
					"type": "event"
				},
				{
					"anonymous": false,
					"inputs": [
						{
							"indexed": true,
							"internalType": "address",
							"name": "previousOwner",
							"type": "address"
						},
						{
							"indexed": true,
							"internalType": "address",
							"name": "newOwner",
							"type": "address"
						}
					],
					"name": "OwnershipTransferred",
					"type": "event"
				},
				{
					"anonymous": false,
					"inputs": [
						{
							"indexed": false,
							"internalType": "address",
							"name": "token",
							"type": "address"
						},
						{
							"indexed": false,
							"internalType": "uint256",
							"name": "amount",
							"type": "uint256"
						},
						{
							"indexed": false,
							"internalType": "address",
							"name": "to",
							"type": "address"
						}
					],
					"name": "TokensRescued",
					"type": "event"
				},
				{
					"stateMutability": "payable",
					"type": "fallback"
				},
				{
					"inputs": [],
					"name": "BURN_ADDRESS",
					"outputs": [
						{
							"internalType": "address",
							"name": "",
							"type": "address"
						}
					],
					"stateMutability": "view",
					"type": "function"
				},
				{
					"inputs": [],
					"name": "DEAD_ADDRESS",
					"outputs": [
						{
							"internalType": "address",
							"name": "",
							"type": "address"
						}
					],
					"stateMutability": "view",
					"type": "function"
				},
				{
					"inputs": [],
					"name": "WETN",
					"outputs": [
						{
							"internalType": "address",
							"name": "",
							"type": "address"
						}
					],
					"stateMutability": "view",
					"type": "function"
				},
				{
					"inputs": [],
					"name": "autoBuyAndBurn",
					"outputs": [
						{
							"internalType": "bool",
							"name": "",
							"type": "bool"
						}
					],
					"stateMutability": "view",
					"type": "function"
				},
				{
					"inputs": [],
					"name": "autoBuyAndBurnCore",
					"outputs": [
						{
							"internalType": "bool",
							"name": "",
							"type": "bool"
						}
					],
					"stateMutability": "view",
					"type": "function"
				},
				{
					"inputs": [],
					"name": "club",
					"outputs": [
						{
							"internalType": "address",
							"name": "",
							"type": "address"
						}
					],
					"stateMutability": "view",
					"type": "function"
				},
				{
					"inputs": [],
					"name": "clubBalance",
					"outputs": [
						{
							"internalType": "uint256",
							"name": "",
							"type": "uint256"
						}
					],
					"stateMutability": "view",
					"type": "function"
				},
				{
					"inputs": [],
					"name": "coreBalance",
					"outputs": [
						{
							"internalType": "uint256",
							"name": "",
							"type": "uint256"
						}
					],
					"stateMutability": "view",
					"type": "function"
				},
				{
					"inputs": [],
					"name": "coreToken",
					"outputs": [
						{
							"internalType": "address",
							"name": "",
							"type": "address"
						}
					],
					"stateMutability": "view",
					"type": "function"
				},
				{
					"inputs": [],
					"name": "coreWallet",
					"outputs": [
						{
							"internalType": "address payable",
							"name": "",
							"type": "address"
						}
					],
					"stateMutability": "view",
					"type": "function"
				},
				{
					"inputs": [],
					"name": "manualBuyAndBurn",
					"outputs": [],
					"stateMutability": "nonpayable",
					"type": "function"
				},
				{
					"inputs": [],
					"name": "manualBuyAndBurnCore",
					"outputs": [],
					"stateMutability": "nonpayable",
					"type": "function"
				},
				{
					"inputs": [],
					"name": "owner",
					"outputs": [
						{
							"internalType": "address",
							"name": "",
							"type": "address"
						}
					],
					"stateMutability": "view",
					"type": "function"
				},
				{
					"inputs": [],
					"name": "processIncomingTokens",
					"outputs": [],
					"stateMutability": "nonpayable",
					"type": "function"
				},
				{
					"inputs": [],
					"name": "renounceOwnership",
					"outputs": [],
					"stateMutability": "nonpayable",
					"type": "function"
				},
				{
					"inputs": [
						{
							"internalType": "uint256",
							"name": "amount",
							"type": "uint256"
						},
						{
							"internalType": "address payable",
							"name": "to",
							"type": "address"
						}
					],
					"name": "rescueETH",
					"outputs": [],
					"stateMutability": "nonpayable",
					"type": "function"
				},
				{
					"inputs": [
						{
							"internalType": "address",
							"name": "token",
							"type": "address"
						},
						{
							"internalType": "uint256",
							"name": "amount",
							"type": "uint256"
						},
						{
							"internalType": "address",
							"name": "to",
							"type": "address"
						}
					],
					"name": "rescueTokens",
					"outputs": [],
					"stateMutability": "nonpayable",
					"type": "function"
				},
				{
					"inputs": [
						{
							"internalType": "bool",
							"name": "_autoBuyAndBurn",
							"type": "bool"
						}
					],
					"name": "setAutoBuyAndBurn",
					"outputs": [],
					"stateMutability": "nonpayable",
					"type": "function"
				},
				{
					"inputs": [
						{
							"internalType": "bool",
							"name": "_autoBuyAndBurnCore",
							"type": "bool"
						}
					],
					"name": "setAutoBuyAndBurnCore",
					"outputs": [],
					"stateMutability": "nonpayable",
					"type": "function"
				},
				{
					"inputs": [],
					"name": "teamBalance",
					"outputs": [
						{
							"internalType": "uint256",
							"name": "",
							"type": "uint256"
						}
					],
					"stateMutability": "view",
					"type": "function"
				},
				{
					"inputs": [],
					"name": "teamWallet",
					"outputs": [
						{
							"internalType": "address payable",
							"name": "",
							"type": "address"
						}
					],
					"stateMutability": "view",
					"type": "function"
				},
				{
					"inputs": [],
					"name": "teamWithdraw",
					"outputs": [],
					"stateMutability": "nonpayable",
					"type": "function"
				},
				{
					"inputs": [
						{
							"internalType": "address",
							"name": "newOwner",
							"type": "address"
						}
					],
					"name": "transferOwnership",
					"outputs": [],
					"stateMutability": "nonpayable",
					"type": "function"
				},
				{
					"stateMutability": "payable",
					"type": "receive"
				}
			],
			"devdoc": {
				"errors": {
					"OwnableInvalidOwner(address)": [
						{
							"details": "The owner is not a valid owner account. (eg. `address(0)`)"
						}
					],
					"OwnableUnauthorizedAccount(address)": [
						{
							"details": "The caller account is not authorized to perform an operation."
						}
					],
					"ReentrancyGuardReentrantCall()": [
						{
							"details": "Unauthorized reentrant call."
						}
					]
				},
				"kind": "dev",
				"methods": {
					"owner()": {
						"details": "Returns the address of the current owner."
					},
					"renounceOwnership()": {
						"details": "Leaves the contract without owner. It will not be possible to call `onlyOwner` functions. Can only be called by the current owner. NOTE: Renouncing ownership will leave the contract without an owner, thereby disabling any functionality that is only available to the owner."
					},
					"transferOwnership(address)": {
						"details": "Transfers ownership of the contract to a new account (`newOwner`). Can only be called by the current owner."
					}
				},
				"version": 1
			},
			"evm": {
				"assembly": "    /* \"contracts/PlanetZephyrosFeeReflection.sol\":178:9603  contract PlanetZephyrosFeeReflection is ReentrancyGuard, Ownable {... */\n  mstore(0x40, 0x0180)\n    /* \"contracts/PlanetZephyrosFeeReflection.sol\":873:915  0x000000000000000000000000000000000000dEaD */\n  0xdead\n    /* \"contracts/PlanetZephyrosFeeReflection.sol\":833:915  address public immutable DEAD_ADDRESS = 0x000000000000000000000000000000000000dEaD */\n  0xffffffffffffffffffffffffffffffffffffffff\n  and\n  0x0120\n  swap1\n  0xffffffffffffffffffffffffffffffffffffffff\n  and\n  dup2\n  mstore\n  pop\n    /* \"contracts/PlanetZephyrosFeeReflection.sol\":971:972  0 */\n  0x00\n    /* \"contracts/PlanetZephyrosFeeReflection.sol\":923:973  address public immutable BURN_ADDRESS = address(0) */\n  0xffffffffffffffffffffffffffffffffffffffff\n  and\n  0x0140\n  swap1\n  0xffffffffffffffffffffffffffffffffffffffff\n  and\n  dup2\n  mstore\n  pop\n    /* \"contracts/PlanetZephyrosFeeReflection.sol\":1049:1053  3000 */\n  0x0bb8\n    /* \"contracts/PlanetZephyrosFeeReflection.sol\":1014:1053  uint24 private immutable poolFee = 3000 */\n  0xffffff\n  and\n  0x0160\n  swap1\n  0xffffff\n  and\n  dup2\n  mstore\n  pop\n    /* \"contracts/PlanetZephyrosFeeReflection.sol\":2077:2793  constructor(... */\n  callvalue\n  dup1\n  iszero\n  tag_1\n  jumpi\n  0x00\n  dup1\n  revert\ntag_1:\n  pop\n  mload(0x40)\n  sub(codesize, bytecodeSize)\n  dup1\n  bytecodeSize\n  dup4\n  codecopy\n  dup2\n  dup2\n  add\n  0x40\n  mstore\n  dup2\n  add\n  swap1\n  tag_2\n  swap2\n  swap1\n  tag_3\n  jump\t// in\ntag_2:\n    /* \"contracts/PlanetZephyrosFeeReflection.sol\":2396:2402  _owner */\n  dup3\n    /* \"@openzeppelin/contracts/utils/ReentrancyGuard.sol\":1857:1858  1 */\n  0x01\n    /* \"@openzeppelin/contracts/utils/ReentrancyGuard.sol\":2061:2068  _status */\n  0x00\n    /* \"@openzeppelin/contracts/utils/ReentrancyGuard.sol\":2061:2082  _status = NOT_ENTERED */\n  dup2\n  swap1\n  sstore\n  pop\n    /* \"@openzeppelin/contracts/access/Ownable.sol\":1297:1298  0 */\n  0x00\n    /* \"@openzeppelin/contracts/access/Ownable.sol\":1273:1299  initialOwner == address(0) */\n  0xffffffffffffffffffffffffffffffffffffffff\n  and\n    /* \"@openzeppelin/contracts/access/Ownable.sol\":1273:1285  initialOwner */\n  dup2\n    /* \"@openzeppelin/contracts/access/Ownable.sol\":1273:1299  initialOwner == address(0) */\n  0xffffffffffffffffffffffffffffffffffffffff\n  and\n  sub\n    /* \"@openzeppelin/contracts/access/Ownable.sol\":1269:1364  if (initialOwner == address(0)) {... */\n  tag_9\n  jumpi\n    /* \"@openzeppelin/contracts/access/Ownable.sol\":1350:1351  0 */\n  0x00\n    /* \"@openzeppelin/contracts/access/Ownable.sol\":1322:1353  OwnableInvalidOwner(address(0)) */\n  mload(0x40)\n  0x1e4fbdf700000000000000000000000000000000000000000000000000000000\n  dup2\n  mstore\n  0x04\n  add\n  tag_10\n  swap2\n  swap1\n  tag_11\n  jump\t// in\ntag_10:\n  mload(0x40)\n  dup1\n  swap2\n  sub\n  swap1\n  revert\n    /* \"@openzeppelin/contracts/access/Ownable.sol\":1269:1364  if (initialOwner == address(0)) {... */\ntag_9:\n    /* \"@openzeppelin/contracts/access/Ownable.sol\":1373:1405  _transferOwnership(initialOwner) */\n  tag_12\n    /* \"@openzeppelin/contracts/access/Ownable.sol\":1392:1404  initialOwner */\n  dup2\n    /* \"@openzeppelin/contracts/access/Ownable.sol\":1373:1391  _transferOwnership */\n  shl(0x20, tag_13)\n    /* \"@openzeppelin/contracts/access/Ownable.sol\":1373:1405  _transferOwnership(initialOwner) */\n  0x20\n  shr\n  jump\t// in\ntag_12:\n    /* \"@openzeppelin/contracts/access/Ownable.sol\":1225:1412  constructor(address initialOwner) {... */\n  pop\n    /* \"contracts/PlanetZephyrosFeeReflection.sol\":2435:2447  v3RouterAddr */\n  dup8\n    /* \"contracts/PlanetZephyrosFeeReflection.sol\":2415:2423  v3Router */\n  0x02\n  0x00\n    /* \"contracts/PlanetZephyrosFeeReflection.sol\":2415:2448  v3Router = V3Router(v3RouterAddr) */\n  0x0100\n  exp\n  dup2\n  sload\n  dup2\n  0xffffffffffffffffffffffffffffffffffffffff\n  mul\n  not\n  and\n  swap1\n  dup4\n  0xffffffffffffffffffffffffffffffffffffffff\n  and\n  mul\n  or\n  swap1\n  sstore\n  pop\n    /* \"contracts/PlanetZephyrosFeeReflection.sol\":2486:2498  v2RouterAddr */\n  dup7\n    /* \"contracts/PlanetZephyrosFeeReflection.sol\":2459:2467  v2Router */\n  0x03\n  0x00\n    /* \"contracts/PlanetZephyrosFeeReflection.sol\":2459:2499  v2Router = UniswapV2Router(v2RouterAddr) */\n  0x0100\n  exp\n  dup2\n  sload\n  dup2\n  0xffffffffffffffffffffffffffffffffffffffff\n  mul\n  not\n  and\n  swap1\n  dup4\n  0xffffffffffffffffffffffffffffffffffffffff\n  and\n  mul\n  or\n  swap1\n  sstore\n  pop\n    /* \"contracts/PlanetZephyrosFeeReflection.sol\":2539:2544  _club */\n  dup6\n    /* \"contracts/PlanetZephyrosFeeReflection.sol\":2532:2544  club = _club */\n  0xffffffffffffffffffffffffffffffffffffffff\n  and\n  0xc0\n  dup2\n  0xffffffffffffffffffffffffffffffffffffffff\n  and\n  dup2\n  mstore\n  pop\n  pop\n    /* \"contracts/PlanetZephyrosFeeReflection.sol\":2567:2577  _coreToken */\n  dup5\n    /* \"contracts/PlanetZephyrosFeeReflection.sol\":2555:2577  coreToken = _coreToken */\n  0xffffffffffffffffffffffffffffffffffffffff\n  and\n  0xe0\n  dup2\n  0xffffffffffffffffffffffffffffffffffffffff\n  and\n  dup2\n  mstore\n  pop\n  pop\n    /* \"contracts/PlanetZephyrosFeeReflection.sol\":2618:2623  _wetn */\n  dup4\n    /* \"contracts/PlanetZephyrosFeeReflection.sol\":2611:2623  WETN = _wetn */\n  0xffffffffffffffffffffffffffffffffffffffff\n  and\n  0x0100\n  dup2\n  0xffffffffffffffffffffffffffffffffffffffff\n  and\n  dup2\n  mstore\n  pop\n  pop\n    /* \"contracts/PlanetZephyrosFeeReflection.sol\":2647:2658  _coreWallet */\n  dup2\n    /* \"contracts/PlanetZephyrosFeeReflection.sol\":2634:2658  coreWallet = _coreWallet */\n  0xffffffffffffffffffffffffffffffffffffffff\n  and\n  0x80\n  dup2\n  0xffffffffffffffffffffffffffffffffffffffff\n  and\n  dup2\n  mstore\n  pop\n  pop\n    /* \"contracts/PlanetZephyrosFeeReflection.sol\":2682:2693  _teamWallet */\n  dup1\n    /* \"contracts/PlanetZephyrosFeeReflection.sol\":2669:2693  teamWallet = _teamWallet */\n  0xffffffffffffffffffffffffffffffffffffffff\n  and\n  0xa0\n  dup2\n  0xffffffffffffffffffffffffffffffffffffffff\n  and\n  dup2\n  mstore\n  pop\n  pop\n    /* \"contracts/PlanetZephyrosFeeReflection.sol\":2721:2725  true */\n  0x01\n    /* \"contracts/PlanetZephyrosFeeReflection.sol\":2704:2718  autoBuyAndBurn */\n  0x07\n  0x00\n    /* \"contracts/PlanetZephyrosFeeReflection.sol\":2704:2725  autoBuyAndBurn = true */\n  0x0100\n  exp\n  dup2\n  sload\n  dup2\n  0xff\n  mul\n  not\n  and\n  swap1\n  dup4\n  iszero\n  iszero\n  mul\n  or\n  swap1\n  sstore\n  pop\n    /* \"contracts/PlanetZephyrosFeeReflection.sol\":2757:2761  true */\n  0x01\n    /* \"contracts/PlanetZephyrosFeeReflection.sol\":2736:2754  autoBuyAndBurnCore */\n  0x07\n  0x01\n    /* \"contracts/PlanetZephyrosFeeReflection.sol\":2736:2761  autoBuyAndBurnCore = true */\n  0x0100\n  exp\n  dup2\n  sload\n  dup2\n  0xff\n  mul\n  not\n  and\n  swap1\n  dup4\n  iszero\n  iszero\n  mul\n  or\n  swap1\n  sstore\n  pop\n    /* \"contracts/PlanetZephyrosFeeReflection.sol\":2077:2793  constructor(... */\n  pop\n  pop\n  pop\n  pop\n  pop\n  pop\n  pop\n  pop\n    /* \"contracts/PlanetZephyrosFeeReflection.sol\":178:9603  contract PlanetZephyrosFeeReflection is ReentrancyGuard, Ownable {... */\n  jump(tag_15)\n    /* \"@openzeppelin/contracts/access/Ownable.sol\":2912:3099  function _transferOwnership(address newOwner) internal virtual {... */\ntag_13:\n    /* \"@openzeppelin/contracts/access/Ownable.sol\":2985:3001  address oldOwner */\n  0x00\n    /* \"@openzeppelin/contracts/access/Ownable.sol\":3004:3010  _owner */\n  0x01\n  0x00\n  swap1\n  sload\n  swap1\n  0x0100\n  exp\n  swap1\n  div\n  0xffffffffffffffffffffffffffffffffffffffff\n  and\n    /* \"@openzeppelin/contracts/access/Ownable.sol\":2985:3010  address oldOwner = _owner */\n  swap1\n  pop\n    /* \"@openzeppelin/contracts/access/Ownable.sol\":3029:3037  newOwner */\n  dup2\n    /* \"@openzeppelin/contracts/access/Ownable.sol\":3020:3026  _owner */\n  0x01\n  0x00\n    /* \"@openzeppelin/contracts/access/Ownable.sol\":3020:3037  _owner = newOwner */\n  0x0100\n  exp\n  dup2\n  sload\n  dup2\n  0xffffffffffffffffffffffffffffffffffffffff\n  mul\n  not\n  and\n  swap1\n  dup4\n  0xffffffffffffffffffffffffffffffffffffffff\n  and\n  mul\n  or\n  swap1\n  sstore\n  pop\n    /* \"@openzeppelin/contracts/access/Ownable.sol\":3083:3091  newOwner */\n  dup2\n    /* \"@openzeppelin/contracts/access/Ownable.sol\":3052:3092  OwnershipTransferred(oldOwner, newOwner) */\n  0xffffffffffffffffffffffffffffffffffffffff\n  and\n    /* \"@openzeppelin/contracts/access/Ownable.sol\":3073:3081  oldOwner */\n  dup2\n    /* \"@openzeppelin/contracts/access/Ownable.sol\":3052:3092  OwnershipTransferred(oldOwner, newOwner) */\n  0xffffffffffffffffffffffffffffffffffffffff\n  and\n  0x8be0079c531659141344cd1fd0a4f28419497f9722a3daafe3b4186f6b6457e0\n  mload(0x40)\n  mload(0x40)\n  dup1\n  swap2\n  sub\n  swap1\n  log3\n    /* \"@openzeppelin/contracts/access/Ownable.sol\":2975:3099  {... */\n  pop\n    /* \"@openzeppelin/contracts/access/Ownable.sol\":2912:3099  function _transferOwnership(address newOwner) internal virtual {... */\n  pop\n  jump\t// out\n    /* \"#utility.yul\":88:205   */\ntag_18:\n    /* \"#utility.yul\":197:198   */\n  0x00\n    /* \"#utility.yul\":194:195   */\n  dup1\n    /* \"#utility.yul\":187:199   */\n  revert\n    /* \"#utility.yul\":334:460   */\ntag_20:\n    /* \"#utility.yul\":371:378   */\n  0x00\n    /* \"#utility.yul\":411:453   */\n  0xffffffffffffffffffffffffffffffffffffffff\n    /* \"#utility.yul\":404:409   */\n  dup3\n    /* \"#utility.yul\":400:454   */\n  and\n    /* \"#utility.yul\":389:454   */\n  swap1\n  pop\n    /* \"#utility.yul\":334:460   */\n  swap2\n  swap1\n  pop\n  jump\t// out\n    /* \"#utility.yul\":466:562   */\ntag_21:\n    /* \"#utility.yul\":503:510   */\n  0x00\n    /* \"#utility.yul\":532:556   */\n  tag_34\n    /* \"#utility.yul\":550:555   */\n  dup3\n    /* \"#utility.yul\":532:556   */\n  tag_20\n  jump\t// in\ntag_34:\n    /* \"#utility.yul\":521:556   */\n  swap1\n  pop\n    /* \"#utility.yul\":466:562   */\n  swap2\n  swap1\n  pop\n  jump\t// out\n    /* \"#utility.yul\":568:690   */\ntag_22:\n    /* \"#utility.yul\":641:665   */\n  tag_36\n    /* \"#utility.yul\":659:664   */\n  dup2\n    /* \"#utility.yul\":641:665   */\n  tag_21\n  jump\t// in\ntag_36:\n    /* \"#utility.yul\":634:639   */\n  dup2\n    /* \"#utility.yul\":631:666   */\n  eq\n    /* \"#utility.yul\":621:684   */\n  tag_37\n  jumpi\n    /* \"#utility.yul\":680:681   */\n  0x00\n    /* \"#utility.yul\":677:678   */\n  dup1\n    /* \"#utility.yul\":670:682   */\n  revert\n    /* \"#utility.yul\":621:684   */\ntag_37:\n    /* \"#utility.yul\":568:690   */\n  pop\n  jump\t// out\n    /* \"#utility.yul\":696:839   */\ntag_23:\n    /* \"#utility.yul\":753:758   */\n  0x00\n    /* \"#utility.yul\":784:790   */\n  dup2\n    /* \"#utility.yul\":778:791   */\n  mload\n    /* \"#utility.yul\":769:791   */\n  swap1\n  pop\n    /* \"#utility.yul\":800:833   */\n  tag_39\n    /* \"#utility.yul\":827:832   */\n  dup2\n    /* \"#utility.yul\":800:833   */\n  tag_22\n  jump\t// in\ntag_39:\n    /* \"#utility.yul\":696:839   */\n  swap3\n  swap2\n  pop\n  pop\n  jump\t// out\n    /* \"#utility.yul\":845:949   */\ntag_24:\n    /* \"#utility.yul\":890:897   */\n  0x00\n    /* \"#utility.yul\":919:943   */\n  tag_41\n    /* \"#utility.yul\":937:942   */\n  dup3\n    /* \"#utility.yul\":919:943   */\n  tag_20\n  jump\t// in\ntag_41:\n    /* \"#utility.yul\":908:943   */\n  swap1\n  pop\n    /* \"#utility.yul\":845:949   */\n  swap2\n  swap1\n  pop\n  jump\t// out\n    /* \"#utility.yul\":955:1093   */\ntag_25:\n    /* \"#utility.yul\":1036:1068   */\n  tag_43\n    /* \"#utility.yul\":1062:1067   */\n  dup2\n    /* \"#utility.yul\":1036:1068   */\n  tag_24\n  jump\t// in\ntag_43:\n    /* \"#utility.yul\":1029:1034   */\n  dup2\n    /* \"#utility.yul\":1026:1069   */\n  eq\n    /* \"#utility.yul\":1016:1087   */\n  tag_44\n  jumpi\n    /* \"#utility.yul\":1083:1084   */\n  0x00\n    /* \"#utility.yul\":1080:1081   */\n  dup1\n    /* \"#utility.yul\":1073:1085   */\n  revert\n    /* \"#utility.yul\":1016:1087   */\ntag_44:\n    /* \"#utility.yul\":955:1093   */\n  pop\n  jump\t// out\n    /* \"#utility.yul\":1099:1258   */\ntag_26:\n    /* \"#utility.yul\":1164:1169   */\n  0x00\n    /* \"#utility.yul\":1195:1201   */\n  dup2\n    /* \"#utility.yul\":1189:1202   */\n  mload\n    /* \"#utility.yul\":1180:1202   */\n  swap1\n  pop\n    /* \"#utility.yul\":1211:1252   */\n  tag_46\n    /* \"#utility.yul\":1246:1251   */\n  dup2\n    /* \"#utility.yul\":1211:1252   */\n  tag_25\n  jump\t// in\ntag_46:\n    /* \"#utility.yul\":1099:1258   */\n  swap3\n  swap2\n  pop\n  pop\n  jump\t// out\n    /* \"#utility.yul\":1264:2744   */\ntag_3:\n    /* \"#utility.yul\":1413:1419   */\n  0x00\n    /* \"#utility.yul\":1421:1427   */\n  dup1\n    /* \"#utility.yul\":1429:1435   */\n  0x00\n    /* \"#utility.yul\":1437:1443   */\n  dup1\n    /* \"#utility.yul\":1445:1451   */\n  0x00\n    /* \"#utility.yul\":1453:1459   */\n  dup1\n    /* \"#utility.yul\":1461:1467   */\n  0x00\n    /* \"#utility.yul\":1469:1475   */\n  dup1\n    /* \"#utility.yul\":1518:1521   */\n  0x0100\n    /* \"#utility.yul\":1506:1515   */\n  dup10\n    /* \"#utility.yul\":1497:1504   */\n  dup12\n    /* \"#utility.yul\":1493:1516   */\n  sub\n    /* \"#utility.yul\":1489:1522   */\n  slt\n    /* \"#utility.yul\":1486:1606   */\n  iszero\n  tag_48\n  jumpi\n    /* \"#utility.yul\":1525:1604   */\n  tag_49\n  tag_18\n  jump\t// in\ntag_49:\n    /* \"#utility.yul\":1486:1606   */\ntag_48:\n    /* \"#utility.yul\":1645:1646   */\n  0x00\n    /* \"#utility.yul\":1670:1734   */\n  tag_50\n    /* \"#utility.yul\":1726:1733   */\n  dup12\n    /* \"#utility.yul\":1717:1723   */\n  dup3\n    /* \"#utility.yul\":1706:1715   */\n  dup13\n    /* \"#utility.yul\":1702:1724   */\n  add\n    /* \"#utility.yul\":1670:1734   */\n  tag_23\n  jump\t// in\ntag_50:\n    /* \"#utility.yul\":1660:1734   */\n  swap9\n  pop\n    /* \"#utility.yul\":1616:1744   */\n  pop\n    /* \"#utility.yul\":1783:1785   */\n  0x20\n    /* \"#utility.yul\":1809:1873   */\n  tag_51\n    /* \"#utility.yul\":1865:1872   */\n  dup12\n    /* \"#utility.yul\":1856:1862   */\n  dup3\n    /* \"#utility.yul\":1845:1854   */\n  dup13\n    /* \"#utility.yul\":1841:1863   */\n  add\n    /* \"#utility.yul\":1809:1873   */\n  tag_23\n  jump\t// in\ntag_51:\n    /* \"#utility.yul\":1799:1873   */\n  swap8\n  pop\n    /* \"#utility.yul\":1754:1883   */\n  pop\n    /* \"#utility.yul\":1922:1924   */\n  0x40\n    /* \"#utility.yul\":1948:2012   */\n  tag_52\n    /* \"#utility.yul\":2004:2011   */\n  dup12\n    /* \"#utility.yul\":1995:2001   */\n  dup3\n    /* \"#utility.yul\":1984:1993   */\n  dup13\n    /* \"#utility.yul\":1980:2002   */\n  add\n    /* \"#utility.yul\":1948:2012   */\n  tag_23\n  jump\t// in\ntag_52:\n    /* \"#utility.yul\":1938:2012   */\n  swap7\n  pop\n    /* \"#utility.yul\":1893:2022   */\n  pop\n    /* \"#utility.yul\":2061:2063   */\n  0x60\n    /* \"#utility.yul\":2087:2151   */\n  tag_53\n    /* \"#utility.yul\":2143:2150   */\n  dup12\n    /* \"#utility.yul\":2134:2140   */\n  dup3\n    /* \"#utility.yul\":2123:2132   */\n  dup13\n    /* \"#utility.yul\":2119:2141   */\n  add\n    /* \"#utility.yul\":2087:2151   */\n  tag_23\n  jump\t// in\ntag_53:\n    /* \"#utility.yul\":2077:2151   */\n  swap6\n  pop\n    /* \"#utility.yul\":2032:2161   */\n  pop\n    /* \"#utility.yul\":2200:2203   */\n  0x80\n    /* \"#utility.yul\":2227:2291   */\n  tag_54\n    /* \"#utility.yul\":2283:2290   */\n  dup12\n    /* \"#utility.yul\":2274:2280   */\n  dup3\n    /* \"#utility.yul\":2263:2272   */\n  dup13\n    /* \"#utility.yul\":2259:2281   */\n  add\n    /* \"#utility.yul\":2227:2291   */\n  tag_23\n  jump\t// in\ntag_54:\n    /* \"#utility.yul\":2217:2291   */\n  swap5\n  pop\n    /* \"#utility.yul\":2171:2301   */\n  pop\n    /* \"#utility.yul\":2340:2343   */\n  0xa0\n    /* \"#utility.yul\":2367:2431   */\n  tag_55\n    /* \"#utility.yul\":2423:2430   */\n  dup12\n    /* \"#utility.yul\":2414:2420   */\n  dup3\n    /* \"#utility.yul\":2403:2412   */\n  dup13\n    /* \"#utility.yul\":2399:2421   */\n  add\n    /* \"#utility.yul\":2367:2431   */\n  tag_23\n  jump\t// in\ntag_55:\n    /* \"#utility.yul\":2357:2431   */\n  swap4\n  pop\n    /* \"#utility.yul\":2311:2441   */\n  pop\n    /* \"#utility.yul\":2480:2483   */\n  0xc0\n    /* \"#utility.yul\":2507:2579   */\n  tag_56\n    /* \"#utility.yul\":2571:2578   */\n  dup12\n    /* \"#utility.yul\":2562:2568   */\n  dup3\n    /* \"#utility.yul\":2551:2560   */\n  dup13\n    /* \"#utility.yul\":2547:2569   */\n  add\n    /* \"#utility.yul\":2507:2579   */\n  tag_26\n  jump\t// in\ntag_56:\n    /* \"#utility.yul\":2497:2579   */\n  swap3\n  pop\n    /* \"#utility.yul\":2451:2589   */\n  pop\n    /* \"#utility.yul\":2628:2631   */\n  0xe0\n    /* \"#utility.yul\":2655:2727   */\n  tag_57\n    /* \"#utility.yul\":2719:2726   */\n  dup12\n    /* \"#utility.yul\":2710:2716   */\n  dup3\n    /* \"#utility.yul\":2699:2708   */\n  dup13\n    /* \"#utility.yul\":2695:2717   */\n  add\n    /* \"#utility.yul\":2655:2727   */\n  tag_26\n  jump\t// in\ntag_57:\n    /* \"#utility.yul\":2645:2727   */\n  swap2\n  pop\n    /* \"#utility.yul\":2599:2737   */\n  pop\n    /* \"#utility.yul\":1264:2744   */\n  swap3\n  swap6\n  swap9\n  pop\n  swap3\n  swap6\n  swap9\n  swap1\n  swap4\n  swap7\n  pop\n  jump\t// out\n    /* \"#utility.yul\":2750:2868   */\ntag_27:\n    /* \"#utility.yul\":2837:2861   */\n  tag_59\n    /* \"#utility.yul\":2855:2860   */\n  dup2\n    /* \"#utility.yul\":2837:2861   */\n  tag_21\n  jump\t// in\ntag_59:\n    /* \"#utility.yul\":2832:2835   */\n  dup3\n    /* \"#utility.yul\":2825:2862   */\n  mstore\n    /* \"#utility.yul\":2750:2868   */\n  pop\n  pop\n  jump\t// out\n    /* \"#utility.yul\":2874:3096   */\ntag_11:\n    /* \"#utility.yul\":2967:2971   */\n  0x00\n    /* \"#utility.yul\":3005:3007   */\n  0x20\n    /* \"#utility.yul\":2994:3003   */\n  dup3\n    /* \"#utility.yul\":2990:3008   */\n  add\n    /* \"#utility.yul\":2982:3008   */\n  swap1\n  pop\n    /* \"#utility.yul\":3018:3089   */\n  tag_61\n    /* \"#utility.yul\":3086:3087   */\n  0x00\n    /* \"#utility.yul\":3075:3084   */\n  dup4\n    /* \"#utility.yul\":3071:3088   */\n  add\n    /* \"#utility.yul\":3062:3068   */\n  dup5\n    /* \"#utility.yul\":3018:3089   */\n  tag_27\n  jump\t// in\ntag_61:\n    /* \"#utility.yul\":2874:3096   */\n  swap3\n  swap2\n  pop\n  pop\n  jump\t// out\n    /* \"contracts/PlanetZephyrosFeeReflection.sol\":178:9603  contract PlanetZephyrosFeeReflection is ReentrancyGuard, Ownable {... */\ntag_15:\n  mload(0x80)\n  mload(0xa0)\n  mload(0xc0)\n  mload(0xe0)\n  mload(0x0100)\n  mload(0x0120)\n  mload(0x0140)\n  mload(0x0160)\n  codecopy(0x00, dataOffset(sub_0), dataSize(sub_0))\n  0x00\n  assignImmutable(\"0x98f4d6eec7613e33b36335f2ce6a27018d9a9f0999ab27807ed26ac6fd46f1a2\")\n  0x00\n  assignImmutable(\"0x980c46aeb242fb2816eec3c43a568cdc6adda404b46e62cce4e3fe7d929881e3\")\n  0x00\n  assignImmutable(\"0x7d94b1fd5befe75fac04677148728067a5c7750c4535d59cf8d692301dae078c\")\n  0x00\n  assignImmutable(\"0xb7020dd003fcd4d96af1507ff4dc7e2c1158f23ad0bacfdf3455869cf9fb4898\")\n  0x00\n  assignImmutable(\"0x4b4b9efaff899efa2095e6e12f4c7ffa5d130c6cf88a562d7f7bbc11486ed4fb\")\n  0x00\n  assignImmutable(\"0x3884709d17f664eaba4ac467a7268cd72e3e0fe0c4e85152b1894161243c55c2\")\n  0x00\n  assignImmutable(\"0x16c8a63d520d02dbd3ba67dd93cae5eadc6219145ea2099e8e9f17a2533fafa7\")\n  0x00\n  assignImmutable(\"0x6ca54da2c4784ea43fd88b3402de07ae4bced597cbb19f323b7595857a6720ae\")\n  return(0x00, dataSize(sub_0))\nstop\n\nsub_0: assembly {\n        /* \"contracts/PlanetZephyrosFeeReflection.sol\":178:9603  contract PlanetZephyrosFeeReflection is ReentrancyGuard, Ownable {... */\n      mstore(0x40, 0x80)\n      jumpi(tag_1, lt(calldatasize, 0x04))\n      shr(0xe0, calldataload(0x00))\n      dup1\n      0x7499aff4\n      gt\n      tag_26\n      jumpi\n      dup1\n      0xba779ed5\n      gt\n      tag_27\n      jumpi\n      dup1\n      0xba779ed5\n      eq\n      tag_20\n      jumpi\n      dup1\n      0xcfbb7d36\n      eq\n      tag_21\n      jumpi\n      dup1\n      0xdc05a309\n      eq\n      tag_22\n      jumpi\n      dup1\n      0xdc1a4d9e\n      eq\n      tag_23\n      jumpi\n      dup1\n      0xf2fde38b\n      eq\n      tag_24\n      jumpi\n      dup1\n      0xfccc2813\n      eq\n      tag_25\n      jumpi\n      jump(tag_2)\n    tag_27:\n      dup1\n      0x7499aff4\n      eq\n      tag_14\n      jumpi\n      dup1\n      0x7581aa60\n      eq\n      tag_15\n      jumpi\n      dup1\n      0x89e85217\n      eq\n      tag_16\n      jumpi\n      dup1\n      0x8da5cb5b\n      eq\n      tag_17\n      jumpi\n      dup1\n      0xa0558c3f\n      eq\n      tag_18\n      jumpi\n      dup1\n      0xb37fd190\n      eq\n      tag_19\n      jumpi\n      jump(tag_2)\n    tag_26:\n      dup1\n      0x57d1fdcd\n      gt\n      tag_28\n      jumpi\n      dup1\n      0x57d1fdcd\n      eq\n      tag_8\n      jumpi\n      dup1\n      0x59927044\n      eq\n      tag_9\n      jumpi\n      dup1\n      0x62ab05e7\n      eq\n      tag_10\n      jumpi\n      dup1\n      0x66650b7b\n      eq\n      tag_11\n      jumpi\n      dup1\n      0x6cdf0e40\n      eq\n      tag_12\n      jumpi\n      dup1\n      0x715018a6\n      eq\n      tag_13\n      jumpi\n      jump(tag_2)\n    tag_28:\n      dup1\n      0x0c2b72e9\n      eq\n      tag_3\n      jumpi\n      dup1\n      0x0efd0973\n      eq\n      tag_4\n      jumpi\n      dup1\n      0x2b7459b9\n      eq\n      tag_5\n      jumpi\n      dup1\n      0x3d65de44\n      eq\n      tag_6\n      jumpi\n      dup1\n      0x4e6fd6c4\n      eq\n      tag_7\n      jumpi\n      jump(tag_2)\n    tag_1:\n      jumpi(tag_2, calldatasize)\n        /* \"contracts/PlanetZephyrosFeeReflection.sol\":9388:9392  WETN */\n      immutable(\"0xb7020dd003fcd4d96af1507ff4dc7e2c1158f23ad0bacfdf3455869cf9fb4898\")\n        /* \"contracts/PlanetZephyrosFeeReflection.sol\":9366:9393  msg.sender != address(WETN) */\n      0xffffffffffffffffffffffffffffffffffffffff\n      and\n        /* \"contracts/PlanetZephyrosFeeReflection.sol\":9366:9376  msg.sender */\n      caller\n        /* \"contracts/PlanetZephyrosFeeReflection.sol\":9366:9393  msg.sender != address(WETN) */\n      0xffffffffffffffffffffffffffffffffffffffff\n      and\n      eq\n        /* \"contracts/PlanetZephyrosFeeReflection.sol\":9363:9451  if(msg.sender != address(WETN)){... */\n      tag_31\n      jumpi\n        /* \"contracts/PlanetZephyrosFeeReflection.sol\":9409:9439  _processIncomingFee(msg.value) */\n      tag_32\n        /* \"contracts/PlanetZephyrosFeeReflection.sol\":9429:9438  msg.value */\n      callvalue\n        /* \"contracts/PlanetZephyrosFeeReflection.sol\":9409:9428  _processIncomingFee */\n      tag_33\n        /* \"contracts/PlanetZephyrosFeeReflection.sol\":9409:9439  _processIncomingFee(msg.value) */\n      jump\t// in\n    tag_32:\n        /* \"contracts/PlanetZephyrosFeeReflection.sol\":9363:9451  if(msg.sender != address(WETN)){... */\n    tag_31:\n        /* \"contracts/PlanetZephyrosFeeReflection.sol\":178:9603  contract PlanetZephyrosFeeReflection is ReentrancyGuard, Ownable {... */\n      stop\n    tag_2:\n        /* \"contracts/PlanetZephyrosFeeReflection.sol\":9530:9534  WETN */\n      immutable(\"0xb7020dd003fcd4d96af1507ff4dc7e2c1158f23ad0bacfdf3455869cf9fb4898\")\n        /* \"contracts/PlanetZephyrosFeeReflection.sol\":9508:9535  msg.sender != address(WETN) */\n      0xffffffffffffffffffffffffffffffffffffffff\n      and\n        /* \"contracts/PlanetZephyrosFeeReflection.sol\":9508:9518  msg.sender */\n      caller\n        /* \"contracts/PlanetZephyrosFeeReflection.sol\":9508:9535  msg.sender != address(WETN) */\n      0xffffffffffffffffffffffffffffffffffffffff\n      and\n      eq\n        /* \"contracts/PlanetZephyrosFeeReflection.sol\":9505:9593  if(msg.sender != address(WETN)){... */\n      tag_36\n      jumpi\n        /* \"contracts/PlanetZephyrosFeeReflection.sol\":9551:9581  _processIncomingFee(msg.value) */\n      tag_37\n        /* \"contracts/PlanetZephyrosFeeReflection.sol\":9571:9580  msg.value */\n      callvalue\n        /* \"contracts/PlanetZephyrosFeeReflection.sol\":9551:9570  _processIncomingFee */\n      tag_33\n        /* \"contracts/PlanetZephyrosFeeReflection.sol\":9551:9581  _processIncomingFee(msg.value) */\n      jump\t// in\n    tag_37:\n        /* \"contracts/PlanetZephyrosFeeReflection.sol\":9505:9593  if(msg.sender != address(WETN)){... */\n    tag_36:\n        /* \"contracts/PlanetZephyrosFeeReflection.sol\":178:9603  contract PlanetZephyrosFeeReflection is ReentrancyGuard, Ownable {... */\n      stop\n        /* \"contracts/PlanetZephyrosFeeReflection.sol\":642:676  address public immutable coreToken */\n    tag_3:\n      callvalue\n      dup1\n      iszero\n      tag_38\n      jumpi\n      0x00\n      dup1\n      revert\n    tag_38:\n      pop\n      tag_39\n      tag_40\n      jump\t// in\n    tag_39:\n      mload(0x40)\n      tag_41\n      swap2\n      swap1\n      tag_42\n      jump\t// in\n    tag_41:\n      mload(0x40)\n      dup1\n      swap2\n      sub\n      swap1\n      return\n        /* \"contracts/PlanetZephyrosFeeReflection.sol\":545:574  address public immutable club */\n    tag_4:\n      callvalue\n      dup1\n      iszero\n      tag_43\n      jumpi\n      0x00\n      dup1\n      revert\n    tag_43:\n      pop\n      tag_44\n      tag_45\n      jump\t// in\n    tag_44:\n      mload(0x40)\n      tag_46\n      swap2\n      swap1\n      tag_42\n      jump\t// in\n    tag_46:\n      mload(0x40)\n      dup1\n      swap2\n      sub\n      swap1\n      return\n        /* \"contracts/PlanetZephyrosFeeReflection.sol\":3645:3777  function setAutoBuyAndBurn(bool _autoBuyAndBurn) external onlyOwner nonReentrant {... */\n    tag_5:\n      callvalue\n      dup1\n      iszero\n      tag_47\n      jumpi\n      0x00\n      dup1\n      revert\n    tag_47:\n      pop\n      tag_48\n      0x04\n      dup1\n      calldatasize\n      sub\n      dup2\n      add\n      swap1\n      tag_49\n      swap2\n      swap1\n      tag_50\n      jump\t// in\n    tag_49:\n      tag_51\n      jump\t// in\n    tag_48:\n      stop\n        /* \"contracts/PlanetZephyrosFeeReflection.sol\":1348:1374  uint256 public clubBalance */\n    tag_6:\n      callvalue\n      dup1\n      iszero\n      tag_52\n      jumpi\n      0x00\n      dup1\n      revert\n    tag_52:\n      pop\n      tag_53\n      tag_54\n      jump\t// in\n    tag_53:\n      mload(0x40)\n      tag_55\n      swap2\n      swap1\n      tag_56\n      jump\t// in\n    tag_55:\n      mload(0x40)\n      dup1\n      swap2\n      sub\n      swap1\n      return\n        /* \"contracts/PlanetZephyrosFeeReflection.sol\":833:915  address public immutable DEAD_ADDRESS = 0x000000000000000000000000000000000000dEaD */\n    tag_7:\n      callvalue\n      dup1\n      iszero\n      tag_57\n      jumpi\n      0x00\n      dup1\n      revert\n    tag_57:\n      pop\n      tag_58\n      tag_59\n      jump\t// in\n    tag_58:\n      mload(0x40)\n      tag_60\n      swap2\n      swap1\n      tag_42\n      jump\t// in\n    tag_60:\n      mload(0x40)\n      dup1\n      swap2\n      sub\n      swap1\n      return\n        /* \"contracts/PlanetZephyrosFeeReflection.sol\":4339:4611  function manualBuyAndBurn() external onlyOwner nonReentrant { // Updated: Now handles both club and core... */\n    tag_8:\n      callvalue\n      dup1\n      iszero\n      tag_61\n      jumpi\n      0x00\n      dup1\n      revert\n    tag_61:\n      pop\n      tag_62\n      tag_63\n      jump\t// in\n    tag_62:\n      stop\n        /* \"contracts/PlanetZephyrosFeeReflection.sol\":448:491  address payable public immutable teamWallet */\n    tag_9:\n      callvalue\n      dup1\n      iszero\n      tag_64\n      jumpi\n      0x00\n      dup1\n      revert\n    tag_64:\n      pop\n      tag_65\n      tag_66\n      jump\t// in\n    tag_65:\n      mload(0x40)\n      tag_67\n      swap2\n      swap1\n      tag_68\n      jump\t// in\n    tag_67:\n      mload(0x40)\n      dup1\n      swap2\n      sub\n      swap1\n      return\n        /* \"contracts/PlanetZephyrosFeeReflection.sol\":351:394  address payable public immutable coreWallet */\n    tag_10:\n      callvalue\n      dup1\n      iszero\n      tag_69\n      jumpi\n      0x00\n      dup1\n      revert\n    tag_69:\n      pop\n      tag_70\n      tag_71\n      jump\t// in\n    tag_70:\n      mload(0x40)\n      tag_72\n      swap2\n      swap1\n      tag_68\n      jump\t// in\n    tag_72:\n      mload(0x40)\n      dup1\n      swap2\n      sub\n      swap1\n      return\n        /* \"contracts/PlanetZephyrosFeeReflection.sol\":736:765  address public immutable WETN */\n    tag_11:\n      callvalue\n      dup1\n      iszero\n      tag_73\n      jumpi\n      0x00\n      dup1\n      revert\n    tag_73:\n      pop\n      tag_74\n      tag_75\n      jump\t// in\n    tag_74:\n      mload(0x40)\n      tag_76\n      swap2\n      swap1\n      tag_42\n      jump\t// in\n    tag_76:\n      mload(0x40)\n      dup1\n      swap2\n      sub\n      swap1\n      return\n        /* \"contracts/PlanetZephyrosFeeReflection.sol\":3785:3967  function setAutoBuyAndBurnCore(bool _autoBuyAndBurnCore) external onlyOwner nonReentrant { // Add: Setter for core auto-burn... */\n    tag_12:\n      callvalue\n      dup1\n      iszero\n      tag_77\n      jumpi\n      0x00\n      dup1\n      revert\n    tag_77:\n      pop\n      tag_78\n      0x04\n      dup1\n      calldatasize\n      sub\n      dup2\n      add\n      swap1\n      tag_79\n      swap2\n      swap1\n      tag_50\n      jump\t// in\n    tag_79:\n      tag_80\n      jump\t// in\n    tag_78:\n      stop\n        /* \"@openzeppelin/contracts/access/Ownable.sol\":2293:2394  function renounceOwnership() public virtual onlyOwner {... */\n    tag_13:\n      callvalue\n      dup1\n      iszero\n      tag_81\n      jumpi\n      0x00\n      dup1\n      revert\n    tag_81:\n      pop\n      tag_82\n      tag_83\n      jump\t// in\n    tag_82:\n      stop\n        /* \"contracts/PlanetZephyrosFeeReflection.sol\":1381:1407  uint256 public coreBalance */\n    tag_14:\n      callvalue\n      dup1\n      iszero\n      tag_84\n      jumpi\n      0x00\n      dup1\n      revert\n    tag_84:\n      pop\n      tag_85\n      tag_86\n      jump\t// in\n    tag_85:\n      mload(0x40)\n      tag_87\n      swap2\n      swap1\n      tag_56\n      jump\t// in\n    tag_87:\n      mload(0x40)\n      dup1\n      swap2\n      sub\n      swap1\n      return\n        /* \"contracts/PlanetZephyrosFeeReflection.sol\":1482:1512  bool public autoBuyAndBurnCore */\n    tag_15:\n      callvalue\n      dup1\n      iszero\n      tag_88\n      jumpi\n      0x00\n      dup1\n      revert\n    tag_88:\n      pop\n      tag_89\n      tag_90\n      jump\t// in\n    tag_89:\n      mload(0x40)\n      tag_91\n      swap2\n      swap1\n      tag_92\n      jump\t// in\n    tag_91:\n      mload(0x40)\n      dup1\n      swap2\n      sub\n      swap1\n      return\n        /* \"contracts/PlanetZephyrosFeeReflection.sol\":1414:1440  uint256 public teamBalance */\n    tag_16:\n      callvalue\n      dup1\n      iszero\n      tag_93\n      jumpi\n      0x00\n      dup1\n      revert\n    tag_93:\n      pop\n      tag_94\n      tag_95\n      jump\t// in\n    tag_94:\n      mload(0x40)\n      tag_96\n      swap2\n      swap1\n      tag_56\n      jump\t// in\n    tag_96:\n      mload(0x40)\n      dup1\n      swap2\n      sub\n      swap1\n      return\n        /* \"@openzeppelin/contracts/access/Ownable.sol\":1638:1723  function owner() public view virtual returns (address) {... */\n    tag_17:\n      callvalue\n      dup1\n      iszero\n      tag_97\n      jumpi\n      0x00\n      dup1\n      revert\n    tag_97:\n      pop\n      tag_98\n      tag_99\n      jump\t// in\n    tag_98:\n      mload(0x40)\n      tag_100\n      swap2\n      swap1\n      tag_42\n      jump\t// in\n    tag_100:\n      mload(0x40)\n      dup1\n      swap2\n      sub\n      swap1\n      return\n        /* \"contracts/PlanetZephyrosFeeReflection.sol\":7882:8291  function rescueETH(uint256 amount, address payable to) external onlyOwner nonReentrant {... */\n    tag_18:\n      callvalue\n      dup1\n      iszero\n      tag_101\n      jumpi\n      0x00\n      dup1\n      revert\n    tag_101:\n      pop\n      tag_102\n      0x04\n      dup1\n      calldatasize\n      sub\n      dup2\n      add\n      swap1\n      tag_103\n      swap2\n      swap1\n      tag_104\n      jump\t// in\n    tag_103:\n      tag_105\n      jump\t// in\n    tag_102:\n      stop\n        /* \"contracts/PlanetZephyrosFeeReflection.sol\":8389:9219  function rescueTokens(address token, uint256 amount, address to) external onlyOwner nonReentrant {... */\n    tag_19:\n      callvalue\n      dup1\n      iszero\n      tag_106\n      jumpi\n      0x00\n      dup1\n      revert\n    tag_106:\n      pop\n      tag_107\n      0x04\n      dup1\n      calldatasize\n      sub\n      dup2\n      add\n      swap1\n      tag_108\n      swap2\n      swap1\n      tag_109\n      jump\t// in\n    tag_108:\n      tag_110\n      jump\t// in\n    tag_107:\n      stop\n        /* \"contracts/PlanetZephyrosFeeReflection.sol\":1449:1475  bool public autoBuyAndBurn */\n    tag_20:\n      callvalue\n      dup1\n      iszero\n      tag_111\n      jumpi\n      0x00\n      dup1\n      revert\n    tag_111:\n      pop\n      tag_112\n      tag_113\n      jump\t// in\n    tag_112:\n      mload(0x40)\n      tag_114\n      swap2\n      swap1\n      tag_92\n      jump\t// in\n    tag_114:\n      mload(0x40)\n      dup1\n      swap2\n      sub\n      swap1\n      return\n        /* \"contracts/PlanetZephyrosFeeReflection.sol\":2889:3549  function teamWithdraw() external onlyOwner nonReentrant {... */\n    tag_21:\n      callvalue\n      dup1\n      iszero\n      tag_115\n      jumpi\n      0x00\n      dup1\n      revert\n    tag_115:\n      pop\n      tag_116\n      tag_117\n      jump\t// in\n    tag_116:\n      stop\n        /* \"contracts/PlanetZephyrosFeeReflection.sol\":4236:4327  function processIncomingTokens() external onlyOwnerOrNFT {... */\n    tag_22:\n      callvalue\n      dup1\n      iszero\n      tag_118\n      jumpi\n      0x00\n      dup1\n      revert\n    tag_118:\n      pop\n      tag_119\n      tag_120\n      jump\t// in\n    tag_119:\n      stop\n        /* \"contracts/PlanetZephyrosFeeReflection.sol\":4619:4819  function manualBuyAndBurnCore() external onlyOwner nonReentrant { // Add: Separate manual for core only... */\n    tag_23:\n      callvalue\n      dup1\n      iszero\n      tag_121\n      jumpi\n      0x00\n      dup1\n      revert\n    tag_121:\n      pop\n      tag_122\n      tag_123\n      jump\t// in\n    tag_122:\n      stop\n        /* \"@openzeppelin/contracts/access/Ownable.sol\":2543:2758  function transferOwnership(address newOwner) public virtual onlyOwner {... */\n    tag_24:\n      callvalue\n      dup1\n      iszero\n      tag_124\n      jumpi\n      0x00\n      dup1\n      revert\n    tag_124:\n      pop\n      tag_125\n      0x04\n      dup1\n      calldatasize\n      sub\n      dup2\n      add\n      swap1\n      tag_126\n      swap2\n      swap1\n      tag_127\n      jump\t// in\n    tag_126:\n      tag_128\n      jump\t// in\n    tag_125:\n      stop\n        /* \"contracts/PlanetZephyrosFeeReflection.sol\":923:973  address public immutable BURN_ADDRESS = address(0) */\n    tag_25:\n      callvalue\n      dup1\n      iszero\n      tag_129\n      jumpi\n      0x00\n      dup1\n      revert\n    tag_129:\n      pop\n      tag_130\n      tag_131\n      jump\t// in\n    tag_130:\n      mload(0x40)\n      tag_132\n      swap2\n      swap1\n      tag_42\n      jump\t// in\n    tag_132:\n      mload(0x40)\n      dup1\n      swap2\n      sub\n      swap1\n      return\n        /* \"contracts/PlanetZephyrosFeeReflection.sol\":4922:5999  function _processIncomingFee(uint256 amount) internal {... */\n    tag_33:\n        /* \"contracts/PlanetZephyrosFeeReflection.sol\":4999:5000  0 */\n      0x00\n        /* \"contracts/PlanetZephyrosFeeReflection.sol\":4990:4996  amount */\n      dup2\n        /* \"contracts/PlanetZephyrosFeeReflection.sol\":4990:5000  amount > 0 */\n      gt\n        /* \"contracts/PlanetZephyrosFeeReflection.sol\":4987:5064  if(amount > 0){... */\n      iszero\n      tag_134\n      jumpi\n        /* \"contracts/PlanetZephyrosFeeReflection.sol\":5022:5026  WETN */\n      immutable(\"0xb7020dd003fcd4d96af1507ff4dc7e2c1158f23ad0bacfdf3455869cf9fb4898\")\n        /* \"contracts/PlanetZephyrosFeeReflection.sol\":5016:5035  IWETN(WETN).deposit */\n      0xffffffffffffffffffffffffffffffffffffffff\n      and\n      0xd0e30db0\n        /* \"contracts/PlanetZephyrosFeeReflection.sol\":5043:5049  amount */\n      dup3\n        /* \"contracts/PlanetZephyrosFeeReflection.sol\":5016:5052  IWETN(WETN).deposit{value: amount}() */\n      mload(0x40)\n      dup3\n      0xffffffff\n      and\n      0xe0\n      shl\n      dup2\n      mstore\n      0x04\n      add\n      0x00\n      mload(0x40)\n      dup1\n      dup4\n      sub\n      dup2\n      dup6\n      dup9\n      dup1\n      extcodesize\n      iszero\n      dup1\n      iszero\n      tag_135\n      jumpi\n      0x00\n      dup1\n      revert\n    tag_135:\n      pop\n      gas\n      call\n      iszero\n      dup1\n      iszero\n      tag_137\n      jumpi\n      returndatasize\n      0x00\n      dup1\n      returndatacopy\n      revert(0x00, returndatasize)\n    tag_137:\n      pop\n      pop\n      pop\n      pop\n      pop\n        /* \"contracts/PlanetZephyrosFeeReflection.sol\":4987:5064  if(amount > 0){... */\n    tag_134:\n        /* \"contracts/PlanetZephyrosFeeReflection.sol\":5092:5111  uint256 currentWetn */\n      0x00\n        /* \"contracts/PlanetZephyrosFeeReflection.sol\":5120:5124  WETN */\n      immutable(\"0xb7020dd003fcd4d96af1507ff4dc7e2c1158f23ad0bacfdf3455869cf9fb4898\")\n        /* \"contracts/PlanetZephyrosFeeReflection.sol\":5114:5135  IWETN(WETN).balanceOf */\n      0xffffffffffffffffffffffffffffffffffffffff\n      and\n      0x70a08231\n        /* \"contracts/PlanetZephyrosFeeReflection.sol\":5144:5148  this */\n      address\n        /* \"contracts/PlanetZephyrosFeeReflection.sol\":5114:5150  IWETN(WETN).balanceOf(address(this)) */\n      mload(0x40)\n      dup3\n      0xffffffff\n      and\n      0xe0\n      shl\n      dup2\n      mstore\n      0x04\n      add\n      tag_138\n      swap2\n      swap1\n      tag_42\n      jump\t// in\n    tag_138:\n      0x20\n      mload(0x40)\n      dup1\n      dup4\n      sub\n      dup2\n      dup7\n      gas\n      staticcall\n      iszero\n      dup1\n      iszero\n      tag_140\n      jumpi\n      returndatasize\n      0x00\n      dup1\n      returndatacopy\n      revert(0x00, returndatasize)\n    tag_140:\n      pop\n      pop\n      pop\n      pop\n      mload(0x40)\n      returndatasize\n      not(0x1f)\n      0x1f\n      dup3\n      add\n      and\n      dup3\n      add\n      dup1\n      0x40\n      mstore\n      pop\n      dup2\n      add\n      swap1\n      tag_141\n      swap2\n      swap1\n      tag_142\n      jump\t// in\n    tag_141:\n        /* \"contracts/PlanetZephyrosFeeReflection.sol\":5092:5150  uint256 currentWetn = IWETN(WETN).balanceOf(address(this)) */\n      swap1\n      pop\n        /* \"contracts/PlanetZephyrosFeeReflection.sol\":5161:5177  uint256 expected */\n      0x00\n        /* \"contracts/PlanetZephyrosFeeReflection.sol\":5208:5219  clubBalance */\n      sload(0x04)\n        /* \"contracts/PlanetZephyrosFeeReflection.sol\":5194:5205  teamBalance */\n      sload(0x06)\n        /* \"contracts/PlanetZephyrosFeeReflection.sol\":5180:5191  coreBalance */\n      sload(0x05)\n        /* \"contracts/PlanetZephyrosFeeReflection.sol\":5180:5205  coreBalance + teamBalance */\n      tag_143\n      swap2\n      swap1\n      tag_144\n      jump\t// in\n    tag_143:\n        /* \"contracts/PlanetZephyrosFeeReflection.sol\":5180:5219  coreBalance + teamBalance + clubBalance */\n      tag_145\n      swap2\n      swap1\n      tag_144\n      jump\t// in\n    tag_145:\n        /* \"contracts/PlanetZephyrosFeeReflection.sol\":5161:5219  uint256 expected = coreBalance + teamBalance + clubBalance */\n      swap1\n      pop\n        /* \"contracts/PlanetZephyrosFeeReflection.sol\":5253:5261  expected */\n      dup1\n        /* \"contracts/PlanetZephyrosFeeReflection.sol\":5238:5249  currentWetn */\n      dup3\n        /* \"contracts/PlanetZephyrosFeeReflection.sol\":5238:5261  currentWetn >= expected */\n      lt\n      iszero\n        /* \"contracts/PlanetZephyrosFeeReflection.sol\":5230:5279  require(currentWetn >= expected, \"Balance error\") */\n      tag_146\n      jumpi\n      mload(0x40)\n      0x08c379a000000000000000000000000000000000000000000000000000000000\n      dup2\n      mstore\n      0x04\n      add\n      tag_147\n      swap1\n      tag_148\n      jump\t// in\n    tag_147:\n      mload(0x40)\n      dup1\n      swap2\n      sub\n      swap1\n      revert\n    tag_146:\n        /* \"contracts/PlanetZephyrosFeeReflection.sol\":5300:5316  uint256 incoming */\n      0x00\n        /* \"contracts/PlanetZephyrosFeeReflection.sol\":5333:5341  expected */\n      dup2\n        /* \"contracts/PlanetZephyrosFeeReflection.sol\":5319:5330  currentWetn */\n      dup4\n        /* \"contracts/PlanetZephyrosFeeReflection.sol\":5319:5341  currentWetn - expected */\n      tag_149\n      swap2\n      swap1\n      tag_150\n      jump\t// in\n    tag_149:\n        /* \"contracts/PlanetZephyrosFeeReflection.sol\":5300:5341  uint256 incoming = currentWetn - expected */\n      swap1\n      pop\n        /* \"contracts/PlanetZephyrosFeeReflection.sol\":5368:5369  0 */\n      0x00\n        /* \"contracts/PlanetZephyrosFeeReflection.sol\":5357:5365  incoming */\n      dup2\n        /* \"contracts/PlanetZephyrosFeeReflection.sol\":5357:5369  incoming > 0 */\n      gt\n        /* \"contracts/PlanetZephyrosFeeReflection.sol\":5354:5992  if(incoming > 0){... */\n      iszero\n      tag_151\n      jumpi\n        /* \"contracts/PlanetZephyrosFeeReflection.sol\":5385:5404  uint256 corePortion */\n      0x00\n        /* \"contracts/PlanetZephyrosFeeReflection.sol\":5425:5428  100 */\n      0x64\n        /* \"contracts/PlanetZephyrosFeeReflection.sol\":5419:5421  60 */\n      0x3c\n        /* \"contracts/PlanetZephyrosFeeReflection.sol\":5408:5416  incoming */\n      dup4\n        /* \"contracts/PlanetZephyrosFeeReflection.sol\":5408:5421  incoming * 60 */\n      tag_152\n      swap2\n      swap1\n      tag_153\n      jump\t// in\n    tag_152:\n        /* \"contracts/PlanetZephyrosFeeReflection.sol\":5407:5428  (incoming * 60) / 100 */\n      tag_154\n      swap2\n      swap1\n      tag_155\n      jump\t// in\n    tag_154:\n        /* \"contracts/PlanetZephyrosFeeReflection.sol\":5385:5428  uint256 corePortion = (incoming * 60) / 100 */\n      swap1\n      pop\n        /* \"contracts/PlanetZephyrosFeeReflection.sol\":5443:5462  uint256 clubPortion */\n      0x00\n        /* \"contracts/PlanetZephyrosFeeReflection.sol\":5483:5486  100 */\n      0x64\n        /* \"contracts/PlanetZephyrosFeeReflection.sol\":5477:5479  10 */\n      0x0a\n        /* \"contracts/PlanetZephyrosFeeReflection.sol\":5466:5474  incoming */\n      dup5\n        /* \"contracts/PlanetZephyrosFeeReflection.sol\":5466:5479  incoming * 10 */\n      tag_156\n      swap2\n      swap1\n      tag_153\n      jump\t// in\n    tag_156:\n        /* \"contracts/PlanetZephyrosFeeReflection.sol\":5465:5486  (incoming * 10) / 100 */\n      tag_157\n      swap2\n      swap1\n      tag_155\n      jump\t// in\n    tag_157:\n        /* \"contracts/PlanetZephyrosFeeReflection.sol\":5443:5486  uint256 clubPortion = (incoming * 10) / 100 */\n      swap1\n      pop\n        /* \"contracts/PlanetZephyrosFeeReflection.sol\":5501:5520  uint256 teamPortion */\n      0x00\n        /* \"contracts/PlanetZephyrosFeeReflection.sol\":5548:5559  clubPortion */\n      dup2\n        /* \"contracts/PlanetZephyrosFeeReflection.sol\":5534:5545  corePortion */\n      dup4\n        /* \"contracts/PlanetZephyrosFeeReflection.sol\":5523:5531  incoming */\n      dup6\n        /* \"contracts/PlanetZephyrosFeeReflection.sol\":5523:5545  incoming - corePortion */\n      tag_158\n      swap2\n      swap1\n      tag_150\n      jump\t// in\n    tag_158:\n        /* \"contracts/PlanetZephyrosFeeReflection.sol\":5523:5559  incoming - corePortion - clubPortion */\n      tag_159\n      swap2\n      swap1\n      tag_150\n      jump\t// in\n    tag_159:\n        /* \"contracts/PlanetZephyrosFeeReflection.sol\":5501:5559  uint256 teamPortion = incoming - corePortion - clubPortion */\n      swap1\n      pop\n        /* \"contracts/PlanetZephyrosFeeReflection.sol\":5591:5602  corePortion */\n      dup3\n        /* \"contracts/PlanetZephyrosFeeReflection.sol\":5576:5587  coreBalance */\n      0x05\n      0x00\n        /* \"contracts/PlanetZephyrosFeeReflection.sol\":5576:5602  coreBalance += corePortion */\n      dup3\n      dup3\n      sload\n      tag_160\n      swap2\n      swap1\n      tag_144\n      jump\t// in\n    tag_160:\n      swap3\n      pop\n      pop\n      dup2\n      swap1\n      sstore\n      pop\n        /* \"contracts/PlanetZephyrosFeeReflection.sol\":5632:5643  teamPortion */\n      dup1\n        /* \"contracts/PlanetZephyrosFeeReflection.sol\":5617:5628  teamBalance */\n      0x06\n      0x00\n        /* \"contracts/PlanetZephyrosFeeReflection.sol\":5617:5643  teamBalance += teamPortion */\n      dup3\n      dup3\n      sload\n      tag_161\n      swap2\n      swap1\n      tag_144\n      jump\t// in\n    tag_161:\n      swap3\n      pop\n      pop\n      dup2\n      swap1\n      sstore\n      pop\n        /* \"contracts/PlanetZephyrosFeeReflection.sol\":5673:5684  clubPortion */\n      dup2\n        /* \"contracts/PlanetZephyrosFeeReflection.sol\":5658:5669  clubBalance */\n      0x04\n      0x00\n        /* \"contracts/PlanetZephyrosFeeReflection.sol\":5658:5684  clubBalance += clubPortion */\n      dup3\n      dup3\n      sload\n      tag_162\n      swap2\n      swap1\n      tag_144\n      jump\t// in\n    tag_162:\n      swap3\n      pop\n      pop\n      dup2\n      swap1\n      sstore\n      pop\n        /* \"contracts/PlanetZephyrosFeeReflection.sol\":5706:5767  FeeProcessed(incoming, corePortion, teamPortion, clubPortion) */\n      0x4816db49bfc91a0172699baedf430e5d308b8034f966fb25681b27c17bcd3a47\n        /* \"contracts/PlanetZephyrosFeeReflection.sol\":5719:5727  incoming */\n      dup5\n        /* \"contracts/PlanetZephyrosFeeReflection.sol\":5729:5740  corePortion */\n      dup5\n        /* \"contracts/PlanetZephyrosFeeReflection.sol\":5742:5753  teamPortion */\n      dup4\n        /* \"contracts/PlanetZephyrosFeeReflection.sol\":5755:5766  clubPortion */\n      dup6\n        /* \"contracts/PlanetZephyrosFeeReflection.sol\":5706:5767  FeeProcessed(incoming, corePortion, teamPortion, clubPortion) */\n      mload(0x40)\n      tag_163\n      swap5\n      swap4\n      swap3\n      swap2\n      swap1\n      tag_164\n      jump\t// in\n    tag_163:\n      mload(0x40)\n      dup1\n      swap2\n      sub\n      swap1\n      log1\n        /* \"contracts/PlanetZephyrosFeeReflection.sol\":5799:5813  autoBuyAndBurn */\n      0x07\n      0x00\n      swap1\n      sload\n      swap1\n      0x0100\n      exp\n      swap1\n      div\n      0xff\n      and\n        /* \"contracts/PlanetZephyrosFeeReflection.sol\":5796:5862  if(autoBuyAndBurn){... */\n      iszero\n      tag_165\n      jumpi\n        /* \"contracts/PlanetZephyrosFeeReflection.sol\":5833:5846  _buyAndBurn() */\n      tag_166\n        /* \"contracts/PlanetZephyrosFeeReflection.sol\":5833:5844  _buyAndBurn */\n      tag_167\n        /* \"contracts/PlanetZephyrosFeeReflection.sol\":5833:5846  _buyAndBurn() */\n      jump\t// in\n    tag_166:\n        /* \"contracts/PlanetZephyrosFeeReflection.sol\":5796:5862  if(autoBuyAndBurn){... */\n    tag_165:\n        /* \"contracts/PlanetZephyrosFeeReflection.sol\":5879:5897  autoBuyAndBurnCore */\n      0x07\n      0x01\n      swap1\n      sload\n      swap1\n      0x0100\n      exp\n      swap1\n      div\n      0xff\n      and\n        /* \"contracts/PlanetZephyrosFeeReflection.sol\":5876:5981  if(autoBuyAndBurnCore){ // Add: Trigger core auto-burn... */\n      iszero\n      tag_168\n      jumpi\n        /* \"contracts/PlanetZephyrosFeeReflection.sol\":5948:5965  _buyAndBurnCore() */\n      tag_169\n        /* \"contracts/PlanetZephyrosFeeReflection.sol\":5948:5963  _buyAndBurnCore */\n      tag_170\n        /* \"contracts/PlanetZephyrosFeeReflection.sol\":5948:5965  _buyAndBurnCore() */\n      jump\t// in\n    tag_169:\n        /* \"contracts/PlanetZephyrosFeeReflection.sol\":5876:5981  if(autoBuyAndBurnCore){ // Add: Trigger core auto-burn... */\n    tag_168:\n        /* \"contracts/PlanetZephyrosFeeReflection.sol\":5370:5992  {... */\n      pop\n      pop\n      pop\n        /* \"contracts/PlanetZephyrosFeeReflection.sol\":5354:5992  if(incoming > 0){... */\n    tag_151:\n        /* \"contracts/PlanetZephyrosFeeReflection.sol\":4976:5999  {... */\n      pop\n      pop\n      pop\n        /* \"contracts/PlanetZephyrosFeeReflection.sol\":4922:5999  function _processIncomingFee(uint256 amount) internal {... */\n      pop\n      jump\t// out\n        /* \"contracts/PlanetZephyrosFeeReflection.sol\":642:676  address public immutable coreToken */\n    tag_40:\n      immutable(\"0x4b4b9efaff899efa2095e6e12f4c7ffa5d130c6cf88a562d7f7bbc11486ed4fb\")\n      dup2\n      jump\t// out\n        /* \"contracts/PlanetZephyrosFeeReflection.sol\":545:574  address public immutable club */\n    tag_45:\n      immutable(\"0x3884709d17f664eaba4ac467a7268cd72e3e0fe0c4e85152b1894161243c55c2\")\n      dup2\n      jump\t// out\n        /* \"contracts/PlanetZephyrosFeeReflection.sol\":3645:3777  function setAutoBuyAndBurn(bool _autoBuyAndBurn) external onlyOwner nonReentrant {... */\n    tag_51:\n        /* \"@openzeppelin/contracts/access/Ownable.sol\":1531:1544  _checkOwner() */\n      tag_172\n        /* \"@openzeppelin/contracts/access/Ownable.sol\":1531:1542  _checkOwner */\n      tag_173\n        /* \"@openzeppelin/contracts/access/Ownable.sol\":1531:1544  _checkOwner() */\n      jump\t// in\n    tag_172:\n        /* \"@openzeppelin/contracts/utils/ReentrancyGuard.sol\":2500:2521  _nonReentrantBefore() */\n      tag_175\n        /* \"@openzeppelin/contracts/utils/ReentrancyGuard.sol\":2500:2519  _nonReentrantBefore */\n      tag_176\n        /* \"@openzeppelin/contracts/utils/ReentrancyGuard.sol\":2500:2521  _nonReentrantBefore() */\n      jump\t// in\n    tag_175:\n        /* \"contracts/PlanetZephyrosFeeReflection.sol\":3754:3769  _autoBuyAndBurn */\n      dup1\n        /* \"contracts/PlanetZephyrosFeeReflection.sol\":3737:3751  autoBuyAndBurn */\n      0x07\n      0x00\n        /* \"contracts/PlanetZephyrosFeeReflection.sol\":3737:3769  autoBuyAndBurn = _autoBuyAndBurn */\n      0x0100\n      exp\n      dup2\n      sload\n      dup2\n      0xff\n      mul\n      not\n      and\n      swap1\n      dup4\n      iszero\n      iszero\n      mul\n      or\n      swap1\n      sstore\n      pop\n        /* \"@openzeppelin/contracts/utils/ReentrancyGuard.sol\":2542:2562  _nonReentrantAfter() */\n      tag_178\n        /* \"@openzeppelin/contracts/utils/ReentrancyGuard.sol\":2542:2560  _nonReentrantAfter */\n      tag_179\n        /* \"@openzeppelin/contracts/utils/ReentrancyGuard.sol\":2542:2562  _nonReentrantAfter() */\n      jump\t// in\n    tag_178:\n        /* \"contracts/PlanetZephyrosFeeReflection.sol\":3645:3777  function setAutoBuyAndBurn(bool _autoBuyAndBurn) external onlyOwner nonReentrant {... */\n      pop\n      jump\t// out\n        /* \"contracts/PlanetZephyrosFeeReflection.sol\":1348:1374  uint256 public clubBalance */\n    tag_54:\n      sload(0x04)\n      dup2\n      jump\t// out\n        /* \"contracts/PlanetZephyrosFeeReflection.sol\":833:915  address public immutable DEAD_ADDRESS = 0x000000000000000000000000000000000000dEaD */\n    tag_59:\n      immutable(\"0x7d94b1fd5befe75fac04677148728067a5c7750c4535d59cf8d692301dae078c\")\n      dup2\n      jump\t// out\n        /* \"contracts/PlanetZephyrosFeeReflection.sol\":4339:4611  function manualBuyAndBurn() external onlyOwner nonReentrant { // Updated: Now handles both club and core... */\n    tag_63:\n        /* \"@openzeppelin/contracts/access/Ownable.sol\":1531:1544  _checkOwner() */\n      tag_181\n        /* \"@openzeppelin/contracts/access/Ownable.sol\":1531:1542  _checkOwner */\n      tag_173\n        /* \"@openzeppelin/contracts/access/Ownable.sol\":1531:1544  _checkOwner() */\n      jump\t// in\n    tag_181:\n        /* \"@openzeppelin/contracts/utils/ReentrancyGuard.sol\":2500:2521  _nonReentrantBefore() */\n      tag_183\n        /* \"@openzeppelin/contracts/utils/ReentrancyGuard.sol\":2500:2519  _nonReentrantBefore */\n      tag_176\n        /* \"@openzeppelin/contracts/utils/ReentrancyGuard.sol\":2500:2521  _nonReentrantBefore() */\n      jump\t// in\n    tag_183:\n        /* \"contracts/PlanetZephyrosFeeReflection.sol\":4475:4476  0 */\n      0x00\n        /* \"contracts/PlanetZephyrosFeeReflection.sol\":4461:4472  clubBalance */\n      sload(0x04)\n        /* \"contracts/PlanetZephyrosFeeReflection.sol\":4461:4476  clubBalance > 0 */\n      gt\n        /* \"contracts/PlanetZephyrosFeeReflection.sol\":4461:4495  clubBalance > 0 || coreBalance > 0 */\n      dup1\n      tag_185\n      jumpi\n      pop\n        /* \"contracts/PlanetZephyrosFeeReflection.sol\":4494:4495  0 */\n      0x00\n        /* \"contracts/PlanetZephyrosFeeReflection.sol\":4480:4491  coreBalance */\n      sload(0x05)\n        /* \"contracts/PlanetZephyrosFeeReflection.sol\":4480:4495  coreBalance > 0 */\n      gt\n        /* \"contracts/PlanetZephyrosFeeReflection.sol\":4461:4495  clubBalance > 0 || coreBalance > 0 */\n    tag_185:\n        /* \"contracts/PlanetZephyrosFeeReflection.sol\":4453:4519  require(clubBalance > 0 || coreBalance > 0, \"No balances to burn\") */\n      tag_186\n      jumpi\n      mload(0x40)\n      0x08c379a000000000000000000000000000000000000000000000000000000000\n      dup2\n      mstore\n      0x04\n      add\n      tag_187\n      swap1\n      tag_188\n      jump\t// in\n    tag_187:\n      mload(0x40)\n      dup1\n      swap2\n      sub\n      swap1\n      revert\n    tag_186:\n        /* \"contracts/PlanetZephyrosFeeReflection.sol\":4530:4543  _buyAndBurn() */\n      tag_189\n        /* \"contracts/PlanetZephyrosFeeReflection.sol\":4530:4541  _buyAndBurn */\n      tag_167\n        /* \"contracts/PlanetZephyrosFeeReflection.sol\":4530:4543  _buyAndBurn() */\n      jump\t// in\n    tag_189:\n        /* \"contracts/PlanetZephyrosFeeReflection.sol\":4554:4571  _buyAndBurnCore() */\n      tag_190\n        /* \"contracts/PlanetZephyrosFeeReflection.sol\":4554:4569  _buyAndBurnCore */\n      tag_170\n        /* \"contracts/PlanetZephyrosFeeReflection.sol\":4554:4571  _buyAndBurnCore() */\n      jump\t// in\n    tag_190:\n        /* \"@openzeppelin/contracts/utils/ReentrancyGuard.sol\":2542:2562  _nonReentrantAfter() */\n      tag_191\n        /* \"@openzeppelin/contracts/utils/ReentrancyGuard.sol\":2542:2560  _nonReentrantAfter */\n      tag_179\n        /* \"@openzeppelin/contracts/utils/ReentrancyGuard.sol\":2542:2562  _nonReentrantAfter() */\n      jump\t// in\n    tag_191:\n        /* \"contracts/PlanetZephyrosFeeReflection.sol\":4339:4611  function manualBuyAndBurn() external onlyOwner nonReentrant { // Updated: Now handles both club and core... */\n      jump\t// out\n        /* \"contracts/PlanetZephyrosFeeReflection.sol\":448:491  address payable public immutable teamWallet */\n    tag_66:\n      immutable(\"0x16c8a63d520d02dbd3ba67dd93cae5eadc6219145ea2099e8e9f17a2533fafa7\")\n      dup2\n      jump\t// out\n        /* \"contracts/PlanetZephyrosFeeReflection.sol\":351:394  address payable public immutable coreWallet */\n    tag_71:\n      immutable(\"0x6ca54da2c4784ea43fd88b3402de07ae4bced597cbb19f323b7595857a6720ae\")\n      dup2\n      jump\t// out\n        /* \"contracts/PlanetZephyrosFeeReflection.sol\":736:765  address public immutable WETN */\n    tag_75:\n      immutable(\"0xb7020dd003fcd4d96af1507ff4dc7e2c1158f23ad0bacfdf3455869cf9fb4898\")\n      dup2\n      jump\t// out\n        /* \"contracts/PlanetZephyrosFeeReflection.sol\":3785:3967  function setAutoBuyAndBurnCore(bool _autoBuyAndBurnCore) external onlyOwner nonReentrant { // Add: Setter for core auto-burn... */\n    tag_80:\n        /* \"@openzeppelin/contracts/access/Ownable.sol\":1531:1544  _checkOwner() */\n      tag_193\n        /* \"@openzeppelin/contracts/access/Ownable.sol\":1531:1542  _checkOwner */\n      tag_173\n        /* \"@openzeppelin/contracts/access/Ownable.sol\":1531:1544  _checkOwner() */\n      jump\t// in\n    tag_193:\n        /* \"@openzeppelin/contracts/utils/ReentrancyGuard.sol\":2500:2521  _nonReentrantBefore() */\n      tag_195\n        /* \"@openzeppelin/contracts/utils/ReentrancyGuard.sol\":2500:2519  _nonReentrantBefore */\n      tag_176\n        /* \"@openzeppelin/contracts/utils/ReentrancyGuard.sol\":2500:2521  _nonReentrantBefore() */\n      jump\t// in\n    tag_195:\n        /* \"contracts/PlanetZephyrosFeeReflection.sol\":3940:3959  _autoBuyAndBurnCore */\n      dup1\n        /* \"contracts/PlanetZephyrosFeeReflection.sol\":3919:3937  autoBuyAndBurnCore */\n      0x07\n      0x01\n        /* \"contracts/PlanetZephyrosFeeReflection.sol\":3919:3959  autoBuyAndBurnCore = _autoBuyAndBurnCore */\n      0x0100\n      exp\n      dup2\n      sload\n      dup2\n      0xff\n      mul\n      not\n      and\n      swap1\n      dup4\n      iszero\n      iszero\n      mul\n      or\n      swap1\n      sstore\n      pop\n        /* \"@openzeppelin/contracts/utils/ReentrancyGuard.sol\":2542:2562  _nonReentrantAfter() */\n      tag_197\n        /* \"@openzeppelin/contracts/utils/ReentrancyGuard.sol\":2542:2560  _nonReentrantAfter */\n      tag_179\n        /* \"@openzeppelin/contracts/utils/ReentrancyGuard.sol\":2542:2562  _nonReentrantAfter() */\n      jump\t// in\n    tag_197:\n        /* \"contracts/PlanetZephyrosFeeReflection.sol\":3785:3967  function setAutoBuyAndBurnCore(bool _autoBuyAndBurnCore) external onlyOwner nonReentrant { // Add: Setter for core auto-burn... */\n      pop\n      jump\t// out\n        /* \"@openzeppelin/contracts/access/Ownable.sol\":2293:2394  function renounceOwnership() public virtual onlyOwner {... */\n    tag_83:\n        /* \"@openzeppelin/contracts/access/Ownable.sol\":1531:1544  _checkOwner() */\n      tag_199\n        /* \"@openzeppelin/contracts/access/Ownable.sol\":1531:1542  _checkOwner */\n      tag_173\n        /* \"@openzeppelin/contracts/access/Ownable.sol\":1531:1544  _checkOwner() */\n      jump\t// in\n    tag_199:\n        /* \"@openzeppelin/contracts/access/Ownable.sol\":2357:2387  _transferOwnership(address(0)) */\n      tag_201\n        /* \"@openzeppelin/contracts/access/Ownable.sol\":2384:2385  0 */\n      0x00\n        /* \"@openzeppelin/contracts/access/Ownable.sol\":2357:2375  _transferOwnership */\n      tag_202\n        /* \"@openzeppelin/contracts/access/Ownable.sol\":2357:2387  _transferOwnership(address(0)) */\n      jump\t// in\n    tag_201:\n        /* \"@openzeppelin/contracts/access/Ownable.sol\":2293:2394  function renounceOwnership() public virtual onlyOwner {... */\n      jump\t// out\n        /* \"contracts/PlanetZephyrosFeeReflection.sol\":1381:1407  uint256 public coreBalance */\n    tag_86:\n      sload(0x05)\n      dup2\n      jump\t// out\n        /* \"contracts/PlanetZephyrosFeeReflection.sol\":1482:1512  bool public autoBuyAndBurnCore */\n    tag_90:\n      0x07\n      0x01\n      swap1\n      sload\n      swap1\n      0x0100\n      exp\n      swap1\n      div\n      0xff\n      and\n      dup2\n      jump\t// out\n        /* \"contracts/PlanetZephyrosFeeReflection.sol\":1414:1440  uint256 public teamBalance */\n    tag_95:\n      sload(0x06)\n      dup2\n      jump\t// out\n        /* \"@openzeppelin/contracts/access/Ownable.sol\":1638:1723  function owner() public view virtual returns (address) {... */\n    tag_99:\n        /* \"@openzeppelin/contracts/access/Ownable.sol\":1684:1691  address */\n      0x00\n        /* \"@openzeppelin/contracts/access/Ownable.sol\":1710:1716  _owner */\n      0x01\n      0x00\n      swap1\n      sload\n      swap1\n      0x0100\n      exp\n      swap1\n      div\n      0xffffffffffffffffffffffffffffffffffffffff\n      and\n        /* \"@openzeppelin/contracts/access/Ownable.sol\":1703:1716  return _owner */\n      swap1\n      pop\n        /* \"@openzeppelin/contracts/access/Ownable.sol\":1638:1723  function owner() public view virtual returns (address) {... */\n      swap1\n      jump\t// out\n        /* \"contracts/PlanetZephyrosFeeReflection.sol\":7882:8291  function rescueETH(uint256 amount, address payable to) external onlyOwner nonReentrant {... */\n    tag_105:\n        /* \"@openzeppelin/contracts/access/Ownable.sol\":1531:1544  _checkOwner() */\n      tag_205\n        /* \"@openzeppelin/contracts/access/Ownable.sol\":1531:1542  _checkOwner */\n      tag_173\n        /* \"@openzeppelin/contracts/access/Ownable.sol\":1531:1544  _checkOwner() */\n      jump\t// in\n    tag_205:\n        /* \"@openzeppelin/contracts/utils/ReentrancyGuard.sol\":2500:2521  _nonReentrantBefore() */\n      tag_207\n        /* \"@openzeppelin/contracts/utils/ReentrancyGuard.sol\":2500:2519  _nonReentrantBefore */\n      tag_176\n        /* \"@openzeppelin/contracts/utils/ReentrancyGuard.sol\":2500:2521  _nonReentrantBefore() */\n      jump\t// in\n    tag_207:\n        /* \"contracts/PlanetZephyrosFeeReflection.sol\":8002:8003  0 */\n      0x00\n        /* \"contracts/PlanetZephyrosFeeReflection.sol\":7988:8004  to != address(0) */\n      0xffffffffffffffffffffffffffffffffffffffff\n      and\n        /* \"contracts/PlanetZephyrosFeeReflection.sol\":7988:7990  to */\n      dup2\n        /* \"contracts/PlanetZephyrosFeeReflection.sol\":7988:8004  to != address(0) */\n      0xffffffffffffffffffffffffffffffffffffffff\n      and\n      sub\n        /* \"contracts/PlanetZephyrosFeeReflection.sol\":7980:8026  require(to != address(0), \"Invalid recipient\") */\n      tag_209\n      jumpi\n      mload(0x40)\n      0x08c379a000000000000000000000000000000000000000000000000000000000\n      dup2\n      mstore\n      0x04\n      add\n      tag_210\n      swap1\n      tag_211\n      jump\t// in\n    tag_210:\n      mload(0x40)\n      dup1\n      swap2\n      sub\n      swap1\n      revert\n    tag_209:\n        /* \"contracts/PlanetZephyrosFeeReflection.sol\":8037:8056  uint256 contractETH */\n      0x00\n        /* \"contracts/PlanetZephyrosFeeReflection.sol\":8059:8080  address(this).balance */\n      selfbalance\n        /* \"contracts/PlanetZephyrosFeeReflection.sol\":8037:8080  uint256 contractETH = address(this).balance */\n      swap1\n      pop\n        /* \"contracts/PlanetZephyrosFeeReflection.sol\":8109:8120  contractETH */\n      dup1\n        /* \"contracts/PlanetZephyrosFeeReflection.sol\":8099:8105  amount */\n      dup4\n        /* \"contracts/PlanetZephyrosFeeReflection.sol\":8099:8120  amount <= contractETH */\n      gt\n      iszero\n        /* \"contracts/PlanetZephyrosFeeReflection.sol\":8091:8139  require(amount <= contractETH, \"Not enough ETH\") */\n      tag_212\n      jumpi\n      mload(0x40)\n      0x08c379a000000000000000000000000000000000000000000000000000000000\n      dup2\n      mstore\n      0x04\n      add\n      tag_213\n      swap1\n      tag_214\n      jump\t// in\n    tag_213:\n      mload(0x40)\n      dup1\n      swap2\n      sub\n      swap1\n      revert\n    tag_212:\n        /* \"contracts/PlanetZephyrosFeeReflection.sol\":8151:8163  bool success */\n      0x00\n        /* \"contracts/PlanetZephyrosFeeReflection.sol\":8169:8171  to */\n      dup3\n        /* \"contracts/PlanetZephyrosFeeReflection.sol\":8169:8176  to.call */\n      0xffffffffffffffffffffffffffffffffffffffff\n      and\n        /* \"contracts/PlanetZephyrosFeeReflection.sol\":8184:8190  amount */\n      dup5\n        /* \"contracts/PlanetZephyrosFeeReflection.sol\":8169:8195  to.call{value: amount}(\"\") */\n      mload(0x40)\n      tag_215\n      swap1\n      tag_216\n      jump\t// in\n    tag_215:\n      0x00\n      mload(0x40)\n      dup1\n      dup4\n      sub\n      dup2\n      dup6\n      dup8\n      gas\n      call\n      swap3\n      pop\n      pop\n      pop\n      returndatasize\n      dup1\n      0x00\n      dup2\n      eq\n      tag_219\n      jumpi\n      mload(0x40)\n      swap2\n      pop\n      and(add(returndatasize, 0x3f), not(0x1f))\n      dup3\n      add\n      0x40\n      mstore\n      returndatasize\n      dup3\n      mstore\n      returndatasize\n      0x00\n      0x20\n      dup5\n      add\n      returndatacopy\n      jump(tag_218)\n    tag_219:\n      0x60\n      swap2\n      pop\n    tag_218:\n      pop\n        /* \"contracts/PlanetZephyrosFeeReflection.sol\":8150:8195  (bool success, ) = to.call{value: amount}(\"\") */\n      pop\n      swap1\n      pop\n        /* \"contracts/PlanetZephyrosFeeReflection.sol\":8214:8221  success */\n      dup1\n        /* \"contracts/PlanetZephyrosFeeReflection.sol\":8206:8245  require(success, \"ETH transfer failed\") */\n      tag_220\n      jumpi\n      mload(0x40)\n      0x08c379a000000000000000000000000000000000000000000000000000000000\n      dup2\n      mstore\n      0x04\n      add\n      tag_221\n      swap1\n      tag_222\n      jump\t// in\n    tag_221:\n      mload(0x40)\n      dup1\n      swap2\n      sub\n      swap1\n      revert\n    tag_220:\n        /* \"contracts/PlanetZephyrosFeeReflection.sol\":8261:8283  ETHRescued(amount, to) */\n      0xcd7fef3a642dcf99ce1004b2a15d31e91398f01974500b64eab8fc50fef2d3b1\n        /* \"contracts/PlanetZephyrosFeeReflection.sol\":8272:8278  amount */\n      dup5\n        /* \"contracts/PlanetZephyrosFeeReflection.sol\":8280:8282  to */\n      dup5\n        /* \"contracts/PlanetZephyrosFeeReflection.sol\":8261:8283  ETHRescued(amount, to) */\n      mload(0x40)\n      tag_223\n      swap3\n      swap2\n      swap1\n      tag_224\n      jump\t// in\n    tag_223:\n      mload(0x40)\n      dup1\n      swap2\n      sub\n      swap1\n      log1\n        /* \"contracts/PlanetZephyrosFeeReflection.sol\":7969:8291  {... */\n      pop\n      pop\n        /* \"@openzeppelin/contracts/utils/ReentrancyGuard.sol\":2542:2562  _nonReentrantAfter() */\n      tag_225\n        /* \"@openzeppelin/contracts/utils/ReentrancyGuard.sol\":2542:2560  _nonReentrantAfter */\n      tag_179\n        /* \"@openzeppelin/contracts/utils/ReentrancyGuard.sol\":2542:2562  _nonReentrantAfter() */\n      jump\t// in\n    tag_225:\n        /* \"contracts/PlanetZephyrosFeeReflection.sol\":7882:8291  function rescueETH(uint256 amount, address payable to) external onlyOwner nonReentrant {... */\n      pop\n      pop\n      jump\t// out\n        /* \"contracts/PlanetZephyrosFeeReflection.sol\":8389:9219  function rescueTokens(address token, uint256 amount, address to) external onlyOwner nonReentrant {... */\n    tag_110:\n        /* \"@openzeppelin/contracts/access/Ownable.sol\":1531:1544  _checkOwner() */\n      tag_227\n        /* \"@openzeppelin/contracts/access/Ownable.sol\":1531:1542  _checkOwner */\n      tag_173\n        /* \"@openzeppelin/contracts/access/Ownable.sol\":1531:1544  _checkOwner() */\n      jump\t// in\n    tag_227:\n        /* \"@openzeppelin/contracts/utils/ReentrancyGuard.sol\":2500:2521  _nonReentrantBefore() */\n      tag_229\n        /* \"@openzeppelin/contracts/utils/ReentrancyGuard.sol\":2500:2519  _nonReentrantBefore */\n      tag_176\n        /* \"@openzeppelin/contracts/utils/ReentrancyGuard.sol\":2500:2521  _nonReentrantBefore() */\n      jump\t// in\n    tag_229:\n        /* \"contracts/PlanetZephyrosFeeReflection.sol\":8519:8520  0 */\n      0x00\n        /* \"contracts/PlanetZephyrosFeeReflection.sol\":8505:8521  to != address(0) */\n      0xffffffffffffffffffffffffffffffffffffffff\n      and\n        /* \"contracts/PlanetZephyrosFeeReflection.sol\":8505:8507  to */\n      dup2\n        /* \"contracts/PlanetZephyrosFeeReflection.sol\":8505:8521  to != address(0) */\n      0xffffffffffffffffffffffffffffffffffffffff\n      and\n      sub\n        /* \"contracts/PlanetZephyrosFeeReflection.sol\":8497:8543  require(to != address(0), \"Invalid recipient\") */\n      tag_231\n      jumpi\n      mload(0x40)\n      0x08c379a000000000000000000000000000000000000000000000000000000000\n      dup2\n      mstore\n      0x04\n      add\n      tag_232\n      swap1\n      tag_211\n      jump\t// in\n    tag_232:\n      mload(0x40)\n      dup1\n      swap2\n      sub\n      swap1\n      revert\n    tag_231:\n        /* \"contracts/PlanetZephyrosFeeReflection.sol\":8554:8566  IERC20 erc20 */\n      0x00\n        /* \"contracts/PlanetZephyrosFeeReflection.sol\":8576:8581  token */\n      dup4\n        /* \"contracts/PlanetZephyrosFeeReflection.sol\":8554:8582  IERC20 erc20 = IERC20(token) */\n      swap1\n      pop\n        /* \"contracts/PlanetZephyrosFeeReflection.sol\":8593:8608  uint256 balance */\n      0x00\n        /* \"contracts/PlanetZephyrosFeeReflection.sol\":8611:8616  erc20 */\n      dup2\n        /* \"contracts/PlanetZephyrosFeeReflection.sol\":8611:8626  erc20.balanceOf */\n      0xffffffffffffffffffffffffffffffffffffffff\n      and\n      0x70a08231\n        /* \"contracts/PlanetZephyrosFeeReflection.sol\":8635:8639  this */\n      address\n        /* \"contracts/PlanetZephyrosFeeReflection.sol\":8611:8641  erc20.balanceOf(address(this)) */\n      mload(0x40)\n      dup3\n      0xffffffff\n      and\n      0xe0\n      shl\n      dup2\n      mstore\n      0x04\n      add\n      tag_233\n      swap2\n      swap1\n      tag_42\n      jump\t// in\n    tag_233:\n      0x20\n      mload(0x40)\n      dup1\n      dup4\n      sub\n      dup2\n      dup7\n      gas\n      staticcall\n      iszero\n      dup1\n      iszero\n      tag_235\n      jumpi\n      returndatasize\n      0x00\n      dup1\n      returndatacopy\n      revert(0x00, returndatasize)\n    tag_235:\n      pop\n      pop\n      pop\n      pop\n      mload(0x40)\n      returndatasize\n      not(0x1f)\n      0x1f\n      dup3\n      add\n      and\n      dup3\n      add\n      dup1\n      0x40\n      mstore\n      pop\n      dup2\n      add\n      swap1\n      tag_236\n      swap2\n      swap1\n      tag_142\n      jump\t// in\n    tag_236:\n        /* \"contracts/PlanetZephyrosFeeReflection.sol\":8593:8641  uint256 balance = erc20.balanceOf(address(this)) */\n      swap1\n      pop\n        /* \"contracts/PlanetZephyrosFeeReflection.sol\":8670:8677  balance */\n      dup1\n        /* \"contracts/PlanetZephyrosFeeReflection.sol\":8660:8666  amount */\n      dup5\n        /* \"contracts/PlanetZephyrosFeeReflection.sol\":8660:8677  amount <= balance */\n      gt\n      iszero\n        /* \"contracts/PlanetZephyrosFeeReflection.sol\":8652:8706  require(amount <= balance, \"Not enough token balance\") */\n      tag_237\n      jumpi\n      mload(0x40)\n      0x08c379a000000000000000000000000000000000000000000000000000000000\n      dup2\n      mstore\n      0x04\n      add\n      tag_238\n      swap1\n      tag_239\n      jump\t// in\n    tag_238:\n      mload(0x40)\n      dup1\n      swap2\n      sub\n      swap1\n      revert\n    tag_237:\n        /* \"contracts/PlanetZephyrosFeeReflection.sol\":8800:8804  WETN */\n      immutable(\"0xb7020dd003fcd4d96af1507ff4dc7e2c1158f23ad0bacfdf3455869cf9fb4898\")\n        /* \"contracts/PlanetZephyrosFeeReflection.sol\":8791:8804  token == WETN */\n      0xffffffffffffffffffffffffffffffffffffffff\n      and\n        /* \"contracts/PlanetZephyrosFeeReflection.sol\":8791:8796  token */\n      dup6\n        /* \"contracts/PlanetZephyrosFeeReflection.sol\":8791:8804  token == WETN */\n      0xffffffffffffffffffffffffffffffffffffffff\n      and\n      sub\n        /* \"contracts/PlanetZephyrosFeeReflection.sol\":8787:9064  if (token == WETN) {... */\n      tag_240\n      jumpi\n        /* \"contracts/PlanetZephyrosFeeReflection.sol\":8821:8844  uint256 protectedAmount */\n      0x00\n        /* \"contracts/PlanetZephyrosFeeReflection.sol\":8875:8886  clubBalance */\n      sload(0x04)\n        /* \"contracts/PlanetZephyrosFeeReflection.sol\":8861:8872  teamBalance */\n      sload(0x06)\n        /* \"contracts/PlanetZephyrosFeeReflection.sol\":8847:8858  coreBalance */\n      sload(0x05)\n        /* \"contracts/PlanetZephyrosFeeReflection.sol\":8847:8872  coreBalance + teamBalance */\n      tag_241\n      swap2\n      swap1\n      tag_144\n      jump\t// in\n    tag_241:\n        /* \"contracts/PlanetZephyrosFeeReflection.sol\":8847:8886  coreBalance + teamBalance + clubBalance */\n      tag_242\n      swap2\n      swap1\n      tag_144\n      jump\t// in\n    tag_242:\n        /* \"contracts/PlanetZephyrosFeeReflection.sol\":8821:8886  uint256 protectedAmount = coreBalance + teamBalance + clubBalance */\n      swap1\n      pop\n        /* \"contracts/PlanetZephyrosFeeReflection.sol\":8919:8934  protectedAmount */\n      dup1\n        /* \"contracts/PlanetZephyrosFeeReflection.sol\":8909:8916  balance */\n      dup3\n        /* \"contracts/PlanetZephyrosFeeReflection.sol\":8909:8934  balance > protectedAmount */\n      gt\n        /* \"contracts/PlanetZephyrosFeeReflection.sol\":8901:8963  require(balance > protectedAmount, \"No excess WETN to rescue\") */\n      tag_243\n      jumpi\n      mload(0x40)\n      0x08c379a000000000000000000000000000000000000000000000000000000000\n      dup2\n      mstore\n      0x04\n      add\n      tag_244\n      swap1\n      tag_245\n      jump\t// in\n    tag_244:\n      mload(0x40)\n      dup1\n      swap2\n      sub\n      swap1\n      revert\n    tag_243:\n        /* \"contracts/PlanetZephyrosFeeReflection.sol\":9006:9021  protectedAmount */\n      dup1\n        /* \"contracts/PlanetZephyrosFeeReflection.sol\":8996:9003  balance */\n      dup3\n        /* \"contracts/PlanetZephyrosFeeReflection.sol\":8996:9021  balance - protectedAmount */\n      tag_246\n      swap2\n      swap1\n      tag_150\n      jump\t// in\n    tag_246:\n        /* \"contracts/PlanetZephyrosFeeReflection.sol\":8986:8992  amount */\n      dup6\n        /* \"contracts/PlanetZephyrosFeeReflection.sol\":8986:9021  amount <= balance - protectedAmount */\n      gt\n      iszero\n        /* \"contracts/PlanetZephyrosFeeReflection.sol\":8978:9052  require(amount <= balance - protectedAmount, \"Amount exceeds excess WETN\") */\n      tag_247\n      jumpi\n      mload(0x40)\n      0x08c379a000000000000000000000000000000000000000000000000000000000\n      dup2\n      mstore\n      0x04\n      add\n      tag_248\n      swap1\n      tag_249\n      jump\t// in\n    tag_248:\n      mload(0x40)\n      dup1\n      swap2\n      sub\n      swap1\n      revert\n    tag_247:\n        /* \"contracts/PlanetZephyrosFeeReflection.sol\":8806:9064  {... */\n      pop\n        /* \"contracts/PlanetZephyrosFeeReflection.sol\":8787:9064  if (token == WETN) {... */\n    tag_240:\n        /* \"contracts/PlanetZephyrosFeeReflection.sol\":9076:9085  bool sent */\n      0x00\n        /* \"contracts/PlanetZephyrosFeeReflection.sol\":9088:9093  erc20 */\n      dup3\n        /* \"contracts/PlanetZephyrosFeeReflection.sol\":9088:9102  erc20.transfer */\n      0xffffffffffffffffffffffffffffffffffffffff\n      and\n      0xa9059cbb\n        /* \"contracts/PlanetZephyrosFeeReflection.sol\":9103:9105  to */\n      dup6\n        /* \"contracts/PlanetZephyrosFeeReflection.sol\":9107:9113  amount */\n      dup8\n        /* \"contracts/PlanetZephyrosFeeReflection.sol\":9088:9114  erc20.transfer(to, amount) */\n      mload(0x40)\n      dup4\n      0xffffffff\n      and\n      0xe0\n      shl\n      dup2\n      mstore\n      0x04\n      add\n      tag_250\n      swap3\n      swap2\n      swap1\n      tag_251\n      jump\t// in\n    tag_250:\n      0x20\n      mload(0x40)\n      dup1\n      dup4\n      sub\n      dup2\n      0x00\n      dup8\n      gas\n      call\n      iszero\n      dup1\n      iszero\n      tag_253\n      jumpi\n      returndatasize\n      0x00\n      dup1\n      returndatacopy\n      revert(0x00, returndatasize)\n    tag_253:\n      pop\n      pop\n      pop\n      pop\n      mload(0x40)\n      returndatasize\n      not(0x1f)\n      0x1f\n      dup3\n      add\n      and\n      dup3\n      add\n      dup1\n      0x40\n      mstore\n      pop\n      dup2\n      add\n      swap1\n      tag_254\n      swap2\n      swap1\n      tag_255\n      jump\t// in\n    tag_254:\n        /* \"contracts/PlanetZephyrosFeeReflection.sol\":9076:9114  bool sent = erc20.transfer(to, amount) */\n      swap1\n      pop\n        /* \"contracts/PlanetZephyrosFeeReflection.sol\":9133:9137  sent */\n      dup1\n        /* \"contracts/PlanetZephyrosFeeReflection.sol\":9125:9163  require(sent, \"Token transfer failed\") */\n      tag_256\n      jumpi\n      mload(0x40)\n      0x08c379a000000000000000000000000000000000000000000000000000000000\n      dup2\n      mstore\n      0x04\n      add\n      tag_257\n      swap1\n      tag_258\n      jump\t// in\n    tag_257:\n      mload(0x40)\n      dup1\n      swap2\n      sub\n      swap1\n      revert\n    tag_256:\n        /* \"contracts/PlanetZephyrosFeeReflection.sol\":9179:9211  TokensRescued(token, amount, to) */\n      0xfb475a842bad10d3800b61bd1a92e716051afba979b124b583bd99a2d1d7bfd5\n        /* \"contracts/PlanetZephyrosFeeReflection.sol\":9193:9198  token */\n      dup7\n        /* \"contracts/PlanetZephyrosFeeReflection.sol\":9200:9206  amount */\n      dup7\n        /* \"contracts/PlanetZephyrosFeeReflection.sol\":9208:9210  to */\n      dup7\n        /* \"contracts/PlanetZephyrosFeeReflection.sol\":9179:9211  TokensRescued(token, amount, to) */\n      mload(0x40)\n      tag_259\n      swap4\n      swap3\n      swap2\n      swap1\n      tag_260\n      jump\t// in\n    tag_259:\n      mload(0x40)\n      dup1\n      swap2\n      sub\n      swap1\n      log1\n        /* \"contracts/PlanetZephyrosFeeReflection.sol\":8486:9219  {... */\n      pop\n      pop\n      pop\n        /* \"@openzeppelin/contracts/utils/ReentrancyGuard.sol\":2542:2562  _nonReentrantAfter() */\n      tag_261\n        /* \"@openzeppelin/contracts/utils/ReentrancyGuard.sol\":2542:2560  _nonReentrantAfter */\n      tag_179\n        /* \"@openzeppelin/contracts/utils/ReentrancyGuard.sol\":2542:2562  _nonReentrantAfter() */\n      jump\t// in\n    tag_261:\n        /* \"contracts/PlanetZephyrosFeeReflection.sol\":8389:9219  function rescueTokens(address token, uint256 amount, address to) external onlyOwner nonReentrant {... */\n      pop\n      pop\n      pop\n      jump\t// out\n        /* \"contracts/PlanetZephyrosFeeReflection.sol\":1449:1475  bool public autoBuyAndBurn */\n    tag_113:\n      0x07\n      0x00\n      swap1\n      sload\n      swap1\n      0x0100\n      exp\n      swap1\n      div\n      0xff\n      and\n      dup2\n      jump\t// out\n        /* \"contracts/PlanetZephyrosFeeReflection.sol\":2889:3549  function teamWithdraw() external onlyOwner nonReentrant {... */\n    tag_117:\n        /* \"@openzeppelin/contracts/access/Ownable.sol\":1531:1544  _checkOwner() */\n      tag_263\n        /* \"@openzeppelin/contracts/access/Ownable.sol\":1531:1542  _checkOwner */\n      tag_173\n        /* \"@openzeppelin/contracts/access/Ownable.sol\":1531:1544  _checkOwner() */\n      jump\t// in\n    tag_263:\n        /* \"@openzeppelin/contracts/utils/ReentrancyGuard.sol\":2500:2521  _nonReentrantBefore() */\n      tag_265\n        /* \"@openzeppelin/contracts/utils/ReentrancyGuard.sol\":2500:2519  _nonReentrantBefore */\n      tag_176\n        /* \"@openzeppelin/contracts/utils/ReentrancyGuard.sol\":2500:2521  _nonReentrantBefore() */\n      jump\t// in\n    tag_265:\n        /* \"contracts/PlanetZephyrosFeeReflection.sol\":2956:2978  _processIncomingFee(0) */\n      tag_267\n        /* \"contracts/PlanetZephyrosFeeReflection.sol\":2976:2977  0 */\n      0x00\n        /* \"contracts/PlanetZephyrosFeeReflection.sol\":2956:2975  _processIncomingFee */\n      tag_33\n        /* \"contracts/PlanetZephyrosFeeReflection.sol\":2956:2978  _processIncomingFee(0) */\n      jump\t// in\n    tag_267:\n        /* \"contracts/PlanetZephyrosFeeReflection.sol\":2991:3014  uint256 totalToWithdraw */\n      0x00\n        /* \"contracts/PlanetZephyrosFeeReflection.sol\":3031:3042  teamBalance */\n      sload(0x06)\n        /* \"contracts/PlanetZephyrosFeeReflection.sol\":3017:3028  coreBalance */\n      sload(0x05)\n        /* \"contracts/PlanetZephyrosFeeReflection.sol\":3017:3042  coreBalance + teamBalance */\n      tag_268\n      swap2\n      swap1\n      tag_144\n      jump\t// in\n    tag_268:\n        /* \"contracts/PlanetZephyrosFeeReflection.sol\":2991:3042  uint256 totalToWithdraw = coreBalance + teamBalance */\n      swap1\n      pop\n        /* \"contracts/PlanetZephyrosFeeReflection.sol\":3075:3076  0 */\n      0x00\n        /* \"contracts/PlanetZephyrosFeeReflection.sol\":3057:3072  totalToWithdraw */\n      dup2\n        /* \"contracts/PlanetZephyrosFeeReflection.sol\":3057:3076  totalToWithdraw > 0 */\n      gt\n        /* \"contracts/PlanetZephyrosFeeReflection.sol\":3053:3142  if (totalToWithdraw > 0) {... */\n      iszero\n      tag_269\n      jumpi\n        /* \"contracts/PlanetZephyrosFeeReflection.sol\":3099:3103  WETN */\n      immutable(\"0xb7020dd003fcd4d96af1507ff4dc7e2c1158f23ad0bacfdf3455869cf9fb4898\")\n        /* \"contracts/PlanetZephyrosFeeReflection.sol\":3093:3113  IWETN(WETN).withdraw */\n      0xffffffffffffffffffffffffffffffffffffffff\n      and\n      0x2e1a7d4d\n        /* \"contracts/PlanetZephyrosFeeReflection.sol\":3114:3129  totalToWithdraw */\n      dup3\n        /* \"contracts/PlanetZephyrosFeeReflection.sol\":3093:3130  IWETN(WETN).withdraw(totalToWithdraw) */\n      mload(0x40)\n      dup3\n      0xffffffff\n      and\n      0xe0\n      shl\n      dup2\n      mstore\n      0x04\n      add\n      tag_270\n      swap2\n      swap1\n      tag_56\n      jump\t// in\n    tag_270:\n      0x00\n      mload(0x40)\n      dup1\n      dup4\n      sub\n      dup2\n      0x00\n      dup8\n      dup1\n      extcodesize\n      iszero\n      dup1\n      iszero\n      tag_271\n      jumpi\n      0x00\n      dup1\n      revert\n    tag_271:\n      pop\n      gas\n      call\n      iszero\n      dup1\n      iszero\n      tag_273\n      jumpi\n      returndatasize\n      0x00\n      dup1\n      returndatacopy\n      revert(0x00, returndatasize)\n    tag_273:\n      pop\n      pop\n      pop\n      pop\n        /* \"contracts/PlanetZephyrosFeeReflection.sol\":3053:3142  if (totalToWithdraw > 0) {... */\n    tag_269:\n        /* \"contracts/PlanetZephyrosFeeReflection.sol\":3172:3173  0 */\n      0x00\n        /* \"contracts/PlanetZephyrosFeeReflection.sol\":3158:3169  coreBalance */\n      sload(0x05)\n        /* \"contracts/PlanetZephyrosFeeReflection.sol\":3158:3173  coreBalance > 0 */\n      gt\n        /* \"contracts/PlanetZephyrosFeeReflection.sol\":3154:3342  if (coreBalance > 0) {... */\n      iszero\n      tag_274\n      jumpi\n        /* \"contracts/PlanetZephyrosFeeReflection.sol\":3191:3198  bool s1 */\n      0x00\n        /* \"contracts/PlanetZephyrosFeeReflection.sol\":3204:3214  coreWallet */\n      immutable(\"0x6ca54da2c4784ea43fd88b3402de07ae4bced597cbb19f323b7595857a6720ae\")\n        /* \"contracts/PlanetZephyrosFeeReflection.sol\":3204:3219  coreWallet.call */\n      0xffffffffffffffffffffffffffffffffffffffff\n      and\n        /* \"contracts/PlanetZephyrosFeeReflection.sol\":3227:3238  coreBalance */\n      sload(0x05)\n        /* \"contracts/PlanetZephyrosFeeReflection.sol\":3204:3243  coreWallet.call{value: coreBalance}(\"\") */\n      mload(0x40)\n      tag_275\n      swap1\n      tag_216\n      jump\t// in\n    tag_275:\n      0x00\n      mload(0x40)\n      dup1\n      dup4\n      sub\n      dup2\n      dup6\n      dup8\n      gas\n      call\n      swap3\n      pop\n      pop\n      pop\n      returndatasize\n      dup1\n      0x00\n      dup2\n      eq\n      tag_278\n      jumpi\n      mload(0x40)\n      swap2\n      pop\n      and(add(returndatasize, 0x3f), not(0x1f))\n      dup3\n      add\n      0x40\n      mstore\n      returndatasize\n      dup3\n      mstore\n      returndatasize\n      0x00\n      0x20\n      dup5\n      add\n      returndatacopy\n      jump(tag_277)\n    tag_278:\n      0x60\n      swap2\n      pop\n    tag_277:\n      pop\n        /* \"contracts/PlanetZephyrosFeeReflection.sol\":3190:3243  (bool s1, ) = coreWallet.call{value: coreBalance}(\"\") */\n      pop\n      swap1\n      pop\n        /* \"contracts/PlanetZephyrosFeeReflection.sol\":3266:3268  s1 */\n      dup1\n        /* \"contracts/PlanetZephyrosFeeReflection.sol\":3258:3300  require(s1, \"Core wallet transfer failed\") */\n      tag_279\n      jumpi\n      mload(0x40)\n      0x08c379a000000000000000000000000000000000000000000000000000000000\n      dup2\n      mstore\n      0x04\n      add\n      tag_280\n      swap1\n      tag_281\n      jump\t// in\n    tag_280:\n      mload(0x40)\n      dup1\n      swap2\n      sub\n      swap1\n      revert\n    tag_279:\n        /* \"contracts/PlanetZephyrosFeeReflection.sol\":3329:3330  0 */\n      0x00\n        /* \"contracts/PlanetZephyrosFeeReflection.sol\":3315:3326  coreBalance */\n      0x05\n        /* \"contracts/PlanetZephyrosFeeReflection.sol\":3315:3330  coreBalance = 0 */\n      dup2\n      swap1\n      sstore\n      pop\n        /* \"contracts/PlanetZephyrosFeeReflection.sol\":3175:3342  {... */\n      pop\n        /* \"contracts/PlanetZephyrosFeeReflection.sol\":3154:3342  if (coreBalance > 0) {... */\n    tag_274:\n        /* \"contracts/PlanetZephyrosFeeReflection.sol\":3372:3373  0 */\n      0x00\n        /* \"contracts/PlanetZephyrosFeeReflection.sol\":3358:3369  teamBalance */\n      sload(0x06)\n        /* \"contracts/PlanetZephyrosFeeReflection.sol\":3358:3373  teamBalance > 0 */\n      gt\n        /* \"contracts/PlanetZephyrosFeeReflection.sol\":3354:3542  if (teamBalance > 0) {... */\n      iszero\n      tag_282\n      jumpi\n        /* \"contracts/PlanetZephyrosFeeReflection.sol\":3391:3398  bool s2 */\n      0x00\n        /* \"contracts/PlanetZephyrosFeeReflection.sol\":3404:3414  teamWallet */\n      immutable(\"0x16c8a63d520d02dbd3ba67dd93cae5eadc6219145ea2099e8e9f17a2533fafa7\")\n        /* \"contracts/PlanetZephyrosFeeReflection.sol\":3404:3419  teamWallet.call */\n      0xffffffffffffffffffffffffffffffffffffffff\n      and\n        /* \"contracts/PlanetZephyrosFeeReflection.sol\":3427:3438  teamBalance */\n      sload(0x06)\n        /* \"contracts/PlanetZephyrosFeeReflection.sol\":3404:3443  teamWallet.call{value: teamBalance}(\"\") */\n      mload(0x40)\n      tag_283\n      swap1\n      tag_216\n      jump\t// in\n    tag_283:\n      0x00\n      mload(0x40)\n      dup1\n      dup4\n      sub\n      dup2\n      dup6\n      dup8\n      gas\n      call\n      swap3\n      pop\n      pop\n      pop\n      returndatasize\n      dup1\n      0x00\n      dup2\n      eq\n      tag_286\n      jumpi\n      mload(0x40)\n      swap2\n      pop\n      and(add(returndatasize, 0x3f), not(0x1f))\n      dup3\n      add\n      0x40\n      mstore\n      returndatasize\n      dup3\n      mstore\n      returndatasize\n      0x00\n      0x20\n      dup5\n      add\n      returndatacopy\n      jump(tag_285)\n    tag_286:\n      0x60\n      swap2\n      pop\n    tag_285:\n      pop\n        /* \"contracts/PlanetZephyrosFeeReflection.sol\":3390:3443  (bool s2, ) = teamWallet.call{value: teamBalance}(\"\") */\n      pop\n      swap1\n      pop\n        /* \"contracts/PlanetZephyrosFeeReflection.sol\":3466:3468  s2 */\n      dup1\n        /* \"contracts/PlanetZephyrosFeeReflection.sol\":3458:3500  require(s2, \"Team wallet transfer failed\") */\n      tag_287\n      jumpi\n      mload(0x40)\n      0x08c379a000000000000000000000000000000000000000000000000000000000\n      dup2\n      mstore\n      0x04\n      add\n      tag_288\n      swap1\n      tag_289\n      jump\t// in\n    tag_288:\n      mload(0x40)\n      dup1\n      swap2\n      sub\n      swap1\n      revert\n    tag_287:\n        /* \"contracts/PlanetZephyrosFeeReflection.sol\":3529:3530  0 */\n      0x00\n        /* \"contracts/PlanetZephyrosFeeReflection.sol\":3515:3526  teamBalance */\n      0x06\n        /* \"contracts/PlanetZephyrosFeeReflection.sol\":3515:3530  teamBalance = 0 */\n      dup2\n      swap1\n      sstore\n      pop\n        /* \"contracts/PlanetZephyrosFeeReflection.sol\":3375:3542  {... */\n      pop\n        /* \"contracts/PlanetZephyrosFeeReflection.sol\":3354:3542  if (teamBalance > 0) {... */\n    tag_282:\n        /* \"contracts/PlanetZephyrosFeeReflection.sol\":2945:3549  {... */\n      pop\n        /* \"@openzeppelin/contracts/utils/ReentrancyGuard.sol\":2542:2562  _nonReentrantAfter() */\n      tag_290\n        /* \"@openzeppelin/contracts/utils/ReentrancyGuard.sol\":2542:2560  _nonReentrantAfter */\n      tag_179\n        /* \"@openzeppelin/contracts/utils/ReentrancyGuard.sol\":2542:2562  _nonReentrantAfter() */\n      jump\t// in\n    tag_290:\n        /* \"contracts/PlanetZephyrosFeeReflection.sol\":2889:3549  function teamWithdraw() external onlyOwner nonReentrant {... */\n      jump\t// out\n        /* \"contracts/PlanetZephyrosFeeReflection.sol\":4236:4327  function processIncomingTokens() external onlyOwnerOrNFT {... */\n    tag_120:\n        /* \"contracts/PlanetZephyrosFeeReflection.sol\":4125:4132  owner() */\n      tag_292\n        /* \"contracts/PlanetZephyrosFeeReflection.sol\":4125:4130  owner */\n      tag_99\n        /* \"contracts/PlanetZephyrosFeeReflection.sol\":4125:4132  owner() */\n      jump\t// in\n    tag_292:\n        /* \"contracts/PlanetZephyrosFeeReflection.sol\":4111:4132  msg.sender == owner() */\n      0xffffffffffffffffffffffffffffffffffffffff\n      and\n        /* \"contracts/PlanetZephyrosFeeReflection.sol\":4111:4121  msg.sender */\n      caller\n        /* \"contracts/PlanetZephyrosFeeReflection.sol\":4111:4132  msg.sender == owner() */\n      0xffffffffffffffffffffffffffffffffffffffff\n      and\n      eq\n        /* \"contracts/PlanetZephyrosFeeReflection.sol\":4111:4192  msg.sender == owner() || msg.sender == 0x066F912448941c7a094A65F65FF8C91963785893 */\n      dup1\n      tag_293\n      jumpi\n      pop\n        /* \"contracts/PlanetZephyrosFeeReflection.sol\":4150:4192  0x066F912448941c7a094A65F65FF8C91963785893 */\n      0x066f912448941c7a094a65f65ff8c91963785893\n        /* \"contracts/PlanetZephyrosFeeReflection.sol\":4136:4192  msg.sender == 0x066F912448941c7a094A65F65FF8C91963785893 */\n      0xffffffffffffffffffffffffffffffffffffffff\n      and\n        /* \"contracts/PlanetZephyrosFeeReflection.sol\":4136:4146  msg.sender */\n      caller\n        /* \"contracts/PlanetZephyrosFeeReflection.sol\":4136:4192  msg.sender == 0x066F912448941c7a094A65F65FF8C91963785893 */\n      0xffffffffffffffffffffffffffffffffffffffff\n      and\n      eq\n        /* \"contracts/PlanetZephyrosFeeReflection.sol\":4111:4192  msg.sender == owner() || msg.sender == 0x066F912448941c7a094A65F65FF8C91963785893 */\n    tag_293:\n        /* \"contracts/PlanetZephyrosFeeReflection.sol\":4103:4209  require(msg.sender == owner() || msg.sender == 0x066F912448941c7a094A65F65FF8C91963785893, \"Unauthorized\") */\n      tag_294\n      jumpi\n      mload(0x40)\n      0x08c379a000000000000000000000000000000000000000000000000000000000\n      dup2\n      mstore\n      0x04\n      add\n      tag_295\n      swap1\n      tag_296\n      jump\t// in\n    tag_295:\n      mload(0x40)\n      dup1\n      swap2\n      sub\n      swap1\n      revert\n    tag_294:\n        /* \"contracts/PlanetZephyrosFeeReflection.sol\":4236:4327  function processIncomingTokens() external onlyOwnerOrNFT {... */\n      jump\t// out\n        /* \"contracts/PlanetZephyrosFeeReflection.sol\":4619:4819  function manualBuyAndBurnCore() external onlyOwner nonReentrant { // Add: Separate manual for core only... */\n    tag_123:\n        /* \"@openzeppelin/contracts/access/Ownable.sol\":1531:1544  _checkOwner() */\n      tag_299\n        /* \"@openzeppelin/contracts/access/Ownable.sol\":1531:1542  _checkOwner */\n      tag_173\n        /* \"@openzeppelin/contracts/access/Ownable.sol\":1531:1544  _checkOwner() */\n      jump\t// in\n    tag_299:\n        /* \"@openzeppelin/contracts/utils/ReentrancyGuard.sol\":2500:2521  _nonReentrantBefore() */\n      tag_301\n        /* \"@openzeppelin/contracts/utils/ReentrancyGuard.sol\":2500:2519  _nonReentrantBefore */\n      tag_176\n        /* \"@openzeppelin/contracts/utils/ReentrancyGuard.sol\":2500:2521  _nonReentrantBefore() */\n      jump\t// in\n    tag_301:\n        /* \"contracts/PlanetZephyrosFeeReflection.sol\":4754:4755  0 */\n      0x00\n        /* \"contracts/PlanetZephyrosFeeReflection.sol\":4740:4751  coreBalance */\n      sload(0x05)\n        /* \"contracts/PlanetZephyrosFeeReflection.sol\":4740:4755  coreBalance > 0 */\n      gt\n        /* \"contracts/PlanetZephyrosFeeReflection.sol\":4732:4783  require(coreBalance > 0, \"No core balance to burn\") */\n      tag_303\n      jumpi\n      mload(0x40)\n      0x08c379a000000000000000000000000000000000000000000000000000000000\n      dup2\n      mstore\n      0x04\n      add\n      tag_304\n      swap1\n      tag_305\n      jump\t// in\n    tag_304:\n      mload(0x40)\n      dup1\n      swap2\n      sub\n      swap1\n      revert\n    tag_303:\n        /* \"contracts/PlanetZephyrosFeeReflection.sol\":4794:4811  _buyAndBurnCore() */\n      tag_306\n        /* \"contracts/PlanetZephyrosFeeReflection.sol\":4794:4809  _buyAndBurnCore */\n      tag_170\n        /* \"contracts/PlanetZephyrosFeeReflection.sol\":4794:4811  _buyAndBurnCore() */\n      jump\t// in\n    tag_306:\n        /* \"@openzeppelin/contracts/utils/ReentrancyGuard.sol\":2542:2562  _nonReentrantAfter() */\n      tag_307\n        /* \"@openzeppelin/contracts/utils/ReentrancyGuard.sol\":2542:2560  _nonReentrantAfter */\n      tag_179\n        /* \"@openzeppelin/contracts/utils/ReentrancyGuard.sol\":2542:2562  _nonReentrantAfter() */\n      jump\t// in\n    tag_307:\n        /* \"contracts/PlanetZephyrosFeeReflection.sol\":4619:4819  function manualBuyAndBurnCore() external onlyOwner nonReentrant { // Add: Separate manual for core only... */\n      jump\t// out\n        /* \"@openzeppelin/contracts/access/Ownable.sol\":2543:2758  function transferOwnership(address newOwner) public virtual onlyOwner {... */\n    tag_128:\n        /* \"@openzeppelin/contracts/access/Ownable.sol\":1531:1544  _checkOwner() */\n      tag_309\n        /* \"@openzeppelin/contracts/access/Ownable.sol\":1531:1542  _checkOwner */\n      tag_173\n        /* \"@openzeppelin/contracts/access/Ownable.sol\":1531:1544  _checkOwner() */\n      jump\t// in\n    tag_309:\n        /* \"@openzeppelin/contracts/access/Ownable.sol\":2647:2648  0 */\n      0x00\n        /* \"@openzeppelin/contracts/access/Ownable.sol\":2627:2649  newOwner == address(0) */\n      0xffffffffffffffffffffffffffffffffffffffff\n      and\n        /* \"@openzeppelin/contracts/access/Ownable.sol\":2627:2635  newOwner */\n      dup2\n        /* \"@openzeppelin/contracts/access/Ownable.sol\":2627:2649  newOwner == address(0) */\n      0xffffffffffffffffffffffffffffffffffffffff\n      and\n      sub\n        /* \"@openzeppelin/contracts/access/Ownable.sol\":2623:2714  if (newOwner == address(0)) {... */\n      tag_311\n      jumpi\n        /* \"@openzeppelin/contracts/access/Ownable.sol\":2700:2701  0 */\n      0x00\n        /* \"@openzeppelin/contracts/access/Ownable.sol\":2672:2703  OwnableInvalidOwner(address(0)) */\n      mload(0x40)\n      0x1e4fbdf700000000000000000000000000000000000000000000000000000000\n      dup2\n      mstore\n      0x04\n      add\n      tag_312\n      swap2\n      swap1\n      tag_42\n      jump\t// in\n    tag_312:\n      mload(0x40)\n      dup1\n      swap2\n      sub\n      swap1\n      revert\n        /* \"@openzeppelin/contracts/access/Ownable.sol\":2623:2714  if (newOwner == address(0)) {... */\n    tag_311:\n        /* \"@openzeppelin/contracts/access/Ownable.sol\":2723:2751  _transferOwnership(newOwner) */\n      tag_313\n        /* \"@openzeppelin/contracts/access/Ownable.sol\":2742:2750  newOwner */\n      dup2\n        /* \"@openzeppelin/contracts/access/Ownable.sol\":2723:2741  _transferOwnership */\n      tag_202\n        /* \"@openzeppelin/contracts/access/Ownable.sol\":2723:2751  _transferOwnership(newOwner) */\n      jump\t// in\n    tag_313:\n        /* \"@openzeppelin/contracts/access/Ownable.sol\":2543:2758  function transferOwnership(address newOwner) public virtual onlyOwner {... */\n      pop\n      jump\t// out\n        /* \"contracts/PlanetZephyrosFeeReflection.sol\":923:973  address public immutable BURN_ADDRESS = address(0) */\n    tag_131:\n      immutable(\"0x980c46aeb242fb2816eec3c43a568cdc6adda404b46e62cce4e3fe7d929881e3\")\n      dup2\n      jump\t// out\n        /* \"contracts/PlanetZephyrosFeeReflection.sol\":6007:6640  function _buyAndBurn() internal {... */\n    tag_167:\n        /* \"contracts/PlanetZephyrosFeeReflection.sol\":6068:6069  0 */\n      0x00\n        /* \"contracts/PlanetZephyrosFeeReflection.sol\":6054:6065  clubBalance */\n      sload(0x04)\n        /* \"contracts/PlanetZephyrosFeeReflection.sol\":6054:6069  clubBalance > 0 */\n      gt\n        /* \"contracts/PlanetZephyrosFeeReflection.sol\":6050:6633  if (clubBalance > 0) {... */\n      iszero\n      tag_315\n      jumpi\n        /* \"contracts/PlanetZephyrosFeeReflection.sol\":6092:6096  WETN */\n      immutable(\"0xb7020dd003fcd4d96af1507ff4dc7e2c1158f23ad0bacfdf3455869cf9fb4898\")\n        /* \"contracts/PlanetZephyrosFeeReflection.sol\":6086:6105  IWETN(WETN).approve */\n      0xffffffffffffffffffffffffffffffffffffffff\n      and\n      0x095ea7b3\n        /* \"contracts/PlanetZephyrosFeeReflection.sol\":6114:6122  v3Router */\n      0x02\n      0x00\n      swap1\n      sload\n      swap1\n      0x0100\n      exp\n      swap1\n      div\n      0xffffffffffffffffffffffffffffffffffffffff\n      and\n        /* \"contracts/PlanetZephyrosFeeReflection.sol\":6125:6136  clubBalance */\n      sload(0x04)\n        /* \"contracts/PlanetZephyrosFeeReflection.sol\":6086:6137  IWETN(WETN).approve(address(v3Router), clubBalance) */\n      mload(0x40)\n      dup4\n      0xffffffff\n      and\n      0xe0\n      shl\n      dup2\n      mstore\n      0x04\n      add\n      tag_316\n      swap3\n      swap2\n      swap1\n      tag_251\n      jump\t// in\n    tag_316:\n      0x20\n      mload(0x40)\n      dup1\n      dup4\n      sub\n      dup2\n      0x00\n      dup8\n      gas\n      call\n      iszero\n      dup1\n      iszero\n      tag_318\n      jumpi\n      returndatasize\n      0x00\n      dup1\n      returndatacopy\n      revert(0x00, returndatasize)\n    tag_318:\n      pop\n      pop\n      pop\n      pop\n      mload(0x40)\n      returndatasize\n      not(0x1f)\n      0x1f\n      dup3\n      add\n      and\n      dup3\n      add\n      dup1\n      0x40\n      mstore\n      pop\n      dup2\n      add\n      swap1\n      tag_319\n      swap2\n      swap1\n      tag_255\n      jump\t// in\n    tag_319:\n      pop\n        /* \"contracts/PlanetZephyrosFeeReflection.sol\":6155:6198  V3Router.ExactInputParams memory clubParams */\n      0x00\n        /* \"contracts/PlanetZephyrosFeeReflection.sol\":6201:6425  V3Router.ExactInputParams({... */\n      mload(0x40)\n      dup1\n      0x80\n      add\n      0x40\n      mstore\n      dup1\n        /* \"contracts/PlanetZephyrosFeeReflection.sol\":6269:6273  WETN */\n      immutable(\"0xb7020dd003fcd4d96af1507ff4dc7e2c1158f23ad0bacfdf3455869cf9fb4898\")\n        /* \"contracts/PlanetZephyrosFeeReflection.sol\":6275:6282  poolFee */\n      immutable(\"0x98f4d6eec7613e33b36335f2ce6a27018d9a9f0999ab27807ed26ac6fd46f1a2\")\n        /* \"contracts/PlanetZephyrosFeeReflection.sol\":6284:6288  club */\n      immutable(\"0x3884709d17f664eaba4ac467a7268cd72e3e0fe0c4e85152b1894161243c55c2\")\n        /* \"contracts/PlanetZephyrosFeeReflection.sol\":6252:6289  abi.encodePacked(WETN, poolFee, club) */\n      add(0x20, mload(0x40))\n      tag_320\n      swap4\n      swap3\n      swap2\n      swap1\n      tag_321\n      jump\t// in\n    tag_320:\n      mload(0x40)\n      0x20\n      dup2\n      dup4\n      sub\n      sub\n      dup2\n      mstore\n      swap1\n      0x40\n      mstore\n        /* \"contracts/PlanetZephyrosFeeReflection.sol\":6201:6425  V3Router.ExactInputParams({... */\n      dup2\n      mstore\n      0x20\n      add\n        /* \"contracts/PlanetZephyrosFeeReflection.sol\":6319:6331  DEAD_ADDRESS */\n      immutable(\"0x7d94b1fd5befe75fac04677148728067a5c7750c4535d59cf8d692301dae078c\")\n        /* \"contracts/PlanetZephyrosFeeReflection.sol\":6201:6425  V3Router.ExactInputParams({... */\n      0xffffffffffffffffffffffffffffffffffffffff\n      and\n      dup2\n      mstore\n      0x20\n      add\n        /* \"contracts/PlanetZephyrosFeeReflection.sol\":6360:6371  clubBalance */\n      sload(0x04)\n        /* \"contracts/PlanetZephyrosFeeReflection.sol\":6201:6425  V3Router.ExactInputParams({... */\n      dup2\n      mstore\n      0x20\n      add\n        /* \"contracts/PlanetZephyrosFeeReflection.sol\":6408:6409  0 */\n      0x00\n        /* \"contracts/PlanetZephyrosFeeReflection.sol\":6201:6425  V3Router.ExactInputParams({... */\n      dup2\n      mstore\n      pop\n        /* \"contracts/PlanetZephyrosFeeReflection.sol\":6155:6425  V3Router.ExactInputParams memory clubParams = V3Router.ExactInputParams({... */\n      swap1\n      pop\n        /* \"contracts/PlanetZephyrosFeeReflection.sol\":6440:6455  uint clubBurned */\n      0x00\n        /* \"contracts/PlanetZephyrosFeeReflection.sol\":6458:6466  v3Router */\n      0x02\n      0x00\n      swap1\n      sload\n      swap1\n      0x0100\n      exp\n      swap1\n      div\n      0xffffffffffffffffffffffffffffffffffffffff\n      and\n        /* \"contracts/PlanetZephyrosFeeReflection.sol\":6458:6477  v3Router.exactInput */\n      0xffffffffffffffffffffffffffffffffffffffff\n      and\n      0xb858183f\n        /* \"contracts/PlanetZephyrosFeeReflection.sol\":6478:6488  clubParams */\n      dup4\n        /* \"contracts/PlanetZephyrosFeeReflection.sol\":6458:6489  v3Router.exactInput(clubParams) */\n      mload(0x40)\n      dup3\n      0xffffffff\n      and\n      0xe0\n      shl\n      dup2\n      mstore\n      0x04\n      add\n      tag_322\n      swap2\n      swap1\n      tag_323\n      jump\t// in\n    tag_322:\n      0x20\n      mload(0x40)\n      dup1\n      dup4\n      sub\n      dup2\n      0x00\n      dup8\n      gas\n      call\n      iszero\n      dup1\n      iszero\n      tag_325\n      jumpi\n      returndatasize\n      0x00\n      dup1\n      returndatacopy\n      revert(0x00, returndatasize)\n    tag_325:\n      pop\n      pop\n      pop\n      pop\n      mload(0x40)\n      returndatasize\n      not(0x1f)\n      0x1f\n      dup3\n      add\n      and\n      dup3\n      add\n      dup1\n      0x40\n      mstore\n      pop\n      dup2\n      add\n      swap1\n      tag_326\n      swap2\n      swap1\n      tag_142\n      jump\t// in\n    tag_326:\n        /* \"contracts/PlanetZephyrosFeeReflection.sol\":6440:6489  uint clubBurned = v3Router.exactInput(clubParams) */\n      swap1\n      pop\n        /* \"contracts/PlanetZephyrosFeeReflection.sol\":6518:6519  0 */\n      0x00\n        /* \"contracts/PlanetZephyrosFeeReflection.sol\":6504:6515  clubBalance */\n      0x04\n        /* \"contracts/PlanetZephyrosFeeReflection.sol\":6504:6519  clubBalance = 0 */\n      dup2\n      swap1\n      sstore\n      pop\n        /* \"contracts/PlanetZephyrosFeeReflection.sol\":6553:6554  0 */\n      0x00\n        /* \"contracts/PlanetZephyrosFeeReflection.sol\":6540:6550  clubBurned */\n      dup2\n        /* \"contracts/PlanetZephyrosFeeReflection.sol\":6540:6554  clubBurned > 0 */\n      gt\n        /* \"contracts/PlanetZephyrosFeeReflection.sol\":6536:6622  if (clubBurned > 0) {... */\n      iszero\n      tag_327\n      jumpi\n        /* \"contracts/PlanetZephyrosFeeReflection.sol\":6580:6606  ClubBuyAndBurn(clubBurned) */\n      0x9f7c0331cae72869b1e69d00e6dbfceb0e02266830e12339f841d334bc614127\n        /* \"contracts/PlanetZephyrosFeeReflection.sol\":6595:6605  clubBurned */\n      dup2\n        /* \"contracts/PlanetZephyrosFeeReflection.sol\":6580:6606  ClubBuyAndBurn(clubBurned) */\n      mload(0x40)\n      tag_328\n      swap2\n      swap1\n      tag_56\n      jump\t// in\n    tag_328:\n      mload(0x40)\n      dup1\n      swap2\n      sub\n      swap1\n      log1\n        /* \"contracts/PlanetZephyrosFeeReflection.sol\":6536:6622  if (clubBurned > 0) {... */\n    tag_327:\n        /* \"contracts/PlanetZephyrosFeeReflection.sol\":6071:6633  {... */\n      pop\n      pop\n        /* \"contracts/PlanetZephyrosFeeReflection.sol\":6050:6633  if (clubBalance > 0) {... */\n    tag_315:\n        /* \"contracts/PlanetZephyrosFeeReflection.sol\":6007:6640  function _buyAndBurn() internal {... */\n      jump\t// out\n        /* \"contracts/PlanetZephyrosFeeReflection.sol\":6648:7710  function _buyAndBurnCore() internal { // Add: New function for core V2 burn... */\n    tag_170:\n        /* \"contracts/PlanetZephyrosFeeReflection.sol\":6751:6752  0 */\n      0x00\n        /* \"contracts/PlanetZephyrosFeeReflection.sol\":6737:6748  coreBalance */\n      sload(0x05)\n        /* \"contracts/PlanetZephyrosFeeReflection.sol\":6737:6752  coreBalance > 0 */\n      gt\n        /* \"contracts/PlanetZephyrosFeeReflection.sol\":6733:7703  if (coreBalance > 0) {... */\n      iszero\n      tag_330\n      jumpi\n        /* \"contracts/PlanetZephyrosFeeReflection.sol\":6769:6790  address[] memory path */\n      0x00\n        /* \"contracts/PlanetZephyrosFeeReflection.sol\":6807:6808  2 */\n      0x02\n        /* \"contracts/PlanetZephyrosFeeReflection.sol\":6793:6809  new address[](2) */\n      0xffffffffffffffff\n      dup2\n      gt\n      iszero\n      tag_331\n      jumpi\n      tag_332\n      tag_333\n      jump\t// in\n    tag_332:\n    tag_331:\n      mload(0x40)\n      swap1\n      dup1\n      dup3\n      mstore\n      dup1\n      0x20\n      mul\n      0x20\n      add\n      dup3\n      add\n      0x40\n      mstore\n      dup1\n      iszero\n      tag_334\n      jumpi\n      dup2\n      0x20\n      add\n      0x20\n      dup3\n      mul\n      dup1\n      calldatasize\n      dup4\n      calldatacopy\n      dup1\n      dup3\n      add\n      swap2\n      pop\n      pop\n      swap1\n      pop\n    tag_334:\n      pop\n        /* \"contracts/PlanetZephyrosFeeReflection.sol\":6769:6809  address[] memory path = new address[](2) */\n      swap1\n      pop\n        /* \"contracts/PlanetZephyrosFeeReflection.sol\":6834:6838  WETN */\n      immutable(\"0xb7020dd003fcd4d96af1507ff4dc7e2c1158f23ad0bacfdf3455869cf9fb4898\")\n        /* \"contracts/PlanetZephyrosFeeReflection.sol\":6824:6828  path */\n      dup2\n        /* \"contracts/PlanetZephyrosFeeReflection.sol\":6829:6830  0 */\n      0x00\n        /* \"contracts/PlanetZephyrosFeeReflection.sol\":6824:6831  path[0] */\n      dup2\n      mload\n      dup2\n      lt\n      tag_335\n      jumpi\n      tag_336\n      tag_337\n      jump\t// in\n    tag_336:\n    tag_335:\n      0x20\n      mul\n      0x20\n      add\n      add\n        /* \"contracts/PlanetZephyrosFeeReflection.sol\":6824:6838  path[0] = WETN */\n      swap1\n      0xffffffffffffffffffffffffffffffffffffffff\n      and\n      swap1\n      dup2\n      0xffffffffffffffffffffffffffffffffffffffff\n      and\n      dup2\n      mstore\n      pop\n      pop\n        /* \"contracts/PlanetZephyrosFeeReflection.sol\":6863:6872  coreToken */\n      immutable(\"0x4b4b9efaff899efa2095e6e12f4c7ffa5d130c6cf88a562d7f7bbc11486ed4fb\")\n        /* \"contracts/PlanetZephyrosFeeReflection.sol\":6853:6857  path */\n      dup2\n        /* \"contracts/PlanetZephyrosFeeReflection.sol\":6858:6859  1 */\n      0x01\n        /* \"contracts/PlanetZephyrosFeeReflection.sol\":6853:6860  path[1] */\n      dup2\n      mload\n      dup2\n      lt\n      tag_338\n      jumpi\n      tag_339\n      tag_337\n      jump\t// in\n    tag_339:\n    tag_338:\n      0x20\n      mul\n      0x20\n      add\n      add\n        /* \"contracts/PlanetZephyrosFeeReflection.sol\":6853:6872  path[1] = coreToken */\n      swap1\n      0xffffffffffffffffffffffffffffffffffffffff\n      and\n      swap1\n      dup2\n      0xffffffffffffffffffffffffffffffffffffffff\n      and\n      dup2\n      mstore\n      pop\n      pop\n        /* \"contracts/PlanetZephyrosFeeReflection.sol\":6889:6910  uint[] memory amounts */\n      0x00\n        /* \"contracts/PlanetZephyrosFeeReflection.sol\":6913:6921  v2Router */\n      0x03\n      0x00\n      swap1\n      sload\n      swap1\n      0x0100\n      exp\n      swap1\n      div\n      0xffffffffffffffffffffffffffffffffffffffff\n      and\n        /* \"contracts/PlanetZephyrosFeeReflection.sol\":6913:6935  v2Router.getAmountsOut */\n      0xffffffffffffffffffffffffffffffffffffffff\n      and\n      0xd06ca61f\n        /* \"contracts/PlanetZephyrosFeeReflection.sol\":6936:6947  coreBalance */\n      sload(0x05)\n        /* \"contracts/PlanetZephyrosFeeReflection.sol\":6949:6953  path */\n      dup5\n        /* \"contracts/PlanetZephyrosFeeReflection.sol\":6913:6954  v2Router.getAmountsOut(coreBalance, path) */\n      mload(0x40)\n      dup4\n      0xffffffff\n      and\n      0xe0\n      shl\n      dup2\n      mstore\n      0x04\n      add\n      tag_340\n      swap3\n      swap2\n      swap1\n      tag_341\n      jump\t// in\n    tag_340:\n      0x00\n      mload(0x40)\n      dup1\n      dup4\n      sub\n      dup2\n      dup7\n      gas\n      staticcall\n      iszero\n      dup1\n      iszero\n      tag_343\n      jumpi\n      returndatasize\n      0x00\n      dup1\n      returndatacopy\n      revert(0x00, returndatasize)\n    tag_343:\n      pop\n      pop\n      pop\n      pop\n      mload(0x40)\n      returndatasize\n      0x00\n      dup3\n      returndatacopy\n      returndatasize\n      not(0x1f)\n      0x1f\n      dup3\n      add\n      and\n      dup3\n      add\n      dup1\n      0x40\n      mstore\n      pop\n      dup2\n      add\n      swap1\n      tag_344\n      swap2\n      swap1\n      tag_345\n      jump\t// in\n    tag_344:\n        /* \"contracts/PlanetZephyrosFeeReflection.sol\":6889:6954  uint[] memory amounts = v2Router.getAmountsOut(coreBalance, path) */\n      swap1\n      pop\n        /* \"contracts/PlanetZephyrosFeeReflection.sol\":6969:6985  uint expectedOut */\n      0x00\n        /* \"contracts/PlanetZephyrosFeeReflection.sol\":6988:6995  amounts */\n      dup2\n        /* \"contracts/PlanetZephyrosFeeReflection.sol\":6996:6997  1 */\n      0x01\n        /* \"contracts/PlanetZephyrosFeeReflection.sol\":6988:6998  amounts[1] */\n      dup2\n      mload\n      dup2\n      lt\n      tag_346\n      jumpi\n      tag_347\n      tag_337\n      jump\t// in\n    tag_347:\n    tag_346:\n      0x20\n      mul\n      0x20\n      add\n      add\n      mload\n        /* \"contracts/PlanetZephyrosFeeReflection.sol\":6969:6998  uint expectedOut = amounts[1] */\n      swap1\n      pop\n        /* \"contracts/PlanetZephyrosFeeReflection.sol\":7013:7030  uint amountOutMin */\n      0x00\n        /* \"contracts/PlanetZephyrosFeeReflection.sol\":7054:7057  100 */\n      0x64\n        /* \"contracts/PlanetZephyrosFeeReflection.sol\":7048:7050  80 */\n      0x50\n        /* \"contracts/PlanetZephyrosFeeReflection.sol\":7034:7045  expectedOut */\n      dup4\n        /* \"contracts/PlanetZephyrosFeeReflection.sol\":7034:7050  expectedOut * 80 */\n      tag_348\n      swap2\n      swap1\n      tag_153\n      jump\t// in\n    tag_348:\n        /* \"contracts/PlanetZephyrosFeeReflection.sol\":7033:7057  (expectedOut * 80) / 100 */\n      tag_349\n      swap2\n      swap1\n      tag_155\n      jump\t// in\n    tag_349:\n        /* \"contracts/PlanetZephyrosFeeReflection.sol\":7013:7057  uint amountOutMin = (expectedOut * 80) / 100 */\n      swap1\n      pop\n        /* \"contracts/PlanetZephyrosFeeReflection.sol\":7106:7110  WETN */\n      immutable(\"0xb7020dd003fcd4d96af1507ff4dc7e2c1158f23ad0bacfdf3455869cf9fb4898\")\n        /* \"contracts/PlanetZephyrosFeeReflection.sol\":7100:7119  IWETN(WETN).approve */\n      0xffffffffffffffffffffffffffffffffffffffff\n      and\n      0x095ea7b3\n        /* \"contracts/PlanetZephyrosFeeReflection.sol\":7128:7136  v2Router */\n      0x03\n      0x00\n      swap1\n      sload\n      swap1\n      0x0100\n      exp\n      swap1\n      div\n      0xffffffffffffffffffffffffffffffffffffffff\n      and\n        /* \"contracts/PlanetZephyrosFeeReflection.sol\":7139:7150  coreBalance */\n      sload(0x05)\n        /* \"contracts/PlanetZephyrosFeeReflection.sol\":7100:7151  IWETN(WETN).approve(address(v2Router), coreBalance) */\n      mload(0x40)\n      dup4\n      0xffffffff\n      and\n      0xe0\n      shl\n      dup2\n      mstore\n      0x04\n      add\n      tag_350\n      swap3\n      swap2\n      swap1\n      tag_251\n      jump\t// in\n    tag_350:\n      0x20\n      mload(0x40)\n      dup1\n      dup4\n      sub\n      dup2\n      0x00\n      dup8\n      gas\n      call\n      iszero\n      dup1\n      iszero\n      tag_352\n      jumpi\n      returndatasize\n      0x00\n      dup1\n      returndatacopy\n      revert(0x00, returndatasize)\n    tag_352:\n      pop\n      pop\n      pop\n      pop\n      mload(0x40)\n      returndatasize\n      not(0x1f)\n      0x1f\n      dup3\n      add\n      and\n      dup3\n      add\n      dup1\n      0x40\n      mstore\n      pop\n      dup2\n      add\n      swap1\n      tag_353\n      swap2\n      swap1\n      tag_255\n      jump\t// in\n    tag_353:\n      pop\n        /* \"contracts/PlanetZephyrosFeeReflection.sol\":7169:7193  uint[] memory amountsOut */\n      0x00\n        /* \"contracts/PlanetZephyrosFeeReflection.sol\":7196:7204  v2Router */\n      0x03\n      0x00\n      swap1\n      sload\n      swap1\n      0x0100\n      exp\n      swap1\n      div\n      0xffffffffffffffffffffffffffffffffffffffff\n      and\n        /* \"contracts/PlanetZephyrosFeeReflection.sol\":7196:7229  v2Router.swapExactTokensForTokens */\n      0xffffffffffffffffffffffffffffffffffffffff\n      and\n      0x38ed1739\n        /* \"contracts/PlanetZephyrosFeeReflection.sol\":7248:7259  coreBalance */\n      sload(0x05)\n        /* \"contracts/PlanetZephyrosFeeReflection.sol\":7278:7290  amountOutMin */\n      dup5\n        /* \"contracts/PlanetZephyrosFeeReflection.sol\":7309:7313  path */\n      dup9\n        /* \"contracts/PlanetZephyrosFeeReflection.sol\":7332:7344  BURN_ADDRESS */\n      immutable(\"0x980c46aeb242fb2816eec3c43a568cdc6adda404b46e62cce4e3fe7d929881e3\")\n        /* \"contracts/PlanetZephyrosFeeReflection.sol\":7424:7427  300 */\n      0x012c\n        /* \"contracts/PlanetZephyrosFeeReflection.sol\":7406:7421  block.timestamp */\n      timestamp\n        /* \"contracts/PlanetZephyrosFeeReflection.sol\":7406:7427  block.timestamp + 300 */\n      tag_354\n      swap2\n      swap1\n      tag_144\n      jump\t// in\n    tag_354:\n        /* \"contracts/PlanetZephyrosFeeReflection.sol\":7196:7461  v2Router.swapExactTokensForTokens(... */\n      mload(0x40)\n      dup7\n      0xffffffff\n      and\n      0xe0\n      shl\n      dup2\n      mstore\n      0x04\n      add\n      tag_355\n      swap6\n      swap5\n      swap4\n      swap3\n      swap2\n      swap1\n      tag_356\n      jump\t// in\n    tag_355:\n      0x00\n      mload(0x40)\n      dup1\n      dup4\n      sub\n      dup2\n      0x00\n      dup8\n      gas\n      call\n      iszero\n      dup1\n      iszero\n      tag_358\n      jumpi\n      returndatasize\n      0x00\n      dup1\n      returndatacopy\n      revert(0x00, returndatasize)\n    tag_358:\n      pop\n      pop\n      pop\n      pop\n      mload(0x40)\n      returndatasize\n      0x00\n      dup3\n      returndatacopy\n      returndatasize\n      not(0x1f)\n      0x1f\n      dup3\n      add\n      and\n      dup3\n      add\n      dup1\n      0x40\n      mstore\n      pop\n      dup2\n      add\n      swap1\n      tag_359\n      swap2\n      swap1\n      tag_345\n      jump\t// in\n    tag_359:\n        /* \"contracts/PlanetZephyrosFeeReflection.sol\":7169:7461  uint[] memory amountsOut = v2Router.swapExactTokensForTokens(... */\n      swap1\n      pop\n        /* \"contracts/PlanetZephyrosFeeReflection.sol\":7476:7491  uint coreBurned */\n      0x00\n        /* \"contracts/PlanetZephyrosFeeReflection.sol\":7494:7504  amountsOut */\n      dup2\n        /* \"contracts/PlanetZephyrosFeeReflection.sol\":7525:7526  1 */\n      0x01\n        /* \"contracts/PlanetZephyrosFeeReflection.sol\":7505:7515  amountsOut */\n      dup4\n        /* \"contracts/PlanetZephyrosFeeReflection.sol\":7505:7522  amountsOut.length */\n      mload\n        /* \"contracts/PlanetZephyrosFeeReflection.sol\":7505:7526  amountsOut.length - 1 */\n      tag_360\n      swap2\n      swap1\n      tag_150\n      jump\t// in\n    tag_360:\n        /* \"contracts/PlanetZephyrosFeeReflection.sol\":7494:7527  amountsOut[amountsOut.length - 1] */\n      dup2\n      mload\n      dup2\n      lt\n      tag_361\n      jumpi\n      tag_362\n      tag_337\n      jump\t// in\n    tag_362:\n    tag_361:\n      0x20\n      mul\n      0x20\n      add\n      add\n      mload\n        /* \"contracts/PlanetZephyrosFeeReflection.sol\":7476:7527  uint coreBurned = amountsOut[amountsOut.length - 1] */\n      swap1\n      pop\n        /* \"contracts/PlanetZephyrosFeeReflection.sol\":7588:7589  0 */\n      0x00\n        /* \"contracts/PlanetZephyrosFeeReflection.sol\":7574:7585  coreBalance */\n      0x05\n        /* \"contracts/PlanetZephyrosFeeReflection.sol\":7574:7589  coreBalance = 0 */\n      dup2\n      swap1\n      sstore\n      pop\n        /* \"contracts/PlanetZephyrosFeeReflection.sol\":7623:7624  0 */\n      0x00\n        /* \"contracts/PlanetZephyrosFeeReflection.sol\":7610:7620  coreBurned */\n      dup2\n        /* \"contracts/PlanetZephyrosFeeReflection.sol\":7610:7624  coreBurned > 0 */\n      gt\n        /* \"contracts/PlanetZephyrosFeeReflection.sol\":7606:7692  if (coreBurned > 0) {... */\n      iszero\n      tag_363\n      jumpi\n        /* \"contracts/PlanetZephyrosFeeReflection.sol\":7650:7676  CoreBuyAndBurn(coreBurned) */\n      0xcb42363dcc1840222268fe43eebc976f3e311a14761e5396eb394ebdac90a582\n        /* \"contracts/PlanetZephyrosFeeReflection.sol\":7665:7675  coreBurned */\n      dup2\n        /* \"contracts/PlanetZephyrosFeeReflection.sol\":7650:7676  CoreBuyAndBurn(coreBurned) */\n      mload(0x40)\n      tag_364\n      swap2\n      swap1\n      tag_56\n      jump\t// in\n    tag_364:\n      mload(0x40)\n      dup1\n      swap2\n      sub\n      swap1\n      log1\n        /* \"contracts/PlanetZephyrosFeeReflection.sol\":7606:7692  if (coreBurned > 0) {... */\n    tag_363:\n        /* \"contracts/PlanetZephyrosFeeReflection.sol\":6754:7703  {... */\n      pop\n      pop\n      pop\n      pop\n      pop\n      pop\n        /* \"contracts/PlanetZephyrosFeeReflection.sol\":6733:7703  if (coreBalance > 0) {... */\n    tag_330:\n        /* \"contracts/PlanetZephyrosFeeReflection.sol\":6648:7710  function _buyAndBurnCore() internal { // Add: New function for core V2 burn... */\n      jump\t// out\n        /* \"@openzeppelin/contracts/access/Ownable.sol\":1796:1958  function _checkOwner() internal view virtual {... */\n    tag_173:\n        /* \"@openzeppelin/contracts/access/Ownable.sol\":1866:1878  _msgSender() */\n      tag_366\n        /* \"@openzeppelin/contracts/access/Ownable.sol\":1866:1876  _msgSender */\n      tag_367\n        /* \"@openzeppelin/contracts/access/Ownable.sol\":1866:1878  _msgSender() */\n      jump\t// in\n    tag_366:\n        /* \"@openzeppelin/contracts/access/Ownable.sol\":1855:1878  owner() != _msgSender() */\n      0xffffffffffffffffffffffffffffffffffffffff\n      and\n        /* \"@openzeppelin/contracts/access/Ownable.sol\":1855:1862  owner() */\n      tag_368\n        /* \"@openzeppelin/contracts/access/Ownable.sol\":1855:1860  owner */\n      tag_99\n        /* \"@openzeppelin/contracts/access/Ownable.sol\":1855:1862  owner() */\n      jump\t// in\n    tag_368:\n        /* \"@openzeppelin/contracts/access/Ownable.sol\":1855:1878  owner() != _msgSender() */\n      0xffffffffffffffffffffffffffffffffffffffff\n      and\n      eq\n        /* \"@openzeppelin/contracts/access/Ownable.sol\":1851:1952  if (owner() != _msgSender()) {... */\n      tag_369\n      jumpi\n        /* \"@openzeppelin/contracts/access/Ownable.sol\":1928:1940  _msgSender() */\n      tag_370\n        /* \"@openzeppelin/contracts/access/Ownable.sol\":1928:1938  _msgSender */\n      tag_367\n        /* \"@openzeppelin/contracts/access/Ownable.sol\":1928:1940  _msgSender() */\n      jump\t// in\n    tag_370:\n        /* \"@openzeppelin/contracts/access/Ownable.sol\":1901:1941  OwnableUnauthorizedAccount(_msgSender()) */\n      mload(0x40)\n      0x118cdaa700000000000000000000000000000000000000000000000000000000\n      dup2\n      mstore\n      0x04\n      add\n      tag_371\n      swap2\n      swap1\n      tag_42\n      jump\t// in\n    tag_371:\n      mload(0x40)\n      dup1\n      swap2\n      sub\n      swap1\n      revert\n        /* \"@openzeppelin/contracts/access/Ownable.sol\":1851:1952  if (owner() != _msgSender()) {... */\n    tag_369:\n        /* \"@openzeppelin/contracts/access/Ownable.sol\":1796:1958  function _checkOwner() internal view virtual {... */\n      jump\t// out\n        /* \"@openzeppelin/contracts/utils/ReentrancyGuard.sol\":2575:2882  function _nonReentrantBefore() private {... */\n    tag_176:\n        /* \"@openzeppelin/contracts/utils/ReentrancyGuard.sol\":1899:1900  2 */\n      0x02\n        /* \"@openzeppelin/contracts/utils/ReentrancyGuard.sol\":2702:2709  _status */\n      sload(0x00)\n        /* \"@openzeppelin/contracts/utils/ReentrancyGuard.sol\":2702:2720  _status == ENTERED */\n      sub\n        /* \"@openzeppelin/contracts/utils/ReentrancyGuard.sol\":2698:2784  if (_status == ENTERED) {... */\n      tag_373\n      jumpi\n        /* \"@openzeppelin/contracts/utils/ReentrancyGuard.sol\":2743:2773  ReentrancyGuardReentrantCall() */\n      mload(0x40)\n      0x3ee5aeb500000000000000000000000000000000000000000000000000000000\n      dup2\n      mstore\n      0x04\n      add\n      mload(0x40)\n      dup1\n      swap2\n      sub\n      swap1\n      revert\n        /* \"@openzeppelin/contracts/utils/ReentrancyGuard.sol\":2698:2784  if (_status == ENTERED) {... */\n    tag_373:\n        /* \"@openzeppelin/contracts/utils/ReentrancyGuard.sol\":1899:1900  2 */\n      0x02\n        /* \"@openzeppelin/contracts/utils/ReentrancyGuard.sol\":2858:2865  _status */\n      0x00\n        /* \"@openzeppelin/contracts/utils/ReentrancyGuard.sol\":2858:2875  _status = ENTERED */\n      dup2\n      swap1\n      sstore\n      pop\n        /* \"@openzeppelin/contracts/utils/ReentrancyGuard.sol\":2575:2882  function _nonReentrantBefore() private {... */\n      jump\t// out\n        /* \"@openzeppelin/contracts/utils/ReentrancyGuard.sol\":2888:3096  function _nonReentrantAfter() private {... */\n    tag_179:\n        /* \"@openzeppelin/contracts/utils/ReentrancyGuard.sol\":1857:1858  1 */\n      0x01\n        /* \"@openzeppelin/contracts/utils/ReentrancyGuard.sol\":3068:3075  _status */\n      0x00\n        /* \"@openzeppelin/contracts/utils/ReentrancyGuard.sol\":3068:3089  _status = NOT_ENTERED */\n      dup2\n      swap1\n      sstore\n      pop\n        /* \"@openzeppelin/contracts/utils/ReentrancyGuard.sol\":2888:3096  function _nonReentrantAfter() private {... */\n      jump\t// out\n        /* \"@openzeppelin/contracts/access/Ownable.sol\":2912:3099  function _transferOwnership(address newOwner) internal virtual {... */\n    tag_202:\n        /* \"@openzeppelin/contracts/access/Ownable.sol\":2985:3001  address oldOwner */\n      0x00\n        /* \"@openzeppelin/contracts/access/Ownable.sol\":3004:3010  _owner */\n      0x01\n      0x00\n      swap1\n      sload\n      swap1\n      0x0100\n      exp\n      swap1\n      div\n      0xffffffffffffffffffffffffffffffffffffffff\n      and\n        /* \"@openzeppelin/contracts/access/Ownable.sol\":2985:3010  address oldOwner = _owner */\n      swap1\n      pop\n        /* \"@openzeppelin/contracts/access/Ownable.sol\":3029:3037  newOwner */\n      dup2\n        /* \"@openzeppelin/contracts/access/Ownable.sol\":3020:3026  _owner */\n      0x01\n      0x00\n        /* \"@openzeppelin/contracts/access/Ownable.sol\":3020:3037  _owner = newOwner */\n      0x0100\n      exp\n      dup2\n      sload\n      dup2\n      0xffffffffffffffffffffffffffffffffffffffff\n      mul\n      not\n      and\n      swap1\n      dup4\n      0xffffffffffffffffffffffffffffffffffffffff\n      and\n      mul\n      or\n      swap1\n      sstore\n      pop\n        /* \"@openzeppelin/contracts/access/Ownable.sol\":3083:3091  newOwner */\n      dup2\n        /* \"@openzeppelin/contracts/access/Ownable.sol\":3052:3092  OwnershipTransferred(oldOwner, newOwner) */\n      0xffffffffffffffffffffffffffffffffffffffff\n      and\n        /* \"@openzeppelin/contracts/access/Ownable.sol\":3073:3081  oldOwner */\n      dup2\n        /* \"@openzeppelin/contracts/access/Ownable.sol\":3052:3092  OwnershipTransferred(oldOwner, newOwner) */\n      0xffffffffffffffffffffffffffffffffffffffff\n      and\n      0x8be0079c531659141344cd1fd0a4f28419497f9722a3daafe3b4186f6b6457e0\n      mload(0x40)\n      mload(0x40)\n      dup1\n      swap2\n      sub\n      swap1\n      log3\n        /* \"@openzeppelin/contracts/access/Ownable.sol\":2975:3099  {... */\n      pop\n        /* \"@openzeppelin/contracts/access/Ownable.sol\":2912:3099  function _transferOwnership(address newOwner) internal virtual {... */\n      pop\n      jump\t// out\n        /* \"@openzeppelin/contracts/utils/Context.sol\":656:752  function _msgSender() internal view virtual returns (address) {... */\n    tag_367:\n        /* \"@openzeppelin/contracts/utils/Context.sol\":709:716  address */\n      0x00\n        /* \"@openzeppelin/contracts/utils/Context.sol\":735:745  msg.sender */\n      caller\n        /* \"@openzeppelin/contracts/utils/Context.sol\":728:745  return msg.sender */\n      swap1\n      pop\n        /* \"@openzeppelin/contracts/utils/Context.sol\":656:752  function _msgSender() internal view virtual returns (address) {... */\n      swap1\n      jump\t// out\n        /* \"#utility.yul\":7:133   */\n    tag_377:\n        /* \"#utility.yul\":44:51   */\n      0x00\n        /* \"#utility.yul\":84:126   */\n      0xffffffffffffffffffffffffffffffffffffffff\n        /* \"#utility.yul\":77:82   */\n      dup3\n        /* \"#utility.yul\":73:127   */\n      and\n        /* \"#utility.yul\":62:127   */\n      swap1\n      pop\n        /* \"#utility.yul\":7:133   */\n      swap2\n      swap1\n      pop\n      jump\t// out\n        /* \"#utility.yul\":139:235   */\n    tag_378:\n        /* \"#utility.yul\":176:183   */\n      0x00\n        /* \"#utility.yul\":205:229   */\n      tag_468\n        /* \"#utility.yul\":223:228   */\n      dup3\n        /* \"#utility.yul\":205:229   */\n      tag_377\n      jump\t// in\n    tag_468:\n        /* \"#utility.yul\":194:229   */\n      swap1\n      pop\n        /* \"#utility.yul\":139:235   */\n      swap2\n      swap1\n      pop\n      jump\t// out\n        /* \"#utility.yul\":241:359   */\n    tag_379:\n        /* \"#utility.yul\":328:352   */\n      tag_470\n        /* \"#utility.yul\":346:351   */\n      dup2\n        /* \"#utility.yul\":328:352   */\n      tag_378\n      jump\t// in\n    tag_470:\n        /* \"#utility.yul\":323:326   */\n      dup3\n        /* \"#utility.yul\":316:353   */\n      mstore\n        /* \"#utility.yul\":241:359   */\n      pop\n      pop\n      jump\t// out\n        /* \"#utility.yul\":365:587   */\n    tag_42:\n        /* \"#utility.yul\":458:462   */\n      0x00\n        /* \"#utility.yul\":496:498   */\n      0x20\n        /* \"#utility.yul\":485:494   */\n      dup3\n        /* \"#utility.yul\":481:499   */\n      add\n        /* \"#utility.yul\":473:499   */\n      swap1\n      pop\n        /* \"#utility.yul\":509:580   */\n      tag_472\n        /* \"#utility.yul\":577:578   */\n      0x00\n        /* \"#utility.yul\":566:575   */\n      dup4\n        /* \"#utility.yul\":562:579   */\n      add\n        /* \"#utility.yul\":553:559   */\n      dup5\n        /* \"#utility.yul\":509:580   */\n      tag_379\n      jump\t// in\n    tag_472:\n        /* \"#utility.yul\":365:587   */\n      swap3\n      swap2\n      pop\n      pop\n      jump\t// out\n        /* \"#utility.yul\":593:668   */\n    tag_380:\n        /* \"#utility.yul\":626:632   */\n      0x00\n        /* \"#utility.yul\":659:661   */\n      0x40\n        /* \"#utility.yul\":653:662   */\n      mload\n        /* \"#utility.yul\":643:662   */\n      swap1\n      pop\n        /* \"#utility.yul\":593:668   */\n      swap1\n      jump\t// out\n        /* \"#utility.yul\":674:791   */\n    tag_381:\n        /* \"#utility.yul\":783:784   */\n      0x00\n        /* \"#utility.yul\":780:781   */\n      dup1\n        /* \"#utility.yul\":773:785   */\n      revert\n        /* \"#utility.yul\":797:914   */\n    tag_382:\n        /* \"#utility.yul\":906:907   */\n      0x00\n        /* \"#utility.yul\":903:904   */\n      dup1\n        /* \"#utility.yul\":896:908   */\n      revert\n        /* \"#utility.yul\":920:1010   */\n    tag_383:\n        /* \"#utility.yul\":954:961   */\n      0x00\n        /* \"#utility.yul\":997:1002   */\n      dup2\n        /* \"#utility.yul\":990:1003   */\n      iszero\n        /* \"#utility.yul\":983:1004   */\n      iszero\n        /* \"#utility.yul\":972:1004   */\n      swap1\n      pop\n        /* \"#utility.yul\":920:1010   */\n      swap2\n      swap1\n      pop\n      jump\t// out\n        /* \"#utility.yul\":1016:1132   */\n    tag_384:\n        /* \"#utility.yul\":1086:1107   */\n      tag_478\n        /* \"#utility.yul\":1101:1106   */\n      dup2\n        /* \"#utility.yul\":1086:1107   */\n      tag_383\n      jump\t// in\n    tag_478:\n        /* \"#utility.yul\":1079:1084   */\n      dup2\n        /* \"#utility.yul\":1076:1108   */\n      eq\n        /* \"#utility.yul\":1066:1126   */\n      tag_479\n      jumpi\n        /* \"#utility.yul\":1122:1123   */\n      0x00\n        /* \"#utility.yul\":1119:1120   */\n      dup1\n        /* \"#utility.yul\":1112:1124   */\n      revert\n        /* \"#utility.yul\":1066:1126   */\n    tag_479:\n        /* \"#utility.yul\":1016:1132   */\n      pop\n      jump\t// out\n        /* \"#utility.yul\":1138:1271   */\n    tag_385:\n        /* \"#utility.yul\":1181:1186   */\n      0x00\n        /* \"#utility.yul\":1219:1225   */\n      dup2\n        /* \"#utility.yul\":1206:1226   */\n      calldataload\n        /* \"#utility.yul\":1197:1226   */\n      swap1\n      pop\n        /* \"#utility.yul\":1235:1265   */\n      tag_481\n        /* \"#utility.yul\":1259:1264   */\n      dup2\n        /* \"#utility.yul\":1235:1265   */\n      tag_384\n      jump\t// in\n    tag_481:\n        /* \"#utility.yul\":1138:1271   */\n      swap3\n      swap2\n      pop\n      pop\n      jump\t// out\n        /* \"#utility.yul\":1277:1600   */\n    tag_50:\n        /* \"#utility.yul\":1333:1339   */\n      0x00\n        /* \"#utility.yul\":1382:1384   */\n      0x20\n        /* \"#utility.yul\":1370:1379   */\n      dup3\n        /* \"#utility.yul\":1361:1368   */\n      dup5\n        /* \"#utility.yul\":1357:1380   */\n      sub\n        /* \"#utility.yul\":1353:1385   */\n      slt\n        /* \"#utility.yul\":1350:1469   */\n      iszero\n      tag_483\n      jumpi\n        /* \"#utility.yul\":1388:1467   */\n      tag_484\n      tag_381\n      jump\t// in\n    tag_484:\n        /* \"#utility.yul\":1350:1469   */\n    tag_483:\n        /* \"#utility.yul\":1508:1509   */\n      0x00\n        /* \"#utility.yul\":1533:1583   */\n      tag_485\n        /* \"#utility.yul\":1575:1582   */\n      dup5\n        /* \"#utility.yul\":1566:1572   */\n      dup3\n        /* \"#utility.yul\":1555:1564   */\n      dup6\n        /* \"#utility.yul\":1551:1573   */\n      add\n        /* \"#utility.yul\":1533:1583   */\n      tag_385\n      jump\t// in\n    tag_485:\n        /* \"#utility.yul\":1523:1583   */\n      swap2\n      pop\n        /* \"#utility.yul\":1479:1593   */\n      pop\n        /* \"#utility.yul\":1277:1600   */\n      swap3\n      swap2\n      pop\n      pop\n      jump\t// out\n        /* \"#utility.yul\":1606:1683   */\n    tag_386:\n        /* \"#utility.yul\":1643:1650   */\n      0x00\n        /* \"#utility.yul\":1672:1677   */\n      dup2\n        /* \"#utility.yul\":1661:1677   */\n      swap1\n      pop\n        /* \"#utility.yul\":1606:1683   */\n      swap2\n      swap1\n      pop\n      jump\t// out\n        /* \"#utility.yul\":1689:1807   */\n    tag_387:\n        /* \"#utility.yul\":1776:1800   */\n      tag_488\n        /* \"#utility.yul\":1794:1799   */\n      dup2\n        /* \"#utility.yul\":1776:1800   */\n      tag_386\n      jump\t// in\n    tag_488:\n        /* \"#utility.yul\":1771:1774   */\n      dup3\n        /* \"#utility.yul\":1764:1801   */\n      mstore\n        /* \"#utility.yul\":1689:1807   */\n      pop\n      pop\n      jump\t// out\n        /* \"#utility.yul\":1813:2035   */\n    tag_56:\n        /* \"#utility.yul\":1906:1910   */\n      0x00\n        /* \"#utility.yul\":1944:1946   */\n      0x20\n        /* \"#utility.yul\":1933:1942   */\n      dup3\n        /* \"#utility.yul\":1929:1947   */\n      add\n        /* \"#utility.yul\":1921:1947   */\n      swap1\n      pop\n        /* \"#utility.yul\":1957:2028   */\n      tag_490\n        /* \"#utility.yul\":2025:2026   */\n      0x00\n        /* \"#utility.yul\":2014:2023   */\n      dup4\n        /* \"#utility.yul\":2010:2027   */\n      add\n        /* \"#utility.yul\":2001:2007   */\n      dup5\n        /* \"#utility.yul\":1957:2028   */\n      tag_387\n      jump\t// in\n    tag_490:\n        /* \"#utility.yul\":1813:2035   */\n      swap3\n      swap2\n      pop\n      pop\n      jump\t// out\n        /* \"#utility.yul\":2041:2145   */\n    tag_388:\n        /* \"#utility.yul\":2086:2093   */\n      0x00\n        /* \"#utility.yul\":2115:2139   */\n      tag_492\n        /* \"#utility.yul\":2133:2138   */\n      dup3\n        /* \"#utility.yul\":2115:2139   */\n      tag_377\n      jump\t// in\n    tag_492:\n        /* \"#utility.yul\":2104:2139   */\n      swap1\n      pop\n        /* \"#utility.yul\":2041:2145   */\n      swap2\n      swap1\n      pop\n      jump\t// out\n        /* \"#utility.yul\":2151:2293   */\n    tag_389:\n        /* \"#utility.yul\":2254:2286   */\n      tag_494\n        /* \"#utility.yul\":2280:2285   */\n      dup2\n        /* \"#utility.yul\":2254:2286   */\n      tag_388\n      jump\t// in\n    tag_494:\n        /* \"#utility.yul\":2249:2252   */\n      dup3\n        /* \"#utility.yul\":2242:2287   */\n      mstore\n        /* \"#utility.yul\":2151:2293   */\n      pop\n      pop\n      jump\t// out\n        /* \"#utility.yul\":2299:2553   */\n    tag_68:\n        /* \"#utility.yul\":2408:2412   */\n      0x00\n        /* \"#utility.yul\":2446:2448   */\n      0x20\n        /* \"#utility.yul\":2435:2444   */\n      dup3\n        /* \"#utility.yul\":2431:2449   */\n      add\n        /* \"#utility.yul\":2423:2449   */\n      swap1\n      pop\n        /* \"#utility.yul\":2459:2546   */\n      tag_496\n        /* \"#utility.yul\":2543:2544   */\n      0x00\n        /* \"#utility.yul\":2532:2541   */\n      dup4\n        /* \"#utility.yul\":2528:2545   */\n      add\n        /* \"#utility.yul\":2519:2525   */\n      dup5\n        /* \"#utility.yul\":2459:2546   */\n      tag_389\n      jump\t// in\n    tag_496:\n        /* \"#utility.yul\":2299:2553   */\n      swap3\n      swap2\n      pop\n      pop\n      jump\t// out\n        /* \"#utility.yul\":2559:2668   */\n    tag_390:\n        /* \"#utility.yul\":2640:2661   */\n      tag_498\n        /* \"#utility.yul\":2655:2660   */\n      dup2\n        /* \"#utility.yul\":2640:2661   */\n      tag_383\n      jump\t// in\n    tag_498:\n        /* \"#utility.yul\":2635:2638   */\n      dup3\n        /* \"#utility.yul\":2628:2662   */\n      mstore\n        /* \"#utility.yul\":2559:2668   */\n      pop\n      pop\n      jump\t// out\n        /* \"#utility.yul\":2674:2884   */\n    tag_92:\n        /* \"#utility.yul\":2761:2765   */\n      0x00\n        /* \"#utility.yul\":2799:2801   */\n      0x20\n        /* \"#utility.yul\":2788:2797   */\n      dup3\n        /* \"#utility.yul\":2784:2802   */\n      add\n        /* \"#utility.yul\":2776:2802   */\n      swap1\n      pop\n        /* \"#utility.yul\":2812:2877   */\n      tag_500\n        /* \"#utility.yul\":2874:2875   */\n      0x00\n        /* \"#utility.yul\":2863:2872   */\n      dup4\n        /* \"#utility.yul\":2859:2876   */\n      add\n        /* \"#utility.yul\":2850:2856   */\n      dup5\n        /* \"#utility.yul\":2812:2877   */\n      tag_390\n      jump\t// in\n    tag_500:\n        /* \"#utility.yul\":2674:2884   */\n      swap3\n      swap2\n      pop\n      pop\n      jump\t// out\n        /* \"#utility.yul\":2890:3012   */\n    tag_391:\n        /* \"#utility.yul\":2963:2987   */\n      tag_502\n        /* \"#utility.yul\":2981:2986   */\n      dup2\n        /* \"#utility.yul\":2963:2987   */\n      tag_386\n      jump\t// in\n    tag_502:\n        /* \"#utility.yul\":2956:2961   */\n      dup2\n        /* \"#utility.yul\":2953:2988   */\n      eq\n        /* \"#utility.yul\":2943:3006   */\n      tag_503\n      jumpi\n        /* \"#utility.yul\":3002:3003   */\n      0x00\n        /* \"#utility.yul\":2999:3000   */\n      dup1\n        /* \"#utility.yul\":2992:3004   */\n      revert\n        /* \"#utility.yul\":2943:3006   */\n    tag_503:\n        /* \"#utility.yul\":2890:3012   */\n      pop\n      jump\t// out\n        /* \"#utility.yul\":3018:3157   */\n    tag_392:\n        /* \"#utility.yul\":3064:3069   */\n      0x00\n        /* \"#utility.yul\":3102:3108   */\n      dup2\n        /* \"#utility.yul\":3089:3109   */\n      calldataload\n        /* \"#utility.yul\":3080:3109   */\n      swap1\n      pop\n        /* \"#utility.yul\":3118:3151   */\n      tag_505\n        /* \"#utility.yul\":3145:3150   */\n      dup2\n        /* \"#utility.yul\":3118:3151   */\n      tag_391\n      jump\t// in\n    tag_505:\n        /* \"#utility.yul\":3018:3157   */\n      swap3\n      swap2\n      pop\n      pop\n      jump\t// out\n        /* \"#utility.yul\":3163:3301   */\n    tag_393:\n        /* \"#utility.yul\":3244:3276   */\n      tag_507\n        /* \"#utility.yul\":3270:3275   */\n      dup2\n        /* \"#utility.yul\":3244:3276   */\n      tag_388\n      jump\t// in\n    tag_507:\n        /* \"#utility.yul\":3237:3242   */\n      dup2\n        /* \"#utility.yul\":3234:3277   */\n      eq\n        /* \"#utility.yul\":3224:3295   */\n      tag_508\n      jumpi\n        /* \"#utility.yul\":3291:3292   */\n      0x00\n        /* \"#utility.yul\":3288:3289   */\n      dup1\n        /* \"#utility.yul\":3281:3293   */\n      revert\n        /* \"#utility.yul\":3224:3295   */\n    tag_508:\n        /* \"#utility.yul\":3163:3301   */\n      pop\n      jump\t// out\n        /* \"#utility.yul\":3307:3462   */\n    tag_394:\n        /* \"#utility.yul\":3361:3366   */\n      0x00\n        /* \"#utility.yul\":3399:3405   */\n      dup2\n        /* \"#utility.yul\":3386:3406   */\n      calldataload\n        /* \"#utility.yul\":3377:3406   */\n      swap1\n      pop\n        /* \"#utility.yul\":3415:3456   */\n      tag_510\n        /* \"#utility.yul\":3450:3455   */\n      dup2\n        /* \"#utility.yul\":3415:3456   */\n      tag_393\n      jump\t// in\n    tag_510:\n        /* \"#utility.yul\":3307:3462   */\n      swap3\n      swap2\n      pop\n      pop\n      jump\t// out\n        /* \"#utility.yul\":3468:3958   */\n    tag_104:\n        /* \"#utility.yul\":3544:3550   */\n      0x00\n        /* \"#utility.yul\":3552:3558   */\n      dup1\n        /* \"#utility.yul\":3601:3603   */\n      0x40\n        /* \"#utility.yul\":3589:3598   */\n      dup4\n        /* \"#utility.yul\":3580:3587   */\n      dup6\n        /* \"#utility.yul\":3576:3599   */\n      sub\n        /* \"#utility.yul\":3572:3604   */\n      slt\n        /* \"#utility.yul\":3569:3688   */\n      iszero\n      tag_512\n      jumpi\n        /* \"#utility.yul\":3607:3686   */\n      tag_513\n      tag_381\n      jump\t// in\n    tag_513:\n        /* \"#utility.yul\":3569:3688   */\n    tag_512:\n        /* \"#utility.yul\":3727:3728   */\n      0x00\n        /* \"#utility.yul\":3752:3805   */\n      tag_514\n        /* \"#utility.yul\":3797:3804   */\n      dup6\n        /* \"#utility.yul\":3788:3794   */\n      dup3\n        /* \"#utility.yul\":3777:3786   */\n      dup7\n        /* \"#utility.yul\":3773:3795   */\n      add\n        /* \"#utility.yul\":3752:3805   */\n      tag_392\n      jump\t// in\n    tag_514:\n        /* \"#utility.yul\":3742:3805   */\n      swap3\n      pop\n        /* \"#utility.yul\":3698:3815   */\n      pop\n        /* \"#utility.yul\":3854:3856   */\n      0x20\n        /* \"#utility.yul\":3880:3941   */\n      tag_515\n        /* \"#utility.yul\":3933:3940   */\n      dup6\n        /* \"#utility.yul\":3924:3930   */\n      dup3\n        /* \"#utility.yul\":3913:3922   */\n      dup7\n        /* \"#utility.yul\":3909:3931   */\n      add\n        /* \"#utility.yul\":3880:3941   */\n      tag_394\n      jump\t// in\n    tag_515:\n        /* \"#utility.yul\":3870:3941   */\n      swap2\n      pop\n        /* \"#utility.yul\":3825:3951   */\n      pop\n        /* \"#utility.yul\":3468:3958   */\n      swap3\n      pop\n      swap3\n      swap1\n      pop\n      jump\t// out\n        /* \"#utility.yul\":3964:4086   */\n    tag_395:\n        /* \"#utility.yul\":4037:4061   */\n      tag_517\n        /* \"#utility.yul\":4055:4060   */\n      dup2\n        /* \"#utility.yul\":4037:4061   */\n      tag_378\n      jump\t// in\n    tag_517:\n        /* \"#utility.yul\":4030:4035   */\n      dup2\n        /* \"#utility.yul\":4027:4062   */\n      eq\n        /* \"#utility.yul\":4017:4080   */\n      tag_518\n      jumpi\n        /* \"#utility.yul\":4076:4077   */\n      0x00\n        /* \"#utility.yul\":4073:4074   */\n      dup1\n        /* \"#utility.yul\":4066:4078   */\n      revert\n        /* \"#utility.yul\":4017:4080   */\n    tag_518:\n        /* \"#utility.yul\":3964:4086   */\n      pop\n      jump\t// out\n        /* \"#utility.yul\":4092:4231   */\n    tag_396:\n        /* \"#utility.yul\":4138:4143   */\n      0x00\n        /* \"#utility.yul\":4176:4182   */\n      dup2\n        /* \"#utility.yul\":4163:4183   */\n      calldataload\n        /* \"#utility.yul\":4154:4183   */\n      swap1\n      pop\n        /* \"#utility.yul\":4192:4225   */\n      tag_520\n        /* \"#utility.yul\":4219:4224   */\n      dup2\n        /* \"#utility.yul\":4192:4225   */\n      tag_395\n      jump\t// in\n    tag_520:\n        /* \"#utility.yul\":4092:4231   */\n      swap3\n      swap2\n      pop\n      pop\n      jump\t// out\n        /* \"#utility.yul\":4237:4856   */\n    tag_109:\n        /* \"#utility.yul\":4314:4320   */\n      0x00\n        /* \"#utility.yul\":4322:4328   */\n      dup1\n        /* \"#utility.yul\":4330:4336   */\n      0x00\n        /* \"#utility.yul\":4379:4381   */\n      0x60\n        /* \"#utility.yul\":4367:4376   */\n      dup5\n        /* \"#utility.yul\":4358:4365   */\n      dup7\n        /* \"#utility.yul\":4354:4377   */\n      sub\n        /* \"#utility.yul\":4350:4382   */\n      slt\n        /* \"#utility.yul\":4347:4466   */\n      iszero\n      tag_522\n      jumpi\n        /* \"#utility.yul\":4385:4464   */\n      tag_523\n      tag_381\n      jump\t// in\n    tag_523:\n        /* \"#utility.yul\":4347:4466   */\n    tag_522:\n        /* \"#utility.yul\":4505:4506   */\n      0x00\n        /* \"#utility.yul\":4530:4583   */\n      tag_524\n        /* \"#utility.yul\":4575:4582   */\n      dup7\n        /* \"#utility.yul\":4566:4572   */\n      dup3\n        /* \"#utility.yul\":4555:4564   */\n      dup8\n        /* \"#utility.yul\":4551:4573   */\n      add\n        /* \"#utility.yul\":4530:4583   */\n      tag_396\n      jump\t// in\n    tag_524:\n        /* \"#utility.yul\":4520:4583   */\n      swap4\n      pop\n        /* \"#utility.yul\":4476:4593   */\n      pop\n        /* \"#utility.yul\":4632:4634   */\n      0x20\n        /* \"#utility.yul\":4658:4711   */\n      tag_525\n        /* \"#utility.yul\":4703:4710   */\n      dup7\n        /* \"#utility.yul\":4694:4700   */\n      dup3\n        /* \"#utility.yul\":4683:4692   */\n      dup8\n        /* \"#utility.yul\":4679:4701   */\n      add\n        /* \"#utility.yul\":4658:4711   */\n      tag_392\n      jump\t// in\n    tag_525:\n        /* \"#utility.yul\":4648:4711   */\n      swap3\n      pop\n        /* \"#utility.yul\":4603:4721   */\n      pop\n        /* \"#utility.yul\":4760:4762   */\n      0x40\n        /* \"#utility.yul\":4786:4839   */\n      tag_526\n        /* \"#utility.yul\":4831:4838   */\n      dup7\n        /* \"#utility.yul\":4822:4828   */\n      dup3\n        /* \"#utility.yul\":4811:4820   */\n      dup8\n        /* \"#utility.yul\":4807:4829   */\n      add\n        /* \"#utility.yul\":4786:4839   */\n      tag_396\n      jump\t// in\n    tag_526:\n        /* \"#utility.yul\":4776:4839   */\n      swap2\n      pop\n        /* \"#utility.yul\":4731:4849   */\n      pop\n        /* \"#utility.yul\":4237:4856   */\n      swap3\n      pop\n      swap3\n      pop\n      swap3\n      jump\t// out\n        /* \"#utility.yul\":4862:5191   */\n    tag_127:\n        /* \"#utility.yul\":4921:4927   */\n      0x00\n        /* \"#utility.yul\":4970:4972   */\n      0x20\n        /* \"#utility.yul\":4958:4967   */\n      dup3\n        /* \"#utility.yul\":4949:4956   */\n      dup5\n        /* \"#utility.yul\":4945:4968   */\n      sub\n        /* \"#utility.yul\":4941:4973   */\n      slt\n        /* \"#utility.yul\":4938:5057   */\n      iszero\n      tag_528\n      jumpi\n        /* \"#utility.yul\":4976:5055   */\n      tag_529\n      tag_381\n      jump\t// in\n    tag_529:\n        /* \"#utility.yul\":4938:5057   */\n    tag_528:\n        /* \"#utility.yul\":5096:5097   */\n      0x00\n        /* \"#utility.yul\":5121:5174   */\n      tag_530\n        /* \"#utility.yul\":5166:5173   */\n      dup5\n        /* \"#utility.yul\":5157:5163   */\n      dup3\n        /* \"#utility.yul\":5146:5155   */\n      dup6\n        /* \"#utility.yul\":5142:5164   */\n      add\n        /* \"#utility.yul\":5121:5174   */\n      tag_396\n      jump\t// in\n    tag_530:\n        /* \"#utility.yul\":5111:5174   */\n      swap2\n      pop\n        /* \"#utility.yul\":5067:5184   */\n      pop\n        /* \"#utility.yul\":4862:5191   */\n      swap3\n      swap2\n      pop\n      pop\n      jump\t// out\n        /* \"#utility.yul\":5197:5340   */\n    tag_397:\n        /* \"#utility.yul\":5254:5259   */\n      0x00\n        /* \"#utility.yul\":5285:5291   */\n      dup2\n        /* \"#utility.yul\":5279:5292   */\n      mload\n        /* \"#utility.yul\":5270:5292   */\n      swap1\n      pop\n        /* \"#utility.yul\":5301:5334   */\n      tag_532\n        /* \"#utility.yul\":5328:5333   */\n      dup2\n        /* \"#utility.yul\":5301:5334   */\n      tag_391\n      jump\t// in\n    tag_532:\n        /* \"#utility.yul\":5197:5340   */\n      swap3\n      swap2\n      pop\n      pop\n      jump\t// out\n        /* \"#utility.yul\":5346:5697   */\n    tag_142:\n        /* \"#utility.yul\":5416:5422   */\n      0x00\n        /* \"#utility.yul\":5465:5467   */\n      0x20\n        /* \"#utility.yul\":5453:5462   */\n      dup3\n        /* \"#utility.yul\":5444:5451   */\n      dup5\n        /* \"#utility.yul\":5440:5463   */\n      sub\n        /* \"#utility.yul\":5436:5468   */\n      slt\n        /* \"#utility.yul\":5433:5552   */\n      iszero\n      tag_534\n      jumpi\n        /* \"#utility.yul\":5471:5550   */\n      tag_535\n      tag_381\n      jump\t// in\n    tag_535:\n        /* \"#utility.yul\":5433:5552   */\n    tag_534:\n        /* \"#utility.yul\":5591:5592   */\n      0x00\n        /* \"#utility.yul\":5616:5680   */\n      tag_536\n        /* \"#utility.yul\":5672:5679   */\n      dup5\n        /* \"#utility.yul\":5663:5669   */\n      dup3\n        /* \"#utility.yul\":5652:5661   */\n      dup6\n        /* \"#utility.yul\":5648:5670   */\n      add\n        /* \"#utility.yul\":5616:5680   */\n      tag_397\n      jump\t// in\n    tag_536:\n        /* \"#utility.yul\":5606:5680   */\n      swap2\n      pop\n        /* \"#utility.yul\":5562:5690   */\n      pop\n        /* \"#utility.yul\":5346:5697   */\n      swap3\n      swap2\n      pop\n      pop\n      jump\t// out\n        /* \"#utility.yul\":5703:5883   */\n    tag_398:\n        /* \"#utility.yul\":5751:5828   */\n      0x4e487b7100000000000000000000000000000000000000000000000000000000\n        /* \"#utility.yul\":5748:5749   */\n      0x00\n        /* \"#utility.yul\":5741:5829   */\n      mstore\n        /* \"#utility.yul\":5848:5852   */\n      0x11\n        /* \"#utility.yul\":5845:5846   */\n      0x04\n        /* \"#utility.yul\":5838:5853   */\n      mstore\n        /* \"#utility.yul\":5872:5876   */\n      0x24\n        /* \"#utility.yul\":5869:5870   */\n      0x00\n        /* \"#utility.yul\":5862:5877   */\n      revert\n        /* \"#utility.yul\":5889:6080   */\n    tag_144:\n        /* \"#utility.yul\":5929:5932   */\n      0x00\n        /* \"#utility.yul\":5948:5968   */\n      tag_539\n        /* \"#utility.yul\":5966:5967   */\n      dup3\n        /* \"#utility.yul\":5948:5968   */\n      tag_386\n      jump\t// in\n    tag_539:\n        /* \"#utility.yul\":5943:5968   */\n      swap2\n      pop\n        /* \"#utility.yul\":5982:6002   */\n      tag_540\n        /* \"#utility.yul\":6000:6001   */\n      dup4\n        /* \"#utility.yul\":5982:6002   */\n      tag_386\n      jump\t// in\n    tag_540:\n        /* \"#utility.yul\":5977:6002   */\n      swap3\n      pop\n        /* \"#utility.yul\":6025:6026   */\n      dup3\n        /* \"#utility.yul\":6022:6023   */\n      dup3\n        /* \"#utility.yul\":6018:6027   */\n      add\n        /* \"#utility.yul\":6011:6027   */\n      swap1\n      pop\n        /* \"#utility.yul\":6046:6049   */\n      dup1\n        /* \"#utility.yul\":6043:6044   */\n      dup3\n        /* \"#utility.yul\":6040:6050   */\n      gt\n        /* \"#utility.yul\":6037:6073   */\n      iszero\n      tag_541\n      jumpi\n        /* \"#utility.yul\":6053:6071   */\n      tag_542\n      tag_398\n      jump\t// in\n    tag_542:\n        /* \"#utility.yul\":6037:6073   */\n    tag_541:\n        /* \"#utility.yul\":5889:6080   */\n      swap3\n      swap2\n      pop\n      pop\n      jump\t// out\n        /* \"#utility.yul\":6086:6255   */\n    tag_399:\n        /* \"#utility.yul\":6170:6181   */\n      0x00\n        /* \"#utility.yul\":6204:6210   */\n      dup3\n        /* \"#utility.yul\":6199:6202   */\n      dup3\n        /* \"#utility.yul\":6192:6211   */\n      mstore\n        /* \"#utility.yul\":6244:6248   */\n      0x20\n        /* \"#utility.yul\":6239:6242   */\n      dup3\n        /* \"#utility.yul\":6235:6249   */\n      add\n        /* \"#utility.yul\":6220:6249   */\n      swap1\n      pop\n        /* \"#utility.yul\":6086:6255   */\n      swap3\n      swap2\n      pop\n      pop\n      jump\t// out\n        /* \"#utility.yul\":6261:6424   */\n    tag_400:\n        /* \"#utility.yul\":6401:6416   */\n      0x42616c616e6365206572726f7200000000000000000000000000000000000000\n        /* \"#utility.yul\":6397:6398   */\n      0x00\n        /* \"#utility.yul\":6389:6395   */\n      dup3\n        /* \"#utility.yul\":6385:6399   */\n      add\n        /* \"#utility.yul\":6378:6417   */\n      mstore\n        /* \"#utility.yul\":6261:6424   */\n      pop\n      jump\t// out\n        /* \"#utility.yul\":6430:6796   */\n    tag_401:\n        /* \"#utility.yul\":6572:6575   */\n      0x00\n        /* \"#utility.yul\":6593:6660   */\n      tag_546\n        /* \"#utility.yul\":6657:6659   */\n      0x0d\n        /* \"#utility.yul\":6652:6655   */\n      dup4\n        /* \"#utility.yul\":6593:6660   */\n      tag_399\n      jump\t// in\n    tag_546:\n        /* \"#utility.yul\":6586:6660   */\n      swap2\n      pop\n        /* \"#utility.yul\":6669:6762   */\n      tag_547\n        /* \"#utility.yul\":6758:6761   */\n      dup3\n        /* \"#utility.yul\":6669:6762   */\n      tag_400\n      jump\t// in\n    tag_547:\n        /* \"#utility.yul\":6787:6789   */\n      0x20\n        /* \"#utility.yul\":6782:6785   */\n      dup3\n        /* \"#utility.yul\":6778:6790   */\n      add\n        /* \"#utility.yul\":6771:6790   */\n      swap1\n      pop\n        /* \"#utility.yul\":6430:6796   */\n      swap2\n      swap1\n      pop\n      jump\t// out\n        /* \"#utility.yul\":6802:7221   */\n    tag_148:\n        /* \"#utility.yul\":6968:6972   */\n      0x00\n        /* \"#utility.yul\":7006:7008   */\n      0x20\n        /* \"#utility.yul\":6995:7004   */\n      dup3\n        /* \"#utility.yul\":6991:7009   */\n      add\n        /* \"#utility.yul\":6983:7009   */\n      swap1\n      pop\n        /* \"#utility.yul\":7055:7064   */\n      dup2\n        /* \"#utility.yul\":7049:7053   */\n      dup2\n        /* \"#utility.yul\":7045:7065   */\n      sub\n        /* \"#utility.yul\":7041:7042   */\n      0x00\n        /* \"#utility.yul\":7030:7039   */\n      dup4\n        /* \"#utility.yul\":7026:7043   */\n      add\n        /* \"#utility.yul\":7019:7066   */\n      mstore\n        /* \"#utility.yul\":7083:7214   */\n      tag_549\n        /* \"#utility.yul\":7209:7213   */\n      dup2\n        /* \"#utility.yul\":7083:7214   */\n      tag_401\n      jump\t// in\n    tag_549:\n        /* \"#utility.yul\":7075:7214   */\n      swap1\n      pop\n        /* \"#utility.yul\":6802:7221   */\n      swap2\n      swap1\n      pop\n      jump\t// out\n        /* \"#utility.yul\":7227:7421   */\n    tag_150:\n        /* \"#utility.yul\":7267:7271   */\n      0x00\n        /* \"#utility.yul\":7287:7307   */\n      tag_551\n        /* \"#utility.yul\":7305:7306   */\n      dup3\n        /* \"#utility.yul\":7287:7307   */\n      tag_386\n      jump\t// in\n    tag_551:\n        /* \"#utility.yul\":7282:7307   */\n      swap2\n      pop\n        /* \"#utility.yul\":7321:7341   */\n      tag_552\n        /* \"#utility.yul\":7339:7340   */\n      dup4\n        /* \"#utility.yul\":7321:7341   */\n      tag_386\n      jump\t// in\n    tag_552:\n        /* \"#utility.yul\":7316:7341   */\n      swap3\n      pop\n        /* \"#utility.yul\":7365:7366   */\n      dup3\n        /* \"#utility.yul\":7362:7363   */\n      dup3\n        /* \"#utility.yul\":7358:7367   */\n      sub\n        /* \"#utility.yul\":7350:7367   */\n      swap1\n      pop\n        /* \"#utility.yul\":7389:7390   */\n      dup2\n        /* \"#utility.yul\":7383:7387   */\n      dup2\n        /* \"#utility.yul\":7380:7391   */\n      gt\n        /* \"#utility.yul\":7377:7414   */\n      iszero\n      tag_553\n      jumpi\n        /* \"#utility.yul\":7394:7412   */\n      tag_554\n      tag_398\n      jump\t// in\n    tag_554:\n        /* \"#utility.yul\":7377:7414   */\n    tag_553:\n        /* \"#utility.yul\":7227:7421   */\n      swap3\n      swap2\n      pop\n      pop\n      jump\t// out\n        /* \"#utility.yul\":7427:7837   */\n    tag_153:\n        /* \"#utility.yul\":7467:7474   */\n      0x00\n        /* \"#utility.yul\":7490:7510   */\n      tag_556\n        /* \"#utility.yul\":7508:7509   */\n      dup3\n        /* \"#utility.yul\":7490:7510   */\n      tag_386\n      jump\t// in\n    tag_556:\n        /* \"#utility.yul\":7485:7510   */\n      swap2\n      pop\n        /* \"#utility.yul\":7524:7544   */\n      tag_557\n        /* \"#utility.yul\":7542:7543   */\n      dup4\n        /* \"#utility.yul\":7524:7544   */\n      tag_386\n      jump\t// in\n    tag_557:\n        /* \"#utility.yul\":7519:7544   */\n      swap3\n      pop\n        /* \"#utility.yul\":7579:7580   */\n      dup3\n        /* \"#utility.yul\":7576:7577   */\n      dup3\n        /* \"#utility.yul\":7572:7581   */\n      mul\n        /* \"#utility.yul\":7601:7631   */\n      tag_558\n        /* \"#utility.yul\":7619:7630   */\n      dup2\n        /* \"#utility.yul\":7601:7631   */\n      tag_386\n      jump\t// in\n    tag_558:\n        /* \"#utility.yul\":7590:7631   */\n      swap2\n      pop\n        /* \"#utility.yul\":7780:7781   */\n      dup3\n        /* \"#utility.yul\":7771:7778   */\n      dup3\n        /* \"#utility.yul\":7767:7782   */\n      div\n        /* \"#utility.yul\":7764:7765   */\n      dup5\n        /* \"#utility.yul\":7761:7783   */\n      eq\n        /* \"#utility.yul\":7741:7742   */\n      dup4\n        /* \"#utility.yul\":7734:7743   */\n      iszero\n        /* \"#utility.yul\":7714:7797   */\n      or\n        /* \"#utility.yul\":7691:7830   */\n      tag_559\n      jumpi\n        /* \"#utility.yul\":7810:7828   */\n      tag_560\n      tag_398\n      jump\t// in\n    tag_560:\n        /* \"#utility.yul\":7691:7830   */\n    tag_559:\n        /* \"#utility.yul\":7475:7837   */\n      pop\n        /* \"#utility.yul\":7427:7837   */\n      swap3\n      swap2\n      pop\n      pop\n      jump\t// out\n        /* \"#utility.yul\":7843:8023   */\n    tag_402:\n        /* \"#utility.yul\":7891:7968   */\n      0x4e487b7100000000000000000000000000000000000000000000000000000000\n        /* \"#utility.yul\":7888:7889   */\n      0x00\n        /* \"#utility.yul\":7881:7969   */\n      mstore\n        /* \"#utility.yul\":7988:7992   */\n      0x12\n        /* \"#utility.yul\":7985:7986   */\n      0x04\n        /* \"#utility.yul\":7978:7993   */\n      mstore\n        /* \"#utility.yul\":8012:8016   */\n      0x24\n        /* \"#utility.yul\":8009:8010   */\n      0x00\n        /* \"#utility.yul\":8002:8017   */\n      revert\n        /* \"#utility.yul\":8029:8214   */\n    tag_155:\n        /* \"#utility.yul\":8069:8070   */\n      0x00\n        /* \"#utility.yul\":8086:8106   */\n      tag_563\n        /* \"#utility.yul\":8104:8105   */\n      dup3\n        /* \"#utility.yul\":8086:8106   */\n      tag_386\n      jump\t// in\n    tag_563:\n        /* \"#utility.yul\":8081:8106   */\n      swap2\n      pop\n        /* \"#utility.yul\":8120:8140   */\n      tag_564\n        /* \"#utility.yul\":8138:8139   */\n      dup4\n        /* \"#utility.yul\":8120:8140   */\n      tag_386\n      jump\t// in\n    tag_564:\n        /* \"#utility.yul\":8115:8140   */\n      swap3\n      pop\n        /* \"#utility.yul\":8159:8160   */\n      dup3\n        /* \"#utility.yul\":8149:8184   */\n      tag_565\n      jumpi\n        /* \"#utility.yul\":8164:8182   */\n      tag_566\n      tag_402\n      jump\t// in\n    tag_566:\n        /* \"#utility.yul\":8149:8184   */\n    tag_565:\n        /* \"#utility.yul\":8206:8207   */\n      dup3\n        /* \"#utility.yul\":8203:8204   */\n      dup3\n        /* \"#utility.yul\":8199:8208   */\n      div\n        /* \"#utility.yul\":8194:8208   */\n      swap1\n      pop\n        /* \"#utility.yul\":8029:8214   */\n      swap3\n      swap2\n      pop\n      pop\n      jump\t// out\n        /* \"#utility.yul\":8220:8773   */\n    tag_164:\n        /* \"#utility.yul\":8397:8401   */\n      0x00\n        /* \"#utility.yul\":8435:8438   */\n      0x80\n        /* \"#utility.yul\":8424:8433   */\n      dup3\n        /* \"#utility.yul\":8420:8439   */\n      add\n        /* \"#utility.yul\":8412:8439   */\n      swap1\n      pop\n        /* \"#utility.yul\":8449:8520   */\n      tag_568\n        /* \"#utility.yul\":8517:8518   */\n      0x00\n        /* \"#utility.yul\":8506:8515   */\n      dup4\n        /* \"#utility.yul\":8502:8519   */\n      add\n        /* \"#utility.yul\":8493:8499   */\n      dup8\n        /* \"#utility.yul\":8449:8520   */\n      tag_387\n      jump\t// in\n    tag_568:\n        /* \"#utility.yul\":8530:8602   */\n      tag_569\n        /* \"#utility.yul\":8598:8600   */\n      0x20\n        /* \"#utility.yul\":8587:8596   */\n      dup4\n        /* \"#utility.yul\":8583:8601   */\n      add\n        /* \"#utility.yul\":8574:8580   */\n      dup7\n        /* \"#utility.yul\":8530:8602   */\n      tag_387\n      jump\t// in\n    tag_569:\n        /* \"#utility.yul\":8612:8684   */\n      tag_570\n        /* \"#utility.yul\":8680:8682   */\n      0x40\n        /* \"#utility.yul\":8669:8678   */\n      dup4\n        /* \"#utility.yul\":8665:8683   */\n      add\n        /* \"#utility.yul\":8656:8662   */\n      dup6\n        /* \"#utility.yul\":8612:8684   */\n      tag_387\n      jump\t// in\n    tag_570:\n        /* \"#utility.yul\":8694:8766   */\n      tag_571\n        /* \"#utility.yul\":8762:8764   */\n      0x60\n        /* \"#utility.yul\":8751:8760   */\n      dup4\n        /* \"#utility.yul\":8747:8765   */\n      add\n        /* \"#utility.yul\":8738:8744   */\n      dup5\n        /* \"#utility.yul\":8694:8766   */\n      tag_387\n      jump\t// in\n    tag_571:\n        /* \"#utility.yul\":8220:8773   */\n      swap6\n      swap5\n      pop\n      pop\n      pop\n      pop\n      pop\n      jump\t// out\n        /* \"#utility.yul\":8779:8948   */\n    tag_403:\n        /* \"#utility.yul\":8919:8940   */\n      0x4e6f2062616c616e63657320746f206275726e00000000000000000000000000\n        /* \"#utility.yul\":8915:8916   */\n      0x00\n        /* \"#utility.yul\":8907:8913   */\n      dup3\n        /* \"#utility.yul\":8903:8917   */\n      add\n        /* \"#utility.yul\":8896:8941   */\n      mstore\n        /* \"#utility.yul\":8779:8948   */\n      pop\n      jump\t// out\n        /* \"#utility.yul\":8954:9320   */\n    tag_404:\n        /* \"#utility.yul\":9096:9099   */\n      0x00\n        /* \"#utility.yul\":9117:9184   */\n      tag_574\n        /* \"#utility.yul\":9181:9183   */\n      0x13\n        /* \"#utility.yul\":9176:9179   */\n      dup4\n        /* \"#utility.yul\":9117:9184   */\n      tag_399\n      jump\t// in\n    tag_574:\n        /* \"#utility.yul\":9110:9184   */\n      swap2\n      pop\n        /* \"#utility.yul\":9193:9286   */\n      tag_575\n        /* \"#utility.yul\":9282:9285   */\n      dup3\n        /* \"#utility.yul\":9193:9286   */\n      tag_403\n      jump\t// in\n    tag_575:\n        /* \"#utility.yul\":9311:9313   */\n      0x20\n        /* \"#utility.yul\":9306:9309   */\n      dup3\n        /* \"#utility.yul\":9302:9314   */\n      add\n        /* \"#utility.yul\":9295:9314   */\n      swap1\n      pop\n        /* \"#utility.yul\":8954:9320   */\n      swap2\n      swap1\n      pop\n      jump\t// out\n        /* \"#utility.yul\":9326:9745   */\n    tag_188:\n        /* \"#utility.yul\":9492:9496   */\n      0x00\n        /* \"#utility.yul\":9530:9532   */\n      0x20\n        /* \"#utility.yul\":9519:9528   */\n      dup3\n        /* \"#utility.yul\":9515:9533   */\n      add\n        /* \"#utility.yul\":9507:9533   */\n      swap1\n      pop\n        /* \"#utility.yul\":9579:9588   */\n      dup2\n        /* \"#utility.yul\":9573:9577   */\n      dup2\n        /* \"#utility.yul\":9569:9589   */\n      sub\n        /* \"#utility.yul\":9565:9566   */\n      0x00\n        /* \"#utility.yul\":9554:9563   */\n      dup4\n        /* \"#utility.yul\":9550:9567   */\n      add\n        /* \"#utility.yul\":9543:9590   */\n      mstore\n        /* \"#utility.yul\":9607:9738   */\n      tag_577\n        /* \"#utility.yul\":9733:9737   */\n      dup2\n        /* \"#utility.yul\":9607:9738   */\n      tag_404\n      jump\t// in\n    tag_577:\n        /* \"#utility.yul\":9599:9738   */\n      swap1\n      pop\n        /* \"#utility.yul\":9326:9745   */\n      swap2\n      swap1\n      pop\n      jump\t// out\n        /* \"#utility.yul\":9751:9918   */\n    tag_405:\n        /* \"#utility.yul\":9891:9910   */\n      0x496e76616c696420726563697069656e74000000000000000000000000000000\n        /* \"#utility.yul\":9887:9888   */\n      0x00\n        /* \"#utility.yul\":9879:9885   */\n      dup3\n        /* \"#utility.yul\":9875:9889   */\n      add\n        /* \"#utility.yul\":9868:9911   */\n      mstore\n        /* \"#utility.yul\":9751:9918   */\n      pop\n      jump\t// out\n        /* \"#utility.yul\":9924:10290   */\n    tag_406:\n        /* \"#utility.yul\":10066:10069   */\n      0x00\n        /* \"#utility.yul\":10087:10154   */\n      tag_580\n        /* \"#utility.yul\":10151:10153   */\n      0x11\n        /* \"#utility.yul\":10146:10149   */\n      dup4\n        /* \"#utility.yul\":10087:10154   */\n      tag_399\n      jump\t// in\n    tag_580:\n        /* \"#utility.yul\":10080:10154   */\n      swap2\n      pop\n        /* \"#utility.yul\":10163:10256   */\n      tag_581\n        /* \"#utility.yul\":10252:10255   */\n      dup3\n        /* \"#utility.yul\":10163:10256   */\n      tag_405\n      jump\t// in\n    tag_581:\n        /* \"#utility.yul\":10281:10283   */\n      0x20\n        /* \"#utility.yul\":10276:10279   */\n      dup3\n        /* \"#utility.yul\":10272:10284   */\n      add\n        /* \"#utility.yul\":10265:10284   */\n      swap1\n      pop\n        /* \"#utility.yul\":9924:10290   */\n      swap2\n      swap1\n      pop\n      jump\t// out\n        /* \"#utility.yul\":10296:10715   */\n    tag_211:\n        /* \"#utility.yul\":10462:10466   */\n      0x00\n        /* \"#utility.yul\":10500:10502   */\n      0x20\n        /* \"#utility.yul\":10489:10498   */\n      dup3\n        /* \"#utility.yul\":10485:10503   */\n      add\n        /* \"#utility.yul\":10477:10503   */\n      swap1\n      pop\n        /* \"#utility.yul\":10549:10558   */\n      dup2\n        /* \"#utility.yul\":10543:10547   */\n      dup2\n        /* \"#utility.yul\":10539:10559   */\n      sub\n        /* \"#utility.yul\":10535:10536   */\n      0x00\n        /* \"#utility.yul\":10524:10533   */\n      dup4\n        /* \"#utility.yul\":10520:10537   */\n      add\n        /* \"#utility.yul\":10513:10560   */\n      mstore\n        /* \"#utility.yul\":10577:10708   */\n      tag_583\n        /* \"#utility.yul\":10703:10707   */\n      dup2\n        /* \"#utility.yul\":10577:10708   */\n      tag_406\n      jump\t// in\n    tag_583:\n        /* \"#utility.yul\":10569:10708   */\n      swap1\n      pop\n        /* \"#utility.yul\":10296:10715   */\n      swap2\n      swap1\n      pop\n      jump\t// out\n        /* \"#utility.yul\":10721:10885   */\n    tag_407:\n        /* \"#utility.yul\":10861:10877   */\n      0x4e6f7420656e6f75676820455448000000000000000000000000000000000000\n        /* \"#utility.yul\":10857:10858   */\n      0x00\n        /* \"#utility.yul\":10849:10855   */\n      dup3\n        /* \"#utility.yul\":10845:10859   */\n      add\n        /* \"#utility.yul\":10838:10878   */\n      mstore\n        /* \"#utility.yul\":10721:10885   */\n      pop\n      jump\t// out\n        /* \"#utility.yul\":10891:11257   */\n    tag_408:\n        /* \"#utility.yul\":11033:11036   */\n      0x00\n        /* \"#utility.yul\":11054:11121   */\n      tag_586\n        /* \"#utility.yul\":11118:11120   */\n      0x0e\n        /* \"#utility.yul\":11113:11116   */\n      dup4\n        /* \"#utility.yul\":11054:11121   */\n      tag_399\n      jump\t// in\n    tag_586:\n        /* \"#utility.yul\":11047:11121   */\n      swap2\n      pop\n        /* \"#utility.yul\":11130:11223   */\n      tag_587\n        /* \"#utility.yul\":11219:11222   */\n      dup3\n        /* \"#utility.yul\":11130:11223   */\n      tag_407\n      jump\t// in\n    tag_587:\n        /* \"#utility.yul\":11248:11250   */\n      0x20\n        /* \"#utility.yul\":11243:11246   */\n      dup3\n        /* \"#utility.yul\":11239:11251   */\n      add\n        /* \"#utility.yul\":11232:11251   */\n      swap1\n      pop\n        /* \"#utility.yul\":10891:11257   */\n      swap2\n      swap1\n      pop\n      jump\t// out\n        /* \"#utility.yul\":11263:11682   */\n    tag_214:\n        /* \"#utility.yul\":11429:11433   */\n      0x00\n        /* \"#utility.yul\":11467:11469   */\n      0x20\n        /* \"#utility.yul\":11456:11465   */\n      dup3\n        /* \"#utility.yul\":11452:11470   */\n      add\n        /* \"#utility.yul\":11444:11470   */\n      swap1\n      pop\n        /* \"#utility.yul\":11516:11525   */\n      dup2\n        /* \"#utility.yul\":11510:11514   */\n      dup2\n        /* \"#utility.yul\":11506:11526   */\n      sub\n        /* \"#utility.yul\":11502:11503   */\n      0x00\n        /* \"#utility.yul\":11491:11500   */\n      dup4\n        /* \"#utility.yul\":11487:11504   */\n      add\n        /* \"#utility.yul\":11480:11527   */\n      mstore\n        /* \"#utility.yul\":11544:11675   */\n      tag_589\n        /* \"#utility.yul\":11670:11674   */\n      dup2\n        /* \"#utility.yul\":11544:11675   */\n      tag_408\n      jump\t// in\n    tag_589:\n        /* \"#utility.yul\":11536:11675   */\n      swap1\n      pop\n        /* \"#utility.yul\":11263:11682   */\n      swap2\n      swap1\n      pop\n      jump\t// out\n        /* \"#utility.yul\":11688:11835   */\n    tag_409:\n        /* \"#utility.yul\":11789:11800   */\n      0x00\n        /* \"#utility.yul\":11826:11829   */\n      dup2\n        /* \"#utility.yul\":11811:11829   */\n      swap1\n      pop\n        /* \"#utility.yul\":11688:11835   */\n      swap3\n      swap2\n      pop\n      pop\n      jump\t// out\n        /* \"#utility.yul\":11841:11955   */\n    tag_410:\n      pop\n      jump\t// out\n        /* \"#utility.yul\":11961:12359   */\n    tag_411:\n        /* \"#utility.yul\":12120:12123   */\n      0x00\n        /* \"#utility.yul\":12141:12224   */\n      tag_593\n        /* \"#utility.yul\":12222:12223   */\n      0x00\n        /* \"#utility.yul\":12217:12220   */\n      dup4\n        /* \"#utility.yul\":12141:12224   */\n      tag_409\n      jump\t// in\n    tag_593:\n        /* \"#utility.yul\":12134:12224   */\n      swap2\n      pop\n        /* \"#utility.yul\":12233:12326   */\n      tag_594\n        /* \"#utility.yul\":12322:12325   */\n      dup3\n        /* \"#utility.yul\":12233:12326   */\n      tag_410\n      jump\t// in\n    tag_594:\n        /* \"#utility.yul\":12351:12352   */\n      0x00\n        /* \"#utility.yul\":12346:12349   */\n      dup3\n        /* \"#utility.yul\":12342:12353   */\n      add\n        /* \"#utility.yul\":12335:12353   */\n      swap1\n      pop\n        /* \"#utility.yul\":11961:12359   */\n      swap2\n      swap1\n      pop\n      jump\t// out\n        /* \"#utility.yul\":12365:12744   */\n    tag_216:\n        /* \"#utility.yul\":12549:12552   */\n      0x00\n        /* \"#utility.yul\":12571:12718   */\n      tag_596\n        /* \"#utility.yul\":12714:12717   */\n      dup3\n        /* \"#utility.yul\":12571:12718   */\n      tag_411\n      jump\t// in\n    tag_596:\n        /* \"#utility.yul\":12564:12718   */\n      swap2\n      pop\n        /* \"#utility.yul\":12735:12738   */\n      dup2\n        /* \"#utility.yul\":12728:12738   */\n      swap1\n      pop\n        /* \"#utility.yul\":12365:12744   */\n      swap2\n      swap1\n      pop\n      jump\t// out\n        /* \"#utility.yul\":12750:12919   */\n    tag_412:\n        /* \"#utility.yul\":12890:12911   */\n      0x455448207472616e73666572206661696c656400000000000000000000000000\n        /* \"#utility.yul\":12886:12887   */\n      0x00\n        /* \"#utility.yul\":12878:12884   */\n      dup3\n        /* \"#utility.yul\":12874:12888   */\n      add\n        /* \"#utility.yul\":12867:12912   */\n      mstore\n        /* \"#utility.yul\":12750:12919   */\n      pop\n      jump\t// out\n        /* \"#utility.yul\":12925:13291   */\n    tag_413:\n        /* \"#utility.yul\":13067:13070   */\n      0x00\n        /* \"#utility.yul\":13088:13155   */\n      tag_599\n        /* \"#utility.yul\":13152:13154   */\n      0x13\n        /* \"#utility.yul\":13147:13150   */\n      dup4\n        /* \"#utility.yul\":13088:13155   */\n      tag_399\n      jump\t// in\n    tag_599:\n        /* \"#utility.yul\":13081:13155   */\n      swap2\n      pop\n        /* \"#utility.yul\":13164:13257   */\n      tag_600\n        /* \"#utility.yul\":13253:13256   */\n      dup3\n        /* \"#utility.yul\":13164:13257   */\n      tag_412\n      jump\t// in\n    tag_600:\n        /* \"#utility.yul\":13282:13284   */\n      0x20\n        /* \"#utility.yul\":13277:13280   */\n      dup3\n        /* \"#utility.yul\":13273:13285   */\n      add\n        /* \"#utility.yul\":13266:13285   */\n      swap1\n      pop\n        /* \"#utility.yul\":12925:13291   */\n      swap2\n      swap1\n      pop\n      jump\t// out\n        /* \"#utility.yul\":13297:13716   */\n    tag_222:\n        /* \"#utility.yul\":13463:13467   */\n      0x00\n        /* \"#utility.yul\":13501:13503   */\n      0x20\n        /* \"#utility.yul\":13490:13499   */\n      dup3\n        /* \"#utility.yul\":13486:13504   */\n      add\n        /* \"#utility.yul\":13478:13504   */\n      swap1\n      pop\n        /* \"#utility.yul\":13550:13559   */\n      dup2\n        /* \"#utility.yul\":13544:13548   */\n      dup2\n        /* \"#utility.yul\":13540:13560   */\n      sub\n        /* \"#utility.yul\":13536:13537   */\n      0x00\n        /* \"#utility.yul\":13525:13534   */\n      dup4\n        /* \"#utility.yul\":13521:13538   */\n      add\n        /* \"#utility.yul\":13514:13561   */\n      mstore\n        /* \"#utility.yul\":13578:13709   */\n      tag_602\n        /* \"#utility.yul\":13704:13708   */\n      dup2\n        /* \"#utility.yul\":13578:13709   */\n      tag_413\n      jump\t// in\n    tag_602:\n        /* \"#utility.yul\":13570:13709   */\n      swap1\n      pop\n        /* \"#utility.yul\":13297:13716   */\n      swap2\n      swap1\n      pop\n      jump\t// out\n        /* \"#utility.yul\":13722:13782   */\n    tag_414:\n        /* \"#utility.yul\":13750:13753   */\n      0x00\n        /* \"#utility.yul\":13771:13776   */\n      dup2\n        /* \"#utility.yul\":13764:13776   */\n      swap1\n      pop\n        /* \"#utility.yul\":13722:13782   */\n      swap2\n      swap1\n      pop\n      jump\t// out\n        /* \"#utility.yul\":13788:13930   */\n    tag_415:\n        /* \"#utility.yul\":13838:13847   */\n      0x00\n        /* \"#utility.yul\":13871:13924   */\n      tag_605\n        /* \"#utility.yul\":13889:13923   */\n      tag_606\n        /* \"#utility.yul\":13898:13922   */\n      tag_607\n        /* \"#utility.yul\":13916:13921   */\n      dup5\n        /* \"#utility.yul\":13898:13922   */\n      tag_377\n      jump\t// in\n    tag_607:\n        /* \"#utility.yul\":13889:13923   */\n      tag_414\n      jump\t// in\n    tag_606:\n        /* \"#utility.yul\":13871:13924   */\n      tag_377\n      jump\t// in\n    tag_605:\n        /* \"#utility.yul\":13858:13924   */\n      swap1\n      pop\n        /* \"#utility.yul\":13788:13930   */\n      swap2\n      swap1\n      pop\n      jump\t// out\n        /* \"#utility.yul\":13936:14062   */\n    tag_416:\n        /* \"#utility.yul\":13986:13995   */\n      0x00\n        /* \"#utility.yul\":14019:14056   */\n      tag_609\n        /* \"#utility.yul\":14050:14055   */\n      dup3\n        /* \"#utility.yul\":14019:14056   */\n      tag_415\n      jump\t// in\n    tag_609:\n        /* \"#utility.yul\":14006:14056   */\n      swap1\n      pop\n        /* \"#utility.yul\":13936:14062   */\n      swap2\n      swap1\n      pop\n      jump\t// out\n        /* \"#utility.yul\":14068:14202   */\n    tag_417:\n        /* \"#utility.yul\":14126:14135   */\n      0x00\n        /* \"#utility.yul\":14159:14196   */\n      tag_611\n        /* \"#utility.yul\":14190:14195   */\n      dup3\n        /* \"#utility.yul\":14159:14196   */\n      tag_416\n      jump\t// in\n    tag_611:\n        /* \"#utility.yul\":14146:14196   */\n      swap1\n      pop\n        /* \"#utility.yul\":14068:14202   */\n      swap2\n      swap1\n      pop\n      jump\t// out\n        /* \"#utility.yul\":14208:14355   */\n    tag_418:\n        /* \"#utility.yul\":14303:14348   */\n      tag_613\n        /* \"#utility.yul\":14342:14347   */\n      dup2\n        /* \"#utility.yul\":14303:14348   */\n      tag_417\n      jump\t// in\n    tag_613:\n        /* \"#utility.yul\":14298:14301   */\n      dup3\n        /* \"#utility.yul\":14291:14349   */\n      mstore\n        /* \"#utility.yul\":14208:14355   */\n      pop\n      pop\n      jump\t// out\n        /* \"#utility.yul\":14361:14709   */\n    tag_224:\n        /* \"#utility.yul\":14490:14494   */\n      0x00\n        /* \"#utility.yul\":14528:14530   */\n      0x40\n        /* \"#utility.yul\":14517:14526   */\n      dup3\n        /* \"#utility.yul\":14513:14531   */\n      add\n        /* \"#utility.yul\":14505:14531   */\n      swap1\n      pop\n        /* \"#utility.yul\":14541:14612   */\n      tag_615\n        /* \"#utility.yul\":14609:14610   */\n      0x00\n        /* \"#utility.yul\":14598:14607   */\n      dup4\n        /* \"#utility.yul\":14594:14611   */\n      add\n        /* \"#utility.yul\":14585:14591   */\n      dup6\n        /* \"#utility.yul\":14541:14612   */\n      tag_387\n      jump\t// in\n    tag_615:\n        /* \"#utility.yul\":14622:14702   */\n      tag_616\n        /* \"#utility.yul\":14698:14700   */\n      0x20\n        /* \"#utility.yul\":14687:14696   */\n      dup4\n        /* \"#utility.yul\":14683:14701   */\n      add\n        /* \"#utility.yul\":14674:14680   */\n      dup5\n        /* \"#utility.yul\":14622:14702   */\n      tag_418\n      jump\t// in\n    tag_616:\n        /* \"#utility.yul\":14361:14709   */\n      swap4\n      swap3\n      pop\n      pop\n      pop\n      jump\t// out\n        /* \"#utility.yul\":14715:14889   */\n    tag_419:\n        /* \"#utility.yul\":14855:14881   */\n      0x4e6f7420656e6f75676820746f6b656e2062616c616e63650000000000000000\n        /* \"#utility.yul\":14851:14852   */\n      0x00\n        /* \"#utility.yul\":14843:14849   */\n      dup3\n        /* \"#utility.yul\":14839:14853   */\n      add\n        /* \"#utility.yul\":14832:14882   */\n      mstore\n        /* \"#utility.yul\":14715:14889   */\n      pop\n      jump\t// out\n        /* \"#utility.yul\":14895:15261   */\n    tag_420:\n        /* \"#utility.yul\":15037:15040   */\n      0x00\n        /* \"#utility.yul\":15058:15125   */\n      tag_619\n        /* \"#utility.yul\":15122:15124   */\n      0x18\n        /* \"#utility.yul\":15117:15120   */\n      dup4\n        /* \"#utility.yul\":15058:15125   */\n      tag_399\n      jump\t// in\n    tag_619:\n        /* \"#utility.yul\":15051:15125   */\n      swap2\n      pop\n        /* \"#utility.yul\":15134:15227   */\n      tag_620\n        /* \"#utility.yul\":15223:15226   */\n      dup3\n        /* \"#utility.yul\":15134:15227   */\n      tag_419\n      jump\t// in\n    tag_620:\n        /* \"#utility.yul\":15252:15254   */\n      0x20\n        /* \"#utility.yul\":15247:15250   */\n      dup3\n        /* \"#utility.yul\":15243:15255   */\n      add\n        /* \"#utility.yul\":15236:15255   */\n      swap1\n      pop\n        /* \"#utility.yul\":14895:15261   */\n      swap2\n      swap1\n      pop\n      jump\t// out\n        /* \"#utility.yul\":15267:15686   */\n    tag_239:\n        /* \"#utility.yul\":15433:15437   */\n      0x00\n        /* \"#utility.yul\":15471:15473   */\n      0x20\n        /* \"#utility.yul\":15460:15469   */\n      dup3\n        /* \"#utility.yul\":15456:15474   */\n      add\n        /* \"#utility.yul\":15448:15474   */\n      swap1\n      pop\n        /* \"#utility.yul\":15520:15529   */\n      dup2\n        /* \"#utility.yul\":15514:15518   */\n      dup2\n        /* \"#utility.yul\":15510:15530   */\n      sub\n        /* \"#utility.yul\":15506:15507   */\n      0x00\n        /* \"#utility.yul\":15495:15504   */\n      dup4\n        /* \"#utility.yul\":15491:15508   */\n      add\n        /* \"#utility.yul\":15484:15531   */\n      mstore\n        /* \"#utility.yul\":15548:15679   */\n      tag_622\n        /* \"#utility.yul\":15674:15678   */\n      dup2\n        /* \"#utility.yul\":15548:15679   */\n      tag_420\n      jump\t// in\n    tag_622:\n        /* \"#utility.yul\":15540:15679   */\n      swap1\n      pop\n        /* \"#utility.yul\":15267:15686   */\n      swap2\n      swap1\n      pop\n      jump\t// out\n        /* \"#utility.yul\":15692:15866   */\n    tag_421:\n        /* \"#utility.yul\":15832:15858   */\n      0x4e6f20657863657373205745544e20746f207265736375650000000000000000\n        /* \"#utility.yul\":15828:15829   */\n      0x00\n        /* \"#utility.yul\":15820:15826   */\n      dup3\n        /* \"#utility.yul\":15816:15830   */\n      add\n        /* \"#utility.yul\":15809:15859   */\n      mstore\n        /* \"#utility.yul\":15692:15866   */\n      pop\n      jump\t// out\n        /* \"#utility.yul\":15872:16238   */\n    tag_422:\n        /* \"#utility.yul\":16014:16017   */\n      0x00\n        /* \"#utility.yul\":16035:16102   */\n      tag_625\n        /* \"#utility.yul\":16099:16101   */\n      0x18\n        /* \"#utility.yul\":16094:16097   */\n      dup4\n        /* \"#utility.yul\":16035:16102   */\n      tag_399\n      jump\t// in\n    tag_625:\n        /* \"#utility.yul\":16028:16102   */\n      swap2\n      pop\n        /* \"#utility.yul\":16111:16204   */\n      tag_626\n        /* \"#utility.yul\":16200:16203   */\n      dup3\n        /* \"#utility.yul\":16111:16204   */\n      tag_421\n      jump\t// in\n    tag_626:\n        /* \"#utility.yul\":16229:16231   */\n      0x20\n        /* \"#utility.yul\":16224:16227   */\n      dup3\n        /* \"#utility.yul\":16220:16232   */\n      add\n        /* \"#utility.yul\":16213:16232   */\n      swap1\n      pop\n        /* \"#utility.yul\":15872:16238   */\n      swap2\n      swap1\n      pop\n      jump\t// out\n        /* \"#utility.yul\":16244:16663   */\n    tag_245:\n        /* \"#utility.yul\":16410:16414   */\n      0x00\n        /* \"#utility.yul\":16448:16450   */\n      0x20\n        /* \"#utility.yul\":16437:16446   */\n      dup3\n        /* \"#utility.yul\":16433:16451   */\n      add\n        /* \"#utility.yul\":16425:16451   */\n      swap1\n      pop\n        /* \"#utility.yul\":16497:16506   */\n      dup2\n        /* \"#utility.yul\":16491:16495   */\n      dup2\n        /* \"#utility.yul\":16487:16507   */\n      sub\n        /* \"#utility.yul\":16483:16484   */\n      0x00\n        /* \"#utility.yul\":16472:16481   */\n      dup4\n        /* \"#utility.yul\":16468:16485   */\n      add\n        /* \"#utility.yul\":16461:16508   */\n      mstore\n        /* \"#utility.yul\":16525:16656   */\n      tag_628\n        /* \"#utility.yul\":16651:16655   */\n      dup2\n        /* \"#utility.yul\":16525:16656   */\n      tag_422\n      jump\t// in\n    tag_628:\n        /* \"#utility.yul\":16517:16656   */\n      swap1\n      pop\n        /* \"#utility.yul\":16244:16663   */\n      swap2\n      swap1\n      pop\n      jump\t// out\n        /* \"#utility.yul\":16669:16845   */\n    tag_423:\n        /* \"#utility.yul\":16809:16837   */\n      0x416d6f756e74206578636565647320657863657373205745544e000000000000\n        /* \"#utility.yul\":16805:16806   */\n      0x00\n        /* \"#utility.yul\":16797:16803   */\n      dup3\n        /* \"#utility.yul\":16793:16807   */\n      add\n        /* \"#utility.yul\":16786:16838   */\n      mstore\n        /* \"#utility.yul\":16669:16845   */\n      pop\n      jump\t// out\n        /* \"#utility.yul\":16851:17217   */\n    tag_424:\n        /* \"#utility.yul\":16993:16996   */\n      0x00\n        /* \"#utility.yul\":17014:17081   */\n      tag_631\n        /* \"#utility.yul\":17078:17080   */\n      0x1a\n        /* \"#utility.yul\":17073:17076   */\n      dup4\n        /* \"#utility.yul\":17014:17081   */\n      tag_399\n      jump\t// in\n    tag_631:\n        /* \"#utility.yul\":17007:17081   */\n      swap2\n      pop\n        /* \"#utility.yul\":17090:17183   */\n      tag_632\n        /* \"#utility.yul\":17179:17182   */\n      dup3\n        /* \"#utility.yul\":17090:17183   */\n      tag_423\n      jump\t// in\n    tag_632:\n        /* \"#utility.yul\":17208:17210   */\n      0x20\n        /* \"#utility.yul\":17203:17206   */\n      dup3\n        /* \"#utility.yul\":17199:17211   */\n      add\n        /* \"#utility.yul\":17192:17211   */\n      swap1\n      pop\n        /* \"#utility.yul\":16851:17217   */\n      swap2\n      swap1\n      pop\n      jump\t// out\n        /* \"#utility.yul\":17223:17642   */\n    tag_249:\n        /* \"#utility.yul\":17389:17393   */\n      0x00\n        /* \"#utility.yul\":17427:17429   */\n      0x20\n        /* \"#utility.yul\":17416:17425   */\n      dup3\n        /* \"#utility.yul\":17412:17430   */\n      add\n        /* \"#utility.yul\":17404:17430   */\n      swap1\n      pop\n        /* \"#utility.yul\":17476:17485   */\n      dup2\n        /* \"#utility.yul\":17470:17474   */\n      dup2\n        /* \"#utility.yul\":17466:17486   */\n      sub\n        /* \"#utility.yul\":17462:17463   */\n      0x00\n        /* \"#utility.yul\":17451:17460   */\n      dup4\n        /* \"#utility.yul\":17447:17464   */\n      add\n        /* \"#utility.yul\":17440:17487   */\n      mstore\n        /* \"#utility.yul\":17504:17635   */\n      tag_634\n        /* \"#utility.yul\":17630:17634   */\n      dup2\n        /* \"#utility.yul\":17504:17635   */\n      tag_424\n      jump\t// in\n    tag_634:\n        /* \"#utility.yul\":17496:17635   */\n      swap1\n      pop\n        /* \"#utility.yul\":17223:17642   */\n      swap2\n      swap1\n      pop\n      jump\t// out\n        /* \"#utility.yul\":17648:17980   */\n    tag_251:\n        /* \"#utility.yul\":17769:17773   */\n      0x00\n        /* \"#utility.yul\":17807:17809   */\n      0x40\n        /* \"#utility.yul\":17796:17805   */\n      dup3\n        /* \"#utility.yul\":17792:17810   */\n      add\n        /* \"#utility.yul\":17784:17810   */\n      swap1\n      pop\n        /* \"#utility.yul\":17820:17891   */\n      tag_636\n        /* \"#utility.yul\":17888:17889   */\n      0x00\n        /* \"#utility.yul\":17877:17886   */\n      dup4\n        /* \"#utility.yul\":17873:17890   */\n      add\n        /* \"#utility.yul\":17864:17870   */\n      dup6\n        /* \"#utility.yul\":17820:17891   */\n      tag_379\n      jump\t// in\n    tag_636:\n        /* \"#utility.yul\":17901:17973   */\n      tag_637\n        /* \"#utility.yul\":17969:17971   */\n      0x20\n        /* \"#utility.yul\":17958:17967   */\n      dup4\n        /* \"#utility.yul\":17954:17972   */\n      add\n        /* \"#utility.yul\":17945:17951   */\n      dup5\n        /* \"#utility.yul\":17901:17973   */\n      tag_387\n      jump\t// in\n    tag_637:\n        /* \"#utility.yul\":17648:17980   */\n      swap4\n      swap3\n      pop\n      pop\n      pop\n      jump\t// out\n        /* \"#utility.yul\":17986:18123   */\n    tag_425:\n        /* \"#utility.yul\":18040:18045   */\n      0x00\n        /* \"#utility.yul\":18071:18077   */\n      dup2\n        /* \"#utility.yul\":18065:18078   */\n      mload\n        /* \"#utility.yul\":18056:18078   */\n      swap1\n      pop\n        /* \"#utility.yul\":18087:18117   */\n      tag_639\n        /* \"#utility.yul\":18111:18116   */\n      dup2\n        /* \"#utility.yul\":18087:18117   */\n      tag_384\n      jump\t// in\n    tag_639:\n        /* \"#utility.yul\":17986:18123   */\n      swap3\n      swap2\n      pop\n      pop\n      jump\t// out\n        /* \"#utility.yul\":18129:18474   */\n    tag_255:\n        /* \"#utility.yul\":18196:18202   */\n      0x00\n        /* \"#utility.yul\":18245:18247   */\n      0x20\n        /* \"#utility.yul\":18233:18242   */\n      dup3\n        /* \"#utility.yul\":18224:18231   */\n      dup5\n        /* \"#utility.yul\":18220:18243   */\n      sub\n        /* \"#utility.yul\":18216:18248   */\n      slt\n        /* \"#utility.yul\":18213:18332   */\n      iszero\n      tag_641\n      jumpi\n        /* \"#utility.yul\":18251:18330   */\n      tag_642\n      tag_381\n      jump\t// in\n    tag_642:\n        /* \"#utility.yul\":18213:18332   */\n    tag_641:\n        /* \"#utility.yul\":18371:18372   */\n      0x00\n        /* \"#utility.yul\":18396:18457   */\n      tag_643\n        /* \"#utility.yul\":18449:18456   */\n      dup5\n        /* \"#utility.yul\":18440:18446   */\n      dup3\n        /* \"#utility.yul\":18429:18438   */\n      dup6\n        /* \"#utility.yul\":18425:18447   */\n      add\n        /* \"#utility.yul\":18396:18457   */\n      tag_425\n      jump\t// in\n    tag_643:\n        /* \"#utility.yul\":18386:18457   */\n      swap2\n      pop\n        /* \"#utility.yul\":18342:18467   */\n      pop\n        /* \"#utility.yul\":18129:18474   */\n      swap3\n      swap2\n      pop\n      pop\n      jump\t// out\n        /* \"#utility.yul\":18480:18651   */\n    tag_426:\n        /* \"#utility.yul\":18620:18643   */\n      0x546f6b656e207472616e73666572206661696c65640000000000000000000000\n        /* \"#utility.yul\":18616:18617   */\n      0x00\n        /* \"#utility.yul\":18608:18614   */\n      dup3\n        /* \"#utility.yul\":18604:18618   */\n      add\n        /* \"#utility.yul\":18597:18644   */\n      mstore\n        /* \"#utility.yul\":18480:18651   */\n      pop\n      jump\t// out\n        /* \"#utility.yul\":18657:19023   */\n    tag_427:\n        /* \"#utility.yul\":18799:18802   */\n      0x00\n        /* \"#utility.yul\":18820:18887   */\n      tag_646\n        /* \"#utility.yul\":18884:18886   */\n      0x15\n        /* \"#utility.yul\":18879:18882   */\n      dup4\n        /* \"#utility.yul\":18820:18887   */\n      tag_399\n      jump\t// in\n    tag_646:\n        /* \"#utility.yul\":18813:18887   */\n      swap2\n      pop\n        /* \"#utility.yul\":18896:18989   */\n      tag_647\n        /* \"#utility.yul\":18985:18988   */\n      dup3\n        /* \"#utility.yul\":18896:18989   */\n      tag_426\n      jump\t// in\n    tag_647:\n        /* \"#utility.yul\":19014:19016   */\n      0x20\n        /* \"#utility.yul\":19009:19012   */\n      dup3\n        /* \"#utility.yul\":19005:19017   */\n      add\n        /* \"#utility.yul\":18998:19017   */\n      swap1\n      pop\n        /* \"#utility.yul\":18657:19023   */\n      swap2\n      swap1\n      pop\n      jump\t// out\n        /* \"#utility.yul\":19029:19448   */\n    tag_258:\n        /* \"#utility.yul\":19195:19199   */\n      0x00\n        /* \"#utility.yul\":19233:19235   */\n      0x20\n        /* \"#utility.yul\":19222:19231   */\n      dup3\n        /* \"#utility.yul\":19218:19236   */\n      add\n        /* \"#utility.yul\":19210:19236   */\n      swap1\n      pop\n        /* \"#utility.yul\":19282:19291   */\n      dup2\n        /* \"#utility.yul\":19276:19280   */\n      dup2\n        /* \"#utility.yul\":19272:19292   */\n      sub\n        /* \"#utility.yul\":19268:19269   */\n      0x00\n        /* \"#utility.yul\":19257:19266   */\n      dup4\n        /* \"#utility.yul\":19253:19270   */\n      add\n        /* \"#utility.yul\":19246:19293   */\n      mstore\n        /* \"#utility.yul\":19310:19441   */\n      tag_649\n        /* \"#utility.yul\":19436:19440   */\n      dup2\n        /* \"#utility.yul\":19310:19441   */\n      tag_427\n      jump\t// in\n    tag_649:\n        /* \"#utility.yul\":19302:19441   */\n      swap1\n      pop\n        /* \"#utility.yul\":19029:19448   */\n      swap2\n      swap1\n      pop\n      jump\t// out\n        /* \"#utility.yul\":19454:19896   */\n    tag_260:\n        /* \"#utility.yul\":19603:19607   */\n      0x00\n        /* \"#utility.yul\":19641:19643   */\n      0x60\n        /* \"#utility.yul\":19630:19639   */\n      dup3\n        /* \"#utility.yul\":19626:19644   */\n      add\n        /* \"#utility.yul\":19618:19644   */\n      swap1\n      pop\n        /* \"#utility.yul\":19654:19725   */\n      tag_651\n        /* \"#utility.yul\":19722:19723   */\n      0x00\n        /* \"#utility.yul\":19711:19720   */\n      dup4\n        /* \"#utility.yul\":19707:19724   */\n      add\n        /* \"#utility.yul\":19698:19704   */\n      dup7\n        /* \"#utility.yul\":19654:19725   */\n      tag_379\n      jump\t// in\n    tag_651:\n        /* \"#utility.yul\":19735:19807   */\n      tag_652\n        /* \"#utility.yul\":19803:19805   */\n      0x20\n        /* \"#utility.yul\":19792:19801   */\n      dup4\n        /* \"#utility.yul\":19788:19806   */\n      add\n        /* \"#utility.yul\":19779:19785   */\n      dup6\n        /* \"#utility.yul\":19735:19807   */\n      tag_387\n      jump\t// in\n    tag_652:\n        /* \"#utility.yul\":19817:19889   */\n      tag_653\n        /* \"#utility.yul\":19885:19887   */\n      0x40\n        /* \"#utility.yul\":19874:19883   */\n      dup4\n        /* \"#utility.yul\":19870:19888   */\n      add\n        /* \"#utility.yul\":19861:19867   */\n      dup5\n        /* \"#utility.yul\":19817:19889   */\n      tag_379\n      jump\t// in\n    tag_653:\n        /* \"#utility.yul\":19454:19896   */\n      swap5\n      swap4\n      pop\n      pop\n      pop\n      pop\n      jump\t// out\n        /* \"#utility.yul\":19902:20079   */\n    tag_428:\n        /* \"#utility.yul\":20042:20071   */\n      0x436f72652077616c6c6574207472616e73666572206661696c65640000000000\n        /* \"#utility.yul\":20038:20039   */\n      0x00\n        /* \"#utility.yul\":20030:20036   */\n      dup3\n        /* \"#utility.yul\":20026:20040   */\n      add\n        /* \"#utility.yul\":20019:20072   */\n      mstore\n        /* \"#utility.yul\":19902:20079   */\n      pop\n      jump\t// out\n        /* \"#utility.yul\":20085:20451   */\n    tag_429:\n        /* \"#utility.yul\":20227:20230   */\n      0x00\n        /* \"#utility.yul\":20248:20315   */\n      tag_656\n        /* \"#utility.yul\":20312:20314   */\n      0x1b\n        /* \"#utility.yul\":20307:20310   */\n      dup4\n        /* \"#utility.yul\":20248:20315   */\n      tag_399\n      jump\t// in\n    tag_656:\n        /* \"#utility.yul\":20241:20315   */\n      swap2\n      pop\n        /* \"#utility.yul\":20324:20417   */\n      tag_657\n        /* \"#utility.yul\":20413:20416   */\n      dup3\n        /* \"#utility.yul\":20324:20417   */\n      tag_428\n      jump\t// in\n    tag_657:\n        /* \"#utility.yul\":20442:20444   */\n      0x20\n        /* \"#utility.yul\":20437:20440   */\n      dup3\n        /* \"#utility.yul\":20433:20445   */\n      add\n        /* \"#utility.yul\":20426:20445   */\n      swap1\n      pop\n        /* \"#utility.yul\":20085:20451   */\n      swap2\n      swap1\n      pop\n      jump\t// out\n        /* \"#utility.yul\":20457:20876   */\n    tag_281:\n        /* \"#utility.yul\":20623:20627   */\n      0x00\n        /* \"#utility.yul\":20661:20663   */\n      0x20\n        /* \"#utility.yul\":20650:20659   */\n      dup3\n        /* \"#utility.yul\":20646:20664   */\n      add\n        /* \"#utility.yul\":20638:20664   */\n      swap1\n      pop\n        /* \"#utility.yul\":20710:20719   */\n      dup2\n        /* \"#utility.yul\":20704:20708   */\n      dup2\n        /* \"#utility.yul\":20700:20720   */\n      sub\n        /* \"#utility.yul\":20696:20697   */\n      0x00\n        /* \"#utility.yul\":20685:20694   */\n      dup4\n        /* \"#utility.yul\":20681:20698   */\n      add\n        /* \"#utility.yul\":20674:20721   */\n      mstore\n        /* \"#utility.yul\":20738:20869   */\n      tag_659\n        /* \"#utility.yul\":20864:20868   */\n      dup2\n        /* \"#utility.yul\":20738:20869   */\n      tag_429\n      jump\t// in\n    tag_659:\n        /* \"#utility.yul\":20730:20869   */\n      swap1\n      pop\n        /* \"#utility.yul\":20457:20876   */\n      swap2\n      swap1\n      pop\n      jump\t// out\n        /* \"#utility.yul\":20882:21059   */\n    tag_430:\n        /* \"#utility.yul\":21022:21051   */\n      0x5465616d2077616c6c6574207472616e73666572206661696c65640000000000\n        /* \"#utility.yul\":21018:21019   */\n      0x00\n        /* \"#utility.yul\":21010:21016   */\n      dup3\n        /* \"#utility.yul\":21006:21020   */\n      add\n        /* \"#utility.yul\":20999:21052   */\n      mstore\n        /* \"#utility.yul\":20882:21059   */\n      pop\n      jump\t// out\n        /* \"#utility.yul\":21065:21431   */\n    tag_431:\n        /* \"#utility.yul\":21207:21210   */\n      0x00\n        /* \"#utility.yul\":21228:21295   */\n      tag_662\n        /* \"#utility.yul\":21292:21294   */\n      0x1b\n        /* \"#utility.yul\":21287:21290   */\n      dup4\n        /* \"#utility.yul\":21228:21295   */\n      tag_399\n      jump\t// in\n    tag_662:\n        /* \"#utility.yul\":21221:21295   */\n      swap2\n      pop\n        /* \"#utility.yul\":21304:21397   */\n      tag_663\n        /* \"#utility.yul\":21393:21396   */\n      dup3\n        /* \"#utility.yul\":21304:21397   */\n      tag_430\n      jump\t// in\n    tag_663:\n        /* \"#utility.yul\":21422:21424   */\n      0x20\n        /* \"#utility.yul\":21417:21420   */\n      dup3\n        /* \"#utility.yul\":21413:21425   */\n      add\n        /* \"#utility.yul\":21406:21425   */\n      swap1\n      pop\n        /* \"#utility.yul\":21065:21431   */\n      swap2\n      swap1\n      pop\n      jump\t// out\n        /* \"#utility.yul\":21437:21856   */\n    tag_289:\n        /* \"#utility.yul\":21603:21607   */\n      0x00\n        /* \"#utility.yul\":21641:21643   */\n      0x20\n        /* \"#utility.yul\":21630:21639   */\n      dup3\n        /* \"#utility.yul\":21626:21644   */\n      add\n        /* \"#utility.yul\":21618:21644   */\n      swap1\n      pop\n        /* \"#utility.yul\":21690:21699   */\n      dup2\n        /* \"#utility.yul\":21684:21688   */\n      dup2\n        /* \"#utility.yul\":21680:21700   */\n      sub\n        /* \"#utility.yul\":21676:21677   */\n      0x00\n        /* \"#utility.yul\":21665:21674   */\n      dup4\n        /* \"#utility.yul\":21661:21678   */\n      add\n        /* \"#utility.yul\":21654:21701   */\n      mstore\n        /* \"#utility.yul\":21718:21849   */\n      tag_665\n        /* \"#utility.yul\":21844:21848   */\n      dup2\n        /* \"#utility.yul\":21718:21849   */\n      tag_431\n      jump\t// in\n    tag_665:\n        /* \"#utility.yul\":21710:21849   */\n      swap1\n      pop\n        /* \"#utility.yul\":21437:21856   */\n      swap2\n      swap1\n      pop\n      jump\t// out\n        /* \"#utility.yul\":21862:22024   */\n    tag_432:\n        /* \"#utility.yul\":22002:22016   */\n      0x556e617574686f72697a65640000000000000000000000000000000000000000\n        /* \"#utility.yul\":21998:21999   */\n      0x00\n        /* \"#utility.yul\":21990:21996   */\n      dup3\n        /* \"#utility.yul\":21986:22000   */\n      add\n        /* \"#utility.yul\":21979:22017   */\n      mstore\n        /* \"#utility.yul\":21862:22024   */\n      pop\n      jump\t// out\n        /* \"#utility.yul\":22030:22396   */\n    tag_433:\n        /* \"#utility.yul\":22172:22175   */\n      0x00\n        /* \"#utility.yul\":22193:22260   */\n      tag_668\n        /* \"#utility.yul\":22257:22259   */\n      0x0c\n        /* \"#utility.yul\":22252:22255   */\n      dup4\n        /* \"#utility.yul\":22193:22260   */\n      tag_399\n      jump\t// in\n    tag_668:\n        /* \"#utility.yul\":22186:22260   */\n      swap2\n      pop\n        /* \"#utility.yul\":22269:22362   */\n      tag_669\n        /* \"#utility.yul\":22358:22361   */\n      dup3\n        /* \"#utility.yul\":22269:22362   */\n      tag_432\n      jump\t// in\n    tag_669:\n        /* \"#utility.yul\":22387:22389   */\n      0x20\n        /* \"#utility.yul\":22382:22385   */\n      dup3\n        /* \"#utility.yul\":22378:22390   */\n      add\n        /* \"#utility.yul\":22371:22390   */\n      swap1\n      pop\n        /* \"#utility.yul\":22030:22396   */\n      swap2\n      swap1\n      pop\n      jump\t// out\n        /* \"#utility.yul\":22402:22821   */\n    tag_296:\n        /* \"#utility.yul\":22568:22572   */\n      0x00\n        /* \"#utility.yul\":22606:22608   */\n      0x20\n        /* \"#utility.yul\":22595:22604   */\n      dup3\n        /* \"#utility.yul\":22591:22609   */\n      add\n        /* \"#utility.yul\":22583:22609   */\n      swap1\n      pop\n        /* \"#utility.yul\":22655:22664   */\n      dup2\n        /* \"#utility.yul\":22649:22653   */\n      dup2\n        /* \"#utility.yul\":22645:22665   */\n      sub\n        /* \"#utility.yul\":22641:22642   */\n      0x00\n        /* \"#utility.yul\":22630:22639   */\n      dup4\n        /* \"#utility.yul\":22626:22643   */\n      add\n        /* \"#utility.yul\":22619:22666   */\n      mstore\n        /* \"#utility.yul\":22683:22814   */\n      tag_671\n        /* \"#utility.yul\":22809:22813   */\n      dup2\n        /* \"#utility.yul\":22683:22814   */\n      tag_433\n      jump\t// in\n    tag_671:\n        /* \"#utility.yul\":22675:22814   */\n      swap1\n      pop\n        /* \"#utility.yul\":22402:22821   */\n      swap2\n      swap1\n      pop\n      jump\t// out\n        /* \"#utility.yul\":22827:23000   */\n    tag_434:\n        /* \"#utility.yul\":22967:22992   */\n      0x4e6f20636f72652062616c616e636520746f206275726e000000000000000000\n        /* \"#utility.yul\":22963:22964   */\n      0x00\n        /* \"#utility.yul\":22955:22961   */\n      dup3\n        /* \"#utility.yul\":22951:22965   */\n      add\n        /* \"#utility.yul\":22944:22993   */\n      mstore\n        /* \"#utility.yul\":22827:23000   */\n      pop\n      jump\t// out\n        /* \"#utility.yul\":23006:23372   */\n    tag_435:\n        /* \"#utility.yul\":23148:23151   */\n      0x00\n        /* \"#utility.yul\":23169:23236   */\n      tag_674\n        /* \"#utility.yul\":23233:23235   */\n      0x17\n        /* \"#utility.yul\":23228:23231   */\n      dup4\n        /* \"#utility.yul\":23169:23236   */\n      tag_399\n      jump\t// in\n    tag_674:\n        /* \"#utility.yul\":23162:23236   */\n      swap2\n      pop\n        /* \"#utility.yul\":23245:23338   */\n      tag_675\n        /* \"#utility.yul\":23334:23337   */\n      dup3\n        /* \"#utility.yul\":23245:23338   */\n      tag_434\n      jump\t// in\n    tag_675:\n        /* \"#utility.yul\":23363:23365   */\n      0x20\n        /* \"#utility.yul\":23358:23361   */\n      dup3\n        /* \"#utility.yul\":23354:23366   */\n      add\n        /* \"#utility.yul\":23347:23366   */\n      swap1\n      pop\n        /* \"#utility.yul\":23006:23372   */\n      swap2\n      swap1\n      pop\n      jump\t// out\n        /* \"#utility.yul\":23378:23797   */\n    tag_305:\n        /* \"#utility.yul\":23544:23548   */\n      0x00\n        /* \"#utility.yul\":23582:23584   */\n      0x20\n        /* \"#utility.yul\":23571:23580   */\n      dup3\n        /* \"#utility.yul\":23567:23585   */\n      add\n        /* \"#utility.yul\":23559:23585   */\n      swap1\n      pop\n        /* \"#utility.yul\":23631:23640   */\n      dup2\n        /* \"#utility.yul\":23625:23629   */\n      dup2\n        /* \"#utility.yul\":23621:23641   */\n      sub\n        /* \"#utility.yul\":23617:23618   */\n      0x00\n        /* \"#utility.yul\":23606:23615   */\n      dup4\n        /* \"#utility.yul\":23602:23619   */\n      add\n        /* \"#utility.yul\":23595:23642   */\n      mstore\n        /* \"#utility.yul\":23659:23790   */\n      tag_677\n        /* \"#utility.yul\":23785:23789   */\n      dup2\n        /* \"#utility.yul\":23659:23790   */\n      tag_435\n      jump\t// in\n    tag_677:\n        /* \"#utility.yul\":23651:23790   */\n      swap1\n      pop\n        /* \"#utility.yul\":23378:23797   */\n      swap2\n      swap1\n      pop\n      jump\t// out\n        /* \"#utility.yul\":23803:23897   */\n    tag_436:\n        /* \"#utility.yul\":23836:23844   */\n      0x00\n        /* \"#utility.yul\":23884:23889   */\n      dup2\n        /* \"#utility.yul\":23880:23882   */\n      0x60\n        /* \"#utility.yul\":23876:23890   */\n      shl\n        /* \"#utility.yul\":23855:23890   */\n      swap1\n      pop\n        /* \"#utility.yul\":23803:23897   */\n      swap2\n      swap1\n      pop\n      jump\t// out\n        /* \"#utility.yul\":23903:23997   */\n    tag_437:\n        /* \"#utility.yul\":23942:23949   */\n      0x00\n        /* \"#utility.yul\":23971:23991   */\n      tag_680\n        /* \"#utility.yul\":23985:23990   */\n      dup3\n        /* \"#utility.yul\":23971:23991   */\n      tag_436\n      jump\t// in\n    tag_680:\n        /* \"#utility.yul\":23960:23991   */\n      swap1\n      pop\n        /* \"#utility.yul\":23903:23997   */\n      swap2\n      swap1\n      pop\n      jump\t// out\n        /* \"#utility.yul\":24003:24103   */\n    tag_438:\n        /* \"#utility.yul\":24042:24049   */\n      0x00\n        /* \"#utility.yul\":24071:24097   */\n      tag_682\n        /* \"#utility.yul\":24091:24096   */\n      dup3\n        /* \"#utility.yul\":24071:24097   */\n      tag_437\n      jump\t// in\n    tag_682:\n        /* \"#utility.yul\":24060:24097   */\n      swap1\n      pop\n        /* \"#utility.yul\":24003:24103   */\n      swap2\n      swap1\n      pop\n      jump\t// out\n        /* \"#utility.yul\":24109:24266   */\n    tag_439:\n        /* \"#utility.yul\":24214:24259   */\n      tag_684\n        /* \"#utility.yul\":24234:24258   */\n      tag_685\n        /* \"#utility.yul\":24252:24257   */\n      dup3\n        /* \"#utility.yul\":24234:24258   */\n      tag_378\n      jump\t// in\n    tag_685:\n        /* \"#utility.yul\":24214:24259   */\n      tag_438\n      jump\t// in\n    tag_684:\n        /* \"#utility.yul\":24209:24212   */\n      dup3\n        /* \"#utility.yul\":24202:24260   */\n      mstore\n        /* \"#utility.yul\":24109:24266   */\n      pop\n      pop\n      jump\t// out\n        /* \"#utility.yul\":24272:24363   */\n    tag_440:\n        /* \"#utility.yul\":24308:24315   */\n      0x00\n        /* \"#utility.yul\":24348:24356   */\n      0xffffff\n        /* \"#utility.yul\":24341:24346   */\n      dup3\n        /* \"#utility.yul\":24337:24357   */\n      and\n        /* \"#utility.yul\":24326:24357   */\n      swap1\n      pop\n        /* \"#utility.yul\":24272:24363   */\n      swap2\n      swap1\n      pop\n      jump\t// out\n        /* \"#utility.yul\":24369:24465   */\n    tag_441:\n        /* \"#utility.yul\":24403:24411   */\n      0x00\n        /* \"#utility.yul\":24452:24457   */\n      dup2\n        /* \"#utility.yul\":24447:24450   */\n      0xe8\n        /* \"#utility.yul\":24443:24458   */\n      shl\n        /* \"#utility.yul\":24422:24458   */\n      swap1\n      pop\n        /* \"#utility.yul\":24369:24465   */\n      swap2\n      swap1\n      pop\n      jump\t// out\n        /* \"#utility.yul\":24471:24565   */\n    tag_442:\n        /* \"#utility.yul\":24509:24516   */\n      0x00\n        /* \"#utility.yul\":24538:24559   */\n      tag_689\n        /* \"#utility.yul\":24553:24558   */\n      dup3\n        /* \"#utility.yul\":24538:24559   */\n      tag_441\n      jump\t// in\n    tag_689:\n        /* \"#utility.yul\":24527:24559   */\n      swap1\n      pop\n        /* \"#utility.yul\":24471:24565   */\n      swap2\n      swap1\n      pop\n      jump\t// out\n        /* \"#utility.yul\":24571:24724   */\n    tag_443:\n        /* \"#utility.yul\":24674:24717   */\n      tag_691\n        /* \"#utility.yul\":24693:24716   */\n      tag_692\n        /* \"#utility.yul\":24710:24715   */\n      dup3\n        /* \"#utility.yul\":24693:24716   */\n      tag_440\n      jump\t// in\n    tag_692:\n        /* \"#utility.yul\":24674:24717   */\n      tag_442\n      jump\t// in\n    tag_691:\n        /* \"#utility.yul\":24669:24672   */\n      dup3\n        /* \"#utility.yul\":24662:24718   */\n      mstore\n        /* \"#utility.yul\":24571:24724   */\n      pop\n      pop\n      jump\t// out\n        /* \"#utility.yul\":24730:25263   */\n    tag_321:\n        /* \"#utility.yul\":24896:24899   */\n      0x00\n        /* \"#utility.yul\":24911:24986   */\n      tag_694\n        /* \"#utility.yul\":24982:24985   */\n      dup3\n        /* \"#utility.yul\":24973:24979   */\n      dup7\n        /* \"#utility.yul\":24911:24986   */\n      tag_439\n      jump\t// in\n    tag_694:\n        /* \"#utility.yul\":25011:25013   */\n      0x14\n        /* \"#utility.yul\":25006:25009   */\n      dup3\n        /* \"#utility.yul\":25002:25014   */\n      add\n        /* \"#utility.yul\":24995:25014   */\n      swap2\n      pop\n        /* \"#utility.yul\":25024:25097   */\n      tag_695\n        /* \"#utility.yul\":25093:25096   */\n      dup3\n        /* \"#utility.yul\":25084:25090   */\n      dup6\n        /* \"#utility.yul\":25024:25097   */\n      tag_443\n      jump\t// in\n    tag_695:\n        /* \"#utility.yul\":25122:25123   */\n      0x03\n        /* \"#utility.yul\":25117:25120   */\n      dup3\n        /* \"#utility.yul\":25113:25124   */\n      add\n        /* \"#utility.yul\":25106:25124   */\n      swap2\n      pop\n        /* \"#utility.yul\":25134:25209   */\n      tag_696\n        /* \"#utility.yul\":25205:25208   */\n      dup3\n        /* \"#utility.yul\":25196:25202   */\n      dup5\n        /* \"#utility.yul\":25134:25209   */\n      tag_439\n      jump\t// in\n    tag_696:\n        /* \"#utility.yul\":25234:25236   */\n      0x14\n        /* \"#utility.yul\":25229:25232   */\n      dup3\n        /* \"#utility.yul\":25225:25237   */\n      add\n        /* \"#utility.yul\":25218:25237   */\n      swap2\n      pop\n        /* \"#utility.yul\":25254:25257   */\n      dup2\n        /* \"#utility.yul\":25247:25257   */\n      swap1\n      pop\n        /* \"#utility.yul\":24730:25263   */\n      swap5\n      swap4\n      pop\n      pop\n      pop\n      pop\n      jump\t// out\n        /* \"#utility.yul\":25269:25367   */\n    tag_444:\n        /* \"#utility.yul\":25320:25326   */\n      0x00\n        /* \"#utility.yul\":25354:25359   */\n      dup2\n        /* \"#utility.yul\":25348:25360   */\n      mload\n        /* \"#utility.yul\":25338:25360   */\n      swap1\n      pop\n        /* \"#utility.yul\":25269:25367   */\n      swap2\n      swap1\n      pop\n      jump\t// out\n        /* \"#utility.yul\":25373:25531   */\n    tag_445:\n        /* \"#utility.yul\":25446:25457   */\n      0x00\n        /* \"#utility.yul\":25480:25486   */\n      dup3\n        /* \"#utility.yul\":25475:25478   */\n      dup3\n        /* \"#utility.yul\":25468:25487   */\n      mstore\n        /* \"#utility.yul\":25520:25524   */\n      0x20\n        /* \"#utility.yul\":25515:25518   */\n      dup3\n        /* \"#utility.yul\":25511:25525   */\n      add\n        /* \"#utility.yul\":25496:25525   */\n      swap1\n      pop\n        /* \"#utility.yul\":25373:25531   */\n      swap3\n      swap2\n      pop\n      pop\n      jump\t// out\n        /* \"#utility.yul\":25537:25783   */\n    tag_446:\n        /* \"#utility.yul\":25618:25619   */\n      0x00\n        /* \"#utility.yul\":25628:25741   */\n    tag_700:\n        /* \"#utility.yul\":25642:25648   */\n      dup4\n        /* \"#utility.yul\":25639:25640   */\n      dup2\n        /* \"#utility.yul\":25636:25649   */\n      lt\n        /* \"#utility.yul\":25628:25741   */\n      iszero\n      tag_702\n      jumpi\n        /* \"#utility.yul\":25727:25728   */\n      dup1\n        /* \"#utility.yul\":25722:25725   */\n      dup3\n        /* \"#utility.yul\":25718:25729   */\n      add\n        /* \"#utility.yul\":25712:25730   */\n      mload\n        /* \"#utility.yul\":25708:25709   */\n      dup2\n        /* \"#utility.yul\":25703:25706   */\n      dup5\n        /* \"#utility.yul\":25699:25710   */\n      add\n        /* \"#utility.yul\":25692:25731   */\n      mstore\n        /* \"#utility.yul\":25664:25666   */\n      0x20\n        /* \"#utility.yul\":25661:25662   */\n      dup2\n        /* \"#utility.yul\":25657:25667   */\n      add\n        /* \"#utility.yul\":25652:25667   */\n      swap1\n      pop\n        /* \"#utility.yul\":25628:25741   */\n      jump(tag_700)\n    tag_702:\n        /* \"#utility.yul\":25775:25776   */\n      0x00\n        /* \"#utility.yul\":25766:25772   */\n      dup5\n        /* \"#utility.yul\":25761:25764   */\n      dup5\n        /* \"#utility.yul\":25757:25773   */\n      add\n        /* \"#utility.yul\":25750:25777   */\n      mstore\n        /* \"#utility.yul\":25599:25783   */\n      pop\n        /* \"#utility.yul\":25537:25783   */\n      pop\n      pop\n      pop\n      jump\t// out\n        /* \"#utility.yul\":25789:25891   */\n    tag_447:\n        /* \"#utility.yul\":25830:25836   */\n      0x00\n        /* \"#utility.yul\":25881:25883   */\n      0x1f\n        /* \"#utility.yul\":25877:25884   */\n      not\n        /* \"#utility.yul\":25872:25874   */\n      0x1f\n        /* \"#utility.yul\":25865:25870   */\n      dup4\n        /* \"#utility.yul\":25861:25875   */\n      add\n        /* \"#utility.yul\":25857:25885   */\n      and\n        /* \"#utility.yul\":25847:25885   */\n      swap1\n      pop\n        /* \"#utility.yul\":25789:25891   */\n      swap2\n      swap1\n      pop\n      jump\t// out\n        /* \"#utility.yul\":25897:26250   */\n    tag_448:\n        /* \"#utility.yul\":25973:25976   */\n      0x00\n        /* \"#utility.yul\":26001:26039   */\n      tag_705\n        /* \"#utility.yul\":26033:26038   */\n      dup3\n        /* \"#utility.yul\":26001:26039   */\n      tag_444\n      jump\t// in\n    tag_705:\n        /* \"#utility.yul\":26055:26115   */\n      tag_706\n        /* \"#utility.yul\":26108:26114   */\n      dup2\n        /* \"#utility.yul\":26103:26106   */\n      dup6\n        /* \"#utility.yul\":26055:26115   */\n      tag_445\n      jump\t// in\n    tag_706:\n        /* \"#utility.yul\":26048:26115   */\n      swap4\n      pop\n        /* \"#utility.yul\":26124:26189   */\n      tag_707\n        /* \"#utility.yul\":26182:26188   */\n      dup2\n        /* \"#utility.yul\":26177:26180   */\n      dup6\n        /* \"#utility.yul\":26170:26174   */\n      0x20\n        /* \"#utility.yul\":26163:26168   */\n      dup7\n        /* \"#utility.yul\":26159:26175   */\n      add\n        /* \"#utility.yul\":26124:26189   */\n      tag_446\n      jump\t// in\n    tag_707:\n        /* \"#utility.yul\":26214:26243   */\n      tag_708\n        /* \"#utility.yul\":26236:26242   */\n      dup2\n        /* \"#utility.yul\":26214:26243   */\n      tag_447\n      jump\t// in\n    tag_708:\n        /* \"#utility.yul\":26209:26212   */\n      dup5\n        /* \"#utility.yul\":26205:26244   */\n      add\n        /* \"#utility.yul\":26198:26244   */\n      swap2\n      pop\n        /* \"#utility.yul\":25977:26250   */\n      pop\n        /* \"#utility.yul\":25897:26250   */\n      swap3\n      swap2\n      pop\n      pop\n      jump\t// out\n        /* \"#utility.yul\":26256:26364   */\n    tag_449:\n        /* \"#utility.yul\":26333:26357   */\n      tag_710\n        /* \"#utility.yul\":26351:26356   */\n      dup2\n        /* \"#utility.yul\":26333:26357   */\n      tag_378\n      jump\t// in\n    tag_710:\n        /* \"#utility.yul\":26328:26331   */\n      dup3\n        /* \"#utility.yul\":26321:26358   */\n      mstore\n        /* \"#utility.yul\":26256:26364   */\n      pop\n      pop\n      jump\t// out\n        /* \"#utility.yul\":26370:26478   */\n    tag_450:\n        /* \"#utility.yul\":26447:26471   */\n      tag_712\n        /* \"#utility.yul\":26465:26470   */\n      dup2\n        /* \"#utility.yul\":26447:26471   */\n      tag_386\n      jump\t// in\n    tag_712:\n        /* \"#utility.yul\":26442:26445   */\n      dup3\n        /* \"#utility.yul\":26435:26472   */\n      mstore\n        /* \"#utility.yul\":26370:26478   */\n      pop\n      pop\n      jump\t// out\n        /* \"#utility.yul\":26560:27551   */\n    tag_451:\n        /* \"#utility.yul\":26697:26700   */\n      0x00\n        /* \"#utility.yul\":26733:26737   */\n      0x80\n        /* \"#utility.yul\":26728:26731   */\n      dup4\n        /* \"#utility.yul\":26724:26738   */\n      add\n        /* \"#utility.yul\":26820:26824   */\n      0x00\n        /* \"#utility.yul\":26813:26818   */\n      dup4\n        /* \"#utility.yul\":26809:26825   */\n      add\n        /* \"#utility.yul\":26803:26826   */\n      mload\n        /* \"#utility.yul\":26873:26876   */\n      dup5\n        /* \"#utility.yul\":26867:26871   */\n      dup3\n        /* \"#utility.yul\":26863:26877   */\n      sub\n        /* \"#utility.yul\":26856:26860   */\n      0x00\n        /* \"#utility.yul\":26851:26854   */\n      dup7\n        /* \"#utility.yul\":26847:26861   */\n      add\n        /* \"#utility.yul\":26840:26878   */\n      mstore\n        /* \"#utility.yul\":26899:26970   */\n      tag_714\n        /* \"#utility.yul\":26965:26969   */\n      dup3\n        /* \"#utility.yul\":26951:26963   */\n      dup3\n        /* \"#utility.yul\":26899:26970   */\n      tag_448\n      jump\t// in\n    tag_714:\n        /* \"#utility.yul\":26891:26970   */\n      swap2\n      pop\n        /* \"#utility.yul\":26748:26981   */\n      pop\n        /* \"#utility.yul\":27068:27072   */\n      0x20\n        /* \"#utility.yul\":27061:27066   */\n      dup4\n        /* \"#utility.yul\":27057:27073   */\n      add\n        /* \"#utility.yul\":27051:27074   */\n      mload\n        /* \"#utility.yul\":27087:27150   */\n      tag_715\n        /* \"#utility.yul\":27144:27148   */\n      0x20\n        /* \"#utility.yul\":27139:27142   */\n      dup7\n        /* \"#utility.yul\":27135:27149   */\n      add\n        /* \"#utility.yul\":27121:27133   */\n      dup3\n        /* \"#utility.yul\":27087:27150   */\n      tag_449\n      jump\t// in\n    tag_715:\n        /* \"#utility.yul\":26991:27160   */\n      pop\n        /* \"#utility.yul\":27246:27250   */\n      0x40\n        /* \"#utility.yul\":27239:27244   */\n      dup4\n        /* \"#utility.yul\":27235:27251   */\n      add\n        /* \"#utility.yul\":27229:27252   */\n      mload\n        /* \"#utility.yul\":27265:27328   */\n      tag_716\n        /* \"#utility.yul\":27322:27326   */\n      0x40\n        /* \"#utility.yul\":27317:27320   */\n      dup7\n        /* \"#utility.yul\":27313:27327   */\n      add\n        /* \"#utility.yul\":27299:27311   */\n      dup3\n        /* \"#utility.yul\":27265:27328   */\n      tag_450\n      jump\t// in\n    tag_716:\n        /* \"#utility.yul\":27170:27338   */\n      pop\n        /* \"#utility.yul\":27432:27436   */\n      0x60\n        /* \"#utility.yul\":27425:27430   */\n      dup4\n        /* \"#utility.yul\":27421:27437   */\n      add\n        /* \"#utility.yul\":27415:27438   */\n      mload\n        /* \"#utility.yul\":27451:27514   */\n      tag_717\n        /* \"#utility.yul\":27508:27512   */\n      0x60\n        /* \"#utility.yul\":27503:27506   */\n      dup7\n        /* \"#utility.yul\":27499:27513   */\n      add\n        /* \"#utility.yul\":27485:27497   */\n      dup3\n        /* \"#utility.yul\":27451:27514   */\n      tag_450\n      jump\t// in\n    tag_717:\n        /* \"#utility.yul\":27348:27524   */\n      pop\n        /* \"#utility.yul\":27541:27545   */\n      dup1\n        /* \"#utility.yul\":27534:27545   */\n      swap2\n      pop\n        /* \"#utility.yul\":26702:27551   */\n      pop\n        /* \"#utility.yul\":26560:27551   */\n      swap3\n      swap2\n      pop\n      pop\n      jump\t// out\n        /* \"#utility.yul\":27557:27966   */\n    tag_323:\n        /* \"#utility.yul\":27718:27722   */\n      0x00\n        /* \"#utility.yul\":27756:27758   */\n      0x20\n        /* \"#utility.yul\":27745:27754   */\n      dup3\n        /* \"#utility.yul\":27741:27759   */\n      add\n        /* \"#utility.yul\":27733:27759   */\n      swap1\n      pop\n        /* \"#utility.yul\":27805:27814   */\n      dup2\n        /* \"#utility.yul\":27799:27803   */\n      dup2\n        /* \"#utility.yul\":27795:27815   */\n      sub\n        /* \"#utility.yul\":27791:27792   */\n      0x00\n        /* \"#utility.yul\":27780:27789   */\n      dup4\n        /* \"#utility.yul\":27776:27793   */\n      add\n        /* \"#utility.yul\":27769:27816   */\n      mstore\n        /* \"#utility.yul\":27833:27959   */\n      tag_719\n        /* \"#utility.yul\":27954:27958   */\n      dup2\n        /* \"#utility.yul\":27945:27951   */\n      dup5\n        /* \"#utility.yul\":27833:27959   */\n      tag_451\n      jump\t// in\n    tag_719:\n        /* \"#utility.yul\":27825:27959   */\n      swap1\n      pop\n        /* \"#utility.yul\":27557:27966   */\n      swap3\n      swap2\n      pop\n      pop\n      jump\t// out\n        /* \"#utility.yul\":27972:28152   */\n    tag_333:\n        /* \"#utility.yul\":28020:28097   */\n      0x4e487b7100000000000000000000000000000000000000000000000000000000\n        /* \"#utility.yul\":28017:28018   */\n      0x00\n        /* \"#utility.yul\":28010:28098   */\n      mstore\n        /* \"#utility.yul\":28117:28121   */\n      0x41\n        /* \"#utility.yul\":28114:28115   */\n      0x04\n        /* \"#utility.yul\":28107:28122   */\n      mstore\n        /* \"#utility.yul\":28141:28145   */\n      0x24\n        /* \"#utility.yul\":28138:28139   */\n      0x00\n        /* \"#utility.yul\":28131:28146   */\n      revert\n        /* \"#utility.yul\":28158:28338   */\n    tag_337:\n        /* \"#utility.yul\":28206:28283   */\n      0x4e487b7100000000000000000000000000000000000000000000000000000000\n        /* \"#utility.yul\":28203:28204   */\n      0x00\n        /* \"#utility.yul\":28196:28284   */\n      mstore\n        /* \"#utility.yul\":28303:28307   */\n      0x32\n        /* \"#utility.yul\":28300:28301   */\n      0x04\n        /* \"#utility.yul\":28293:28308   */\n      mstore\n        /* \"#utility.yul\":28327:28331   */\n      0x24\n        /* \"#utility.yul\":28324:28325   */\n      0x00\n        /* \"#utility.yul\":28317:28332   */\n      revert\n        /* \"#utility.yul\":28344:28458   */\n    tag_452:\n        /* \"#utility.yul\":28411:28417   */\n      0x00\n        /* \"#utility.yul\":28445:28450   */\n      dup2\n        /* \"#utility.yul\":28439:28451   */\n      mload\n        /* \"#utility.yul\":28429:28451   */\n      swap1\n      pop\n        /* \"#utility.yul\":28344:28458   */\n      swap2\n      swap1\n      pop\n      jump\t// out\n        /* \"#utility.yul\":28464:28648   */\n    tag_453:\n        /* \"#utility.yul\":28563:28574   */\n      0x00\n        /* \"#utility.yul\":28597:28603   */\n      dup3\n        /* \"#utility.yul\":28592:28595   */\n      dup3\n        /* \"#utility.yul\":28585:28604   */\n      mstore\n        /* \"#utility.yul\":28637:28641   */\n      0x20\n        /* \"#utility.yul\":28632:28635   */\n      dup3\n        /* \"#utility.yul\":28628:28642   */\n      add\n        /* \"#utility.yul\":28613:28642   */\n      swap1\n      pop\n        /* \"#utility.yul\":28464:28648   */\n      swap3\n      swap2\n      pop\n      pop\n      jump\t// out\n        /* \"#utility.yul\":28654:28786   */\n    tag_454:\n        /* \"#utility.yul\":28721:28725   */\n      0x00\n        /* \"#utility.yul\":28744:28747   */\n      dup2\n        /* \"#utility.yul\":28736:28747   */\n      swap1\n      pop\n        /* \"#utility.yul\":28774:28778   */\n      0x20\n        /* \"#utility.yul\":28769:28772   */\n      dup3\n        /* \"#utility.yul\":28765:28779   */\n      add\n        /* \"#utility.yul\":28757:28779   */\n      swap1\n      pop\n        /* \"#utility.yul\":28654:28786   */\n      swap2\n      swap1\n      pop\n      jump\t// out\n        /* \"#utility.yul\":28792:28971   */\n    tag_455:\n        /* \"#utility.yul\":28861:28871   */\n      0x00\n        /* \"#utility.yul\":28882:28928   */\n      tag_726\n        /* \"#utility.yul\":28924:28927   */\n      dup4\n        /* \"#utility.yul\":28916:28922   */\n      dup4\n        /* \"#utility.yul\":28882:28928   */\n      tag_449\n      jump\t// in\n    tag_726:\n        /* \"#utility.yul\":28960:28964   */\n      0x20\n        /* \"#utility.yul\":28955:28958   */\n      dup4\n        /* \"#utility.yul\":28951:28965   */\n      add\n        /* \"#utility.yul\":28937:28965   */\n      swap1\n      pop\n        /* \"#utility.yul\":28792:28971   */\n      swap3\n      swap2\n      pop\n      pop\n      jump\t// out\n        /* \"#utility.yul\":28977:29090   */\n    tag_456:\n        /* \"#utility.yul\":29047:29051   */\n      0x00\n        /* \"#utility.yul\":29079:29083   */\n      0x20\n        /* \"#utility.yul\":29074:29077   */\n      dup3\n        /* \"#utility.yul\":29070:29084   */\n      add\n        /* \"#utility.yul\":29062:29084   */\n      swap1\n      pop\n        /* \"#utility.yul\":28977:29090   */\n      swap2\n      swap1\n      pop\n      jump\t// out\n        /* \"#utility.yul\":29126:29858   */\n    tag_457:\n        /* \"#utility.yul\":29245:29248   */\n      0x00\n        /* \"#utility.yul\":29274:29328   */\n      tag_729\n        /* \"#utility.yul\":29322:29327   */\n      dup3\n        /* \"#utility.yul\":29274:29328   */\n      tag_452\n      jump\t// in\n    tag_729:\n        /* \"#utility.yul\":29344:29430   */\n      tag_730\n        /* \"#utility.yul\":29423:29429   */\n      dup2\n        /* \"#utility.yul\":29418:29421   */\n      dup6\n        /* \"#utility.yul\":29344:29430   */\n      tag_453\n      jump\t// in\n    tag_730:\n        /* \"#utility.yul\":29337:29430   */\n      swap4\n      pop\n        /* \"#utility.yul\":29454:29510   */\n      tag_731\n        /* \"#utility.yul\":29504:29509   */\n      dup4\n        /* \"#utility.yul\":29454:29510   */\n      tag_454\n      jump\t// in\n    tag_731:\n        /* \"#utility.yul\":29533:29540   */\n      dup1\n        /* \"#utility.yul\":29564:29565   */\n      0x00\n        /* \"#utility.yul\":29549:29833   */\n    tag_732:\n        /* \"#utility.yul\":29574:29580   */\n      dup4\n        /* \"#utility.yul\":29571:29572   */\n      dup2\n        /* \"#utility.yul\":29568:29581   */\n      lt\n        /* \"#utility.yul\":29549:29833   */\n      iszero\n      tag_734\n      jumpi\n        /* \"#utility.yul\":29650:29656   */\n      dup2\n        /* \"#utility.yul\":29644:29657   */\n      mload\n        /* \"#utility.yul\":29677:29740   */\n      tag_735\n        /* \"#utility.yul\":29736:29739   */\n      dup9\n        /* \"#utility.yul\":29721:29734   */\n      dup3\n        /* \"#utility.yul\":29677:29740   */\n      tag_455\n      jump\t// in\n    tag_735:\n        /* \"#utility.yul\":29670:29740   */\n      swap8\n      pop\n        /* \"#utility.yul\":29763:29823   */\n      tag_736\n        /* \"#utility.yul\":29816:29822   */\n      dup4\n        /* \"#utility.yul\":29763:29823   */\n      tag_456\n      jump\t// in\n    tag_736:\n        /* \"#utility.yul\":29753:29823   */\n      swap3\n      pop\n        /* \"#utility.yul\":29609:29833   */\n      pop\n        /* \"#utility.yul\":29596:29597   */\n      0x01\n        /* \"#utility.yul\":29593:29594   */\n      dup2\n        /* \"#utility.yul\":29589:29598   */\n      add\n        /* \"#utility.yul\":29584:29598   */\n      swap1\n      pop\n        /* \"#utility.yul\":29549:29833   */\n      jump(tag_732)\n    tag_734:\n        /* \"#utility.yul\":29553:29567   */\n      pop\n        /* \"#utility.yul\":29849:29852   */\n      dup6\n        /* \"#utility.yul\":29842:29852   */\n      swap4\n      pop\n        /* \"#utility.yul\":29250:29858   */\n      pop\n      pop\n      pop\n        /* \"#utility.yul\":29126:29858   */\n      swap3\n      swap2\n      pop\n      pop\n      jump\t// out\n        /* \"#utility.yul\":29864:30347   */\n    tag_341:\n        /* \"#utility.yul\":30035:30039   */\n      0x00\n        /* \"#utility.yul\":30073:30075   */\n      0x40\n        /* \"#utility.yul\":30062:30071   */\n      dup3\n        /* \"#utility.yul\":30058:30076   */\n      add\n        /* \"#utility.yul\":30050:30076   */\n      swap1\n      pop\n        /* \"#utility.yul\":30086:30157   */\n      tag_738\n        /* \"#utility.yul\":30154:30155   */\n      0x00\n        /* \"#utility.yul\":30143:30152   */\n      dup4\n        /* \"#utility.yul\":30139:30156   */\n      add\n        /* \"#utility.yul\":30130:30136   */\n      dup6\n        /* \"#utility.yul\":30086:30157   */\n      tag_387\n      jump\t// in\n    tag_738:\n        /* \"#utility.yul\":30204:30213   */\n      dup2\n        /* \"#utility.yul\":30198:30202   */\n      dup2\n        /* \"#utility.yul\":30194:30214   */\n      sub\n        /* \"#utility.yul\":30189:30191   */\n      0x20\n        /* \"#utility.yul\":30178:30187   */\n      dup4\n        /* \"#utility.yul\":30174:30192   */\n      add\n        /* \"#utility.yul\":30167:30215   */\n      mstore\n        /* \"#utility.yul\":30232:30340   */\n      tag_739\n        /* \"#utility.yul\":30335:30339   */\n      dup2\n        /* \"#utility.yul\":30326:30332   */\n      dup5\n        /* \"#utility.yul\":30232:30340   */\n      tag_457\n      jump\t// in\n    tag_739:\n        /* \"#utility.yul\":30224:30340   */\n      swap1\n      pop\n        /* \"#utility.yul\":29864:30347   */\n      swap4\n      swap3\n      pop\n      pop\n      pop\n      jump\t// out\n        /* \"#utility.yul\":30353:30470   */\n    tag_458:\n        /* \"#utility.yul\":30462:30463   */\n      0x00\n        /* \"#utility.yul\":30459:30460   */\n      dup1\n        /* \"#utility.yul\":30452:30464   */\n      revert\n        /* \"#utility.yul\":30476:30757   */\n    tag_459:\n        /* \"#utility.yul\":30559:30586   */\n      tag_742\n        /* \"#utility.yul\":30581:30585   */\n      dup3\n        /* \"#utility.yul\":30559:30586   */\n      tag_447\n      jump\t// in\n    tag_742:\n        /* \"#utility.yul\":30551:30557   */\n      dup2\n        /* \"#utility.yul\":30547:30587   */\n      add\n        /* \"#utility.yul\":30689:30695   */\n      dup2\n        /* \"#utility.yul\":30677:30687   */\n      dup2\n        /* \"#utility.yul\":30674:30696   */\n      lt\n        /* \"#utility.yul\":30653:30671   */\n      0xffffffffffffffff\n        /* \"#utility.yul\":30641:30651   */\n      dup3\n        /* \"#utility.yul\":30638:30672   */\n      gt\n        /* \"#utility.yul\":30635:30697   */\n      or\n        /* \"#utility.yul\":30632:30720   */\n      iszero\n      tag_743\n      jumpi\n        /* \"#utility.yul\":30700:30718   */\n      tag_744\n      tag_333\n      jump\t// in\n    tag_744:\n        /* \"#utility.yul\":30632:30720   */\n    tag_743:\n        /* \"#utility.yul\":30740:30750   */\n      dup1\n        /* \"#utility.yul\":30736:30738   */\n      0x40\n        /* \"#utility.yul\":30729:30751   */\n      mstore\n        /* \"#utility.yul\":30519:30757   */\n      pop\n        /* \"#utility.yul\":30476:30757   */\n      pop\n      pop\n      jump\t// out\n        /* \"#utility.yul\":30763:30892   */\n    tag_460:\n        /* \"#utility.yul\":30797:30803   */\n      0x00\n        /* \"#utility.yul\":30824:30844   */\n      tag_746\n      tag_380\n      jump\t// in\n    tag_746:\n        /* \"#utility.yul\":30814:30844   */\n      swap1\n      pop\n        /* \"#utility.yul\":30853:30886   */\n      tag_747\n        /* \"#utility.yul\":30881:30885   */\n      dup3\n        /* \"#utility.yul\":30873:30879   */\n      dup3\n        /* \"#utility.yul\":30853:30886   */\n      tag_459\n      jump\t// in\n    tag_747:\n        /* \"#utility.yul\":30763:30892   */\n      swap2\n      swap1\n      pop\n      jump\t// out\n        /* \"#utility.yul\":30898:31209   */\n    tag_461:\n        /* \"#utility.yul\":30975:30979   */\n      0x00\n        /* \"#utility.yul\":31065:31083   */\n      0xffffffffffffffff\n        /* \"#utility.yul\":31057:31063   */\n      dup3\n        /* \"#utility.yul\":31054:31084   */\n      gt\n        /* \"#utility.yul\":31051:31107   */\n      iszero\n      tag_749\n      jumpi\n        /* \"#utility.yul\":31087:31105   */\n      tag_750\n      tag_333\n      jump\t// in\n    tag_750:\n        /* \"#utility.yul\":31051:31107   */\n    tag_749:\n        /* \"#utility.yul\":31137:31141   */\n      0x20\n        /* \"#utility.yul\":31129:31135   */\n      dup3\n        /* \"#utility.yul\":31125:31142   */\n      mul\n        /* \"#utility.yul\":31117:31142   */\n      swap1\n      pop\n        /* \"#utility.yul\":31197:31201   */\n      0x20\n        /* \"#utility.yul\":31191:31195   */\n      dup2\n        /* \"#utility.yul\":31187:31202   */\n      add\n        /* \"#utility.yul\":31179:31202   */\n      swap1\n      pop\n        /* \"#utility.yul\":30898:31209   */\n      swap2\n      swap1\n      pop\n      jump\t// out\n        /* \"#utility.yul\":31215:31332   */\n    tag_462:\n        /* \"#utility.yul\":31324:31325   */\n      0x00\n        /* \"#utility.yul\":31321:31322   */\n      dup1\n        /* \"#utility.yul\":31314:31326   */\n      revert\n        /* \"#utility.yul\":31355:32087   */\n    tag_463:\n        /* \"#utility.yul\":31462:31467   */\n      0x00\n        /* \"#utility.yul\":31487:31568   */\n      tag_753\n        /* \"#utility.yul\":31503:31567   */\n      tag_754\n        /* \"#utility.yul\":31560:31566   */\n      dup5\n        /* \"#utility.yul\":31503:31567   */\n      tag_461\n      jump\t// in\n    tag_754:\n        /* \"#utility.yul\":31487:31568   */\n      tag_460\n      jump\t// in\n    tag_753:\n        /* \"#utility.yul\":31478:31568   */\n      swap1\n      pop\n        /* \"#utility.yul\":31588:31593   */\n      dup1\n        /* \"#utility.yul\":31617:31623   */\n      dup4\n        /* \"#utility.yul\":31610:31615   */\n      dup3\n        /* \"#utility.yul\":31603:31624   */\n      mstore\n        /* \"#utility.yul\":31651:31655   */\n      0x20\n        /* \"#utility.yul\":31644:31649   */\n      dup3\n        /* \"#utility.yul\":31640:31656   */\n      add\n        /* \"#utility.yul\":31633:31656   */\n      swap1\n      pop\n        /* \"#utility.yul\":31704:31708   */\n      0x20\n        /* \"#utility.yul\":31696:31702   */\n      dup5\n        /* \"#utility.yul\":31692:31709   */\n      mul\n        /* \"#utility.yul\":31684:31690   */\n      dup4\n        /* \"#utility.yul\":31680:31710   */\n      add\n        /* \"#utility.yul\":31733:31736   */\n      dup6\n        /* \"#utility.yul\":31725:31731   */\n      dup2\n        /* \"#utility.yul\":31722:31737   */\n      gt\n        /* \"#utility.yul\":31719:31841   */\n      iszero\n      tag_755\n      jumpi\n        /* \"#utility.yul\":31752:31831   */\n      tag_756\n      tag_462\n      jump\t// in\n    tag_756:\n        /* \"#utility.yul\":31719:31841   */\n    tag_755:\n        /* \"#utility.yul\":31867:31873   */\n      dup4\n        /* \"#utility.yul\":31850:32081   */\n    tag_757:\n        /* \"#utility.yul\":31884:31890   */\n      dup2\n        /* \"#utility.yul\":31879:31882   */\n      dup2\n        /* \"#utility.yul\":31876:31891   */\n      lt\n        /* \"#utility.yul\":31850:32081   */\n      iszero\n      tag_759\n      jumpi\n        /* \"#utility.yul\":31959:31962   */\n      dup1\n        /* \"#utility.yul\":31988:32036   */\n      tag_760\n        /* \"#utility.yul\":32032:32035   */\n      dup9\n        /* \"#utility.yul\":32020:32030   */\n      dup3\n        /* \"#utility.yul\":31988:32036   */\n      tag_397\n      jump\t// in\n    tag_760:\n        /* \"#utility.yul\":31983:31986   */\n      dup5\n        /* \"#utility.yul\":31976:32037   */\n      mstore\n        /* \"#utility.yul\":32066:32070   */\n      0x20\n        /* \"#utility.yul\":32061:32064   */\n      dup5\n        /* \"#utility.yul\":32057:32071   */\n      add\n        /* \"#utility.yul\":32050:32071   */\n      swap4\n      pop\n        /* \"#utility.yul\":31926:32081   */\n      pop\n        /* \"#utility.yul\":31910:31914   */\n      0x20\n        /* \"#utility.yul\":31905:31908   */\n      dup2\n        /* \"#utility.yul\":31901:31915   */\n      add\n        /* \"#utility.yul\":31894:31915   */\n      swap1\n      pop\n        /* \"#utility.yul\":31850:32081   */\n      jump(tag_757)\n    tag_759:\n        /* \"#utility.yul\":31854:31875   */\n      pop\n        /* \"#utility.yul\":31468:32087   */\n      pop\n      pop\n        /* \"#utility.yul\":31355:32087   */\n      swap4\n      swap3\n      pop\n      pop\n      pop\n      jump\t// out\n        /* \"#utility.yul\":32110:32495   */\n    tag_464:\n        /* \"#utility.yul\":32192:32197   */\n      0x00\n        /* \"#utility.yul\":32241:32244   */\n      dup3\n        /* \"#utility.yul\":32234:32238   */\n      0x1f\n        /* \"#utility.yul\":32226:32232   */\n      dup4\n        /* \"#utility.yul\":32222:32239   */\n      add\n        /* \"#utility.yul\":32218:32245   */\n      slt\n        /* \"#utility.yul\":32208:32330   */\n      tag_762\n      jumpi\n        /* \"#utility.yul\":32249:32328   */\n      tag_763\n      tag_458\n      jump\t// in\n    tag_763:\n        /* \"#utility.yul\":32208:32330   */\n    tag_762:\n        /* \"#utility.yul\":32359:32365   */\n      dup2\n        /* \"#utility.yul\":32353:32366   */\n      mload\n        /* \"#utility.yul\":32384:32489   */\n      tag_764\n        /* \"#utility.yul\":32485:32488   */\n      dup5\n        /* \"#utility.yul\":32477:32483   */\n      dup3\n        /* \"#utility.yul\":32470:32474   */\n      0x20\n        /* \"#utility.yul\":32462:32468   */\n      dup7\n        /* \"#utility.yul\":32458:32475   */\n      add\n        /* \"#utility.yul\":32384:32489   */\n      tag_463\n      jump\t// in\n    tag_764:\n        /* \"#utility.yul\":32375:32489   */\n      swap2\n      pop\n        /* \"#utility.yul\":32198:32495   */\n      pop\n        /* \"#utility.yul\":32110:32495   */\n      swap3\n      swap2\n      pop\n      pop\n      jump\t// out\n        /* \"#utility.yul\":32501:33055   */\n    tag_345:\n        /* \"#utility.yul\":32596:32602   */\n      0x00\n        /* \"#utility.yul\":32645:32647   */\n      0x20\n        /* \"#utility.yul\":32633:32642   */\n      dup3\n        /* \"#utility.yul\":32624:32631   */\n      dup5\n        /* \"#utility.yul\":32620:32643   */\n      sub\n        /* \"#utility.yul\":32616:32648   */\n      slt\n        /* \"#utility.yul\":32613:32732   */\n      iszero\n      tag_766\n      jumpi\n        /* \"#utility.yul\":32651:32730   */\n      tag_767\n      tag_381\n      jump\t// in\n    tag_767:\n        /* \"#utility.yul\":32613:32732   */\n    tag_766:\n        /* \"#utility.yul\":32792:32793   */\n      0x00\n        /* \"#utility.yul\":32781:32790   */\n      dup3\n        /* \"#utility.yul\":32777:32794   */\n      add\n        /* \"#utility.yul\":32771:32795   */\n      mload\n        /* \"#utility.yul\":32822:32840   */\n      0xffffffffffffffff\n        /* \"#utility.yul\":32814:32820   */\n      dup2\n        /* \"#utility.yul\":32811:32841   */\n      gt\n        /* \"#utility.yul\":32808:32925   */\n      iszero\n      tag_768\n      jumpi\n        /* \"#utility.yul\":32844:32923   */\n      tag_769\n      tag_382\n      jump\t// in\n    tag_769:\n        /* \"#utility.yul\":32808:32925   */\n    tag_768:\n        /* \"#utility.yul\":32949:33038   */\n      tag_770\n        /* \"#utility.yul\":33030:33037   */\n      dup5\n        /* \"#utility.yul\":33021:33027   */\n      dup3\n        /* \"#utility.yul\":33010:33019   */\n      dup6\n        /* \"#utility.yul\":33006:33028   */\n      add\n        /* \"#utility.yul\":32949:33038   */\n      tag_464\n      jump\t// in\n    tag_770:\n        /* \"#utility.yul\":32939:33038   */\n      swap2\n      pop\n        /* \"#utility.yul\":32742:33048   */\n      pop\n        /* \"#utility.yul\":32501:33055   */\n      swap3\n      swap2\n      pop\n      pop\n      jump\t// out\n        /* \"#utility.yul\":33061:33876   */\n    tag_356:\n        /* \"#utility.yul\":33316:33320   */\n      0x00\n        /* \"#utility.yul\":33354:33357   */\n      0xa0\n        /* \"#utility.yul\":33343:33352   */\n      dup3\n        /* \"#utility.yul\":33339:33358   */\n      add\n        /* \"#utility.yul\":33331:33358   */\n      swap1\n      pop\n        /* \"#utility.yul\":33368:33439   */\n      tag_772\n        /* \"#utility.yul\":33436:33437   */\n      0x00\n        /* \"#utility.yul\":33425:33434   */\n      dup4\n        /* \"#utility.yul\":33421:33438   */\n      add\n        /* \"#utility.yul\":33412:33418   */\n      dup9\n        /* \"#utility.yul\":33368:33439   */\n      tag_387\n      jump\t// in\n    tag_772:\n        /* \"#utility.yul\":33449:33521   */\n      tag_773\n        /* \"#utility.yul\":33517:33519   */\n      0x20\n        /* \"#utility.yul\":33506:33515   */\n      dup4\n        /* \"#utility.yul\":33502:33520   */\n      add\n        /* \"#utility.yul\":33493:33499   */\n      dup8\n        /* \"#utility.yul\":33449:33521   */\n      tag_387\n      jump\t// in\n    tag_773:\n        /* \"#utility.yul\":33568:33577   */\n      dup2\n        /* \"#utility.yul\":33562:33566   */\n      dup2\n        /* \"#utility.yul\":33558:33578   */\n      sub\n        /* \"#utility.yul\":33553:33555   */\n      0x40\n        /* \"#utility.yul\":33542:33551   */\n      dup4\n        /* \"#utility.yul\":33538:33556   */\n      add\n        /* \"#utility.yul\":33531:33579   */\n      mstore\n        /* \"#utility.yul\":33596:33704   */\n      tag_774\n        /* \"#utility.yul\":33699:33703   */\n      dup2\n        /* \"#utility.yul\":33690:33696   */\n      dup7\n        /* \"#utility.yul\":33596:33704   */\n      tag_457\n      jump\t// in\n    tag_774:\n        /* \"#utility.yul\":33588:33704   */\n      swap1\n      pop\n        /* \"#utility.yul\":33714:33786   */\n      tag_775\n        /* \"#utility.yul\":33782:33784   */\n      0x60\n        /* \"#utility.yul\":33771:33780   */\n      dup4\n        /* \"#utility.yul\":33767:33785   */\n      add\n        /* \"#utility.yul\":33758:33764   */\n      dup6\n        /* \"#utility.yul\":33714:33786   */\n      tag_379\n      jump\t// in\n    tag_775:\n        /* \"#utility.yul\":33796:33869   */\n      tag_776\n        /* \"#utility.yul\":33864:33867   */\n      0x80\n        /* \"#utility.yul\":33853:33862   */\n      dup4\n        /* \"#utility.yul\":33849:33868   */\n      add\n        /* \"#utility.yul\":33840:33846   */\n      dup5\n        /* \"#utility.yul\":33796:33869   */\n      tag_387\n      jump\t// in\n    tag_776:\n        /* \"#utility.yul\":33061:33876   */\n      swap7\n      swap6\n      pop\n      pop\n      pop\n      pop\n      pop\n      pop\n      jump\t// out\n\n    auxdata: 0xa26469706673582212200643ef3c7f264ca7e8ee76d489ee0840b75e8242ed0708eef4509c3527eb4cd864736f6c63430008140033\n}\n",
				"bytecode": {
					"linkReferences": {},
					"object": "61018060405261dead73ffffffffffffffffffffffffffffffffffffffff166101209073ffffffffffffffffffffffffffffffffffffffff16815250600073ffffffffffffffffffffffffffffffffffffffff166101409073ffffffffffffffffffffffffffffffffffffffff16815250610bb862ffffff166101609062ffffff168152503480156200009157600080fd5b506040516200335b3803806200335b8339818101604052810190620000b7919062000487565b826001600081905550600073ffffffffffffffffffffffffffffffffffffffff168173ffffffffffffffffffffffffffffffffffffffff1603620001355760006040517f1e4fbdf70000000000000000000000000000000000000000000000000000000081526004016200012c919062000561565b60405180910390fd5b62000146816200031260201b60201c565b5087600260006101000a81548173ffffffffffffffffffffffffffffffffffffffff021916908373ffffffffffffffffffffffffffffffffffffffff16021790555086600360006101000a81548173ffffffffffffffffffffffffffffffffffffffff021916908373ffffffffffffffffffffffffffffffffffffffff1602179055508573ffffffffffffffffffffffffffffffffffffffff1660c08173ffffffffffffffffffffffffffffffffffffffff16815250508473ffffffffffffffffffffffffffffffffffffffff1660e08173ffffffffffffffffffffffffffffffffffffffff16815250508373ffffffffffffffffffffffffffffffffffffffff166101008173ffffffffffffffffffffffffffffffffffffffff16815250508173ffffffffffffffffffffffffffffffffffffffff1660808173ffffffffffffffffffffffffffffffffffffffff16815250508073ffffffffffffffffffffffffffffffffffffffff1660a08173ffffffffffffffffffffffffffffffffffffffff16815250506001600760006101000a81548160ff0219169083151502179055506001600760016101000a81548160ff02191690831515021790555050505050505050506200057e565b6000600160009054906101000a900473ffffffffffffffffffffffffffffffffffffffff16905081600160006101000a81548173ffffffffffffffffffffffffffffffffffffffff021916908373ffffffffffffffffffffffffffffffffffffffff1602179055508173ffffffffffffffffffffffffffffffffffffffff168173ffffffffffffffffffffffffffffffffffffffff167f8be0079c531659141344cd1fd0a4f28419497f9722a3daafe3b4186f6b6457e060405160405180910390a35050565b600080fd5b600073ffffffffffffffffffffffffffffffffffffffff82169050919050565b60006200040a82620003dd565b9050919050565b6200041c81620003fd565b81146200042857600080fd5b50565b6000815190506200043c8162000411565b92915050565b60006200044f82620003dd565b9050919050565b620004618162000442565b81146200046d57600080fd5b50565b600081519050620004818162000456565b92915050565b600080600080600080600080610100898b031215620004ab57620004aa620003d8565b5b6000620004bb8b828c016200042b565b9850506020620004ce8b828c016200042b565b9750506040620004e18b828c016200042b565b9650506060620004f48b828c016200042b565b9550506080620005078b828c016200042b565b94505060a06200051a8b828c016200042b565b93505060c06200052d8b828c0162000470565b92505060e0620005408b828c0162000470565b9150509295985092959890939650565b6200055b81620003fd565b82525050565b600060208201905062000578600083018462000550565b92915050565b60805160a05160c05160e05161010051610120516101405161016051612d076200065460003960006114e90152600081816113c901526119b10152600081816108c4015261155101526000818161014b015281816101aa0152818161058101528181610605015281816109ac01528181610d6101528181610fbe015281816113f8015281816114c8015281816116e501526118a90152600081816108410152611754015260008181610865015261150a015260008181610964015261113a01526000818161098801526110570152612d076000f3fe6080604052600436106101445760003560e01c80637499aff4116100b6578063ba779ed51161006f578063ba779ed5146104b2578063cfbb7d36146104dd578063dc05a309146104f4578063dc1a4d9e1461050b578063f2fde38b14610522578063fccc28131461054b576101a8565b80637499aff4146103b45780637581aa60146103df57806389e852171461040a5780638da5cb5b14610435578063a0558c3f14610460578063b37fd19014610489576101a8565b806357d1fdcd1161010857806357d1fdcd146102dc57806359927044146102f357806362ab05e71461031e57806366650b7b146103495780636cdf0e4014610374578063715018a61461039d576101a8565b80630c2b72e9146102075780630efd0973146102325780632b7459b91461025d5780633d65de44146102865780634e6fd6c4146102b1576101a8565b366101a8577f000000000000000000000000000000000000000000000000000000000000000073ffffffffffffffffffffffffffffffffffffffff163373ffffffffffffffffffffffffffffffffffffffff16146101a6576101a534610576565b5b005b7f000000000000000000000000000000000000000000000000000000000000000073ffffffffffffffffffffffffffffffffffffffff163373ffffffffffffffffffffffffffffffffffffffff16146102055761020434610576565b5b005b34801561021357600080fd5b5061021c61083f565b6040516102299190611cac565b60405180910390f35b34801561023e57600080fd5b50610247610863565b6040516102549190611cac565b60405180910390f35b34801561026957600080fd5b50610284600480360381019061027f9190611d13565b610887565b005b34801561029257600080fd5b5061029b6108bc565b6040516102a89190611d59565b60405180910390f35b3480156102bd57600080fd5b506102c66108c2565b6040516102d39190611cac565b60405180910390f35b3480156102e857600080fd5b506102f16108e6565b005b3480156102ff57600080fd5b50610308610962565b6040516103159190611d95565b60405180910390f35b34801561032a57600080fd5b50610333610986565b6040516103409190611d95565b60405180910390f35b34801561035557600080fd5b5061035e6109aa565b60405161036b9190611cac565b60405180910390f35b34801561038057600080fd5b5061039b60048036038101906103969190611d13565b6109ce565b005b3480156103a957600080fd5b506103b2610a03565b005b3480156103c057600080fd5b506103c9610a17565b6040516103d69190611d59565b60405180910390f35b3480156103eb57600080fd5b506103f4610a1d565b6040516104019190611dbf565b60405180910390f35b34801561041657600080fd5b5061041f610a30565b60405161042c9190611d59565b60405180910390f35b34801561044157600080fd5b5061044a610a36565b6040516104579190611cac565b60405180910390f35b34801561046c57600080fd5b5061048760048036038101906104829190611e32565b610a60565b005b34801561049557600080fd5b506104b060048036038101906104ab9190611e9e565b610c1a565b005b3480156104be57600080fd5b506104c7610f72565b6040516104d49190611dbf565b60405180910390f35b3480156104e957600080fd5b506104f2610f85565b005b34801561050057600080fd5b50610509611219565b005b34801561051757600080fd5b506105206112da565b005b34801561052e57600080fd5b5061054960048036038101906105449190611ef1565b611341565b005b34801561055757600080fd5b506105606113c7565b60405161056d9190611cac565b60405180910390f35b6000811115610601577f000000000000000000000000000000000000000000000000000000000000000073ffffffffffffffffffffffffffffffffffffffff1663d0e30db0826040518263ffffffff1660e01b81526004016000604051808303818588803b1580156105e757600080fd5b505af11580156105fb573d6000803e3d6000fd5b50505050505b60007f000000000000000000000000000000000000000000000000000000000000000073ffffffffffffffffffffffffffffffffffffffff166370a08231306040518263ffffffff1660e01b815260040161065c9190611cac565b602060405180830381865afa158015610679573d6000803e3d6000fd5b505050506040513d601f19601f8201168201806040525081019061069d9190611f33565b905060006004546006546005546106b49190611f8f565b6106be9190611f8f565b905080821015610703576040517f08c379a00000000000000000000000000000000000000000000000000000000081526004016106fa90612020565b60405180910390fd5b600081836107119190612040565b905060008111156108395760006064603c8361072d9190612074565b61073791906120e5565b905060006064600a8461074a9190612074565b61075491906120e5565b905060008183856107659190612040565b61076f9190612040565b905082600560008282546107839190611f8f565b92505081905550806006600082825461079c9190611f8f565b9250508190555081600460008282546107b59190611f8f565b925050819055507f4816db49bfc91a0172699baedf430e5d308b8034f966fb25681b27c17bcd3a47848483856040516107f19493929190612116565b60405180910390a1600760009054906101000a900460ff1615610817576108166113eb565b5b600760019054906101000a900460ff16156108355761083461168a565b5b5050505b50505050565b7f000000000000000000000000000000000000000000000000000000000000000081565b7f000000000000000000000000000000000000000000000000000000000000000081565b61088f611ac6565b610897611b4d565b80600760006101000a81548160ff0219169083151502179055506108b9611b93565b50565b60045481565b7f000000000000000000000000000000000000000000000000000000000000000081565b6108ee611ac6565b6108f6611b4d565b6000600454118061090957506000600554115b610948576040517f08c379a000000000000000000000000000000000000000000000000000000000815260040161093f906121a7565b60405180910390fd5b6109506113eb565b61095861168a565b610960611b93565b565b7f000000000000000000000000000000000000000000000000000000000000000081565b7f000000000000000000000000000000000000000000000000000000000000000081565b7f000000000000000000000000000000000000000000000000000000000000000081565b6109d6611ac6565b6109de611b4d565b80600760016101000a81548160ff021916908315150217905550610a00611b93565b50565b610a0b611ac6565b610a156000611b9d565b565b60055481565b600760019054906101000a900460ff1681565b60065481565b6000600160009054906101000a900473ffffffffffffffffffffffffffffffffffffffff16905090565b610a68611ac6565b610a70611b4d565b600073ffffffffffffffffffffffffffffffffffffffff168173ffffffffffffffffffffffffffffffffffffffff1603610adf576040517f08c379a0000000000000000000000000000000000000000000000000000000008152600401610ad690612213565b60405180910390fd5b600047905080831115610b27576040517f08c379a0000000000000000000000000000000000000000000000000000000008152600401610b1e9061227f565b60405180910390fd5b60008273ffffffffffffffffffffffffffffffffffffffff1684604051610b4d906122d0565b60006040518083038185875af1925050503d8060008114610b8a576040519150601f19603f3d011682016040523d82523d6000602084013e610b8f565b606091505b5050905080610bd3576040517f08c379a0000000000000000000000000000000000000000000000000000000008152600401610bca90612331565b60405180910390fd5b7fcd7fef3a642dcf99ce1004b2a15d31e91398f01974500b64eab8fc50fef2d3b18484604051610c049291906123b0565b60405180910390a15050610c16611b93565b5050565b610c22611ac6565b610c2a611b4d565b600073ffffffffffffffffffffffffffffffffffffffff168173ffffffffffffffffffffffffffffffffffffffff1603610c99576040517f08c379a0000000000000000000000000000000000000000000000000000000008152600401610c9090612213565b60405180910390fd5b600083905060008173ffffffffffffffffffffffffffffffffffffffff166370a08231306040518263ffffffff1660e01b8152600401610cd99190611cac565b602060405180830381865afa158015610cf6573d6000803e3d6000fd5b505050506040513d601f19601f82011682018060405250810190610d1a9190611f33565b905080841115610d5f576040517f08c379a0000000000000000000000000000000000000000000000000000000008152600401610d5690612425565b60405180910390fd5b7f000000000000000000000000000000000000000000000000000000000000000073ffffffffffffffffffffffffffffffffffffffff168573ffffffffffffffffffffffffffffffffffffffff1603610e65576000600454600654600554610dc79190611f8f565b610dd19190611f8f565b9050808211610e15576040517f08c379a0000000000000000000000000000000000000000000000000000000008152600401610e0c90612491565b60405180910390fd5b8082610e219190612040565b851115610e63576040517f08c379a0000000000000000000000000000000000000000000000000000000008152600401610e5a906124fd565b60405180910390fd5b505b60008273ffffffffffffffffffffffffffffffffffffffff1663a9059cbb85876040518363ffffffff1660e01b8152600401610ea292919061251d565b6020604051808303816000875af1158015610ec1573d6000803e3d6000fd5b505050506040513d601f19601f82011682018060405250810190610ee5919061255b565b905080610f27576040517f08c379a0000000000000000000000000000000000000000000000000000000008152600401610f1e906125d4565b60405180910390fd5b7ffb475a842bad10d3800b61bd1a92e716051afba979b124b583bd99a2d1d7bfd5868686604051610f5a939291906125f4565b60405180910390a1505050610f6d611b93565b505050565b600760009054906101000a900460ff1681565b610f8d611ac6565b610f95611b4d565b610f9f6000610576565b6000600654600554610fb19190611f8f565b90506000811115611048577f000000000000000000000000000000000000000000000000000000000000000073ffffffffffffffffffffffffffffffffffffffff16632e1a7d4d826040518263ffffffff1660e01b81526004016110159190611d59565b600060405180830381600087803b15801561102f57600080fd5b505af1158015611043573d6000803e3d6000fd5b505050505b6000600554111561112b5760007f000000000000000000000000000000000000000000000000000000000000000073ffffffffffffffffffffffffffffffffffffffff1660055460405161109b906122d0565b60006040518083038185875af1925050503d80600081146110d8576040519150601f19603f3d011682016040523d82523d6000602084013e6110dd565b606091505b5050905080611121576040517f08c379a000000000000000000000000000000000000000000000000000000000815260040161111890612677565b60405180910390fd5b6000600581905550505b6000600654111561120e5760007f000000000000000000000000000000000000000000000000000000000000000073ffffffffffffffffffffffffffffffffffffffff1660065460405161117e906122d0565b60006040518083038185875af1925050503d80600081146111bb576040519150601f19603f3d011682016040523d82523d6000602084013e6111c0565b606091505b5050905080611204576040517f08c379a00000000000000000000000000000000000000000000000000000000081526004016111fb906126e3565b60405180910390fd5b6000600681905550505b50611217611b93565b565b611221610a36565b73ffffffffffffffffffffffffffffffffffffffff163373ffffffffffffffffffffffffffffffffffffffff161480611299575073066f912448941c7a094a65f65ff8c9196378589373ffffffffffffffffffffffffffffffffffffffff163373ffffffffffffffffffffffffffffffffffffffff16145b6112d8576040517f08c379a00000000000000000000000000000000000000000000000000000000081526004016112cf9061274f565b60405180910390fd5b565b6112e2611ac6565b6112ea611b4d565b60006005541161132f576040517f08c379a0000000000000000000000000000000000000000000000000000000008152600401611326906127bb565b60405180910390fd5b61133761168a565b61133f611b93565b565b611349611ac6565b600073ffffffffffffffffffffffffffffffffffffffff168173ffffffffffffffffffffffffffffffffffffffff16036113bb5760006040517f1e4fbdf70000000000000000000000000000000000000000000000000000000081526004016113b29190611cac565b60405180910390fd5b6113c481611b9d565b50565b7f000000000000000000000000000000000000000000000000000000000000000081565b60006004541115611688577f000000000000000000000000000000000000000000000000000000000000000073ffffffffffffffffffffffffffffffffffffffff1663095ea7b3600260009054906101000a900473ffffffffffffffffffffffffffffffffffffffff166004546040518363ffffffff1660e01b815260040161147592919061251d565b6020604051808303816000875af1158015611494573d6000803e3d6000fd5b505050506040513d601f19601f820116820180604052508101906114b8919061255b565b50600060405180608001604052807f00000000000000000000000000000000000000000000000000000000000000007f00000000000000000000000000000000000000000000000000000000000000007f000000000000000000000000000000000000000000000000000000000000000060405160200161153b93929190612868565b60405160208183030381529060405281526020017f000000000000000000000000000000000000000000000000000000000000000073ffffffffffffffffffffffffffffffffffffffff1681526020016004548152602001600081525090506000600260009054906101000a900473ffffffffffffffffffffffffffffffffffffffff1673ffffffffffffffffffffffffffffffffffffffff1663b858183f836040518263ffffffff1660e01b81526004016115f791906129b6565b6020604051808303816000875af1158015611616573d6000803e3d6000fd5b505050506040513d601f19601f8201168201806040525081019061163a9190611f33565b905060006004819055506000811115611685577f9f7c0331cae72869b1e69d00e6dbfceb0e02266830e12339f841d334bc6141278160405161167c9190611d59565b60405180910390a15b50505b565b60006005541115611ac4576000600267ffffffffffffffff8111156116b2576116b16129d8565b5b6040519080825280602002602001820160405280156116e05781602001602082028036833780820191505090505b5090507f00000000000000000000000000000000000000000000000000000000000000008160008151811061171857611717612a07565b5b602002602001019073ffffffffffffffffffffffffffffffffffffffff16908173ffffffffffffffffffffffffffffffffffffffff16815250507f00000000000000000000000000000000000000000000000000000000000000008160018151811061178757611786612a07565b5b602002602001019073ffffffffffffffffffffffffffffffffffffffff16908173ffffffffffffffffffffffffffffffffffffffff16815250506000600360009054906101000a900473ffffffffffffffffffffffffffffffffffffffff1673ffffffffffffffffffffffffffffffffffffffff1663d06ca61f600554846040518363ffffffff1660e01b8152600401611822929190612ae5565b600060405180830381865afa15801561183f573d6000803e3d6000fd5b505050506040513d6000823e3d601f19601f820116820180604052508101906118689190612c2e565b90506000816001815181106118805761187f612a07565b5b602002602001015190506000606460508361189b9190612074565b6118a591906120e5565b90507f000000000000000000000000000000000000000000000000000000000000000073ffffffffffffffffffffffffffffffffffffffff1663095ea7b3600360009054906101000a900473ffffffffffffffffffffffffffffffffffffffff166005546040518363ffffffff1660e01b815260040161192692919061251d565b6020604051808303816000875af1158015611945573d6000803e3d6000fd5b505050506040513d601f19601f82011682018060405250810190611969919061255b565b506000600360009054906101000a900473ffffffffffffffffffffffffffffffffffffffff1673ffffffffffffffffffffffffffffffffffffffff166338ed173960055484887f000000000000000000000000000000000000000000000000000000000000000061012c426119de9190611f8f565b6040518663ffffffff1660e01b81526004016119fe959493929190612c77565b6000604051808303816000875af1158015611a1d573d6000803e3d6000fd5b505050506040513d6000823e3d601f19601f82011682018060405250810190611a469190612c2e565b905060008160018351611a599190612040565b81518110611a6a57611a69612a07565b5b6020026020010151905060006005819055506000811115611abd577fcb42363dcc1840222268fe43eebc976f3e311a14761e5396eb394ebdac90a58281604051611ab49190611d59565b60405180910390a15b5050505050505b565b611ace611c63565b73ffffffffffffffffffffffffffffffffffffffff16611aec610a36565b73ffffffffffffffffffffffffffffffffffffffff1614611b4b57611b0f611c63565b6040517f118cdaa7000000000000000000000000000000000000000000000000000000008152600401611b429190611cac565b60405180910390fd5b565b600260005403611b89576040517f3ee5aeb500000000000000000000000000000000000000000000000000000000815260040160405180910390fd5b6002600081905550565b6001600081905550565b6000600160009054906101000a900473ffffffffffffffffffffffffffffffffffffffff16905081600160006101000a81548173ffffffffffffffffffffffffffffffffffffffff021916908373ffffffffffffffffffffffffffffffffffffffff1602179055508173ffffffffffffffffffffffffffffffffffffffff168173ffffffffffffffffffffffffffffffffffffffff167f8be0079c531659141344cd1fd0a4f28419497f9722a3daafe3b4186f6b6457e060405160405180910390a35050565b600033905090565b600073ffffffffffffffffffffffffffffffffffffffff82169050919050565b6000611c9682611c6b565b9050919050565b611ca681611c8b565b82525050565b6000602082019050611cc16000830184611c9d565b92915050565b6000604051905090565b600080fd5b600080fd5b60008115159050919050565b611cf081611cdb565b8114611cfb57600080fd5b50565b600081359050611d0d81611ce7565b92915050565b600060208284031215611d2957611d28611cd1565b5b6000611d3784828501611cfe565b91505092915050565b6000819050919050565b611d5381611d40565b82525050565b6000602082019050611d6e6000830184611d4a565b92915050565b6000611d7f82611c6b565b9050919050565b611d8f81611d74565b82525050565b6000602082019050611daa6000830184611d86565b92915050565b611db981611cdb565b82525050565b6000602082019050611dd46000830184611db0565b92915050565b611de381611d40565b8114611dee57600080fd5b50565b600081359050611e0081611dda565b92915050565b611e0f81611d74565b8114611e1a57600080fd5b50565b600081359050611e2c81611e06565b92915050565b60008060408385031215611e4957611e48611cd1565b5b6000611e5785828601611df1565b9250506020611e6885828601611e1d565b9150509250929050565b611e7b81611c8b565b8114611e8657600080fd5b50565b600081359050611e9881611e72565b92915050565b600080600060608486031215611eb757611eb6611cd1565b5b6000611ec586828701611e89565b9350506020611ed686828701611df1565b9250506040611ee786828701611e89565b9150509250925092565b600060208284031215611f0757611f06611cd1565b5b6000611f1584828501611e89565b91505092915050565b600081519050611f2d81611dda565b92915050565b600060208284031215611f4957611f48611cd1565b5b6000611f5784828501611f1e565b91505092915050565b7f4e487b7100000000000000000000000000000000000000000000000000000000600052601160045260246000fd5b6000611f9a82611d40565b9150611fa583611d40565b9250828201905080821115611fbd57611fbc611f60565b5b92915050565b600082825260208201905092915050565b7f42616c616e6365206572726f7200000000000000000000000000000000000000600082015250565b600061200a600d83611fc3565b915061201582611fd4565b602082019050919050565b6000602082019050818103600083015261203981611ffd565b9050919050565b600061204b82611d40565b915061205683611d40565b925082820390508181111561206e5761206d611f60565b5b92915050565b600061207f82611d40565b915061208a83611d40565b925082820261209881611d40565b915082820484148315176120af576120ae611f60565b5b5092915050565b7f4e487b7100000000000000000000000000000000000000000000000000000000600052601260045260246000fd5b60006120f082611d40565b91506120fb83611d40565b92508261210b5761210a6120b6565b5b828204905092915050565b600060808201905061212b6000830187611d4a565b6121386020830186611d4a565b6121456040830185611d4a565b6121526060830184611d4a565b95945050505050565b7f4e6f2062616c616e63657320746f206275726e00000000000000000000000000600082015250565b6000612191601383611fc3565b915061219c8261215b565b602082019050919050565b600060208201905081810360008301526121c081612184565b9050919050565b7f496e76616c696420726563697069656e74000000000000000000000000000000600082015250565b60006121fd601183611fc3565b9150612208826121c7565b602082019050919050565b6000602082019050818103600083015261222c816121f0565b9050919050565b7f4e6f7420656e6f75676820455448000000000000000000000000000000000000600082015250565b6000612269600e83611fc3565b915061227482612233565b602082019050919050565b600060208201905081810360008301526122988161225c565b9050919050565b600081905092915050565b50565b60006122ba60008361229f565b91506122c5826122aa565b600082019050919050565b60006122db826122ad565b9150819050919050565b7f455448207472616e73666572206661696c656400000000000000000000000000600082015250565b600061231b601383611fc3565b9150612326826122e5565b602082019050919050565b6000602082019050818103600083015261234a8161230e565b9050919050565b6000819050919050565b600061237661237161236c84611c6b565b612351565b611c6b565b9050919050565b60006123888261235b565b9050919050565b600061239a8261237d565b9050919050565b6123aa8161238f565b82525050565b60006040820190506123c56000830185611d4a565b6123d260208301846123a1565b9392505050565b7f4e6f7420656e6f75676820746f6b656e2062616c616e63650000000000000000600082015250565b600061240f601883611fc3565b915061241a826123d9565b602082019050919050565b6000602082019050818103600083015261243e81612402565b9050919050565b7f4e6f20657863657373205745544e20746f207265736375650000000000000000600082015250565b600061247b601883611fc3565b915061248682612445565b602082019050919050565b600060208201905081810360008301526124aa8161246e565b9050919050565b7f416d6f756e74206578636565647320657863657373205745544e000000000000600082015250565b60006124e7601a83611fc3565b91506124f2826124b1565b602082019050919050565b60006020820190508181036000830152612516816124da565b9050919050565b60006040820190506125326000830185611c9d565b61253f6020830184611d4a565b9392505050565b60008151905061255581611ce7565b92915050565b60006020828403121561257157612570611cd1565b5b600061257f84828501612546565b91505092915050565b7f546f6b656e207472616e73666572206661696c65640000000000000000000000600082015250565b60006125be601583611fc3565b91506125c982612588565b602082019050919050565b600060208201905081810360008301526125ed816125b1565b9050919050565b60006060820190506126096000830186611c9d565b6126166020830185611d4a565b6126236040830184611c9d565b949350505050565b7f436f72652077616c6c6574207472616e73666572206661696c65640000000000600082015250565b6000612661601b83611fc3565b915061266c8261262b565b602082019050919050565b6000602082019050818103600083015261269081612654565b9050919050565b7f5465616d2077616c6c6574207472616e73666572206661696c65640000000000600082015250565b60006126cd601b83611fc3565b91506126d882612697565b602082019050919050565b600060208201905081810360008301526126fc816126c0565b9050919050565b7f556e617574686f72697a65640000000000000000000000000000000000000000600082015250565b6000612739600c83611fc3565b915061274482612703565b602082019050919050565b600060208201905081810360008301526127688161272c565b9050919050565b7f4e6f20636f72652062616c616e636520746f206275726e000000000000000000600082015250565b60006127a5601783611fc3565b91506127b08261276f565b602082019050919050565b600060208201905081810360008301526127d481612798565b9050919050565b60008160601b9050919050565b60006127f3826127db565b9050919050565b6000612805826127e8565b9050919050565b61281d61281882611c8b565b6127fa565b82525050565b600062ffffff82169050919050565b60008160e81b9050919050565b600061284a82612832565b9050919050565b61286261285d82612823565b61283f565b82525050565b6000612874828661280c565b6014820191506128848285612851565b600382019150612894828461280c565b601482019150819050949350505050565b600081519050919050565b600082825260208201905092915050565b60005b838110156128df5780820151818401526020810190506128c4565b60008484015250505050565b6000601f19601f8301169050919050565b6000612907826128a5565b61291181856128b0565b93506129218185602086016128c1565b61292a816128eb565b840191505092915050565b61293e81611c8b565b82525050565b61294d81611d40565b82525050565b6000608083016000830151848203600086015261297082826128fc565b91505060208301516129856020860182612935565b5060408301516129986040860182612944565b5060608301516129ab6060860182612944565b508091505092915050565b600060208201905081810360008301526129d08184612953565b905092915050565b7f4e487b7100000000000000000000000000000000000000000000000000000000600052604160045260246000fd5b7f4e487b7100000000000000000000000000000000000000000000000000000000600052603260045260246000fd5b600081519050919050565b600082825260208201905092915050565b6000819050602082019050919050565b6000612a6e8383612935565b60208301905092915050565b6000602082019050919050565b6000612a9282612a36565b612a9c8185612a41565b9350612aa783612a52565b8060005b83811015612ad8578151612abf8882612a62565b9750612aca83612a7a565b925050600181019050612aab565b5085935050505092915050565b6000604082019050612afa6000830185611d4a565b8181036020830152612b0c8184612a87565b90509392505050565b600080fd5b612b23826128eb565b810181811067ffffffffffffffff82111715612b4257612b416129d8565b5b80604052505050565b6000612b55611cc7565b9050612b618282612b1a565b919050565b600067ffffffffffffffff821115612b8157612b806129d8565b5b602082029050602081019050919050565b600080fd5b6000612baa612ba584612b66565b612b4b565b90508083825260208201905060208402830185811115612bcd57612bcc612b92565b5b835b81811015612bf65780612be28882611f1e565b845260208401935050602081019050612bcf565b5050509392505050565b600082601f830112612c1557612c14612b15565b5b8151612c25848260208601612b97565b91505092915050565b600060208284031215612c4457612c43611cd1565b5b600082015167ffffffffffffffff811115612c6257612c61611cd6565b5b612c6e84828501612c00565b91505092915050565b600060a082019050612c8c6000830188611d4a565b612c996020830187611d4a565b8181036040830152612cab8186612a87565b9050612cba6060830185611c9d565b612cc76080830184611d4a565b969550505050505056fea26469706673582212200643ef3c7f264ca7e8ee76d489ee0840b75e8242ed0708eef4509c3527eb4cd864736f6c63430008140033",
					"opcodes": "PUSH2 0x180 PUSH1 0x40 MSTORE PUSH2 0xDEAD PUSH20 0xFFFFFFFFFFFFFFFFFFFFFFFFFFFFFFFFFFFFFFFF AND PUSH2 0x120 SWAP1 PUSH20 0xFFFFFFFFFFFFFFFFFFFFFFFFFFFFFFFFFFFFFFFF AND DUP2 MSTORE POP PUSH1 0x0 PUSH20 0xFFFFFFFFFFFFFFFFFFFFFFFFFFFFFFFFFFFFFFFF AND PUSH2 0x140 SWAP1 PUSH20 0xFFFFFFFFFFFFFFFFFFFFFFFFFFFFFFFFFFFFFFFF AND DUP2 MSTORE POP PUSH2 0xBB8 PUSH3 0xFFFFFF AND PUSH2 0x160 SWAP1 PUSH3 0xFFFFFF AND DUP2 MSTORE POP CALLVALUE DUP1 ISZERO PUSH3 0x91 JUMPI PUSH1 0x0 DUP1 REVERT JUMPDEST POP PUSH1 0x40 MLOAD PUSH3 0x335B CODESIZE SUB DUP1 PUSH3 0x335B DUP4 CODECOPY DUP2 DUP2 ADD PUSH1 0x40 MSTORE DUP2 ADD SWAP1 PUSH3 0xB7 SWAP2 SWAP1 PUSH3 0x487 JUMP JUMPDEST DUP3 PUSH1 0x1 PUSH1 0x0 DUP2 SWAP1 SSTORE POP PUSH1 0x0 PUSH20 0xFFFFFFFFFFFFFFFFFFFFFFFFFFFFFFFFFFFFFFFF AND DUP2 PUSH20 0xFFFFFFFFFFFFFFFFFFFFFFFFFFFFFFFFFFFFFFFF AND SUB PUSH3 0x135 JUMPI PUSH1 0x0 PUSH1 0x40 MLOAD PUSH32 0x1E4FBDF700000000000000000000000000000000000000000000000000000000 DUP2 MSTORE PUSH1 0x4 ADD PUSH3 0x12C SWAP2 SWAP1 PUSH3 0x561 JUMP JUMPDEST PUSH1 0x40 MLOAD DUP1 SWAP2 SUB SWAP1 REVERT JUMPDEST PUSH3 0x146 DUP2 PUSH3 0x312 PUSH1 0x20 SHL PUSH1 0x20 SHR JUMP JUMPDEST POP DUP8 PUSH1 0x2 PUSH1 0x0 PUSH2 0x100 EXP DUP2 SLOAD DUP2 PUSH20 0xFFFFFFFFFFFFFFFFFFFFFFFFFFFFFFFFFFFFFFFF MUL NOT AND SWAP1 DUP4 PUSH20 0xFFFFFFFFFFFFFFFFFFFFFFFFFFFFFFFFFFFFFFFF AND MUL OR SWAP1 SSTORE POP DUP7 PUSH1 0x3 PUSH1 0x0 PUSH2 0x100 EXP DUP2 SLOAD DUP2 PUSH20 0xFFFFFFFFFFFFFFFFFFFFFFFFFFFFFFFFFFFFFFFF MUL NOT AND SWAP1 DUP4 PUSH20 0xFFFFFFFFFFFFFFFFFFFFFFFFFFFFFFFFFFFFFFFF AND MUL OR SWAP1 SSTORE POP DUP6 PUSH20 0xFFFFFFFFFFFFFFFFFFFFFFFFFFFFFFFFFFFFFFFF AND PUSH1 0xC0 DUP2 PUSH20 0xFFFFFFFFFFFFFFFFFFFFFFFFFFFFFFFFFFFFFFFF AND DUP2 MSTORE POP POP DUP5 PUSH20 0xFFFFFFFFFFFFFFFFFFFFFFFFFFFFFFFFFFFFFFFF AND PUSH1 0xE0 DUP2 PUSH20 0xFFFFFFFFFFFFFFFFFFFFFFFFFFFFFFFFFFFFFFFF AND DUP2 MSTORE POP POP DUP4 PUSH20 0xFFFFFFFFFFFFFFFFFFFFFFFFFFFFFFFFFFFFFFFF AND PUSH2 0x100 DUP2 PUSH20 0xFFFFFFFFFFFFFFFFFFFFFFFFFFFFFFFFFFFFFFFF AND DUP2 MSTORE POP POP DUP2 PUSH20 0xFFFFFFFFFFFFFFFFFFFFFFFFFFFFFFFFFFFFFFFF AND PUSH1 0x80 DUP2 PUSH20 0xFFFFFFFFFFFFFFFFFFFFFFFFFFFFFFFFFFFFFFFF AND DUP2 MSTORE POP POP DUP1 PUSH20 0xFFFFFFFFFFFFFFFFFFFFFFFFFFFFFFFFFFFFFFFF AND PUSH1 0xA0 DUP2 PUSH20 0xFFFFFFFFFFFFFFFFFFFFFFFFFFFFFFFFFFFFFFFF AND DUP2 MSTORE POP POP PUSH1 0x1 PUSH1 0x7 PUSH1 0x0 PUSH2 0x100 EXP DUP2 SLOAD DUP2 PUSH1 0xFF MUL NOT AND SWAP1 DUP4 ISZERO ISZERO MUL OR SWAP1 SSTORE POP PUSH1 0x1 PUSH1 0x7 PUSH1 0x1 PUSH2 0x100 EXP DUP2 SLOAD DUP2 PUSH1 0xFF MUL NOT AND SWAP1 DUP4 ISZERO ISZERO MUL OR SWAP1 SSTORE POP POP POP POP POP POP POP POP POP PUSH3 0x57E JUMP JUMPDEST PUSH1 0x0 PUSH1 0x1 PUSH1 0x0 SWAP1 SLOAD SWAP1 PUSH2 0x100 EXP SWAP1 DIV PUSH20 0xFFFFFFFFFFFFFFFFFFFFFFFFFFFFFFFFFFFFFFFF AND SWAP1 POP DUP2 PUSH1 0x1 PUSH1 0x0 PUSH2 0x100 EXP DUP2 SLOAD DUP2 PUSH20 0xFFFFFFFFFFFFFFFFFFFFFFFFFFFFFFFFFFFFFFFF MUL NOT AND SWAP1 DUP4 PUSH20 0xFFFFFFFFFFFFFFFFFFFFFFFFFFFFFFFFFFFFFFFF AND MUL OR SWAP1 SSTORE POP DUP2 PUSH20 0xFFFFFFFFFFFFFFFFFFFFFFFFFFFFFFFFFFFFFFFF AND DUP2 PUSH20 0xFFFFFFFFFFFFFFFFFFFFFFFFFFFFFFFFFFFFFFFF AND PUSH32 0x8BE0079C531659141344CD1FD0A4F28419497F9722A3DAAFE3B4186F6B6457E0 PUSH1 0x40 MLOAD PUSH1 0x40 MLOAD DUP1 SWAP2 SUB SWAP1 LOG3 POP POP JUMP JUMPDEST PUSH1 0x0 DUP1 REVERT JUMPDEST PUSH1 0x0 PUSH20 0xFFFFFFFFFFFFFFFFFFFFFFFFFFFFFFFFFFFFFFFF DUP3 AND SWAP1 POP SWAP2 SWAP1 POP JUMP JUMPDEST PUSH1 0x0 PUSH3 0x40A DUP3 PUSH3 0x3DD JUMP JUMPDEST SWAP1 POP SWAP2 SWAP1 POP JUMP JUMPDEST PUSH3 0x41C DUP2 PUSH3 0x3FD JUMP JUMPDEST DUP2 EQ PUSH3 0x428 JUMPI PUSH1 0x0 DUP1 REVERT JUMPDEST POP JUMP JUMPDEST PUSH1 0x0 DUP2 MLOAD SWAP1 POP PUSH3 0x43C DUP2 PUSH3 0x411 JUMP JUMPDEST SWAP3 SWAP2 POP POP JUMP JUMPDEST PUSH1 0x0 PUSH3 0x44F DUP3 PUSH3 0x3DD JUMP JUMPDEST SWAP1 POP SWAP2 SWAP1 POP JUMP JUMPDEST PUSH3 0x461 DUP2 PUSH3 0x442 JUMP JUMPDEST DUP2 EQ PUSH3 0x46D JUMPI PUSH1 0x0 DUP1 REVERT JUMPDEST POP JUMP JUMPDEST PUSH1 0x0 DUP2 MLOAD SWAP1 POP PUSH3 0x481 DUP2 PUSH3 0x456 JUMP JUMPDEST SWAP3 SWAP2 POP POP JUMP JUMPDEST PUSH1 0x0 DUP1 PUSH1 0x0 DUP1 PUSH1 0x0 DUP1 PUSH1 0x0 DUP1 PUSH2 0x100 DUP10 DUP12 SUB SLT ISZERO PUSH3 0x4AB JUMPI PUSH3 0x4AA PUSH3 0x3D8 JUMP JUMPDEST JUMPDEST PUSH1 0x0 PUSH3 0x4BB DUP12 DUP3 DUP13 ADD PUSH3 0x42B JUMP JUMPDEST SWAP9 POP POP PUSH1 0x20 PUSH3 0x4CE DUP12 DUP3 DUP13 ADD PUSH3 0x42B JUMP JUMPDEST SWAP8 POP POP PUSH1 0x40 PUSH3 0x4E1 DUP12 DUP3 DUP13 ADD PUSH3 0x42B JUMP JUMPDEST SWAP7 POP POP PUSH1 0x60 PUSH3 0x4F4 DUP12 DUP3 DUP13 ADD PUSH3 0x42B JUMP JUMPDEST SWAP6 POP POP PUSH1 0x80 PUSH3 0x507 DUP12 DUP3 DUP13 ADD PUSH3 0x42B JUMP JUMPDEST SWAP5 POP POP PUSH1 0xA0 PUSH3 0x51A DUP12 DUP3 DUP13 ADD PUSH3 0x42B JUMP JUMPDEST SWAP4 POP POP PUSH1 0xC0 PUSH3 0x52D DUP12 DUP3 DUP13 ADD PUSH3 0x470 JUMP JUMPDEST SWAP3 POP POP PUSH1 0xE0 PUSH3 0x540 DUP12 DUP3 DUP13 ADD PUSH3 0x470 JUMP JUMPDEST SWAP2 POP POP SWAP3 SWAP6 SWAP9 POP SWAP3 SWAP6 SWAP9 SWAP1 SWAP4 SWAP7 POP JUMP JUMPDEST PUSH3 0x55B DUP2 PUSH3 0x3FD JUMP JUMPDEST DUP3 MSTORE POP POP JUMP JUMPDEST PUSH1 0x0 PUSH1 0x20 DUP3 ADD SWAP1 POP PUSH3 0x578 PUSH1 0x0 DUP4 ADD DUP5 PUSH3 0x550 JUMP JUMPDEST SWAP3 SWAP2 POP POP JUMP JUMPDEST PUSH1 0x80 MLOAD PUSH1 0xA0 MLOAD PUSH1 0xC0 MLOAD PUSH1 0xE0 MLOAD PUSH2 0x100 MLOAD PUSH2 0x120 MLOAD PUSH2 0x140 MLOAD PUSH2 0x160 MLOAD PUSH2 0x2D07 PUSH3 0x654 PUSH1 0x0 CODECOPY PUSH1 0x0 PUSH2 0x14E9 ADD MSTORE PUSH1 0x0 DUP2 DUP2 PUSH2 0x13C9 ADD MSTORE PUSH2 0x19B1 ADD MSTORE PUSH1 0x0 DUP2 DUP2 PUSH2 0x8C4 ADD MSTORE PUSH2 0x1551 ADD MSTORE PUSH1 0x0 DUP2 DUP2 PUSH2 0x14B ADD MSTORE DUP2 DUP2 PUSH2 0x1AA ADD MSTORE DUP2 DUP2 PUSH2 0x581 ADD MSTORE DUP2 DUP2 PUSH2 0x605 ADD MSTORE DUP2 DUP2 PUSH2 0x9AC ADD MSTORE DUP2 DUP2 PUSH2 0xD61 ADD MSTORE DUP2 DUP2 PUSH2 0xFBE ADD MSTORE DUP2 DUP2 PUSH2 0x13F8 ADD MSTORE DUP2 DUP2 PUSH2 0x14C8 ADD MSTORE DUP2 DUP2 PUSH2 0x16E5 ADD MSTORE PUSH2 0x18A9 ADD MSTORE PUSH1 0x0 DUP2 DUP2 PUSH2 0x841 ADD MSTORE PUSH2 0x1754 ADD MSTORE PUSH1 0x0 DUP2 DUP2 PUSH2 0x865 ADD MSTORE PUSH2 0x150A ADD MSTORE PUSH1 0x0 DUP2 DUP2 PUSH2 0x964 ADD MSTORE PUSH2 0x113A ADD MSTORE PUSH1 0x0 DUP2 DUP2 PUSH2 0x988 ADD MSTORE PUSH2 0x1057 ADD MSTORE PUSH2 0x2D07 PUSH1 0x0 RETURN INVALID PUSH1 0x80 PUSH1 0x40 MSTORE PUSH1 0x4 CALLDATASIZE LT PUSH2 0x144 JUMPI PUSH1 0x0 CALLDATALOAD PUSH1 0xE0 SHR DUP1 PUSH4 0x7499AFF4 GT PUSH2 0xB6 JUMPI DUP1 PUSH4 0xBA779ED5 GT PUSH2 0x6F JUMPI DUP1 PUSH4 0xBA779ED5 EQ PUSH2 0x4B2 JUMPI DUP1 PUSH4 0xCFBB7D36 EQ PUSH2 0x4DD JUMPI DUP1 PUSH4 0xDC05A309 EQ PUSH2 0x4F4 JUMPI DUP1 PUSH4 0xDC1A4D9E EQ PUSH2 0x50B JUMPI DUP1 PUSH4 0xF2FDE38B EQ PUSH2 0x522 JUMPI DUP1 PUSH4 0xFCCC2813 EQ PUSH2 0x54B JUMPI PUSH2 0x1A8 JUMP JUMPDEST DUP1 PUSH4 0x7499AFF4 EQ PUSH2 0x3B4 JUMPI DUP1 PUSH4 0x7581AA60 EQ PUSH2 0x3DF JUMPI DUP1 PUSH4 0x89E85217 EQ PUSH2 0x40A JUMPI DUP1 PUSH4 0x8DA5CB5B EQ PUSH2 0x435 JUMPI DUP1 PUSH4 0xA0558C3F EQ PUSH2 0x460 JUMPI DUP1 PUSH4 0xB37FD190 EQ PUSH2 0x489 JUMPI PUSH2 0x1A8 JUMP JUMPDEST DUP1 PUSH4 0x57D1FDCD GT PUSH2 0x108 JUMPI DUP1 PUSH4 0x57D1FDCD EQ PUSH2 0x2DC JUMPI DUP1 PUSH4 0x59927044 EQ PUSH2 0x2F3 JUMPI DUP1 PUSH4 0x62AB05E7 EQ PUSH2 0x31E JUMPI DUP1 PUSH4 0x66650B7B EQ PUSH2 0x349 JUMPI DUP1 PUSH4 0x6CDF0E40 EQ PUSH2 0x374 JUMPI DUP1 PUSH4 0x715018A6 EQ PUSH2 0x39D JUMPI PUSH2 0x1A8 JUMP JUMPDEST DUP1 PUSH4 0xC2B72E9 EQ PUSH2 0x207 JUMPI DUP1 PUSH4 0xEFD0973 EQ PUSH2 0x232 JUMPI DUP1 PUSH4 0x2B7459B9 EQ PUSH2 0x25D JUMPI DUP1 PUSH4 0x3D65DE44 EQ PUSH2 0x286 JUMPI DUP1 PUSH4 0x4E6FD6C4 EQ PUSH2 0x2B1 JUMPI PUSH2 0x1A8 JUMP JUMPDEST CALLDATASIZE PUSH2 0x1A8 JUMPI PUSH32 0x0 PUSH20 0xFFFFFFFFFFFFFFFFFFFFFFFFFFFFFFFFFFFFFFFF AND CALLER PUSH20 0xFFFFFFFFFFFFFFFFFFFFFFFFFFFFFFFFFFFFFFFF AND EQ PUSH2 0x1A6 JUMPI PUSH2 0x1A5 CALLVALUE PUSH2 0x576 JUMP JUMPDEST JUMPDEST STOP JUMPDEST PUSH32 0x0 PUSH20 0xFFFFFFFFFFFFFFFFFFFFFFFFFFFFFFFFFFFFFFFF AND CALLER PUSH20 0xFFFFFFFFFFFFFFFFFFFFFFFFFFFFFFFFFFFFFFFF AND EQ PUSH2 0x205 JUMPI PUSH2 0x204 CALLVALUE PUSH2 0x576 JUMP JUMPDEST JUMPDEST STOP JUMPDEST CALLVALUE DUP1 ISZERO PUSH2 0x213 JUMPI PUSH1 0x0 DUP1 REVERT JUMPDEST POP PUSH2 0x21C PUSH2 0x83F JUMP JUMPDEST PUSH1 0x40 MLOAD PUSH2 0x229 SWAP2 SWAP1 PUSH2 0x1CAC JUMP JUMPDEST PUSH1 0x40 MLOAD DUP1 SWAP2 SUB SWAP1 RETURN JUMPDEST CALLVALUE DUP1 ISZERO PUSH2 0x23E JUMPI PUSH1 0x0 DUP1 REVERT JUMPDEST POP PUSH2 0x247 PUSH2 0x863 JUMP JUMPDEST PUSH1 0x40 MLOAD PUSH2 0x254 SWAP2 SWAP1 PUSH2 0x1CAC JUMP JUMPDEST PUSH1 0x40 MLOAD DUP1 SWAP2 SUB SWAP1 RETURN JUMPDEST CALLVALUE DUP1 ISZERO PUSH2 0x269 JUMPI PUSH1 0x0 DUP1 REVERT JUMPDEST POP PUSH2 0x284 PUSH1 0x4 DUP1 CALLDATASIZE SUB DUP2 ADD SWAP1 PUSH2 0x27F SWAP2 SWAP1 PUSH2 0x1D13 JUMP JUMPDEST PUSH2 0x887 JUMP JUMPDEST STOP JUMPDEST CALLVALUE DUP1 ISZERO PUSH2 0x292 JUMPI PUSH1 0x0 DUP1 REVERT JUMPDEST POP PUSH2 0x29B PUSH2 0x8BC JUMP JUMPDEST PUSH1 0x40 MLOAD PUSH2 0x2A8 SWAP2 SWAP1 PUSH2 0x1D59 JUMP JUMPDEST PUSH1 0x40 MLOAD DUP1 SWAP2 SUB SWAP1 RETURN JUMPDEST CALLVALUE DUP1 ISZERO PUSH2 0x2BD JUMPI PUSH1 0x0 DUP1 REVERT JUMPDEST POP PUSH2 0x2C6 PUSH2 0x8C2 JUMP JUMPDEST PUSH1 0x40 MLOAD PUSH2 0x2D3 SWAP2 SWAP1 PUSH2 0x1CAC JUMP JUMPDEST PUSH1 0x40 MLOAD DUP1 SWAP2 SUB SWAP1 RETURN JUMPDEST CALLVALUE DUP1 ISZERO PUSH2 0x2E8 JUMPI PUSH1 0x0 DUP1 REVERT JUMPDEST POP PUSH2 0x2F1 PUSH2 0x8E6 JUMP JUMPDEST STOP JUMPDEST CALLVALUE DUP1 ISZERO PUSH2 0x2FF JUMPI PUSH1 0x0 DUP1 REVERT JUMPDEST POP PUSH2 0x308 PUSH2 0x962 JUMP JUMPDEST PUSH1 0x40 MLOAD PUSH2 0x315 SWAP2 SWAP1 PUSH2 0x1D95 JUMP JUMPDEST PUSH1 0x40 MLOAD DUP1 SWAP2 SUB SWAP1 RETURN JUMPDEST CALLVALUE DUP1 ISZERO PUSH2 0x32A JUMPI PUSH1 0x0 DUP1 REVERT JUMPDEST POP PUSH2 0x333 PUSH2 0x986 JUMP JUMPDEST PUSH1 0x40 MLOAD PUSH2 0x340 SWAP2 SWAP1 PUSH2 0x1D95 JUMP JUMPDEST PUSH1 0x40 MLOAD DUP1 SWAP2 SUB SWAP1 RETURN JUMPDEST CALLVALUE DUP1 ISZERO PUSH2 0x355 JUMPI PUSH1 0x0 DUP1 REVERT JUMPDEST POP PUSH2 0x35E PUSH2 0x9AA JUMP JUMPDEST PUSH1 0x40 MLOAD PUSH2 0x36B SWAP2 SWAP1 PUSH2 0x1CAC JUMP JUMPDEST PUSH1 0x40 MLOAD DUP1 SWAP2 SUB SWAP1 RETURN JUMPDEST CALLVALUE DUP1 ISZERO PUSH2 0x380 JUMPI PUSH1 0x0 DUP1 REVERT JUMPDEST POP PUSH2 0x39B PUSH1 0x4 DUP1 CALLDATASIZE SUB DUP2 ADD SWAP1 PUSH2 0x396 SWAP2 SWAP1 PUSH2 0x1D13 JUMP JUMPDEST PUSH2 0x9CE JUMP JUMPDEST STOP JUMPDEST CALLVALUE DUP1 ISZERO PUSH2 0x3A9 JUMPI PUSH1 0x0 DUP1 REVERT JUMPDEST POP PUSH2 0x3B2 PUSH2 0xA03 JUMP JUMPDEST STOP JUMPDEST CALLVALUE DUP1 ISZERO PUSH2 0x3C0 JUMPI PUSH1 0x0 DUP1 REVERT JUMPDEST POP PUSH2 0x3C9 PUSH2 0xA17 JUMP JUMPDEST PUSH1 0x40 MLOAD PUSH2 0x3D6 SWAP2 SWAP1 PUSH2 0x1D59 JUMP JUMPDEST PUSH1 0x40 MLOAD DUP1 SWAP2 SUB SWAP1 RETURN JUMPDEST CALLVALUE DUP1 ISZERO PUSH2 0x3EB JUMPI PUSH1 0x0 DUP1 REVERT JUMPDEST POP PUSH2 0x3F4 PUSH2 0xA1D JUMP JUMPDEST PUSH1 0x40 MLOAD PUSH2 0x401 SWAP2 SWAP1 PUSH2 0x1DBF JUMP JUMPDEST PUSH1 0x40 MLOAD DUP1 SWAP2 SUB SWAP1 RETURN JUMPDEST CALLVALUE DUP1 ISZERO PUSH2 0x416 JUMPI PUSH1 0x0 DUP1 REVERT JUMPDEST POP PUSH2 0x41F PUSH2 0xA30 JUMP JUMPDEST PUSH1 0x40 MLOAD PUSH2 0x42C SWAP2 SWAP1 PUSH2 0x1D59 JUMP JUMPDEST PUSH1 0x40 MLOAD DUP1 SWAP2 SUB SWAP1 RETURN JUMPDEST CALLVALUE DUP1 ISZERO PUSH2 0x441 JUMPI PUSH1 0x0 DUP1 REVERT JUMPDEST POP PUSH2 0x44A PUSH2 0xA36 JUMP JUMPDEST PUSH1 0x40 MLOAD PUSH2 0x457 SWAP2 SWAP1 PUSH2 0x1CAC JUMP JUMPDEST PUSH1 0x40 MLOAD DUP1 SWAP2 SUB SWAP1 RETURN JUMPDEST CALLVALUE DUP1 ISZERO PUSH2 0x46C JUMPI PUSH1 0x0 DUP1 REVERT JUMPDEST POP PUSH2 0x487 PUSH1 0x4 DUP1 CALLDATASIZE SUB DUP2 ADD SWAP1 PUSH2 0x482 SWAP2 SWAP1 PUSH2 0x1E32 JUMP JUMPDEST PUSH2 0xA60 JUMP JUMPDEST STOP JUMPDEST CALLVALUE DUP1 ISZERO PUSH2 0x495 JUMPI PUSH1 0x0 DUP1 REVERT JUMPDEST POP PUSH2 0x4B0 PUSH1 0x4 DUP1 CALLDATASIZE SUB DUP2 ADD SWAP1 PUSH2 0x4AB SWAP2 SWAP1 PUSH2 0x1E9E JUMP JUMPDEST PUSH2 0xC1A JUMP JUMPDEST STOP JUMPDEST CALLVALUE DUP1 ISZERO PUSH2 0x4BE JUMPI PUSH1 0x0 DUP1 REVERT JUMPDEST POP PUSH2 0x4C7 PUSH2 0xF72 JUMP JUMPDEST PUSH1 0x40 MLOAD PUSH2 0x4D4 SWAP2 SWAP1 PUSH2 0x1DBF JUMP JUMPDEST PUSH1 0x40 MLOAD DUP1 SWAP2 SUB SWAP1 RETURN JUMPDEST CALLVALUE DUP1 ISZERO PUSH2 0x4E9 JUMPI PUSH1 0x0 DUP1 REVERT JUMPDEST POP PUSH2 0x4F2 PUSH2 0xF85 JUMP JUMPDEST STOP JUMPDEST CALLVALUE DUP1 ISZERO PUSH2 0x500 JUMPI PUSH1 0x0 DUP1 REVERT JUMPDEST POP PUSH2 0x509 PUSH2 0x1219 JUMP JUMPDEST STOP JUMPDEST CALLVALUE DUP1 ISZERO PUSH2 0x517 JUMPI PUSH1 0x0 DUP1 REVERT JUMPDEST POP PUSH2 0x520 PUSH2 0x12DA JUMP JUMPDEST STOP JUMPDEST CALLVALUE DUP1 ISZERO PUSH2 0x52E JUMPI PUSH1 0x0 DUP1 REVERT JUMPDEST POP PUSH2 0x549 PUSH1 0x4 DUP1 CALLDATASIZE SUB DUP2 ADD SWAP1 PUSH2 0x544 SWAP2 SWAP1 PUSH2 0x1EF1 JUMP JUMPDEST PUSH2 0x1341 JUMP JUMPDEST STOP JUMPDEST CALLVALUE DUP1 ISZERO PUSH2 0x557 JUMPI PUSH1 0x0 DUP1 REVERT JUMPDEST POP PUSH2 0x560 PUSH2 0x13C7 JUMP JUMPDEST PUSH1 0x40 MLOAD PUSH2 0x56D SWAP2 SWAP1 PUSH2 0x1CAC JUMP JUMPDEST PUSH1 0x40 MLOAD DUP1 SWAP2 SUB SWAP1 RETURN JUMPDEST PUSH1 0x0 DUP2 GT ISZERO PUSH2 0x601 JUMPI PUSH32 0x0 PUSH20 0xFFFFFFFFFFFFFFFFFFFFFFFFFFFFFFFFFFFFFFFF AND PUSH4 0xD0E30DB0 DUP3 PUSH1 0x40 MLOAD DUP3 PUSH4 0xFFFFFFFF AND PUSH1 0xE0 SHL DUP2 MSTORE PUSH1 0x4 ADD PUSH1 0x0 PUSH1 0x40 MLOAD DUP1 DUP4 SUB DUP2 DUP6 DUP9 DUP1 EXTCODESIZE ISZERO DUP1 ISZERO PUSH2 0x5E7 JUMPI PUSH1 0x0 DUP1 REVERT JUMPDEST POP GAS CALL ISZERO DUP1 ISZERO PUSH2 0x5FB JUMPI RETURNDATASIZE PUSH1 0x0 DUP1 RETURNDATACOPY RETURNDATASIZE PUSH1 0x0 REVERT JUMPDEST POP POP POP POP POP JUMPDEST PUSH1 0x0 PUSH32 0x0 PUSH20 0xFFFFFFFFFFFFFFFFFFFFFFFFFFFFFFFFFFFFFFFF AND PUSH4 0x70A08231 ADDRESS PUSH1 0x40 MLOAD DUP3 PUSH4 0xFFFFFFFF AND PUSH1 0xE0 SHL DUP2 MSTORE PUSH1 0x4 ADD PUSH2 0x65C SWAP2 SWAP1 PUSH2 0x1CAC JUMP JUMPDEST PUSH1 0x20 PUSH1 0x40 MLOAD DUP1 DUP4 SUB DUP2 DUP7 GAS STATICCALL ISZERO DUP1 ISZERO PUSH2 0x679 JUMPI RETURNDATASIZE PUSH1 0x0 DUP1 RETURNDATACOPY RETURNDATASIZE PUSH1 0x0 REVERT JUMPDEST POP POP POP POP PUSH1 0x40 MLOAD RETURNDATASIZE PUSH1 0x1F NOT PUSH1 0x1F DUP3 ADD AND DUP3 ADD DUP1 PUSH1 0x40 MSTORE POP DUP2 ADD SWAP1 PUSH2 0x69D SWAP2 SWAP1 PUSH2 0x1F33 JUMP JUMPDEST SWAP1 POP PUSH1 0x0 PUSH1 0x4 SLOAD PUSH1 0x6 SLOAD PUSH1 0x5 SLOAD PUSH2 0x6B4 SWAP2 SWAP1 PUSH2 0x1F8F JUMP JUMPDEST PUSH2 0x6BE SWAP2 SWAP1 PUSH2 0x1F8F JUMP JUMPDEST SWAP1 POP DUP1 DUP3 LT ISZERO PUSH2 0x703 JUMPI PUSH1 0x40 MLOAD PUSH32 0x8C379A000000000000000000000000000000000000000000000000000000000 DUP2 MSTORE PUSH1 0x4 ADD PUSH2 0x6FA SWAP1 PUSH2 0x2020 JUMP JUMPDEST PUSH1 0x40 MLOAD DUP1 SWAP2 SUB SWAP1 REVERT JUMPDEST PUSH1 0x0 DUP2 DUP4 PUSH2 0x711 SWAP2 SWAP1 PUSH2 0x2040 JUMP JUMPDEST SWAP1 POP PUSH1 0x0 DUP2 GT ISZERO PUSH2 0x839 JUMPI PUSH1 0x0 PUSH1 0x64 PUSH1 0x3C DUP4 PUSH2 0x72D SWAP2 SWAP1 PUSH2 0x2074 JUMP JUMPDEST PUSH2 0x737 SWAP2 SWAP1 PUSH2 0x20E5 JUMP JUMPDEST SWAP1 POP PUSH1 0x0 PUSH1 0x64 PUSH1 0xA DUP5 PUSH2 0x74A SWAP2 SWAP1 PUSH2 0x2074 JUMP JUMPDEST PUSH2 0x754 SWAP2 SWAP1 PUSH2 0x20E5 JUMP JUMPDEST SWAP1 POP PUSH1 0x0 DUP2 DUP4 DUP6 PUSH2 0x765 SWAP2 SWAP1 PUSH2 0x2040 JUMP JUMPDEST PUSH2 0x76F SWAP2 SWAP1 PUSH2 0x2040 JUMP JUMPDEST SWAP1 POP DUP3 PUSH1 0x5 PUSH1 0x0 DUP3 DUP3 SLOAD PUSH2 0x783 SWAP2 SWAP1 PUSH2 0x1F8F JUMP JUMPDEST SWAP3 POP POP DUP2 SWAP1 SSTORE POP DUP1 PUSH1 0x6 PUSH1 0x0 DUP3 DUP3 SLOAD PUSH2 0x79C SWAP2 SWAP1 PUSH2 0x1F8F JUMP JUMPDEST SWAP3 POP POP DUP2 SWAP1 SSTORE POP DUP2 PUSH1 0x4 PUSH1 0x0 DUP3 DUP3 SLOAD PUSH2 0x7B5 SWAP2 SWAP1 PUSH2 0x1F8F JUMP JUMPDEST SWAP3 POP POP DUP2 SWAP1 SSTORE POP PUSH32 0x4816DB49BFC91A0172699BAEDF430E5D308B8034F966FB25681B27C17BCD3A47 DUP5 DUP5 DUP4 DUP6 PUSH1 0x40 MLOAD PUSH2 0x7F1 SWAP5 SWAP4 SWAP3 SWAP2 SWAP1 PUSH2 0x2116 JUMP JUMPDEST PUSH1 0x40 MLOAD DUP1 SWAP2 SUB SWAP1 LOG1 PUSH1 0x7 PUSH1 0x0 SWAP1 SLOAD SWAP1 PUSH2 0x100 EXP SWAP1 DIV PUSH1 0xFF AND ISZERO PUSH2 0x817 JUMPI PUSH2 0x816 PUSH2 0x13EB JUMP JUMPDEST JUMPDEST PUSH1 0x7 PUSH1 0x1 SWAP1 SLOAD SWAP1 PUSH2 0x100 EXP SWAP1 DIV PUSH1 0xFF AND ISZERO PUSH2 0x835 JUMPI PUSH2 0x834 PUSH2 0x168A JUMP JUMPDEST JUMPDEST POP POP POP JUMPDEST POP POP POP POP JUMP JUMPDEST PUSH32 0x0 DUP2 JUMP JUMPDEST PUSH32 0x0 DUP2 JUMP JUMPDEST PUSH2 0x88F PUSH2 0x1AC6 JUMP JUMPDEST PUSH2 0x897 PUSH2 0x1B4D JUMP JUMPDEST DUP1 PUSH1 0x7 PUSH1 0x0 PUSH2 0x100 EXP DUP2 SLOAD DUP2 PUSH1 0xFF MUL NOT AND SWAP1 DUP4 ISZERO ISZERO MUL OR SWAP1 SSTORE POP PUSH2 0x8B9 PUSH2 0x1B93 JUMP JUMPDEST POP JUMP JUMPDEST PUSH1 0x4 SLOAD DUP2 JUMP JUMPDEST PUSH32 0x0 DUP2 JUMP JUMPDEST PUSH2 0x8EE PUSH2 0x1AC6 JUMP JUMPDEST PUSH2 0x8F6 PUSH2 0x1B4D JUMP JUMPDEST PUSH1 0x0 PUSH1 0x4 SLOAD GT DUP1 PUSH2 0x909 JUMPI POP PUSH1 0x0 PUSH1 0x5 SLOAD GT JUMPDEST PUSH2 0x948 JUMPI PUSH1 0x40 MLOAD PUSH32 0x8C379A000000000000000000000000000000000000000000000000000000000 DUP2 MSTORE PUSH1 0x4 ADD PUSH2 0x93F SWAP1 PUSH2 0x21A7 JUMP JUMPDEST PUSH1 0x40 MLOAD DUP1 SWAP2 SUB SWAP1 REVERT JUMPDEST PUSH2 0x950 PUSH2 0x13EB JUMP JUMPDEST PUSH2 0x958 PUSH2 0x168A JUMP JUMPDEST PUSH2 0x960 PUSH2 0x1B93 JUMP JUMPDEST JUMP JUMPDEST PUSH32 0x0 DUP2 JUMP JUMPDEST PUSH32 0x0 DUP2 JUMP JUMPDEST PUSH32 0x0 DUP2 JUMP JUMPDEST PUSH2 0x9D6 PUSH2 0x1AC6 JUMP JUMPDEST PUSH2 0x9DE PUSH2 0x1B4D JUMP JUMPDEST DUP1 PUSH1 0x7 PUSH1 0x1 PUSH2 0x100 EXP DUP2 SLOAD DUP2 PUSH1 0xFF MUL NOT AND SWAP1 DUP4 ISZERO ISZERO MUL OR SWAP1 SSTORE POP PUSH2 0xA00 PUSH2 0x1B93 JUMP JUMPDEST POP JUMP JUMPDEST PUSH2 0xA0B PUSH2 0x1AC6 JUMP JUMPDEST PUSH2 0xA15 PUSH1 0x0 PUSH2 0x1B9D JUMP JUMPDEST JUMP JUMPDEST PUSH1 0x5 SLOAD DUP2 JUMP JUMPDEST PUSH1 0x7 PUSH1 0x1 SWAP1 SLOAD SWAP1 PUSH2 0x100 EXP SWAP1 DIV PUSH1 0xFF AND DUP2 JUMP JUMPDEST PUSH1 0x6 SLOAD DUP2 JUMP JUMPDEST PUSH1 0x0 PUSH1 0x1 PUSH1 0x0 SWAP1 SLOAD SWAP1 PUSH2 0x100 EXP SWAP1 DIV PUSH20 0xFFFFFFFFFFFFFFFFFFFFFFFFFFFFFFFFFFFFFFFF AND SWAP1 POP SWAP1 JUMP JUMPDEST PUSH2 0xA68 PUSH2 0x1AC6 JUMP JUMPDEST PUSH2 0xA70 PUSH2 0x1B4D JUMP JUMPDEST PUSH1 0x0 PUSH20 0xFFFFFFFFFFFFFFFFFFFFFFFFFFFFFFFFFFFFFFFF AND DUP2 PUSH20 0xFFFFFFFFFFFFFFFFFFFFFFFFFFFFFFFFFFFFFFFF AND SUB PUSH2 0xADF JUMPI PUSH1 0x40 MLOAD PUSH32 0x8C379A000000000000000000000000000000000000000000000000000000000 DUP2 MSTORE PUSH1 0x4 ADD PUSH2 0xAD6 SWAP1 PUSH2 0x2213 JUMP JUMPDEST PUSH1 0x40 MLOAD DUP1 SWAP2 SUB SWAP1 REVERT JUMPDEST PUSH1 0x0 SELFBALANCE SWAP1 POP DUP1 DUP4 GT ISZERO PUSH2 0xB27 JUMPI PUSH1 0x40 MLOAD PUSH32 0x8C379A000000000000000000000000000000000000000000000000000000000 DUP2 MSTORE PUSH1 0x4 ADD PUSH2 0xB1E SWAP1 PUSH2 0x227F JUMP JUMPDEST PUSH1 0x40 MLOAD DUP1 SWAP2 SUB SWAP1 REVERT JUMPDEST PUSH1 0x0 DUP3 PUSH20 0xFFFFFFFFFFFFFFFFFFFFFFFFFFFFFFFFFFFFFFFF AND DUP5 PUSH1 0x40 MLOAD PUSH2 0xB4D SWAP1 PUSH2 0x22D0 JUMP JUMPDEST PUSH1 0x0 PUSH1 0x40 MLOAD DUP1 DUP4 SUB DUP2 DUP6 DUP8 GAS CALL SWAP3 POP POP POP RETURNDATASIZE DUP1 PUSH1 0x0 DUP2 EQ PUSH2 0xB8A JUMPI PUSH1 0x40 MLOAD SWAP2 POP PUSH1 0x1F NOT PUSH1 0x3F RETURNDATASIZE ADD AND DUP3 ADD PUSH1 0x40 MSTORE RETURNDATASIZE DUP3 MSTORE RETURNDATASIZE PUSH1 0x0 PUSH1 0x20 DUP5 ADD RETURNDATACOPY PUSH2 0xB8F JUMP JUMPDEST PUSH1 0x60 SWAP2 POP JUMPDEST POP POP SWAP1 POP DUP1 PUSH2 0xBD3 JUMPI PUSH1 0x40 MLOAD PUSH32 0x8C379A000000000000000000000000000000000000000000000000000000000 DUP2 MSTORE PUSH1 0x4 ADD PUSH2 0xBCA SWAP1 PUSH2 0x2331 JUMP JUMPDEST PUSH1 0x40 MLOAD DUP1 SWAP2 SUB SWAP1 REVERT JUMPDEST PUSH32 0xCD7FEF3A642DCF99CE1004B2A15D31E91398F01974500B64EAB8FC50FEF2D3B1 DUP5 DUP5 PUSH1 0x40 MLOAD PUSH2 0xC04 SWAP3 SWAP2 SWAP1 PUSH2 0x23B0 JUMP JUMPDEST PUSH1 0x40 MLOAD DUP1 SWAP2 SUB SWAP1 LOG1 POP POP PUSH2 0xC16 PUSH2 0x1B93 JUMP JUMPDEST POP POP JUMP JUMPDEST PUSH2 0xC22 PUSH2 0x1AC6 JUMP JUMPDEST PUSH2 0xC2A PUSH2 0x1B4D JUMP JUMPDEST PUSH1 0x0 PUSH20 0xFFFFFFFFFFFFFFFFFFFFFFFFFFFFFFFFFFFFFFFF AND DUP2 PUSH20 0xFFFFFFFFFFFFFFFFFFFFFFFFFFFFFFFFFFFFFFFF AND SUB PUSH2 0xC99 JUMPI PUSH1 0x40 MLOAD PUSH32 0x8C379A000000000000000000000000000000000000000000000000000000000 DUP2 MSTORE PUSH1 0x4 ADD PUSH2 0xC90 SWAP1 PUSH2 0x2213 JUMP JUMPDEST PUSH1 0x40 MLOAD DUP1 SWAP2 SUB SWAP1 REVERT JUMPDEST PUSH1 0x0 DUP4 SWAP1 POP PUSH1 0x0 DUP2 PUSH20 0xFFFFFFFFFFFFFFFFFFFFFFFFFFFFFFFFFFFFFFFF AND PUSH4 0x70A08231 ADDRESS PUSH1 0x40 MLOAD DUP3 PUSH4 0xFFFFFFFF AND PUSH1 0xE0 SHL DUP2 MSTORE PUSH1 0x4 ADD PUSH2 0xCD9 SWAP2 SWAP1 PUSH2 0x1CAC JUMP JUMPDEST PUSH1 0x20 PUSH1 0x40 MLOAD DUP1 DUP4 SUB DUP2 DUP7 GAS STATICCALL ISZERO DUP1 ISZERO PUSH2 0xCF6 JUMPI RETURNDATASIZE PUSH1 0x0 DUP1 RETURNDATACOPY RETURNDATASIZE PUSH1 0x0 REVERT JUMPDEST POP POP POP POP PUSH1 0x40 MLOAD RETURNDATASIZE PUSH1 0x1F NOT PUSH1 0x1F DUP3 ADD AND DUP3 ADD DUP1 PUSH1 0x40 MSTORE POP DUP2 ADD SWAP1 PUSH2 0xD1A SWAP2 SWAP1 PUSH2 0x1F33 JUMP JUMPDEST SWAP1 POP DUP1 DUP5 GT ISZERO PUSH2 0xD5F JUMPI PUSH1 0x40 MLOAD PUSH32 0x8C379A000000000000000000000000000000000000000000000000000000000 DUP2 MSTORE PUSH1 0x4 ADD PUSH2 0xD56 SWAP1 PUSH2 0x2425 JUMP JUMPDEST PUSH1 0x40 MLOAD DUP1 SWAP2 SUB SWAP1 REVERT JUMPDEST PUSH32 0x0 PUSH20 0xFFFFFFFFFFFFFFFFFFFFFFFFFFFFFFFFFFFFFFFF AND DUP6 PUSH20 0xFFFFFFFFFFFFFFFFFFFFFFFFFFFFFFFFFFFFFFFF AND SUB PUSH2 0xE65 JUMPI PUSH1 0x0 PUSH1 0x4 SLOAD PUSH1 0x6 SLOAD PUSH1 0x5 SLOAD PUSH2 0xDC7 SWAP2 SWAP1 PUSH2 0x1F8F JUMP JUMPDEST PUSH2 0xDD1 SWAP2 SWAP1 PUSH2 0x1F8F JUMP JUMPDEST SWAP1 POP DUP1 DUP3 GT PUSH2 0xE15 JUMPI PUSH1 0x40 MLOAD PUSH32 0x8C379A000000000000000000000000000000000000000000000000000000000 DUP2 MSTORE PUSH1 0x4 ADD PUSH2 0xE0C SWAP1 PUSH2 0x2491 JUMP JUMPDEST PUSH1 0x40 MLOAD DUP1 SWAP2 SUB SWAP1 REVERT JUMPDEST DUP1 DUP3 PUSH2 0xE21 SWAP2 SWAP1 PUSH2 0x2040 JUMP JUMPDEST DUP6 GT ISZERO PUSH2 0xE63 JUMPI PUSH1 0x40 MLOAD PUSH32 0x8C379A000000000000000000000000000000000000000000000000000000000 DUP2 MSTORE PUSH1 0x4 ADD PUSH2 0xE5A SWAP1 PUSH2 0x24FD JUMP JUMPDEST PUSH1 0x40 MLOAD DUP1 SWAP2 SUB SWAP1 REVERT JUMPDEST POP JUMPDEST PUSH1 0x0 DUP3 PUSH20 0xFFFFFFFFFFFFFFFFFFFFFFFFFFFFFFFFFFFFFFFF AND PUSH4 0xA9059CBB DUP6 DUP8 PUSH1 0x40 MLOAD DUP4 PUSH4 0xFFFFFFFF AND PUSH1 0xE0 SHL DUP2 MSTORE PUSH1 0x4 ADD PUSH2 0xEA2 SWAP3 SWAP2 SWAP1 PUSH2 0x251D JUMP JUMPDEST PUSH1 0x20 PUSH1 0x40 MLOAD DUP1 DUP4 SUB DUP2 PUSH1 0x0 DUP8 GAS CALL ISZERO DUP1 ISZERO PUSH2 0xEC1 JUMPI RETURNDATASIZE PUSH1 0x0 DUP1 RETURNDATACOPY RETURNDATASIZE PUSH1 0x0 REVERT JUMPDEST POP POP POP POP PUSH1 0x40 MLOAD RETURNDATASIZE PUSH1 0x1F NOT PUSH1 0x1F DUP3 ADD AND DUP3 ADD DUP1 PUSH1 0x40 MSTORE POP DUP2 ADD SWAP1 PUSH2 0xEE5 SWAP2 SWAP1 PUSH2 0x255B JUMP JUMPDEST SWAP1 POP DUP1 PUSH2 0xF27 JUMPI PUSH1 0x40 MLOAD PUSH32 0x8C379A000000000000000000000000000000000000000000000000000000000 DUP2 MSTORE PUSH1 0x4 ADD PUSH2 0xF1E SWAP1 PUSH2 0x25D4 JUMP JUMPDEST PUSH1 0x40 MLOAD DUP1 SWAP2 SUB SWAP1 REVERT JUMPDEST PUSH32 0xFB475A842BAD10D3800B61BD1A92E716051AFBA979B124B583BD99A2D1D7BFD5 DUP7 DUP7 DUP7 PUSH1 0x40 MLOAD PUSH2 0xF5A SWAP4 SWAP3 SWAP2 SWAP1 PUSH2 0x25F4 JUMP JUMPDEST PUSH1 0x40 MLOAD DUP1 SWAP2 SUB SWAP1 LOG1 POP POP POP PUSH2 0xF6D PUSH2 0x1B93 JUMP JUMPDEST POP POP POP JUMP JUMPDEST PUSH1 0x7 PUSH1 0x0 SWAP1 SLOAD SWAP1 PUSH2 0x100 EXP SWAP1 DIV PUSH1 0xFF AND DUP2 JUMP JUMPDEST PUSH2 0xF8D PUSH2 0x1AC6 JUMP JUMPDEST PUSH2 0xF95 PUSH2 0x1B4D JUMP JUMPDEST PUSH2 0xF9F PUSH1 0x0 PUSH2 0x576 JUMP JUMPDEST PUSH1 0x0 PUSH1 0x6 SLOAD PUSH1 0x5 SLOAD PUSH2 0xFB1 SWAP2 SWAP1 PUSH2 0x1F8F JUMP JUMPDEST SWAP1 POP PUSH1 0x0 DUP2 GT ISZERO PUSH2 0x1048 JUMPI PUSH32 0x0 PUSH20 0xFFFFFFFFFFFFFFFFFFFFFFFFFFFFFFFFFFFFFFFF AND PUSH4 0x2E1A7D4D DUP3 PUSH1 0x40 MLOAD DUP3 PUSH4 0xFFFFFFFF AND PUSH1 0xE0 SHL DUP2 MSTORE PUSH1 0x4 ADD PUSH2 0x1015 SWAP2 SWAP1 PUSH2 0x1D59 JUMP JUMPDEST PUSH1 0x0 PUSH1 0x40 MLOAD DUP1 DUP4 SUB DUP2 PUSH1 0x0 DUP8 DUP1 EXTCODESIZE ISZERO DUP1 ISZERO PUSH2 0x102F JUMPI PUSH1 0x0 DUP1 REVERT JUMPDEST POP GAS CALL ISZERO DUP1 ISZERO PUSH2 0x1043 JUMPI RETURNDATASIZE PUSH1 0x0 DUP1 RETURNDATACOPY RETURNDATASIZE PUSH1 0x0 REVERT JUMPDEST POP POP POP POP JUMPDEST PUSH1 0x0 PUSH1 0x5 SLOAD GT ISZERO PUSH2 0x112B JUMPI PUSH1 0x0 PUSH32 0x0 PUSH20 0xFFFFFFFFFFFFFFFFFFFFFFFFFFFFFFFFFFFFFFFF AND PUSH1 0x5 SLOAD PUSH1 0x40 MLOAD PUSH2 0x109B SWAP1 PUSH2 0x22D0 JUMP JUMPDEST PUSH1 0x0 PUSH1 0x40 MLOAD DUP1 DUP4 SUB DUP2 DUP6 DUP8 GAS CALL SWAP3 POP POP POP RETURNDATASIZE DUP1 PUSH1 0x0 DUP2 EQ PUSH2 0x10D8 JUMPI PUSH1 0x40 MLOAD SWAP2 POP PUSH1 0x1F NOT PUSH1 0x3F RETURNDATASIZE ADD AND DUP3 ADD PUSH1 0x40 MSTORE RETURNDATASIZE DUP3 MSTORE RETURNDATASIZE PUSH1 0x0 PUSH1 0x20 DUP5 ADD RETURNDATACOPY PUSH2 0x10DD JUMP JUMPDEST PUSH1 0x60 SWAP2 POP JUMPDEST POP POP SWAP1 POP DUP1 PUSH2 0x1121 JUMPI PUSH1 0x40 MLOAD PUSH32 0x8C379A000000000000000000000000000000000000000000000000000000000 DUP2 MSTORE PUSH1 0x4 ADD PUSH2 0x1118 SWAP1 PUSH2 0x2677 JUMP JUMPDEST PUSH1 0x40 MLOAD DUP1 SWAP2 SUB SWAP1 REVERT JUMPDEST PUSH1 0x0 PUSH1 0x5 DUP2 SWAP1 SSTORE POP POP JUMPDEST PUSH1 0x0 PUSH1 0x6 SLOAD GT ISZERO PUSH2 0x120E JUMPI PUSH1 0x0 PUSH32 0x0 PUSH20 0xFFFFFFFFFFFFFFFFFFFFFFFFFFFFFFFFFFFFFFFF AND PUSH1 0x6 SLOAD PUSH1 0x40 MLOAD PUSH2 0x117E SWAP1 PUSH2 0x22D0 JUMP JUMPDEST PUSH1 0x0 PUSH1 0x40 MLOAD DUP1 DUP4 SUB DUP2 DUP6 DUP8 GAS CALL SWAP3 POP POP POP RETURNDATASIZE DUP1 PUSH1 0x0 DUP2 EQ PUSH2 0x11BB JUMPI PUSH1 0x40 MLOAD SWAP2 POP PUSH1 0x1F NOT PUSH1 0x3F RETURNDATASIZE ADD AND DUP3 ADD PUSH1 0x40 MSTORE RETURNDATASIZE DUP3 MSTORE RETURNDATASIZE PUSH1 0x0 PUSH1 0x20 DUP5 ADD RETURNDATACOPY PUSH2 0x11C0 JUMP JUMPDEST PUSH1 0x60 SWAP2 POP JUMPDEST POP POP SWAP1 POP DUP1 PUSH2 0x1204 JUMPI PUSH1 0x40 MLOAD PUSH32 0x8C379A000000000000000000000000000000000000000000000000000000000 DUP2 MSTORE PUSH1 0x4 ADD PUSH2 0x11FB SWAP1 PUSH2 0x26E3 JUMP JUMPDEST PUSH1 0x40 MLOAD DUP1 SWAP2 SUB SWAP1 REVERT JUMPDEST PUSH1 0x0 PUSH1 0x6 DUP2 SWAP1 SSTORE POP POP JUMPDEST POP PUSH2 0x1217 PUSH2 0x1B93 JUMP JUMPDEST JUMP JUMPDEST PUSH2 0x1221 PUSH2 0xA36 JUMP JUMPDEST PUSH20 0xFFFFFFFFFFFFFFFFFFFFFFFFFFFFFFFFFFFFFFFF AND CALLER PUSH20 0xFFFFFFFFFFFFFFFFFFFFFFFFFFFFFFFFFFFFFFFF AND EQ DUP1 PUSH2 0x1299 JUMPI POP PUSH20 0x66F912448941C7A094A65F65FF8C91963785893 PUSH20 0xFFFFFFFFFFFFFFFFFFFFFFFFFFFFFFFFFFFFFFFF AND CALLER PUSH20 0xFFFFFFFFFFFFFFFFFFFFFFFFFFFFFFFFFFFFFFFF AND EQ JUMPDEST PUSH2 0x12D8 JUMPI PUSH1 0x40 MLOAD PUSH32 0x8C379A000000000000000000000000000000000000000000000000000000000 DUP2 MSTORE PUSH1 0x4 ADD PUSH2 0x12CF SWAP1 PUSH2 0x274F JUMP JUMPDEST PUSH1 0x40 MLOAD DUP1 SWAP2 SUB SWAP1 REVERT JUMPDEST JUMP JUMPDEST PUSH2 0x12E2 PUSH2 0x1AC6 JUMP JUMPDEST PUSH2 0x12EA PUSH2 0x1B4D JUMP JUMPDEST PUSH1 0x0 PUSH1 0x5 SLOAD GT PUSH2 0x132F JUMPI PUSH1 0x40 MLOAD PUSH32 0x8C379A000000000000000000000000000000000000000000000000000000000 DUP2 MSTORE PUSH1 0x4 ADD PUSH2 0x1326 SWAP1 PUSH2 0x27BB JUMP JUMPDEST PUSH1 0x40 MLOAD DUP1 SWAP2 SUB SWAP1 REVERT JUMPDEST PUSH2 0x1337 PUSH2 0x168A JUMP JUMPDEST PUSH2 0x133F PUSH2 0x1B93 JUMP JUMPDEST JUMP JUMPDEST PUSH2 0x1349 PUSH2 0x1AC6 JUMP JUMPDEST PUSH1 0x0 PUSH20 0xFFFFFFFFFFFFFFFFFFFFFFFFFFFFFFFFFFFFFFFF AND DUP2 PUSH20 0xFFFFFFFFFFFFFFFFFFFFFFFFFFFFFFFFFFFFFFFF AND SUB PUSH2 0x13BB JUMPI PUSH1 0x0 PUSH1 0x40 MLOAD PUSH32 0x1E4FBDF700000000000000000000000000000000000000000000000000000000 DUP2 MSTORE PUSH1 0x4 ADD PUSH2 0x13B2 SWAP2 SWAP1 PUSH2 0x1CAC JUMP JUMPDEST PUSH1 0x40 MLOAD DUP1 SWAP2 SUB SWAP1 REVERT JUMPDEST PUSH2 0x13C4 DUP2 PUSH2 0x1B9D JUMP JUMPDEST POP JUMP JUMPDEST PUSH32 0x0 DUP2 JUMP JUMPDEST PUSH1 0x0 PUSH1 0x4 SLOAD GT ISZERO PUSH2 0x1688 JUMPI PUSH32 0x0 PUSH20 0xFFFFFFFFFFFFFFFFFFFFFFFFFFFFFFFFFFFFFFFF AND PUSH4 0x95EA7B3 PUSH1 0x2 PUSH1 0x0 SWAP1 SLOAD SWAP1 PUSH2 0x100 EXP SWAP1 DIV PUSH20 0xFFFFFFFFFFFFFFFFFFFFFFFFFFFFFFFFFFFFFFFF AND PUSH1 0x4 SLOAD PUSH1 0x40 MLOAD DUP4 PUSH4 0xFFFFFFFF AND PUSH1 0xE0 SHL DUP2 MSTORE PUSH1 0x4 ADD PUSH2 0x1475 SWAP3 SWAP2 SWAP1 PUSH2 0x251D JUMP JUMPDEST PUSH1 0x20 PUSH1 0x40 MLOAD DUP1 DUP4 SUB DUP2 PUSH1 0x0 DUP8 GAS CALL ISZERO DUP1 ISZERO PUSH2 0x1494 JUMPI RETURNDATASIZE PUSH1 0x0 DUP1 RETURNDATACOPY RETURNDATASIZE PUSH1 0x0 REVERT JUMPDEST POP POP POP POP PUSH1 0x40 MLOAD RETURNDATASIZE PUSH1 0x1F NOT PUSH1 0x1F DUP3 ADD AND DUP3 ADD DUP1 PUSH1 0x40 MSTORE POP DUP2 ADD SWAP1 PUSH2 0x14B8 SWAP2 SWAP1 PUSH2 0x255B JUMP JUMPDEST POP PUSH1 0x0 PUSH1 0x40 MLOAD DUP1 PUSH1 0x80 ADD PUSH1 0x40 MSTORE DUP1 PUSH32 0x0 PUSH32 0x0 PUSH32 0x0 PUSH1 0x40 MLOAD PUSH1 0x20 ADD PUSH2 0x153B SWAP4 SWAP3 SWAP2 SWAP1 PUSH2 0x2868 JUMP JUMPDEST PUSH1 0x40 MLOAD PUSH1 0x20 DUP2 DUP4 SUB SUB DUP2 MSTORE SWAP1 PUSH1 0x40 MSTORE DUP2 MSTORE PUSH1 0x20 ADD PUSH32 0x0 PUSH20 0xFFFFFFFFFFFFFFFFFFFFFFFFFFFFFFFFFFFFFFFF AND DUP2 MSTORE PUSH1 0x20 ADD PUSH1 0x4 SLOAD DUP2 MSTORE PUSH1 0x20 ADD PUSH1 0x0 DUP2 MSTORE POP SWAP1 POP PUSH1 0x0 PUSH1 0x2 PUSH1 0x0 SWAP1 SLOAD SWAP1 PUSH2 0x100 EXP SWAP1 DIV PUSH20 0xFFFFFFFFFFFFFFFFFFFFFFFFFFFFFFFFFFFFFFFF AND PUSH20 0xFFFFFFFFFFFFFFFFFFFFFFFFFFFFFFFFFFFFFFFF AND PUSH4 0xB858183F DUP4 PUSH1 0x40 MLOAD DUP3 PUSH4 0xFFFFFFFF AND PUSH1 0xE0 SHL DUP2 MSTORE PUSH1 0x4 ADD PUSH2 0x15F7 SWAP2 SWAP1 PUSH2 0x29B6 JUMP JUMPDEST PUSH1 0x20 PUSH1 0x40 MLOAD DUP1 DUP4 SUB DUP2 PUSH1 0x0 DUP8 GAS CALL ISZERO DUP1 ISZERO PUSH2 0x1616 JUMPI RETURNDATASIZE PUSH1 0x0 DUP1 RETURNDATACOPY RETURNDATASIZE PUSH1 0x0 REVERT JUMPDEST POP POP POP POP PUSH1 0x40 MLOAD RETURNDATASIZE PUSH1 0x1F NOT PUSH1 0x1F DUP3 ADD AND DUP3 ADD DUP1 PUSH1 0x40 MSTORE POP DUP2 ADD SWAP1 PUSH2 0x163A SWAP2 SWAP1 PUSH2 0x1F33 JUMP JUMPDEST SWAP1 POP PUSH1 0x0 PUSH1 0x4 DUP2 SWAP1 SSTORE POP PUSH1 0x0 DUP2 GT ISZERO PUSH2 0x1685 JUMPI PUSH32 0x9F7C0331CAE72869B1E69D00E6DBFCEB0E02266830E12339F841D334BC614127 DUP2 PUSH1 0x40 MLOAD PUSH2 0x167C SWAP2 SWAP1 PUSH2 0x1D59 JUMP JUMPDEST PUSH1 0x40 MLOAD DUP1 SWAP2 SUB SWAP1 LOG1 JUMPDEST POP POP JUMPDEST JUMP JUMPDEST PUSH1 0x0 PUSH1 0x5 SLOAD GT ISZERO PUSH2 0x1AC4 JUMPI PUSH1 0x0 PUSH1 0x2 PUSH8 0xFFFFFFFFFFFFFFFF DUP2 GT ISZERO PUSH2 0x16B2 JUMPI PUSH2 0x16B1 PUSH2 0x29D8 JUMP JUMPDEST JUMPDEST PUSH1 0x40 MLOAD SWAP1 DUP1 DUP3 MSTORE DUP1 PUSH1 0x20 MUL PUSH1 0x20 ADD DUP3 ADD PUSH1 0x40 MSTORE DUP1 ISZERO PUSH2 0x16E0 JUMPI DUP2 PUSH1 0x20 ADD PUSH1 0x20 DUP3 MUL DUP1 CALLDATASIZE DUP4 CALLDATACOPY DUP1 DUP3 ADD SWAP2 POP POP SWAP1 POP JUMPDEST POP SWAP1 POP PUSH32 0x0 DUP2 PUSH1 0x0 DUP2 MLOAD DUP2 LT PUSH2 0x1718 JUMPI PUSH2 0x1717 PUSH2 0x2A07 JUMP JUMPDEST JUMPDEST PUSH1 0x20 MUL PUSH1 0x20 ADD ADD SWAP1 PUSH20 0xFFFFFFFFFFFFFFFFFFFFFFFFFFFFFFFFFFFFFFFF AND SWAP1 DUP2 PUSH20 0xFFFFFFFFFFFFFFFFFFFFFFFFFFFFFFFFFFFFFFFF AND DUP2 MSTORE POP POP PUSH32 0x0 DUP2 PUSH1 0x1 DUP2 MLOAD DUP2 LT PUSH2 0x1787 JUMPI PUSH2 0x1786 PUSH2 0x2A07 JUMP JUMPDEST JUMPDEST PUSH1 0x20 MUL PUSH1 0x20 ADD ADD SWAP1 PUSH20 0xFFFFFFFFFFFFFFFFFFFFFFFFFFFFFFFFFFFFFFFF AND SWAP1 DUP2 PUSH20 0xFFFFFFFFFFFFFFFFFFFFFFFFFFFFFFFFFFFFFFFF AND DUP2 MSTORE POP POP PUSH1 0x0 PUSH1 0x3 PUSH1 0x0 SWAP1 SLOAD SWAP1 PUSH2 0x100 EXP SWAP1 DIV PUSH20 0xFFFFFFFFFFFFFFFFFFFFFFFFFFFFFFFFFFFFFFFF AND PUSH20 0xFFFFFFFFFFFFFFFFFFFFFFFFFFFFFFFFFFFFFFFF AND PUSH4 0xD06CA61F PUSH1 0x5 SLOAD DUP5 PUSH1 0x40 MLOAD DUP4 PUSH4 0xFFFFFFFF AND PUSH1 0xE0 SHL DUP2 MSTORE PUSH1 0x4 ADD PUSH2 0x1822 SWAP3 SWAP2 SWAP1 PUSH2 0x2AE5 JUMP JUMPDEST PUSH1 0x0 PUSH1 0x40 MLOAD DUP1 DUP4 SUB DUP2 DUP7 GAS STATICCALL ISZERO DUP1 ISZERO PUSH2 0x183F JUMPI RETURNDATASIZE PUSH1 0x0 DUP1 RETURNDATACOPY RETURNDATASIZE PUSH1 0x0 REVERT JUMPDEST POP POP POP POP PUSH1 0x40 MLOAD RETURNDATASIZE PUSH1 0x0 DUP3 RETURNDATACOPY RETURNDATASIZE PUSH1 0x1F NOT PUSH1 0x1F DUP3 ADD AND DUP3 ADD DUP1 PUSH1 0x40 MSTORE POP DUP2 ADD SWAP1 PUSH2 0x1868 SWAP2 SWAP1 PUSH2 0x2C2E JUMP JUMPDEST SWAP1 POP PUSH1 0x0 DUP2 PUSH1 0x1 DUP2 MLOAD DUP2 LT PUSH2 0x1880 JUMPI PUSH2 0x187F PUSH2 0x2A07 JUMP JUMPDEST JUMPDEST PUSH1 0x20 MUL PUSH1 0x20 ADD ADD MLOAD SWAP1 POP PUSH1 0x0 PUSH1 0x64 PUSH1 0x50 DUP4 PUSH2 0x189B SWAP2 SWAP1 PUSH2 0x2074 JUMP JUMPDEST PUSH2 0x18A5 SWAP2 SWAP1 PUSH2 0x20E5 JUMP JUMPDEST SWAP1 POP PUSH32 0x0 PUSH20 0xFFFFFFFFFFFFFFFFFFFFFFFFFFFFFFFFFFFFFFFF AND PUSH4 0x95EA7B3 PUSH1 0x3 PUSH1 0x0 SWAP1 SLOAD SWAP1 PUSH2 0x100 EXP SWAP1 DIV PUSH20 0xFFFFFFFFFFFFFFFFFFFFFFFFFFFFFFFFFFFFFFFF AND PUSH1 0x5 SLOAD PUSH1 0x40 MLOAD DUP4 PUSH4 0xFFFFFFFF AND PUSH1 0xE0 SHL DUP2 MSTORE PUSH1 0x4 ADD PUSH2 0x1926 SWAP3 SWAP2 SWAP1 PUSH2 0x251D JUMP JUMPDEST PUSH1 0x20 PUSH1 0x40 MLOAD DUP1 DUP4 SUB DUP2 PUSH1 0x0 DUP8 GAS CALL ISZERO DUP1 ISZERO PUSH2 0x1945 JUMPI RETURNDATASIZE PUSH1 0x0 DUP1 RETURNDATACOPY RETURNDATASIZE PUSH1 0x0 REVERT JUMPDEST POP POP POP POP PUSH1 0x40 MLOAD RETURNDATASIZE PUSH1 0x1F NOT PUSH1 0x1F DUP3 ADD AND DUP3 ADD DUP1 PUSH1 0x40 MSTORE POP DUP2 ADD SWAP1 PUSH2 0x1969 SWAP2 SWAP1 PUSH2 0x255B JUMP JUMPDEST POP PUSH1 0x0 PUSH1 0x3 PUSH1 0x0 SWAP1 SLOAD SWAP1 PUSH2 0x100 EXP SWAP1 DIV PUSH20 0xFFFFFFFFFFFFFFFFFFFFFFFFFFFFFFFFFFFFFFFF AND PUSH20 0xFFFFFFFFFFFFFFFFFFFFFFFFFFFFFFFFFFFFFFFF AND PUSH4 0x38ED1739 PUSH1 0x5 SLOAD DUP5 DUP9 PUSH32 0x0 PUSH2 0x12C TIMESTAMP PUSH2 0x19DE SWAP2 SWAP1 PUSH2 0x1F8F JUMP JUMPDEST PUSH1 0x40 MLOAD DUP7 PUSH4 0xFFFFFFFF AND PUSH1 0xE0 SHL DUP2 MSTORE PUSH1 0x4 ADD PUSH2 0x19FE SWAP6 SWAP5 SWAP4 SWAP3 SWAP2 SWAP1 PUSH2 0x2C77 JUMP JUMPDEST PUSH1 0x0 PUSH1 0x40 MLOAD DUP1 DUP4 SUB DUP2 PUSH1 0x0 DUP8 GAS CALL ISZERO DUP1 ISZERO PUSH2 0x1A1D JUMPI RETURNDATASIZE PUSH1 0x0 DUP1 RETURNDATACOPY RETURNDATASIZE PUSH1 0x0 REVERT JUMPDEST POP POP POP POP PUSH1 0x40 MLOAD RETURNDATASIZE PUSH1 0x0 DUP3 RETURNDATACOPY RETURNDATASIZE PUSH1 0x1F NOT PUSH1 0x1F DUP3 ADD AND DUP3 ADD DUP1 PUSH1 0x40 MSTORE POP DUP2 ADD SWAP1 PUSH2 0x1A46 SWAP2 SWAP1 PUSH2 0x2C2E JUMP JUMPDEST SWAP1 POP PUSH1 0x0 DUP2 PUSH1 0x1 DUP4 MLOAD PUSH2 0x1A59 SWAP2 SWAP1 PUSH2 0x2040 JUMP JUMPDEST DUP2 MLOAD DUP2 LT PUSH2 0x1A6A JUMPI PUSH2 0x1A69 PUSH2 0x2A07 JUMP JUMPDEST JUMPDEST PUSH1 0x20 MUL PUSH1 0x20 ADD ADD MLOAD SWAP1 POP PUSH1 0x0 PUSH1 0x5 DUP2 SWAP1 SSTORE POP PUSH1 0x0 DUP2 GT ISZERO PUSH2 0x1ABD JUMPI PUSH32 0xCB42363DCC1840222268FE43EEBC976F3E311A14761E5396EB394EBDAC90A582 DUP2 PUSH1 0x40 MLOAD PUSH2 0x1AB4 SWAP2 SWAP1 PUSH2 0x1D59 JUMP JUMPDEST PUSH1 0x40 MLOAD DUP1 SWAP2 SUB SWAP1 LOG1 JUMPDEST POP POP POP POP POP POP JUMPDEST JUMP JUMPDEST PUSH2 0x1ACE PUSH2 0x1C63 JUMP JUMPDEST PUSH20 0xFFFFFFFFFFFFFFFFFFFFFFFFFFFFFFFFFFFFFFFF AND PUSH2 0x1AEC PUSH2 0xA36 JUMP JUMPDEST PUSH20 0xFFFFFFFFFFFFFFFFFFFFFFFFFFFFFFFFFFFFFFFF AND EQ PUSH2 0x1B4B JUMPI PUSH2 0x1B0F PUSH2 0x1C63 JUMP JUMPDEST PUSH1 0x40 MLOAD PUSH32 0x118CDAA700000000000000000000000000000000000000000000000000000000 DUP2 MSTORE PUSH1 0x4 ADD PUSH2 0x1B42 SWAP2 SWAP1 PUSH2 0x1CAC JUMP JUMPDEST PUSH1 0x40 MLOAD DUP1 SWAP2 SUB SWAP1 REVERT JUMPDEST JUMP JUMPDEST PUSH1 0x2 PUSH1 0x0 SLOAD SUB PUSH2 0x1B89 JUMPI PUSH1 0x40 MLOAD PUSH32 0x3EE5AEB500000000000000000000000000000000000000000000000000000000 DUP2 MSTORE PUSH1 0x4 ADD PUSH1 0x40 MLOAD DUP1 SWAP2 SUB SWAP1 REVERT JUMPDEST PUSH1 0x2 PUSH1 0x0 DUP2 SWAP1 SSTORE POP JUMP JUMPDEST PUSH1 0x1 PUSH1 0x0 DUP2 SWAP1 SSTORE POP JUMP JUMPDEST PUSH1 0x0 PUSH1 0x1 PUSH1 0x0 SWAP1 SLOAD SWAP1 PUSH2 0x100 EXP SWAP1 DIV PUSH20 0xFFFFFFFFFFFFFFFFFFFFFFFFFFFFFFFFFFFFFFFF AND SWAP1 POP DUP2 PUSH1 0x1 PUSH1 0x0 PUSH2 0x100 EXP DUP2 SLOAD DUP2 PUSH20 0xFFFFFFFFFFFFFFFFFFFFFFFFFFFFFFFFFFFFFFFF MUL NOT AND SWAP1 DUP4 PUSH20 0xFFFFFFFFFFFFFFFFFFFFFFFFFFFFFFFFFFFFFFFF AND MUL OR SWAP1 SSTORE POP DUP2 PUSH20 0xFFFFFFFFFFFFFFFFFFFFFFFFFFFFFFFFFFFFFFFF AND DUP2 PUSH20 0xFFFFFFFFFFFFFFFFFFFFFFFFFFFFFFFFFFFFFFFF AND PUSH32 0x8BE0079C531659141344CD1FD0A4F28419497F9722A3DAAFE3B4186F6B6457E0 PUSH1 0x40 MLOAD PUSH1 0x40 MLOAD DUP1 SWAP2 SUB SWAP1 LOG3 POP POP JUMP JUMPDEST PUSH1 0x0 CALLER SWAP1 POP SWAP1 JUMP JUMPDEST PUSH1 0x0 PUSH20 0xFFFFFFFFFFFFFFFFFFFFFFFFFFFFFFFFFFFFFFFF DUP3 AND SWAP1 POP SWAP2 SWAP1 POP JUMP JUMPDEST PUSH1 0x0 PUSH2 0x1C96 DUP3 PUSH2 0x1C6B JUMP JUMPDEST SWAP1 POP SWAP2 SWAP1 POP JUMP JUMPDEST PUSH2 0x1CA6 DUP2 PUSH2 0x1C8B JUMP JUMPDEST DUP3 MSTORE POP POP JUMP JUMPDEST PUSH1 0x0 PUSH1 0x20 DUP3 ADD SWAP1 POP PUSH2 0x1CC1 PUSH1 0x0 DUP4 ADD DUP5 PUSH2 0x1C9D JUMP JUMPDEST SWAP3 SWAP2 POP POP JUMP JUMPDEST PUSH1 0x0 PUSH1 0x40 MLOAD SWAP1 POP SWAP1 JUMP JUMPDEST PUSH1 0x0 DUP1 REVERT JUMPDEST PUSH1 0x0 DUP1 REVERT JUMPDEST PUSH1 0x0 DUP2 ISZERO ISZERO SWAP1 POP SWAP2 SWAP1 POP JUMP JUMPDEST PUSH2 0x1CF0 DUP2 PUSH2 0x1CDB JUMP JUMPDEST DUP2 EQ PUSH2 0x1CFB JUMPI PUSH1 0x0 DUP1 REVERT JUMPDEST POP JUMP JUMPDEST PUSH1 0x0 DUP2 CALLDATALOAD SWAP1 POP PUSH2 0x1D0D DUP2 PUSH2 0x1CE7 JUMP JUMPDEST SWAP3 SWAP2 POP POP JUMP JUMPDEST PUSH1 0x0 PUSH1 0x20 DUP3 DUP5 SUB SLT ISZERO PUSH2 0x1D29 JUMPI PUSH2 0x1D28 PUSH2 0x1CD1 JUMP JUMPDEST JUMPDEST PUSH1 0x0 PUSH2 0x1D37 DUP5 DUP3 DUP6 ADD PUSH2 0x1CFE JUMP JUMPDEST SWAP2 POP POP SWAP3 SWAP2 POP POP JUMP JUMPDEST PUSH1 0x0 DUP2 SWAP1 POP SWAP2 SWAP1 POP JUMP JUMPDEST PUSH2 0x1D53 DUP2 PUSH2 0x1D40 JUMP JUMPDEST DUP3 MSTORE POP POP JUMP JUMPDEST PUSH1 0x0 PUSH1 0x20 DUP3 ADD SWAP1 POP PUSH2 0x1D6E PUSH1 0x0 DUP4 ADD DUP5 PUSH2 0x1D4A JUMP JUMPDEST SWAP3 SWAP2 POP POP JUMP JUMPDEST PUSH1 0x0 PUSH2 0x1D7F DUP3 PUSH2 0x1C6B JUMP JUMPDEST SWAP1 POP SWAP2 SWAP1 POP JUMP JUMPDEST PUSH2 0x1D8F DUP2 PUSH2 0x1D74 JUMP JUMPDEST DUP3 MSTORE POP POP JUMP JUMPDEST PUSH1 0x0 PUSH1 0x20 DUP3 ADD SWAP1 POP PUSH2 0x1DAA PUSH1 0x0 DUP4 ADD DUP5 PUSH2 0x1D86 JUMP JUMPDEST SWAP3 SWAP2 POP POP JUMP JUMPDEST PUSH2 0x1DB9 DUP2 PUSH2 0x1CDB JUMP JUMPDEST DUP3 MSTORE POP POP JUMP JUMPDEST PUSH1 0x0 PUSH1 0x20 DUP3 ADD SWAP1 POP PUSH2 0x1DD4 PUSH1 0x0 DUP4 ADD DUP5 PUSH2 0x1DB0 JUMP JUMPDEST SWAP3 SWAP2 POP POP JUMP JUMPDEST PUSH2 0x1DE3 DUP2 PUSH2 0x1D40 JUMP JUMPDEST DUP2 EQ PUSH2 0x1DEE JUMPI PUSH1 0x0 DUP1 REVERT JUMPDEST POP JUMP JUMPDEST PUSH1 0x0 DUP2 CALLDATALOAD SWAP1 POP PUSH2 0x1E00 DUP2 PUSH2 0x1DDA JUMP JUMPDEST SWAP3 SWAP2 POP POP JUMP JUMPDEST PUSH2 0x1E0F DUP2 PUSH2 0x1D74 JUMP JUMPDEST DUP2 EQ PUSH2 0x1E1A JUMPI PUSH1 0x0 DUP1 REVERT JUMPDEST POP JUMP JUMPDEST PUSH1 0x0 DUP2 CALLDATALOAD SWAP1 POP PUSH2 0x1E2C DUP2 PUSH2 0x1E06 JUMP JUMPDEST SWAP3 SWAP2 POP POP JUMP JUMPDEST PUSH1 0x0 DUP1 PUSH1 0x40 DUP4 DUP6 SUB SLT ISZERO PUSH2 0x1E49 JUMPI PUSH2 0x1E48 PUSH2 0x1CD1 JUMP JUMPDEST JUMPDEST PUSH1 0x0 PUSH2 0x1E57 DUP6 DUP3 DUP7 ADD PUSH2 0x1DF1 JUMP JUMPDEST SWAP3 POP POP PUSH1 0x20 PUSH2 0x1E68 DUP6 DUP3 DUP7 ADD PUSH2 0x1E1D JUMP JUMPDEST SWAP2 POP POP SWAP3 POP SWAP3 SWAP1 POP JUMP JUMPDEST PUSH2 0x1E7B DUP2 PUSH2 0x1C8B JUMP JUMPDEST DUP2 EQ PUSH2 0x1E86 JUMPI PUSH1 0x0 DUP1 REVERT JUMPDEST POP JUMP JUMPDEST PUSH1 0x0 DUP2 CALLDATALOAD SWAP1 POP PUSH2 0x1E98 DUP2 PUSH2 0x1E72 JUMP JUMPDEST SWAP3 SWAP2 POP POP JUMP JUMPDEST PUSH1 0x0 DUP1 PUSH1 0x0 PUSH1 0x60 DUP5 DUP7 SUB SLT ISZERO PUSH2 0x1EB7 JUMPI PUSH2 0x1EB6 PUSH2 0x1CD1 JUMP JUMPDEST JUMPDEST PUSH1 0x0 PUSH2 0x1EC5 DUP7 DUP3 DUP8 ADD PUSH2 0x1E89 JUMP JUMPDEST SWAP4 POP POP PUSH1 0x20 PUSH2 0x1ED6 DUP7 DUP3 DUP8 ADD PUSH2 0x1DF1 JUMP JUMPDEST SWAP3 POP POP PUSH1 0x40 PUSH2 0x1EE7 DUP7 DUP3 DUP8 ADD PUSH2 0x1E89 JUMP JUMPDEST SWAP2 POP POP SWAP3 POP SWAP3 POP SWAP3 JUMP JUMPDEST PUSH1 0x0 PUSH1 0x20 DUP3 DUP5 SUB SLT ISZERO PUSH2 0x1F07 JUMPI PUSH2 0x1F06 PUSH2 0x1CD1 JUMP JUMPDEST JUMPDEST PUSH1 0x0 PUSH2 0x1F15 DUP5 DUP3 DUP6 ADD PUSH2 0x1E89 JUMP JUMPDEST SWAP2 POP POP SWAP3 SWAP2 POP POP JUMP JUMPDEST PUSH1 0x0 DUP2 MLOAD SWAP1 POP PUSH2 0x1F2D DUP2 PUSH2 0x1DDA JUMP JUMPDEST SWAP3 SWAP2 POP POP JUMP JUMPDEST PUSH1 0x0 PUSH1 0x20 DUP3 DUP5 SUB SLT ISZERO PUSH2 0x1F49 JUMPI PUSH2 0x1F48 PUSH2 0x1CD1 JUMP JUMPDEST JUMPDEST PUSH1 0x0 PUSH2 0x1F57 DUP5 DUP3 DUP6 ADD PUSH2 0x1F1E JUMP JUMPDEST SWAP2 POP POP SWAP3 SWAP2 POP POP JUMP JUMPDEST PUSH32 0x4E487B7100000000000000000000000000000000000000000000000000000000 PUSH1 0x0 MSTORE PUSH1 0x11 PUSH1 0x4 MSTORE PUSH1 0x24 PUSH1 0x0 REVERT JUMPDEST PUSH1 0x0 PUSH2 0x1F9A DUP3 PUSH2 0x1D40 JUMP JUMPDEST SWAP2 POP PUSH2 0x1FA5 DUP4 PUSH2 0x1D40 JUMP JUMPDEST SWAP3 POP DUP3 DUP3 ADD SWAP1 POP DUP1 DUP3 GT ISZERO PUSH2 0x1FBD JUMPI PUSH2 0x1FBC PUSH2 0x1F60 JUMP JUMPDEST JUMPDEST SWAP3 SWAP2 POP POP JUMP JUMPDEST PUSH1 0x0 DUP3 DUP3 MSTORE PUSH1 0x20 DUP3 ADD SWAP1 POP SWAP3 SWAP2 POP POP JUMP JUMPDEST PUSH32 0x42616C616E6365206572726F7200000000000000000000000000000000000000 PUSH1 0x0 DUP3 ADD MSTORE POP JUMP JUMPDEST PUSH1 0x0 PUSH2 0x200A PUSH1 0xD DUP4 PUSH2 0x1FC3 JUMP JUMPDEST SWAP2 POP PUSH2 0x2015 DUP3 PUSH2 0x1FD4 JUMP JUMPDEST PUSH1 0x20 DUP3 ADD SWAP1 POP SWAP2 SWAP1 POP JUMP JUMPDEST PUSH1 0x0 PUSH1 0x20 DUP3 ADD SWAP1 POP DUP2 DUP2 SUB PUSH1 0x0 DUP4 ADD MSTORE PUSH2 0x2039 DUP2 PUSH2 0x1FFD JUMP JUMPDEST SWAP1 POP SWAP2 SWAP1 POP JUMP JUMPDEST PUSH1 0x0 PUSH2 0x204B DUP3 PUSH2 0x1D40 JUMP JUMPDEST SWAP2 POP PUSH2 0x2056 DUP4 PUSH2 0x1D40 JUMP JUMPDEST SWAP3 POP DUP3 DUP3 SUB SWAP1 POP DUP2 DUP2 GT ISZERO PUSH2 0x206E JUMPI PUSH2 0x206D PUSH2 0x1F60 JUMP JUMPDEST JUMPDEST SWAP3 SWAP2 POP POP JUMP JUMPDEST PUSH1 0x0 PUSH2 0x207F DUP3 PUSH2 0x1D40 JUMP JUMPDEST SWAP2 POP PUSH2 0x208A DUP4 PUSH2 0x1D40 JUMP JUMPDEST SWAP3 POP DUP3 DUP3 MUL PUSH2 0x2098 DUP2 PUSH2 0x1D40 JUMP JUMPDEST SWAP2 POP DUP3 DUP3 DIV DUP5 EQ DUP4 ISZERO OR PUSH2 0x20AF JUMPI PUSH2 0x20AE PUSH2 0x1F60 JUMP JUMPDEST JUMPDEST POP SWAP3 SWAP2 POP POP JUMP JUMPDEST PUSH32 0x4E487B7100000000000000000000000000000000000000000000000000000000 PUSH1 0x0 MSTORE PUSH1 0x12 PUSH1 0x4 MSTORE PUSH1 0x24 PUSH1 0x0 REVERT JUMPDEST PUSH1 0x0 PUSH2 0x20F0 DUP3 PUSH2 0x1D40 JUMP JUMPDEST SWAP2 POP PUSH2 0x20FB DUP4 PUSH2 0x1D40 JUMP JUMPDEST SWAP3 POP DUP3 PUSH2 0x210B JUMPI PUSH2 0x210A PUSH2 0x20B6 JUMP JUMPDEST JUMPDEST DUP3 DUP3 DIV SWAP1 POP SWAP3 SWAP2 POP POP JUMP JUMPDEST PUSH1 0x0 PUSH1 0x80 DUP3 ADD SWAP1 POP PUSH2 0x212B PUSH1 0x0 DUP4 ADD DUP8 PUSH2 0x1D4A JUMP JUMPDEST PUSH2 0x2138 PUSH1 0x20 DUP4 ADD DUP7 PUSH2 0x1D4A JUMP JUMPDEST PUSH2 0x2145 PUSH1 0x40 DUP4 ADD DUP6 PUSH2 0x1D4A JUMP JUMPDEST PUSH2 0x2152 PUSH1 0x60 DUP4 ADD DUP5 PUSH2 0x1D4A JUMP JUMPDEST SWAP6 SWAP5 POP POP POP POP POP JUMP JUMPDEST PUSH32 0x4E6F2062616C616E63657320746F206275726E00000000000000000000000000 PUSH1 0x0 DUP3 ADD MSTORE POP JUMP JUMPDEST PUSH1 0x0 PUSH2 0x2191 PUSH1 0x13 DUP4 PUSH2 0x1FC3 JUMP JUMPDEST SWAP2 POP PUSH2 0x219C DUP3 PUSH2 0x215B JUMP JUMPDEST PUSH1 0x20 DUP3 ADD SWAP1 POP SWAP2 SWAP1 POP JUMP JUMPDEST PUSH1 0x0 PUSH1 0x20 DUP3 ADD SWAP1 POP DUP2 DUP2 SUB PUSH1 0x0 DUP4 ADD MSTORE PUSH2 0x21C0 DUP2 PUSH2 0x2184 JUMP JUMPDEST SWAP1 POP SWAP2 SWAP1 POP JUMP JUMPDEST PUSH32 0x496E76616C696420726563697069656E74000000000000000000000000000000 PUSH1 0x0 DUP3 ADD MSTORE POP JUMP JUMPDEST PUSH1 0x0 PUSH2 0x21FD PUSH1 0x11 DUP4 PUSH2 0x1FC3 JUMP JUMPDEST SWAP2 POP PUSH2 0x2208 DUP3 PUSH2 0x21C7 JUMP JUMPDEST PUSH1 0x20 DUP3 ADD SWAP1 POP SWAP2 SWAP1 POP JUMP JUMPDEST PUSH1 0x0 PUSH1 0x20 DUP3 ADD SWAP1 POP DUP2 DUP2 SUB PUSH1 0x0 DUP4 ADD MSTORE PUSH2 0x222C DUP2 PUSH2 0x21F0 JUMP JUMPDEST SWAP1 POP SWAP2 SWAP1 POP JUMP JUMPDEST PUSH32 0x4E6F7420656E6F75676820455448000000000000000000000000000000000000 PUSH1 0x0 DUP3 ADD MSTORE POP JUMP JUMPDEST PUSH1 0x0 PUSH2 0x2269 PUSH1 0xE DUP4 PUSH2 0x1FC3 JUMP JUMPDEST SWAP2 POP PUSH2 0x2274 DUP3 PUSH2 0x2233 JUMP JUMPDEST PUSH1 0x20 DUP3 ADD SWAP1 POP SWAP2 SWAP1 POP JUMP JUMPDEST PUSH1 0x0 PUSH1 0x20 DUP3 ADD SWAP1 POP DUP2 DUP2 SUB PUSH1 0x0 DUP4 ADD MSTORE PUSH2 0x2298 DUP2 PUSH2 0x225C JUMP JUMPDEST SWAP1 POP SWAP2 SWAP1 POP JUMP JUMPDEST PUSH1 0x0 DUP2 SWAP1 POP SWAP3 SWAP2 POP POP JUMP JUMPDEST POP JUMP JUMPDEST PUSH1 0x0 PUSH2 0x22BA PUSH1 0x0 DUP4 PUSH2 0x229F JUMP JUMPDEST SWAP2 POP PUSH2 0x22C5 DUP3 PUSH2 0x22AA JUMP JUMPDEST PUSH1 0x0 DUP3 ADD SWAP1 POP SWAP2 SWAP1 POP JUMP JUMPDEST PUSH1 0x0 PUSH2 0x22DB DUP3 PUSH2 0x22AD JUMP JUMPDEST SWAP2 POP DUP2 SWAP1 POP SWAP2 SWAP1 POP JUMP JUMPDEST PUSH32 0x455448207472616E73666572206661696C656400000000000000000000000000 PUSH1 0x0 DUP3 ADD MSTORE POP JUMP JUMPDEST PUSH1 0x0 PUSH2 0x231B PUSH1 0x13 DUP4 PUSH2 0x1FC3 JUMP JUMPDEST SWAP2 POP PUSH2 0x2326 DUP3 PUSH2 0x22E5 JUMP JUMPDEST PUSH1 0x20 DUP3 ADD SWAP1 POP SWAP2 SWAP1 POP JUMP JUMPDEST PUSH1 0x0 PUSH1 0x20 DUP3 ADD SWAP1 POP DUP2 DUP2 SUB PUSH1 0x0 DUP4 ADD MSTORE PUSH2 0x234A DUP2 PUSH2 0x230E JUMP JUMPDEST SWAP1 POP SWAP2 SWAP1 POP JUMP JUMPDEST PUSH1 0x0 DUP2 SWAP1 POP SWAP2 SWAP1 POP JUMP JUMPDEST PUSH1 0x0 PUSH2 0x2376 PUSH2 0x2371 PUSH2 0x236C DUP5 PUSH2 0x1C6B JUMP JUMPDEST PUSH2 0x2351 JUMP JUMPDEST PUSH2 0x1C6B JUMP JUMPDEST SWAP1 POP SWAP2 SWAP1 POP JUMP JUMPDEST PUSH1 0x0 PUSH2 0x2388 DUP3 PUSH2 0x235B JUMP JUMPDEST SWAP1 POP SWAP2 SWAP1 POP JUMP JUMPDEST PUSH1 0x0 PUSH2 0x239A DUP3 PUSH2 0x237D JUMP JUMPDEST SWAP1 POP SWAP2 SWAP1 POP JUMP JUMPDEST PUSH2 0x23AA DUP2 PUSH2 0x238F JUMP JUMPDEST DUP3 MSTORE POP POP JUMP JUMPDEST PUSH1 0x0 PUSH1 0x40 DUP3 ADD SWAP1 POP PUSH2 0x23C5 PUSH1 0x0 DUP4 ADD DUP6 PUSH2 0x1D4A JUMP JUMPDEST PUSH2 0x23D2 PUSH1 0x20 DUP4 ADD DUP5 PUSH2 0x23A1 JUMP JUMPDEST SWAP4 SWAP3 POP POP POP JUMP JUMPDEST PUSH32 0x4E6F7420656E6F75676820746F6B656E2062616C616E63650000000000000000 PUSH1 0x0 DUP3 ADD MSTORE POP JUMP JUMPDEST PUSH1 0x0 PUSH2 0x240F PUSH1 0x18 DUP4 PUSH2 0x1FC3 JUMP JUMPDEST SWAP2 POP PUSH2 0x241A DUP3 PUSH2 0x23D9 JUMP JUMPDEST PUSH1 0x20 DUP3 ADD SWAP1 POP SWAP2 SWAP1 POP JUMP JUMPDEST PUSH1 0x0 PUSH1 0x20 DUP3 ADD SWAP1 POP DUP2 DUP2 SUB PUSH1 0x0 DUP4 ADD MSTORE PUSH2 0x243E DUP2 PUSH2 0x2402 JUMP JUMPDEST SWAP1 POP SWAP2 SWAP1 POP JUMP JUMPDEST PUSH32 0x4E6F20657863657373205745544E20746F207265736375650000000000000000 PUSH1 0x0 DUP3 ADD MSTORE POP JUMP JUMPDEST PUSH1 0x0 PUSH2 0x247B PUSH1 0x18 DUP4 PUSH2 0x1FC3 JUMP JUMPDEST SWAP2 POP PUSH2 0x2486 DUP3 PUSH2 0x2445 JUMP JUMPDEST PUSH1 0x20 DUP3 ADD SWAP1 POP SWAP2 SWAP1 POP JUMP JUMPDEST PUSH1 0x0 PUSH1 0x20 DUP3 ADD SWAP1 POP DUP2 DUP2 SUB PUSH1 0x0 DUP4 ADD MSTORE PUSH2 0x24AA DUP2 PUSH2 0x246E JUMP JUMPDEST SWAP1 POP SWAP2 SWAP1 POP JUMP JUMPDEST PUSH32 0x416D6F756E74206578636565647320657863657373205745544E000000000000 PUSH1 0x0 DUP3 ADD MSTORE POP JUMP JUMPDEST PUSH1 0x0 PUSH2 0x24E7 PUSH1 0x1A DUP4 PUSH2 0x1FC3 JUMP JUMPDEST SWAP2 POP PUSH2 0x24F2 DUP3 PUSH2 0x24B1 JUMP JUMPDEST PUSH1 0x20 DUP3 ADD SWAP1 POP SWAP2 SWAP1 POP JUMP JUMPDEST PUSH1 0x0 PUSH1 0x20 DUP3 ADD SWAP1 POP DUP2 DUP2 SUB PUSH1 0x0 DUP4 ADD MSTORE PUSH2 0x2516 DUP2 PUSH2 0x24DA JUMP JUMPDEST SWAP1 POP SWAP2 SWAP1 POP JUMP JUMPDEST PUSH1 0x0 PUSH1 0x40 DUP3 ADD SWAP1 POP PUSH2 0x2532 PUSH1 0x0 DUP4 ADD DUP6 PUSH2 0x1C9D JUMP JUMPDEST PUSH2 0x253F PUSH1 0x20 DUP4 ADD DUP5 PUSH2 0x1D4A JUMP JUMPDEST SWAP4 SWAP3 POP POP POP JUMP JUMPDEST PUSH1 0x0 DUP2 MLOAD SWAP1 POP PUSH2 0x2555 DUP2 PUSH2 0x1CE7 JUMP JUMPDEST SWAP3 SWAP2 POP POP JUMP JUMPDEST PUSH1 0x0 PUSH1 0x20 DUP3 DUP5 SUB SLT ISZERO PUSH2 0x2571 JUMPI PUSH2 0x2570 PUSH2 0x1CD1 JUMP JUMPDEST JUMPDEST PUSH1 0x0 PUSH2 0x257F DUP5 DUP3 DUP6 ADD PUSH2 0x2546 JUMP JUMPDEST SWAP2 POP POP SWAP3 SWAP2 POP POP JUMP JUMPDEST PUSH32 0x546F6B656E207472616E73666572206661696C65640000000000000000000000 PUSH1 0x0 DUP3 ADD MSTORE POP JUMP JUMPDEST PUSH1 0x0 PUSH2 0x25BE PUSH1 0x15 DUP4 PUSH2 0x1FC3 JUMP JUMPDEST SWAP2 POP PUSH2 0x25C9 DUP3 PUSH2 0x2588 JUMP JUMPDEST PUSH1 0x20 DUP3 ADD SWAP1 POP SWAP2 SWAP1 POP JUMP JUMPDEST PUSH1 0x0 PUSH1 0x20 DUP3 ADD SWAP1 POP DUP2 DUP2 SUB PUSH1 0x0 DUP4 ADD MSTORE PUSH2 0x25ED DUP2 PUSH2 0x25B1 JUMP JUMPDEST SWAP1 POP SWAP2 SWAP1 POP JUMP JUMPDEST PUSH1 0x0 PUSH1 0x60 DUP3 ADD SWAP1 POP PUSH2 0x2609 PUSH1 0x0 DUP4 ADD DUP7 PUSH2 0x1C9D JUMP JUMPDEST PUSH2 0x2616 PUSH1 0x20 DUP4 ADD DUP6 PUSH2 0x1D4A JUMP JUMPDEST PUSH2 0x2623 PUSH1 0x40 DUP4 ADD DUP5 PUSH2 0x1C9D JUMP JUMPDEST SWAP5 SWAP4 POP POP POP POP JUMP JUMPDEST PUSH32 0x436F72652077616C6C6574207472616E73666572206661696C65640000000000 PUSH1 0x0 DUP3 ADD MSTORE POP JUMP JUMPDEST PUSH1 0x0 PUSH2 0x2661 PUSH1 0x1B DUP4 PUSH2 0x1FC3 JUMP JUMPDEST SWAP2 POP PUSH2 0x266C DUP3 PUSH2 0x262B JUMP JUMPDEST PUSH1 0x20 DUP3 ADD SWAP1 POP SWAP2 SWAP1 POP JUMP JUMPDEST PUSH1 0x0 PUSH1 0x20 DUP3 ADD SWAP1 POP DUP2 DUP2 SUB PUSH1 0x0 DUP4 ADD MSTORE PUSH2 0x2690 DUP2 PUSH2 0x2654 JUMP JUMPDEST SWAP1 POP SWAP2 SWAP1 POP JUMP JUMPDEST PUSH32 0x5465616D2077616C6C6574207472616E73666572206661696C65640000000000 PUSH1 0x0 DUP3 ADD MSTORE POP JUMP JUMPDEST PUSH1 0x0 PUSH2 0x26CD PUSH1 0x1B DUP4 PUSH2 0x1FC3 JUMP JUMPDEST SWAP2 POP PUSH2 0x26D8 DUP3 PUSH2 0x2697 JUMP JUMPDEST PUSH1 0x20 DUP3 ADD SWAP1 POP SWAP2 SWAP1 POP JUMP JUMPDEST PUSH1 0x0 PUSH1 0x20 DUP3 ADD SWAP1 POP DUP2 DUP2 SUB PUSH1 0x0 DUP4 ADD MSTORE PUSH2 0x26FC DUP2 PUSH2 0x26C0 JUMP JUMPDEST SWAP1 POP SWAP2 SWAP1 POP JUMP JUMPDEST PUSH32 0x556E617574686F72697A65640000000000000000000000000000000000000000 PUSH1 0x0 DUP3 ADD MSTORE POP JUMP JUMPDEST PUSH1 0x0 PUSH2 0x2739 PUSH1 0xC DUP4 PUSH2 0x1FC3 JUMP JUMPDEST SWAP2 POP PUSH2 0x2744 DUP3 PUSH2 0x2703 JUMP JUMPDEST PUSH1 0x20 DUP3 ADD SWAP1 POP SWAP2 SWAP1 POP JUMP JUMPDEST PUSH1 0x0 PUSH1 0x20 DUP3 ADD SWAP1 POP DUP2 DUP2 SUB PUSH1 0x0 DUP4 ADD MSTORE PUSH2 0x2768 DUP2 PUSH2 0x272C JUMP JUMPDEST SWAP1 POP SWAP2 SWAP1 POP JUMP JUMPDEST PUSH32 0x4E6F20636F72652062616C616E636520746F206275726E000000000000000000 PUSH1 0x0 DUP3 ADD MSTORE POP JUMP JUMPDEST PUSH1 0x0 PUSH2 0x27A5 PUSH1 0x17 DUP4 PUSH2 0x1FC3 JUMP JUMPDEST SWAP2 POP PUSH2 0x27B0 DUP3 PUSH2 0x276F JUMP JUMPDEST PUSH1 0x20 DUP3 ADD SWAP1 POP SWAP2 SWAP1 POP JUMP JUMPDEST PUSH1 0x0 PUSH1 0x20 DUP3 ADD SWAP1 POP DUP2 DUP2 SUB PUSH1 0x0 DUP4 ADD MSTORE PUSH2 0x27D4 DUP2 PUSH2 0x2798 JUMP JUMPDEST SWAP1 POP SWAP2 SWAP1 POP JUMP JUMPDEST PUSH1 0x0 DUP2 PUSH1 0x60 SHL SWAP1 POP SWAP2 SWAP1 POP JUMP JUMPDEST PUSH1 0x0 PUSH2 0x27F3 DUP3 PUSH2 0x27DB JUMP JUMPDEST SWAP1 POP SWAP2 SWAP1 POP JUMP JUMPDEST PUSH1 0x0 PUSH2 0x2805 DUP3 PUSH2 0x27E8 JUMP JUMPDEST SWAP1 POP SWAP2 SWAP1 POP JUMP JUMPDEST PUSH2 0x281D PUSH2 0x2818 DUP3 PUSH2 0x1C8B JUMP JUMPDEST PUSH2 0x27FA JUMP JUMPDEST DUP3 MSTORE POP POP JUMP JUMPDEST PUSH1 0x0 PUSH3 0xFFFFFF DUP3 AND SWAP1 POP SWAP2 SWAP1 POP JUMP JUMPDEST PUSH1 0x0 DUP2 PUSH1 0xE8 SHL SWAP1 POP SWAP2 SWAP1 POP JUMP JUMPDEST PUSH1 0x0 PUSH2 0x284A DUP3 PUSH2 0x2832 JUMP JUMPDEST SWAP1 POP SWAP2 SWAP1 POP JUMP JUMPDEST PUSH2 0x2862 PUSH2 0x285D DUP3 PUSH2 0x2823 JUMP JUMPDEST PUSH2 0x283F JUMP JUMPDEST DUP3 MSTORE POP POP JUMP JUMPDEST PUSH1 0x0 PUSH2 0x2874 DUP3 DUP7 PUSH2 0x280C JUMP JUMPDEST PUSH1 0x14 DUP3 ADD SWAP2 POP PUSH2 0x2884 DUP3 DUP6 PUSH2 0x2851 JUMP JUMPDEST PUSH1 0x3 DUP3 ADD SWAP2 POP PUSH2 0x2894 DUP3 DUP5 PUSH2 0x280C JUMP JUMPDEST PUSH1 0x14 DUP3 ADD SWAP2 POP DUP2 SWAP1 POP SWAP5 SWAP4 POP POP POP POP JUMP JUMPDEST PUSH1 0x0 DUP2 MLOAD SWAP1 POP SWAP2 SWAP1 POP JUMP JUMPDEST PUSH1 0x0 DUP3 DUP3 MSTORE PUSH1 0x20 DUP3 ADD SWAP1 POP SWAP3 SWAP2 POP POP JUMP JUMPDEST PUSH1 0x0 JUMPDEST DUP4 DUP2 LT ISZERO PUSH2 0x28DF JUMPI DUP1 DUP3 ADD MLOAD DUP2 DUP5 ADD MSTORE PUSH1 0x20 DUP2 ADD SWAP1 POP PUSH2 0x28C4 JUMP JUMPDEST PUSH1 0x0 DUP5 DUP5 ADD MSTORE POP POP POP POP JUMP JUMPDEST PUSH1 0x0 PUSH1 0x1F NOT PUSH1 0x1F DUP4 ADD AND SWAP1 POP SWAP2 SWAP1 POP JUMP JUMPDEST PUSH1 0x0 PUSH2 0x2907 DUP3 PUSH2 0x28A5 JUMP JUMPDEST PUSH2 0x2911 DUP2 DUP6 PUSH2 0x28B0 JUMP JUMPDEST SWAP4 POP PUSH2 0x2921 DUP2 DUP6 PUSH1 0x20 DUP7 ADD PUSH2 0x28C1 JUMP JUMPDEST PUSH2 0x292A DUP2 PUSH2 0x28EB JUMP JUMPDEST DUP5 ADD SWAP2 POP POP SWAP3 SWAP2 POP POP JUMP JUMPDEST PUSH2 0x293E DUP2 PUSH2 0x1C8B JUMP JUMPDEST DUP3 MSTORE POP POP JUMP JUMPDEST PUSH2 0x294D DUP2 PUSH2 0x1D40 JUMP JUMPDEST DUP3 MSTORE POP POP JUMP JUMPDEST PUSH1 0x0 PUSH1 0x80 DUP4 ADD PUSH1 0x0 DUP4 ADD MLOAD DUP5 DUP3 SUB PUSH1 0x0 DUP7 ADD MSTORE PUSH2 0x2970 DUP3 DUP3 PUSH2 0x28FC JUMP JUMPDEST SWAP2 POP POP PUSH1 0x20 DUP4 ADD MLOAD PUSH2 0x2985 PUSH1 0x20 DUP7 ADD DUP3 PUSH2 0x2935 JUMP JUMPDEST POP PUSH1 0x40 DUP4 ADD MLOAD PUSH2 0x2998 PUSH1 0x40 DUP7 ADD DUP3 PUSH2 0x2944 JUMP JUMPDEST POP PUSH1 0x60 DUP4 ADD MLOAD PUSH2 0x29AB PUSH1 0x60 DUP7 ADD DUP3 PUSH2 0x2944 JUMP JUMPDEST POP DUP1 SWAP2 POP POP SWAP3 SWAP2 POP POP JUMP JUMPDEST PUSH1 0x0 PUSH1 0x20 DUP3 ADD SWAP1 POP DUP2 DUP2 SUB PUSH1 0x0 DUP4 ADD MSTORE PUSH2 0x29D0 DUP2 DUP5 PUSH2 0x2953 JUMP JUMPDEST SWAP1 POP SWAP3 SWAP2 POP POP JUMP JUMPDEST PUSH32 0x4E487B7100000000000000000000000000000000000000000000000000000000 PUSH1 0x0 MSTORE PUSH1 0x41 PUSH1 0x4 MSTORE PUSH1 0x24 PUSH1 0x0 REVERT JUMPDEST PUSH32 0x4E487B7100000000000000000000000000000000000000000000000000000000 PUSH1 0x0 MSTORE PUSH1 0x32 PUSH1 0x4 MSTORE PUSH1 0x24 PUSH1 0x0 REVERT JUMPDEST PUSH1 0x0 DUP2 MLOAD SWAP1 POP SWAP2 SWAP1 POP JUMP JUMPDEST PUSH1 0x0 DUP3 DUP3 MSTORE PUSH1 0x20 DUP3 ADD SWAP1 POP SWAP3 SWAP2 POP POP JUMP JUMPDEST PUSH1 0x0 DUP2 SWAP1 POP PUSH1 0x20 DUP3 ADD SWAP1 POP SWAP2 SWAP1 POP JUMP JUMPDEST PUSH1 0x0 PUSH2 0x2A6E DUP4 DUP4 PUSH2 0x2935 JUMP JUMPDEST PUSH1 0x20 DUP4 ADD SWAP1 POP SWAP3 SWAP2 POP POP JUMP JUMPDEST PUSH1 0x0 PUSH1 0x20 DUP3 ADD SWAP1 POP SWAP2 SWAP1 POP JUMP JUMPDEST PUSH1 0x0 PUSH2 0x2A92 DUP3 PUSH2 0x2A36 JUMP JUMPDEST PUSH2 0x2A9C DUP2 DUP6 PUSH2 0x2A41 JUMP JUMPDEST SWAP4 POP PUSH2 0x2AA7 DUP4 PUSH2 0x2A52 JUMP JUMPDEST DUP1 PUSH1 0x0 JUMPDEST DUP4 DUP2 LT ISZERO PUSH2 0x2AD8 JUMPI DUP2 MLOAD PUSH2 0x2ABF DUP9 DUP3 PUSH2 0x2A62 JUMP JUMPDEST SWAP8 POP PUSH2 0x2ACA DUP4 PUSH2 0x2A7A JUMP JUMPDEST SWAP3 POP POP PUSH1 0x1 DUP2 ADD SWAP1 POP PUSH2 0x2AAB JUMP JUMPDEST POP DUP6 SWAP4 POP POP POP POP SWAP3 SWAP2 POP POP JUMP JUMPDEST PUSH1 0x0 PUSH1 0x40 DUP3 ADD SWAP1 POP PUSH2 0x2AFA PUSH1 0x0 DUP4 ADD DUP6 PUSH2 0x1D4A JUMP JUMPDEST DUP2 DUP2 SUB PUSH1 0x20 DUP4 ADD MSTORE PUSH2 0x2B0C DUP2 DUP5 PUSH2 0x2A87 JUMP JUMPDEST SWAP1 POP SWAP4 SWAP3 POP POP POP JUMP JUMPDEST PUSH1 0x0 DUP1 REVERT JUMPDEST PUSH2 0x2B23 DUP3 PUSH2 0x28EB JUMP JUMPDEST DUP2 ADD DUP2 DUP2 LT PUSH8 0xFFFFFFFFFFFFFFFF DUP3 GT OR ISZERO PUSH2 0x2B42 JUMPI PUSH2 0x2B41 PUSH2 0x29D8 JUMP JUMPDEST JUMPDEST DUP1 PUSH1 0x40 MSTORE POP POP POP JUMP JUMPDEST PUSH1 0x0 PUSH2 0x2B55 PUSH2 0x1CC7 JUMP JUMPDEST SWAP1 POP PUSH2 0x2B61 DUP3 DUP3 PUSH2 0x2B1A JUMP JUMPDEST SWAP2 SWAP1 POP JUMP JUMPDEST PUSH1 0x0 PUSH8 0xFFFFFFFFFFFFFFFF DUP3 GT ISZERO PUSH2 0x2B81 JUMPI PUSH2 0x2B80 PUSH2 0x29D8 JUMP JUMPDEST JUMPDEST PUSH1 0x20 DUP3 MUL SWAP1 POP PUSH1 0x20 DUP2 ADD SWAP1 POP SWAP2 SWAP1 POP JUMP JUMPDEST PUSH1 0x0 DUP1 REVERT JUMPDEST PUSH1 0x0 PUSH2 0x2BAA PUSH2 0x2BA5 DUP5 PUSH2 0x2B66 JUMP JUMPDEST PUSH2 0x2B4B JUMP JUMPDEST SWAP1 POP DUP1 DUP4 DUP3 MSTORE PUSH1 0x20 DUP3 ADD SWAP1 POP PUSH1 0x20 DUP5 MUL DUP4 ADD DUP6 DUP2 GT ISZERO PUSH2 0x2BCD JUMPI PUSH2 0x2BCC PUSH2 0x2B92 JUMP JUMPDEST JUMPDEST DUP4 JUMPDEST DUP2 DUP2 LT ISZERO PUSH2 0x2BF6 JUMPI DUP1 PUSH2 0x2BE2 DUP9 DUP3 PUSH2 0x1F1E JUMP JUMPDEST DUP5 MSTORE PUSH1 0x20 DUP5 ADD SWAP4 POP POP PUSH1 0x20 DUP2 ADD SWAP1 POP PUSH2 0x2BCF JUMP JUMPDEST POP POP POP SWAP4 SWAP3 POP POP POP JUMP JUMPDEST PUSH1 0x0 DUP3 PUSH1 0x1F DUP4 ADD SLT PUSH2 0x2C15 JUMPI PUSH2 0x2C14 PUSH2 0x2B15 JUMP JUMPDEST JUMPDEST DUP2 MLOAD PUSH2 0x2C25 DUP5 DUP3 PUSH1 0x20 DUP7 ADD PUSH2 0x2B97 JUMP JUMPDEST SWAP2 POP POP SWAP3 SWAP2 POP POP JUMP JUMPDEST PUSH1 0x0 PUSH1 0x20 DUP3 DUP5 SUB SLT ISZERO PUSH2 0x2C44 JUMPI PUSH2 0x2C43 PUSH2 0x1CD1 JUMP JUMPDEST JUMPDEST PUSH1 0x0 DUP3 ADD MLOAD PUSH8 0xFFFFFFFFFFFFFFFF DUP2 GT ISZERO PUSH2 0x2C62 JUMPI PUSH2 0x2C61 PUSH2 0x1CD6 JUMP JUMPDEST JUMPDEST PUSH2 0x2C6E DUP5 DUP3 DUP6 ADD PUSH2 0x2C00 JUMP JUMPDEST SWAP2 POP POP SWAP3 SWAP2 POP POP JUMP JUMPDEST PUSH1 0x0 PUSH1 0xA0 DUP3 ADD SWAP1 POP PUSH2 0x2C8C PUSH1 0x0 DUP4 ADD DUP9 PUSH2 0x1D4A JUMP JUMPDEST PUSH2 0x2C99 PUSH1 0x20 DUP4 ADD DUP8 PUSH2 0x1D4A JUMP JUMPDEST DUP2 DUP2 SUB PUSH1 0x40 DUP4 ADD MSTORE PUSH2 0x2CAB DUP2 DUP7 PUSH2 0x2A87 JUMP JUMPDEST SWAP1 POP PUSH2 0x2CBA PUSH1 0x60 DUP4 ADD DUP6 PUSH2 0x1C9D JUMP JUMPDEST PUSH2 0x2CC7 PUSH1 0x80 DUP4 ADD DUP5 PUSH2 0x1D4A JUMP JUMPDEST SWAP7 SWAP6 POP POP POP POP POP POP JUMP INVALID LOG2 PUSH5 0x6970667358 0x22 SLT KECCAK256 MOD NUMBER 0xEF EXTCODECOPY PUSH32 0x264CA7E8EE76D489EE0840B75E8242ED0708EEF4509C3527EB4CD864736F6C63 NUMBER STOP ADDMOD EQ STOP CALLER "
				},
				"gasEstimates": {
					"creation": {
						"codeDepositCost": "2305400",
						"executionCost": "infinite",
						"totalCost": "infinite"
					},
					"external": {
						"": "infinite",
						"BURN_ADDRESS()": "infinite",
						"DEAD_ADDRESS()": "infinite",
						"WETN()": "infinite",
						"autoBuyAndBurn()": "2493",
						"autoBuyAndBurnCore()": "2566",
						"club()": "infinite",
						"clubBalance()": "2519",
						"coreBalance()": "2452",
						"coreToken()": "infinite",
						"coreWallet()": "infinite",
						"manualBuyAndBurn()": "infinite",
						"manualBuyAndBurnCore()": "infinite",
						"owner()": "2611",
						"processIncomingTokens()": "2743",
						"renounceOwnership()": "infinite",
						"rescueETH(uint256,address)": "infinite",
						"rescueTokens(address,uint256,address)": "infinite",
						"setAutoBuyAndBurn(bool)": "infinite",
						"setAutoBuyAndBurnCore(bool)": "infinite",
						"teamBalance()": "2496",
						"teamWallet()": "infinite",
						"teamWithdraw()": "infinite",
						"transferOwnership(address)": "infinite"
					},
					"internal": {
						"_buyAndBurn()": "infinite",
						"_buyAndBurnCore()": "infinite",
						"_processIncomingFee(uint256)": "infinite"
					}
				},
				"methodIdentifiers": {
					"BURN_ADDRESS()": "fccc2813",
					"DEAD_ADDRESS()": "4e6fd6c4",
					"WETN()": "66650b7b",
					"autoBuyAndBurn()": "ba779ed5",
					"autoBuyAndBurnCore()": "7581aa60",
					"club()": "0efd0973",
					"clubBalance()": "3d65de44",
					"coreBalance()": "7499aff4",
					"coreToken()": "0c2b72e9",
					"coreWallet()": "62ab05e7",
					"manualBuyAndBurn()": "57d1fdcd",
					"manualBuyAndBurnCore()": "dc1a4d9e",
					"owner()": "8da5cb5b",
					"processIncomingTokens()": "dc05a309",
					"renounceOwnership()": "715018a6",
					"rescueETH(uint256,address)": "a0558c3f",
					"rescueTokens(address,uint256,address)": "b37fd190",
					"setAutoBuyAndBurn(bool)": "2b7459b9",
					"setAutoBuyAndBurnCore(bool)": "6cdf0e40",
					"teamBalance()": "89e85217",
					"teamWallet()": "59927044",
					"teamWithdraw()": "cfbb7d36",
					"transferOwnership(address)": "f2fde38b"
				}
			},
			"storageLayout": {
				"storage": [
					{
						"astId": 188,
						"contract": "contracts/PlanetZephyrosFeeReflection.sol:PlanetZephyrosFeeReflection",
						"label": "_status",
						"offset": 0,
						"slot": "0",
						"type": "t_uint256"
					},
					{
						"astId": 8,
						"contract": "contracts/PlanetZephyrosFeeReflection.sol:PlanetZephyrosFeeReflection",
						"label": "_owner",
						"offset": 0,
						"slot": "1",
						"type": "t_address"
					},
					{
						"astId": 279,
						"contract": "contracts/PlanetZephyrosFeeReflection.sol:PlanetZephyrosFeeReflection",
						"label": "v3Router",
						"offset": 0,
						"slot": "2",
						"type": "t_contract(V3Router)1072"
					},
					{
						"astId": 282,
						"contract": "contracts/PlanetZephyrosFeeReflection.sol:PlanetZephyrosFeeReflection",
						"label": "v2Router",
						"offset": 0,
						"slot": "3",
						"type": "t_contract(UniswapV2Router)1101"
					},
					{
						"astId": 284,
						"contract": "contracts/PlanetZephyrosFeeReflection.sol:PlanetZephyrosFeeReflection",
						"label": "clubBalance",
						"offset": 0,
						"slot": "4",
						"type": "t_uint256"
					},
					{
						"astId": 286,
						"contract": "contracts/PlanetZephyrosFeeReflection.sol:PlanetZephyrosFeeReflection",
						"label": "coreBalance",
						"offset": 0,
						"slot": "5",
						"type": "t_uint256"
					},
					{
						"astId": 288,
						"contract": "contracts/PlanetZephyrosFeeReflection.sol:PlanetZephyrosFeeReflection",
						"label": "teamBalance",
						"offset": 0,
						"slot": "6",
						"type": "t_uint256"
					},
					{
						"astId": 290,
						"contract": "contracts/PlanetZephyrosFeeReflection.sol:PlanetZephyrosFeeReflection",
						"label": "autoBuyAndBurn",
						"offset": 0,
						"slot": "7",
						"type": "t_bool"
					},
					{
						"astId": 292,
						"contract": "contracts/PlanetZephyrosFeeReflection.sol:PlanetZephyrosFeeReflection",
						"label": "autoBuyAndBurnCore",
						"offset": 1,
						"slot": "7",
						"type": "t_bool"
					}
				],
				"types": {
					"t_address": {
						"encoding": "inplace",
						"label": "address",
						"numberOfBytes": "20"
					},
					"t_bool": {
						"encoding": "inplace",
						"label": "bool",
						"numberOfBytes": "1"
					},
					"t_contract(UniswapV2Router)1101": {
						"encoding": "inplace",
						"label": "contract UniswapV2Router",
						"numberOfBytes": "20"
					},
					"t_contract(V3Router)1072": {
						"encoding": "inplace",
						"label": "contract V3Router",
						"numberOfBytes": "20"
					},
					"t_uint256": {
						"encoding": "inplace",
						"label": "uint256",
						"numberOfBytes": "32"
					}
				}
			},
			"userdoc": {
				"kind": "user",
				"methods": {
					"rescueETH(uint256,address)": {
						"notice": "Rescue any ETH accidentally sent to the contract"
					},
					"rescueTokens(address,uint256,address)": {
						"notice": "Rescue any ERC20 tokens (including WETN if not part of tracked balances)"
					}
				},
				"version": 1
			}
		}
	}
}