{
	"contracts/PlanetZephyrosV1.sol": {
		"PlanetZephyros": {
			"abi": [
				{
					"inputs": [],
					"stateMutability": "nonpayable",
					"type": "constructor"
				},
				{
					"anonymous": false,
					"inputs": [
						{
							"indexed": true,
							"internalType": "address",
							"name": "owner",
							"type": "address"
						},
						{
							"indexed": true,
							"internalType": "address",
							"name": "spender",
							"type": "address"
						},
						{
							"indexed": false,
							"internalType": "uint256",
							"name": "value",
							"type": "uint256"
						}
					],
					"name": "Approval",
					"type": "event"
				},
				{
					"anonymous": false,
					"inputs": [
						{
							"indexed": true,
							"internalType": "address",
							"name": "previousOwner",
							"type": "address"
						},
						{
							"indexed": true,
							"internalType": "address",
							"name": "newOwner",
							"type": "address"
						}
					],
					"name": "OwnershipTransferred",
					"type": "event"
				},
				{
					"anonymous": false,
					"inputs": [
						{
							"indexed": true,
							"internalType": "address",
							"name": "account",
							"type": "address"
						},
						{
							"indexed": false,
							"internalType": "bool",
							"name": "isExempt",
							"type": "bool"
						}
					],
					"name": "TaxExemptionUpdated",
					"type": "event"
				},
				{
					"anonymous": false,
					"inputs": [
						{
							"indexed": true,
							"internalType": "address",
							"name": "previousTaxWallet",
							"type": "address"
						},
						{
							"indexed": true,
							"internalType": "address",
							"name": "newTaxWallet",
							"type": "address"
						}
					],
					"name": "TaxWalletUpdated",
					"type": "event"
				},
				{
					"anonymous": false,
					"inputs": [
						{
							"indexed": false,
							"internalType": "bool",
							"name": "paused",
							"type": "bool"
						}
					],
					"name": "TaxesPaused",
					"type": "event"
				},
				{
					"anonymous": false,
					"inputs": [
						{
							"indexed": true,
							"internalType": "address",
							"name": "from",
							"type": "address"
						},
						{
							"indexed": true,
							"internalType": "address",
							"name": "to",
							"type": "address"
						},
						{
							"indexed": false,
							"internalType": "uint256",
							"name": "value",
							"type": "uint256"
						}
					],
					"name": "Transfer",
					"type": "event"
				},
				{
					"inputs": [
						{
							"internalType": "address",
							"name": "owner_",
							"type": "address"
						},
						{
							"internalType": "address",
							"name": "spender",
							"type": "address"
						}
					],
					"name": "allowance",
					"outputs": [
						{
							"internalType": "uint256",
							"name": "",
							"type": "uint256"
						}
					],
					"stateMutability": "view",
					"type": "function"
				},
				{
					"inputs": [
						{
							"internalType": "address",
							"name": "spender",
							"type": "address"
						},
						{
							"internalType": "uint256",
							"name": "amount",
							"type": "uint256"
						}
					],
					"name": "approve",
					"outputs": [
						{
							"internalType": "bool",
							"name": "",
							"type": "bool"
						}
					],
					"stateMutability": "nonpayable",
					"type": "function"
				},
				{
					"inputs": [
						{
							"internalType": "address",
							"name": "account",
							"type": "address"
						}
					],
					"name": "balanceOf",
					"outputs": [
						{
							"internalType": "uint256",
							"name": "",
							"type": "uint256"
						}
					],
					"stateMutability": "view",
					"type": "function"
				},
				{
					"inputs": [
						{
							"internalType": "uint256",
							"name": "amount",
							"type": "uint256"
						}
					],
					"name": "burn",
					"outputs": [],
					"stateMutability": "nonpayable",
					"type": "function"
				},
				{
					"inputs": [],
					"name": "burnRatio",
					"outputs": [
						{
							"internalType": "uint256",
							"name": "",
							"type": "uint256"
						}
					],
					"stateMutability": "view",
					"type": "function"
				},
				{
					"inputs": [],
					"name": "currentBuyBps",
					"outputs": [
						{
							"internalType": "uint256",
							"name": "",
							"type": "uint256"
						}
					],
					"stateMutability": "view",
					"type": "function"
				},
				{
					"inputs": [],
					"name": "currentSellBps",
					"outputs": [
						{
							"internalType": "uint256",
							"name": "",
							"type": "uint256"
						}
					],
					"stateMutability": "view",
					"type": "function"
				},
				{
					"inputs": [],
					"name": "decimals",
					"outputs": [
						{
							"internalType": "uint8",
							"name": "",
							"type": "uint8"
						}
					],
					"stateMutability": "view",
					"type": "function"
				},
				{
					"inputs": [],
					"name": "enableTrading",
					"outputs": [],
					"stateMutability": "nonpayable",
					"type": "function"
				},
				{
					"inputs": [],
					"name": "initialSupply",
					"outputs": [
						{
							"internalType": "uint256",
							"name": "",
							"type": "uint256"
						}
					],
					"stateMutability": "view",
					"type": "function"
				},
				{
					"inputs": [
						{
							"internalType": "address",
							"name": "",
							"type": "address"
						}
					],
					"name": "isExemptFromTax",
					"outputs": [
						{
							"internalType": "bool",
							"name": "",
							"type": "bool"
						}
					],
					"stateMutability": "view",
					"type": "function"
				},
				{
					"inputs": [],
					"name": "name",
					"outputs": [
						{
							"internalType": "string",
							"name": "",
							"type": "string"
						}
					],
					"stateMutability": "view",
					"type": "function"
				},
				{
					"inputs": [],
					"name": "owner",
					"outputs": [
						{
							"internalType": "address",
							"name": "",
							"type": "address"
						}
					],
					"stateMutability": "view",
					"type": "function"
				},
				{
					"inputs": [],
					"name": "pairAddress",
					"outputs": [
						{
							"internalType": "address",
							"name": "",
							"type": "address"
						}
					],
					"stateMutability": "view",
					"type": "function"
				},
				{
					"inputs": [],
					"name": "routerAddress",
					"outputs": [
						{
							"internalType": "address",
							"name": "",
							"type": "address"
						}
					],
					"stateMutability": "view",
					"type": "function"
				},
				{
					"inputs": [
						{
							"internalType": "uint256",
							"name": "amount",
							"type": "uint256"
						},
						{
							"internalType": "uint256",
							"name": "minOut",
							"type": "uint256"
						},
						{
							"internalType": "address",
							"name": "to",
							"type": "address"
						}
					],
					"name": "sellWithTax",
					"outputs": [],
					"stateMutability": "nonpayable",
					"type": "function"
				},
				{
					"inputs": [
						{
							"internalType": "address",
							"name": "account",
							"type": "address"
						},
						{
							"internalType": "bool",
							"name": "isExempt",
							"type": "bool"
						}
					],
					"name": "setTaxExemption",
					"outputs": [],
					"stateMutability": "nonpayable",
					"type": "function"
				},
				{
					"inputs": [
						{
							"internalType": "address",
							"name": "_pair",
							"type": "address"
						}
					],
					"name": "setUniswapPair",
					"outputs": [],
					"stateMutability": "nonpayable",
					"type": "function"
				},
				{
					"inputs": [],
					"name": "symbol",
					"outputs": [
						{
							"internalType": "string",
							"name": "",
							"type": "string"
						}
					],
					"stateMutability": "view",
					"type": "function"
				},
				{
					"inputs": [],
					"name": "taxWallet",
					"outputs": [
						{
							"internalType": "address",
							"name": "",
							"type": "address"
						}
					],
					"stateMutability": "view",
					"type": "function"
				},
				{
					"inputs": [],
					"name": "taxesPaused",
					"outputs": [
						{
							"internalType": "bool",
							"name": "",
							"type": "bool"
						}
					],
					"stateMutability": "view",
					"type": "function"
				},
				{
					"inputs": [],
					"name": "toggleTaxesPaused",
					"outputs": [],
					"stateMutability": "nonpayable",
					"type": "function"
				},
				{
					"inputs": [],
					"name": "totalSupply",
					"outputs": [
						{
							"internalType": "uint256",
							"name": "",
							"type": "uint256"
						}
					],
					"stateMutability": "view",
					"type": "function"
				},
				{
					"inputs": [],
					"name": "tradingEnabled",
					"outputs": [
						{
							"internalType": "bool",
							"name": "",
							"type": "bool"
						}
					],
					"stateMutability": "view",
					"type": "function"
				},
				{
					"inputs": [
						{
							"internalType": "address",
							"name": "recipient",
							"type": "address"
						},
						{
							"internalType": "uint256",
							"name": "amount",
							"type": "uint256"
						}
					],
					"name": "transfer",
					"outputs": [
						{
							"internalType": "bool",
							"name": "",
							"type": "bool"
						}
					],
					"stateMutability": "nonpayable",
					"type": "function"
				},
				{
					"inputs": [
						{
							"internalType": "address",
							"name": "sender",
							"type": "address"
						},
						{
							"internalType": "address",
							"name": "recipient",
							"type": "address"
						},
						{
							"internalType": "uint256",
							"name": "amount",
							"type": "uint256"
						}
					],
					"name": "transferFrom",
					"outputs": [
						{
							"internalType": "bool",
							"name": "",
							"type": "bool"
						}
					],
					"stateMutability": "nonpayable",
					"type": "function"
				},
				{
					"inputs": [
						{
							"internalType": "address",
							"name": "_newTaxWallet",
							"type": "address"
						}
					],
					"name": "transferTaxWallet",
					"outputs": [],
					"stateMutability": "nonpayable",
					"type": "function"
				}
			],
			"devdoc": {
				"kind": "dev",
				"methods": {},
				"version": 1
			},
			"evm": {
				"assembly": "    /* \"contracts/PlanetZephyrosV1.sol\":548:8510  contract PlanetZephyros {... */\n  mstore(0x40, 0xc0)\n    /* \"contracts/PlanetZephyrosV1.sol\":579:617  string public name = \"Planet Zephyros\" */\n  mload(0x40)\n  dup1\n  0x40\n  add\n  0x40\n  mstore\n  dup1\n  0x0f\n  dup2\n  mstore\n  0x20\n  add\n  0x506c616e6574205a65706879726f730000000000000000000000000000000000\n  dup2\n  mstore\n  pop\n  0x00\n  swap1\n  dup2\n  tag_1\n  swap2\n  swap1\n  tag_2\n  jump\t// in\ntag_1:\n  pop\n    /* \"contracts/PlanetZephyrosV1.sol\":624:653  string public symbol = \"CORE\" */\n  mload(0x40)\n  dup1\n  0x40\n  add\n  0x40\n  mstore\n  dup1\n  0x04\n  dup2\n  mstore\n  0x20\n  add\n  0x434f524500000000000000000000000000000000000000000000000000000000\n  dup2\n  mstore\n  pop\n  0x01\n  swap1\n  dup2\n  tag_3\n  swap2\n  swap1\n  tag_2\n  jump\t// in\ntag_3:\n  pop\n    /* \"contracts/PlanetZephyrosV1.sol\":684:686  18 */\n  0x12\n    /* \"contracts/PlanetZephyrosV1.sol\":660:686  uint8 public decimals = 18 */\n  0x02\n  exp(0x0100, 0x00)\n  dup2\n  sload\n  dup2\n  0xff\n  mul\n  not\n  and\n  swap1\n  dup4\n  0xff\n  and\n  mul\n  or\n  swap1\n  sstore\n  pop\n    /* \"contracts/PlanetZephyrosV1.sol\":820:862  0x4Eb4b9Ce208711A0EA1BefF57C83BD66BC563378 */\n  0x4eb4b9ce208711a0ea1beff57c83bd66bc563378\n    /* \"contracts/PlanetZephyrosV1.sol\":793:862  address public taxWallet = 0x4Eb4b9Ce208711A0EA1BefF57C83BD66BC563378 */\n  0x04\n  exp(0x0100, 0x00)\n  dup2\n  sload\n  dup2\n  0xffffffffffffffffffffffffffffffffffffffff\n  mul\n  not\n  and\n  swap1\n  dup4\n  0xffffffffffffffffffffffffffffffffffffffff\n  and\n  mul\n  or\n  swap1\n  sstore\n  pop\n    /* \"contracts/PlanetZephyrosV1.sol\":910:952  0x072D4706f9A383D5608BD14B09b41683cb95fFd7 */\n  0x072d4706f9a383d5608bd14b09b41683cb95ffd7\n    /* \"contracts/PlanetZephyrosV1.sol\":869:952  address public immutable routerAddress = 0x072D4706f9A383D5608BD14B09b41683cb95fFd7 */\n  0xffffffffffffffffffffffffffffffffffffffff\n  and\n  0x80\n  swap1\n  0xffffffffffffffffffffffffffffffffffffffff\n  and\n  dup2\n  mstore\n  pop\n    /* \"contracts/PlanetZephyrosV1.sol\":1014:1016  80 */\n  0x50\n    /* \"contracts/PlanetZephyrosV1.sol\":977:1016  uint256 public immutable burnRatio = 80 */\n  0xa0\n  swap1\n  dup2\n  mstore\n  pop\n    /* \"contracts/PlanetZephyrosV1.sol\":1844:2150  constructor() {... */\n  callvalue\n  dup1\n  iszero\n  tag_4\n  jumpi\n  0x00\n  dup1\n  revert\ntag_4:\n  pop\n    /* \"contracts/PlanetZephyrosV1.sol\":1877:1887  msg.sender */\n  caller\n    /* \"contracts/PlanetZephyrosV1.sol\":1869:1874  owner */\n  0x05\n  0x00\n    /* \"contracts/PlanetZephyrosV1.sol\":1869:1887  owner = msg.sender */\n  0x0100\n  exp\n  dup2\n  sload\n  dup2\n  0xffffffffffffffffffffffffffffffffffffffff\n  mul\n  not\n  and\n  swap1\n  dup4\n  0xffffffffffffffffffffffffffffffffffffffff\n  and\n  mul\n  or\n  swap1\n  sstore\n  pop\n    /* \"contracts/PlanetZephyrosV1.sol\":766:784  1_000_000 * 10**18 */\n  0xd3c21bcecceda1000000\n    /* \"contracts/PlanetZephyrosV1.sol\":1898:1909  totalSupply */\n  0x03\n    /* \"contracts/PlanetZephyrosV1.sol\":1898:1925  totalSupply = initialSupply */\n  dup2\n  swap1\n  sstore\n  pop\n    /* \"contracts/PlanetZephyrosV1.sol\":766:784  1_000_000 * 10**18 */\n  0xd3c21bcecceda1000000\n    /* \"contracts/PlanetZephyrosV1.sol\":1936:1945  _balances */\n  0x08\n    /* \"contracts/PlanetZephyrosV1.sol\":1936:1957  _balances[msg.sender] */\n  0x00\n    /* \"contracts/PlanetZephyrosV1.sol\":1946:1956  msg.sender */\n  caller\n    /* \"contracts/PlanetZephyrosV1.sol\":1936:1957  _balances[msg.sender] */\n  0xffffffffffffffffffffffffffffffffffffffff\n  and\n  0xffffffffffffffffffffffffffffffffffffffff\n  and\n  dup2\n  mstore\n  0x20\n  add\n  swap1\n  dup2\n  mstore\n  0x20\n  add\n  0x00\n  keccak256\n    /* \"contracts/PlanetZephyrosV1.sol\":1936:1973  _balances[msg.sender] = initialSupply */\n  dup2\n  swap1\n  sstore\n  pop\n    /* \"contracts/PlanetZephyrosV1.sol\":2017:2021  true */\n  0x01\n    /* \"contracts/PlanetZephyrosV1.sol\":1984:1999  isExemptFromTax */\n  0x07\n    /* \"contracts/PlanetZephyrosV1.sol\":1984:2014  isExemptFromTax[address(this)] */\n  0x00\n    /* \"contracts/PlanetZephyrosV1.sol\":2008:2012  this */\n  address\n    /* \"contracts/PlanetZephyrosV1.sol\":1984:2014  isExemptFromTax[address(this)] */\n  0xffffffffffffffffffffffffffffffffffffffff\n  and\n  0xffffffffffffffffffffffffffffffffffffffff\n  and\n  dup2\n  mstore\n  0x20\n  add\n  swap1\n  dup2\n  mstore\n  0x20\n  add\n  0x00\n  keccak256\n  0x00\n    /* \"contracts/PlanetZephyrosV1.sol\":1984:2021  isExemptFromTax[address(this)] = true */\n  0x0100\n  exp\n  dup2\n  sload\n  dup2\n  0xff\n  mul\n  not\n  and\n  swap1\n  dup4\n  iszero\n  iszero\n  mul\n  or\n  swap1\n  sstore\n  pop\n    /* \"contracts/PlanetZephyrosV1.sol\":2060:2070  msg.sender */\n  caller\n    /* \"contracts/PlanetZephyrosV1.sol\":2039:2086  Transfer(address(0), msg.sender, initialSupply) */\n  0xffffffffffffffffffffffffffffffffffffffff\n  and\n    /* \"contracts/PlanetZephyrosV1.sol\":2056:2057  0 */\n  0x00\n    /* \"contracts/PlanetZephyrosV1.sol\":2039:2086  Transfer(address(0), msg.sender, initialSupply) */\n  0xffffffffffffffffffffffffffffffffffffffff\n  and\n  0xddf252ad1be2c89b69c2b068fc378daa952ba7f163c4a11628f55a4df523b3ef\n    /* \"contracts/PlanetZephyrosV1.sol\":766:784  1_000_000 * 10**18 */\n  0xd3c21bcecceda1000000\n    /* \"contracts/PlanetZephyrosV1.sol\":2039:2086  Transfer(address(0), msg.sender, initialSupply) */\n  mload(0x40)\n  tag_7\n  swap2\n  swap1\n  tag_8\n  jump\t// in\ntag_7:\n  mload(0x40)\n  dup1\n  swap2\n  sub\n  swap1\n  log3\n    /* \"contracts/PlanetZephyrosV1.sol\":2130:2134  this */\n  address\n    /* \"contracts/PlanetZephyrosV1.sol\":2102:2142  TaxExemptionUpdated(address(this), true) */\n  0xffffffffffffffffffffffffffffffffffffffff\n  and\n  0x36ee46fa09c2419f7bcf8135c2bdd56bc882be141cb075961717003bed74367d\n    /* \"contracts/PlanetZephyrosV1.sol\":2137:2141  true */\n  0x01\n    /* \"contracts/PlanetZephyrosV1.sol\":2102:2142  TaxExemptionUpdated(address(this), true) */\n  mload(0x40)\n  tag_9\n  swap2\n  swap1\n  tag_10\n  jump\t// in\ntag_9:\n  mload(0x40)\n  dup1\n  swap2\n  sub\n  swap1\n  log2\n    /* \"contracts/PlanetZephyrosV1.sol\":548:8510  contract PlanetZephyros {... */\n  jump(tag_11)\n    /* \"#utility.yul\":7:106   */\ntag_12:\n    /* \"#utility.yul\":59:65   */\n  0x00\n    /* \"#utility.yul\":93:98   */\n  dup2\n    /* \"#utility.yul\":87:99   */\n  mload\n    /* \"#utility.yul\":77:99   */\n  swap1\n  pop\n    /* \"#utility.yul\":7:106   */\n  swap2\n  swap1\n  pop\n  jump\t// out\n    /* \"#utility.yul\":112:292   */\ntag_13:\n    /* \"#utility.yul\":160:237   */\n  0x4e487b7100000000000000000000000000000000000000000000000000000000\n    /* \"#utility.yul\":157:158   */\n  0x00\n    /* \"#utility.yul\":150:238   */\n  mstore\n    /* \"#utility.yul\":257:261   */\n  0x41\n    /* \"#utility.yul\":254:255   */\n  0x04\n    /* \"#utility.yul\":247:262   */\n  mstore\n    /* \"#utility.yul\":281:285   */\n  0x24\n    /* \"#utility.yul\":278:279   */\n  0x00\n    /* \"#utility.yul\":271:286   */\n  revert\n    /* \"#utility.yul\":298:478   */\ntag_14:\n    /* \"#utility.yul\":346:423   */\n  0x4e487b7100000000000000000000000000000000000000000000000000000000\n    /* \"#utility.yul\":343:344   */\n  0x00\n    /* \"#utility.yul\":336:424   */\n  mstore\n    /* \"#utility.yul\":443:447   */\n  0x22\n    /* \"#utility.yul\":440:441   */\n  0x04\n    /* \"#utility.yul\":433:448   */\n  mstore\n    /* \"#utility.yul\":467:471   */\n  0x24\n    /* \"#utility.yul\":464:465   */\n  0x00\n    /* \"#utility.yul\":457:472   */\n  revert\n    /* \"#utility.yul\":484:804   */\ntag_15:\n    /* \"#utility.yul\":528:534   */\n  0x00\n    /* \"#utility.yul\":565:566   */\n  0x02\n    /* \"#utility.yul\":559:563   */\n  dup3\n    /* \"#utility.yul\":555:567   */\n  div\n    /* \"#utility.yul\":545:567   */\n  swap1\n  pop\n    /* \"#utility.yul\":612:613   */\n  0x01\n    /* \"#utility.yul\":606:610   */\n  dup3\n    /* \"#utility.yul\":602:614   */\n  and\n    /* \"#utility.yul\":633:651   */\n  dup1\n    /* \"#utility.yul\":623:704   */\n  tag_40\n  jumpi\n    /* \"#utility.yul\":689:693   */\n  0x7f\n    /* \"#utility.yul\":681:687   */\n  dup3\n    /* \"#utility.yul\":677:694   */\n  and\n    /* \"#utility.yul\":667:694   */\n  swap2\n  pop\n    /* \"#utility.yul\":623:704   */\ntag_40:\n    /* \"#utility.yul\":751:753   */\n  0x20\n    /* \"#utility.yul\":743:749   */\n  dup3\n    /* \"#utility.yul\":740:754   */\n  lt\n    /* \"#utility.yul\":720:738   */\n  dup2\n    /* \"#utility.yul\":717:755   */\n  sub\n    /* \"#utility.yul\":714:798   */\n  tag_41\n  jumpi\n    /* \"#utility.yul\":770:788   */\n  tag_42\n  tag_14\n  jump\t// in\ntag_42:\n    /* \"#utility.yul\":714:798   */\ntag_41:\n    /* \"#utility.yul\":535:804   */\n  pop\n    /* \"#utility.yul\":484:804   */\n  swap2\n  swap1\n  pop\n  jump\t// out\n    /* \"#utility.yul\":810:951   */\ntag_16:\n    /* \"#utility.yul\":859:863   */\n  0x00\n    /* \"#utility.yul\":882:885   */\n  dup2\n    /* \"#utility.yul\":874:885   */\n  swap1\n  pop\n    /* \"#utility.yul\":905:908   */\n  dup2\n    /* \"#utility.yul\":902:903   */\n  0x00\n    /* \"#utility.yul\":895:909   */\n  mstore\n    /* \"#utility.yul\":939:943   */\n  0x20\n    /* \"#utility.yul\":936:937   */\n  0x00\n    /* \"#utility.yul\":926:944   */\n  keccak256\n    /* \"#utility.yul\":918:944   */\n  swap1\n  pop\n    /* \"#utility.yul\":810:951   */\n  swap2\n  swap1\n  pop\n  jump\t// out\n    /* \"#utility.yul\":957:1050   */\ntag_17:\n    /* \"#utility.yul\":994:1000   */\n  0x00\n    /* \"#utility.yul\":1041:1043   */\n  0x20\n    /* \"#utility.yul\":1036:1038   */\n  0x1f\n    /* \"#utility.yul\":1029:1034   */\n  dup4\n    /* \"#utility.yul\":1025:1039   */\n  add\n    /* \"#utility.yul\":1021:1044   */\n  div\n    /* \"#utility.yul\":1011:1044   */\n  swap1\n  pop\n    /* \"#utility.yul\":957:1050   */\n  swap2\n  swap1\n  pop\n  jump\t// out\n    /* \"#utility.yul\":1056:1163   */\ntag_18:\n    /* \"#utility.yul\":1100:1108   */\n  0x00\n    /* \"#utility.yul\":1150:1155   */\n  dup3\n    /* \"#utility.yul\":1144:1148   */\n  dup3\n    /* \"#utility.yul\":1140:1156   */\n  shl\n    /* \"#utility.yul\":1119:1156   */\n  swap1\n  pop\n    /* \"#utility.yul\":1056:1163   */\n  swap3\n  swap2\n  pop\n  pop\n  jump\t// out\n    /* \"#utility.yul\":1169:1562   */\ntag_19:\n    /* \"#utility.yul\":1238:1244   */\n  0x00\n    /* \"#utility.yul\":1288:1289   */\n  0x08\n    /* \"#utility.yul\":1276:1286   */\n  dup4\n    /* \"#utility.yul\":1272:1290   */\n  mul\n    /* \"#utility.yul\":1311:1408   */\n  tag_47\n    /* \"#utility.yul\":1341:1407   */\n  0xffffffffffffffffffffffffffffffffffffffffffffffffffffffffffffffff\n    /* \"#utility.yul\":1330:1339   */\n  dup3\n    /* \"#utility.yul\":1311:1408   */\n  tag_18\n  jump\t// in\ntag_47:\n    /* \"#utility.yul\":1429:1468   */\n  tag_48\n    /* \"#utility.yul\":1459:1467   */\n  dup7\n    /* \"#utility.yul\":1448:1457   */\n  dup4\n    /* \"#utility.yul\":1429:1468   */\n  tag_18\n  jump\t// in\ntag_48:\n    /* \"#utility.yul\":1417:1468   */\n  swap6\n  pop\n    /* \"#utility.yul\":1501:1505   */\n  dup1\n    /* \"#utility.yul\":1497:1506   */\n  not\n    /* \"#utility.yul\":1490:1495   */\n  dup5\n    /* \"#utility.yul\":1486:1507   */\n  and\n    /* \"#utility.yul\":1477:1507   */\n  swap4\n  pop\n    /* \"#utility.yul\":1550:1554   */\n  dup1\n    /* \"#utility.yul\":1540:1548   */\n  dup7\n    /* \"#utility.yul\":1536:1555   */\n  and\n    /* \"#utility.yul\":1529:1534   */\n  dup5\n    /* \"#utility.yul\":1526:1556   */\n  or\n    /* \"#utility.yul\":1516:1556   */\n  swap3\n  pop\n    /* \"#utility.yul\":1245:1562   */\n  pop\n  pop\n    /* \"#utility.yul\":1169:1562   */\n  swap4\n  swap3\n  pop\n  pop\n  pop\n  jump\t// out\n    /* \"#utility.yul\":1568:1645   */\ntag_20:\n    /* \"#utility.yul\":1605:1612   */\n  0x00\n    /* \"#utility.yul\":1634:1639   */\n  dup2\n    /* \"#utility.yul\":1623:1639   */\n  swap1\n  pop\n    /* \"#utility.yul\":1568:1645   */\n  swap2\n  swap1\n  pop\n  jump\t// out\n    /* \"#utility.yul\":1651:1711   */\ntag_21:\n    /* \"#utility.yul\":1679:1682   */\n  0x00\n    /* \"#utility.yul\":1700:1705   */\n  dup2\n    /* \"#utility.yul\":1693:1705   */\n  swap1\n  pop\n    /* \"#utility.yul\":1651:1711   */\n  swap2\n  swap1\n  pop\n  jump\t// out\n    /* \"#utility.yul\":1717:1859   */\ntag_22:\n    /* \"#utility.yul\":1767:1776   */\n  0x00\n    /* \"#utility.yul\":1800:1853   */\n  tag_52\n    /* \"#utility.yul\":1818:1852   */\n  tag_53\n    /* \"#utility.yul\":1827:1851   */\n  tag_54\n    /* \"#utility.yul\":1845:1850   */\n  dup5\n    /* \"#utility.yul\":1827:1851   */\n  tag_20\n  jump\t// in\ntag_54:\n    /* \"#utility.yul\":1818:1852   */\n  tag_21\n  jump\t// in\ntag_53:\n    /* \"#utility.yul\":1800:1853   */\n  tag_20\n  jump\t// in\ntag_52:\n    /* \"#utility.yul\":1787:1853   */\n  swap1\n  pop\n    /* \"#utility.yul\":1717:1859   */\n  swap2\n  swap1\n  pop\n  jump\t// out\n    /* \"#utility.yul\":1865:1940   */\ntag_23:\n    /* \"#utility.yul\":1908:1911   */\n  0x00\n    /* \"#utility.yul\":1929:1934   */\n  dup2\n    /* \"#utility.yul\":1922:1934   */\n  swap1\n  pop\n    /* \"#utility.yul\":1865:1940   */\n  swap2\n  swap1\n  pop\n  jump\t// out\n    /* \"#utility.yul\":1946:2215   */\ntag_24:\n    /* \"#utility.yul\":2056:2095   */\n  tag_57\n    /* \"#utility.yul\":2087:2094   */\n  dup4\n    /* \"#utility.yul\":2056:2095   */\n  tag_22\n  jump\t// in\ntag_57:\n    /* \"#utility.yul\":2117:2208   */\n  tag_58\n    /* \"#utility.yul\":2166:2207   */\n  tag_59\n    /* \"#utility.yul\":2190:2206   */\n  dup3\n    /* \"#utility.yul\":2166:2207   */\n  tag_23\n  jump\t// in\ntag_59:\n    /* \"#utility.yul\":2158:2164   */\n  dup5\n    /* \"#utility.yul\":2151:2155   */\n  dup5\n    /* \"#utility.yul\":2145:2156   */\n  sload\n    /* \"#utility.yul\":2117:2208   */\n  tag_19\n  jump\t// in\ntag_58:\n    /* \"#utility.yul\":2111:2115   */\n  dup3\n    /* \"#utility.yul\":2104:2209   */\n  sstore\n    /* \"#utility.yul\":2022:2215   */\n  pop\n    /* \"#utility.yul\":1946:2215   */\n  pop\n  pop\n  pop\n  jump\t// out\n    /* \"#utility.yul\":2221:2294   */\ntag_25:\n    /* \"#utility.yul\":2266:2269   */\n  0x00\n    /* \"#utility.yul\":2221:2294   */\n  swap1\n  jump\t// out\n    /* \"#utility.yul\":2300:2489   */\ntag_26:\n    /* \"#utility.yul\":2377:2409   */\n  tag_62\n  tag_25\n  jump\t// in\ntag_62:\n    /* \"#utility.yul\":2418:2483   */\n  tag_63\n    /* \"#utility.yul\":2476:2482   */\n  dup2\n    /* \"#utility.yul\":2468:2474   */\n  dup5\n    /* \"#utility.yul\":2462:2466   */\n  dup5\n    /* \"#utility.yul\":2418:2483   */\n  tag_24\n  jump\t// in\ntag_63:\n    /* \"#utility.yul\":2353:2489   */\n  pop\n    /* \"#utility.yul\":2300:2489   */\n  pop\n  pop\n  jump\t// out\n    /* \"#utility.yul\":2495:2681   */\ntag_27:\n    /* \"#utility.yul\":2555:2675   */\ntag_65:\n    /* \"#utility.yul\":2572:2575   */\n  dup2\n    /* \"#utility.yul\":2565:2570   */\n  dup2\n    /* \"#utility.yul\":2562:2576   */\n  lt\n    /* \"#utility.yul\":2555:2675   */\n  iszero\n  tag_67\n  jumpi\n    /* \"#utility.yul\":2626:2665   */\n  tag_68\n    /* \"#utility.yul\":2663:2664   */\n  0x00\n    /* \"#utility.yul\":2656:2661   */\n  dup3\n    /* \"#utility.yul\":2626:2665   */\n  tag_26\n  jump\t// in\ntag_68:\n    /* \"#utility.yul\":2599:2600   */\n  0x01\n    /* \"#utility.yul\":2592:2597   */\n  dup2\n    /* \"#utility.yul\":2588:2601   */\n  add\n    /* \"#utility.yul\":2579:2601   */\n  swap1\n  pop\n    /* \"#utility.yul\":2555:2675   */\n  jump(tag_65)\ntag_67:\n    /* \"#utility.yul\":2495:2681   */\n  pop\n  pop\n  jump\t// out\n    /* \"#utility.yul\":2687:3230   */\ntag_28:\n    /* \"#utility.yul\":2788:2790   */\n  0x1f\n    /* \"#utility.yul\":2783:2786   */\n  dup3\n    /* \"#utility.yul\":2780:2791   */\n  gt\n    /* \"#utility.yul\":2777:3223   */\n  iszero\n  tag_70\n  jumpi\n    /* \"#utility.yul\":2822:2860   */\n  tag_71\n    /* \"#utility.yul\":2854:2859   */\n  dup2\n    /* \"#utility.yul\":2822:2860   */\n  tag_16\n  jump\t// in\ntag_71:\n    /* \"#utility.yul\":2906:2935   */\n  tag_72\n    /* \"#utility.yul\":2924:2934   */\n  dup5\n    /* \"#utility.yul\":2906:2935   */\n  tag_17\n  jump\t// in\ntag_72:\n    /* \"#utility.yul\":2896:2904   */\n  dup2\n    /* \"#utility.yul\":2892:2936   */\n  add\n    /* \"#utility.yul\":3089:3091   */\n  0x20\n    /* \"#utility.yul\":3077:3087   */\n  dup6\n    /* \"#utility.yul\":3074:3092   */\n  lt\n    /* \"#utility.yul\":3071:3120   */\n  iszero\n  tag_73\n  jumpi\n    /* \"#utility.yul\":3110:3118   */\n  dup2\n    /* \"#utility.yul\":3095:3118   */\n  swap1\n  pop\n    /* \"#utility.yul\":3071:3120   */\ntag_73:\n    /* \"#utility.yul\":3133:3213   */\n  tag_74\n    /* \"#utility.yul\":3189:3211   */\n  tag_75\n    /* \"#utility.yul\":3207:3210   */\n  dup6\n    /* \"#utility.yul\":3189:3211   */\n  tag_17\n  jump\t// in\ntag_75:\n    /* \"#utility.yul\":3179:3187   */\n  dup4\n    /* \"#utility.yul\":3175:3212   */\n  add\n    /* \"#utility.yul\":3162:3173   */\n  dup3\n    /* \"#utility.yul\":3133:3213   */\n  tag_27\n  jump\t// in\ntag_74:\n    /* \"#utility.yul\":2792:3223   */\n  pop\n  pop\n    /* \"#utility.yul\":2777:3223   */\ntag_70:\n    /* \"#utility.yul\":2687:3230   */\n  pop\n  pop\n  pop\n  jump\t// out\n    /* \"#utility.yul\":3236:3353   */\ntag_29:\n    /* \"#utility.yul\":3290:3298   */\n  0x00\n    /* \"#utility.yul\":3340:3345   */\n  dup3\n    /* \"#utility.yul\":3334:3338   */\n  dup3\n    /* \"#utility.yul\":3330:3346   */\n  shr\n    /* \"#utility.yul\":3309:3346   */\n  swap1\n  pop\n    /* \"#utility.yul\":3236:3353   */\n  swap3\n  swap2\n  pop\n  pop\n  jump\t// out\n    /* \"#utility.yul\":3359:3528   */\ntag_30:\n    /* \"#utility.yul\":3403:3409   */\n  0x00\n    /* \"#utility.yul\":3436:3487   */\n  tag_78\n    /* \"#utility.yul\":3484:3485   */\n  0x00\n    /* \"#utility.yul\":3480:3486   */\n  not\n    /* \"#utility.yul\":3472:3477   */\n  dup5\n    /* \"#utility.yul\":3469:3470   */\n  0x08\n    /* \"#utility.yul\":3465:3478   */\n  mul\n    /* \"#utility.yul\":3436:3487   */\n  tag_29\n  jump\t// in\ntag_78:\n    /* \"#utility.yul\":3432:3488   */\n  not\n    /* \"#utility.yul\":3517:3521   */\n  dup1\n    /* \"#utility.yul\":3511:3515   */\n  dup4\n    /* \"#utility.yul\":3507:3522   */\n  and\n    /* \"#utility.yul\":3497:3522   */\n  swap2\n  pop\n    /* \"#utility.yul\":3410:3528   */\n  pop\n    /* \"#utility.yul\":3359:3528   */\n  swap3\n  swap2\n  pop\n  pop\n  jump\t// out\n    /* \"#utility.yul\":3533:3828   */\ntag_31:\n    /* \"#utility.yul\":3609:3613   */\n  0x00\n    /* \"#utility.yul\":3755:3784   */\n  tag_80\n    /* \"#utility.yul\":3780:3783   */\n  dup4\n    /* \"#utility.yul\":3774:3778   */\n  dup4\n    /* \"#utility.yul\":3755:3784   */\n  tag_30\n  jump\t// in\ntag_80:\n    /* \"#utility.yul\":3747:3784   */\n  swap2\n  pop\n    /* \"#utility.yul\":3817:3820   */\n  dup3\n    /* \"#utility.yul\":3814:3815   */\n  0x02\n    /* \"#utility.yul\":3810:3821   */\n  mul\n    /* \"#utility.yul\":3804:3808   */\n  dup3\n    /* \"#utility.yul\":3801:3822   */\n  or\n    /* \"#utility.yul\":3793:3822   */\n  swap1\n  pop\n    /* \"#utility.yul\":3533:3828   */\n  swap3\n  swap2\n  pop\n  pop\n  jump\t// out\n    /* \"#utility.yul\":3833:5228   */\ntag_2:\n    /* \"#utility.yul\":3950:3987   */\n  tag_82\n    /* \"#utility.yul\":3983:3986   */\n  dup3\n    /* \"#utility.yul\":3950:3987   */\n  tag_12\n  jump\t// in\ntag_82:\n    /* \"#utility.yul\":4052:4070   */\n  0xffffffffffffffff\n    /* \"#utility.yul\":4044:4050   */\n  dup2\n    /* \"#utility.yul\":4041:4071   */\n  gt\n    /* \"#utility.yul\":4038:4094   */\n  iszero\n  tag_83\n  jumpi\n    /* \"#utility.yul\":4074:4092   */\n  tag_84\n  tag_13\n  jump\t// in\ntag_84:\n    /* \"#utility.yul\":4038:4094   */\ntag_83:\n    /* \"#utility.yul\":4118:4156   */\n  tag_85\n    /* \"#utility.yul\":4150:4154   */\n  dup3\n    /* \"#utility.yul\":4144:4155   */\n  sload\n    /* \"#utility.yul\":4118:4156   */\n  tag_15\n  jump\t// in\ntag_85:\n    /* \"#utility.yul\":4203:4270   */\n  tag_86\n    /* \"#utility.yul\":4263:4269   */\n  dup3\n    /* \"#utility.yul\":4255:4261   */\n  dup3\n    /* \"#utility.yul\":4249:4253   */\n  dup6\n    /* \"#utility.yul\":4203:4270   */\n  tag_28\n  jump\t// in\ntag_86:\n    /* \"#utility.yul\":4297:4298   */\n  0x00\n    /* \"#utility.yul\":4321:4325   */\n  0x20\n    /* \"#utility.yul\":4308:4325   */\n  swap1\n  pop\n    /* \"#utility.yul\":4353:4355   */\n  0x1f\n    /* \"#utility.yul\":4345:4351   */\n  dup4\n    /* \"#utility.yul\":4342:4356   */\n  gt\n    /* \"#utility.yul\":4370:4371   */\n  0x01\n    /* \"#utility.yul\":4365:4983   */\n  dup2\n  eq\n  tag_88\n  jumpi\n    /* \"#utility.yul\":5027:5028   */\n  0x00\n    /* \"#utility.yul\":5044:5050   */\n  dup5\n    /* \"#utility.yul\":5041:5118   */\n  iszero\n  tag_89\n  jumpi\n    /* \"#utility.yul\":5093:5102   */\n  dup3\n    /* \"#utility.yul\":5088:5091   */\n  dup8\n    /* \"#utility.yul\":5084:5103   */\n  add\n    /* \"#utility.yul\":5078:5104   */\n  mload\n    /* \"#utility.yul\":5069:5104   */\n  swap1\n  pop\n    /* \"#utility.yul\":5041:5118   */\ntag_89:\n    /* \"#utility.yul\":5144:5211   */\n  tag_90\n    /* \"#utility.yul\":5204:5210   */\n  dup6\n    /* \"#utility.yul\":5197:5202   */\n  dup3\n    /* \"#utility.yul\":5144:5211   */\n  tag_31\n  jump\t// in\ntag_90:\n    /* \"#utility.yul\":5138:5142   */\n  dup7\n    /* \"#utility.yul\":5131:5212   */\n  sstore\n    /* \"#utility.yul\":5000:5222   */\n  pop\n    /* \"#utility.yul\":4335:5222   */\n  jump(tag_87)\n    /* \"#utility.yul\":4365:4983   */\ntag_88:\n    /* \"#utility.yul\":4417:4421   */\n  0x1f\n    /* \"#utility.yul\":4413:4422   */\n  not\n    /* \"#utility.yul\":4405:4411   */\n  dup5\n    /* \"#utility.yul\":4401:4423   */\n  and\n    /* \"#utility.yul\":4451:4488   */\n  tag_91\n    /* \"#utility.yul\":4483:4487   */\n  dup7\n    /* \"#utility.yul\":4451:4488   */\n  tag_16\n  jump\t// in\ntag_91:\n    /* \"#utility.yul\":4510:4511   */\n  0x00\n    /* \"#utility.yul\":4524:4732   */\ntag_92:\n    /* \"#utility.yul\":4538:4545   */\n  dup3\n    /* \"#utility.yul\":4535:4536   */\n  dup2\n    /* \"#utility.yul\":4532:4546   */\n  lt\n    /* \"#utility.yul\":4524:4732   */\n  iszero\n  tag_94\n  jumpi\n    /* \"#utility.yul\":4617:4626   */\n  dup5\n    /* \"#utility.yul\":4612:4615   */\n  dup10\n    /* \"#utility.yul\":4608:4627   */\n  add\n    /* \"#utility.yul\":4602:4628   */\n  mload\n    /* \"#utility.yul\":4594:4600   */\n  dup3\n    /* \"#utility.yul\":4587:4629   */\n  sstore\n    /* \"#utility.yul\":4668:4669   */\n  0x01\n    /* \"#utility.yul\":4660:4666   */\n  dup3\n    /* \"#utility.yul\":4656:4670   */\n  add\n    /* \"#utility.yul\":4646:4670   */\n  swap2\n  pop\n    /* \"#utility.yul\":4715:4717   */\n  0x20\n    /* \"#utility.yul\":4704:4713   */\n  dup6\n    /* \"#utility.yul\":4700:4718   */\n  add\n    /* \"#utility.yul\":4687:4718   */\n  swap5\n  pop\n    /* \"#utility.yul\":4561:4565   */\n  0x20\n    /* \"#utility.yul\":4558:4559   */\n  dup2\n    /* \"#utility.yul\":4554:4566   */\n  add\n    /* \"#utility.yul\":4549:4566   */\n  swap1\n  pop\n    /* \"#utility.yul\":4524:4732   */\n  jump(tag_92)\ntag_94:\n    /* \"#utility.yul\":4760:4766   */\n  dup7\n    /* \"#utility.yul\":4751:4758   */\n  dup4\n    /* \"#utility.yul\":4748:4767   */\n  lt\n    /* \"#utility.yul\":4745:4924   */\n  iszero\n  tag_95\n  jumpi\n    /* \"#utility.yul\":4818:4827   */\n  dup5\n    /* \"#utility.yul\":4813:4816   */\n  dup10\n    /* \"#utility.yul\":4809:4828   */\n  add\n    /* \"#utility.yul\":4803:4829   */\n  mload\n    /* \"#utility.yul\":4861:4909   */\n  tag_96\n    /* \"#utility.yul\":4903:4907   */\n  0x1f\n    /* \"#utility.yul\":4895:4901   */\n  dup10\n    /* \"#utility.yul\":4891:4908   */\n  and\n    /* \"#utility.yul\":4880:4889   */\n  dup3\n    /* \"#utility.yul\":4861:4909   */\n  tag_30\n  jump\t// in\ntag_96:\n    /* \"#utility.yul\":4853:4859   */\n  dup4\n    /* \"#utility.yul\":4846:4910   */\n  sstore\n    /* \"#utility.yul\":4768:4924   */\n  pop\n    /* \"#utility.yul\":4745:4924   */\ntag_95:\n    /* \"#utility.yul\":4970:4971   */\n  0x01\n    /* \"#utility.yul\":4966:4967   */\n  0x02\n    /* \"#utility.yul\":4958:4964   */\n  dup9\n    /* \"#utility.yul\":4954:4968   */\n  mul\n    /* \"#utility.yul\":4950:4972   */\n  add\n    /* \"#utility.yul\":4944:4948   */\n  dup9\n    /* \"#utility.yul\":4937:4973   */\n  sstore\n    /* \"#utility.yul\":4372:4983   */\n  pop\n  pop\n  pop\n    /* \"#utility.yul\":4335:5222   */\ntag_87:\n  pop\n    /* \"#utility.yul\":3925:5228   */\n  pop\n  pop\n  pop\n    /* \"#utility.yul\":3833:5228   */\n  pop\n  pop\n  jump\t// out\n    /* \"#utility.yul\":5234:5352   */\ntag_32:\n    /* \"#utility.yul\":5321:5345   */\n  tag_98\n    /* \"#utility.yul\":5339:5344   */\n  dup2\n    /* \"#utility.yul\":5321:5345   */\n  tag_20\n  jump\t// in\ntag_98:\n    /* \"#utility.yul\":5316:5319   */\n  dup3\n    /* \"#utility.yul\":5309:5346   */\n  mstore\n    /* \"#utility.yul\":5234:5352   */\n  pop\n  pop\n  jump\t// out\n    /* \"#utility.yul\":5358:5580   */\ntag_8:\n    /* \"#utility.yul\":5451:5455   */\n  0x00\n    /* \"#utility.yul\":5489:5491   */\n  0x20\n    /* \"#utility.yul\":5478:5487   */\n  dup3\n    /* \"#utility.yul\":5474:5492   */\n  add\n    /* \"#utility.yul\":5466:5492   */\n  swap1\n  pop\n    /* \"#utility.yul\":5502:5573   */\n  tag_100\n    /* \"#utility.yul\":5570:5571   */\n  0x00\n    /* \"#utility.yul\":5559:5568   */\n  dup4\n    /* \"#utility.yul\":5555:5572   */\n  add\n    /* \"#utility.yul\":5546:5552   */\n  dup5\n    /* \"#utility.yul\":5502:5573   */\n  tag_32\n  jump\t// in\ntag_100:\n    /* \"#utility.yul\":5358:5580   */\n  swap3\n  swap2\n  pop\n  pop\n  jump\t// out\n    /* \"#utility.yul\":5586:5676   */\ntag_33:\n    /* \"#utility.yul\":5620:5627   */\n  0x00\n    /* \"#utility.yul\":5663:5668   */\n  dup2\n    /* \"#utility.yul\":5656:5669   */\n  iszero\n    /* \"#utility.yul\":5649:5670   */\n  iszero\n    /* \"#utility.yul\":5638:5670   */\n  swap1\n  pop\n    /* \"#utility.yul\":5586:5676   */\n  swap2\n  swap1\n  pop\n  jump\t// out\n    /* \"#utility.yul\":5682:5791   */\ntag_34:\n    /* \"#utility.yul\":5763:5784   */\n  tag_103\n    /* \"#utility.yul\":5778:5783   */\n  dup2\n    /* \"#utility.yul\":5763:5784   */\n  tag_33\n  jump\t// in\ntag_103:\n    /* \"#utility.yul\":5758:5761   */\n  dup3\n    /* \"#utility.yul\":5751:5785   */\n  mstore\n    /* \"#utility.yul\":5682:5791   */\n  pop\n  pop\n  jump\t// out\n    /* \"#utility.yul\":5797:6007   */\ntag_10:\n    /* \"#utility.yul\":5884:5888   */\n  0x00\n    /* \"#utility.yul\":5922:5924   */\n  0x20\n    /* \"#utility.yul\":5911:5920   */\n  dup3\n    /* \"#utility.yul\":5907:5925   */\n  add\n    /* \"#utility.yul\":5899:5925   */\n  swap1\n  pop\n    /* \"#utility.yul\":5935:6000   */\n  tag_105\n    /* \"#utility.yul\":5997:5998   */\n  0x00\n    /* \"#utility.yul\":5986:5995   */\n  dup4\n    /* \"#utility.yul\":5982:5999   */\n  add\n    /* \"#utility.yul\":5973:5979   */\n  dup5\n    /* \"#utility.yul\":5935:6000   */\n  tag_34\n  jump\t// in\ntag_105:\n    /* \"#utility.yul\":5797:6007   */\n  swap3\n  swap2\n  pop\n  pop\n  jump\t// out\n    /* \"contracts/PlanetZephyrosV1.sol\":548:8510  contract PlanetZephyros {... */\ntag_11:\n  mload(0x80)\n  mload(0xa0)\n  codecopy(0x00, dataOffset(sub_0), dataSize(sub_0))\n  0x00\n  assignImmutable(\"0x59c0d2b7af0a8e6d3d8e710a078764bd67b7223777026c424cdb4f599824bb79\")\n  0x00\n  assignImmutable(\"0xc47ece0ffae697632ce145a7086cbcf260f7fa60876ff2606761ea2b7581ee76\")\n  return(0x00, dataSize(sub_0))\nstop\n\nsub_0: assembly {\n        /* \"contracts/PlanetZephyrosV1.sol\":548:8510  contract PlanetZephyros {... */\n      mstore(0x40, 0x80)\n      callvalue\n      dup1\n      iszero\n      tag_1\n      jumpi\n      0x00\n      dup1\n      revert\n    tag_1:\n      pop\n      jumpi(tag_2, lt(calldatasize, 0x04))\n      shr(0xe0, calldataload(0x00))\n      dup1\n      0x57d14a09\n      gt\n      tag_30\n      jumpi\n      dup1\n      0xa9059cbb\n      gt\n      tag_31\n      jumpi\n      dup1\n      0xd5aed6bf\n      gt\n      tag_32\n      jumpi\n      dup1\n      0xd5aed6bf\n      eq\n      tag_26\n      jumpi\n      dup1\n      0xdd62ed3e\n      eq\n      tag_27\n      jumpi\n      dup1\n      0xe17514ab\n      eq\n      tag_28\n      jumpi\n      dup1\n      0xf256ee83\n      eq\n      tag_29\n      jumpi\n      jump(tag_2)\n    tag_32:\n      dup1\n      0xa9059cbb\n      eq\n      tag_23\n      jumpi\n      dup1\n      0xac2ff1b3\n      eq\n      tag_24\n      jumpi\n      dup1\n      0xb64e3c74\n      eq\n      tag_25\n      jumpi\n      jump(tag_2)\n    tag_31:\n      dup1\n      0x8a8c523c\n      gt\n      tag_33\n      jumpi\n      dup1\n      0x8a8c523c\n      eq\n      tag_19\n      jumpi\n      dup1\n      0x8da5cb5b\n      eq\n      tag_20\n      jumpi\n      dup1\n      0x95d89b41\n      eq\n      tag_21\n      jumpi\n      dup1\n      0xa8b08982\n      eq\n      tag_22\n      jumpi\n      jump(tag_2)\n    tag_33:\n      dup1\n      0x57d14a09\n      eq\n      tag_16\n      jumpi\n      dup1\n      0x70a08231\n      eq\n      tag_17\n      jumpi\n      dup1\n      0x771c4936\n      eq\n      tag_18\n      jumpi\n      jump(tag_2)\n    tag_30:\n      dup1\n      0x313ce567\n      gt\n      tag_34\n      jumpi\n      dup1\n      0x395c0d00\n      gt\n      tag_35\n      jumpi\n      dup1\n      0x395c0d00\n      eq\n      tag_12\n      jumpi\n      dup1\n      0x42966c68\n      eq\n      tag_13\n      jumpi\n      dup1\n      0x4ada218b\n      eq\n      tag_14\n      jumpi\n      dup1\n      0x5192c82c\n      eq\n      tag_15\n      jumpi\n      jump(tag_2)\n    tag_35:\n      dup1\n      0x313ce567\n      eq\n      tag_9\n      jumpi\n      dup1\n      0x3268cc56\n      eq\n      tag_10\n      jumpi\n      dup1\n      0x378dc3dc\n      eq\n      tag_11\n      jumpi\n      jump(tag_2)\n    tag_34:\n      dup1\n      0x060e7844\n      eq\n      tag_3\n      jumpi\n      dup1\n      0x06fdde03\n      eq\n      tag_4\n      jumpi\n      dup1\n      0x095ea7b3\n      eq\n      tag_5\n      jumpi\n      dup1\n      0x18160ddd\n      eq\n      tag_6\n      jumpi\n      dup1\n      0x23b872dd\n      eq\n      tag_7\n      jumpi\n      dup1\n      0x2dc0562d\n      eq\n      tag_8\n      jumpi\n    tag_2:\n      0x00\n      dup1\n      revert\n        /* \"contracts/PlanetZephyrosV1.sol\":1197:1244  mapping(address => bool) public isExemptFromTax */\n    tag_3:\n      tag_36\n      0x04\n      dup1\n      calldatasize\n      sub\n      dup2\n      add\n      swap1\n      tag_37\n      swap2\n      swap1\n      tag_38\n      jump\t// in\n    tag_37:\n      tag_39\n      jump\t// in\n    tag_36:\n      mload(0x40)\n      tag_40\n      swap2\n      swap1\n      tag_41\n      jump\t// in\n    tag_40:\n      mload(0x40)\n      dup1\n      swap2\n      sub\n      swap1\n      return\n        /* \"contracts/PlanetZephyrosV1.sol\":579:617  string public name = \"Planet Zephyros\" */\n    tag_4:\n      tag_42\n      tag_43\n      jump\t// in\n    tag_42:\n      mload(0x40)\n      tag_44\n      swap2\n      swap1\n      tag_45\n      jump\t// in\n    tag_44:\n      mload(0x40)\n      dup1\n      swap2\n      sub\n      swap1\n      return\n        /* \"contracts/PlanetZephyrosV1.sol\":3864:4014  function approve(address spender, uint256 amount) public returns (bool) {... */\n    tag_5:\n      tag_46\n      0x04\n      dup1\n      calldatasize\n      sub\n      dup2\n      add\n      swap1\n      tag_47\n      swap2\n      swap1\n      tag_48\n      jump\t// in\n    tag_47:\n      tag_49\n      jump\t// in\n    tag_46:\n      mload(0x40)\n      tag_50\n      swap2\n      swap1\n      tag_41\n      jump\t// in\n    tag_50:\n      mload(0x40)\n      dup1\n      swap2\n      sub\n      swap1\n      return\n        /* \"contracts/PlanetZephyrosV1.sol\":693:719  uint256 public totalSupply */\n    tag_6:\n      tag_51\n      tag_52\n      jump\t// in\n    tag_51:\n      mload(0x40)\n      tag_53\n      swap2\n      swap1\n      tag_54\n      jump\t// in\n    tag_53:\n      mload(0x40)\n      dup1\n      swap2\n      sub\n      swap1\n      return\n        /* \"contracts/PlanetZephyrosV1.sol\":4022:4362  function transferFrom(address sender, address recipient, uint256 amount) public returns (bool) {... */\n    tag_7:\n      tag_55\n      0x04\n      dup1\n      calldatasize\n      sub\n      dup2\n      add\n      swap1\n      tag_56\n      swap2\n      swap1\n      tag_57\n      jump\t// in\n    tag_56:\n      tag_58\n      jump\t// in\n    tag_55:\n      mload(0x40)\n      tag_59\n      swap2\n      swap1\n      tag_41\n      jump\t// in\n    tag_59:\n      mload(0x40)\n      dup1\n      swap2\n      sub\n      swap1\n      return\n        /* \"contracts/PlanetZephyrosV1.sol\":793:862  address public taxWallet = 0x4Eb4b9Ce208711A0EA1BefF57C83BD66BC563378 */\n    tag_8:\n      tag_60\n      tag_61\n      jump\t// in\n    tag_60:\n      mload(0x40)\n      tag_62\n      swap2\n      swap1\n      tag_63\n      jump\t// in\n    tag_62:\n      mload(0x40)\n      dup1\n      swap2\n      sub\n      swap1\n      return\n        /* \"contracts/PlanetZephyrosV1.sol\":660:686  uint8 public decimals = 18 */\n    tag_9:\n      tag_64\n      tag_65\n      jump\t// in\n    tag_64:\n      mload(0x40)\n      tag_66\n      swap2\n      swap1\n      tag_67\n      jump\t// in\n    tag_66:\n      mload(0x40)\n      dup1\n      swap2\n      sub\n      swap1\n      return\n        /* \"contracts/PlanetZephyrosV1.sol\":869:952  address public immutable routerAddress = 0x072D4706f9A383D5608BD14B09b41683cb95fFd7 */\n    tag_10:\n      tag_68\n      tag_69\n      jump\t// in\n    tag_68:\n      mload(0x40)\n      tag_70\n      swap2\n      swap1\n      tag_63\n      jump\t// in\n    tag_70:\n      mload(0x40)\n      dup1\n      swap2\n      sub\n      swap1\n      return\n        /* \"contracts/PlanetZephyrosV1.sol\":726:784  uint256 public constant initialSupply = 1_000_000 * 10**18 */\n    tag_11:\n      tag_71\n      tag_72\n      jump\t// in\n    tag_71:\n      mload(0x40)\n      tag_73\n      swap2\n      swap1\n      tag_54\n      jump\t// in\n    tag_73:\n      mload(0x40)\n      dup1\n      swap2\n      sub\n      swap1\n      return\n        /* \"contracts/PlanetZephyrosV1.sol\":6691:7068  function currentSellBps() public view returns (uint256) {... */\n    tag_12:\n      tag_74\n      tag_75\n      jump\t// in\n    tag_74:\n      mload(0x40)\n      tag_76\n      swap2\n      swap1\n      tag_54\n      jump\t// in\n    tag_76:\n      mload(0x40)\n      dup1\n      swap2\n      sub\n      swap1\n      return\n        /* \"contracts/PlanetZephyrosV1.sol\":8255:8507  function burn(uint256 amount) external {... */\n    tag_13:\n      tag_77\n      0x04\n      dup1\n      calldatasize\n      sub\n      dup2\n      add\n      swap1\n      tag_78\n      swap2\n      swap1\n      tag_79\n      jump\t// in\n    tag_78:\n      tag_80\n      jump\t// in\n    tag_77:\n      stop\n        /* \"contracts/PlanetZephyrosV1.sol\":1134:1160  bool public tradingEnabled */\n    tag_14:\n      tag_81\n      tag_82\n      jump\t// in\n    tag_81:\n      mload(0x40)\n      tag_83\n      swap2\n      swap1\n      tag_41\n      jump\t// in\n    tag_83:\n      mload(0x40)\n      dup1\n      swap2\n      sub\n      swap1\n      return\n        /* \"contracts/PlanetZephyrosV1.sol\":977:1016  uint256 public immutable burnRatio = 80 */\n    tag_15:\n      tag_84\n      tag_85\n      jump\t// in\n    tag_84:\n      mload(0x40)\n      tag_86\n      swap2\n      swap1\n      tag_54\n      jump\t// in\n    tag_86:\n      mload(0x40)\n      dup1\n      swap2\n      sub\n      swap1\n      return\n        /* \"contracts/PlanetZephyrosV1.sol\":1167:1190  bool public taxesPaused */\n    tag_16:\n      tag_87\n      tag_88\n      jump\t// in\n    tag_87:\n      mload(0x40)\n      tag_89\n      swap2\n      swap1\n      tag_41\n      jump\t// in\n    tag_89:\n      mload(0x40)\n      dup1\n      swap2\n      sub\n      swap1\n      return\n        /* \"contracts/PlanetZephyrosV1.sol\":3438:3548  function balanceOf(address account) public view returns (uint256) {... */\n    tag_17:\n      tag_90\n      0x04\n      dup1\n      calldatasize\n      sub\n      dup2\n      add\n      swap1\n      tag_91\n      swap2\n      swap1\n      tag_38\n      jump\t// in\n    tag_91:\n      tag_92\n      jump\t// in\n    tag_90:\n      mload(0x40)\n      tag_93\n      swap2\n      swap1\n      tag_54\n      jump\t// in\n    tag_93:\n      mload(0x40)\n      dup1\n      swap2\n      sub\n      swap1\n      return\n        /* \"contracts/PlanetZephyrosV1.sol\":6314:6683  function currentBuyBps() public view returns (uint256) {... */\n    tag_18:\n      tag_94\n      tag_95\n      jump\t// in\n    tag_94:\n      mload(0x40)\n      tag_96\n      swap2\n      swap1\n      tag_54\n      jump\t// in\n    tag_96:\n      mload(0x40)\n      dup1\n      swap2\n      sub\n      swap1\n      return\n        /* \"contracts/PlanetZephyrosV1.sol\":2373:2587  function enableTrading() external onlyOwner {... */\n    tag_19:\n      tag_97\n      tag_98\n      jump\t// in\n    tag_97:\n      stop\n        /* \"contracts/PlanetZephyrosV1.sol\":1023:1043  address public owner */\n    tag_20:\n      tag_99\n      tag_100\n      jump\t// in\n    tag_99:\n      mload(0x40)\n      tag_101\n      swap2\n      swap1\n      tag_63\n      jump\t// in\n    tag_101:\n      mload(0x40)\n      dup1\n      swap2\n      sub\n      swap1\n      return\n        /* \"contracts/PlanetZephyrosV1.sol\":624:653  string public symbol = \"CORE\" */\n    tag_21:\n      tag_102\n      tag_103\n      jump\t// in\n    tag_102:\n      mload(0x40)\n      tag_104\n      swap2\n      swap1\n      tag_45\n      jump\t// in\n    tag_104:\n      mload(0x40)\n      dup1\n      swap2\n      sub\n      swap1\n      return\n        /* \"contracts/PlanetZephyrosV1.sol\":1050:1076  address public pairAddress */\n    tag_22:\n      tag_105\n      tag_106\n      jump\t// in\n    tag_105:\n      mload(0x40)\n      tag_107\n      swap2\n      swap1\n      tag_63\n      jump\t// in\n    tag_107:\n      mload(0x40)\n      dup1\n      swap2\n      sub\n      swap1\n      return\n        /* \"contracts/PlanetZephyrosV1.sol\":3556:3712  function transfer(address recipient, uint256 amount) public returns (bool) {... */\n    tag_23:\n      tag_108\n      0x04\n      dup1\n      calldatasize\n      sub\n      dup2\n      add\n      swap1\n      tag_109\n      swap2\n      swap1\n      tag_48\n      jump\t// in\n    tag_109:\n      tag_110\n      jump\t// in\n    tag_108:\n      mload(0x40)\n      tag_111\n      swap2\n      swap1\n      tag_41\n      jump\t// in\n    tag_111:\n      mload(0x40)\n      dup1\n      swap2\n      sub\n      swap1\n      return\n        /* \"contracts/PlanetZephyrosV1.sol\":3293:3430  function toggleTaxesPaused() external onlyTaxWallet {... */\n    tag_24:\n      tag_112\n      tag_113\n      jump\t// in\n    tag_112:\n      stop\n        /* \"contracts/PlanetZephyrosV1.sol\":2764:3005  function setTaxExemption(address account, bool isExempt) external onlyOwner {... */\n    tag_25:\n      tag_114\n      0x04\n      dup1\n      calldatasize\n      sub\n      dup2\n      add\n      swap1\n      tag_115\n      swap2\n      swap1\n      tag_116\n      jump\t// in\n    tag_115:\n      tag_117\n      jump\t// in\n    tag_114:\n      stop\n        /* \"contracts/PlanetZephyrosV1.sol\":2595:2756  function setUniswapPair(address _pair) external onlyOwner {... */\n    tag_26:\n      tag_118\n      0x04\n      dup1\n      calldatasize\n      sub\n      dup2\n      add\n      swap1\n      tag_119\n      swap2\n      swap1\n      tag_38\n      jump\t// in\n    tag_119:\n      tag_120\n      jump\t// in\n    tag_118:\n      stop\n        /* \"contracts/PlanetZephyrosV1.sol\":3720:3856  function allowance(address owner_, address spender) public view returns (uint256) {... */\n    tag_27:\n      tag_121\n      0x04\n      dup1\n      calldatasize\n      sub\n      dup2\n      add\n      swap1\n      tag_122\n      swap2\n      swap1\n      tag_123\n      jump\t// in\n    tag_122:\n      tag_124\n      jump\t// in\n    tag_121:\n      mload(0x40)\n      tag_125\n      swap2\n      swap1\n      tag_54\n      jump\t// in\n    tag_125:\n      mload(0x40)\n      dup1\n      swap2\n      sub\n      swap1\n      return\n        /* \"contracts/PlanetZephyrosV1.sol\":3013:3281  function transferTaxWallet(address _newTaxWallet) external onlyTaxWallet {... */\n    tag_28:\n      tag_126\n      0x04\n      dup1\n      calldatasize\n      sub\n      dup2\n      add\n      swap1\n      tag_127\n      swap2\n      swap1\n      tag_38\n      jump\t// in\n    tag_127:\n      tag_128\n      jump\t// in\n    tag_126:\n      stop\n        /* \"contracts/PlanetZephyrosV1.sol\":7076:8247  function sellWithTax(uint256 amount, uint256 minOut, address to) external {... */\n    tag_29:\n      tag_129\n      0x04\n      dup1\n      calldatasize\n      sub\n      dup2\n      add\n      swap1\n      tag_130\n      swap2\n      swap1\n      tag_131\n      jump\t// in\n    tag_130:\n      tag_132\n      jump\t// in\n    tag_129:\n      stop\n        /* \"contracts/PlanetZephyrosV1.sol\":1197:1244  mapping(address => bool) public isExemptFromTax */\n    tag_39:\n      mstore(0x20, 0x07)\n      dup1\n      0x00\n      mstore\n      keccak256(0x00, 0x40)\n      0x00\n      swap2\n      pop\n      sload\n      swap1\n      0x0100\n      exp\n      swap1\n      div\n      0xff\n      and\n      dup2\n      jump\t// out\n        /* \"contracts/PlanetZephyrosV1.sol\":579:617  string public name = \"Planet Zephyros\" */\n    tag_43:\n      0x00\n      dup1\n      sload\n      tag_133\n      swap1\n      tag_134\n      jump\t// in\n    tag_133:\n      dup1\n      0x1f\n      add\n      0x20\n      dup1\n      swap2\n      div\n      mul\n      0x20\n      add\n      mload(0x40)\n      swap1\n      dup2\n      add\n      0x40\n      mstore\n      dup1\n      swap3\n      swap2\n      swap1\n      dup2\n      dup2\n      mstore\n      0x20\n      add\n      dup3\n      dup1\n      sload\n      tag_135\n      swap1\n      tag_134\n      jump\t// in\n    tag_135:\n      dup1\n      iszero\n      tag_136\n      jumpi\n      dup1\n      0x1f\n      lt\n      tag_137\n      jumpi\n      0x0100\n      dup1\n      dup4\n      sload\n      div\n      mul\n      dup4\n      mstore\n      swap2\n      0x20\n      add\n      swap2\n      jump(tag_136)\n    tag_137:\n      dup3\n      add\n      swap2\n      swap1\n      0x00\n      mstore\n      keccak256(0x00, 0x20)\n      swap1\n    tag_138:\n      dup2\n      sload\n      dup2\n      mstore\n      swap1\n      0x01\n      add\n      swap1\n      0x20\n      add\n      dup1\n      dup4\n      gt\n      tag_138\n      jumpi\n      dup3\n      swap1\n      sub\n      0x1f\n      and\n      dup3\n      add\n      swap2\n    tag_136:\n      pop\n      pop\n      pop\n      pop\n      pop\n      dup2\n      jump\t// out\n        /* \"contracts/PlanetZephyrosV1.sol\":3864:4014  function approve(address spender, uint256 amount) public returns (bool) {... */\n    tag_49:\n        /* \"contracts/PlanetZephyrosV1.sol\":3930:3934  bool */\n      0x00\n        /* \"contracts/PlanetZephyrosV1.sol\":3947:3984  _approve(msg.sender, spender, amount) */\n      tag_140\n        /* \"contracts/PlanetZephyrosV1.sol\":3956:3966  msg.sender */\n      caller\n        /* \"contracts/PlanetZephyrosV1.sol\":3968:3975  spender */\n      dup5\n        /* \"contracts/PlanetZephyrosV1.sol\":3977:3983  amount */\n      dup5\n        /* \"contracts/PlanetZephyrosV1.sol\":3947:3955  _approve */\n      tag_141\n        /* \"contracts/PlanetZephyrosV1.sol\":3947:3984  _approve(msg.sender, spender, amount) */\n      jump\t// in\n    tag_140:\n        /* \"contracts/PlanetZephyrosV1.sol\":4002:4006  true */\n      0x01\n        /* \"contracts/PlanetZephyrosV1.sol\":3995:4006  return true */\n      swap1\n      pop\n        /* \"contracts/PlanetZephyrosV1.sol\":3864:4014  function approve(address spender, uint256 amount) public returns (bool) {... */\n      swap3\n      swap2\n      pop\n      pop\n      jump\t// out\n        /* \"contracts/PlanetZephyrosV1.sol\":693:719  uint256 public totalSupply */\n    tag_52:\n      sload(0x03)\n      dup2\n      jump\t// out\n        /* \"contracts/PlanetZephyrosV1.sol\":4022:4362  function transferFrom(address sender, address recipient, uint256 amount) public returns (bool) {... */\n    tag_58:\n        /* \"contracts/PlanetZephyrosV1.sol\":4111:4115  bool */\n      0x00\n        /* \"contracts/PlanetZephyrosV1.sol\":4171:4177  amount */\n      dup2\n        /* \"contracts/PlanetZephyrosV1.sol\":4136:4147  _allowances */\n      0x09\n        /* \"contracts/PlanetZephyrosV1.sol\":4136:4155  _allowances[sender] */\n      0x00\n        /* \"contracts/PlanetZephyrosV1.sol\":4148:4154  sender */\n      dup7\n        /* \"contracts/PlanetZephyrosV1.sol\":4136:4155  _allowances[sender] */\n      0xffffffffffffffffffffffffffffffffffffffff\n      and\n      0xffffffffffffffffffffffffffffffffffffffff\n      and\n      dup2\n      mstore\n      0x20\n      add\n      swap1\n      dup2\n      mstore\n      0x20\n      add\n      0x00\n      keccak256\n        /* \"contracts/PlanetZephyrosV1.sol\":4136:4167  _allowances[sender][msg.sender] */\n      0x00\n        /* \"contracts/PlanetZephyrosV1.sol\":4156:4166  msg.sender */\n      caller\n        /* \"contracts/PlanetZephyrosV1.sol\":4136:4167  _allowances[sender][msg.sender] */\n      0xffffffffffffffffffffffffffffffffffffffff\n      and\n      0xffffffffffffffffffffffffffffffffffffffff\n      and\n      dup2\n      mstore\n      0x20\n      add\n      swap1\n      dup2\n      mstore\n      0x20\n      add\n      0x00\n      keccak256\n      sload\n        /* \"contracts/PlanetZephyrosV1.sol\":4136:4177  _allowances[sender][msg.sender] >= amount */\n      lt\n      iszero\n        /* \"contracts/PlanetZephyrosV1.sol\":4128:4204  require(_allowances[sender][msg.sender] >= amount, \"Insufficient allowance\") */\n      tag_143\n      jumpi\n      mload(0x40)\n      0x08c379a000000000000000000000000000000000000000000000000000000000\n      dup2\n      mstore\n      0x04\n      add\n      tag_144\n      swap1\n      tag_145\n      jump\t// in\n    tag_144:\n      mload(0x40)\n      dup1\n      swap2\n      sub\n      swap1\n      revert\n    tag_143:\n        /* \"contracts/PlanetZephyrosV1.sol\":4215:4285  _approve(sender, msg.sender, _allowances[sender][msg.sender] - amount) */\n      tag_146\n        /* \"contracts/PlanetZephyrosV1.sol\":4224:4230  sender */\n      dup5\n        /* \"contracts/PlanetZephyrosV1.sol\":4232:4242  msg.sender */\n      caller\n        /* \"contracts/PlanetZephyrosV1.sol\":4278:4284  amount */\n      dup5\n        /* \"contracts/PlanetZephyrosV1.sol\":4244:4255  _allowances */\n      0x09\n        /* \"contracts/PlanetZephyrosV1.sol\":4244:4263  _allowances[sender] */\n      0x00\n        /* \"contracts/PlanetZephyrosV1.sol\":4256:4262  sender */\n      dup10\n        /* \"contracts/PlanetZephyrosV1.sol\":4244:4263  _allowances[sender] */\n      0xffffffffffffffffffffffffffffffffffffffff\n      and\n      0xffffffffffffffffffffffffffffffffffffffff\n      and\n      dup2\n      mstore\n      0x20\n      add\n      swap1\n      dup2\n      mstore\n      0x20\n      add\n      0x00\n      keccak256\n        /* \"contracts/PlanetZephyrosV1.sol\":4244:4275  _allowances[sender][msg.sender] */\n      0x00\n        /* \"contracts/PlanetZephyrosV1.sol\":4264:4274  msg.sender */\n      caller\n        /* \"contracts/PlanetZephyrosV1.sol\":4244:4275  _allowances[sender][msg.sender] */\n      0xffffffffffffffffffffffffffffffffffffffff\n      and\n      0xffffffffffffffffffffffffffffffffffffffff\n      and\n      dup2\n      mstore\n      0x20\n      add\n      swap1\n      dup2\n      mstore\n      0x20\n      add\n      0x00\n      keccak256\n      sload\n        /* \"contracts/PlanetZephyrosV1.sol\":4244:4284  _allowances[sender][msg.sender] - amount */\n      tag_147\n      swap2\n      swap1\n      tag_148\n      jump\t// in\n    tag_147:\n        /* \"contracts/PlanetZephyrosV1.sol\":4215:4223  _approve */\n      tag_141\n        /* \"contracts/PlanetZephyrosV1.sol\":4215:4285  _approve(sender, msg.sender, _allowances[sender][msg.sender] - amount) */\n      jump\t// in\n    tag_146:\n        /* \"contracts/PlanetZephyrosV1.sol\":4296:4332  _transfer(sender, recipient, amount) */\n      tag_149\n        /* \"contracts/PlanetZephyrosV1.sol\":4306:4312  sender */\n      dup5\n        /* \"contracts/PlanetZephyrosV1.sol\":4314:4323  recipient */\n      dup5\n        /* \"contracts/PlanetZephyrosV1.sol\":4325:4331  amount */\n      dup5\n        /* \"contracts/PlanetZephyrosV1.sol\":4296:4305  _transfer */\n      tag_150\n        /* \"contracts/PlanetZephyrosV1.sol\":4296:4332  _transfer(sender, recipient, amount) */\n      jump\t// in\n    tag_149:\n        /* \"contracts/PlanetZephyrosV1.sol\":4350:4354  true */\n      0x01\n        /* \"contracts/PlanetZephyrosV1.sol\":4343:4354  return true */\n      swap1\n      pop\n        /* \"contracts/PlanetZephyrosV1.sol\":4022:4362  function transferFrom(address sender, address recipient, uint256 amount) public returns (bool) {... */\n      swap4\n      swap3\n      pop\n      pop\n      pop\n      jump\t// out\n        /* \"contracts/PlanetZephyrosV1.sol\":793:862  address public taxWallet = 0x4Eb4b9Ce208711A0EA1BefF57C83BD66BC563378 */\n    tag_61:\n      0x04\n      0x00\n      swap1\n      sload\n      swap1\n      0x0100\n      exp\n      swap1\n      div\n      0xffffffffffffffffffffffffffffffffffffffff\n      and\n      dup2\n      jump\t// out\n        /* \"contracts/PlanetZephyrosV1.sol\":660:686  uint8 public decimals = 18 */\n    tag_65:\n      0x02\n      0x00\n      swap1\n      sload\n      swap1\n      0x0100\n      exp\n      swap1\n      div\n      0xff\n      and\n      dup2\n      jump\t// out\n        /* \"contracts/PlanetZephyrosV1.sol\":869:952  address public immutable routerAddress = 0x072D4706f9A383D5608BD14B09b41683cb95fFd7 */\n    tag_69:\n      immutable(\"0xc47ece0ffae697632ce145a7086cbcf260f7fa60876ff2606761ea2b7581ee76\")\n      dup2\n      jump\t// out\n        /* \"contracts/PlanetZephyrosV1.sol\":726:784  uint256 public constant initialSupply = 1_000_000 * 10**18 */\n    tag_72:\n        /* \"contracts/PlanetZephyrosV1.sol\":766:784  1_000_000 * 10**18 */\n      0xd3c21bcecceda1000000\n        /* \"contracts/PlanetZephyrosV1.sol\":726:784  uint256 public constant initialSupply = 1_000_000 * 10**18 */\n      dup2\n      jump\t// out\n        /* \"contracts/PlanetZephyrosV1.sol\":6691:7068  function currentSellBps() public view returns (uint256) {... */\n    tag_75:\n        /* \"contracts/PlanetZephyrosV1.sol\":6738:6745  uint256 */\n      0x00\n        /* \"contracts/PlanetZephyrosV1.sol\":6762:6773  taxesPaused */\n      0x06\n      0x15\n      swap1\n      sload\n      swap1\n      0x0100\n      exp\n      swap1\n      div\n      0xff\n      and\n        /* \"contracts/PlanetZephyrosV1.sol\":6758:6783  if (taxesPaused) return 0 */\n      iszero\n      tag_152\n      jumpi\n        /* \"contracts/PlanetZephyrosV1.sol\":6782:6783  0 */\n      0x00\n        /* \"contracts/PlanetZephyrosV1.sol\":6775:6783  return 0 */\n      swap1\n      pop\n      jump(tag_151)\n        /* \"contracts/PlanetZephyrosV1.sol\":6758:6783  if (taxesPaused) return 0 */\n    tag_152:\n        /* \"contracts/PlanetZephyrosV1.sol\":6794:6815  uint256 supplyPercent */\n      0x00\n        /* \"contracts/PlanetZephyrosV1.sol\":766:784  1_000_000 * 10**18 */\n      0xd3c21bcecceda1000000\n        /* \"contracts/PlanetZephyrosV1.sol\":6833:6836  100 */\n      0x64\n        /* \"contracts/PlanetZephyrosV1.sol\":6819:6830  totalSupply */\n      sload(0x03)\n        /* \"contracts/PlanetZephyrosV1.sol\":6819:6836  totalSupply * 100 */\n      tag_153\n      swap2\n      swap1\n      tag_154\n      jump\t// in\n    tag_153:\n        /* \"contracts/PlanetZephyrosV1.sol\":6818:6853  (totalSupply * 100) / initialSupply */\n      tag_155\n      swap2\n      swap1\n      tag_156\n      jump\t// in\n    tag_155:\n        /* \"contracts/PlanetZephyrosV1.sol\":6794:6853  uint256 supplyPercent = (totalSupply * 100) / initialSupply */\n      swap1\n      pop\n        /* \"contracts/PlanetZephyrosV1.sol\":6885:6887  50 */\n      0x32\n        /* \"contracts/PlanetZephyrosV1.sol\":6868:6881  supplyPercent */\n      dup2\n        /* \"contracts/PlanetZephyrosV1.sol\":6868:6887  supplyPercent <= 50 */\n      gt\n        /* \"contracts/PlanetZephyrosV1.sol\":6864:6899  if (supplyPercent <= 50) return 200 */\n      tag_157\n      jumpi\n        /* \"contracts/PlanetZephyrosV1.sol\":6896:6899  200 */\n      0xc8\n        /* \"contracts/PlanetZephyrosV1.sol\":6889:6899  return 200 */\n      swap2\n      pop\n      pop\n      jump(tag_151)\n        /* \"contracts/PlanetZephyrosV1.sol\":6864:6899  if (supplyPercent <= 50) return 200 */\n    tag_157:\n        /* \"contracts/PlanetZephyrosV1.sol\":6910:6932  uint256 reductionSteps */\n      0x00\n        /* \"contracts/PlanetZephyrosV1.sol\":6966:6968  25 */\n      0x19\n        /* \"contracts/PlanetZephyrosV1.sol\":6960:6962  10 */\n      0x0a\n        /* \"contracts/PlanetZephyrosV1.sol\":6943:6956  supplyPercent */\n      dup4\n        /* \"contracts/PlanetZephyrosV1.sol\":6937:6940  100 */\n      0x64\n        /* \"contracts/PlanetZephyrosV1.sol\":6937:6956  100 - supplyPercent */\n      tag_158\n      swap2\n      swap1\n      tag_148\n      jump\t// in\n    tag_158:\n        /* \"contracts/PlanetZephyrosV1.sol\":6936:6962  (100 - supplyPercent) * 10 */\n      tag_159\n      swap2\n      swap1\n      tag_154\n      jump\t// in\n    tag_159:\n        /* \"contracts/PlanetZephyrosV1.sol\":6935:6968  ((100 - supplyPercent) * 10) / 25 */\n      tag_160\n      swap2\n      swap1\n      tag_156\n      jump\t// in\n    tag_160:\n        /* \"contracts/PlanetZephyrosV1.sol\":6910:6968  uint256 reductionSteps = ((100 - supplyPercent) * 10) / 25 */\n      swap1\n      pop\n        /* \"contracts/PlanetZephyrosV1.sol\":6979:6990  uint256 tax */\n      0x00\n        /* \"contracts/PlanetZephyrosV1.sol\":7018:7020  40 */\n      0x28\n        /* \"contracts/PlanetZephyrosV1.sol\":7001:7015  reductionSteps */\n      dup3\n        /* \"contracts/PlanetZephyrosV1.sol\":7001:7020  reductionSteps * 40 */\n      tag_161\n      swap2\n      swap1\n      tag_154\n      jump\t// in\n    tag_161:\n        /* \"contracts/PlanetZephyrosV1.sol\":6993:6997  1000 */\n      0x03e8\n        /* \"contracts/PlanetZephyrosV1.sol\":6993:7021  1000 - (reductionSteps * 40) */\n      tag_162\n      swap2\n      swap1\n      tag_148\n      jump\t// in\n    tag_162:\n        /* \"contracts/PlanetZephyrosV1.sol\":6979:7021  uint256 tax = 1000 - (reductionSteps * 40) */\n      swap1\n      pop\n        /* \"contracts/PlanetZephyrosV1.sol\":7045:7048  200 */\n      0xc8\n        /* \"contracts/PlanetZephyrosV1.sol\":7039:7042  tax */\n      dup2\n        /* \"contracts/PlanetZephyrosV1.sol\":7039:7048  tax > 200 */\n      gt\n        /* \"contracts/PlanetZephyrosV1.sol\":7039:7060  tax > 200 ? tax : 200 */\n      tag_163\n      jumpi\n        /* \"contracts/PlanetZephyrosV1.sol\":7057:7060  200 */\n      0xc8\n        /* \"contracts/PlanetZephyrosV1.sol\":7039:7060  tax > 200 ? tax : 200 */\n      jump(tag_164)\n    tag_163:\n        /* \"contracts/PlanetZephyrosV1.sol\":7051:7054  tax */\n      dup1\n        /* \"contracts/PlanetZephyrosV1.sol\":7039:7060  tax > 200 ? tax : 200 */\n    tag_164:\n        /* \"contracts/PlanetZephyrosV1.sol\":7032:7060  return tax > 200 ? tax : 200 */\n      swap4\n      pop\n      pop\n      pop\n      pop\n        /* \"contracts/PlanetZephyrosV1.sol\":6691:7068  function currentSellBps() public view returns (uint256) {... */\n    tag_151:\n      swap1\n      jump\t// out\n        /* \"contracts/PlanetZephyrosV1.sol\":8255:8507  function burn(uint256 amount) external {... */\n    tag_80:\n        /* \"contracts/PlanetZephyrosV1.sol\":8338:8344  amount */\n      dup1\n        /* \"contracts/PlanetZephyrosV1.sol\":8313:8322  _balances */\n      0x08\n        /* \"contracts/PlanetZephyrosV1.sol\":8313:8334  _balances[msg.sender] */\n      0x00\n        /* \"contracts/PlanetZephyrosV1.sol\":8323:8333  msg.sender */\n      caller\n        /* \"contracts/PlanetZephyrosV1.sol\":8313:8334  _balances[msg.sender] */\n      0xffffffffffffffffffffffffffffffffffffffff\n      and\n      0xffffffffffffffffffffffffffffffffffffffff\n      and\n      dup2\n      mstore\n      0x20\n      add\n      swap1\n      dup2\n      mstore\n      0x20\n      add\n      0x00\n      keccak256\n      sload\n        /* \"contracts/PlanetZephyrosV1.sol\":8313:8344  _balances[msg.sender] >= amount */\n      lt\n      iszero\n        /* \"contracts/PlanetZephyrosV1.sol\":8305:8369  require(_balances[msg.sender] >= amount, \"Insufficient balance\") */\n      tag_166\n      jumpi\n      mload(0x40)\n      0x08c379a000000000000000000000000000000000000000000000000000000000\n      dup2\n      mstore\n      0x04\n      add\n      tag_167\n      swap1\n      tag_168\n      jump\t// in\n    tag_167:\n      mload(0x40)\n      dup1\n      swap2\n      sub\n      swap1\n      revert\n    tag_166:\n        /* \"contracts/PlanetZephyrosV1.sol\":8405:8411  amount */\n      dup1\n        /* \"contracts/PlanetZephyrosV1.sol\":8380:8389  _balances */\n      0x08\n        /* \"contracts/PlanetZephyrosV1.sol\":8380:8401  _balances[msg.sender] */\n      0x00\n        /* \"contracts/PlanetZephyrosV1.sol\":8390:8400  msg.sender */\n      caller\n        /* \"contracts/PlanetZephyrosV1.sol\":8380:8401  _balances[msg.sender] */\n      0xffffffffffffffffffffffffffffffffffffffff\n      and\n      0xffffffffffffffffffffffffffffffffffffffff\n      and\n      dup2\n      mstore\n      0x20\n      add\n      swap1\n      dup2\n      mstore\n      0x20\n      add\n      0x00\n      keccak256\n      0x00\n        /* \"contracts/PlanetZephyrosV1.sol\":8380:8411  _balances[msg.sender] -= amount */\n      dup3\n      dup3\n      sload\n      tag_169\n      swap2\n      swap1\n      tag_148\n      jump\t// in\n    tag_169:\n      swap3\n      pop\n      pop\n      dup2\n      swap1\n      sstore\n      pop\n        /* \"contracts/PlanetZephyrosV1.sol\":8437:8443  amount */\n      dup1\n        /* \"contracts/PlanetZephyrosV1.sol\":8422:8433  totalSupply */\n      0x03\n      0x00\n        /* \"contracts/PlanetZephyrosV1.sol\":8422:8443  totalSupply -= amount */\n      dup3\n      dup3\n      sload\n      tag_170\n      swap2\n      swap1\n      tag_148\n      jump\t// in\n    tag_170:\n      swap3\n      pop\n      pop\n      dup2\n      swap1\n      sstore\n      pop\n        /* \"contracts/PlanetZephyrosV1.sol\":8488:8489  0 */\n      0x00\n        /* \"contracts/PlanetZephyrosV1.sol\":8459:8499  Transfer(msg.sender, address(0), amount) */\n      0xffffffffffffffffffffffffffffffffffffffff\n      and\n        /* \"contracts/PlanetZephyrosV1.sol\":8468:8478  msg.sender */\n      caller\n        /* \"contracts/PlanetZephyrosV1.sol\":8459:8499  Transfer(msg.sender, address(0), amount) */\n      0xffffffffffffffffffffffffffffffffffffffff\n      and\n      0xddf252ad1be2c89b69c2b068fc378daa952ba7f163c4a11628f55a4df523b3ef\n        /* \"contracts/PlanetZephyrosV1.sol\":8492:8498  amount */\n      dup4\n        /* \"contracts/PlanetZephyrosV1.sol\":8459:8499  Transfer(msg.sender, address(0), amount) */\n      mload(0x40)\n      tag_171\n      swap2\n      swap1\n      tag_54\n      jump\t// in\n    tag_171:\n      mload(0x40)\n      dup1\n      swap2\n      sub\n      swap1\n      log3\n        /* \"contracts/PlanetZephyrosV1.sol\":8255:8507  function burn(uint256 amount) external {... */\n      pop\n      jump\t// out\n        /* \"contracts/PlanetZephyrosV1.sol\":1134:1160  bool public tradingEnabled */\n    tag_82:\n      0x06\n      0x14\n      swap1\n      sload\n      swap1\n      0x0100\n      exp\n      swap1\n      div\n      0xff\n      and\n      dup2\n      jump\t// out\n        /* \"contracts/PlanetZephyrosV1.sol\":977:1016  uint256 public immutable burnRatio = 80 */\n    tag_85:\n      immutable(\"0x59c0d2b7af0a8e6d3d8e710a078764bd67b7223777026c424cdb4f599824bb79\")\n      dup2\n      jump\t// out\n        /* \"contracts/PlanetZephyrosV1.sol\":1167:1190  bool public taxesPaused */\n    tag_88:\n      0x06\n      0x15\n      swap1\n      sload\n      swap1\n      0x0100\n      exp\n      swap1\n      div\n      0xff\n      and\n      dup2\n      jump\t// out\n        /* \"contracts/PlanetZephyrosV1.sol\":3438:3548  function balanceOf(address account) public view returns (uint256) {... */\n    tag_92:\n        /* \"contracts/PlanetZephyrosV1.sol\":3495:3502  uint256 */\n      0x00\n        /* \"contracts/PlanetZephyrosV1.sol\":3522:3531  _balances */\n      0x08\n        /* \"contracts/PlanetZephyrosV1.sol\":3522:3540  _balances[account] */\n      0x00\n        /* \"contracts/PlanetZephyrosV1.sol\":3532:3539  account */\n      dup4\n        /* \"contracts/PlanetZephyrosV1.sol\":3522:3540  _balances[account] */\n      0xffffffffffffffffffffffffffffffffffffffff\n      and\n      0xffffffffffffffffffffffffffffffffffffffff\n      and\n      dup2\n      mstore\n      0x20\n      add\n      swap1\n      dup2\n      mstore\n      0x20\n      add\n      0x00\n      keccak256\n      sload\n        /* \"contracts/PlanetZephyrosV1.sol\":3515:3540  return _balances[account] */\n      swap1\n      pop\n        /* \"contracts/PlanetZephyrosV1.sol\":3438:3548  function balanceOf(address account) public view returns (uint256) {... */\n      swap2\n      swap1\n      pop\n      jump\t// out\n        /* \"contracts/PlanetZephyrosV1.sol\":6314:6683  function currentBuyBps() public view returns (uint256) {... */\n    tag_95:\n        /* \"contracts/PlanetZephyrosV1.sol\":6360:6367  uint256 */\n      0x00\n        /* \"contracts/PlanetZephyrosV1.sol\":6384:6395  taxesPaused */\n      0x06\n      0x15\n      swap1\n      sload\n      swap1\n      0x0100\n      exp\n      swap1\n      div\n      0xff\n      and\n        /* \"contracts/PlanetZephyrosV1.sol\":6380:6405  if (taxesPaused) return 0 */\n      iszero\n      tag_174\n      jumpi\n        /* \"contracts/PlanetZephyrosV1.sol\":6404:6405  0 */\n      0x00\n        /* \"contracts/PlanetZephyrosV1.sol\":6397:6405  return 0 */\n      swap1\n      pop\n      jump(tag_173)\n        /* \"contracts/PlanetZephyrosV1.sol\":6380:6405  if (taxesPaused) return 0 */\n    tag_174:\n        /* \"contracts/PlanetZephyrosV1.sol\":6416:6437  uint256 supplyPercent */\n      0x00\n        /* \"contracts/PlanetZephyrosV1.sol\":766:784  1_000_000 * 10**18 */\n      0xd3c21bcecceda1000000\n        /* \"contracts/PlanetZephyrosV1.sol\":6455:6458  100 */\n      0x64\n        /* \"contracts/PlanetZephyrosV1.sol\":6441:6452  totalSupply */\n      sload(0x03)\n        /* \"contracts/PlanetZephyrosV1.sol\":6441:6458  totalSupply * 100 */\n      tag_175\n      swap2\n      swap1\n      tag_154\n      jump\t// in\n    tag_175:\n        /* \"contracts/PlanetZephyrosV1.sol\":6440:6475  (totalSupply * 100) / initialSupply */\n      tag_176\n      swap2\n      swap1\n      tag_156\n      jump\t// in\n    tag_176:\n        /* \"contracts/PlanetZephyrosV1.sol\":6416:6475  uint256 supplyPercent = (totalSupply * 100) / initialSupply */\n      swap1\n      pop\n        /* \"contracts/PlanetZephyrosV1.sol\":6507:6509  75 */\n      0x4b\n        /* \"contracts/PlanetZephyrosV1.sol\":6490:6503  supplyPercent */\n      dup2\n        /* \"contracts/PlanetZephyrosV1.sol\":6490:6509  supplyPercent <= 75 */\n      gt\n        /* \"contracts/PlanetZephyrosV1.sol\":6486:6519  if (supplyPercent <= 75) return 0 */\n      tag_177\n      jumpi\n        /* \"contracts/PlanetZephyrosV1.sol\":6518:6519  0 */\n      0x00\n        /* \"contracts/PlanetZephyrosV1.sol\":6511:6519  return 0 */\n      swap2\n      pop\n      pop\n      jump(tag_173)\n        /* \"contracts/PlanetZephyrosV1.sol\":6486:6519  if (supplyPercent <= 75) return 0 */\n    tag_177:\n        /* \"contracts/PlanetZephyrosV1.sol\":6530:6552  uint256 reductionSteps */\n      0x00\n        /* \"contracts/PlanetZephyrosV1.sol\":6586:6588  25 */\n      0x19\n        /* \"contracts/PlanetZephyrosV1.sol\":6580:6582  10 */\n      0x0a\n        /* \"contracts/PlanetZephyrosV1.sol\":6563:6576  supplyPercent */\n      dup4\n        /* \"contracts/PlanetZephyrosV1.sol\":6557:6560  100 */\n      0x64\n        /* \"contracts/PlanetZephyrosV1.sol\":6557:6576  100 - supplyPercent */\n      tag_178\n      swap2\n      swap1\n      tag_148\n      jump\t// in\n    tag_178:\n        /* \"contracts/PlanetZephyrosV1.sol\":6556:6582  (100 - supplyPercent) * 10 */\n      tag_179\n      swap2\n      swap1\n      tag_154\n      jump\t// in\n    tag_179:\n        /* \"contracts/PlanetZephyrosV1.sol\":6555:6588  ((100 - supplyPercent) * 10) / 25 */\n      tag_180\n      swap2\n      swap1\n      tag_156\n      jump\t// in\n    tag_180:\n        /* \"contracts/PlanetZephyrosV1.sol\":6530:6588  uint256 reductionSteps = ((100 - supplyPercent) * 10) / 25 */\n      swap1\n      pop\n        /* \"contracts/PlanetZephyrosV1.sol\":6599:6610  uint256 tax */\n      0x00\n        /* \"contracts/PlanetZephyrosV1.sol\":6637:6639  50 */\n      0x32\n        /* \"contracts/PlanetZephyrosV1.sol\":6620:6634  reductionSteps */\n      dup3\n        /* \"contracts/PlanetZephyrosV1.sol\":6620:6639  reductionSteps * 50 */\n      tag_181\n      swap2\n      swap1\n      tag_154\n      jump\t// in\n    tag_181:\n        /* \"contracts/PlanetZephyrosV1.sol\":6613:6616  500 */\n      0x01f4\n        /* \"contracts/PlanetZephyrosV1.sol\":6613:6640  500 - (reductionSteps * 50) */\n      tag_182\n      swap2\n      swap1\n      tag_148\n      jump\t// in\n    tag_182:\n        /* \"contracts/PlanetZephyrosV1.sol\":6599:6640  uint256 tax = 500 - (reductionSteps * 50) */\n      swap1\n      pop\n        /* \"contracts/PlanetZephyrosV1.sol\":6664:6665  0 */\n      0x00\n        /* \"contracts/PlanetZephyrosV1.sol\":6658:6661  tax */\n      dup2\n        /* \"contracts/PlanetZephyrosV1.sol\":6658:6665  tax > 0 */\n      gt\n        /* \"contracts/PlanetZephyrosV1.sol\":6658:6675  tax > 0 ? tax : 0 */\n      tag_183\n      jumpi\n        /* \"contracts/PlanetZephyrosV1.sol\":6674:6675  0 */\n      0x00\n        /* \"contracts/PlanetZephyrosV1.sol\":6658:6675  tax > 0 ? tax : 0 */\n      jump(tag_184)\n    tag_183:\n        /* \"contracts/PlanetZephyrosV1.sol\":6668:6671  tax */\n      dup1\n        /* \"contracts/PlanetZephyrosV1.sol\":6658:6675  tax > 0 ? tax : 0 */\n    tag_184:\n        /* \"contracts/PlanetZephyrosV1.sol\":6651:6675  return tax > 0 ? tax : 0 */\n      swap4\n      pop\n      pop\n      pop\n      pop\n        /* \"contracts/PlanetZephyrosV1.sol\":6314:6683  function currentBuyBps() public view returns (uint256) {... */\n    tag_173:\n      swap1\n      jump\t// out\n        /* \"contracts/PlanetZephyrosV1.sol\":2373:2587  function enableTrading() external onlyOwner {... */\n    tag_98:\n        /* \"contracts/PlanetZephyrosV1.sol\":2212:2217  owner */\n      0x05\n      0x00\n      swap1\n      sload\n      swap1\n      0x0100\n      exp\n      swap1\n      div\n      0xffffffffffffffffffffffffffffffffffffffff\n      and\n        /* \"contracts/PlanetZephyrosV1.sol\":2198:2217  msg.sender == owner */\n      0xffffffffffffffffffffffffffffffffffffffff\n      and\n        /* \"contracts/PlanetZephyrosV1.sol\":2198:2208  msg.sender */\n      caller\n        /* \"contracts/PlanetZephyrosV1.sol\":2198:2217  msg.sender == owner */\n      0xffffffffffffffffffffffffffffffffffffffff\n      and\n      eq\n        /* \"contracts/PlanetZephyrosV1.sol\":2190:2231  require(msg.sender == owner, \"Not owner\") */\n      tag_186\n      jumpi\n      mload(0x40)\n      0x08c379a000000000000000000000000000000000000000000000000000000000\n      dup2\n      mstore\n      0x04\n      add\n      tag_187\n      swap1\n      tag_188\n      jump\t// in\n    tag_187:\n      mload(0x40)\n      dup1\n      swap2\n      sub\n      swap1\n      revert\n    tag_186:\n        /* \"contracts/PlanetZephyrosV1.sol\":2445:2449  true */\n      0x01\n        /* \"contracts/PlanetZephyrosV1.sol\":2428:2442  tradingEnabled */\n      0x06\n      0x14\n        /* \"contracts/PlanetZephyrosV1.sol\":2428:2449  tradingEnabled = true */\n      0x0100\n      exp\n      dup2\n      sload\n      dup2\n      0xff\n      mul\n      not\n      and\n      swap1\n      dup4\n      iszero\n      iszero\n      mul\n      or\n      swap1\n      sstore\n      pop\n        /* \"contracts/PlanetZephyrosV1.sol\":2522:2523  0 */\n      0x00\n        /* \"contracts/PlanetZephyrosV1.sol\":2506:2511  owner */\n      0x05\n      0x00\n        /* \"contracts/PlanetZephyrosV1.sol\":2506:2524  owner = address(0) */\n      0x0100\n      exp\n      dup2\n      sload\n      dup2\n      0xffffffffffffffffffffffffffffffffffffffff\n      mul\n      not\n      and\n      swap1\n      dup4\n      0xffffffffffffffffffffffffffffffffffffffff\n      and\n      mul\n      or\n      swap1\n      sstore\n      pop\n        /* \"contracts/PlanetZephyrosV1.sol\":2576:2577  0 */\n      0x00\n        /* \"contracts/PlanetZephyrosV1.sol\":2540:2579  OwnershipTransferred(owner, address(0)) */\n      0xffffffffffffffffffffffffffffffffffffffff\n      and\n        /* \"contracts/PlanetZephyrosV1.sol\":2561:2566  owner */\n      0x05\n      0x00\n      swap1\n      sload\n      swap1\n      0x0100\n      exp\n      swap1\n      div\n      0xffffffffffffffffffffffffffffffffffffffff\n      and\n        /* \"contracts/PlanetZephyrosV1.sol\":2540:2579  OwnershipTransferred(owner, address(0)) */\n      0xffffffffffffffffffffffffffffffffffffffff\n      and\n      0x8be0079c531659141344cd1fd0a4f28419497f9722a3daafe3b4186f6b6457e0\n      mload(0x40)\n      mload(0x40)\n      dup1\n      swap2\n      sub\n      swap1\n      log3\n        /* \"contracts/PlanetZephyrosV1.sol\":2373:2587  function enableTrading() external onlyOwner {... */\n      jump\t// out\n        /* \"contracts/PlanetZephyrosV1.sol\":1023:1043  address public owner */\n    tag_100:\n      0x05\n      0x00\n      swap1\n      sload\n      swap1\n      0x0100\n      exp\n      swap1\n      div\n      0xffffffffffffffffffffffffffffffffffffffff\n      and\n      dup2\n      jump\t// out\n        /* \"contracts/PlanetZephyrosV1.sol\":624:653  string public symbol = \"CORE\" */\n    tag_103:\n      0x01\n      dup1\n      sload\n      tag_190\n      swap1\n      tag_134\n      jump\t// in\n    tag_190:\n      dup1\n      0x1f\n      add\n      0x20\n      dup1\n      swap2\n      div\n      mul\n      0x20\n      add\n      mload(0x40)\n      swap1\n      dup2\n      add\n      0x40\n      mstore\n      dup1\n      swap3\n      swap2\n      swap1\n      dup2\n      dup2\n      mstore\n      0x20\n      add\n      dup3\n      dup1\n      sload\n      tag_191\n      swap1\n      tag_134\n      jump\t// in\n    tag_191:\n      dup1\n      iszero\n      tag_192\n      jumpi\n      dup1\n      0x1f\n      lt\n      tag_193\n      jumpi\n      0x0100\n      dup1\n      dup4\n      sload\n      div\n      mul\n      dup4\n      mstore\n      swap2\n      0x20\n      add\n      swap2\n      jump(tag_192)\n    tag_193:\n      dup3\n      add\n      swap2\n      swap1\n      0x00\n      mstore\n      keccak256(0x00, 0x20)\n      swap1\n    tag_194:\n      dup2\n      sload\n      dup2\n      mstore\n      swap1\n      0x01\n      add\n      swap1\n      0x20\n      add\n      dup1\n      dup4\n      gt\n      tag_194\n      jumpi\n      dup3\n      swap1\n      sub\n      0x1f\n      and\n      dup3\n      add\n      swap2\n    tag_192:\n      pop\n      pop\n      pop\n      pop\n      pop\n      dup2\n      jump\t// out\n        /* \"contracts/PlanetZephyrosV1.sol\":1050:1076  address public pairAddress */\n    tag_106:\n      0x06\n      0x00\n      swap1\n      sload\n      swap1\n      0x0100\n      exp\n      swap1\n      div\n      0xffffffffffffffffffffffffffffffffffffffff\n      and\n      dup2\n      jump\t// out\n        /* \"contracts/PlanetZephyrosV1.sol\":3556:3712  function transfer(address recipient, uint256 amount) public returns (bool) {... */\n    tag_110:\n        /* \"contracts/PlanetZephyrosV1.sol\":3625:3629  bool */\n      0x00\n        /* \"contracts/PlanetZephyrosV1.sol\":3642:3682  _transfer(msg.sender, recipient, amount) */\n      tag_196\n        /* \"contracts/PlanetZephyrosV1.sol\":3652:3662  msg.sender */\n      caller\n        /* \"contracts/PlanetZephyrosV1.sol\":3664:3673  recipient */\n      dup5\n        /* \"contracts/PlanetZephyrosV1.sol\":3675:3681  amount */\n      dup5\n        /* \"contracts/PlanetZephyrosV1.sol\":3642:3651  _transfer */\n      tag_150\n        /* \"contracts/PlanetZephyrosV1.sol\":3642:3682  _transfer(msg.sender, recipient, amount) */\n      jump\t// in\n    tag_196:\n        /* \"contracts/PlanetZephyrosV1.sol\":3700:3704  true */\n      0x01\n        /* \"contracts/PlanetZephyrosV1.sol\":3693:3704  return true */\n      swap1\n      pop\n        /* \"contracts/PlanetZephyrosV1.sol\":3556:3712  function transfer(address recipient, uint256 amount) public returns (bool) {... */\n      swap3\n      swap2\n      pop\n      pop\n      jump\t// out\n        /* \"contracts/PlanetZephyrosV1.sol\":3293:3430  function toggleTaxesPaused() external onlyTaxWallet {... */\n    tag_113:\n        /* \"contracts/PlanetZephyrosV1.sol\":2317:2326  taxWallet */\n      0x04\n      0x00\n      swap1\n      sload\n      swap1\n      0x0100\n      exp\n      swap1\n      div\n      0xffffffffffffffffffffffffffffffffffffffff\n      and\n        /* \"contracts/PlanetZephyrosV1.sol\":2303:2326  msg.sender == taxWallet */\n      0xffffffffffffffffffffffffffffffffffffffff\n      and\n        /* \"contracts/PlanetZephyrosV1.sol\":2303:2313  msg.sender */\n      caller\n        /* \"contracts/PlanetZephyrosV1.sol\":2303:2326  msg.sender == taxWallet */\n      0xffffffffffffffffffffffffffffffffffffffff\n      and\n      eq\n        /* \"contracts/PlanetZephyrosV1.sol\":2295:2345  require(msg.sender == taxWallet, \"Not tax wallet\") */\n      tag_198\n      jumpi\n      mload(0x40)\n      0x08c379a000000000000000000000000000000000000000000000000000000000\n      dup2\n      mstore\n      0x04\n      add\n      tag_199\n      swap1\n      tag_200\n      jump\t// in\n    tag_199:\n      mload(0x40)\n      dup1\n      swap2\n      sub\n      swap1\n      revert\n    tag_198:\n        /* \"contracts/PlanetZephyrosV1.sol\":3371:3382  taxesPaused */\n      0x06\n      0x15\n      swap1\n      sload\n      swap1\n      0x0100\n      exp\n      swap1\n      div\n      0xff\n      and\n        /* \"contracts/PlanetZephyrosV1.sol\":3370:3382  !taxesPaused */\n      iszero\n        /* \"contracts/PlanetZephyrosV1.sol\":3356:3367  taxesPaused */\n      0x06\n      0x15\n        /* \"contracts/PlanetZephyrosV1.sol\":3356:3382  taxesPaused = !taxesPaused */\n      0x0100\n      exp\n      dup2\n      sload\n      dup2\n      0xff\n      mul\n      not\n      and\n      swap1\n      dup4\n      iszero\n      iszero\n      mul\n      or\n      swap1\n      sstore\n      pop\n        /* \"contracts/PlanetZephyrosV1.sol\":3398:3422  TaxesPaused(taxesPaused) */\n      0xb21f1bf19bf23907b1221d7992f53e5de51a210000da41df67de751378934ad9\n        /* \"contracts/PlanetZephyrosV1.sol\":3410:3421  taxesPaused */\n      0x06\n      0x15\n      swap1\n      sload\n      swap1\n      0x0100\n      exp\n      swap1\n      div\n      0xff\n      and\n        /* \"contracts/PlanetZephyrosV1.sol\":3398:3422  TaxesPaused(taxesPaused) */\n      mload(0x40)\n      tag_202\n      swap2\n      swap1\n      tag_41\n      jump\t// in\n    tag_202:\n      mload(0x40)\n      dup1\n      swap2\n      sub\n      swap1\n      log1\n        /* \"contracts/PlanetZephyrosV1.sol\":3293:3430  function toggleTaxesPaused() external onlyTaxWallet {... */\n      jump\t// out\n        /* \"contracts/PlanetZephyrosV1.sol\":2764:3005  function setTaxExemption(address account, bool isExempt) external onlyOwner {... */\n    tag_117:\n        /* \"contracts/PlanetZephyrosV1.sol\":2212:2217  owner */\n      0x05\n      0x00\n      swap1\n      sload\n      swap1\n      0x0100\n      exp\n      swap1\n      div\n      0xffffffffffffffffffffffffffffffffffffffff\n      and\n        /* \"contracts/PlanetZephyrosV1.sol\":2198:2217  msg.sender == owner */\n      0xffffffffffffffffffffffffffffffffffffffff\n      and\n        /* \"contracts/PlanetZephyrosV1.sol\":2198:2208  msg.sender */\n      caller\n        /* \"contracts/PlanetZephyrosV1.sol\":2198:2217  msg.sender == owner */\n      0xffffffffffffffffffffffffffffffffffffffff\n      and\n      eq\n        /* \"contracts/PlanetZephyrosV1.sol\":2190:2231  require(msg.sender == owner, \"Not owner\") */\n      tag_204\n      jumpi\n      mload(0x40)\n      0x08c379a000000000000000000000000000000000000000000000000000000000\n      dup2\n      mstore\n      0x04\n      add\n      tag_205\n      swap1\n      tag_188\n      jump\t// in\n    tag_205:\n      mload(0x40)\n      dup1\n      swap2\n      sub\n      swap1\n      revert\n    tag_204:\n        /* \"contracts/PlanetZephyrosV1.sol\":2878:2879  0 */\n      0x00\n        /* \"contracts/PlanetZephyrosV1.sol\":2859:2880  account != address(0) */\n      0xffffffffffffffffffffffffffffffffffffffff\n      and\n        /* \"contracts/PlanetZephyrosV1.sol\":2859:2866  account */\n      dup3\n        /* \"contracts/PlanetZephyrosV1.sol\":2859:2880  account != address(0) */\n      0xffffffffffffffffffffffffffffffffffffffff\n      and\n      sub\n        /* \"contracts/PlanetZephyrosV1.sol\":2851:2897  require(account != address(0), \"Zero address\") */\n      tag_207\n      jumpi\n      mload(0x40)\n      0x08c379a000000000000000000000000000000000000000000000000000000000\n      dup2\n      mstore\n      0x04\n      add\n      tag_208\n      swap1\n      tag_209\n      jump\t// in\n    tag_208:\n      mload(0x40)\n      dup1\n      swap2\n      sub\n      swap1\n      revert\n    tag_207:\n        /* \"contracts/PlanetZephyrosV1.sol\":2935:2943  isExempt */\n      dup1\n        /* \"contracts/PlanetZephyrosV1.sol\":2908:2923  isExemptFromTax */\n      0x07\n        /* \"contracts/PlanetZephyrosV1.sol\":2908:2932  isExemptFromTax[account] */\n      0x00\n        /* \"contracts/PlanetZephyrosV1.sol\":2924:2931  account */\n      dup5\n        /* \"contracts/PlanetZephyrosV1.sol\":2908:2932  isExemptFromTax[account] */\n      0xffffffffffffffffffffffffffffffffffffffff\n      and\n      0xffffffffffffffffffffffffffffffffffffffff\n      and\n      dup2\n      mstore\n      0x20\n      add\n      swap1\n      dup2\n      mstore\n      0x20\n      add\n      0x00\n      keccak256\n      0x00\n        /* \"contracts/PlanetZephyrosV1.sol\":2908:2943  isExemptFromTax[account] = isExempt */\n      0x0100\n      exp\n      dup2\n      sload\n      dup2\n      0xff\n      mul\n      not\n      and\n      swap1\n      dup4\n      iszero\n      iszero\n      mul\n      or\n      swap1\n      sstore\n      pop\n        /* \"contracts/PlanetZephyrosV1.sol\":2979:2986  account */\n      dup2\n        /* \"contracts/PlanetZephyrosV1.sol\":2959:2997  TaxExemptionUpdated(account, isExempt) */\n      0xffffffffffffffffffffffffffffffffffffffff\n      and\n      0x36ee46fa09c2419f7bcf8135c2bdd56bc882be141cb075961717003bed74367d\n        /* \"contracts/PlanetZephyrosV1.sol\":2988:2996  isExempt */\n      dup3\n        /* \"contracts/PlanetZephyrosV1.sol\":2959:2997  TaxExemptionUpdated(account, isExempt) */\n      mload(0x40)\n      tag_210\n      swap2\n      swap1\n      tag_41\n      jump\t// in\n    tag_210:\n      mload(0x40)\n      dup1\n      swap2\n      sub\n      swap1\n      log2\n        /* \"contracts/PlanetZephyrosV1.sol\":2764:3005  function setTaxExemption(address account, bool isExempt) external onlyOwner {... */\n      pop\n      pop\n      jump\t// out\n        /* \"contracts/PlanetZephyrosV1.sol\":2595:2756  function setUniswapPair(address _pair) external onlyOwner {... */\n    tag_120:\n        /* \"contracts/PlanetZephyrosV1.sol\":2212:2217  owner */\n      0x05\n      0x00\n      swap1\n      sload\n      swap1\n      0x0100\n      exp\n      swap1\n      div\n      0xffffffffffffffffffffffffffffffffffffffff\n      and\n        /* \"contracts/PlanetZephyrosV1.sol\":2198:2217  msg.sender == owner */\n      0xffffffffffffffffffffffffffffffffffffffff\n      and\n        /* \"contracts/PlanetZephyrosV1.sol\":2198:2208  msg.sender */\n      caller\n        /* \"contracts/PlanetZephyrosV1.sol\":2198:2217  msg.sender == owner */\n      0xffffffffffffffffffffffffffffffffffffffff\n      and\n      eq\n        /* \"contracts/PlanetZephyrosV1.sol\":2190:2231  require(msg.sender == owner, \"Not owner\") */\n      tag_212\n      jumpi\n      mload(0x40)\n      0x08c379a000000000000000000000000000000000000000000000000000000000\n      dup2\n      mstore\n      0x04\n      add\n      tag_213\n      swap1\n      tag_188\n      jump\t// in\n    tag_213:\n      mload(0x40)\n      dup1\n      swap2\n      sub\n      swap1\n      revert\n    tag_212:\n        /* \"contracts/PlanetZephyrosV1.sol\":2695:2696  0 */\n      0x00\n        /* \"contracts/PlanetZephyrosV1.sol\":2672:2697  pairAddress == address(0) */\n      0xffffffffffffffffffffffffffffffffffffffff\n      and\n        /* \"contracts/PlanetZephyrosV1.sol\":2672:2683  pairAddress */\n      0x06\n      0x00\n      swap1\n      sload\n      swap1\n      0x0100\n      exp\n      swap1\n      div\n      0xffffffffffffffffffffffffffffffffffffffff\n      and\n        /* \"contracts/PlanetZephyrosV1.sol\":2672:2697  pairAddress == address(0) */\n      0xffffffffffffffffffffffffffffffffffffffff\n      and\n      eq\n        /* \"contracts/PlanetZephyrosV1.sol\":2664:2718  require(pairAddress == address(0), \"Pair already set\") */\n      tag_215\n      jumpi\n      mload(0x40)\n      0x08c379a000000000000000000000000000000000000000000000000000000000\n      dup2\n      mstore\n      0x04\n      add\n      tag_216\n      swap1\n      tag_217\n      jump\t// in\n    tag_216:\n      mload(0x40)\n      dup1\n      swap2\n      sub\n      swap1\n      revert\n    tag_215:\n        /* \"contracts/PlanetZephyrosV1.sol\":2743:2748  _pair */\n      dup1\n        /* \"contracts/PlanetZephyrosV1.sol\":2729:2740  pairAddress */\n      0x06\n      0x00\n        /* \"contracts/PlanetZephyrosV1.sol\":2729:2748  pairAddress = _pair */\n      0x0100\n      exp\n      dup2\n      sload\n      dup2\n      0xffffffffffffffffffffffffffffffffffffffff\n      mul\n      not\n      and\n      swap1\n      dup4\n      0xffffffffffffffffffffffffffffffffffffffff\n      and\n      mul\n      or\n      swap1\n      sstore\n      pop\n        /* \"contracts/PlanetZephyrosV1.sol\":2595:2756  function setUniswapPair(address _pair) external onlyOwner {... */\n      pop\n      jump\t// out\n        /* \"contracts/PlanetZephyrosV1.sol\":3720:3856  function allowance(address owner_, address spender) public view returns (uint256) {... */\n    tag_124:\n        /* \"contracts/PlanetZephyrosV1.sol\":3793:3800  uint256 */\n      0x00\n        /* \"contracts/PlanetZephyrosV1.sol\":3820:3831  _allowances */\n      0x09\n        /* \"contracts/PlanetZephyrosV1.sol\":3820:3839  _allowances[owner_] */\n      0x00\n        /* \"contracts/PlanetZephyrosV1.sol\":3832:3838  owner_ */\n      dup5\n        /* \"contracts/PlanetZephyrosV1.sol\":3820:3839  _allowances[owner_] */\n      0xffffffffffffffffffffffffffffffffffffffff\n      and\n      0xffffffffffffffffffffffffffffffffffffffff\n      and\n      dup2\n      mstore\n      0x20\n      add\n      swap1\n      dup2\n      mstore\n      0x20\n      add\n      0x00\n      keccak256\n        /* \"contracts/PlanetZephyrosV1.sol\":3820:3848  _allowances[owner_][spender] */\n      0x00\n        /* \"contracts/PlanetZephyrosV1.sol\":3840:3847  spender */\n      dup4\n        /* \"contracts/PlanetZephyrosV1.sol\":3820:3848  _allowances[owner_][spender] */\n      0xffffffffffffffffffffffffffffffffffffffff\n      and\n      0xffffffffffffffffffffffffffffffffffffffff\n      and\n      dup2\n      mstore\n      0x20\n      add\n      swap1\n      dup2\n      mstore\n      0x20\n      add\n      0x00\n      keccak256\n      sload\n        /* \"contracts/PlanetZephyrosV1.sol\":3813:3848  return _allowances[owner_][spender] */\n      swap1\n      pop\n        /* \"contracts/PlanetZephyrosV1.sol\":3720:3856  function allowance(address owner_, address spender) public view returns (uint256) {... */\n      swap3\n      swap2\n      pop\n      pop\n      jump\t// out\n        /* \"contracts/PlanetZephyrosV1.sol\":3013:3281  function transferTaxWallet(address _newTaxWallet) external onlyTaxWallet {... */\n    tag_128:\n        /* \"contracts/PlanetZephyrosV1.sol\":2317:2326  taxWallet */\n      0x04\n      0x00\n      swap1\n      sload\n      swap1\n      0x0100\n      exp\n      swap1\n      div\n      0xffffffffffffffffffffffffffffffffffffffff\n      and\n        /* \"contracts/PlanetZephyrosV1.sol\":2303:2326  msg.sender == taxWallet */\n      0xffffffffffffffffffffffffffffffffffffffff\n      and\n        /* \"contracts/PlanetZephyrosV1.sol\":2303:2313  msg.sender */\n      caller\n        /* \"contracts/PlanetZephyrosV1.sol\":2303:2326  msg.sender == taxWallet */\n      0xffffffffffffffffffffffffffffffffffffffff\n      and\n      eq\n        /* \"contracts/PlanetZephyrosV1.sol\":2295:2345  require(msg.sender == taxWallet, \"Not tax wallet\") */\n      tag_220\n      jumpi\n      mload(0x40)\n      0x08c379a000000000000000000000000000000000000000000000000000000000\n      dup2\n      mstore\n      0x04\n      add\n      tag_221\n      swap1\n      tag_200\n      jump\t// in\n    tag_221:\n      mload(0x40)\n      dup1\n      swap2\n      sub\n      swap1\n      revert\n    tag_220:\n        /* \"contracts/PlanetZephyrosV1.sol\":3124:3133  _balances */\n      0x08\n        /* \"contracts/PlanetZephyrosV1.sol\":3124:3144  _balances[taxWallet] */\n      0x00\n        /* \"contracts/PlanetZephyrosV1.sol\":3134:3143  taxWallet */\n      0x04\n      0x00\n      swap1\n      sload\n      swap1\n      0x0100\n      exp\n      swap1\n      div\n      0xffffffffffffffffffffffffffffffffffffffff\n      and\n        /* \"contracts/PlanetZephyrosV1.sol\":3124:3144  _balances[taxWallet] */\n      0xffffffffffffffffffffffffffffffffffffffff\n      and\n      0xffffffffffffffffffffffffffffffffffffffff\n      and\n      dup2\n      mstore\n      0x20\n      add\n      swap1\n      dup2\n      mstore\n      0x20\n      add\n      0x00\n      keccak256\n      sload\n        /* \"contracts/PlanetZephyrosV1.sol\":3097:3106  _balances */\n      0x08\n        /* \"contracts/PlanetZephyrosV1.sol\":3097:3121  _balances[_newTaxWallet] */\n      0x00\n        /* \"contracts/PlanetZephyrosV1.sol\":3107:3120  _newTaxWallet */\n      dup4\n        /* \"contracts/PlanetZephyrosV1.sol\":3097:3121  _balances[_newTaxWallet] */\n      0xffffffffffffffffffffffffffffffffffffffff\n      and\n      0xffffffffffffffffffffffffffffffffffffffff\n      and\n      dup2\n      mstore\n      0x20\n      add\n      swap1\n      dup2\n      mstore\n      0x20\n      add\n      0x00\n      keccak256\n        /* \"contracts/PlanetZephyrosV1.sol\":3097:3144  _balances[_newTaxWallet] = _balances[taxWallet] */\n      dup2\n      swap1\n      sstore\n      pop\n        /* \"contracts/PlanetZephyrosV1.sol\":3178:3179  0 */\n      0x00\n        /* \"contracts/PlanetZephyrosV1.sol\":3155:3164  _balances */\n      0x08\n        /* \"contracts/PlanetZephyrosV1.sol\":3155:3175  _balances[taxWallet] */\n      0x00\n        /* \"contracts/PlanetZephyrosV1.sol\":3165:3174  taxWallet */\n      0x04\n      0x00\n      swap1\n      sload\n      swap1\n      0x0100\n      exp\n      swap1\n      div\n      0xffffffffffffffffffffffffffffffffffffffff\n      and\n        /* \"contracts/PlanetZephyrosV1.sol\":3155:3175  _balances[taxWallet] */\n      0xffffffffffffffffffffffffffffffffffffffff\n      and\n      0xffffffffffffffffffffffffffffffffffffffff\n      and\n      dup2\n      mstore\n      0x20\n      add\n      swap1\n      dup2\n      mstore\n      0x20\n      add\n      0x00\n      keccak256\n        /* \"contracts/PlanetZephyrosV1.sol\":3155:3179  _balances[taxWallet] = 0 */\n      dup2\n      swap1\n      sstore\n      pop\n        /* \"contracts/PlanetZephyrosV1.sol\":3202:3215  _newTaxWallet */\n      dup1\n        /* \"contracts/PlanetZephyrosV1.sol\":3190:3199  taxWallet */\n      0x04\n      0x00\n        /* \"contracts/PlanetZephyrosV1.sol\":3190:3215  taxWallet = _newTaxWallet */\n      0x0100\n      exp\n      dup2\n      sload\n      dup2\n      0xffffffffffffffffffffffffffffffffffffffff\n      mul\n      not\n      and\n      swap1\n      dup4\n      0xffffffffffffffffffffffffffffffffffffffff\n      and\n      mul\n      or\n      swap1\n      sstore\n      pop\n        /* \"contracts/PlanetZephyrosV1.sol\":3259:3272  _newTaxWallet */\n      dup1\n        /* \"contracts/PlanetZephyrosV1.sol\":3231:3273  TaxWalletUpdated(taxWallet, _newTaxWallet) */\n      0xffffffffffffffffffffffffffffffffffffffff\n      and\n        /* \"contracts/PlanetZephyrosV1.sol\":3248:3257  taxWallet */\n      0x04\n      0x00\n      swap1\n      sload\n      swap1\n      0x0100\n      exp\n      swap1\n      div\n      0xffffffffffffffffffffffffffffffffffffffff\n      and\n        /* \"contracts/PlanetZephyrosV1.sol\":3231:3273  TaxWalletUpdated(taxWallet, _newTaxWallet) */\n      0xffffffffffffffffffffffffffffffffffffffff\n      and\n      0x849a2ad8ad386f1e9897e9e0a62d16771c675e4740986a16fb31bd8e1dde9c97\n      mload(0x40)\n      mload(0x40)\n      dup1\n      swap2\n      sub\n      swap1\n      log3\n        /* \"contracts/PlanetZephyrosV1.sol\":3013:3281  function transferTaxWallet(address _newTaxWallet) external onlyTaxWallet {... */\n      pop\n      jump\t// out\n        /* \"contracts/PlanetZephyrosV1.sol\":7076:8247  function sellWithTax(uint256 amount, uint256 minOut, address to) external {... */\n    tag_132:\n        /* \"contracts/PlanetZephyrosV1.sol\":7169:7183  tradingEnabled */\n      0x06\n      0x14\n      swap1\n      sload\n      swap1\n      0x0100\n      exp\n      swap1\n      div\n      0xff\n      and\n        /* \"contracts/PlanetZephyrosV1.sol\":7161:7207  require(tradingEnabled, \"trading not enabled\") */\n      tag_224\n      jumpi\n      mload(0x40)\n      0x08c379a000000000000000000000000000000000000000000000000000000000\n      dup2\n      mstore\n      0x04\n      add\n      tag_225\n      swap1\n      tag_226\n      jump\t// in\n    tag_225:\n      mload(0x40)\n      dup1\n      swap2\n      sub\n      swap1\n      revert\n    tag_224:\n        /* \"contracts/PlanetZephyrosV1.sol\":7220:7264  _transfer(msg.sender, address(this), amount) */\n      tag_227\n        /* \"contracts/PlanetZephyrosV1.sol\":7230:7240  msg.sender */\n      caller\n        /* \"contracts/PlanetZephyrosV1.sol\":7250:7254  this */\n      address\n        /* \"contracts/PlanetZephyrosV1.sol\":7257:7263  amount */\n      dup6\n        /* \"contracts/PlanetZephyrosV1.sol\":7220:7229  _transfer */\n      tag_150\n        /* \"contracts/PlanetZephyrosV1.sol\":7220:7264  _transfer(msg.sender, address(this), amount) */\n      jump\t// in\n    tag_227:\n        /* \"contracts/PlanetZephyrosV1.sol\":7277:7291  uint256 taxBps */\n      0x00\n        /* \"contracts/PlanetZephyrosV1.sol\":7294:7310  currentSellBps() */\n      tag_228\n        /* \"contracts/PlanetZephyrosV1.sol\":7294:7308  currentSellBps */\n      tag_75\n        /* \"contracts/PlanetZephyrosV1.sol\":7294:7310  currentSellBps() */\n      jump\t// in\n    tag_228:\n        /* \"contracts/PlanetZephyrosV1.sol\":7277:7310  uint256 taxBps = currentSellBps() */\n      swap1\n      pop\n        /* \"contracts/PlanetZephyrosV1.sol\":7321:7338  uint256 taxAmount */\n      0x00\n        /* \"contracts/PlanetZephyrosV1.sol\":1122:1127  10000 */\n      0x2710\n        /* \"contracts/PlanetZephyrosV1.sol\":7351:7357  taxBps */\n      dup3\n        /* \"contracts/PlanetZephyrosV1.sol\":7342:7348  amount */\n      dup7\n        /* \"contracts/PlanetZephyrosV1.sol\":7342:7357  amount * taxBps */\n      tag_229\n      swap2\n      swap1\n      tag_154\n      jump\t// in\n    tag_229:\n        /* \"contracts/PlanetZephyrosV1.sol\":7341:7370  (amount * taxBps) / BPS_DENOM */\n      tag_230\n      swap2\n      swap1\n      tag_156\n      jump\t// in\n    tag_230:\n        /* \"contracts/PlanetZephyrosV1.sol\":7321:7370  uint256 taxAmount = (amount * taxBps) / BPS_DENOM */\n      swap1\n      pop\n        /* \"contracts/PlanetZephyrosV1.sol\":7381:7399  uint256 sellAmount */\n      0x00\n        /* \"contracts/PlanetZephyrosV1.sol\":7411:7420  taxAmount */\n      dup2\n        /* \"contracts/PlanetZephyrosV1.sol\":7402:7408  amount */\n      dup7\n        /* \"contracts/PlanetZephyrosV1.sol\":7402:7420  amount - taxAmount */\n      tag_231\n      swap2\n      swap1\n      tag_148\n      jump\t// in\n    tag_231:\n        /* \"contracts/PlanetZephyrosV1.sol\":7381:7420  uint256 sellAmount = amount - taxAmount */\n      swap1\n      pop\n        /* \"contracts/PlanetZephyrosV1.sol\":7433:7451  uint256 burnAmount */\n      0x00\n        /* \"contracts/PlanetZephyrosV1.sol\":7480:7483  100 */\n      0x64\n        /* \"contracts/PlanetZephyrosV1.sol\":7467:7476  burnRatio */\n      immutable(\"0x59c0d2b7af0a8e6d3d8e710a078764bd67b7223777026c424cdb4f599824bb79\")\n        /* \"contracts/PlanetZephyrosV1.sol\":7455:7464  taxAmount */\n      dup5\n        /* \"contracts/PlanetZephyrosV1.sol\":7455:7476  taxAmount * burnRatio */\n      tag_232\n      swap2\n      swap1\n      tag_154\n      jump\t// in\n    tag_232:\n        /* \"contracts/PlanetZephyrosV1.sol\":7454:7483  (taxAmount * burnRatio) / 100 */\n      tag_233\n      swap2\n      swap1\n      tag_156\n      jump\t// in\n    tag_233:\n        /* \"contracts/PlanetZephyrosV1.sol\":7433:7483  uint256 burnAmount = (taxAmount * burnRatio) / 100 */\n      swap1\n      pop\n        /* \"contracts/PlanetZephyrosV1.sol\":7494:7517  uint256 taxWalletAmount */\n      0x00\n        /* \"contracts/PlanetZephyrosV1.sol\":7532:7542  burnAmount */\n      dup2\n        /* \"contracts/PlanetZephyrosV1.sol\":7520:7529  taxAmount */\n      dup5\n        /* \"contracts/PlanetZephyrosV1.sol\":7520:7542  taxAmount - burnAmount */\n      tag_234\n      swap2\n      swap1\n      tag_148\n      jump\t// in\n    tag_234:\n        /* \"contracts/PlanetZephyrosV1.sol\":7494:7542  uint256 taxWalletAmount = taxAmount - burnAmount */\n      swap1\n      pop\n        /* \"contracts/PlanetZephyrosV1.sol\":7577:7578  0 */\n      0x00\n        /* \"contracts/PlanetZephyrosV1.sol\":7559:7574  taxWalletAmount */\n      dup2\n        /* \"contracts/PlanetZephyrosV1.sol\":7559:7578  taxWalletAmount > 0 */\n      gt\n        /* \"contracts/PlanetZephyrosV1.sol\":7555:7659  if (taxWalletAmount > 0) {... */\n      iszero\n      tag_235\n      jumpi\n        /* \"contracts/PlanetZephyrosV1.sol\":7595:7647  _transfer(address(this), taxWallet, taxWalletAmount) */\n      tag_236\n        /* \"contracts/PlanetZephyrosV1.sol\":7613:7617  this */\n      address\n        /* \"contracts/PlanetZephyrosV1.sol\":7620:7629  taxWallet */\n      0x04\n      0x00\n      swap1\n      sload\n      swap1\n      0x0100\n      exp\n      swap1\n      div\n      0xffffffffffffffffffffffffffffffffffffffff\n      and\n        /* \"contracts/PlanetZephyrosV1.sol\":7631:7646  taxWalletAmount */\n      dup4\n        /* \"contracts/PlanetZephyrosV1.sol\":7595:7604  _transfer */\n      tag_150\n        /* \"contracts/PlanetZephyrosV1.sol\":7595:7647  _transfer(address(this), taxWallet, taxWalletAmount) */\n      jump\t// in\n    tag_236:\n        /* \"contracts/PlanetZephyrosV1.sol\":7555:7659  if (taxWalletAmount > 0) {... */\n    tag_235:\n        /* \"contracts/PlanetZephyrosV1.sol\":7686:7687  0 */\n      0x00\n        /* \"contracts/PlanetZephyrosV1.sol\":7673:7683  burnAmount */\n      dup3\n        /* \"contracts/PlanetZephyrosV1.sol\":7673:7687  burnAmount > 0 */\n      gt\n        /* \"contracts/PlanetZephyrosV1.sol\":7669:7861  if (burnAmount > 0) {... */\n      iszero\n      tag_237\n      jumpi\n        /* \"contracts/PlanetZephyrosV1.sol\":7719:7729  burnAmount */\n      dup2\n        /* \"contracts/PlanetZephyrosV1.sol\":7704:7715  totalSupply */\n      0x03\n      0x00\n        /* \"contracts/PlanetZephyrosV1.sol\":7704:7729  totalSupply -= burnAmount */\n      dup3\n      dup3\n      sload\n      tag_238\n      swap2\n      swap1\n      tag_148\n      jump\t// in\n    tag_238:\n      swap3\n      pop\n      pop\n      dup2\n      swap1\n      sstore\n      pop\n        /* \"contracts/PlanetZephyrosV1.sol\":7772:7782  burnAmount */\n      dup2\n        /* \"contracts/PlanetZephyrosV1.sol\":7744:7753  _balances */\n      0x08\n        /* \"contracts/PlanetZephyrosV1.sol\":7744:7768  _balances[address(this)] */\n      0x00\n        /* \"contracts/PlanetZephyrosV1.sol\":7762:7766  this */\n      address\n        /* \"contracts/PlanetZephyrosV1.sol\":7744:7768  _balances[address(this)] */\n      0xffffffffffffffffffffffffffffffffffffffff\n      and\n      0xffffffffffffffffffffffffffffffffffffffff\n      and\n      dup2\n      mstore\n      0x20\n      add\n      swap1\n      dup2\n      mstore\n      0x20\n      add\n      0x00\n      keccak256\n      0x00\n        /* \"contracts/PlanetZephyrosV1.sol\":7744:7782  _balances[address(this)] -= burnAmount */\n      dup3\n      dup3\n      sload\n      tag_239\n      swap2\n      swap1\n      tag_148\n      jump\t// in\n    tag_239:\n      swap3\n      pop\n      pop\n      dup2\n      swap1\n      sstore\n      pop\n        /* \"contracts/PlanetZephyrosV1.sol\":7834:7835  0 */\n      0x00\n        /* \"contracts/PlanetZephyrosV1.sol\":7802:7849  Transfer(address(this), address(0), burnAmount) */\n      0xffffffffffffffffffffffffffffffffffffffff\n      and\n        /* \"contracts/PlanetZephyrosV1.sol\":7819:7823  this */\n      address\n        /* \"contracts/PlanetZephyrosV1.sol\":7802:7849  Transfer(address(this), address(0), burnAmount) */\n      0xffffffffffffffffffffffffffffffffffffffff\n      and\n      0xddf252ad1be2c89b69c2b068fc378daa952ba7f163c4a11628f55a4df523b3ef\n        /* \"contracts/PlanetZephyrosV1.sol\":7838:7848  burnAmount */\n      dup5\n        /* \"contracts/PlanetZephyrosV1.sol\":7802:7849  Transfer(address(this), address(0), burnAmount) */\n      mload(0x40)\n      tag_240\n      swap2\n      swap1\n      tag_54\n      jump\t// in\n    tag_240:\n      mload(0x40)\n      dup1\n      swap2\n      sub\n      swap1\n      log3\n        /* \"contracts/PlanetZephyrosV1.sol\":7669:7861  if (burnAmount > 0) {... */\n    tag_237:\n        /* \"contracts/PlanetZephyrosV1.sol\":7873:7923  _approve(address(this), routerAddress, sellAmount) */\n      tag_241\n        /* \"contracts/PlanetZephyrosV1.sol\":7890:7894  this */\n      address\n        /* \"contracts/PlanetZephyrosV1.sol\":7897:7910  routerAddress */\n      immutable(\"0xc47ece0ffae697632ce145a7086cbcf260f7fa60876ff2606761ea2b7581ee76\")\n        /* \"contracts/PlanetZephyrosV1.sol\":7912:7922  sellAmount */\n      dup6\n        /* \"contracts/PlanetZephyrosV1.sol\":7873:7881  _approve */\n      tag_141\n        /* \"contracts/PlanetZephyrosV1.sol\":7873:7923  _approve(address(this), routerAddress, sellAmount) */\n      jump\t// in\n    tag_241:\n        /* \"contracts/PlanetZephyrosV1.sol\":7936:7957  address[] memory path */\n      0x00\n        /* \"contracts/PlanetZephyrosV1.sol\":7974:7975  2 */\n      0x02\n        /* \"contracts/PlanetZephyrosV1.sol\":7960:7976  new address[](2) */\n      0xffffffffffffffff\n      dup2\n      gt\n      iszero\n      tag_242\n      jumpi\n      tag_243\n      tag_244\n      jump\t// in\n    tag_243:\n    tag_242:\n      mload(0x40)\n      swap1\n      dup1\n      dup3\n      mstore\n      dup1\n      0x20\n      mul\n      0x20\n      add\n      dup3\n      add\n      0x40\n      mstore\n      dup1\n      iszero\n      tag_245\n      jumpi\n      dup2\n      0x20\n      add\n      0x20\n      dup3\n      mul\n      dup1\n      calldatasize\n      dup4\n      calldatacopy\n      dup1\n      dup3\n      add\n      swap2\n      pop\n      pop\n      swap1\n      pop\n    tag_245:\n      pop\n        /* \"contracts/PlanetZephyrosV1.sol\":7936:7976  address[] memory path = new address[](2) */\n      swap1\n      pop\n        /* \"contracts/PlanetZephyrosV1.sol\":8005:8009  this */\n      address\n        /* \"contracts/PlanetZephyrosV1.sol\":7987:7991  path */\n      dup2\n        /* \"contracts/PlanetZephyrosV1.sol\":7992:7993  0 */\n      0x00\n        /* \"contracts/PlanetZephyrosV1.sol\":7987:7994  path[0] */\n      dup2\n      mload\n      dup2\n      lt\n      tag_246\n      jumpi\n      tag_247\n      tag_248\n      jump\t// in\n    tag_247:\n    tag_246:\n      0x20\n      mul\n      0x20\n      add\n      add\n        /* \"contracts/PlanetZephyrosV1.sol\":7987:8010  path[0] = address(this) */\n      swap1\n      0xffffffffffffffffffffffffffffffffffffffff\n      and\n      swap1\n      dup2\n      0xffffffffffffffffffffffffffffffffffffffff\n      and\n      dup2\n      mstore\n      pop\n      pop\n        /* \"contracts/PlanetZephyrosV1.sol\":8050:8063  routerAddress */\n      immutable(\"0xc47ece0ffae697632ce145a7086cbcf260f7fa60876ff2606761ea2b7581ee76\")\n        /* \"contracts/PlanetZephyrosV1.sol\":8031:8069  IUniswapV2Router02(routerAddress).WETH */\n      0xffffffffffffffffffffffffffffffffffffffff\n      and\n      0xad5c4648\n        /* \"contracts/PlanetZephyrosV1.sol\":8031:8071  IUniswapV2Router02(routerAddress).WETH() */\n      mload(0x40)\n      dup2\n      0xffffffff\n      and\n      0xe0\n      shl\n      dup2\n      mstore\n      0x04\n      add\n      0x20\n      mload(0x40)\n      dup1\n      dup4\n      sub\n      dup2\n      dup7\n      gas\n      staticcall\n      iszero\n      dup1\n      iszero\n      tag_250\n      jumpi\n      returndatasize\n      0x00\n      dup1\n      returndatacopy\n      revert(0x00, returndatasize)\n    tag_250:\n      pop\n      pop\n      pop\n      pop\n      mload(0x40)\n      returndatasize\n      not(0x1f)\n      0x1f\n      dup3\n      add\n      and\n      dup3\n      add\n      dup1\n      0x40\n      mstore\n      pop\n      dup2\n      add\n      swap1\n      tag_251\n      swap2\n      swap1\n      tag_252\n      jump\t// in\n    tag_251:\n        /* \"contracts/PlanetZephyrosV1.sol\":8021:8025  path */\n      dup2\n        /* \"contracts/PlanetZephyrosV1.sol\":8026:8027  1 */\n      0x01\n        /* \"contracts/PlanetZephyrosV1.sol\":8021:8028  path[1] */\n      dup2\n      mload\n      dup2\n      lt\n      tag_253\n      jumpi\n      tag_254\n      tag_248\n      jump\t// in\n    tag_254:\n    tag_253:\n      0x20\n      mul\n      0x20\n      add\n      add\n        /* \"contracts/PlanetZephyrosV1.sol\":8021:8071  path[1] = IUniswapV2Router02(routerAddress).WETH() */\n      swap1\n      0xffffffffffffffffffffffffffffffffffffffff\n      and\n      swap1\n      dup2\n      0xffffffffffffffffffffffffffffffffffffffff\n      and\n      dup2\n      mstore\n      pop\n      pop\n        /* \"contracts/PlanetZephyrosV1.sol\":8103:8116  routerAddress */\n      immutable(\"0xc47ece0ffae697632ce145a7086cbcf260f7fa60876ff2606761ea2b7581ee76\")\n        /* \"contracts/PlanetZephyrosV1.sol\":8084:8168  IUniswapV2Router02(routerAddress).swapExactTokensForETHSupportingFeeOnTransferTokens */\n      0xffffffffffffffffffffffffffffffffffffffff\n      and\n      0x791ac947\n        /* \"contracts/PlanetZephyrosV1.sol\":8183:8193  sellAmount */\n      dup6\n        /* \"contracts/PlanetZephyrosV1.sol\":8195:8201  minOut */\n      dup11\n        /* \"contracts/PlanetZephyrosV1.sol\":8203:8207  path */\n      dup5\n        /* \"contracts/PlanetZephyrosV1.sol\":8209:8211  to */\n      dup12\n        /* \"contracts/PlanetZephyrosV1.sol\":8213:8228  block.timestamp */\n      timestamp\n        /* \"contracts/PlanetZephyrosV1.sol\":8084:8239  IUniswapV2Router02(routerAddress).swapExactTokensForETHSupportingFeeOnTransferTokens(... */\n      mload(0x40)\n      dup7\n      0xffffffff\n      and\n      0xe0\n      shl\n      dup2\n      mstore\n      0x04\n      add\n      tag_255\n      swap6\n      swap5\n      swap4\n      swap3\n      swap2\n      swap1\n      tag_256\n      jump\t// in\n    tag_255:\n      0x00\n      mload(0x40)\n      dup1\n      dup4\n      sub\n      dup2\n      0x00\n      dup8\n      dup1\n      extcodesize\n      iszero\n      dup1\n      iszero\n      tag_257\n      jumpi\n      0x00\n      dup1\n      revert\n    tag_257:\n      pop\n      gas\n      call\n      iszero\n      dup1\n      iszero\n      tag_259\n      jumpi\n      returndatasize\n      0x00\n      dup1\n      returndatacopy\n      revert(0x00, returndatasize)\n    tag_259:\n      pop\n      pop\n      pop\n      pop\n        /* \"contracts/PlanetZephyrosV1.sol\":7150:8247  {... */\n      pop\n      pop\n      pop\n      pop\n      pop\n      pop\n        /* \"contracts/PlanetZephyrosV1.sol\":7076:8247  function sellWithTax(uint256 amount, uint256 minOut, address to) external {... */\n      pop\n      pop\n      pop\n      jump\t// out\n        /* \"contracts/PlanetZephyrosV1.sol\":4370:4632  function _approve(address owner_, address spender, uint256 amount) internal {... */\n    tag_141:\n        /* \"contracts/PlanetZephyrosV1.sol\":4483:4484  0 */\n      0x00\n        /* \"contracts/PlanetZephyrosV1.sol\":4465:4485  owner_ != address(0) */\n      0xffffffffffffffffffffffffffffffffffffffff\n      and\n        /* \"contracts/PlanetZephyrosV1.sol\":4465:4471  owner_ */\n      dup4\n        /* \"contracts/PlanetZephyrosV1.sol\":4465:4485  owner_ != address(0) */\n      0xffffffffffffffffffffffffffffffffffffffff\n      and\n      eq\n      iszero\n        /* \"contracts/PlanetZephyrosV1.sol\":4465:4510  owner_ != address(0) && spender != address(0) */\n      dup1\n      iszero\n      tag_261\n      jumpi\n      pop\n        /* \"contracts/PlanetZephyrosV1.sol\":4508:4509  0 */\n      0x00\n        /* \"contracts/PlanetZephyrosV1.sol\":4489:4510  spender != address(0) */\n      0xffffffffffffffffffffffffffffffffffffffff\n      and\n        /* \"contracts/PlanetZephyrosV1.sol\":4489:4496  spender */\n      dup3\n        /* \"contracts/PlanetZephyrosV1.sol\":4489:4510  spender != address(0) */\n      0xffffffffffffffffffffffffffffffffffffffff\n      and\n      eq\n      iszero\n        /* \"contracts/PlanetZephyrosV1.sol\":4465:4510  owner_ != address(0) && spender != address(0) */\n    tag_261:\n        /* \"contracts/PlanetZephyrosV1.sol\":4457:4527  require(owner_ != address(0) && spender != address(0), \"Zero address\") */\n      tag_262\n      jumpi\n      mload(0x40)\n      0x08c379a000000000000000000000000000000000000000000000000000000000\n      dup2\n      mstore\n      0x04\n      add\n      tag_263\n      swap1\n      tag_209\n      jump\t// in\n    tag_263:\n      mload(0x40)\n      dup1\n      swap2\n      sub\n      swap1\n      revert\n    tag_262:\n        /* \"contracts/PlanetZephyrosV1.sol\":4569:4575  amount */\n      dup1\n        /* \"contracts/PlanetZephyrosV1.sol\":4538:4549  _allowances */\n      0x09\n        /* \"contracts/PlanetZephyrosV1.sol\":4538:4557  _allowances[owner_] */\n      0x00\n        /* \"contracts/PlanetZephyrosV1.sol\":4550:4556  owner_ */\n      dup6\n        /* \"contracts/PlanetZephyrosV1.sol\":4538:4557  _allowances[owner_] */\n      0xffffffffffffffffffffffffffffffffffffffff\n      and\n      0xffffffffffffffffffffffffffffffffffffffff\n      and\n      dup2\n      mstore\n      0x20\n      add\n      swap1\n      dup2\n      mstore\n      0x20\n      add\n      0x00\n      keccak256\n        /* \"contracts/PlanetZephyrosV1.sol\":4538:4566  _allowances[owner_][spender] */\n      0x00\n        /* \"contracts/PlanetZephyrosV1.sol\":4558:4565  spender */\n      dup5\n        /* \"contracts/PlanetZephyrosV1.sol\":4538:4566  _allowances[owner_][spender] */\n      0xffffffffffffffffffffffffffffffffffffffff\n      and\n      0xffffffffffffffffffffffffffffffffffffffff\n      and\n      dup2\n      mstore\n      0x20\n      add\n      swap1\n      dup2\n      mstore\n      0x20\n      add\n      0x00\n      keccak256\n        /* \"contracts/PlanetZephyrosV1.sol\":4538:4575  _allowances[owner_][spender] = amount */\n      dup2\n      swap1\n      sstore\n      pop\n        /* \"contracts/PlanetZephyrosV1.sol\":4608:4615  spender */\n      dup2\n        /* \"contracts/PlanetZephyrosV1.sol\":4591:4624  Approval(owner_, spender, amount) */\n      0xffffffffffffffffffffffffffffffffffffffff\n      and\n        /* \"contracts/PlanetZephyrosV1.sol\":4600:4606  owner_ */\n      dup4\n        /* \"contracts/PlanetZephyrosV1.sol\":4591:4624  Approval(owner_, spender, amount) */\n      0xffffffffffffffffffffffffffffffffffffffff\n      and\n      0x8c5be1e5ebec7d5bd14f71427d1e84f3dd0314c0f7b2291e5b200ac8c7c3b925\n        /* \"contracts/PlanetZephyrosV1.sol\":4617:4623  amount */\n      dup4\n        /* \"contracts/PlanetZephyrosV1.sol\":4591:4624  Approval(owner_, spender, amount) */\n      mload(0x40)\n      tag_264\n      swap2\n      swap1\n      tag_54\n      jump\t// in\n    tag_264:\n      mload(0x40)\n      dup1\n      swap2\n      sub\n      swap1\n      log3\n        /* \"contracts/PlanetZephyrosV1.sol\":4370:4632  function _approve(address owner_, address spender, uint256 amount) internal {... */\n      pop\n      pop\n      pop\n      jump\t// out\n        /* \"contracts/PlanetZephyrosV1.sol\":4640:6306  function _transfer(address sender, address recipient, uint256 amount) internal {... */\n    tag_150:\n        /* \"contracts/PlanetZephyrosV1.sol\":4756:4757  0 */\n      0x00\n        /* \"contracts/PlanetZephyrosV1.sol\":4738:4758  sender != address(0) */\n      0xffffffffffffffffffffffffffffffffffffffff\n      and\n        /* \"contracts/PlanetZephyrosV1.sol\":4738:4744  sender */\n      dup4\n        /* \"contracts/PlanetZephyrosV1.sol\":4738:4758  sender != address(0) */\n      0xffffffffffffffffffffffffffffffffffffffff\n      and\n      sub\n        /* \"contracts/PlanetZephyrosV1.sol\":4730:4782  require(sender != address(0), \"Sender zero address\") */\n      tag_266\n      jumpi\n      mload(0x40)\n      0x08c379a000000000000000000000000000000000000000000000000000000000\n      dup2\n      mstore\n      0x04\n      add\n      tag_267\n      swap1\n      tag_268\n      jump\t// in\n    tag_267:\n      mload(0x40)\n      dup1\n      swap2\n      sub\n      swap1\n      revert\n    tag_266:\n        /* \"contracts/PlanetZephyrosV1.sol\":4822:4828  amount */\n      dup1\n        /* \"contracts/PlanetZephyrosV1.sol\":4801:4810  _balances */\n      0x08\n        /* \"contracts/PlanetZephyrosV1.sol\":4801:4818  _balances[sender] */\n      0x00\n        /* \"contracts/PlanetZephyrosV1.sol\":4811:4817  sender */\n      dup6\n        /* \"contracts/PlanetZephyrosV1.sol\":4801:4818  _balances[sender] */\n      0xffffffffffffffffffffffffffffffffffffffff\n      and\n      0xffffffffffffffffffffffffffffffffffffffff\n      and\n      dup2\n      mstore\n      0x20\n      add\n      swap1\n      dup2\n      mstore\n      0x20\n      add\n      0x00\n      keccak256\n      sload\n        /* \"contracts/PlanetZephyrosV1.sol\":4801:4828  _balances[sender] >= amount */\n      lt\n      iszero\n        /* \"contracts/PlanetZephyrosV1.sol\":4793:4853  require(_balances[sender] >= amount, \"Insufficient balance\") */\n      tag_269\n      jumpi\n      mload(0x40)\n      0x08c379a000000000000000000000000000000000000000000000000000000000\n      dup2\n      mstore\n      0x04\n      add\n      tag_270\n      swap1\n      tag_168\n      jump\t// in\n    tag_270:\n      mload(0x40)\n      dup1\n      swap2\n      sub\n      swap1\n      revert\n    tag_269:\n        /* \"contracts/PlanetZephyrosV1.sol\":4891:4892  0 */\n      0x00\n        /* \"contracts/PlanetZephyrosV1.sol\":4870:4893  recipient == address(0) */\n      0xffffffffffffffffffffffffffffffffffffffff\n      and\n        /* \"contracts/PlanetZephyrosV1.sol\":4870:4879  recipient */\n      dup3\n        /* \"contracts/PlanetZephyrosV1.sol\":4870:4893  recipient == address(0) */\n      0xffffffffffffffffffffffffffffffffffffffff\n      and\n      sub\n        /* \"contracts/PlanetZephyrosV1.sol\":4866:5062  if (recipient == address(0)) {... */\n      tag_271\n      jumpi\n        /* \"contracts/PlanetZephyrosV1.sol\":4931:4937  amount */\n      dup1\n        /* \"contracts/PlanetZephyrosV1.sol\":4910:4919  _balances */\n      0x08\n        /* \"contracts/PlanetZephyrosV1.sol\":4910:4927  _balances[sender] */\n      0x00\n        /* \"contracts/PlanetZephyrosV1.sol\":4920:4926  sender */\n      dup6\n        /* \"contracts/PlanetZephyrosV1.sol\":4910:4927  _balances[sender] */\n      0xffffffffffffffffffffffffffffffffffffffff\n      and\n      0xffffffffffffffffffffffffffffffffffffffff\n      and\n      dup2\n      mstore\n      0x20\n      add\n      swap1\n      dup2\n      mstore\n      0x20\n      add\n      0x00\n      keccak256\n      0x00\n        /* \"contracts/PlanetZephyrosV1.sol\":4910:4937  _balances[sender] -= amount */\n      dup3\n      dup3\n      sload\n      tag_272\n      swap2\n      swap1\n      tag_148\n      jump\t// in\n    tag_272:\n      swap3\n      pop\n      pop\n      dup2\n      swap1\n      sstore\n      pop\n        /* \"contracts/PlanetZephyrosV1.sol\":4967:4973  amount */\n      dup1\n        /* \"contracts/PlanetZephyrosV1.sol\":4952:4963  totalSupply */\n      0x03\n      0x00\n        /* \"contracts/PlanetZephyrosV1.sol\":4952:4973  totalSupply -= amount */\n      dup3\n      dup3\n      sload\n      tag_273\n      swap2\n      swap1\n      tag_148\n      jump\t// in\n    tag_273:\n      swap3\n      pop\n      pop\n      dup2\n      swap1\n      sstore\n      pop\n        /* \"contracts/PlanetZephyrosV1.sol\":5018:5019  0 */\n      0x00\n        /* \"contracts/PlanetZephyrosV1.sol\":4993:5029  Transfer(sender, address(0), amount) */\n      0xffffffffffffffffffffffffffffffffffffffff\n      and\n        /* \"contracts/PlanetZephyrosV1.sol\":5002:5008  sender */\n      dup4\n        /* \"contracts/PlanetZephyrosV1.sol\":4993:5029  Transfer(sender, address(0), amount) */\n      0xffffffffffffffffffffffffffffffffffffffff\n      and\n      0xddf252ad1be2c89b69c2b068fc378daa952ba7f163c4a11628f55a4df523b3ef\n        /* \"contracts/PlanetZephyrosV1.sol\":5022:5028  amount */\n      dup4\n        /* \"contracts/PlanetZephyrosV1.sol\":4993:5029  Transfer(sender, address(0), amount) */\n      mload(0x40)\n      tag_274\n      swap2\n      swap1\n      tag_54\n      jump\t// in\n    tag_274:\n      mload(0x40)\n      dup1\n      swap2\n      sub\n      swap1\n      log3\n        /* \"contracts/PlanetZephyrosV1.sol\":5044:5051  return; */\n      jump(tag_265)\n        /* \"contracts/PlanetZephyrosV1.sol\":4866:5062  if (recipient == address(0)) {... */\n    tag_271:\n        /* \"contracts/PlanetZephyrosV1.sol\":5079:5093  tradingEnabled */\n      0x06\n      0x14\n      swap1\n      sload\n      swap1\n      0x0100\n      exp\n      swap1\n      div\n      0xff\n      and\n        /* \"contracts/PlanetZephyrosV1.sol\":5078:5093  !tradingEnabled */\n      iszero\n        /* \"contracts/PlanetZephyrosV1.sol\":5078:5112  !tradingEnabled && sender != owner */\n      dup1\n      iszero\n      tag_275\n      jumpi\n      pop\n        /* \"contracts/PlanetZephyrosV1.sol\":5107:5112  owner */\n      0x05\n      0x00\n      swap1\n      sload\n      swap1\n      0x0100\n      exp\n      swap1\n      div\n      0xffffffffffffffffffffffffffffffffffffffff\n      and\n        /* \"contracts/PlanetZephyrosV1.sol\":5097:5112  sender != owner */\n      0xffffffffffffffffffffffffffffffffffffffff\n      and\n        /* \"contracts/PlanetZephyrosV1.sol\":5097:5103  sender */\n      dup4\n        /* \"contracts/PlanetZephyrosV1.sol\":5097:5112  sender != owner */\n      0xffffffffffffffffffffffffffffffffffffffff\n      and\n      eq\n      iszero\n        /* \"contracts/PlanetZephyrosV1.sol\":5078:5112  !tradingEnabled && sender != owner */\n    tag_275:\n        /* \"contracts/PlanetZephyrosV1.sol\":5078:5134  !tradingEnabled && sender != owner && recipient != owner */\n      dup1\n      iszero\n      tag_276\n      jumpi\n      pop\n        /* \"contracts/PlanetZephyrosV1.sol\":5129:5134  owner */\n      0x05\n      0x00\n      swap1\n      sload\n      swap1\n      0x0100\n      exp\n      swap1\n      div\n      0xffffffffffffffffffffffffffffffffffffffff\n      and\n        /* \"contracts/PlanetZephyrosV1.sol\":5116:5134  recipient != owner */\n      0xffffffffffffffffffffffffffffffffffffffff\n      and\n        /* \"contracts/PlanetZephyrosV1.sol\":5116:5125  recipient */\n      dup3\n        /* \"contracts/PlanetZephyrosV1.sol\":5116:5134  recipient != owner */\n      0xffffffffffffffffffffffffffffffffffffffff\n      and\n      eq\n      iszero\n        /* \"contracts/PlanetZephyrosV1.sol\":5078:5134  !tradingEnabled && sender != owner && recipient != owner */\n    tag_276:\n        /* \"contracts/PlanetZephyrosV1.sol\":5074:5192  if (!tradingEnabled && sender != owner && recipient != owner) {... */\n      iszero\n      tag_277\n      jumpi\n        /* \"contracts/PlanetZephyrosV1.sol\":5151:5180  revert(\"Trading not enabled\") */\n      mload(0x40)\n      0x08c379a000000000000000000000000000000000000000000000000000000000\n      dup2\n      mstore\n      0x04\n      add\n      tag_278\n      swap1\n      tag_279\n      jump\t// in\n    tag_278:\n      mload(0x40)\n      dup1\n      swap2\n      sub\n      swap1\n      revert\n        /* \"contracts/PlanetZephyrosV1.sol\":5074:5192  if (!tradingEnabled && sender != owner && recipient != owner) {... */\n    tag_277:\n        /* \"contracts/PlanetZephyrosV1.sol\":5204:5218  uint256 taxBps */\n      0x00\n        /* \"contracts/PlanetZephyrosV1.sol\":5232:5243  pairAddress */\n      0x06\n      0x00\n      swap1\n      sload\n      swap1\n      0x0100\n      exp\n      swap1\n      div\n      0xffffffffffffffffffffffffffffffffffffffff\n      and\n        /* \"contracts/PlanetZephyrosV1.sol\":5222:5243  sender == pairAddress */\n      0xffffffffffffffffffffffffffffffffffffffff\n      and\n        /* \"contracts/PlanetZephyrosV1.sol\":5222:5228  sender */\n      dup5\n        /* \"contracts/PlanetZephyrosV1.sol\":5222:5243  sender == pairAddress */\n      0xffffffffffffffffffffffffffffffffffffffff\n      and\n      eq\n        /* \"contracts/PlanetZephyrosV1.sol\":5221:5281  (sender == pairAddress) ? currentBuyBps() : currentSellBps() */\n      tag_280\n      jumpi\n        /* \"contracts/PlanetZephyrosV1.sol\":5265:5281  currentSellBps() */\n      tag_281\n        /* \"contracts/PlanetZephyrosV1.sol\":5265:5279  currentSellBps */\n      tag_75\n        /* \"contracts/PlanetZephyrosV1.sol\":5265:5281  currentSellBps() */\n      jump\t// in\n    tag_281:\n        /* \"contracts/PlanetZephyrosV1.sol\":5221:5281  (sender == pairAddress) ? currentBuyBps() : currentSellBps() */\n      jump(tag_282)\n    tag_280:\n        /* \"contracts/PlanetZephyrosV1.sol\":5247:5262  currentBuyBps() */\n      tag_283\n        /* \"contracts/PlanetZephyrosV1.sol\":5247:5260  currentBuyBps */\n      tag_95\n        /* \"contracts/PlanetZephyrosV1.sol\":5247:5262  currentBuyBps() */\n      jump\t// in\n    tag_283:\n        /* \"contracts/PlanetZephyrosV1.sol\":5221:5281  (sender == pairAddress) ? currentBuyBps() : currentSellBps() */\n    tag_282:\n        /* \"contracts/PlanetZephyrosV1.sol\":5204:5281  uint256 taxBps = (sender == pairAddress) ? currentBuyBps() : currentSellBps() */\n      swap1\n      pop\n        /* \"contracts/PlanetZephyrosV1.sol\":5308:5309  0 */\n      0x00\n        /* \"contracts/PlanetZephyrosV1.sol\":5298:5304  taxBps */\n      dup2\n        /* \"contracts/PlanetZephyrosV1.sol\":5298:5309  taxBps == 0 */\n      eq\n        /* \"contracts/PlanetZephyrosV1.sol\":5298:5336  taxBps == 0 || isExemptFromTax[sender] */\n      dup1\n      tag_284\n      jumpi\n      pop\n        /* \"contracts/PlanetZephyrosV1.sol\":5313:5328  isExemptFromTax */\n      0x07\n        /* \"contracts/PlanetZephyrosV1.sol\":5313:5336  isExemptFromTax[sender] */\n      0x00\n        /* \"contracts/PlanetZephyrosV1.sol\":5329:5335  sender */\n      dup6\n        /* \"contracts/PlanetZephyrosV1.sol\":5313:5336  isExemptFromTax[sender] */\n      0xffffffffffffffffffffffffffffffffffffffff\n      and\n      0xffffffffffffffffffffffffffffffffffffffff\n      and\n      dup2\n      mstore\n      0x20\n      add\n      swap1\n      dup2\n      mstore\n      0x20\n      add\n      0x00\n      keccak256\n      0x00\n      swap1\n      sload\n      swap1\n      0x0100\n      exp\n      swap1\n      div\n      0xff\n      and\n        /* \"contracts/PlanetZephyrosV1.sol\":5298:5336  taxBps == 0 || isExemptFromTax[sender] */\n    tag_284:\n        /* \"contracts/PlanetZephyrosV1.sol\":5298:5366  taxBps == 0 || isExemptFromTax[sender] || isExemptFromTax[recipient] */\n      dup1\n      tag_285\n      jumpi\n      pop\n        /* \"contracts/PlanetZephyrosV1.sol\":5340:5355  isExemptFromTax */\n      0x07\n        /* \"contracts/PlanetZephyrosV1.sol\":5340:5366  isExemptFromTax[recipient] */\n      0x00\n        /* \"contracts/PlanetZephyrosV1.sol\":5356:5365  recipient */\n      dup5\n        /* \"contracts/PlanetZephyrosV1.sol\":5340:5366  isExemptFromTax[recipient] */\n      0xffffffffffffffffffffffffffffffffffffffff\n      and\n      0xffffffffffffffffffffffffffffffffffffffff\n      and\n      dup2\n      mstore\n      0x20\n      add\n      swap1\n      dup2\n      mstore\n      0x20\n      add\n      0x00\n      keccak256\n      0x00\n      swap1\n      sload\n      swap1\n      0x0100\n      exp\n      swap1\n      div\n      0xff\n      and\n        /* \"contracts/PlanetZephyrosV1.sol\":5298:5366  taxBps == 0 || isExemptFromTax[sender] || isExemptFromTax[recipient] */\n    tag_285:\n        /* \"contracts/PlanetZephyrosV1.sol\":5298:5421  taxBps == 0 || isExemptFromTax[sender] || isExemptFromTax[recipient] || (sender != pairAddress && recipient != pairAddress) */\n      dup1\n      tag_286\n      jumpi\n      pop\n        /* \"contracts/PlanetZephyrosV1.sol\":5381:5392  pairAddress */\n      0x06\n      0x00\n      swap1\n      sload\n      swap1\n      0x0100\n      exp\n      swap1\n      div\n      0xffffffffffffffffffffffffffffffffffffffff\n      and\n        /* \"contracts/PlanetZephyrosV1.sol\":5371:5392  sender != pairAddress */\n      0xffffffffffffffffffffffffffffffffffffffff\n      and\n        /* \"contracts/PlanetZephyrosV1.sol\":5371:5377  sender */\n      dup5\n        /* \"contracts/PlanetZephyrosV1.sol\":5371:5392  sender != pairAddress */\n      0xffffffffffffffffffffffffffffffffffffffff\n      and\n      eq\n      iszero\n        /* \"contracts/PlanetZephyrosV1.sol\":5371:5420  sender != pairAddress && recipient != pairAddress */\n      dup1\n      iszero\n      tag_287\n      jumpi\n      pop\n        /* \"contracts/PlanetZephyrosV1.sol\":5409:5420  pairAddress */\n      0x06\n      0x00\n      swap1\n      sload\n      swap1\n      0x0100\n      exp\n      swap1\n      div\n      0xffffffffffffffffffffffffffffffffffffffff\n      and\n        /* \"contracts/PlanetZephyrosV1.sol\":5396:5420  recipient != pairAddress */\n      0xffffffffffffffffffffffffffffffffffffffff\n      and\n        /* \"contracts/PlanetZephyrosV1.sol\":5396:5405  recipient */\n      dup4\n        /* \"contracts/PlanetZephyrosV1.sol\":5396:5420  recipient != pairAddress */\n      0xffffffffffffffffffffffffffffffffffffffff\n      and\n      eq\n      iszero\n        /* \"contracts/PlanetZephyrosV1.sol\":5371:5420  sender != pairAddress && recipient != pairAddress */\n    tag_287:\n        /* \"contracts/PlanetZephyrosV1.sol\":5298:5421  taxBps == 0 || isExemptFromTax[sender] || isExemptFromTax[recipient] || (sender != pairAddress && recipient != pairAddress) */\n    tag_286:\n        /* \"contracts/PlanetZephyrosV1.sol\":5294:5598  if (taxBps == 0 || isExemptFromTax[sender] || isExemptFromTax[recipient] || (sender != pairAddress && recipient != pairAddress)) {... */\n      iszero\n      tag_288\n      jumpi\n        /* \"contracts/PlanetZephyrosV1.sol\":5459:5465  amount */\n      dup2\n        /* \"contracts/PlanetZephyrosV1.sol\":5438:5447  _balances */\n      0x08\n        /* \"contracts/PlanetZephyrosV1.sol\":5438:5455  _balances[sender] */\n      0x00\n        /* \"contracts/PlanetZephyrosV1.sol\":5448:5454  sender */\n      dup7\n        /* \"contracts/PlanetZephyrosV1.sol\":5438:5455  _balances[sender] */\n      0xffffffffffffffffffffffffffffffffffffffff\n      and\n      0xffffffffffffffffffffffffffffffffffffffff\n      and\n      dup2\n      mstore\n      0x20\n      add\n      swap1\n      dup2\n      mstore\n      0x20\n      add\n      0x00\n      keccak256\n      0x00\n        /* \"contracts/PlanetZephyrosV1.sol\":5438:5465  _balances[sender] -= amount */\n      dup3\n      dup3\n      sload\n      tag_289\n      swap2\n      swap1\n      tag_148\n      jump\t// in\n    tag_289:\n      swap3\n      pop\n      pop\n      dup2\n      swap1\n      sstore\n      pop\n        /* \"contracts/PlanetZephyrosV1.sol\":5504:5510  amount */\n      dup2\n        /* \"contracts/PlanetZephyrosV1.sol\":5480:5489  _balances */\n      0x08\n        /* \"contracts/PlanetZephyrosV1.sol\":5480:5500  _balances[recipient] */\n      0x00\n        /* \"contracts/PlanetZephyrosV1.sol\":5490:5499  recipient */\n      dup6\n        /* \"contracts/PlanetZephyrosV1.sol\":5480:5500  _balances[recipient] */\n      0xffffffffffffffffffffffffffffffffffffffff\n      and\n      0xffffffffffffffffffffffffffffffffffffffff\n      and\n      dup2\n      mstore\n      0x20\n      add\n      swap1\n      dup2\n      mstore\n      0x20\n      add\n      0x00\n      keccak256\n      0x00\n        /* \"contracts/PlanetZephyrosV1.sol\":5480:5510  _balances[recipient] += amount */\n      dup3\n      dup3\n      sload\n      tag_290\n      swap2\n      swap1\n      tag_291\n      jump\t// in\n    tag_290:\n      swap3\n      pop\n      pop\n      dup2\n      swap1\n      sstore\n      pop\n        /* \"contracts/PlanetZephyrosV1.sol\":5547:5556  recipient */\n      dup3\n        /* \"contracts/PlanetZephyrosV1.sol\":5530:5565  Transfer(sender, recipient, amount) */\n      0xffffffffffffffffffffffffffffffffffffffff\n      and\n        /* \"contracts/PlanetZephyrosV1.sol\":5539:5545  sender */\n      dup5\n        /* \"contracts/PlanetZephyrosV1.sol\":5530:5565  Transfer(sender, recipient, amount) */\n      0xffffffffffffffffffffffffffffffffffffffff\n      and\n      0xddf252ad1be2c89b69c2b068fc378daa952ba7f163c4a11628f55a4df523b3ef\n        /* \"contracts/PlanetZephyrosV1.sol\":5558:5564  amount */\n      dup5\n        /* \"contracts/PlanetZephyrosV1.sol\":5530:5565  Transfer(sender, recipient, amount) */\n      mload(0x40)\n      tag_292\n      swap2\n      swap1\n      tag_54\n      jump\t// in\n    tag_292:\n      mload(0x40)\n      dup1\n      swap2\n      sub\n      swap1\n      log3\n        /* \"contracts/PlanetZephyrosV1.sol\":5580:5587  return; */\n      pop\n      jump(tag_265)\n        /* \"contracts/PlanetZephyrosV1.sol\":5294:5598  if (taxBps == 0 || isExemptFromTax[sender] || isExemptFromTax[recipient] || (sender != pairAddress && recipient != pairAddress)) {... */\n    tag_288:\n        /* \"contracts/PlanetZephyrosV1.sol\":5618:5635  uint256 taxAmount */\n      0x00\n        /* \"contracts/PlanetZephyrosV1.sol\":1122:1127  10000 */\n      0x2710\n        /* \"contracts/PlanetZephyrosV1.sol\":5648:5654  taxBps */\n      dup3\n        /* \"contracts/PlanetZephyrosV1.sol\":5639:5645  amount */\n      dup5\n        /* \"contracts/PlanetZephyrosV1.sol\":5639:5654  amount * taxBps */\n      tag_293\n      swap2\n      swap1\n      tag_154\n      jump\t// in\n    tag_293:\n        /* \"contracts/PlanetZephyrosV1.sol\":5638:5667  (amount * taxBps) / BPS_DENOM */\n      tag_294\n      swap2\n      swap1\n      tag_156\n      jump\t// in\n    tag_294:\n        /* \"contracts/PlanetZephyrosV1.sol\":5618:5667  uint256 taxAmount = (amount * taxBps) / BPS_DENOM */\n      swap1\n      pop\n        /* \"contracts/PlanetZephyrosV1.sol\":5678:5700  uint256 transferAmount */\n      0x00\n        /* \"contracts/PlanetZephyrosV1.sol\":5712:5721  taxAmount */\n      dup2\n        /* \"contracts/PlanetZephyrosV1.sol\":5703:5709  amount */\n      dup5\n        /* \"contracts/PlanetZephyrosV1.sol\":5703:5721  amount - taxAmount */\n      tag_295\n      swap2\n      swap1\n      tag_148\n      jump\t// in\n    tag_295:\n        /* \"contracts/PlanetZephyrosV1.sol\":5678:5721  uint256 transferAmount = amount - taxAmount */\n      swap1\n      pop\n        /* \"contracts/PlanetZephyrosV1.sol\":5734:5752  uint256 burnAmount */\n      0x00\n        /* \"contracts/PlanetZephyrosV1.sol\":5781:5784  100 */\n      0x64\n        /* \"contracts/PlanetZephyrosV1.sol\":5768:5777  burnRatio */\n      immutable(\"0x59c0d2b7af0a8e6d3d8e710a078764bd67b7223777026c424cdb4f599824bb79\")\n        /* \"contracts/PlanetZephyrosV1.sol\":5756:5765  taxAmount */\n      dup5\n        /* \"contracts/PlanetZephyrosV1.sol\":5756:5777  taxAmount * burnRatio */\n      tag_296\n      swap2\n      swap1\n      tag_154\n      jump\t// in\n    tag_296:\n        /* \"contracts/PlanetZephyrosV1.sol\":5755:5784  (taxAmount * burnRatio) / 100 */\n      tag_297\n      swap2\n      swap1\n      tag_156\n      jump\t// in\n    tag_297:\n        /* \"contracts/PlanetZephyrosV1.sol\":5734:5784  uint256 burnAmount = (taxAmount * burnRatio) / 100 */\n      swap1\n      pop\n        /* \"contracts/PlanetZephyrosV1.sol\":5795:5818  uint256 taxWalletAmount */\n      0x00\n        /* \"contracts/PlanetZephyrosV1.sol\":5833:5843  burnAmount */\n      dup2\n        /* \"contracts/PlanetZephyrosV1.sol\":5821:5830  taxAmount */\n      dup5\n        /* \"contracts/PlanetZephyrosV1.sol\":5821:5843  taxAmount - burnAmount */\n      tag_298\n      swap2\n      swap1\n      tag_148\n      jump\t// in\n    tag_298:\n        /* \"contracts/PlanetZephyrosV1.sol\":5795:5843  uint256 taxWalletAmount = taxAmount - burnAmount */\n      swap1\n      pop\n        /* \"contracts/PlanetZephyrosV1.sol\":5877:5883  amount */\n      dup6\n        /* \"contracts/PlanetZephyrosV1.sol\":5856:5865  _balances */\n      0x08\n        /* \"contracts/PlanetZephyrosV1.sol\":5856:5873  _balances[sender] */\n      0x00\n        /* \"contracts/PlanetZephyrosV1.sol\":5866:5872  sender */\n      dup11\n        /* \"contracts/PlanetZephyrosV1.sol\":5856:5873  _balances[sender] */\n      0xffffffffffffffffffffffffffffffffffffffff\n      and\n      0xffffffffffffffffffffffffffffffffffffffff\n      and\n      dup2\n      mstore\n      0x20\n      add\n      swap1\n      dup2\n      mstore\n      0x20\n      add\n      0x00\n      keccak256\n      0x00\n        /* \"contracts/PlanetZephyrosV1.sol\":5856:5883  _balances[sender] -= amount */\n      dup3\n      dup3\n      sload\n      tag_299\n      swap2\n      swap1\n      tag_148\n      jump\t// in\n    tag_299:\n      swap3\n      pop\n      pop\n      dup2\n      swap1\n      sstore\n      pop\n        /* \"contracts/PlanetZephyrosV1.sol\":5916:5917  0 */\n      0x00\n        /* \"contracts/PlanetZephyrosV1.sol\":5898:5913  taxWalletAmount */\n      dup2\n        /* \"contracts/PlanetZephyrosV1.sol\":5898:5917  taxWalletAmount > 0 */\n      gt\n        /* \"contracts/PlanetZephyrosV1.sol\":5894:6049  if (taxWalletAmount > 0) {... */\n      iszero\n      tag_300\n      jumpi\n        /* \"contracts/PlanetZephyrosV1.sol\":5958:5973  taxWalletAmount */\n      dup1\n        /* \"contracts/PlanetZephyrosV1.sol\":5934:5943  _balances */\n      0x08\n        /* \"contracts/PlanetZephyrosV1.sol\":5934:5954  _balances[taxWallet] */\n      0x00\n        /* \"contracts/PlanetZephyrosV1.sol\":5944:5953  taxWallet */\n      0x04\n      0x00\n      swap1\n      sload\n      swap1\n      0x0100\n      exp\n      swap1\n      div\n      0xffffffffffffffffffffffffffffffffffffffff\n      and\n        /* \"contracts/PlanetZephyrosV1.sol\":5934:5954  _balances[taxWallet] */\n      0xffffffffffffffffffffffffffffffffffffffff\n      and\n      0xffffffffffffffffffffffffffffffffffffffff\n      and\n      dup2\n      mstore\n      0x20\n      add\n      swap1\n      dup2\n      mstore\n      0x20\n      add\n      0x00\n      keccak256\n      0x00\n        /* \"contracts/PlanetZephyrosV1.sol\":5934:5973  _balances[taxWallet] += taxWalletAmount */\n      dup3\n      dup3\n      sload\n      tag_301\n      swap2\n      swap1\n      tag_291\n      jump\t// in\n    tag_301:\n      swap3\n      pop\n      pop\n      dup2\n      swap1\n      sstore\n      pop\n        /* \"contracts/PlanetZephyrosV1.sol\":6010:6019  taxWallet */\n      0x04\n      0x00\n      swap1\n      sload\n      swap1\n      0x0100\n      exp\n      swap1\n      div\n      0xffffffffffffffffffffffffffffffffffffffff\n      and\n        /* \"contracts/PlanetZephyrosV1.sol\":5993:6037  Transfer(sender, taxWallet, taxWalletAmount) */\n      0xffffffffffffffffffffffffffffffffffffffff\n      and\n        /* \"contracts/PlanetZephyrosV1.sol\":6002:6008  sender */\n      dup9\n        /* \"contracts/PlanetZephyrosV1.sol\":5993:6037  Transfer(sender, taxWallet, taxWalletAmount) */\n      0xffffffffffffffffffffffffffffffffffffffff\n      and\n      0xddf252ad1be2c89b69c2b068fc378daa952ba7f163c4a11628f55a4df523b3ef\n        /* \"contracts/PlanetZephyrosV1.sol\":6021:6036  taxWalletAmount */\n      dup4\n        /* \"contracts/PlanetZephyrosV1.sol\":5993:6037  Transfer(sender, taxWallet, taxWalletAmount) */\n      mload(0x40)\n      tag_302\n      swap2\n      swap1\n      tag_54\n      jump\t// in\n    tag_302:\n      mload(0x40)\n      dup1\n      swap2\n      sub\n      swap1\n      log3\n        /* \"contracts/PlanetZephyrosV1.sol\":5894:6049  if (taxWalletAmount > 0) {... */\n    tag_300:\n        /* \"contracts/PlanetZephyrosV1.sol\":6076:6077  0 */\n      0x00\n        /* \"contracts/PlanetZephyrosV1.sol\":6063:6073  burnAmount */\n      dup3\n        /* \"contracts/PlanetZephyrosV1.sol\":6063:6077  burnAmount > 0 */\n      gt\n        /* \"contracts/PlanetZephyrosV1.sol\":6059:6191  if (burnAmount > 0) {... */\n      iszero\n      tag_303\n      jumpi\n        /* \"contracts/PlanetZephyrosV1.sol\":6109:6119  burnAmount */\n      dup2\n        /* \"contracts/PlanetZephyrosV1.sol\":6094:6105  totalSupply */\n      0x03\n      0x00\n        /* \"contracts/PlanetZephyrosV1.sol\":6094:6119  totalSupply -= burnAmount */\n      dup3\n      dup3\n      sload\n      tag_304\n      swap2\n      swap1\n      tag_148\n      jump\t// in\n    tag_304:\n      swap3\n      pop\n      pop\n      dup2\n      swap1\n      sstore\n      pop\n        /* \"contracts/PlanetZephyrosV1.sol\":6164:6165  0 */\n      0x00\n        /* \"contracts/PlanetZephyrosV1.sol\":6139:6179  Transfer(sender, address(0), burnAmount) */\n      0xffffffffffffffffffffffffffffffffffffffff\n      and\n        /* \"contracts/PlanetZephyrosV1.sol\":6148:6154  sender */\n      dup9\n        /* \"contracts/PlanetZephyrosV1.sol\":6139:6179  Transfer(sender, address(0), burnAmount) */\n      0xffffffffffffffffffffffffffffffffffffffff\n      and\n      0xddf252ad1be2c89b69c2b068fc378daa952ba7f163c4a11628f55a4df523b3ef\n        /* \"contracts/PlanetZephyrosV1.sol\":6168:6178  burnAmount */\n      dup5\n        /* \"contracts/PlanetZephyrosV1.sol\":6139:6179  Transfer(sender, address(0), burnAmount) */\n      mload(0x40)\n      tag_305\n      swap2\n      swap1\n      tag_54\n      jump\t// in\n    tag_305:\n      mload(0x40)\n      dup1\n      swap2\n      sub\n      swap1\n      log3\n        /* \"contracts/PlanetZephyrosV1.sol\":6059:6191  if (burnAmount > 0) {... */\n    tag_303:\n        /* \"contracts/PlanetZephyrosV1.sol\":6225:6239  transferAmount */\n      dup3\n        /* \"contracts/PlanetZephyrosV1.sol\":6201:6210  _balances */\n      0x08\n        /* \"contracts/PlanetZephyrosV1.sol\":6201:6221  _balances[recipient] */\n      0x00\n        /* \"contracts/PlanetZephyrosV1.sol\":6211:6220  recipient */\n      dup10\n        /* \"contracts/PlanetZephyrosV1.sol\":6201:6221  _balances[recipient] */\n      0xffffffffffffffffffffffffffffffffffffffff\n      and\n      0xffffffffffffffffffffffffffffffffffffffff\n      and\n      dup2\n      mstore\n      0x20\n      add\n      swap1\n      dup2\n      mstore\n      0x20\n      add\n      0x00\n      keccak256\n      0x00\n        /* \"contracts/PlanetZephyrosV1.sol\":6201:6239  _balances[recipient] += transferAmount */\n      dup3\n      dup3\n      sload\n      tag_306\n      swap2\n      swap1\n      tag_291\n      jump\t// in\n    tag_306:\n      swap3\n      pop\n      pop\n      dup2\n      swap1\n      sstore\n      pop\n        /* \"contracts/PlanetZephyrosV1.sol\":6272:6281  recipient */\n      dup7\n        /* \"contracts/PlanetZephyrosV1.sol\":6255:6298  Transfer(sender, recipient, transferAmount) */\n      0xffffffffffffffffffffffffffffffffffffffff\n      and\n        /* \"contracts/PlanetZephyrosV1.sol\":6264:6270  sender */\n      dup9\n        /* \"contracts/PlanetZephyrosV1.sol\":6255:6298  Transfer(sender, recipient, transferAmount) */\n      0xffffffffffffffffffffffffffffffffffffffff\n      and\n      0xddf252ad1be2c89b69c2b068fc378daa952ba7f163c4a11628f55a4df523b3ef\n        /* \"contracts/PlanetZephyrosV1.sol\":6283:6297  transferAmount */\n      dup6\n        /* \"contracts/PlanetZephyrosV1.sol\":6255:6298  Transfer(sender, recipient, transferAmount) */\n      mload(0x40)\n      tag_307\n      swap2\n      swap1\n      tag_54\n      jump\t// in\n    tag_307:\n      mload(0x40)\n      dup1\n      swap2\n      sub\n      swap1\n      log3\n        /* \"contracts/PlanetZephyrosV1.sol\":4719:6306  {... */\n      pop\n      pop\n      pop\n      pop\n      pop\n        /* \"contracts/PlanetZephyrosV1.sol\":4640:6306  function _transfer(address sender, address recipient, uint256 amount) internal {... */\n    tag_265:\n      pop\n      pop\n      pop\n      jump\t// out\n        /* \"#utility.yul\":88:205   */\n    tag_309:\n        /* \"#utility.yul\":197:198   */\n      0x00\n        /* \"#utility.yul\":194:195   */\n      dup1\n        /* \"#utility.yul\":187:199   */\n      revert\n        /* \"#utility.yul\":334:460   */\n    tag_311:\n        /* \"#utility.yul\":371:378   */\n      0x00\n        /* \"#utility.yul\":411:453   */\n      0xffffffffffffffffffffffffffffffffffffffff\n        /* \"#utility.yul\":404:409   */\n      dup3\n        /* \"#utility.yul\":400:454   */\n      and\n        /* \"#utility.yul\":389:454   */\n      swap1\n      pop\n        /* \"#utility.yul\":334:460   */\n      swap2\n      swap1\n      pop\n      jump\t// out\n        /* \"#utility.yul\":466:562   */\n    tag_312:\n        /* \"#utility.yul\":503:510   */\n      0x00\n        /* \"#utility.yul\":532:556   */\n      tag_366\n        /* \"#utility.yul\":550:555   */\n      dup3\n        /* \"#utility.yul\":532:556   */\n      tag_311\n      jump\t// in\n    tag_366:\n        /* \"#utility.yul\":521:556   */\n      swap1\n      pop\n        /* \"#utility.yul\":466:562   */\n      swap2\n      swap1\n      pop\n      jump\t// out\n        /* \"#utility.yul\":568:690   */\n    tag_313:\n        /* \"#utility.yul\":641:665   */\n      tag_368\n        /* \"#utility.yul\":659:664   */\n      dup2\n        /* \"#utility.yul\":641:665   */\n      tag_312\n      jump\t// in\n    tag_368:\n        /* \"#utility.yul\":634:639   */\n      dup2\n        /* \"#utility.yul\":631:666   */\n      eq\n        /* \"#utility.yul\":621:684   */\n      tag_369\n      jumpi\n        /* \"#utility.yul\":680:681   */\n      0x00\n        /* \"#utility.yul\":677:678   */\n      dup1\n        /* \"#utility.yul\":670:682   */\n      revert\n        /* \"#utility.yul\":621:684   */\n    tag_369:\n        /* \"#utility.yul\":568:690   */\n      pop\n      jump\t// out\n        /* \"#utility.yul\":696:835   */\n    tag_314:\n        /* \"#utility.yul\":742:747   */\n      0x00\n        /* \"#utility.yul\":780:786   */\n      dup2\n        /* \"#utility.yul\":767:787   */\n      calldataload\n        /* \"#utility.yul\":758:787   */\n      swap1\n      pop\n        /* \"#utility.yul\":796:829   */\n      tag_371\n        /* \"#utility.yul\":823:828   */\n      dup2\n        /* \"#utility.yul\":796:829   */\n      tag_313\n      jump\t// in\n    tag_371:\n        /* \"#utility.yul\":696:835   */\n      swap3\n      swap2\n      pop\n      pop\n      jump\t// out\n        /* \"#utility.yul\":841:1170   */\n    tag_38:\n        /* \"#utility.yul\":900:906   */\n      0x00\n        /* \"#utility.yul\":949:951   */\n      0x20\n        /* \"#utility.yul\":937:946   */\n      dup3\n        /* \"#utility.yul\":928:935   */\n      dup5\n        /* \"#utility.yul\":924:947   */\n      sub\n        /* \"#utility.yul\":920:952   */\n      slt\n        /* \"#utility.yul\":917:1036   */\n      iszero\n      tag_373\n      jumpi\n        /* \"#utility.yul\":955:1034   */\n      tag_374\n      tag_309\n      jump\t// in\n    tag_374:\n        /* \"#utility.yul\":917:1036   */\n    tag_373:\n        /* \"#utility.yul\":1075:1076   */\n      0x00\n        /* \"#utility.yul\":1100:1153   */\n      tag_375\n        /* \"#utility.yul\":1145:1152   */\n      dup5\n        /* \"#utility.yul\":1136:1142   */\n      dup3\n        /* \"#utility.yul\":1125:1134   */\n      dup6\n        /* \"#utility.yul\":1121:1143   */\n      add\n        /* \"#utility.yul\":1100:1153   */\n      tag_314\n      jump\t// in\n    tag_375:\n        /* \"#utility.yul\":1090:1153   */\n      swap2\n      pop\n        /* \"#utility.yul\":1046:1163   */\n      pop\n        /* \"#utility.yul\":841:1170   */\n      swap3\n      swap2\n      pop\n      pop\n      jump\t// out\n        /* \"#utility.yul\":1176:1266   */\n    tag_315:\n        /* \"#utility.yul\":1210:1217   */\n      0x00\n        /* \"#utility.yul\":1253:1258   */\n      dup2\n        /* \"#utility.yul\":1246:1259   */\n      iszero\n        /* \"#utility.yul\":1239:1260   */\n      iszero\n        /* \"#utility.yul\":1228:1260   */\n      swap1\n      pop\n        /* \"#utility.yul\":1176:1266   */\n      swap2\n      swap1\n      pop\n      jump\t// out\n        /* \"#utility.yul\":1272:1381   */\n    tag_316:\n        /* \"#utility.yul\":1353:1374   */\n      tag_378\n        /* \"#utility.yul\":1368:1373   */\n      dup2\n        /* \"#utility.yul\":1353:1374   */\n      tag_315\n      jump\t// in\n    tag_378:\n        /* \"#utility.yul\":1348:1351   */\n      dup3\n        /* \"#utility.yul\":1341:1375   */\n      mstore\n        /* \"#utility.yul\":1272:1381   */\n      pop\n      pop\n      jump\t// out\n        /* \"#utility.yul\":1387:1597   */\n    tag_41:\n        /* \"#utility.yul\":1474:1478   */\n      0x00\n        /* \"#utility.yul\":1512:1514   */\n      0x20\n        /* \"#utility.yul\":1501:1510   */\n      dup3\n        /* \"#utility.yul\":1497:1515   */\n      add\n        /* \"#utility.yul\":1489:1515   */\n      swap1\n      pop\n        /* \"#utility.yul\":1525:1590   */\n      tag_380\n        /* \"#utility.yul\":1587:1588   */\n      0x00\n        /* \"#utility.yul\":1576:1585   */\n      dup4\n        /* \"#utility.yul\":1572:1589   */\n      add\n        /* \"#utility.yul\":1563:1569   */\n      dup5\n        /* \"#utility.yul\":1525:1590   */\n      tag_316\n      jump\t// in\n    tag_380:\n        /* \"#utility.yul\":1387:1597   */\n      swap3\n      swap2\n      pop\n      pop\n      jump\t// out\n        /* \"#utility.yul\":1603:1702   */\n    tag_317:\n        /* \"#utility.yul\":1655:1661   */\n      0x00\n        /* \"#utility.yul\":1689:1694   */\n      dup2\n        /* \"#utility.yul\":1683:1695   */\n      mload\n        /* \"#utility.yul\":1673:1695   */\n      swap1\n      pop\n        /* \"#utility.yul\":1603:1702   */\n      swap2\n      swap1\n      pop\n      jump\t// out\n        /* \"#utility.yul\":1708:1877   */\n    tag_318:\n        /* \"#utility.yul\":1792:1803   */\n      0x00\n        /* \"#utility.yul\":1826:1832   */\n      dup3\n        /* \"#utility.yul\":1821:1824   */\n      dup3\n        /* \"#utility.yul\":1814:1833   */\n      mstore\n        /* \"#utility.yul\":1866:1870   */\n      0x20\n        /* \"#utility.yul\":1861:1864   */\n      dup3\n        /* \"#utility.yul\":1857:1871   */\n      add\n        /* \"#utility.yul\":1842:1871   */\n      swap1\n      pop\n        /* \"#utility.yul\":1708:1877   */\n      swap3\n      swap2\n      pop\n      pop\n      jump\t// out\n        /* \"#utility.yul\":1883:2129   */\n    tag_319:\n        /* \"#utility.yul\":1964:1965   */\n      0x00\n        /* \"#utility.yul\":1974:2087   */\n    tag_384:\n        /* \"#utility.yul\":1988:1994   */\n      dup4\n        /* \"#utility.yul\":1985:1986   */\n      dup2\n        /* \"#utility.yul\":1982:1995   */\n      lt\n        /* \"#utility.yul\":1974:2087   */\n      iszero\n      tag_386\n      jumpi\n        /* \"#utility.yul\":2073:2074   */\n      dup1\n        /* \"#utility.yul\":2068:2071   */\n      dup3\n        /* \"#utility.yul\":2064:2075   */\n      add\n        /* \"#utility.yul\":2058:2076   */\n      mload\n        /* \"#utility.yul\":2054:2055   */\n      dup2\n        /* \"#utility.yul\":2049:2052   */\n      dup5\n        /* \"#utility.yul\":2045:2056   */\n      add\n        /* \"#utility.yul\":2038:2077   */\n      mstore\n        /* \"#utility.yul\":2010:2012   */\n      0x20\n        /* \"#utility.yul\":2007:2008   */\n      dup2\n        /* \"#utility.yul\":2003:2013   */\n      add\n        /* \"#utility.yul\":1998:2013   */\n      swap1\n      pop\n        /* \"#utility.yul\":1974:2087   */\n      jump(tag_384)\n    tag_386:\n        /* \"#utility.yul\":2121:2122   */\n      0x00\n        /* \"#utility.yul\":2112:2118   */\n      dup5\n        /* \"#utility.yul\":2107:2110   */\n      dup5\n        /* \"#utility.yul\":2103:2119   */\n      add\n        /* \"#utility.yul\":2096:2123   */\n      mstore\n        /* \"#utility.yul\":1945:2129   */\n      pop\n        /* \"#utility.yul\":1883:2129   */\n      pop\n      pop\n      pop\n      jump\t// out\n        /* \"#utility.yul\":2135:2237   */\n    tag_320:\n        /* \"#utility.yul\":2176:2182   */\n      0x00\n        /* \"#utility.yul\":2227:2229   */\n      0x1f\n        /* \"#utility.yul\":2223:2230   */\n      not\n        /* \"#utility.yul\":2218:2220   */\n      0x1f\n        /* \"#utility.yul\":2211:2216   */\n      dup4\n        /* \"#utility.yul\":2207:2221   */\n      add\n        /* \"#utility.yul\":2203:2231   */\n      and\n        /* \"#utility.yul\":2193:2231   */\n      swap1\n      pop\n        /* \"#utility.yul\":2135:2237   */\n      swap2\n      swap1\n      pop\n      jump\t// out\n        /* \"#utility.yul\":2243:2620   */\n    tag_321:\n        /* \"#utility.yul\":2331:2334   */\n      0x00\n        /* \"#utility.yul\":2359:2398   */\n      tag_389\n        /* \"#utility.yul\":2392:2397   */\n      dup3\n        /* \"#utility.yul\":2359:2398   */\n      tag_317\n      jump\t// in\n    tag_389:\n        /* \"#utility.yul\":2414:2485   */\n      tag_390\n        /* \"#utility.yul\":2478:2484   */\n      dup2\n        /* \"#utility.yul\":2473:2476   */\n      dup6\n        /* \"#utility.yul\":2414:2485   */\n      tag_318\n      jump\t// in\n    tag_390:\n        /* \"#utility.yul\":2407:2485   */\n      swap4\n      pop\n        /* \"#utility.yul\":2494:2559   */\n      tag_391\n        /* \"#utility.yul\":2552:2558   */\n      dup2\n        /* \"#utility.yul\":2547:2550   */\n      dup6\n        /* \"#utility.yul\":2540:2544   */\n      0x20\n        /* \"#utility.yul\":2533:2538   */\n      dup7\n        /* \"#utility.yul\":2529:2545   */\n      add\n        /* \"#utility.yul\":2494:2559   */\n      tag_319\n      jump\t// in\n    tag_391:\n        /* \"#utility.yul\":2584:2613   */\n      tag_392\n        /* \"#utility.yul\":2606:2612   */\n      dup2\n        /* \"#utility.yul\":2584:2613   */\n      tag_320\n      jump\t// in\n    tag_392:\n        /* \"#utility.yul\":2579:2582   */\n      dup5\n        /* \"#utility.yul\":2575:2614   */\n      add\n        /* \"#utility.yul\":2568:2614   */\n      swap2\n      pop\n        /* \"#utility.yul\":2335:2620   */\n      pop\n        /* \"#utility.yul\":2243:2620   */\n      swap3\n      swap2\n      pop\n      pop\n      jump\t// out\n        /* \"#utility.yul\":2626:2939   */\n    tag_45:\n        /* \"#utility.yul\":2739:2743   */\n      0x00\n        /* \"#utility.yul\":2777:2779   */\n      0x20\n        /* \"#utility.yul\":2766:2775   */\n      dup3\n        /* \"#utility.yul\":2762:2780   */\n      add\n        /* \"#utility.yul\":2754:2780   */\n      swap1\n      pop\n        /* \"#utility.yul\":2826:2835   */\n      dup2\n        /* \"#utility.yul\":2820:2824   */\n      dup2\n        /* \"#utility.yul\":2816:2836   */\n      sub\n        /* \"#utility.yul\":2812:2813   */\n      0x00\n        /* \"#utility.yul\":2801:2810   */\n      dup4\n        /* \"#utility.yul\":2797:2814   */\n      add\n        /* \"#utility.yul\":2790:2837   */\n      mstore\n        /* \"#utility.yul\":2854:2932   */\n      tag_394\n        /* \"#utility.yul\":2927:2931   */\n      dup2\n        /* \"#utility.yul\":2918:2924   */\n      dup5\n        /* \"#utility.yul\":2854:2932   */\n      tag_321\n      jump\t// in\n    tag_394:\n        /* \"#utility.yul\":2846:2932   */\n      swap1\n      pop\n        /* \"#utility.yul\":2626:2939   */\n      swap3\n      swap2\n      pop\n      pop\n      jump\t// out\n        /* \"#utility.yul\":2945:3022   */\n    tag_322:\n        /* \"#utility.yul\":2982:2989   */\n      0x00\n        /* \"#utility.yul\":3011:3016   */\n      dup2\n        /* \"#utility.yul\":3000:3016   */\n      swap1\n      pop\n        /* \"#utility.yul\":2945:3022   */\n      swap2\n      swap1\n      pop\n      jump\t// out\n        /* \"#utility.yul\":3028:3150   */\n    tag_323:\n        /* \"#utility.yul\":3101:3125   */\n      tag_397\n        /* \"#utility.yul\":3119:3124   */\n      dup2\n        /* \"#utility.yul\":3101:3125   */\n      tag_322\n      jump\t// in\n    tag_397:\n        /* \"#utility.yul\":3094:3099   */\n      dup2\n        /* \"#utility.yul\":3091:3126   */\n      eq\n        /* \"#utility.yul\":3081:3144   */\n      tag_398\n      jumpi\n        /* \"#utility.yul\":3140:3141   */\n      0x00\n        /* \"#utility.yul\":3137:3138   */\n      dup1\n        /* \"#utility.yul\":3130:3142   */\n      revert\n        /* \"#utility.yul\":3081:3144   */\n    tag_398:\n        /* \"#utility.yul\":3028:3150   */\n      pop\n      jump\t// out\n        /* \"#utility.yul\":3156:3295   */\n    tag_324:\n        /* \"#utility.yul\":3202:3207   */\n      0x00\n        /* \"#utility.yul\":3240:3246   */\n      dup2\n        /* \"#utility.yul\":3227:3247   */\n      calldataload\n        /* \"#utility.yul\":3218:3247   */\n      swap1\n      pop\n        /* \"#utility.yul\":3256:3289   */\n      tag_400\n        /* \"#utility.yul\":3283:3288   */\n      dup2\n        /* \"#utility.yul\":3256:3289   */\n      tag_323\n      jump\t// in\n    tag_400:\n        /* \"#utility.yul\":3156:3295   */\n      swap3\n      swap2\n      pop\n      pop\n      jump\t// out\n        /* \"#utility.yul\":3301:3775   */\n    tag_48:\n        /* \"#utility.yul\":3369:3375   */\n      0x00\n        /* \"#utility.yul\":3377:3383   */\n      dup1\n        /* \"#utility.yul\":3426:3428   */\n      0x40\n        /* \"#utility.yul\":3414:3423   */\n      dup4\n        /* \"#utility.yul\":3405:3412   */\n      dup6\n        /* \"#utility.yul\":3401:3424   */\n      sub\n        /* \"#utility.yul\":3397:3429   */\n      slt\n        /* \"#utility.yul\":3394:3513   */\n      iszero\n      tag_402\n      jumpi\n        /* \"#utility.yul\":3432:3511   */\n      tag_403\n      tag_309\n      jump\t// in\n    tag_403:\n        /* \"#utility.yul\":3394:3513   */\n    tag_402:\n        /* \"#utility.yul\":3552:3553   */\n      0x00\n        /* \"#utility.yul\":3577:3630   */\n      tag_404\n        /* \"#utility.yul\":3622:3629   */\n      dup6\n        /* \"#utility.yul\":3613:3619   */\n      dup3\n        /* \"#utility.yul\":3602:3611   */\n      dup7\n        /* \"#utility.yul\":3598:3620   */\n      add\n        /* \"#utility.yul\":3577:3630   */\n      tag_314\n      jump\t// in\n    tag_404:\n        /* \"#utility.yul\":3567:3630   */\n      swap3\n      pop\n        /* \"#utility.yul\":3523:3640   */\n      pop\n        /* \"#utility.yul\":3679:3681   */\n      0x20\n        /* \"#utility.yul\":3705:3758   */\n      tag_405\n        /* \"#utility.yul\":3750:3757   */\n      dup6\n        /* \"#utility.yul\":3741:3747   */\n      dup3\n        /* \"#utility.yul\":3730:3739   */\n      dup7\n        /* \"#utility.yul\":3726:3748   */\n      add\n        /* \"#utility.yul\":3705:3758   */\n      tag_324\n      jump\t// in\n    tag_405:\n        /* \"#utility.yul\":3695:3758   */\n      swap2\n      pop\n        /* \"#utility.yul\":3650:3768   */\n      pop\n        /* \"#utility.yul\":3301:3775   */\n      swap3\n      pop\n      swap3\n      swap1\n      pop\n      jump\t// out\n        /* \"#utility.yul\":3781:3899   */\n    tag_325:\n        /* \"#utility.yul\":3868:3892   */\n      tag_407\n        /* \"#utility.yul\":3886:3891   */\n      dup2\n        /* \"#utility.yul\":3868:3892   */\n      tag_322\n      jump\t// in\n    tag_407:\n        /* \"#utility.yul\":3863:3866   */\n      dup3\n        /* \"#utility.yul\":3856:3893   */\n      mstore\n        /* \"#utility.yul\":3781:3899   */\n      pop\n      pop\n      jump\t// out\n        /* \"#utility.yul\":3905:4127   */\n    tag_54:\n        /* \"#utility.yul\":3998:4002   */\n      0x00\n        /* \"#utility.yul\":4036:4038   */\n      0x20\n        /* \"#utility.yul\":4025:4034   */\n      dup3\n        /* \"#utility.yul\":4021:4039   */\n      add\n        /* \"#utility.yul\":4013:4039   */\n      swap1\n      pop\n        /* \"#utility.yul\":4049:4120   */\n      tag_409\n        /* \"#utility.yul\":4117:4118   */\n      0x00\n        /* \"#utility.yul\":4106:4115   */\n      dup4\n        /* \"#utility.yul\":4102:4119   */\n      add\n        /* \"#utility.yul\":4093:4099   */\n      dup5\n        /* \"#utility.yul\":4049:4120   */\n      tag_325\n      jump\t// in\n    tag_409:\n        /* \"#utility.yul\":3905:4127   */\n      swap3\n      swap2\n      pop\n      pop\n      jump\t// out\n        /* \"#utility.yul\":4133:4752   */\n    tag_57:\n        /* \"#utility.yul\":4210:4216   */\n      0x00\n        /* \"#utility.yul\":4218:4224   */\n      dup1\n        /* \"#utility.yul\":4226:4232   */\n      0x00\n        /* \"#utility.yul\":4275:4277   */\n      0x60\n        /* \"#utility.yul\":4263:4272   */\n      dup5\n        /* \"#utility.yul\":4254:4261   */\n      dup7\n        /* \"#utility.yul\":4250:4273   */\n      sub\n        /* \"#utility.yul\":4246:4278   */\n      slt\n        /* \"#utility.yul\":4243:4362   */\n      iszero\n      tag_411\n      jumpi\n        /* \"#utility.yul\":4281:4360   */\n      tag_412\n      tag_309\n      jump\t// in\n    tag_412:\n        /* \"#utility.yul\":4243:4362   */\n    tag_411:\n        /* \"#utility.yul\":4401:4402   */\n      0x00\n        /* \"#utility.yul\":4426:4479   */\n      tag_413\n        /* \"#utility.yul\":4471:4478   */\n      dup7\n        /* \"#utility.yul\":4462:4468   */\n      dup3\n        /* \"#utility.yul\":4451:4460   */\n      dup8\n        /* \"#utility.yul\":4447:4469   */\n      add\n        /* \"#utility.yul\":4426:4479   */\n      tag_314\n      jump\t// in\n    tag_413:\n        /* \"#utility.yul\":4416:4479   */\n      swap4\n      pop\n        /* \"#utility.yul\":4372:4489   */\n      pop\n        /* \"#utility.yul\":4528:4530   */\n      0x20\n        /* \"#utility.yul\":4554:4607   */\n      tag_414\n        /* \"#utility.yul\":4599:4606   */\n      dup7\n        /* \"#utility.yul\":4590:4596   */\n      dup3\n        /* \"#utility.yul\":4579:4588   */\n      dup8\n        /* \"#utility.yul\":4575:4597   */\n      add\n        /* \"#utility.yul\":4554:4607   */\n      tag_314\n      jump\t// in\n    tag_414:\n        /* \"#utility.yul\":4544:4607   */\n      swap3\n      pop\n        /* \"#utility.yul\":4499:4617   */\n      pop\n        /* \"#utility.yul\":4656:4658   */\n      0x40\n        /* \"#utility.yul\":4682:4735   */\n      tag_415\n        /* \"#utility.yul\":4727:4734   */\n      dup7\n        /* \"#utility.yul\":4718:4724   */\n      dup3\n        /* \"#utility.yul\":4707:4716   */\n      dup8\n        /* \"#utility.yul\":4703:4725   */\n      add\n        /* \"#utility.yul\":4682:4735   */\n      tag_324\n      jump\t// in\n    tag_415:\n        /* \"#utility.yul\":4672:4735   */\n      swap2\n      pop\n        /* \"#utility.yul\":4627:4745   */\n      pop\n        /* \"#utility.yul\":4133:4752   */\n      swap3\n      pop\n      swap3\n      pop\n      swap3\n      jump\t// out\n        /* \"#utility.yul\":4758:4876   */\n    tag_326:\n        /* \"#utility.yul\":4845:4869   */\n      tag_417\n        /* \"#utility.yul\":4863:4868   */\n      dup2\n        /* \"#utility.yul\":4845:4869   */\n      tag_312\n      jump\t// in\n    tag_417:\n        /* \"#utility.yul\":4840:4843   */\n      dup3\n        /* \"#utility.yul\":4833:4870   */\n      mstore\n        /* \"#utility.yul\":4758:4876   */\n      pop\n      pop\n      jump\t// out\n        /* \"#utility.yul\":4882:5104   */\n    tag_63:\n        /* \"#utility.yul\":4975:4979   */\n      0x00\n        /* \"#utility.yul\":5013:5015   */\n      0x20\n        /* \"#utility.yul\":5002:5011   */\n      dup3\n        /* \"#utility.yul\":4998:5016   */\n      add\n        /* \"#utility.yul\":4990:5016   */\n      swap1\n      pop\n        /* \"#utility.yul\":5026:5097   */\n      tag_419\n        /* \"#utility.yul\":5094:5095   */\n      0x00\n        /* \"#utility.yul\":5083:5092   */\n      dup4\n        /* \"#utility.yul\":5079:5096   */\n      add\n        /* \"#utility.yul\":5070:5076   */\n      dup5\n        /* \"#utility.yul\":5026:5097   */\n      tag_326\n      jump\t// in\n    tag_419:\n        /* \"#utility.yul\":4882:5104   */\n      swap3\n      swap2\n      pop\n      pop\n      jump\t// out\n        /* \"#utility.yul\":5110:5196   */\n    tag_327:\n        /* \"#utility.yul\":5145:5152   */\n      0x00\n        /* \"#utility.yul\":5185:5189   */\n      0xff\n        /* \"#utility.yul\":5178:5183   */\n      dup3\n        /* \"#utility.yul\":5174:5190   */\n      and\n        /* \"#utility.yul\":5163:5190   */\n      swap1\n      pop\n        /* \"#utility.yul\":5110:5196   */\n      swap2\n      swap1\n      pop\n      jump\t// out\n        /* \"#utility.yul\":5202:5314   */\n    tag_328:\n        /* \"#utility.yul\":5285:5307   */\n      tag_422\n        /* \"#utility.yul\":5301:5306   */\n      dup2\n        /* \"#utility.yul\":5285:5307   */\n      tag_327\n      jump\t// in\n    tag_422:\n        /* \"#utility.yul\":5280:5283   */\n      dup3\n        /* \"#utility.yul\":5273:5308   */\n      mstore\n        /* \"#utility.yul\":5202:5314   */\n      pop\n      pop\n      jump\t// out\n        /* \"#utility.yul\":5320:5534   */\n    tag_67:\n        /* \"#utility.yul\":5409:5413   */\n      0x00\n        /* \"#utility.yul\":5447:5449   */\n      0x20\n        /* \"#utility.yul\":5436:5445   */\n      dup3\n        /* \"#utility.yul\":5432:5450   */\n      add\n        /* \"#utility.yul\":5424:5450   */\n      swap1\n      pop\n        /* \"#utility.yul\":5460:5527   */\n      tag_424\n        /* \"#utility.yul\":5524:5525   */\n      0x00\n        /* \"#utility.yul\":5513:5522   */\n      dup4\n        /* \"#utility.yul\":5509:5526   */\n      add\n        /* \"#utility.yul\":5500:5506   */\n      dup5\n        /* \"#utility.yul\":5460:5527   */\n      tag_328\n      jump\t// in\n    tag_424:\n        /* \"#utility.yul\":5320:5534   */\n      swap3\n      swap2\n      pop\n      pop\n      jump\t// out\n        /* \"#utility.yul\":5540:5869   */\n    tag_79:\n        /* \"#utility.yul\":5599:5605   */\n      0x00\n        /* \"#utility.yul\":5648:5650   */\n      0x20\n        /* \"#utility.yul\":5636:5645   */\n      dup3\n        /* \"#utility.yul\":5627:5634   */\n      dup5\n        /* \"#utility.yul\":5623:5646   */\n      sub\n        /* \"#utility.yul\":5619:5651   */\n      slt\n        /* \"#utility.yul\":5616:5735   */\n      iszero\n      tag_426\n      jumpi\n        /* \"#utility.yul\":5654:5733   */\n      tag_427\n      tag_309\n      jump\t// in\n    tag_427:\n        /* \"#utility.yul\":5616:5735   */\n    tag_426:\n        /* \"#utility.yul\":5774:5775   */\n      0x00\n        /* \"#utility.yul\":5799:5852   */\n      tag_428\n        /* \"#utility.yul\":5844:5851   */\n      dup5\n        /* \"#utility.yul\":5835:5841   */\n      dup3\n        /* \"#utility.yul\":5824:5833   */\n      dup6\n        /* \"#utility.yul\":5820:5842   */\n      add\n        /* \"#utility.yul\":5799:5852   */\n      tag_324\n      jump\t// in\n    tag_428:\n        /* \"#utility.yul\":5789:5852   */\n      swap2\n      pop\n        /* \"#utility.yul\":5745:5862   */\n      pop\n        /* \"#utility.yul\":5540:5869   */\n      swap3\n      swap2\n      pop\n      pop\n      jump\t// out\n        /* \"#utility.yul\":5875:5991   */\n    tag_329:\n        /* \"#utility.yul\":5945:5966   */\n      tag_430\n        /* \"#utility.yul\":5960:5965   */\n      dup2\n        /* \"#utility.yul\":5945:5966   */\n      tag_315\n      jump\t// in\n    tag_430:\n        /* \"#utility.yul\":5938:5943   */\n      dup2\n        /* \"#utility.yul\":5935:5967   */\n      eq\n        /* \"#utility.yul\":5925:5985   */\n      tag_431\n      jumpi\n        /* \"#utility.yul\":5981:5982   */\n      0x00\n        /* \"#utility.yul\":5978:5979   */\n      dup1\n        /* \"#utility.yul\":5971:5983   */\n      revert\n        /* \"#utility.yul\":5925:5985   */\n    tag_431:\n        /* \"#utility.yul\":5875:5991   */\n      pop\n      jump\t// out\n        /* \"#utility.yul\":5997:6130   */\n    tag_330:\n        /* \"#utility.yul\":6040:6045   */\n      0x00\n        /* \"#utility.yul\":6078:6084   */\n      dup2\n        /* \"#utility.yul\":6065:6085   */\n      calldataload\n        /* \"#utility.yul\":6056:6085   */\n      swap1\n      pop\n        /* \"#utility.yul\":6094:6124   */\n      tag_433\n        /* \"#utility.yul\":6118:6123   */\n      dup2\n        /* \"#utility.yul\":6094:6124   */\n      tag_329\n      jump\t// in\n    tag_433:\n        /* \"#utility.yul\":5997:6130   */\n      swap3\n      swap2\n      pop\n      pop\n      jump\t// out\n        /* \"#utility.yul\":6136:6604   */\n    tag_116:\n        /* \"#utility.yul\":6201:6207   */\n      0x00\n        /* \"#utility.yul\":6209:6215   */\n      dup1\n        /* \"#utility.yul\":6258:6260   */\n      0x40\n        /* \"#utility.yul\":6246:6255   */\n      dup4\n        /* \"#utility.yul\":6237:6244   */\n      dup6\n        /* \"#utility.yul\":6233:6256   */\n      sub\n        /* \"#utility.yul\":6229:6261   */\n      slt\n        /* \"#utility.yul\":6226:6345   */\n      iszero\n      tag_435\n      jumpi\n        /* \"#utility.yul\":6264:6343   */\n      tag_436\n      tag_309\n      jump\t// in\n    tag_436:\n        /* \"#utility.yul\":6226:6345   */\n    tag_435:\n        /* \"#utility.yul\":6384:6385   */\n      0x00\n        /* \"#utility.yul\":6409:6462   */\n      tag_437\n        /* \"#utility.yul\":6454:6461   */\n      dup6\n        /* \"#utility.yul\":6445:6451   */\n      dup3\n        /* \"#utility.yul\":6434:6443   */\n      dup7\n        /* \"#utility.yul\":6430:6452   */\n      add\n        /* \"#utility.yul\":6409:6462   */\n      tag_314\n      jump\t// in\n    tag_437:\n        /* \"#utility.yul\":6399:6462   */\n      swap3\n      pop\n        /* \"#utility.yul\":6355:6472   */\n      pop\n        /* \"#utility.yul\":6511:6513   */\n      0x20\n        /* \"#utility.yul\":6537:6587   */\n      tag_438\n        /* \"#utility.yul\":6579:6586   */\n      dup6\n        /* \"#utility.yul\":6570:6576   */\n      dup3\n        /* \"#utility.yul\":6559:6568   */\n      dup7\n        /* \"#utility.yul\":6555:6577   */\n      add\n        /* \"#utility.yul\":6537:6587   */\n      tag_330\n      jump\t// in\n    tag_438:\n        /* \"#utility.yul\":6527:6587   */\n      swap2\n      pop\n        /* \"#utility.yul\":6482:6597   */\n      pop\n        /* \"#utility.yul\":6136:6604   */\n      swap3\n      pop\n      swap3\n      swap1\n      pop\n      jump\t// out\n        /* \"#utility.yul\":6610:7084   */\n    tag_123:\n        /* \"#utility.yul\":6678:6684   */\n      0x00\n        /* \"#utility.yul\":6686:6692   */\n      dup1\n        /* \"#utility.yul\":6735:6737   */\n      0x40\n        /* \"#utility.yul\":6723:6732   */\n      dup4\n        /* \"#utility.yul\":6714:6721   */\n      dup6\n        /* \"#utility.yul\":6710:6733   */\n      sub\n        /* \"#utility.yul\":6706:6738   */\n      slt\n        /* \"#utility.yul\":6703:6822   */\n      iszero\n      tag_440\n      jumpi\n        /* \"#utility.yul\":6741:6820   */\n      tag_441\n      tag_309\n      jump\t// in\n    tag_441:\n        /* \"#utility.yul\":6703:6822   */\n    tag_440:\n        /* \"#utility.yul\":6861:6862   */\n      0x00\n        /* \"#utility.yul\":6886:6939   */\n      tag_442\n        /* \"#utility.yul\":6931:6938   */\n      dup6\n        /* \"#utility.yul\":6922:6928   */\n      dup3\n        /* \"#utility.yul\":6911:6920   */\n      dup7\n        /* \"#utility.yul\":6907:6929   */\n      add\n        /* \"#utility.yul\":6886:6939   */\n      tag_314\n      jump\t// in\n    tag_442:\n        /* \"#utility.yul\":6876:6939   */\n      swap3\n      pop\n        /* \"#utility.yul\":6832:6949   */\n      pop\n        /* \"#utility.yul\":6988:6990   */\n      0x20\n        /* \"#utility.yul\":7014:7067   */\n      tag_443\n        /* \"#utility.yul\":7059:7066   */\n      dup6\n        /* \"#utility.yul\":7050:7056   */\n      dup3\n        /* \"#utility.yul\":7039:7048   */\n      dup7\n        /* \"#utility.yul\":7035:7057   */\n      add\n        /* \"#utility.yul\":7014:7067   */\n      tag_314\n      jump\t// in\n    tag_443:\n        /* \"#utility.yul\":7004:7067   */\n      swap2\n      pop\n        /* \"#utility.yul\":6959:7077   */\n      pop\n        /* \"#utility.yul\":6610:7084   */\n      swap3\n      pop\n      swap3\n      swap1\n      pop\n      jump\t// out\n        /* \"#utility.yul\":7090:7709   */\n    tag_131:\n        /* \"#utility.yul\":7167:7173   */\n      0x00\n        /* \"#utility.yul\":7175:7181   */\n      dup1\n        /* \"#utility.yul\":7183:7189   */\n      0x00\n        /* \"#utility.yul\":7232:7234   */\n      0x60\n        /* \"#utility.yul\":7220:7229   */\n      dup5\n        /* \"#utility.yul\":7211:7218   */\n      dup7\n        /* \"#utility.yul\":7207:7230   */\n      sub\n        /* \"#utility.yul\":7203:7235   */\n      slt\n        /* \"#utility.yul\":7200:7319   */\n      iszero\n      tag_445\n      jumpi\n        /* \"#utility.yul\":7238:7317   */\n      tag_446\n      tag_309\n      jump\t// in\n    tag_446:\n        /* \"#utility.yul\":7200:7319   */\n    tag_445:\n        /* \"#utility.yul\":7358:7359   */\n      0x00\n        /* \"#utility.yul\":7383:7436   */\n      tag_447\n        /* \"#utility.yul\":7428:7435   */\n      dup7\n        /* \"#utility.yul\":7419:7425   */\n      dup3\n        /* \"#utility.yul\":7408:7417   */\n      dup8\n        /* \"#utility.yul\":7404:7426   */\n      add\n        /* \"#utility.yul\":7383:7436   */\n      tag_324\n      jump\t// in\n    tag_447:\n        /* \"#utility.yul\":7373:7436   */\n      swap4\n      pop\n        /* \"#utility.yul\":7329:7446   */\n      pop\n        /* \"#utility.yul\":7485:7487   */\n      0x20\n        /* \"#utility.yul\":7511:7564   */\n      tag_448\n        /* \"#utility.yul\":7556:7563   */\n      dup7\n        /* \"#utility.yul\":7547:7553   */\n      dup3\n        /* \"#utility.yul\":7536:7545   */\n      dup8\n        /* \"#utility.yul\":7532:7554   */\n      add\n        /* \"#utility.yul\":7511:7564   */\n      tag_324\n      jump\t// in\n    tag_448:\n        /* \"#utility.yul\":7501:7564   */\n      swap3\n      pop\n        /* \"#utility.yul\":7456:7574   */\n      pop\n        /* \"#utility.yul\":7613:7615   */\n      0x40\n        /* \"#utility.yul\":7639:7692   */\n      tag_449\n        /* \"#utility.yul\":7684:7691   */\n      dup7\n        /* \"#utility.yul\":7675:7681   */\n      dup3\n        /* \"#utility.yul\":7664:7673   */\n      dup8\n        /* \"#utility.yul\":7660:7682   */\n      add\n        /* \"#utility.yul\":7639:7692   */\n      tag_314\n      jump\t// in\n    tag_449:\n        /* \"#utility.yul\":7629:7692   */\n      swap2\n      pop\n        /* \"#utility.yul\":7584:7702   */\n      pop\n        /* \"#utility.yul\":7090:7709   */\n      swap3\n      pop\n      swap3\n      pop\n      swap3\n      jump\t// out\n        /* \"#utility.yul\":7715:7895   */\n    tag_331:\n        /* \"#utility.yul\":7763:7840   */\n      0x4e487b7100000000000000000000000000000000000000000000000000000000\n        /* \"#utility.yul\":7760:7761   */\n      0x00\n        /* \"#utility.yul\":7753:7841   */\n      mstore\n        /* \"#utility.yul\":7860:7864   */\n      0x22\n        /* \"#utility.yul\":7857:7858   */\n      0x04\n        /* \"#utility.yul\":7850:7865   */\n      mstore\n        /* \"#utility.yul\":7884:7888   */\n      0x24\n        /* \"#utility.yul\":7881:7882   */\n      0x00\n        /* \"#utility.yul\":7874:7889   */\n      revert\n        /* \"#utility.yul\":7901:8221   */\n    tag_134:\n        /* \"#utility.yul\":7945:7951   */\n      0x00\n        /* \"#utility.yul\":7982:7983   */\n      0x02\n        /* \"#utility.yul\":7976:7980   */\n      dup3\n        /* \"#utility.yul\":7972:7984   */\n      div\n        /* \"#utility.yul\":7962:7984   */\n      swap1\n      pop\n        /* \"#utility.yul\":8029:8030   */\n      0x01\n        /* \"#utility.yul\":8023:8027   */\n      dup3\n        /* \"#utility.yul\":8019:8031   */\n      and\n        /* \"#utility.yul\":8050:8068   */\n      dup1\n        /* \"#utility.yul\":8040:8121   */\n      tag_452\n      jumpi\n        /* \"#utility.yul\":8106:8110   */\n      0x7f\n        /* \"#utility.yul\":8098:8104   */\n      dup3\n        /* \"#utility.yul\":8094:8111   */\n      and\n        /* \"#utility.yul\":8084:8111   */\n      swap2\n      pop\n        /* \"#utility.yul\":8040:8121   */\n    tag_452:\n        /* \"#utility.yul\":8168:8170   */\n      0x20\n        /* \"#utility.yul\":8160:8166   */\n      dup3\n        /* \"#utility.yul\":8157:8171   */\n      lt\n        /* \"#utility.yul\":8137:8155   */\n      dup2\n        /* \"#utility.yul\":8134:8172   */\n      sub\n        /* \"#utility.yul\":8131:8215   */\n      tag_453\n      jumpi\n        /* \"#utility.yul\":8187:8205   */\n      tag_454\n      tag_331\n      jump\t// in\n    tag_454:\n        /* \"#utility.yul\":8131:8215   */\n    tag_453:\n        /* \"#utility.yul\":7952:8221   */\n      pop\n        /* \"#utility.yul\":7901:8221   */\n      swap2\n      swap1\n      pop\n      jump\t// out\n        /* \"#utility.yul\":8227:8399   */\n    tag_332:\n        /* \"#utility.yul\":8367:8391   */\n      0x496e73756666696369656e7420616c6c6f77616e636500000000000000000000\n        /* \"#utility.yul\":8363:8364   */\n      0x00\n        /* \"#utility.yul\":8355:8361   */\n      dup3\n        /* \"#utility.yul\":8351:8365   */\n      add\n        /* \"#utility.yul\":8344:8392   */\n      mstore\n        /* \"#utility.yul\":8227:8399   */\n      pop\n      jump\t// out\n        /* \"#utility.yul\":8405:8771   */\n    tag_333:\n        /* \"#utility.yul\":8547:8550   */\n      0x00\n        /* \"#utility.yul\":8568:8635   */\n      tag_457\n        /* \"#utility.yul\":8632:8634   */\n      0x16\n        /* \"#utility.yul\":8627:8630   */\n      dup4\n        /* \"#utility.yul\":8568:8635   */\n      tag_318\n      jump\t// in\n    tag_457:\n        /* \"#utility.yul\":8561:8635   */\n      swap2\n      pop\n        /* \"#utility.yul\":8644:8737   */\n      tag_458\n        /* \"#utility.yul\":8733:8736   */\n      dup3\n        /* \"#utility.yul\":8644:8737   */\n      tag_332\n      jump\t// in\n    tag_458:\n        /* \"#utility.yul\":8762:8764   */\n      0x20\n        /* \"#utility.yul\":8757:8760   */\n      dup3\n        /* \"#utility.yul\":8753:8765   */\n      add\n        /* \"#utility.yul\":8746:8765   */\n      swap1\n      pop\n        /* \"#utility.yul\":8405:8771   */\n      swap2\n      swap1\n      pop\n      jump\t// out\n        /* \"#utility.yul\":8777:9196   */\n    tag_145:\n        /* \"#utility.yul\":8943:8947   */\n      0x00\n        /* \"#utility.yul\":8981:8983   */\n      0x20\n        /* \"#utility.yul\":8970:8979   */\n      dup3\n        /* \"#utility.yul\":8966:8984   */\n      add\n        /* \"#utility.yul\":8958:8984   */\n      swap1\n      pop\n        /* \"#utility.yul\":9030:9039   */\n      dup2\n        /* \"#utility.yul\":9024:9028   */\n      dup2\n        /* \"#utility.yul\":9020:9040   */\n      sub\n        /* \"#utility.yul\":9016:9017   */\n      0x00\n        /* \"#utility.yul\":9005:9014   */\n      dup4\n        /* \"#utility.yul\":9001:9018   */\n      add\n        /* \"#utility.yul\":8994:9041   */\n      mstore\n        /* \"#utility.yul\":9058:9189   */\n      tag_460\n        /* \"#utility.yul\":9184:9188   */\n      dup2\n        /* \"#utility.yul\":9058:9189   */\n      tag_333\n      jump\t// in\n    tag_460:\n        /* \"#utility.yul\":9050:9189   */\n      swap1\n      pop\n        /* \"#utility.yul\":8777:9196   */\n      swap2\n      swap1\n      pop\n      jump\t// out\n        /* \"#utility.yul\":9202:9382   */\n    tag_334:\n        /* \"#utility.yul\":9250:9327   */\n      0x4e487b7100000000000000000000000000000000000000000000000000000000\n        /* \"#utility.yul\":9247:9248   */\n      0x00\n        /* \"#utility.yul\":9240:9328   */\n      mstore\n        /* \"#utility.yul\":9347:9351   */\n      0x11\n        /* \"#utility.yul\":9344:9345   */\n      0x04\n        /* \"#utility.yul\":9337:9352   */\n      mstore\n        /* \"#utility.yul\":9371:9375   */\n      0x24\n        /* \"#utility.yul\":9368:9369   */\n      0x00\n        /* \"#utility.yul\":9361:9376   */\n      revert\n        /* \"#utility.yul\":9388:9582   */\n    tag_148:\n        /* \"#utility.yul\":9428:9432   */\n      0x00\n        /* \"#utility.yul\":9448:9468   */\n      tag_463\n        /* \"#utility.yul\":9466:9467   */\n      dup3\n        /* \"#utility.yul\":9448:9468   */\n      tag_322\n      jump\t// in\n    tag_463:\n        /* \"#utility.yul\":9443:9468   */\n      swap2\n      pop\n        /* \"#utility.yul\":9482:9502   */\n      tag_464\n        /* \"#utility.yul\":9500:9501   */\n      dup4\n        /* \"#utility.yul\":9482:9502   */\n      tag_322\n      jump\t// in\n    tag_464:\n        /* \"#utility.yul\":9477:9502   */\n      swap3\n      pop\n        /* \"#utility.yul\":9526:9527   */\n      dup3\n        /* \"#utility.yul\":9523:9524   */\n      dup3\n        /* \"#utility.yul\":9519:9528   */\n      sub\n        /* \"#utility.yul\":9511:9528   */\n      swap1\n      pop\n        /* \"#utility.yul\":9550:9551   */\n      dup2\n        /* \"#utility.yul\":9544:9548   */\n      dup2\n        /* \"#utility.yul\":9541:9552   */\n      gt\n        /* \"#utility.yul\":9538:9575   */\n      iszero\n      tag_465\n      jumpi\n        /* \"#utility.yul\":9555:9573   */\n      tag_466\n      tag_334\n      jump\t// in\n    tag_466:\n        /* \"#utility.yul\":9538:9575   */\n    tag_465:\n        /* \"#utility.yul\":9388:9582   */\n      swap3\n      swap2\n      pop\n      pop\n      jump\t// out\n        /* \"#utility.yul\":9588:9998   */\n    tag_154:\n        /* \"#utility.yul\":9628:9635   */\n      0x00\n        /* \"#utility.yul\":9651:9671   */\n      tag_468\n        /* \"#utility.yul\":9669:9670   */\n      dup3\n        /* \"#utility.yul\":9651:9671   */\n      tag_322\n      jump\t// in\n    tag_468:\n        /* \"#utility.yul\":9646:9671   */\n      swap2\n      pop\n        /* \"#utility.yul\":9685:9705   */\n      tag_469\n        /* \"#utility.yul\":9703:9704   */\n      dup4\n        /* \"#utility.yul\":9685:9705   */\n      tag_322\n      jump\t// in\n    tag_469:\n        /* \"#utility.yul\":9680:9705   */\n      swap3\n      pop\n        /* \"#utility.yul\":9740:9741   */\n      dup3\n        /* \"#utility.yul\":9737:9738   */\n      dup3\n        /* \"#utility.yul\":9733:9742   */\n      mul\n        /* \"#utility.yul\":9762:9792   */\n      tag_470\n        /* \"#utility.yul\":9780:9791   */\n      dup2\n        /* \"#utility.yul\":9762:9792   */\n      tag_322\n      jump\t// in\n    tag_470:\n        /* \"#utility.yul\":9751:9792   */\n      swap2\n      pop\n        /* \"#utility.yul\":9941:9942   */\n      dup3\n        /* \"#utility.yul\":9932:9939   */\n      dup3\n        /* \"#utility.yul\":9928:9943   */\n      div\n        /* \"#utility.yul\":9925:9926   */\n      dup5\n        /* \"#utility.yul\":9922:9944   */\n      eq\n        /* \"#utility.yul\":9902:9903   */\n      dup4\n        /* \"#utility.yul\":9895:9904   */\n      iszero\n        /* \"#utility.yul\":9875:9958   */\n      or\n        /* \"#utility.yul\":9852:9991   */\n      tag_471\n      jumpi\n        /* \"#utility.yul\":9971:9989   */\n      tag_472\n      tag_334\n      jump\t// in\n    tag_472:\n        /* \"#utility.yul\":9852:9991   */\n    tag_471:\n        /* \"#utility.yul\":9636:9998   */\n      pop\n        /* \"#utility.yul\":9588:9998   */\n      swap3\n      swap2\n      pop\n      pop\n      jump\t// out\n        /* \"#utility.yul\":10004:10184   */\n    tag_335:\n        /* \"#utility.yul\":10052:10129   */\n      0x4e487b7100000000000000000000000000000000000000000000000000000000\n        /* \"#utility.yul\":10049:10050   */\n      0x00\n        /* \"#utility.yul\":10042:10130   */\n      mstore\n        /* \"#utility.yul\":10149:10153   */\n      0x12\n        /* \"#utility.yul\":10146:10147   */\n      0x04\n        /* \"#utility.yul\":10139:10154   */\n      mstore\n        /* \"#utility.yul\":10173:10177   */\n      0x24\n        /* \"#utility.yul\":10170:10171   */\n      0x00\n        /* \"#utility.yul\":10163:10178   */\n      revert\n        /* \"#utility.yul\":10190:10375   */\n    tag_156:\n        /* \"#utility.yul\":10230:10231   */\n      0x00\n        /* \"#utility.yul\":10247:10267   */\n      tag_475\n        /* \"#utility.yul\":10265:10266   */\n      dup3\n        /* \"#utility.yul\":10247:10267   */\n      tag_322\n      jump\t// in\n    tag_475:\n        /* \"#utility.yul\":10242:10267   */\n      swap2\n      pop\n        /* \"#utility.yul\":10281:10301   */\n      tag_476\n        /* \"#utility.yul\":10299:10300   */\n      dup4\n        /* \"#utility.yul\":10281:10301   */\n      tag_322\n      jump\t// in\n    tag_476:\n        /* \"#utility.yul\":10276:10301   */\n      swap3\n      pop\n        /* \"#utility.yul\":10320:10321   */\n      dup3\n        /* \"#utility.yul\":10310:10345   */\n      tag_477\n      jumpi\n        /* \"#utility.yul\":10325:10343   */\n      tag_478\n      tag_335\n      jump\t// in\n    tag_478:\n        /* \"#utility.yul\":10310:10345   */\n    tag_477:\n        /* \"#utility.yul\":10367:10368   */\n      dup3\n        /* \"#utility.yul\":10364:10365   */\n      dup3\n        /* \"#utility.yul\":10360:10369   */\n      div\n        /* \"#utility.yul\":10355:10369   */\n      swap1\n      pop\n        /* \"#utility.yul\":10190:10375   */\n      swap3\n      swap2\n      pop\n      pop\n      jump\t// out\n        /* \"#utility.yul\":10381:10551   */\n    tag_336:\n        /* \"#utility.yul\":10521:10543   */\n      0x496e73756666696369656e742062616c616e6365000000000000000000000000\n        /* \"#utility.yul\":10517:10518   */\n      0x00\n        /* \"#utility.yul\":10509:10515   */\n      dup3\n        /* \"#utility.yul\":10505:10519   */\n      add\n        /* \"#utility.yul\":10498:10544   */\n      mstore\n        /* \"#utility.yul\":10381:10551   */\n      pop\n      jump\t// out\n        /* \"#utility.yul\":10557:10923   */\n    tag_337:\n        /* \"#utility.yul\":10699:10702   */\n      0x00\n        /* \"#utility.yul\":10720:10787   */\n      tag_481\n        /* \"#utility.yul\":10784:10786   */\n      0x14\n        /* \"#utility.yul\":10779:10782   */\n      dup4\n        /* \"#utility.yul\":10720:10787   */\n      tag_318\n      jump\t// in\n    tag_481:\n        /* \"#utility.yul\":10713:10787   */\n      swap2\n      pop\n        /* \"#utility.yul\":10796:10889   */\n      tag_482\n        /* \"#utility.yul\":10885:10888   */\n      dup3\n        /* \"#utility.yul\":10796:10889   */\n      tag_336\n      jump\t// in\n    tag_482:\n        /* \"#utility.yul\":10914:10916   */\n      0x20\n        /* \"#utility.yul\":10909:10912   */\n      dup3\n        /* \"#utility.yul\":10905:10917   */\n      add\n        /* \"#utility.yul\":10898:10917   */\n      swap1\n      pop\n        /* \"#utility.yul\":10557:10923   */\n      swap2\n      swap1\n      pop\n      jump\t// out\n        /* \"#utility.yul\":10929:11348   */\n    tag_168:\n        /* \"#utility.yul\":11095:11099   */\n      0x00\n        /* \"#utility.yul\":11133:11135   */\n      0x20\n        /* \"#utility.yul\":11122:11131   */\n      dup3\n        /* \"#utility.yul\":11118:11136   */\n      add\n        /* \"#utility.yul\":11110:11136   */\n      swap1\n      pop\n        /* \"#utility.yul\":11182:11191   */\n      dup2\n        /* \"#utility.yul\":11176:11180   */\n      dup2\n        /* \"#utility.yul\":11172:11192   */\n      sub\n        /* \"#utility.yul\":11168:11169   */\n      0x00\n        /* \"#utility.yul\":11157:11166   */\n      dup4\n        /* \"#utility.yul\":11153:11170   */\n      add\n        /* \"#utility.yul\":11146:11193   */\n      mstore\n        /* \"#utility.yul\":11210:11341   */\n      tag_484\n        /* \"#utility.yul\":11336:11340   */\n      dup2\n        /* \"#utility.yul\":11210:11341   */\n      tag_337\n      jump\t// in\n    tag_484:\n        /* \"#utility.yul\":11202:11341   */\n      swap1\n      pop\n        /* \"#utility.yul\":10929:11348   */\n      swap2\n      swap1\n      pop\n      jump\t// out\n        /* \"#utility.yul\":11354:11513   */\n    tag_338:\n        /* \"#utility.yul\":11494:11505   */\n      0x4e6f74206f776e65720000000000000000000000000000000000000000000000\n        /* \"#utility.yul\":11490:11491   */\n      0x00\n        /* \"#utility.yul\":11482:11488   */\n      dup3\n        /* \"#utility.yul\":11478:11492   */\n      add\n        /* \"#utility.yul\":11471:11506   */\n      mstore\n        /* \"#utility.yul\":11354:11513   */\n      pop\n      jump\t// out\n        /* \"#utility.yul\":11519:11884   */\n    tag_339:\n        /* \"#utility.yul\":11661:11664   */\n      0x00\n        /* \"#utility.yul\":11682:11748   */\n      tag_487\n        /* \"#utility.yul\":11746:11747   */\n      0x09\n        /* \"#utility.yul\":11741:11744   */\n      dup4\n        /* \"#utility.yul\":11682:11748   */\n      tag_318\n      jump\t// in\n    tag_487:\n        /* \"#utility.yul\":11675:11748   */\n      swap2\n      pop\n        /* \"#utility.yul\":11757:11850   */\n      tag_488\n        /* \"#utility.yul\":11846:11849   */\n      dup3\n        /* \"#utility.yul\":11757:11850   */\n      tag_338\n      jump\t// in\n    tag_488:\n        /* \"#utility.yul\":11875:11877   */\n      0x20\n        /* \"#utility.yul\":11870:11873   */\n      dup3\n        /* \"#utility.yul\":11866:11878   */\n      add\n        /* \"#utility.yul\":11859:11878   */\n      swap1\n      pop\n        /* \"#utility.yul\":11519:11884   */\n      swap2\n      swap1\n      pop\n      jump\t// out\n        /* \"#utility.yul\":11890:12309   */\n    tag_188:\n        /* \"#utility.yul\":12056:12060   */\n      0x00\n        /* \"#utility.yul\":12094:12096   */\n      0x20\n        /* \"#utility.yul\":12083:12092   */\n      dup3\n        /* \"#utility.yul\":12079:12097   */\n      add\n        /* \"#utility.yul\":12071:12097   */\n      swap1\n      pop\n        /* \"#utility.yul\":12143:12152   */\n      dup2\n        /* \"#utility.yul\":12137:12141   */\n      dup2\n        /* \"#utility.yul\":12133:12153   */\n      sub\n        /* \"#utility.yul\":12129:12130   */\n      0x00\n        /* \"#utility.yul\":12118:12127   */\n      dup4\n        /* \"#utility.yul\":12114:12131   */\n      add\n        /* \"#utility.yul\":12107:12154   */\n      mstore\n        /* \"#utility.yul\":12171:12302   */\n      tag_490\n        /* \"#utility.yul\":12297:12301   */\n      dup2\n        /* \"#utility.yul\":12171:12302   */\n      tag_339\n      jump\t// in\n    tag_490:\n        /* \"#utility.yul\":12163:12302   */\n      swap1\n      pop\n        /* \"#utility.yul\":11890:12309   */\n      swap2\n      swap1\n      pop\n      jump\t// out\n        /* \"#utility.yul\":12315:12479   */\n    tag_340:\n        /* \"#utility.yul\":12455:12471   */\n      0x4e6f74207461782077616c6c6574000000000000000000000000000000000000\n        /* \"#utility.yul\":12451:12452   */\n      0x00\n        /* \"#utility.yul\":12443:12449   */\n      dup3\n        /* \"#utility.yul\":12439:12453   */\n      add\n        /* \"#utility.yul\":12432:12472   */\n      mstore\n        /* \"#utility.yul\":12315:12479   */\n      pop\n      jump\t// out\n        /* \"#utility.yul\":12485:12851   */\n    tag_341:\n        /* \"#utility.yul\":12627:12630   */\n      0x00\n        /* \"#utility.yul\":12648:12715   */\n      tag_493\n        /* \"#utility.yul\":12712:12714   */\n      0x0e\n        /* \"#utility.yul\":12707:12710   */\n      dup4\n        /* \"#utility.yul\":12648:12715   */\n      tag_318\n      jump\t// in\n    tag_493:\n        /* \"#utility.yul\":12641:12715   */\n      swap2\n      pop\n        /* \"#utility.yul\":12724:12817   */\n      tag_494\n        /* \"#utility.yul\":12813:12816   */\n      dup3\n        /* \"#utility.yul\":12724:12817   */\n      tag_340\n      jump\t// in\n    tag_494:\n        /* \"#utility.yul\":12842:12844   */\n      0x20\n        /* \"#utility.yul\":12837:12840   */\n      dup3\n        /* \"#utility.yul\":12833:12845   */\n      add\n        /* \"#utility.yul\":12826:12845   */\n      swap1\n      pop\n        /* \"#utility.yul\":12485:12851   */\n      swap2\n      swap1\n      pop\n      jump\t// out\n        /* \"#utility.yul\":12857:13276   */\n    tag_200:\n        /* \"#utility.yul\":13023:13027   */\n      0x00\n        /* \"#utility.yul\":13061:13063   */\n      0x20\n        /* \"#utility.yul\":13050:13059   */\n      dup3\n        /* \"#utility.yul\":13046:13064   */\n      add\n        /* \"#utility.yul\":13038:13064   */\n      swap1\n      pop\n        /* \"#utility.yul\":13110:13119   */\n      dup2\n        /* \"#utility.yul\":13104:13108   */\n      dup2\n        /* \"#utility.yul\":13100:13120   */\n      sub\n        /* \"#utility.yul\":13096:13097   */\n      0x00\n        /* \"#utility.yul\":13085:13094   */\n      dup4\n        /* \"#utility.yul\":13081:13098   */\n      add\n        /* \"#utility.yul\":13074:13121   */\n      mstore\n        /* \"#utility.yul\":13138:13269   */\n      tag_496\n        /* \"#utility.yul\":13264:13268   */\n      dup2\n        /* \"#utility.yul\":13138:13269   */\n      tag_341\n      jump\t// in\n    tag_496:\n        /* \"#utility.yul\":13130:13269   */\n      swap1\n      pop\n        /* \"#utility.yul\":12857:13276   */\n      swap2\n      swap1\n      pop\n      jump\t// out\n        /* \"#utility.yul\":13282:13444   */\n    tag_342:\n        /* \"#utility.yul\":13422:13436   */\n      0x5a65726f20616464726573730000000000000000000000000000000000000000\n        /* \"#utility.yul\":13418:13419   */\n      0x00\n        /* \"#utility.yul\":13410:13416   */\n      dup3\n        /* \"#utility.yul\":13406:13420   */\n      add\n        /* \"#utility.yul\":13399:13437   */\n      mstore\n        /* \"#utility.yul\":13282:13444   */\n      pop\n      jump\t// out\n        /* \"#utility.yul\":13450:13816   */\n    tag_343:\n        /* \"#utility.yul\":13592:13595   */\n      0x00\n        /* \"#utility.yul\":13613:13680   */\n      tag_499\n        /* \"#utility.yul\":13677:13679   */\n      0x0c\n        /* \"#utility.yul\":13672:13675   */\n      dup4\n        /* \"#utility.yul\":13613:13680   */\n      tag_318\n      jump\t// in\n    tag_499:\n        /* \"#utility.yul\":13606:13680   */\n      swap2\n      pop\n        /* \"#utility.yul\":13689:13782   */\n      tag_500\n        /* \"#utility.yul\":13778:13781   */\n      dup3\n        /* \"#utility.yul\":13689:13782   */\n      tag_342\n      jump\t// in\n    tag_500:\n        /* \"#utility.yul\":13807:13809   */\n      0x20\n        /* \"#utility.yul\":13802:13805   */\n      dup3\n        /* \"#utility.yul\":13798:13810   */\n      add\n        /* \"#utility.yul\":13791:13810   */\n      swap1\n      pop\n        /* \"#utility.yul\":13450:13816   */\n      swap2\n      swap1\n      pop\n      jump\t// out\n        /* \"#utility.yul\":13822:14241   */\n    tag_209:\n        /* \"#utility.yul\":13988:13992   */\n      0x00\n        /* \"#utility.yul\":14026:14028   */\n      0x20\n        /* \"#utility.yul\":14015:14024   */\n      dup3\n        /* \"#utility.yul\":14011:14029   */\n      add\n        /* \"#utility.yul\":14003:14029   */\n      swap1\n      pop\n        /* \"#utility.yul\":14075:14084   */\n      dup2\n        /* \"#utility.yul\":14069:14073   */\n      dup2\n        /* \"#utility.yul\":14065:14085   */\n      sub\n        /* \"#utility.yul\":14061:14062   */\n      0x00\n        /* \"#utility.yul\":14050:14059   */\n      dup4\n        /* \"#utility.yul\":14046:14063   */\n      add\n        /* \"#utility.yul\":14039:14086   */\n      mstore\n        /* \"#utility.yul\":14103:14234   */\n      tag_502\n        /* \"#utility.yul\":14229:14233   */\n      dup2\n        /* \"#utility.yul\":14103:14234   */\n      tag_343\n      jump\t// in\n    tag_502:\n        /* \"#utility.yul\":14095:14234   */\n      swap1\n      pop\n        /* \"#utility.yul\":13822:14241   */\n      swap2\n      swap1\n      pop\n      jump\t// out\n        /* \"#utility.yul\":14247:14413   */\n    tag_344:\n        /* \"#utility.yul\":14387:14405   */\n      0x5061697220616c72656164792073657400000000000000000000000000000000\n        /* \"#utility.yul\":14383:14384   */\n      0x00\n        /* \"#utility.yul\":14375:14381   */\n      dup3\n        /* \"#utility.yul\":14371:14385   */\n      add\n        /* \"#utility.yul\":14364:14406   */\n      mstore\n        /* \"#utility.yul\":14247:14413   */\n      pop\n      jump\t// out\n        /* \"#utility.yul\":14419:14785   */\n    tag_345:\n        /* \"#utility.yul\":14561:14564   */\n      0x00\n        /* \"#utility.yul\":14582:14649   */\n      tag_505\n        /* \"#utility.yul\":14646:14648   */\n      0x10\n        /* \"#utility.yul\":14641:14644   */\n      dup4\n        /* \"#utility.yul\":14582:14649   */\n      tag_318\n      jump\t// in\n    tag_505:\n        /* \"#utility.yul\":14575:14649   */\n      swap2\n      pop\n        /* \"#utility.yul\":14658:14751   */\n      tag_506\n        /* \"#utility.yul\":14747:14750   */\n      dup3\n        /* \"#utility.yul\":14658:14751   */\n      tag_344\n      jump\t// in\n    tag_506:\n        /* \"#utility.yul\":14776:14778   */\n      0x20\n        /* \"#utility.yul\":14771:14774   */\n      dup3\n        /* \"#utility.yul\":14767:14779   */\n      add\n        /* \"#utility.yul\":14760:14779   */\n      swap1\n      pop\n        /* \"#utility.yul\":14419:14785   */\n      swap2\n      swap1\n      pop\n      jump\t// out\n        /* \"#utility.yul\":14791:15210   */\n    tag_217:\n        /* \"#utility.yul\":14957:14961   */\n      0x00\n        /* \"#utility.yul\":14995:14997   */\n      0x20\n        /* \"#utility.yul\":14984:14993   */\n      dup3\n        /* \"#utility.yul\":14980:14998   */\n      add\n        /* \"#utility.yul\":14972:14998   */\n      swap1\n      pop\n        /* \"#utility.yul\":15044:15053   */\n      dup2\n        /* \"#utility.yul\":15038:15042   */\n      dup2\n        /* \"#utility.yul\":15034:15054   */\n      sub\n        /* \"#utility.yul\":15030:15031   */\n      0x00\n        /* \"#utility.yul\":15019:15028   */\n      dup4\n        /* \"#utility.yul\":15015:15032   */\n      add\n        /* \"#utility.yul\":15008:15055   */\n      mstore\n        /* \"#utility.yul\":15072:15203   */\n      tag_508\n        /* \"#utility.yul\":15198:15202   */\n      dup2\n        /* \"#utility.yul\":15072:15203   */\n      tag_345\n      jump\t// in\n    tag_508:\n        /* \"#utility.yul\":15064:15203   */\n      swap1\n      pop\n        /* \"#utility.yul\":14791:15210   */\n      swap2\n      swap1\n      pop\n      jump\t// out\n        /* \"#utility.yul\":15216:15385   */\n    tag_346:\n        /* \"#utility.yul\":15356:15377   */\n      0x74726164696e67206e6f7420656e61626c656400000000000000000000000000\n        /* \"#utility.yul\":15352:15353   */\n      0x00\n        /* \"#utility.yul\":15344:15350   */\n      dup3\n        /* \"#utility.yul\":15340:15354   */\n      add\n        /* \"#utility.yul\":15333:15378   */\n      mstore\n        /* \"#utility.yul\":15216:15385   */\n      pop\n      jump\t// out\n        /* \"#utility.yul\":15391:15757   */\n    tag_347:\n        /* \"#utility.yul\":15533:15536   */\n      0x00\n        /* \"#utility.yul\":15554:15621   */\n      tag_511\n        /* \"#utility.yul\":15618:15620   */\n      0x13\n        /* \"#utility.yul\":15613:15616   */\n      dup4\n        /* \"#utility.yul\":15554:15621   */\n      tag_318\n      jump\t// in\n    tag_511:\n        /* \"#utility.yul\":15547:15621   */\n      swap2\n      pop\n        /* \"#utility.yul\":15630:15723   */\n      tag_512\n        /* \"#utility.yul\":15719:15722   */\n      dup3\n        /* \"#utility.yul\":15630:15723   */\n      tag_346\n      jump\t// in\n    tag_512:\n        /* \"#utility.yul\":15748:15750   */\n      0x20\n        /* \"#utility.yul\":15743:15746   */\n      dup3\n        /* \"#utility.yul\":15739:15751   */\n      add\n        /* \"#utility.yul\":15732:15751   */\n      swap1\n      pop\n        /* \"#utility.yul\":15391:15757   */\n      swap2\n      swap1\n      pop\n      jump\t// out\n        /* \"#utility.yul\":15763:16182   */\n    tag_226:\n        /* \"#utility.yul\":15929:15933   */\n      0x00\n        /* \"#utility.yul\":15967:15969   */\n      0x20\n        /* \"#utility.yul\":15956:15965   */\n      dup3\n        /* \"#utility.yul\":15952:15970   */\n      add\n        /* \"#utility.yul\":15944:15970   */\n      swap1\n      pop\n        /* \"#utility.yul\":16016:16025   */\n      dup2\n        /* \"#utility.yul\":16010:16014   */\n      dup2\n        /* \"#utility.yul\":16006:16026   */\n      sub\n        /* \"#utility.yul\":16002:16003   */\n      0x00\n        /* \"#utility.yul\":15991:16000   */\n      dup4\n        /* \"#utility.yul\":15987:16004   */\n      add\n        /* \"#utility.yul\":15980:16027   */\n      mstore\n        /* \"#utility.yul\":16044:16175   */\n      tag_514\n        /* \"#utility.yul\":16170:16174   */\n      dup2\n        /* \"#utility.yul\":16044:16175   */\n      tag_347\n      jump\t// in\n    tag_514:\n        /* \"#utility.yul\":16036:16175   */\n      swap1\n      pop\n        /* \"#utility.yul\":15763:16182   */\n      swap2\n      swap1\n      pop\n      jump\t// out\n        /* \"#utility.yul\":16188:16368   */\n    tag_244:\n        /* \"#utility.yul\":16236:16313   */\n      0x4e487b7100000000000000000000000000000000000000000000000000000000\n        /* \"#utility.yul\":16233:16234   */\n      0x00\n        /* \"#utility.yul\":16226:16314   */\n      mstore\n        /* \"#utility.yul\":16333:16337   */\n      0x41\n        /* \"#utility.yul\":16330:16331   */\n      0x04\n        /* \"#utility.yul\":16323:16338   */\n      mstore\n        /* \"#utility.yul\":16357:16361   */\n      0x24\n        /* \"#utility.yul\":16354:16355   */\n      0x00\n        /* \"#utility.yul\":16347:16362   */\n      revert\n        /* \"#utility.yul\":16374:16554   */\n    tag_248:\n        /* \"#utility.yul\":16422:16499   */\n      0x4e487b7100000000000000000000000000000000000000000000000000000000\n        /* \"#utility.yul\":16419:16420   */\n      0x00\n        /* \"#utility.yul\":16412:16500   */\n      mstore\n        /* \"#utility.yul\":16519:16523   */\n      0x32\n        /* \"#utility.yul\":16516:16517   */\n      0x04\n        /* \"#utility.yul\":16509:16524   */\n      mstore\n        /* \"#utility.yul\":16543:16547   */\n      0x24\n        /* \"#utility.yul\":16540:16541   */\n      0x00\n        /* \"#utility.yul\":16533:16548   */\n      revert\n        /* \"#utility.yul\":16560:16703   */\n    tag_348:\n        /* \"#utility.yul\":16617:16622   */\n      0x00\n        /* \"#utility.yul\":16648:16654   */\n      dup2\n        /* \"#utility.yul\":16642:16655   */\n      mload\n        /* \"#utility.yul\":16633:16655   */\n      swap1\n      pop\n        /* \"#utility.yul\":16664:16697   */\n      tag_518\n        /* \"#utility.yul\":16691:16696   */\n      dup2\n        /* \"#utility.yul\":16664:16697   */\n      tag_313\n      jump\t// in\n    tag_518:\n        /* \"#utility.yul\":16560:16703   */\n      swap3\n      swap2\n      pop\n      pop\n      jump\t// out\n        /* \"#utility.yul\":16709:17060   */\n    tag_252:\n        /* \"#utility.yul\":16779:16785   */\n      0x00\n        /* \"#utility.yul\":16828:16830   */\n      0x20\n        /* \"#utility.yul\":16816:16825   */\n      dup3\n        /* \"#utility.yul\":16807:16814   */\n      dup5\n        /* \"#utility.yul\":16803:16826   */\n      sub\n        /* \"#utility.yul\":16799:16831   */\n      slt\n        /* \"#utility.yul\":16796:16915   */\n      iszero\n      tag_520\n      jumpi\n        /* \"#utility.yul\":16834:16913   */\n      tag_521\n      tag_309\n      jump\t// in\n    tag_521:\n        /* \"#utility.yul\":16796:16915   */\n    tag_520:\n        /* \"#utility.yul\":16954:16955   */\n      0x00\n        /* \"#utility.yul\":16979:17043   */\n      tag_522\n        /* \"#utility.yul\":17035:17042   */\n      dup5\n        /* \"#utility.yul\":17026:17032   */\n      dup3\n        /* \"#utility.yul\":17015:17024   */\n      dup6\n        /* \"#utility.yul\":17011:17033   */\n      add\n        /* \"#utility.yul\":16979:17043   */\n      tag_348\n      jump\t// in\n    tag_522:\n        /* \"#utility.yul\":16969:17043   */\n      swap2\n      pop\n        /* \"#utility.yul\":16925:17053   */\n      pop\n        /* \"#utility.yul\":16709:17060   */\n      swap3\n      swap2\n      pop\n      pop\n      jump\t// out\n        /* \"#utility.yul\":17066:17180   */\n    tag_349:\n        /* \"#utility.yul\":17133:17139   */\n      0x00\n        /* \"#utility.yul\":17167:17172   */\n      dup2\n        /* \"#utility.yul\":17161:17173   */\n      mload\n        /* \"#utility.yul\":17151:17173   */\n      swap1\n      pop\n        /* \"#utility.yul\":17066:17180   */\n      swap2\n      swap1\n      pop\n      jump\t// out\n        /* \"#utility.yul\":17186:17370   */\n    tag_350:\n        /* \"#utility.yul\":17285:17296   */\n      0x00\n        /* \"#utility.yul\":17319:17325   */\n      dup3\n        /* \"#utility.yul\":17314:17317   */\n      dup3\n        /* \"#utility.yul\":17307:17326   */\n      mstore\n        /* \"#utility.yul\":17359:17363   */\n      0x20\n        /* \"#utility.yul\":17354:17357   */\n      dup3\n        /* \"#utility.yul\":17350:17364   */\n      add\n        /* \"#utility.yul\":17335:17364   */\n      swap1\n      pop\n        /* \"#utility.yul\":17186:17370   */\n      swap3\n      swap2\n      pop\n      pop\n      jump\t// out\n        /* \"#utility.yul\":17376:17508   */\n    tag_351:\n        /* \"#utility.yul\":17443:17447   */\n      0x00\n        /* \"#utility.yul\":17466:17469   */\n      dup2\n        /* \"#utility.yul\":17458:17469   */\n      swap1\n      pop\n        /* \"#utility.yul\":17496:17500   */\n      0x20\n        /* \"#utility.yul\":17491:17494   */\n      dup3\n        /* \"#utility.yul\":17487:17501   */\n      add\n        /* \"#utility.yul\":17479:17501   */\n      swap1\n      pop\n        /* \"#utility.yul\":17376:17508   */\n      swap2\n      swap1\n      pop\n      jump\t// out\n        /* \"#utility.yul\":17514:17622   */\n    tag_352:\n        /* \"#utility.yul\":17591:17615   */\n      tag_527\n        /* \"#utility.yul\":17609:17614   */\n      dup2\n        /* \"#utility.yul\":17591:17615   */\n      tag_312\n      jump\t// in\n    tag_527:\n        /* \"#utility.yul\":17586:17589   */\n      dup3\n        /* \"#utility.yul\":17579:17616   */\n      mstore\n        /* \"#utility.yul\":17514:17622   */\n      pop\n      pop\n      jump\t// out\n        /* \"#utility.yul\":17628:17807   */\n    tag_353:\n        /* \"#utility.yul\":17697:17707   */\n      0x00\n        /* \"#utility.yul\":17718:17764   */\n      tag_529\n        /* \"#utility.yul\":17760:17763   */\n      dup4\n        /* \"#utility.yul\":17752:17758   */\n      dup4\n        /* \"#utility.yul\":17718:17764   */\n      tag_352\n      jump\t// in\n    tag_529:\n        /* \"#utility.yul\":17796:17800   */\n      0x20\n        /* \"#utility.yul\":17791:17794   */\n      dup4\n        /* \"#utility.yul\":17787:17801   */\n      add\n        /* \"#utility.yul\":17773:17801   */\n      swap1\n      pop\n        /* \"#utility.yul\":17628:17807   */\n      swap3\n      swap2\n      pop\n      pop\n      jump\t// out\n        /* \"#utility.yul\":17813:17926   */\n    tag_354:\n        /* \"#utility.yul\":17883:17887   */\n      0x00\n        /* \"#utility.yul\":17915:17919   */\n      0x20\n        /* \"#utility.yul\":17910:17913   */\n      dup3\n        /* \"#utility.yul\":17906:17920   */\n      add\n        /* \"#utility.yul\":17898:17920   */\n      swap1\n      pop\n        /* \"#utility.yul\":17813:17926   */\n      swap2\n      swap1\n      pop\n      jump\t// out\n        /* \"#utility.yul\":17962:18694   */\n    tag_355:\n        /* \"#utility.yul\":18081:18084   */\n      0x00\n        /* \"#utility.yul\":18110:18164   */\n      tag_532\n        /* \"#utility.yul\":18158:18163   */\n      dup3\n        /* \"#utility.yul\":18110:18164   */\n      tag_349\n      jump\t// in\n    tag_532:\n        /* \"#utility.yul\":18180:18266   */\n      tag_533\n        /* \"#utility.yul\":18259:18265   */\n      dup2\n        /* \"#utility.yul\":18254:18257   */\n      dup6\n        /* \"#utility.yul\":18180:18266   */\n      tag_350\n      jump\t// in\n    tag_533:\n        /* \"#utility.yul\":18173:18266   */\n      swap4\n      pop\n        /* \"#utility.yul\":18290:18346   */\n      tag_534\n        /* \"#utility.yul\":18340:18345   */\n      dup4\n        /* \"#utility.yul\":18290:18346   */\n      tag_351\n      jump\t// in\n    tag_534:\n        /* \"#utility.yul\":18369:18376   */\n      dup1\n        /* \"#utility.yul\":18400:18401   */\n      0x00\n        /* \"#utility.yul\":18385:18669   */\n    tag_535:\n        /* \"#utility.yul\":18410:18416   */\n      dup4\n        /* \"#utility.yul\":18407:18408   */\n      dup2\n        /* \"#utility.yul\":18404:18417   */\n      lt\n        /* \"#utility.yul\":18385:18669   */\n      iszero\n      tag_537\n      jumpi\n        /* \"#utility.yul\":18486:18492   */\n      dup2\n        /* \"#utility.yul\":18480:18493   */\n      mload\n        /* \"#utility.yul\":18513:18576   */\n      tag_538\n        /* \"#utility.yul\":18572:18575   */\n      dup9\n        /* \"#utility.yul\":18557:18570   */\n      dup3\n        /* \"#utility.yul\":18513:18576   */\n      tag_353\n      jump\t// in\n    tag_538:\n        /* \"#utility.yul\":18506:18576   */\n      swap8\n      pop\n        /* \"#utility.yul\":18599:18659   */\n      tag_539\n        /* \"#utility.yul\":18652:18658   */\n      dup4\n        /* \"#utility.yul\":18599:18659   */\n      tag_354\n      jump\t// in\n    tag_539:\n        /* \"#utility.yul\":18589:18659   */\n      swap3\n      pop\n        /* \"#utility.yul\":18445:18669   */\n      pop\n        /* \"#utility.yul\":18432:18433   */\n      0x01\n        /* \"#utility.yul\":18429:18430   */\n      dup2\n        /* \"#utility.yul\":18425:18434   */\n      add\n        /* \"#utility.yul\":18420:18434   */\n      swap1\n      pop\n        /* \"#utility.yul\":18385:18669   */\n      jump(tag_535)\n    tag_537:\n        /* \"#utility.yul\":18389:18403   */\n      pop\n        /* \"#utility.yul\":18685:18688   */\n      dup6\n        /* \"#utility.yul\":18678:18688   */\n      swap4\n      pop\n        /* \"#utility.yul\":18086:18694   */\n      pop\n      pop\n      pop\n        /* \"#utility.yul\":17962:18694   */\n      swap3\n      swap2\n      pop\n      pop\n      jump\t// out\n        /* \"#utility.yul\":18700:19515   */\n    tag_256:\n        /* \"#utility.yul\":18955:18959   */\n      0x00\n        /* \"#utility.yul\":18993:18996   */\n      0xa0\n        /* \"#utility.yul\":18982:18991   */\n      dup3\n        /* \"#utility.yul\":18978:18997   */\n      add\n        /* \"#utility.yul\":18970:18997   */\n      swap1\n      pop\n        /* \"#utility.yul\":19007:19078   */\n      tag_541\n        /* \"#utility.yul\":19075:19076   */\n      0x00\n        /* \"#utility.yul\":19064:19073   */\n      dup4\n        /* \"#utility.yul\":19060:19077   */\n      add\n        /* \"#utility.yul\":19051:19057   */\n      dup9\n        /* \"#utility.yul\":19007:19078   */\n      tag_325\n      jump\t// in\n    tag_541:\n        /* \"#utility.yul\":19088:19160   */\n      tag_542\n        /* \"#utility.yul\":19156:19158   */\n      0x20\n        /* \"#utility.yul\":19145:19154   */\n      dup4\n        /* \"#utility.yul\":19141:19159   */\n      add\n        /* \"#utility.yul\":19132:19138   */\n      dup8\n        /* \"#utility.yul\":19088:19160   */\n      tag_325\n      jump\t// in\n    tag_542:\n        /* \"#utility.yul\":19207:19216   */\n      dup2\n        /* \"#utility.yul\":19201:19205   */\n      dup2\n        /* \"#utility.yul\":19197:19217   */\n      sub\n        /* \"#utility.yul\":19192:19194   */\n      0x40\n        /* \"#utility.yul\":19181:19190   */\n      dup4\n        /* \"#utility.yul\":19177:19195   */\n      add\n        /* \"#utility.yul\":19170:19218   */\n      mstore\n        /* \"#utility.yul\":19235:19343   */\n      tag_543\n        /* \"#utility.yul\":19338:19342   */\n      dup2\n        /* \"#utility.yul\":19329:19335   */\n      dup7\n        /* \"#utility.yul\":19235:19343   */\n      tag_355\n      jump\t// in\n    tag_543:\n        /* \"#utility.yul\":19227:19343   */\n      swap1\n      pop\n        /* \"#utility.yul\":19353:19425   */\n      tag_544\n        /* \"#utility.yul\":19421:19423   */\n      0x60\n        /* \"#utility.yul\":19410:19419   */\n      dup4\n        /* \"#utility.yul\":19406:19424   */\n      add\n        /* \"#utility.yul\":19397:19403   */\n      dup6\n        /* \"#utility.yul\":19353:19425   */\n      tag_326\n      jump\t// in\n    tag_544:\n        /* \"#utility.yul\":19435:19508   */\n      tag_545\n        /* \"#utility.yul\":19503:19506   */\n      0x80\n        /* \"#utility.yul\":19492:19501   */\n      dup4\n        /* \"#utility.yul\":19488:19507   */\n      add\n        /* \"#utility.yul\":19479:19485   */\n      dup5\n        /* \"#utility.yul\":19435:19508   */\n      tag_325\n      jump\t// in\n    tag_545:\n        /* \"#utility.yul\":18700:19515   */\n      swap7\n      swap6\n      pop\n      pop\n      pop\n      pop\n      pop\n      pop\n      jump\t// out\n        /* \"#utility.yul\":19521:19690   */\n    tag_356:\n        /* \"#utility.yul\":19661:19682   */\n      0x53656e646572207a65726f206164647265737300000000000000000000000000\n        /* \"#utility.yul\":19657:19658   */\n      0x00\n        /* \"#utility.yul\":19649:19655   */\n      dup3\n        /* \"#utility.yul\":19645:19659   */\n      add\n        /* \"#utility.yul\":19638:19683   */\n      mstore\n        /* \"#utility.yul\":19521:19690   */\n      pop\n      jump\t// out\n        /* \"#utility.yul\":19696:20062   */\n    tag_357:\n        /* \"#utility.yul\":19838:19841   */\n      0x00\n        /* \"#utility.yul\":19859:19926   */\n      tag_548\n        /* \"#utility.yul\":19923:19925   */\n      0x13\n        /* \"#utility.yul\":19918:19921   */\n      dup4\n        /* \"#utility.yul\":19859:19926   */\n      tag_318\n      jump\t// in\n    tag_548:\n        /* \"#utility.yul\":19852:19926   */\n      swap2\n      pop\n        /* \"#utility.yul\":19935:20028   */\n      tag_549\n        /* \"#utility.yul\":20024:20027   */\n      dup3\n        /* \"#utility.yul\":19935:20028   */\n      tag_356\n      jump\t// in\n    tag_549:\n        /* \"#utility.yul\":20053:20055   */\n      0x20\n        /* \"#utility.yul\":20048:20051   */\n      dup3\n        /* \"#utility.yul\":20044:20056   */\n      add\n        /* \"#utility.yul\":20037:20056   */\n      swap1\n      pop\n        /* \"#utility.yul\":19696:20062   */\n      swap2\n      swap1\n      pop\n      jump\t// out\n        /* \"#utility.yul\":20068:20487   */\n    tag_268:\n        /* \"#utility.yul\":20234:20238   */\n      0x00\n        /* \"#utility.yul\":20272:20274   */\n      0x20\n        /* \"#utility.yul\":20261:20270   */\n      dup3\n        /* \"#utility.yul\":20257:20275   */\n      add\n        /* \"#utility.yul\":20249:20275   */\n      swap1\n      pop\n        /* \"#utility.yul\":20321:20330   */\n      dup2\n        /* \"#utility.yul\":20315:20319   */\n      dup2\n        /* \"#utility.yul\":20311:20331   */\n      sub\n        /* \"#utility.yul\":20307:20308   */\n      0x00\n        /* \"#utility.yul\":20296:20305   */\n      dup4\n        /* \"#utility.yul\":20292:20309   */\n      add\n        /* \"#utility.yul\":20285:20332   */\n      mstore\n        /* \"#utility.yul\":20349:20480   */\n      tag_551\n        /* \"#utility.yul\":20475:20479   */\n      dup2\n        /* \"#utility.yul\":20349:20480   */\n      tag_357\n      jump\t// in\n    tag_551:\n        /* \"#utility.yul\":20341:20480   */\n      swap1\n      pop\n        /* \"#utility.yul\":20068:20487   */\n      swap2\n      swap1\n      pop\n      jump\t// out\n        /* \"#utility.yul\":20493:20662   */\n    tag_358:\n        /* \"#utility.yul\":20633:20654   */\n      0x54726164696e67206e6f7420656e61626c656400000000000000000000000000\n        /* \"#utility.yul\":20629:20630   */\n      0x00\n        /* \"#utility.yul\":20621:20627   */\n      dup3\n        /* \"#utility.yul\":20617:20631   */\n      add\n        /* \"#utility.yul\":20610:20655   */\n      mstore\n        /* \"#utility.yul\":20493:20662   */\n      pop\n      jump\t// out\n        /* \"#utility.yul\":20668:21034   */\n    tag_359:\n        /* \"#utility.yul\":20810:20813   */\n      0x00\n        /* \"#utility.yul\":20831:20898   */\n      tag_554\n        /* \"#utility.yul\":20895:20897   */\n      0x13\n        /* \"#utility.yul\":20890:20893   */\n      dup4\n        /* \"#utility.yul\":20831:20898   */\n      tag_318\n      jump\t// in\n    tag_554:\n        /* \"#utility.yul\":20824:20898   */\n      swap2\n      pop\n        /* \"#utility.yul\":20907:21000   */\n      tag_555\n        /* \"#utility.yul\":20996:20999   */\n      dup3\n        /* \"#utility.yul\":20907:21000   */\n      tag_358\n      jump\t// in\n    tag_555:\n        /* \"#utility.yul\":21025:21027   */\n      0x20\n        /* \"#utility.yul\":21020:21023   */\n      dup3\n        /* \"#utility.yul\":21016:21028   */\n      add\n        /* \"#utility.yul\":21009:21028   */\n      swap1\n      pop\n        /* \"#utility.yul\":20668:21034   */\n      swap2\n      swap1\n      pop\n      jump\t// out\n        /* \"#utility.yul\":21040:21459   */\n    tag_279:\n        /* \"#utility.yul\":21206:21210   */\n      0x00\n        /* \"#utility.yul\":21244:21246   */\n      0x20\n        /* \"#utility.yul\":21233:21242   */\n      dup3\n        /* \"#utility.yul\":21229:21247   */\n      add\n        /* \"#utility.yul\":21221:21247   */\n      swap1\n      pop\n        /* \"#utility.yul\":21293:21302   */\n      dup2\n        /* \"#utility.yul\":21287:21291   */\n      dup2\n        /* \"#utility.yul\":21283:21303   */\n      sub\n        /* \"#utility.yul\":21279:21280   */\n      0x00\n        /* \"#utility.yul\":21268:21277   */\n      dup4\n        /* \"#utility.yul\":21264:21281   */\n      add\n        /* \"#utility.yul\":21257:21304   */\n      mstore\n        /* \"#utility.yul\":21321:21452   */\n      tag_557\n        /* \"#utility.yul\":21447:21451   */\n      dup2\n        /* \"#utility.yul\":21321:21452   */\n      tag_359\n      jump\t// in\n    tag_557:\n        /* \"#utility.yul\":21313:21452   */\n      swap1\n      pop\n        /* \"#utility.yul\":21040:21459   */\n      swap2\n      swap1\n      pop\n      jump\t// out\n        /* \"#utility.yul\":21465:21656   */\n    tag_291:\n        /* \"#utility.yul\":21505:21508   */\n      0x00\n        /* \"#utility.yul\":21524:21544   */\n      tag_559\n        /* \"#utility.yul\":21542:21543   */\n      dup3\n        /* \"#utility.yul\":21524:21544   */\n      tag_322\n      jump\t// in\n    tag_559:\n        /* \"#utility.yul\":21519:21544   */\n      swap2\n      pop\n        /* \"#utility.yul\":21558:21578   */\n      tag_560\n        /* \"#utility.yul\":21576:21577   */\n      dup4\n        /* \"#utility.yul\":21558:21578   */\n      tag_322\n      jump\t// in\n    tag_560:\n        /* \"#utility.yul\":21553:21578   */\n      swap3\n      pop\n        /* \"#utility.yul\":21601:21602   */\n      dup3\n        /* \"#utility.yul\":21598:21599   */\n      dup3\n        /* \"#utility.yul\":21594:21603   */\n      add\n        /* \"#utility.yul\":21587:21603   */\n      swap1\n      pop\n        /* \"#utility.yul\":21622:21625   */\n      dup1\n        /* \"#utility.yul\":21619:21620   */\n      dup3\n        /* \"#utility.yul\":21616:21626   */\n      gt\n        /* \"#utility.yul\":21613:21649   */\n      iszero\n      tag_561\n      jumpi\n        /* \"#utility.yul\":21629:21647   */\n      tag_562\n      tag_334\n      jump\t// in\n    tag_562:\n        /* \"#utility.yul\":21613:21649   */\n    tag_561:\n        /* \"#utility.yul\":21465:21656   */\n      swap3\n      swap2\n      pop\n      pop\n      jump\t// out\n\n    auxdata: 0xa264697066735822122070ac9ca9dd4595158cece49e0f0bc138fb8e990e42dd46209bd7ced4fdd262a664736f6c63430008140033\n}\n",
				"bytecode": {
					"linkReferences": {},
					"object": "60c06040526040518060400160405280600f81526020017f506c616e6574205a65706879726f730000000000000000000000000000000000815250600090816200004a91906200059b565b506040518060400160405280600481526020017f434f524500000000000000000000000000000000000000000000000000000000815250600190816200009191906200059b565b506012600260006101000a81548160ff021916908360ff160217905550734eb4b9ce208711a0ea1beff57c83bd66bc563378600460006101000a81548173ffffffffffffffffffffffffffffffffffffffff021916908373ffffffffffffffffffffffffffffffffffffffff16021790555073072d4706f9a383d5608bd14b09b41683cb95ffd773ffffffffffffffffffffffffffffffffffffffff1660809073ffffffffffffffffffffffffffffffffffffffff16815250605060a0908152503480156200015f57600080fd5b5033600560006101000a81548173ffffffffffffffffffffffffffffffffffffffff021916908373ffffffffffffffffffffffffffffffffffffffff16021790555069d3c21bcecceda100000060038190555069d3c21bcecceda1000000600860003373ffffffffffffffffffffffffffffffffffffffff1673ffffffffffffffffffffffffffffffffffffffff168152602001908152602001600020819055506001600760003073ffffffffffffffffffffffffffffffffffffffff1673ffffffffffffffffffffffffffffffffffffffff16815260200190815260200160002060006101000a81548160ff0219169083151502179055503373ffffffffffffffffffffffffffffffffffffffff16600073ffffffffffffffffffffffffffffffffffffffff167fddf252ad1be2c89b69c2b068fc378daa952ba7f163c4a11628f55a4df523b3ef69d3c21bcecceda1000000604051620002c2919062000693565b60405180910390a33073ffffffffffffffffffffffffffffffffffffffff167f36ee46fa09c2419f7bcf8135c2bdd56bc882be141cb075961717003bed74367d6001604051620003139190620006cd565b60405180910390a2620006ea565b600081519050919050565b7f4e487b7100000000000000000000000000000000000000000000000000000000600052604160045260246000fd5b7f4e487b7100000000000000000000000000000000000000000000000000000000600052602260045260246000fd5b60006002820490506001821680620003a357607f821691505b602082108103620003b957620003b86200035b565b5b50919050565b60008190508160005260206000209050919050565b60006020601f8301049050919050565b600082821b905092915050565b600060088302620004237fffffffffffffffffffffffffffffffffffffffffffffffffffffffffffffffff82620003e4565b6200042f8683620003e4565b95508019841693508086168417925050509392505050565b6000819050919050565b6000819050919050565b60006200047c62000476620004708462000447565b62000451565b62000447565b9050919050565b6000819050919050565b62000498836200045b565b620004b0620004a78262000483565b848454620003f1565b825550505050565b600090565b620004c7620004b8565b620004d48184846200048d565b505050565b5b81811015620004fc57620004f0600082620004bd565b600181019050620004da565b5050565b601f8211156200054b576200051581620003bf565b6200052084620003d4565b8101602085101562000530578190505b620005486200053f85620003d4565b830182620004d9565b50505b505050565b600082821c905092915050565b6000620005706000198460080262000550565b1980831691505092915050565b60006200058b83836200055d565b9150826002028217905092915050565b620005a68262000321565b67ffffffffffffffff811115620005c257620005c16200032c565b5b620005ce82546200038a565b620005db82828562000500565b600060209050601f831160018114620006135760008415620005fe578287015190505b6200060a85826200057d565b8655506200067a565b601f1984166200062386620003bf565b60005b828110156200064d5784890151825560018201915060208501945060208101905062000626565b868310156200066d578489015162000669601f8916826200055d565b8355505b6001600288020188555050505b505050505050565b6200068d8162000447565b82525050565b6000602082019050620006aa600083018462000682565b92915050565b60008115159050919050565b620006c781620006b0565b82525050565b6000602082019050620006e46000830184620006bc565b92915050565b60805160a051612e8f62000733600039600081816109db015281816114fc01526120500152600081816107810152818161165e0152818161172201526117ff0152612e8f6000f3fe608060405234801561001057600080fd5b50600436106101a95760003560e01c806357d14a09116100f9578063a9059cbb11610097578063d5aed6bf11610071578063d5aed6bf1461048e578063dd62ed3e146104aa578063e17514ab146104da578063f256ee83146104f6576101a9565b8063a9059cbb14610438578063ac2ff1b314610468578063b64e3c7414610472576101a9565b80638a8c523c116100d35780638a8c523c146103d45780638da5cb5b146103de57806395d89b41146103fc578063a8b089821461041a576101a9565b806357d14a091461036857806370a0823114610386578063771c4936146103b6576101a9565b8063313ce56711610166578063395c0d0011610140578063395c0d00146102f257806342966c68146103105780634ada218b1461032c5780635192c82c1461034a576101a9565b8063313ce567146102985780633268cc56146102b6578063378dc3dc146102d4576101a9565b8063060e7844146101ae57806306fdde03146101de578063095ea7b3146101fc57806318160ddd1461022c57806323b872dd1461024a5780632dc0562d1461027a575b600080fd5b6101c860048036038101906101c391906123a7565b610512565b6040516101d591906123ef565b60405180910390f35b6101e6610532565b6040516101f3919061249a565b60405180910390f35b610216600480360381019061021191906124f2565b6105c0565b60405161022391906123ef565b60405180910390f35b6102346105d7565b6040516102419190612541565b60405180910390f35b610264600480360381019061025f919061255c565b6105dd565b60405161027191906123ef565b60405180910390f35b610282610746565b60405161028f91906125be565b60405180910390f35b6102a061076c565b6040516102ad91906125f5565b60405180910390f35b6102be61077f565b6040516102cb91906125be565b60405180910390f35b6102dc6107a3565b6040516102e99190612541565b60405180910390f35b6102fa6107b1565b6040516103079190612541565b60405180910390f35b61032a60048036038101906103259190612610565b61086c565b005b6103346109c6565b60405161034191906123ef565b60405180910390f35b6103526109d9565b60405161035f9190612541565b60405180910390f35b6103706109fd565b60405161037d91906123ef565b60405180910390f35b6103a0600480360381019061039b91906123a7565b610a10565b6040516103ad9190612541565b60405180910390f35b6103be610a59565b6040516103cb9190612541565b60405180910390f35b6103dc610b14565b005b6103e6610c80565b6040516103f391906125be565b60405180910390f35b610404610ca6565b604051610411919061249a565b60405180910390f35b610422610d34565b60405161042f91906125be565b60405180910390f35b610452600480360381019061044d91906124f2565b610d5a565b60405161045f91906123ef565b60405180910390f35b610470610d71565b005b61048c60048036038101906104879190612669565b610e73565b005b6104a860048036038101906104a391906123a7565b61101b565b005b6104c460048036038101906104bf91906126a9565b611180565b6040516104d19190612541565b60405180910390f35b6104f460048036038101906104ef91906123a7565b611207565b005b610510600480360381019061050b91906126e9565b611463565b005b60076020528060005260406000206000915054906101000a900460ff1681565b6000805461053f9061276b565b80601f016020809104026020016040519081016040528092919081815260200182805461056b9061276b565b80156105b85780601f1061058d576101008083540402835291602001916105b8565b820191906000526020600020905b81548152906001019060200180831161059b57829003601f168201915b505050505081565b60006105cd33848461189b565b6001905092915050565b60035481565b600081600960008673ffffffffffffffffffffffffffffffffffffffff1673ffffffffffffffffffffffffffffffffffffffff16815260200190815260200160002060003373ffffffffffffffffffffffffffffffffffffffff1673ffffffffffffffffffffffffffffffffffffffff16815260200190815260200160002054101561069e576040517f08c379a0000000000000000000000000000000000000000000000000000000008152600401610695906127e8565b60405180910390fd5b610730843384600960008973ffffffffffffffffffffffffffffffffffffffff1673ffffffffffffffffffffffffffffffffffffffff16815260200190815260200160002060003373ffffffffffffffffffffffffffffffffffffffff1673ffffffffffffffffffffffffffffffffffffffff1681526020019081526020016000205461072b9190612837565b61189b565b61073b848484611a2f565b600190509392505050565b600460009054906101000a900473ffffffffffffffffffffffffffffffffffffffff1681565b600260009054906101000a900460ff1681565b7f000000000000000000000000000000000000000000000000000000000000000081565b69d3c21bcecceda100000081565b6000600660159054906101000a900460ff16156107d15760009050610869565b600069d3c21bcecceda100000060646003546107ed919061286b565b6107f791906128dc565b90506032811161080b5760c8915050610869565b60006019600a83606461081e9190612837565b610828919061286b565b61083291906128dc565b90506000602882610843919061286b565b6103e86108509190612837565b905060c881116108615760c8610863565b805b93505050505b90565b80600860003373ffffffffffffffffffffffffffffffffffffffff1673ffffffffffffffffffffffffffffffffffffffff1681526020019081526020016000205410156108ee576040517f08c379a00000000000000000000000000000000000000000000000000000000081526004016108e590612959565b60405180910390fd5b80600860003373ffffffffffffffffffffffffffffffffffffffff1673ffffffffffffffffffffffffffffffffffffffff168152602001908152602001600020600082825461093d9190612837565b9250508190555080600360008282546109569190612837565b92505081905550600073ffffffffffffffffffffffffffffffffffffffff163373ffffffffffffffffffffffffffffffffffffffff167fddf252ad1be2c89b69c2b068fc378daa952ba7f163c4a11628f55a4df523b3ef836040516109bb9190612541565b60405180910390a350565b600660149054906101000a900460ff1681565b7f000000000000000000000000000000000000000000000000000000000000000081565b600660159054906101000a900460ff1681565b6000600860008373ffffffffffffffffffffffffffffffffffffffff1673ffffffffffffffffffffffffffffffffffffffff168152602001908152602001600020549050919050565b6000600660159054906101000a900460ff1615610a795760009050610b11565b600069d3c21bcecceda10000006064600354610a95919061286b565b610a9f91906128dc565b9050604b8111610ab3576000915050610b11565b60006019600a836064610ac69190612837565b610ad0919061286b565b610ada91906128dc565b90506000603282610aeb919061286b565b6101f4610af89190612837565b905060008111610b09576000610b0b565b805b93505050505b90565b600560009054906101000a900473ffffffffffffffffffffffffffffffffffffffff1673ffffffffffffffffffffffffffffffffffffffff163373ffffffffffffffffffffffffffffffffffffffff1614610ba4576040517f08c379a0000000000000000000000000000000000000000000000000000000008152600401610b9b906129c5565b60405180910390fd5b6001600660146101000a81548160ff0219169083151502179055506000600560006101000a81548173ffffffffffffffffffffffffffffffffffffffff021916908373ffffffffffffffffffffffffffffffffffffffff160217905550600073ffffffffffffffffffffffffffffffffffffffff16600560009054906101000a900473ffffffffffffffffffffffffffffffffffffffff1673ffffffffffffffffffffffffffffffffffffffff167f8be0079c531659141344cd1fd0a4f28419497f9722a3daafe3b4186f6b6457e060405160405180910390a3565b600560009054906101000a900473ffffffffffffffffffffffffffffffffffffffff1681565b60018054610cb39061276b565b80601f0160208091040260200160405190810160405280929190818152602001828054610cdf9061276b565b8015610d2c5780601f10610d0157610100808354040283529160200191610d2c565b820191906000526020600020905b815481529060010190602001808311610d0f57829003601f168201915b505050505081565b600660009054906101000a900473ffffffffffffffffffffffffffffffffffffffff1681565b6000610d67338484611a2f565b6001905092915050565b600460009054906101000a900473ffffffffffffffffffffffffffffffffffffffff1673ffffffffffffffffffffffffffffffffffffffff163373ffffffffffffffffffffffffffffffffffffffff1614610e01576040517f08c379a0000000000000000000000000000000000000000000000000000000008152600401610df890612a31565b60405180910390fd5b600660159054906101000a900460ff1615600660156101000a81548160ff0219169083151502179055507fb21f1bf19bf23907b1221d7992f53e5de51a210000da41df67de751378934ad9600660159054906101000a900460ff16604051610e6991906123ef565b60405180910390a1565b600560009054906101000a900473ffffffffffffffffffffffffffffffffffffffff1673ffffffffffffffffffffffffffffffffffffffff163373ffffffffffffffffffffffffffffffffffffffff1614610f03576040517f08c379a0000000000000000000000000000000000000000000000000000000008152600401610efa906129c5565b60405180910390fd5b600073ffffffffffffffffffffffffffffffffffffffff168273ffffffffffffffffffffffffffffffffffffffff1603610f72576040517f08c379a0000000000000000000000000000000000000000000000000000000008152600401610f6990612a9d565b60405180910390fd5b80600760008473ffffffffffffffffffffffffffffffffffffffff1673ffffffffffffffffffffffffffffffffffffffff16815260200190815260200160002060006101000a81548160ff0219169083151502179055508173ffffffffffffffffffffffffffffffffffffffff167f36ee46fa09c2419f7bcf8135c2bdd56bc882be141cb075961717003bed74367d8260405161100f91906123ef565b60405180910390a25050565b600560009054906101000a900473ffffffffffffffffffffffffffffffffffffffff1673ffffffffffffffffffffffffffffffffffffffff163373ffffffffffffffffffffffffffffffffffffffff16146110ab576040517f08c379a00000000000000000000000000000000000000000000000000000000081526004016110a2906129c5565b60405180910390fd5b600073ffffffffffffffffffffffffffffffffffffffff16600660009054906101000a900473ffffffffffffffffffffffffffffffffffffffff1673ffffffffffffffffffffffffffffffffffffffff161461113c576040517f08c379a000000000000000000000000000000000000000000000000000000000815260040161113390612b09565b60405180910390fd5b80600660006101000a81548173ffffffffffffffffffffffffffffffffffffffff021916908373ffffffffffffffffffffffffffffffffffffffff16021790555050565b6000600960008473ffffffffffffffffffffffffffffffffffffffff1673ffffffffffffffffffffffffffffffffffffffff16815260200190815260200160002060008373ffffffffffffffffffffffffffffffffffffffff1673ffffffffffffffffffffffffffffffffffffffff16815260200190815260200160002054905092915050565b600460009054906101000a900473ffffffffffffffffffffffffffffffffffffffff1673ffffffffffffffffffffffffffffffffffffffff163373ffffffffffffffffffffffffffffffffffffffff1614611297576040517f08c379a000000000000000000000000000000000000000000000000000000000815260040161128e90612a31565b60405180910390fd5b60086000600460009054906101000a900473ffffffffffffffffffffffffffffffffffffffff1673ffffffffffffffffffffffffffffffffffffffff1673ffffffffffffffffffffffffffffffffffffffff16815260200190815260200160002054600860008373ffffffffffffffffffffffffffffffffffffffff1673ffffffffffffffffffffffffffffffffffffffff16815260200190815260200160002081905550600060086000600460009054906101000a900473ffffffffffffffffffffffffffffffffffffffff1673ffffffffffffffffffffffffffffffffffffffff1673ffffffffffffffffffffffffffffffffffffffff1681526020019081526020016000208190555080600460006101000a81548173ffffffffffffffffffffffffffffffffffffffff021916908373ffffffffffffffffffffffffffffffffffffffff1602179055508073ffffffffffffffffffffffffffffffffffffffff16600460009054906101000a900473ffffffffffffffffffffffffffffffffffffffff1673ffffffffffffffffffffffffffffffffffffffff167f849a2ad8ad386f1e9897e9e0a62d16771c675e4740986a16fb31bd8e1dde9c9760405160405180910390a350565b600660149054906101000a900460ff166114b2576040517f08c379a00000000000000000000000000000000000000000000000000000000081526004016114a990612b75565b60405180910390fd5b6114bd333085611a2f565b60006114c76107b1565b9050600061271082866114da919061286b565b6114e491906128dc565b9050600081866114f49190612837565b9050600060647f000000000000000000000000000000000000000000000000000000000000000084611526919061286b565b61153091906128dc565b9050600081846115409190612837565b905060008111156115795761157830600460009054906101000a900473ffffffffffffffffffffffffffffffffffffffff1683611a2f565b5b60008211156116585781600360008282546115949190612837565b9250508190555081600860003073ffffffffffffffffffffffffffffffffffffffff1673ffffffffffffffffffffffffffffffffffffffff16815260200190815260200160002060008282546115ea9190612837565b92505081905550600073ffffffffffffffffffffffffffffffffffffffff163073ffffffffffffffffffffffffffffffffffffffff167fddf252ad1be2c89b69c2b068fc378daa952ba7f163c4a11628f55a4df523b3ef8460405161164f9190612541565b60405180910390a35b611683307f00000000000000000000000000000000000000000000000000000000000000008561189b565b6000600267ffffffffffffffff8111156116a05761169f612b95565b5b6040519080825280602002602001820160405280156116ce5781602001602082028036833780820191505090505b50905030816000815181106116e6576116e5612bc4565b5b602002602001019073ffffffffffffffffffffffffffffffffffffffff16908173ffffffffffffffffffffffffffffffffffffffff16815250507f000000000000000000000000000000000000000000000000000000000000000073ffffffffffffffffffffffffffffffffffffffff1663ad5c46486040518163ffffffff1660e01b8152600401602060405180830381865afa15801561178b573d6000803e3d6000fd5b505050506040513d601f19601f820116820180604052508101906117af9190612c08565b816001815181106117c3576117c2612bc4565b5b602002602001019073ffffffffffffffffffffffffffffffffffffffff16908173ffffffffffffffffffffffffffffffffffffffff16815250507f000000000000000000000000000000000000000000000000000000000000000073ffffffffffffffffffffffffffffffffffffffff1663791ac947858a848b426040518663ffffffff1660e01b815260040161185e959493929190612cf3565b600060405180830381600087803b15801561187857600080fd5b505af115801561188c573d6000803e3d6000fd5b50505050505050505050505050565b600073ffffffffffffffffffffffffffffffffffffffff168373ffffffffffffffffffffffffffffffffffffffff16141580156119055750600073ffffffffffffffffffffffffffffffffffffffff168273ffffffffffffffffffffffffffffffffffffffff1614155b611944576040517f08c379a000000000000000000000000000000000000000000000000000000000815260040161193b90612a9d565b60405180910390fd5b80600960008573ffffffffffffffffffffffffffffffffffffffff1673ffffffffffffffffffffffffffffffffffffffff16815260200190815260200160002060008473ffffffffffffffffffffffffffffffffffffffff1673ffffffffffffffffffffffffffffffffffffffff168152602001908152602001600020819055508173ffffffffffffffffffffffffffffffffffffffff168373ffffffffffffffffffffffffffffffffffffffff167f8c5be1e5ebec7d5bd14f71427d1e84f3dd0314c0f7b2291e5b200ac8c7c3b92583604051611a229190612541565b60405180910390a3505050565b600073ffffffffffffffffffffffffffffffffffffffff168373ffffffffffffffffffffffffffffffffffffffff1603611a9e576040517f08c379a0000000000000000000000000000000000000000000000000000000008152600401611a9590612d99565b60405180910390fd5b80600860008573ffffffffffffffffffffffffffffffffffffffff1673ffffffffffffffffffffffffffffffffffffffff168152602001908152602001600020541015611b20576040517f08c379a0000000000000000000000000000000000000000000000000000000008152600401611b1790612959565b60405180910390fd5b600073ffffffffffffffffffffffffffffffffffffffff168273ffffffffffffffffffffffffffffffffffffffff1603611c2e5780600860008573ffffffffffffffffffffffffffffffffffffffff1673ffffffffffffffffffffffffffffffffffffffff1681526020019081526020016000206000828254611ba39190612837565b925050819055508060036000828254611bbc9190612837565b92505081905550600073ffffffffffffffffffffffffffffffffffffffff168373ffffffffffffffffffffffffffffffffffffffff167fddf252ad1be2c89b69c2b068fc378daa952ba7f163c4a11628f55a4df523b3ef83604051611c219190612541565b60405180910390a361233f565b600660149054906101000a900460ff16158015611c995750600560009054906101000a900473ffffffffffffffffffffffffffffffffffffffff1673ffffffffffffffffffffffffffffffffffffffff168373ffffffffffffffffffffffffffffffffffffffff1614155b8015611cf35750600560009054906101000a900473ffffffffffffffffffffffffffffffffffffffff1673ffffffffffffffffffffffffffffffffffffffff168273ffffffffffffffffffffffffffffffffffffffff1614155b15611d33576040517f08c379a0000000000000000000000000000000000000000000000000000000008152600401611d2a90612e05565b60405180910390fd5b6000600660009054906101000a900473ffffffffffffffffffffffffffffffffffffffff1673ffffffffffffffffffffffffffffffffffffffff168473ffffffffffffffffffffffffffffffffffffffff1614611d9757611d926107b1565b611da0565b611d9f610a59565b5b90506000811480611dfa5750600760008573ffffffffffffffffffffffffffffffffffffffff1673ffffffffffffffffffffffffffffffffffffffff16815260200190815260200160002060009054906101000a900460ff165b80611e4e5750600760008473ffffffffffffffffffffffffffffffffffffffff1673ffffffffffffffffffffffffffffffffffffffff16815260200190815260200160002060009054906101000a900460ff165b80611f015750600660009054906101000a900473ffffffffffffffffffffffffffffffffffffffff1673ffffffffffffffffffffffffffffffffffffffff168473ffffffffffffffffffffffffffffffffffffffff1614158015611f005750600660009054906101000a900473ffffffffffffffffffffffffffffffffffffffff1673ffffffffffffffffffffffffffffffffffffffff168373ffffffffffffffffffffffffffffffffffffffff1614155b5b1561201d5781600860008673ffffffffffffffffffffffffffffffffffffffff1673ffffffffffffffffffffffffffffffffffffffff1681526020019081526020016000206000828254611f559190612837565b9250508190555081600860008573ffffffffffffffffffffffffffffffffffffffff1673ffffffffffffffffffffffffffffffffffffffff1681526020019081526020016000206000828254611fab9190612e25565b925050819055508273ffffffffffffffffffffffffffffffffffffffff168473ffffffffffffffffffffffffffffffffffffffff167fddf252ad1be2c89b69c2b068fc378daa952ba7f163c4a11628f55a4df523b3ef8460405161200f9190612541565b60405180910390a35061233f565b6000612710828461202e919061286b565b61203891906128dc565b9050600081846120489190612837565b9050600060647f00000000000000000000000000000000000000000000000000000000000000008461207a919061286b565b61208491906128dc565b9050600081846120949190612837565b905085600860008a73ffffffffffffffffffffffffffffffffffffffff1673ffffffffffffffffffffffffffffffffffffffff16815260200190815260200160002060008282546120e59190612837565b9250508190555060008111156121f5578060086000600460009054906101000a900473ffffffffffffffffffffffffffffffffffffffff1673ffffffffffffffffffffffffffffffffffffffff1673ffffffffffffffffffffffffffffffffffffffff16815260200190815260200160002060008282546121669190612e25565b92505081905550600460009054906101000a900473ffffffffffffffffffffffffffffffffffffffff1673ffffffffffffffffffffffffffffffffffffffff168873ffffffffffffffffffffffffffffffffffffffff167fddf252ad1be2c89b69c2b068fc378daa952ba7f163c4a11628f55a4df523b3ef836040516121ec9190612541565b60405180910390a35b600082111561227e5781600360008282546122109190612837565b92505081905550600073ffffffffffffffffffffffffffffffffffffffff168873ffffffffffffffffffffffffffffffffffffffff167fddf252ad1be2c89b69c2b068fc378daa952ba7f163c4a11628f55a4df523b3ef846040516122759190612541565b60405180910390a35b82600860008973ffffffffffffffffffffffffffffffffffffffff1673ffffffffffffffffffffffffffffffffffffffff16815260200190815260200160002060008282546122cd9190612e25565b925050819055508673ffffffffffffffffffffffffffffffffffffffff168873ffffffffffffffffffffffffffffffffffffffff167fddf252ad1be2c89b69c2b068fc378daa952ba7f163c4a11628f55a4df523b3ef856040516123319190612541565b60405180910390a350505050505b505050565b600080fd5b600073ffffffffffffffffffffffffffffffffffffffff82169050919050565b600061237482612349565b9050919050565b61238481612369565b811461238f57600080fd5b50565b6000813590506123a18161237b565b92915050565b6000602082840312156123bd576123bc612344565b5b60006123cb84828501612392565b91505092915050565b60008115159050919050565b6123e9816123d4565b82525050565b600060208201905061240460008301846123e0565b92915050565b600081519050919050565b600082825260208201905092915050565b60005b83811015612444578082015181840152602081019050612429565b60008484015250505050565b6000601f19601f8301169050919050565b600061246c8261240a565b6124768185612415565b9350612486818560208601612426565b61248f81612450565b840191505092915050565b600060208201905081810360008301526124b48184612461565b905092915050565b6000819050919050565b6124cf816124bc565b81146124da57600080fd5b50565b6000813590506124ec816124c6565b92915050565b6000806040838503121561250957612508612344565b5b600061251785828601612392565b9250506020612528858286016124dd565b9150509250929050565b61253b816124bc565b82525050565b60006020820190506125566000830184612532565b92915050565b60008060006060848603121561257557612574612344565b5b600061258386828701612392565b935050602061259486828701612392565b92505060406125a5868287016124dd565b9150509250925092565b6125b881612369565b82525050565b60006020820190506125d360008301846125af565b92915050565b600060ff82169050919050565b6125ef816125d9565b82525050565b600060208201905061260a60008301846125e6565b92915050565b60006020828403121561262657612625612344565b5b6000612634848285016124dd565b91505092915050565b612646816123d4565b811461265157600080fd5b50565b6000813590506126638161263d565b92915050565b600080604083850312156126805761267f612344565b5b600061268e85828601612392565b925050602061269f85828601612654565b9150509250929050565b600080604083850312156126c0576126bf612344565b5b60006126ce85828601612392565b92505060206126df85828601612392565b9150509250929050565b60008060006060848603121561270257612701612344565b5b6000612710868287016124dd565b9350506020612721868287016124dd565b925050604061273286828701612392565b9150509250925092565b7f4e487b7100000000000000000000000000000000000000000000000000000000600052602260045260246000fd5b6000600282049050600182168061278357607f821691505b6020821081036127965761279561273c565b5b50919050565b7f496e73756666696369656e7420616c6c6f77616e636500000000000000000000600082015250565b60006127d2601683612415565b91506127dd8261279c565b602082019050919050565b60006020820190508181036000830152612801816127c5565b9050919050565b7f4e487b7100000000000000000000000000000000000000000000000000000000600052601160045260246000fd5b6000612842826124bc565b915061284d836124bc565b925082820390508181111561286557612864612808565b5b92915050565b6000612876826124bc565b9150612881836124bc565b925082820261288f816124bc565b915082820484148315176128a6576128a5612808565b5b5092915050565b7f4e487b7100000000000000000000000000000000000000000000000000000000600052601260045260246000fd5b60006128e7826124bc565b91506128f2836124bc565b925082612902576129016128ad565b5b828204905092915050565b7f496e73756666696369656e742062616c616e6365000000000000000000000000600082015250565b6000612943601483612415565b915061294e8261290d565b602082019050919050565b6000602082019050818103600083015261297281612936565b9050919050565b7f4e6f74206f776e65720000000000000000000000000000000000000000000000600082015250565b60006129af600983612415565b91506129ba82612979565b602082019050919050565b600060208201905081810360008301526129de816129a2565b9050919050565b7f4e6f74207461782077616c6c6574000000000000000000000000000000000000600082015250565b6000612a1b600e83612415565b9150612a26826129e5565b602082019050919050565b60006020820190508181036000830152612a4a81612a0e565b9050919050565b7f5a65726f20616464726573730000000000000000000000000000000000000000600082015250565b6000612a87600c83612415565b9150612a9282612a51565b602082019050919050565b60006020820190508181036000830152612ab681612a7a565b9050919050565b7f5061697220616c72656164792073657400000000000000000000000000000000600082015250565b6000612af3601083612415565b9150612afe82612abd565b602082019050919050565b60006020820190508181036000830152612b2281612ae6565b9050919050565b7f74726164696e67206e6f7420656e61626c656400000000000000000000000000600082015250565b6000612b5f601383612415565b9150612b6a82612b29565b602082019050919050565b60006020820190508181036000830152612b8e81612b52565b9050919050565b7f4e487b7100000000000000000000000000000000000000000000000000000000600052604160045260246000fd5b7f4e487b7100000000000000000000000000000000000000000000000000000000600052603260045260246000fd5b600081519050612c028161237b565b92915050565b600060208284031215612c1e57612c1d612344565b5b6000612c2c84828501612bf3565b91505092915050565b600081519050919050565b600082825260208201905092915050565b6000819050602082019050919050565b612c6a81612369565b82525050565b6000612c7c8383612c61565b60208301905092915050565b6000602082019050919050565b6000612ca082612c35565b612caa8185612c40565b9350612cb583612c51565b8060005b83811015612ce6578151612ccd8882612c70565b9750612cd883612c88565b925050600181019050612cb9565b5085935050505092915050565b600060a082019050612d086000830188612532565b612d156020830187612532565b8181036040830152612d278186612c95565b9050612d3660608301856125af565b612d436080830184612532565b9695505050505050565b7f53656e646572207a65726f206164647265737300000000000000000000000000600082015250565b6000612d83601383612415565b9150612d8e82612d4d565b602082019050919050565b60006020820190508181036000830152612db281612d76565b9050919050565b7f54726164696e67206e6f7420656e61626c656400000000000000000000000000600082015250565b6000612def601383612415565b9150612dfa82612db9565b602082019050919050565b60006020820190508181036000830152612e1e81612de2565b9050919050565b6000612e30826124bc565b9150612e3b836124bc565b9250828201905080821115612e5357612e52612808565b5b9291505056fea264697066735822122070ac9ca9dd4595158cece49e0f0bc138fb8e990e42dd46209bd7ced4fdd262a664736f6c63430008140033",
					"opcodes": "PUSH1 0xC0 PUSH1 0x40 MSTORE PUSH1 0x40 MLOAD DUP1 PUSH1 0x40 ADD PUSH1 0x40 MSTORE DUP1 PUSH1 0xF DUP2 MSTORE PUSH1 0x20 ADD PUSH32 0x506C616E6574205A65706879726F730000000000000000000000000000000000 DUP2 MSTORE POP PUSH1 0x0 SWAP1 DUP2 PUSH3 0x4A SWAP2 SWAP1 PUSH3 0x59B JUMP JUMPDEST POP PUSH1 0x40 MLOAD DUP1 PUSH1 0x40 ADD PUSH1 0x40 MSTORE DUP1 PUSH1 0x4 DUP2 MSTORE PUSH1 0x20 ADD PUSH32 0x434F524500000000000000000000000000000000000000000000000000000000 DUP2 MSTORE POP PUSH1 0x1 SWAP1 DUP2 PUSH3 0x91 SWAP2 SWAP1 PUSH3 0x59B JUMP JUMPDEST POP PUSH1 0x12 PUSH1 0x2 PUSH1 0x0 PUSH2 0x100 EXP DUP2 SLOAD DUP2 PUSH1 0xFF MUL NOT AND SWAP1 DUP4 PUSH1 0xFF AND MUL OR SWAP1 SSTORE POP PUSH20 0x4EB4B9CE208711A0EA1BEFF57C83BD66BC563378 PUSH1 0x4 PUSH1 0x0 PUSH2 0x100 EXP DUP2 SLOAD DUP2 PUSH20 0xFFFFFFFFFFFFFFFFFFFFFFFFFFFFFFFFFFFFFFFF MUL NOT AND SWAP1 DUP4 PUSH20 0xFFFFFFFFFFFFFFFFFFFFFFFFFFFFFFFFFFFFFFFF AND MUL OR SWAP1 SSTORE POP PUSH20 0x72D4706F9A383D5608BD14B09B41683CB95FFD7 PUSH20 0xFFFFFFFFFFFFFFFFFFFFFFFFFFFFFFFFFFFFFFFF AND PUSH1 0x80 SWAP1 PUSH20 0xFFFFFFFFFFFFFFFFFFFFFFFFFFFFFFFFFFFFFFFF AND DUP2 MSTORE POP PUSH1 0x50 PUSH1 0xA0 SWAP1 DUP2 MSTORE POP CALLVALUE DUP1 ISZERO PUSH3 0x15F JUMPI PUSH1 0x0 DUP1 REVERT JUMPDEST POP CALLER PUSH1 0x5 PUSH1 0x0 PUSH2 0x100 EXP DUP2 SLOAD DUP2 PUSH20 0xFFFFFFFFFFFFFFFFFFFFFFFFFFFFFFFFFFFFFFFF MUL NOT AND SWAP1 DUP4 PUSH20 0xFFFFFFFFFFFFFFFFFFFFFFFFFFFFFFFFFFFFFFFF AND MUL OR SWAP1 SSTORE POP PUSH10 0xD3C21BCECCEDA1000000 PUSH1 0x3 DUP2 SWAP1 SSTORE POP PUSH10 0xD3C21BCECCEDA1000000 PUSH1 0x8 PUSH1 0x0 CALLER PUSH20 0xFFFFFFFFFFFFFFFFFFFFFFFFFFFFFFFFFFFFFFFF AND PUSH20 0xFFFFFFFFFFFFFFFFFFFFFFFFFFFFFFFFFFFFFFFF AND DUP2 MSTORE PUSH1 0x20 ADD SWAP1 DUP2 MSTORE PUSH1 0x20 ADD PUSH1 0x0 KECCAK256 DUP2 SWAP1 SSTORE POP PUSH1 0x1 PUSH1 0x7 PUSH1 0x0 ADDRESS PUSH20 0xFFFFFFFFFFFFFFFFFFFFFFFFFFFFFFFFFFFFFFFF AND PUSH20 0xFFFFFFFFFFFFFFFFFFFFFFFFFFFFFFFFFFFFFFFF AND DUP2 MSTORE PUSH1 0x20 ADD SWAP1 DUP2 MSTORE PUSH1 0x20 ADD PUSH1 0x0 KECCAK256 PUSH1 0x0 PUSH2 0x100 EXP DUP2 SLOAD DUP2 PUSH1 0xFF MUL NOT AND SWAP1 DUP4 ISZERO ISZERO MUL OR SWAP1 SSTORE POP CALLER PUSH20 0xFFFFFFFFFFFFFFFFFFFFFFFFFFFFFFFFFFFFFFFF AND PUSH1 0x0 PUSH20 0xFFFFFFFFFFFFFFFFFFFFFFFFFFFFFFFFFFFFFFFF AND PUSH32 0xDDF252AD1BE2C89B69C2B068FC378DAA952BA7F163C4A11628F55A4DF523B3EF PUSH10 0xD3C21BCECCEDA1000000 PUSH1 0x40 MLOAD PUSH3 0x2C2 SWAP2 SWAP1 PUSH3 0x693 JUMP JUMPDEST PUSH1 0x40 MLOAD DUP1 SWAP2 SUB SWAP1 LOG3 ADDRESS PUSH20 0xFFFFFFFFFFFFFFFFFFFFFFFFFFFFFFFFFFFFFFFF AND PUSH32 0x36EE46FA09C2419F7BCF8135C2BDD56BC882BE141CB075961717003BED74367D PUSH1 0x1 PUSH1 0x40 MLOAD PUSH3 0x313 SWAP2 SWAP1 PUSH3 0x6CD JUMP JUMPDEST PUSH1 0x40 MLOAD DUP1 SWAP2 SUB SWAP1 LOG2 PUSH3 0x6EA JUMP JUMPDEST PUSH1 0x0 DUP2 MLOAD SWAP1 POP SWAP2 SWAP1 POP JUMP JUMPDEST PUSH32 0x4E487B7100000000000000000000000000000000000000000000000000000000 PUSH1 0x0 MSTORE PUSH1 0x41 PUSH1 0x4 MSTORE PUSH1 0x24 PUSH1 0x0 REVERT JUMPDEST PUSH32 0x4E487B7100000000000000000000000000000000000000000000000000000000 PUSH1 0x0 MSTORE PUSH1 0x22 PUSH1 0x4 MSTORE PUSH1 0x24 PUSH1 0x0 REVERT JUMPDEST PUSH1 0x0 PUSH1 0x2 DUP3 DIV SWAP1 POP PUSH1 0x1 DUP3 AND DUP1 PUSH3 0x3A3 JUMPI PUSH1 0x7F DUP3 AND SWAP2 POP JUMPDEST PUSH1 0x20 DUP3 LT DUP2 SUB PUSH3 0x3B9 JUMPI PUSH3 0x3B8 PUSH3 0x35B JUMP JUMPDEST JUMPDEST POP SWAP2 SWAP1 POP JUMP JUMPDEST PUSH1 0x0 DUP2 SWAP1 POP DUP2 PUSH1 0x0 MSTORE PUSH1 0x20 PUSH1 0x0 KECCAK256 SWAP1 POP SWAP2 SWAP1 POP JUMP JUMPDEST PUSH1 0x0 PUSH1 0x20 PUSH1 0x1F DUP4 ADD DIV SWAP1 POP SWAP2 SWAP1 POP JUMP JUMPDEST PUSH1 0x0 DUP3 DUP3 SHL SWAP1 POP SWAP3 SWAP2 POP POP JUMP JUMPDEST PUSH1 0x0 PUSH1 0x8 DUP4 MUL PUSH3 0x423 PUSH32 0xFFFFFFFFFFFFFFFFFFFFFFFFFFFFFFFFFFFFFFFFFFFFFFFFFFFFFFFFFFFFFFFF DUP3 PUSH3 0x3E4 JUMP JUMPDEST PUSH3 0x42F DUP7 DUP4 PUSH3 0x3E4 JUMP JUMPDEST SWAP6 POP DUP1 NOT DUP5 AND SWAP4 POP DUP1 DUP7 AND DUP5 OR SWAP3 POP POP POP SWAP4 SWAP3 POP POP POP JUMP JUMPDEST PUSH1 0x0 DUP2 SWAP1 POP SWAP2 SWAP1 POP JUMP JUMPDEST PUSH1 0x0 DUP2 SWAP1 POP SWAP2 SWAP1 POP JUMP JUMPDEST PUSH1 0x0 PUSH3 0x47C PUSH3 0x476 PUSH3 0x470 DUP5 PUSH3 0x447 JUMP JUMPDEST PUSH3 0x451 JUMP JUMPDEST PUSH3 0x447 JUMP JUMPDEST SWAP1 POP SWAP2 SWAP1 POP JUMP JUMPDEST PUSH1 0x0 DUP2 SWAP1 POP SWAP2 SWAP1 POP JUMP JUMPDEST PUSH3 0x498 DUP4 PUSH3 0x45B JUMP JUMPDEST PUSH3 0x4B0 PUSH3 0x4A7 DUP3 PUSH3 0x483 JUMP JUMPDEST DUP5 DUP5 SLOAD PUSH3 0x3F1 JUMP JUMPDEST DUP3 SSTORE POP POP POP POP JUMP JUMPDEST PUSH1 0x0 SWAP1 JUMP JUMPDEST PUSH3 0x4C7 PUSH3 0x4B8 JUMP JUMPDEST PUSH3 0x4D4 DUP2 DUP5 DUP5 PUSH3 0x48D JUMP JUMPDEST POP POP POP JUMP JUMPDEST JUMPDEST DUP2 DUP2 LT ISZERO PUSH3 0x4FC JUMPI PUSH3 0x4F0 PUSH1 0x0 DUP3 PUSH3 0x4BD JUMP JUMPDEST PUSH1 0x1 DUP2 ADD SWAP1 POP PUSH3 0x4DA JUMP JUMPDEST POP POP JUMP JUMPDEST PUSH1 0x1F DUP3 GT ISZERO PUSH3 0x54B JUMPI PUSH3 0x515 DUP2 PUSH3 0x3BF JUMP JUMPDEST PUSH3 0x520 DUP5 PUSH3 0x3D4 JUMP JUMPDEST DUP2 ADD PUSH1 0x20 DUP6 LT ISZERO PUSH3 0x530 JUMPI DUP2 SWAP1 POP JUMPDEST PUSH3 0x548 PUSH3 0x53F DUP6 PUSH3 0x3D4 JUMP JUMPDEST DUP4 ADD DUP3 PUSH3 0x4D9 JUMP JUMPDEST POP POP JUMPDEST POP POP POP JUMP JUMPDEST PUSH1 0x0 DUP3 DUP3 SHR SWAP1 POP SWAP3 SWAP2 POP POP JUMP JUMPDEST PUSH1 0x0 PUSH3 0x570 PUSH1 0x0 NOT DUP5 PUSH1 0x8 MUL PUSH3 0x550 JUMP JUMPDEST NOT DUP1 DUP4 AND SWAP2 POP POP SWAP3 SWAP2 POP POP JUMP JUMPDEST PUSH1 0x0 PUSH3 0x58B DUP4 DUP4 PUSH3 0x55D JUMP JUMPDEST SWAP2 POP DUP3 PUSH1 0x2 MUL DUP3 OR SWAP1 POP SWAP3 SWAP2 POP POP JUMP JUMPDEST PUSH3 0x5A6 DUP3 PUSH3 0x321 JUMP JUMPDEST PUSH8 0xFFFFFFFFFFFFFFFF DUP2 GT ISZERO PUSH3 0x5C2 JUMPI PUSH3 0x5C1 PUSH3 0x32C JUMP JUMPDEST JUMPDEST PUSH3 0x5CE DUP3 SLOAD PUSH3 0x38A JUMP JUMPDEST PUSH3 0x5DB DUP3 DUP3 DUP6 PUSH3 0x500 JUMP JUMPDEST PUSH1 0x0 PUSH1 0x20 SWAP1 POP PUSH1 0x1F DUP4 GT PUSH1 0x1 DUP2 EQ PUSH3 0x613 JUMPI PUSH1 0x0 DUP5 ISZERO PUSH3 0x5FE JUMPI DUP3 DUP8 ADD MLOAD SWAP1 POP JUMPDEST PUSH3 0x60A DUP6 DUP3 PUSH3 0x57D JUMP JUMPDEST DUP7 SSTORE POP PUSH3 0x67A JUMP JUMPDEST PUSH1 0x1F NOT DUP5 AND PUSH3 0x623 DUP7 PUSH3 0x3BF JUMP JUMPDEST PUSH1 0x0 JUMPDEST DUP3 DUP2 LT ISZERO PUSH3 0x64D JUMPI DUP5 DUP10 ADD MLOAD DUP3 SSTORE PUSH1 0x1 DUP3 ADD SWAP2 POP PUSH1 0x20 DUP6 ADD SWAP5 POP PUSH1 0x20 DUP2 ADD SWAP1 POP PUSH3 0x626 JUMP JUMPDEST DUP7 DUP4 LT ISZERO PUSH3 0x66D JUMPI DUP5 DUP10 ADD MLOAD PUSH3 0x669 PUSH1 0x1F DUP10 AND DUP3 PUSH3 0x55D JUMP JUMPDEST DUP4 SSTORE POP JUMPDEST PUSH1 0x1 PUSH1 0x2 DUP9 MUL ADD DUP9 SSTORE POP POP POP JUMPDEST POP POP POP POP POP POP JUMP JUMPDEST PUSH3 0x68D DUP2 PUSH3 0x447 JUMP JUMPDEST DUP3 MSTORE POP POP JUMP JUMPDEST PUSH1 0x0 PUSH1 0x20 DUP3 ADD SWAP1 POP PUSH3 0x6AA PUSH1 0x0 DUP4 ADD DUP5 PUSH3 0x682 JUMP JUMPDEST SWAP3 SWAP2 POP POP JUMP JUMPDEST PUSH1 0x0 DUP2 ISZERO ISZERO SWAP1 POP SWAP2 SWAP1 POP JUMP JUMPDEST PUSH3 0x6C7 DUP2 PUSH3 0x6B0 JUMP JUMPDEST DUP3 MSTORE POP POP JUMP JUMPDEST PUSH1 0x0 PUSH1 0x20 DUP3 ADD SWAP1 POP PUSH3 0x6E4 PUSH1 0x0 DUP4 ADD DUP5 PUSH3 0x6BC JUMP JUMPDEST SWAP3 SWAP2 POP POP JUMP JUMPDEST PUSH1 0x80 MLOAD PUSH1 0xA0 MLOAD PUSH2 0x2E8F PUSH3 0x733 PUSH1 0x0 CODECOPY PUSH1 0x0 DUP2 DUP2 PUSH2 0x9DB ADD MSTORE DUP2 DUP2 PUSH2 0x14FC ADD MSTORE PUSH2 0x2050 ADD MSTORE PUSH1 0x0 DUP2 DUP2 PUSH2 0x781 ADD MSTORE DUP2 DUP2 PUSH2 0x165E ADD MSTORE DUP2 DUP2 PUSH2 0x1722 ADD MSTORE PUSH2 0x17FF ADD MSTORE PUSH2 0x2E8F PUSH1 0x0 RETURN INVALID PUSH1 0x80 PUSH1 0x40 MSTORE CALLVALUE DUP1 ISZERO PUSH2 0x10 JUMPI PUSH1 0x0 DUP1 REVERT JUMPDEST POP PUSH1 0x4 CALLDATASIZE LT PUSH2 0x1A9 JUMPI PUSH1 0x0 CALLDATALOAD PUSH1 0xE0 SHR DUP1 PUSH4 0x57D14A09 GT PUSH2 0xF9 JUMPI DUP1 PUSH4 0xA9059CBB GT PUSH2 0x97 JUMPI DUP1 PUSH4 0xD5AED6BF GT PUSH2 0x71 JUMPI DUP1 PUSH4 0xD5AED6BF EQ PUSH2 0x48E JUMPI DUP1 PUSH4 0xDD62ED3E EQ PUSH2 0x4AA JUMPI DUP1 PUSH4 0xE17514AB EQ PUSH2 0x4DA JUMPI DUP1 PUSH4 0xF256EE83 EQ PUSH2 0x4F6 JUMPI PUSH2 0x1A9 JUMP JUMPDEST DUP1 PUSH4 0xA9059CBB EQ PUSH2 0x438 JUMPI DUP1 PUSH4 0xAC2FF1B3 EQ PUSH2 0x468 JUMPI DUP1 PUSH4 0xB64E3C74 EQ PUSH2 0x472 JUMPI PUSH2 0x1A9 JUMP JUMPDEST DUP1 PUSH4 0x8A8C523C GT PUSH2 0xD3 JUMPI DUP1 PUSH4 0x8A8C523C EQ PUSH2 0x3D4 JUMPI DUP1 PUSH4 0x8DA5CB5B EQ PUSH2 0x3DE JUMPI DUP1 PUSH4 0x95D89B41 EQ PUSH2 0x3FC JUMPI DUP1 PUSH4 0xA8B08982 EQ PUSH2 0x41A JUMPI PUSH2 0x1A9 JUMP JUMPDEST DUP1 PUSH4 0x57D14A09 EQ PUSH2 0x368 JUMPI DUP1 PUSH4 0x70A08231 EQ PUSH2 0x386 JUMPI DUP1 PUSH4 0x771C4936 EQ PUSH2 0x3B6 JUMPI PUSH2 0x1A9 JUMP JUMPDEST DUP1 PUSH4 0x313CE567 GT PUSH2 0x166 JUMPI DUP1 PUSH4 0x395C0D00 GT PUSH2 0x140 JUMPI DUP1 PUSH4 0x395C0D00 EQ PUSH2 0x2F2 JUMPI DUP1 PUSH4 0x42966C68 EQ PUSH2 0x310 JUMPI DUP1 PUSH4 0x4ADA218B EQ PUSH2 0x32C JUMPI DUP1 PUSH4 0x5192C82C EQ PUSH2 0x34A JUMPI PUSH2 0x1A9 JUMP JUMPDEST DUP1 PUSH4 0x313CE567 EQ PUSH2 0x298 JUMPI DUP1 PUSH4 0x3268CC56 EQ PUSH2 0x2B6 JUMPI DUP1 PUSH4 0x378DC3DC EQ PUSH2 0x2D4 JUMPI PUSH2 0x1A9 JUMP JUMPDEST DUP1 PUSH4 0x60E7844 EQ PUSH2 0x1AE JUMPI DUP1 PUSH4 0x6FDDE03 EQ PUSH2 0x1DE JUMPI DUP1 PUSH4 0x95EA7B3 EQ PUSH2 0x1FC JUMPI DUP1 PUSH4 0x18160DDD EQ PUSH2 0x22C JUMPI DUP1 PUSH4 0x23B872DD EQ PUSH2 0x24A JUMPI DUP1 PUSH4 0x2DC0562D EQ PUSH2 0x27A JUMPI JUMPDEST PUSH1 0x0 DUP1 REVERT JUMPDEST PUSH2 0x1C8 PUSH1 0x4 DUP1 CALLDATASIZE SUB DUP2 ADD SWAP1 PUSH2 0x1C3 SWAP2 SWAP1 PUSH2 0x23A7 JUMP JUMPDEST PUSH2 0x512 JUMP JUMPDEST PUSH1 0x40 MLOAD PUSH2 0x1D5 SWAP2 SWAP1 PUSH2 0x23EF JUMP JUMPDEST PUSH1 0x40 MLOAD DUP1 SWAP2 SUB SWAP1 RETURN JUMPDEST PUSH2 0x1E6 PUSH2 0x532 JUMP JUMPDEST PUSH1 0x40 MLOAD PUSH2 0x1F3 SWAP2 SWAP1 PUSH2 0x249A JUMP JUMPDEST PUSH1 0x40 MLOAD DUP1 SWAP2 SUB SWAP1 RETURN JUMPDEST PUSH2 0x216 PUSH1 0x4 DUP1 CALLDATASIZE SUB DUP2 ADD SWAP1 PUSH2 0x211 SWAP2 SWAP1 PUSH2 0x24F2 JUMP JUMPDEST PUSH2 0x5C0 JUMP JUMPDEST PUSH1 0x40 MLOAD PUSH2 0x223 SWAP2 SWAP1 PUSH2 0x23EF JUMP JUMPDEST PUSH1 0x40 MLOAD DUP1 SWAP2 SUB SWAP1 RETURN JUMPDEST PUSH2 0x234 PUSH2 0x5D7 JUMP JUMPDEST PUSH1 0x40 MLOAD PUSH2 0x241 SWAP2 SWAP1 PUSH2 0x2541 JUMP JUMPDEST PUSH1 0x40 MLOAD DUP1 SWAP2 SUB SWAP1 RETURN JUMPDEST PUSH2 0x264 PUSH1 0x4 DUP1 CALLDATASIZE SUB DUP2 ADD SWAP1 PUSH2 0x25F SWAP2 SWAP1 PUSH2 0x255C JUMP JUMPDEST PUSH2 0x5DD JUMP JUMPDEST PUSH1 0x40 MLOAD PUSH2 0x271 SWAP2 SWAP1 PUSH2 0x23EF JUMP JUMPDEST PUSH1 0x40 MLOAD DUP1 SWAP2 SUB SWAP1 RETURN JUMPDEST PUSH2 0x282 PUSH2 0x746 JUMP JUMPDEST PUSH1 0x40 MLOAD PUSH2 0x28F SWAP2 SWAP1 PUSH2 0x25BE JUMP JUMPDEST PUSH1 0x40 MLOAD DUP1 SWAP2 SUB SWAP1 RETURN JUMPDEST PUSH2 0x2A0 PUSH2 0x76C JUMP JUMPDEST PUSH1 0x40 MLOAD PUSH2 0x2AD SWAP2 SWAP1 PUSH2 0x25F5 JUMP JUMPDEST PUSH1 0x40 MLOAD DUP1 SWAP2 SUB SWAP1 RETURN JUMPDEST PUSH2 0x2BE PUSH2 0x77F JUMP JUMPDEST PUSH1 0x40 MLOAD PUSH2 0x2CB SWAP2 SWAP1 PUSH2 0x25BE JUMP JUMPDEST PUSH1 0x40 MLOAD DUP1 SWAP2 SUB SWAP1 RETURN JUMPDEST PUSH2 0x2DC PUSH2 0x7A3 JUMP JUMPDEST PUSH1 0x40 MLOAD PUSH2 0x2E9 SWAP2 SWAP1 PUSH2 0x2541 JUMP JUMPDEST PUSH1 0x40 MLOAD DUP1 SWAP2 SUB SWAP1 RETURN JUMPDEST PUSH2 0x2FA PUSH2 0x7B1 JUMP JUMPDEST PUSH1 0x40 MLOAD PUSH2 0x307 SWAP2 SWAP1 PUSH2 0x2541 JUMP JUMPDEST PUSH1 0x40 MLOAD DUP1 SWAP2 SUB SWAP1 RETURN JUMPDEST PUSH2 0x32A PUSH1 0x4 DUP1 CALLDATASIZE SUB DUP2 ADD SWAP1 PUSH2 0x325 SWAP2 SWAP1 PUSH2 0x2610 JUMP JUMPDEST PUSH2 0x86C JUMP JUMPDEST STOP JUMPDEST PUSH2 0x334 PUSH2 0x9C6 JUMP JUMPDEST PUSH1 0x40 MLOAD PUSH2 0x341 SWAP2 SWAP1 PUSH2 0x23EF JUMP JUMPDEST PUSH1 0x40 MLOAD DUP1 SWAP2 SUB SWAP1 RETURN JUMPDEST PUSH2 0x352 PUSH2 0x9D9 JUMP JUMPDEST PUSH1 0x40 MLOAD PUSH2 0x35F SWAP2 SWAP1 PUSH2 0x2541 JUMP JUMPDEST PUSH1 0x40 MLOAD DUP1 SWAP2 SUB SWAP1 RETURN JUMPDEST PUSH2 0x370 PUSH2 0x9FD JUMP JUMPDEST PUSH1 0x40 MLOAD PUSH2 0x37D SWAP2 SWAP1 PUSH2 0x23EF JUMP JUMPDEST PUSH1 0x40 MLOAD DUP1 SWAP2 SUB SWAP1 RETURN JUMPDEST PUSH2 0x3A0 PUSH1 0x4 DUP1 CALLDATASIZE SUB DUP2 ADD SWAP1 PUSH2 0x39B SWAP2 SWAP1 PUSH2 0x23A7 JUMP JUMPDEST PUSH2 0xA10 JUMP JUMPDEST PUSH1 0x40 MLOAD PUSH2 0x3AD SWAP2 SWAP1 PUSH2 0x2541 JUMP JUMPDEST PUSH1 0x40 MLOAD DUP1 SWAP2 SUB SWAP1 RETURN JUMPDEST PUSH2 0x3BE PUSH2 0xA59 JUMP JUMPDEST PUSH1 0x40 MLOAD PUSH2 0x3CB SWAP2 SWAP1 PUSH2 0x2541 JUMP JUMPDEST PUSH1 0x40 MLOAD DUP1 SWAP2 SUB SWAP1 RETURN JUMPDEST PUSH2 0x3DC PUSH2 0xB14 JUMP JUMPDEST STOP JUMPDEST PUSH2 0x3E6 PUSH2 0xC80 JUMP JUMPDEST PUSH1 0x40 MLOAD PUSH2 0x3F3 SWAP2 SWAP1 PUSH2 0x25BE JUMP JUMPDEST PUSH1 0x40 MLOAD DUP1 SWAP2 SUB SWAP1 RETURN JUMPDEST PUSH2 0x404 PUSH2 0xCA6 JUMP JUMPDEST PUSH1 0x40 MLOAD PUSH2 0x411 SWAP2 SWAP1 PUSH2 0x249A JUMP JUMPDEST PUSH1 0x40 MLOAD DUP1 SWAP2 SUB SWAP1 RETURN JUMPDEST PUSH2 0x422 PUSH2 0xD34 JUMP JUMPDEST PUSH1 0x40 MLOAD PUSH2 0x42F SWAP2 SWAP1 PUSH2 0x25BE JUMP JUMPDEST PUSH1 0x40 MLOAD DUP1 SWAP2 SUB SWAP1 RETURN JUMPDEST PUSH2 0x452 PUSH1 0x4 DUP1 CALLDATASIZE SUB DUP2 ADD SWAP1 PUSH2 0x44D SWAP2 SWAP1 PUSH2 0x24F2 JUMP JUMPDEST PUSH2 0xD5A JUMP JUMPDEST PUSH1 0x40 MLOAD PUSH2 0x45F SWAP2 SWAP1 PUSH2 0x23EF JUMP JUMPDEST PUSH1 0x40 MLOAD DUP1 SWAP2 SUB SWAP1 RETURN JUMPDEST PUSH2 0x470 PUSH2 0xD71 JUMP JUMPDEST STOP JUMPDEST PUSH2 0x48C PUSH1 0x4 DUP1 CALLDATASIZE SUB DUP2 ADD SWAP1 PUSH2 0x487 SWAP2 SWAP1 PUSH2 0x2669 JUMP JUMPDEST PUSH2 0xE73 JUMP JUMPDEST STOP JUMPDEST PUSH2 0x4A8 PUSH1 0x4 DUP1 CALLDATASIZE SUB DUP2 ADD SWAP1 PUSH2 0x4A3 SWAP2 SWAP1 PUSH2 0x23A7 JUMP JUMPDEST PUSH2 0x101B JUMP JUMPDEST STOP JUMPDEST PUSH2 0x4C4 PUSH1 0x4 DUP1 CALLDATASIZE SUB DUP2 ADD SWAP1 PUSH2 0x4BF SWAP2 SWAP1 PUSH2 0x26A9 JUMP JUMPDEST PUSH2 0x1180 JUMP JUMPDEST PUSH1 0x40 MLOAD PUSH2 0x4D1 SWAP2 SWAP1 PUSH2 0x2541 JUMP JUMPDEST PUSH1 0x40 MLOAD DUP1 SWAP2 SUB SWAP1 RETURN JUMPDEST PUSH2 0x4F4 PUSH1 0x4 DUP1 CALLDATASIZE SUB DUP2 ADD SWAP1 PUSH2 0x4EF SWAP2 SWAP1 PUSH2 0x23A7 JUMP JUMPDEST PUSH2 0x1207 JUMP JUMPDEST STOP JUMPDEST PUSH2 0x510 PUSH1 0x4 DUP1 CALLDATASIZE SUB DUP2 ADD SWAP1 PUSH2 0x50B SWAP2 SWAP1 PUSH2 0x26E9 JUMP JUMPDEST PUSH2 0x1463 JUMP JUMPDEST STOP JUMPDEST PUSH1 0x7 PUSH1 0x20 MSTORE DUP1 PUSH1 0x0 MSTORE PUSH1 0x40 PUSH1 0x0 KECCAK256 PUSH1 0x0 SWAP2 POP SLOAD SWAP1 PUSH2 0x100 EXP SWAP1 DIV PUSH1 0xFF AND DUP2 JUMP JUMPDEST PUSH1 0x0 DUP1 SLOAD PUSH2 0x53F SWAP1 PUSH2 0x276B JUMP JUMPDEST DUP1 PUSH1 0x1F ADD PUSH1 0x20 DUP1 SWAP2 DIV MUL PUSH1 0x20 ADD PUSH1 0x40 MLOAD SWAP1 DUP2 ADD PUSH1 0x40 MSTORE DUP1 SWAP3 SWAP2 SWAP1 DUP2 DUP2 MSTORE PUSH1 0x20 ADD DUP3 DUP1 SLOAD PUSH2 0x56B SWAP1 PUSH2 0x276B JUMP JUMPDEST DUP1 ISZERO PUSH2 0x5B8 JUMPI DUP1 PUSH1 0x1F LT PUSH2 0x58D JUMPI PUSH2 0x100 DUP1 DUP4 SLOAD DIV MUL DUP4 MSTORE SWAP2 PUSH1 0x20 ADD SWAP2 PUSH2 0x5B8 JUMP JUMPDEST DUP3 ADD SWAP2 SWAP1 PUSH1 0x0 MSTORE PUSH1 0x20 PUSH1 0x0 KECCAK256 SWAP1 JUMPDEST DUP2 SLOAD DUP2 MSTORE SWAP1 PUSH1 0x1 ADD SWAP1 PUSH1 0x20 ADD DUP1 DUP4 GT PUSH2 0x59B JUMPI DUP3 SWAP1 SUB PUSH1 0x1F AND DUP3 ADD SWAP2 JUMPDEST POP POP POP POP POP DUP2 JUMP JUMPDEST PUSH1 0x0 PUSH2 0x5CD CALLER DUP5 DUP5 PUSH2 0x189B JUMP JUMPDEST PUSH1 0x1 SWAP1 POP SWAP3 SWAP2 POP POP JUMP JUMPDEST PUSH1 0x3 SLOAD DUP2 JUMP JUMPDEST PUSH1 0x0 DUP2 PUSH1 0x9 PUSH1 0x0 DUP7 PUSH20 0xFFFFFFFFFFFFFFFFFFFFFFFFFFFFFFFFFFFFFFFF AND PUSH20 0xFFFFFFFFFFFFFFFFFFFFFFFFFFFFFFFFFFFFFFFF AND DUP2 MSTORE PUSH1 0x20 ADD SWAP1 DUP2 MSTORE PUSH1 0x20 ADD PUSH1 0x0 KECCAK256 PUSH1 0x0 CALLER PUSH20 0xFFFFFFFFFFFFFFFFFFFFFFFFFFFFFFFFFFFFFFFF AND PUSH20 0xFFFFFFFFFFFFFFFFFFFFFFFFFFFFFFFFFFFFFFFF AND DUP2 MSTORE PUSH1 0x20 ADD SWAP1 DUP2 MSTORE PUSH1 0x20 ADD PUSH1 0x0 KECCAK256 SLOAD LT ISZERO PUSH2 0x69E JUMPI PUSH1 0x40 MLOAD PUSH32 0x8C379A000000000000000000000000000000000000000000000000000000000 DUP2 MSTORE PUSH1 0x4 ADD PUSH2 0x695 SWAP1 PUSH2 0x27E8 JUMP JUMPDEST PUSH1 0x40 MLOAD DUP1 SWAP2 SUB SWAP1 REVERT JUMPDEST PUSH2 0x730 DUP5 CALLER DUP5 PUSH1 0x9 PUSH1 0x0 DUP10 PUSH20 0xFFFFFFFFFFFFFFFFFFFFFFFFFFFFFFFFFFFFFFFF AND PUSH20 0xFFFFFFFFFFFFFFFFFFFFFFFFFFFFFFFFFFFFFFFF AND DUP2 MSTORE PUSH1 0x20 ADD SWAP1 DUP2 MSTORE PUSH1 0x20 ADD PUSH1 0x0 KECCAK256 PUSH1 0x0 CALLER PUSH20 0xFFFFFFFFFFFFFFFFFFFFFFFFFFFFFFFFFFFFFFFF AND PUSH20 0xFFFFFFFFFFFFFFFFFFFFFFFFFFFFFFFFFFFFFFFF AND DUP2 MSTORE PUSH1 0x20 ADD SWAP1 DUP2 MSTORE PUSH1 0x20 ADD PUSH1 0x0 KECCAK256 SLOAD PUSH2 0x72B SWAP2 SWAP1 PUSH2 0x2837 JUMP JUMPDEST PUSH2 0x189B JUMP JUMPDEST PUSH2 0x73B DUP5 DUP5 DUP5 PUSH2 0x1A2F JUMP JUMPDEST PUSH1 0x1 SWAP1 POP SWAP4 SWAP3 POP POP POP JUMP JUMPDEST PUSH1 0x4 PUSH1 0x0 SWAP1 SLOAD SWAP1 PUSH2 0x100 EXP SWAP1 DIV PUSH20 0xFFFFFFFFFFFFFFFFFFFFFFFFFFFFFFFFFFFFFFFF AND DUP2 JUMP JUMPDEST PUSH1 0x2 PUSH1 0x0 SWAP1 SLOAD SWAP1 PUSH2 0x100 EXP SWAP1 DIV PUSH1 0xFF AND DUP2 JUMP JUMPDEST PUSH32 0x0 DUP2 JUMP JUMPDEST PUSH10 0xD3C21BCECCEDA1000000 DUP2 JUMP JUMPDEST PUSH1 0x0 PUSH1 0x6 PUSH1 0x15 SWAP1 SLOAD SWAP1 PUSH2 0x100 EXP SWAP1 DIV PUSH1 0xFF AND ISZERO PUSH2 0x7D1 JUMPI PUSH1 0x0 SWAP1 POP PUSH2 0x869 JUMP JUMPDEST PUSH1 0x0 PUSH10 0xD3C21BCECCEDA1000000 PUSH1 0x64 PUSH1 0x3 SLOAD PUSH2 0x7ED SWAP2 SWAP1 PUSH2 0x286B JUMP JUMPDEST PUSH2 0x7F7 SWAP2 SWAP1 PUSH2 0x28DC JUMP JUMPDEST SWAP1 POP PUSH1 0x32 DUP2 GT PUSH2 0x80B JUMPI PUSH1 0xC8 SWAP2 POP POP PUSH2 0x869 JUMP JUMPDEST PUSH1 0x0 PUSH1 0x19 PUSH1 0xA DUP4 PUSH1 0x64 PUSH2 0x81E SWAP2 SWAP1 PUSH2 0x2837 JUMP JUMPDEST PUSH2 0x828 SWAP2 SWAP1 PUSH2 0x286B JUMP JUMPDEST PUSH2 0x832 SWAP2 SWAP1 PUSH2 0x28DC JUMP JUMPDEST SWAP1 POP PUSH1 0x0 PUSH1 0x28 DUP3 PUSH2 0x843 SWAP2 SWAP1 PUSH2 0x286B JUMP JUMPDEST PUSH2 0x3E8 PUSH2 0x850 SWAP2 SWAP1 PUSH2 0x2837 JUMP JUMPDEST SWAP1 POP PUSH1 0xC8 DUP2 GT PUSH2 0x861 JUMPI PUSH1 0xC8 PUSH2 0x863 JUMP JUMPDEST DUP1 JUMPDEST SWAP4 POP POP POP POP JUMPDEST SWAP1 JUMP JUMPDEST DUP1 PUSH1 0x8 PUSH1 0x0 CALLER PUSH20 0xFFFFFFFFFFFFFFFFFFFFFFFFFFFFFFFFFFFFFFFF AND PUSH20 0xFFFFFFFFFFFFFFFFFFFFFFFFFFFFFFFFFFFFFFFF AND DUP2 MSTORE PUSH1 0x20 ADD SWAP1 DUP2 MSTORE PUSH1 0x20 ADD PUSH1 0x0 KECCAK256 SLOAD LT ISZERO PUSH2 0x8EE JUMPI PUSH1 0x40 MLOAD PUSH32 0x8C379A000000000000000000000000000000000000000000000000000000000 DUP2 MSTORE PUSH1 0x4 ADD PUSH2 0x8E5 SWAP1 PUSH2 0x2959 JUMP JUMPDEST PUSH1 0x40 MLOAD DUP1 SWAP2 SUB SWAP1 REVERT JUMPDEST DUP1 PUSH1 0x8 PUSH1 0x0 CALLER PUSH20 0xFFFFFFFFFFFFFFFFFFFFFFFFFFFFFFFFFFFFFFFF AND PUSH20 0xFFFFFFFFFFFFFFFFFFFFFFFFFFFFFFFFFFFFFFFF AND DUP2 MSTORE PUSH1 0x20 ADD SWAP1 DUP2 MSTORE PUSH1 0x20 ADD PUSH1 0x0 KECCAK256 PUSH1 0x0 DUP3 DUP3 SLOAD PUSH2 0x93D SWAP2 SWAP1 PUSH2 0x2837 JUMP JUMPDEST SWAP3 POP POP DUP2 SWAP1 SSTORE POP DUP1 PUSH1 0x3 PUSH1 0x0 DUP3 DUP3 SLOAD PUSH2 0x956 SWAP2 SWAP1 PUSH2 0x2837 JUMP JUMPDEST SWAP3 POP POP DUP2 SWAP1 SSTORE POP PUSH1 0x0 PUSH20 0xFFFFFFFFFFFFFFFFFFFFFFFFFFFFFFFFFFFFFFFF AND CALLER PUSH20 0xFFFFFFFFFFFFFFFFFFFFFFFFFFFFFFFFFFFFFFFF AND PUSH32 0xDDF252AD1BE2C89B69C2B068FC378DAA952BA7F163C4A11628F55A4DF523B3EF DUP4 PUSH1 0x40 MLOAD PUSH2 0x9BB SWAP2 SWAP1 PUSH2 0x2541 JUMP JUMPDEST PUSH1 0x40 MLOAD DUP1 SWAP2 SUB SWAP1 LOG3 POP JUMP JUMPDEST PUSH1 0x6 PUSH1 0x14 SWAP1 SLOAD SWAP1 PUSH2 0x100 EXP SWAP1 DIV PUSH1 0xFF AND DUP2 JUMP JUMPDEST PUSH32 0x0 DUP2 JUMP JUMPDEST PUSH1 0x6 PUSH1 0x15 SWAP1 SLOAD SWAP1 PUSH2 0x100 EXP SWAP1 DIV PUSH1 0xFF AND DUP2 JUMP JUMPDEST PUSH1 0x0 PUSH1 0x8 PUSH1 0x0 DUP4 PUSH20 0xFFFFFFFFFFFFFFFFFFFFFFFFFFFFFFFFFFFFFFFF AND PUSH20 0xFFFFFFFFFFFFFFFFFFFFFFFFFFFFFFFFFFFFFFFF AND DUP2 MSTORE PUSH1 0x20 ADD SWAP1 DUP2 MSTORE PUSH1 0x20 ADD PUSH1 0x0 KECCAK256 SLOAD SWAP1 POP SWAP2 SWAP1 POP JUMP JUMPDEST PUSH1 0x0 PUSH1 0x6 PUSH1 0x15 SWAP1 SLOAD SWAP1 PUSH2 0x100 EXP SWAP1 DIV PUSH1 0xFF AND ISZERO PUSH2 0xA79 JUMPI PUSH1 0x0 SWAP1 POP PUSH2 0xB11 JUMP JUMPDEST PUSH1 0x0 PUSH10 0xD3C21BCECCEDA1000000 PUSH1 0x64 PUSH1 0x3 SLOAD PUSH2 0xA95 SWAP2 SWAP1 PUSH2 0x286B JUMP JUMPDEST PUSH2 0xA9F SWAP2 SWAP1 PUSH2 0x28DC JUMP JUMPDEST SWAP1 POP PUSH1 0x4B DUP2 GT PUSH2 0xAB3 JUMPI PUSH1 0x0 SWAP2 POP POP PUSH2 0xB11 JUMP JUMPDEST PUSH1 0x0 PUSH1 0x19 PUSH1 0xA DUP4 PUSH1 0x64 PUSH2 0xAC6 SWAP2 SWAP1 PUSH2 0x2837 JUMP JUMPDEST PUSH2 0xAD0 SWAP2 SWAP1 PUSH2 0x286B JUMP JUMPDEST PUSH2 0xADA SWAP2 SWAP1 PUSH2 0x28DC JUMP JUMPDEST SWAP1 POP PUSH1 0x0 PUSH1 0x32 DUP3 PUSH2 0xAEB SWAP2 SWAP1 PUSH2 0x286B JUMP JUMPDEST PUSH2 0x1F4 PUSH2 0xAF8 SWAP2 SWAP1 PUSH2 0x2837 JUMP JUMPDEST SWAP1 POP PUSH1 0x0 DUP2 GT PUSH2 0xB09 JUMPI PUSH1 0x0 PUSH2 0xB0B JUMP JUMPDEST DUP1 JUMPDEST SWAP4 POP POP POP POP JUMPDEST SWAP1 JUMP JUMPDEST PUSH1 0x5 PUSH1 0x0 SWAP1 SLOAD SWAP1 PUSH2 0x100 EXP SWAP1 DIV PUSH20 0xFFFFFFFFFFFFFFFFFFFFFFFFFFFFFFFFFFFFFFFF AND PUSH20 0xFFFFFFFFFFFFFFFFFFFFFFFFFFFFFFFFFFFFFFFF AND CALLER PUSH20 0xFFFFFFFFFFFFFFFFFFFFFFFFFFFFFFFFFFFFFFFF AND EQ PUSH2 0xBA4 JUMPI PUSH1 0x40 MLOAD PUSH32 0x8C379A000000000000000000000000000000000000000000000000000000000 DUP2 MSTORE PUSH1 0x4 ADD PUSH2 0xB9B SWAP1 PUSH2 0x29C5 JUMP JUMPDEST PUSH1 0x40 MLOAD DUP1 SWAP2 SUB SWAP1 REVERT JUMPDEST PUSH1 0x1 PUSH1 0x6 PUSH1 0x14 PUSH2 0x100 EXP DUP2 SLOAD DUP2 PUSH1 0xFF MUL NOT AND SWAP1 DUP4 ISZERO ISZERO MUL OR SWAP1 SSTORE POP PUSH1 0x0 PUSH1 0x5 PUSH1 0x0 PUSH2 0x100 EXP DUP2 SLOAD DUP2 PUSH20 0xFFFFFFFFFFFFFFFFFFFFFFFFFFFFFFFFFFFFFFFF MUL NOT AND SWAP1 DUP4 PUSH20 0xFFFFFFFFFFFFFFFFFFFFFFFFFFFFFFFFFFFFFFFF AND MUL OR SWAP1 SSTORE POP PUSH1 0x0 PUSH20 0xFFFFFFFFFFFFFFFFFFFFFFFFFFFFFFFFFFFFFFFF AND PUSH1 0x5 PUSH1 0x0 SWAP1 SLOAD SWAP1 PUSH2 0x100 EXP SWAP1 DIV PUSH20 0xFFFFFFFFFFFFFFFFFFFFFFFFFFFFFFFFFFFFFFFF AND PUSH20 0xFFFFFFFFFFFFFFFFFFFFFFFFFFFFFFFFFFFFFFFF AND PUSH32 0x8BE0079C531659141344CD1FD0A4F28419497F9722A3DAAFE3B4186F6B6457E0 PUSH1 0x40 MLOAD PUSH1 0x40 MLOAD DUP1 SWAP2 SUB SWAP1 LOG3 JUMP JUMPDEST PUSH1 0x5 PUSH1 0x0 SWAP1 SLOAD SWAP1 PUSH2 0x100 EXP SWAP1 DIV PUSH20 0xFFFFFFFFFFFFFFFFFFFFFFFFFFFFFFFFFFFFFFFF AND DUP2 JUMP JUMPDEST PUSH1 0x1 DUP1 SLOAD PUSH2 0xCB3 SWAP1 PUSH2 0x276B JUMP JUMPDEST DUP1 PUSH1 0x1F ADD PUSH1 0x20 DUP1 SWAP2 DIV MUL PUSH1 0x20 ADD PUSH1 0x40 MLOAD SWAP1 DUP2 ADD PUSH1 0x40 MSTORE DUP1 SWAP3 SWAP2 SWAP1 DUP2 DUP2 MSTORE PUSH1 0x20 ADD DUP3 DUP1 SLOAD PUSH2 0xCDF SWAP1 PUSH2 0x276B JUMP JUMPDEST DUP1 ISZERO PUSH2 0xD2C JUMPI DUP1 PUSH1 0x1F LT PUSH2 0xD01 JUMPI PUSH2 0x100 DUP1 DUP4 SLOAD DIV MUL DUP4 MSTORE SWAP2 PUSH1 0x20 ADD SWAP2 PUSH2 0xD2C JUMP JUMPDEST DUP3 ADD SWAP2 SWAP1 PUSH1 0x0 MSTORE PUSH1 0x20 PUSH1 0x0 KECCAK256 SWAP1 JUMPDEST DUP2 SLOAD DUP2 MSTORE SWAP1 PUSH1 0x1 ADD SWAP1 PUSH1 0x20 ADD DUP1 DUP4 GT PUSH2 0xD0F JUMPI DUP3 SWAP1 SUB PUSH1 0x1F AND DUP3 ADD SWAP2 JUMPDEST POP POP POP POP POP DUP2 JUMP JUMPDEST PUSH1 0x6 PUSH1 0x0 SWAP1 SLOAD SWAP1 PUSH2 0x100 EXP SWAP1 DIV PUSH20 0xFFFFFFFFFFFFFFFFFFFFFFFFFFFFFFFFFFFFFFFF AND DUP2 JUMP JUMPDEST PUSH1 0x0 PUSH2 0xD67 CALLER DUP5 DUP5 PUSH2 0x1A2F JUMP JUMPDEST PUSH1 0x1 SWAP1 POP SWAP3 SWAP2 POP POP JUMP JUMPDEST PUSH1 0x4 PUSH1 0x0 SWAP1 SLOAD SWAP1 PUSH2 0x100 EXP SWAP1 DIV PUSH20 0xFFFFFFFFFFFFFFFFFFFFFFFFFFFFFFFFFFFFFFFF AND PUSH20 0xFFFFFFFFFFFFFFFFFFFFFFFFFFFFFFFFFFFFFFFF AND CALLER PUSH20 0xFFFFFFFFFFFFFFFFFFFFFFFFFFFFFFFFFFFFFFFF AND EQ PUSH2 0xE01 JUMPI PUSH1 0x40 MLOAD PUSH32 0x8C379A000000000000000000000000000000000000000000000000000000000 DUP2 MSTORE PUSH1 0x4 ADD PUSH2 0xDF8 SWAP1 PUSH2 0x2A31 JUMP JUMPDEST PUSH1 0x40 MLOAD DUP1 SWAP2 SUB SWAP1 REVERT JUMPDEST PUSH1 0x6 PUSH1 0x15 SWAP1 SLOAD SWAP1 PUSH2 0x100 EXP SWAP1 DIV PUSH1 0xFF AND ISZERO PUSH1 0x6 PUSH1 0x15 PUSH2 0x100 EXP DUP2 SLOAD DUP2 PUSH1 0xFF MUL NOT AND SWAP1 DUP4 ISZERO ISZERO MUL OR SWAP1 SSTORE POP PUSH32 0xB21F1BF19BF23907B1221D7992F53E5DE51A210000DA41DF67DE751378934AD9 PUSH1 0x6 PUSH1 0x15 SWAP1 SLOAD SWAP1 PUSH2 0x100 EXP SWAP1 DIV PUSH1 0xFF AND PUSH1 0x40 MLOAD PUSH2 0xE69 SWAP2 SWAP1 PUSH2 0x23EF JUMP JUMPDEST PUSH1 0x40 MLOAD DUP1 SWAP2 SUB SWAP1 LOG1 JUMP JUMPDEST PUSH1 0x5 PUSH1 0x0 SWAP1 SLOAD SWAP1 PUSH2 0x100 EXP SWAP1 DIV PUSH20 0xFFFFFFFFFFFFFFFFFFFFFFFFFFFFFFFFFFFFFFFF AND PUSH20 0xFFFFFFFFFFFFFFFFFFFFFFFFFFFFFFFFFFFFFFFF AND CALLER PUSH20 0xFFFFFFFFFFFFFFFFFFFFFFFFFFFFFFFFFFFFFFFF AND EQ PUSH2 0xF03 JUMPI PUSH1 0x40 MLOAD PUSH32 0x8C379A000000000000000000000000000000000000000000000000000000000 DUP2 MSTORE PUSH1 0x4 ADD PUSH2 0xEFA SWAP1 PUSH2 0x29C5 JUMP JUMPDEST PUSH1 0x40 MLOAD DUP1 SWAP2 SUB SWAP1 REVERT JUMPDEST PUSH1 0x0 PUSH20 0xFFFFFFFFFFFFFFFFFFFFFFFFFFFFFFFFFFFFFFFF AND DUP3 PUSH20 0xFFFFFFFFFFFFFFFFFFFFFFFFFFFFFFFFFFFFFFFF AND SUB PUSH2 0xF72 JUMPI PUSH1 0x40 MLOAD PUSH32 0x8C379A000000000000000000000000000000000000000000000000000000000 DUP2 MSTORE PUSH1 0x4 ADD PUSH2 0xF69 SWAP1 PUSH2 0x2A9D JUMP JUMPDEST PUSH1 0x40 MLOAD DUP1 SWAP2 SUB SWAP1 REVERT JUMPDEST DUP1 PUSH1 0x7 PUSH1 0x0 DUP5 PUSH20 0xFFFFFFFFFFFFFFFFFFFFFFFFFFFFFFFFFFFFFFFF AND PUSH20 0xFFFFFFFFFFFFFFFFFFFFFFFFFFFFFFFFFFFFFFFF AND DUP2 MSTORE PUSH1 0x20 ADD SWAP1 DUP2 MSTORE PUSH1 0x20 ADD PUSH1 0x0 KECCAK256 PUSH1 0x0 PUSH2 0x100 EXP DUP2 SLOAD DUP2 PUSH1 0xFF MUL NOT AND SWAP1 DUP4 ISZERO ISZERO MUL OR SWAP1 SSTORE POP DUP2 PUSH20 0xFFFFFFFFFFFFFFFFFFFFFFFFFFFFFFFFFFFFFFFF AND PUSH32 0x36EE46FA09C2419F7BCF8135C2BDD56BC882BE141CB075961717003BED74367D DUP3 PUSH1 0x40 MLOAD PUSH2 0x100F SWAP2 SWAP1 PUSH2 0x23EF JUMP JUMPDEST PUSH1 0x40 MLOAD DUP1 SWAP2 SUB SWAP1 LOG2 POP POP JUMP JUMPDEST PUSH1 0x5 PUSH1 0x0 SWAP1 SLOAD SWAP1 PUSH2 0x100 EXP SWAP1 DIV PUSH20 0xFFFFFFFFFFFFFFFFFFFFFFFFFFFFFFFFFFFFFFFF AND PUSH20 0xFFFFFFFFFFFFFFFFFFFFFFFFFFFFFFFFFFFFFFFF AND CALLER PUSH20 0xFFFFFFFFFFFFFFFFFFFFFFFFFFFFFFFFFFFFFFFF AND EQ PUSH2 0x10AB JUMPI PUSH1 0x40 MLOAD PUSH32 0x8C379A000000000000000000000000000000000000000000000000000000000 DUP2 MSTORE PUSH1 0x4 ADD PUSH2 0x10A2 SWAP1 PUSH2 0x29C5 JUMP JUMPDEST PUSH1 0x40 MLOAD DUP1 SWAP2 SUB SWAP1 REVERT JUMPDEST PUSH1 0x0 PUSH20 0xFFFFFFFFFFFFFFFFFFFFFFFFFFFFFFFFFFFFFFFF AND PUSH1 0x6 PUSH1 0x0 SWAP1 SLOAD SWAP1 PUSH2 0x100 EXP SWAP1 DIV PUSH20 0xFFFFFFFFFFFFFFFFFFFFFFFFFFFFFFFFFFFFFFFF AND PUSH20 0xFFFFFFFFFFFFFFFFFFFFFFFFFFFFFFFFFFFFFFFF AND EQ PUSH2 0x113C JUMPI PUSH1 0x40 MLOAD PUSH32 0x8C379A000000000000000000000000000000000000000000000000000000000 DUP2 MSTORE PUSH1 0x4 ADD PUSH2 0x1133 SWAP1 PUSH2 0x2B09 JUMP JUMPDEST PUSH1 0x40 MLOAD DUP1 SWAP2 SUB SWAP1 REVERT JUMPDEST DUP1 PUSH1 0x6 PUSH1 0x0 PUSH2 0x100 EXP DUP2 SLOAD DUP2 PUSH20 0xFFFFFFFFFFFFFFFFFFFFFFFFFFFFFFFFFFFFFFFF MUL NOT AND SWAP1 DUP4 PUSH20 0xFFFFFFFFFFFFFFFFFFFFFFFFFFFFFFFFFFFFFFFF AND MUL OR SWAP1 SSTORE POP POP JUMP JUMPDEST PUSH1 0x0 PUSH1 0x9 PUSH1 0x0 DUP5 PUSH20 0xFFFFFFFFFFFFFFFFFFFFFFFFFFFFFFFFFFFFFFFF AND PUSH20 0xFFFFFFFFFFFFFFFFFFFFFFFFFFFFFFFFFFFFFFFF AND DUP2 MSTORE PUSH1 0x20 ADD SWAP1 DUP2 MSTORE PUSH1 0x20 ADD PUSH1 0x0 KECCAK256 PUSH1 0x0 DUP4 PUSH20 0xFFFFFFFFFFFFFFFFFFFFFFFFFFFFFFFFFFFFFFFF AND PUSH20 0xFFFFFFFFFFFFFFFFFFFFFFFFFFFFFFFFFFFFFFFF AND DUP2 MSTORE PUSH1 0x20 ADD SWAP1 DUP2 MSTORE PUSH1 0x20 ADD PUSH1 0x0 KECCAK256 SLOAD SWAP1 POP SWAP3 SWAP2 POP POP JUMP JUMPDEST PUSH1 0x4 PUSH1 0x0 SWAP1 SLOAD SWAP1 PUSH2 0x100 EXP SWAP1 DIV PUSH20 0xFFFFFFFFFFFFFFFFFFFFFFFFFFFFFFFFFFFFFFFF AND PUSH20 0xFFFFFFFFFFFFFFFFFFFFFFFFFFFFFFFFFFFFFFFF AND CALLER PUSH20 0xFFFFFFFFFFFFFFFFFFFFFFFFFFFFFFFFFFFFFFFF AND EQ PUSH2 0x1297 JUMPI PUSH1 0x40 MLOAD PUSH32 0x8C379A000000000000000000000000000000000000000000000000000000000 DUP2 MSTORE PUSH1 0x4 ADD PUSH2 0x128E SWAP1 PUSH2 0x2A31 JUMP JUMPDEST PUSH1 0x40 MLOAD DUP1 SWAP2 SUB SWAP1 REVERT JUMPDEST PUSH1 0x8 PUSH1 0x0 PUSH1 0x4 PUSH1 0x0 SWAP1 SLOAD SWAP1 PUSH2 0x100 EXP SWAP1 DIV PUSH20 0xFFFFFFFFFFFFFFFFFFFFFFFFFFFFFFFFFFFFFFFF AND PUSH20 0xFFFFFFFFFFFFFFFFFFFFFFFFFFFFFFFFFFFFFFFF AND PUSH20 0xFFFFFFFFFFFFFFFFFFFFFFFFFFFFFFFFFFFFFFFF AND DUP2 MSTORE PUSH1 0x20 ADD SWAP1 DUP2 MSTORE PUSH1 0x20 ADD PUSH1 0x0 KECCAK256 SLOAD PUSH1 0x8 PUSH1 0x0 DUP4 PUSH20 0xFFFFFFFFFFFFFFFFFFFFFFFFFFFFFFFFFFFFFFFF AND PUSH20 0xFFFFFFFFFFFFFFFFFFFFFFFFFFFFFFFFFFFFFFFF AND DUP2 MSTORE PUSH1 0x20 ADD SWAP1 DUP2 MSTORE PUSH1 0x20 ADD PUSH1 0x0 KECCAK256 DUP2 SWAP1 SSTORE POP PUSH1 0x0 PUSH1 0x8 PUSH1 0x0 PUSH1 0x4 PUSH1 0x0 SWAP1 SLOAD SWAP1 PUSH2 0x100 EXP SWAP1 DIV PUSH20 0xFFFFFFFFFFFFFFFFFFFFFFFFFFFFFFFFFFFFFFFF AND PUSH20 0xFFFFFFFFFFFFFFFFFFFFFFFFFFFFFFFFFFFFFFFF AND PUSH20 0xFFFFFFFFFFFFFFFFFFFFFFFFFFFFFFFFFFFFFFFF AND DUP2 MSTORE PUSH1 0x20 ADD SWAP1 DUP2 MSTORE PUSH1 0x20 ADD PUSH1 0x0 KECCAK256 DUP2 SWAP1 SSTORE POP DUP1 PUSH1 0x4 PUSH1 0x0 PUSH2 0x100 EXP DUP2 SLOAD DUP2 PUSH20 0xFFFFFFFFFFFFFFFFFFFFFFFFFFFFFFFFFFFFFFFF MUL NOT AND SWAP1 DUP4 PUSH20 0xFFFFFFFFFFFFFFFFFFFFFFFFFFFFFFFFFFFFFFFF AND MUL OR SWAP1 SSTORE POP DUP1 PUSH20 0xFFFFFFFFFFFFFFFFFFFFFFFFFFFFFFFFFFFFFFFF AND PUSH1 0x4 PUSH1 0x0 SWAP1 SLOAD SWAP1 PUSH2 0x100 EXP SWAP1 DIV PUSH20 0xFFFFFFFFFFFFFFFFFFFFFFFFFFFFFFFFFFFFFFFF AND PUSH20 0xFFFFFFFFFFFFFFFFFFFFFFFFFFFFFFFFFFFFFFFF AND PUSH32 0x849A2AD8AD386F1E9897E9E0A62D16771C675E4740986A16FB31BD8E1DDE9C97 PUSH1 0x40 MLOAD PUSH1 0x40 MLOAD DUP1 SWAP2 SUB SWAP1 LOG3 POP JUMP JUMPDEST PUSH1 0x6 PUSH1 0x14 SWAP1 SLOAD SWAP1 PUSH2 0x100 EXP SWAP1 DIV PUSH1 0xFF AND PUSH2 0x14B2 JUMPI PUSH1 0x40 MLOAD PUSH32 0x8C379A000000000000000000000000000000000000000000000000000000000 DUP2 MSTORE PUSH1 0x4 ADD PUSH2 0x14A9 SWAP1 PUSH2 0x2B75 JUMP JUMPDEST PUSH1 0x40 MLOAD DUP1 SWAP2 SUB SWAP1 REVERT JUMPDEST PUSH2 0x14BD CALLER ADDRESS DUP6 PUSH2 0x1A2F JUMP JUMPDEST PUSH1 0x0 PUSH2 0x14C7 PUSH2 0x7B1 JUMP JUMPDEST SWAP1 POP PUSH1 0x0 PUSH2 0x2710 DUP3 DUP7 PUSH2 0x14DA SWAP2 SWAP1 PUSH2 0x286B JUMP JUMPDEST PUSH2 0x14E4 SWAP2 SWAP1 PUSH2 0x28DC JUMP JUMPDEST SWAP1 POP PUSH1 0x0 DUP2 DUP7 PUSH2 0x14F4 SWAP2 SWAP1 PUSH2 0x2837 JUMP JUMPDEST SWAP1 POP PUSH1 0x0 PUSH1 0x64 PUSH32 0x0 DUP5 PUSH2 0x1526 SWAP2 SWAP1 PUSH2 0x286B JUMP JUMPDEST PUSH2 0x1530 SWAP2 SWAP1 PUSH2 0x28DC JUMP JUMPDEST SWAP1 POP PUSH1 0x0 DUP2 DUP5 PUSH2 0x1540 SWAP2 SWAP1 PUSH2 0x2837 JUMP JUMPDEST SWAP1 POP PUSH1 0x0 DUP2 GT ISZERO PUSH2 0x1579 JUMPI PUSH2 0x1578 ADDRESS PUSH1 0x4 PUSH1 0x0 SWAP1 SLOAD SWAP1 PUSH2 0x100 EXP SWAP1 DIV PUSH20 0xFFFFFFFFFFFFFFFFFFFFFFFFFFFFFFFFFFFFFFFF AND DUP4 PUSH2 0x1A2F JUMP JUMPDEST JUMPDEST PUSH1 0x0 DUP3 GT ISZERO PUSH2 0x1658 JUMPI DUP2 PUSH1 0x3 PUSH1 0x0 DUP3 DUP3 SLOAD PUSH2 0x1594 SWAP2 SWAP1 PUSH2 0x2837 JUMP JUMPDEST SWAP3 POP POP DUP2 SWAP1 SSTORE POP DUP2 PUSH1 0x8 PUSH1 0x0 ADDRESS PUSH20 0xFFFFFFFFFFFFFFFFFFFFFFFFFFFFFFFFFFFFFFFF AND PUSH20 0xFFFFFFFFFFFFFFFFFFFFFFFFFFFFFFFFFFFFFFFF AND DUP2 MSTORE PUSH1 0x20 ADD SWAP1 DUP2 MSTORE PUSH1 0x20 ADD PUSH1 0x0 KECCAK256 PUSH1 0x0 DUP3 DUP3 SLOAD PUSH2 0x15EA SWAP2 SWAP1 PUSH2 0x2837 JUMP JUMPDEST SWAP3 POP POP DUP2 SWAP1 SSTORE POP PUSH1 0x0 PUSH20 0xFFFFFFFFFFFFFFFFFFFFFFFFFFFFFFFFFFFFFFFF AND ADDRESS PUSH20 0xFFFFFFFFFFFFFFFFFFFFFFFFFFFFFFFFFFFFFFFF AND PUSH32 0xDDF252AD1BE2C89B69C2B068FC378DAA952BA7F163C4A11628F55A4DF523B3EF DUP5 PUSH1 0x40 MLOAD PUSH2 0x164F SWAP2 SWAP1 PUSH2 0x2541 JUMP JUMPDEST PUSH1 0x40 MLOAD DUP1 SWAP2 SUB SWAP1 LOG3 JUMPDEST PUSH2 0x1683 ADDRESS PUSH32 0x0 DUP6 PUSH2 0x189B JUMP JUMPDEST PUSH1 0x0 PUSH1 0x2 PUSH8 0xFFFFFFFFFFFFFFFF DUP2 GT ISZERO PUSH2 0x16A0 JUMPI PUSH2 0x169F PUSH2 0x2B95 JUMP JUMPDEST JUMPDEST PUSH1 0x40 MLOAD SWAP1 DUP1 DUP3 MSTORE DUP1 PUSH1 0x20 MUL PUSH1 0x20 ADD DUP3 ADD PUSH1 0x40 MSTORE DUP1 ISZERO PUSH2 0x16CE JUMPI DUP2 PUSH1 0x20 ADD PUSH1 0x20 DUP3 MUL DUP1 CALLDATASIZE DUP4 CALLDATACOPY DUP1 DUP3 ADD SWAP2 POP POP SWAP1 POP JUMPDEST POP SWAP1 POP ADDRESS DUP2 PUSH1 0x0 DUP2 MLOAD DUP2 LT PUSH2 0x16E6 JUMPI PUSH2 0x16E5 PUSH2 0x2BC4 JUMP JUMPDEST JUMPDEST PUSH1 0x20 MUL PUSH1 0x20 ADD ADD SWAP1 PUSH20 0xFFFFFFFFFFFFFFFFFFFFFFFFFFFFFFFFFFFFFFFF AND SWAP1 DUP2 PUSH20 0xFFFFFFFFFFFFFFFFFFFFFFFFFFFFFFFFFFFFFFFF AND DUP2 MSTORE POP POP PUSH32 0x0 PUSH20 0xFFFFFFFFFFFFFFFFFFFFFFFFFFFFFFFFFFFFFFFF AND PUSH4 0xAD5C4648 PUSH1 0x40 MLOAD DUP2 PUSH4 0xFFFFFFFF AND PUSH1 0xE0 SHL DUP2 MSTORE PUSH1 0x4 ADD PUSH1 0x20 PUSH1 0x40 MLOAD DUP1 DUP4 SUB DUP2 DUP7 GAS STATICCALL ISZERO DUP1 ISZERO PUSH2 0x178B JUMPI RETURNDATASIZE PUSH1 0x0 DUP1 RETURNDATACOPY RETURNDATASIZE PUSH1 0x0 REVERT JUMPDEST POP POP POP POP PUSH1 0x40 MLOAD RETURNDATASIZE PUSH1 0x1F NOT PUSH1 0x1F DUP3 ADD AND DUP3 ADD DUP1 PUSH1 0x40 MSTORE POP DUP2 ADD SWAP1 PUSH2 0x17AF SWAP2 SWAP1 PUSH2 0x2C08 JUMP JUMPDEST DUP2 PUSH1 0x1 DUP2 MLOAD DUP2 LT PUSH2 0x17C3 JUMPI PUSH2 0x17C2 PUSH2 0x2BC4 JUMP JUMPDEST JUMPDEST PUSH1 0x20 MUL PUSH1 0x20 ADD ADD SWAP1 PUSH20 0xFFFFFFFFFFFFFFFFFFFFFFFFFFFFFFFFFFFFFFFF AND SWAP1 DUP2 PUSH20 0xFFFFFFFFFFFFFFFFFFFFFFFFFFFFFFFFFFFFFFFF AND DUP2 MSTORE POP POP PUSH32 0x0 PUSH20 0xFFFFFFFFFFFFFFFFFFFFFFFFFFFFFFFFFFFFFFFF AND PUSH4 0x791AC947 DUP6 DUP11 DUP5 DUP12 TIMESTAMP PUSH1 0x40 MLOAD DUP7 PUSH4 0xFFFFFFFF AND PUSH1 0xE0 SHL DUP2 MSTORE PUSH1 0x4 ADD PUSH2 0x185E SWAP6 SWAP5 SWAP4 SWAP3 SWAP2 SWAP1 PUSH2 0x2CF3 JUMP JUMPDEST PUSH1 0x0 PUSH1 0x40 MLOAD DUP1 DUP4 SUB DUP2 PUSH1 0x0 DUP8 DUP1 EXTCODESIZE ISZERO DUP1 ISZERO PUSH2 0x1878 JUMPI PUSH1 0x0 DUP1 REVERT JUMPDEST POP GAS CALL ISZERO DUP1 ISZERO PUSH2 0x188C JUMPI RETURNDATASIZE PUSH1 0x0 DUP1 RETURNDATACOPY RETURNDATASIZE PUSH1 0x0 REVERT JUMPDEST POP POP POP POP POP POP POP POP POP POP POP POP POP JUMP JUMPDEST PUSH1 0x0 PUSH20 0xFFFFFFFFFFFFFFFFFFFFFFFFFFFFFFFFFFFFFFFF AND DUP4 PUSH20 0xFFFFFFFFFFFFFFFFFFFFFFFFFFFFFFFFFFFFFFFF AND EQ ISZERO DUP1 ISZERO PUSH2 0x1905 JUMPI POP PUSH1 0x0 PUSH20 0xFFFFFFFFFFFFFFFFFFFFFFFFFFFFFFFFFFFFFFFF AND DUP3 PUSH20 0xFFFFFFFFFFFFFFFFFFFFFFFFFFFFFFFFFFFFFFFF AND EQ ISZERO JUMPDEST PUSH2 0x1944 JUMPI PUSH1 0x40 MLOAD PUSH32 0x8C379A000000000000000000000000000000000000000000000000000000000 DUP2 MSTORE PUSH1 0x4 ADD PUSH2 0x193B SWAP1 PUSH2 0x2A9D JUMP JUMPDEST PUSH1 0x40 MLOAD DUP1 SWAP2 SUB SWAP1 REVERT JUMPDEST DUP1 PUSH1 0x9 PUSH1 0x0 DUP6 PUSH20 0xFFFFFFFFFFFFFFFFFFFFFFFFFFFFFFFFFFFFFFFF AND PUSH20 0xFFFFFFFFFFFFFFFFFFFFFFFFFFFFFFFFFFFFFFFF AND DUP2 MSTORE PUSH1 0x20 ADD SWAP1 DUP2 MSTORE PUSH1 0x20 ADD PUSH1 0x0 KECCAK256 PUSH1 0x0 DUP5 PUSH20 0xFFFFFFFFFFFFFFFFFFFFFFFFFFFFFFFFFFFFFFFF AND PUSH20 0xFFFFFFFFFFFFFFFFFFFFFFFFFFFFFFFFFFFFFFFF AND DUP2 MSTORE PUSH1 0x20 ADD SWAP1 DUP2 MSTORE PUSH1 0x20 ADD PUSH1 0x0 KECCAK256 DUP2 SWAP1 SSTORE POP DUP2 PUSH20 0xFFFFFFFFFFFFFFFFFFFFFFFFFFFFFFFFFFFFFFFF AND DUP4 PUSH20 0xFFFFFFFFFFFFFFFFFFFFFFFFFFFFFFFFFFFFFFFF AND PUSH32 0x8C5BE1E5EBEC7D5BD14F71427D1E84F3DD0314C0F7B2291E5B200AC8C7C3B925 DUP4 PUSH1 0x40 MLOAD PUSH2 0x1A22 SWAP2 SWAP1 PUSH2 0x2541 JUMP JUMPDEST PUSH1 0x40 MLOAD DUP1 SWAP2 SUB SWAP1 LOG3 POP POP POP JUMP JUMPDEST PUSH1 0x0 PUSH20 0xFFFFFFFFFFFFFFFFFFFFFFFFFFFFFFFFFFFFFFFF AND DUP4 PUSH20 0xFFFFFFFFFFFFFFFFFFFFFFFFFFFFFFFFFFFFFFFF AND SUB PUSH2 0x1A9E JUMPI PUSH1 0x40 MLOAD PUSH32 0x8C379A000000000000000000000000000000000000000000000000000000000 DUP2 MSTORE PUSH1 0x4 ADD PUSH2 0x1A95 SWAP1 PUSH2 0x2D99 JUMP JUMPDEST PUSH1 0x40 MLOAD DUP1 SWAP2 SUB SWAP1 REVERT JUMPDEST DUP1 PUSH1 0x8 PUSH1 0x0 DUP6 PUSH20 0xFFFFFFFFFFFFFFFFFFFFFFFFFFFFFFFFFFFFFFFF AND PUSH20 0xFFFFFFFFFFFFFFFFFFFFFFFFFFFFFFFFFFFFFFFF AND DUP2 MSTORE PUSH1 0x20 ADD SWAP1 DUP2 MSTORE PUSH1 0x20 ADD PUSH1 0x0 KECCAK256 SLOAD LT ISZERO PUSH2 0x1B20 JUMPI PUSH1 0x40 MLOAD PUSH32 0x8C379A000000000000000000000000000000000000000000000000000000000 DUP2 MSTORE PUSH1 0x4 ADD PUSH2 0x1B17 SWAP1 PUSH2 0x2959 JUMP JUMPDEST PUSH1 0x40 MLOAD DUP1 SWAP2 SUB SWAP1 REVERT JUMPDEST PUSH1 0x0 PUSH20 0xFFFFFFFFFFFFFFFFFFFFFFFFFFFFFFFFFFFFFFFF AND DUP3 PUSH20 0xFFFFFFFFFFFFFFFFFFFFFFFFFFFFFFFFFFFFFFFF AND SUB PUSH2 0x1C2E JUMPI DUP1 PUSH1 0x8 PUSH1 0x0 DUP6 PUSH20 0xFFFFFFFFFFFFFFFFFFFFFFFFFFFFFFFFFFFFFFFF AND PUSH20 0xFFFFFFFFFFFFFFFFFFFFFFFFFFFFFFFFFFFFFFFF AND DUP2 MSTORE PUSH1 0x20 ADD SWAP1 DUP2 MSTORE PUSH1 0x20 ADD PUSH1 0x0 KECCAK256 PUSH1 0x0 DUP3 DUP3 SLOAD PUSH2 0x1BA3 SWAP2 SWAP1 PUSH2 0x2837 JUMP JUMPDEST SWAP3 POP POP DUP2 SWAP1 SSTORE POP DUP1 PUSH1 0x3 PUSH1 0x0 DUP3 DUP3 SLOAD PUSH2 0x1BBC SWAP2 SWAP1 PUSH2 0x2837 JUMP JUMPDEST SWAP3 POP POP DUP2 SWAP1 SSTORE POP PUSH1 0x0 PUSH20 0xFFFFFFFFFFFFFFFFFFFFFFFFFFFFFFFFFFFFFFFF AND DUP4 PUSH20 0xFFFFFFFFFFFFFFFFFFFFFFFFFFFFFFFFFFFFFFFF AND PUSH32 0xDDF252AD1BE2C89B69C2B068FC378DAA952BA7F163C4A11628F55A4DF523B3EF DUP4 PUSH1 0x40 MLOAD PUSH2 0x1C21 SWAP2 SWAP1 PUSH2 0x2541 JUMP JUMPDEST PUSH1 0x40 MLOAD DUP1 SWAP2 SUB SWAP1 LOG3 PUSH2 0x233F JUMP JUMPDEST PUSH1 0x6 PUSH1 0x14 SWAP1 SLOAD SWAP1 PUSH2 0x100 EXP SWAP1 DIV PUSH1 0xFF AND ISZERO DUP1 ISZERO PUSH2 0x1C99 JUMPI POP PUSH1 0x5 PUSH1 0x0 SWAP1 SLOAD SWAP1 PUSH2 0x100 EXP SWAP1 DIV PUSH20 0xFFFFFFFFFFFFFFFFFFFFFFFFFFFFFFFFFFFFFFFF AND PUSH20 0xFFFFFFFFFFFFFFFFFFFFFFFFFFFFFFFFFFFFFFFF AND DUP4 PUSH20 0xFFFFFFFFFFFFFFFFFFFFFFFFFFFFFFFFFFFFFFFF AND EQ ISZERO JUMPDEST DUP1 ISZERO PUSH2 0x1CF3 JUMPI POP PUSH1 0x5 PUSH1 0x0 SWAP1 SLOAD SWAP1 PUSH2 0x100 EXP SWAP1 DIV PUSH20 0xFFFFFFFFFFFFFFFFFFFFFFFFFFFFFFFFFFFFFFFF AND PUSH20 0xFFFFFFFFFFFFFFFFFFFFFFFFFFFFFFFFFFFFFFFF AND DUP3 PUSH20 0xFFFFFFFFFFFFFFFFFFFFFFFFFFFFFFFFFFFFFFFF AND EQ ISZERO JUMPDEST ISZERO PUSH2 0x1D33 JUMPI PUSH1 0x40 MLOAD PUSH32 0x8C379A000000000000000000000000000000000000000000000000000000000 DUP2 MSTORE PUSH1 0x4 ADD PUSH2 0x1D2A SWAP1 PUSH2 0x2E05 JUMP JUMPDEST PUSH1 0x40 MLOAD DUP1 SWAP2 SUB SWAP1 REVERT JUMPDEST PUSH1 0x0 PUSH1 0x6 PUSH1 0x0 SWAP1 SLOAD SWAP1 PUSH2 0x100 EXP SWAP1 DIV PUSH20 0xFFFFFFFFFFFFFFFFFFFFFFFFFFFFFFFFFFFFFFFF AND PUSH20 0xFFFFFFFFFFFFFFFFFFFFFFFFFFFFFFFFFFFFFFFF AND DUP5 PUSH20 0xFFFFFFFFFFFFFFFFFFFFFFFFFFFFFFFFFFFFFFFF AND EQ PUSH2 0x1D97 JUMPI PUSH2 0x1D92 PUSH2 0x7B1 JUMP JUMPDEST PUSH2 0x1DA0 JUMP JUMPDEST PUSH2 0x1D9F PUSH2 0xA59 JUMP JUMPDEST JUMPDEST SWAP1 POP PUSH1 0x0 DUP2 EQ DUP1 PUSH2 0x1DFA JUMPI POP PUSH1 0x7 PUSH1 0x0 DUP6 PUSH20 0xFFFFFFFFFFFFFFFFFFFFFFFFFFFFFFFFFFFFFFFF AND PUSH20 0xFFFFFFFFFFFFFFFFFFFFFFFFFFFFFFFFFFFFFFFF AND DUP2 MSTORE PUSH1 0x20 ADD SWAP1 DUP2 MSTORE PUSH1 0x20 ADD PUSH1 0x0 KECCAK256 PUSH1 0x0 SWAP1 SLOAD SWAP1 PUSH2 0x100 EXP SWAP1 DIV PUSH1 0xFF AND JUMPDEST DUP1 PUSH2 0x1E4E JUMPI POP PUSH1 0x7 PUSH1 0x0 DUP5 PUSH20 0xFFFFFFFFFFFFFFFFFFFFFFFFFFFFFFFFFFFFFFFF AND PUSH20 0xFFFFFFFFFFFFFFFFFFFFFFFFFFFFFFFFFFFFFFFF AND DUP2 MSTORE PUSH1 0x20 ADD SWAP1 DUP2 MSTORE PUSH1 0x20 ADD PUSH1 0x0 KECCAK256 PUSH1 0x0 SWAP1 SLOAD SWAP1 PUSH2 0x100 EXP SWAP1 DIV PUSH1 0xFF AND JUMPDEST DUP1 PUSH2 0x1F01 JUMPI POP PUSH1 0x6 PUSH1 0x0 SWAP1 SLOAD SWAP1 PUSH2 0x100 EXP SWAP1 DIV PUSH20 0xFFFFFFFFFFFFFFFFFFFFFFFFFFFFFFFFFFFFFFFF AND PUSH20 0xFFFFFFFFFFFFFFFFFFFFFFFFFFFFFFFFFFFFFFFF AND DUP5 PUSH20 0xFFFFFFFFFFFFFFFFFFFFFFFFFFFFFFFFFFFFFFFF AND EQ ISZERO DUP1 ISZERO PUSH2 0x1F00 JUMPI POP PUSH1 0x6 PUSH1 0x0 SWAP1 SLOAD SWAP1 PUSH2 0x100 EXP SWAP1 DIV PUSH20 0xFFFFFFFFFFFFFFFFFFFFFFFFFFFFFFFFFFFFFFFF AND PUSH20 0xFFFFFFFFFFFFFFFFFFFFFFFFFFFFFFFFFFFFFFFF AND DUP4 PUSH20 0xFFFFFFFFFFFFFFFFFFFFFFFFFFFFFFFFFFFFFFFF AND EQ ISZERO JUMPDEST JUMPDEST ISZERO PUSH2 0x201D JUMPI DUP2 PUSH1 0x8 PUSH1 0x0 DUP7 PUSH20 0xFFFFFFFFFFFFFFFFFFFFFFFFFFFFFFFFFFFFFFFF AND PUSH20 0xFFFFFFFFFFFFFFFFFFFFFFFFFFFFFFFFFFFFFFFF AND DUP2 MSTORE PUSH1 0x20 ADD SWAP1 DUP2 MSTORE PUSH1 0x20 ADD PUSH1 0x0 KECCAK256 PUSH1 0x0 DUP3 DUP3 SLOAD PUSH2 0x1F55 SWAP2 SWAP1 PUSH2 0x2837 JUMP JUMPDEST SWAP3 POP POP DUP2 SWAP1 SSTORE POP DUP2 PUSH1 0x8 PUSH1 0x0 DUP6 PUSH20 0xFFFFFFFFFFFFFFFFFFFFFFFFFFFFFFFFFFFFFFFF AND PUSH20 0xFFFFFFFFFFFFFFFFFFFFFFFFFFFFFFFFFFFFFFFF AND DUP2 MSTORE PUSH1 0x20 ADD SWAP1 DUP2 MSTORE PUSH1 0x20 ADD PUSH1 0x0 KECCAK256 PUSH1 0x0 DUP3 DUP3 SLOAD PUSH2 0x1FAB SWAP2 SWAP1 PUSH2 0x2E25 JUMP JUMPDEST SWAP3 POP POP DUP2 SWAP1 SSTORE POP DUP3 PUSH20 0xFFFFFFFFFFFFFFFFFFFFFFFFFFFFFFFFFFFFFFFF AND DUP5 PUSH20 0xFFFFFFFFFFFFFFFFFFFFFFFFFFFFFFFFFFFFFFFF AND PUSH32 0xDDF252AD1BE2C89B69C2B068FC378DAA952BA7F163C4A11628F55A4DF523B3EF DUP5 PUSH1 0x40 MLOAD PUSH2 0x200F SWAP2 SWAP1 PUSH2 0x2541 JUMP JUMPDEST PUSH1 0x40 MLOAD DUP1 SWAP2 SUB SWAP1 LOG3 POP PUSH2 0x233F JUMP JUMPDEST PUSH1 0x0 PUSH2 0x2710 DUP3 DUP5 PUSH2 0x202E SWAP2 SWAP1 PUSH2 0x286B JUMP JUMPDEST PUSH2 0x2038 SWAP2 SWAP1 PUSH2 0x28DC JUMP JUMPDEST SWAP1 POP PUSH1 0x0 DUP2 DUP5 PUSH2 0x2048 SWAP2 SWAP1 PUSH2 0x2837 JUMP JUMPDEST SWAP1 POP PUSH1 0x0 PUSH1 0x64 PUSH32 0x0 DUP5 PUSH2 0x207A SWAP2 SWAP1 PUSH2 0x286B JUMP JUMPDEST PUSH2 0x2084 SWAP2 SWAP1 PUSH2 0x28DC JUMP JUMPDEST SWAP1 POP PUSH1 0x0 DUP2 DUP5 PUSH2 0x2094 SWAP2 SWAP1 PUSH2 0x2837 JUMP JUMPDEST SWAP1 POP DUP6 PUSH1 0x8 PUSH1 0x0 DUP11 PUSH20 0xFFFFFFFFFFFFFFFFFFFFFFFFFFFFFFFFFFFFFFFF AND PUSH20 0xFFFFFFFFFFFFFFFFFFFFFFFFFFFFFFFFFFFFFFFF AND DUP2 MSTORE PUSH1 0x20 ADD SWAP1 DUP2 MSTORE PUSH1 0x20 ADD PUSH1 0x0 KECCAK256 PUSH1 0x0 DUP3 DUP3 SLOAD PUSH2 0x20E5 SWAP2 SWAP1 PUSH2 0x2837 JUMP JUMPDEST SWAP3 POP POP DUP2 SWAP1 SSTORE POP PUSH1 0x0 DUP2 GT ISZERO PUSH2 0x21F5 JUMPI DUP1 PUSH1 0x8 PUSH1 0x0 PUSH1 0x4 PUSH1 0x0 SWAP1 SLOAD SWAP1 PUSH2 0x100 EXP SWAP1 DIV PUSH20 0xFFFFFFFFFFFFFFFFFFFFFFFFFFFFFFFFFFFFFFFF AND PUSH20 0xFFFFFFFFFFFFFFFFFFFFFFFFFFFFFFFFFFFFFFFF AND PUSH20 0xFFFFFFFFFFFFFFFFFFFFFFFFFFFFFFFFFFFFFFFF AND DUP2 MSTORE PUSH1 0x20 ADD SWAP1 DUP2 MSTORE PUSH1 0x20 ADD PUSH1 0x0 KECCAK256 PUSH1 0x0 DUP3 DUP3 SLOAD PUSH2 0x2166 SWAP2 SWAP1 PUSH2 0x2E25 JUMP JUMPDEST SWAP3 POP POP DUP2 SWAP1 SSTORE POP PUSH1 0x4 PUSH1 0x0 SWAP1 SLOAD SWAP1 PUSH2 0x100 EXP SWAP1 DIV PUSH20 0xFFFFFFFFFFFFFFFFFFFFFFFFFFFFFFFFFFFFFFFF AND PUSH20 0xFFFFFFFFFFFFFFFFFFFFFFFFFFFFFFFFFFFFFFFF AND DUP9 PUSH20 0xFFFFFFFFFFFFFFFFFFFFFFFFFFFFFFFFFFFFFFFF AND PUSH32 0xDDF252AD1BE2C89B69C2B068FC378DAA952BA7F163C4A11628F55A4DF523B3EF DUP4 PUSH1 0x40 MLOAD PUSH2 0x21EC SWAP2 SWAP1 PUSH2 0x2541 JUMP JUMPDEST PUSH1 0x40 MLOAD DUP1 SWAP2 SUB SWAP1 LOG3 JUMPDEST PUSH1 0x0 DUP3 GT ISZERO PUSH2 0x227E JUMPI DUP2 PUSH1 0x3 PUSH1 0x0 DUP3 DUP3 SLOAD PUSH2 0x2210 SWAP2 SWAP1 PUSH2 0x2837 JUMP JUMPDEST SWAP3 POP POP DUP2 SWAP1 SSTORE POP PUSH1 0x0 PUSH20 0xFFFFFFFFFFFFFFFFFFFFFFFFFFFFFFFFFFFFFFFF AND DUP9 PUSH20 0xFFFFFFFFFFFFFFFFFFFFFFFFFFFFFFFFFFFFFFFF AND PUSH32 0xDDF252AD1BE2C89B69C2B068FC378DAA952BA7F163C4A11628F55A4DF523B3EF DUP5 PUSH1 0x40 MLOAD PUSH2 0x2275 SWAP2 SWAP1 PUSH2 0x2541 JUMP JUMPDEST PUSH1 0x40 MLOAD DUP1 SWAP2 SUB SWAP1 LOG3 JUMPDEST DUP3 PUSH1 0x8 PUSH1 0x0 DUP10 PUSH20 0xFFFFFFFFFFFFFFFFFFFFFFFFFFFFFFFFFFFFFFFF AND PUSH20 0xFFFFFFFFFFFFFFFFFFFFFFFFFFFFFFFFFFFFFFFF AND DUP2 MSTORE PUSH1 0x20 ADD SWAP1 DUP2 MSTORE PUSH1 0x20 ADD PUSH1 0x0 KECCAK256 PUSH1 0x0 DUP3 DUP3 SLOAD PUSH2 0x22CD SWAP2 SWAP1 PUSH2 0x2E25 JUMP JUMPDEST SWAP3 POP POP DUP2 SWAP1 SSTORE POP DUP7 PUSH20 0xFFFFFFFFFFFFFFFFFFFFFFFFFFFFFFFFFFFFFFFF AND DUP9 PUSH20 0xFFFFFFFFFFFFFFFFFFFFFFFFFFFFFFFFFFFFFFFF AND PUSH32 0xDDF252AD1BE2C89B69C2B068FC378DAA952BA7F163C4A11628F55A4DF523B3EF DUP6 PUSH1 0x40 MLOAD PUSH2 0x2331 SWAP2 SWAP1 PUSH2 0x2541 JUMP JUMPDEST PUSH1 0x40 MLOAD DUP1 SWAP2 SUB SWAP1 LOG3 POP POP POP POP POP JUMPDEST POP POP POP JUMP JUMPDEST PUSH1 0x0 DUP1 REVERT JUMPDEST PUSH1 0x0 PUSH20 0xFFFFFFFFFFFFFFFFFFFFFFFFFFFFFFFFFFFFFFFF DUP3 AND SWAP1 POP SWAP2 SWAP1 POP JUMP JUMPDEST PUSH1 0x0 PUSH2 0x2374 DUP3 PUSH2 0x2349 JUMP JUMPDEST SWAP1 POP SWAP2 SWAP1 POP JUMP JUMPDEST PUSH2 0x2384 DUP2 PUSH2 0x2369 JUMP JUMPDEST DUP2 EQ PUSH2 0x238F JUMPI PUSH1 0x0 DUP1 REVERT JUMPDEST POP JUMP JUMPDEST PUSH1 0x0 DUP2 CALLDATALOAD SWAP1 POP PUSH2 0x23A1 DUP2 PUSH2 0x237B JUMP JUMPDEST SWAP3 SWAP2 POP POP JUMP JUMPDEST PUSH1 0x0 PUSH1 0x20 DUP3 DUP5 SUB SLT ISZERO PUSH2 0x23BD JUMPI PUSH2 0x23BC PUSH2 0x2344 JUMP JUMPDEST JUMPDEST PUSH1 0x0 PUSH2 0x23CB DUP5 DUP3 DUP6 ADD PUSH2 0x2392 JUMP JUMPDEST SWAP2 POP POP SWAP3 SWAP2 POP POP JUMP JUMPDEST PUSH1 0x0 DUP2 ISZERO ISZERO SWAP1 POP SWAP2 SWAP1 POP JUMP JUMPDEST PUSH2 0x23E9 DUP2 PUSH2 0x23D4 JUMP JUMPDEST DUP3 MSTORE POP POP JUMP JUMPDEST PUSH1 0x0 PUSH1 0x20 DUP3 ADD SWAP1 POP PUSH2 0x2404 PUSH1 0x0 DUP4 ADD DUP5 PUSH2 0x23E0 JUMP JUMPDEST SWAP3 SWAP2 POP POP JUMP JUMPDEST PUSH1 0x0 DUP2 MLOAD SWAP1 POP SWAP2 SWAP1 POP JUMP JUMPDEST PUSH1 0x0 DUP3 DUP3 MSTORE PUSH1 0x20 DUP3 ADD SWAP1 POP SWAP3 SWAP2 POP POP JUMP JUMPDEST PUSH1 0x0 JUMPDEST DUP4 DUP2 LT ISZERO PUSH2 0x2444 JUMPI DUP1 DUP3 ADD MLOAD DUP2 DUP5 ADD MSTORE PUSH1 0x20 DUP2 ADD SWAP1 POP PUSH2 0x2429 JUMP JUMPDEST PUSH1 0x0 DUP5 DUP5 ADD MSTORE POP POP POP POP JUMP JUMPDEST PUSH1 0x0 PUSH1 0x1F NOT PUSH1 0x1F DUP4 ADD AND SWAP1 POP SWAP2 SWAP1 POP JUMP JUMPDEST PUSH1 0x0 PUSH2 0x246C DUP3 PUSH2 0x240A JUMP JUMPDEST PUSH2 0x2476 DUP2 DUP6 PUSH2 0x2415 JUMP JUMPDEST SWAP4 POP PUSH2 0x2486 DUP2 DUP6 PUSH1 0x20 DUP7 ADD PUSH2 0x2426 JUMP JUMPDEST PUSH2 0x248F DUP2 PUSH2 0x2450 JUMP JUMPDEST DUP5 ADD SWAP2 POP POP SWAP3 SWAP2 POP POP JUMP JUMPDEST PUSH1 0x0 PUSH1 0x20 DUP3 ADD SWAP1 POP DUP2 DUP2 SUB PUSH1 0x0 DUP4 ADD MSTORE PUSH2 0x24B4 DUP2 DUP5 PUSH2 0x2461 JUMP JUMPDEST SWAP1 POP SWAP3 SWAP2 POP POP JUMP JUMPDEST PUSH1 0x0 DUP2 SWAP1 POP SWAP2 SWAP1 POP JUMP JUMPDEST PUSH2 0x24CF DUP2 PUSH2 0x24BC JUMP JUMPDEST DUP2 EQ PUSH2 0x24DA JUMPI PUSH1 0x0 DUP1 REVERT JUMPDEST POP JUMP JUMPDEST PUSH1 0x0 DUP2 CALLDATALOAD SWAP1 POP PUSH2 0x24EC DUP2 PUSH2 0x24C6 JUMP JUMPDEST SWAP3 SWAP2 POP POP JUMP JUMPDEST PUSH1 0x0 DUP1 PUSH1 0x40 DUP4 DUP6 SUB SLT ISZERO PUSH2 0x2509 JUMPI PUSH2 0x2508 PUSH2 0x2344 JUMP JUMPDEST JUMPDEST PUSH1 0x0 PUSH2 0x2517 DUP6 DUP3 DUP7 ADD PUSH2 0x2392 JUMP JUMPDEST SWAP3 POP POP PUSH1 0x20 PUSH2 0x2528 DUP6 DUP3 DUP7 ADD PUSH2 0x24DD JUMP JUMPDEST SWAP2 POP POP SWAP3 POP SWAP3 SWAP1 POP JUMP JUMPDEST PUSH2 0x253B DUP2 PUSH2 0x24BC JUMP JUMPDEST DUP3 MSTORE POP POP JUMP JUMPDEST PUSH1 0x0 PUSH1 0x20 DUP3 ADD SWAP1 POP PUSH2 0x2556 PUSH1 0x0 DUP4 ADD DUP5 PUSH2 0x2532 JUMP JUMPDEST SWAP3 SWAP2 POP POP JUMP JUMPDEST PUSH1 0x0 DUP1 PUSH1 0x0 PUSH1 0x60 DUP5 DUP7 SUB SLT ISZERO PUSH2 0x2575 JUMPI PUSH2 0x2574 PUSH2 0x2344 JUMP JUMPDEST JUMPDEST PUSH1 0x0 PUSH2 0x2583 DUP7 DUP3 DUP8 ADD PUSH2 0x2392 JUMP JUMPDEST SWAP4 POP POP PUSH1 0x20 PUSH2 0x2594 DUP7 DUP3 DUP8 ADD PUSH2 0x2392 JUMP JUMPDEST SWAP3 POP POP PUSH1 0x40 PUSH2 0x25A5 DUP7 DUP3 DUP8 ADD PUSH2 0x24DD JUMP JUMPDEST SWAP2 POP POP SWAP3 POP SWAP3 POP SWAP3 JUMP JUMPDEST PUSH2 0x25B8 DUP2 PUSH2 0x2369 JUMP JUMPDEST DUP3 MSTORE POP POP JUMP JUMPDEST PUSH1 0x0 PUSH1 0x20 DUP3 ADD SWAP1 POP PUSH2 0x25D3 PUSH1 0x0 DUP4 ADD DUP5 PUSH2 0x25AF JUMP JUMPDEST SWAP3 SWAP2 POP POP JUMP JUMPDEST PUSH1 0x0 PUSH1 0xFF DUP3 AND SWAP1 POP SWAP2 SWAP1 POP JUMP JUMPDEST PUSH2 0x25EF DUP2 PUSH2 0x25D9 JUMP JUMPDEST DUP3 MSTORE POP POP JUMP JUMPDEST PUSH1 0x0 PUSH1 0x20 DUP3 ADD SWAP1 POP PUSH2 0x260A PUSH1 0x0 DUP4 ADD DUP5 PUSH2 0x25E6 JUMP JUMPDEST SWAP3 SWAP2 POP POP JUMP JUMPDEST PUSH1 0x0 PUSH1 0x20 DUP3 DUP5 SUB SLT ISZERO PUSH2 0x2626 JUMPI PUSH2 0x2625 PUSH2 0x2344 JUMP JUMPDEST JUMPDEST PUSH1 0x0 PUSH2 0x2634 DUP5 DUP3 DUP6 ADD PUSH2 0x24DD JUMP JUMPDEST SWAP2 POP POP SWAP3 SWAP2 POP POP JUMP JUMPDEST PUSH2 0x2646 DUP2 PUSH2 0x23D4 JUMP JUMPDEST DUP2 EQ PUSH2 0x2651 JUMPI PUSH1 0x0 DUP1 REVERT JUMPDEST POP JUMP JUMPDEST PUSH1 0x0 DUP2 CALLDATALOAD SWAP1 POP PUSH2 0x2663 DUP2 PUSH2 0x263D JUMP JUMPDEST SWAP3 SWAP2 POP POP JUMP JUMPDEST PUSH1 0x0 DUP1 PUSH1 0x40 DUP4 DUP6 SUB SLT ISZERO PUSH2 0x2680 JUMPI PUSH2 0x267F PUSH2 0x2344 JUMP JUMPDEST JUMPDEST PUSH1 0x0 PUSH2 0x268E DUP6 DUP3 DUP7 ADD PUSH2 0x2392 JUMP JUMPDEST SWAP3 POP POP PUSH1 0x20 PUSH2 0x269F DUP6 DUP3 DUP7 ADD PUSH2 0x2654 JUMP JUMPDEST SWAP2 POP POP SWAP3 POP SWAP3 SWAP1 POP JUMP JUMPDEST PUSH1 0x0 DUP1 PUSH1 0x40 DUP4 DUP6 SUB SLT ISZERO PUSH2 0x26C0 JUMPI PUSH2 0x26BF PUSH2 0x2344 JUMP JUMPDEST JUMPDEST PUSH1 0x0 PUSH2 0x26CE DUP6 DUP3 DUP7 ADD PUSH2 0x2392 JUMP JUMPDEST SWAP3 POP POP PUSH1 0x20 PUSH2 0x26DF DUP6 DUP3 DUP7 ADD PUSH2 0x2392 JUMP JUMPDEST SWAP2 POP POP SWAP3 POP SWAP3 SWAP1 POP JUMP JUMPDEST PUSH1 0x0 DUP1 PUSH1 0x0 PUSH1 0x60 DUP5 DUP7 SUB SLT ISZERO PUSH2 0x2702 JUMPI PUSH2 0x2701 PUSH2 0x2344 JUMP JUMPDEST JUMPDEST PUSH1 0x0 PUSH2 0x2710 DUP7 DUP3 DUP8 ADD PUSH2 0x24DD JUMP JUMPDEST SWAP4 POP POP PUSH1 0x20 PUSH2 0x2721 DUP7 DUP3 DUP8 ADD PUSH2 0x24DD JUMP JUMPDEST SWAP3 POP POP PUSH1 0x40 PUSH2 0x2732 DUP7 DUP3 DUP8 ADD PUSH2 0x2392 JUMP JUMPDEST SWAP2 POP POP SWAP3 POP SWAP3 POP SWAP3 JUMP JUMPDEST PUSH32 0x4E487B7100000000000000000000000000000000000000000000000000000000 PUSH1 0x0 MSTORE PUSH1 0x22 PUSH1 0x4 MSTORE PUSH1 0x24 PUSH1 0x0 REVERT JUMPDEST PUSH1 0x0 PUSH1 0x2 DUP3 DIV SWAP1 POP PUSH1 0x1 DUP3 AND DUP1 PUSH2 0x2783 JUMPI PUSH1 0x7F DUP3 AND SWAP2 POP JUMPDEST PUSH1 0x20 DUP3 LT DUP2 SUB PUSH2 0x2796 JUMPI PUSH2 0x2795 PUSH2 0x273C JUMP JUMPDEST JUMPDEST POP SWAP2 SWAP1 POP JUMP JUMPDEST PUSH32 0x496E73756666696369656E7420616C6C6F77616E636500000000000000000000 PUSH1 0x0 DUP3 ADD MSTORE POP JUMP JUMPDEST PUSH1 0x0 PUSH2 0x27D2 PUSH1 0x16 DUP4 PUSH2 0x2415 JUMP JUMPDEST SWAP2 POP PUSH2 0x27DD DUP3 PUSH2 0x279C JUMP JUMPDEST PUSH1 0x20 DUP3 ADD SWAP1 POP SWAP2 SWAP1 POP JUMP JUMPDEST PUSH1 0x0 PUSH1 0x20 DUP3 ADD SWAP1 POP DUP2 DUP2 SUB PUSH1 0x0 DUP4 ADD MSTORE PUSH2 0x2801 DUP2 PUSH2 0x27C5 JUMP JUMPDEST SWAP1 POP SWAP2 SWAP1 POP JUMP JUMPDEST PUSH32 0x4E487B7100000000000000000000000000000000000000000000000000000000 PUSH1 0x0 MSTORE PUSH1 0x11 PUSH1 0x4 MSTORE PUSH1 0x24 PUSH1 0x0 REVERT JUMPDEST PUSH1 0x0 PUSH2 0x2842 DUP3 PUSH2 0x24BC JUMP JUMPDEST SWAP2 POP PUSH2 0x284D DUP4 PUSH2 0x24BC JUMP JUMPDEST SWAP3 POP DUP3 DUP3 SUB SWAP1 POP DUP2 DUP2 GT ISZERO PUSH2 0x2865 JUMPI PUSH2 0x2864 PUSH2 0x2808 JUMP JUMPDEST JUMPDEST SWAP3 SWAP2 POP POP JUMP JUMPDEST PUSH1 0x0 PUSH2 0x2876 DUP3 PUSH2 0x24BC JUMP JUMPDEST SWAP2 POP PUSH2 0x2881 DUP4 PUSH2 0x24BC JUMP JUMPDEST SWAP3 POP DUP3 DUP3 MUL PUSH2 0x288F DUP2 PUSH2 0x24BC JUMP JUMPDEST SWAP2 POP DUP3 DUP3 DIV DUP5 EQ DUP4 ISZERO OR PUSH2 0x28A6 JUMPI PUSH2 0x28A5 PUSH2 0x2808 JUMP JUMPDEST JUMPDEST POP SWAP3 SWAP2 POP POP JUMP JUMPDEST PUSH32 0x4E487B7100000000000000000000000000000000000000000000000000000000 PUSH1 0x0 MSTORE PUSH1 0x12 PUSH1 0x4 MSTORE PUSH1 0x24 PUSH1 0x0 REVERT JUMPDEST PUSH1 0x0 PUSH2 0x28E7 DUP3 PUSH2 0x24BC JUMP JUMPDEST SWAP2 POP PUSH2 0x28F2 DUP4 PUSH2 0x24BC JUMP JUMPDEST SWAP3 POP DUP3 PUSH2 0x2902 JUMPI PUSH2 0x2901 PUSH2 0x28AD JUMP JUMPDEST JUMPDEST DUP3 DUP3 DIV SWAP1 POP SWAP3 SWAP2 POP POP JUMP JUMPDEST PUSH32 0x496E73756666696369656E742062616C616E6365000000000000000000000000 PUSH1 0x0 DUP3 ADD MSTORE POP JUMP JUMPDEST PUSH1 0x0 PUSH2 0x2943 PUSH1 0x14 DUP4 PUSH2 0x2415 JUMP JUMPDEST SWAP2 POP PUSH2 0x294E DUP3 PUSH2 0x290D JUMP JUMPDEST PUSH1 0x20 DUP3 ADD SWAP1 POP SWAP2 SWAP1 POP JUMP JUMPDEST PUSH1 0x0 PUSH1 0x20 DUP3 ADD SWAP1 POP DUP2 DUP2 SUB PUSH1 0x0 DUP4 ADD MSTORE PUSH2 0x2972 DUP2 PUSH2 0x2936 JUMP JUMPDEST SWAP1 POP SWAP2 SWAP1 POP JUMP JUMPDEST PUSH32 0x4E6F74206F776E65720000000000000000000000000000000000000000000000 PUSH1 0x0 DUP3 ADD MSTORE POP JUMP JUMPDEST PUSH1 0x0 PUSH2 0x29AF PUSH1 0x9 DUP4 PUSH2 0x2415 JUMP JUMPDEST SWAP2 POP PUSH2 0x29BA DUP3 PUSH2 0x2979 JUMP JUMPDEST PUSH1 0x20 DUP3 ADD SWAP1 POP SWAP2 SWAP1 POP JUMP JUMPDEST PUSH1 0x0 PUSH1 0x20 DUP3 ADD SWAP1 POP DUP2 DUP2 SUB PUSH1 0x0 DUP4 ADD MSTORE PUSH2 0x29DE DUP2 PUSH2 0x29A2 JUMP JUMPDEST SWAP1 POP SWAP2 SWAP1 POP JUMP JUMPDEST PUSH32 0x4E6F74207461782077616C6C6574000000000000000000000000000000000000 PUSH1 0x0 DUP3 ADD MSTORE POP JUMP JUMPDEST PUSH1 0x0 PUSH2 0x2A1B PUSH1 0xE DUP4 PUSH2 0x2415 JUMP JUMPDEST SWAP2 POP PUSH2 0x2A26 DUP3 PUSH2 0x29E5 JUMP JUMPDEST PUSH1 0x20 DUP3 ADD SWAP1 POP SWAP2 SWAP1 POP JUMP JUMPDEST PUSH1 0x0 PUSH1 0x20 DUP3 ADD SWAP1 POP DUP2 DUP2 SUB PUSH1 0x0 DUP4 ADD MSTORE PUSH2 0x2A4A DUP2 PUSH2 0x2A0E JUMP JUMPDEST SWAP1 POP SWAP2 SWAP1 POP JUMP JUMPDEST PUSH32 0x5A65726F20616464726573730000000000000000000000000000000000000000 PUSH1 0x0 DUP3 ADD MSTORE POP JUMP JUMPDEST PUSH1 0x0 PUSH2 0x2A87 PUSH1 0xC DUP4 PUSH2 0x2415 JUMP JUMPDEST SWAP2 POP PUSH2 0x2A92 DUP3 PUSH2 0x2A51 JUMP JUMPDEST PUSH1 0x20 DUP3 ADD SWAP1 POP SWAP2 SWAP1 POP JUMP JUMPDEST PUSH1 0x0 PUSH1 0x20 DUP3 ADD SWAP1 POP DUP2 DUP2 SUB PUSH1 0x0 DUP4 ADD MSTORE PUSH2 0x2AB6 DUP2 PUSH2 0x2A7A JUMP JUMPDEST SWAP1 POP SWAP2 SWAP1 POP JUMP JUMPDEST PUSH32 0x5061697220616C72656164792073657400000000000000000000000000000000 PUSH1 0x0 DUP3 ADD MSTORE POP JUMP JUMPDEST PUSH1 0x0 PUSH2 0x2AF3 PUSH1 0x10 DUP4 PUSH2 0x2415 JUMP JUMPDEST SWAP2 POP PUSH2 0x2AFE DUP3 PUSH2 0x2ABD JUMP JUMPDEST PUSH1 0x20 DUP3 ADD SWAP1 POP SWAP2 SWAP1 POP JUMP JUMPDEST PUSH1 0x0 PUSH1 0x20 DUP3 ADD SWAP1 POP DUP2 DUP2 SUB PUSH1 0x0 DUP4 ADD MSTORE PUSH2 0x2B22 DUP2 PUSH2 0x2AE6 JUMP JUMPDEST SWAP1 POP SWAP2 SWAP1 POP JUMP JUMPDEST PUSH32 0x74726164696E67206E6F7420656E61626C656400000000000000000000000000 PUSH1 0x0 DUP3 ADD MSTORE POP JUMP JUMPDEST PUSH1 0x0 PUSH2 0x2B5F PUSH1 0x13 DUP4 PUSH2 0x2415 JUMP JUMPDEST SWAP2 POP PUSH2 0x2B6A DUP3 PUSH2 0x2B29 JUMP JUMPDEST PUSH1 0x20 DUP3 ADD SWAP1 POP SWAP2 SWAP1 POP JUMP JUMPDEST PUSH1 0x0 PUSH1 0x20 DUP3 ADD SWAP1 POP DUP2 DUP2 SUB PUSH1 0x0 DUP4 ADD MSTORE PUSH2 0x2B8E DUP2 PUSH2 0x2B52 JUMP JUMPDEST SWAP1 POP SWAP2 SWAP1 POP JUMP JUMPDEST PUSH32 0x4E487B7100000000000000000000000000000000000000000000000000000000 PUSH1 0x0 MSTORE PUSH1 0x41 PUSH1 0x4 MSTORE PUSH1 0x24 PUSH1 0x0 REVERT JUMPDEST PUSH32 0x4E487B7100000000000000000000000000000000000000000000000000000000 PUSH1 0x0 MSTORE PUSH1 0x32 PUSH1 0x4 MSTORE PUSH1 0x24 PUSH1 0x0 REVERT JUMPDEST PUSH1 0x0 DUP2 MLOAD SWAP1 POP PUSH2 0x2C02 DUP2 PUSH2 0x237B JUMP JUMPDEST SWAP3 SWAP2 POP POP JUMP JUMPDEST PUSH1 0x0 PUSH1 0x20 DUP3 DUP5 SUB SLT ISZERO PUSH2 0x2C1E JUMPI PUSH2 0x2C1D PUSH2 0x2344 JUMP JUMPDEST JUMPDEST PUSH1 0x0 PUSH2 0x2C2C DUP5 DUP3 DUP6 ADD PUSH2 0x2BF3 JUMP JUMPDEST SWAP2 POP POP SWAP3 SWAP2 POP POP JUMP JUMPDEST PUSH1 0x0 DUP2 MLOAD SWAP1 POP SWAP2 SWAP1 POP JUMP JUMPDEST PUSH1 0x0 DUP3 DUP3 MSTORE PUSH1 0x20 DUP3 ADD SWAP1 POP SWAP3 SWAP2 POP POP JUMP JUMPDEST PUSH1 0x0 DUP2 SWAP1 POP PUSH1 0x20 DUP3 ADD SWAP1 POP SWAP2 SWAP1 POP JUMP JUMPDEST PUSH2 0x2C6A DUP2 PUSH2 0x2369 JUMP JUMPDEST DUP3 MSTORE POP POP JUMP JUMPDEST PUSH1 0x0 PUSH2 0x2C7C DUP4 DUP4 PUSH2 0x2C61 JUMP JUMPDEST PUSH1 0x20 DUP4 ADD SWAP1 POP SWAP3 SWAP2 POP POP JUMP JUMPDEST PUSH1 0x0 PUSH1 0x20 DUP3 ADD SWAP1 POP SWAP2 SWAP1 POP JUMP JUMPDEST PUSH1 0x0 PUSH2 0x2CA0 DUP3 PUSH2 0x2C35 JUMP JUMPDEST PUSH2 0x2CAA DUP2 DUP6 PUSH2 0x2C40 JUMP JUMPDEST SWAP4 POP PUSH2 0x2CB5 DUP4 PUSH2 0x2C51 JUMP JUMPDEST DUP1 PUSH1 0x0 JUMPDEST DUP4 DUP2 LT ISZERO PUSH2 0x2CE6 JUMPI DUP2 MLOAD PUSH2 0x2CCD DUP9 DUP3 PUSH2 0x2C70 JUMP JUMPDEST SWAP8 POP PUSH2 0x2CD8 DUP4 PUSH2 0x2C88 JUMP JUMPDEST SWAP3 POP POP PUSH1 0x1 DUP2 ADD SWAP1 POP PUSH2 0x2CB9 JUMP JUMPDEST POP DUP6 SWAP4 POP POP POP POP SWAP3 SWAP2 POP POP JUMP JUMPDEST PUSH1 0x0 PUSH1 0xA0 DUP3 ADD SWAP1 POP PUSH2 0x2D08 PUSH1 0x0 DUP4 ADD DUP9 PUSH2 0x2532 JUMP JUMPDEST PUSH2 0x2D15 PUSH1 0x20 DUP4 ADD DUP8 PUSH2 0x2532 JUMP JUMPDEST DUP2 DUP2 SUB PUSH1 0x40 DUP4 ADD MSTORE PUSH2 0x2D27 DUP2 DUP7 PUSH2 0x2C95 JUMP JUMPDEST SWAP1 POP PUSH2 0x2D36 PUSH1 0x60 DUP4 ADD DUP6 PUSH2 0x25AF JUMP JUMPDEST PUSH2 0x2D43 PUSH1 0x80 DUP4 ADD DUP5 PUSH2 0x2532 JUMP JUMPDEST SWAP7 SWAP6 POP POP POP POP POP POP JUMP JUMPDEST PUSH32 0x53656E646572207A65726F206164647265737300000000000000000000000000 PUSH1 0x0 DUP3 ADD MSTORE POP JUMP JUMPDEST PUSH1 0x0 PUSH2 0x2D83 PUSH1 0x13 DUP4 PUSH2 0x2415 JUMP JUMPDEST SWAP2 POP PUSH2 0x2D8E DUP3 PUSH2 0x2D4D JUMP JUMPDEST PUSH1 0x20 DUP3 ADD SWAP1 POP SWAP2 SWAP1 POP JUMP JUMPDEST PUSH1 0x0 PUSH1 0x20 DUP3 ADD SWAP1 POP DUP2 DUP2 SUB PUSH1 0x0 DUP4 ADD MSTORE PUSH2 0x2DB2 DUP2 PUSH2 0x2D76 JUMP JUMPDEST SWAP1 POP SWAP2 SWAP1 POP JUMP JUMPDEST PUSH32 0x54726164696E67206E6F7420656E61626C656400000000000000000000000000 PUSH1 0x0 DUP3 ADD MSTORE POP JUMP JUMPDEST PUSH1 0x0 PUSH2 0x2DEF PUSH1 0x13 DUP4 PUSH2 0x2415 JUMP JUMPDEST SWAP2 POP PUSH2 0x2DFA DUP3 PUSH2 0x2DB9 JUMP JUMPDEST PUSH1 0x20 DUP3 ADD SWAP1 POP SWAP2 SWAP1 POP JUMP JUMPDEST PUSH1 0x0 PUSH1 0x20 DUP3 ADD SWAP1 POP DUP2 DUP2 SUB PUSH1 0x0 DUP4 ADD MSTORE PUSH2 0x2E1E DUP2 PUSH2 0x2DE2 JUMP JUMPDEST SWAP1 POP SWAP2 SWAP1 POP JUMP JUMPDEST PUSH1 0x0 PUSH2 0x2E30 DUP3 PUSH2 0x24BC JUMP JUMPDEST SWAP2 POP PUSH2 0x2E3B DUP4 PUSH2 0x24BC JUMP JUMPDEST SWAP3 POP DUP3 DUP3 ADD SWAP1 POP DUP1 DUP3 GT ISZERO PUSH2 0x2E53 JUMPI PUSH2 0x2E52 PUSH2 0x2808 JUMP JUMPDEST JUMPDEST SWAP3 SWAP2 POP POP JUMP INVALID LOG2 PUSH5 0x6970667358 0x22 SLT KECCAK256 PUSH17 0xAC9CA9DD4595158CECE49E0F0BC138FB8E SWAP10 0xE TIMESTAMP 0xDD CHAINID KECCAK256 SWAP12 0xD7 0xCE 0xD4 REVERT 0xD2 PUSH3 0xA66473 PUSH16 0x6C634300081400330000000000000000 "
				},
				"gasEstimates": {
					"creation": {
						"codeDepositCost": "2383800",
						"executionCost": "infinite",
						"totalCost": "infinite"
					},
					"external": {
						"allowance(address,address)": "infinite",
						"approve(address,uint256)": "infinite",
						"balanceOf(address)": "2909",
						"burn(uint256)": "infinite",
						"burnRatio()": "infinite",
						"currentBuyBps()": "infinite",
						"currentSellBps()": "infinite",
						"decimals()": "2517",
						"enableTrading()": "54624",
						"initialSupply()": "419",
						"isExemptFromTax(address)": "2869",
						"name()": "infinite",
						"owner()": "2581",
						"pairAddress()": "2625",
						"routerAddress()": "infinite",
						"sellWithTax(uint256,uint256,address)": "infinite",
						"setTaxExemption(address,bool)": "infinite",
						"setUniswapPair(address)": "29107",
						"symbol()": "infinite",
						"taxWallet()": "2648",
						"taxesPaused()": "2567",
						"toggleTaxesPaused()": "32270",
						"totalSupply()": "2519",
						"tradingEnabled()": "2610",
						"transfer(address,uint256)": "infinite",
						"transferFrom(address,address,uint256)": "infinite",
						"transferTaxWallet(address)": "64431"
					},
					"internal": {
						"_approve(address,address,uint256)": "infinite",
						"_transfer(address,address,uint256)": "infinite"
					}
				},
				"methodIdentifiers": {
					"allowance(address,address)": "dd62ed3e",
					"approve(address,uint256)": "095ea7b3",
					"balanceOf(address)": "70a08231",
					"burn(uint256)": "42966c68",
					"burnRatio()": "5192c82c",
					"currentBuyBps()": "771c4936",
					"currentSellBps()": "395c0d00",
					"decimals()": "313ce567",
					"enableTrading()": "8a8c523c",
					"initialSupply()": "378dc3dc",
					"isExemptFromTax(address)": "060e7844",
					"name()": "06fdde03",
					"owner()": "8da5cb5b",
					"pairAddress()": "a8b08982",
					"routerAddress()": "3268cc56",
					"sellWithTax(uint256,uint256,address)": "f256ee83",
					"setTaxExemption(address,bool)": "b64e3c74",
					"setUniswapPair(address)": "d5aed6bf",
					"symbol()": "95d89b41",
					"taxWallet()": "2dc0562d",
					"taxesPaused()": "57d14a09",
					"toggleTaxesPaused()": "ac2ff1b3",
					"totalSupply()": "18160ddd",
					"tradingEnabled()": "4ada218b",
					"transfer(address,uint256)": "a9059cbb",
					"transferFrom(address,address,uint256)": "23b872dd",
					"transferTaxWallet(address)": "e17514ab"
				}
			},
			"storageLayout": {
				"storage": [
					{
						"astId": 25,
						"contract": "contracts/PlanetZephyrosV1.sol:PlanetZephyros",
						"label": "name",
						"offset": 0,
						"slot": "0",
						"type": "t_string_storage"
					},
					{
						"astId": 28,
						"contract": "contracts/PlanetZephyrosV1.sol:PlanetZephyros",
						"label": "symbol",
						"offset": 0,
						"slot": "1",
						"type": "t_string_storage"
					},
					{
						"astId": 31,
						"contract": "contracts/PlanetZephyrosV1.sol:PlanetZephyros",
						"label": "decimals",
						"offset": 0,
						"slot": "2",
						"type": "t_uint8"
					},
					{
						"astId": 33,
						"contract": "contracts/PlanetZephyrosV1.sol:PlanetZephyros",
						"label": "totalSupply",
						"offset": 0,
						"slot": "3",
						"type": "t_uint256"
					},
					{
						"astId": 43,
						"contract": "contracts/PlanetZephyrosV1.sol:PlanetZephyros",
						"label": "taxWallet",
						"offset": 0,
						"slot": "4",
						"type": "t_address"
					},
					{
						"astId": 51,
						"contract": "contracts/PlanetZephyrosV1.sol:PlanetZephyros",
						"label": "owner",
						"offset": 0,
						"slot": "5",
						"type": "t_address"
					},
					{
						"astId": 53,
						"contract": "contracts/PlanetZephyrosV1.sol:PlanetZephyros",
						"label": "pairAddress",
						"offset": 0,
						"slot": "6",
						"type": "t_address"
					},
					{
						"astId": 58,
						"contract": "contracts/PlanetZephyrosV1.sol:PlanetZephyros",
						"label": "tradingEnabled",
						"offset": 20,
						"slot": "6",
						"type": "t_bool"
					},
					{
						"astId": 60,
						"contract": "contracts/PlanetZephyrosV1.sol:PlanetZephyros",
						"label": "taxesPaused",
						"offset": 21,
						"slot": "6",
						"type": "t_bool"
					},
					{
						"astId": 64,
						"contract": "contracts/PlanetZephyrosV1.sol:PlanetZephyros",
						"label": "isExemptFromTax",
						"offset": 0,
						"slot": "7",
						"type": "t_mapping(t_address,t_bool)"
					},
					{
						"astId": 68,
						"contract": "contracts/PlanetZephyrosV1.sol:PlanetZephyros",
						"label": "_balances",
						"offset": 0,
						"slot": "8",
						"type": "t_mapping(t_address,t_uint256)"
					},
					{
						"astId": 74,
						"contract": "contracts/PlanetZephyrosV1.sol:PlanetZephyros",
						"label": "_allowances",
						"offset": 0,
						"slot": "9",
						"type": "t_mapping(t_address,t_mapping(t_address,t_uint256))"
					}
				],
				"types": {
					"t_address": {
						"encoding": "inplace",
						"label": "address",
						"numberOfBytes": "20"
					},
					"t_bool": {
						"encoding": "inplace",
						"label": "bool",
						"numberOfBytes": "1"
					},
					"t_mapping(t_address,t_bool)": {
						"encoding": "mapping",
						"key": "t_address",
						"label": "mapping(address => bool)",
						"numberOfBytes": "32",
						"value": "t_bool"
					},
					"t_mapping(t_address,t_mapping(t_address,t_uint256))": {
						"encoding": "mapping",
						"key": "t_address",
						"label": "mapping(address => mapping(address => uint256))",
						"numberOfBytes": "32",
						"value": "t_mapping(t_address,t_uint256)"
					},
					"t_mapping(t_address,t_uint256)": {
						"encoding": "mapping",
						"key": "t_address",
						"label": "mapping(address => uint256)",
						"numberOfBytes": "32",
						"value": "t_uint256"
					},
					"t_string_storage": {
						"encoding": "bytes",
						"label": "string",
						"numberOfBytes": "32"
					},
					"t_uint256": {
						"encoding": "inplace",
						"label": "uint256",
						"numberOfBytes": "32"
					},
					"t_uint8": {
						"encoding": "inplace",
						"label": "uint8",
						"numberOfBytes": "1"
					}
				}
			},
			"userdoc": {
				"kind": "user",
				"methods": {},
				"version": 1
			}
		}
	}
}