{
	"data": {
		"bytecode": {
			"linkReferences": {},
			"object": "60806040523480156200001157600080fd5b5060405162005e9838038062005e98833981810160405281019062000037919062000235565b33600073ffffffffffffffffffffffffffffffffffffffff168173ffffffffffffffffffffffffffffffffffffffff1603620000ad5760006040517f1e4fbdf7000000000000000000000000000000000000000000000000000000008152600401620000a4919062000278565b60405180910390fd5b620000be816200010760201b60201c565b5080600460006101000a81548173ffffffffffffffffffffffffffffffffffffffff021916908373ffffffffffffffffffffffffffffffffffffffff1602179055505062000295565b60008060009054906101000a900473ffffffffffffffffffffffffffffffffffffffff169050816000806101000a81548173ffffffffffffffffffffffffffffffffffffffff021916908373ffffffffffffffffffffffffffffffffffffffff1602179055508173ffffffffffffffffffffffffffffffffffffffff168173ffffffffffffffffffffffffffffffffffffffff167f8be0079c531659141344cd1fd0a4f28419497f9722a3daafe3b4186f6b6457e060405160405180910390a35050565b600080fd5b600073ffffffffffffffffffffffffffffffffffffffff82169050919050565b6000620001fd82620001d0565b9050919050565b6200020f81620001f0565b81146200021b57600080fd5b50565b6000815190506200022f8162000204565b92915050565b6000602082840312156200024e576200024d620001cb565b5b60006200025e848285016200021e565b91505092915050565b6200027281620001f0565b82525050565b60006020820190506200028f600083018462000267565b92915050565b615bf380620002a56000396000f3fe608060405234801561001057600080fd5b50600436106101425760003560e01c806366333422116100b8578063a174e77a1161007c578063a174e77a14610341578063b135bbb01461035d578063eaf7ac9f1461037b578063eaf98d2314610399578063ec07fb74146103b7578063f2fde38b146103e757610142565b806366333422146102c5578063715018a6146102e157806381f7d942146102eb5780638da5cb5b146103075780639a342df01461032557610142565b8063166866c71161010a578063166866c714610207578063312d7bbc14610223578063338d14b01461023f57806339e84bb01461025b57806344bf95c61461027757806359927044146102a757610142565b8063060b89c51461014757806306b5fbe814610163578063117a5b90146101935780631525ff7d146101cd57806316489068146101e9575b600080fd5b610161600480360381019061015c9190613dc2565b610403565b005b61017d60048036038101906101789190613e02565b6104a9565b60405161018a9190613e3e565b60405180910390f35b6101ad60048036038101906101a89190613e59565b6104c1565b6040516101c49b9a99989796959493929190613f28565b60405180910390f35b6101e760048036038101906101e29190613e02565b6105a2565b005b6101f16105ee565b6040516101fe9190613fd3565b60405180910390f35b610221600480360381019061021c9190613e02565b6105f4565b005b61023d60048036038101906102389190613e59565b6106f0565b005b6102596004803603810190610254919061401a565b61187e565b005b610275600480360381019061027091906146b7565b611890565b005b610291600480360381019061028c9190613e02565b612576565b60405161029e91906147bd565b60405180910390f35b6102af612596565b6040516102bc91906147d8565b60405180910390f35b6102df60048036038101906102da91906147f3565b6125bc565b005b6102e9612a19565b005b61030560048036038101906103009190613dc2565b612a2d565b005b61030f612b0e565b60405161031c91906147d8565b60405180910390f35b61033f600480360381019061033a9190614846565b612b37565b005b61035b60048036038101906103569190613e02565b61333e565b005b6103656133a0565b6040516103729190613e3e565b60405180910390f35b6103836133a6565b6040516103909190613e3e565b60405180910390f35b6103a16133ad565b6040516103ae9190613e3e565b60405180910390f35b6103d160048036038101906103cc9190613e02565b6133b2565b6040516103de91906147bd565b60405180910390f35b61040160048036038101906103fc9190613e02565b6133d2565b005b61040b613458565b600260008373ffffffffffffffffffffffffffffffffffffffff1673ffffffffffffffffffffffffffffffffffffffff16815260200190815260200160002060009054906101000a900460ff1661046157600080fd5b80600360008473ffffffffffffffffffffffffffffffffffffffff1673ffffffffffffffffffffffffffffffffffffffff168152602001908152602001600020819055505050565b60036020528060005260406000206000915090505481565b60066020528060005260406000206000915090508060000160009054906101000a900473ffffffffffffffffffffffffffffffffffffffff169080601c0154908060200160009054906101000a900460ff16908060200160019054906101000a900473ffffffffffffffffffffffffffffffffffffffff169080603c0154908060400160009054906101000a900460ff16908060400160019054906101000a900473ffffffffffffffffffffffffffffffffffffffff16908060410154908060420154908060430154908060440160009054906101000a900460ff1690508b565b6105aa613458565b80600460006101000a81548173ffffffffffffffffffffffffffffffffffffffff021916908373ffffffffffffffffffffffffffffffffffffffff16021790555050565b60055481565b6105fc613458565b600260008273ffffffffffffffffffffffffffffffffffffffff1673ffffffffffffffffffffffffffffffffffffffff16815260200190815260200160002060009054906101000a900460ff1661065257600080fd5b6000600260008373ffffffffffffffffffffffffffffffffffffffff1673ffffffffffffffffffffffffffffffffffffffff16815260200190815260200160002060006101000a81548160ff021916908315150217905550600360008273ffffffffffffffffffffffffffffffffffffffff1673ffffffffffffffffffffffffffffffffffffffff1681526020019081526020016000206000905550565b60006006600083815260200190815260200160002090508060440160009054906101000a900460ff16610758576040517f08c379a000000000000000000000000000000000000000000000000000000000815260040161074f90614995565b60405180910390fd5b600073ffffffffffffffffffffffffffffffffffffffff168160200160019054906101000a900473ffffffffffffffffffffffffffffffffffffffff1673ffffffffffffffffffffffffffffffffffffffff161480156107ca575062093a8081604201546107c691906149e4565b4210155b156109fb578060400160019054906101000a900473ffffffffffffffffffffffffffffffffffffffff1673ffffffffffffffffffffffffffffffffffffffff1663a9059cbb8260000160009054906101000a900473ffffffffffffffffffffffffffffffffffffffff1683604101546040518363ffffffff1660e01b8152600401610856929190614a18565b6020604051808303816000875af1158015610875573d6000803e3d6000fd5b505050506040513d601f19601f820116820180604052508101906108999190614a6d565b5060005b600381101561099a578160010181600381106108bc576108bb614a9a565b5b0160009054906101000a900473ffffffffffffffffffffffffffffffffffffffff1673ffffffffffffffffffffffffffffffffffffffff166323b872dd308460000160009054906101000a900473ffffffffffffffffffffffffffffffffffffffff1685600401856003811061093557610934614a9a565b5b01546040518463ffffffff1660e01b815260040161095593929190614ac9565b600060405180830381600087803b15801561096f57600080fd5b505af1158015610983573d6000803e3d6000fd5b50505050808061099290614b00565b91505061089d565b5060008160440160006101000a81548160ff0219169083151502179055507f70513431fe7f36611e21ff99aa229c501699d89165596d29c077697d177422d482600060016040516109ed93929190614b48565b60405180910390a15061187b565b60008160430154118015610a21575062093a808160430154610a1d91906149e4565b4210155b15610e31578060200160009054906101000a900460ff161580610a5357508060400160009054906101000a900460ff16155b15610e30578060400160019054906101000a900473ffffffffffffffffffffffffffffffffffffffff1673ffffffffffffffffffffffffffffffffffffffff1663a9059cbb8260000160009054906101000a900473ffffffffffffffffffffffffffffffffffffffff1683604101546040518363ffffffff1660e01b8152600401610adf929190614a18565b6020604051808303816000875af1158015610afe573d6000803e3d6000fd5b505050506040513d601f19601f82011682018060405250810190610b229190614a6d565b508060400160019054906101000a900473ffffffffffffffffffffffffffffffffffffffff1673ffffffffffffffffffffffffffffffffffffffff1663a9059cbb8260200160019054906101000a900473ffffffffffffffffffffffffffffffffffffffff1683604101546040518363ffffffff1660e01b8152600401610baa929190614a18565b6020604051808303816000875af1158015610bc9573d6000803e3d6000fd5b505050506040513d601f19601f82011682018060405250810190610bed9190614a6d565b5060005b6003811015610dcf57816001018160038110610c1057610c0f614a9a565b5b0160009054906101000a900473ffffffffffffffffffffffffffffffffffffffff1673ffffffffffffffffffffffffffffffffffffffff166323b872dd308460000160009054906101000a900473ffffffffffffffffffffffffffffffffffffffff16856004018560038110610c8957610c88614a9a565b5b01546040518463ffffffff1660e01b8152600401610ca993929190614ac9565b600060405180830381600087803b158015610cc357600080fd5b505af1158015610cd7573d6000803e3d6000fd5b50505050816021018160038110610cf157610cf0614a9a565b5b0160009054906101000a900473ffffffffffffffffffffffffffffffffffffffff1673ffffffffffffffffffffffffffffffffffffffff166323b872dd308460200160019054906101000a900473ffffffffffffffffffffffffffffffffffffffff16856024018560038110610d6a57610d69614a9a565b5b01546040518463ffffffff1660e01b8152600401610d8a93929190614ac9565b600060405180830381600087803b158015610da457600080fd5b505af1158015610db8573d6000803e3d6000fd5b505050508080610dc790614b00565b915050610bf1565b5060008160440160006101000a81548160ff0219169083151502179055507f70513431fe7f36611e21ff99aa229c501699d89165596d29c077697d177422d48260006001604051610e2293929190614b48565b60405180910390a15061187b565b5b8060200160009054906101000a900460ff168015610e5d57508060400160009054906101000a900460ff165b610e9c576040517f08c379a0000000000000000000000000000000000000000000000000000000008152600401610e9390614bcb565b60405180910390fd5b6000806000805b600381101561101757600085601d018260038110610ec457610ec3614a9a565b5b01549050600086600a018260038110610ee057610edf614a9a565b5b60050201600580602002604051908101604052809291908260058015610f1b576020028201915b815481526020019060010190808311610f07575b50505050509050600087603d018460038110610f3a57610f39614a9a565b5b01549050600088602a018260038110610f5657610f55614a9a565b5b60050201600580602002604051908101604052809291908260058015610f91576020028201915b815481526020019060010190808311610f7d575b505050505090506000806000610fa786856134df565b9250925092508160ff168360ff161115610fce578a80610fc690614b00565b9b5050610fec565b8260ff168260ff161115610feb578980610fe790614b00565b9a50505b5b8060010b89610ffb9190614bf5565b985050505050505050808061100f90614b00565b915050610ea3565b5060006002856041015461102b9190614c39565b90506000606460028361103e9190614c39565b6110489190614caa565b9050600081836110589190614cdb565b90508660400160019054906101000a900473ffffffffffffffffffffffffffffffffffffffff1673ffffffffffffffffffffffffffffffffffffffff1663a9059cbb600460009054906101000a900473ffffffffffffffffffffffffffffffffffffffff16846040518363ffffffff1660e01b81526004016110db929190614a18565b6020604051808303816000875af11580156110fa573d6000803e3d6000fd5b505050506040513d601f19601f8201168201806040525081019061111e9190614a6d565b5060008060009050868811156111fd578860000160009054906101000a900473ffffffffffffffffffffffffffffffffffffffff1691508860400160019054906101000a900473ffffffffffffffffffffffffffffffffffffffff1673ffffffffffffffffffffffffffffffffffffffff1663a9059cbb83856040518363ffffffff1660e01b81526004016111b4929190614a18565b6020604051808303816000875af11580156111d3573d6000803e3d6000fd5b505050506040513d601f19601f820116820180604052508101906111f79190614a6d565b50611637565b878711156112d4578860200160019054906101000a900473ffffffffffffffffffffffffffffffffffffffff1691508860400160019054906101000a900473ffffffffffffffffffffffffffffffffffffffff1673ffffffffffffffffffffffffffffffffffffffff1663a9059cbb83856040518363ffffffff1660e01b815260040161128b929190614a18565b6020604051808303816000875af11580156112aa573d6000803e3d6000fd5b505050506040513d601f19601f820116820180604052508101906112ce9190614a6d565b50611636565b60008613156113ac578860000160009054906101000a900473ffffffffffffffffffffffffffffffffffffffff1691508860400160019054906101000a900473ffffffffffffffffffffffffffffffffffffffff1673ffffffffffffffffffffffffffffffffffffffff1663a9059cbb83856040518363ffffffff1660e01b8152600401611363929190614a18565b6020604051808303816000875af1158015611382573d6000803e3d6000fd5b505050506040513d601f19601f820116820180604052508101906113a69190614a6d565b50611635565b6000861215611484578860200160019054906101000a900473ffffffffffffffffffffffffffffffffffffffff1691508860400160019054906101000a900473ffffffffffffffffffffffffffffffffffffffff1673ffffffffffffffffffffffffffffffffffffffff1663a9059cbb83856040518363ffffffff1660e01b815260040161143b929190614a18565b6020604051808303816000875af115801561145a573d6000803e3d6000fd5b505050506040513d601f19601f8201168201806040525081019061147e9190614a6d565b50611634565b6001905060006002846114979190614caa565b90508960400160019054906101000a900473ffffffffffffffffffffffffffffffffffffffff1673ffffffffffffffffffffffffffffffffffffffff1663a9059cbb8b60000160009054906101000a900473ffffffffffffffffffffffffffffffffffffffff16836040518363ffffffff1660e01b815260040161151c929190614a18565b6020604051808303816000875af115801561153b573d6000803e3d6000fd5b505050506040513d601f19601f8201168201806040525081019061155f9190614a6d565b508960400160019054906101000a900473ffffffffffffffffffffffffffffffffffffffff1673ffffffffffffffffffffffffffffffffffffffff1663a9059cbb8b60200160019054906101000a900473ffffffffffffffffffffffffffffffffffffffff1683876115d19190614cdb565b6040518363ffffffff1660e01b81526004016115ee929190614a18565b6020604051808303816000875af115801561160d573d6000803e3d6000fd5b505050506040513d601f19601f820116820180604052508101906116319190614a6d565b50505b5b5b5b60005b60038110156118185789600101816003811061165957611658614a9a565b5b0160009054906101000a900473ffffffffffffffffffffffffffffffffffffffff1673ffffffffffffffffffffffffffffffffffffffff166323b872dd308c60000160009054906101000a900473ffffffffffffffffffffffffffffffffffffffff168d60040185600381106116d2576116d1614a9a565b5b01546040518463ffffffff1660e01b81526004016116f293929190614ac9565b600060405180830381600087803b15801561170c57600080fd5b505af1158015611720573d6000803e3d6000fd5b5050505089602101816003811061173a57611739614a9a565b5b0160009054906101000a900473ffffffffffffffffffffffffffffffffffffffff1673ffffffffffffffffffffffffffffffffffffffff166323b872dd308c60200160019054906101000a900473ffffffffffffffffffffffffffffffffffffffff168d60240185600381106117b3576117b2614a9a565b5b01546040518463ffffffff1660e01b81526004016117d393929190614ac9565b600060405180830381600087803b1580156117ed57600080fd5b505af1158015611801573d6000803e3d6000fd5b50505050808061181090614b00565b91505061163a565b5060008960440160006101000a81548160ff0219169083151502179055507f70513431fe7f36611e21ff99aa229c501699d89165596d29c077697d177422d48a838360405161186993929190614b48565b60405180910390a15050505050505050505b50565b611886613458565b8060058190555050565b600360008a73ffffffffffffffffffffffffffffffffffffffff1673ffffffffffffffffffffffffffffffffffffffff16815260200190815260200160002054881015611912576040517f08c379a000000000000000000000000000000000000000000000000000000000815260040161190990614d5b565b60405180910390fd5b600260008a73ffffffffffffffffffffffffffffffffffffffff1673ffffffffffffffffffffffffffffffffffffffff16815260200190815260200160002060009054906101000a900460ff1661199e576040517f08c379a000000000000000000000000000000000000000000000000000000000815260040161199590614dc7565b60405180910390fd5b6000801b84036119e3576040517f08c379a00000000000000000000000000000000000000000000000000000000081526004016119da90614e33565b60405180910390fd5b6119eb613a74565b60005b6003811015611e8557600160008a8360038110611a0e57611a0d614a9a565b5b602002015173ffffffffffffffffffffffffffffffffffffffff1673ffffffffffffffffffffffffffffffffffffffff16815260200190815260200160002060009054906101000a900460ff16611a9a576040517f08c379a0000000000000000000000000000000000000000000000000000000008152600401611a9190614e9f565b60405180910390fd5b6000898260038110611aaf57611aae614a9a565b5b602002015190503373ffffffffffffffffffffffffffffffffffffffff168173ffffffffffffffffffffffffffffffffffffffff16636352211e8b8560038110611afc57611afb614a9a565b5b60200201516040518263ffffffff1660e01b8152600401611b1d9190613e3e565b602060405180830381865afa158015611b3a573d6000803e3d6000fd5b505050506040513d601f19601f82011682018060405250810190611b5e9190614ed4565b73ffffffffffffffffffffffffffffffffffffffff1614611bb4576040517f08c379a0000000000000000000000000000000000000000000000000000000008152600401611bab90614f4d565b60405180910390fd5b3073ffffffffffffffffffffffffffffffffffffffff168173ffffffffffffffffffffffffffffffffffffffff1663081812fc8b8560038110611bfa57611bf9614a9a565b5b60200201516040518263ffffffff1660e01b8152600401611c1b9190613e3e565b602060405180830381865afa158015611c38573d6000803e3d6000fd5b505050506040513d601f19601f82011682018060405250810190611c5c9190614ed4565b73ffffffffffffffffffffffffffffffffffffffff1614611cb2576040517f08c379a0000000000000000000000000000000000000000000000000000000008152600401611ca990614fb9565b60405180910390fd5b8073ffffffffffffffffffffffffffffffffffffffff166323b872dd33308c8660038110611ce357611ce2614a9a565b5b60200201516040518463ffffffff1660e01b8152600401611d0693929190614ac9565b600060405180830381600087803b158015611d2057600080fd5b505af1158015611d34573d6000803e3d6000fd5b50505050611d88898360038110611d4e57611d4d614a9a565b5b6020020151898460038110611d6657611d65614a9a565b5b6020020151868560038110611d7e57611d7d614a9a565b5b6020020151613707565b611dc7576040517f08c379a0000000000000000000000000000000000000000000000000000000008152600401611dbe90615025565b60405180910390fd5b82888360038110611ddb57611dda614a9a565b5b602002015160068110611df157611df0614a9a565b5b602002015115611e36576040517f08c379a0000000000000000000000000000000000000000000000000000000008152600401611e2d90615091565b60405180910390fd5b600183898460038110611e4c57611e4b614a9a565b5b602002015160068110611e6257611e61614a9a565b5b602002019015159081151581525050508080611e7d90614b00565b9150506119ee565b50611e8f8461374c565b600088888686604051602001611ea8949392919061545c565b604051602081830303815290604052805190602001209050858114611f02576040517f08c379a0000000000000000000000000000000000000000000000000000000008152600401611ef990614e33565b60405180910390fd5b60008b90508073ffffffffffffffffffffffffffffffffffffffff166323b872dd33308e6040518463ffffffff1660e01b8152600401611f4493929190614ac9565b6020604051808303816000875af1158015611f63573d6000803e3d6000fd5b505050506040513d601f19601f82011682018060405250810190611f879190614a6d565b50600060076000815480929190611f9d90614b00565b919050559050604051806102e001604052803373ffffffffffffffffffffffffffffffffffffffff1681526020018c81526020018b81526020018881526020018781526020018a81526020018981526020016040518060600160405280600081526020016000815260200160008152508152602001600015158152602001600073ffffffffffffffffffffffffffffffffffffffff1681526020016040518060600160405280600073ffffffffffffffffffffffffffffffffffffffff1673ffffffffffffffffffffffffffffffffffffffff168152602001600073ffffffffffffffffffffffffffffffffffffffff1673ffffffffffffffffffffffffffffffffffffffff168152602001600073ffffffffffffffffffffffffffffffffffffffff1673ffffffffffffffffffffffffffffffffffffffff1681525081526020016040518060600160405280600081526020016000815260200160008152508152602001604051806060016040528060405180602001604052806000815250815260200160405180602001604052806000815250815260200160405180602001604052806000815250815250815260200160405180606001604052806040518060a0016040528060008152602001600081526020016000815260200160008152602001600081525081526020016040518060a0016040528060008152602001600081526020016000815260200160008152602001600081525081526020016040518060a00160405280600081526020016000815260200160008152602001600081526020016000815250815250815260200160405180606001604052806000815260200160008152602001600081525081526020016000801b815260200160405180606001604052806000815260200160008152602001600081525081526020016000151581526020018373ffffffffffffffffffffffffffffffffffffffff1681526020018d815260200142815260200160008152602001600115158152506006600083815260200190815260200160002060008201518160000160006101000a81548173ffffffffffffffffffffffffffffffffffffffff021916908373ffffffffffffffffffffffffffffffffffffffff1602179055506020820151816001019060036122ef929190613a96565b50604082015181600401906003612307929190613b13565b5060608201518160070190600361231f929190613b53565b50608082015181600a01906003612337929190613b9f565b5060a08201518160190190600361234f929190613b13565b5060c082015181601c015560e082015181601d01906003612371929190613b13565b506101008201518160200160006101000a81548160ff0219169083151502179055506101208201518160200160016101000a81548173ffffffffffffffffffffffffffffffffffffffff021916908373ffffffffffffffffffffffffffffffffffffffff160217905550610140820151816021019060036123f3929190613a96565b506101608201518160240190600361240c929190613b13565b5061018082015181602701906003612425929190613b53565b506101a082015181602a0190600361243e929190613b9f565b506101c082015181603901906003612457929190613b13565b506101e082015181603c015561020082015181603d0190600361247b929190613b13565b506102208201518160400160006101000a81548160ff0219169083151502179055506102408201518160400160016101000a81548173ffffffffffffffffffffffffffffffffffffffff021916908373ffffffffffffffffffffffffffffffffffffffff160217905550610260820151816041015561028082015181604201556102a082015181604301556102c08201518160440160006101000a81548160ff0219169083151502179055509050507f6200407c0ea392b8107b21a9be480acd41fda186d04bed28cc7da2d4b53d56e281338f8f60405161255f94939291906154a9565b60405180910390a150505050505050505050505050565b60026020528060005260406000206000915054906101000a900460ff1681565b600460009054906101000a900473ffffffffffffffffffffffffffffffffffffffff1681565b60006006600085815260200190815260200160002090508060440160009054906101000a900460ff16612624576040517f08c379a000000000000000000000000000000000000000000000000000000000815260040161261b90614995565b60405180910390fd5b60008160000160009054906101000a900473ffffffffffffffffffffffffffffffffffffffff1673ffffffffffffffffffffffffffffffffffffffff163373ffffffffffffffffffffffffffffffffffffffff1614905060008260200160019054906101000a900473ffffffffffffffffffffffffffffffffffffffff1673ffffffffffffffffffffffffffffffffffffffff163373ffffffffffffffffffffffffffffffffffffffff1614905081806126db5750805b61271a576040517f08c379a00000000000000000000000000000000000000000000000000000000081526004016127119061553a565b60405180910390fd5b60008261272b5783603c0154612731565b83601c01545b9050600083612751578460400160009054906101000a900460ff16612764565b8460200160009054906101000a900460ff165b905080156127a7576040517f08c379a000000000000000000000000000000000000000000000000000000000815260040161279e906155a6565b60405180910390fd5b600087876000600381106127be576127bd614a9a565b5b6020020151886001600381106127d7576127d6614a9a565b5b6020020151896002600381106127f0576127ef614a9a565b5b602002015160405160200161280894939291906155e7565b604051602081830303815290604052805190602001209050828114612862576040517f08c379a000000000000000000000000000000000000000000000000000000000815260040161285990615681565b60405180910390fd5b61286a613bf0565b60005b600381101561296557600089826003811061288b5761288a614a9a565b5b60200201519050600381106128d5576040517f08c379a00000000000000000000000000000000000000000000000000000000081526004016128cc906156ed565b60405180910390fd5b8281600381106128e8576128e7614a9a565b5b60200201511561292d576040517f08c379a000000000000000000000000000000000000000000000000000000000815260040161292490615759565b60405180910390fd5b600183826003811061294257612941614a9a565b5b60200201901515908115158152505050808061295d90614b00565b91505061286d565b5085156129a2578787601d0190600361297f929190613b13565b5060018760200160006101000a81548160ff0219169083151502179055506129d4565b8787603d019060036129b5929190613b13565b5060018760400160006101000a81548160ff0219169083151502179055505b7fca89dc79ca69ffb087e833ce20114ee29dc90b746538266055b11d9b008efe188a33604051612a05929190615779565b60405180910390a150505050505050505050565b612a21613458565b612a2b60006138f9565b565b612a35613458565b600073ffffffffffffffffffffffffffffffffffffffff168273ffffffffffffffffffffffffffffffffffffffff1603612a6e57600080fd5b6001600260008473ffffffffffffffffffffffffffffffffffffffff1673ffffffffffffffffffffffffffffffffffffffff16815260200190815260200160002060006101000a81548160ff02191690831515021790555080600360008473ffffffffffffffffffffffffffffffffffffffff1673ffffffffffffffffffffffffffffffffffffffff168152602001908152602001600020819055505050565b60008060009054906101000a900473ffffffffffffffffffffffffffffffffffffffff16905090565b6000600660008a815260200190815260200160002090508060440160009054906101000a900460ff16612b9f576040517f08c379a0000000000000000000000000000000000000000000000000000000008152600401612b9690614995565b60405180910390fd5b600073ffffffffffffffffffffffffffffffffffffffff168160200160019054906101000a900473ffffffffffffffffffffffffffffffffffffffff1673ffffffffffffffffffffffffffffffffffffffff1614612c32576040517f08c379a0000000000000000000000000000000000000000000000000000000008152600401612c29906157ee565b60405180910390fd5b6000801b8503612c77576040517f08c379a0000000000000000000000000000000000000000000000000000000008152600401612c6e90614e33565b60405180910390fd5b612c7f613a74565b60005b600381101561311957600160008b8360038110612ca257612ca1614a9a565b5b602002015173ffffffffffffffffffffffffffffffffffffffff1673ffffffffffffffffffffffffffffffffffffffff16815260200190815260200160002060009054906101000a900460ff16612d2e576040517f08c379a0000000000000000000000000000000000000000000000000000000008152600401612d2590614e9f565b60405180910390fd5b60008a8260038110612d4357612d42614a9a565b5b602002015190503373ffffffffffffffffffffffffffffffffffffffff168173ffffffffffffffffffffffffffffffffffffffff16636352211e8c8560038110612d9057612d8f614a9a565b5b60200201516040518263ffffffff1660e01b8152600401612db19190613e3e565b602060405180830381865afa158015612dce573d6000803e3d6000fd5b505050506040513d601f19601f82011682018060405250810190612df29190614ed4565b73ffffffffffffffffffffffffffffffffffffffff1614612e48576040517f08c379a0000000000000000000000000000000000000000000000000000000008152600401612e3f90614f4d565b60405180910390fd5b3073ffffffffffffffffffffffffffffffffffffffff168173ffffffffffffffffffffffffffffffffffffffff1663081812fc8c8560038110612e8e57612e8d614a9a565b5b60200201516040518263ffffffff1660e01b8152600401612eaf9190613e3e565b602060405180830381865afa158015612ecc573d6000803e3d6000fd5b505050506040513d601f19601f82011682018060405250810190612ef09190614ed4565b73ffffffffffffffffffffffffffffffffffffffff1614612f46576040517f08c379a0000000000000000000000000000000000000000000000000000000008152600401612f3d90614fb9565b60405180910390fd5b8073ffffffffffffffffffffffffffffffffffffffff166323b872dd33308d8660038110612f7757612f76614a9a565b5b60200201516040518463ffffffff1660e01b8152600401612f9a93929190614ac9565b600060405180830381600087803b158015612fb457600080fd5b505af1158015612fc8573d6000803e3d6000fd5b5050505061301c8a8360038110612fe257612fe1614a9a565b5b60200201518a8460038110612ffa57612ff9614a9a565b5b602002015187856003811061301257613011614a9a565b5b6020020151613707565b61305b576040517f08c379a000000000000000000000000000000000000000000000000000000000815260040161305290615025565b60405180910390fd5b8289836003811061306f5761306e614a9a565b5b60200201516006811061308557613084614a9a565b5b6020020151156130ca576040517f08c379a00000000000000000000000000000000000000000000000000000000081526004016130c190615091565b60405180910390fd5b6001838a84600381106130e0576130df614a9a565b5b6020020151600681106130f6576130f5614a9a565b5b60200201901515908115158152505050808061311190614b00565b915050612c82565b506131238561374c565b60008989878760405160200161313c949392919061545c565b604051602081830303815290604052805190602001209050868114613196576040517f08c379a000000000000000000000000000000000000000000000000000000000815260040161318d90614e33565b60405180910390fd5b8260400160019054906101000a900473ffffffffffffffffffffffffffffffffffffffff1673ffffffffffffffffffffffffffffffffffffffff166323b872dd333086604101546040518463ffffffff1660e01b81526004016131fb93929190614ac9565b6020604051808303816000875af115801561321a573d6000803e3d6000fd5b505050506040513d601f19601f8201168201806040525081019061323e9190614a6d565b50338360200160016101000a81548173ffffffffffffffffffffffffffffffffffffffff021916908373ffffffffffffffffffffffffffffffffffffffff1602179055508983602101906003613295929190613a96565b5088836024019060036132a9929190613b13565b5085836027019060036132bd929190613b53565b508483602a019060036132d1929190613b9f565b5087836039019060036132e5929190613b13565b508683603c01819055504283604301819055507f45c4f9cbafe186141862608c493f28b823fde4c2142bedc3f5169961a73fdd228b33604051613329929190615779565b60405180910390a15050505050505050505050565b613346613458565b60018060008373ffffffffffffffffffffffffffffffffffffffff1673ffffffffffffffffffffffffffffffffffffffff16815260200190815260200160002060006101000a81548160ff02191690831515021790555050565b60075481565b62093a8081565b600281565b60016020528060005260406000206000915054906101000a900460ff1681565b6133da613458565b600073ffffffffffffffffffffffffffffffffffffffff168173ffffffffffffffffffffffffffffffffffffffff160361344c5760006040517f1e4fbdf700000000000000000000000000000000000000000000000000000000815260040161344391906147d8565b60405180910390fd5b613455816138f9565b50565b6134606139bd565b73ffffffffffffffffffffffffffffffffffffffff1661347e612b0e565b73ffffffffffffffffffffffffffffffffffffffff16146134dd576134a16139bd565b6040517f118cdaa70000000000000000000000000000000000000000000000000000000081526004016134d491906147d8565b60405180910390fd5b565b6000806000806002866003600581106134fb576134fa614a9a565b5b602002015161350a9190614caa565b8660006005811061351e5761351d614a9a565b5b602002015161352d91906149e4565b9050600060028760026005811061354757613546614a9a565b5b60200201516135569190614caa565b8760016005811061356a57613569614a9a565b5b602002015161357991906149e4565b905060008760046005811061359157613590614a9a565b5b6020020151905060006002886003600581106135b0576135af614a9a565b5b60200201516135bf9190614caa565b886000600581106135d3576135d2614a9a565b5b60200201516135e291906149e4565b905060006002896002600581106135fc576135fb614a9a565b5b602002015161360b9190614caa565b8960016005811061361f5761361e614a9a565b5b602002015161362e91906149e4565b905060008960046005811061364657613645614a9a565b5b60200201519050600085841161365d57600061366a565b85846136699190614cdb565b5b9050600081861161367c576000613689565b81866136889190614cdb565b5b9050600084891161369b5760006136a8565b84896136a79190614cdb565b5b905060008185116136ba5760006136c7565b81856136c69190614cdb565b5b9050808311156136da5760019c506136e8565b828111156136e75760019b505b5b80836136f4919061580e565b9a50505050505050505050509250925092565b600080848460405160200161371d929190615851565b60405160208183030381529060405280519060200120905061374283600554836139c5565b9150509392505050565b60007f6f0d47b12e2c2f7083eb5622541f9c3930e56fc3e46e89e132673f05a079baff905060007f580396b706c510b55b097eb36445183c918e5a4f9ac52a70d27fca23c3b3aab1905060007f485e0367e5fc50bb417a308dd03744e1466805de7920df91842adb1ea4f7e6dd905060007fcd6c0ac12ab10dca7ec251758f1197f248f2d56e0c50d78ccf8861a474defe68905060005b60038110156138f157600086826003811061380157613800614a9a565b5b602002015180519060200120905085811415801561381f5750848114155b801561382b5750838114155b80156138375750828114155b1561384257506138de565b6000805b6003811015613896578289826003811061386357613862614a9a565b5b6020020151805190602001200361388357818061387f90614b00565b9250505b808061388e90614b00565b915050613846565b5060018111156138db576040517f08c379a00000000000000000000000000000000000000000000000000000000081526004016138d2906158c9565b60405180910390fd5b50505b80806138e990614b00565b9150506137e3565b505050505050565b60008060009054906101000a900473ffffffffffffffffffffffffffffffffffffffff169050816000806101000a81548173ffffffffffffffffffffffffffffffffffffffff021916908373ffffffffffffffffffffffffffffffffffffffff1602179055508173ffffffffffffffffffffffffffffffffffffffff168173ffffffffffffffffffffffffffffffffffffffff167f8be0079c531659141344cd1fd0a4f28419497f9722a3daafe3b4186f6b6457e060405160405180910390a35050565b600033905090565b6000826139d285846139dc565b1490509392505050565b60008082905060005b8451811015613a2757613a1282868381518110613a0557613a04614a9a565b5b6020026020010151613a32565b91508080613a1f90614b00565b9150506139e5565b508091505092915050565b6000818310613a4a57613a458284613a5d565b613a55565b613a548383613a5d565b5b905092915050565b600082600052816020526040600020905092915050565b6040518060c00160405280600690602082028036833780820191505090505090565b8260038101928215613b02579160200282015b82811115613b015782518260006101000a81548173ffffffffffffffffffffffffffffffffffffffff021916908373ffffffffffffffffffffffffffffffffffffffff16021790555091602001919060010190613aa9565b5b509050613b0f9190613c12565b5090565b8260038101928215613b42579160200282015b82811115613b41578251825591602001919060010190613b26565b5b509050613b4f9190613c12565b5090565b8260038101928215613b8e579160200282015b82811115613b8d578251829081613b7d9190615aeb565b5091602001919060010190613b66565b5b509050613b9b9190613c2f565b5090565b8260036005028101928215613bdf579160200282015b82811115613bde57825182906005613bce929190613c53565b5091602001919060050190613bb5565b5b509050613bec9190613c93565b5090565b6040518060600160405280600390602082028036833780820191505090505090565b5b80821115613c2b576000816000905550600101613c13565b5090565b5b80821115613c4f5760008181613c469190613cb7565b50600101613c30565b5090565b8260058101928215613c82579160200282015b82811115613c81578251825591602001919060010190613c66565b5b509050613c8f9190613c12565b5090565b5b80821115613cb35760008181613caa9190613cf7565b50600501613c94565b5090565b508054613cc390615918565b6000825580601f10613cd55750613cf4565b601f016020900490600052602060002090810190613cf39190613c12565b5b50565b506000815560010160008155600101600081556001016000815560010160009055565b6000604051905090565b600080fd5b600080fd5b600073ffffffffffffffffffffffffffffffffffffffff82169050919050565b6000613d5982613d2e565b9050919050565b613d6981613d4e565b8114613d7457600080fd5b50565b600081359050613d8681613d60565b92915050565b6000819050919050565b613d9f81613d8c565b8114613daa57600080fd5b50565b600081359050613dbc81613d96565b92915050565b60008060408385031215613dd957613dd8613d24565b5b6000613de785828601613d77565b9250506020613df885828601613dad565b9150509250929050565b600060208284031215613e1857613e17613d24565b5b6000613e2684828501613d77565b91505092915050565b613e3881613d8c565b82525050565b6000602082019050613e536000830184613e2f565b92915050565b600060208284031215613e6f57613e6e613d24565b5b6000613e7d84828501613dad565b91505092915050565b613e8f81613d4e565b82525050565b6000819050919050565b613ea881613e95565b82525050565b60008115159050919050565b613ec381613eae565b82525050565b6000819050919050565b6000613eee613ee9613ee484613d2e565b613ec9565b613d2e565b9050919050565b6000613f0082613ed3565b9050919050565b6000613f1282613ef5565b9050919050565b613f2281613f07565b82525050565b600061016082019050613f3e600083018e613e86565b613f4b602083018d613e9f565b613f58604083018c613eba565b613f65606083018b613e86565b613f72608083018a613e9f565b613f7f60a0830189613eba565b613f8c60c0830188613f19565b613f9960e0830187613e2f565b613fa7610100830186613e2f565b613fb5610120830185613e2f565b613fc3610140830184613eba565b9c9b505050505050505050505050565b6000602082019050613fe86000830184613e9f565b92915050565b613ff781613e95565b811461400257600080fd5b50565b60008135905061401481613fee565b92915050565b6000602082840312156140305761402f613d24565b5b600061403e84828501614005565b91505092915050565b600080fd5b6000601f19601f8301169050919050565b7f4e487b7100000000000000000000000000000000000000000000000000000000600052604160045260246000fd5b6140958261404c565b810181811067ffffffffffffffff821117156140b4576140b361405d565b5b80604052505050565b60006140c7613d1a565b90506140d3828261408c565b919050565b600067ffffffffffffffff8211156140f3576140f261405d565b5b602082029050919050565b600080fd5b6000614116614111846140d8565b6140bd565b905080602084028301858111156141305761412f6140fe565b5b835b8181101561415957806141458882613d77565b845260208401935050602081019050614132565b5050509392505050565b600082601f83011261417857614177614047565b5b6003614185848285614103565b91505092915050565b600067ffffffffffffffff8211156141a9576141a861405d565b5b602082029050919050565b60006141c76141c28461418e565b6140bd565b905080602084028301858111156141e1576141e06140fe565b5b835b8181101561420a57806141f68882613dad565b8452602084019350506020810190506141e3565b5050509392505050565b600082601f83011261422957614228614047565b5b60036142368482856141b4565b91505092915050565b600067ffffffffffffffff82111561425a5761425961405d565b5b602082029050919050565b600080fd5b600067ffffffffffffffff8211156142855761428461405d565b5b61428e8261404c565b9050602081019050919050565b82818337600083830152505050565b60006142bd6142b88461426a565b6140bd565b9050828152602081018484840111156142d9576142d8614265565b5b6142e484828561429b565b509392505050565b600082601f83011261430157614300614047565b5b81356143118482602086016142aa565b91505092915050565b600061432d6143288461423f565b6140bd565b90508060208402830185811115614347576143466140fe565b5b835b8181101561438e57803567ffffffffffffffff81111561436c5761436b614047565b5b80860161437989826142ec565b85526020850194505050602081019050614349565b5050509392505050565b600082601f8301126143ad576143ac614047565b5b60036143ba84828561431a565b91505092915050565b600067ffffffffffffffff8211156143de576143dd61405d565b5b602082029050919050565b600067ffffffffffffffff8211156144045761440361405d565b5b602082029050919050565b600061442261441d846143e9565b6140bd565b9050806020840283018581111561443c5761443b6140fe565b5b835b8181101561446557806144518882613dad565b84526020840193505060208101905061443e565b5050509392505050565b600082601f83011261448457614483614047565b5b600561449184828561440f565b91505092915050565b60006144ad6144a8846143c3565b6140bd565b90508060a084028301858111156144c7576144c66140fe565b5b835b818110156144f057806144dc888261446f565b84526020840193505060a0810190506144c9565b5050509392505050565b600082601f83011261450f5761450e614047565b5b600361451c84828561449a565b91505092915050565b600067ffffffffffffffff8211156145405761453f61405d565b5b602082029050919050565b600067ffffffffffffffff8211156145665761456561405d565b5b602082029050602081019050919050565b600061458a6145858461454b565b6140bd565b905080838252602082019050602084028301858111156145ad576145ac6140fe565b5b835b818110156145d657806145c28882614005565b8452602084019350506020810190506145af565b5050509392505050565b600082601f8301126145f5576145f4614047565b5b8135614605848260208601614577565b91505092915050565b600061462161461c84614525565b6140bd565b9050806020840283018581111561463b5761463a6140fe565b5b835b8181101561468257803567ffffffffffffffff8111156146605761465f614047565b5b80860161466d89826145e0565b8552602085019450505060208101905061463d565b5050509392505050565b600082601f8301126146a1576146a0614047565b5b60036146ae84828561460e565b91505092915050565b60008060008060008060008060006103a08a8c0312156146da576146d9613d24565b5b60006146e88c828d01613d77565b99505060206146f98c828d01613dad565b985050604061470a8c828d01614163565b97505060a061471b8c828d01614214565b96505061010061472d8c828d01614214565b95505061016061473f8c828d01614005565b9450506101808a013567ffffffffffffffff81111561476157614760613d29565b5b61476d8c828d01614398565b9350506101a061477f8c828d016144fa565b9250506103808a013567ffffffffffffffff8111156147a1576147a0613d29565b5b6147ad8c828d0161468c565b9150509295985092959850929598565b60006020820190506147d26000830184613eba565b92915050565b60006020820190506147ed6000830184613e86565b92915050565b600080600060a0848603121561480c5761480b613d24565b5b600061481a86828701613dad565b935050602061482b86828701613dad565b925050604061483c86828701614214565b9150509250925092565b600080600080600080600080610380898b03121561486757614866613d24565b5b60006148758b828c01613dad565b98505060206148868b828c01614163565b97505060806148978b828c01614214565b96505060e06148a88b828c01614214565b9550506101406148ba8b828c01614005565b94505061016089013567ffffffffffffffff8111156148dc576148db613d29565b5b6148e88b828c01614398565b9350506101806148fa8b828c016144fa565b92505061036089013567ffffffffffffffff81111561491c5761491b613d29565b5b6149288b828c0161468c565b9150509295985092959890939650565b600082825260208201905092915050565b7f496e616374697665000000000000000000000000000000000000000000000000600082015250565b600061497f600883614938565b915061498a82614949565b602082019050919050565b600060208201905081810360008301526149ae81614972565b9050919050565b7f4e487b7100000000000000000000000000000000000000000000000000000000600052601160045260246000fd5b60006149ef82613d8c565b91506149fa83613d8c565b9250828201905080821115614a1257614a116149b5565b5b92915050565b6000604082019050614a2d6000830185613e86565b614a3a6020830184613e2f565b9392505050565b614a4a81613eae565b8114614a5557600080fd5b50565b600081519050614a6781614a41565b92915050565b600060208284031215614a8357614a82613d24565b5b6000614a9184828501614a58565b91505092915050565b7f4e487b7100000000000000000000000000000000000000000000000000000000600052603260045260246000fd5b6000606082019050614ade6000830186613e86565b614aeb6020830185613e86565b614af86040830184613e2f565b949350505050565b6000614b0b82613d8c565b91507fffffffffffffffffffffffffffffffffffffffffffffffffffffffffffffffff8203614b3d57614b3c6149b5565b5b600182019050919050565b6000606082019050614b5d6000830186613e2f565b614b6a6020830185613e86565b614b776040830184613eba565b949350505050565b7f4e6f742072657665616c00000000000000000000000000000000000000000000600082015250565b6000614bb5600a83614938565b9150614bc082614b7f565b602082019050919050565b60006020820190508181036000830152614be481614ba8565b9050919050565b6000819050919050565b6000614c0082614beb565b9150614c0b83614beb565b925082820190508281121560008312168382126000841215161715614c3357614c326149b5565b5b92915050565b6000614c4482613d8c565b9150614c4f83613d8c565b9250828202614c5d81613d8c565b91508282048414831517614c7457614c736149b5565b5b5092915050565b7f4e487b7100000000000000000000000000000000000000000000000000000000600052601260045260246000fd5b6000614cb582613d8c565b9150614cc083613d8c565b925082614cd057614ccf614c7b565b5b828204905092915050565b6000614ce682613d8c565b9150614cf183613d8c565b9250828203905081811115614d0957614d086149b5565b5b92915050565b7f5374616b65206c6f770000000000000000000000000000000000000000000000600082015250565b6000614d45600983614938565b9150614d5082614d0f565b602082019050919050565b60006020820190508181036000830152614d7481614d38565b9050919050565b7f546f6b656e20696e76616c696400000000000000000000000000000000000000600082015250565b6000614db1600d83614938565b9150614dbc82614d7b565b602082019050919050565b60006020820190508181036000830152614de081614da4565b9050919050565b7f42616420636f6d6d697400000000000000000000000000000000000000000000600082015250565b6000614e1d600a83614938565b9150614e2882614de7565b602082019050919050565b60006020820190508181036000830152614e4c81614e10565b9050919050565b7f436f6c6c20696e76616c69640000000000000000000000000000000000000000600082015250565b6000614e89600c83614938565b9150614e9482614e53565b602082019050919050565b60006020820190508181036000830152614eb881614e7c565b9050919050565b600081519050614ece81613d60565b92915050565b600060208284031215614eea57614ee9613d24565b5b6000614ef884828501614ebf565b91505092915050565b7f4e6f74206f776e00000000000000000000000000000000000000000000000000600082015250565b6000614f37600783614938565b9150614f4282614f01565b602082019050919050565b60006020820190508181036000830152614f6681614f2a565b9050919050565b7f4e6f7420617070726f7665640000000000000000000000000000000000000000600082015250565b6000614fa3600c83614938565b9150614fae82614f6d565b602082019050919050565b60006020820190508181036000830152614fd281614f96565b9050919050565b7f496e76616c696420636861726163746572000000000000000000000000000000600082015250565b600061500f601183614938565b915061501a82614fd9565b602082019050919050565b6000602082019050818103600083015261503e81615002565b9050919050565b7f4475706c69636174652063686172616374657200000000000000000000000000600082015250565b600061507b601383614938565b915061508682615045565b602082019050919050565b600060208201905081810360008301526150aa8161506e565b9050919050565b600060039050919050565b600081905092915050565b6000819050919050565b6150da81613d4e565b82525050565b60006150ec83836150d1565b60208301905092915050565b6000602082019050919050565b61510e816150b1565b61511881846150bc565b9250615123826150c7565b8060005b8381101561515457815161513b87826150e0565b9650615146836150f8565b925050600181019050615127565b505050505050565b600060039050919050565b600081905092915050565b6000819050919050565b61518581613d8c565b82525050565b6000615197838361517c565b60208301905092915050565b6000602082019050919050565b6151b98161515c565b6151c38184615167565b92506151ce82615172565b8060005b838110156151ff5781516151e6878261518b565b96506151f1836151a3565b9250506001810190506151d2565b505050505050565b600060039050919050565b600081905092915050565b6000819050919050565b600081519050919050565b600082825260208201905092915050565b60005b83811015615261578082015181840152602081019050615246565b60008484015250505050565b600061527882615227565b6152828185615232565b9350615292818560208601615243565b61529b8161404c565b840191505092915050565b60006152b2838361526d565b905092915050565b6000602082019050919050565b60006152d282615207565b6152dc8185615212565b9350836020820285016152ee8561521d565b8060005b8581101561532a578484038952815161530b85826152a6565b9450615316836152ba565b925060208a019950506001810190506152f2565b50829750879550505050505092915050565b600060039050919050565b600081905092915050565b6000819050919050565b600060059050919050565b600081905092915050565b6000819050919050565b6000602082019050919050565b6153928161535c565b61539c8184615367565b92506153a782615372565b8060005b838110156153d85781516153bf878261518b565b96506153ca8361537c565b9250506001810190506153ab565b505050505050565b60006153ec8383615389565b60a08301905092915050565b6000602082019050919050565b61540e8161533c565b6154188184615347565b925061542382615352565b8060005b8381101561545457815161543b87826153e0565b9650615446836153f8565b925050600181019050615427565b505050505050565b60006102c0820190506154726000830187615105565b61547f60608301866151b0565b81810360c083015261549181856152c7565b90506154a060e0830184615405565b95945050505050565b60006080820190506154be6000830187613e2f565b6154cb6020830186613e86565b6154d86040830185613e86565b6154e56060830184613e2f565b95945050505050565b7f4e6f7420706c6179657200000000000000000000000000000000000000000000600082015250565b6000615524600a83614938565b915061552f826154ee565b602082019050919050565b6000602082019050818103600083015261555381615517565b9050919050565b7f52657665616c6564000000000000000000000000000000000000000000000000600082015250565b6000615590600883614938565b915061559b8261555a565b602082019050919050565b600060208201905081810360008301526155bf81615583565b9050919050565b6000819050919050565b6155e16155dc82613d8c565b6155c6565b82525050565b60006155f382876155d0565b60208201915061560382866155d0565b60208201915061561382856155d0565b60208201915061562382846155d0565b60208201915081905095945050505050565b7f4261642072657665616c00000000000000000000000000000000000000000000600082015250565b600061566b600a83614938565b915061567682615635565b602082019050919050565b6000602082019050818103600083015261569a8161565e565b9050919050565b7f4964782062616400000000000000000000000000000000000000000000000000600082015250565b60006156d7600783614938565b91506156e2826156a1565b602082019050919050565b60006020820190508181036000830152615706816156ca565b9050919050565b7f4475702069647800000000000000000000000000000000000000000000000000600082015250565b6000615743600783614938565b915061574e8261570d565b602082019050919050565b6000602082019050818103600083015261577281615736565b9050919050565b600060408201905061578e6000830185613e2f565b61579b6020830184613e86565b9392505050565b7f4a6f696e65640000000000000000000000000000000000000000000000000000600082015250565b60006157d8600683614938565b91506157e3826157a2565b602082019050919050565b60006020820190508181036000830152615807816157cb565b9050919050565b600061581982614beb565b915061582483614beb565b925082820390508181126000841216828213600085121516171561584b5761584a6149b5565b5b92915050565b600061585d82856155d0565b60208201915061586d82846155d0565b6020820191508190509392505050565b7f5261726974792064757000000000000000000000000000000000000000000000600082015250565b60006158b3600a83614938565b91506158be8261587d565b602082019050919050565b600060208201905081810360008301526158e2816158a6565b9050919050565b7f4e487b7100000000000000000000000000000000000000000000000000000000600052602260045260246000fd5b6000600282049050600182168061593057607f821691505b602082108103615943576159426158e9565b5b50919050565b60008190508160005260206000209050919050565b60006020601f8301049050919050565b600082821b905092915050565b6000600883026159ab7fffffffffffffffffffffffffffffffffffffffffffffffffffffffffffffffff8261596e565b6159b5868361596e565b95508019841693508086168417925050509392505050565b60006159e86159e36159de84613d8c565b613ec9565b613d8c565b9050919050565b6000819050919050565b615a02836159cd565b615a16615a0e826159ef565b84845461597b565b825550505050565b600090565b615a2b615a1e565b615a368184846159f9565b505050565b5b81811015615a5a57615a4f600082615a23565b600181019050615a3c565b5050565b601f821115615a9f57615a7081615949565b615a798461595e565b81016020851015615a88578190505b615a9c615a948561595e565b830182615a3b565b50505b505050565b600082821c905092915050565b6000615ac260001984600802615aa4565b1980831691505092915050565b6000615adb8383615ab1565b9150826002028217905092915050565b615af482615227565b67ffffffffffffffff811115615b0d57615b0c61405d565b5b615b178254615918565b615b22828285615a5e565b600060209050601f831160018114615b555760008415615b43578287015190505b615b4d8582615acf565b865550615bb5565b601f198416615b6386615949565b60005b82811015615b8b57848901518255600182019150602085019450602081019050615b66565b86831015615ba85784890151615ba4601f891682615ab1565b8355505b6001600288020188555050505b50505050505056fea26469706673582212200729629abe0c5aca2f696aee808b05a4d9bfa688d0b7c55ea597a8e84d81206064736f6c63430008140033",
			"opcodes": "PUSH1 0x80 PUSH1 0x40 MSTORE CALLVALUE DUP1 ISZERO PUSH3 0x11 JUMPI PUSH1 0x0 DUP1 REVERT JUMPDEST POP PUSH1 0x40 MLOAD PUSH3 0x5E98 CODESIZE SUB DUP1 PUSH3 0x5E98 DUP4 CODECOPY DUP2 DUP2 ADD PUSH1 0x40 MSTORE DUP2 ADD SWAP1 PUSH3 0x37 SWAP2 SWAP1 PUSH3 0x235 JUMP JUMPDEST CALLER PUSH1 0x0 PUSH20 0xFFFFFFFFFFFFFFFFFFFFFFFFFFFFFFFFFFFFFFFF AND DUP2 PUSH20 0xFFFFFFFFFFFFFFFFFFFFFFFFFFFFFFFFFFFFFFFF AND SUB PUSH3 0xAD JUMPI PUSH1 0x0 PUSH1 0x40 MLOAD PUSH32 0x1E4FBDF700000000000000000000000000000000000000000000000000000000 DUP2 MSTORE PUSH1 0x4 ADD PUSH3 0xA4 SWAP2 SWAP1 PUSH3 0x278 JUMP JUMPDEST PUSH1 0x40 MLOAD DUP1 SWAP2 SUB SWAP1 REVERT JUMPDEST PUSH3 0xBE DUP2 PUSH3 0x107 PUSH1 0x20 SHL PUSH1 0x20 SHR JUMP JUMPDEST POP DUP1 PUSH1 0x4 PUSH1 0x0 PUSH2 0x100 EXP DUP2 SLOAD DUP2 PUSH20 0xFFFFFFFFFFFFFFFFFFFFFFFFFFFFFFFFFFFFFFFF MUL NOT AND SWAP1 DUP4 PUSH20 0xFFFFFFFFFFFFFFFFFFFFFFFFFFFFFFFFFFFFFFFF AND MUL OR SWAP1 SSTORE POP POP PUSH3 0x295 JUMP JUMPDEST PUSH1 0x0 DUP1 PUSH1 0x0 SWAP1 SLOAD SWAP1 PUSH2 0x100 EXP SWAP1 DIV PUSH20 0xFFFFFFFFFFFFFFFFFFFFFFFFFFFFFFFFFFFFFFFF AND SWAP1 POP DUP2 PUSH1 0x0 DUP1 PUSH2 0x100 EXP DUP2 SLOAD DUP2 PUSH20 0xFFFFFFFFFFFFFFFFFFFFFFFFFFFFFFFFFFFFFFFF MUL NOT AND SWAP1 DUP4 PUSH20 0xFFFFFFFFFFFFFFFFFFFFFFFFFFFFFFFFFFFFFFFF AND MUL OR SWAP1 SSTORE POP DUP2 PUSH20 0xFFFFFFFFFFFFFFFFFFFFFFFFFFFFFFFFFFFFFFFF AND DUP2 PUSH20 0xFFFFFFFFFFFFFFFFFFFFFFFFFFFFFFFFFFFFFFFF AND PUSH32 0x8BE0079C531659141344CD1FD0A4F28419497F9722A3DAAFE3B4186F6B6457E0 PUSH1 0x40 MLOAD PUSH1 0x40 MLOAD DUP1 SWAP2 SUB SWAP1 LOG3 POP POP JUMP JUMPDEST PUSH1 0x0 DUP1 REVERT JUMPDEST PUSH1 0x0 PUSH20 0xFFFFFFFFFFFFFFFFFFFFFFFFFFFFFFFFFFFFFFFF DUP3 AND SWAP1 POP SWAP2 SWAP1 POP JUMP JUMPDEST PUSH1 0x0 PUSH3 0x1FD DUP3 PUSH3 0x1D0 JUMP JUMPDEST SWAP1 POP SWAP2 SWAP1 POP JUMP JUMPDEST PUSH3 0x20F DUP2 PUSH3 0x1F0 JUMP JUMPDEST DUP2 EQ PUSH3 0x21B JUMPI PUSH1 0x0 DUP1 REVERT JUMPDEST POP JUMP JUMPDEST PUSH1 0x0 DUP2 MLOAD SWAP1 POP PUSH3 0x22F DUP2 PUSH3 0x204 JUMP JUMPDEST SWAP3 SWAP2 POP POP JUMP JUMPDEST PUSH1 0x0 PUSH1 0x20 DUP3 DUP5 SUB SLT ISZERO PUSH3 0x24E JUMPI PUSH3 0x24D PUSH3 0x1CB JUMP JUMPDEST JUMPDEST PUSH1 0x0 PUSH3 0x25E DUP5 DUP3 DUP6 ADD PUSH3 0x21E JUMP JUMPDEST SWAP2 POP POP SWAP3 SWAP2 POP POP JUMP JUMPDEST PUSH3 0x272 DUP2 PUSH3 0x1F0 JUMP JUMPDEST DUP3 MSTORE POP POP JUMP JUMPDEST PUSH1 0x0 PUSH1 0x20 DUP3 ADD SWAP1 POP PUSH3 0x28F PUSH1 0x0 DUP4 ADD DUP5 PUSH3 0x267 JUMP JUMPDEST SWAP3 SWAP2 POP POP JUMP JUMPDEST PUSH2 0x5BF3 DUP1 PUSH3 0x2A5 PUSH1 0x0 CODECOPY PUSH1 0x0 RETURN INVALID PUSH1 0x80 PUSH1 0x40 MSTORE CALLVALUE DUP1 ISZERO PUSH2 0x10 JUMPI PUSH1 0x0 DUP1 REVERT JUMPDEST POP PUSH1 0x4 CALLDATASIZE LT PUSH2 0x142 JUMPI PUSH1 0x0 CALLDATALOAD PUSH1 0xE0 SHR DUP1 PUSH4 0x66333422 GT PUSH2 0xB8 JUMPI DUP1 PUSH4 0xA174E77A GT PUSH2 0x7C JUMPI DUP1 PUSH4 0xA174E77A EQ PUSH2 0x341 JUMPI DUP1 PUSH4 0xB135BBB0 EQ PUSH2 0x35D JUMPI DUP1 PUSH4 0xEAF7AC9F EQ PUSH2 0x37B JUMPI DUP1 PUSH4 0xEAF98D23 EQ PUSH2 0x399 JUMPI DUP1 PUSH4 0xEC07FB74 EQ PUSH2 0x3B7 JUMPI DUP1 PUSH4 0xF2FDE38B EQ PUSH2 0x3E7 JUMPI PUSH2 0x142 JUMP JUMPDEST DUP1 PUSH4 0x66333422 EQ PUSH2 0x2C5 JUMPI DUP1 PUSH4 0x715018A6 EQ PUSH2 0x2E1 JUMPI DUP1 PUSH4 0x81F7D942 EQ PUSH2 0x2EB JUMPI DUP1 PUSH4 0x8DA5CB5B EQ PUSH2 0x307 JUMPI DUP1 PUSH4 0x9A342DF0 EQ PUSH2 0x325 JUMPI PUSH2 0x142 JUMP JUMPDEST DUP1 PUSH4 0x166866C7 GT PUSH2 0x10A JUMPI DUP1 PUSH4 0x166866C7 EQ PUSH2 0x207 JUMPI DUP1 PUSH4 0x312D7BBC EQ PUSH2 0x223 JUMPI DUP1 PUSH4 0x338D14B0 EQ PUSH2 0x23F JUMPI DUP1 PUSH4 0x39E84BB0 EQ PUSH2 0x25B JUMPI DUP1 PUSH4 0x44BF95C6 EQ PUSH2 0x277 JUMPI DUP1 PUSH4 0x59927044 EQ PUSH2 0x2A7 JUMPI PUSH2 0x142 JUMP JUMPDEST DUP1 PUSH4 0x60B89C5 EQ PUSH2 0x147 JUMPI DUP1 PUSH4 0x6B5FBE8 EQ PUSH2 0x163 JUMPI DUP1 PUSH4 0x117A5B90 EQ PUSH2 0x193 JUMPI DUP1 PUSH4 0x1525FF7D EQ PUSH2 0x1CD JUMPI DUP1 PUSH4 0x16489068 EQ PUSH2 0x1E9 JUMPI JUMPDEST PUSH1 0x0 DUP1 REVERT JUMPDEST PUSH2 0x161 PUSH1 0x4 DUP1 CALLDATASIZE SUB DUP2 ADD SWAP1 PUSH2 0x15C SWAP2 SWAP1 PUSH2 0x3DC2 JUMP JUMPDEST PUSH2 0x403 JUMP JUMPDEST STOP JUMPDEST PUSH2 0x17D PUSH1 0x4 DUP1 CALLDATASIZE SUB DUP2 ADD SWAP1 PUSH2 0x178 SWAP2 SWAP1 PUSH2 0x3E02 JUMP JUMPDEST PUSH2 0x4A9 JUMP JUMPDEST PUSH1 0x40 MLOAD PUSH2 0x18A SWAP2 SWAP1 PUSH2 0x3E3E JUMP JUMPDEST PUSH1 0x40 MLOAD DUP1 SWAP2 SUB SWAP1 RETURN JUMPDEST PUSH2 0x1AD PUSH1 0x4 DUP1 CALLDATASIZE SUB DUP2 ADD SWAP1 PUSH2 0x1A8 SWAP2 SWAP1 PUSH2 0x3E59 JUMP JUMPDEST PUSH2 0x4C1 JUMP JUMPDEST PUSH1 0x40 MLOAD PUSH2 0x1C4 SWAP12 SWAP11 SWAP10 SWAP9 SWAP8 SWAP7 SWAP6 SWAP5 SWAP4 SWAP3 SWAP2 SWAP1 PUSH2 0x3F28 JUMP JUMPDEST PUSH1 0x40 MLOAD DUP1 SWAP2 SUB SWAP1 RETURN JUMPDEST PUSH2 0x1E7 PUSH1 0x4 DUP1 CALLDATASIZE SUB DUP2 ADD SWAP1 PUSH2 0x1E2 SWAP2 SWAP1 PUSH2 0x3E02 JUMP JUMPDEST PUSH2 0x5A2 JUMP JUMPDEST STOP JUMPDEST PUSH2 0x1F1 PUSH2 0x5EE JUMP JUMPDEST PUSH1 0x40 MLOAD PUSH2 0x1FE SWAP2 SWAP1 PUSH2 0x3FD3 JUMP JUMPDEST PUSH1 0x40 MLOAD DUP1 SWAP2 SUB SWAP1 RETURN JUMPDEST PUSH2 0x221 PUSH1 0x4 DUP1 CALLDATASIZE SUB DUP2 ADD SWAP1 PUSH2 0x21C SWAP2 SWAP1 PUSH2 0x3E02 JUMP JUMPDEST PUSH2 0x5F4 JUMP JUMPDEST STOP JUMPDEST PUSH2 0x23D PUSH1 0x4 DUP1 CALLDATASIZE SUB DUP2 ADD SWAP1 PUSH2 0x238 SWAP2 SWAP1 PUSH2 0x3E59 JUMP JUMPDEST PUSH2 0x6F0 JUMP JUMPDEST STOP JUMPDEST PUSH2 0x259 PUSH1 0x4 DUP1 CALLDATASIZE SUB DUP2 ADD SWAP1 PUSH2 0x254 SWAP2 SWAP1 PUSH2 0x401A JUMP JUMPDEST PUSH2 0x187E JUMP JUMPDEST STOP JUMPDEST PUSH2 0x275 PUSH1 0x4 DUP1 CALLDATASIZE SUB DUP2 ADD SWAP1 PUSH2 0x270 SWAP2 SWAP1 PUSH2 0x46B7 JUMP JUMPDEST PUSH2 0x1890 JUMP JUMPDEST STOP JUMPDEST PUSH2 0x291 PUSH1 0x4 DUP1 CALLDATASIZE SUB DUP2 ADD SWAP1 PUSH2 0x28C SWAP2 SWAP1 PUSH2 0x3E02 JUMP JUMPDEST PUSH2 0x2576 JUMP JUMPDEST PUSH1 0x40 MLOAD PUSH2 0x29E SWAP2 SWAP1 PUSH2 0x47BD JUMP JUMPDEST PUSH1 0x40 MLOAD DUP1 SWAP2 SUB SWAP1 RETURN JUMPDEST PUSH2 0x2AF PUSH2 0x2596 JUMP JUMPDEST PUSH1 0x40 MLOAD PUSH2 0x2BC SWAP2 SWAP1 PUSH2 0x47D8 JUMP JUMPDEST PUSH1 0x40 MLOAD DUP1 SWAP2 SUB SWAP1 RETURN JUMPDEST PUSH2 0x2DF PUSH1 0x4 DUP1 CALLDATASIZE SUB DUP2 ADD SWAP1 PUSH2 0x2DA SWAP2 SWAP1 PUSH2 0x47F3 JUMP JUMPDEST PUSH2 0x25BC JUMP JUMPDEST STOP JUMPDEST PUSH2 0x2E9 PUSH2 0x2A19 JUMP JUMPDEST STOP JUMPDEST PUSH2 0x305 PUSH1 0x4 DUP1 CALLDATASIZE SUB DUP2 ADD SWAP1 PUSH2 0x300 SWAP2 SWAP1 PUSH2 0x3DC2 JUMP JUMPDEST PUSH2 0x2A2D JUMP JUMPDEST STOP JUMPDEST PUSH2 0x30F PUSH2 0x2B0E JUMP JUMPDEST PUSH1 0x40 MLOAD PUSH2 0x31C SWAP2 SWAP1 PUSH2 0x47D8 JUMP JUMPDEST PUSH1 0x40 MLOAD DUP1 SWAP2 SUB SWAP1 RETURN JUMPDEST PUSH2 0x33F PUSH1 0x4 DUP1 CALLDATASIZE SUB DUP2 ADD SWAP1 PUSH2 0x33A SWAP2 SWAP1 PUSH2 0x4846 JUMP JUMPDEST PUSH2 0x2B37 JUMP JUMPDEST STOP JUMPDEST PUSH2 0x35B PUSH1 0x4 DUP1 CALLDATASIZE SUB DUP2 ADD SWAP1 PUSH2 0x356 SWAP2 SWAP1 PUSH2 0x3E02 JUMP JUMPDEST PUSH2 0x333E JUMP JUMPDEST STOP JUMPDEST PUSH2 0x365 PUSH2 0x33A0 JUMP JUMPDEST PUSH1 0x40 MLOAD PUSH2 0x372 SWAP2 SWAP1 PUSH2 0x3E3E JUMP JUMPDEST PUSH1 0x40 MLOAD DUP1 SWAP2 SUB SWAP1 RETURN JUMPDEST PUSH2 0x383 PUSH2 0x33A6 JUMP JUMPDEST PUSH1 0x40 MLOAD PUSH2 0x390 SWAP2 SWAP1 PUSH2 0x3E3E JUMP JUMPDEST PUSH1 0x40 MLOAD DUP1 SWAP2 SUB SWAP1 RETURN JUMPDEST PUSH2 0x3A1 PUSH2 0x33AD JUMP JUMPDEST PUSH1 0x40 MLOAD PUSH2 0x3AE SWAP2 SWAP1 PUSH2 0x3E3E JUMP JUMPDEST PUSH1 0x40 MLOAD DUP1 SWAP2 SUB SWAP1 RETURN JUMPDEST PUSH2 0x3D1 PUSH1 0x4 DUP1 CALLDATASIZE SUB DUP2 ADD SWAP1 PUSH2 0x3CC SWAP2 SWAP1 PUSH2 0x3E02 JUMP JUMPDEST PUSH2 0x33B2 JUMP JUMPDEST PUSH1 0x40 MLOAD PUSH2 0x3DE SWAP2 SWAP1 PUSH2 0x47BD JUMP JUMPDEST PUSH1 0x40 MLOAD DUP1 SWAP2 SUB SWAP1 RETURN JUMPDEST PUSH2 0x401 PUSH1 0x4 DUP1 CALLDATASIZE SUB DUP2 ADD SWAP1 PUSH2 0x3FC SWAP2 SWAP1 PUSH2 0x3E02 JUMP JUMPDEST PUSH2 0x33D2 JUMP JUMPDEST STOP JUMPDEST PUSH2 0x40B PUSH2 0x3458 JUMP JUMPDEST PUSH1 0x2 PUSH1 0x0 DUP4 PUSH20 0xFFFFFFFFFFFFFFFFFFFFFFFFFFFFFFFFFFFFFFFF AND PUSH20 0xFFFFFFFFFFFFFFFFFFFFFFFFFFFFFFFFFFFFFFFF AND DUP2 MSTORE PUSH1 0x20 ADD SWAP1 DUP2 MSTORE PUSH1 0x20 ADD PUSH1 0x0 KECCAK256 PUSH1 0x0 SWAP1 SLOAD SWAP1 PUSH2 0x100 EXP SWAP1 DIV PUSH1 0xFF AND PUSH2 0x461 JUMPI PUSH1 0x0 DUP1 REVERT JUMPDEST DUP1 PUSH1 0x3 PUSH1 0x0 DUP5 PUSH20 0xFFFFFFFFFFFFFFFFFFFFFFFFFFFFFFFFFFFFFFFF AND PUSH20 0xFFFFFFFFFFFFFFFFFFFFFFFFFFFFFFFFFFFFFFFF AND DUP2 MSTORE PUSH1 0x20 ADD SWAP1 DUP2 MSTORE PUSH1 0x20 ADD PUSH1 0x0 KECCAK256 DUP2 SWAP1 SSTORE POP POP POP JUMP JUMPDEST PUSH1 0x3 PUSH1 0x20 MSTORE DUP1 PUSH1 0x0 MSTORE PUSH1 0x40 PUSH1 0x0 KECCAK256 PUSH1 0x0 SWAP2 POP SWAP1 POP SLOAD DUP2 JUMP JUMPDEST PUSH1 0x6 PUSH1 0x20 MSTORE DUP1 PUSH1 0x0 MSTORE PUSH1 0x40 PUSH1 0x0 KECCAK256 PUSH1 0x0 SWAP2 POP SWAP1 POP DUP1 PUSH1 0x0 ADD PUSH1 0x0 SWAP1 SLOAD SWAP1 PUSH2 0x100 EXP SWAP1 DIV PUSH20 0xFFFFFFFFFFFFFFFFFFFFFFFFFFFFFFFFFFFFFFFF AND SWAP1 DUP1 PUSH1 0x1C ADD SLOAD SWAP1 DUP1 PUSH1 0x20 ADD PUSH1 0x0 SWAP1 SLOAD SWAP1 PUSH2 0x100 EXP SWAP1 DIV PUSH1 0xFF AND SWAP1 DUP1 PUSH1 0x20 ADD PUSH1 0x1 SWAP1 SLOAD SWAP1 PUSH2 0x100 EXP SWAP1 DIV PUSH20 0xFFFFFFFFFFFFFFFFFFFFFFFFFFFFFFFFFFFFFFFF AND SWAP1 DUP1 PUSH1 0x3C ADD SLOAD SWAP1 DUP1 PUSH1 0x40 ADD PUSH1 0x0 SWAP1 SLOAD SWAP1 PUSH2 0x100 EXP SWAP1 DIV PUSH1 0xFF AND SWAP1 DUP1 PUSH1 0x40 ADD PUSH1 0x1 SWAP1 SLOAD SWAP1 PUSH2 0x100 EXP SWAP1 DIV PUSH20 0xFFFFFFFFFFFFFFFFFFFFFFFFFFFFFFFFFFFFFFFF AND SWAP1 DUP1 PUSH1 0x41 ADD SLOAD SWAP1 DUP1 PUSH1 0x42 ADD SLOAD SWAP1 DUP1 PUSH1 0x43 ADD SLOAD SWAP1 DUP1 PUSH1 0x44 ADD PUSH1 0x0 SWAP1 SLOAD SWAP1 PUSH2 0x100 EXP SWAP1 DIV PUSH1 0xFF AND SWAP1 POP DUP12 JUMP JUMPDEST PUSH2 0x5AA PUSH2 0x3458 JUMP JUMPDEST DUP1 PUSH1 0x4 PUSH1 0x0 PUSH2 0x100 EXP DUP2 SLOAD DUP2 PUSH20 0xFFFFFFFFFFFFFFFFFFFFFFFFFFFFFFFFFFFFFFFF MUL NOT AND SWAP1 DUP4 PUSH20 0xFFFFFFFFFFFFFFFFFFFFFFFFFFFFFFFFFFFFFFFF AND MUL OR SWAP1 SSTORE POP POP JUMP JUMPDEST PUSH1 0x5 SLOAD DUP2 JUMP JUMPDEST PUSH2 0x5FC PUSH2 0x3458 JUMP JUMPDEST PUSH1 0x2 PUSH1 0x0 DUP3 PUSH20 0xFFFFFFFFFFFFFFFFFFFFFFFFFFFFFFFFFFFFFFFF AND PUSH20 0xFFFFFFFFFFFFFFFFFFFFFFFFFFFFFFFFFFFFFFFF AND DUP2 MSTORE PUSH1 0x20 ADD SWAP1 DUP2 MSTORE PUSH1 0x20 ADD PUSH1 0x0 KECCAK256 PUSH1 0x0 SWAP1 SLOAD SWAP1 PUSH2 0x100 EXP SWAP1 DIV PUSH1 0xFF AND PUSH2 0x652 JUMPI PUSH1 0x0 DUP1 REVERT JUMPDEST PUSH1 0x0 PUSH1 0x2 PUSH1 0x0 DUP4 PUSH20 0xFFFFFFFFFFFFFFFFFFFFFFFFFFFFFFFFFFFFFFFF AND PUSH20 0xFFFFFFFFFFFFFFFFFFFFFFFFFFFFFFFFFFFFFFFF AND DUP2 MSTORE PUSH1 0x20 ADD SWAP1 DUP2 MSTORE PUSH1 0x20 ADD PUSH1 0x0 KECCAK256 PUSH1 0x0 PUSH2 0x100 EXP DUP2 SLOAD DUP2 PUSH1 0xFF MUL NOT AND SWAP1 DUP4 ISZERO ISZERO MUL OR SWAP1 SSTORE POP PUSH1 0x3 PUSH1 0x0 DUP3 PUSH20 0xFFFFFFFFFFFFFFFFFFFFFFFFFFFFFFFFFFFFFFFF AND PUSH20 0xFFFFFFFFFFFFFFFFFFFFFFFFFFFFFFFFFFFFFFFF AND DUP2 MSTORE PUSH1 0x20 ADD SWAP1 DUP2 MSTORE PUSH1 0x20 ADD PUSH1 0x0 KECCAK256 PUSH1 0x0 SWAP1 SSTORE POP JUMP JUMPDEST PUSH1 0x0 PUSH1 0x6 PUSH1 0x0 DUP4 DUP2 MSTORE PUSH1 0x20 ADD SWAP1 DUP2 MSTORE PUSH1 0x20 ADD PUSH1 0x0 KECCAK256 SWAP1 POP DUP1 PUSH1 0x44 ADD PUSH1 0x0 SWAP1 SLOAD SWAP1 PUSH2 0x100 EXP SWAP1 DIV PUSH1 0xFF AND PUSH2 0x758 JUMPI PUSH1 0x40 MLOAD PUSH32 0x8C379A000000000000000000000000000000000000000000000000000000000 DUP2 MSTORE PUSH1 0x4 ADD PUSH2 0x74F SWAP1 PUSH2 0x4995 JUMP JUMPDEST PUSH1 0x40 MLOAD DUP1 SWAP2 SUB SWAP1 REVERT JUMPDEST PUSH1 0x0 PUSH20 0xFFFFFFFFFFFFFFFFFFFFFFFFFFFFFFFFFFFFFFFF AND DUP2 PUSH1 0x20 ADD PUSH1 0x1 SWAP1 SLOAD SWAP1 PUSH2 0x100 EXP SWAP1 DIV PUSH20 0xFFFFFFFFFFFFFFFFFFFFFFFFFFFFFFFFFFFFFFFF AND PUSH20 0xFFFFFFFFFFFFFFFFFFFFFFFFFFFFFFFFFFFFFFFF AND EQ DUP1 ISZERO PUSH2 0x7CA JUMPI POP PUSH3 0x93A80 DUP2 PUSH1 0x42 ADD SLOAD PUSH2 0x7C6 SWAP2 SWAP1 PUSH2 0x49E4 JUMP JUMPDEST TIMESTAMP LT ISZERO JUMPDEST ISZERO PUSH2 0x9FB JUMPI DUP1 PUSH1 0x40 ADD PUSH1 0x1 SWAP1 SLOAD SWAP1 PUSH2 0x100 EXP SWAP1 DIV PUSH20 0xFFFFFFFFFFFFFFFFFFFFFFFFFFFFFFFFFFFFFFFF AND PUSH20 0xFFFFFFFFFFFFFFFFFFFFFFFFFFFFFFFFFFFFFFFF AND PUSH4 0xA9059CBB DUP3 PUSH1 0x0 ADD PUSH1 0x0 SWAP1 SLOAD SWAP1 PUSH2 0x100 EXP SWAP1 DIV PUSH20 0xFFFFFFFFFFFFFFFFFFFFFFFFFFFFFFFFFFFFFFFF AND DUP4 PUSH1 0x41 ADD SLOAD PUSH1 0x40 MLOAD DUP4 PUSH4 0xFFFFFFFF AND PUSH1 0xE0 SHL DUP2 MSTORE PUSH1 0x4 ADD PUSH2 0x856 SWAP3 SWAP2 SWAP1 PUSH2 0x4A18 JUMP JUMPDEST PUSH1 0x20 PUSH1 0x40 MLOAD DUP1 DUP4 SUB DUP2 PUSH1 0x0 DUP8 GAS CALL ISZERO DUP1 ISZERO PUSH2 0x875 JUMPI RETURNDATASIZE PUSH1 0x0 DUP1 RETURNDATACOPY RETURNDATASIZE PUSH1 0x0 REVERT JUMPDEST POP POP POP POP PUSH1 0x40 MLOAD RETURNDATASIZE PUSH1 0x1F NOT PUSH1 0x1F DUP3 ADD AND DUP3 ADD DUP1 PUSH1 0x40 MSTORE POP DUP2 ADD SWAP1 PUSH2 0x899 SWAP2 SWAP1 PUSH2 0x4A6D JUMP JUMPDEST POP PUSH1 0x0 JUMPDEST PUSH1 0x3 DUP2 LT ISZERO PUSH2 0x99A JUMPI DUP2 PUSH1 0x1 ADD DUP2 PUSH1 0x3 DUP2 LT PUSH2 0x8BC JUMPI PUSH2 0x8BB PUSH2 0x4A9A JUMP JUMPDEST JUMPDEST ADD PUSH1 0x0 SWAP1 SLOAD SWAP1 PUSH2 0x100 EXP SWAP1 DIV PUSH20 0xFFFFFFFFFFFFFFFFFFFFFFFFFFFFFFFFFFFFFFFF AND PUSH20 0xFFFFFFFFFFFFFFFFFFFFFFFFFFFFFFFFFFFFFFFF AND PUSH4 0x23B872DD ADDRESS DUP5 PUSH1 0x0 ADD PUSH1 0x0 SWAP1 SLOAD SWAP1 PUSH2 0x100 EXP SWAP1 DIV PUSH20 0xFFFFFFFFFFFFFFFFFFFFFFFFFFFFFFFFFFFFFFFF AND DUP6 PUSH1 0x4 ADD DUP6 PUSH1 0x3 DUP2 LT PUSH2 0x935 JUMPI PUSH2 0x934 PUSH2 0x4A9A JUMP JUMPDEST JUMPDEST ADD SLOAD PUSH1 0x40 MLOAD DUP5 PUSH4 0xFFFFFFFF AND PUSH1 0xE0 SHL DUP2 MSTORE PUSH1 0x4 ADD PUSH2 0x955 SWAP4 SWAP3 SWAP2 SWAP1 PUSH2 0x4AC9 JUMP JUMPDEST PUSH1 0x0 PUSH1 0x40 MLOAD DUP1 DUP4 SUB DUP2 PUSH1 0x0 DUP8 DUP1 EXTCODESIZE ISZERO DUP1 ISZERO PUSH2 0x96F JUMPI PUSH1 0x0 DUP1 REVERT JUMPDEST POP GAS CALL ISZERO DUP1 ISZERO PUSH2 0x983 JUMPI RETURNDATASIZE PUSH1 0x0 DUP1 RETURNDATACOPY RETURNDATASIZE PUSH1 0x0 REVERT JUMPDEST POP POP POP POP DUP1 DUP1 PUSH2 0x992 SWAP1 PUSH2 0x4B00 JUMP JUMPDEST SWAP2 POP POP PUSH2 0x89D JUMP JUMPDEST POP PUSH1 0x0 DUP2 PUSH1 0x44 ADD PUSH1 0x0 PUSH2 0x100 EXP DUP2 SLOAD DUP2 PUSH1 0xFF MUL NOT AND SWAP1 DUP4 ISZERO ISZERO MUL OR SWAP1 SSTORE POP PUSH32 0x70513431FE7F36611E21FF99AA229C501699D89165596D29C077697D177422D4 DUP3 PUSH1 0x0 PUSH1 0x1 PUSH1 0x40 MLOAD PUSH2 0x9ED SWAP4 SWAP3 SWAP2 SWAP1 PUSH2 0x4B48 JUMP JUMPDEST PUSH1 0x40 MLOAD DUP1 SWAP2 SUB SWAP1 LOG1 POP PUSH2 0x187B JUMP JUMPDEST PUSH1 0x0 DUP2 PUSH1 0x43 ADD SLOAD GT DUP1 ISZERO PUSH2 0xA21 JUMPI POP PUSH3 0x93A80 DUP2 PUSH1 0x43 ADD SLOAD PUSH2 0xA1D SWAP2 SWAP1 PUSH2 0x49E4 JUMP JUMPDEST TIMESTAMP LT ISZERO JUMPDEST ISZERO PUSH2 0xE31 JUMPI DUP1 PUSH1 0x20 ADD PUSH1 0x0 SWAP1 SLOAD SWAP1 PUSH2 0x100 EXP SWAP1 DIV PUSH1 0xFF AND ISZERO DUP1 PUSH2 0xA53 JUMPI POP DUP1 PUSH1 0x40 ADD PUSH1 0x0 SWAP1 SLOAD SWAP1 PUSH2 0x100 EXP SWAP1 DIV PUSH1 0xFF AND ISZERO JUMPDEST ISZERO PUSH2 0xE30 JUMPI DUP1 PUSH1 0x40 ADD PUSH1 0x1 SWAP1 SLOAD SWAP1 PUSH2 0x100 EXP SWAP1 DIV PUSH20 0xFFFFFFFFFFFFFFFFFFFFFFFFFFFFFFFFFFFFFFFF AND PUSH20 0xFFFFFFFFFFFFFFFFFFFFFFFFFFFFFFFFFFFFFFFF AND PUSH4 0xA9059CBB DUP3 PUSH1 0x0 ADD PUSH1 0x0 SWAP1 SLOAD SWAP1 PUSH2 0x100 EXP SWAP1 DIV PUSH20 0xFFFFFFFFFFFFFFFFFFFFFFFFFFFFFFFFFFFFFFFF AND DUP4 PUSH1 0x41 ADD SLOAD PUSH1 0x40 MLOAD DUP4 PUSH4 0xFFFFFFFF AND PUSH1 0xE0 SHL DUP2 MSTORE PUSH1 0x4 ADD PUSH2 0xADF SWAP3 SWAP2 SWAP1 PUSH2 0x4A18 JUMP JUMPDEST PUSH1 0x20 PUSH1 0x40 MLOAD DUP1 DUP4 SUB DUP2 PUSH1 0x0 DUP8 GAS CALL ISZERO DUP1 ISZERO PUSH2 0xAFE JUMPI RETURNDATASIZE PUSH1 0x0 DUP1 RETURNDATACOPY RETURNDATASIZE PUSH1 0x0 REVERT JUMPDEST POP POP POP POP PUSH1 0x40 MLOAD RETURNDATASIZE PUSH1 0x1F NOT PUSH1 0x1F DUP3 ADD AND DUP3 ADD DUP1 PUSH1 0x40 MSTORE POP DUP2 ADD SWAP1 PUSH2 0xB22 SWAP2 SWAP1 PUSH2 0x4A6D JUMP JUMPDEST POP DUP1 PUSH1 0x40 ADD PUSH1 0x1 SWAP1 SLOAD SWAP1 PUSH2 0x100 EXP SWAP1 DIV PUSH20 0xFFFFFFFFFFFFFFFFFFFFFFFFFFFFFFFFFFFFFFFF AND PUSH20 0xFFFFFFFFFFFFFFFFFFFFFFFFFFFFFFFFFFFFFFFF AND PUSH4 0xA9059CBB DUP3 PUSH1 0x20 ADD PUSH1 0x1 SWAP1 SLOAD SWAP1 PUSH2 0x100 EXP SWAP1 DIV PUSH20 0xFFFFFFFFFFFFFFFFFFFFFFFFFFFFFFFFFFFFFFFF AND DUP4 PUSH1 0x41 ADD SLOAD PUSH1 0x40 MLOAD DUP4 PUSH4 0xFFFFFFFF AND PUSH1 0xE0 SHL DUP2 MSTORE PUSH1 0x4 ADD PUSH2 0xBAA SWAP3 SWAP2 SWAP1 PUSH2 0x4A18 JUMP JUMPDEST PUSH1 0x20 PUSH1 0x40 MLOAD DUP1 DUP4 SUB DUP2 PUSH1 0x0 DUP8 GAS CALL ISZERO DUP1 ISZERO PUSH2 0xBC9 JUMPI RETURNDATASIZE PUSH1 0x0 DUP1 RETURNDATACOPY RETURNDATASIZE PUSH1 0x0 REVERT JUMPDEST POP POP POP POP PUSH1 0x40 MLOAD RETURNDATASIZE PUSH1 0x1F NOT PUSH1 0x1F DUP3 ADD AND DUP3 ADD DUP1 PUSH1 0x40 MSTORE POP DUP2 ADD SWAP1 PUSH2 0xBED SWAP2 SWAP1 PUSH2 0x4A6D JUMP JUMPDEST POP PUSH1 0x0 JUMPDEST PUSH1 0x3 DUP2 LT ISZERO PUSH2 0xDCF JUMPI DUP2 PUSH1 0x1 ADD DUP2 PUSH1 0x3 DUP2 LT PUSH2 0xC10 JUMPI PUSH2 0xC0F PUSH2 0x4A9A JUMP JUMPDEST JUMPDEST ADD PUSH1 0x0 SWAP1 SLOAD SWAP1 PUSH2 0x100 EXP SWAP1 DIV PUSH20 0xFFFFFFFFFFFFFFFFFFFFFFFFFFFFFFFFFFFFFFFF AND PUSH20 0xFFFFFFFFFFFFFFFFFFFFFFFFFFFFFFFFFFFFFFFF AND PUSH4 0x23B872DD ADDRESS DUP5 PUSH1 0x0 ADD PUSH1 0x0 SWAP1 SLOAD SWAP1 PUSH2 0x100 EXP SWAP1 DIV PUSH20 0xFFFFFFFFFFFFFFFFFFFFFFFFFFFFFFFFFFFFFFFF AND DUP6 PUSH1 0x4 ADD DUP6 PUSH1 0x3 DUP2 LT PUSH2 0xC89 JUMPI PUSH2 0xC88 PUSH2 0x4A9A JUMP JUMPDEST JUMPDEST ADD SLOAD PUSH1 0x40 MLOAD DUP5 PUSH4 0xFFFFFFFF AND PUSH1 0xE0 SHL DUP2 MSTORE PUSH1 0x4 ADD PUSH2 0xCA9 SWAP4 SWAP3 SWAP2 SWAP1 PUSH2 0x4AC9 JUMP JUMPDEST PUSH1 0x0 PUSH1 0x40 MLOAD DUP1 DUP4 SUB DUP2 PUSH1 0x0 DUP8 DUP1 EXTCODESIZE ISZERO DUP1 ISZERO PUSH2 0xCC3 JUMPI PUSH1 0x0 DUP1 REVERT JUMPDEST POP GAS CALL ISZERO DUP1 ISZERO PUSH2 0xCD7 JUMPI RETURNDATASIZE PUSH1 0x0 DUP1 RETURNDATACOPY RETURNDATASIZE PUSH1 0x0 REVERT JUMPDEST POP POP POP POP DUP2 PUSH1 0x21 ADD DUP2 PUSH1 0x3 DUP2 LT PUSH2 0xCF1 JUMPI PUSH2 0xCF0 PUSH2 0x4A9A JUMP JUMPDEST JUMPDEST ADD PUSH1 0x0 SWAP1 SLOAD SWAP1 PUSH2 0x100 EXP SWAP1 DIV PUSH20 0xFFFFFFFFFFFFFFFFFFFFFFFFFFFFFFFFFFFFFFFF AND PUSH20 0xFFFFFFFFFFFFFFFFFFFFFFFFFFFFFFFFFFFFFFFF AND PUSH4 0x23B872DD ADDRESS DUP5 PUSH1 0x20 ADD PUSH1 0x1 SWAP1 SLOAD SWAP1 PUSH2 0x100 EXP SWAP1 DIV PUSH20 0xFFFFFFFFFFFFFFFFFFFFFFFFFFFFFFFFFFFFFFFF AND DUP6 PUSH1 0x24 ADD DUP6 PUSH1 0x3 DUP2 LT PUSH2 0xD6A JUMPI PUSH2 0xD69 PUSH2 0x4A9A JUMP JUMPDEST JUMPDEST ADD SLOAD PUSH1 0x40 MLOAD DUP5 PUSH4 0xFFFFFFFF AND PUSH1 0xE0 SHL DUP2 MSTORE PUSH1 0x4 ADD PUSH2 0xD8A SWAP4 SWAP3 SWAP2 SWAP1 PUSH2 0x4AC9 JUMP JUMPDEST PUSH1 0x0 PUSH1 0x40 MLOAD DUP1 DUP4 SUB DUP2 PUSH1 0x0 DUP8 DUP1 EXTCODESIZE ISZERO DUP1 ISZERO PUSH2 0xDA4 JUMPI PUSH1 0x0 DUP1 REVERT JUMPDEST POP GAS CALL ISZERO DUP1 ISZERO PUSH2 0xDB8 JUMPI RETURNDATASIZE PUSH1 0x0 DUP1 RETURNDATACOPY RETURNDATASIZE PUSH1 0x0 REVERT JUMPDEST POP POP POP POP DUP1 DUP1 PUSH2 0xDC7 SWAP1 PUSH2 0x4B00 JUMP JUMPDEST SWAP2 POP POP PUSH2 0xBF1 JUMP JUMPDEST POP PUSH1 0x0 DUP2 PUSH1 0x44 ADD PUSH1 0x0 PUSH2 0x100 EXP DUP2 SLOAD DUP2 PUSH1 0xFF MUL NOT AND SWAP1 DUP4 ISZERO ISZERO MUL OR SWAP1 SSTORE POP PUSH32 0x70513431FE7F36611E21FF99AA229C501699D89165596D29C077697D177422D4 DUP3 PUSH1 0x0 PUSH1 0x1 PUSH1 0x40 MLOAD PUSH2 0xE22 SWAP4 SWAP3 SWAP2 SWAP1 PUSH2 0x4B48 JUMP JUMPDEST PUSH1 0x40 MLOAD DUP1 SWAP2 SUB SWAP1 LOG1 POP PUSH2 0x187B JUMP JUMPDEST JUMPDEST DUP1 PUSH1 0x20 ADD PUSH1 0x0 SWAP1 SLOAD SWAP1 PUSH2 0x100 EXP SWAP1 DIV PUSH1 0xFF AND DUP1 ISZERO PUSH2 0xE5D JUMPI POP DUP1 PUSH1 0x40 ADD PUSH1 0x0 SWAP1 SLOAD SWAP1 PUSH2 0x100 EXP SWAP1 DIV PUSH1 0xFF AND JUMPDEST PUSH2 0xE9C JUMPI PUSH1 0x40 MLOAD PUSH32 0x8C379A000000000000000000000000000000000000000000000000000000000 DUP2 MSTORE PUSH1 0x4 ADD PUSH2 0xE93 SWAP1 PUSH2 0x4BCB JUMP JUMPDEST PUSH1 0x40 MLOAD DUP1 SWAP2 SUB SWAP1 REVERT JUMPDEST PUSH1 0x0 DUP1 PUSH1 0x0 DUP1 JUMPDEST PUSH1 0x3 DUP2 LT ISZERO PUSH2 0x1017 JUMPI PUSH1 0x0 DUP6 PUSH1 0x1D ADD DUP3 PUSH1 0x3 DUP2 LT PUSH2 0xEC4 JUMPI PUSH2 0xEC3 PUSH2 0x4A9A JUMP JUMPDEST JUMPDEST ADD SLOAD SWAP1 POP PUSH1 0x0 DUP7 PUSH1 0xA ADD DUP3 PUSH1 0x3 DUP2 LT PUSH2 0xEE0 JUMPI PUSH2 0xEDF PUSH2 0x4A9A JUMP JUMPDEST JUMPDEST PUSH1 0x5 MUL ADD PUSH1 0x5 DUP1 PUSH1 0x20 MUL PUSH1 0x40 MLOAD SWAP1 DUP2 ADD PUSH1 0x40 MSTORE DUP1 SWAP3 SWAP2 SWAP1 DUP3 PUSH1 0x5 DUP1 ISZERO PUSH2 0xF1B JUMPI PUSH1 0x20 MUL DUP3 ADD SWAP2 JUMPDEST DUP2 SLOAD DUP2 MSTORE PUSH1 0x20 ADD SWAP1 PUSH1 0x1 ADD SWAP1 DUP1 DUP4 GT PUSH2 0xF07 JUMPI JUMPDEST POP POP POP POP POP SWAP1 POP PUSH1 0x0 DUP8 PUSH1 0x3D ADD DUP5 PUSH1 0x3 DUP2 LT PUSH2 0xF3A JUMPI PUSH2 0xF39 PUSH2 0x4A9A JUMP JUMPDEST JUMPDEST ADD SLOAD SWAP1 POP PUSH1 0x0 DUP9 PUSH1 0x2A ADD DUP3 PUSH1 0x3 DUP2 LT PUSH2 0xF56 JUMPI PUSH2 0xF55 PUSH2 0x4A9A JUMP JUMPDEST JUMPDEST PUSH1 0x5 MUL ADD PUSH1 0x5 DUP1 PUSH1 0x20 MUL PUSH1 0x40 MLOAD SWAP1 DUP2 ADD PUSH1 0x40 MSTORE DUP1 SWAP3 SWAP2 SWAP1 DUP3 PUSH1 0x5 DUP1 ISZERO PUSH2 0xF91 JUMPI PUSH1 0x20 MUL DUP3 ADD SWAP2 JUMPDEST DUP2 SLOAD DUP2 MSTORE PUSH1 0x20 ADD SWAP1 PUSH1 0x1 ADD SWAP1 DUP1 DUP4 GT PUSH2 0xF7D JUMPI JUMPDEST POP POP POP POP POP SWAP1 POP PUSH1 0x0 DUP1 PUSH1 0x0 PUSH2 0xFA7 DUP7 DUP6 PUSH2 0x34DF JUMP JUMPDEST SWAP3 POP SWAP3 POP SWAP3 POP DUP2 PUSH1 0xFF AND DUP4 PUSH1 0xFF AND GT ISZERO PUSH2 0xFCE JUMPI DUP11 DUP1 PUSH2 0xFC6 SWAP1 PUSH2 0x4B00 JUMP JUMPDEST SWAP12 POP POP PUSH2 0xFEC JUMP JUMPDEST DUP3 PUSH1 0xFF AND DUP3 PUSH1 0xFF AND GT ISZERO PUSH2 0xFEB JUMPI DUP10 DUP1 PUSH2 0xFE7 SWAP1 PUSH2 0x4B00 JUMP JUMPDEST SWAP11 POP POP JUMPDEST JUMPDEST DUP1 PUSH1 0x1 SIGNEXTEND DUP10 PUSH2 0xFFB SWAP2 SWAP1 PUSH2 0x4BF5 JUMP JUMPDEST SWAP9 POP POP POP POP POP POP POP POP DUP1 DUP1 PUSH2 0x100F SWAP1 PUSH2 0x4B00 JUMP JUMPDEST SWAP2 POP POP PUSH2 0xEA3 JUMP JUMPDEST POP PUSH1 0x0 PUSH1 0x2 DUP6 PUSH1 0x41 ADD SLOAD PUSH2 0x102B SWAP2 SWAP1 PUSH2 0x4C39 JUMP JUMPDEST SWAP1 POP PUSH1 0x0 PUSH1 0x64 PUSH1 0x2 DUP4 PUSH2 0x103E SWAP2 SWAP1 PUSH2 0x4C39 JUMP JUMPDEST PUSH2 0x1048 SWAP2 SWAP1 PUSH2 0x4CAA JUMP JUMPDEST SWAP1 POP PUSH1 0x0 DUP2 DUP4 PUSH2 0x1058 SWAP2 SWAP1 PUSH2 0x4CDB JUMP JUMPDEST SWAP1 POP DUP7 PUSH1 0x40 ADD PUSH1 0x1 SWAP1 SLOAD SWAP1 PUSH2 0x100 EXP SWAP1 DIV PUSH20 0xFFFFFFFFFFFFFFFFFFFFFFFFFFFFFFFFFFFFFFFF AND PUSH20 0xFFFFFFFFFFFFFFFFFFFFFFFFFFFFFFFFFFFFFFFF AND PUSH4 0xA9059CBB PUSH1 0x4 PUSH1 0x0 SWAP1 SLOAD SWAP1 PUSH2 0x100 EXP SWAP1 DIV PUSH20 0xFFFFFFFFFFFFFFFFFFFFFFFFFFFFFFFFFFFFFFFF AND DUP5 PUSH1 0x40 MLOAD DUP4 PUSH4 0xFFFFFFFF AND PUSH1 0xE0 SHL DUP2 MSTORE PUSH1 0x4 ADD PUSH2 0x10DB SWAP3 SWAP2 SWAP1 PUSH2 0x4A18 JUMP JUMPDEST PUSH1 0x20 PUSH1 0x40 MLOAD DUP1 DUP4 SUB DUP2 PUSH1 0x0 DUP8 GAS CALL ISZERO DUP1 ISZERO PUSH2 0x10FA JUMPI RETURNDATASIZE PUSH1 0x0 DUP1 RETURNDATACOPY RETURNDATASIZE PUSH1 0x0 REVERT JUMPDEST POP POP POP POP PUSH1 0x40 MLOAD RETURNDATASIZE PUSH1 0x1F NOT PUSH1 0x1F DUP3 ADD AND DUP3 ADD DUP1 PUSH1 0x40 MSTORE POP DUP2 ADD SWAP1 PUSH2 0x111E SWAP2 SWAP1 PUSH2 0x4A6D JUMP JUMPDEST POP PUSH1 0x0 DUP1 PUSH1 0x0 SWAP1 POP DUP7 DUP9 GT ISZERO PUSH2 0x11FD JUMPI DUP9 PUSH1 0x0 ADD PUSH1 0x0 SWAP1 SLOAD SWAP1 PUSH2 0x100 EXP SWAP1 DIV PUSH20 0xFFFFFFFFFFFFFFFFFFFFFFFFFFFFFFFFFFFFFFFF AND SWAP2 POP DUP9 PUSH1 0x40 ADD PUSH1 0x1 SWAP1 SLOAD SWAP1 PUSH2 0x100 EXP SWAP1 DIV PUSH20 0xFFFFFFFFFFFFFFFFFFFFFFFFFFFFFFFFFFFFFFFF AND PUSH20 0xFFFFFFFFFFFFFFFFFFFFFFFFFFFFFFFFFFFFFFFF AND PUSH4 0xA9059CBB DUP4 DUP6 PUSH1 0x40 MLOAD DUP4 PUSH4 0xFFFFFFFF AND PUSH1 0xE0 SHL DUP2 MSTORE PUSH1 0x4 ADD PUSH2 0x11B4 SWAP3 SWAP2 SWAP1 PUSH2 0x4A18 JUMP JUMPDEST PUSH1 0x20 PUSH1 0x40 MLOAD DUP1 DUP4 SUB DUP2 PUSH1 0x0 DUP8 GAS CALL ISZERO DUP1 ISZERO PUSH2 0x11D3 JUMPI RETURNDATASIZE PUSH1 0x0 DUP1 RETURNDATACOPY RETURNDATASIZE PUSH1 0x0 REVERT JUMPDEST POP POP POP POP PUSH1 0x40 MLOAD RETURNDATASIZE PUSH1 0x1F NOT PUSH1 0x1F DUP3 ADD AND DUP3 ADD DUP1 PUSH1 0x40 MSTORE POP DUP2 ADD SWAP1 PUSH2 0x11F7 SWAP2 SWAP1 PUSH2 0x4A6D JUMP JUMPDEST POP PUSH2 0x1637 JUMP JUMPDEST DUP8 DUP8 GT ISZERO PUSH2 0x12D4 JUMPI DUP9 PUSH1 0x20 ADD PUSH1 0x1 SWAP1 SLOAD SWAP1 PUSH2 0x100 EXP SWAP1 DIV PUSH20 0xFFFFFFFFFFFFFFFFFFFFFFFFFFFFFFFFFFFFFFFF AND SWAP2 POP DUP9 PUSH1 0x40 ADD PUSH1 0x1 SWAP1 SLOAD SWAP1 PUSH2 0x100 EXP SWAP1 DIV PUSH20 0xFFFFFFFFFFFFFFFFFFFFFFFFFFFFFFFFFFFFFFFF AND PUSH20 0xFFFFFFFFFFFFFFFFFFFFFFFFFFFFFFFFFFFFFFFF AND PUSH4 0xA9059CBB DUP4 DUP6 PUSH1 0x40 MLOAD DUP4 PUSH4 0xFFFFFFFF AND PUSH1 0xE0 SHL DUP2 MSTORE PUSH1 0x4 ADD PUSH2 0x128B SWAP3 SWAP2 SWAP1 PUSH2 0x4A18 JUMP JUMPDEST PUSH1 0x20 PUSH1 0x40 MLOAD DUP1 DUP4 SUB DUP2 PUSH1 0x0 DUP8 GAS CALL ISZERO DUP1 ISZERO PUSH2 0x12AA JUMPI RETURNDATASIZE PUSH1 0x0 DUP1 RETURNDATACOPY RETURNDATASIZE PUSH1 0x0 REVERT JUMPDEST POP POP POP POP PUSH1 0x40 MLOAD RETURNDATASIZE PUSH1 0x1F NOT PUSH1 0x1F DUP3 ADD AND DUP3 ADD DUP1 PUSH1 0x40 MSTORE POP DUP2 ADD SWAP1 PUSH2 0x12CE SWAP2 SWAP1 PUSH2 0x4A6D JUMP JUMPDEST POP PUSH2 0x1636 JUMP JUMPDEST PUSH1 0x0 DUP7 SGT ISZERO PUSH2 0x13AC JUMPI DUP9 PUSH1 0x0 ADD PUSH1 0x0 SWAP1 SLOAD SWAP1 PUSH2 0x100 EXP SWAP1 DIV PUSH20 0xFFFFFFFFFFFFFFFFFFFFFFFFFFFFFFFFFFFFFFFF AND SWAP2 POP DUP9 PUSH1 0x40 ADD PUSH1 0x1 SWAP1 SLOAD SWAP1 PUSH2 0x100 EXP SWAP1 DIV PUSH20 0xFFFFFFFFFFFFFFFFFFFFFFFFFFFFFFFFFFFFFFFF AND PUSH20 0xFFFFFFFFFFFFFFFFFFFFFFFFFFFFFFFFFFFFFFFF AND PUSH4 0xA9059CBB DUP4 DUP6 PUSH1 0x40 MLOAD DUP4 PUSH4 0xFFFFFFFF AND PUSH1 0xE0 SHL DUP2 MSTORE PUSH1 0x4 ADD PUSH2 0x1363 SWAP3 SWAP2 SWAP1 PUSH2 0x4A18 JUMP JUMPDEST PUSH1 0x20 PUSH1 0x40 MLOAD DUP1 DUP4 SUB DUP2 PUSH1 0x0 DUP8 GAS CALL ISZERO DUP1 ISZERO PUSH2 0x1382 JUMPI RETURNDATASIZE PUSH1 0x0 DUP1 RETURNDATACOPY RETURNDATASIZE PUSH1 0x0 REVERT JUMPDEST POP POP POP POP PUSH1 0x40 MLOAD RETURNDATASIZE PUSH1 0x1F NOT PUSH1 0x1F DUP3 ADD AND DUP3 ADD DUP1 PUSH1 0x40 MSTORE POP DUP2 ADD SWAP1 PUSH2 0x13A6 SWAP2 SWAP1 PUSH2 0x4A6D JUMP JUMPDEST POP PUSH2 0x1635 JUMP JUMPDEST PUSH1 0x0 DUP7 SLT ISZERO PUSH2 0x1484 JUMPI DUP9 PUSH1 0x20 ADD PUSH1 0x1 SWAP1 SLOAD SWAP1 PUSH2 0x100 EXP SWAP1 DIV PUSH20 0xFFFFFFFFFFFFFFFFFFFFFFFFFFFFFFFFFFFFFFFF AND SWAP2 POP DUP9 PUSH1 0x40 ADD PUSH1 0x1 SWAP1 SLOAD SWAP1 PUSH2 0x100 EXP SWAP1 DIV PUSH20 0xFFFFFFFFFFFFFFFFFFFFFFFFFFFFFFFFFFFFFFFF AND PUSH20 0xFFFFFFFFFFFFFFFFFFFFFFFFFFFFFFFFFFFFFFFF AND PUSH4 0xA9059CBB DUP4 DUP6 PUSH1 0x40 MLOAD DUP4 PUSH4 0xFFFFFFFF AND PUSH1 0xE0 SHL DUP2 MSTORE PUSH1 0x4 ADD PUSH2 0x143B SWAP3 SWAP2 SWAP1 PUSH2 0x4A18 JUMP JUMPDEST PUSH1 0x20 PUSH1 0x40 MLOAD DUP1 DUP4 SUB DUP2 PUSH1 0x0 DUP8 GAS CALL ISZERO DUP1 ISZERO PUSH2 0x145A JUMPI RETURNDATASIZE PUSH1 0x0 DUP1 RETURNDATACOPY RETURNDATASIZE PUSH1 0x0 REVERT JUMPDEST POP POP POP POP PUSH1 0x40 MLOAD RETURNDATASIZE PUSH1 0x1F NOT PUSH1 0x1F DUP3 ADD AND DUP3 ADD DUP1 PUSH1 0x40 MSTORE POP DUP2 ADD SWAP1 PUSH2 0x147E SWAP2 SWAP1 PUSH2 0x4A6D JUMP JUMPDEST POP PUSH2 0x1634 JUMP JUMPDEST PUSH1 0x1 SWAP1 POP PUSH1 0x0 PUSH1 0x2 DUP5 PUSH2 0x1497 SWAP2 SWAP1 PUSH2 0x4CAA JUMP JUMPDEST SWAP1 POP DUP10 PUSH1 0x40 ADD PUSH1 0x1 SWAP1 SLOAD SWAP1 PUSH2 0x100 EXP SWAP1 DIV PUSH20 0xFFFFFFFFFFFFFFFFFFFFFFFFFFFFFFFFFFFFFFFF AND PUSH20 0xFFFFFFFFFFFFFFFFFFFFFFFFFFFFFFFFFFFFFFFF AND PUSH4 0xA9059CBB DUP12 PUSH1 0x0 ADD PUSH1 0x0 SWAP1 SLOAD SWAP1 PUSH2 0x100 EXP SWAP1 DIV PUSH20 0xFFFFFFFFFFFFFFFFFFFFFFFFFFFFFFFFFFFFFFFF AND DUP4 PUSH1 0x40 MLOAD DUP4 PUSH4 0xFFFFFFFF AND PUSH1 0xE0 SHL DUP2 MSTORE PUSH1 0x4 ADD PUSH2 0x151C SWAP3 SWAP2 SWAP1 PUSH2 0x4A18 JUMP JUMPDEST PUSH1 0x20 PUSH1 0x40 MLOAD DUP1 DUP4 SUB DUP2 PUSH1 0x0 DUP8 GAS CALL ISZERO DUP1 ISZERO PUSH2 0x153B JUMPI RETURNDATASIZE PUSH1 0x0 DUP1 RETURNDATACOPY RETURNDATASIZE PUSH1 0x0 REVERT JUMPDEST POP POP POP POP PUSH1 0x40 MLOAD RETURNDATASIZE PUSH1 0x1F NOT PUSH1 0x1F DUP3 ADD AND DUP3 ADD DUP1 PUSH1 0x40 MSTORE POP DUP2 ADD SWAP1 PUSH2 0x155F SWAP2 SWAP1 PUSH2 0x4A6D JUMP JUMPDEST POP DUP10 PUSH1 0x40 ADD PUSH1 0x1 SWAP1 SLOAD SWAP1 PUSH2 0x100 EXP SWAP1 DIV PUSH20 0xFFFFFFFFFFFFFFFFFFFFFFFFFFFFFFFFFFFFFFFF AND PUSH20 0xFFFFFFFFFFFFFFFFFFFFFFFFFFFFFFFFFFFFFFFF AND PUSH4 0xA9059CBB DUP12 PUSH1 0x20 ADD PUSH1 0x1 SWAP1 SLOAD SWAP1 PUSH2 0x100 EXP SWAP1 DIV PUSH20 0xFFFFFFFFFFFFFFFFFFFFFFFFFFFFFFFFFFFFFFFF AND DUP4 DUP8 PUSH2 0x15D1 SWAP2 SWAP1 PUSH2 0x4CDB JUMP JUMPDEST PUSH1 0x40 MLOAD DUP4 PUSH4 0xFFFFFFFF AND PUSH1 0xE0 SHL DUP2 MSTORE PUSH1 0x4 ADD PUSH2 0x15EE SWAP3 SWAP2 SWAP1 PUSH2 0x4A18 JUMP JUMPDEST PUSH1 0x20 PUSH1 0x40 MLOAD DUP1 DUP4 SUB DUP2 PUSH1 0x0 DUP8 GAS CALL ISZERO DUP1 ISZERO PUSH2 0x160D JUMPI RETURNDATASIZE PUSH1 0x0 DUP1 RETURNDATACOPY RETURNDATASIZE PUSH1 0x0 REVERT JUMPDEST POP POP POP POP PUSH1 0x40 MLOAD RETURNDATASIZE PUSH1 0x1F NOT PUSH1 0x1F DUP3 ADD AND DUP3 ADD DUP1 PUSH1 0x40 MSTORE POP DUP2 ADD SWAP1 PUSH2 0x1631 SWAP2 SWAP1 PUSH2 0x4A6D JUMP JUMPDEST POP POP JUMPDEST JUMPDEST JUMPDEST JUMPDEST PUSH1 0x0 JUMPDEST PUSH1 0x3 DUP2 LT ISZERO PUSH2 0x1818 JUMPI DUP10 PUSH1 0x1 ADD DUP2 PUSH1 0x3 DUP2 LT PUSH2 0x1659 JUMPI PUSH2 0x1658 PUSH2 0x4A9A JUMP JUMPDEST JUMPDEST ADD PUSH1 0x0 SWAP1 SLOAD SWAP1 PUSH2 0x100 EXP SWAP1 DIV PUSH20 0xFFFFFFFFFFFFFFFFFFFFFFFFFFFFFFFFFFFFFFFF AND PUSH20 0xFFFFFFFFFFFFFFFFFFFFFFFFFFFFFFFFFFFFFFFF AND PUSH4 0x23B872DD ADDRESS DUP13 PUSH1 0x0 ADD PUSH1 0x0 SWAP1 SLOAD SWAP1 PUSH2 0x100 EXP SWAP1 DIV PUSH20 0xFFFFFFFFFFFFFFFFFFFFFFFFFFFFFFFFFFFFFFFF AND DUP14 PUSH1 0x4 ADD DUP6 PUSH1 0x3 DUP2 LT PUSH2 0x16D2 JUMPI PUSH2 0x16D1 PUSH2 0x4A9A JUMP JUMPDEST JUMPDEST ADD SLOAD PUSH1 0x40 MLOAD DUP5 PUSH4 0xFFFFFFFF AND PUSH1 0xE0 SHL DUP2 MSTORE PUSH1 0x4 ADD PUSH2 0x16F2 SWAP4 SWAP3 SWAP2 SWAP1 PUSH2 0x4AC9 JUMP JUMPDEST PUSH1 0x0 PUSH1 0x40 MLOAD DUP1 DUP4 SUB DUP2 PUSH1 0x0 DUP8 DUP1 EXTCODESIZE ISZERO DUP1 ISZERO PUSH2 0x170C JUMPI PUSH1 0x0 DUP1 REVERT JUMPDEST POP GAS CALL ISZERO DUP1 ISZERO PUSH2 0x1720 JUMPI RETURNDATASIZE PUSH1 0x0 DUP1 RETURNDATACOPY RETURNDATASIZE PUSH1 0x0 REVERT JUMPDEST POP POP POP POP DUP10 PUSH1 0x21 ADD DUP2 PUSH1 0x3 DUP2 LT PUSH2 0x173A JUMPI PUSH2 0x1739 PUSH2 0x4A9A JUMP JUMPDEST JUMPDEST ADD PUSH1 0x0 SWAP1 SLOAD SWAP1 PUSH2 0x100 EXP SWAP1 DIV PUSH20 0xFFFFFFFFFFFFFFFFFFFFFFFFFFFFFFFFFFFFFFFF AND PUSH20 0xFFFFFFFFFFFFFFFFFFFFFFFFFFFFFFFFFFFFFFFF AND PUSH4 0x23B872DD ADDRESS DUP13 PUSH1 0x20 ADD PUSH1 0x1 SWAP1 SLOAD SWAP1 PUSH2 0x100 EXP SWAP1 DIV PUSH20 0xFFFFFFFFFFFFFFFFFFFFFFFFFFFFFFFFFFFFFFFF AND DUP14 PUSH1 0x24 ADD DUP6 PUSH1 0x3 DUP2 LT PUSH2 0x17B3 JUMPI PUSH2 0x17B2 PUSH2 0x4A9A JUMP JUMPDEST JUMPDEST ADD SLOAD PUSH1 0x40 MLOAD DUP5 PUSH4 0xFFFFFFFF AND PUSH1 0xE0 SHL DUP2 MSTORE PUSH1 0x4 ADD PUSH2 0x17D3 SWAP4 SWAP3 SWAP2 SWAP1 PUSH2 0x4AC9 JUMP JUMPDEST PUSH1 0x0 PUSH1 0x40 MLOAD DUP1 DUP4 SUB DUP2 PUSH1 0x0 DUP8 DUP1 EXTCODESIZE ISZERO DUP1 ISZERO PUSH2 0x17ED JUMPI PUSH1 0x0 DUP1 REVERT JUMPDEST POP GAS CALL ISZERO DUP1 ISZERO PUSH2 0x1801 JUMPI RETURNDATASIZE PUSH1 0x0 DUP1 RETURNDATACOPY RETURNDATASIZE PUSH1 0x0 REVERT JUMPDEST POP POP POP POP DUP1 DUP1 PUSH2 0x1810 SWAP1 PUSH2 0x4B00 JUMP JUMPDEST SWAP2 POP POP PUSH2 0x163A JUMP JUMPDEST POP PUSH1 0x0 DUP10 PUSH1 0x44 ADD PUSH1 0x0 PUSH2 0x100 EXP DUP2 SLOAD DUP2 PUSH1 0xFF MUL NOT AND SWAP1 DUP4 ISZERO ISZERO MUL OR SWAP1 SSTORE POP PUSH32 0x70513431FE7F36611E21FF99AA229C501699D89165596D29C077697D177422D4 DUP11 DUP4 DUP4 PUSH1 0x40 MLOAD PUSH2 0x1869 SWAP4 SWAP3 SWAP2 SWAP1 PUSH2 0x4B48 JUMP JUMPDEST PUSH1 0x40 MLOAD DUP1 SWAP2 SUB SWAP1 LOG1 POP POP POP POP POP POP POP POP POP JUMPDEST POP JUMP JUMPDEST PUSH2 0x1886 PUSH2 0x3458 JUMP JUMPDEST DUP1 PUSH1 0x5 DUP2 SWAP1 SSTORE POP POP JUMP JUMPDEST PUSH1 0x3 PUSH1 0x0 DUP11 PUSH20 0xFFFFFFFFFFFFFFFFFFFFFFFFFFFFFFFFFFFFFFFF AND PUSH20 0xFFFFFFFFFFFFFFFFFFFFFFFFFFFFFFFFFFFFFFFF AND DUP2 MSTORE PUSH1 0x20 ADD SWAP1 DUP2 MSTORE PUSH1 0x20 ADD PUSH1 0x0 KECCAK256 SLOAD DUP9 LT ISZERO PUSH2 0x1912 JUMPI PUSH1 0x40 MLOAD PUSH32 0x8C379A000000000000000000000000000000000000000000000000000000000 DUP2 MSTORE PUSH1 0x4 ADD PUSH2 0x1909 SWAP1 PUSH2 0x4D5B JUMP JUMPDEST PUSH1 0x40 MLOAD DUP1 SWAP2 SUB SWAP1 REVERT JUMPDEST PUSH1 0x2 PUSH1 0x0 DUP11 PUSH20 0xFFFFFFFFFFFFFFFFFFFFFFFFFFFFFFFFFFFFFFFF AND PUSH20 0xFFFFFFFFFFFFFFFFFFFFFFFFFFFFFFFFFFFFFFFF AND DUP2 MSTORE PUSH1 0x20 ADD SWAP1 DUP2 MSTORE PUSH1 0x20 ADD PUSH1 0x0 KECCAK256 PUSH1 0x0 SWAP1 SLOAD SWAP1 PUSH2 0x100 EXP SWAP1 DIV PUSH1 0xFF AND PUSH2 0x199E JUMPI PUSH1 0x40 MLOAD PUSH32 0x8C379A000000000000000000000000000000000000000000000000000000000 DUP2 MSTORE PUSH1 0x4 ADD PUSH2 0x1995 SWAP1 PUSH2 0x4DC7 JUMP JUMPDEST PUSH1 0x40 MLOAD DUP1 SWAP2 SUB SWAP1 REVERT JUMPDEST PUSH1 0x0 DUP1 SHL DUP5 SUB PUSH2 0x19E3 JUMPI PUSH1 0x40 MLOAD PUSH32 0x8C379A000000000000000000000000000000000000000000000000000000000 DUP2 MSTORE PUSH1 0x4 ADD PUSH2 0x19DA SWAP1 PUSH2 0x4E33 JUMP JUMPDEST PUSH1 0x40 MLOAD DUP1 SWAP2 SUB SWAP1 REVERT JUMPDEST PUSH2 0x19EB PUSH2 0x3A74 JUMP JUMPDEST PUSH1 0x0 JUMPDEST PUSH1 0x3 DUP2 LT ISZERO PUSH2 0x1E85 JUMPI PUSH1 0x1 PUSH1 0x0 DUP11 DUP4 PUSH1 0x3 DUP2 LT PUSH2 0x1A0E JUMPI PUSH2 0x1A0D PUSH2 0x4A9A JUMP JUMPDEST JUMPDEST PUSH1 0x20 MUL ADD MLOAD PUSH20 0xFFFFFFFFFFFFFFFFFFFFFFFFFFFFFFFFFFFFFFFF AND PUSH20 0xFFFFFFFFFFFFFFFFFFFFFFFFFFFFFFFFFFFFFFFF AND DUP2 MSTORE PUSH1 0x20 ADD SWAP1 DUP2 MSTORE PUSH1 0x20 ADD PUSH1 0x0 KECCAK256 PUSH1 0x0 SWAP1 SLOAD SWAP1 PUSH2 0x100 EXP SWAP1 DIV PUSH1 0xFF AND PUSH2 0x1A9A JUMPI PUSH1 0x40 MLOAD PUSH32 0x8C379A000000000000000000000000000000000000000000000000000000000 DUP2 MSTORE PUSH1 0x4 ADD PUSH2 0x1A91 SWAP1 PUSH2 0x4E9F JUMP JUMPDEST PUSH1 0x40 MLOAD DUP1 SWAP2 SUB SWAP1 REVERT JUMPDEST PUSH1 0x0 DUP10 DUP3 PUSH1 0x3 DUP2 LT PUSH2 0x1AAF JUMPI PUSH2 0x1AAE PUSH2 0x4A9A JUMP JUMPDEST JUMPDEST PUSH1 0x20 MUL ADD MLOAD SWAP1 POP CALLER PUSH20 0xFFFFFFFFFFFFFFFFFFFFFFFFFFFFFFFFFFFFFFFF AND DUP2 PUSH20 0xFFFFFFFFFFFFFFFFFFFFFFFFFFFFFFFFFFFFFFFF AND PUSH4 0x6352211E DUP12 DUP6 PUSH1 0x3 DUP2 LT PUSH2 0x1AFC JUMPI PUSH2 0x1AFB PUSH2 0x4A9A JUMP JUMPDEST JUMPDEST PUSH1 0x20 MUL ADD MLOAD PUSH1 0x40 MLOAD DUP3 PUSH4 0xFFFFFFFF AND PUSH1 0xE0 SHL DUP2 MSTORE PUSH1 0x4 ADD PUSH2 0x1B1D SWAP2 SWAP1 PUSH2 0x3E3E JUMP JUMPDEST PUSH1 0x20 PUSH1 0x40 MLOAD DUP1 DUP4 SUB DUP2 DUP7 GAS STATICCALL ISZERO DUP1 ISZERO PUSH2 0x1B3A JUMPI RETURNDATASIZE PUSH1 0x0 DUP1 RETURNDATACOPY RETURNDATASIZE PUSH1 0x0 REVERT JUMPDEST POP POP POP POP PUSH1 0x40 MLOAD RETURNDATASIZE PUSH1 0x1F NOT PUSH1 0x1F DUP3 ADD AND DUP3 ADD DUP1 PUSH1 0x40 MSTORE POP DUP2 ADD SWAP1 PUSH2 0x1B5E SWAP2 SWAP1 PUSH2 0x4ED4 JUMP JUMPDEST PUSH20 0xFFFFFFFFFFFFFFFFFFFFFFFFFFFFFFFFFFFFFFFF AND EQ PUSH2 0x1BB4 JUMPI PUSH1 0x40 MLOAD PUSH32 0x8C379A000000000000000000000000000000000000000000000000000000000 DUP2 MSTORE PUSH1 0x4 ADD PUSH2 0x1BAB SWAP1 PUSH2 0x4F4D JUMP JUMPDEST PUSH1 0x40 MLOAD DUP1 SWAP2 SUB SWAP1 REVERT JUMPDEST ADDRESS PUSH20 0xFFFFFFFFFFFFFFFFFFFFFFFFFFFFFFFFFFFFFFFF AND DUP2 PUSH20 0xFFFFFFFFFFFFFFFFFFFFFFFFFFFFFFFFFFFFFFFF AND PUSH4 0x81812FC DUP12 DUP6 PUSH1 0x3 DUP2 LT PUSH2 0x1BFA JUMPI PUSH2 0x1BF9 PUSH2 0x4A9A JUMP JUMPDEST JUMPDEST PUSH1 0x20 MUL ADD MLOAD PUSH1 0x40 MLOAD DUP3 PUSH4 0xFFFFFFFF AND PUSH1 0xE0 SHL DUP2 MSTORE PUSH1 0x4 ADD PUSH2 0x1C1B SWAP2 SWAP1 PUSH2 0x3E3E JUMP JUMPDEST PUSH1 0x20 PUSH1 0x40 MLOAD DUP1 DUP4 SUB DUP2 DUP7 GAS STATICCALL ISZERO DUP1 ISZERO PUSH2 0x1C38 JUMPI RETURNDATASIZE PUSH1 0x0 DUP1 RETURNDATACOPY RETURNDATASIZE PUSH1 0x0 REVERT JUMPDEST POP POP POP POP PUSH1 0x40 MLOAD RETURNDATASIZE PUSH1 0x1F NOT PUSH1 0x1F DUP3 ADD AND DUP3 ADD DUP1 PUSH1 0x40 MSTORE POP DUP2 ADD SWAP1 PUSH2 0x1C5C SWAP2 SWAP1 PUSH2 0x4ED4 JUMP JUMPDEST PUSH20 0xFFFFFFFFFFFFFFFFFFFFFFFFFFFFFFFFFFFFFFFF AND EQ PUSH2 0x1CB2 JUMPI PUSH1 0x40 MLOAD PUSH32 0x8C379A000000000000000000000000000000000000000000000000000000000 DUP2 MSTORE PUSH1 0x4 ADD PUSH2 0x1CA9 SWAP1 PUSH2 0x4FB9 JUMP JUMPDEST PUSH1 0x40 MLOAD DUP1 SWAP2 SUB SWAP1 REVERT JUMPDEST DUP1 PUSH20 0xFFFFFFFFFFFFFFFFFFFFFFFFFFFFFFFFFFFFFFFF AND PUSH4 0x23B872DD CALLER ADDRESS DUP13 DUP7 PUSH1 0x3 DUP2 LT PUSH2 0x1CE3 JUMPI PUSH2 0x1CE2 PUSH2 0x4A9A JUMP JUMPDEST JUMPDEST PUSH1 0x20 MUL ADD MLOAD PUSH1 0x40 MLOAD DUP5 PUSH4 0xFFFFFFFF AND PUSH1 0xE0 SHL DUP2 MSTORE PUSH1 0x4 ADD PUSH2 0x1D06 SWAP4 SWAP3 SWAP2 SWAP1 PUSH2 0x4AC9 JUMP JUMPDEST PUSH1 0x0 PUSH1 0x40 MLOAD DUP1 DUP4 SUB DUP2 PUSH1 0x0 DUP8 DUP1 EXTCODESIZE ISZERO DUP1 ISZERO PUSH2 0x1D20 JUMPI PUSH1 0x0 DUP1 REVERT JUMPDEST POP GAS CALL ISZERO DUP1 ISZERO PUSH2 0x1D34 JUMPI RETURNDATASIZE PUSH1 0x0 DUP1 RETURNDATACOPY RETURNDATASIZE PUSH1 0x0 REVERT JUMPDEST POP POP POP POP PUSH2 0x1D88 DUP10 DUP4 PUSH1 0x3 DUP2 LT PUSH2 0x1D4E JUMPI PUSH2 0x1D4D PUSH2 0x4A9A JUMP JUMPDEST JUMPDEST PUSH1 0x20 MUL ADD MLOAD DUP10 DUP5 PUSH1 0x3 DUP2 LT PUSH2 0x1D66 JUMPI PUSH2 0x1D65 PUSH2 0x4A9A JUMP JUMPDEST JUMPDEST PUSH1 0x20 MUL ADD MLOAD DUP7 DUP6 PUSH1 0x3 DUP2 LT PUSH2 0x1D7E JUMPI PUSH2 0x1D7D PUSH2 0x4A9A JUMP JUMPDEST JUMPDEST PUSH1 0x20 MUL ADD MLOAD PUSH2 0x3707 JUMP JUMPDEST PUSH2 0x1DC7 JUMPI PUSH1 0x40 MLOAD PUSH32 0x8C379A000000000000000000000000000000000000000000000000000000000 DUP2 MSTORE PUSH1 0x4 ADD PUSH2 0x1DBE SWAP1 PUSH2 0x5025 JUMP JUMPDEST PUSH1 0x40 MLOAD DUP1 SWAP2 SUB SWAP1 REVERT JUMPDEST DUP3 DUP9 DUP4 PUSH1 0x3 DUP2 LT PUSH2 0x1DDB JUMPI PUSH2 0x1DDA PUSH2 0x4A9A JUMP JUMPDEST JUMPDEST PUSH1 0x20 MUL ADD MLOAD PUSH1 0x6 DUP2 LT PUSH2 0x1DF1 JUMPI PUSH2 0x1DF0 PUSH2 0x4A9A JUMP JUMPDEST JUMPDEST PUSH1 0x20 MUL ADD MLOAD ISZERO PUSH2 0x1E36 JUMPI PUSH1 0x40 MLOAD PUSH32 0x8C379A000000000000000000000000000000000000000000000000000000000 DUP2 MSTORE PUSH1 0x4 ADD PUSH2 0x1E2D SWAP1 PUSH2 0x5091 JUMP JUMPDEST PUSH1 0x40 MLOAD DUP1 SWAP2 SUB SWAP1 REVERT JUMPDEST PUSH1 0x1 DUP4 DUP10 DUP5 PUSH1 0x3 DUP2 LT PUSH2 0x1E4C JUMPI PUSH2 0x1E4B PUSH2 0x4A9A JUMP JUMPDEST JUMPDEST PUSH1 0x20 MUL ADD MLOAD PUSH1 0x6 DUP2 LT PUSH2 0x1E62 JUMPI PUSH2 0x1E61 PUSH2 0x4A9A JUMP JUMPDEST JUMPDEST PUSH1 0x20 MUL ADD SWAP1 ISZERO ISZERO SWAP1 DUP2 ISZERO ISZERO DUP2 MSTORE POP POP POP DUP1 DUP1 PUSH2 0x1E7D SWAP1 PUSH2 0x4B00 JUMP JUMPDEST SWAP2 POP POP PUSH2 0x19EE JUMP JUMPDEST POP PUSH2 0x1E8F DUP5 PUSH2 0x374C JUMP JUMPDEST PUSH1 0x0 DUP9 DUP9 DUP7 DUP7 PUSH1 0x40 MLOAD PUSH1 0x20 ADD PUSH2 0x1EA8 SWAP5 SWAP4 SWAP3 SWAP2 SWAP1 PUSH2 0x545C JUMP JUMPDEST PUSH1 0x40 MLOAD PUSH1 0x20 DUP2 DUP4 SUB SUB DUP2 MSTORE SWAP1 PUSH1 0x40 MSTORE DUP1 MLOAD SWAP1 PUSH1 0x20 ADD KECCAK256 SWAP1 POP DUP6 DUP2 EQ PUSH2 0x1F02 JUMPI PUSH1 0x40 MLOAD PUSH32 0x8C379A000000000000000000000000000000000000000000000000000000000 DUP2 MSTORE PUSH1 0x4 ADD PUSH2 0x1EF9 SWAP1 PUSH2 0x4E33 JUMP JUMPDEST PUSH1 0x40 MLOAD DUP1 SWAP2 SUB SWAP1 REVERT JUMPDEST PUSH1 0x0 DUP12 SWAP1 POP DUP1 PUSH20 0xFFFFFFFFFFFFFFFFFFFFFFFFFFFFFFFFFFFFFFFF AND PUSH4 0x23B872DD CALLER ADDRESS DUP15 PUSH1 0x40 MLOAD DUP5 PUSH4 0xFFFFFFFF AND PUSH1 0xE0 SHL DUP2 MSTORE PUSH1 0x4 ADD PUSH2 0x1F44 SWAP4 SWAP3 SWAP2 SWAP1 PUSH2 0x4AC9 JUMP JUMPDEST PUSH1 0x20 PUSH1 0x40 MLOAD DUP1 DUP4 SUB DUP2 PUSH1 0x0 DUP8 GAS CALL ISZERO DUP1 ISZERO PUSH2 0x1F63 JUMPI RETURNDATASIZE PUSH1 0x0 DUP1 RETURNDATACOPY RETURNDATASIZE PUSH1 0x0 REVERT JUMPDEST POP POP POP POP PUSH1 0x40 MLOAD RETURNDATASIZE PUSH1 0x1F NOT PUSH1 0x1F DUP3 ADD AND DUP3 ADD DUP1 PUSH1 0x40 MSTORE POP DUP2 ADD SWAP1 PUSH2 0x1F87 SWAP2 SWAP1 PUSH2 0x4A6D JUMP JUMPDEST POP PUSH1 0x0 PUSH1 0x7 PUSH1 0x0 DUP2 SLOAD DUP1 SWAP3 SWAP2 SWAP1 PUSH2 0x1F9D SWAP1 PUSH2 0x4B00 JUMP JUMPDEST SWAP2 SWAP1 POP SSTORE SWAP1 POP PUSH1 0x40 MLOAD DUP1 PUSH2 0x2E0 ADD PUSH1 0x40 MSTORE DUP1 CALLER PUSH20 0xFFFFFFFFFFFFFFFFFFFFFFFFFFFFFFFFFFFFFFFF AND DUP2 MSTORE PUSH1 0x20 ADD DUP13 DUP2 MSTORE PUSH1 0x20 ADD DUP12 DUP2 MSTORE PUSH1 0x20 ADD DUP9 DUP2 MSTORE PUSH1 0x20 ADD DUP8 DUP2 MSTORE PUSH1 0x20 ADD DUP11 DUP2 MSTORE PUSH1 0x20 ADD DUP10 DUP2 MSTORE PUSH1 0x20 ADD PUSH1 0x40 MLOAD DUP1 PUSH1 0x60 ADD PUSH1 0x40 MSTORE DUP1 PUSH1 0x0 DUP2 MSTORE PUSH1 0x20 ADD PUSH1 0x0 DUP2 MSTORE PUSH1 0x20 ADD PUSH1 0x0 DUP2 MSTORE POP DUP2 MSTORE PUSH1 0x20 ADD PUSH1 0x0 ISZERO ISZERO DUP2 MSTORE PUSH1 0x20 ADD PUSH1 0x0 PUSH20 0xFFFFFFFFFFFFFFFFFFFFFFFFFFFFFFFFFFFFFFFF AND DUP2 MSTORE PUSH1 0x20 ADD PUSH1 0x40 MLOAD DUP1 PUSH1 0x60 ADD PUSH1 0x40 MSTORE DUP1 PUSH1 0x0 PUSH20 0xFFFFFFFFFFFFFFFFFFFFFFFFFFFFFFFFFFFFFFFF AND PUSH20 0xFFFFFFFFFFFFFFFFFFFFFFFFFFFFFFFFFFFFFFFF AND DUP2 MSTORE PUSH1 0x20 ADD PUSH1 0x0 PUSH20 0xFFFFFFFFFFFFFFFFFFFFFFFFFFFFFFFFFFFFFFFF AND PUSH20 0xFFFFFFFFFFFFFFFFFFFFFFFFFFFFFFFFFFFFFFFF AND DUP2 MSTORE PUSH1 0x20 ADD PUSH1 0x0 PUSH20 0xFFFFFFFFFFFFFFFFFFFFFFFFFFFFFFFFFFFFFFFF AND PUSH20 0xFFFFFFFFFFFFFFFFFFFFFFFFFFFFFFFFFFFFFFFF AND DUP2 MSTORE POP DUP2 MSTORE PUSH1 0x20 ADD PUSH1 0x40 MLOAD DUP1 PUSH1 0x60 ADD PUSH1 0x40 MSTORE DUP1 PUSH1 0x0 DUP2 MSTORE PUSH1 0x20 ADD PUSH1 0x0 DUP2 MSTORE PUSH1 0x20 ADD PUSH1 0x0 DUP2 MSTORE POP DUP2 MSTORE PUSH1 0x20 ADD PUSH1 0x40 MLOAD DUP1 PUSH1 0x60 ADD PUSH1 0x40 MSTORE DUP1 PUSH1 0x40 MLOAD DUP1 PUSH1 0x20 ADD PUSH1 0x40 MSTORE DUP1 PUSH1 0x0 DUP2 MSTORE POP DUP2 MSTORE PUSH1 0x20 ADD PUSH1 0x40 MLOAD DUP1 PUSH1 0x20 ADD PUSH1 0x40 MSTORE DUP1 PUSH1 0x0 DUP2 MSTORE POP DUP2 MSTORE PUSH1 0x20 ADD PUSH1 0x40 MLOAD DUP1 PUSH1 0x20 ADD PUSH1 0x40 MSTORE DUP1 PUSH1 0x0 DUP2 MSTORE POP DUP2 MSTORE POP DUP2 MSTORE PUSH1 0x20 ADD PUSH1 0x40 MLOAD DUP1 PUSH1 0x60 ADD PUSH1 0x40 MSTORE DUP1 PUSH1 0x40 MLOAD DUP1 PUSH1 0xA0 ADD PUSH1 0x40 MSTORE DUP1 PUSH1 0x0 DUP2 MSTORE PUSH1 0x20 ADD PUSH1 0x0 DUP2 MSTORE PUSH1 0x20 ADD PUSH1 0x0 DUP2 MSTORE PUSH1 0x20 ADD PUSH1 0x0 DUP2 MSTORE PUSH1 0x20 ADD PUSH1 0x0 DUP2 MSTORE POP DUP2 MSTORE PUSH1 0x20 ADD PUSH1 0x40 MLOAD DUP1 PUSH1 0xA0 ADD PUSH1 0x40 MSTORE DUP1 PUSH1 0x0 DUP2 MSTORE PUSH1 0x20 ADD PUSH1 0x0 DUP2 MSTORE PUSH1 0x20 ADD PUSH1 0x0 DUP2 MSTORE PUSH1 0x20 ADD PUSH1 0x0 DUP2 MSTORE PUSH1 0x20 ADD PUSH1 0x0 DUP2 MSTORE POP DUP2 MSTORE PUSH1 0x20 ADD PUSH1 0x40 MLOAD DUP1 PUSH1 0xA0 ADD PUSH1 0x40 MSTORE DUP1 PUSH1 0x0 DUP2 MSTORE PUSH1 0x20 ADD PUSH1 0x0 DUP2 MSTORE PUSH1 0x20 ADD PUSH1 0x0 DUP2 MSTORE PUSH1 0x20 ADD PUSH1 0x0 DUP2 MSTORE PUSH1 0x20 ADD PUSH1 0x0 DUP2 MSTORE POP DUP2 MSTORE POP DUP2 MSTORE PUSH1 0x20 ADD PUSH1 0x40 MLOAD DUP1 PUSH1 0x60 ADD PUSH1 0x40 MSTORE DUP1 PUSH1 0x0 DUP2 MSTORE PUSH1 0x20 ADD PUSH1 0x0 DUP2 MSTORE PUSH1 0x20 ADD PUSH1 0x0 DUP2 MSTORE POP DUP2 MSTORE PUSH1 0x20 ADD PUSH1 0x0 DUP1 SHL DUP2 MSTORE PUSH1 0x20 ADD PUSH1 0x40 MLOAD DUP1 PUSH1 0x60 ADD PUSH1 0x40 MSTORE DUP1 PUSH1 0x0 DUP2 MSTORE PUSH1 0x20 ADD PUSH1 0x0 DUP2 MSTORE PUSH1 0x20 ADD PUSH1 0x0 DUP2 MSTORE POP DUP2 MSTORE PUSH1 0x20 ADD PUSH1 0x0 ISZERO ISZERO DUP2 MSTORE PUSH1 0x20 ADD DUP4 PUSH20 0xFFFFFFFFFFFFFFFFFFFFFFFFFFFFFFFFFFFFFFFF AND DUP2 MSTORE PUSH1 0x20 ADD DUP14 DUP2 MSTORE PUSH1 0x20 ADD TIMESTAMP DUP2 MSTORE PUSH1 0x20 ADD PUSH1 0x0 DUP2 MSTORE PUSH1 0x20 ADD PUSH1 0x1 ISZERO ISZERO DUP2 MSTORE POP PUSH1 0x6 PUSH1 0x0 DUP4 DUP2 MSTORE PUSH1 0x20 ADD SWAP1 DUP2 MSTORE PUSH1 0x20 ADD PUSH1 0x0 KECCAK256 PUSH1 0x0 DUP3 ADD MLOAD DUP2 PUSH1 0x0 ADD PUSH1 0x0 PUSH2 0x100 EXP DUP2 SLOAD DUP2 PUSH20 0xFFFFFFFFFFFFFFFFFFFFFFFFFFFFFFFFFFFFFFFF MUL NOT AND SWAP1 DUP4 PUSH20 0xFFFFFFFFFFFFFFFFFFFFFFFFFFFFFFFFFFFFFFFF AND MUL OR SWAP1 SSTORE POP PUSH1 0x20 DUP3 ADD MLOAD DUP2 PUSH1 0x1 ADD SWAP1 PUSH1 0x3 PUSH2 0x22EF SWAP3 SWAP2 SWAP1 PUSH2 0x3A96 JUMP JUMPDEST POP PUSH1 0x40 DUP3 ADD MLOAD DUP2 PUSH1 0x4 ADD SWAP1 PUSH1 0x3 PUSH2 0x2307 SWAP3 SWAP2 SWAP1 PUSH2 0x3B13 JUMP JUMPDEST POP PUSH1 0x60 DUP3 ADD MLOAD DUP2 PUSH1 0x7 ADD SWAP1 PUSH1 0x3 PUSH2 0x231F SWAP3 SWAP2 SWAP1 PUSH2 0x3B53 JUMP JUMPDEST POP PUSH1 0x80 DUP3 ADD MLOAD DUP2 PUSH1 0xA ADD SWAP1 PUSH1 0x3 PUSH2 0x2337 SWAP3 SWAP2 SWAP1 PUSH2 0x3B9F JUMP JUMPDEST POP PUSH1 0xA0 DUP3 ADD MLOAD DUP2 PUSH1 0x19 ADD SWAP1 PUSH1 0x3 PUSH2 0x234F SWAP3 SWAP2 SWAP1 PUSH2 0x3B13 JUMP JUMPDEST POP PUSH1 0xC0 DUP3 ADD MLOAD DUP2 PUSH1 0x1C ADD SSTORE PUSH1 0xE0 DUP3 ADD MLOAD DUP2 PUSH1 0x1D ADD SWAP1 PUSH1 0x3 PUSH2 0x2371 SWAP3 SWAP2 SWAP1 PUSH2 0x3B13 JUMP JUMPDEST POP PUSH2 0x100 DUP3 ADD MLOAD DUP2 PUSH1 0x20 ADD PUSH1 0x0 PUSH2 0x100 EXP DUP2 SLOAD DUP2 PUSH1 0xFF MUL NOT AND SWAP1 DUP4 ISZERO ISZERO MUL OR SWAP1 SSTORE POP PUSH2 0x120 DUP3 ADD MLOAD DUP2 PUSH1 0x20 ADD PUSH1 0x1 PUSH2 0x100 EXP DUP2 SLOAD DUP2 PUSH20 0xFFFFFFFFFFFFFFFFFFFFFFFFFFFFFFFFFFFFFFFF MUL NOT AND SWAP1 DUP4 PUSH20 0xFFFFFFFFFFFFFFFFFFFFFFFFFFFFFFFFFFFFFFFF AND MUL OR SWAP1 SSTORE POP PUSH2 0x140 DUP3 ADD MLOAD DUP2 PUSH1 0x21 ADD SWAP1 PUSH1 0x3 PUSH2 0x23F3 SWAP3 SWAP2 SWAP1 PUSH2 0x3A96 JUMP JUMPDEST POP PUSH2 0x160 DUP3 ADD MLOAD DUP2 PUSH1 0x24 ADD SWAP1 PUSH1 0x3 PUSH2 0x240C SWAP3 SWAP2 SWAP1 PUSH2 0x3B13 JUMP JUMPDEST POP PUSH2 0x180 DUP3 ADD MLOAD DUP2 PUSH1 0x27 ADD SWAP1 PUSH1 0x3 PUSH2 0x2425 SWAP3 SWAP2 SWAP1 PUSH2 0x3B53 JUMP JUMPDEST POP PUSH2 0x1A0 DUP3 ADD MLOAD DUP2 PUSH1 0x2A ADD SWAP1 PUSH1 0x3 PUSH2 0x243E SWAP3 SWAP2 SWAP1 PUSH2 0x3B9F JUMP JUMPDEST POP PUSH2 0x1C0 DUP3 ADD MLOAD DUP2 PUSH1 0x39 ADD SWAP1 PUSH1 0x3 PUSH2 0x2457 SWAP3 SWAP2 SWAP1 PUSH2 0x3B13 JUMP JUMPDEST POP PUSH2 0x1E0 DUP3 ADD MLOAD DUP2 PUSH1 0x3C ADD SSTORE PUSH2 0x200 DUP3 ADD MLOAD DUP2 PUSH1 0x3D ADD SWAP1 PUSH1 0x3 PUSH2 0x247B SWAP3 SWAP2 SWAP1 PUSH2 0x3B13 JUMP JUMPDEST POP PUSH2 0x220 DUP3 ADD MLOAD DUP2 PUSH1 0x40 ADD PUSH1 0x0 PUSH2 0x100 EXP DUP2 SLOAD DUP2 PUSH1 0xFF MUL NOT AND SWAP1 DUP4 ISZERO ISZERO MUL OR SWAP1 SSTORE POP PUSH2 0x240 DUP3 ADD MLOAD DUP2 PUSH1 0x40 ADD PUSH1 0x1 PUSH2 0x100 EXP DUP2 SLOAD DUP2 PUSH20 0xFFFFFFFFFFFFFFFFFFFFFFFFFFFFFFFFFFFFFFFF MUL NOT AND SWAP1 DUP4 PUSH20 0xFFFFFFFFFFFFFFFFFFFFFFFFFFFFFFFFFFFFFFFF AND MUL OR SWAP1 SSTORE POP PUSH2 0x260 DUP3 ADD MLOAD DUP2 PUSH1 0x41 ADD SSTORE PUSH2 0x280 DUP3 ADD MLOAD DUP2 PUSH1 0x42 ADD SSTORE PUSH2 0x2A0 DUP3 ADD MLOAD DUP2 PUSH1 0x43 ADD SSTORE PUSH2 0x2C0 DUP3 ADD MLOAD DUP2 PUSH1 0x44 ADD PUSH1 0x0 PUSH2 0x100 EXP DUP2 SLOAD DUP2 PUSH1 0xFF MUL NOT AND SWAP1 DUP4 ISZERO ISZERO MUL OR SWAP1 SSTORE POP SWAP1 POP POP PUSH32 0x6200407C0EA392B8107B21A9BE480ACD41FDA186D04BED28CC7DA2D4B53D56E2 DUP2 CALLER DUP16 DUP16 PUSH1 0x40 MLOAD PUSH2 0x255F SWAP5 SWAP4 SWAP3 SWAP2 SWAP1 PUSH2 0x54A9 JUMP JUMPDEST PUSH1 0x40 MLOAD DUP1 SWAP2 SUB SWAP1 LOG1 POP POP POP POP POP POP POP POP POP POP POP POP POP JUMP JUMPDEST PUSH1 0x2 PUSH1 0x20 MSTORE DUP1 PUSH1 0x0 MSTORE PUSH1 0x40 PUSH1 0x0 KECCAK256 PUSH1 0x0 SWAP2 POP SLOAD SWAP1 PUSH2 0x100 EXP SWAP1 DIV PUSH1 0xFF AND DUP2 JUMP JUMPDEST PUSH1 0x4 PUSH1 0x0 SWAP1 SLOAD SWAP1 PUSH2 0x100 EXP SWAP1 DIV PUSH20 0xFFFFFFFFFFFFFFFFFFFFFFFFFFFFFFFFFFFFFFFF AND DUP2 JUMP JUMPDEST PUSH1 0x0 PUSH1 0x6 PUSH1 0x0 DUP6 DUP2 MSTORE PUSH1 0x20 ADD SWAP1 DUP2 MSTORE PUSH1 0x20 ADD PUSH1 0x0 KECCAK256 SWAP1 POP DUP1 PUSH1 0x44 ADD PUSH1 0x0 SWAP1 SLOAD SWAP1 PUSH2 0x100 EXP SWAP1 DIV PUSH1 0xFF AND PUSH2 0x2624 JUMPI PUSH1 0x40 MLOAD PUSH32 0x8C379A000000000000000000000000000000000000000000000000000000000 DUP2 MSTORE PUSH1 0x4 ADD PUSH2 0x261B SWAP1 PUSH2 0x4995 JUMP JUMPDEST PUSH1 0x40 MLOAD DUP1 SWAP2 SUB SWAP1 REVERT JUMPDEST PUSH1 0x0 DUP2 PUSH1 0x0 ADD PUSH1 0x0 SWAP1 SLOAD SWAP1 PUSH2 0x100 EXP SWAP1 DIV PUSH20 0xFFFFFFFFFFFFFFFFFFFFFFFFFFFFFFFFFFFFFFFF AND PUSH20 0xFFFFFFFFFFFFFFFFFFFFFFFFFFFFFFFFFFFFFFFF AND CALLER PUSH20 0xFFFFFFFFFFFFFFFFFFFFFFFFFFFFFFFFFFFFFFFF AND EQ SWAP1 POP PUSH1 0x0 DUP3 PUSH1 0x20 ADD PUSH1 0x1 SWAP1 SLOAD SWAP1 PUSH2 0x100 EXP SWAP1 DIV PUSH20 0xFFFFFFFFFFFFFFFFFFFFFFFFFFFFFFFFFFFFFFFF AND PUSH20 0xFFFFFFFFFFFFFFFFFFFFFFFFFFFFFFFFFFFFFFFF AND CALLER PUSH20 0xFFFFFFFFFFFFFFFFFFFFFFFFFFFFFFFFFFFFFFFF AND EQ SWAP1 POP DUP2 DUP1 PUSH2 0x26DB JUMPI POP DUP1 JUMPDEST PUSH2 0x271A JUMPI PUSH1 0x40 MLOAD PUSH32 0x8C379A000000000000000000000000000000000000000000000000000000000 DUP2 MSTORE PUSH1 0x4 ADD PUSH2 0x2711 SWAP1 PUSH2 0x553A JUMP JUMPDEST PUSH1 0x40 MLOAD DUP1 SWAP2 SUB SWAP1 REVERT JUMPDEST PUSH1 0x0 DUP3 PUSH2 0x272B JUMPI DUP4 PUSH1 0x3C ADD SLOAD PUSH2 0x2731 JUMP JUMPDEST DUP4 PUSH1 0x1C ADD SLOAD JUMPDEST SWAP1 POP PUSH1 0x0 DUP4 PUSH2 0x2751 JUMPI DUP5 PUSH1 0x40 ADD PUSH1 0x0 SWAP1 SLOAD SWAP1 PUSH2 0x100 EXP SWAP1 DIV PUSH1 0xFF AND PUSH2 0x2764 JUMP JUMPDEST DUP5 PUSH1 0x20 ADD PUSH1 0x0 SWAP1 SLOAD SWAP1 PUSH2 0x100 EXP SWAP1 DIV PUSH1 0xFF AND JUMPDEST SWAP1 POP DUP1 ISZERO PUSH2 0x27A7 JUMPI PUSH1 0x40 MLOAD PUSH32 0x8C379A000000000000000000000000000000000000000000000000000000000 DUP2 MSTORE PUSH1 0x4 ADD PUSH2 0x279E SWAP1 PUSH2 0x55A6 JUMP JUMPDEST PUSH1 0x40 MLOAD DUP1 SWAP2 SUB SWAP1 REVERT JUMPDEST PUSH1 0x0 DUP8 DUP8 PUSH1 0x0 PUSH1 0x3 DUP2 LT PUSH2 0x27BE JUMPI PUSH2 0x27BD PUSH2 0x4A9A JUMP JUMPDEST JUMPDEST PUSH1 0x20 MUL ADD MLOAD DUP9 PUSH1 0x1 PUSH1 0x3 DUP2 LT PUSH2 0x27D7 JUMPI PUSH2 0x27D6 PUSH2 0x4A9A JUMP JUMPDEST JUMPDEST PUSH1 0x20 MUL ADD MLOAD DUP10 PUSH1 0x2 PUSH1 0x3 DUP2 LT PUSH2 0x27F0 JUMPI PUSH2 0x27EF PUSH2 0x4A9A JUMP JUMPDEST JUMPDEST PUSH1 0x20 MUL ADD MLOAD PUSH1 0x40 MLOAD PUSH1 0x20 ADD PUSH2 0x2808 SWAP5 SWAP4 SWAP3 SWAP2 SWAP1 PUSH2 0x55E7 JUMP JUMPDEST PUSH1 0x40 MLOAD PUSH1 0x20 DUP2 DUP4 SUB SUB DUP2 MSTORE SWAP1 PUSH1 0x40 MSTORE DUP1 MLOAD SWAP1 PUSH1 0x20 ADD KECCAK256 SWAP1 POP DUP3 DUP2 EQ PUSH2 0x2862 JUMPI PUSH1 0x40 MLOAD PUSH32 0x8C379A000000000000000000000000000000000000000000000000000000000 DUP2 MSTORE PUSH1 0x4 ADD PUSH2 0x2859 SWAP1 PUSH2 0x5681 JUMP JUMPDEST PUSH1 0x40 MLOAD DUP1 SWAP2 SUB SWAP1 REVERT JUMPDEST PUSH2 0x286A PUSH2 0x3BF0 JUMP JUMPDEST PUSH1 0x0 JUMPDEST PUSH1 0x3 DUP2 LT ISZERO PUSH2 0x2965 JUMPI PUSH1 0x0 DUP10 DUP3 PUSH1 0x3 DUP2 LT PUSH2 0x288B JUMPI PUSH2 0x288A PUSH2 0x4A9A JUMP JUMPDEST JUMPDEST PUSH1 0x20 MUL ADD MLOAD SWAP1 POP PUSH1 0x3 DUP2 LT PUSH2 0x28D5 JUMPI PUSH1 0x40 MLOAD PUSH32 0x8C379A000000000000000000000000000000000000000000000000000000000 DUP2 MSTORE PUSH1 0x4 ADD PUSH2 0x28CC SWAP1 PUSH2 0x56ED JUMP JUMPDEST PUSH1 0x40 MLOAD DUP1 SWAP2 SUB SWAP1 REVERT JUMPDEST DUP3 DUP2 PUSH1 0x3 DUP2 LT PUSH2 0x28E8 JUMPI PUSH2 0x28E7 PUSH2 0x4A9A JUMP JUMPDEST JUMPDEST PUSH1 0x20 MUL ADD MLOAD ISZERO PUSH2 0x292D JUMPI PUSH1 0x40 MLOAD PUSH32 0x8C379A000000000000000000000000000000000000000000000000000000000 DUP2 MSTORE PUSH1 0x4 ADD PUSH2 0x2924 SWAP1 PUSH2 0x5759 JUMP JUMPDEST PUSH1 0x40 MLOAD DUP1 SWAP2 SUB SWAP1 REVERT JUMPDEST PUSH1 0x1 DUP4 DUP3 PUSH1 0x3 DUP2 LT PUSH2 0x2942 JUMPI PUSH2 0x2941 PUSH2 0x4A9A JUMP JUMPDEST JUMPDEST PUSH1 0x20 MUL ADD SWAP1 ISZERO ISZERO SWAP1 DUP2 ISZERO ISZERO DUP2 MSTORE POP POP POP DUP1 DUP1 PUSH2 0x295D SWAP1 PUSH2 0x4B00 JUMP JUMPDEST SWAP2 POP POP PUSH2 0x286D JUMP JUMPDEST POP DUP6 ISZERO PUSH2 0x29A2 JUMPI DUP8 DUP8 PUSH1 0x1D ADD SWAP1 PUSH1 0x3 PUSH2 0x297F SWAP3 SWAP2 SWAP1 PUSH2 0x3B13 JUMP JUMPDEST POP PUSH1 0x1 DUP8 PUSH1 0x20 ADD PUSH1 0x0 PUSH2 0x100 EXP DUP2 SLOAD DUP2 PUSH1 0xFF MUL NOT AND SWAP1 DUP4 ISZERO ISZERO MUL OR SWAP1 SSTORE POP PUSH2 0x29D4 JUMP JUMPDEST DUP8 DUP8 PUSH1 0x3D ADD SWAP1 PUSH1 0x3 PUSH2 0x29B5 SWAP3 SWAP2 SWAP1 PUSH2 0x3B13 JUMP JUMPDEST POP PUSH1 0x1 DUP8 PUSH1 0x40 ADD PUSH1 0x0 PUSH2 0x100 EXP DUP2 SLOAD DUP2 PUSH1 0xFF MUL NOT AND SWAP1 DUP4 ISZERO ISZERO MUL OR SWAP1 SSTORE POP JUMPDEST PUSH32 0xCA89DC79CA69FFB087E833CE20114EE29DC90B746538266055B11D9B008EFE18 DUP11 CALLER PUSH1 0x40 MLOAD PUSH2 0x2A05 SWAP3 SWAP2 SWAP1 PUSH2 0x5779 JUMP JUMPDEST PUSH1 0x40 MLOAD DUP1 SWAP2 SUB SWAP1 LOG1 POP POP POP POP POP POP POP POP POP POP JUMP JUMPDEST PUSH2 0x2A21 PUSH2 0x3458 JUMP JUMPDEST PUSH2 0x2A2B PUSH1 0x0 PUSH2 0x38F9 JUMP JUMPDEST JUMP JUMPDEST PUSH2 0x2A35 PUSH2 0x3458 JUMP JUMPDEST PUSH1 0x0 PUSH20 0xFFFFFFFFFFFFFFFFFFFFFFFFFFFFFFFFFFFFFFFF AND DUP3 PUSH20 0xFFFFFFFFFFFFFFFFFFFFFFFFFFFFFFFFFFFFFFFF AND SUB PUSH2 0x2A6E JUMPI PUSH1 0x0 DUP1 REVERT JUMPDEST PUSH1 0x1 PUSH1 0x2 PUSH1 0x0 DUP5 PUSH20 0xFFFFFFFFFFFFFFFFFFFFFFFFFFFFFFFFFFFFFFFF AND PUSH20 0xFFFFFFFFFFFFFFFFFFFFFFFFFFFFFFFFFFFFFFFF AND DUP2 MSTORE PUSH1 0x20 ADD SWAP1 DUP2 MSTORE PUSH1 0x20 ADD PUSH1 0x0 KECCAK256 PUSH1 0x0 PUSH2 0x100 EXP DUP2 SLOAD DUP2 PUSH1 0xFF MUL NOT AND SWAP1 DUP4 ISZERO ISZERO MUL OR SWAP1 SSTORE POP DUP1 PUSH1 0x3 PUSH1 0x0 DUP5 PUSH20 0xFFFFFFFFFFFFFFFFFFFFFFFFFFFFFFFFFFFFFFFF AND PUSH20 0xFFFFFFFFFFFFFFFFFFFFFFFFFFFFFFFFFFFFFFFF AND DUP2 MSTORE PUSH1 0x20 ADD SWAP1 DUP2 MSTORE PUSH1 0x20 ADD PUSH1 0x0 KECCAK256 DUP2 SWAP1 SSTORE POP POP POP JUMP JUMPDEST PUSH1 0x0 DUP1 PUSH1 0x0 SWAP1 SLOAD SWAP1 PUSH2 0x100 EXP SWAP1 DIV PUSH20 0xFFFFFFFFFFFFFFFFFFFFFFFFFFFFFFFFFFFFFFFF AND SWAP1 POP SWAP1 JUMP JUMPDEST PUSH1 0x0 PUSH1 0x6 PUSH1 0x0 DUP11 DUP2 MSTORE PUSH1 0x20 ADD SWAP1 DUP2 MSTORE PUSH1 0x20 ADD PUSH1 0x0 KECCAK256 SWAP1 POP DUP1 PUSH1 0x44 ADD PUSH1 0x0 SWAP1 SLOAD SWAP1 PUSH2 0x100 EXP SWAP1 DIV PUSH1 0xFF AND PUSH2 0x2B9F JUMPI PUSH1 0x40 MLOAD PUSH32 0x8C379A000000000000000000000000000000000000000000000000000000000 DUP2 MSTORE PUSH1 0x4 ADD PUSH2 0x2B96 SWAP1 PUSH2 0x4995 JUMP JUMPDEST PUSH1 0x40 MLOAD DUP1 SWAP2 SUB SWAP1 REVERT JUMPDEST PUSH1 0x0 PUSH20 0xFFFFFFFFFFFFFFFFFFFFFFFFFFFFFFFFFFFFFFFF AND DUP2 PUSH1 0x20 ADD PUSH1 0x1 SWAP1 SLOAD SWAP1 PUSH2 0x100 EXP SWAP1 DIV PUSH20 0xFFFFFFFFFFFFFFFFFFFFFFFFFFFFFFFFFFFFFFFF AND PUSH20 0xFFFFFFFFFFFFFFFFFFFFFFFFFFFFFFFFFFFFFFFF AND EQ PUSH2 0x2C32 JUMPI PUSH1 0x40 MLOAD PUSH32 0x8C379A000000000000000000000000000000000000000000000000000000000 DUP2 MSTORE PUSH1 0x4 ADD PUSH2 0x2C29 SWAP1 PUSH2 0x57EE JUMP JUMPDEST PUSH1 0x40 MLOAD DUP1 SWAP2 SUB SWAP1 REVERT JUMPDEST PUSH1 0x0 DUP1 SHL DUP6 SUB PUSH2 0x2C77 JUMPI PUSH1 0x40 MLOAD PUSH32 0x8C379A000000000000000000000000000000000000000000000000000000000 DUP2 MSTORE PUSH1 0x4 ADD PUSH2 0x2C6E SWAP1 PUSH2 0x4E33 JUMP JUMPDEST PUSH1 0x40 MLOAD DUP1 SWAP2 SUB SWAP1 REVERT JUMPDEST PUSH2 0x2C7F PUSH2 0x3A74 JUMP JUMPDEST PUSH1 0x0 JUMPDEST PUSH1 0x3 DUP2 LT ISZERO PUSH2 0x3119 JUMPI PUSH1 0x1 PUSH1 0x0 DUP12 DUP4 PUSH1 0x3 DUP2 LT PUSH2 0x2CA2 JUMPI PUSH2 0x2CA1 PUSH2 0x4A9A JUMP JUMPDEST JUMPDEST PUSH1 0x20 MUL ADD MLOAD PUSH20 0xFFFFFFFFFFFFFFFFFFFFFFFFFFFFFFFFFFFFFFFF AND PUSH20 0xFFFFFFFFFFFFFFFFFFFFFFFFFFFFFFFFFFFFFFFF AND DUP2 MSTORE PUSH1 0x20 ADD SWAP1 DUP2 MSTORE PUSH1 0x20 ADD PUSH1 0x0 KECCAK256 PUSH1 0x0 SWAP1 SLOAD SWAP1 PUSH2 0x100 EXP SWAP1 DIV PUSH1 0xFF AND PUSH2 0x2D2E JUMPI PUSH1 0x40 MLOAD PUSH32 0x8C379A000000000000000000000000000000000000000000000000000000000 DUP2 MSTORE PUSH1 0x4 ADD PUSH2 0x2D25 SWAP1 PUSH2 0x4E9F JUMP JUMPDEST PUSH1 0x40 MLOAD DUP1 SWAP2 SUB SWAP1 REVERT JUMPDEST PUSH1 0x0 DUP11 DUP3 PUSH1 0x3 DUP2 LT PUSH2 0x2D43 JUMPI PUSH2 0x2D42 PUSH2 0x4A9A JUMP JUMPDEST JUMPDEST PUSH1 0x20 MUL ADD MLOAD SWAP1 POP CALLER PUSH20 0xFFFFFFFFFFFFFFFFFFFFFFFFFFFFFFFFFFFFFFFF AND DUP2 PUSH20 0xFFFFFFFFFFFFFFFFFFFFFFFFFFFFFFFFFFFFFFFF AND PUSH4 0x6352211E DUP13 DUP6 PUSH1 0x3 DUP2 LT PUSH2 0x2D90 JUMPI PUSH2 0x2D8F PUSH2 0x4A9A JUMP JUMPDEST JUMPDEST PUSH1 0x20 MUL ADD MLOAD PUSH1 0x40 MLOAD DUP3 PUSH4 0xFFFFFFFF AND PUSH1 0xE0 SHL DUP2 MSTORE PUSH1 0x4 ADD PUSH2 0x2DB1 SWAP2 SWAP1 PUSH2 0x3E3E JUMP JUMPDEST PUSH1 0x20 PUSH1 0x40 MLOAD DUP1 DUP4 SUB DUP2 DUP7 GAS STATICCALL ISZERO DUP1 ISZERO PUSH2 0x2DCE JUMPI RETURNDATASIZE PUSH1 0x0 DUP1 RETURNDATACOPY RETURNDATASIZE PUSH1 0x0 REVERT JUMPDEST POP POP POP POP PUSH1 0x40 MLOAD RETURNDATASIZE PUSH1 0x1F NOT PUSH1 0x1F DUP3 ADD AND DUP3 ADD DUP1 PUSH1 0x40 MSTORE POP DUP2 ADD SWAP1 PUSH2 0x2DF2 SWAP2 SWAP1 PUSH2 0x4ED4 JUMP JUMPDEST PUSH20 0xFFFFFFFFFFFFFFFFFFFFFFFFFFFFFFFFFFFFFFFF AND EQ PUSH2 0x2E48 JUMPI PUSH1 0x40 MLOAD PUSH32 0x8C379A000000000000000000000000000000000000000000000000000000000 DUP2 MSTORE PUSH1 0x4 ADD PUSH2 0x2E3F SWAP1 PUSH2 0x4F4D JUMP JUMPDEST PUSH1 0x40 MLOAD DUP1 SWAP2 SUB SWAP1 REVERT JUMPDEST ADDRESS PUSH20 0xFFFFFFFFFFFFFFFFFFFFFFFFFFFFFFFFFFFFFFFF AND DUP2 PUSH20 0xFFFFFFFFFFFFFFFFFFFFFFFFFFFFFFFFFFFFFFFF AND PUSH4 0x81812FC DUP13 DUP6 PUSH1 0x3 DUP2 LT PUSH2 0x2E8E JUMPI PUSH2 0x2E8D PUSH2 0x4A9A JUMP JUMPDEST JUMPDEST PUSH1 0x20 MUL ADD MLOAD PUSH1 0x40 MLOAD DUP3 PUSH4 0xFFFFFFFF AND PUSH1 0xE0 SHL DUP2 MSTORE PUSH1 0x4 ADD PUSH2 0x2EAF SWAP2 SWAP1 PUSH2 0x3E3E JUMP JUMPDEST PUSH1 0x20 PUSH1 0x40 MLOAD DUP1 DUP4 SUB DUP2 DUP7 GAS STATICCALL ISZERO DUP1 ISZERO PUSH2 0x2ECC JUMPI RETURNDATASIZE PUSH1 0x0 DUP1 RETURNDATACOPY RETURNDATASIZE PUSH1 0x0 REVERT JUMPDEST POP POP POP POP PUSH1 0x40 MLOAD RETURNDATASIZE PUSH1 0x1F NOT PUSH1 0x1F DUP3 ADD AND DUP3 ADD DUP1 PUSH1 0x40 MSTORE POP DUP2 ADD SWAP1 PUSH2 0x2EF0 SWAP2 SWAP1 PUSH2 0x4ED4 JUMP JUMPDEST PUSH20 0xFFFFFFFFFFFFFFFFFFFFFFFFFFFFFFFFFFFFFFFF AND EQ PUSH2 0x2F46 JUMPI PUSH1 0x40 MLOAD PUSH32 0x8C379A000000000000000000000000000000000000000000000000000000000 DUP2 MSTORE PUSH1 0x4 ADD PUSH2 0x2F3D SWAP1 PUSH2 0x4FB9 JUMP JUMPDEST PUSH1 0x40 MLOAD DUP1 SWAP2 SUB SWAP1 REVERT JUMPDEST DUP1 PUSH20 0xFFFFFFFFFFFFFFFFFFFFFFFFFFFFFFFFFFFFFFFF AND PUSH4 0x23B872DD CALLER ADDRESS DUP14 DUP7 PUSH1 0x3 DUP2 LT PUSH2 0x2F77 JUMPI PUSH2 0x2F76 PUSH2 0x4A9A JUMP JUMPDEST JUMPDEST PUSH1 0x20 MUL ADD MLOAD PUSH1 0x40 MLOAD DUP5 PUSH4 0xFFFFFFFF AND PUSH1 0xE0 SHL DUP2 MSTORE PUSH1 0x4 ADD PUSH2 0x2F9A SWAP4 SWAP3 SWAP2 SWAP1 PUSH2 0x4AC9 JUMP JUMPDEST PUSH1 0x0 PUSH1 0x40 MLOAD DUP1 DUP4 SUB DUP2 PUSH1 0x0 DUP8 DUP1 EXTCODESIZE ISZERO DUP1 ISZERO PUSH2 0x2FB4 JUMPI PUSH1 0x0 DUP1 REVERT JUMPDEST POP GAS CALL ISZERO DUP1 ISZERO PUSH2 0x2FC8 JUMPI RETURNDATASIZE PUSH1 0x0 DUP1 RETURNDATACOPY RETURNDATASIZE PUSH1 0x0 REVERT JUMPDEST POP POP POP POP PUSH2 0x301C DUP11 DUP4 PUSH1 0x3 DUP2 LT PUSH2 0x2FE2 JUMPI PUSH2 0x2FE1 PUSH2 0x4A9A JUMP JUMPDEST JUMPDEST PUSH1 0x20 MUL ADD MLOAD DUP11 DUP5 PUSH1 0x3 DUP2 LT PUSH2 0x2FFA JUMPI PUSH2 0x2FF9 PUSH2 0x4A9A JUMP JUMPDEST JUMPDEST PUSH1 0x20 MUL ADD MLOAD DUP8 DUP6 PUSH1 0x3 DUP2 LT PUSH2 0x3012 JUMPI PUSH2 0x3011 PUSH2 0x4A9A JUMP JUMPDEST JUMPDEST PUSH1 0x20 MUL ADD MLOAD PUSH2 0x3707 JUMP JUMPDEST PUSH2 0x305B JUMPI PUSH1 0x40 MLOAD PUSH32 0x8C379A000000000000000000000000000000000000000000000000000000000 DUP2 MSTORE PUSH1 0x4 ADD PUSH2 0x3052 SWAP1 PUSH2 0x5025 JUMP JUMPDEST PUSH1 0x40 MLOAD DUP1 SWAP2 SUB SWAP1 REVERT JUMPDEST DUP3 DUP10 DUP4 PUSH1 0x3 DUP2 LT PUSH2 0x306F JUMPI PUSH2 0x306E PUSH2 0x4A9A JUMP JUMPDEST JUMPDEST PUSH1 0x20 MUL ADD MLOAD PUSH1 0x6 DUP2 LT PUSH2 0x3085 JUMPI PUSH2 0x3084 PUSH2 0x4A9A JUMP JUMPDEST JUMPDEST PUSH1 0x20 MUL ADD MLOAD ISZERO PUSH2 0x30CA JUMPI PUSH1 0x40 MLOAD PUSH32 0x8C379A000000000000000000000000000000000000000000000000000000000 DUP2 MSTORE PUSH1 0x4 ADD PUSH2 0x30C1 SWAP1 PUSH2 0x5091 JUMP JUMPDEST PUSH1 0x40 MLOAD DUP1 SWAP2 SUB SWAP1 REVERT JUMPDEST PUSH1 0x1 DUP4 DUP11 DUP5 PUSH1 0x3 DUP2 LT PUSH2 0x30E0 JUMPI PUSH2 0x30DF PUSH2 0x4A9A JUMP JUMPDEST JUMPDEST PUSH1 0x20 MUL ADD MLOAD PUSH1 0x6 DUP2 LT PUSH2 0x30F6 JUMPI PUSH2 0x30F5 PUSH2 0x4A9A JUMP JUMPDEST JUMPDEST PUSH1 0x20 MUL ADD SWAP1 ISZERO ISZERO SWAP1 DUP2 ISZERO ISZERO DUP2 MSTORE POP POP POP DUP1 DUP1 PUSH2 0x3111 SWAP1 PUSH2 0x4B00 JUMP JUMPDEST SWAP2 POP POP PUSH2 0x2C82 JUMP JUMPDEST POP PUSH2 0x3123 DUP6 PUSH2 0x374C JUMP JUMPDEST PUSH1 0x0 DUP10 DUP10 DUP8 DUP8 PUSH1 0x40 MLOAD PUSH1 0x20 ADD PUSH2 0x313C SWAP5 SWAP4 SWAP3 SWAP2 SWAP1 PUSH2 0x545C JUMP JUMPDEST PUSH1 0x40 MLOAD PUSH1 0x20 DUP2 DUP4 SUB SUB DUP2 MSTORE SWAP1 PUSH1 0x40 MSTORE DUP1 MLOAD SWAP1 PUSH1 0x20 ADD KECCAK256 SWAP1 POP DUP7 DUP2 EQ PUSH2 0x3196 JUMPI PUSH1 0x40 MLOAD PUSH32 0x8C379A000000000000000000000000000000000000000000000000000000000 DUP2 MSTORE PUSH1 0x4 ADD PUSH2 0x318D SWAP1 PUSH2 0x4E33 JUMP JUMPDEST PUSH1 0x40 MLOAD DUP1 SWAP2 SUB SWAP1 REVERT JUMPDEST DUP3 PUSH1 0x40 ADD PUSH1 0x1 SWAP1 SLOAD SWAP1 PUSH2 0x100 EXP SWAP1 DIV PUSH20 0xFFFFFFFFFFFFFFFFFFFFFFFFFFFFFFFFFFFFFFFF AND PUSH20 0xFFFFFFFFFFFFFFFFFFFFFFFFFFFFFFFFFFFFFFFF AND PUSH4 0x23B872DD CALLER ADDRESS DUP7 PUSH1 0x41 ADD SLOAD PUSH1 0x40 MLOAD DUP5 PUSH4 0xFFFFFFFF AND PUSH1 0xE0 SHL DUP2 MSTORE PUSH1 0x4 ADD PUSH2 0x31FB SWAP4 SWAP3 SWAP2 SWAP1 PUSH2 0x4AC9 JUMP JUMPDEST PUSH1 0x20 PUSH1 0x40 MLOAD DUP1 DUP4 SUB DUP2 PUSH1 0x0 DUP8 GAS CALL ISZERO DUP1 ISZERO PUSH2 0x321A JUMPI RETURNDATASIZE PUSH1 0x0 DUP1 RETURNDATACOPY RETURNDATASIZE PUSH1 0x0 REVERT JUMPDEST POP POP POP POP PUSH1 0x40 MLOAD RETURNDATASIZE PUSH1 0x1F NOT PUSH1 0x1F DUP3 ADD AND DUP3 ADD DUP1 PUSH1 0x40 MSTORE POP DUP2 ADD SWAP1 PUSH2 0x323E SWAP2 SWAP1 PUSH2 0x4A6D JUMP JUMPDEST POP CALLER DUP4 PUSH1 0x20 ADD PUSH1 0x1 PUSH2 0x100 EXP DUP2 SLOAD DUP2 PUSH20 0xFFFFFFFFFFFFFFFFFFFFFFFFFFFFFFFFFFFFFFFF MUL NOT AND SWAP1 DUP4 PUSH20 0xFFFFFFFFFFFFFFFFFFFFFFFFFFFFFFFFFFFFFFFF AND MUL OR SWAP1 SSTORE POP DUP10 DUP4 PUSH1 0x21 ADD SWAP1 PUSH1 0x3 PUSH2 0x3295 SWAP3 SWAP2 SWAP1 PUSH2 0x3A96 JUMP JUMPDEST POP DUP9 DUP4 PUSH1 0x24 ADD SWAP1 PUSH1 0x3 PUSH2 0x32A9 SWAP3 SWAP2 SWAP1 PUSH2 0x3B13 JUMP JUMPDEST POP DUP6 DUP4 PUSH1 0x27 ADD SWAP1 PUSH1 0x3 PUSH2 0x32BD SWAP3 SWAP2 SWAP1 PUSH2 0x3B53 JUMP JUMPDEST POP DUP5 DUP4 PUSH1 0x2A ADD SWAP1 PUSH1 0x3 PUSH2 0x32D1 SWAP3 SWAP2 SWAP1 PUSH2 0x3B9F JUMP JUMPDEST POP DUP8 DUP4 PUSH1 0x39 ADD SWAP1 PUSH1 0x3 PUSH2 0x32E5 SWAP3 SWAP2 SWAP1 PUSH2 0x3B13 JUMP JUMPDEST POP DUP7 DUP4 PUSH1 0x3C ADD DUP2 SWAP1 SSTORE POP TIMESTAMP DUP4 PUSH1 0x43 ADD DUP2 SWAP1 SSTORE POP PUSH32 0x45C4F9CBAFE186141862608C493F28B823FDE4C2142BEDC3F5169961A73FDD22 DUP12 CALLER PUSH1 0x40 MLOAD PUSH2 0x3329 SWAP3 SWAP2 SWAP1 PUSH2 0x5779 JUMP JUMPDEST PUSH1 0x40 MLOAD DUP1 SWAP2 SUB SWAP1 LOG1 POP POP POP POP POP POP POP POP POP POP POP JUMP JUMPDEST PUSH2 0x3346 PUSH2 0x3458 JUMP JUMPDEST PUSH1 0x1 DUP1 PUSH1 0x0 DUP4 PUSH20 0xFFFFFFFFFFFFFFFFFFFFFFFFFFFFFFFFFFFFFFFF AND PUSH20 0xFFFFFFFFFFFFFFFFFFFFFFFFFFFFFFFFFFFFFFFF AND DUP2 MSTORE PUSH1 0x20 ADD SWAP1 DUP2 MSTORE PUSH1 0x20 ADD PUSH1 0x0 KECCAK256 PUSH1 0x0 PUSH2 0x100 EXP DUP2 SLOAD DUP2 PUSH1 0xFF MUL NOT AND SWAP1 DUP4 ISZERO ISZERO MUL OR SWAP1 SSTORE POP POP JUMP JUMPDEST PUSH1 0x7 SLOAD DUP2 JUMP JUMPDEST PUSH3 0x93A80 DUP2 JUMP JUMPDEST PUSH1 0x2 DUP2 JUMP JUMPDEST PUSH1 0x1 PUSH1 0x20 MSTORE DUP1 PUSH1 0x0 MSTORE PUSH1 0x40 PUSH1 0x0 KECCAK256 PUSH1 0x0 SWAP2 POP SLOAD SWAP1 PUSH2 0x100 EXP SWAP1 DIV PUSH1 0xFF AND DUP2 JUMP JUMPDEST PUSH2 0x33DA PUSH2 0x3458 JUMP JUMPDEST PUSH1 0x0 PUSH20 0xFFFFFFFFFFFFFFFFFFFFFFFFFFFFFFFFFFFFFFFF AND DUP2 PUSH20 0xFFFFFFFFFFFFFFFFFFFFFFFFFFFFFFFFFFFFFFFF AND SUB PUSH2 0x344C JUMPI PUSH1 0x0 PUSH1 0x40 MLOAD PUSH32 0x1E4FBDF700000000000000000000000000000000000000000000000000000000 DUP2 MSTORE PUSH1 0x4 ADD PUSH2 0x3443 SWAP2 SWAP1 PUSH2 0x47D8 JUMP JUMPDEST PUSH1 0x40 MLOAD DUP1 SWAP2 SUB SWAP1 REVERT JUMPDEST PUSH2 0x3455 DUP2 PUSH2 0x38F9 JUMP JUMPDEST POP JUMP JUMPDEST PUSH2 0x3460 PUSH2 0x39BD JUMP JUMPDEST PUSH20 0xFFFFFFFFFFFFFFFFFFFFFFFFFFFFFFFFFFFFFFFF AND PUSH2 0x347E PUSH2 0x2B0E JUMP JUMPDEST PUSH20 0xFFFFFFFFFFFFFFFFFFFFFFFFFFFFFFFFFFFFFFFF AND EQ PUSH2 0x34DD JUMPI PUSH2 0x34A1 PUSH2 0x39BD JUMP JUMPDEST PUSH1 0x40 MLOAD PUSH32 0x118CDAA700000000000000000000000000000000000000000000000000000000 DUP2 MSTORE PUSH1 0x4 ADD PUSH2 0x34D4 SWAP2 SWAP1 PUSH2 0x47D8 JUMP JUMPDEST PUSH1 0x40 MLOAD DUP1 SWAP2 SUB SWAP1 REVERT JUMPDEST JUMP JUMPDEST PUSH1 0x0 DUP1 PUSH1 0x0 DUP1 PUSH1 0x2 DUP7 PUSH1 0x3 PUSH1 0x5 DUP2 LT PUSH2 0x34FB JUMPI PUSH2 0x34FA PUSH2 0x4A9A JUMP JUMPDEST JUMPDEST PUSH1 0x20 MUL ADD MLOAD PUSH2 0x350A SWAP2 SWAP1 PUSH2 0x4CAA JUMP JUMPDEST DUP7 PUSH1 0x0 PUSH1 0x5 DUP2 LT PUSH2 0x351E JUMPI PUSH2 0x351D PUSH2 0x4A9A JUMP JUMPDEST JUMPDEST PUSH1 0x20 MUL ADD MLOAD PUSH2 0x352D SWAP2 SWAP1 PUSH2 0x49E4 JUMP JUMPDEST SWAP1 POP PUSH1 0x0 PUSH1 0x2 DUP8 PUSH1 0x2 PUSH1 0x5 DUP2 LT PUSH2 0x3547 JUMPI PUSH2 0x3546 PUSH2 0x4A9A JUMP JUMPDEST JUMPDEST PUSH1 0x20 MUL ADD MLOAD PUSH2 0x3556 SWAP2 SWAP1 PUSH2 0x4CAA JUMP JUMPDEST DUP8 PUSH1 0x1 PUSH1 0x5 DUP2 LT PUSH2 0x356A JUMPI PUSH2 0x3569 PUSH2 0x4A9A JUMP JUMPDEST JUMPDEST PUSH1 0x20 MUL ADD MLOAD PUSH2 0x3579 SWAP2 SWAP1 PUSH2 0x49E4 JUMP JUMPDEST SWAP1 POP PUSH1 0x0 DUP8 PUSH1 0x4 PUSH1 0x5 DUP2 LT PUSH2 0x3591 JUMPI PUSH2 0x3590 PUSH2 0x4A9A JUMP JUMPDEST JUMPDEST PUSH1 0x20 MUL ADD MLOAD SWAP1 POP PUSH1 0x0 PUSH1 0x2 DUP9 PUSH1 0x3 PUSH1 0x5 DUP2 LT PUSH2 0x35B0 JUMPI PUSH2 0x35AF PUSH2 0x4A9A JUMP JUMPDEST JUMPDEST PUSH1 0x20 MUL ADD MLOAD PUSH2 0x35BF SWAP2 SWAP1 PUSH2 0x4CAA JUMP JUMPDEST DUP9 PUSH1 0x0 PUSH1 0x5 DUP2 LT PUSH2 0x35D3 JUMPI PUSH2 0x35D2 PUSH2 0x4A9A JUMP JUMPDEST JUMPDEST PUSH1 0x20 MUL ADD MLOAD PUSH2 0x35E2 SWAP2 SWAP1 PUSH2 0x49E4 JUMP JUMPDEST SWAP1 POP PUSH1 0x0 PUSH1 0x2 DUP10 PUSH1 0x2 PUSH1 0x5 DUP2 LT PUSH2 0x35FC JUMPI PUSH2 0x35FB PUSH2 0x4A9A JUMP JUMPDEST JUMPDEST PUSH1 0x20 MUL ADD MLOAD PUSH2 0x360B SWAP2 SWAP1 PUSH2 0x4CAA JUMP JUMPDEST DUP10 PUSH1 0x1 PUSH1 0x5 DUP2 LT PUSH2 0x361F JUMPI PUSH2 0x361E PUSH2 0x4A9A JUMP JUMPDEST JUMPDEST PUSH1 0x20 MUL ADD MLOAD PUSH2 0x362E SWAP2 SWAP1 PUSH2 0x49E4 JUMP JUMPDEST SWAP1 POP PUSH1 0x0 DUP10 PUSH1 0x4 PUSH1 0x5 DUP2 LT PUSH2 0x3646 JUMPI PUSH2 0x3645 PUSH2 0x4A9A JUMP JUMPDEST JUMPDEST PUSH1 0x20 MUL ADD MLOAD SWAP1 POP PUSH1 0x0 DUP6 DUP5 GT PUSH2 0x365D JUMPI PUSH1 0x0 PUSH2 0x366A JUMP JUMPDEST DUP6 DUP5 PUSH2 0x3669 SWAP2 SWAP1 PUSH2 0x4CDB JUMP JUMPDEST JUMPDEST SWAP1 POP PUSH1 0x0 DUP2 DUP7 GT PUSH2 0x367C JUMPI PUSH1 0x0 PUSH2 0x3689 JUMP JUMPDEST DUP2 DUP7 PUSH2 0x3688 SWAP2 SWAP1 PUSH2 0x4CDB JUMP JUMPDEST JUMPDEST SWAP1 POP PUSH1 0x0 DUP5 DUP10 GT PUSH2 0x369B JUMPI PUSH1 0x0 PUSH2 0x36A8 JUMP JUMPDEST DUP5 DUP10 PUSH2 0x36A7 SWAP2 SWAP1 PUSH2 0x4CDB JUMP JUMPDEST JUMPDEST SWAP1 POP PUSH1 0x0 DUP2 DUP6 GT PUSH2 0x36BA JUMPI PUSH1 0x0 PUSH2 0x36C7 JUMP JUMPDEST DUP2 DUP6 PUSH2 0x36C6 SWAP2 SWAP1 PUSH2 0x4CDB JUMP JUMPDEST JUMPDEST SWAP1 POP DUP1 DUP4 GT ISZERO PUSH2 0x36DA JUMPI PUSH1 0x1 SWAP13 POP PUSH2 0x36E8 JUMP JUMPDEST DUP3 DUP2 GT ISZERO PUSH2 0x36E7 JUMPI PUSH1 0x1 SWAP12 POP JUMPDEST JUMPDEST DUP1 DUP4 PUSH2 0x36F4 SWAP2 SWAP1 PUSH2 0x580E JUMP JUMPDEST SWAP11 POP POP POP POP POP POP POP POP POP POP POP SWAP3 POP SWAP3 POP SWAP3 JUMP JUMPDEST PUSH1 0x0 DUP1 DUP5 DUP5 PUSH1 0x40 MLOAD PUSH1 0x20 ADD PUSH2 0x371D SWAP3 SWAP2 SWAP1 PUSH2 0x5851 JUMP JUMPDEST PUSH1 0x40 MLOAD PUSH1 0x20 DUP2 DUP4 SUB SUB DUP2 MSTORE SWAP1 PUSH1 0x40 MSTORE DUP1 MLOAD SWAP1 PUSH1 0x20 ADD KECCAK256 SWAP1 POP PUSH2 0x3742 DUP4 PUSH1 0x5 SLOAD DUP4 PUSH2 0x39C5 JUMP JUMPDEST SWAP2 POP POP SWAP4 SWAP3 POP POP POP JUMP JUMPDEST PUSH1 0x0 PUSH32 0x6F0D47B12E2C2F7083EB5622541F9C3930E56FC3E46E89E132673F05A079BAFF SWAP1 POP PUSH1 0x0 PUSH32 0x580396B706C510B55B097EB36445183C918E5A4F9AC52A70D27FCA23C3B3AAB1 SWAP1 POP PUSH1 0x0 PUSH32 0x485E0367E5FC50BB417A308DD03744E1466805DE7920DF91842ADB1EA4F7E6DD SWAP1 POP PUSH1 0x0 PUSH32 0xCD6C0AC12AB10DCA7EC251758F1197F248F2D56E0C50D78CCF8861A474DEFE68 SWAP1 POP PUSH1 0x0 JUMPDEST PUSH1 0x3 DUP2 LT ISZERO PUSH2 0x38F1 JUMPI PUSH1 0x0 DUP7 DUP3 PUSH1 0x3 DUP2 LT PUSH2 0x3801 JUMPI PUSH2 0x3800 PUSH2 0x4A9A JUMP JUMPDEST JUMPDEST PUSH1 0x20 MUL ADD MLOAD DUP1 MLOAD SWAP1 PUSH1 0x20 ADD KECCAK256 SWAP1 POP DUP6 DUP2 EQ ISZERO DUP1 ISZERO PUSH2 0x381F JUMPI POP DUP5 DUP2 EQ ISZERO JUMPDEST DUP1 ISZERO PUSH2 0x382B JUMPI POP DUP4 DUP2 EQ ISZERO JUMPDEST DUP1 ISZERO PUSH2 0x3837 JUMPI POP DUP3 DUP2 EQ ISZERO JUMPDEST ISZERO PUSH2 0x3842 JUMPI POP PUSH2 0x38DE JUMP JUMPDEST PUSH1 0x0 DUP1 JUMPDEST PUSH1 0x3 DUP2 LT ISZERO PUSH2 0x3896 JUMPI DUP3 DUP10 DUP3 PUSH1 0x3 DUP2 LT PUSH2 0x3863 JUMPI PUSH2 0x3862 PUSH2 0x4A9A JUMP JUMPDEST JUMPDEST PUSH1 0x20 MUL ADD MLOAD DUP1 MLOAD SWAP1 PUSH1 0x20 ADD KECCAK256 SUB PUSH2 0x3883 JUMPI DUP2 DUP1 PUSH2 0x387F SWAP1 PUSH2 0x4B00 JUMP JUMPDEST SWAP3 POP POP JUMPDEST DUP1 DUP1 PUSH2 0x388E SWAP1 PUSH2 0x4B00 JUMP JUMPDEST SWAP2 POP POP PUSH2 0x3846 JUMP JUMPDEST POP PUSH1 0x1 DUP2 GT ISZERO PUSH2 0x38DB JUMPI PUSH1 0x40 MLOAD PUSH32 0x8C379A000000000000000000000000000000000000000000000000000000000 DUP2 MSTORE PUSH1 0x4 ADD PUSH2 0x38D2 SWAP1 PUSH2 0x58C9 JUMP JUMPDEST PUSH1 0x40 MLOAD DUP1 SWAP2 SUB SWAP1 REVERT JUMPDEST POP POP JUMPDEST DUP1 DUP1 PUSH2 0x38E9 SWAP1 PUSH2 0x4B00 JUMP JUMPDEST SWAP2 POP POP PUSH2 0x37E3 JUMP JUMPDEST POP POP POP POP POP POP JUMP JUMPDEST PUSH1 0x0 DUP1 PUSH1 0x0 SWAP1 SLOAD SWAP1 PUSH2 0x100 EXP SWAP1 DIV PUSH20 0xFFFFFFFFFFFFFFFFFFFFFFFFFFFFFFFFFFFFFFFF AND SWAP1 POP DUP2 PUSH1 0x0 DUP1 PUSH2 0x100 EXP DUP2 SLOAD DUP2 PUSH20 0xFFFFFFFFFFFFFFFFFFFFFFFFFFFFFFFFFFFFFFFF MUL NOT AND SWAP1 DUP4 PUSH20 0xFFFFFFFFFFFFFFFFFFFFFFFFFFFFFFFFFFFFFFFF AND MUL OR SWAP1 SSTORE POP DUP2 PUSH20 0xFFFFFFFFFFFFFFFFFFFFFFFFFFFFFFFFFFFFFFFF AND DUP2 PUSH20 0xFFFFFFFFFFFFFFFFFFFFFFFFFFFFFFFFFFFFFFFF AND PUSH32 0x8BE0079C531659141344CD1FD0A4F28419497F9722A3DAAFE3B4186F6B6457E0 PUSH1 0x40 MLOAD PUSH1 0x40 MLOAD DUP1 SWAP2 SUB SWAP1 LOG3 POP POP JUMP JUMPDEST PUSH1 0x0 CALLER SWAP1 POP SWAP1 JUMP JUMPDEST PUSH1 0x0 DUP3 PUSH2 0x39D2 DUP6 DUP5 PUSH2 0x39DC JUMP JUMPDEST EQ SWAP1 POP SWAP4 SWAP3 POP POP POP JUMP JUMPDEST PUSH1 0x0 DUP1 DUP3 SWAP1 POP PUSH1 0x0 JUMPDEST DUP5 MLOAD DUP2 LT ISZERO PUSH2 0x3A27 JUMPI PUSH2 0x3A12 DUP3 DUP7 DUP4 DUP2 MLOAD DUP2 LT PUSH2 0x3A05 JUMPI PUSH2 0x3A04 PUSH2 0x4A9A JUMP JUMPDEST JUMPDEST PUSH1 0x20 MUL PUSH1 0x20 ADD ADD MLOAD PUSH2 0x3A32 JUMP JUMPDEST SWAP2 POP DUP1 DUP1 PUSH2 0x3A1F SWAP1 PUSH2 0x4B00 JUMP JUMPDEST SWAP2 POP POP PUSH2 0x39E5 JUMP JUMPDEST POP DUP1 SWAP2 POP POP SWAP3 SWAP2 POP POP JUMP JUMPDEST PUSH1 0x0 DUP2 DUP4 LT PUSH2 0x3A4A JUMPI PUSH2 0x3A45 DUP3 DUP5 PUSH2 0x3A5D JUMP JUMPDEST PUSH2 0x3A55 JUMP JUMPDEST PUSH2 0x3A54 DUP4 DUP4 PUSH2 0x3A5D JUMP JUMPDEST JUMPDEST SWAP1 POP SWAP3 SWAP2 POP POP JUMP JUMPDEST PUSH1 0x0 DUP3 PUSH1 0x0 MSTORE DUP2 PUSH1 0x20 MSTORE PUSH1 0x40 PUSH1 0x0 KECCAK256 SWAP1 POP SWAP3 SWAP2 POP POP JUMP JUMPDEST PUSH1 0x40 MLOAD DUP1 PUSH1 0xC0 ADD PUSH1 0x40 MSTORE DUP1 PUSH1 0x6 SWAP1 PUSH1 0x20 DUP3 MUL DUP1 CALLDATASIZE DUP4 CALLDATACOPY DUP1 DUP3 ADD SWAP2 POP POP SWAP1 POP POP SWAP1 JUMP JUMPDEST DUP3 PUSH1 0x3 DUP2 ADD SWAP3 DUP3 ISZERO PUSH2 0x3B02 JUMPI SWAP2 PUSH1 0x20 MUL DUP3 ADD JUMPDEST DUP3 DUP2 GT ISZERO PUSH2 0x3B01 JUMPI DUP3 MLOAD DUP3 PUSH1 0x0 PUSH2 0x100 EXP DUP2 SLOAD DUP2 PUSH20 0xFFFFFFFFFFFFFFFFFFFFFFFFFFFFFFFFFFFFFFFF MUL NOT AND SWAP1 DUP4 PUSH20 0xFFFFFFFFFFFFFFFFFFFFFFFFFFFFFFFFFFFFFFFF AND MUL OR SWAP1 SSTORE POP SWAP2 PUSH1 0x20 ADD SWAP2 SWAP1 PUSH1 0x1 ADD SWAP1 PUSH2 0x3AA9 JUMP JUMPDEST JUMPDEST POP SWAP1 POP PUSH2 0x3B0F SWAP2 SWAP1 PUSH2 0x3C12 JUMP JUMPDEST POP SWAP1 JUMP JUMPDEST DUP3 PUSH1 0x3 DUP2 ADD SWAP3 DUP3 ISZERO PUSH2 0x3B42 JUMPI SWAP2 PUSH1 0x20 MUL DUP3 ADD JUMPDEST DUP3 DUP2 GT ISZERO PUSH2 0x3B41 JUMPI DUP3 MLOAD DUP3 SSTORE SWAP2 PUSH1 0x20 ADD SWAP2 SWAP1 PUSH1 0x1 ADD SWAP1 PUSH2 0x3B26 JUMP JUMPDEST JUMPDEST POP SWAP1 POP PUSH2 0x3B4F SWAP2 SWAP1 PUSH2 0x3C12 JUMP JUMPDEST POP SWAP1 JUMP JUMPDEST DUP3 PUSH1 0x3 DUP2 ADD SWAP3 DUP3 ISZERO PUSH2 0x3B8E JUMPI SWAP2 PUSH1 0x20 MUL DUP3 ADD JUMPDEST DUP3 DUP2 GT ISZERO PUSH2 0x3B8D JUMPI DUP3 MLOAD DUP3 SWAP1 DUP2 PUSH2 0x3B7D SWAP2 SWAP1 PUSH2 0x5AEB JUMP JUMPDEST POP SWAP2 PUSH1 0x20 ADD SWAP2 SWAP1 PUSH1 0x1 ADD SWAP1 PUSH2 0x3B66 JUMP JUMPDEST JUMPDEST POP SWAP1 POP PUSH2 0x3B9B SWAP2 SWAP1 PUSH2 0x3C2F JUMP JUMPDEST POP SWAP1 JUMP JUMPDEST DUP3 PUSH1 0x3 PUSH1 0x5 MUL DUP2 ADD SWAP3 DUP3 ISZERO PUSH2 0x3BDF JUMPI SWAP2 PUSH1 0x20 MUL DUP3 ADD JUMPDEST DUP3 DUP2 GT ISZERO PUSH2 0x3BDE JUMPI DUP3 MLOAD DUP3 SWAP1 PUSH1 0x5 PUSH2 0x3BCE SWAP3 SWAP2 SWAP1 PUSH2 0x3C53 JUMP JUMPDEST POP SWAP2 PUSH1 0x20 ADD SWAP2 SWAP1 PUSH1 0x5 ADD SWAP1 PUSH2 0x3BB5 JUMP JUMPDEST JUMPDEST POP SWAP1 POP PUSH2 0x3BEC SWAP2 SWAP1 PUSH2 0x3C93 JUMP JUMPDEST POP SWAP1 JUMP JUMPDEST PUSH1 0x40 MLOAD DUP1 PUSH1 0x60 ADD PUSH1 0x40 MSTORE DUP1 PUSH1 0x3 SWAP1 PUSH1 0x20 DUP3 MUL DUP1 CALLDATASIZE DUP4 CALLDATACOPY DUP1 DUP3 ADD SWAP2 POP POP SWAP1 POP POP SWAP1 JUMP JUMPDEST JUMPDEST DUP1 DUP3 GT ISZERO PUSH2 0x3C2B JUMPI PUSH1 0x0 DUP2 PUSH1 0x0 SWAP1 SSTORE POP PUSH1 0x1 ADD PUSH2 0x3C13 JUMP JUMPDEST POP SWAP1 JUMP JUMPDEST JUMPDEST DUP1 DUP3 GT ISZERO PUSH2 0x3C4F JUMPI PUSH1 0x0 DUP2 DUP2 PUSH2 0x3C46 SWAP2 SWAP1 PUSH2 0x3CB7 JUMP JUMPDEST POP PUSH1 0x1 ADD PUSH2 0x3C30 JUMP JUMPDEST POP SWAP1 JUMP JUMPDEST DUP3 PUSH1 0x5 DUP2 ADD SWAP3 DUP3 ISZERO PUSH2 0x3C82 JUMPI SWAP2 PUSH1 0x20 MUL DUP3 ADD JUMPDEST DUP3 DUP2 GT ISZERO PUSH2 0x3C81 JUMPI DUP3 MLOAD DUP3 SSTORE SWAP2 PUSH1 0x20 ADD SWAP2 SWAP1 PUSH1 0x1 ADD SWAP1 PUSH2 0x3C66 JUMP JUMPDEST JUMPDEST POP SWAP1 POP PUSH2 0x3C8F SWAP2 SWAP1 PUSH2 0x3C12 JUMP JUMPDEST POP SWAP1 JUMP JUMPDEST JUMPDEST DUP1 DUP3 GT ISZERO PUSH2 0x3CB3 JUMPI PUSH1 0x0 DUP2 DUP2 PUSH2 0x3CAA SWAP2 SWAP1 PUSH2 0x3CF7 JUMP JUMPDEST POP PUSH1 0x5 ADD PUSH2 0x3C94 JUMP JUMPDEST POP SWAP1 JUMP JUMPDEST POP DUP1 SLOAD PUSH2 0x3CC3 SWAP1 PUSH2 0x5918 JUMP JUMPDEST PUSH1 0x0 DUP3 SSTORE DUP1 PUSH1 0x1F LT PUSH2 0x3CD5 JUMPI POP PUSH2 0x3CF4 JUMP JUMPDEST PUSH1 0x1F ADD PUSH1 0x20 SWAP1 DIV SWAP1 PUSH1 0x0 MSTORE PUSH1 0x20 PUSH1 0x0 KECCAK256 SWAP1 DUP2 ADD SWAP1 PUSH2 0x3CF3 SWAP2 SWAP1 PUSH2 0x3C12 JUMP JUMPDEST JUMPDEST POP JUMP JUMPDEST POP PUSH1 0x0 DUP2 SSTORE PUSH1 0x1 ADD PUSH1 0x0 DUP2 SSTORE PUSH1 0x1 ADD PUSH1 0x0 DUP2 SSTORE PUSH1 0x1 ADD PUSH1 0x0 DUP2 SSTORE PUSH1 0x1 ADD PUSH1 0x0 SWAP1 SSTORE JUMP JUMPDEST PUSH1 0x0 PUSH1 0x40 MLOAD SWAP1 POP SWAP1 JUMP JUMPDEST PUSH1 0x0 DUP1 REVERT JUMPDEST PUSH1 0x0 DUP1 REVERT JUMPDEST PUSH1 0x0 PUSH20 0xFFFFFFFFFFFFFFFFFFFFFFFFFFFFFFFFFFFFFFFF DUP3 AND SWAP1 POP SWAP2 SWAP1 POP JUMP JUMPDEST PUSH1 0x0 PUSH2 0x3D59 DUP3 PUSH2 0x3D2E JUMP JUMPDEST SWAP1 POP SWAP2 SWAP1 POP JUMP JUMPDEST PUSH2 0x3D69 DUP2 PUSH2 0x3D4E JUMP JUMPDEST DUP2 EQ PUSH2 0x3D74 JUMPI PUSH1 0x0 DUP1 REVERT JUMPDEST POP JUMP JUMPDEST PUSH1 0x0 DUP2 CALLDATALOAD SWAP1 POP PUSH2 0x3D86 DUP2 PUSH2 0x3D60 JUMP JUMPDEST SWAP3 SWAP2 POP POP JUMP JUMPDEST PUSH1 0x0 DUP2 SWAP1 POP SWAP2 SWAP1 POP JUMP JUMPDEST PUSH2 0x3D9F DUP2 PUSH2 0x3D8C JUMP JUMPDEST DUP2 EQ PUSH2 0x3DAA JUMPI PUSH1 0x0 DUP1 REVERT JUMPDEST POP JUMP JUMPDEST PUSH1 0x0 DUP2 CALLDATALOAD SWAP1 POP PUSH2 0x3DBC DUP2 PUSH2 0x3D96 JUMP JUMPDEST SWAP3 SWAP2 POP POP JUMP JUMPDEST PUSH1 0x0 DUP1 PUSH1 0x40 DUP4 DUP6 SUB SLT ISZERO PUSH2 0x3DD9 JUMPI PUSH2 0x3DD8 PUSH2 0x3D24 JUMP JUMPDEST JUMPDEST PUSH1 0x0 PUSH2 0x3DE7 DUP6 DUP3 DUP7 ADD PUSH2 0x3D77 JUMP JUMPDEST SWAP3 POP POP PUSH1 0x20 PUSH2 0x3DF8 DUP6 DUP3 DUP7 ADD PUSH2 0x3DAD JUMP JUMPDEST SWAP2 POP POP SWAP3 POP SWAP3 SWAP1 POP JUMP JUMPDEST PUSH1 0x0 PUSH1 0x20 DUP3 DUP5 SUB SLT ISZERO PUSH2 0x3E18 JUMPI PUSH2 0x3E17 PUSH2 0x3D24 JUMP JUMPDEST JUMPDEST PUSH1 0x0 PUSH2 0x3E26 DUP5 DUP3 DUP6 ADD PUSH2 0x3D77 JUMP JUMPDEST SWAP2 POP POP SWAP3 SWAP2 POP POP JUMP JUMPDEST PUSH2 0x3E38 DUP2 PUSH2 0x3D8C JUMP JUMPDEST DUP3 MSTORE POP POP JUMP JUMPDEST PUSH1 0x0 PUSH1 0x20 DUP3 ADD SWAP1 POP PUSH2 0x3E53 PUSH1 0x0 DUP4 ADD DUP5 PUSH2 0x3E2F JUMP JUMPDEST SWAP3 SWAP2 POP POP JUMP JUMPDEST PUSH1 0x0 PUSH1 0x20 DUP3 DUP5 SUB SLT ISZERO PUSH2 0x3E6F JUMPI PUSH2 0x3E6E PUSH2 0x3D24 JUMP JUMPDEST JUMPDEST PUSH1 0x0 PUSH2 0x3E7D DUP5 DUP3 DUP6 ADD PUSH2 0x3DAD JUMP JUMPDEST SWAP2 POP POP SWAP3 SWAP2 POP POP JUMP JUMPDEST PUSH2 0x3E8F DUP2 PUSH2 0x3D4E JUMP JUMPDEST DUP3 MSTORE POP POP JUMP JUMPDEST PUSH1 0x0 DUP2 SWAP1 POP SWAP2 SWAP1 POP JUMP JUMPDEST PUSH2 0x3EA8 DUP2 PUSH2 0x3E95 JUMP JUMPDEST DUP3 MSTORE POP POP JUMP JUMPDEST PUSH1 0x0 DUP2 ISZERO ISZERO SWAP1 POP SWAP2 SWAP1 POP JUMP JUMPDEST PUSH2 0x3EC3 DUP2 PUSH2 0x3EAE JUMP JUMPDEST DUP3 MSTORE POP POP JUMP JUMPDEST PUSH1 0x0 DUP2 SWAP1 POP SWAP2 SWAP1 POP JUMP JUMPDEST PUSH1 0x0 PUSH2 0x3EEE PUSH2 0x3EE9 PUSH2 0x3EE4 DUP5 PUSH2 0x3D2E JUMP JUMPDEST PUSH2 0x3EC9 JUMP JUMPDEST PUSH2 0x3D2E JUMP JUMPDEST SWAP1 POP SWAP2 SWAP1 POP JUMP JUMPDEST PUSH1 0x0 PUSH2 0x3F00 DUP3 PUSH2 0x3ED3 JUMP JUMPDEST SWAP1 POP SWAP2 SWAP1 POP JUMP JUMPDEST PUSH1 0x0 PUSH2 0x3F12 DUP3 PUSH2 0x3EF5 JUMP JUMPDEST SWAP1 POP SWAP2 SWAP1 POP JUMP JUMPDEST PUSH2 0x3F22 DUP2 PUSH2 0x3F07 JUMP JUMPDEST DUP3 MSTORE POP POP JUMP JUMPDEST PUSH1 0x0 PUSH2 0x160 DUP3 ADD SWAP1 POP PUSH2 0x3F3E PUSH1 0x0 DUP4 ADD DUP15 PUSH2 0x3E86 JUMP JUMPDEST PUSH2 0x3F4B PUSH1 0x20 DUP4 ADD DUP14 PUSH2 0x3E9F JUMP JUMPDEST PUSH2 0x3F58 PUSH1 0x40 DUP4 ADD DUP13 PUSH2 0x3EBA JUMP JUMPDEST PUSH2 0x3F65 PUSH1 0x60 DUP4 ADD DUP12 PUSH2 0x3E86 JUMP JUMPDEST PUSH2 0x3F72 PUSH1 0x80 DUP4 ADD DUP11 PUSH2 0x3E9F JUMP JUMPDEST PUSH2 0x3F7F PUSH1 0xA0 DUP4 ADD DUP10 PUSH2 0x3EBA JUMP JUMPDEST PUSH2 0x3F8C PUSH1 0xC0 DUP4 ADD DUP9 PUSH2 0x3F19 JUMP JUMPDEST PUSH2 0x3F99 PUSH1 0xE0 DUP4 ADD DUP8 PUSH2 0x3E2F JUMP JUMPDEST PUSH2 0x3FA7 PUSH2 0x100 DUP4 ADD DUP7 PUSH2 0x3E2F JUMP JUMPDEST PUSH2 0x3FB5 PUSH2 0x120 DUP4 ADD DUP6 PUSH2 0x3E2F JUMP JUMPDEST PUSH2 0x3FC3 PUSH2 0x140 DUP4 ADD DUP5 PUSH2 0x3EBA JUMP JUMPDEST SWAP13 SWAP12 POP POP POP POP POP POP POP POP POP POP POP POP JUMP JUMPDEST PUSH1 0x0 PUSH1 0x20 DUP3 ADD SWAP1 POP PUSH2 0x3FE8 PUSH1 0x0 DUP4 ADD DUP5 PUSH2 0x3E9F JUMP JUMPDEST SWAP3 SWAP2 POP POP JUMP JUMPDEST PUSH2 0x3FF7 DUP2 PUSH2 0x3E95 JUMP JUMPDEST DUP2 EQ PUSH2 0x4002 JUMPI PUSH1 0x0 DUP1 REVERT JUMPDEST POP JUMP JUMPDEST PUSH1 0x0 DUP2 CALLDATALOAD SWAP1 POP PUSH2 0x4014 DUP2 PUSH2 0x3FEE JUMP JUMPDEST SWAP3 SWAP2 POP POP JUMP JUMPDEST PUSH1 0x0 PUSH1 0x20 DUP3 DUP5 SUB SLT ISZERO PUSH2 0x4030 JUMPI PUSH2 0x402F PUSH2 0x3D24 JUMP JUMPDEST JUMPDEST PUSH1 0x0 PUSH2 0x403E DUP5 DUP3 DUP6 ADD PUSH2 0x4005 JUMP JUMPDEST SWAP2 POP POP SWAP3 SWAP2 POP POP JUMP JUMPDEST PUSH1 0x0 DUP1 REVERT JUMPDEST PUSH1 0x0 PUSH1 0x1F NOT PUSH1 0x1F DUP4 ADD AND SWAP1 POP SWAP2 SWAP1 POP JUMP JUMPDEST PUSH32 0x4E487B7100000000000000000000000000000000000000000000000000000000 PUSH1 0x0 MSTORE PUSH1 0x41 PUSH1 0x4 MSTORE PUSH1 0x24 PUSH1 0x0 REVERT JUMPDEST PUSH2 0x4095 DUP3 PUSH2 0x404C JUMP JUMPDEST DUP2 ADD DUP2 DUP2 LT PUSH8 0xFFFFFFFFFFFFFFFF DUP3 GT OR ISZERO PUSH2 0x40B4 JUMPI PUSH2 0x40B3 PUSH2 0x405D JUMP JUMPDEST JUMPDEST DUP1 PUSH1 0x40 MSTORE POP POP POP JUMP JUMPDEST PUSH1 0x0 PUSH2 0x40C7 PUSH2 0x3D1A JUMP JUMPDEST SWAP1 POP PUSH2 0x40D3 DUP3 DUP3 PUSH2 0x408C JUMP JUMPDEST SWAP2 SWAP1 POP JUMP JUMPDEST PUSH1 0x0 PUSH8 0xFFFFFFFFFFFFFFFF DUP3 GT ISZERO PUSH2 0x40F3 JUMPI PUSH2 0x40F2 PUSH2 0x405D JUMP JUMPDEST JUMPDEST PUSH1 0x20 DUP3 MUL SWAP1 POP SWAP2 SWAP1 POP JUMP JUMPDEST PUSH1 0x0 DUP1 REVERT JUMPDEST PUSH1 0x0 PUSH2 0x4116 PUSH2 0x4111 DUP5 PUSH2 0x40D8 JUMP JUMPDEST PUSH2 0x40BD JUMP JUMPDEST SWAP1 POP DUP1 PUSH1 0x20 DUP5 MUL DUP4 ADD DUP6 DUP2 GT ISZERO PUSH2 0x4130 JUMPI PUSH2 0x412F PUSH2 0x40FE JUMP JUMPDEST JUMPDEST DUP4 JUMPDEST DUP2 DUP2 LT ISZERO PUSH2 0x4159 JUMPI DUP1 PUSH2 0x4145 DUP9 DUP3 PUSH2 0x3D77 JUMP JUMPDEST DUP5 MSTORE PUSH1 0x20 DUP5 ADD SWAP4 POP POP PUSH1 0x20 DUP2 ADD SWAP1 POP PUSH2 0x4132 JUMP JUMPDEST POP POP POP SWAP4 SWAP3 POP POP POP JUMP JUMPDEST PUSH1 0x0 DUP3 PUSH1 0x1F DUP4 ADD SLT PUSH2 0x4178 JUMPI PUSH2 0x4177 PUSH2 0x4047 JUMP JUMPDEST JUMPDEST PUSH1 0x3 PUSH2 0x4185 DUP5 DUP3 DUP6 PUSH2 0x4103 JUMP JUMPDEST SWAP2 POP POP SWAP3 SWAP2 POP POP JUMP JUMPDEST PUSH1 0x0 PUSH8 0xFFFFFFFFFFFFFFFF DUP3 GT ISZERO PUSH2 0x41A9 JUMPI PUSH2 0x41A8 PUSH2 0x405D JUMP JUMPDEST JUMPDEST PUSH1 0x20 DUP3 MUL SWAP1 POP SWAP2 SWAP1 POP JUMP JUMPDEST PUSH1 0x0 PUSH2 0x41C7 PUSH2 0x41C2 DUP5 PUSH2 0x418E JUMP JUMPDEST PUSH2 0x40BD JUMP JUMPDEST SWAP1 POP DUP1 PUSH1 0x20 DUP5 MUL DUP4 ADD DUP6 DUP2 GT ISZERO PUSH2 0x41E1 JUMPI PUSH2 0x41E0 PUSH2 0x40FE JUMP JUMPDEST JUMPDEST DUP4 JUMPDEST DUP2 DUP2 LT ISZERO PUSH2 0x420A JUMPI DUP1 PUSH2 0x41F6 DUP9 DUP3 PUSH2 0x3DAD JUMP JUMPDEST DUP5 MSTORE PUSH1 0x20 DUP5 ADD SWAP4 POP POP PUSH1 0x20 DUP2 ADD SWAP1 POP PUSH2 0x41E3 JUMP JUMPDEST POP POP POP SWAP4 SWAP3 POP POP POP JUMP JUMPDEST PUSH1 0x0 DUP3 PUSH1 0x1F DUP4 ADD SLT PUSH2 0x4229 JUMPI PUSH2 0x4228 PUSH2 0x4047 JUMP JUMPDEST JUMPDEST PUSH1 0x3 PUSH2 0x4236 DUP5 DUP3 DUP6 PUSH2 0x41B4 JUMP JUMPDEST SWAP2 POP POP SWAP3 SWAP2 POP POP JUMP JUMPDEST PUSH1 0x0 PUSH8 0xFFFFFFFFFFFFFFFF DUP3 GT ISZERO PUSH2 0x425A JUMPI PUSH2 0x4259 PUSH2 0x405D JUMP JUMPDEST JUMPDEST PUSH1 0x20 DUP3 MUL SWAP1 POP SWAP2 SWAP1 POP JUMP JUMPDEST PUSH1 0x0 DUP1 REVERT JUMPDEST PUSH1 0x0 PUSH8 0xFFFFFFFFFFFFFFFF DUP3 GT ISZERO PUSH2 0x4285 JUMPI PUSH2 0x4284 PUSH2 0x405D JUMP JUMPDEST JUMPDEST PUSH2 0x428E DUP3 PUSH2 0x404C JUMP JUMPDEST SWAP1 POP PUSH1 0x20 DUP2 ADD SWAP1 POP SWAP2 SWAP1 POP JUMP JUMPDEST DUP3 DUP2 DUP4 CALLDATACOPY PUSH1 0x0 DUP4 DUP4 ADD MSTORE POP POP POP JUMP JUMPDEST PUSH1 0x0 PUSH2 0x42BD PUSH2 0x42B8 DUP5 PUSH2 0x426A JUMP JUMPDEST PUSH2 0x40BD JUMP JUMPDEST SWAP1 POP DUP3 DUP2 MSTORE PUSH1 0x20 DUP2 ADD DUP5 DUP5 DUP5 ADD GT ISZERO PUSH2 0x42D9 JUMPI PUSH2 0x42D8 PUSH2 0x4265 JUMP JUMPDEST JUMPDEST PUSH2 0x42E4 DUP5 DUP3 DUP6 PUSH2 0x429B JUMP JUMPDEST POP SWAP4 SWAP3 POP POP POP JUMP JUMPDEST PUSH1 0x0 DUP3 PUSH1 0x1F DUP4 ADD SLT PUSH2 0x4301 JUMPI PUSH2 0x4300 PUSH2 0x4047 JUMP JUMPDEST JUMPDEST DUP2 CALLDATALOAD PUSH2 0x4311 DUP5 DUP3 PUSH1 0x20 DUP7 ADD PUSH2 0x42AA JUMP JUMPDEST SWAP2 POP POP SWAP3 SWAP2 POP POP JUMP JUMPDEST PUSH1 0x0 PUSH2 0x432D PUSH2 0x4328 DUP5 PUSH2 0x423F JUMP JUMPDEST PUSH2 0x40BD JUMP JUMPDEST SWAP1 POP DUP1 PUSH1 0x20 DUP5 MUL DUP4 ADD DUP6 DUP2 GT ISZERO PUSH2 0x4347 JUMPI PUSH2 0x4346 PUSH2 0x40FE JUMP JUMPDEST JUMPDEST DUP4 JUMPDEST DUP2 DUP2 LT ISZERO PUSH2 0x438E JUMPI DUP1 CALLDATALOAD PUSH8 0xFFFFFFFFFFFFFFFF DUP2 GT ISZERO PUSH2 0x436C JUMPI PUSH2 0x436B PUSH2 0x4047 JUMP JUMPDEST JUMPDEST DUP1 DUP7 ADD PUSH2 0x4379 DUP10 DUP3 PUSH2 0x42EC JUMP JUMPDEST DUP6 MSTORE PUSH1 0x20 DUP6 ADD SWAP5 POP POP POP PUSH1 0x20 DUP2 ADD SWAP1 POP PUSH2 0x4349 JUMP JUMPDEST POP POP POP SWAP4 SWAP3 POP POP POP JUMP JUMPDEST PUSH1 0x0 DUP3 PUSH1 0x1F DUP4 ADD SLT PUSH2 0x43AD JUMPI PUSH2 0x43AC PUSH2 0x4047 JUMP JUMPDEST JUMPDEST PUSH1 0x3 PUSH2 0x43BA DUP5 DUP3 DUP6 PUSH2 0x431A JUMP JUMPDEST SWAP2 POP POP SWAP3 SWAP2 POP POP JUMP JUMPDEST PUSH1 0x0 PUSH8 0xFFFFFFFFFFFFFFFF DUP3 GT ISZERO PUSH2 0x43DE JUMPI PUSH2 0x43DD PUSH2 0x405D JUMP JUMPDEST JUMPDEST PUSH1 0x20 DUP3 MUL SWAP1 POP SWAP2 SWAP1 POP JUMP JUMPDEST PUSH1 0x0 PUSH8 0xFFFFFFFFFFFFFFFF DUP3 GT ISZERO PUSH2 0x4404 JUMPI PUSH2 0x4403 PUSH2 0x405D JUMP JUMPDEST JUMPDEST PUSH1 0x20 DUP3 MUL SWAP1 POP SWAP2 SWAP1 POP JUMP JUMPDEST PUSH1 0x0 PUSH2 0x4422 PUSH2 0x441D DUP5 PUSH2 0x43E9 JUMP JUMPDEST PUSH2 0x40BD JUMP JUMPDEST SWAP1 POP DUP1 PUSH1 0x20 DUP5 MUL DUP4 ADD DUP6 DUP2 GT ISZERO PUSH2 0x443C JUMPI PUSH2 0x443B PUSH2 0x40FE JUMP JUMPDEST JUMPDEST DUP4 JUMPDEST DUP2 DUP2 LT ISZERO PUSH2 0x4465 JUMPI DUP1 PUSH2 0x4451 DUP9 DUP3 PUSH2 0x3DAD JUMP JUMPDEST DUP5 MSTORE PUSH1 0x20 DUP5 ADD SWAP4 POP POP PUSH1 0x20 DUP2 ADD SWAP1 POP PUSH2 0x443E JUMP JUMPDEST POP POP POP SWAP4 SWAP3 POP POP POP JUMP JUMPDEST PUSH1 0x0 DUP3 PUSH1 0x1F DUP4 ADD SLT PUSH2 0x4484 JUMPI PUSH2 0x4483 PUSH2 0x4047 JUMP JUMPDEST JUMPDEST PUSH1 0x5 PUSH2 0x4491 DUP5 DUP3 DUP6 PUSH2 0x440F JUMP JUMPDEST SWAP2 POP POP SWAP3 SWAP2 POP POP JUMP JUMPDEST PUSH1 0x0 PUSH2 0x44AD PUSH2 0x44A8 DUP5 PUSH2 0x43C3 JUMP JUMPDEST PUSH2 0x40BD JUMP JUMPDEST SWAP1 POP DUP1 PUSH1 0xA0 DUP5 MUL DUP4 ADD DUP6 DUP2 GT ISZERO PUSH2 0x44C7 JUMPI PUSH2 0x44C6 PUSH2 0x40FE JUMP JUMPDEST JUMPDEST DUP4 JUMPDEST DUP2 DUP2 LT ISZERO PUSH2 0x44F0 JUMPI DUP1 PUSH2 0x44DC DUP9 DUP3 PUSH2 0x446F JUMP JUMPDEST DUP5 MSTORE PUSH1 0x20 DUP5 ADD SWAP4 POP POP PUSH1 0xA0 DUP2 ADD SWAP1 POP PUSH2 0x44C9 JUMP JUMPDEST POP POP POP SWAP4 SWAP3 POP POP POP JUMP JUMPDEST PUSH1 0x0 DUP3 PUSH1 0x1F DUP4 ADD SLT PUSH2 0x450F JUMPI PUSH2 0x450E PUSH2 0x4047 JUMP JUMPDEST JUMPDEST PUSH1 0x3 PUSH2 0x451C DUP5 DUP3 DUP6 PUSH2 0x449A JUMP JUMPDEST SWAP2 POP POP SWAP3 SWAP2 POP POP JUMP JUMPDEST PUSH1 0x0 PUSH8 0xFFFFFFFFFFFFFFFF DUP3 GT ISZERO PUSH2 0x4540 JUMPI PUSH2 0x453F PUSH2 0x405D JUMP JUMPDEST JUMPDEST PUSH1 0x20 DUP3 MUL SWAP1 POP SWAP2 SWAP1 POP JUMP JUMPDEST PUSH1 0x0 PUSH8 0xFFFFFFFFFFFFFFFF DUP3 GT ISZERO PUSH2 0x4566 JUMPI PUSH2 0x4565 PUSH2 0x405D JUMP JUMPDEST JUMPDEST PUSH1 0x20 DUP3 MUL SWAP1 POP PUSH1 0x20 DUP2 ADD SWAP1 POP SWAP2 SWAP1 POP JUMP JUMPDEST PUSH1 0x0 PUSH2 0x458A PUSH2 0x4585 DUP5 PUSH2 0x454B JUMP JUMPDEST PUSH2 0x40BD JUMP JUMPDEST SWAP1 POP DUP1 DUP4 DUP3 MSTORE PUSH1 0x20 DUP3 ADD SWAP1 POP PUSH1 0x20 DUP5 MUL DUP4 ADD DUP6 DUP2 GT ISZERO PUSH2 0x45AD JUMPI PUSH2 0x45AC PUSH2 0x40FE JUMP JUMPDEST JUMPDEST DUP4 JUMPDEST DUP2 DUP2 LT ISZERO PUSH2 0x45D6 JUMPI DUP1 PUSH2 0x45C2 DUP9 DUP3 PUSH2 0x4005 JUMP JUMPDEST DUP5 MSTORE PUSH1 0x20 DUP5 ADD SWAP4 POP POP PUSH1 0x20 DUP2 ADD SWAP1 POP PUSH2 0x45AF JUMP JUMPDEST POP POP POP SWAP4 SWAP3 POP POP POP JUMP JUMPDEST PUSH1 0x0 DUP3 PUSH1 0x1F DUP4 ADD SLT PUSH2 0x45F5 JUMPI PUSH2 0x45F4 PUSH2 0x4047 JUMP JUMPDEST JUMPDEST DUP2 CALLDATALOAD PUSH2 0x4605 DUP5 DUP3 PUSH1 0x20 DUP7 ADD PUSH2 0x4577 JUMP JUMPDEST SWAP2 POP POP SWAP3 SWAP2 POP POP JUMP JUMPDEST PUSH1 0x0 PUSH2 0x4621 PUSH2 0x461C DUP5 PUSH2 0x4525 JUMP JUMPDEST PUSH2 0x40BD JUMP JUMPDEST SWAP1 POP DUP1 PUSH1 0x20 DUP5 MUL DUP4 ADD DUP6 DUP2 GT ISZERO PUSH2 0x463B JUMPI PUSH2 0x463A PUSH2 0x40FE JUMP JUMPDEST JUMPDEST DUP4 JUMPDEST DUP2 DUP2 LT ISZERO PUSH2 0x4682 JUMPI DUP1 CALLDATALOAD PUSH8 0xFFFFFFFFFFFFFFFF DUP2 GT ISZERO PUSH2 0x4660 JUMPI PUSH2 0x465F PUSH2 0x4047 JUMP JUMPDEST JUMPDEST DUP1 DUP7 ADD PUSH2 0x466D DUP10 DUP3 PUSH2 0x45E0 JUMP JUMPDEST DUP6 MSTORE PUSH1 0x20 DUP6 ADD SWAP5 POP POP POP PUSH1 0x20 DUP2 ADD SWAP1 POP PUSH2 0x463D JUMP JUMPDEST POP POP POP SWAP4 SWAP3 POP POP POP JUMP JUMPDEST PUSH1 0x0 DUP3 PUSH1 0x1F DUP4 ADD SLT PUSH2 0x46A1 JUMPI PUSH2 0x46A0 PUSH2 0x4047 JUMP JUMPDEST JUMPDEST PUSH1 0x3 PUSH2 0x46AE DUP5 DUP3 DUP6 PUSH2 0x460E JUMP JUMPDEST SWAP2 POP POP SWAP3 SWAP2 POP POP JUMP JUMPDEST PUSH1 0x0 DUP1 PUSH1 0x0 DUP1 PUSH1 0x0 DUP1 PUSH1 0x0 DUP1 PUSH1 0x0 PUSH2 0x3A0 DUP11 DUP13 SUB SLT ISZERO PUSH2 0x46DA JUMPI PUSH2 0x46D9 PUSH2 0x3D24 JUMP JUMPDEST JUMPDEST PUSH1 0x0 PUSH2 0x46E8 DUP13 DUP3 DUP14 ADD PUSH2 0x3D77 JUMP JUMPDEST SWAP10 POP POP PUSH1 0x20 PUSH2 0x46F9 DUP13 DUP3 DUP14 ADD PUSH2 0x3DAD JUMP JUMPDEST SWAP9 POP POP PUSH1 0x40 PUSH2 0x470A DUP13 DUP3 DUP14 ADD PUSH2 0x4163 JUMP JUMPDEST SWAP8 POP POP PUSH1 0xA0 PUSH2 0x471B DUP13 DUP3 DUP14 ADD PUSH2 0x4214 JUMP JUMPDEST SWAP7 POP POP PUSH2 0x100 PUSH2 0x472D DUP13 DUP3 DUP14 ADD PUSH2 0x4214 JUMP JUMPDEST SWAP6 POP POP PUSH2 0x160 PUSH2 0x473F DUP13 DUP3 DUP14 ADD PUSH2 0x4005 JUMP JUMPDEST SWAP5 POP POP PUSH2 0x180 DUP11 ADD CALLDATALOAD PUSH8 0xFFFFFFFFFFFFFFFF DUP2 GT ISZERO PUSH2 0x4761 JUMPI PUSH2 0x4760 PUSH2 0x3D29 JUMP JUMPDEST JUMPDEST PUSH2 0x476D DUP13 DUP3 DUP14 ADD PUSH2 0x4398 JUMP JUMPDEST SWAP4 POP POP PUSH2 0x1A0 PUSH2 0x477F DUP13 DUP3 DUP14 ADD PUSH2 0x44FA JUMP JUMPDEST SWAP3 POP POP PUSH2 0x380 DUP11 ADD CALLDATALOAD PUSH8 0xFFFFFFFFFFFFFFFF DUP2 GT ISZERO PUSH2 0x47A1 JUMPI PUSH2 0x47A0 PUSH2 0x3D29 JUMP JUMPDEST JUMPDEST PUSH2 0x47AD DUP13 DUP3 DUP14 ADD PUSH2 0x468C JUMP JUMPDEST SWAP2 POP POP SWAP3 SWAP6 SWAP9 POP SWAP3 SWAP6 SWAP9 POP SWAP3 SWAP6 SWAP9 JUMP JUMPDEST PUSH1 0x0 PUSH1 0x20 DUP3 ADD SWAP1 POP PUSH2 0x47D2 PUSH1 0x0 DUP4 ADD DUP5 PUSH2 0x3EBA JUMP JUMPDEST SWAP3 SWAP2 POP POP JUMP JUMPDEST PUSH1 0x0 PUSH1 0x20 DUP3 ADD SWAP1 POP PUSH2 0x47ED PUSH1 0x0 DUP4 ADD DUP5 PUSH2 0x3E86 JUMP JUMPDEST SWAP3 SWAP2 POP POP JUMP JUMPDEST PUSH1 0x0 DUP1 PUSH1 0x0 PUSH1 0xA0 DUP5 DUP7 SUB SLT ISZERO PUSH2 0x480C JUMPI PUSH2 0x480B PUSH2 0x3D24 JUMP JUMPDEST JUMPDEST PUSH1 0x0 PUSH2 0x481A DUP7 DUP3 DUP8 ADD PUSH2 0x3DAD JUMP JUMPDEST SWAP4 POP POP PUSH1 0x20 PUSH2 0x482B DUP7 DUP3 DUP8 ADD PUSH2 0x3DAD JUMP JUMPDEST SWAP3 POP POP PUSH1 0x40 PUSH2 0x483C DUP7 DUP3 DUP8 ADD PUSH2 0x4214 JUMP JUMPDEST SWAP2 POP POP SWAP3 POP SWAP3 POP SWAP3 JUMP JUMPDEST PUSH1 0x0 DUP1 PUSH1 0x0 DUP1 PUSH1 0x0 DUP1 PUSH1 0x0 DUP1 PUSH2 0x380 DUP10 DUP12 SUB SLT ISZERO PUSH2 0x4867 JUMPI PUSH2 0x4866 PUSH2 0x3D24 JUMP JUMPDEST JUMPDEST PUSH1 0x0 PUSH2 0x4875 DUP12 DUP3 DUP13 ADD PUSH2 0x3DAD JUMP JUMPDEST SWAP9 POP POP PUSH1 0x20 PUSH2 0x4886 DUP12 DUP3 DUP13 ADD PUSH2 0x4163 JUMP JUMPDEST SWAP8 POP POP PUSH1 0x80 PUSH2 0x4897 DUP12 DUP3 DUP13 ADD PUSH2 0x4214 JUMP JUMPDEST SWAP7 POP POP PUSH1 0xE0 PUSH2 0x48A8 DUP12 DUP3 DUP13 ADD PUSH2 0x4214 JUMP JUMPDEST SWAP6 POP POP PUSH2 0x140 PUSH2 0x48BA DUP12 DUP3 DUP13 ADD PUSH2 0x4005 JUMP JUMPDEST SWAP5 POP POP PUSH2 0x160 DUP10 ADD CALLDATALOAD PUSH8 0xFFFFFFFFFFFFFFFF DUP2 GT ISZERO PUSH2 0x48DC JUMPI PUSH2 0x48DB PUSH2 0x3D29 JUMP JUMPDEST JUMPDEST PUSH2 0x48E8 DUP12 DUP3 DUP13 ADD PUSH2 0x4398 JUMP JUMPDEST SWAP4 POP POP PUSH2 0x180 PUSH2 0x48FA DUP12 DUP3 DUP13 ADD PUSH2 0x44FA JUMP JUMPDEST SWAP3 POP POP PUSH2 0x360 DUP10 ADD CALLDATALOAD PUSH8 0xFFFFFFFFFFFFFFFF DUP2 GT ISZERO PUSH2 0x491C JUMPI PUSH2 0x491B PUSH2 0x3D29 JUMP JUMPDEST JUMPDEST PUSH2 0x4928 DUP12 DUP3 DUP13 ADD PUSH2 0x468C JUMP JUMPDEST SWAP2 POP POP SWAP3 SWAP6 SWAP9 POP SWAP3 SWAP6 SWAP9 SWAP1 SWAP4 SWAP7 POP JUMP JUMPDEST PUSH1 0x0 DUP3 DUP3 MSTORE PUSH1 0x20 DUP3 ADD SWAP1 POP SWAP3 SWAP2 POP POP JUMP JUMPDEST PUSH32 0x496E616374697665000000000000000000000000000000000000000000000000 PUSH1 0x0 DUP3 ADD MSTORE POP JUMP JUMPDEST PUSH1 0x0 PUSH2 0x497F PUSH1 0x8 DUP4 PUSH2 0x4938 JUMP JUMPDEST SWAP2 POP PUSH2 0x498A DUP3 PUSH2 0x4949 JUMP JUMPDEST PUSH1 0x20 DUP3 ADD SWAP1 POP SWAP2 SWAP1 POP JUMP JUMPDEST PUSH1 0x0 PUSH1 0x20 DUP3 ADD SWAP1 POP DUP2 DUP2 SUB PUSH1 0x0 DUP4 ADD MSTORE PUSH2 0x49AE DUP2 PUSH2 0x4972 JUMP JUMPDEST SWAP1 POP SWAP2 SWAP1 POP JUMP JUMPDEST PUSH32 0x4E487B7100000000000000000000000000000000000000000000000000000000 PUSH1 0x0 MSTORE PUSH1 0x11 PUSH1 0x4 MSTORE PUSH1 0x24 PUSH1 0x0 REVERT JUMPDEST PUSH1 0x0 PUSH2 0x49EF DUP3 PUSH2 0x3D8C JUMP JUMPDEST SWAP2 POP PUSH2 0x49FA DUP4 PUSH2 0x3D8C JUMP JUMPDEST SWAP3 POP DUP3 DUP3 ADD SWAP1 POP DUP1 DUP3 GT ISZERO PUSH2 0x4A12 JUMPI PUSH2 0x4A11 PUSH2 0x49B5 JUMP JUMPDEST JUMPDEST SWAP3 SWAP2 POP POP JUMP JUMPDEST PUSH1 0x0 PUSH1 0x40 DUP3 ADD SWAP1 POP PUSH2 0x4A2D PUSH1 0x0 DUP4 ADD DUP6 PUSH2 0x3E86 JUMP JUMPDEST PUSH2 0x4A3A PUSH1 0x20 DUP4 ADD DUP5 PUSH2 0x3E2F JUMP JUMPDEST SWAP4 SWAP3 POP POP POP JUMP JUMPDEST PUSH2 0x4A4A DUP2 PUSH2 0x3EAE JUMP JUMPDEST DUP2 EQ PUSH2 0x4A55 JUMPI PUSH1 0x0 DUP1 REVERT JUMPDEST POP JUMP JUMPDEST PUSH1 0x0 DUP2 MLOAD SWAP1 POP PUSH2 0x4A67 DUP2 PUSH2 0x4A41 JUMP JUMPDEST SWAP3 SWAP2 POP POP JUMP JUMPDEST PUSH1 0x0 PUSH1 0x20 DUP3 DUP5 SUB SLT ISZERO PUSH2 0x4A83 JUMPI PUSH2 0x4A82 PUSH2 0x3D24 JUMP JUMPDEST JUMPDEST PUSH1 0x0 PUSH2 0x4A91 DUP5 DUP3 DUP6 ADD PUSH2 0x4A58 JUMP JUMPDEST SWAP2 POP POP SWAP3 SWAP2 POP POP JUMP JUMPDEST PUSH32 0x4E487B7100000000000000000000000000000000000000000000000000000000 PUSH1 0x0 MSTORE PUSH1 0x32 PUSH1 0x4 MSTORE PUSH1 0x24 PUSH1 0x0 REVERT JUMPDEST PUSH1 0x0 PUSH1 0x60 DUP3 ADD SWAP1 POP PUSH2 0x4ADE PUSH1 0x0 DUP4 ADD DUP7 PUSH2 0x3E86 JUMP JUMPDEST PUSH2 0x4AEB PUSH1 0x20 DUP4 ADD DUP6 PUSH2 0x3E86 JUMP JUMPDEST PUSH2 0x4AF8 PUSH1 0x40 DUP4 ADD DUP5 PUSH2 0x3E2F JUMP JUMPDEST SWAP5 SWAP4 POP POP POP POP JUMP JUMPDEST PUSH1 0x0 PUSH2 0x4B0B DUP3 PUSH2 0x3D8C JUMP JUMPDEST SWAP2 POP PUSH32 0xFFFFFFFFFFFFFFFFFFFFFFFFFFFFFFFFFFFFFFFFFFFFFFFFFFFFFFFFFFFFFFFF DUP3 SUB PUSH2 0x4B3D JUMPI PUSH2 0x4B3C PUSH2 0x49B5 JUMP JUMPDEST JUMPDEST PUSH1 0x1 DUP3 ADD SWAP1 POP SWAP2 SWAP1 POP JUMP JUMPDEST PUSH1 0x0 PUSH1 0x60 DUP3 ADD SWAP1 POP PUSH2 0x4B5D PUSH1 0x0 DUP4 ADD DUP7 PUSH2 0x3E2F JUMP JUMPDEST PUSH2 0x4B6A PUSH1 0x20 DUP4 ADD DUP6 PUSH2 0x3E86 JUMP JUMPDEST PUSH2 0x4B77 PUSH1 0x40 DUP4 ADD DUP5 PUSH2 0x3EBA JUMP JUMPDEST SWAP5 SWAP4 POP POP POP POP JUMP JUMPDEST PUSH32 0x4E6F742072657665616C00000000000000000000000000000000000000000000 PUSH1 0x0 DUP3 ADD MSTORE POP JUMP JUMPDEST PUSH1 0x0 PUSH2 0x4BB5 PUSH1 0xA DUP4 PUSH2 0x4938 JUMP JUMPDEST SWAP2 POP PUSH2 0x4BC0 DUP3 PUSH2 0x4B7F JUMP JUMPDEST PUSH1 0x20 DUP3 ADD SWAP1 POP SWAP2 SWAP1 POP JUMP JUMPDEST PUSH1 0x0 PUSH1 0x20 DUP3 ADD SWAP1 POP DUP2 DUP2 SUB PUSH1 0x0 DUP4 ADD MSTORE PUSH2 0x4BE4 DUP2 PUSH2 0x4BA8 JUMP JUMPDEST SWAP1 POP SWAP2 SWAP1 POP JUMP JUMPDEST PUSH1 0x0 DUP2 SWAP1 POP SWAP2 SWAP1 POP JUMP JUMPDEST PUSH1 0x0 PUSH2 0x4C00 DUP3 PUSH2 0x4BEB JUMP JUMPDEST SWAP2 POP PUSH2 0x4C0B DUP4 PUSH2 0x4BEB JUMP JUMPDEST SWAP3 POP DUP3 DUP3 ADD SWAP1 POP DUP3 DUP2 SLT ISZERO PUSH1 0x0 DUP4 SLT AND DUP4 DUP3 SLT PUSH1 0x0 DUP5 SLT ISZERO AND OR ISZERO PUSH2 0x4C33 JUMPI PUSH2 0x4C32 PUSH2 0x49B5 JUMP JUMPDEST JUMPDEST SWAP3 SWAP2 POP POP JUMP JUMPDEST PUSH1 0x0 PUSH2 0x4C44 DUP3 PUSH2 0x3D8C JUMP JUMPDEST SWAP2 POP PUSH2 0x4C4F DUP4 PUSH2 0x3D8C JUMP JUMPDEST SWAP3 POP DUP3 DUP3 MUL PUSH2 0x4C5D DUP2 PUSH2 0x3D8C JUMP JUMPDEST SWAP2 POP DUP3 DUP3 DIV DUP5 EQ DUP4 ISZERO OR PUSH2 0x4C74 JUMPI PUSH2 0x4C73 PUSH2 0x49B5 JUMP JUMPDEST JUMPDEST POP SWAP3 SWAP2 POP POP JUMP JUMPDEST PUSH32 0x4E487B7100000000000000000000000000000000000000000000000000000000 PUSH1 0x0 MSTORE PUSH1 0x12 PUSH1 0x4 MSTORE PUSH1 0x24 PUSH1 0x0 REVERT JUMPDEST PUSH1 0x0 PUSH2 0x4CB5 DUP3 PUSH2 0x3D8C JUMP JUMPDEST SWAP2 POP PUSH2 0x4CC0 DUP4 PUSH2 0x3D8C JUMP JUMPDEST SWAP3 POP DUP3 PUSH2 0x4CD0 JUMPI PUSH2 0x4CCF PUSH2 0x4C7B JUMP JUMPDEST JUMPDEST DUP3 DUP3 DIV SWAP1 POP SWAP3 SWAP2 POP POP JUMP JUMPDEST PUSH1 0x0 PUSH2 0x4CE6 DUP3 PUSH2 0x3D8C JUMP JUMPDEST SWAP2 POP PUSH2 0x4CF1 DUP4 PUSH2 0x3D8C JUMP JUMPDEST SWAP3 POP DUP3 DUP3 SUB SWAP1 POP DUP2 DUP2 GT ISZERO PUSH2 0x4D09 JUMPI PUSH2 0x4D08 PUSH2 0x49B5 JUMP JUMPDEST JUMPDEST SWAP3 SWAP2 POP POP JUMP JUMPDEST PUSH32 0x5374616B65206C6F770000000000000000000000000000000000000000000000 PUSH1 0x0 DUP3 ADD MSTORE POP JUMP JUMPDEST PUSH1 0x0 PUSH2 0x4D45 PUSH1 0x9 DUP4 PUSH2 0x4938 JUMP JUMPDEST SWAP2 POP PUSH2 0x4D50 DUP3 PUSH2 0x4D0F JUMP JUMPDEST PUSH1 0x20 DUP3 ADD SWAP1 POP SWAP2 SWAP1 POP JUMP JUMPDEST PUSH1 0x0 PUSH1 0x20 DUP3 ADD SWAP1 POP DUP2 DUP2 SUB PUSH1 0x0 DUP4 ADD MSTORE PUSH2 0x4D74 DUP2 PUSH2 0x4D38 JUMP JUMPDEST SWAP1 POP SWAP2 SWAP1 POP JUMP JUMPDEST PUSH32 0x546F6B656E20696E76616C696400000000000000000000000000000000000000 PUSH1 0x0 DUP3 ADD MSTORE POP JUMP JUMPDEST PUSH1 0x0 PUSH2 0x4DB1 PUSH1 0xD DUP4 PUSH2 0x4938 JUMP JUMPDEST SWAP2 POP PUSH2 0x4DBC DUP3 PUSH2 0x4D7B JUMP JUMPDEST PUSH1 0x20 DUP3 ADD SWAP1 POP SWAP2 SWAP1 POP JUMP JUMPDEST PUSH1 0x0 PUSH1 0x20 DUP3 ADD SWAP1 POP DUP2 DUP2 SUB PUSH1 0x0 DUP4 ADD MSTORE PUSH2 0x4DE0 DUP2 PUSH2 0x4DA4 JUMP JUMPDEST SWAP1 POP SWAP2 SWAP1 POP JUMP JUMPDEST PUSH32 0x42616420636F6D6D697400000000000000000000000000000000000000000000 PUSH1 0x0 DUP3 ADD MSTORE POP JUMP JUMPDEST PUSH1 0x0 PUSH2 0x4E1D PUSH1 0xA DUP4 PUSH2 0x4938 JUMP JUMPDEST SWAP2 POP PUSH2 0x4E28 DUP3 PUSH2 0x4DE7 JUMP JUMPDEST PUSH1 0x20 DUP3 ADD SWAP1 POP SWAP2 SWAP1 POP JUMP JUMPDEST PUSH1 0x0 PUSH1 0x20 DUP3 ADD SWAP1 POP DUP2 DUP2 SUB PUSH1 0x0 DUP4 ADD MSTORE PUSH2 0x4E4C DUP2 PUSH2 0x4E10 JUMP JUMPDEST SWAP1 POP SWAP2 SWAP1 POP JUMP JUMPDEST PUSH32 0x436F6C6C20696E76616C69640000000000000000000000000000000000000000 PUSH1 0x0 DUP3 ADD MSTORE POP JUMP JUMPDEST PUSH1 0x0 PUSH2 0x4E89 PUSH1 0xC DUP4 PUSH2 0x4938 JUMP JUMPDEST SWAP2 POP PUSH2 0x4E94 DUP3 PUSH2 0x4E53 JUMP JUMPDEST PUSH1 0x20 DUP3 ADD SWAP1 POP SWAP2 SWAP1 POP JUMP JUMPDEST PUSH1 0x0 PUSH1 0x20 DUP3 ADD SWAP1 POP DUP2 DUP2 SUB PUSH1 0x0 DUP4 ADD MSTORE PUSH2 0x4EB8 DUP2 PUSH2 0x4E7C JUMP JUMPDEST SWAP1 POP SWAP2 SWAP1 POP JUMP JUMPDEST PUSH1 0x0 DUP2 MLOAD SWAP1 POP PUSH2 0x4ECE DUP2 PUSH2 0x3D60 JUMP JUMPDEST SWAP3 SWAP2 POP POP JUMP JUMPDEST PUSH1 0x0 PUSH1 0x20 DUP3 DUP5 SUB SLT ISZERO PUSH2 0x4EEA JUMPI PUSH2 0x4EE9 PUSH2 0x3D24 JUMP JUMPDEST JUMPDEST PUSH1 0x0 PUSH2 0x4EF8 DUP5 DUP3 DUP6 ADD PUSH2 0x4EBF JUMP JUMPDEST SWAP2 POP POP SWAP3 SWAP2 POP POP JUMP JUMPDEST PUSH32 0x4E6F74206F776E00000000000000000000000000000000000000000000000000 PUSH1 0x0 DUP3 ADD MSTORE POP JUMP JUMPDEST PUSH1 0x0 PUSH2 0x4F37 PUSH1 0x7 DUP4 PUSH2 0x4938 JUMP JUMPDEST SWAP2 POP PUSH2 0x4F42 DUP3 PUSH2 0x4F01 JUMP JUMPDEST PUSH1 0x20 DUP3 ADD SWAP1 POP SWAP2 SWAP1 POP JUMP JUMPDEST PUSH1 0x0 PUSH1 0x20 DUP3 ADD SWAP1 POP DUP2 DUP2 SUB PUSH1 0x0 DUP4 ADD MSTORE PUSH2 0x4F66 DUP2 PUSH2 0x4F2A JUMP JUMPDEST SWAP1 POP SWAP2 SWAP1 POP JUMP JUMPDEST PUSH32 0x4E6F7420617070726F7665640000000000000000000000000000000000000000 PUSH1 0x0 DUP3 ADD MSTORE POP JUMP JUMPDEST PUSH1 0x0 PUSH2 0x4FA3 PUSH1 0xC DUP4 PUSH2 0x4938 JUMP JUMPDEST SWAP2 POP PUSH2 0x4FAE DUP3 PUSH2 0x4F6D JUMP JUMPDEST PUSH1 0x20 DUP3 ADD SWAP1 POP SWAP2 SWAP1 POP JUMP JUMPDEST PUSH1 0x0 PUSH1 0x20 DUP3 ADD SWAP1 POP DUP2 DUP2 SUB PUSH1 0x0 DUP4 ADD MSTORE PUSH2 0x4FD2 DUP2 PUSH2 0x4F96 JUMP JUMPDEST SWAP1 POP SWAP2 SWAP1 POP JUMP JUMPDEST PUSH32 0x496E76616C696420636861726163746572000000000000000000000000000000 PUSH1 0x0 DUP3 ADD MSTORE POP JUMP JUMPDEST PUSH1 0x0 PUSH2 0x500F PUSH1 0x11 DUP4 PUSH2 0x4938 JUMP JUMPDEST SWAP2 POP PUSH2 0x501A DUP3 PUSH2 0x4FD9 JUMP JUMPDEST PUSH1 0x20 DUP3 ADD SWAP1 POP SWAP2 SWAP1 POP JUMP JUMPDEST PUSH1 0x0 PUSH1 0x20 DUP3 ADD SWAP1 POP DUP2 DUP2 SUB PUSH1 0x0 DUP4 ADD MSTORE PUSH2 0x503E DUP2 PUSH2 0x5002 JUMP JUMPDEST SWAP1 POP SWAP2 SWAP1 POP JUMP JUMPDEST PUSH32 0x4475706C69636174652063686172616374657200000000000000000000000000 PUSH1 0x0 DUP3 ADD MSTORE POP JUMP JUMPDEST PUSH1 0x0 PUSH2 0x507B PUSH1 0x13 DUP4 PUSH2 0x4938 JUMP JUMPDEST SWAP2 POP PUSH2 0x5086 DUP3 PUSH2 0x5045 JUMP JUMPDEST PUSH1 0x20 DUP3 ADD SWAP1 POP SWAP2 SWAP1 POP JUMP JUMPDEST PUSH1 0x0 PUSH1 0x20 DUP3 ADD SWAP1 POP DUP2 DUP2 SUB PUSH1 0x0 DUP4 ADD MSTORE PUSH2 0x50AA DUP2 PUSH2 0x506E JUMP JUMPDEST SWAP1 POP SWAP2 SWAP1 POP JUMP JUMPDEST PUSH1 0x0 PUSH1 0x3 SWAP1 POP SWAP2 SWAP1 POP JUMP JUMPDEST PUSH1 0x0 DUP2 SWAP1 POP SWAP3 SWAP2 POP POP JUMP JUMPDEST PUSH1 0x0 DUP2 SWAP1 POP SWAP2 SWAP1 POP JUMP JUMPDEST PUSH2 0x50DA DUP2 PUSH2 0x3D4E JUMP JUMPDEST DUP3 MSTORE POP POP JUMP JUMPDEST PUSH1 0x0 PUSH2 0x50EC DUP4 DUP4 PUSH2 0x50D1 JUMP JUMPDEST PUSH1 0x20 DUP4 ADD SWAP1 POP SWAP3 SWAP2 POP POP JUMP JUMPDEST PUSH1 0x0 PUSH1 0x20 DUP3 ADD SWAP1 POP SWAP2 SWAP1 POP JUMP JUMPDEST PUSH2 0x510E DUP2 PUSH2 0x50B1 JUMP JUMPDEST PUSH2 0x5118 DUP2 DUP5 PUSH2 0x50BC JUMP JUMPDEST SWAP3 POP PUSH2 0x5123 DUP3 PUSH2 0x50C7 JUMP JUMPDEST DUP1 PUSH1 0x0 JUMPDEST DUP4 DUP2 LT ISZERO PUSH2 0x5154 JUMPI DUP2 MLOAD PUSH2 0x513B DUP8 DUP3 PUSH2 0x50E0 JUMP JUMPDEST SWAP7 POP PUSH2 0x5146 DUP4 PUSH2 0x50F8 JUMP JUMPDEST SWAP3 POP POP PUSH1 0x1 DUP2 ADD SWAP1 POP PUSH2 0x5127 JUMP JUMPDEST POP POP POP POP POP POP JUMP JUMPDEST PUSH1 0x0 PUSH1 0x3 SWAP1 POP SWAP2 SWAP1 POP JUMP JUMPDEST PUSH1 0x0 DUP2 SWAP1 POP SWAP3 SWAP2 POP POP JUMP JUMPDEST PUSH1 0x0 DUP2 SWAP1 POP SWAP2 SWAP1 POP JUMP JUMPDEST PUSH2 0x5185 DUP2 PUSH2 0x3D8C JUMP JUMPDEST DUP3 MSTORE POP POP JUMP JUMPDEST PUSH1 0x0 PUSH2 0x5197 DUP4 DUP4 PUSH2 0x517C JUMP JUMPDEST PUSH1 0x20 DUP4 ADD SWAP1 POP SWAP3 SWAP2 POP POP JUMP JUMPDEST PUSH1 0x0 PUSH1 0x20 DUP3 ADD SWAP1 POP SWAP2 SWAP1 POP JUMP JUMPDEST PUSH2 0x51B9 DUP2 PUSH2 0x515C JUMP JUMPDEST PUSH2 0x51C3 DUP2 DUP5 PUSH2 0x5167 JUMP JUMPDEST SWAP3 POP PUSH2 0x51CE DUP3 PUSH2 0x5172 JUMP JUMPDEST DUP1 PUSH1 0x0 JUMPDEST DUP4 DUP2 LT ISZERO PUSH2 0x51FF JUMPI DUP2 MLOAD PUSH2 0x51E6 DUP8 DUP3 PUSH2 0x518B JUMP JUMPDEST SWAP7 POP PUSH2 0x51F1 DUP4 PUSH2 0x51A3 JUMP JUMPDEST SWAP3 POP POP PUSH1 0x1 DUP2 ADD SWAP1 POP PUSH2 0x51D2 JUMP JUMPDEST POP POP POP POP POP POP JUMP JUMPDEST PUSH1 0x0 PUSH1 0x3 SWAP1 POP SWAP2 SWAP1 POP JUMP JUMPDEST PUSH1 0x0 DUP2 SWAP1 POP SWAP3 SWAP2 POP POP JUMP JUMPDEST PUSH1 0x0 DUP2 SWAP1 POP SWAP2 SWAP1 POP JUMP JUMPDEST PUSH1 0x0 DUP2 MLOAD SWAP1 POP SWAP2 SWAP1 POP JUMP JUMPDEST PUSH1 0x0 DUP3 DUP3 MSTORE PUSH1 0x20 DUP3 ADD SWAP1 POP SWAP3 SWAP2 POP POP JUMP JUMPDEST PUSH1 0x0 JUMPDEST DUP4 DUP2 LT ISZERO PUSH2 0x5261 JUMPI DUP1 DUP3 ADD MLOAD DUP2 DUP5 ADD MSTORE PUSH1 0x20 DUP2 ADD SWAP1 POP PUSH2 0x5246 JUMP JUMPDEST PUSH1 0x0 DUP5 DUP5 ADD MSTORE POP POP POP POP JUMP JUMPDEST PUSH1 0x0 PUSH2 0x5278 DUP3 PUSH2 0x5227 JUMP JUMPDEST PUSH2 0x5282 DUP2 DUP6 PUSH2 0x5232 JUMP JUMPDEST SWAP4 POP PUSH2 0x5292 DUP2 DUP6 PUSH1 0x20 DUP7 ADD PUSH2 0x5243 JUMP JUMPDEST PUSH2 0x529B DUP2 PUSH2 0x404C JUMP JUMPDEST DUP5 ADD SWAP2 POP POP SWAP3 SWAP2 POP POP JUMP JUMPDEST PUSH1 0x0 PUSH2 0x52B2 DUP4 DUP4 PUSH2 0x526D JUMP JUMPDEST SWAP1 POP SWAP3 SWAP2 POP POP JUMP JUMPDEST PUSH1 0x0 PUSH1 0x20 DUP3 ADD SWAP1 POP SWAP2 SWAP1 POP JUMP JUMPDEST PUSH1 0x0 PUSH2 0x52D2 DUP3 PUSH2 0x5207 JUMP JUMPDEST PUSH2 0x52DC DUP2 DUP6 PUSH2 0x5212 JUMP JUMPDEST SWAP4 POP DUP4 PUSH1 0x20 DUP3 MUL DUP6 ADD PUSH2 0x52EE DUP6 PUSH2 0x521D JUMP JUMPDEST DUP1 PUSH1 0x0 JUMPDEST DUP6 DUP2 LT ISZERO PUSH2 0x532A JUMPI DUP5 DUP5 SUB DUP10 MSTORE DUP2 MLOAD PUSH2 0x530B DUP6 DUP3 PUSH2 0x52A6 JUMP JUMPDEST SWAP5 POP PUSH2 0x5316 DUP4 PUSH2 0x52BA JUMP JUMPDEST SWAP3 POP PUSH1 0x20 DUP11 ADD SWAP10 POP POP PUSH1 0x1 DUP2 ADD SWAP1 POP PUSH2 0x52F2 JUMP JUMPDEST POP DUP3 SWAP8 POP DUP8 SWAP6 POP POP POP POP POP POP SWAP3 SWAP2 POP POP JUMP JUMPDEST PUSH1 0x0 PUSH1 0x3 SWAP1 POP SWAP2 SWAP1 POP JUMP JUMPDEST PUSH1 0x0 DUP2 SWAP1 POP SWAP3 SWAP2 POP POP JUMP JUMPDEST PUSH1 0x0 DUP2 SWAP1 POP SWAP2 SWAP1 POP JUMP JUMPDEST PUSH1 0x0 PUSH1 0x5 SWAP1 POP SWAP2 SWAP1 POP JUMP JUMPDEST PUSH1 0x0 DUP2 SWAP1 POP SWAP3 SWAP2 POP POP JUMP JUMPDEST PUSH1 0x0 DUP2 SWAP1 POP SWAP2 SWAP1 POP JUMP JUMPDEST PUSH1 0x0 PUSH1 0x20 DUP3 ADD SWAP1 POP SWAP2 SWAP1 POP JUMP JUMPDEST PUSH2 0x5392 DUP2 PUSH2 0x535C JUMP JUMPDEST PUSH2 0x539C DUP2 DUP5 PUSH2 0x5367 JUMP JUMPDEST SWAP3 POP PUSH2 0x53A7 DUP3 PUSH2 0x5372 JUMP JUMPDEST DUP1 PUSH1 0x0 JUMPDEST DUP4 DUP2 LT ISZERO PUSH2 0x53D8 JUMPI DUP2 MLOAD PUSH2 0x53BF DUP8 DUP3 PUSH2 0x518B JUMP JUMPDEST SWAP7 POP PUSH2 0x53CA DUP4 PUSH2 0x537C JUMP JUMPDEST SWAP3 POP POP PUSH1 0x1 DUP2 ADD SWAP1 POP PUSH2 0x53AB JUMP JUMPDEST POP POP POP POP POP POP JUMP JUMPDEST PUSH1 0x0 PUSH2 0x53EC DUP4 DUP4 PUSH2 0x5389 JUMP JUMPDEST PUSH1 0xA0 DUP4 ADD SWAP1 POP SWAP3 SWAP2 POP POP JUMP JUMPDEST PUSH1 0x0 PUSH1 0x20 DUP3 ADD SWAP1 POP SWAP2 SWAP1 POP JUMP JUMPDEST PUSH2 0x540E DUP2 PUSH2 0x533C JUMP JUMPDEST PUSH2 0x5418 DUP2 DUP5 PUSH2 0x5347 JUMP JUMPDEST SWAP3 POP PUSH2 0x5423 DUP3 PUSH2 0x5352 JUMP JUMPDEST DUP1 PUSH1 0x0 JUMPDEST DUP4 DUP2 LT ISZERO PUSH2 0x5454 JUMPI DUP2 MLOAD PUSH2 0x543B DUP8 DUP3 PUSH2 0x53E0 JUMP JUMPDEST SWAP7 POP PUSH2 0x5446 DUP4 PUSH2 0x53F8 JUMP JUMPDEST SWAP3 POP POP PUSH1 0x1 DUP2 ADD SWAP1 POP PUSH2 0x5427 JUMP JUMPDEST POP POP POP POP POP POP JUMP JUMPDEST PUSH1 0x0 PUSH2 0x2C0 DUP3 ADD SWAP1 POP PUSH2 0x5472 PUSH1 0x0 DUP4 ADD DUP8 PUSH2 0x5105 JUMP JUMPDEST PUSH2 0x547F PUSH1 0x60 DUP4 ADD DUP7 PUSH2 0x51B0 JUMP JUMPDEST DUP2 DUP2 SUB PUSH1 0xC0 DUP4 ADD MSTORE PUSH2 0x5491 DUP2 DUP6 PUSH2 0x52C7 JUMP JUMPDEST SWAP1 POP PUSH2 0x54A0 PUSH1 0xE0 DUP4 ADD DUP5 PUSH2 0x5405 JUMP JUMPDEST SWAP6 SWAP5 POP POP POP POP POP JUMP JUMPDEST PUSH1 0x0 PUSH1 0x80 DUP3 ADD SWAP1 POP PUSH2 0x54BE PUSH1 0x0 DUP4 ADD DUP8 PUSH2 0x3E2F JUMP JUMPDEST PUSH2 0x54CB PUSH1 0x20 DUP4 ADD DUP7 PUSH2 0x3E86 JUMP JUMPDEST PUSH2 0x54D8 PUSH1 0x40 DUP4 ADD DUP6 PUSH2 0x3E86 JUMP JUMPDEST PUSH2 0x54E5 PUSH1 0x60 DUP4 ADD DUP5 PUSH2 0x3E2F JUMP JUMPDEST SWAP6 SWAP5 POP POP POP POP POP JUMP JUMPDEST PUSH32 0x4E6F7420706C6179657200000000000000000000000000000000000000000000 PUSH1 0x0 DUP3 ADD MSTORE POP JUMP JUMPDEST PUSH1 0x0 PUSH2 0x5524 PUSH1 0xA DUP4 PUSH2 0x4938 JUMP JUMPDEST SWAP2 POP PUSH2 0x552F DUP3 PUSH2 0x54EE JUMP JUMPDEST PUSH1 0x20 DUP3 ADD SWAP1 POP SWAP2 SWAP1 POP JUMP JUMPDEST PUSH1 0x0 PUSH1 0x20 DUP3 ADD SWAP1 POP DUP2 DUP2 SUB PUSH1 0x0 DUP4 ADD MSTORE PUSH2 0x5553 DUP2 PUSH2 0x5517 JUMP JUMPDEST SWAP1 POP SWAP2 SWAP1 POP JUMP JUMPDEST PUSH32 0x52657665616C6564000000000000000000000000000000000000000000000000 PUSH1 0x0 DUP3 ADD MSTORE POP JUMP JUMPDEST PUSH1 0x0 PUSH2 0x5590 PUSH1 0x8 DUP4 PUSH2 0x4938 JUMP JUMPDEST SWAP2 POP PUSH2 0x559B DUP3 PUSH2 0x555A JUMP JUMPDEST PUSH1 0x20 DUP3 ADD SWAP1 POP SWAP2 SWAP1 POP JUMP JUMPDEST PUSH1 0x0 PUSH1 0x20 DUP3 ADD SWAP1 POP DUP2 DUP2 SUB PUSH1 0x0 DUP4 ADD MSTORE PUSH2 0x55BF DUP2 PUSH2 0x5583 JUMP JUMPDEST SWAP1 POP SWAP2 SWAP1 POP JUMP JUMPDEST PUSH1 0x0 DUP2 SWAP1 POP SWAP2 SWAP1 POP JUMP JUMPDEST PUSH2 0x55E1 PUSH2 0x55DC DUP3 PUSH2 0x3D8C JUMP JUMPDEST PUSH2 0x55C6 JUMP JUMPDEST DUP3 MSTORE POP POP JUMP JUMPDEST PUSH1 0x0 PUSH2 0x55F3 DUP3 DUP8 PUSH2 0x55D0 JUMP JUMPDEST PUSH1 0x20 DUP3 ADD SWAP2 POP PUSH2 0x5603 DUP3 DUP7 PUSH2 0x55D0 JUMP JUMPDEST PUSH1 0x20 DUP3 ADD SWAP2 POP PUSH2 0x5613 DUP3 DUP6 PUSH2 0x55D0 JUMP JUMPDEST PUSH1 0x20 DUP3 ADD SWAP2 POP PUSH2 0x5623 DUP3 DUP5 PUSH2 0x55D0 JUMP JUMPDEST PUSH1 0x20 DUP3 ADD SWAP2 POP DUP2 SWAP1 POP SWAP6 SWAP5 POP POP POP POP POP JUMP JUMPDEST PUSH32 0x4261642072657665616C00000000000000000000000000000000000000000000 PUSH1 0x0 DUP3 ADD MSTORE POP JUMP JUMPDEST PUSH1 0x0 PUSH2 0x566B PUSH1 0xA DUP4 PUSH2 0x4938 JUMP JUMPDEST SWAP2 POP PUSH2 0x5676 DUP3 PUSH2 0x5635 JUMP JUMPDEST PUSH1 0x20 DUP3 ADD SWAP1 POP SWAP2 SWAP1 POP JUMP JUMPDEST PUSH1 0x0 PUSH1 0x20 DUP3 ADD SWAP1 POP DUP2 DUP2 SUB PUSH1 0x0 DUP4 ADD MSTORE PUSH2 0x569A DUP2 PUSH2 0x565E JUMP JUMPDEST SWAP1 POP SWAP2 SWAP1 POP JUMP JUMPDEST PUSH32 0x4964782062616400000000000000000000000000000000000000000000000000 PUSH1 0x0 DUP3 ADD MSTORE POP JUMP JUMPDEST PUSH1 0x0 PUSH2 0x56D7 PUSH1 0x7 DUP4 PUSH2 0x4938 JUMP JUMPDEST SWAP2 POP PUSH2 0x56E2 DUP3 PUSH2 0x56A1 JUMP JUMPDEST PUSH1 0x20 DUP3 ADD SWAP1 POP SWAP2 SWAP1 POP JUMP JUMPDEST PUSH1 0x0 PUSH1 0x20 DUP3 ADD SWAP1 POP DUP2 DUP2 SUB PUSH1 0x0 DUP4 ADD MSTORE PUSH2 0x5706 DUP2 PUSH2 0x56CA JUMP JUMPDEST SWAP1 POP SWAP2 SWAP1 POP JUMP JUMPDEST PUSH32 0x4475702069647800000000000000000000000000000000000000000000000000 PUSH1 0x0 DUP3 ADD MSTORE POP JUMP JUMPDEST PUSH1 0x0 PUSH2 0x5743 PUSH1 0x7 DUP4 PUSH2 0x4938 JUMP JUMPDEST SWAP2 POP PUSH2 0x574E DUP3 PUSH2 0x570D JUMP JUMPDEST PUSH1 0x20 DUP3 ADD SWAP1 POP SWAP2 SWAP1 POP JUMP JUMPDEST PUSH1 0x0 PUSH1 0x20 DUP3 ADD SWAP1 POP DUP2 DUP2 SUB PUSH1 0x0 DUP4 ADD MSTORE PUSH2 0x5772 DUP2 PUSH2 0x5736 JUMP JUMPDEST SWAP1 POP SWAP2 SWAP1 POP JUMP JUMPDEST PUSH1 0x0 PUSH1 0x40 DUP3 ADD SWAP1 POP PUSH2 0x578E PUSH1 0x0 DUP4 ADD DUP6 PUSH2 0x3E2F JUMP JUMPDEST PUSH2 0x579B PUSH1 0x20 DUP4 ADD DUP5 PUSH2 0x3E86 JUMP JUMPDEST SWAP4 SWAP3 POP POP POP JUMP JUMPDEST PUSH32 0x4A6F696E65640000000000000000000000000000000000000000000000000000 PUSH1 0x0 DUP3 ADD MSTORE POP JUMP JUMPDEST PUSH1 0x0 PUSH2 0x57D8 PUSH1 0x6 DUP4 PUSH2 0x4938 JUMP JUMPDEST SWAP2 POP PUSH2 0x57E3 DUP3 PUSH2 0x57A2 JUMP JUMPDEST PUSH1 0x20 DUP3 ADD SWAP1 POP SWAP2 SWAP1 POP JUMP JUMPDEST PUSH1 0x0 PUSH1 0x20 DUP3 ADD SWAP1 POP DUP2 DUP2 SUB PUSH1 0x0 DUP4 ADD MSTORE PUSH2 0x5807 DUP2 PUSH2 0x57CB JUMP JUMPDEST SWAP1 POP SWAP2 SWAP1 POP JUMP JUMPDEST PUSH1 0x0 PUSH2 0x5819 DUP3 PUSH2 0x4BEB JUMP JUMPDEST SWAP2 POP PUSH2 0x5824 DUP4 PUSH2 0x4BEB JUMP JUMPDEST SWAP3 POP DUP3 DUP3 SUB SWAP1 POP DUP2 DUP2 SLT PUSH1 0x0 DUP5 SLT AND DUP3 DUP3 SGT PUSH1 0x0 DUP6 SLT ISZERO AND OR ISZERO PUSH2 0x584B JUMPI PUSH2 0x584A PUSH2 0x49B5 JUMP JUMPDEST JUMPDEST SWAP3 SWAP2 POP POP JUMP JUMPDEST PUSH1 0x0 PUSH2 0x585D DUP3 DUP6 PUSH2 0x55D0 JUMP JUMPDEST PUSH1 0x20 DUP3 ADD SWAP2 POP PUSH2 0x586D DUP3 DUP5 PUSH2 0x55D0 JUMP JUMPDEST PUSH1 0x20 DUP3 ADD SWAP2 POP DUP2 SWAP1 POP SWAP4 SWAP3 POP POP POP JUMP JUMPDEST PUSH32 0x5261726974792064757000000000000000000000000000000000000000000000 PUSH1 0x0 DUP3 ADD MSTORE POP JUMP JUMPDEST PUSH1 0x0 PUSH2 0x58B3 PUSH1 0xA DUP4 PUSH2 0x4938 JUMP JUMPDEST SWAP2 POP PUSH2 0x58BE DUP3 PUSH2 0x587D JUMP JUMPDEST PUSH1 0x20 DUP3 ADD SWAP1 POP SWAP2 SWAP1 POP JUMP JUMPDEST PUSH1 0x0 PUSH1 0x20 DUP3 ADD SWAP1 POP DUP2 DUP2 SUB PUSH1 0x0 DUP4 ADD MSTORE PUSH2 0x58E2 DUP2 PUSH2 0x58A6 JUMP JUMPDEST SWAP1 POP SWAP2 SWAP1 POP JUMP JUMPDEST PUSH32 0x4E487B7100000000000000000000000000000000000000000000000000000000 PUSH1 0x0 MSTORE PUSH1 0x22 PUSH1 0x4 MSTORE PUSH1 0x24 PUSH1 0x0 REVERT JUMPDEST PUSH1 0x0 PUSH1 0x2 DUP3 DIV SWAP1 POP PUSH1 0x1 DUP3 AND DUP1 PUSH2 0x5930 JUMPI PUSH1 0x7F DUP3 AND SWAP2 POP JUMPDEST PUSH1 0x20 DUP3 LT DUP2 SUB PUSH2 0x5943 JUMPI PUSH2 0x5942 PUSH2 0x58E9 JUMP JUMPDEST JUMPDEST POP SWAP2 SWAP1 POP JUMP JUMPDEST PUSH1 0x0 DUP2 SWAP1 POP DUP2 PUSH1 0x0 MSTORE PUSH1 0x20 PUSH1 0x0 KECCAK256 SWAP1 POP SWAP2 SWAP1 POP JUMP JUMPDEST PUSH1 0x0 PUSH1 0x20 PUSH1 0x1F DUP4 ADD DIV SWAP1 POP SWAP2 SWAP1 POP JUMP JUMPDEST PUSH1 0x0 DUP3 DUP3 SHL SWAP1 POP SWAP3 SWAP2 POP POP JUMP JUMPDEST PUSH1 0x0 PUSH1 0x8 DUP4 MUL PUSH2 0x59AB PUSH32 0xFFFFFFFFFFFFFFFFFFFFFFFFFFFFFFFFFFFFFFFFFFFFFFFFFFFFFFFFFFFFFFFF DUP3 PUSH2 0x596E JUMP JUMPDEST PUSH2 0x59B5 DUP7 DUP4 PUSH2 0x596E JUMP JUMPDEST SWAP6 POP DUP1 NOT DUP5 AND SWAP4 POP DUP1 DUP7 AND DUP5 OR SWAP3 POP POP POP SWAP4 SWAP3 POP POP POP JUMP JUMPDEST PUSH1 0x0 PUSH2 0x59E8 PUSH2 0x59E3 PUSH2 0x59DE DUP5 PUSH2 0x3D8C JUMP JUMPDEST PUSH2 0x3EC9 JUMP JUMPDEST PUSH2 0x3D8C JUMP JUMPDEST SWAP1 POP SWAP2 SWAP1 POP JUMP JUMPDEST PUSH1 0x0 DUP2 SWAP1 POP SWAP2 SWAP1 POP JUMP JUMPDEST PUSH2 0x5A02 DUP4 PUSH2 0x59CD JUMP JUMPDEST PUSH2 0x5A16 PUSH2 0x5A0E DUP3 PUSH2 0x59EF JUMP JUMPDEST DUP5 DUP5 SLOAD PUSH2 0x597B JUMP JUMPDEST DUP3 SSTORE POP POP POP POP JUMP JUMPDEST PUSH1 0x0 SWAP1 JUMP JUMPDEST PUSH2 0x5A2B PUSH2 0x5A1E JUMP JUMPDEST PUSH2 0x5A36 DUP2 DUP5 DUP5 PUSH2 0x59F9 JUMP JUMPDEST POP POP POP JUMP JUMPDEST JUMPDEST DUP2 DUP2 LT ISZERO PUSH2 0x5A5A JUMPI PUSH2 0x5A4F PUSH1 0x0 DUP3 PUSH2 0x5A23 JUMP JUMPDEST PUSH1 0x1 DUP2 ADD SWAP1 POP PUSH2 0x5A3C JUMP JUMPDEST POP POP JUMP JUMPDEST PUSH1 0x1F DUP3 GT ISZERO PUSH2 0x5A9F JUMPI PUSH2 0x5A70 DUP2 PUSH2 0x5949 JUMP JUMPDEST PUSH2 0x5A79 DUP5 PUSH2 0x595E JUMP JUMPDEST DUP2 ADD PUSH1 0x20 DUP6 LT ISZERO PUSH2 0x5A88 JUMPI DUP2 SWAP1 POP JUMPDEST PUSH2 0x5A9C PUSH2 0x5A94 DUP6 PUSH2 0x595E JUMP JUMPDEST DUP4 ADD DUP3 PUSH2 0x5A3B JUMP JUMPDEST POP POP JUMPDEST POP POP POP JUMP JUMPDEST PUSH1 0x0 DUP3 DUP3 SHR SWAP1 POP SWAP3 SWAP2 POP POP JUMP JUMPDEST PUSH1 0x0 PUSH2 0x5AC2 PUSH1 0x0 NOT DUP5 PUSH1 0x8 MUL PUSH2 0x5AA4 JUMP JUMPDEST NOT DUP1 DUP4 AND SWAP2 POP POP SWAP3 SWAP2 POP POP JUMP JUMPDEST PUSH1 0x0 PUSH2 0x5ADB DUP4 DUP4 PUSH2 0x5AB1 JUMP JUMPDEST SWAP2 POP DUP3 PUSH1 0x2 MUL DUP3 OR SWAP1 POP SWAP3 SWAP2 POP POP JUMP JUMPDEST PUSH2 0x5AF4 DUP3 PUSH2 0x5227 JUMP JUMPDEST PUSH8 0xFFFFFFFFFFFFFFFF DUP2 GT ISZERO PUSH2 0x5B0D JUMPI PUSH2 0x5B0C PUSH2 0x405D JUMP JUMPDEST JUMPDEST PUSH2 0x5B17 DUP3 SLOAD PUSH2 0x5918 JUMP JUMPDEST PUSH2 0x5B22 DUP3 DUP3 DUP6 PUSH2 0x5A5E JUMP JUMPDEST PUSH1 0x0 PUSH1 0x20 SWAP1 POP PUSH1 0x1F DUP4 GT PUSH1 0x1 DUP2 EQ PUSH2 0x5B55 JUMPI PUSH1 0x0 DUP5 ISZERO PUSH2 0x5B43 JUMPI DUP3 DUP8 ADD MLOAD SWAP1 POP JUMPDEST PUSH2 0x5B4D DUP6 DUP3 PUSH2 0x5ACF JUMP JUMPDEST DUP7 SSTORE POP PUSH2 0x5BB5 JUMP JUMPDEST PUSH1 0x1F NOT DUP5 AND PUSH2 0x5B63 DUP7 PUSH2 0x5949 JUMP JUMPDEST PUSH1 0x0 JUMPDEST DUP3 DUP2 LT ISZERO PUSH2 0x5B8B JUMPI DUP5 DUP10 ADD MLOAD DUP3 SSTORE PUSH1 0x1 DUP3 ADD SWAP2 POP PUSH1 0x20 DUP6 ADD SWAP5 POP PUSH1 0x20 DUP2 ADD SWAP1 POP PUSH2 0x5B66 JUMP JUMPDEST DUP7 DUP4 LT ISZERO PUSH2 0x5BA8 JUMPI DUP5 DUP10 ADD MLOAD PUSH2 0x5BA4 PUSH1 0x1F DUP10 AND DUP3 PUSH2 0x5AB1 JUMP JUMPDEST DUP4 SSTORE POP JUMPDEST PUSH1 0x1 PUSH1 0x2 DUP9 MUL ADD DUP9 SSTORE POP POP POP JUMPDEST POP POP POP POP POP POP JUMP INVALID LOG2 PUSH5 0x6970667358 0x22 SLT KECCAK256 SMOD 0x29 PUSH3 0x9ABE0C GAS 0xCA 0x2F PUSH10 0x6AEE808B05A4D9BFA688 0xD0 0xB7 0xC5 0x5E 0xA5 SWAP8 0xA8 0xE8 0x4D DUP2 KECCAK256 PUSH1 0x64 PUSH20 0x6F6C634300081400330000000000000000000000 "
		},
		"gasEstimates": {
			"creation": {
				"codeDepositCost": "4707800",
				"executionCost": "infinite",
				"totalCost": "infinite"
			},
			"external": {
				"FEE_PERCENT()": "417",
				"TIMEOUT_DURATION()": "395",
				"addCollection(address)": "infinite",
				"addStakeToken(address,uint256)": "infinite",
				"approvedCollections(address)": "2955",
				"approvedStakeTokens(address)": "2956",
				"characterMerkleRoot()": "2541",
				"createGame(address,uint256,address[3],uint256[3],uint256[3],bytes32,string[3],uint256[5][3],bytes32[][3])": "infinite",
				"games(uint256)": "infinite",
				"joinGame(uint256,address[3],uint256[3],uint256[3],bytes32,string[3],uint256[5][3],bytes32[][3])": "infinite",
				"minStakePerToken(address)": "2860",
				"nextGameId()": "2473",
				"owner()": "2611",
				"removeStakeToken(address)": "infinite",
				"renounceOwnership()": "infinite",
				"reveal(uint256,uint256,uint256[3])": "infinite",
				"setCharacterMerkleRoot(bytes32)": "infinite",
				"setMinStake(address,uint256)": "infinite",
				"setTeamWallet(address)": "infinite",
				"settleGame(uint256)": "infinite",
				"teamWallet()": "2647",
				"transferOwnership(address)": "infinite"
			},
			"internal": {
				"getRoundResult(uint256[5] memory,uint256[5] memory)": "infinite",
				"validateRarity(string memory[3] memory)": "infinite",
				"verifyCharacter(uint256,uint256,bytes32[] memory)": "infinite"
			}
		},
		"methodIdentifiers": {
			"FEE_PERCENT()": "eaf98d23",
			"TIMEOUT_DURATION()": "eaf7ac9f",
			"addCollection(address)": "a174e77a",
			"addStakeToken(address,uint256)": "81f7d942",
			"approvedCollections(address)": "ec07fb74",
			"approvedStakeTokens(address)": "44bf95c6",
			"characterMerkleRoot()": "16489068",
			"createGame(address,uint256,address[3],uint256[3],uint256[3],bytes32,string[3],uint256[5][3],bytes32[][3])": "39e84bb0",
			"games(uint256)": "117a5b90",
			"joinGame(uint256,address[3],uint256[3],uint256[3],bytes32,string[3],uint256[5][3],bytes32[][3])": "9a342df0",
			"minStakePerToken(address)": "06b5fbe8",
			"nextGameId()": "b135bbb0",
			"owner()": "8da5cb5b",
			"removeStakeToken(address)": "166866c7",
			"renounceOwnership()": "715018a6",
			"reveal(uint256,uint256,uint256[3])": "66333422",
			"setCharacterMerkleRoot(bytes32)": "338d14b0",
			"setMinStake(address,uint256)": "060b89c5",
			"setTeamWallet(address)": "1525ff7d",
			"settleGame(uint256)": "312d7bbc",
			"teamWallet()": "59927044",
			"transferOwnership(address)": "f2fde38b"
		}
	},
	"abi": [
		{
			"inputs": [
				{
					"internalType": "address",
					"name": "_teamWallet",
					"type": "address"
				}
			],
			"stateMutability": "nonpayable",
			"type": "constructor"
		},
		{
			"inputs": [
				{
					"internalType": "address",
					"name": "owner",
					"type": "address"
				}
			],
			"name": "OwnableInvalidOwner",
			"type": "error"
		},
		{
			"inputs": [
				{
					"internalType": "address",
					"name": "account",
					"type": "address"
				}
			],
			"name": "OwnableUnauthorizedAccount",
			"type": "error"
		},
		{
			"anonymous": false,
			"inputs": [
				{
					"indexed": false,
					"internalType": "uint256",
					"name": "gameId",
					"type": "uint256"
				},
				{
					"indexed": false,
					"internalType": "address",
					"name": "player1",
					"type": "address"
				},
				{
					"indexed": false,
					"internalType": "address",
					"name": "stakeToken",
					"type": "address"
				},
				{
					"indexed": false,
					"internalType": "uint256",
					"name": "stakeAmount",
					"type": "uint256"
				}
			],
			"name": "GameCreated",
			"type": "event"
		},
		{
			"anonymous": false,
			"inputs": [
				{
					"indexed": false,
					"internalType": "uint256",
					"name": "gameId",
					"type": "uint256"
				},
				{
					"indexed": false,
					"internalType": "address",
					"name": "player2",
					"type": "address"
				}
			],
			"name": "GameJoined",
			"type": "event"
		},
		{
			"anonymous": false,
			"inputs": [
				{
					"indexed": false,
					"internalType": "uint256",
					"name": "gameId",
					"type": "uint256"
				},
				{
					"indexed": false,
					"internalType": "address",
					"name": "player",
					"type": "address"
				}
			],
			"name": "GameRevealed",
			"type": "event"
		},
		{
			"anonymous": false,
			"inputs": [
				{
					"indexed": false,
					"internalType": "uint256",
					"name": "gameId",
					"type": "uint256"
				},
				{
					"indexed": false,
					"internalType": "address",
					"name": "winner",
					"type": "address"
				},
				{
					"indexed": false,
					"internalType": "bool",
					"name": "isTie",
					"type": "bool"
				}
			],
			"name": "GameSettled",
			"type": "event"
		},
		{
			"anonymous": false,
			"inputs": [
				{
					"indexed": true,
					"internalType": "address",
					"name": "previousOwner",
					"type": "address"
				},
				{
					"indexed": true,
					"internalType": "address",
					"name": "newOwner",
					"type": "address"
				}
			],
			"name": "OwnershipTransferred",
			"type": "event"
		},
		{
			"inputs": [],
			"name": "FEE_PERCENT",
			"outputs": [
				{
					"internalType": "uint256",
					"name": "",
					"type": "uint256"
				}
			],
			"stateMutability": "view",
			"type": "function"
		},
		{
			"inputs": [],
			"name": "TIMEOUT_DURATION",
			"outputs": [
				{
					"internalType": "uint256",
					"name": "",
					"type": "uint256"
				}
			],
			"stateMutability": "view",
			"type": "function"
		},
		{
			"inputs": [
				{
					"internalType": "address",
					"name": "nftContract",
					"type": "address"
				}
			],
			"name": "addCollection",
			"outputs": [],
			"stateMutability": "nonpayable",
			"type": "function"
		},
		{
			"inputs": [
				{
					"internalType": "address",
					"name": "token",
					"type": "address"
				},
				{
					"internalType": "uint256",
					"name": "minStake",
					"type": "uint256"
				}
			],
			"name": "addStakeToken",
			"outputs": [],
			"stateMutability": "nonpayable",
			"type": "function"
		},
		{
			"inputs": [
				{
					"internalType": "address",
					"name": "",
					"type": "address"
				}
			],
			"name": "approvedCollections",
			"outputs": [
				{
					"internalType": "bool",
					"name": "",
					"type": "bool"
				}
			],
			"stateMutability": "view",
			"type": "function"
		},
		{
			"inputs": [
				{
					"internalType": "address",
					"name": "",
					"type": "address"
				}
			],
			"name": "approvedStakeTokens",
			"outputs": [
				{
					"internalType": "bool",
					"name": "",
					"type": "bool"
				}
			],
			"stateMutability": "view",
			"type": "function"
		},
		{
			"inputs": [],
			"name": "characterMerkleRoot",
			"outputs": [
				{
					"internalType": "bytes32",
					"name": "",
					"type": "bytes32"
				}
			],
			"stateMutability": "view",
			"type": "function"
		},
		{
			"inputs": [
				{
					"internalType": "address",
					"name": "stakeTokenAddr",
					"type": "address"
				},
				{
					"internalType": "uint256",
					"name": "stakeAmount",
					"type": "uint256"
				},
				{
					"internalType": "address[3]",
					"name": "collections",
					"type": "address[3]"
				},
				{
					"internalType": "uint256[3]",
					"name": "tokenIds",
					"type": "uint256[3]"
				},
				{
					"internalType": "uint256[3]",
					"name": "characterIds",
					"type": "uint256[3]"
				},
				{
					"internalType": "bytes32",
					"name": "commit",
					"type": "bytes32"
				},
				{
					"internalType": "string[3]",
					"name": "backgrounds",
					"type": "string[3]"
				},
				{
					"internalType": "uint256[5][3]",
					"name": "traits",
					"type": "uint256[5][3]"
				},
				{
					"internalType": "bytes32[][3]",
					"name": "proofs",
					"type": "bytes32[][3]"
				}
			],
			"name": "createGame",
			"outputs": [],
			"stateMutability": "nonpayable",
			"type": "function"
		},
		{
			"inputs": [
				{
					"internalType": "uint256",
					"name": "",
					"type": "uint256"
				}
			],
			"name": "games",
			"outputs": [
				{
					"internalType": "address",
					"name": "player1",
					"type": "address"
				},
				{
					"internalType": "bytes32",
					"name": "player1Commit",
					"type": "bytes32"
				},
				{
					"internalType": "bool",
					"name": "player1Revealed",
					"type": "bool"
				},
				{
					"internalType": "address",
					"name": "player2",
					"type": "address"
				},
				{
					"internalType": "bytes32",
					"name": "player2Commit",
					"type": "bytes32"
				},
				{
					"internalType": "bool",
					"name": "player2Revealed",
					"type": "bool"
				},
				{
					"internalType": "contract IERC20",
					"name": "stakeToken",
					"type": "address"
				},
				{
					"internalType": "uint256",
					"name": "stakeAmount",
					"type": "uint256"
				},
				{
					"internalType": "uint256",
					"name": "createTimestamp",
					"type": "uint256"
				},
				{
					"internalType": "uint256",
					"name": "joinTimestamp",
					"type": "uint256"
				},
				{
					"internalType": "bool",
					"name": "active",
					"type": "bool"
				}
			],
			"stateMutability": "view",
			"type": "function"
		},
		{
			"inputs": [
				{
					"internalType": "uint256",
					"name": "gameId",
					"type": "uint256"
				},
				{
					"internalType": "address[3]",
					"name": "collections",
					"type": "address[3]"
				},
				{
					"internalType": "uint256[3]",
					"name": "tokenIds",
					"type": "uint256[3]"
				},
				{
					"internalType": "uint256[3]",
					"name": "characterIds",
					"type": "uint256[3]"
				},
				{
					"internalType": "bytes32",
					"name": "commit",
					"type": "bytes32"
				},
				{
					"internalType": "string[3]",
					"name": "backgrounds",
					"type": "string[3]"
				},
				{
					"internalType": "uint256[5][3]",
					"name": "traits",
					"type": "uint256[5][3]"
				},
				{
					"internalType": "bytes32[][3]",
					"name": "proofs",
					"type": "bytes32[][3]"
				}
			],
			"name": "joinGame",
			"outputs": [],
			"stateMutability": "nonpayable",
			"type": "function"
		},
		{
			"inputs": [
				{
					"internalType": "address",
					"name": "",
					"type": "address"
				}
			],
			"name": "minStakePerToken",
			"outputs": [
				{
					"internalType": "uint256",
					"name": "",
					"type": "uint256"
				}
			],
			"stateMutability": "view",
			"type": "function"
		},
		{
			"inputs": [],
			"name": "nextGameId",
			"outputs": [
				{
					"internalType": "uint256",
					"name": "",
					"type": "uint256"
				}
			],
			"stateMutability": "view",
			"type": "function"
		},
		{
			"inputs": [],
			"name": "owner",
			"outputs": [
				{
					"internalType": "address",
					"name": "",
					"type": "address"
				}
			],
			"stateMutability": "view",
			"type": "function"
		},
		{
			"inputs": [
				{
					"internalType": "address",
					"name": "token",
					"type": "address"
				}
			],
			"name": "removeStakeToken",
			"outputs": [],
			"stateMutability": "nonpayable",
			"type": "function"
		},
		{
			"inputs": [],
			"name": "renounceOwnership",
			"outputs": [],
			"stateMutability": "nonpayable",
			"type": "function"
		},
		{
			"inputs": [
				{
					"internalType": "uint256",
					"name": "gameId",
					"type": "uint256"
				},
				{
					"internalType": "uint256",
					"name": "salt",
					"type": "uint256"
				},
				{
					"internalType": "uint256[3]",
					"name": "order",
					"type": "uint256[3]"
				}
			],
			"name": "reveal",
			"outputs": [],
			"stateMutability": "nonpayable",
			"type": "function"
		},
		{
			"inputs": [
				{
					"internalType": "bytes32",
					"name": "_root",
					"type": "bytes32"
				}
			],
			"name": "setCharacterMerkleRoot",
			"outputs": [],
			"stateMutability": "nonpayable",
			"type": "function"
		},
		{
			"inputs": [
				{
					"internalType": "address",
					"name": "token",
					"type": "address"
				},
				{
					"internalType": "uint256",
					"name": "minStake",
					"type": "uint256"
				}
			],
			"name": "setMinStake",
			"outputs": [],
			"stateMutability": "nonpayable",
			"type": "function"
		},
		{
			"inputs": [
				{
					"internalType": "address",
					"name": "_teamWallet",
					"type": "address"
				}
			],
			"name": "setTeamWallet",
			"outputs": [],
			"stateMutability": "nonpayable",
			"type": "function"
		},
		{
			"inputs": [
				{
					"internalType": "uint256",
					"name": "gameId",
					"type": "uint256"
				}
			],
			"name": "settleGame",
			"outputs": [],
			"stateMutability": "nonpayable",
			"type": "function"
		},
		{
			"inputs": [],
			"name": "teamWallet",
			"outputs": [
				{
					"internalType": "address",
					"name": "",
					"type": "address"
				}
			],
			"stateMutability": "view",
			"type": "function"
		},
		{
			"inputs": [
				{
					"internalType": "address",
					"name": "newOwner",
					"type": "address"
				}
			],
			"name": "transferOwnership",
			"outputs": [],
			"stateMutability": "nonpayable",
			"type": "function"
		}
	]
}