{
	"data": {
		"bytecode": {
			"linkReferences": {},
			"object": "60806040523480156200001157600080fd5b5060405162005f1138038062005f118339818101604052810190620000379190620002da565b33600073ffffffffffffffffffffffffffffffffffffffff168173ffffffffffffffffffffffffffffffffffffffff1603620000ad5760006040517f1e4fbdf7000000000000000000000000000000000000000000000000000000008152600401620000a491906200031d565b60405180910390fd5b620000be81620001ac60201b60201c565b5080600560006101000a81548173ffffffffffffffffffffffffffffffffffffffff021916908373ffffffffffffffffffffffffffffffffffffffff16021790555060016003604051620001129062000395565b908152602001604051809103902060006101000a81548160ff021916908315150217905550600160036040516200014990620003fc565b908152602001604051809103902060006101000a81548160ff02191690831515021790555060016003604051620001809062000463565b908152602001604051809103902060006101000a81548160ff021916908315150217905550506200047a565b60008060009054906101000a900473ffffffffffffffffffffffffffffffffffffffff169050816000806101000a81548173ffffffffffffffffffffffffffffffffffffffff021916908373ffffffffffffffffffffffffffffffffffffffff1602179055508173ffffffffffffffffffffffffffffffffffffffff168173ffffffffffffffffffffffffffffffffffffffff167f8be0079c531659141344cd1fd0a4f28419497f9722a3daafe3b4186f6b6457e060405160405180910390a35050565b600080fd5b600073ffffffffffffffffffffffffffffffffffffffff82169050919050565b6000620002a28262000275565b9050919050565b620002b48162000295565b8114620002c057600080fd5b50565b600081519050620002d481620002a9565b92915050565b600060208284031215620002f357620002f262000270565b5b60006200030384828501620002c3565b91505092915050565b620003178162000295565b82525050565b60006020820190506200033460008301846200030c565b92915050565b600081905092915050565b7f476f6c6400000000000000000000000000000000000000000000000000000000600082015250565b60006200037d6004836200033a565b91506200038a8262000345565b600482019050919050565b6000620003a2826200036e565b9150819050919050565b7f53696c7665720000000000000000000000000000000000000000000000000000600082015250565b6000620003e46006836200033a565b9150620003f182620003ac565b600682019050919050565b60006200040982620003d5565b9150819050919050565b7f56657264616e7420477265656e00000000000000000000000000000000000000600082015250565b60006200044b600d836200033a565b9150620004588262000413565b600d82019050919050565b600062000470826200043c565b9150819050919050565b615a87806200048a6000396000f3fe608060405234801561001057600080fd5b506004361061014d5760003560e01c8063715018a6116100c3578063b135bbb01161007c578063b135bbb01461038e578063b43a5098146103ac578063eaf7ac9f146103c8578063eaf98d23146103e6578063ec07fb7414610404578063f2fde38b146104345761014d565b8063715018a6146102f65780637d761f7a1461030057806381f7d9421461031c5780638da5cb5b14610338578063a174e77a14610356578063ad59951d146103725761014d565b80632d54cafe116101155780632d54cafe14610210578063312d7bbc1461024057806344bf95c61461025c5780634e714ac31461028c57806359927044146102bc57806366333422146102da5761014d565b8063060b89c51461015257806306b5fbe81461016e578063117a5b901461019e5780631525ff7d146101d8578063166866c7146101f4575b600080fd5b61016c6004803603810190610167919061452d565b610450565b005b6101886004803603810190610183919061456d565b610565565b60405161019591906145a9565b60405180910390f35b6101b860048036038101906101b391906145c4565b61057d565b6040516101cf9b9a99989796959493929190614693565b60405180910390f35b6101f260048036038101906101ed919061456d565b61065e565b005b61020e6004803603810190610209919061456d565b6106aa565b005b61022a6004803603810190610225919061473e565b610813565b60405161023791906145a9565b60405180910390f35b61025a600480360381019061025591906145c4565b610fdd565b005b6102766004803603810190610271919061456d565b612167565b604051610283919061477e565b60405180910390f35b6102a660048036038101906102a191906148df565b612187565b6040516102b3919061477e565b60405180910390f35b6102c46121bd565b6040516102d19190614928565b60405180910390f35b6102f460048036038101906102ef91906149f9565b6121e3565b005b6102fe612640565b005b61031a60048036038101906103159190614b29565b612654565b005b6103366004803603810190610331919061452d565b612c9d565b005b610340612ded565b60405161034d9190614928565b60405180910390f35b610370600480360381019061036b919061456d565b612e16565b005b61038c60048036038101906103879190614b91565b612eaf565b005b61039661389d565b6040516103a391906145a9565b60405180910390f35b6103c660048036038101906103c191906148df565b6138a3565b005b6103d061391c565b6040516103dd91906145a9565b60405180910390f35b6103ee613923565b6040516103fb91906145a9565b60405180910390f35b61041e6004803603810190610419919061456d565b613928565b60405161042b919061477e565b60405180910390f35b61044e6004803603810190610449919061456d565b613948565b005b6104586139ce565b600260008373ffffffffffffffffffffffffffffffffffffffff1673ffffffffffffffffffffffffffffffffffffffff16815260200190815260200160002060009054906101000a900460ff166104e4576040517f08c379a00000000000000000000000000000000000000000000000000000000081526004016104db90614c6b565b60405180910390fd5b80600460008473ffffffffffffffffffffffffffffffffffffffff1673ffffffffffffffffffffffffffffffffffffffff168152602001908152602001600020819055507fe8714ba99b4a6efbde0c674bdbec2836ccfe51b4ded655734fbe67d66bd7c4c28282604051610559929190614c8b565b60405180910390a15050565b60046020528060005260406000206000915090505481565b60066020528060005260406000206000915090508060000160009054906101000a900473ffffffffffffffffffffffffffffffffffffffff169080600701549080600b0160009054906101000a900460ff169080600b0160019054906101000a900473ffffffffffffffffffffffffffffffffffffffff16908060120154908060160160009054906101000a900460ff16908060160160019054906101000a900473ffffffffffffffffffffffffffffffffffffffff169080601701549080601801549080601901549080601a0160009054906101000a900460ff1690508b565b6106666139ce565b80600560006101000a81548173ffffffffffffffffffffffffffffffffffffffff021916908373ffffffffffffffffffffffffffffffffffffffff16021790555050565b6106b26139ce565b600260008273ffffffffffffffffffffffffffffffffffffffff1673ffffffffffffffffffffffffffffffffffffffff16815260200190815260200160002060009054906101000a900460ff1661073e576040517f08c379a000000000000000000000000000000000000000000000000000000000815260040161073590614c6b565b60405180910390fd5b6000600260008373ffffffffffffffffffffffffffffffffffffffff1673ffffffffffffffffffffffffffffffffffffffff16815260200190815260200160002060006101000a81548160ff021916908315150217905550600460008273ffffffffffffffffffffffffffffffffffffffff1673ffffffffffffffffffffffffffffffffffffffff168152602001908152602001600020600090557f7a502fffac50f2a838c955044dec68b272641742a68617abe16e4982aac37975816040516108089190614928565b60405180910390a150565b60006007548310610859576040517f08c379a000000000000000000000000000000000000000000000000000000000815260040161085090614d00565b60405180910390fd5b6000600754838561086a9190614d4f565b1161088057828461087b9190614d4f565b610884565b6007545b90506000915060008490505b81811015610fd557600060066000838152602001908152602001600020905080601a0160009054906101000a900460ff166108cb5750610fc2565b600081601701549050600073ffffffffffffffffffffffffffffffffffffffff1682600b0160019054906101000a900473ffffffffffffffffffffffffffffffffffffffff1673ffffffffffffffffffffffffffffffffffffffff16148015610946575062093a8082601801546109429190614d4f565b4210155b15610b82578160160160019054906101000a900473ffffffffffffffffffffffffffffffffffffffff1673ffffffffffffffffffffffffffffffffffffffff1663a9059cbb8360000160009054906101000a900473ffffffffffffffffffffffffffffffffffffffff16836040518363ffffffff1660e01b81526004016109ce929190614c8b565b6020604051808303816000875af11580156109ed573d6000803e3d6000fd5b505050506040513d601f19601f82011682018060405250810190610a119190614daf565b5060005b6003811015610b1257826001018160038110610a3457610a33614ddc565b5b0160009054906101000a900473ffffffffffffffffffffffffffffffffffffffff1673ffffffffffffffffffffffffffffffffffffffff166323b872dd308560000160009054906101000a900473ffffffffffffffffffffffffffffffffffffffff16866004018560038110610aad57610aac614ddc565b5b01546040518463ffffffff1660e01b8152600401610acd93929190614e0b565b600060405180830381600087803b158015610ae757600080fd5b505af1158015610afb573d6000803e3d6000fd5b505050508080610b0a90614e42565b915050610a15565b50600082601a0160006101000a81548160ff0219169083151502179055507f70513431fe7f36611e21ff99aa229c501699d89165596d29c077697d177422d48360006001604051610b6593929190614e8a565b60405180910390a18480610b7890614e42565b9550505050610fc2565b60008260190154118015610ba8575062093a808260190154610ba49190614d4f565b4210155b15610fbf5781600b0160009054906101000a900460ff161580610bda57508160160160009054906101000a900460ff16155b15610fbe578160160160019054906101000a900473ffffffffffffffffffffffffffffffffffffffff1673ffffffffffffffffffffffffffffffffffffffff1663a9059cbb8360000160009054906101000a900473ffffffffffffffffffffffffffffffffffffffff16836040518363ffffffff1660e01b8152600401610c62929190614c8b565b6020604051808303816000875af1158015610c81573d6000803e3d6000fd5b505050506040513d601f19601f82011682018060405250810190610ca59190614daf565b508160160160019054906101000a900473ffffffffffffffffffffffffffffffffffffffff1673ffffffffffffffffffffffffffffffffffffffff1663a9059cbb83600b0160019054906101000a900473ffffffffffffffffffffffffffffffffffffffff16836040518363ffffffff1660e01b8152600401610d29929190614c8b565b6020604051808303816000875af1158015610d48573d6000803e3d6000fd5b505050506040513d601f19601f82011682018060405250810190610d6c9190614daf565b5060005b6003811015610f4e57826001018160038110610d8f57610d8e614ddc565b5b0160009054906101000a900473ffffffffffffffffffffffffffffffffffffffff1673ffffffffffffffffffffffffffffffffffffffff166323b872dd308560000160009054906101000a900473ffffffffffffffffffffffffffffffffffffffff16866004018560038110610e0857610e07614ddc565b5b01546040518463ffffffff1660e01b8152600401610e2893929190614e0b565b600060405180830381600087803b158015610e4257600080fd5b505af1158015610e56573d6000803e3d6000fd5b5050505082600c018160038110610e7057610e6f614ddc565b5b0160009054906101000a900473ffffffffffffffffffffffffffffffffffffffff1673ffffffffffffffffffffffffffffffffffffffff166323b872dd3085600b0160019054906101000a900473ffffffffffffffffffffffffffffffffffffffff1686600f018560038110610ee957610ee8614ddc565b5b01546040518463ffffffff1660e01b8152600401610f0993929190614e0b565b600060405180830381600087803b158015610f2357600080fd5b505af1158015610f37573d6000803e3d6000fd5b505050508080610f4690614e42565b915050610d70565b50600082601a0160006101000a81548160ff0219169083151502179055507f70513431fe7f36611e21ff99aa229c501699d89165596d29c077697d177422d48360006001604051610fa193929190614e8a565b60405180910390a18480610fb490614e42565b9550505050610fc2565b5b50505b8080610fcd90614e42565b915050610890565b505092915050565b600060066000838152602001908152602001600020905080601a0160009054906101000a900460ff16611045576040517f08c379a000000000000000000000000000000000000000000000000000000000815260040161103c90614f0d565b60405180910390fd5b600081601701549050600073ffffffffffffffffffffffffffffffffffffffff1682600b0160019054906101000a900473ffffffffffffffffffffffffffffffffffffffff1673ffffffffffffffffffffffffffffffffffffffff161480156110c0575062093a8082601801546110bc9190614d4f565b4210155b156112ee578160160160019054906101000a900473ffffffffffffffffffffffffffffffffffffffff1673ffffffffffffffffffffffffffffffffffffffff1663a9059cbb8360000160009054906101000a900473ffffffffffffffffffffffffffffffffffffffff16836040518363ffffffff1660e01b8152600401611148929190614c8b565b6020604051808303816000875af1158015611167573d6000803e3d6000fd5b505050506040513d601f19601f8201168201806040525081019061118b9190614daf565b5060005b600381101561128c578260010181600381106111ae576111ad614ddc565b5b0160009054906101000a900473ffffffffffffffffffffffffffffffffffffffff1673ffffffffffffffffffffffffffffffffffffffff166323b872dd308560000160009054906101000a900473ffffffffffffffffffffffffffffffffffffffff1686600401856003811061122757611226614ddc565b5b01546040518463ffffffff1660e01b815260040161124793929190614e0b565b600060405180830381600087803b15801561126157600080fd5b505af1158015611275573d6000803e3d6000fd5b50505050808061128490614e42565b91505061118f565b50600082601a0160006101000a81548160ff0219169083151502179055507f70513431fe7f36611e21ff99aa229c501699d89165596d29c077697d177422d483600060016040516112df93929190614e8a565b60405180910390a15050612164565b60008260190154118015611314575062093a8082601901546113109190614d4f565b4210155b1561171d5781600b0160009054906101000a900460ff16158061134657508160160160009054906101000a900460ff16155b1561171c578160160160019054906101000a900473ffffffffffffffffffffffffffffffffffffffff1673ffffffffffffffffffffffffffffffffffffffff1663a9059cbb8360000160009054906101000a900473ffffffffffffffffffffffffffffffffffffffff16836040518363ffffffff1660e01b81526004016113ce929190614c8b565b6020604051808303816000875af11580156113ed573d6000803e3d6000fd5b505050506040513d601f19601f820116820180604052508101906114119190614daf565b508160160160019054906101000a900473ffffffffffffffffffffffffffffffffffffffff1673ffffffffffffffffffffffffffffffffffffffff1663a9059cbb83600b0160019054906101000a900473ffffffffffffffffffffffffffffffffffffffff16836040518363ffffffff1660e01b8152600401611495929190614c8b565b6020604051808303816000875af11580156114b4573d6000803e3d6000fd5b505050506040513d601f19601f820116820180604052508101906114d89190614daf565b5060005b60038110156116ba578260010181600381106114fb576114fa614ddc565b5b0160009054906101000a900473ffffffffffffffffffffffffffffffffffffffff1673ffffffffffffffffffffffffffffffffffffffff166323b872dd308560000160009054906101000a900473ffffffffffffffffffffffffffffffffffffffff1686600401856003811061157457611573614ddc565b5b01546040518463ffffffff1660e01b815260040161159493929190614e0b565b600060405180830381600087803b1580156115ae57600080fd5b505af11580156115c2573d6000803e3d6000fd5b5050505082600c0181600381106115dc576115db614ddc565b5b0160009054906101000a900473ffffffffffffffffffffffffffffffffffffffff1673ffffffffffffffffffffffffffffffffffffffff166323b872dd3085600b0160019054906101000a900473ffffffffffffffffffffffffffffffffffffffff1686600f01856003811061165557611654614ddc565b5b01546040518463ffffffff1660e01b815260040161167593929190614e0b565b600060405180830381600087803b15801561168f57600080fd5b505af11580156116a3573d6000803e3d6000fd5b5050505080806116b290614e42565b9150506114dc565b50600082601a0160006101000a81548160ff0219169083151502179055507f70513431fe7f36611e21ff99aa229c501699d89165596d29c077697d177422d4836000600160405161170d93929190614e8a565b60405180910390a15050612164565b5b81600b0160009054906101000a900460ff16801561174957508160160160009054906101000a900460ff165b611788576040517f08c379a000000000000000000000000000000000000000000000000000000000815260040161177f90614f79565b60405180910390fd5b6000806000805b600381101561190e5760008660080182600381106117b0576117af614ddc565b5b0154905060008760010182600381106117cc576117cb614ddc565b5b0160009054906101000a900473ffffffffffffffffffffffffffffffffffffffff169050600088600401836003811061180857611807614ddc565b5b01549050600089601301856003811061182457611823614ddc565b5b0154905060008a600c0182600381106118405761183f614ddc565b5b0160009054906101000a900473ffffffffffffffffffffffffffffffffffffffff16905060008b600f01836003811061187c5761187b614ddc565b5b01549050600061188e86868585613a55565b9050806020015160ff16816000015160ff1611156118b9578a806118b190614e42565b9b50506118df565b806000015160ff16816020015160ff1611156118de5789806118da90614e42565b9a50505b5b806040015160010b896118f29190614fa3565b985050505050505050808061190690614e42565b91505061178f565b50600060028561191e9190614fe7565b9050600060646002836119319190614fe7565b61193b9190615058565b90506000818361194b9190615089565b90508760160160019054906101000a900473ffffffffffffffffffffffffffffffffffffffff1673ffffffffffffffffffffffffffffffffffffffff1663a9059cbb600560009054906101000a900473ffffffffffffffffffffffffffffffffffffffff16846040518363ffffffff1660e01b81526004016119ce929190614c8b565b6020604051808303816000875af11580156119ed573d6000803e3d6000fd5b505050506040513d601f19601f82011682018060405250810190611a119190614daf565b506000806000905086881115611af0578960000160009054906101000a900473ffffffffffffffffffffffffffffffffffffffff1691508960160160019054906101000a900473ffffffffffffffffffffffffffffffffffffffff1673ffffffffffffffffffffffffffffffffffffffff1663a9059cbb83856040518363ffffffff1660e01b8152600401611aa7929190614c8b565b6020604051808303816000875af1158015611ac6573d6000803e3d6000fd5b505050506040513d601f19601f82011682018060405250810190611aea9190614daf565b50611f1f565b87871115611bc75789600b0160019054906101000a900473ffffffffffffffffffffffffffffffffffffffff1691508960160160019054906101000a900473ffffffffffffffffffffffffffffffffffffffff1673ffffffffffffffffffffffffffffffffffffffff1663a9059cbb83856040518363ffffffff1660e01b8152600401611b7e929190614c8b565b6020604051808303816000875af1158015611b9d573d6000803e3d6000fd5b505050506040513d601f19601f82011682018060405250810190611bc19190614daf565b50611f1e565b6000861315611c9f578960000160009054906101000a900473ffffffffffffffffffffffffffffffffffffffff1691508960160160019054906101000a900473ffffffffffffffffffffffffffffffffffffffff1673ffffffffffffffffffffffffffffffffffffffff1663a9059cbb83856040518363ffffffff1660e01b8152600401611c56929190614c8b565b6020604051808303816000875af1158015611c75573d6000803e3d6000fd5b505050506040513d601f19601f82011682018060405250810190611c999190614daf565b50611f1d565b6000861215611d775789600b0160019054906101000a900473ffffffffffffffffffffffffffffffffffffffff1691508960160160019054906101000a900473ffffffffffffffffffffffffffffffffffffffff1673ffffffffffffffffffffffffffffffffffffffff1663a9059cbb83856040518363ffffffff1660e01b8152600401611d2e929190614c8b565b6020604051808303816000875af1158015611d4d573d6000803e3d6000fd5b505050506040513d601f19601f82011682018060405250810190611d719190614daf565b50611f1c565b600190506000600284611d8a9190615058565b90508a60160160019054906101000a900473ffffffffffffffffffffffffffffffffffffffff1673ffffffffffffffffffffffffffffffffffffffff1663a9059cbb8c60000160009054906101000a900473ffffffffffffffffffffffffffffffffffffffff16836040518363ffffffff1660e01b8152600401611e0f929190614c8b565b6020604051808303816000875af1158015611e2e573d6000803e3d6000fd5b505050506040513d601f19601f82011682018060405250810190611e529190614daf565b508a60160160019054906101000a900473ffffffffffffffffffffffffffffffffffffffff1673ffffffffffffffffffffffffffffffffffffffff1663a9059cbb8c600b0160019054906101000a900473ffffffffffffffffffffffffffffffffffffffff16836040518363ffffffff1660e01b8152600401611ed6929190614c8b565b6020604051808303816000875af1158015611ef5573d6000803e3d6000fd5b505050506040513d601f19601f82011682018060405250810190611f199190614daf565b50505b5b5b5b60005b6003811015612100578a6001018160038110611f4157611f40614ddc565b5b0160009054906101000a900473ffffffffffffffffffffffffffffffffffffffff1673ffffffffffffffffffffffffffffffffffffffff166323b872dd308d60000160009054906101000a900473ffffffffffffffffffffffffffffffffffffffff168e6004018560038110611fba57611fb9614ddc565b5b01546040518463ffffffff1660e01b8152600401611fda93929190614e0b565b600060405180830381600087803b158015611ff457600080fd5b505af1158015612008573d6000803e3d6000fd5b505050508a600c01816003811061202257612021614ddc565b5b0160009054906101000a900473ffffffffffffffffffffffffffffffffffffffff1673ffffffffffffffffffffffffffffffffffffffff166323b872dd308d600b0160019054906101000a900473ffffffffffffffffffffffffffffffffffffffff168e600f01856003811061209b5761209a614ddc565b5b01546040518463ffffffff1660e01b81526004016120bb93929190614e0b565b600060405180830381600087803b1580156120d557600080fd5b505af11580156120e9573d6000803e3d6000fd5b5050505080806120f890614e42565b915050611f22565b5060008a601a0160006101000a81548160ff0219169083151502179055507f70513431fe7f36611e21ff99aa229c501699d89165596d29c077697d177422d48b838360405161215193929190614e8a565b60405180910390a1505050505050505050505b50565b60026020528060005260406000206000915054906101000a900460ff1681565b6003818051602081018201805184825260208301602085012081835280955050505050506000915054906101000a900460ff1681565b600560009054906101000a900473ffffffffffffffffffffffffffffffffffffffff1681565b600060066000858152602001908152602001600020905080601a0160009054906101000a900460ff1661224b576040517f08c379a000000000000000000000000000000000000000000000000000000000815260040161224290614f0d565b60405180910390fd5b60008160000160009054906101000a900473ffffffffffffffffffffffffffffffffffffffff1673ffffffffffffffffffffffffffffffffffffffff163373ffffffffffffffffffffffffffffffffffffffff16149050600082600b0160019054906101000a900473ffffffffffffffffffffffffffffffffffffffff1673ffffffffffffffffffffffffffffffffffffffff163373ffffffffffffffffffffffffffffffffffffffff1614905081806123025750805b612341576040517f08c379a000000000000000000000000000000000000000000000000000000000815260040161233890615109565b60405180910390fd5b600082612352578360120154612358565b83600701545b9050600083612378578460160160009054906101000a900460ff1661238b565b84600b0160009054906101000a900460ff165b905080156123ce576040517f08c379a00000000000000000000000000000000000000000000000000000000081526004016123c590615175565b60405180910390fd5b600087876000600381106123e5576123e4614ddc565b5b6020020151886001600381106123fe576123fd614ddc565b5b60200201518960026003811061241757612416614ddc565b5b602002015160405160200161242f94939291906151b6565b604051602081830303815290604052805190602001209050828114612489576040517f08c379a000000000000000000000000000000000000000000000000000000000815260040161248090615250565b60405180910390fd5b612491614338565b60005b600381101561258c5760008982600381106124b2576124b1614ddc565b5b60200201519050600381106124fc576040517f08c379a00000000000000000000000000000000000000000000000000000000081526004016124f3906152bc565b60405180910390fd5b82816003811061250f5761250e614ddc565b5b602002015115612554576040517f08c379a000000000000000000000000000000000000000000000000000000000815260040161254b90615328565b60405180910390fd5b600183826003811061256957612568614ddc565b5b60200201901515908115158152505050808061258490614e42565b915050612494565b5085156125c95787876008019060036125a692919061435a565b50600187600b0160006101000a81548160ff0219169083151502179055506125fb565b87876013019060036125dc92919061435a565b5060018760160160006101000a81548160ff0219169083151502179055505b7fca89dc79ca69ffb087e833ce20114ee29dc90b746538266055b11d9b008efe188a3360405161262c929190615348565b60405180910390a150505050505050505050565b6126486139ce565b6126526000614056565b565b600060066000868152602001908152602001600020905080601a0160009054906101000a900460ff166126bc576040517f08c379a00000000000000000000000000000000000000000000000000000000081526004016126b390614f0d565b60405180910390fd5b600073ffffffffffffffffffffffffffffffffffffffff1681600b0160019054906101000a900473ffffffffffffffffffffffffffffffffffffffff1673ffffffffffffffffffffffffffffffffffffffff161461274f576040517f08c379a0000000000000000000000000000000000000000000000000000000008152600401612746906153bd565b60405180910390fd5b6000801b8203612794576040517f08c379a000000000000000000000000000000000000000000000000000000000815260040161278b90615429565b60405180910390fd5b60005b6003811015612a6f57600160008683600381106127b7576127b6614ddc565b5b602002015173ffffffffffffffffffffffffffffffffffffffff1673ffffffffffffffffffffffffffffffffffffffff16815260200190815260200160002060009054906101000a900460ff16612843576040517f08c379a000000000000000000000000000000000000000000000000000000000815260040161283a90615495565b60405180910390fd5b600085826003811061285857612857614ddc565b5b602002015190503373ffffffffffffffffffffffffffffffffffffffff168173ffffffffffffffffffffffffffffffffffffffff16636352211e8785600381106128a5576128a4614ddc565b5b60200201516040518263ffffffff1660e01b81526004016128c691906145a9565b602060405180830381865afa1580156128e3573d6000803e3d6000fd5b505050506040513d601f19601f8201168201806040525081019061290791906154ca565b73ffffffffffffffffffffffffffffffffffffffff161461295d576040517f08c379a000000000000000000000000000000000000000000000000000000000815260040161295490615543565b60405180910390fd5b3073ffffffffffffffffffffffffffffffffffffffff168173ffffffffffffffffffffffffffffffffffffffff1663081812fc8785600381106129a3576129a2614ddc565b5b60200201516040518263ffffffff1660e01b81526004016129c491906145a9565b602060405180830381865afa1580156129e1573d6000803e3d6000fd5b505050506040513d601f19601f82011682018060405250810190612a0591906154ca565b73ffffffffffffffffffffffffffffffffffffffff1614612a5b576040517f08c379a0000000000000000000000000000000000000000000000000000000008152600401612a52906155af565b60405180910390fd5b508080612a6790614e42565b915050612797565b50612a7a848461411a565b60005b6003811015612b3657848160038110612a9957612a98614ddc565b5b602002015173ffffffffffffffffffffffffffffffffffffffff166323b872dd3330878560038110612ace57612acd614ddc565b5b60200201516040518463ffffffff1660e01b8152600401612af193929190614e0b565b600060405180830381600087803b158015612b0b57600080fd5b505af1158015612b1f573d6000803e3d6000fd5b505050508080612b2e90614e42565b915050612a7d565b508060160160019054906101000a900473ffffffffffffffffffffffffffffffffffffffff1673ffffffffffffffffffffffffffffffffffffffff166323b872dd333084601701546040518463ffffffff1660e01b8152600401612b9c93929190614e0b565b6020604051808303816000875af1158015612bbb573d6000803e3d6000fd5b505050506040513d601f19601f82011682018060405250810190612bdf9190614daf565b503381600b0160016101000a81548173ffffffffffffffffffffffffffffffffffffffff021916908373ffffffffffffffffffffffffffffffffffffffff1602179055508381600c01906003612c3692919061439a565b508281600f01906003612c4a92919061435a565b508181601201819055504281601901819055507f45c4f9cbafe186141862608c493f28b823fde4c2142bedc3f5169961a73fdd228533604051612c8e929190615348565b60405180910390a15050505050565b612ca56139ce565b600073ffffffffffffffffffffffffffffffffffffffff168273ffffffffffffffffffffffffffffffffffffffff1603612d14576040517f08c379a0000000000000000000000000000000000000000000000000000000008152600401612d0b9061561b565b60405180910390fd5b6001600260008473ffffffffffffffffffffffffffffffffffffffff1673ffffffffffffffffffffffffffffffffffffffff16815260200190815260200160002060006101000a81548160ff02191690831515021790555080600460008473ffffffffffffffffffffffffffffffffffffffff1673ffffffffffffffffffffffffffffffffffffffff168152602001908152602001600020819055507f0c9655a80db9d34e23dd9d483cb2b684e4761154a66f935d9b42c174892dd3258282604051612de1929190614c8b565b60405180910390a15050565b60008060009054906101000a900473ffffffffffffffffffffffffffffffffffffffff16905090565b612e1e6139ce565b60018060008373ffffffffffffffffffffffffffffffffffffffff1673ffffffffffffffffffffffffffffffffffffffff16815260200190815260200160002060006101000a81548160ff0219169083151502179055507f7701426aaa4c0c88a30924a7aba88dce66b18c4020b54e4e19c9e0eb0abc299281604051612ea49190614928565b60405180910390a150565b60008411612ef2576040517f08c379a0000000000000000000000000000000000000000000000000000000008152600401612ee990615687565b60405180910390fd5b600460008673ffffffffffffffffffffffffffffffffffffffff1673ffffffffffffffffffffffffffffffffffffffff16815260200190815260200160002054841015612f74576040517f08c379a0000000000000000000000000000000000000000000000000000000008152600401612f6b906156f3565b60405180910390fd5b600260008673ffffffffffffffffffffffffffffffffffffffff1673ffffffffffffffffffffffffffffffffffffffff16815260200190815260200160002060009054906101000a900460ff16613000576040517f08c379a0000000000000000000000000000000000000000000000000000000008152600401612ff79061575f565b60405180910390fd5b60008590506000801b820361304a576040517f08c379a000000000000000000000000000000000000000000000000000000000815260040161304190615429565b60405180910390fd5b60005b6003811015613325576001600086836003811061306d5761306c614ddc565b5b602002015173ffffffffffffffffffffffffffffffffffffffff1673ffffffffffffffffffffffffffffffffffffffff16815260200190815260200160002060009054906101000a900460ff166130f9576040517f08c379a00000000000000000000000000000000000000000000000000000000081526004016130f090615495565b60405180910390fd5b600085826003811061310e5761310d614ddc565b5b602002015190503373ffffffffffffffffffffffffffffffffffffffff168173ffffffffffffffffffffffffffffffffffffffff16636352211e87856003811061315b5761315a614ddc565b5b60200201516040518263ffffffff1660e01b815260040161317c91906145a9565b602060405180830381865afa158015613199573d6000803e3d6000fd5b505050506040513d601f19601f820116820180604052508101906131bd91906154ca565b73ffffffffffffffffffffffffffffffffffffffff1614613213576040517f08c379a000000000000000000000000000000000000000000000000000000000815260040161320a90615543565b60405180910390fd5b3073ffffffffffffffffffffffffffffffffffffffff168173ffffffffffffffffffffffffffffffffffffffff1663081812fc87856003811061325957613258614ddc565b5b60200201516040518263ffffffff1660e01b815260040161327a91906145a9565b602060405180830381865afa158015613297573d6000803e3d6000fd5b505050506040513d601f19601f820116820180604052508101906132bb91906154ca565b73ffffffffffffffffffffffffffffffffffffffff1614613311576040517f08c379a0000000000000000000000000000000000000000000000000000000008152600401613308906155af565b60405180910390fd5b50808061331d90614e42565b91505061304d565b50613330848461411a565b60005b60038110156133ec5784816003811061334f5761334e614ddc565b5b602002015173ffffffffffffffffffffffffffffffffffffffff166323b872dd333087856003811061338457613383614ddc565b5b60200201516040518463ffffffff1660e01b81526004016133a793929190614e0b565b600060405180830381600087803b1580156133c157600080fd5b505af11580156133d5573d6000803e3d6000fd5b5050505080806133e490614e42565b915050613333565b508073ffffffffffffffffffffffffffffffffffffffff166323b872dd3330886040518463ffffffff1660e01b815260040161342a93929190614e0b565b6020604051808303816000875af1158015613449573d6000803e3d6000fd5b505050506040513d601f19601f8201168201806040525081019061346d9190614daf565b5060006007600081548092919061348390614e42565b9190505590506040518061022001604052803373ffffffffffffffffffffffffffffffffffffffff1681526020018681526020018581526020018481526020016040518060600160405280600081526020016000815260200160008152508152602001600015158152602001600073ffffffffffffffffffffffffffffffffffffffff1681526020016040518060600160405280600073ffffffffffffffffffffffffffffffffffffffff1673ffffffffffffffffffffffffffffffffffffffff168152602001600073ffffffffffffffffffffffffffffffffffffffff1673ffffffffffffffffffffffffffffffffffffffff168152602001600073ffffffffffffffffffffffffffffffffffffffff1673ffffffffffffffffffffffffffffffffffffffff16815250815260200160405180606001604052806000815260200160008152602001600081525081526020016000801b815260200160405180606001604052806000815260200160008152602001600081525081526020016000151581526020018373ffffffffffffffffffffffffffffffffffffffff16815260200187815260200142815260200160008152602001600115158152506006600083815260200190815260200160002060008201518160000160006101000a81548173ffffffffffffffffffffffffffffffffffffffff021916908373ffffffffffffffffffffffffffffffffffffffff1602179055506020820151816001019060036136b292919061439a565b506040820151816004019060036136ca92919061435a565b50606082015181600701556080820151816008019060036136ec92919061435a565b5060a082015181600b0160006101000a81548160ff02191690831515021790555060c082015181600b0160016101000a81548173ffffffffffffffffffffffffffffffffffffffff021916908373ffffffffffffffffffffffffffffffffffffffff16021790555060e082015181600c0190600361376b92919061439a565b5061010082015181600f0190600361378492919061435a565b506101208201518160120155610140820151816013019060036137a892919061435a565b506101608201518160160160006101000a81548160ff0219169083151502179055506101808201518160160160016101000a81548173ffffffffffffffffffffffffffffffffffffffff021916908373ffffffffffffffffffffffffffffffffffffffff1602179055506101a082015181601701556101c082015181601801556101e0820151816019015561020082015181601a0160006101000a81548160ff0219169083151502179055509050507f6200407c0ea392b8107b21a9be480acd41fda186d04bed28cc7da2d4b53d56e28133898960405161388c949392919061577f565b60405180910390a150505050505050565b60075481565b6138ab6139ce565b60016003826040516138bd9190615835565b908152602001604051809103902060006101000a81548160ff0219169083151502179055507f8a241d3bf6deb30e6d35a55b4cf6074a0b298b83c3ee264a18c8cfc4feea471d816040516139119190615885565b60405180910390a150565b62093a8081565b600281565b60016020528060005260406000206000915054906101000a900460ff1681565b6139506139ce565b600073ffffffffffffffffffffffffffffffffffffffff168173ffffffffffffffffffffffffffffffffffffffff16036139c25760006040517f1e4fbdf70000000000000000000000000000000000000000000000000000000081526004016139b99190614928565b60405180910390fd5b6139cb81614056565b50565b6139d6614330565b73ffffffffffffffffffffffffffffffffffffffff166139f4612ded565b73ffffffffffffffffffffffffffffffffffffffff1614613a5357613a17614330565b6040517f118cdaa7000000000000000000000000000000000000000000000000000000008152600401613a4a9190614928565b60405180910390fd5b565b613a5d614417565b6000859050600084905060008273ffffffffffffffffffffffffffffffffffffffff16638bbee1f3886040518263ffffffff1660e01b8152600401613aa291906145a9565b602060405180830381865afa158015613abf573d6000803e3d6000fd5b505050506040513d601f19601f82011682018060405250810190613ae391906158bc565b8373ffffffffffffffffffffffffffffffffffffffff1663cff840f0896040518263ffffffff1660e01b8152600401613b1c91906145a9565b602060405180830381865afa158015613b39573d6000803e3d6000fd5b505050506040513d601f19601f82011682018060405250810190613b5d91906158bc565b613b679190614d4f565b905060008373ffffffffffffffffffffffffffffffffffffffff166369d1cc92896040518263ffffffff1660e01b8152600401613ba491906145a9565b602060405180830381865afa158015613bc1573d6000803e3d6000fd5b505050506040513d601f19601f82011682018060405250810190613be591906158bc565b8473ffffffffffffffffffffffffffffffffffffffff1663eb22daa38a6040518263ffffffff1660e01b8152600401613c1e91906145a9565b602060405180830381865afa158015613c3b573d6000803e3d6000fd5b505050506040513d601f19601f82011682018060405250810190613c5f91906158bc565b613c699190614d4f565b905060008473ffffffffffffffffffffffffffffffffffffffff1663252079b28a6040518263ffffffff1660e01b8152600401613ca691906145a9565b602060405180830381865afa158015613cc3573d6000803e3d6000fd5b505050506040513d601f19601f82011682018060405250810190613ce791906158bc565b905060008473ffffffffffffffffffffffffffffffffffffffff16638bbee1f3896040518263ffffffff1660e01b8152600401613d2491906145a9565b602060405180830381865afa158015613d41573d6000803e3d6000fd5b505050506040513d601f19601f82011682018060405250810190613d6591906158bc565b8573ffffffffffffffffffffffffffffffffffffffff1663cff840f08a6040518263ffffffff1660e01b8152600401613d9e91906145a9565b602060405180830381865afa158015613dbb573d6000803e3d6000fd5b505050506040513d601f19601f82011682018060405250810190613ddf91906158bc565b613de99190614d4f565b905060008573ffffffffffffffffffffffffffffffffffffffff166369d1cc928a6040518263ffffffff1660e01b8152600401613e2691906145a9565b602060405180830381865afa158015613e43573d6000803e3d6000fd5b505050506040513d601f19601f82011682018060405250810190613e6791906158bc565b8673ffffffffffffffffffffffffffffffffffffffff1663eb22daa38b6040518263ffffffff1660e01b8152600401613ea091906145a9565b602060405180830381865afa158015613ebd573d6000803e3d6000fd5b505050506040513d601f19601f82011682018060405250810190613ee191906158bc565b613eeb9190614d4f565b905060008673ffffffffffffffffffffffffffffffffffffffff1663252079b28b6040518263ffffffff1660e01b8152600401613f2891906145a9565b602060405180830381865afa158015613f45573d6000803e3d6000fd5b505050506040513d601f19601f82011682018060405250810190613f6991906158bc565b90506000858411613f7b576000613f88565b8584613f879190615089565b5b90506000818611613f9a576000613fa7565b8186613fa69190615089565b5b90506000848911613fb9576000613fc6565b8489613fc59190615089565b5b90506000818511613fd8576000613fe5565b8185613fe49190615089565b5b9050600080600083861115613ffd576001925061400b565b8584111561400a57600191505b5b838661401791906158e9565b905060405180606001604052808460ff1681526020018360ff1681526020018260010b8152509f50505050505050505050505050505050949350505050565b60008060009054906101000a900473ffffffffffffffffffffffffffffffffffffffff169050816000806101000a81548173ffffffffffffffffffffffffffffffffffffffff021916908373ffffffffffffffffffffffffffffffffffffffff1602179055508173ffffffffffffffffffffffffffffffffffffffff168173ffffffffffffffffffffffffffffffffffffffff167f8be0079c531659141344cd1fd0a4f28419497f9722a3daafe3b4186f6b6457e060405160405180910390a35050565b614122614441565b60005b60038110156142095783816003811061414157614140614ddc565b5b602002015173ffffffffffffffffffffffffffffffffffffffff1663e8d887d384836003811061417457614173614ddc565b5b60200201516040518263ffffffff1660e01b815260040161419591906145a9565b600060405180830381865afa1580156141b2573d6000803e3d6000fd5b505050506040513d6000823e3d601f19601f820116820180604052508101906141db919061599c565b8282600381106141ee576141ed614ddc565b5b6020020181905250808061420190614e42565b915050614125565b5060005b600381101561432a57600382826003811061422b5761422a614ddc565b5b602002015160405161423d9190615835565b908152602001604051809103902060009054906101000a900460ff1615614317576000805b60038110156142d05783836003811061427e5761427d614ddc565b5b60200201518051906020012084826003811061429d5761429c614ddc565b5b602002015180519060200120036142bd5781806142b990614e42565b9250505b80806142c890614e42565b915050614262565b506001811115614315576040517f08c379a000000000000000000000000000000000000000000000000000000000815260040161430c90615a31565b60405180910390fd5b505b808061432290614e42565b91505061420d565b50505050565b600033905090565b6040518060600160405280600390602082028036833780820191505090505090565b8260038101928215614389579160200282015b8281111561438857825182559160200191906001019061436d565b5b5090506143969190614468565b5090565b8260038101928215614406579160200282015b828111156144055782518260006101000a81548173ffffffffffffffffffffffffffffffffffffffff021916908373ffffffffffffffffffffffffffffffffffffffff160217905550916020019190600101906143ad565b5b5090506144139190614468565b5090565b6040518060600160405280600060ff168152602001600060ff168152602001600060010b81525090565b60405180606001604052806003905b60608152602001906001900390816144505790505090565b5b80821115614481576000816000905550600101614469565b5090565b6000604051905090565b600080fd5b600080fd5b600073ffffffffffffffffffffffffffffffffffffffff82169050919050565b60006144c482614499565b9050919050565b6144d4816144b9565b81146144df57600080fd5b50565b6000813590506144f1816144cb565b92915050565b6000819050919050565b61450a816144f7565b811461451557600080fd5b50565b60008135905061452781614501565b92915050565b600080604083850312156145445761454361448f565b5b6000614552858286016144e2565b925050602061456385828601614518565b9150509250929050565b6000602082840312156145835761458261448f565b5b6000614591848285016144e2565b91505092915050565b6145a3816144f7565b82525050565b60006020820190506145be600083018461459a565b92915050565b6000602082840312156145da576145d961448f565b5b60006145e884828501614518565b91505092915050565b6145fa816144b9565b82525050565b6000819050919050565b61461381614600565b82525050565b60008115159050919050565b61462e81614619565b82525050565b6000819050919050565b600061465961465461464f84614499565b614634565b614499565b9050919050565b600061466b8261463e565b9050919050565b600061467d82614660565b9050919050565b61468d81614672565b82525050565b6000610160820190506146a9600083018e6145f1565b6146b6602083018d61460a565b6146c3604083018c614625565b6146d0606083018b6145f1565b6146dd608083018a61460a565b6146ea60a0830189614625565b6146f760c0830188614684565b61470460e083018761459a565b61471261010083018661459a565b61472061012083018561459a565b61472e610140830184614625565b9c9b505050505050505050505050565b600080604083850312156147555761475461448f565b5b600061476385828601614518565b925050602061477485828601614518565b9150509250929050565b60006020820190506147936000830184614625565b92915050565b600080fd5b600080fd5b6000601f19601f8301169050919050565b7f4e487b7100000000000000000000000000000000000000000000000000000000600052604160045260246000fd5b6147ec826147a3565b810181811067ffffffffffffffff8211171561480b5761480a6147b4565b5b80604052505050565b600061481e614485565b905061482a82826147e3565b919050565b600067ffffffffffffffff82111561484a576148496147b4565b5b614853826147a3565b9050602081019050919050565b82818337600083830152505050565b600061488261487d8461482f565b614814565b90508281526020810184848401111561489e5761489d61479e565b5b6148a9848285614860565b509392505050565b600082601f8301126148c6576148c5614799565b5b81356148d684826020860161486f565b91505092915050565b6000602082840312156148f5576148f461448f565b5b600082013567ffffffffffffffff81111561491357614912614494565b5b61491f848285016148b1565b91505092915050565b600060208201905061493d60008301846145f1565b92915050565b600067ffffffffffffffff82111561495e5761495d6147b4565b5b602082029050919050565b600080fd5b600061498161497c84614943565b614814565b9050806020840283018581111561499b5761499a614969565b5b835b818110156149c457806149b08882614518565b84526020840193505060208101905061499d565b5050509392505050565b600082601f8301126149e3576149e2614799565b5b60036149f084828561496e565b91505092915050565b600080600060a08486031215614a1257614a1161448f565b5b6000614a2086828701614518565b9350506020614a3186828701614518565b9250506040614a42868287016149ce565b9150509250925092565b600067ffffffffffffffff821115614a6757614a666147b4565b5b602082029050919050565b6000614a85614a8084614a4c565b614814565b90508060208402830185811115614a9f57614a9e614969565b5b835b81811015614ac85780614ab488826144e2565b845260208401935050602081019050614aa1565b5050509392505050565b600082601f830112614ae757614ae6614799565b5b6003614af4848285614a72565b91505092915050565b614b0681614600565b8114614b1157600080fd5b50565b600081359050614b2381614afd565b92915050565b6000806000806101008587031215614b4457614b4361448f565b5b6000614b5287828801614518565b9450506020614b6387828801614ad2565b9350506080614b74878288016149ce565b92505060e0614b8587828801614b14565b91505092959194509250565b60008060008060006101208688031215614bae57614bad61448f565b5b6000614bbc888289016144e2565b9550506020614bcd88828901614518565b9450506040614bde88828901614ad2565b93505060a0614bef888289016149ce565b925050610100614c0188828901614b14565b9150509295509295909350565b600082825260208201905092915050565b7f546f6b656e206e6f7420617070726f7665640000000000000000000000000000600082015250565b6000614c55601283614c0e565b9150614c6082614c1f565b602082019050919050565b60006020820190508181036000830152614c8481614c48565b9050919050565b6000604082019050614ca060008301856145f1565b614cad602083018461459a565b9392505050565b7f537461727420494420746f6f2068696768000000000000000000000000000000600082015250565b6000614cea601183614c0e565b9150614cf582614cb4565b602082019050919050565b60006020820190508181036000830152614d1981614cdd565b9050919050565b7f4e487b7100000000000000000000000000000000000000000000000000000000600052601160045260246000fd5b6000614d5a826144f7565b9150614d65836144f7565b9250828201905080821115614d7d57614d7c614d20565b5b92915050565b614d8c81614619565b8114614d9757600080fd5b50565b600081519050614da981614d83565b92915050565b600060208284031215614dc557614dc461448f565b5b6000614dd384828501614d9a565b91505092915050565b7f4e487b7100000000000000000000000000000000000000000000000000000000600052603260045260246000fd5b6000606082019050614e2060008301866145f1565b614e2d60208301856145f1565b614e3a604083018461459a565b949350505050565b6000614e4d826144f7565b91507fffffffffffffffffffffffffffffffffffffffffffffffffffffffffffffffff8203614e7f57614e7e614d20565b5b600182019050919050565b6000606082019050614e9f600083018661459a565b614eac60208301856145f1565b614eb96040830184614625565b949350505050565b7f47616d65206e6f74206163746976650000000000000000000000000000000000600082015250565b6000614ef7600f83614c0e565b9150614f0282614ec1565b602082019050919050565b60006020820190508181036000830152614f2681614eea565b9050919050565b7f4e6f7420626f74682072657665616c6564000000000000000000000000000000600082015250565b6000614f63601183614c0e565b9150614f6e82614f2d565b602082019050919050565b60006020820190508181036000830152614f9281614f56565b9050919050565b6000819050919050565b6000614fae82614f99565b9150614fb983614f99565b925082820190508281121560008312168382126000841215161715614fe157614fe0614d20565b5b92915050565b6000614ff2826144f7565b9150614ffd836144f7565b925082820261500b816144f7565b9150828204841483151761502257615021614d20565b5b5092915050565b7f4e487b7100000000000000000000000000000000000000000000000000000000600052601260045260246000fd5b6000615063826144f7565b915061506e836144f7565b92508261507e5761507d615029565b5b828204905092915050565b6000615094826144f7565b915061509f836144f7565b92508282039050818111156150b7576150b6614d20565b5b92915050565b7f4e6f74206120706c617965720000000000000000000000000000000000000000600082015250565b60006150f3600c83614c0e565b91506150fe826150bd565b602082019050919050565b60006020820190508181036000830152615122816150e6565b9050919050565b7f416c72656164792072657665616c656400000000000000000000000000000000600082015250565b600061515f601083614c0e565b915061516a82615129565b602082019050919050565b6000602082019050818103600083015261518e81615152565b9050919050565b6000819050919050565b6151b06151ab826144f7565b615195565b82525050565b60006151c2828761519f565b6020820191506151d2828661519f565b6020820191506151e2828561519f565b6020820191506151f2828461519f565b60208201915081905095945050505050565b7f496e76616c69642072657665616c000000000000000000000000000000000000600082015250565b600061523a600e83614c0e565b915061524582615204565b602082019050919050565b600060208201905081810360008301526152698161522d565b9050919050565b7f496e646578206f7574206f662072616e67650000000000000000000000000000600082015250565b60006152a6601283614c0e565b91506152b182615270565b602082019050919050565b600060208201905081810360008301526152d581615299565b9050919050565b7f4475706c696361746520696e6465780000000000000000000000000000000000600082015250565b6000615312600f83614c0e565b915061531d826152dc565b602082019050919050565b6000602082019050818103600083015261534181615305565b9050919050565b600060408201905061535d600083018561459a565b61536a60208301846145f1565b9392505050565b7f47616d6520616c7265616479206a6f696e656400000000000000000000000000600082015250565b60006153a7601383614c0e565b91506153b282615371565b602082019050919050565b600060208201905081810360008301526153d68161539a565b9050919050565b7f496e76616c696420636f6d6d6974000000000000000000000000000000000000600082015250565b6000615413600e83614c0e565b915061541e826153dd565b602082019050919050565b6000602082019050818103600083015261544281615406565b9050919050565b7f436f6c6c656374696f6e206e6f7420617070726f766564000000000000000000600082015250565b600061547f601783614c0e565b915061548a82615449565b602082019050919050565b600060208201905081810360008301526154ae81615472565b9050919050565b6000815190506154c4816144cb565b92915050565b6000602082840312156154e0576154df61448f565b5b60006154ee848285016154b5565b91505092915050565b7f4e6f74206f776e65720000000000000000000000000000000000000000000000600082015250565b600061552d600983614c0e565b9150615538826154f7565b602082019050919050565b6000602082019050818103600083015261555c81615520565b9050919050565b7f4e6f7420617070726f7665640000000000000000000000000000000000000000600082015250565b6000615599600c83614c0e565b91506155a482615563565b602082019050919050565b600060208201905081810360008301526155c88161558c565b9050919050565b7f496e76616c696420746f6b656e00000000000000000000000000000000000000600082015250565b6000615605600d83614c0e565b9150615610826155cf565b602082019050919050565b60006020820190508181036000830152615634816155f8565b9050919050565b7f5374616b65206d75737420626520706f73697469766500000000000000000000600082015250565b6000615671601683614c0e565b915061567c8261563b565b602082019050919050565b600060208201905081810360008301526156a081615664565b9050919050565b7f5374616b652062656c6f7720746f6b656e206d696e696d756d00000000000000600082015250565b60006156dd601983614c0e565b91506156e8826156a7565b602082019050919050565b6000602082019050818103600083015261570c816156d0565b9050919050565b7f5374616b6520746f6b656e206e6f7420617070726f7665640000000000000000600082015250565b6000615749601883614c0e565b915061575482615713565b602082019050919050565b600060208201905081810360008301526157788161573c565b9050919050565b6000608082019050615794600083018761459a565b6157a160208301866145f1565b6157ae60408301856145f1565b6157bb606083018461459a565b95945050505050565b600081519050919050565b600081905092915050565b60005b838110156157f85780820151818401526020810190506157dd565b60008484015250505050565b600061580f826157c4565b61581981856157cf565b93506158298185602086016157da565b80840191505092915050565b60006158418284615804565b915081905092915050565b6000615857826157c4565b6158618185614c0e565b93506158718185602086016157da565b61587a816147a3565b840191505092915050565b6000602082019050818103600083015261589f818461584c565b905092915050565b6000815190506158b681614501565b92915050565b6000602082840312156158d2576158d161448f565b5b60006158e0848285016158a7565b91505092915050565b60006158f482614f99565b91506158ff83614f99565b925082820390508181126000841216828213600085121516171561592657615925614d20565b5b92915050565b600061593f61593a8461482f565b614814565b90508281526020810184848401111561595b5761595a61479e565b5b6159668482856157da565b509392505050565b600082601f83011261598357615982614799565b5b815161599384826020860161592c565b91505092915050565b6000602082840312156159b2576159b161448f565b5b600082015167ffffffffffffffff8111156159d0576159cf614494565b5b6159dc8482850161596e565b91505092915050565b7f546f6f206d616e79206f662073616d6520726172697479000000000000000000600082015250565b6000615a1b601783614c0e565b9150615a26826159e5565b602082019050919050565b60006020820190508181036000830152615a4a81615a0e565b905091905056fea2646970667358221220e5cdd9b6e06e8f5f820f0520d4d6ffc2d18b674a971bb964c79658eac33a293e64736f6c63430008140033",
			"opcodes": "PUSH1 0x80 PUSH1 0x40 MSTORE CALLVALUE DUP1 ISZERO PUSH3 0x11 JUMPI PUSH1 0x0 DUP1 REVERT JUMPDEST POP PUSH1 0x40 MLOAD PUSH3 0x5F11 CODESIZE SUB DUP1 PUSH3 0x5F11 DUP4 CODECOPY DUP2 DUP2 ADD PUSH1 0x40 MSTORE DUP2 ADD SWAP1 PUSH3 0x37 SWAP2 SWAP1 PUSH3 0x2DA JUMP JUMPDEST CALLER PUSH1 0x0 PUSH20 0xFFFFFFFFFFFFFFFFFFFFFFFFFFFFFFFFFFFFFFFF AND DUP2 PUSH20 0xFFFFFFFFFFFFFFFFFFFFFFFFFFFFFFFFFFFFFFFF AND SUB PUSH3 0xAD JUMPI PUSH1 0x0 PUSH1 0x40 MLOAD PUSH32 0x1E4FBDF700000000000000000000000000000000000000000000000000000000 DUP2 MSTORE PUSH1 0x4 ADD PUSH3 0xA4 SWAP2 SWAP1 PUSH3 0x31D JUMP JUMPDEST PUSH1 0x40 MLOAD DUP1 SWAP2 SUB SWAP1 REVERT JUMPDEST PUSH3 0xBE DUP2 PUSH3 0x1AC PUSH1 0x20 SHL PUSH1 0x20 SHR JUMP JUMPDEST POP DUP1 PUSH1 0x5 PUSH1 0x0 PUSH2 0x100 EXP DUP2 SLOAD DUP2 PUSH20 0xFFFFFFFFFFFFFFFFFFFFFFFFFFFFFFFFFFFFFFFF MUL NOT AND SWAP1 DUP4 PUSH20 0xFFFFFFFFFFFFFFFFFFFFFFFFFFFFFFFFFFFFFFFF AND MUL OR SWAP1 SSTORE POP PUSH1 0x1 PUSH1 0x3 PUSH1 0x40 MLOAD PUSH3 0x112 SWAP1 PUSH3 0x395 JUMP JUMPDEST SWAP1 DUP2 MSTORE PUSH1 0x20 ADD PUSH1 0x40 MLOAD DUP1 SWAP2 SUB SWAP1 KECCAK256 PUSH1 0x0 PUSH2 0x100 EXP DUP2 SLOAD DUP2 PUSH1 0xFF MUL NOT AND SWAP1 DUP4 ISZERO ISZERO MUL OR SWAP1 SSTORE POP PUSH1 0x1 PUSH1 0x3 PUSH1 0x40 MLOAD PUSH3 0x149 SWAP1 PUSH3 0x3FC JUMP JUMPDEST SWAP1 DUP2 MSTORE PUSH1 0x20 ADD PUSH1 0x40 MLOAD DUP1 SWAP2 SUB SWAP1 KECCAK256 PUSH1 0x0 PUSH2 0x100 EXP DUP2 SLOAD DUP2 PUSH1 0xFF MUL NOT AND SWAP1 DUP4 ISZERO ISZERO MUL OR SWAP1 SSTORE POP PUSH1 0x1 PUSH1 0x3 PUSH1 0x40 MLOAD PUSH3 0x180 SWAP1 PUSH3 0x463 JUMP JUMPDEST SWAP1 DUP2 MSTORE PUSH1 0x20 ADD PUSH1 0x40 MLOAD DUP1 SWAP2 SUB SWAP1 KECCAK256 PUSH1 0x0 PUSH2 0x100 EXP DUP2 SLOAD DUP2 PUSH1 0xFF MUL NOT AND SWAP1 DUP4 ISZERO ISZERO MUL OR SWAP1 SSTORE POP POP PUSH3 0x47A JUMP JUMPDEST PUSH1 0x0 DUP1 PUSH1 0x0 SWAP1 SLOAD SWAP1 PUSH2 0x100 EXP SWAP1 DIV PUSH20 0xFFFFFFFFFFFFFFFFFFFFFFFFFFFFFFFFFFFFFFFF AND SWAP1 POP DUP2 PUSH1 0x0 DUP1 PUSH2 0x100 EXP DUP2 SLOAD DUP2 PUSH20 0xFFFFFFFFFFFFFFFFFFFFFFFFFFFFFFFFFFFFFFFF MUL NOT AND SWAP1 DUP4 PUSH20 0xFFFFFFFFFFFFFFFFFFFFFFFFFFFFFFFFFFFFFFFF AND MUL OR SWAP1 SSTORE POP DUP2 PUSH20 0xFFFFFFFFFFFFFFFFFFFFFFFFFFFFFFFFFFFFFFFF AND DUP2 PUSH20 0xFFFFFFFFFFFFFFFFFFFFFFFFFFFFFFFFFFFFFFFF AND PUSH32 0x8BE0079C531659141344CD1FD0A4F28419497F9722A3DAAFE3B4186F6B6457E0 PUSH1 0x40 MLOAD PUSH1 0x40 MLOAD DUP1 SWAP2 SUB SWAP1 LOG3 POP POP JUMP JUMPDEST PUSH1 0x0 DUP1 REVERT JUMPDEST PUSH1 0x0 PUSH20 0xFFFFFFFFFFFFFFFFFFFFFFFFFFFFFFFFFFFFFFFF DUP3 AND SWAP1 POP SWAP2 SWAP1 POP JUMP JUMPDEST PUSH1 0x0 PUSH3 0x2A2 DUP3 PUSH3 0x275 JUMP JUMPDEST SWAP1 POP SWAP2 SWAP1 POP JUMP JUMPDEST PUSH3 0x2B4 DUP2 PUSH3 0x295 JUMP JUMPDEST DUP2 EQ PUSH3 0x2C0 JUMPI PUSH1 0x0 DUP1 REVERT JUMPDEST POP JUMP JUMPDEST PUSH1 0x0 DUP2 MLOAD SWAP1 POP PUSH3 0x2D4 DUP2 PUSH3 0x2A9 JUMP JUMPDEST SWAP3 SWAP2 POP POP JUMP JUMPDEST PUSH1 0x0 PUSH1 0x20 DUP3 DUP5 SUB SLT ISZERO PUSH3 0x2F3 JUMPI PUSH3 0x2F2 PUSH3 0x270 JUMP JUMPDEST JUMPDEST PUSH1 0x0 PUSH3 0x303 DUP5 DUP3 DUP6 ADD PUSH3 0x2C3 JUMP JUMPDEST SWAP2 POP POP SWAP3 SWAP2 POP POP JUMP JUMPDEST PUSH3 0x317 DUP2 PUSH3 0x295 JUMP JUMPDEST DUP3 MSTORE POP POP JUMP JUMPDEST PUSH1 0x0 PUSH1 0x20 DUP3 ADD SWAP1 POP PUSH3 0x334 PUSH1 0x0 DUP4 ADD DUP5 PUSH3 0x30C JUMP JUMPDEST SWAP3 SWAP2 POP POP JUMP JUMPDEST PUSH1 0x0 DUP2 SWAP1 POP SWAP3 SWAP2 POP POP JUMP JUMPDEST PUSH32 0x476F6C6400000000000000000000000000000000000000000000000000000000 PUSH1 0x0 DUP3 ADD MSTORE POP JUMP JUMPDEST PUSH1 0x0 PUSH3 0x37D PUSH1 0x4 DUP4 PUSH3 0x33A JUMP JUMPDEST SWAP2 POP PUSH3 0x38A DUP3 PUSH3 0x345 JUMP JUMPDEST PUSH1 0x4 DUP3 ADD SWAP1 POP SWAP2 SWAP1 POP JUMP JUMPDEST PUSH1 0x0 PUSH3 0x3A2 DUP3 PUSH3 0x36E JUMP JUMPDEST SWAP2 POP DUP2 SWAP1 POP SWAP2 SWAP1 POP JUMP JUMPDEST PUSH32 0x53696C7665720000000000000000000000000000000000000000000000000000 PUSH1 0x0 DUP3 ADD MSTORE POP JUMP JUMPDEST PUSH1 0x0 PUSH3 0x3E4 PUSH1 0x6 DUP4 PUSH3 0x33A JUMP JUMPDEST SWAP2 POP PUSH3 0x3F1 DUP3 PUSH3 0x3AC JUMP JUMPDEST PUSH1 0x6 DUP3 ADD SWAP1 POP SWAP2 SWAP1 POP JUMP JUMPDEST PUSH1 0x0 PUSH3 0x409 DUP3 PUSH3 0x3D5 JUMP JUMPDEST SWAP2 POP DUP2 SWAP1 POP SWAP2 SWAP1 POP JUMP JUMPDEST PUSH32 0x56657264616E7420477265656E00000000000000000000000000000000000000 PUSH1 0x0 DUP3 ADD MSTORE POP JUMP JUMPDEST PUSH1 0x0 PUSH3 0x44B PUSH1 0xD DUP4 PUSH3 0x33A JUMP JUMPDEST SWAP2 POP PUSH3 0x458 DUP3 PUSH3 0x413 JUMP JUMPDEST PUSH1 0xD DUP3 ADD SWAP1 POP SWAP2 SWAP1 POP JUMP JUMPDEST PUSH1 0x0 PUSH3 0x470 DUP3 PUSH3 0x43C JUMP JUMPDEST SWAP2 POP DUP2 SWAP1 POP SWAP2 SWAP1 POP JUMP JUMPDEST PUSH2 0x5A87 DUP1 PUSH3 0x48A PUSH1 0x0 CODECOPY PUSH1 0x0 RETURN INVALID PUSH1 0x80 PUSH1 0x40 MSTORE CALLVALUE DUP1 ISZERO PUSH2 0x10 JUMPI PUSH1 0x0 DUP1 REVERT JUMPDEST POP PUSH1 0x4 CALLDATASIZE LT PUSH2 0x14D JUMPI PUSH1 0x0 CALLDATALOAD PUSH1 0xE0 SHR DUP1 PUSH4 0x715018A6 GT PUSH2 0xC3 JUMPI DUP1 PUSH4 0xB135BBB0 GT PUSH2 0x7C JUMPI DUP1 PUSH4 0xB135BBB0 EQ PUSH2 0x38E JUMPI DUP1 PUSH4 0xB43A5098 EQ PUSH2 0x3AC JUMPI DUP1 PUSH4 0xEAF7AC9F EQ PUSH2 0x3C8 JUMPI DUP1 PUSH4 0xEAF98D23 EQ PUSH2 0x3E6 JUMPI DUP1 PUSH4 0xEC07FB74 EQ PUSH2 0x404 JUMPI DUP1 PUSH4 0xF2FDE38B EQ PUSH2 0x434 JUMPI PUSH2 0x14D JUMP JUMPDEST DUP1 PUSH4 0x715018A6 EQ PUSH2 0x2F6 JUMPI DUP1 PUSH4 0x7D761F7A EQ PUSH2 0x300 JUMPI DUP1 PUSH4 0x81F7D942 EQ PUSH2 0x31C JUMPI DUP1 PUSH4 0x8DA5CB5B EQ PUSH2 0x338 JUMPI DUP1 PUSH4 0xA174E77A EQ PUSH2 0x356 JUMPI DUP1 PUSH4 0xAD59951D EQ PUSH2 0x372 JUMPI PUSH2 0x14D JUMP JUMPDEST DUP1 PUSH4 0x2D54CAFE GT PUSH2 0x115 JUMPI DUP1 PUSH4 0x2D54CAFE EQ PUSH2 0x210 JUMPI DUP1 PUSH4 0x312D7BBC EQ PUSH2 0x240 JUMPI DUP1 PUSH4 0x44BF95C6 EQ PUSH2 0x25C JUMPI DUP1 PUSH4 0x4E714AC3 EQ PUSH2 0x28C JUMPI DUP1 PUSH4 0x59927044 EQ PUSH2 0x2BC JUMPI DUP1 PUSH4 0x66333422 EQ PUSH2 0x2DA JUMPI PUSH2 0x14D JUMP JUMPDEST DUP1 PUSH4 0x60B89C5 EQ PUSH2 0x152 JUMPI DUP1 PUSH4 0x6B5FBE8 EQ PUSH2 0x16E JUMPI DUP1 PUSH4 0x117A5B90 EQ PUSH2 0x19E JUMPI DUP1 PUSH4 0x1525FF7D EQ PUSH2 0x1D8 JUMPI DUP1 PUSH4 0x166866C7 EQ PUSH2 0x1F4 JUMPI JUMPDEST PUSH1 0x0 DUP1 REVERT JUMPDEST PUSH2 0x16C PUSH1 0x4 DUP1 CALLDATASIZE SUB DUP2 ADD SWAP1 PUSH2 0x167 SWAP2 SWAP1 PUSH2 0x452D JUMP JUMPDEST PUSH2 0x450 JUMP JUMPDEST STOP JUMPDEST PUSH2 0x188 PUSH1 0x4 DUP1 CALLDATASIZE SUB DUP2 ADD SWAP1 PUSH2 0x183 SWAP2 SWAP1 PUSH2 0x456D JUMP JUMPDEST PUSH2 0x565 JUMP JUMPDEST PUSH1 0x40 MLOAD PUSH2 0x195 SWAP2 SWAP1 PUSH2 0x45A9 JUMP JUMPDEST PUSH1 0x40 MLOAD DUP1 SWAP2 SUB SWAP1 RETURN JUMPDEST PUSH2 0x1B8 PUSH1 0x4 DUP1 CALLDATASIZE SUB DUP2 ADD SWAP1 PUSH2 0x1B3 SWAP2 SWAP1 PUSH2 0x45C4 JUMP JUMPDEST PUSH2 0x57D JUMP JUMPDEST PUSH1 0x40 MLOAD PUSH2 0x1CF SWAP12 SWAP11 SWAP10 SWAP9 SWAP8 SWAP7 SWAP6 SWAP5 SWAP4 SWAP3 SWAP2 SWAP1 PUSH2 0x4693 JUMP JUMPDEST PUSH1 0x40 MLOAD DUP1 SWAP2 SUB SWAP1 RETURN JUMPDEST PUSH2 0x1F2 PUSH1 0x4 DUP1 CALLDATASIZE SUB DUP2 ADD SWAP1 PUSH2 0x1ED SWAP2 SWAP1 PUSH2 0x456D JUMP JUMPDEST PUSH2 0x65E JUMP JUMPDEST STOP JUMPDEST PUSH2 0x20E PUSH1 0x4 DUP1 CALLDATASIZE SUB DUP2 ADD SWAP1 PUSH2 0x209 SWAP2 SWAP1 PUSH2 0x456D JUMP JUMPDEST PUSH2 0x6AA JUMP JUMPDEST STOP JUMPDEST PUSH2 0x22A PUSH1 0x4 DUP1 CALLDATASIZE SUB DUP2 ADD SWAP1 PUSH2 0x225 SWAP2 SWAP1 PUSH2 0x473E JUMP JUMPDEST PUSH2 0x813 JUMP JUMPDEST PUSH1 0x40 MLOAD PUSH2 0x237 SWAP2 SWAP1 PUSH2 0x45A9 JUMP JUMPDEST PUSH1 0x40 MLOAD DUP1 SWAP2 SUB SWAP1 RETURN JUMPDEST PUSH2 0x25A PUSH1 0x4 DUP1 CALLDATASIZE SUB DUP2 ADD SWAP1 PUSH2 0x255 SWAP2 SWAP1 PUSH2 0x45C4 JUMP JUMPDEST PUSH2 0xFDD JUMP JUMPDEST STOP JUMPDEST PUSH2 0x276 PUSH1 0x4 DUP1 CALLDATASIZE SUB DUP2 ADD SWAP1 PUSH2 0x271 SWAP2 SWAP1 PUSH2 0x456D JUMP JUMPDEST PUSH2 0x2167 JUMP JUMPDEST PUSH1 0x40 MLOAD PUSH2 0x283 SWAP2 SWAP1 PUSH2 0x477E JUMP JUMPDEST PUSH1 0x40 MLOAD DUP1 SWAP2 SUB SWAP1 RETURN JUMPDEST PUSH2 0x2A6 PUSH1 0x4 DUP1 CALLDATASIZE SUB DUP2 ADD SWAP1 PUSH2 0x2A1 SWAP2 SWAP1 PUSH2 0x48DF JUMP JUMPDEST PUSH2 0x2187 JUMP JUMPDEST PUSH1 0x40 MLOAD PUSH2 0x2B3 SWAP2 SWAP1 PUSH2 0x477E JUMP JUMPDEST PUSH1 0x40 MLOAD DUP1 SWAP2 SUB SWAP1 RETURN JUMPDEST PUSH2 0x2C4 PUSH2 0x21BD JUMP JUMPDEST PUSH1 0x40 MLOAD PUSH2 0x2D1 SWAP2 SWAP1 PUSH2 0x4928 JUMP JUMPDEST PUSH1 0x40 MLOAD DUP1 SWAP2 SUB SWAP1 RETURN JUMPDEST PUSH2 0x2F4 PUSH1 0x4 DUP1 CALLDATASIZE SUB DUP2 ADD SWAP1 PUSH2 0x2EF SWAP2 SWAP1 PUSH2 0x49F9 JUMP JUMPDEST PUSH2 0x21E3 JUMP JUMPDEST STOP JUMPDEST PUSH2 0x2FE PUSH2 0x2640 JUMP JUMPDEST STOP JUMPDEST PUSH2 0x31A PUSH1 0x4 DUP1 CALLDATASIZE SUB DUP2 ADD SWAP1 PUSH2 0x315 SWAP2 SWAP1 PUSH2 0x4B29 JUMP JUMPDEST PUSH2 0x2654 JUMP JUMPDEST STOP JUMPDEST PUSH2 0x336 PUSH1 0x4 DUP1 CALLDATASIZE SUB DUP2 ADD SWAP1 PUSH2 0x331 SWAP2 SWAP1 PUSH2 0x452D JUMP JUMPDEST PUSH2 0x2C9D JUMP JUMPDEST STOP JUMPDEST PUSH2 0x340 PUSH2 0x2DED JUMP JUMPDEST PUSH1 0x40 MLOAD PUSH2 0x34D SWAP2 SWAP1 PUSH2 0x4928 JUMP JUMPDEST PUSH1 0x40 MLOAD DUP1 SWAP2 SUB SWAP1 RETURN JUMPDEST PUSH2 0x370 PUSH1 0x4 DUP1 CALLDATASIZE SUB DUP2 ADD SWAP1 PUSH2 0x36B SWAP2 SWAP1 PUSH2 0x456D JUMP JUMPDEST PUSH2 0x2E16 JUMP JUMPDEST STOP JUMPDEST PUSH2 0x38C PUSH1 0x4 DUP1 CALLDATASIZE SUB DUP2 ADD SWAP1 PUSH2 0x387 SWAP2 SWAP1 PUSH2 0x4B91 JUMP JUMPDEST PUSH2 0x2EAF JUMP JUMPDEST STOP JUMPDEST PUSH2 0x396 PUSH2 0x389D JUMP JUMPDEST PUSH1 0x40 MLOAD PUSH2 0x3A3 SWAP2 SWAP1 PUSH2 0x45A9 JUMP JUMPDEST PUSH1 0x40 MLOAD DUP1 SWAP2 SUB SWAP1 RETURN JUMPDEST PUSH2 0x3C6 PUSH1 0x4 DUP1 CALLDATASIZE SUB DUP2 ADD SWAP1 PUSH2 0x3C1 SWAP2 SWAP1 PUSH2 0x48DF JUMP JUMPDEST PUSH2 0x38A3 JUMP JUMPDEST STOP JUMPDEST PUSH2 0x3D0 PUSH2 0x391C JUMP JUMPDEST PUSH1 0x40 MLOAD PUSH2 0x3DD SWAP2 SWAP1 PUSH2 0x45A9 JUMP JUMPDEST PUSH1 0x40 MLOAD DUP1 SWAP2 SUB SWAP1 RETURN JUMPDEST PUSH2 0x3EE PUSH2 0x3923 JUMP JUMPDEST PUSH1 0x40 MLOAD PUSH2 0x3FB SWAP2 SWAP1 PUSH2 0x45A9 JUMP JUMPDEST PUSH1 0x40 MLOAD DUP1 SWAP2 SUB SWAP1 RETURN JUMPDEST PUSH2 0x41E PUSH1 0x4 DUP1 CALLDATASIZE SUB DUP2 ADD SWAP1 PUSH2 0x419 SWAP2 SWAP1 PUSH2 0x456D JUMP JUMPDEST PUSH2 0x3928 JUMP JUMPDEST PUSH1 0x40 MLOAD PUSH2 0x42B SWAP2 SWAP1 PUSH2 0x477E JUMP JUMPDEST PUSH1 0x40 MLOAD DUP1 SWAP2 SUB SWAP1 RETURN JUMPDEST PUSH2 0x44E PUSH1 0x4 DUP1 CALLDATASIZE SUB DUP2 ADD SWAP1 PUSH2 0x449 SWAP2 SWAP1 PUSH2 0x456D JUMP JUMPDEST PUSH2 0x3948 JUMP JUMPDEST STOP JUMPDEST PUSH2 0x458 PUSH2 0x39CE JUMP JUMPDEST PUSH1 0x2 PUSH1 0x0 DUP4 PUSH20 0xFFFFFFFFFFFFFFFFFFFFFFFFFFFFFFFFFFFFFFFF AND PUSH20 0xFFFFFFFFFFFFFFFFFFFFFFFFFFFFFFFFFFFFFFFF AND DUP2 MSTORE PUSH1 0x20 ADD SWAP1 DUP2 MSTORE PUSH1 0x20 ADD PUSH1 0x0 KECCAK256 PUSH1 0x0 SWAP1 SLOAD SWAP1 PUSH2 0x100 EXP SWAP1 DIV PUSH1 0xFF AND PUSH2 0x4E4 JUMPI PUSH1 0x40 MLOAD PUSH32 0x8C379A000000000000000000000000000000000000000000000000000000000 DUP2 MSTORE PUSH1 0x4 ADD PUSH2 0x4DB SWAP1 PUSH2 0x4C6B JUMP JUMPDEST PUSH1 0x40 MLOAD DUP1 SWAP2 SUB SWAP1 REVERT JUMPDEST DUP1 PUSH1 0x4 PUSH1 0x0 DUP5 PUSH20 0xFFFFFFFFFFFFFFFFFFFFFFFFFFFFFFFFFFFFFFFF AND PUSH20 0xFFFFFFFFFFFFFFFFFFFFFFFFFFFFFFFFFFFFFFFF AND DUP2 MSTORE PUSH1 0x20 ADD SWAP1 DUP2 MSTORE PUSH1 0x20 ADD PUSH1 0x0 KECCAK256 DUP2 SWAP1 SSTORE POP PUSH32 0xE8714BA99B4A6EFBDE0C674BDBEC2836CCFE51B4DED655734FBE67D66BD7C4C2 DUP3 DUP3 PUSH1 0x40 MLOAD PUSH2 0x559 SWAP3 SWAP2 SWAP1 PUSH2 0x4C8B JUMP JUMPDEST PUSH1 0x40 MLOAD DUP1 SWAP2 SUB SWAP1 LOG1 POP POP JUMP JUMPDEST PUSH1 0x4 PUSH1 0x20 MSTORE DUP1 PUSH1 0x0 MSTORE PUSH1 0x40 PUSH1 0x0 KECCAK256 PUSH1 0x0 SWAP2 POP SWAP1 POP SLOAD DUP2 JUMP JUMPDEST PUSH1 0x6 PUSH1 0x20 MSTORE DUP1 PUSH1 0x0 MSTORE PUSH1 0x40 PUSH1 0x0 KECCAK256 PUSH1 0x0 SWAP2 POP SWAP1 POP DUP1 PUSH1 0x0 ADD PUSH1 0x0 SWAP1 SLOAD SWAP1 PUSH2 0x100 EXP SWAP1 DIV PUSH20 0xFFFFFFFFFFFFFFFFFFFFFFFFFFFFFFFFFFFFFFFF AND SWAP1 DUP1 PUSH1 0x7 ADD SLOAD SWAP1 DUP1 PUSH1 0xB ADD PUSH1 0x0 SWAP1 SLOAD SWAP1 PUSH2 0x100 EXP SWAP1 DIV PUSH1 0xFF AND SWAP1 DUP1 PUSH1 0xB ADD PUSH1 0x1 SWAP1 SLOAD SWAP1 PUSH2 0x100 EXP SWAP1 DIV PUSH20 0xFFFFFFFFFFFFFFFFFFFFFFFFFFFFFFFFFFFFFFFF AND SWAP1 DUP1 PUSH1 0x12 ADD SLOAD SWAP1 DUP1 PUSH1 0x16 ADD PUSH1 0x0 SWAP1 SLOAD SWAP1 PUSH2 0x100 EXP SWAP1 DIV PUSH1 0xFF AND SWAP1 DUP1 PUSH1 0x16 ADD PUSH1 0x1 SWAP1 SLOAD SWAP1 PUSH2 0x100 EXP SWAP1 DIV PUSH20 0xFFFFFFFFFFFFFFFFFFFFFFFFFFFFFFFFFFFFFFFF AND SWAP1 DUP1 PUSH1 0x17 ADD SLOAD SWAP1 DUP1 PUSH1 0x18 ADD SLOAD SWAP1 DUP1 PUSH1 0x19 ADD SLOAD SWAP1 DUP1 PUSH1 0x1A ADD PUSH1 0x0 SWAP1 SLOAD SWAP1 PUSH2 0x100 EXP SWAP1 DIV PUSH1 0xFF AND SWAP1 POP DUP12 JUMP JUMPDEST PUSH2 0x666 PUSH2 0x39CE JUMP JUMPDEST DUP1 PUSH1 0x5 PUSH1 0x0 PUSH2 0x100 EXP DUP2 SLOAD DUP2 PUSH20 0xFFFFFFFFFFFFFFFFFFFFFFFFFFFFFFFFFFFFFFFF MUL NOT AND SWAP1 DUP4 PUSH20 0xFFFFFFFFFFFFFFFFFFFFFFFFFFFFFFFFFFFFFFFF AND MUL OR SWAP1 SSTORE POP POP JUMP JUMPDEST PUSH2 0x6B2 PUSH2 0x39CE JUMP JUMPDEST PUSH1 0x2 PUSH1 0x0 DUP3 PUSH20 0xFFFFFFFFFFFFFFFFFFFFFFFFFFFFFFFFFFFFFFFF AND PUSH20 0xFFFFFFFFFFFFFFFFFFFFFFFFFFFFFFFFFFFFFFFF AND DUP2 MSTORE PUSH1 0x20 ADD SWAP1 DUP2 MSTORE PUSH1 0x20 ADD PUSH1 0x0 KECCAK256 PUSH1 0x0 SWAP1 SLOAD SWAP1 PUSH2 0x100 EXP SWAP1 DIV PUSH1 0xFF AND PUSH2 0x73E JUMPI PUSH1 0x40 MLOAD PUSH32 0x8C379A000000000000000000000000000000000000000000000000000000000 DUP2 MSTORE PUSH1 0x4 ADD PUSH2 0x735 SWAP1 PUSH2 0x4C6B JUMP JUMPDEST PUSH1 0x40 MLOAD DUP1 SWAP2 SUB SWAP1 REVERT JUMPDEST PUSH1 0x0 PUSH1 0x2 PUSH1 0x0 DUP4 PUSH20 0xFFFFFFFFFFFFFFFFFFFFFFFFFFFFFFFFFFFFFFFF AND PUSH20 0xFFFFFFFFFFFFFFFFFFFFFFFFFFFFFFFFFFFFFFFF AND DUP2 MSTORE PUSH1 0x20 ADD SWAP1 DUP2 MSTORE PUSH1 0x20 ADD PUSH1 0x0 KECCAK256 PUSH1 0x0 PUSH2 0x100 EXP DUP2 SLOAD DUP2 PUSH1 0xFF MUL NOT AND SWAP1 DUP4 ISZERO ISZERO MUL OR SWAP1 SSTORE POP PUSH1 0x4 PUSH1 0x0 DUP3 PUSH20 0xFFFFFFFFFFFFFFFFFFFFFFFFFFFFFFFFFFFFFFFF AND PUSH20 0xFFFFFFFFFFFFFFFFFFFFFFFFFFFFFFFFFFFFFFFF AND DUP2 MSTORE PUSH1 0x20 ADD SWAP1 DUP2 MSTORE PUSH1 0x20 ADD PUSH1 0x0 KECCAK256 PUSH1 0x0 SWAP1 SSTORE PUSH32 0x7A502FFFAC50F2A838C955044DEC68B272641742A68617ABE16E4982AAC37975 DUP2 PUSH1 0x40 MLOAD PUSH2 0x808 SWAP2 SWAP1 PUSH2 0x4928 JUMP JUMPDEST PUSH1 0x40 MLOAD DUP1 SWAP2 SUB SWAP1 LOG1 POP JUMP JUMPDEST PUSH1 0x0 PUSH1 0x7 SLOAD DUP4 LT PUSH2 0x859 JUMPI PUSH1 0x40 MLOAD PUSH32 0x8C379A000000000000000000000000000000000000000000000000000000000 DUP2 MSTORE PUSH1 0x4 ADD PUSH2 0x850 SWAP1 PUSH2 0x4D00 JUMP JUMPDEST PUSH1 0x40 MLOAD DUP1 SWAP2 SUB SWAP1 REVERT JUMPDEST PUSH1 0x0 PUSH1 0x7 SLOAD DUP4 DUP6 PUSH2 0x86A SWAP2 SWAP1 PUSH2 0x4D4F JUMP JUMPDEST GT PUSH2 0x880 JUMPI DUP3 DUP5 PUSH2 0x87B SWAP2 SWAP1 PUSH2 0x4D4F JUMP JUMPDEST PUSH2 0x884 JUMP JUMPDEST PUSH1 0x7 SLOAD JUMPDEST SWAP1 POP PUSH1 0x0 SWAP2 POP PUSH1 0x0 DUP5 SWAP1 POP JUMPDEST DUP2 DUP2 LT ISZERO PUSH2 0xFD5 JUMPI PUSH1 0x0 PUSH1 0x6 PUSH1 0x0 DUP4 DUP2 MSTORE PUSH1 0x20 ADD SWAP1 DUP2 MSTORE PUSH1 0x20 ADD PUSH1 0x0 KECCAK256 SWAP1 POP DUP1 PUSH1 0x1A ADD PUSH1 0x0 SWAP1 SLOAD SWAP1 PUSH2 0x100 EXP SWAP1 DIV PUSH1 0xFF AND PUSH2 0x8CB JUMPI POP PUSH2 0xFC2 JUMP JUMPDEST PUSH1 0x0 DUP2 PUSH1 0x17 ADD SLOAD SWAP1 POP PUSH1 0x0 PUSH20 0xFFFFFFFFFFFFFFFFFFFFFFFFFFFFFFFFFFFFFFFF AND DUP3 PUSH1 0xB ADD PUSH1 0x1 SWAP1 SLOAD SWAP1 PUSH2 0x100 EXP SWAP1 DIV PUSH20 0xFFFFFFFFFFFFFFFFFFFFFFFFFFFFFFFFFFFFFFFF AND PUSH20 0xFFFFFFFFFFFFFFFFFFFFFFFFFFFFFFFFFFFFFFFF AND EQ DUP1 ISZERO PUSH2 0x946 JUMPI POP PUSH3 0x93A80 DUP3 PUSH1 0x18 ADD SLOAD PUSH2 0x942 SWAP2 SWAP1 PUSH2 0x4D4F JUMP JUMPDEST TIMESTAMP LT ISZERO JUMPDEST ISZERO PUSH2 0xB82 JUMPI DUP2 PUSH1 0x16 ADD PUSH1 0x1 SWAP1 SLOAD SWAP1 PUSH2 0x100 EXP SWAP1 DIV PUSH20 0xFFFFFFFFFFFFFFFFFFFFFFFFFFFFFFFFFFFFFFFF AND PUSH20 0xFFFFFFFFFFFFFFFFFFFFFFFFFFFFFFFFFFFFFFFF AND PUSH4 0xA9059CBB DUP4 PUSH1 0x0 ADD PUSH1 0x0 SWAP1 SLOAD SWAP1 PUSH2 0x100 EXP SWAP1 DIV PUSH20 0xFFFFFFFFFFFFFFFFFFFFFFFFFFFFFFFFFFFFFFFF AND DUP4 PUSH1 0x40 MLOAD DUP4 PUSH4 0xFFFFFFFF AND PUSH1 0xE0 SHL DUP2 MSTORE PUSH1 0x4 ADD PUSH2 0x9CE SWAP3 SWAP2 SWAP1 PUSH2 0x4C8B JUMP JUMPDEST PUSH1 0x20 PUSH1 0x40 MLOAD DUP1 DUP4 SUB DUP2 PUSH1 0x0 DUP8 GAS CALL ISZERO DUP1 ISZERO PUSH2 0x9ED JUMPI RETURNDATASIZE PUSH1 0x0 DUP1 RETURNDATACOPY RETURNDATASIZE PUSH1 0x0 REVERT JUMPDEST POP POP POP POP PUSH1 0x40 MLOAD RETURNDATASIZE PUSH1 0x1F NOT PUSH1 0x1F DUP3 ADD AND DUP3 ADD DUP1 PUSH1 0x40 MSTORE POP DUP2 ADD SWAP1 PUSH2 0xA11 SWAP2 SWAP1 PUSH2 0x4DAF JUMP JUMPDEST POP PUSH1 0x0 JUMPDEST PUSH1 0x3 DUP2 LT ISZERO PUSH2 0xB12 JUMPI DUP3 PUSH1 0x1 ADD DUP2 PUSH1 0x3 DUP2 LT PUSH2 0xA34 JUMPI PUSH2 0xA33 PUSH2 0x4DDC JUMP JUMPDEST JUMPDEST ADD PUSH1 0x0 SWAP1 SLOAD SWAP1 PUSH2 0x100 EXP SWAP1 DIV PUSH20 0xFFFFFFFFFFFFFFFFFFFFFFFFFFFFFFFFFFFFFFFF AND PUSH20 0xFFFFFFFFFFFFFFFFFFFFFFFFFFFFFFFFFFFFFFFF AND PUSH4 0x23B872DD ADDRESS DUP6 PUSH1 0x0 ADD PUSH1 0x0 SWAP1 SLOAD SWAP1 PUSH2 0x100 EXP SWAP1 DIV PUSH20 0xFFFFFFFFFFFFFFFFFFFFFFFFFFFFFFFFFFFFFFFF AND DUP7 PUSH1 0x4 ADD DUP6 PUSH1 0x3 DUP2 LT PUSH2 0xAAD JUMPI PUSH2 0xAAC PUSH2 0x4DDC JUMP JUMPDEST JUMPDEST ADD SLOAD PUSH1 0x40 MLOAD DUP5 PUSH4 0xFFFFFFFF AND PUSH1 0xE0 SHL DUP2 MSTORE PUSH1 0x4 ADD PUSH2 0xACD SWAP4 SWAP3 SWAP2 SWAP1 PUSH2 0x4E0B JUMP JUMPDEST PUSH1 0x0 PUSH1 0x40 MLOAD DUP1 DUP4 SUB DUP2 PUSH1 0x0 DUP8 DUP1 EXTCODESIZE ISZERO DUP1 ISZERO PUSH2 0xAE7 JUMPI PUSH1 0x0 DUP1 REVERT JUMPDEST POP GAS CALL ISZERO DUP1 ISZERO PUSH2 0xAFB JUMPI RETURNDATASIZE PUSH1 0x0 DUP1 RETURNDATACOPY RETURNDATASIZE PUSH1 0x0 REVERT JUMPDEST POP POP POP POP DUP1 DUP1 PUSH2 0xB0A SWAP1 PUSH2 0x4E42 JUMP JUMPDEST SWAP2 POP POP PUSH2 0xA15 JUMP JUMPDEST POP PUSH1 0x0 DUP3 PUSH1 0x1A ADD PUSH1 0x0 PUSH2 0x100 EXP DUP2 SLOAD DUP2 PUSH1 0xFF MUL NOT AND SWAP1 DUP4 ISZERO ISZERO MUL OR SWAP1 SSTORE POP PUSH32 0x70513431FE7F36611E21FF99AA229C501699D89165596D29C077697D177422D4 DUP4 PUSH1 0x0 PUSH1 0x1 PUSH1 0x40 MLOAD PUSH2 0xB65 SWAP4 SWAP3 SWAP2 SWAP1 PUSH2 0x4E8A JUMP JUMPDEST PUSH1 0x40 MLOAD DUP1 SWAP2 SUB SWAP1 LOG1 DUP5 DUP1 PUSH2 0xB78 SWAP1 PUSH2 0x4E42 JUMP JUMPDEST SWAP6 POP POP POP POP PUSH2 0xFC2 JUMP JUMPDEST PUSH1 0x0 DUP3 PUSH1 0x19 ADD SLOAD GT DUP1 ISZERO PUSH2 0xBA8 JUMPI POP PUSH3 0x93A80 DUP3 PUSH1 0x19 ADD SLOAD PUSH2 0xBA4 SWAP2 SWAP1 PUSH2 0x4D4F JUMP JUMPDEST TIMESTAMP LT ISZERO JUMPDEST ISZERO PUSH2 0xFBF JUMPI DUP2 PUSH1 0xB ADD PUSH1 0x0 SWAP1 SLOAD SWAP1 PUSH2 0x100 EXP SWAP1 DIV PUSH1 0xFF AND ISZERO DUP1 PUSH2 0xBDA JUMPI POP DUP2 PUSH1 0x16 ADD PUSH1 0x0 SWAP1 SLOAD SWAP1 PUSH2 0x100 EXP SWAP1 DIV PUSH1 0xFF AND ISZERO JUMPDEST ISZERO PUSH2 0xFBE JUMPI DUP2 PUSH1 0x16 ADD PUSH1 0x1 SWAP1 SLOAD SWAP1 PUSH2 0x100 EXP SWAP1 DIV PUSH20 0xFFFFFFFFFFFFFFFFFFFFFFFFFFFFFFFFFFFFFFFF AND PUSH20 0xFFFFFFFFFFFFFFFFFFFFFFFFFFFFFFFFFFFFFFFF AND PUSH4 0xA9059CBB DUP4 PUSH1 0x0 ADD PUSH1 0x0 SWAP1 SLOAD SWAP1 PUSH2 0x100 EXP SWAP1 DIV PUSH20 0xFFFFFFFFFFFFFFFFFFFFFFFFFFFFFFFFFFFFFFFF AND DUP4 PUSH1 0x40 MLOAD DUP4 PUSH4 0xFFFFFFFF AND PUSH1 0xE0 SHL DUP2 MSTORE PUSH1 0x4 ADD PUSH2 0xC62 SWAP3 SWAP2 SWAP1 PUSH2 0x4C8B JUMP JUMPDEST PUSH1 0x20 PUSH1 0x40 MLOAD DUP1 DUP4 SUB DUP2 PUSH1 0x0 DUP8 GAS CALL ISZERO DUP1 ISZERO PUSH2 0xC81 JUMPI RETURNDATASIZE PUSH1 0x0 DUP1 RETURNDATACOPY RETURNDATASIZE PUSH1 0x0 REVERT JUMPDEST POP POP POP POP PUSH1 0x40 MLOAD RETURNDATASIZE PUSH1 0x1F NOT PUSH1 0x1F DUP3 ADD AND DUP3 ADD DUP1 PUSH1 0x40 MSTORE POP DUP2 ADD SWAP1 PUSH2 0xCA5 SWAP2 SWAP1 PUSH2 0x4DAF JUMP JUMPDEST POP DUP2 PUSH1 0x16 ADD PUSH1 0x1 SWAP1 SLOAD SWAP1 PUSH2 0x100 EXP SWAP1 DIV PUSH20 0xFFFFFFFFFFFFFFFFFFFFFFFFFFFFFFFFFFFFFFFF AND PUSH20 0xFFFFFFFFFFFFFFFFFFFFFFFFFFFFFFFFFFFFFFFF AND PUSH4 0xA9059CBB DUP4 PUSH1 0xB ADD PUSH1 0x1 SWAP1 SLOAD SWAP1 PUSH2 0x100 EXP SWAP1 DIV PUSH20 0xFFFFFFFFFFFFFFFFFFFFFFFFFFFFFFFFFFFFFFFF AND DUP4 PUSH1 0x40 MLOAD DUP4 PUSH4 0xFFFFFFFF AND PUSH1 0xE0 SHL DUP2 MSTORE PUSH1 0x4 ADD PUSH2 0xD29 SWAP3 SWAP2 SWAP1 PUSH2 0x4C8B JUMP JUMPDEST PUSH1 0x20 PUSH1 0x40 MLOAD DUP1 DUP4 SUB DUP2 PUSH1 0x0 DUP8 GAS CALL ISZERO DUP1 ISZERO PUSH2 0xD48 JUMPI RETURNDATASIZE PUSH1 0x0 DUP1 RETURNDATACOPY RETURNDATASIZE PUSH1 0x0 REVERT JUMPDEST POP POP POP POP PUSH1 0x40 MLOAD RETURNDATASIZE PUSH1 0x1F NOT PUSH1 0x1F DUP3 ADD AND DUP3 ADD DUP1 PUSH1 0x40 MSTORE POP DUP2 ADD SWAP1 PUSH2 0xD6C SWAP2 SWAP1 PUSH2 0x4DAF JUMP JUMPDEST POP PUSH1 0x0 JUMPDEST PUSH1 0x3 DUP2 LT ISZERO PUSH2 0xF4E JUMPI DUP3 PUSH1 0x1 ADD DUP2 PUSH1 0x3 DUP2 LT PUSH2 0xD8F JUMPI PUSH2 0xD8E PUSH2 0x4DDC JUMP JUMPDEST JUMPDEST ADD PUSH1 0x0 SWAP1 SLOAD SWAP1 PUSH2 0x100 EXP SWAP1 DIV PUSH20 0xFFFFFFFFFFFFFFFFFFFFFFFFFFFFFFFFFFFFFFFF AND PUSH20 0xFFFFFFFFFFFFFFFFFFFFFFFFFFFFFFFFFFFFFFFF AND PUSH4 0x23B872DD ADDRESS DUP6 PUSH1 0x0 ADD PUSH1 0x0 SWAP1 SLOAD SWAP1 PUSH2 0x100 EXP SWAP1 DIV PUSH20 0xFFFFFFFFFFFFFFFFFFFFFFFFFFFFFFFFFFFFFFFF AND DUP7 PUSH1 0x4 ADD DUP6 PUSH1 0x3 DUP2 LT PUSH2 0xE08 JUMPI PUSH2 0xE07 PUSH2 0x4DDC JUMP JUMPDEST JUMPDEST ADD SLOAD PUSH1 0x40 MLOAD DUP5 PUSH4 0xFFFFFFFF AND PUSH1 0xE0 SHL DUP2 MSTORE PUSH1 0x4 ADD PUSH2 0xE28 SWAP4 SWAP3 SWAP2 SWAP1 PUSH2 0x4E0B JUMP JUMPDEST PUSH1 0x0 PUSH1 0x40 MLOAD DUP1 DUP4 SUB DUP2 PUSH1 0x0 DUP8 DUP1 EXTCODESIZE ISZERO DUP1 ISZERO PUSH2 0xE42 JUMPI PUSH1 0x0 DUP1 REVERT JUMPDEST POP GAS CALL ISZERO DUP1 ISZERO PUSH2 0xE56 JUMPI RETURNDATASIZE PUSH1 0x0 DUP1 RETURNDATACOPY RETURNDATASIZE PUSH1 0x0 REVERT JUMPDEST POP POP POP POP DUP3 PUSH1 0xC ADD DUP2 PUSH1 0x3 DUP2 LT PUSH2 0xE70 JUMPI PUSH2 0xE6F PUSH2 0x4DDC JUMP JUMPDEST JUMPDEST ADD PUSH1 0x0 SWAP1 SLOAD SWAP1 PUSH2 0x100 EXP SWAP1 DIV PUSH20 0xFFFFFFFFFFFFFFFFFFFFFFFFFFFFFFFFFFFFFFFF AND PUSH20 0xFFFFFFFFFFFFFFFFFFFFFFFFFFFFFFFFFFFFFFFF AND PUSH4 0x23B872DD ADDRESS DUP6 PUSH1 0xB ADD PUSH1 0x1 SWAP1 SLOAD SWAP1 PUSH2 0x100 EXP SWAP1 DIV PUSH20 0xFFFFFFFFFFFFFFFFFFFFFFFFFFFFFFFFFFFFFFFF AND DUP7 PUSH1 0xF ADD DUP6 PUSH1 0x3 DUP2 LT PUSH2 0xEE9 JUMPI PUSH2 0xEE8 PUSH2 0x4DDC JUMP JUMPDEST JUMPDEST ADD SLOAD PUSH1 0x40 MLOAD DUP5 PUSH4 0xFFFFFFFF AND PUSH1 0xE0 SHL DUP2 MSTORE PUSH1 0x4 ADD PUSH2 0xF09 SWAP4 SWAP3 SWAP2 SWAP1 PUSH2 0x4E0B JUMP JUMPDEST PUSH1 0x0 PUSH1 0x40 MLOAD DUP1 DUP4 SUB DUP2 PUSH1 0x0 DUP8 DUP1 EXTCODESIZE ISZERO DUP1 ISZERO PUSH2 0xF23 JUMPI PUSH1 0x0 DUP1 REVERT JUMPDEST POP GAS CALL ISZERO DUP1 ISZERO PUSH2 0xF37 JUMPI RETURNDATASIZE PUSH1 0x0 DUP1 RETURNDATACOPY RETURNDATASIZE PUSH1 0x0 REVERT JUMPDEST POP POP POP POP DUP1 DUP1 PUSH2 0xF46 SWAP1 PUSH2 0x4E42 JUMP JUMPDEST SWAP2 POP POP PUSH2 0xD70 JUMP JUMPDEST POP PUSH1 0x0 DUP3 PUSH1 0x1A ADD PUSH1 0x0 PUSH2 0x100 EXP DUP2 SLOAD DUP2 PUSH1 0xFF MUL NOT AND SWAP1 DUP4 ISZERO ISZERO MUL OR SWAP1 SSTORE POP PUSH32 0x70513431FE7F36611E21FF99AA229C501699D89165596D29C077697D177422D4 DUP4 PUSH1 0x0 PUSH1 0x1 PUSH1 0x40 MLOAD PUSH2 0xFA1 SWAP4 SWAP3 SWAP2 SWAP1 PUSH2 0x4E8A JUMP JUMPDEST PUSH1 0x40 MLOAD DUP1 SWAP2 SUB SWAP1 LOG1 DUP5 DUP1 PUSH2 0xFB4 SWAP1 PUSH2 0x4E42 JUMP JUMPDEST SWAP6 POP POP POP POP PUSH2 0xFC2 JUMP JUMPDEST JUMPDEST POP POP JUMPDEST DUP1 DUP1 PUSH2 0xFCD SWAP1 PUSH2 0x4E42 JUMP JUMPDEST SWAP2 POP POP PUSH2 0x890 JUMP JUMPDEST POP POP SWAP3 SWAP2 POP POP JUMP JUMPDEST PUSH1 0x0 PUSH1 0x6 PUSH1 0x0 DUP4 DUP2 MSTORE PUSH1 0x20 ADD SWAP1 DUP2 MSTORE PUSH1 0x20 ADD PUSH1 0x0 KECCAK256 SWAP1 POP DUP1 PUSH1 0x1A ADD PUSH1 0x0 SWAP1 SLOAD SWAP1 PUSH2 0x100 EXP SWAP1 DIV PUSH1 0xFF AND PUSH2 0x1045 JUMPI PUSH1 0x40 MLOAD PUSH32 0x8C379A000000000000000000000000000000000000000000000000000000000 DUP2 MSTORE PUSH1 0x4 ADD PUSH2 0x103C SWAP1 PUSH2 0x4F0D JUMP JUMPDEST PUSH1 0x40 MLOAD DUP1 SWAP2 SUB SWAP1 REVERT JUMPDEST PUSH1 0x0 DUP2 PUSH1 0x17 ADD SLOAD SWAP1 POP PUSH1 0x0 PUSH20 0xFFFFFFFFFFFFFFFFFFFFFFFFFFFFFFFFFFFFFFFF AND DUP3 PUSH1 0xB ADD PUSH1 0x1 SWAP1 SLOAD SWAP1 PUSH2 0x100 EXP SWAP1 DIV PUSH20 0xFFFFFFFFFFFFFFFFFFFFFFFFFFFFFFFFFFFFFFFF AND PUSH20 0xFFFFFFFFFFFFFFFFFFFFFFFFFFFFFFFFFFFFFFFF AND EQ DUP1 ISZERO PUSH2 0x10C0 JUMPI POP PUSH3 0x93A80 DUP3 PUSH1 0x18 ADD SLOAD PUSH2 0x10BC SWAP2 SWAP1 PUSH2 0x4D4F JUMP JUMPDEST TIMESTAMP LT ISZERO JUMPDEST ISZERO PUSH2 0x12EE JUMPI DUP2 PUSH1 0x16 ADD PUSH1 0x1 SWAP1 SLOAD SWAP1 PUSH2 0x100 EXP SWAP1 DIV PUSH20 0xFFFFFFFFFFFFFFFFFFFFFFFFFFFFFFFFFFFFFFFF AND PUSH20 0xFFFFFFFFFFFFFFFFFFFFFFFFFFFFFFFFFFFFFFFF AND PUSH4 0xA9059CBB DUP4 PUSH1 0x0 ADD PUSH1 0x0 SWAP1 SLOAD SWAP1 PUSH2 0x100 EXP SWAP1 DIV PUSH20 0xFFFFFFFFFFFFFFFFFFFFFFFFFFFFFFFFFFFFFFFF AND DUP4 PUSH1 0x40 MLOAD DUP4 PUSH4 0xFFFFFFFF AND PUSH1 0xE0 SHL DUP2 MSTORE PUSH1 0x4 ADD PUSH2 0x1148 SWAP3 SWAP2 SWAP1 PUSH2 0x4C8B JUMP JUMPDEST PUSH1 0x20 PUSH1 0x40 MLOAD DUP1 DUP4 SUB DUP2 PUSH1 0x0 DUP8 GAS CALL ISZERO DUP1 ISZERO PUSH2 0x1167 JUMPI RETURNDATASIZE PUSH1 0x0 DUP1 RETURNDATACOPY RETURNDATASIZE PUSH1 0x0 REVERT JUMPDEST POP POP POP POP PUSH1 0x40 MLOAD RETURNDATASIZE PUSH1 0x1F NOT PUSH1 0x1F DUP3 ADD AND DUP3 ADD DUP1 PUSH1 0x40 MSTORE POP DUP2 ADD SWAP1 PUSH2 0x118B SWAP2 SWAP1 PUSH2 0x4DAF JUMP JUMPDEST POP PUSH1 0x0 JUMPDEST PUSH1 0x3 DUP2 LT ISZERO PUSH2 0x128C JUMPI DUP3 PUSH1 0x1 ADD DUP2 PUSH1 0x3 DUP2 LT PUSH2 0x11AE JUMPI PUSH2 0x11AD PUSH2 0x4DDC JUMP JUMPDEST JUMPDEST ADD PUSH1 0x0 SWAP1 SLOAD SWAP1 PUSH2 0x100 EXP SWAP1 DIV PUSH20 0xFFFFFFFFFFFFFFFFFFFFFFFFFFFFFFFFFFFFFFFF AND PUSH20 0xFFFFFFFFFFFFFFFFFFFFFFFFFFFFFFFFFFFFFFFF AND PUSH4 0x23B872DD ADDRESS DUP6 PUSH1 0x0 ADD PUSH1 0x0 SWAP1 SLOAD SWAP1 PUSH2 0x100 EXP SWAP1 DIV PUSH20 0xFFFFFFFFFFFFFFFFFFFFFFFFFFFFFFFFFFFFFFFF AND DUP7 PUSH1 0x4 ADD DUP6 PUSH1 0x3 DUP2 LT PUSH2 0x1227 JUMPI PUSH2 0x1226 PUSH2 0x4DDC JUMP JUMPDEST JUMPDEST ADD SLOAD PUSH1 0x40 MLOAD DUP5 PUSH4 0xFFFFFFFF AND PUSH1 0xE0 SHL DUP2 MSTORE PUSH1 0x4 ADD PUSH2 0x1247 SWAP4 SWAP3 SWAP2 SWAP1 PUSH2 0x4E0B JUMP JUMPDEST PUSH1 0x0 PUSH1 0x40 MLOAD DUP1 DUP4 SUB DUP2 PUSH1 0x0 DUP8 DUP1 EXTCODESIZE ISZERO DUP1 ISZERO PUSH2 0x1261 JUMPI PUSH1 0x0 DUP1 REVERT JUMPDEST POP GAS CALL ISZERO DUP1 ISZERO PUSH2 0x1275 JUMPI RETURNDATASIZE PUSH1 0x0 DUP1 RETURNDATACOPY RETURNDATASIZE PUSH1 0x0 REVERT JUMPDEST POP POP POP POP DUP1 DUP1 PUSH2 0x1284 SWAP1 PUSH2 0x4E42 JUMP JUMPDEST SWAP2 POP POP PUSH2 0x118F JUMP JUMPDEST POP PUSH1 0x0 DUP3 PUSH1 0x1A ADD PUSH1 0x0 PUSH2 0x100 EXP DUP2 SLOAD DUP2 PUSH1 0xFF MUL NOT AND SWAP1 DUP4 ISZERO ISZERO MUL OR SWAP1 SSTORE POP PUSH32 0x70513431FE7F36611E21FF99AA229C501699D89165596D29C077697D177422D4 DUP4 PUSH1 0x0 PUSH1 0x1 PUSH1 0x40 MLOAD PUSH2 0x12DF SWAP4 SWAP3 SWAP2 SWAP1 PUSH2 0x4E8A JUMP JUMPDEST PUSH1 0x40 MLOAD DUP1 SWAP2 SUB SWAP1 LOG1 POP POP PUSH2 0x2164 JUMP JUMPDEST PUSH1 0x0 DUP3 PUSH1 0x19 ADD SLOAD GT DUP1 ISZERO PUSH2 0x1314 JUMPI POP PUSH3 0x93A80 DUP3 PUSH1 0x19 ADD SLOAD PUSH2 0x1310 SWAP2 SWAP1 PUSH2 0x4D4F JUMP JUMPDEST TIMESTAMP LT ISZERO JUMPDEST ISZERO PUSH2 0x171D JUMPI DUP2 PUSH1 0xB ADD PUSH1 0x0 SWAP1 SLOAD SWAP1 PUSH2 0x100 EXP SWAP1 DIV PUSH1 0xFF AND ISZERO DUP1 PUSH2 0x1346 JUMPI POP DUP2 PUSH1 0x16 ADD PUSH1 0x0 SWAP1 SLOAD SWAP1 PUSH2 0x100 EXP SWAP1 DIV PUSH1 0xFF AND ISZERO JUMPDEST ISZERO PUSH2 0x171C JUMPI DUP2 PUSH1 0x16 ADD PUSH1 0x1 SWAP1 SLOAD SWAP1 PUSH2 0x100 EXP SWAP1 DIV PUSH20 0xFFFFFFFFFFFFFFFFFFFFFFFFFFFFFFFFFFFFFFFF AND PUSH20 0xFFFFFFFFFFFFFFFFFFFFFFFFFFFFFFFFFFFFFFFF AND PUSH4 0xA9059CBB DUP4 PUSH1 0x0 ADD PUSH1 0x0 SWAP1 SLOAD SWAP1 PUSH2 0x100 EXP SWAP1 DIV PUSH20 0xFFFFFFFFFFFFFFFFFFFFFFFFFFFFFFFFFFFFFFFF AND DUP4 PUSH1 0x40 MLOAD DUP4 PUSH4 0xFFFFFFFF AND PUSH1 0xE0 SHL DUP2 MSTORE PUSH1 0x4 ADD PUSH2 0x13CE SWAP3 SWAP2 SWAP1 PUSH2 0x4C8B JUMP JUMPDEST PUSH1 0x20 PUSH1 0x40 MLOAD DUP1 DUP4 SUB DUP2 PUSH1 0x0 DUP8 GAS CALL ISZERO DUP1 ISZERO PUSH2 0x13ED JUMPI RETURNDATASIZE PUSH1 0x0 DUP1 RETURNDATACOPY RETURNDATASIZE PUSH1 0x0 REVERT JUMPDEST POP POP POP POP PUSH1 0x40 MLOAD RETURNDATASIZE PUSH1 0x1F NOT PUSH1 0x1F DUP3 ADD AND DUP3 ADD DUP1 PUSH1 0x40 MSTORE POP DUP2 ADD SWAP1 PUSH2 0x1411 SWAP2 SWAP1 PUSH2 0x4DAF JUMP JUMPDEST POP DUP2 PUSH1 0x16 ADD PUSH1 0x1 SWAP1 SLOAD SWAP1 PUSH2 0x100 EXP SWAP1 DIV PUSH20 0xFFFFFFFFFFFFFFFFFFFFFFFFFFFFFFFFFFFFFFFF AND PUSH20 0xFFFFFFFFFFFFFFFFFFFFFFFFFFFFFFFFFFFFFFFF AND PUSH4 0xA9059CBB DUP4 PUSH1 0xB ADD PUSH1 0x1 SWAP1 SLOAD SWAP1 PUSH2 0x100 EXP SWAP1 DIV PUSH20 0xFFFFFFFFFFFFFFFFFFFFFFFFFFFFFFFFFFFFFFFF AND DUP4 PUSH1 0x40 MLOAD DUP4 PUSH4 0xFFFFFFFF AND PUSH1 0xE0 SHL DUP2 MSTORE PUSH1 0x4 ADD PUSH2 0x1495 SWAP3 SWAP2 SWAP1 PUSH2 0x4C8B JUMP JUMPDEST PUSH1 0x20 PUSH1 0x40 MLOAD DUP1 DUP4 SUB DUP2 PUSH1 0x0 DUP8 GAS CALL ISZERO DUP1 ISZERO PUSH2 0x14B4 JUMPI RETURNDATASIZE PUSH1 0x0 DUP1 RETURNDATACOPY RETURNDATASIZE PUSH1 0x0 REVERT JUMPDEST POP POP POP POP PUSH1 0x40 MLOAD RETURNDATASIZE PUSH1 0x1F NOT PUSH1 0x1F DUP3 ADD AND DUP3 ADD DUP1 PUSH1 0x40 MSTORE POP DUP2 ADD SWAP1 PUSH2 0x14D8 SWAP2 SWAP1 PUSH2 0x4DAF JUMP JUMPDEST POP PUSH1 0x0 JUMPDEST PUSH1 0x3 DUP2 LT ISZERO PUSH2 0x16BA JUMPI DUP3 PUSH1 0x1 ADD DUP2 PUSH1 0x3 DUP2 LT PUSH2 0x14FB JUMPI PUSH2 0x14FA PUSH2 0x4DDC JUMP JUMPDEST JUMPDEST ADD PUSH1 0x0 SWAP1 SLOAD SWAP1 PUSH2 0x100 EXP SWAP1 DIV PUSH20 0xFFFFFFFFFFFFFFFFFFFFFFFFFFFFFFFFFFFFFFFF AND PUSH20 0xFFFFFFFFFFFFFFFFFFFFFFFFFFFFFFFFFFFFFFFF AND PUSH4 0x23B872DD ADDRESS DUP6 PUSH1 0x0 ADD PUSH1 0x0 SWAP1 SLOAD SWAP1 PUSH2 0x100 EXP SWAP1 DIV PUSH20 0xFFFFFFFFFFFFFFFFFFFFFFFFFFFFFFFFFFFFFFFF AND DUP7 PUSH1 0x4 ADD DUP6 PUSH1 0x3 DUP2 LT PUSH2 0x1574 JUMPI PUSH2 0x1573 PUSH2 0x4DDC JUMP JUMPDEST JUMPDEST ADD SLOAD PUSH1 0x40 MLOAD DUP5 PUSH4 0xFFFFFFFF AND PUSH1 0xE0 SHL DUP2 MSTORE PUSH1 0x4 ADD PUSH2 0x1594 SWAP4 SWAP3 SWAP2 SWAP1 PUSH2 0x4E0B JUMP JUMPDEST PUSH1 0x0 PUSH1 0x40 MLOAD DUP1 DUP4 SUB DUP2 PUSH1 0x0 DUP8 DUP1 EXTCODESIZE ISZERO DUP1 ISZERO PUSH2 0x15AE JUMPI PUSH1 0x0 DUP1 REVERT JUMPDEST POP GAS CALL ISZERO DUP1 ISZERO PUSH2 0x15C2 JUMPI RETURNDATASIZE PUSH1 0x0 DUP1 RETURNDATACOPY RETURNDATASIZE PUSH1 0x0 REVERT JUMPDEST POP POP POP POP DUP3 PUSH1 0xC ADD DUP2 PUSH1 0x3 DUP2 LT PUSH2 0x15DC JUMPI PUSH2 0x15DB PUSH2 0x4DDC JUMP JUMPDEST JUMPDEST ADD PUSH1 0x0 SWAP1 SLOAD SWAP1 PUSH2 0x100 EXP SWAP1 DIV PUSH20 0xFFFFFFFFFFFFFFFFFFFFFFFFFFFFFFFFFFFFFFFF AND PUSH20 0xFFFFFFFFFFFFFFFFFFFFFFFFFFFFFFFFFFFFFFFF AND PUSH4 0x23B872DD ADDRESS DUP6 PUSH1 0xB ADD PUSH1 0x1 SWAP1 SLOAD SWAP1 PUSH2 0x100 EXP SWAP1 DIV PUSH20 0xFFFFFFFFFFFFFFFFFFFFFFFFFFFFFFFFFFFFFFFF AND DUP7 PUSH1 0xF ADD DUP6 PUSH1 0x3 DUP2 LT PUSH2 0x1655 JUMPI PUSH2 0x1654 PUSH2 0x4DDC JUMP JUMPDEST JUMPDEST ADD SLOAD PUSH1 0x40 MLOAD DUP5 PUSH4 0xFFFFFFFF AND PUSH1 0xE0 SHL DUP2 MSTORE PUSH1 0x4 ADD PUSH2 0x1675 SWAP4 SWAP3 SWAP2 SWAP1 PUSH2 0x4E0B JUMP JUMPDEST PUSH1 0x0 PUSH1 0x40 MLOAD DUP1 DUP4 SUB DUP2 PUSH1 0x0 DUP8 DUP1 EXTCODESIZE ISZERO DUP1 ISZERO PUSH2 0x168F JUMPI PUSH1 0x0 DUP1 REVERT JUMPDEST POP GAS CALL ISZERO DUP1 ISZERO PUSH2 0x16A3 JUMPI RETURNDATASIZE PUSH1 0x0 DUP1 RETURNDATACOPY RETURNDATASIZE PUSH1 0x0 REVERT JUMPDEST POP POP POP POP DUP1 DUP1 PUSH2 0x16B2 SWAP1 PUSH2 0x4E42 JUMP JUMPDEST SWAP2 POP POP PUSH2 0x14DC JUMP JUMPDEST POP PUSH1 0x0 DUP3 PUSH1 0x1A ADD PUSH1 0x0 PUSH2 0x100 EXP DUP2 SLOAD DUP2 PUSH1 0xFF MUL NOT AND SWAP1 DUP4 ISZERO ISZERO MUL OR SWAP1 SSTORE POP PUSH32 0x70513431FE7F36611E21FF99AA229C501699D89165596D29C077697D177422D4 DUP4 PUSH1 0x0 PUSH1 0x1 PUSH1 0x40 MLOAD PUSH2 0x170D SWAP4 SWAP3 SWAP2 SWAP1 PUSH2 0x4E8A JUMP JUMPDEST PUSH1 0x40 MLOAD DUP1 SWAP2 SUB SWAP1 LOG1 POP POP PUSH2 0x2164 JUMP JUMPDEST JUMPDEST DUP2 PUSH1 0xB ADD PUSH1 0x0 SWAP1 SLOAD SWAP1 PUSH2 0x100 EXP SWAP1 DIV PUSH1 0xFF AND DUP1 ISZERO PUSH2 0x1749 JUMPI POP DUP2 PUSH1 0x16 ADD PUSH1 0x0 SWAP1 SLOAD SWAP1 PUSH2 0x100 EXP SWAP1 DIV PUSH1 0xFF AND JUMPDEST PUSH2 0x1788 JUMPI PUSH1 0x40 MLOAD PUSH32 0x8C379A000000000000000000000000000000000000000000000000000000000 DUP2 MSTORE PUSH1 0x4 ADD PUSH2 0x177F SWAP1 PUSH2 0x4F79 JUMP JUMPDEST PUSH1 0x40 MLOAD DUP1 SWAP2 SUB SWAP1 REVERT JUMPDEST PUSH1 0x0 DUP1 PUSH1 0x0 DUP1 JUMPDEST PUSH1 0x3 DUP2 LT ISZERO PUSH2 0x190E JUMPI PUSH1 0x0 DUP7 PUSH1 0x8 ADD DUP3 PUSH1 0x3 DUP2 LT PUSH2 0x17B0 JUMPI PUSH2 0x17AF PUSH2 0x4DDC JUMP JUMPDEST JUMPDEST ADD SLOAD SWAP1 POP PUSH1 0x0 DUP8 PUSH1 0x1 ADD DUP3 PUSH1 0x3 DUP2 LT PUSH2 0x17CC JUMPI PUSH2 0x17CB PUSH2 0x4DDC JUMP JUMPDEST JUMPDEST ADD PUSH1 0x0 SWAP1 SLOAD SWAP1 PUSH2 0x100 EXP SWAP1 DIV PUSH20 0xFFFFFFFFFFFFFFFFFFFFFFFFFFFFFFFFFFFFFFFF AND SWAP1 POP PUSH1 0x0 DUP9 PUSH1 0x4 ADD DUP4 PUSH1 0x3 DUP2 LT PUSH2 0x1808 JUMPI PUSH2 0x1807 PUSH2 0x4DDC JUMP JUMPDEST JUMPDEST ADD SLOAD SWAP1 POP PUSH1 0x0 DUP10 PUSH1 0x13 ADD DUP6 PUSH1 0x3 DUP2 LT PUSH2 0x1824 JUMPI PUSH2 0x1823 PUSH2 0x4DDC JUMP JUMPDEST JUMPDEST ADD SLOAD SWAP1 POP PUSH1 0x0 DUP11 PUSH1 0xC ADD DUP3 PUSH1 0x3 DUP2 LT PUSH2 0x1840 JUMPI PUSH2 0x183F PUSH2 0x4DDC JUMP JUMPDEST JUMPDEST ADD PUSH1 0x0 SWAP1 SLOAD SWAP1 PUSH2 0x100 EXP SWAP1 DIV PUSH20 0xFFFFFFFFFFFFFFFFFFFFFFFFFFFFFFFFFFFFFFFF AND SWAP1 POP PUSH1 0x0 DUP12 PUSH1 0xF ADD DUP4 PUSH1 0x3 DUP2 LT PUSH2 0x187C JUMPI PUSH2 0x187B PUSH2 0x4DDC JUMP JUMPDEST JUMPDEST ADD SLOAD SWAP1 POP PUSH1 0x0 PUSH2 0x188E DUP7 DUP7 DUP6 DUP6 PUSH2 0x3A55 JUMP JUMPDEST SWAP1 POP DUP1 PUSH1 0x20 ADD MLOAD PUSH1 0xFF AND DUP2 PUSH1 0x0 ADD MLOAD PUSH1 0xFF AND GT ISZERO PUSH2 0x18B9 JUMPI DUP11 DUP1 PUSH2 0x18B1 SWAP1 PUSH2 0x4E42 JUMP JUMPDEST SWAP12 POP POP PUSH2 0x18DF JUMP JUMPDEST DUP1 PUSH1 0x0 ADD MLOAD PUSH1 0xFF AND DUP2 PUSH1 0x20 ADD MLOAD PUSH1 0xFF AND GT ISZERO PUSH2 0x18DE JUMPI DUP10 DUP1 PUSH2 0x18DA SWAP1 PUSH2 0x4E42 JUMP JUMPDEST SWAP11 POP POP JUMPDEST JUMPDEST DUP1 PUSH1 0x40 ADD MLOAD PUSH1 0x1 SIGNEXTEND DUP10 PUSH2 0x18F2 SWAP2 SWAP1 PUSH2 0x4FA3 JUMP JUMPDEST SWAP9 POP POP POP POP POP POP POP POP DUP1 DUP1 PUSH2 0x1906 SWAP1 PUSH2 0x4E42 JUMP JUMPDEST SWAP2 POP POP PUSH2 0x178F JUMP JUMPDEST POP PUSH1 0x0 PUSH1 0x2 DUP6 PUSH2 0x191E SWAP2 SWAP1 PUSH2 0x4FE7 JUMP JUMPDEST SWAP1 POP PUSH1 0x0 PUSH1 0x64 PUSH1 0x2 DUP4 PUSH2 0x1931 SWAP2 SWAP1 PUSH2 0x4FE7 JUMP JUMPDEST PUSH2 0x193B SWAP2 SWAP1 PUSH2 0x5058 JUMP JUMPDEST SWAP1 POP PUSH1 0x0 DUP2 DUP4 PUSH2 0x194B SWAP2 SWAP1 PUSH2 0x5089 JUMP JUMPDEST SWAP1 POP DUP8 PUSH1 0x16 ADD PUSH1 0x1 SWAP1 SLOAD SWAP1 PUSH2 0x100 EXP SWAP1 DIV PUSH20 0xFFFFFFFFFFFFFFFFFFFFFFFFFFFFFFFFFFFFFFFF AND PUSH20 0xFFFFFFFFFFFFFFFFFFFFFFFFFFFFFFFFFFFFFFFF AND PUSH4 0xA9059CBB PUSH1 0x5 PUSH1 0x0 SWAP1 SLOAD SWAP1 PUSH2 0x100 EXP SWAP1 DIV PUSH20 0xFFFFFFFFFFFFFFFFFFFFFFFFFFFFFFFFFFFFFFFF AND DUP5 PUSH1 0x40 MLOAD DUP4 PUSH4 0xFFFFFFFF AND PUSH1 0xE0 SHL DUP2 MSTORE PUSH1 0x4 ADD PUSH2 0x19CE SWAP3 SWAP2 SWAP1 PUSH2 0x4C8B JUMP JUMPDEST PUSH1 0x20 PUSH1 0x40 MLOAD DUP1 DUP4 SUB DUP2 PUSH1 0x0 DUP8 GAS CALL ISZERO DUP1 ISZERO PUSH2 0x19ED JUMPI RETURNDATASIZE PUSH1 0x0 DUP1 RETURNDATACOPY RETURNDATASIZE PUSH1 0x0 REVERT JUMPDEST POP POP POP POP PUSH1 0x40 MLOAD RETURNDATASIZE PUSH1 0x1F NOT PUSH1 0x1F DUP3 ADD AND DUP3 ADD DUP1 PUSH1 0x40 MSTORE POP DUP2 ADD SWAP1 PUSH2 0x1A11 SWAP2 SWAP1 PUSH2 0x4DAF JUMP JUMPDEST POP PUSH1 0x0 DUP1 PUSH1 0x0 SWAP1 POP DUP7 DUP9 GT ISZERO PUSH2 0x1AF0 JUMPI DUP10 PUSH1 0x0 ADD PUSH1 0x0 SWAP1 SLOAD SWAP1 PUSH2 0x100 EXP SWAP1 DIV PUSH20 0xFFFFFFFFFFFFFFFFFFFFFFFFFFFFFFFFFFFFFFFF AND SWAP2 POP DUP10 PUSH1 0x16 ADD PUSH1 0x1 SWAP1 SLOAD SWAP1 PUSH2 0x100 EXP SWAP1 DIV PUSH20 0xFFFFFFFFFFFFFFFFFFFFFFFFFFFFFFFFFFFFFFFF AND PUSH20 0xFFFFFFFFFFFFFFFFFFFFFFFFFFFFFFFFFFFFFFFF AND PUSH4 0xA9059CBB DUP4 DUP6 PUSH1 0x40 MLOAD DUP4 PUSH4 0xFFFFFFFF AND PUSH1 0xE0 SHL DUP2 MSTORE PUSH1 0x4 ADD PUSH2 0x1AA7 SWAP3 SWAP2 SWAP1 PUSH2 0x4C8B JUMP JUMPDEST PUSH1 0x20 PUSH1 0x40 MLOAD DUP1 DUP4 SUB DUP2 PUSH1 0x0 DUP8 GAS CALL ISZERO DUP1 ISZERO PUSH2 0x1AC6 JUMPI RETURNDATASIZE PUSH1 0x0 DUP1 RETURNDATACOPY RETURNDATASIZE PUSH1 0x0 REVERT JUMPDEST POP POP POP POP PUSH1 0x40 MLOAD RETURNDATASIZE PUSH1 0x1F NOT PUSH1 0x1F DUP3 ADD AND DUP3 ADD DUP1 PUSH1 0x40 MSTORE POP DUP2 ADD SWAP1 PUSH2 0x1AEA SWAP2 SWAP1 PUSH2 0x4DAF JUMP JUMPDEST POP PUSH2 0x1F1F JUMP JUMPDEST DUP8 DUP8 GT ISZERO PUSH2 0x1BC7 JUMPI DUP10 PUSH1 0xB ADD PUSH1 0x1 SWAP1 SLOAD SWAP1 PUSH2 0x100 EXP SWAP1 DIV PUSH20 0xFFFFFFFFFFFFFFFFFFFFFFFFFFFFFFFFFFFFFFFF AND SWAP2 POP DUP10 PUSH1 0x16 ADD PUSH1 0x1 SWAP1 SLOAD SWAP1 PUSH2 0x100 EXP SWAP1 DIV PUSH20 0xFFFFFFFFFFFFFFFFFFFFFFFFFFFFFFFFFFFFFFFF AND PUSH20 0xFFFFFFFFFFFFFFFFFFFFFFFFFFFFFFFFFFFFFFFF AND PUSH4 0xA9059CBB DUP4 DUP6 PUSH1 0x40 MLOAD DUP4 PUSH4 0xFFFFFFFF AND PUSH1 0xE0 SHL DUP2 MSTORE PUSH1 0x4 ADD PUSH2 0x1B7E SWAP3 SWAP2 SWAP1 PUSH2 0x4C8B JUMP JUMPDEST PUSH1 0x20 PUSH1 0x40 MLOAD DUP1 DUP4 SUB DUP2 PUSH1 0x0 DUP8 GAS CALL ISZERO DUP1 ISZERO PUSH2 0x1B9D JUMPI RETURNDATASIZE PUSH1 0x0 DUP1 RETURNDATACOPY RETURNDATASIZE PUSH1 0x0 REVERT JUMPDEST POP POP POP POP PUSH1 0x40 MLOAD RETURNDATASIZE PUSH1 0x1F NOT PUSH1 0x1F DUP3 ADD AND DUP3 ADD DUP1 PUSH1 0x40 MSTORE POP DUP2 ADD SWAP1 PUSH2 0x1BC1 SWAP2 SWAP1 PUSH2 0x4DAF JUMP JUMPDEST POP PUSH2 0x1F1E JUMP JUMPDEST PUSH1 0x0 DUP7 SGT ISZERO PUSH2 0x1C9F JUMPI DUP10 PUSH1 0x0 ADD PUSH1 0x0 SWAP1 SLOAD SWAP1 PUSH2 0x100 EXP SWAP1 DIV PUSH20 0xFFFFFFFFFFFFFFFFFFFFFFFFFFFFFFFFFFFFFFFF AND SWAP2 POP DUP10 PUSH1 0x16 ADD PUSH1 0x1 SWAP1 SLOAD SWAP1 PUSH2 0x100 EXP SWAP1 DIV PUSH20 0xFFFFFFFFFFFFFFFFFFFFFFFFFFFFFFFFFFFFFFFF AND PUSH20 0xFFFFFFFFFFFFFFFFFFFFFFFFFFFFFFFFFFFFFFFF AND PUSH4 0xA9059CBB DUP4 DUP6 PUSH1 0x40 MLOAD DUP4 PUSH4 0xFFFFFFFF AND PUSH1 0xE0 SHL DUP2 MSTORE PUSH1 0x4 ADD PUSH2 0x1C56 SWAP3 SWAP2 SWAP1 PUSH2 0x4C8B JUMP JUMPDEST PUSH1 0x20 PUSH1 0x40 MLOAD DUP1 DUP4 SUB DUP2 PUSH1 0x0 DUP8 GAS CALL ISZERO DUP1 ISZERO PUSH2 0x1C75 JUMPI RETURNDATASIZE PUSH1 0x0 DUP1 RETURNDATACOPY RETURNDATASIZE PUSH1 0x0 REVERT JUMPDEST POP POP POP POP PUSH1 0x40 MLOAD RETURNDATASIZE PUSH1 0x1F NOT PUSH1 0x1F DUP3 ADD AND DUP3 ADD DUP1 PUSH1 0x40 MSTORE POP DUP2 ADD SWAP1 PUSH2 0x1C99 SWAP2 SWAP1 PUSH2 0x4DAF JUMP JUMPDEST POP PUSH2 0x1F1D JUMP JUMPDEST PUSH1 0x0 DUP7 SLT ISZERO PUSH2 0x1D77 JUMPI DUP10 PUSH1 0xB ADD PUSH1 0x1 SWAP1 SLOAD SWAP1 PUSH2 0x100 EXP SWAP1 DIV PUSH20 0xFFFFFFFFFFFFFFFFFFFFFFFFFFFFFFFFFFFFFFFF AND SWAP2 POP DUP10 PUSH1 0x16 ADD PUSH1 0x1 SWAP1 SLOAD SWAP1 PUSH2 0x100 EXP SWAP1 DIV PUSH20 0xFFFFFFFFFFFFFFFFFFFFFFFFFFFFFFFFFFFFFFFF AND PUSH20 0xFFFFFFFFFFFFFFFFFFFFFFFFFFFFFFFFFFFFFFFF AND PUSH4 0xA9059CBB DUP4 DUP6 PUSH1 0x40 MLOAD DUP4 PUSH4 0xFFFFFFFF AND PUSH1 0xE0 SHL DUP2 MSTORE PUSH1 0x4 ADD PUSH2 0x1D2E SWAP3 SWAP2 SWAP1 PUSH2 0x4C8B JUMP JUMPDEST PUSH1 0x20 PUSH1 0x40 MLOAD DUP1 DUP4 SUB DUP2 PUSH1 0x0 DUP8 GAS CALL ISZERO DUP1 ISZERO PUSH2 0x1D4D JUMPI RETURNDATASIZE PUSH1 0x0 DUP1 RETURNDATACOPY RETURNDATASIZE PUSH1 0x0 REVERT JUMPDEST POP POP POP POP PUSH1 0x40 MLOAD RETURNDATASIZE PUSH1 0x1F NOT PUSH1 0x1F DUP3 ADD AND DUP3 ADD DUP1 PUSH1 0x40 MSTORE POP DUP2 ADD SWAP1 PUSH2 0x1D71 SWAP2 SWAP1 PUSH2 0x4DAF JUMP JUMPDEST POP PUSH2 0x1F1C JUMP JUMPDEST PUSH1 0x1 SWAP1 POP PUSH1 0x0 PUSH1 0x2 DUP5 PUSH2 0x1D8A SWAP2 SWAP1 PUSH2 0x5058 JUMP JUMPDEST SWAP1 POP DUP11 PUSH1 0x16 ADD PUSH1 0x1 SWAP1 SLOAD SWAP1 PUSH2 0x100 EXP SWAP1 DIV PUSH20 0xFFFFFFFFFFFFFFFFFFFFFFFFFFFFFFFFFFFFFFFF AND PUSH20 0xFFFFFFFFFFFFFFFFFFFFFFFFFFFFFFFFFFFFFFFF AND PUSH4 0xA9059CBB DUP13 PUSH1 0x0 ADD PUSH1 0x0 SWAP1 SLOAD SWAP1 PUSH2 0x100 EXP SWAP1 DIV PUSH20 0xFFFFFFFFFFFFFFFFFFFFFFFFFFFFFFFFFFFFFFFF AND DUP4 PUSH1 0x40 MLOAD DUP4 PUSH4 0xFFFFFFFF AND PUSH1 0xE0 SHL DUP2 MSTORE PUSH1 0x4 ADD PUSH2 0x1E0F SWAP3 SWAP2 SWAP1 PUSH2 0x4C8B JUMP JUMPDEST PUSH1 0x20 PUSH1 0x40 MLOAD DUP1 DUP4 SUB DUP2 PUSH1 0x0 DUP8 GAS CALL ISZERO DUP1 ISZERO PUSH2 0x1E2E JUMPI RETURNDATASIZE PUSH1 0x0 DUP1 RETURNDATACOPY RETURNDATASIZE PUSH1 0x0 REVERT JUMPDEST POP POP POP POP PUSH1 0x40 MLOAD RETURNDATASIZE PUSH1 0x1F NOT PUSH1 0x1F DUP3 ADD AND DUP3 ADD DUP1 PUSH1 0x40 MSTORE POP DUP2 ADD SWAP1 PUSH2 0x1E52 SWAP2 SWAP1 PUSH2 0x4DAF JUMP JUMPDEST POP DUP11 PUSH1 0x16 ADD PUSH1 0x1 SWAP1 SLOAD SWAP1 PUSH2 0x100 EXP SWAP1 DIV PUSH20 0xFFFFFFFFFFFFFFFFFFFFFFFFFFFFFFFFFFFFFFFF AND PUSH20 0xFFFFFFFFFFFFFFFFFFFFFFFFFFFFFFFFFFFFFFFF AND PUSH4 0xA9059CBB DUP13 PUSH1 0xB ADD PUSH1 0x1 SWAP1 SLOAD SWAP1 PUSH2 0x100 EXP SWAP1 DIV PUSH20 0xFFFFFFFFFFFFFFFFFFFFFFFFFFFFFFFFFFFFFFFF AND DUP4 PUSH1 0x40 MLOAD DUP4 PUSH4 0xFFFFFFFF AND PUSH1 0xE0 SHL DUP2 MSTORE PUSH1 0x4 ADD PUSH2 0x1ED6 SWAP3 SWAP2 SWAP1 PUSH2 0x4C8B JUMP JUMPDEST PUSH1 0x20 PUSH1 0x40 MLOAD DUP1 DUP4 SUB DUP2 PUSH1 0x0 DUP8 GAS CALL ISZERO DUP1 ISZERO PUSH2 0x1EF5 JUMPI RETURNDATASIZE PUSH1 0x0 DUP1 RETURNDATACOPY RETURNDATASIZE PUSH1 0x0 REVERT JUMPDEST POP POP POP POP PUSH1 0x40 MLOAD RETURNDATASIZE PUSH1 0x1F NOT PUSH1 0x1F DUP3 ADD AND DUP3 ADD DUP1 PUSH1 0x40 MSTORE POP DUP2 ADD SWAP1 PUSH2 0x1F19 SWAP2 SWAP1 PUSH2 0x4DAF JUMP JUMPDEST POP POP JUMPDEST JUMPDEST JUMPDEST JUMPDEST PUSH1 0x0 JUMPDEST PUSH1 0x3 DUP2 LT ISZERO PUSH2 0x2100 JUMPI DUP11 PUSH1 0x1 ADD DUP2 PUSH1 0x3 DUP2 LT PUSH2 0x1F41 JUMPI PUSH2 0x1F40 PUSH2 0x4DDC JUMP JUMPDEST JUMPDEST ADD PUSH1 0x0 SWAP1 SLOAD SWAP1 PUSH2 0x100 EXP SWAP1 DIV PUSH20 0xFFFFFFFFFFFFFFFFFFFFFFFFFFFFFFFFFFFFFFFF AND PUSH20 0xFFFFFFFFFFFFFFFFFFFFFFFFFFFFFFFFFFFFFFFF AND PUSH4 0x23B872DD ADDRESS DUP14 PUSH1 0x0 ADD PUSH1 0x0 SWAP1 SLOAD SWAP1 PUSH2 0x100 EXP SWAP1 DIV PUSH20 0xFFFFFFFFFFFFFFFFFFFFFFFFFFFFFFFFFFFFFFFF AND DUP15 PUSH1 0x4 ADD DUP6 PUSH1 0x3 DUP2 LT PUSH2 0x1FBA JUMPI PUSH2 0x1FB9 PUSH2 0x4DDC JUMP JUMPDEST JUMPDEST ADD SLOAD PUSH1 0x40 MLOAD DUP5 PUSH4 0xFFFFFFFF AND PUSH1 0xE0 SHL DUP2 MSTORE PUSH1 0x4 ADD PUSH2 0x1FDA SWAP4 SWAP3 SWAP2 SWAP1 PUSH2 0x4E0B JUMP JUMPDEST PUSH1 0x0 PUSH1 0x40 MLOAD DUP1 DUP4 SUB DUP2 PUSH1 0x0 DUP8 DUP1 EXTCODESIZE ISZERO DUP1 ISZERO PUSH2 0x1FF4 JUMPI PUSH1 0x0 DUP1 REVERT JUMPDEST POP GAS CALL ISZERO DUP1 ISZERO PUSH2 0x2008 JUMPI RETURNDATASIZE PUSH1 0x0 DUP1 RETURNDATACOPY RETURNDATASIZE PUSH1 0x0 REVERT JUMPDEST POP POP POP POP DUP11 PUSH1 0xC ADD DUP2 PUSH1 0x3 DUP2 LT PUSH2 0x2022 JUMPI PUSH2 0x2021 PUSH2 0x4DDC JUMP JUMPDEST JUMPDEST ADD PUSH1 0x0 SWAP1 SLOAD SWAP1 PUSH2 0x100 EXP SWAP1 DIV PUSH20 0xFFFFFFFFFFFFFFFFFFFFFFFFFFFFFFFFFFFFFFFF AND PUSH20 0xFFFFFFFFFFFFFFFFFFFFFFFFFFFFFFFFFFFFFFFF AND PUSH4 0x23B872DD ADDRESS DUP14 PUSH1 0xB ADD PUSH1 0x1 SWAP1 SLOAD SWAP1 PUSH2 0x100 EXP SWAP1 DIV PUSH20 0xFFFFFFFFFFFFFFFFFFFFFFFFFFFFFFFFFFFFFFFF AND DUP15 PUSH1 0xF ADD DUP6 PUSH1 0x3 DUP2 LT PUSH2 0x209B JUMPI PUSH2 0x209A PUSH2 0x4DDC JUMP JUMPDEST JUMPDEST ADD SLOAD PUSH1 0x40 MLOAD DUP5 PUSH4 0xFFFFFFFF AND PUSH1 0xE0 SHL DUP2 MSTORE PUSH1 0x4 ADD PUSH2 0x20BB SWAP4 SWAP3 SWAP2 SWAP1 PUSH2 0x4E0B JUMP JUMPDEST PUSH1 0x0 PUSH1 0x40 MLOAD DUP1 DUP4 SUB DUP2 PUSH1 0x0 DUP8 DUP1 EXTCODESIZE ISZERO DUP1 ISZERO PUSH2 0x20D5 JUMPI PUSH1 0x0 DUP1 REVERT JUMPDEST POP GAS CALL ISZERO DUP1 ISZERO PUSH2 0x20E9 JUMPI RETURNDATASIZE PUSH1 0x0 DUP1 RETURNDATACOPY RETURNDATASIZE PUSH1 0x0 REVERT JUMPDEST POP POP POP POP DUP1 DUP1 PUSH2 0x20F8 SWAP1 PUSH2 0x4E42 JUMP JUMPDEST SWAP2 POP POP PUSH2 0x1F22 JUMP JUMPDEST POP PUSH1 0x0 DUP11 PUSH1 0x1A ADD PUSH1 0x0 PUSH2 0x100 EXP DUP2 SLOAD DUP2 PUSH1 0xFF MUL NOT AND SWAP1 DUP4 ISZERO ISZERO MUL OR SWAP1 SSTORE POP PUSH32 0x70513431FE7F36611E21FF99AA229C501699D89165596D29C077697D177422D4 DUP12 DUP4 DUP4 PUSH1 0x40 MLOAD PUSH2 0x2151 SWAP4 SWAP3 SWAP2 SWAP1 PUSH2 0x4E8A JUMP JUMPDEST PUSH1 0x40 MLOAD DUP1 SWAP2 SUB SWAP1 LOG1 POP POP POP POP POP POP POP POP POP POP JUMPDEST POP JUMP JUMPDEST PUSH1 0x2 PUSH1 0x20 MSTORE DUP1 PUSH1 0x0 MSTORE PUSH1 0x40 PUSH1 0x0 KECCAK256 PUSH1 0x0 SWAP2 POP SLOAD SWAP1 PUSH2 0x100 EXP SWAP1 DIV PUSH1 0xFF AND DUP2 JUMP JUMPDEST PUSH1 0x3 DUP2 DUP1 MLOAD PUSH1 0x20 DUP2 ADD DUP3 ADD DUP1 MLOAD DUP5 DUP3 MSTORE PUSH1 0x20 DUP4 ADD PUSH1 0x20 DUP6 ADD KECCAK256 DUP2 DUP4 MSTORE DUP1 SWAP6 POP POP POP POP POP POP PUSH1 0x0 SWAP2 POP SLOAD SWAP1 PUSH2 0x100 EXP SWAP1 DIV PUSH1 0xFF AND DUP2 JUMP JUMPDEST PUSH1 0x5 PUSH1 0x0 SWAP1 SLOAD SWAP1 PUSH2 0x100 EXP SWAP1 DIV PUSH20 0xFFFFFFFFFFFFFFFFFFFFFFFFFFFFFFFFFFFFFFFF AND DUP2 JUMP JUMPDEST PUSH1 0x0 PUSH1 0x6 PUSH1 0x0 DUP6 DUP2 MSTORE PUSH1 0x20 ADD SWAP1 DUP2 MSTORE PUSH1 0x20 ADD PUSH1 0x0 KECCAK256 SWAP1 POP DUP1 PUSH1 0x1A ADD PUSH1 0x0 SWAP1 SLOAD SWAP1 PUSH2 0x100 EXP SWAP1 DIV PUSH1 0xFF AND PUSH2 0x224B JUMPI PUSH1 0x40 MLOAD PUSH32 0x8C379A000000000000000000000000000000000000000000000000000000000 DUP2 MSTORE PUSH1 0x4 ADD PUSH2 0x2242 SWAP1 PUSH2 0x4F0D JUMP JUMPDEST PUSH1 0x40 MLOAD DUP1 SWAP2 SUB SWAP1 REVERT JUMPDEST PUSH1 0x0 DUP2 PUSH1 0x0 ADD PUSH1 0x0 SWAP1 SLOAD SWAP1 PUSH2 0x100 EXP SWAP1 DIV PUSH20 0xFFFFFFFFFFFFFFFFFFFFFFFFFFFFFFFFFFFFFFFF AND PUSH20 0xFFFFFFFFFFFFFFFFFFFFFFFFFFFFFFFFFFFFFFFF AND CALLER PUSH20 0xFFFFFFFFFFFFFFFFFFFFFFFFFFFFFFFFFFFFFFFF AND EQ SWAP1 POP PUSH1 0x0 DUP3 PUSH1 0xB ADD PUSH1 0x1 SWAP1 SLOAD SWAP1 PUSH2 0x100 EXP SWAP1 DIV PUSH20 0xFFFFFFFFFFFFFFFFFFFFFFFFFFFFFFFFFFFFFFFF AND PUSH20 0xFFFFFFFFFFFFFFFFFFFFFFFFFFFFFFFFFFFFFFFF AND CALLER PUSH20 0xFFFFFFFFFFFFFFFFFFFFFFFFFFFFFFFFFFFFFFFF AND EQ SWAP1 POP DUP2 DUP1 PUSH2 0x2302 JUMPI POP DUP1 JUMPDEST PUSH2 0x2341 JUMPI PUSH1 0x40 MLOAD PUSH32 0x8C379A000000000000000000000000000000000000000000000000000000000 DUP2 MSTORE PUSH1 0x4 ADD PUSH2 0x2338 SWAP1 PUSH2 0x5109 JUMP JUMPDEST PUSH1 0x40 MLOAD DUP1 SWAP2 SUB SWAP1 REVERT JUMPDEST PUSH1 0x0 DUP3 PUSH2 0x2352 JUMPI DUP4 PUSH1 0x12 ADD SLOAD PUSH2 0x2358 JUMP JUMPDEST DUP4 PUSH1 0x7 ADD SLOAD JUMPDEST SWAP1 POP PUSH1 0x0 DUP4 PUSH2 0x2378 JUMPI DUP5 PUSH1 0x16 ADD PUSH1 0x0 SWAP1 SLOAD SWAP1 PUSH2 0x100 EXP SWAP1 DIV PUSH1 0xFF AND PUSH2 0x238B JUMP JUMPDEST DUP5 PUSH1 0xB ADD PUSH1 0x0 SWAP1 SLOAD SWAP1 PUSH2 0x100 EXP SWAP1 DIV PUSH1 0xFF AND JUMPDEST SWAP1 POP DUP1 ISZERO PUSH2 0x23CE JUMPI PUSH1 0x40 MLOAD PUSH32 0x8C379A000000000000000000000000000000000000000000000000000000000 DUP2 MSTORE PUSH1 0x4 ADD PUSH2 0x23C5 SWAP1 PUSH2 0x5175 JUMP JUMPDEST PUSH1 0x40 MLOAD DUP1 SWAP2 SUB SWAP1 REVERT JUMPDEST PUSH1 0x0 DUP8 DUP8 PUSH1 0x0 PUSH1 0x3 DUP2 LT PUSH2 0x23E5 JUMPI PUSH2 0x23E4 PUSH2 0x4DDC JUMP JUMPDEST JUMPDEST PUSH1 0x20 MUL ADD MLOAD DUP9 PUSH1 0x1 PUSH1 0x3 DUP2 LT PUSH2 0x23FE JUMPI PUSH2 0x23FD PUSH2 0x4DDC JUMP JUMPDEST JUMPDEST PUSH1 0x20 MUL ADD MLOAD DUP10 PUSH1 0x2 PUSH1 0x3 DUP2 LT PUSH2 0x2417 JUMPI PUSH2 0x2416 PUSH2 0x4DDC JUMP JUMPDEST JUMPDEST PUSH1 0x20 MUL ADD MLOAD PUSH1 0x40 MLOAD PUSH1 0x20 ADD PUSH2 0x242F SWAP5 SWAP4 SWAP3 SWAP2 SWAP1 PUSH2 0x51B6 JUMP JUMPDEST PUSH1 0x40 MLOAD PUSH1 0x20 DUP2 DUP4 SUB SUB DUP2 MSTORE SWAP1 PUSH1 0x40 MSTORE DUP1 MLOAD SWAP1 PUSH1 0x20 ADD KECCAK256 SWAP1 POP DUP3 DUP2 EQ PUSH2 0x2489 JUMPI PUSH1 0x40 MLOAD PUSH32 0x8C379A000000000000000000000000000000000000000000000000000000000 DUP2 MSTORE PUSH1 0x4 ADD PUSH2 0x2480 SWAP1 PUSH2 0x5250 JUMP JUMPDEST PUSH1 0x40 MLOAD DUP1 SWAP2 SUB SWAP1 REVERT JUMPDEST PUSH2 0x2491 PUSH2 0x4338 JUMP JUMPDEST PUSH1 0x0 JUMPDEST PUSH1 0x3 DUP2 LT ISZERO PUSH2 0x258C JUMPI PUSH1 0x0 DUP10 DUP3 PUSH1 0x3 DUP2 LT PUSH2 0x24B2 JUMPI PUSH2 0x24B1 PUSH2 0x4DDC JUMP JUMPDEST JUMPDEST PUSH1 0x20 MUL ADD MLOAD SWAP1 POP PUSH1 0x3 DUP2 LT PUSH2 0x24FC JUMPI PUSH1 0x40 MLOAD PUSH32 0x8C379A000000000000000000000000000000000000000000000000000000000 DUP2 MSTORE PUSH1 0x4 ADD PUSH2 0x24F3 SWAP1 PUSH2 0x52BC JUMP JUMPDEST PUSH1 0x40 MLOAD DUP1 SWAP2 SUB SWAP1 REVERT JUMPDEST DUP3 DUP2 PUSH1 0x3 DUP2 LT PUSH2 0x250F JUMPI PUSH2 0x250E PUSH2 0x4DDC JUMP JUMPDEST JUMPDEST PUSH1 0x20 MUL ADD MLOAD ISZERO PUSH2 0x2554 JUMPI PUSH1 0x40 MLOAD PUSH32 0x8C379A000000000000000000000000000000000000000000000000000000000 DUP2 MSTORE PUSH1 0x4 ADD PUSH2 0x254B SWAP1 PUSH2 0x5328 JUMP JUMPDEST PUSH1 0x40 MLOAD DUP1 SWAP2 SUB SWAP1 REVERT JUMPDEST PUSH1 0x1 DUP4 DUP3 PUSH1 0x3 DUP2 LT PUSH2 0x2569 JUMPI PUSH2 0x2568 PUSH2 0x4DDC JUMP JUMPDEST JUMPDEST PUSH1 0x20 MUL ADD SWAP1 ISZERO ISZERO SWAP1 DUP2 ISZERO ISZERO DUP2 MSTORE POP POP POP DUP1 DUP1 PUSH2 0x2584 SWAP1 PUSH2 0x4E42 JUMP JUMPDEST SWAP2 POP POP PUSH2 0x2494 JUMP JUMPDEST POP DUP6 ISZERO PUSH2 0x25C9 JUMPI DUP8 DUP8 PUSH1 0x8 ADD SWAP1 PUSH1 0x3 PUSH2 0x25A6 SWAP3 SWAP2 SWAP1 PUSH2 0x435A JUMP JUMPDEST POP PUSH1 0x1 DUP8 PUSH1 0xB ADD PUSH1 0x0 PUSH2 0x100 EXP DUP2 SLOAD DUP2 PUSH1 0xFF MUL NOT AND SWAP1 DUP4 ISZERO ISZERO MUL OR SWAP1 SSTORE POP PUSH2 0x25FB JUMP JUMPDEST DUP8 DUP8 PUSH1 0x13 ADD SWAP1 PUSH1 0x3 PUSH2 0x25DC SWAP3 SWAP2 SWAP1 PUSH2 0x435A JUMP JUMPDEST POP PUSH1 0x1 DUP8 PUSH1 0x16 ADD PUSH1 0x0 PUSH2 0x100 EXP DUP2 SLOAD DUP2 PUSH1 0xFF MUL NOT AND SWAP1 DUP4 ISZERO ISZERO MUL OR SWAP1 SSTORE POP JUMPDEST PUSH32 0xCA89DC79CA69FFB087E833CE20114EE29DC90B746538266055B11D9B008EFE18 DUP11 CALLER PUSH1 0x40 MLOAD PUSH2 0x262C SWAP3 SWAP2 SWAP1 PUSH2 0x5348 JUMP JUMPDEST PUSH1 0x40 MLOAD DUP1 SWAP2 SUB SWAP1 LOG1 POP POP POP POP POP POP POP POP POP POP JUMP JUMPDEST PUSH2 0x2648 PUSH2 0x39CE JUMP JUMPDEST PUSH2 0x2652 PUSH1 0x0 PUSH2 0x4056 JUMP JUMPDEST JUMP JUMPDEST PUSH1 0x0 PUSH1 0x6 PUSH1 0x0 DUP7 DUP2 MSTORE PUSH1 0x20 ADD SWAP1 DUP2 MSTORE PUSH1 0x20 ADD PUSH1 0x0 KECCAK256 SWAP1 POP DUP1 PUSH1 0x1A ADD PUSH1 0x0 SWAP1 SLOAD SWAP1 PUSH2 0x100 EXP SWAP1 DIV PUSH1 0xFF AND PUSH2 0x26BC JUMPI PUSH1 0x40 MLOAD PUSH32 0x8C379A000000000000000000000000000000000000000000000000000000000 DUP2 MSTORE PUSH1 0x4 ADD PUSH2 0x26B3 SWAP1 PUSH2 0x4F0D JUMP JUMPDEST PUSH1 0x40 MLOAD DUP1 SWAP2 SUB SWAP1 REVERT JUMPDEST PUSH1 0x0 PUSH20 0xFFFFFFFFFFFFFFFFFFFFFFFFFFFFFFFFFFFFFFFF AND DUP2 PUSH1 0xB ADD PUSH1 0x1 SWAP1 SLOAD SWAP1 PUSH2 0x100 EXP SWAP1 DIV PUSH20 0xFFFFFFFFFFFFFFFFFFFFFFFFFFFFFFFFFFFFFFFF AND PUSH20 0xFFFFFFFFFFFFFFFFFFFFFFFFFFFFFFFFFFFFFFFF AND EQ PUSH2 0x274F JUMPI PUSH1 0x40 MLOAD PUSH32 0x8C379A000000000000000000000000000000000000000000000000000000000 DUP2 MSTORE PUSH1 0x4 ADD PUSH2 0x2746 SWAP1 PUSH2 0x53BD JUMP JUMPDEST PUSH1 0x40 MLOAD DUP1 SWAP2 SUB SWAP1 REVERT JUMPDEST PUSH1 0x0 DUP1 SHL DUP3 SUB PUSH2 0x2794 JUMPI PUSH1 0x40 MLOAD PUSH32 0x8C379A000000000000000000000000000000000000000000000000000000000 DUP2 MSTORE PUSH1 0x4 ADD PUSH2 0x278B SWAP1 PUSH2 0x5429 JUMP JUMPDEST PUSH1 0x40 MLOAD DUP1 SWAP2 SUB SWAP1 REVERT JUMPDEST PUSH1 0x0 JUMPDEST PUSH1 0x3 DUP2 LT ISZERO PUSH2 0x2A6F JUMPI PUSH1 0x1 PUSH1 0x0 DUP7 DUP4 PUSH1 0x3 DUP2 LT PUSH2 0x27B7 JUMPI PUSH2 0x27B6 PUSH2 0x4DDC JUMP JUMPDEST JUMPDEST PUSH1 0x20 MUL ADD MLOAD PUSH20 0xFFFFFFFFFFFFFFFFFFFFFFFFFFFFFFFFFFFFFFFF AND PUSH20 0xFFFFFFFFFFFFFFFFFFFFFFFFFFFFFFFFFFFFFFFF AND DUP2 MSTORE PUSH1 0x20 ADD SWAP1 DUP2 MSTORE PUSH1 0x20 ADD PUSH1 0x0 KECCAK256 PUSH1 0x0 SWAP1 SLOAD SWAP1 PUSH2 0x100 EXP SWAP1 DIV PUSH1 0xFF AND PUSH2 0x2843 JUMPI PUSH1 0x40 MLOAD PUSH32 0x8C379A000000000000000000000000000000000000000000000000000000000 DUP2 MSTORE PUSH1 0x4 ADD PUSH2 0x283A SWAP1 PUSH2 0x5495 JUMP JUMPDEST PUSH1 0x40 MLOAD DUP1 SWAP2 SUB SWAP1 REVERT JUMPDEST PUSH1 0x0 DUP6 DUP3 PUSH1 0x3 DUP2 LT PUSH2 0x2858 JUMPI PUSH2 0x2857 PUSH2 0x4DDC JUMP JUMPDEST JUMPDEST PUSH1 0x20 MUL ADD MLOAD SWAP1 POP CALLER PUSH20 0xFFFFFFFFFFFFFFFFFFFFFFFFFFFFFFFFFFFFFFFF AND DUP2 PUSH20 0xFFFFFFFFFFFFFFFFFFFFFFFFFFFFFFFFFFFFFFFF AND PUSH4 0x6352211E DUP8 DUP6 PUSH1 0x3 DUP2 LT PUSH2 0x28A5 JUMPI PUSH2 0x28A4 PUSH2 0x4DDC JUMP JUMPDEST JUMPDEST PUSH1 0x20 MUL ADD MLOAD PUSH1 0x40 MLOAD DUP3 PUSH4 0xFFFFFFFF AND PUSH1 0xE0 SHL DUP2 MSTORE PUSH1 0x4 ADD PUSH2 0x28C6 SWAP2 SWAP1 PUSH2 0x45A9 JUMP JUMPDEST PUSH1 0x20 PUSH1 0x40 MLOAD DUP1 DUP4 SUB DUP2 DUP7 GAS STATICCALL ISZERO DUP1 ISZERO PUSH2 0x28E3 JUMPI RETURNDATASIZE PUSH1 0x0 DUP1 RETURNDATACOPY RETURNDATASIZE PUSH1 0x0 REVERT JUMPDEST POP POP POP POP PUSH1 0x40 MLOAD RETURNDATASIZE PUSH1 0x1F NOT PUSH1 0x1F DUP3 ADD AND DUP3 ADD DUP1 PUSH1 0x40 MSTORE POP DUP2 ADD SWAP1 PUSH2 0x2907 SWAP2 SWAP1 PUSH2 0x54CA JUMP JUMPDEST PUSH20 0xFFFFFFFFFFFFFFFFFFFFFFFFFFFFFFFFFFFFFFFF AND EQ PUSH2 0x295D JUMPI PUSH1 0x40 MLOAD PUSH32 0x8C379A000000000000000000000000000000000000000000000000000000000 DUP2 MSTORE PUSH1 0x4 ADD PUSH2 0x2954 SWAP1 PUSH2 0x5543 JUMP JUMPDEST PUSH1 0x40 MLOAD DUP1 SWAP2 SUB SWAP1 REVERT JUMPDEST ADDRESS PUSH20 0xFFFFFFFFFFFFFFFFFFFFFFFFFFFFFFFFFFFFFFFF AND DUP2 PUSH20 0xFFFFFFFFFFFFFFFFFFFFFFFFFFFFFFFFFFFFFFFF AND PUSH4 0x81812FC DUP8 DUP6 PUSH1 0x3 DUP2 LT PUSH2 0x29A3 JUMPI PUSH2 0x29A2 PUSH2 0x4DDC JUMP JUMPDEST JUMPDEST PUSH1 0x20 MUL ADD MLOAD PUSH1 0x40 MLOAD DUP3 PUSH4 0xFFFFFFFF AND PUSH1 0xE0 SHL DUP2 MSTORE PUSH1 0x4 ADD PUSH2 0x29C4 SWAP2 SWAP1 PUSH2 0x45A9 JUMP JUMPDEST PUSH1 0x20 PUSH1 0x40 MLOAD DUP1 DUP4 SUB DUP2 DUP7 GAS STATICCALL ISZERO DUP1 ISZERO PUSH2 0x29E1 JUMPI RETURNDATASIZE PUSH1 0x0 DUP1 RETURNDATACOPY RETURNDATASIZE PUSH1 0x0 REVERT JUMPDEST POP POP POP POP PUSH1 0x40 MLOAD RETURNDATASIZE PUSH1 0x1F NOT PUSH1 0x1F DUP3 ADD AND DUP3 ADD DUP1 PUSH1 0x40 MSTORE POP DUP2 ADD SWAP1 PUSH2 0x2A05 SWAP2 SWAP1 PUSH2 0x54CA JUMP JUMPDEST PUSH20 0xFFFFFFFFFFFFFFFFFFFFFFFFFFFFFFFFFFFFFFFF AND EQ PUSH2 0x2A5B JUMPI PUSH1 0x40 MLOAD PUSH32 0x8C379A000000000000000000000000000000000000000000000000000000000 DUP2 MSTORE PUSH1 0x4 ADD PUSH2 0x2A52 SWAP1 PUSH2 0x55AF JUMP JUMPDEST PUSH1 0x40 MLOAD DUP1 SWAP2 SUB SWAP1 REVERT JUMPDEST POP DUP1 DUP1 PUSH2 0x2A67 SWAP1 PUSH2 0x4E42 JUMP JUMPDEST SWAP2 POP POP PUSH2 0x2797 JUMP JUMPDEST POP PUSH2 0x2A7A DUP5 DUP5 PUSH2 0x411A JUMP JUMPDEST PUSH1 0x0 JUMPDEST PUSH1 0x3 DUP2 LT ISZERO PUSH2 0x2B36 JUMPI DUP5 DUP2 PUSH1 0x3 DUP2 LT PUSH2 0x2A99 JUMPI PUSH2 0x2A98 PUSH2 0x4DDC JUMP JUMPDEST JUMPDEST PUSH1 0x20 MUL ADD MLOAD PUSH20 0xFFFFFFFFFFFFFFFFFFFFFFFFFFFFFFFFFFFFFFFF AND PUSH4 0x23B872DD CALLER ADDRESS DUP8 DUP6 PUSH1 0x3 DUP2 LT PUSH2 0x2ACE JUMPI PUSH2 0x2ACD PUSH2 0x4DDC JUMP JUMPDEST JUMPDEST PUSH1 0x20 MUL ADD MLOAD PUSH1 0x40 MLOAD DUP5 PUSH4 0xFFFFFFFF AND PUSH1 0xE0 SHL DUP2 MSTORE PUSH1 0x4 ADD PUSH2 0x2AF1 SWAP4 SWAP3 SWAP2 SWAP1 PUSH2 0x4E0B JUMP JUMPDEST PUSH1 0x0 PUSH1 0x40 MLOAD DUP1 DUP4 SUB DUP2 PUSH1 0x0 DUP8 DUP1 EXTCODESIZE ISZERO DUP1 ISZERO PUSH2 0x2B0B JUMPI PUSH1 0x0 DUP1 REVERT JUMPDEST POP GAS CALL ISZERO DUP1 ISZERO PUSH2 0x2B1F JUMPI RETURNDATASIZE PUSH1 0x0 DUP1 RETURNDATACOPY RETURNDATASIZE PUSH1 0x0 REVERT JUMPDEST POP POP POP POP DUP1 DUP1 PUSH2 0x2B2E SWAP1 PUSH2 0x4E42 JUMP JUMPDEST SWAP2 POP POP PUSH2 0x2A7D JUMP JUMPDEST POP DUP1 PUSH1 0x16 ADD PUSH1 0x1 SWAP1 SLOAD SWAP1 PUSH2 0x100 EXP SWAP1 DIV PUSH20 0xFFFFFFFFFFFFFFFFFFFFFFFFFFFFFFFFFFFFFFFF AND PUSH20 0xFFFFFFFFFFFFFFFFFFFFFFFFFFFFFFFFFFFFFFFF AND PUSH4 0x23B872DD CALLER ADDRESS DUP5 PUSH1 0x17 ADD SLOAD PUSH1 0x40 MLOAD DUP5 PUSH4 0xFFFFFFFF AND PUSH1 0xE0 SHL DUP2 MSTORE PUSH1 0x4 ADD PUSH2 0x2B9C SWAP4 SWAP3 SWAP2 SWAP1 PUSH2 0x4E0B JUMP JUMPDEST PUSH1 0x20 PUSH1 0x40 MLOAD DUP1 DUP4 SUB DUP2 PUSH1 0x0 DUP8 GAS CALL ISZERO DUP1 ISZERO PUSH2 0x2BBB JUMPI RETURNDATASIZE PUSH1 0x0 DUP1 RETURNDATACOPY RETURNDATASIZE PUSH1 0x0 REVERT JUMPDEST POP POP POP POP PUSH1 0x40 MLOAD RETURNDATASIZE PUSH1 0x1F NOT PUSH1 0x1F DUP3 ADD AND DUP3 ADD DUP1 PUSH1 0x40 MSTORE POP DUP2 ADD SWAP1 PUSH2 0x2BDF SWAP2 SWAP1 PUSH2 0x4DAF JUMP JUMPDEST POP CALLER DUP2 PUSH1 0xB ADD PUSH1 0x1 PUSH2 0x100 EXP DUP2 SLOAD DUP2 PUSH20 0xFFFFFFFFFFFFFFFFFFFFFFFFFFFFFFFFFFFFFFFF MUL NOT AND SWAP1 DUP4 PUSH20 0xFFFFFFFFFFFFFFFFFFFFFFFFFFFFFFFFFFFFFFFF AND MUL OR SWAP1 SSTORE POP DUP4 DUP2 PUSH1 0xC ADD SWAP1 PUSH1 0x3 PUSH2 0x2C36 SWAP3 SWAP2 SWAP1 PUSH2 0x439A JUMP JUMPDEST POP DUP3 DUP2 PUSH1 0xF ADD SWAP1 PUSH1 0x3 PUSH2 0x2C4A SWAP3 SWAP2 SWAP1 PUSH2 0x435A JUMP JUMPDEST POP DUP2 DUP2 PUSH1 0x12 ADD DUP2 SWAP1 SSTORE POP TIMESTAMP DUP2 PUSH1 0x19 ADD DUP2 SWAP1 SSTORE POP PUSH32 0x45C4F9CBAFE186141862608C493F28B823FDE4C2142BEDC3F5169961A73FDD22 DUP6 CALLER PUSH1 0x40 MLOAD PUSH2 0x2C8E SWAP3 SWAP2 SWAP1 PUSH2 0x5348 JUMP JUMPDEST PUSH1 0x40 MLOAD DUP1 SWAP2 SUB SWAP1 LOG1 POP POP POP POP POP JUMP JUMPDEST PUSH2 0x2CA5 PUSH2 0x39CE JUMP JUMPDEST PUSH1 0x0 PUSH20 0xFFFFFFFFFFFFFFFFFFFFFFFFFFFFFFFFFFFFFFFF AND DUP3 PUSH20 0xFFFFFFFFFFFFFFFFFFFFFFFFFFFFFFFFFFFFFFFF AND SUB PUSH2 0x2D14 JUMPI PUSH1 0x40 MLOAD PUSH32 0x8C379A000000000000000000000000000000000000000000000000000000000 DUP2 MSTORE PUSH1 0x4 ADD PUSH2 0x2D0B SWAP1 PUSH2 0x561B JUMP JUMPDEST PUSH1 0x40 MLOAD DUP1 SWAP2 SUB SWAP1 REVERT JUMPDEST PUSH1 0x1 PUSH1 0x2 PUSH1 0x0 DUP5 PUSH20 0xFFFFFFFFFFFFFFFFFFFFFFFFFFFFFFFFFFFFFFFF AND PUSH20 0xFFFFFFFFFFFFFFFFFFFFFFFFFFFFFFFFFFFFFFFF AND DUP2 MSTORE PUSH1 0x20 ADD SWAP1 DUP2 MSTORE PUSH1 0x20 ADD PUSH1 0x0 KECCAK256 PUSH1 0x0 PUSH2 0x100 EXP DUP2 SLOAD DUP2 PUSH1 0xFF MUL NOT AND SWAP1 DUP4 ISZERO ISZERO MUL OR SWAP1 SSTORE POP DUP1 PUSH1 0x4 PUSH1 0x0 DUP5 PUSH20 0xFFFFFFFFFFFFFFFFFFFFFFFFFFFFFFFFFFFFFFFF AND PUSH20 0xFFFFFFFFFFFFFFFFFFFFFFFFFFFFFFFFFFFFFFFF AND DUP2 MSTORE PUSH1 0x20 ADD SWAP1 DUP2 MSTORE PUSH1 0x20 ADD PUSH1 0x0 KECCAK256 DUP2 SWAP1 SSTORE POP PUSH32 0xC9655A80DB9D34E23DD9D483CB2B684E4761154A66F935D9B42C174892DD325 DUP3 DUP3 PUSH1 0x40 MLOAD PUSH2 0x2DE1 SWAP3 SWAP2 SWAP1 PUSH2 0x4C8B JUMP JUMPDEST PUSH1 0x40 MLOAD DUP1 SWAP2 SUB SWAP1 LOG1 POP POP JUMP JUMPDEST PUSH1 0x0 DUP1 PUSH1 0x0 SWAP1 SLOAD SWAP1 PUSH2 0x100 EXP SWAP1 DIV PUSH20 0xFFFFFFFFFFFFFFFFFFFFFFFFFFFFFFFFFFFFFFFF AND SWAP1 POP SWAP1 JUMP JUMPDEST PUSH2 0x2E1E PUSH2 0x39CE JUMP JUMPDEST PUSH1 0x1 DUP1 PUSH1 0x0 DUP4 PUSH20 0xFFFFFFFFFFFFFFFFFFFFFFFFFFFFFFFFFFFFFFFF AND PUSH20 0xFFFFFFFFFFFFFFFFFFFFFFFFFFFFFFFFFFFFFFFF AND DUP2 MSTORE PUSH1 0x20 ADD SWAP1 DUP2 MSTORE PUSH1 0x20 ADD PUSH1 0x0 KECCAK256 PUSH1 0x0 PUSH2 0x100 EXP DUP2 SLOAD DUP2 PUSH1 0xFF MUL NOT AND SWAP1 DUP4 ISZERO ISZERO MUL OR SWAP1 SSTORE POP PUSH32 0x7701426AAA4C0C88A30924A7ABA88DCE66B18C4020B54E4E19C9E0EB0ABC2992 DUP2 PUSH1 0x40 MLOAD PUSH2 0x2EA4 SWAP2 SWAP1 PUSH2 0x4928 JUMP JUMPDEST PUSH1 0x40 MLOAD DUP1 SWAP2 SUB SWAP1 LOG1 POP JUMP JUMPDEST PUSH1 0x0 DUP5 GT PUSH2 0x2EF2 JUMPI PUSH1 0x40 MLOAD PUSH32 0x8C379A000000000000000000000000000000000000000000000000000000000 DUP2 MSTORE PUSH1 0x4 ADD PUSH2 0x2EE9 SWAP1 PUSH2 0x5687 JUMP JUMPDEST PUSH1 0x40 MLOAD DUP1 SWAP2 SUB SWAP1 REVERT JUMPDEST PUSH1 0x4 PUSH1 0x0 DUP7 PUSH20 0xFFFFFFFFFFFFFFFFFFFFFFFFFFFFFFFFFFFFFFFF AND PUSH20 0xFFFFFFFFFFFFFFFFFFFFFFFFFFFFFFFFFFFFFFFF AND DUP2 MSTORE PUSH1 0x20 ADD SWAP1 DUP2 MSTORE PUSH1 0x20 ADD PUSH1 0x0 KECCAK256 SLOAD DUP5 LT ISZERO PUSH2 0x2F74 JUMPI PUSH1 0x40 MLOAD PUSH32 0x8C379A000000000000000000000000000000000000000000000000000000000 DUP2 MSTORE PUSH1 0x4 ADD PUSH2 0x2F6B SWAP1 PUSH2 0x56F3 JUMP JUMPDEST PUSH1 0x40 MLOAD DUP1 SWAP2 SUB SWAP1 REVERT JUMPDEST PUSH1 0x2 PUSH1 0x0 DUP7 PUSH20 0xFFFFFFFFFFFFFFFFFFFFFFFFFFFFFFFFFFFFFFFF AND PUSH20 0xFFFFFFFFFFFFFFFFFFFFFFFFFFFFFFFFFFFFFFFF AND DUP2 MSTORE PUSH1 0x20 ADD SWAP1 DUP2 MSTORE PUSH1 0x20 ADD PUSH1 0x0 KECCAK256 PUSH1 0x0 SWAP1 SLOAD SWAP1 PUSH2 0x100 EXP SWAP1 DIV PUSH1 0xFF AND PUSH2 0x3000 JUMPI PUSH1 0x40 MLOAD PUSH32 0x8C379A000000000000000000000000000000000000000000000000000000000 DUP2 MSTORE PUSH1 0x4 ADD PUSH2 0x2FF7 SWAP1 PUSH2 0x575F JUMP JUMPDEST PUSH1 0x40 MLOAD DUP1 SWAP2 SUB SWAP1 REVERT JUMPDEST PUSH1 0x0 DUP6 SWAP1 POP PUSH1 0x0 DUP1 SHL DUP3 SUB PUSH2 0x304A JUMPI PUSH1 0x40 MLOAD PUSH32 0x8C379A000000000000000000000000000000000000000000000000000000000 DUP2 MSTORE PUSH1 0x4 ADD PUSH2 0x3041 SWAP1 PUSH2 0x5429 JUMP JUMPDEST PUSH1 0x40 MLOAD DUP1 SWAP2 SUB SWAP1 REVERT JUMPDEST PUSH1 0x0 JUMPDEST PUSH1 0x3 DUP2 LT ISZERO PUSH2 0x3325 JUMPI PUSH1 0x1 PUSH1 0x0 DUP7 DUP4 PUSH1 0x3 DUP2 LT PUSH2 0x306D JUMPI PUSH2 0x306C PUSH2 0x4DDC JUMP JUMPDEST JUMPDEST PUSH1 0x20 MUL ADD MLOAD PUSH20 0xFFFFFFFFFFFFFFFFFFFFFFFFFFFFFFFFFFFFFFFF AND PUSH20 0xFFFFFFFFFFFFFFFFFFFFFFFFFFFFFFFFFFFFFFFF AND DUP2 MSTORE PUSH1 0x20 ADD SWAP1 DUP2 MSTORE PUSH1 0x20 ADD PUSH1 0x0 KECCAK256 PUSH1 0x0 SWAP1 SLOAD SWAP1 PUSH2 0x100 EXP SWAP1 DIV PUSH1 0xFF AND PUSH2 0x30F9 JUMPI PUSH1 0x40 MLOAD PUSH32 0x8C379A000000000000000000000000000000000000000000000000000000000 DUP2 MSTORE PUSH1 0x4 ADD PUSH2 0x30F0 SWAP1 PUSH2 0x5495 JUMP JUMPDEST PUSH1 0x40 MLOAD DUP1 SWAP2 SUB SWAP1 REVERT JUMPDEST PUSH1 0x0 DUP6 DUP3 PUSH1 0x3 DUP2 LT PUSH2 0x310E JUMPI PUSH2 0x310D PUSH2 0x4DDC JUMP JUMPDEST JUMPDEST PUSH1 0x20 MUL ADD MLOAD SWAP1 POP CALLER PUSH20 0xFFFFFFFFFFFFFFFFFFFFFFFFFFFFFFFFFFFFFFFF AND DUP2 PUSH20 0xFFFFFFFFFFFFFFFFFFFFFFFFFFFFFFFFFFFFFFFF AND PUSH4 0x6352211E DUP8 DUP6 PUSH1 0x3 DUP2 LT PUSH2 0x315B JUMPI PUSH2 0x315A PUSH2 0x4DDC JUMP JUMPDEST JUMPDEST PUSH1 0x20 MUL ADD MLOAD PUSH1 0x40 MLOAD DUP3 PUSH4 0xFFFFFFFF AND PUSH1 0xE0 SHL DUP2 MSTORE PUSH1 0x4 ADD PUSH2 0x317C SWAP2 SWAP1 PUSH2 0x45A9 JUMP JUMPDEST PUSH1 0x20 PUSH1 0x40 MLOAD DUP1 DUP4 SUB DUP2 DUP7 GAS STATICCALL ISZERO DUP1 ISZERO PUSH2 0x3199 JUMPI RETURNDATASIZE PUSH1 0x0 DUP1 RETURNDATACOPY RETURNDATASIZE PUSH1 0x0 REVERT JUMPDEST POP POP POP POP PUSH1 0x40 MLOAD RETURNDATASIZE PUSH1 0x1F NOT PUSH1 0x1F DUP3 ADD AND DUP3 ADD DUP1 PUSH1 0x40 MSTORE POP DUP2 ADD SWAP1 PUSH2 0x31BD SWAP2 SWAP1 PUSH2 0x54CA JUMP JUMPDEST PUSH20 0xFFFFFFFFFFFFFFFFFFFFFFFFFFFFFFFFFFFFFFFF AND EQ PUSH2 0x3213 JUMPI PUSH1 0x40 MLOAD PUSH32 0x8C379A000000000000000000000000000000000000000000000000000000000 DUP2 MSTORE PUSH1 0x4 ADD PUSH2 0x320A SWAP1 PUSH2 0x5543 JUMP JUMPDEST PUSH1 0x40 MLOAD DUP1 SWAP2 SUB SWAP1 REVERT JUMPDEST ADDRESS PUSH20 0xFFFFFFFFFFFFFFFFFFFFFFFFFFFFFFFFFFFFFFFF AND DUP2 PUSH20 0xFFFFFFFFFFFFFFFFFFFFFFFFFFFFFFFFFFFFFFFF AND PUSH4 0x81812FC DUP8 DUP6 PUSH1 0x3 DUP2 LT PUSH2 0x3259 JUMPI PUSH2 0x3258 PUSH2 0x4DDC JUMP JUMPDEST JUMPDEST PUSH1 0x20 MUL ADD MLOAD PUSH1 0x40 MLOAD DUP3 PUSH4 0xFFFFFFFF AND PUSH1 0xE0 SHL DUP2 MSTORE PUSH1 0x4 ADD PUSH2 0x327A SWAP2 SWAP1 PUSH2 0x45A9 JUMP JUMPDEST PUSH1 0x20 PUSH1 0x40 MLOAD DUP1 DUP4 SUB DUP2 DUP7 GAS STATICCALL ISZERO DUP1 ISZERO PUSH2 0x3297 JUMPI RETURNDATASIZE PUSH1 0x0 DUP1 RETURNDATACOPY RETURNDATASIZE PUSH1 0x0 REVERT JUMPDEST POP POP POP POP PUSH1 0x40 MLOAD RETURNDATASIZE PUSH1 0x1F NOT PUSH1 0x1F DUP3 ADD AND DUP3 ADD DUP1 PUSH1 0x40 MSTORE POP DUP2 ADD SWAP1 PUSH2 0x32BB SWAP2 SWAP1 PUSH2 0x54CA JUMP JUMPDEST PUSH20 0xFFFFFFFFFFFFFFFFFFFFFFFFFFFFFFFFFFFFFFFF AND EQ PUSH2 0x3311 JUMPI PUSH1 0x40 MLOAD PUSH32 0x8C379A000000000000000000000000000000000000000000000000000000000 DUP2 MSTORE PUSH1 0x4 ADD PUSH2 0x3308 SWAP1 PUSH2 0x55AF JUMP JUMPDEST PUSH1 0x40 MLOAD DUP1 SWAP2 SUB SWAP1 REVERT JUMPDEST POP DUP1 DUP1 PUSH2 0x331D SWAP1 PUSH2 0x4E42 JUMP JUMPDEST SWAP2 POP POP PUSH2 0x304D JUMP JUMPDEST POP PUSH2 0x3330 DUP5 DUP5 PUSH2 0x411A JUMP JUMPDEST PUSH1 0x0 JUMPDEST PUSH1 0x3 DUP2 LT ISZERO PUSH2 0x33EC JUMPI DUP5 DUP2 PUSH1 0x3 DUP2 LT PUSH2 0x334F JUMPI PUSH2 0x334E PUSH2 0x4DDC JUMP JUMPDEST JUMPDEST PUSH1 0x20 MUL ADD MLOAD PUSH20 0xFFFFFFFFFFFFFFFFFFFFFFFFFFFFFFFFFFFFFFFF AND PUSH4 0x23B872DD CALLER ADDRESS DUP8 DUP6 PUSH1 0x3 DUP2 LT PUSH2 0x3384 JUMPI PUSH2 0x3383 PUSH2 0x4DDC JUMP JUMPDEST JUMPDEST PUSH1 0x20 MUL ADD MLOAD PUSH1 0x40 MLOAD DUP5 PUSH4 0xFFFFFFFF AND PUSH1 0xE0 SHL DUP2 MSTORE PUSH1 0x4 ADD PUSH2 0x33A7 SWAP4 SWAP3 SWAP2 SWAP1 PUSH2 0x4E0B JUMP JUMPDEST PUSH1 0x0 PUSH1 0x40 MLOAD DUP1 DUP4 SUB DUP2 PUSH1 0x0 DUP8 DUP1 EXTCODESIZE ISZERO DUP1 ISZERO PUSH2 0x33C1 JUMPI PUSH1 0x0 DUP1 REVERT JUMPDEST POP GAS CALL ISZERO DUP1 ISZERO PUSH2 0x33D5 JUMPI RETURNDATASIZE PUSH1 0x0 DUP1 RETURNDATACOPY RETURNDATASIZE PUSH1 0x0 REVERT JUMPDEST POP POP POP POP DUP1 DUP1 PUSH2 0x33E4 SWAP1 PUSH2 0x4E42 JUMP JUMPDEST SWAP2 POP POP PUSH2 0x3333 JUMP JUMPDEST POP DUP1 PUSH20 0xFFFFFFFFFFFFFFFFFFFFFFFFFFFFFFFFFFFFFFFF AND PUSH4 0x23B872DD CALLER ADDRESS DUP9 PUSH1 0x40 MLOAD DUP5 PUSH4 0xFFFFFFFF AND PUSH1 0xE0 SHL DUP2 MSTORE PUSH1 0x4 ADD PUSH2 0x342A SWAP4 SWAP3 SWAP2 SWAP1 PUSH2 0x4E0B JUMP JUMPDEST PUSH1 0x20 PUSH1 0x40 MLOAD DUP1 DUP4 SUB DUP2 PUSH1 0x0 DUP8 GAS CALL ISZERO DUP1 ISZERO PUSH2 0x3449 JUMPI RETURNDATASIZE PUSH1 0x0 DUP1 RETURNDATACOPY RETURNDATASIZE PUSH1 0x0 REVERT JUMPDEST POP POP POP POP PUSH1 0x40 MLOAD RETURNDATASIZE PUSH1 0x1F NOT PUSH1 0x1F DUP3 ADD AND DUP3 ADD DUP1 PUSH1 0x40 MSTORE POP DUP2 ADD SWAP1 PUSH2 0x346D SWAP2 SWAP1 PUSH2 0x4DAF JUMP JUMPDEST POP PUSH1 0x0 PUSH1 0x7 PUSH1 0x0 DUP2 SLOAD DUP1 SWAP3 SWAP2 SWAP1 PUSH2 0x3483 SWAP1 PUSH2 0x4E42 JUMP JUMPDEST SWAP2 SWAP1 POP SSTORE SWAP1 POP PUSH1 0x40 MLOAD DUP1 PUSH2 0x220 ADD PUSH1 0x40 MSTORE DUP1 CALLER PUSH20 0xFFFFFFFFFFFFFFFFFFFFFFFFFFFFFFFFFFFFFFFF AND DUP2 MSTORE PUSH1 0x20 ADD DUP7 DUP2 MSTORE PUSH1 0x20 ADD DUP6 DUP2 MSTORE PUSH1 0x20 ADD DUP5 DUP2 MSTORE PUSH1 0x20 ADD PUSH1 0x40 MLOAD DUP1 PUSH1 0x60 ADD PUSH1 0x40 MSTORE DUP1 PUSH1 0x0 DUP2 MSTORE PUSH1 0x20 ADD PUSH1 0x0 DUP2 MSTORE PUSH1 0x20 ADD PUSH1 0x0 DUP2 MSTORE POP DUP2 MSTORE PUSH1 0x20 ADD PUSH1 0x0 ISZERO ISZERO DUP2 MSTORE PUSH1 0x20 ADD PUSH1 0x0 PUSH20 0xFFFFFFFFFFFFFFFFFFFFFFFFFFFFFFFFFFFFFFFF AND DUP2 MSTORE PUSH1 0x20 ADD PUSH1 0x40 MLOAD DUP1 PUSH1 0x60 ADD PUSH1 0x40 MSTORE DUP1 PUSH1 0x0 PUSH20 0xFFFFFFFFFFFFFFFFFFFFFFFFFFFFFFFFFFFFFFFF AND PUSH20 0xFFFFFFFFFFFFFFFFFFFFFFFFFFFFFFFFFFFFFFFF AND DUP2 MSTORE PUSH1 0x20 ADD PUSH1 0x0 PUSH20 0xFFFFFFFFFFFFFFFFFFFFFFFFFFFFFFFFFFFFFFFF AND PUSH20 0xFFFFFFFFFFFFFFFFFFFFFFFFFFFFFFFFFFFFFFFF AND DUP2 MSTORE PUSH1 0x20 ADD PUSH1 0x0 PUSH20 0xFFFFFFFFFFFFFFFFFFFFFFFFFFFFFFFFFFFFFFFF AND PUSH20 0xFFFFFFFFFFFFFFFFFFFFFFFFFFFFFFFFFFFFFFFF AND DUP2 MSTORE POP DUP2 MSTORE PUSH1 0x20 ADD PUSH1 0x40 MLOAD DUP1 PUSH1 0x60 ADD PUSH1 0x40 MSTORE DUP1 PUSH1 0x0 DUP2 MSTORE PUSH1 0x20 ADD PUSH1 0x0 DUP2 MSTORE PUSH1 0x20 ADD PUSH1 0x0 DUP2 MSTORE POP DUP2 MSTORE PUSH1 0x20 ADD PUSH1 0x0 DUP1 SHL DUP2 MSTORE PUSH1 0x20 ADD PUSH1 0x40 MLOAD DUP1 PUSH1 0x60 ADD PUSH1 0x40 MSTORE DUP1 PUSH1 0x0 DUP2 MSTORE PUSH1 0x20 ADD PUSH1 0x0 DUP2 MSTORE PUSH1 0x20 ADD PUSH1 0x0 DUP2 MSTORE POP DUP2 MSTORE PUSH1 0x20 ADD PUSH1 0x0 ISZERO ISZERO DUP2 MSTORE PUSH1 0x20 ADD DUP4 PUSH20 0xFFFFFFFFFFFFFFFFFFFFFFFFFFFFFFFFFFFFFFFF AND DUP2 MSTORE PUSH1 0x20 ADD DUP8 DUP2 MSTORE PUSH1 0x20 ADD TIMESTAMP DUP2 MSTORE PUSH1 0x20 ADD PUSH1 0x0 DUP2 MSTORE PUSH1 0x20 ADD PUSH1 0x1 ISZERO ISZERO DUP2 MSTORE POP PUSH1 0x6 PUSH1 0x0 DUP4 DUP2 MSTORE PUSH1 0x20 ADD SWAP1 DUP2 MSTORE PUSH1 0x20 ADD PUSH1 0x0 KECCAK256 PUSH1 0x0 DUP3 ADD MLOAD DUP2 PUSH1 0x0 ADD PUSH1 0x0 PUSH2 0x100 EXP DUP2 SLOAD DUP2 PUSH20 0xFFFFFFFFFFFFFFFFFFFFFFFFFFFFFFFFFFFFFFFF MUL NOT AND SWAP1 DUP4 PUSH20 0xFFFFFFFFFFFFFFFFFFFFFFFFFFFFFFFFFFFFFFFF AND MUL OR SWAP1 SSTORE POP PUSH1 0x20 DUP3 ADD MLOAD DUP2 PUSH1 0x1 ADD SWAP1 PUSH1 0x3 PUSH2 0x36B2 SWAP3 SWAP2 SWAP1 PUSH2 0x439A JUMP JUMPDEST POP PUSH1 0x40 DUP3 ADD MLOAD DUP2 PUSH1 0x4 ADD SWAP1 PUSH1 0x3 PUSH2 0x36CA SWAP3 SWAP2 SWAP1 PUSH2 0x435A JUMP JUMPDEST POP PUSH1 0x60 DUP3 ADD MLOAD DUP2 PUSH1 0x7 ADD SSTORE PUSH1 0x80 DUP3 ADD MLOAD DUP2 PUSH1 0x8 ADD SWAP1 PUSH1 0x3 PUSH2 0x36EC SWAP3 SWAP2 SWAP1 PUSH2 0x435A JUMP JUMPDEST POP PUSH1 0xA0 DUP3 ADD MLOAD DUP2 PUSH1 0xB ADD PUSH1 0x0 PUSH2 0x100 EXP DUP2 SLOAD DUP2 PUSH1 0xFF MUL NOT AND SWAP1 DUP4 ISZERO ISZERO MUL OR SWAP1 SSTORE POP PUSH1 0xC0 DUP3 ADD MLOAD DUP2 PUSH1 0xB ADD PUSH1 0x1 PUSH2 0x100 EXP DUP2 SLOAD DUP2 PUSH20 0xFFFFFFFFFFFFFFFFFFFFFFFFFFFFFFFFFFFFFFFF MUL NOT AND SWAP1 DUP4 PUSH20 0xFFFFFFFFFFFFFFFFFFFFFFFFFFFFFFFFFFFFFFFF AND MUL OR SWAP1 SSTORE POP PUSH1 0xE0 DUP3 ADD MLOAD DUP2 PUSH1 0xC ADD SWAP1 PUSH1 0x3 PUSH2 0x376B SWAP3 SWAP2 SWAP1 PUSH2 0x439A JUMP JUMPDEST POP PUSH2 0x100 DUP3 ADD MLOAD DUP2 PUSH1 0xF ADD SWAP1 PUSH1 0x3 PUSH2 0x3784 SWAP3 SWAP2 SWAP1 PUSH2 0x435A JUMP JUMPDEST POP PUSH2 0x120 DUP3 ADD MLOAD DUP2 PUSH1 0x12 ADD SSTORE PUSH2 0x140 DUP3 ADD MLOAD DUP2 PUSH1 0x13 ADD SWAP1 PUSH1 0x3 PUSH2 0x37A8 SWAP3 SWAP2 SWAP1 PUSH2 0x435A JUMP JUMPDEST POP PUSH2 0x160 DUP3 ADD MLOAD DUP2 PUSH1 0x16 ADD PUSH1 0x0 PUSH2 0x100 EXP DUP2 SLOAD DUP2 PUSH1 0xFF MUL NOT AND SWAP1 DUP4 ISZERO ISZERO MUL OR SWAP1 SSTORE POP PUSH2 0x180 DUP3 ADD MLOAD DUP2 PUSH1 0x16 ADD PUSH1 0x1 PUSH2 0x100 EXP DUP2 SLOAD DUP2 PUSH20 0xFFFFFFFFFFFFFFFFFFFFFFFFFFFFFFFFFFFFFFFF MUL NOT AND SWAP1 DUP4 PUSH20 0xFFFFFFFFFFFFFFFFFFFFFFFFFFFFFFFFFFFFFFFF AND MUL OR SWAP1 SSTORE POP PUSH2 0x1A0 DUP3 ADD MLOAD DUP2 PUSH1 0x17 ADD SSTORE PUSH2 0x1C0 DUP3 ADD MLOAD DUP2 PUSH1 0x18 ADD SSTORE PUSH2 0x1E0 DUP3 ADD MLOAD DUP2 PUSH1 0x19 ADD SSTORE PUSH2 0x200 DUP3 ADD MLOAD DUP2 PUSH1 0x1A ADD PUSH1 0x0 PUSH2 0x100 EXP DUP2 SLOAD DUP2 PUSH1 0xFF MUL NOT AND SWAP1 DUP4 ISZERO ISZERO MUL OR SWAP1 SSTORE POP SWAP1 POP POP PUSH32 0x6200407C0EA392B8107B21A9BE480ACD41FDA186D04BED28CC7DA2D4B53D56E2 DUP2 CALLER DUP10 DUP10 PUSH1 0x40 MLOAD PUSH2 0x388C SWAP5 SWAP4 SWAP3 SWAP2 SWAP1 PUSH2 0x577F JUMP JUMPDEST PUSH1 0x40 MLOAD DUP1 SWAP2 SUB SWAP1 LOG1 POP POP POP POP POP POP POP JUMP JUMPDEST PUSH1 0x7 SLOAD DUP2 JUMP JUMPDEST PUSH2 0x38AB PUSH2 0x39CE JUMP JUMPDEST PUSH1 0x1 PUSH1 0x3 DUP3 PUSH1 0x40 MLOAD PUSH2 0x38BD SWAP2 SWAP1 PUSH2 0x5835 JUMP JUMPDEST SWAP1 DUP2 MSTORE PUSH1 0x20 ADD PUSH1 0x40 MLOAD DUP1 SWAP2 SUB SWAP1 KECCAK256 PUSH1 0x0 PUSH2 0x100 EXP DUP2 SLOAD DUP2 PUSH1 0xFF MUL NOT AND SWAP1 DUP4 ISZERO ISZERO MUL OR SWAP1 SSTORE POP PUSH32 0x8A241D3BF6DEB30E6D35A55B4CF6074A0B298B83C3EE264A18C8CFC4FEEA471D DUP2 PUSH1 0x40 MLOAD PUSH2 0x3911 SWAP2 SWAP1 PUSH2 0x5885 JUMP JUMPDEST PUSH1 0x40 MLOAD DUP1 SWAP2 SUB SWAP1 LOG1 POP JUMP JUMPDEST PUSH3 0x93A80 DUP2 JUMP JUMPDEST PUSH1 0x2 DUP2 JUMP JUMPDEST PUSH1 0x1 PUSH1 0x20 MSTORE DUP1 PUSH1 0x0 MSTORE PUSH1 0x40 PUSH1 0x0 KECCAK256 PUSH1 0x0 SWAP2 POP SLOAD SWAP1 PUSH2 0x100 EXP SWAP1 DIV PUSH1 0xFF AND DUP2 JUMP JUMPDEST PUSH2 0x3950 PUSH2 0x39CE JUMP JUMPDEST PUSH1 0x0 PUSH20 0xFFFFFFFFFFFFFFFFFFFFFFFFFFFFFFFFFFFFFFFF AND DUP2 PUSH20 0xFFFFFFFFFFFFFFFFFFFFFFFFFFFFFFFFFFFFFFFF AND SUB PUSH2 0x39C2 JUMPI PUSH1 0x0 PUSH1 0x40 MLOAD PUSH32 0x1E4FBDF700000000000000000000000000000000000000000000000000000000 DUP2 MSTORE PUSH1 0x4 ADD PUSH2 0x39B9 SWAP2 SWAP1 PUSH2 0x4928 JUMP JUMPDEST PUSH1 0x40 MLOAD DUP1 SWAP2 SUB SWAP1 REVERT JUMPDEST PUSH2 0x39CB DUP2 PUSH2 0x4056 JUMP JUMPDEST POP JUMP JUMPDEST PUSH2 0x39D6 PUSH2 0x4330 JUMP JUMPDEST PUSH20 0xFFFFFFFFFFFFFFFFFFFFFFFFFFFFFFFFFFFFFFFF AND PUSH2 0x39F4 PUSH2 0x2DED JUMP JUMPDEST PUSH20 0xFFFFFFFFFFFFFFFFFFFFFFFFFFFFFFFFFFFFFFFF AND EQ PUSH2 0x3A53 JUMPI PUSH2 0x3A17 PUSH2 0x4330 JUMP JUMPDEST PUSH1 0x40 MLOAD PUSH32 0x118CDAA700000000000000000000000000000000000000000000000000000000 DUP2 MSTORE PUSH1 0x4 ADD PUSH2 0x3A4A SWAP2 SWAP1 PUSH2 0x4928 JUMP JUMPDEST PUSH1 0x40 MLOAD DUP1 SWAP2 SUB SWAP1 REVERT JUMPDEST JUMP JUMPDEST PUSH2 0x3A5D PUSH2 0x4417 JUMP JUMPDEST PUSH1 0x0 DUP6 SWAP1 POP PUSH1 0x0 DUP5 SWAP1 POP PUSH1 0x0 DUP3 PUSH20 0xFFFFFFFFFFFFFFFFFFFFFFFFFFFFFFFFFFFFFFFF AND PUSH4 0x8BBEE1F3 DUP9 PUSH1 0x40 MLOAD DUP3 PUSH4 0xFFFFFFFF AND PUSH1 0xE0 SHL DUP2 MSTORE PUSH1 0x4 ADD PUSH2 0x3AA2 SWAP2 SWAP1 PUSH2 0x45A9 JUMP JUMPDEST PUSH1 0x20 PUSH1 0x40 MLOAD DUP1 DUP4 SUB DUP2 DUP7 GAS STATICCALL ISZERO DUP1 ISZERO PUSH2 0x3ABF JUMPI RETURNDATASIZE PUSH1 0x0 DUP1 RETURNDATACOPY RETURNDATASIZE PUSH1 0x0 REVERT JUMPDEST POP POP POP POP PUSH1 0x40 MLOAD RETURNDATASIZE PUSH1 0x1F NOT PUSH1 0x1F DUP3 ADD AND DUP3 ADD DUP1 PUSH1 0x40 MSTORE POP DUP2 ADD SWAP1 PUSH2 0x3AE3 SWAP2 SWAP1 PUSH2 0x58BC JUMP JUMPDEST DUP4 PUSH20 0xFFFFFFFFFFFFFFFFFFFFFFFFFFFFFFFFFFFFFFFF AND PUSH4 0xCFF840F0 DUP10 PUSH1 0x40 MLOAD DUP3 PUSH4 0xFFFFFFFF AND PUSH1 0xE0 SHL DUP2 MSTORE PUSH1 0x4 ADD PUSH2 0x3B1C SWAP2 SWAP1 PUSH2 0x45A9 JUMP JUMPDEST PUSH1 0x20 PUSH1 0x40 MLOAD DUP1 DUP4 SUB DUP2 DUP7 GAS STATICCALL ISZERO DUP1 ISZERO PUSH2 0x3B39 JUMPI RETURNDATASIZE PUSH1 0x0 DUP1 RETURNDATACOPY RETURNDATASIZE PUSH1 0x0 REVERT JUMPDEST POP POP POP POP PUSH1 0x40 MLOAD RETURNDATASIZE PUSH1 0x1F NOT PUSH1 0x1F DUP3 ADD AND DUP3 ADD DUP1 PUSH1 0x40 MSTORE POP DUP2 ADD SWAP1 PUSH2 0x3B5D SWAP2 SWAP1 PUSH2 0x58BC JUMP JUMPDEST PUSH2 0x3B67 SWAP2 SWAP1 PUSH2 0x4D4F JUMP JUMPDEST SWAP1 POP PUSH1 0x0 DUP4 PUSH20 0xFFFFFFFFFFFFFFFFFFFFFFFFFFFFFFFFFFFFFFFF AND PUSH4 0x69D1CC92 DUP10 PUSH1 0x40 MLOAD DUP3 PUSH4 0xFFFFFFFF AND PUSH1 0xE0 SHL DUP2 MSTORE PUSH1 0x4 ADD PUSH2 0x3BA4 SWAP2 SWAP1 PUSH2 0x45A9 JUMP JUMPDEST PUSH1 0x20 PUSH1 0x40 MLOAD DUP1 DUP4 SUB DUP2 DUP7 GAS STATICCALL ISZERO DUP1 ISZERO PUSH2 0x3BC1 JUMPI RETURNDATASIZE PUSH1 0x0 DUP1 RETURNDATACOPY RETURNDATASIZE PUSH1 0x0 REVERT JUMPDEST POP POP POP POP PUSH1 0x40 MLOAD RETURNDATASIZE PUSH1 0x1F NOT PUSH1 0x1F DUP3 ADD AND DUP3 ADD DUP1 PUSH1 0x40 MSTORE POP DUP2 ADD SWAP1 PUSH2 0x3BE5 SWAP2 SWAP1 PUSH2 0x58BC JUMP JUMPDEST DUP5 PUSH20 0xFFFFFFFFFFFFFFFFFFFFFFFFFFFFFFFFFFFFFFFF AND PUSH4 0xEB22DAA3 DUP11 PUSH1 0x40 MLOAD DUP3 PUSH4 0xFFFFFFFF AND PUSH1 0xE0 SHL DUP2 MSTORE PUSH1 0x4 ADD PUSH2 0x3C1E SWAP2 SWAP1 PUSH2 0x45A9 JUMP JUMPDEST PUSH1 0x20 PUSH1 0x40 MLOAD DUP1 DUP4 SUB DUP2 DUP7 GAS STATICCALL ISZERO DUP1 ISZERO PUSH2 0x3C3B JUMPI RETURNDATASIZE PUSH1 0x0 DUP1 RETURNDATACOPY RETURNDATASIZE PUSH1 0x0 REVERT JUMPDEST POP POP POP POP PUSH1 0x40 MLOAD RETURNDATASIZE PUSH1 0x1F NOT PUSH1 0x1F DUP3 ADD AND DUP3 ADD DUP1 PUSH1 0x40 MSTORE POP DUP2 ADD SWAP1 PUSH2 0x3C5F SWAP2 SWAP1 PUSH2 0x58BC JUMP JUMPDEST PUSH2 0x3C69 SWAP2 SWAP1 PUSH2 0x4D4F JUMP JUMPDEST SWAP1 POP PUSH1 0x0 DUP5 PUSH20 0xFFFFFFFFFFFFFFFFFFFFFFFFFFFFFFFFFFFFFFFF AND PUSH4 0x252079B2 DUP11 PUSH1 0x40 MLOAD DUP3 PUSH4 0xFFFFFFFF AND PUSH1 0xE0 SHL DUP2 MSTORE PUSH1 0x4 ADD PUSH2 0x3CA6 SWAP2 SWAP1 PUSH2 0x45A9 JUMP JUMPDEST PUSH1 0x20 PUSH1 0x40 MLOAD DUP1 DUP4 SUB DUP2 DUP7 GAS STATICCALL ISZERO DUP1 ISZERO PUSH2 0x3CC3 JUMPI RETURNDATASIZE PUSH1 0x0 DUP1 RETURNDATACOPY RETURNDATASIZE PUSH1 0x0 REVERT JUMPDEST POP POP POP POP PUSH1 0x40 MLOAD RETURNDATASIZE PUSH1 0x1F NOT PUSH1 0x1F DUP3 ADD AND DUP3 ADD DUP1 PUSH1 0x40 MSTORE POP DUP2 ADD SWAP1 PUSH2 0x3CE7 SWAP2 SWAP1 PUSH2 0x58BC JUMP JUMPDEST SWAP1 POP PUSH1 0x0 DUP5 PUSH20 0xFFFFFFFFFFFFFFFFFFFFFFFFFFFFFFFFFFFFFFFF AND PUSH4 0x8BBEE1F3 DUP10 PUSH1 0x40 MLOAD DUP3 PUSH4 0xFFFFFFFF AND PUSH1 0xE0 SHL DUP2 MSTORE PUSH1 0x4 ADD PUSH2 0x3D24 SWAP2 SWAP1 PUSH2 0x45A9 JUMP JUMPDEST PUSH1 0x20 PUSH1 0x40 MLOAD DUP1 DUP4 SUB DUP2 DUP7 GAS STATICCALL ISZERO DUP1 ISZERO PUSH2 0x3D41 JUMPI RETURNDATASIZE PUSH1 0x0 DUP1 RETURNDATACOPY RETURNDATASIZE PUSH1 0x0 REVERT JUMPDEST POP POP POP POP PUSH1 0x40 MLOAD RETURNDATASIZE PUSH1 0x1F NOT PUSH1 0x1F DUP3 ADD AND DUP3 ADD DUP1 PUSH1 0x40 MSTORE POP DUP2 ADD SWAP1 PUSH2 0x3D65 SWAP2 SWAP1 PUSH2 0x58BC JUMP JUMPDEST DUP6 PUSH20 0xFFFFFFFFFFFFFFFFFFFFFFFFFFFFFFFFFFFFFFFF AND PUSH4 0xCFF840F0 DUP11 PUSH1 0x40 MLOAD DUP3 PUSH4 0xFFFFFFFF AND PUSH1 0xE0 SHL DUP2 MSTORE PUSH1 0x4 ADD PUSH2 0x3D9E SWAP2 SWAP1 PUSH2 0x45A9 JUMP JUMPDEST PUSH1 0x20 PUSH1 0x40 MLOAD DUP1 DUP4 SUB DUP2 DUP7 GAS STATICCALL ISZERO DUP1 ISZERO PUSH2 0x3DBB JUMPI RETURNDATASIZE PUSH1 0x0 DUP1 RETURNDATACOPY RETURNDATASIZE PUSH1 0x0 REVERT JUMPDEST POP POP POP POP PUSH1 0x40 MLOAD RETURNDATASIZE PUSH1 0x1F NOT PUSH1 0x1F DUP3 ADD AND DUP3 ADD DUP1 PUSH1 0x40 MSTORE POP DUP2 ADD SWAP1 PUSH2 0x3DDF SWAP2 SWAP1 PUSH2 0x58BC JUMP JUMPDEST PUSH2 0x3DE9 SWAP2 SWAP1 PUSH2 0x4D4F JUMP JUMPDEST SWAP1 POP PUSH1 0x0 DUP6 PUSH20 0xFFFFFFFFFFFFFFFFFFFFFFFFFFFFFFFFFFFFFFFF AND PUSH4 0x69D1CC92 DUP11 PUSH1 0x40 MLOAD DUP3 PUSH4 0xFFFFFFFF AND PUSH1 0xE0 SHL DUP2 MSTORE PUSH1 0x4 ADD PUSH2 0x3E26 SWAP2 SWAP1 PUSH2 0x45A9 JUMP JUMPDEST PUSH1 0x20 PUSH1 0x40 MLOAD DUP1 DUP4 SUB DUP2 DUP7 GAS STATICCALL ISZERO DUP1 ISZERO PUSH2 0x3E43 JUMPI RETURNDATASIZE PUSH1 0x0 DUP1 RETURNDATACOPY RETURNDATASIZE PUSH1 0x0 REVERT JUMPDEST POP POP POP POP PUSH1 0x40 MLOAD RETURNDATASIZE PUSH1 0x1F NOT PUSH1 0x1F DUP3 ADD AND DUP3 ADD DUP1 PUSH1 0x40 MSTORE POP DUP2 ADD SWAP1 PUSH2 0x3E67 SWAP2 SWAP1 PUSH2 0x58BC JUMP JUMPDEST DUP7 PUSH20 0xFFFFFFFFFFFFFFFFFFFFFFFFFFFFFFFFFFFFFFFF AND PUSH4 0xEB22DAA3 DUP12 PUSH1 0x40 MLOAD DUP3 PUSH4 0xFFFFFFFF AND PUSH1 0xE0 SHL DUP2 MSTORE PUSH1 0x4 ADD PUSH2 0x3EA0 SWAP2 SWAP1 PUSH2 0x45A9 JUMP JUMPDEST PUSH1 0x20 PUSH1 0x40 MLOAD DUP1 DUP4 SUB DUP2 DUP7 GAS STATICCALL ISZERO DUP1 ISZERO PUSH2 0x3EBD JUMPI RETURNDATASIZE PUSH1 0x0 DUP1 RETURNDATACOPY RETURNDATASIZE PUSH1 0x0 REVERT JUMPDEST POP POP POP POP PUSH1 0x40 MLOAD RETURNDATASIZE PUSH1 0x1F NOT PUSH1 0x1F DUP3 ADD AND DUP3 ADD DUP1 PUSH1 0x40 MSTORE POP DUP2 ADD SWAP1 PUSH2 0x3EE1 SWAP2 SWAP1 PUSH2 0x58BC JUMP JUMPDEST PUSH2 0x3EEB SWAP2 SWAP1 PUSH2 0x4D4F JUMP JUMPDEST SWAP1 POP PUSH1 0x0 DUP7 PUSH20 0xFFFFFFFFFFFFFFFFFFFFFFFFFFFFFFFFFFFFFFFF AND PUSH4 0x252079B2 DUP12 PUSH1 0x40 MLOAD DUP3 PUSH4 0xFFFFFFFF AND PUSH1 0xE0 SHL DUP2 MSTORE PUSH1 0x4 ADD PUSH2 0x3F28 SWAP2 SWAP1 PUSH2 0x45A9 JUMP JUMPDEST PUSH1 0x20 PUSH1 0x40 MLOAD DUP1 DUP4 SUB DUP2 DUP7 GAS STATICCALL ISZERO DUP1 ISZERO PUSH2 0x3F45 JUMPI RETURNDATASIZE PUSH1 0x0 DUP1 RETURNDATACOPY RETURNDATASIZE PUSH1 0x0 REVERT JUMPDEST POP POP POP POP PUSH1 0x40 MLOAD RETURNDATASIZE PUSH1 0x1F NOT PUSH1 0x1F DUP3 ADD AND DUP3 ADD DUP1 PUSH1 0x40 MSTORE POP DUP2 ADD SWAP1 PUSH2 0x3F69 SWAP2 SWAP1 PUSH2 0x58BC JUMP JUMPDEST SWAP1 POP PUSH1 0x0 DUP6 DUP5 GT PUSH2 0x3F7B JUMPI PUSH1 0x0 PUSH2 0x3F88 JUMP JUMPDEST DUP6 DUP5 PUSH2 0x3F87 SWAP2 SWAP1 PUSH2 0x5089 JUMP JUMPDEST JUMPDEST SWAP1 POP PUSH1 0x0 DUP2 DUP7 GT PUSH2 0x3F9A JUMPI PUSH1 0x0 PUSH2 0x3FA7 JUMP JUMPDEST DUP2 DUP7 PUSH2 0x3FA6 SWAP2 SWAP1 PUSH2 0x5089 JUMP JUMPDEST JUMPDEST SWAP1 POP PUSH1 0x0 DUP5 DUP10 GT PUSH2 0x3FB9 JUMPI PUSH1 0x0 PUSH2 0x3FC6 JUMP JUMPDEST DUP5 DUP10 PUSH2 0x3FC5 SWAP2 SWAP1 PUSH2 0x5089 JUMP JUMPDEST JUMPDEST SWAP1 POP PUSH1 0x0 DUP2 DUP6 GT PUSH2 0x3FD8 JUMPI PUSH1 0x0 PUSH2 0x3FE5 JUMP JUMPDEST DUP2 DUP6 PUSH2 0x3FE4 SWAP2 SWAP1 PUSH2 0x5089 JUMP JUMPDEST JUMPDEST SWAP1 POP PUSH1 0x0 DUP1 PUSH1 0x0 DUP4 DUP7 GT ISZERO PUSH2 0x3FFD JUMPI PUSH1 0x1 SWAP3 POP PUSH2 0x400B JUMP JUMPDEST DUP6 DUP5 GT ISZERO PUSH2 0x400A JUMPI PUSH1 0x1 SWAP2 POP JUMPDEST JUMPDEST DUP4 DUP7 PUSH2 0x4017 SWAP2 SWAP1 PUSH2 0x58E9 JUMP JUMPDEST SWAP1 POP PUSH1 0x40 MLOAD DUP1 PUSH1 0x60 ADD PUSH1 0x40 MSTORE DUP1 DUP5 PUSH1 0xFF AND DUP2 MSTORE PUSH1 0x20 ADD DUP4 PUSH1 0xFF AND DUP2 MSTORE PUSH1 0x20 ADD DUP3 PUSH1 0x1 SIGNEXTEND DUP2 MSTORE POP SWAP16 POP POP POP POP POP POP POP POP POP POP POP POP POP POP POP POP SWAP5 SWAP4 POP POP POP POP JUMP JUMPDEST PUSH1 0x0 DUP1 PUSH1 0x0 SWAP1 SLOAD SWAP1 PUSH2 0x100 EXP SWAP1 DIV PUSH20 0xFFFFFFFFFFFFFFFFFFFFFFFFFFFFFFFFFFFFFFFF AND SWAP1 POP DUP2 PUSH1 0x0 DUP1 PUSH2 0x100 EXP DUP2 SLOAD DUP2 PUSH20 0xFFFFFFFFFFFFFFFFFFFFFFFFFFFFFFFFFFFFFFFF MUL NOT AND SWAP1 DUP4 PUSH20 0xFFFFFFFFFFFFFFFFFFFFFFFFFFFFFFFFFFFFFFFF AND MUL OR SWAP1 SSTORE POP DUP2 PUSH20 0xFFFFFFFFFFFFFFFFFFFFFFFFFFFFFFFFFFFFFFFF AND DUP2 PUSH20 0xFFFFFFFFFFFFFFFFFFFFFFFFFFFFFFFFFFFFFFFF AND PUSH32 0x8BE0079C531659141344CD1FD0A4F28419497F9722A3DAAFE3B4186F6B6457E0 PUSH1 0x40 MLOAD PUSH1 0x40 MLOAD DUP1 SWAP2 SUB SWAP1 LOG3 POP POP JUMP JUMPDEST PUSH2 0x4122 PUSH2 0x4441 JUMP JUMPDEST PUSH1 0x0 JUMPDEST PUSH1 0x3 DUP2 LT ISZERO PUSH2 0x4209 JUMPI DUP4 DUP2 PUSH1 0x3 DUP2 LT PUSH2 0x4141 JUMPI PUSH2 0x4140 PUSH2 0x4DDC JUMP JUMPDEST JUMPDEST PUSH1 0x20 MUL ADD MLOAD PUSH20 0xFFFFFFFFFFFFFFFFFFFFFFFFFFFFFFFFFFFFFFFF AND PUSH4 0xE8D887D3 DUP5 DUP4 PUSH1 0x3 DUP2 LT PUSH2 0x4174 JUMPI PUSH2 0x4173 PUSH2 0x4DDC JUMP JUMPDEST JUMPDEST PUSH1 0x20 MUL ADD MLOAD PUSH1 0x40 MLOAD DUP3 PUSH4 0xFFFFFFFF AND PUSH1 0xE0 SHL DUP2 MSTORE PUSH1 0x4 ADD PUSH2 0x4195 SWAP2 SWAP1 PUSH2 0x45A9 JUMP JUMPDEST PUSH1 0x0 PUSH1 0x40 MLOAD DUP1 DUP4 SUB DUP2 DUP7 GAS STATICCALL ISZERO DUP1 ISZERO PUSH2 0x41B2 JUMPI RETURNDATASIZE PUSH1 0x0 DUP1 RETURNDATACOPY RETURNDATASIZE PUSH1 0x0 REVERT JUMPDEST POP POP POP POP PUSH1 0x40 MLOAD RETURNDATASIZE PUSH1 0x0 DUP3 RETURNDATACOPY RETURNDATASIZE PUSH1 0x1F NOT PUSH1 0x1F DUP3 ADD AND DUP3 ADD DUP1 PUSH1 0x40 MSTORE POP DUP2 ADD SWAP1 PUSH2 0x41DB SWAP2 SWAP1 PUSH2 0x599C JUMP JUMPDEST DUP3 DUP3 PUSH1 0x3 DUP2 LT PUSH2 0x41EE JUMPI PUSH2 0x41ED PUSH2 0x4DDC JUMP JUMPDEST JUMPDEST PUSH1 0x20 MUL ADD DUP2 SWAP1 MSTORE POP DUP1 DUP1 PUSH2 0x4201 SWAP1 PUSH2 0x4E42 JUMP JUMPDEST SWAP2 POP POP PUSH2 0x4125 JUMP JUMPDEST POP PUSH1 0x0 JUMPDEST PUSH1 0x3 DUP2 LT ISZERO PUSH2 0x432A JUMPI PUSH1 0x3 DUP3 DUP3 PUSH1 0x3 DUP2 LT PUSH2 0x422B JUMPI PUSH2 0x422A PUSH2 0x4DDC JUMP JUMPDEST JUMPDEST PUSH1 0x20 MUL ADD MLOAD PUSH1 0x40 MLOAD PUSH2 0x423D SWAP2 SWAP1 PUSH2 0x5835 JUMP JUMPDEST SWAP1 DUP2 MSTORE PUSH1 0x20 ADD PUSH1 0x40 MLOAD DUP1 SWAP2 SUB SWAP1 KECCAK256 PUSH1 0x0 SWAP1 SLOAD SWAP1 PUSH2 0x100 EXP SWAP1 DIV PUSH1 0xFF AND ISZERO PUSH2 0x4317 JUMPI PUSH1 0x0 DUP1 JUMPDEST PUSH1 0x3 DUP2 LT ISZERO PUSH2 0x42D0 JUMPI DUP4 DUP4 PUSH1 0x3 DUP2 LT PUSH2 0x427E JUMPI PUSH2 0x427D PUSH2 0x4DDC JUMP JUMPDEST JUMPDEST PUSH1 0x20 MUL ADD MLOAD DUP1 MLOAD SWAP1 PUSH1 0x20 ADD KECCAK256 DUP5 DUP3 PUSH1 0x3 DUP2 LT PUSH2 0x429D JUMPI PUSH2 0x429C PUSH2 0x4DDC JUMP JUMPDEST JUMPDEST PUSH1 0x20 MUL ADD MLOAD DUP1 MLOAD SWAP1 PUSH1 0x20 ADD KECCAK256 SUB PUSH2 0x42BD JUMPI DUP2 DUP1 PUSH2 0x42B9 SWAP1 PUSH2 0x4E42 JUMP JUMPDEST SWAP3 POP POP JUMPDEST DUP1 DUP1 PUSH2 0x42C8 SWAP1 PUSH2 0x4E42 JUMP JUMPDEST SWAP2 POP POP PUSH2 0x4262 JUMP JUMPDEST POP PUSH1 0x1 DUP2 GT ISZERO PUSH2 0x4315 JUMPI PUSH1 0x40 MLOAD PUSH32 0x8C379A000000000000000000000000000000000000000000000000000000000 DUP2 MSTORE PUSH1 0x4 ADD PUSH2 0x430C SWAP1 PUSH2 0x5A31 JUMP JUMPDEST PUSH1 0x40 MLOAD DUP1 SWAP2 SUB SWAP1 REVERT JUMPDEST POP JUMPDEST DUP1 DUP1 PUSH2 0x4322 SWAP1 PUSH2 0x4E42 JUMP JUMPDEST SWAP2 POP POP PUSH2 0x420D JUMP JUMPDEST POP POP POP POP JUMP JUMPDEST PUSH1 0x0 CALLER SWAP1 POP SWAP1 JUMP JUMPDEST PUSH1 0x40 MLOAD DUP1 PUSH1 0x60 ADD PUSH1 0x40 MSTORE DUP1 PUSH1 0x3 SWAP1 PUSH1 0x20 DUP3 MUL DUP1 CALLDATASIZE DUP4 CALLDATACOPY DUP1 DUP3 ADD SWAP2 POP POP SWAP1 POP POP SWAP1 JUMP JUMPDEST DUP3 PUSH1 0x3 DUP2 ADD SWAP3 DUP3 ISZERO PUSH2 0x4389 JUMPI SWAP2 PUSH1 0x20 MUL DUP3 ADD JUMPDEST DUP3 DUP2 GT ISZERO PUSH2 0x4388 JUMPI DUP3 MLOAD DUP3 SSTORE SWAP2 PUSH1 0x20 ADD SWAP2 SWAP1 PUSH1 0x1 ADD SWAP1 PUSH2 0x436D JUMP JUMPDEST JUMPDEST POP SWAP1 POP PUSH2 0x4396 SWAP2 SWAP1 PUSH2 0x4468 JUMP JUMPDEST POP SWAP1 JUMP JUMPDEST DUP3 PUSH1 0x3 DUP2 ADD SWAP3 DUP3 ISZERO PUSH2 0x4406 JUMPI SWAP2 PUSH1 0x20 MUL DUP3 ADD JUMPDEST DUP3 DUP2 GT ISZERO PUSH2 0x4405 JUMPI DUP3 MLOAD DUP3 PUSH1 0x0 PUSH2 0x100 EXP DUP2 SLOAD DUP2 PUSH20 0xFFFFFFFFFFFFFFFFFFFFFFFFFFFFFFFFFFFFFFFF MUL NOT AND SWAP1 DUP4 PUSH20 0xFFFFFFFFFFFFFFFFFFFFFFFFFFFFFFFFFFFFFFFF AND MUL OR SWAP1 SSTORE POP SWAP2 PUSH1 0x20 ADD SWAP2 SWAP1 PUSH1 0x1 ADD SWAP1 PUSH2 0x43AD JUMP JUMPDEST JUMPDEST POP SWAP1 POP PUSH2 0x4413 SWAP2 SWAP1 PUSH2 0x4468 JUMP JUMPDEST POP SWAP1 JUMP JUMPDEST PUSH1 0x40 MLOAD DUP1 PUSH1 0x60 ADD PUSH1 0x40 MSTORE DUP1 PUSH1 0x0 PUSH1 0xFF AND DUP2 MSTORE PUSH1 0x20 ADD PUSH1 0x0 PUSH1 0xFF AND DUP2 MSTORE PUSH1 0x20 ADD PUSH1 0x0 PUSH1 0x1 SIGNEXTEND DUP2 MSTORE POP SWAP1 JUMP JUMPDEST PUSH1 0x40 MLOAD DUP1 PUSH1 0x60 ADD PUSH1 0x40 MSTORE DUP1 PUSH1 0x3 SWAP1 JUMPDEST PUSH1 0x60 DUP2 MSTORE PUSH1 0x20 ADD SWAP1 PUSH1 0x1 SWAP1 SUB SWAP1 DUP2 PUSH2 0x4450 JUMPI SWAP1 POP POP SWAP1 JUMP JUMPDEST JUMPDEST DUP1 DUP3 GT ISZERO PUSH2 0x4481 JUMPI PUSH1 0x0 DUP2 PUSH1 0x0 SWAP1 SSTORE POP PUSH1 0x1 ADD PUSH2 0x4469 JUMP JUMPDEST POP SWAP1 JUMP JUMPDEST PUSH1 0x0 PUSH1 0x40 MLOAD SWAP1 POP SWAP1 JUMP JUMPDEST PUSH1 0x0 DUP1 REVERT JUMPDEST PUSH1 0x0 DUP1 REVERT JUMPDEST PUSH1 0x0 PUSH20 0xFFFFFFFFFFFFFFFFFFFFFFFFFFFFFFFFFFFFFFFF DUP3 AND SWAP1 POP SWAP2 SWAP1 POP JUMP JUMPDEST PUSH1 0x0 PUSH2 0x44C4 DUP3 PUSH2 0x4499 JUMP JUMPDEST SWAP1 POP SWAP2 SWAP1 POP JUMP JUMPDEST PUSH2 0x44D4 DUP2 PUSH2 0x44B9 JUMP JUMPDEST DUP2 EQ PUSH2 0x44DF JUMPI PUSH1 0x0 DUP1 REVERT JUMPDEST POP JUMP JUMPDEST PUSH1 0x0 DUP2 CALLDATALOAD SWAP1 POP PUSH2 0x44F1 DUP2 PUSH2 0x44CB JUMP JUMPDEST SWAP3 SWAP2 POP POP JUMP JUMPDEST PUSH1 0x0 DUP2 SWAP1 POP SWAP2 SWAP1 POP JUMP JUMPDEST PUSH2 0x450A DUP2 PUSH2 0x44F7 JUMP JUMPDEST DUP2 EQ PUSH2 0x4515 JUMPI PUSH1 0x0 DUP1 REVERT JUMPDEST POP JUMP JUMPDEST PUSH1 0x0 DUP2 CALLDATALOAD SWAP1 POP PUSH2 0x4527 DUP2 PUSH2 0x4501 JUMP JUMPDEST SWAP3 SWAP2 POP POP JUMP JUMPDEST PUSH1 0x0 DUP1 PUSH1 0x40 DUP4 DUP6 SUB SLT ISZERO PUSH2 0x4544 JUMPI PUSH2 0x4543 PUSH2 0x448F JUMP JUMPDEST JUMPDEST PUSH1 0x0 PUSH2 0x4552 DUP6 DUP3 DUP7 ADD PUSH2 0x44E2 JUMP JUMPDEST SWAP3 POP POP PUSH1 0x20 PUSH2 0x4563 DUP6 DUP3 DUP7 ADD PUSH2 0x4518 JUMP JUMPDEST SWAP2 POP POP SWAP3 POP SWAP3 SWAP1 POP JUMP JUMPDEST PUSH1 0x0 PUSH1 0x20 DUP3 DUP5 SUB SLT ISZERO PUSH2 0x4583 JUMPI PUSH2 0x4582 PUSH2 0x448F JUMP JUMPDEST JUMPDEST PUSH1 0x0 PUSH2 0x4591 DUP5 DUP3 DUP6 ADD PUSH2 0x44E2 JUMP JUMPDEST SWAP2 POP POP SWAP3 SWAP2 POP POP JUMP JUMPDEST PUSH2 0x45A3 DUP2 PUSH2 0x44F7 JUMP JUMPDEST DUP3 MSTORE POP POP JUMP JUMPDEST PUSH1 0x0 PUSH1 0x20 DUP3 ADD SWAP1 POP PUSH2 0x45BE PUSH1 0x0 DUP4 ADD DUP5 PUSH2 0x459A JUMP JUMPDEST SWAP3 SWAP2 POP POP JUMP JUMPDEST PUSH1 0x0 PUSH1 0x20 DUP3 DUP5 SUB SLT ISZERO PUSH2 0x45DA JUMPI PUSH2 0x45D9 PUSH2 0x448F JUMP JUMPDEST JUMPDEST PUSH1 0x0 PUSH2 0x45E8 DUP5 DUP3 DUP6 ADD PUSH2 0x4518 JUMP JUMPDEST SWAP2 POP POP SWAP3 SWAP2 POP POP JUMP JUMPDEST PUSH2 0x45FA DUP2 PUSH2 0x44B9 JUMP JUMPDEST DUP3 MSTORE POP POP JUMP JUMPDEST PUSH1 0x0 DUP2 SWAP1 POP SWAP2 SWAP1 POP JUMP JUMPDEST PUSH2 0x4613 DUP2 PUSH2 0x4600 JUMP JUMPDEST DUP3 MSTORE POP POP JUMP JUMPDEST PUSH1 0x0 DUP2 ISZERO ISZERO SWAP1 POP SWAP2 SWAP1 POP JUMP JUMPDEST PUSH2 0x462E DUP2 PUSH2 0x4619 JUMP JUMPDEST DUP3 MSTORE POP POP JUMP JUMPDEST PUSH1 0x0 DUP2 SWAP1 POP SWAP2 SWAP1 POP JUMP JUMPDEST PUSH1 0x0 PUSH2 0x4659 PUSH2 0x4654 PUSH2 0x464F DUP5 PUSH2 0x4499 JUMP JUMPDEST PUSH2 0x4634 JUMP JUMPDEST PUSH2 0x4499 JUMP JUMPDEST SWAP1 POP SWAP2 SWAP1 POP JUMP JUMPDEST PUSH1 0x0 PUSH2 0x466B DUP3 PUSH2 0x463E JUMP JUMPDEST SWAP1 POP SWAP2 SWAP1 POP JUMP JUMPDEST PUSH1 0x0 PUSH2 0x467D DUP3 PUSH2 0x4660 JUMP JUMPDEST SWAP1 POP SWAP2 SWAP1 POP JUMP JUMPDEST PUSH2 0x468D DUP2 PUSH2 0x4672 JUMP JUMPDEST DUP3 MSTORE POP POP JUMP JUMPDEST PUSH1 0x0 PUSH2 0x160 DUP3 ADD SWAP1 POP PUSH2 0x46A9 PUSH1 0x0 DUP4 ADD DUP15 PUSH2 0x45F1 JUMP JUMPDEST PUSH2 0x46B6 PUSH1 0x20 DUP4 ADD DUP14 PUSH2 0x460A JUMP JUMPDEST PUSH2 0x46C3 PUSH1 0x40 DUP4 ADD DUP13 PUSH2 0x4625 JUMP JUMPDEST PUSH2 0x46D0 PUSH1 0x60 DUP4 ADD DUP12 PUSH2 0x45F1 JUMP JUMPDEST PUSH2 0x46DD PUSH1 0x80 DUP4 ADD DUP11 PUSH2 0x460A JUMP JUMPDEST PUSH2 0x46EA PUSH1 0xA0 DUP4 ADD DUP10 PUSH2 0x4625 JUMP JUMPDEST PUSH2 0x46F7 PUSH1 0xC0 DUP4 ADD DUP9 PUSH2 0x4684 JUMP JUMPDEST PUSH2 0x4704 PUSH1 0xE0 DUP4 ADD DUP8 PUSH2 0x459A JUMP JUMPDEST PUSH2 0x4712 PUSH2 0x100 DUP4 ADD DUP7 PUSH2 0x459A JUMP JUMPDEST PUSH2 0x4720 PUSH2 0x120 DUP4 ADD DUP6 PUSH2 0x459A JUMP JUMPDEST PUSH2 0x472E PUSH2 0x140 DUP4 ADD DUP5 PUSH2 0x4625 JUMP JUMPDEST SWAP13 SWAP12 POP POP POP POP POP POP POP POP POP POP POP POP JUMP JUMPDEST PUSH1 0x0 DUP1 PUSH1 0x40 DUP4 DUP6 SUB SLT ISZERO PUSH2 0x4755 JUMPI PUSH2 0x4754 PUSH2 0x448F JUMP JUMPDEST JUMPDEST PUSH1 0x0 PUSH2 0x4763 DUP6 DUP3 DUP7 ADD PUSH2 0x4518 JUMP JUMPDEST SWAP3 POP POP PUSH1 0x20 PUSH2 0x4774 DUP6 DUP3 DUP7 ADD PUSH2 0x4518 JUMP JUMPDEST SWAP2 POP POP SWAP3 POP SWAP3 SWAP1 POP JUMP JUMPDEST PUSH1 0x0 PUSH1 0x20 DUP3 ADD SWAP1 POP PUSH2 0x4793 PUSH1 0x0 DUP4 ADD DUP5 PUSH2 0x4625 JUMP JUMPDEST SWAP3 SWAP2 POP POP JUMP JUMPDEST PUSH1 0x0 DUP1 REVERT JUMPDEST PUSH1 0x0 DUP1 REVERT JUMPDEST PUSH1 0x0 PUSH1 0x1F NOT PUSH1 0x1F DUP4 ADD AND SWAP1 POP SWAP2 SWAP1 POP JUMP JUMPDEST PUSH32 0x4E487B7100000000000000000000000000000000000000000000000000000000 PUSH1 0x0 MSTORE PUSH1 0x41 PUSH1 0x4 MSTORE PUSH1 0x24 PUSH1 0x0 REVERT JUMPDEST PUSH2 0x47EC DUP3 PUSH2 0x47A3 JUMP JUMPDEST DUP2 ADD DUP2 DUP2 LT PUSH8 0xFFFFFFFFFFFFFFFF DUP3 GT OR ISZERO PUSH2 0x480B JUMPI PUSH2 0x480A PUSH2 0x47B4 JUMP JUMPDEST JUMPDEST DUP1 PUSH1 0x40 MSTORE POP POP POP JUMP JUMPDEST PUSH1 0x0 PUSH2 0x481E PUSH2 0x4485 JUMP JUMPDEST SWAP1 POP PUSH2 0x482A DUP3 DUP3 PUSH2 0x47E3 JUMP JUMPDEST SWAP2 SWAP1 POP JUMP JUMPDEST PUSH1 0x0 PUSH8 0xFFFFFFFFFFFFFFFF DUP3 GT ISZERO PUSH2 0x484A JUMPI PUSH2 0x4849 PUSH2 0x47B4 JUMP JUMPDEST JUMPDEST PUSH2 0x4853 DUP3 PUSH2 0x47A3 JUMP JUMPDEST SWAP1 POP PUSH1 0x20 DUP2 ADD SWAP1 POP SWAP2 SWAP1 POP JUMP JUMPDEST DUP3 DUP2 DUP4 CALLDATACOPY PUSH1 0x0 DUP4 DUP4 ADD MSTORE POP POP POP JUMP JUMPDEST PUSH1 0x0 PUSH2 0x4882 PUSH2 0x487D DUP5 PUSH2 0x482F JUMP JUMPDEST PUSH2 0x4814 JUMP JUMPDEST SWAP1 POP DUP3 DUP2 MSTORE PUSH1 0x20 DUP2 ADD DUP5 DUP5 DUP5 ADD GT ISZERO PUSH2 0x489E JUMPI PUSH2 0x489D PUSH2 0x479E JUMP JUMPDEST JUMPDEST PUSH2 0x48A9 DUP5 DUP3 DUP6 PUSH2 0x4860 JUMP JUMPDEST POP SWAP4 SWAP3 POP POP POP JUMP JUMPDEST PUSH1 0x0 DUP3 PUSH1 0x1F DUP4 ADD SLT PUSH2 0x48C6 JUMPI PUSH2 0x48C5 PUSH2 0x4799 JUMP JUMPDEST JUMPDEST DUP2 CALLDATALOAD PUSH2 0x48D6 DUP5 DUP3 PUSH1 0x20 DUP7 ADD PUSH2 0x486F JUMP JUMPDEST SWAP2 POP POP SWAP3 SWAP2 POP POP JUMP JUMPDEST PUSH1 0x0 PUSH1 0x20 DUP3 DUP5 SUB SLT ISZERO PUSH2 0x48F5 JUMPI PUSH2 0x48F4 PUSH2 0x448F JUMP JUMPDEST JUMPDEST PUSH1 0x0 DUP3 ADD CALLDATALOAD PUSH8 0xFFFFFFFFFFFFFFFF DUP2 GT ISZERO PUSH2 0x4913 JUMPI PUSH2 0x4912 PUSH2 0x4494 JUMP JUMPDEST JUMPDEST PUSH2 0x491F DUP5 DUP3 DUP6 ADD PUSH2 0x48B1 JUMP JUMPDEST SWAP2 POP POP SWAP3 SWAP2 POP POP JUMP JUMPDEST PUSH1 0x0 PUSH1 0x20 DUP3 ADD SWAP1 POP PUSH2 0x493D PUSH1 0x0 DUP4 ADD DUP5 PUSH2 0x45F1 JUMP JUMPDEST SWAP3 SWAP2 POP POP JUMP JUMPDEST PUSH1 0x0 PUSH8 0xFFFFFFFFFFFFFFFF DUP3 GT ISZERO PUSH2 0x495E JUMPI PUSH2 0x495D PUSH2 0x47B4 JUMP JUMPDEST JUMPDEST PUSH1 0x20 DUP3 MUL SWAP1 POP SWAP2 SWAP1 POP JUMP JUMPDEST PUSH1 0x0 DUP1 REVERT JUMPDEST PUSH1 0x0 PUSH2 0x4981 PUSH2 0x497C DUP5 PUSH2 0x4943 JUMP JUMPDEST PUSH2 0x4814 JUMP JUMPDEST SWAP1 POP DUP1 PUSH1 0x20 DUP5 MUL DUP4 ADD DUP6 DUP2 GT ISZERO PUSH2 0x499B JUMPI PUSH2 0x499A PUSH2 0x4969 JUMP JUMPDEST JUMPDEST DUP4 JUMPDEST DUP2 DUP2 LT ISZERO PUSH2 0x49C4 JUMPI DUP1 PUSH2 0x49B0 DUP9 DUP3 PUSH2 0x4518 JUMP JUMPDEST DUP5 MSTORE PUSH1 0x20 DUP5 ADD SWAP4 POP POP PUSH1 0x20 DUP2 ADD SWAP1 POP PUSH2 0x499D JUMP JUMPDEST POP POP POP SWAP4 SWAP3 POP POP POP JUMP JUMPDEST PUSH1 0x0 DUP3 PUSH1 0x1F DUP4 ADD SLT PUSH2 0x49E3 JUMPI PUSH2 0x49E2 PUSH2 0x4799 JUMP JUMPDEST JUMPDEST PUSH1 0x3 PUSH2 0x49F0 DUP5 DUP3 DUP6 PUSH2 0x496E JUMP JUMPDEST SWAP2 POP POP SWAP3 SWAP2 POP POP JUMP JUMPDEST PUSH1 0x0 DUP1 PUSH1 0x0 PUSH1 0xA0 DUP5 DUP7 SUB SLT ISZERO PUSH2 0x4A12 JUMPI PUSH2 0x4A11 PUSH2 0x448F JUMP JUMPDEST JUMPDEST PUSH1 0x0 PUSH2 0x4A20 DUP7 DUP3 DUP8 ADD PUSH2 0x4518 JUMP JUMPDEST SWAP4 POP POP PUSH1 0x20 PUSH2 0x4A31 DUP7 DUP3 DUP8 ADD PUSH2 0x4518 JUMP JUMPDEST SWAP3 POP POP PUSH1 0x40 PUSH2 0x4A42 DUP7 DUP3 DUP8 ADD PUSH2 0x49CE JUMP JUMPDEST SWAP2 POP POP SWAP3 POP SWAP3 POP SWAP3 JUMP JUMPDEST PUSH1 0x0 PUSH8 0xFFFFFFFFFFFFFFFF DUP3 GT ISZERO PUSH2 0x4A67 JUMPI PUSH2 0x4A66 PUSH2 0x47B4 JUMP JUMPDEST JUMPDEST PUSH1 0x20 DUP3 MUL SWAP1 POP SWAP2 SWAP1 POP JUMP JUMPDEST PUSH1 0x0 PUSH2 0x4A85 PUSH2 0x4A80 DUP5 PUSH2 0x4A4C JUMP JUMPDEST PUSH2 0x4814 JUMP JUMPDEST SWAP1 POP DUP1 PUSH1 0x20 DUP5 MUL DUP4 ADD DUP6 DUP2 GT ISZERO PUSH2 0x4A9F JUMPI PUSH2 0x4A9E PUSH2 0x4969 JUMP JUMPDEST JUMPDEST DUP4 JUMPDEST DUP2 DUP2 LT ISZERO PUSH2 0x4AC8 JUMPI DUP1 PUSH2 0x4AB4 DUP9 DUP3 PUSH2 0x44E2 JUMP JUMPDEST DUP5 MSTORE PUSH1 0x20 DUP5 ADD SWAP4 POP POP PUSH1 0x20 DUP2 ADD SWAP1 POP PUSH2 0x4AA1 JUMP JUMPDEST POP POP POP SWAP4 SWAP3 POP POP POP JUMP JUMPDEST PUSH1 0x0 DUP3 PUSH1 0x1F DUP4 ADD SLT PUSH2 0x4AE7 JUMPI PUSH2 0x4AE6 PUSH2 0x4799 JUMP JUMPDEST JUMPDEST PUSH1 0x3 PUSH2 0x4AF4 DUP5 DUP3 DUP6 PUSH2 0x4A72 JUMP JUMPDEST SWAP2 POP POP SWAP3 SWAP2 POP POP JUMP JUMPDEST PUSH2 0x4B06 DUP2 PUSH2 0x4600 JUMP JUMPDEST DUP2 EQ PUSH2 0x4B11 JUMPI PUSH1 0x0 DUP1 REVERT JUMPDEST POP JUMP JUMPDEST PUSH1 0x0 DUP2 CALLDATALOAD SWAP1 POP PUSH2 0x4B23 DUP2 PUSH2 0x4AFD JUMP JUMPDEST SWAP3 SWAP2 POP POP JUMP JUMPDEST PUSH1 0x0 DUP1 PUSH1 0x0 DUP1 PUSH2 0x100 DUP6 DUP8 SUB SLT ISZERO PUSH2 0x4B44 JUMPI PUSH2 0x4B43 PUSH2 0x448F JUMP JUMPDEST JUMPDEST PUSH1 0x0 PUSH2 0x4B52 DUP8 DUP3 DUP9 ADD PUSH2 0x4518 JUMP JUMPDEST SWAP5 POP POP PUSH1 0x20 PUSH2 0x4B63 DUP8 DUP3 DUP9 ADD PUSH2 0x4AD2 JUMP JUMPDEST SWAP4 POP POP PUSH1 0x80 PUSH2 0x4B74 DUP8 DUP3 DUP9 ADD PUSH2 0x49CE JUMP JUMPDEST SWAP3 POP POP PUSH1 0xE0 PUSH2 0x4B85 DUP8 DUP3 DUP9 ADD PUSH2 0x4B14 JUMP JUMPDEST SWAP2 POP POP SWAP3 SWAP6 SWAP2 SWAP5 POP SWAP3 POP JUMP JUMPDEST PUSH1 0x0 DUP1 PUSH1 0x0 DUP1 PUSH1 0x0 PUSH2 0x120 DUP7 DUP9 SUB SLT ISZERO PUSH2 0x4BAE JUMPI PUSH2 0x4BAD PUSH2 0x448F JUMP JUMPDEST JUMPDEST PUSH1 0x0 PUSH2 0x4BBC DUP9 DUP3 DUP10 ADD PUSH2 0x44E2 JUMP JUMPDEST SWAP6 POP POP PUSH1 0x20 PUSH2 0x4BCD DUP9 DUP3 DUP10 ADD PUSH2 0x4518 JUMP JUMPDEST SWAP5 POP POP PUSH1 0x40 PUSH2 0x4BDE DUP9 DUP3 DUP10 ADD PUSH2 0x4AD2 JUMP JUMPDEST SWAP4 POP POP PUSH1 0xA0 PUSH2 0x4BEF DUP9 DUP3 DUP10 ADD PUSH2 0x49CE JUMP JUMPDEST SWAP3 POP POP PUSH2 0x100 PUSH2 0x4C01 DUP9 DUP3 DUP10 ADD PUSH2 0x4B14 JUMP JUMPDEST SWAP2 POP POP SWAP3 SWAP6 POP SWAP3 SWAP6 SWAP1 SWAP4 POP JUMP JUMPDEST PUSH1 0x0 DUP3 DUP3 MSTORE PUSH1 0x20 DUP3 ADD SWAP1 POP SWAP3 SWAP2 POP POP JUMP JUMPDEST PUSH32 0x546F6B656E206E6F7420617070726F7665640000000000000000000000000000 PUSH1 0x0 DUP3 ADD MSTORE POP JUMP JUMPDEST PUSH1 0x0 PUSH2 0x4C55 PUSH1 0x12 DUP4 PUSH2 0x4C0E JUMP JUMPDEST SWAP2 POP PUSH2 0x4C60 DUP3 PUSH2 0x4C1F JUMP JUMPDEST PUSH1 0x20 DUP3 ADD SWAP1 POP SWAP2 SWAP1 POP JUMP JUMPDEST PUSH1 0x0 PUSH1 0x20 DUP3 ADD SWAP1 POP DUP2 DUP2 SUB PUSH1 0x0 DUP4 ADD MSTORE PUSH2 0x4C84 DUP2 PUSH2 0x4C48 JUMP JUMPDEST SWAP1 POP SWAP2 SWAP1 POP JUMP JUMPDEST PUSH1 0x0 PUSH1 0x40 DUP3 ADD SWAP1 POP PUSH2 0x4CA0 PUSH1 0x0 DUP4 ADD DUP6 PUSH2 0x45F1 JUMP JUMPDEST PUSH2 0x4CAD PUSH1 0x20 DUP4 ADD DUP5 PUSH2 0x459A JUMP JUMPDEST SWAP4 SWAP3 POP POP POP JUMP JUMPDEST PUSH32 0x537461727420494420746F6F2068696768000000000000000000000000000000 PUSH1 0x0 DUP3 ADD MSTORE POP JUMP JUMPDEST PUSH1 0x0 PUSH2 0x4CEA PUSH1 0x11 DUP4 PUSH2 0x4C0E JUMP JUMPDEST SWAP2 POP PUSH2 0x4CF5 DUP3 PUSH2 0x4CB4 JUMP JUMPDEST PUSH1 0x20 DUP3 ADD SWAP1 POP SWAP2 SWAP1 POP JUMP JUMPDEST PUSH1 0x0 PUSH1 0x20 DUP3 ADD SWAP1 POP DUP2 DUP2 SUB PUSH1 0x0 DUP4 ADD MSTORE PUSH2 0x4D19 DUP2 PUSH2 0x4CDD JUMP JUMPDEST SWAP1 POP SWAP2 SWAP1 POP JUMP JUMPDEST PUSH32 0x4E487B7100000000000000000000000000000000000000000000000000000000 PUSH1 0x0 MSTORE PUSH1 0x11 PUSH1 0x4 MSTORE PUSH1 0x24 PUSH1 0x0 REVERT JUMPDEST PUSH1 0x0 PUSH2 0x4D5A DUP3 PUSH2 0x44F7 JUMP JUMPDEST SWAP2 POP PUSH2 0x4D65 DUP4 PUSH2 0x44F7 JUMP JUMPDEST SWAP3 POP DUP3 DUP3 ADD SWAP1 POP DUP1 DUP3 GT ISZERO PUSH2 0x4D7D JUMPI PUSH2 0x4D7C PUSH2 0x4D20 JUMP JUMPDEST JUMPDEST SWAP3 SWAP2 POP POP JUMP JUMPDEST PUSH2 0x4D8C DUP2 PUSH2 0x4619 JUMP JUMPDEST DUP2 EQ PUSH2 0x4D97 JUMPI PUSH1 0x0 DUP1 REVERT JUMPDEST POP JUMP JUMPDEST PUSH1 0x0 DUP2 MLOAD SWAP1 POP PUSH2 0x4DA9 DUP2 PUSH2 0x4D83 JUMP JUMPDEST SWAP3 SWAP2 POP POP JUMP JUMPDEST PUSH1 0x0 PUSH1 0x20 DUP3 DUP5 SUB SLT ISZERO PUSH2 0x4DC5 JUMPI PUSH2 0x4DC4 PUSH2 0x448F JUMP JUMPDEST JUMPDEST PUSH1 0x0 PUSH2 0x4DD3 DUP5 DUP3 DUP6 ADD PUSH2 0x4D9A JUMP JUMPDEST SWAP2 POP POP SWAP3 SWAP2 POP POP JUMP JUMPDEST PUSH32 0x4E487B7100000000000000000000000000000000000000000000000000000000 PUSH1 0x0 MSTORE PUSH1 0x32 PUSH1 0x4 MSTORE PUSH1 0x24 PUSH1 0x0 REVERT JUMPDEST PUSH1 0x0 PUSH1 0x60 DUP3 ADD SWAP1 POP PUSH2 0x4E20 PUSH1 0x0 DUP4 ADD DUP7 PUSH2 0x45F1 JUMP JUMPDEST PUSH2 0x4E2D PUSH1 0x20 DUP4 ADD DUP6 PUSH2 0x45F1 JUMP JUMPDEST PUSH2 0x4E3A PUSH1 0x40 DUP4 ADD DUP5 PUSH2 0x459A JUMP JUMPDEST SWAP5 SWAP4 POP POP POP POP JUMP JUMPDEST PUSH1 0x0 PUSH2 0x4E4D DUP3 PUSH2 0x44F7 JUMP JUMPDEST SWAP2 POP PUSH32 0xFFFFFFFFFFFFFFFFFFFFFFFFFFFFFFFFFFFFFFFFFFFFFFFFFFFFFFFFFFFFFFFF DUP3 SUB PUSH2 0x4E7F JUMPI PUSH2 0x4E7E PUSH2 0x4D20 JUMP JUMPDEST JUMPDEST PUSH1 0x1 DUP3 ADD SWAP1 POP SWAP2 SWAP1 POP JUMP JUMPDEST PUSH1 0x0 PUSH1 0x60 DUP3 ADD SWAP1 POP PUSH2 0x4E9F PUSH1 0x0 DUP4 ADD DUP7 PUSH2 0x459A JUMP JUMPDEST PUSH2 0x4EAC PUSH1 0x20 DUP4 ADD DUP6 PUSH2 0x45F1 JUMP JUMPDEST PUSH2 0x4EB9 PUSH1 0x40 DUP4 ADD DUP5 PUSH2 0x4625 JUMP JUMPDEST SWAP5 SWAP4 POP POP POP POP JUMP JUMPDEST PUSH32 0x47616D65206E6F74206163746976650000000000000000000000000000000000 PUSH1 0x0 DUP3 ADD MSTORE POP JUMP JUMPDEST PUSH1 0x0 PUSH2 0x4EF7 PUSH1 0xF DUP4 PUSH2 0x4C0E JUMP JUMPDEST SWAP2 POP PUSH2 0x4F02 DUP3 PUSH2 0x4EC1 JUMP JUMPDEST PUSH1 0x20 DUP3 ADD SWAP1 POP SWAP2 SWAP1 POP JUMP JUMPDEST PUSH1 0x0 PUSH1 0x20 DUP3 ADD SWAP1 POP DUP2 DUP2 SUB PUSH1 0x0 DUP4 ADD MSTORE PUSH2 0x4F26 DUP2 PUSH2 0x4EEA JUMP JUMPDEST SWAP1 POP SWAP2 SWAP1 POP JUMP JUMPDEST PUSH32 0x4E6F7420626F74682072657665616C6564000000000000000000000000000000 PUSH1 0x0 DUP3 ADD MSTORE POP JUMP JUMPDEST PUSH1 0x0 PUSH2 0x4F63 PUSH1 0x11 DUP4 PUSH2 0x4C0E JUMP JUMPDEST SWAP2 POP PUSH2 0x4F6E DUP3 PUSH2 0x4F2D JUMP JUMPDEST PUSH1 0x20 DUP3 ADD SWAP1 POP SWAP2 SWAP1 POP JUMP JUMPDEST PUSH1 0x0 PUSH1 0x20 DUP3 ADD SWAP1 POP DUP2 DUP2 SUB PUSH1 0x0 DUP4 ADD MSTORE PUSH2 0x4F92 DUP2 PUSH2 0x4F56 JUMP JUMPDEST SWAP1 POP SWAP2 SWAP1 POP JUMP JUMPDEST PUSH1 0x0 DUP2 SWAP1 POP SWAP2 SWAP1 POP JUMP JUMPDEST PUSH1 0x0 PUSH2 0x4FAE DUP3 PUSH2 0x4F99 JUMP JUMPDEST SWAP2 POP PUSH2 0x4FB9 DUP4 PUSH2 0x4F99 JUMP JUMPDEST SWAP3 POP DUP3 DUP3 ADD SWAP1 POP DUP3 DUP2 SLT ISZERO PUSH1 0x0 DUP4 SLT AND DUP4 DUP3 SLT PUSH1 0x0 DUP5 SLT ISZERO AND OR ISZERO PUSH2 0x4FE1 JUMPI PUSH2 0x4FE0 PUSH2 0x4D20 JUMP JUMPDEST JUMPDEST SWAP3 SWAP2 POP POP JUMP JUMPDEST PUSH1 0x0 PUSH2 0x4FF2 DUP3 PUSH2 0x44F7 JUMP JUMPDEST SWAP2 POP PUSH2 0x4FFD DUP4 PUSH2 0x44F7 JUMP JUMPDEST SWAP3 POP DUP3 DUP3 MUL PUSH2 0x500B DUP2 PUSH2 0x44F7 JUMP JUMPDEST SWAP2 POP DUP3 DUP3 DIV DUP5 EQ DUP4 ISZERO OR PUSH2 0x5022 JUMPI PUSH2 0x5021 PUSH2 0x4D20 JUMP JUMPDEST JUMPDEST POP SWAP3 SWAP2 POP POP JUMP JUMPDEST PUSH32 0x4E487B7100000000000000000000000000000000000000000000000000000000 PUSH1 0x0 MSTORE PUSH1 0x12 PUSH1 0x4 MSTORE PUSH1 0x24 PUSH1 0x0 REVERT JUMPDEST PUSH1 0x0 PUSH2 0x5063 DUP3 PUSH2 0x44F7 JUMP JUMPDEST SWAP2 POP PUSH2 0x506E DUP4 PUSH2 0x44F7 JUMP JUMPDEST SWAP3 POP DUP3 PUSH2 0x507E JUMPI PUSH2 0x507D PUSH2 0x5029 JUMP JUMPDEST JUMPDEST DUP3 DUP3 DIV SWAP1 POP SWAP3 SWAP2 POP POP JUMP JUMPDEST PUSH1 0x0 PUSH2 0x5094 DUP3 PUSH2 0x44F7 JUMP JUMPDEST SWAP2 POP PUSH2 0x509F DUP4 PUSH2 0x44F7 JUMP JUMPDEST SWAP3 POP DUP3 DUP3 SUB SWAP1 POP DUP2 DUP2 GT ISZERO PUSH2 0x50B7 JUMPI PUSH2 0x50B6 PUSH2 0x4D20 JUMP JUMPDEST JUMPDEST SWAP3 SWAP2 POP POP JUMP JUMPDEST PUSH32 0x4E6F74206120706C617965720000000000000000000000000000000000000000 PUSH1 0x0 DUP3 ADD MSTORE POP JUMP JUMPDEST PUSH1 0x0 PUSH2 0x50F3 PUSH1 0xC DUP4 PUSH2 0x4C0E JUMP JUMPDEST SWAP2 POP PUSH2 0x50FE DUP3 PUSH2 0x50BD JUMP JUMPDEST PUSH1 0x20 DUP3 ADD SWAP1 POP SWAP2 SWAP1 POP JUMP JUMPDEST PUSH1 0x0 PUSH1 0x20 DUP3 ADD SWAP1 POP DUP2 DUP2 SUB PUSH1 0x0 DUP4 ADD MSTORE PUSH2 0x5122 DUP2 PUSH2 0x50E6 JUMP JUMPDEST SWAP1 POP SWAP2 SWAP1 POP JUMP JUMPDEST PUSH32 0x416C72656164792072657665616C656400000000000000000000000000000000 PUSH1 0x0 DUP3 ADD MSTORE POP JUMP JUMPDEST PUSH1 0x0 PUSH2 0x515F PUSH1 0x10 DUP4 PUSH2 0x4C0E JUMP JUMPDEST SWAP2 POP PUSH2 0x516A DUP3 PUSH2 0x5129 JUMP JUMPDEST PUSH1 0x20 DUP3 ADD SWAP1 POP SWAP2 SWAP1 POP JUMP JUMPDEST PUSH1 0x0 PUSH1 0x20 DUP3 ADD SWAP1 POP DUP2 DUP2 SUB PUSH1 0x0 DUP4 ADD MSTORE PUSH2 0x518E DUP2 PUSH2 0x5152 JUMP JUMPDEST SWAP1 POP SWAP2 SWAP1 POP JUMP JUMPDEST PUSH1 0x0 DUP2 SWAP1 POP SWAP2 SWAP1 POP JUMP JUMPDEST PUSH2 0x51B0 PUSH2 0x51AB DUP3 PUSH2 0x44F7 JUMP JUMPDEST PUSH2 0x5195 JUMP JUMPDEST DUP3 MSTORE POP POP JUMP JUMPDEST PUSH1 0x0 PUSH2 0x51C2 DUP3 DUP8 PUSH2 0x519F JUMP JUMPDEST PUSH1 0x20 DUP3 ADD SWAP2 POP PUSH2 0x51D2 DUP3 DUP7 PUSH2 0x519F JUMP JUMPDEST PUSH1 0x20 DUP3 ADD SWAP2 POP PUSH2 0x51E2 DUP3 DUP6 PUSH2 0x519F JUMP JUMPDEST PUSH1 0x20 DUP3 ADD SWAP2 POP PUSH2 0x51F2 DUP3 DUP5 PUSH2 0x519F JUMP JUMPDEST PUSH1 0x20 DUP3 ADD SWAP2 POP DUP2 SWAP1 POP SWAP6 SWAP5 POP POP POP POP POP JUMP JUMPDEST PUSH32 0x496E76616C69642072657665616C000000000000000000000000000000000000 PUSH1 0x0 DUP3 ADD MSTORE POP JUMP JUMPDEST PUSH1 0x0 PUSH2 0x523A PUSH1 0xE DUP4 PUSH2 0x4C0E JUMP JUMPDEST SWAP2 POP PUSH2 0x5245 DUP3 PUSH2 0x5204 JUMP JUMPDEST PUSH1 0x20 DUP3 ADD SWAP1 POP SWAP2 SWAP1 POP JUMP JUMPDEST PUSH1 0x0 PUSH1 0x20 DUP3 ADD SWAP1 POP DUP2 DUP2 SUB PUSH1 0x0 DUP4 ADD MSTORE PUSH2 0x5269 DUP2 PUSH2 0x522D JUMP JUMPDEST SWAP1 POP SWAP2 SWAP1 POP JUMP JUMPDEST PUSH32 0x496E646578206F7574206F662072616E67650000000000000000000000000000 PUSH1 0x0 DUP3 ADD MSTORE POP JUMP JUMPDEST PUSH1 0x0 PUSH2 0x52A6 PUSH1 0x12 DUP4 PUSH2 0x4C0E JUMP JUMPDEST SWAP2 POP PUSH2 0x52B1 DUP3 PUSH2 0x5270 JUMP JUMPDEST PUSH1 0x20 DUP3 ADD SWAP1 POP SWAP2 SWAP1 POP JUMP JUMPDEST PUSH1 0x0 PUSH1 0x20 DUP3 ADD SWAP1 POP DUP2 DUP2 SUB PUSH1 0x0 DUP4 ADD MSTORE PUSH2 0x52D5 DUP2 PUSH2 0x5299 JUMP JUMPDEST SWAP1 POP SWAP2 SWAP1 POP JUMP JUMPDEST PUSH32 0x4475706C696361746520696E6465780000000000000000000000000000000000 PUSH1 0x0 DUP3 ADD MSTORE POP JUMP JUMPDEST PUSH1 0x0 PUSH2 0x5312 PUSH1 0xF DUP4 PUSH2 0x4C0E JUMP JUMPDEST SWAP2 POP PUSH2 0x531D DUP3 PUSH2 0x52DC JUMP JUMPDEST PUSH1 0x20 DUP3 ADD SWAP1 POP SWAP2 SWAP1 POP JUMP JUMPDEST PUSH1 0x0 PUSH1 0x20 DUP3 ADD SWAP1 POP DUP2 DUP2 SUB PUSH1 0x0 DUP4 ADD MSTORE PUSH2 0x5341 DUP2 PUSH2 0x5305 JUMP JUMPDEST SWAP1 POP SWAP2 SWAP1 POP JUMP JUMPDEST PUSH1 0x0 PUSH1 0x40 DUP3 ADD SWAP1 POP PUSH2 0x535D PUSH1 0x0 DUP4 ADD DUP6 PUSH2 0x459A JUMP JUMPDEST PUSH2 0x536A PUSH1 0x20 DUP4 ADD DUP5 PUSH2 0x45F1 JUMP JUMPDEST SWAP4 SWAP3 POP POP POP JUMP JUMPDEST PUSH32 0x47616D6520616C7265616479206A6F696E656400000000000000000000000000 PUSH1 0x0 DUP3 ADD MSTORE POP JUMP JUMPDEST PUSH1 0x0 PUSH2 0x53A7 PUSH1 0x13 DUP4 PUSH2 0x4C0E JUMP JUMPDEST SWAP2 POP PUSH2 0x53B2 DUP3 PUSH2 0x5371 JUMP JUMPDEST PUSH1 0x20 DUP3 ADD SWAP1 POP SWAP2 SWAP1 POP JUMP JUMPDEST PUSH1 0x0 PUSH1 0x20 DUP3 ADD SWAP1 POP DUP2 DUP2 SUB PUSH1 0x0 DUP4 ADD MSTORE PUSH2 0x53D6 DUP2 PUSH2 0x539A JUMP JUMPDEST SWAP1 POP SWAP2 SWAP1 POP JUMP JUMPDEST PUSH32 0x496E76616C696420636F6D6D6974000000000000000000000000000000000000 PUSH1 0x0 DUP3 ADD MSTORE POP JUMP JUMPDEST PUSH1 0x0 PUSH2 0x5413 PUSH1 0xE DUP4 PUSH2 0x4C0E JUMP JUMPDEST SWAP2 POP PUSH2 0x541E DUP3 PUSH2 0x53DD JUMP JUMPDEST PUSH1 0x20 DUP3 ADD SWAP1 POP SWAP2 SWAP1 POP JUMP JUMPDEST PUSH1 0x0 PUSH1 0x20 DUP3 ADD SWAP1 POP DUP2 DUP2 SUB PUSH1 0x0 DUP4 ADD MSTORE PUSH2 0x5442 DUP2 PUSH2 0x5406 JUMP JUMPDEST SWAP1 POP SWAP2 SWAP1 POP JUMP JUMPDEST PUSH32 0x436F6C6C656374696F6E206E6F7420617070726F766564000000000000000000 PUSH1 0x0 DUP3 ADD MSTORE POP JUMP JUMPDEST PUSH1 0x0 PUSH2 0x547F PUSH1 0x17 DUP4 PUSH2 0x4C0E JUMP JUMPDEST SWAP2 POP PUSH2 0x548A DUP3 PUSH2 0x5449 JUMP JUMPDEST PUSH1 0x20 DUP3 ADD SWAP1 POP SWAP2 SWAP1 POP JUMP JUMPDEST PUSH1 0x0 PUSH1 0x20 DUP3 ADD SWAP1 POP DUP2 DUP2 SUB PUSH1 0x0 DUP4 ADD MSTORE PUSH2 0x54AE DUP2 PUSH2 0x5472 JUMP JUMPDEST SWAP1 POP SWAP2 SWAP1 POP JUMP JUMPDEST PUSH1 0x0 DUP2 MLOAD SWAP1 POP PUSH2 0x54C4 DUP2 PUSH2 0x44CB JUMP JUMPDEST SWAP3 SWAP2 POP POP JUMP JUMPDEST PUSH1 0x0 PUSH1 0x20 DUP3 DUP5 SUB SLT ISZERO PUSH2 0x54E0 JUMPI PUSH2 0x54DF PUSH2 0x448F JUMP JUMPDEST JUMPDEST PUSH1 0x0 PUSH2 0x54EE DUP5 DUP3 DUP6 ADD PUSH2 0x54B5 JUMP JUMPDEST SWAP2 POP POP SWAP3 SWAP2 POP POP JUMP JUMPDEST PUSH32 0x4E6F74206F776E65720000000000000000000000000000000000000000000000 PUSH1 0x0 DUP3 ADD MSTORE POP JUMP JUMPDEST PUSH1 0x0 PUSH2 0x552D PUSH1 0x9 DUP4 PUSH2 0x4C0E JUMP JUMPDEST SWAP2 POP PUSH2 0x5538 DUP3 PUSH2 0x54F7 JUMP JUMPDEST PUSH1 0x20 DUP3 ADD SWAP1 POP SWAP2 SWAP1 POP JUMP JUMPDEST PUSH1 0x0 PUSH1 0x20 DUP3 ADD SWAP1 POP DUP2 DUP2 SUB PUSH1 0x0 DUP4 ADD MSTORE PUSH2 0x555C DUP2 PUSH2 0x5520 JUMP JUMPDEST SWAP1 POP SWAP2 SWAP1 POP JUMP JUMPDEST PUSH32 0x4E6F7420617070726F7665640000000000000000000000000000000000000000 PUSH1 0x0 DUP3 ADD MSTORE POP JUMP JUMPDEST PUSH1 0x0 PUSH2 0x5599 PUSH1 0xC DUP4 PUSH2 0x4C0E JUMP JUMPDEST SWAP2 POP PUSH2 0x55A4 DUP3 PUSH2 0x5563 JUMP JUMPDEST PUSH1 0x20 DUP3 ADD SWAP1 POP SWAP2 SWAP1 POP JUMP JUMPDEST PUSH1 0x0 PUSH1 0x20 DUP3 ADD SWAP1 POP DUP2 DUP2 SUB PUSH1 0x0 DUP4 ADD MSTORE PUSH2 0x55C8 DUP2 PUSH2 0x558C JUMP JUMPDEST SWAP1 POP SWAP2 SWAP1 POP JUMP JUMPDEST PUSH32 0x496E76616C696420746F6B656E00000000000000000000000000000000000000 PUSH1 0x0 DUP3 ADD MSTORE POP JUMP JUMPDEST PUSH1 0x0 PUSH2 0x5605 PUSH1 0xD DUP4 PUSH2 0x4C0E JUMP JUMPDEST SWAP2 POP PUSH2 0x5610 DUP3 PUSH2 0x55CF JUMP JUMPDEST PUSH1 0x20 DUP3 ADD SWAP1 POP SWAP2 SWAP1 POP JUMP JUMPDEST PUSH1 0x0 PUSH1 0x20 DUP3 ADD SWAP1 POP DUP2 DUP2 SUB PUSH1 0x0 DUP4 ADD MSTORE PUSH2 0x5634 DUP2 PUSH2 0x55F8 JUMP JUMPDEST SWAP1 POP SWAP2 SWAP1 POP JUMP JUMPDEST PUSH32 0x5374616B65206D75737420626520706F73697469766500000000000000000000 PUSH1 0x0 DUP3 ADD MSTORE POP JUMP JUMPDEST PUSH1 0x0 PUSH2 0x5671 PUSH1 0x16 DUP4 PUSH2 0x4C0E JUMP JUMPDEST SWAP2 POP PUSH2 0x567C DUP3 PUSH2 0x563B JUMP JUMPDEST PUSH1 0x20 DUP3 ADD SWAP1 POP SWAP2 SWAP1 POP JUMP JUMPDEST PUSH1 0x0 PUSH1 0x20 DUP3 ADD SWAP1 POP DUP2 DUP2 SUB PUSH1 0x0 DUP4 ADD MSTORE PUSH2 0x56A0 DUP2 PUSH2 0x5664 JUMP JUMPDEST SWAP1 POP SWAP2 SWAP1 POP JUMP JUMPDEST PUSH32 0x5374616B652062656C6F7720746F6B656E206D696E696D756D00000000000000 PUSH1 0x0 DUP3 ADD MSTORE POP JUMP JUMPDEST PUSH1 0x0 PUSH2 0x56DD PUSH1 0x19 DUP4 PUSH2 0x4C0E JUMP JUMPDEST SWAP2 POP PUSH2 0x56E8 DUP3 PUSH2 0x56A7 JUMP JUMPDEST PUSH1 0x20 DUP3 ADD SWAP1 POP SWAP2 SWAP1 POP JUMP JUMPDEST PUSH1 0x0 PUSH1 0x20 DUP3 ADD SWAP1 POP DUP2 DUP2 SUB PUSH1 0x0 DUP4 ADD MSTORE PUSH2 0x570C DUP2 PUSH2 0x56D0 JUMP JUMPDEST SWAP1 POP SWAP2 SWAP1 POP JUMP JUMPDEST PUSH32 0x5374616B6520746F6B656E206E6F7420617070726F7665640000000000000000 PUSH1 0x0 DUP3 ADD MSTORE POP JUMP JUMPDEST PUSH1 0x0 PUSH2 0x5749 PUSH1 0x18 DUP4 PUSH2 0x4C0E JUMP JUMPDEST SWAP2 POP PUSH2 0x5754 DUP3 PUSH2 0x5713 JUMP JUMPDEST PUSH1 0x20 DUP3 ADD SWAP1 POP SWAP2 SWAP1 POP JUMP JUMPDEST PUSH1 0x0 PUSH1 0x20 DUP3 ADD SWAP1 POP DUP2 DUP2 SUB PUSH1 0x0 DUP4 ADD MSTORE PUSH2 0x5778 DUP2 PUSH2 0x573C JUMP JUMPDEST SWAP1 POP SWAP2 SWAP1 POP JUMP JUMPDEST PUSH1 0x0 PUSH1 0x80 DUP3 ADD SWAP1 POP PUSH2 0x5794 PUSH1 0x0 DUP4 ADD DUP8 PUSH2 0x459A JUMP JUMPDEST PUSH2 0x57A1 PUSH1 0x20 DUP4 ADD DUP7 PUSH2 0x45F1 JUMP JUMPDEST PUSH2 0x57AE PUSH1 0x40 DUP4 ADD DUP6 PUSH2 0x45F1 JUMP JUMPDEST PUSH2 0x57BB PUSH1 0x60 DUP4 ADD DUP5 PUSH2 0x459A JUMP JUMPDEST SWAP6 SWAP5 POP POP POP POP POP JUMP JUMPDEST PUSH1 0x0 DUP2 MLOAD SWAP1 POP SWAP2 SWAP1 POP JUMP JUMPDEST PUSH1 0x0 DUP2 SWAP1 POP SWAP3 SWAP2 POP POP JUMP JUMPDEST PUSH1 0x0 JUMPDEST DUP4 DUP2 LT ISZERO PUSH2 0x57F8 JUMPI DUP1 DUP3 ADD MLOAD DUP2 DUP5 ADD MSTORE PUSH1 0x20 DUP2 ADD SWAP1 POP PUSH2 0x57DD JUMP JUMPDEST PUSH1 0x0 DUP5 DUP5 ADD MSTORE POP POP POP POP JUMP JUMPDEST PUSH1 0x0 PUSH2 0x580F DUP3 PUSH2 0x57C4 JUMP JUMPDEST PUSH2 0x5819 DUP2 DUP6 PUSH2 0x57CF JUMP JUMPDEST SWAP4 POP PUSH2 0x5829 DUP2 DUP6 PUSH1 0x20 DUP7 ADD PUSH2 0x57DA JUMP JUMPDEST DUP1 DUP5 ADD SWAP2 POP POP SWAP3 SWAP2 POP POP JUMP JUMPDEST PUSH1 0x0 PUSH2 0x5841 DUP3 DUP5 PUSH2 0x5804 JUMP JUMPDEST SWAP2 POP DUP2 SWAP1 POP SWAP3 SWAP2 POP POP JUMP JUMPDEST PUSH1 0x0 PUSH2 0x5857 DUP3 PUSH2 0x57C4 JUMP JUMPDEST PUSH2 0x5861 DUP2 DUP6 PUSH2 0x4C0E JUMP JUMPDEST SWAP4 POP PUSH2 0x5871 DUP2 DUP6 PUSH1 0x20 DUP7 ADD PUSH2 0x57DA JUMP JUMPDEST PUSH2 0x587A DUP2 PUSH2 0x47A3 JUMP JUMPDEST DUP5 ADD SWAP2 POP POP SWAP3 SWAP2 POP POP JUMP JUMPDEST PUSH1 0x0 PUSH1 0x20 DUP3 ADD SWAP1 POP DUP2 DUP2 SUB PUSH1 0x0 DUP4 ADD MSTORE PUSH2 0x589F DUP2 DUP5 PUSH2 0x584C JUMP JUMPDEST SWAP1 POP SWAP3 SWAP2 POP POP JUMP JUMPDEST PUSH1 0x0 DUP2 MLOAD SWAP1 POP PUSH2 0x58B6 DUP2 PUSH2 0x4501 JUMP JUMPDEST SWAP3 SWAP2 POP POP JUMP JUMPDEST PUSH1 0x0 PUSH1 0x20 DUP3 DUP5 SUB SLT ISZERO PUSH2 0x58D2 JUMPI PUSH2 0x58D1 PUSH2 0x448F JUMP JUMPDEST JUMPDEST PUSH1 0x0 PUSH2 0x58E0 DUP5 DUP3 DUP6 ADD PUSH2 0x58A7 JUMP JUMPDEST SWAP2 POP POP SWAP3 SWAP2 POP POP JUMP JUMPDEST PUSH1 0x0 PUSH2 0x58F4 DUP3 PUSH2 0x4F99 JUMP JUMPDEST SWAP2 POP PUSH2 0x58FF DUP4 PUSH2 0x4F99 JUMP JUMPDEST SWAP3 POP DUP3 DUP3 SUB SWAP1 POP DUP2 DUP2 SLT PUSH1 0x0 DUP5 SLT AND DUP3 DUP3 SGT PUSH1 0x0 DUP6 SLT ISZERO AND OR ISZERO PUSH2 0x5926 JUMPI PUSH2 0x5925 PUSH2 0x4D20 JUMP JUMPDEST JUMPDEST SWAP3 SWAP2 POP POP JUMP JUMPDEST PUSH1 0x0 PUSH2 0x593F PUSH2 0x593A DUP5 PUSH2 0x482F JUMP JUMPDEST PUSH2 0x4814 JUMP JUMPDEST SWAP1 POP DUP3 DUP2 MSTORE PUSH1 0x20 DUP2 ADD DUP5 DUP5 DUP5 ADD GT ISZERO PUSH2 0x595B JUMPI PUSH2 0x595A PUSH2 0x479E JUMP JUMPDEST JUMPDEST PUSH2 0x5966 DUP5 DUP3 DUP6 PUSH2 0x57DA JUMP JUMPDEST POP SWAP4 SWAP3 POP POP POP JUMP JUMPDEST PUSH1 0x0 DUP3 PUSH1 0x1F DUP4 ADD SLT PUSH2 0x5983 JUMPI PUSH2 0x5982 PUSH2 0x4799 JUMP JUMPDEST JUMPDEST DUP2 MLOAD PUSH2 0x5993 DUP5 DUP3 PUSH1 0x20 DUP7 ADD PUSH2 0x592C JUMP JUMPDEST SWAP2 POP POP SWAP3 SWAP2 POP POP JUMP JUMPDEST PUSH1 0x0 PUSH1 0x20 DUP3 DUP5 SUB SLT ISZERO PUSH2 0x59B2 JUMPI PUSH2 0x59B1 PUSH2 0x448F JUMP JUMPDEST JUMPDEST PUSH1 0x0 DUP3 ADD MLOAD PUSH8 0xFFFFFFFFFFFFFFFF DUP2 GT ISZERO PUSH2 0x59D0 JUMPI PUSH2 0x59CF PUSH2 0x4494 JUMP JUMPDEST JUMPDEST PUSH2 0x59DC DUP5 DUP3 DUP6 ADD PUSH2 0x596E JUMP JUMPDEST SWAP2 POP POP SWAP3 SWAP2 POP POP JUMP JUMPDEST PUSH32 0x546F6F206D616E79206F662073616D6520726172697479000000000000000000 PUSH1 0x0 DUP3 ADD MSTORE POP JUMP JUMPDEST PUSH1 0x0 PUSH2 0x5A1B PUSH1 0x17 DUP4 PUSH2 0x4C0E JUMP JUMPDEST SWAP2 POP PUSH2 0x5A26 DUP3 PUSH2 0x59E5 JUMP JUMPDEST PUSH1 0x20 DUP3 ADD SWAP1 POP SWAP2 SWAP1 POP JUMP JUMPDEST PUSH1 0x0 PUSH1 0x20 DUP3 ADD SWAP1 POP DUP2 DUP2 SUB PUSH1 0x0 DUP4 ADD MSTORE PUSH2 0x5A4A DUP2 PUSH2 0x5A0E JUMP JUMPDEST SWAP1 POP SWAP2 SWAP1 POP JUMP INVALID LOG2 PUSH5 0x6970667358 0x22 SLT KECCAK256 0xE5 0xCD 0xD9 0xB6 0xE0 PUSH15 0x8F5F820F0520D4D6FFC2D18B674A97 SHL 0xB9 PUSH5 0xC79658EAC3 GASPRICE 0x29 RETURNDATACOPY PUSH5 0x736F6C6343 STOP ADDMOD EQ STOP CALLER "
		},
		"gasEstimates": {
			"creation": {
				"codeDepositCost": "4635000",
				"executionCost": "infinite",
				"totalCost": "infinite"
			},
			"external": {
				"FEE_PERCENT()": "417",
				"TIMEOUT_DURATION()": "395",
				"addCollection(address)": "infinite",
				"addRestrictedRarity(string)": "infinite",
				"addStakeToken(address,uint256)": "infinite",
				"approvedCollections(address)": "2955",
				"approvedStakeTokens(address)": "2912",
				"batchSettleTimeouts(uint256,uint256)": "infinite",
				"createGame(address,uint256,address[3],uint256[3],bytes32)": "infinite",
				"games(uint256)": "infinite",
				"isRestrictedRarity(string)": "infinite",
				"joinGame(uint256,address[3],uint256[3],bytes32)": "infinite",
				"minStakePerToken(address)": "2860",
				"nextGameId()": "2451",
				"owner()": "2611",
				"removeStakeToken(address)": "infinite",
				"renounceOwnership()": "infinite",
				"reveal(uint256,uint256,uint256[3])": "infinite",
				"setMinStake(address,uint256)": "infinite",
				"setTeamWallet(address)": "infinite",
				"settleGame(uint256)": "infinite",
				"teamWallet()": "2625",
				"transferOwnership(address)": "infinite"
			},
			"internal": {
				"getRoundResult(address,uint256,address,uint256)": "infinite",
				"validateRarity(address[3] memory,uint256[3] memory)": "infinite"
			}
		},
		"methodIdentifiers": {
			"FEE_PERCENT()": "eaf98d23",
			"TIMEOUT_DURATION()": "eaf7ac9f",
			"addCollection(address)": "a174e77a",
			"addRestrictedRarity(string)": "b43a5098",
			"addStakeToken(address,uint256)": "81f7d942",
			"approvedCollections(address)": "ec07fb74",
			"approvedStakeTokens(address)": "44bf95c6",
			"batchSettleTimeouts(uint256,uint256)": "2d54cafe",
			"createGame(address,uint256,address[3],uint256[3],bytes32)": "ad59951d",
			"games(uint256)": "117a5b90",
			"isRestrictedRarity(string)": "4e714ac3",
			"joinGame(uint256,address[3],uint256[3],bytes32)": "7d761f7a",
			"minStakePerToken(address)": "06b5fbe8",
			"nextGameId()": "b135bbb0",
			"owner()": "8da5cb5b",
			"removeStakeToken(address)": "166866c7",
			"renounceOwnership()": "715018a6",
			"reveal(uint256,uint256,uint256[3])": "66333422",
			"setMinStake(address,uint256)": "060b89c5",
			"setTeamWallet(address)": "1525ff7d",
			"settleGame(uint256)": "312d7bbc",
			"teamWallet()": "59927044",
			"transferOwnership(address)": "f2fde38b"
		}
	},
	"abi": [
		{
			"inputs": [
				{
					"internalType": "address",
					"name": "_teamWallet",
					"type": "address"
				}
			],
			"stateMutability": "nonpayable",
			"type": "constructor"
		},
		{
			"inputs": [
				{
					"internalType": "address",
					"name": "owner",
					"type": "address"
				}
			],
			"name": "OwnableInvalidOwner",
			"type": "error"
		},
		{
			"inputs": [
				{
					"internalType": "address",
					"name": "account",
					"type": "address"
				}
			],
			"name": "OwnableUnauthorizedAccount",
			"type": "error"
		},
		{
			"anonymous": false,
			"inputs": [
				{
					"indexed": false,
					"internalType": "address",
					"name": "collection",
					"type": "address"
				}
			],
			"name": "CollectionAdded",
			"type": "event"
		},
		{
			"anonymous": false,
			"inputs": [
				{
					"indexed": false,
					"internalType": "uint256",
					"name": "gameId",
					"type": "uint256"
				},
				{
					"indexed": false,
					"internalType": "address",
					"name": "player1",
					"type": "address"
				},
				{
					"indexed": false,
					"internalType": "address",
					"name": "stakeToken",
					"type": "address"
				},
				{
					"indexed": false,
					"internalType": "uint256",
					"name": "stakeAmount",
					"type": "uint256"
				}
			],
			"name": "GameCreated",
			"type": "event"
		},
		{
			"anonymous": false,
			"inputs": [
				{
					"indexed": false,
					"internalType": "uint256",
					"name": "gameId",
					"type": "uint256"
				},
				{
					"indexed": false,
					"internalType": "address",
					"name": "player2",
					"type": "address"
				}
			],
			"name": "GameJoined",
			"type": "event"
		},
		{
			"anonymous": false,
			"inputs": [
				{
					"indexed": false,
					"internalType": "uint256",
					"name": "gameId",
					"type": "uint256"
				},
				{
					"indexed": false,
					"internalType": "address",
					"name": "player",
					"type": "address"
				}
			],
			"name": "GameRevealed",
			"type": "event"
		},
		{
			"anonymous": false,
			"inputs": [
				{
					"indexed": false,
					"internalType": "uint256",
					"name": "gameId",
					"type": "uint256"
				},
				{
					"indexed": false,
					"internalType": "address",
					"name": "winner",
					"type": "address"
				},
				{
					"indexed": false,
					"internalType": "bool",
					"name": "isTie",
					"type": "bool"
				}
			],
			"name": "GameSettled",
			"type": "event"
		},
		{
			"anonymous": false,
			"inputs": [
				{
					"indexed": false,
					"internalType": "address",
					"name": "token",
					"type": "address"
				},
				{
					"indexed": false,
					"internalType": "uint256",
					"name": "minStake",
					"type": "uint256"
				}
			],
			"name": "MinStakeUpdated",
			"type": "event"
		},
		{
			"anonymous": false,
			"inputs": [
				{
					"indexed": true,
					"internalType": "address",
					"name": "previousOwner",
					"type": "address"
				},
				{
					"indexed": true,
					"internalType": "address",
					"name": "newOwner",
					"type": "address"
				}
			],
			"name": "OwnershipTransferred",
			"type": "event"
		},
		{
			"anonymous": false,
			"inputs": [
				{
					"indexed": false,
					"internalType": "string",
					"name": "rarity",
					"type": "string"
				}
			],
			"name": "RestrictedRarityAdded",
			"type": "event"
		},
		{
			"anonymous": false,
			"inputs": [
				{
					"indexed": false,
					"internalType": "address",
					"name": "token",
					"type": "address"
				},
				{
					"indexed": false,
					"internalType": "uint256",
					"name": "minStake",
					"type": "uint256"
				}
			],
			"name": "StakeTokenAdded",
			"type": "event"
		},
		{
			"anonymous": false,
			"inputs": [
				{
					"indexed": false,
					"internalType": "address",
					"name": "token",
					"type": "address"
				}
			],
			"name": "StakeTokenRemoved",
			"type": "event"
		},
		{
			"inputs": [],
			"name": "FEE_PERCENT",
			"outputs": [
				{
					"internalType": "uint256",
					"name": "",
					"type": "uint256"
				}
			],
			"stateMutability": "view",
			"type": "function"
		},
		{
			"inputs": [],
			"name": "TIMEOUT_DURATION",
			"outputs": [
				{
					"internalType": "uint256",
					"name": "",
					"type": "uint256"
				}
			],
			"stateMutability": "view",
			"type": "function"
		},
		{
			"inputs": [
				{
					"internalType": "address",
					"name": "nftContract",
					"type": "address"
				}
			],
			"name": "addCollection",
			"outputs": [],
			"stateMutability": "nonpayable",
			"type": "function"
		},
		{
			"inputs": [
				{
					"internalType": "string",
					"name": "rarity",
					"type": "string"
				}
			],
			"name": "addRestrictedRarity",
			"outputs": [],
			"stateMutability": "nonpayable",
			"type": "function"
		},
		{
			"inputs": [
				{
					"internalType": "address",
					"name": "token",
					"type": "address"
				},
				{
					"internalType": "uint256",
					"name": "minStake",
					"type": "uint256"
				}
			],
			"name": "addStakeToken",
			"outputs": [],
			"stateMutability": "nonpayable",
			"type": "function"
		},
		{
			"inputs": [
				{
					"internalType": "address",
					"name": "",
					"type": "address"
				}
			],
			"name": "approvedCollections",
			"outputs": [
				{
					"internalType": "bool",
					"name": "",
					"type": "bool"
				}
			],
			"stateMutability": "view",
			"type": "function"
		},
		{
			"inputs": [
				{
					"internalType": "address",
					"name": "",
					"type": "address"
				}
			],
			"name": "approvedStakeTokens",
			"outputs": [
				{
					"internalType": "bool",
					"name": "",
					"type": "bool"
				}
			],
			"stateMutability": "view",
			"type": "function"
		},
		{
			"inputs": [
				{
					"internalType": "uint256",
					"name": "startId",
					"type": "uint256"
				},
				{
					"internalType": "uint256",
					"name": "maxGames",
					"type": "uint256"
				}
			],
			"name": "batchSettleTimeouts",
			"outputs": [
				{
					"internalType": "uint256",
					"name": "settledCount",
					"type": "uint256"
				}
			],
			"stateMutability": "nonpayable",
			"type": "function"
		},
		{
			"inputs": [
				{
					"internalType": "address",
					"name": "stakeTokenAddr",
					"type": "address"
				},
				{
					"internalType": "uint256",
					"name": "stakeAmount",
					"type": "uint256"
				},
				{
					"internalType": "address[3]",
					"name": "collections",
					"type": "address[3]"
				},
				{
					"internalType": "uint256[3]",
					"name": "tokenIds",
					"type": "uint256[3]"
				},
				{
					"internalType": "bytes32",
					"name": "commit",
					"type": "bytes32"
				}
			],
			"name": "createGame",
			"outputs": [],
			"stateMutability": "nonpayable",
			"type": "function"
		},
		{
			"inputs": [
				{
					"internalType": "uint256",
					"name": "",
					"type": "uint256"
				}
			],
			"name": "games",
			"outputs": [
				{
					"internalType": "address",
					"name": "player1",
					"type": "address"
				},
				{
					"internalType": "bytes32",
					"name": "player1Commit",
					"type": "bytes32"
				},
				{
					"internalType": "bool",
					"name": "player1Revealed",
					"type": "bool"
				},
				{
					"internalType": "address",
					"name": "player2",
					"type": "address"
				},
				{
					"internalType": "bytes32",
					"name": "player2Commit",
					"type": "bytes32"
				},
				{
					"internalType": "bool",
					"name": "player2Revealed",
					"type": "bool"
				},
				{
					"internalType": "contract IERC20",
					"name": "stakeToken",
					"type": "address"
				},
				{
					"internalType": "uint256",
					"name": "stakeAmount",
					"type": "uint256"
				},
				{
					"internalType": "uint256",
					"name": "createTimestamp",
					"type": "uint256"
				},
				{
					"internalType": "uint256",
					"name": "joinTimestamp",
					"type": "uint256"
				},
				{
					"internalType": "bool",
					"name": "active",
					"type": "bool"
				}
			],
			"stateMutability": "view",
			"type": "function"
		},
		{
			"inputs": [
				{
					"internalType": "string",
					"name": "",
					"type": "string"
				}
			],
			"name": "isRestrictedRarity",
			"outputs": [
				{
					"internalType": "bool",
					"name": "",
					"type": "bool"
				}
			],
			"stateMutability": "view",
			"type": "function"
		},
		{
			"inputs": [
				{
					"internalType": "uint256",
					"name": "gameId",
					"type": "uint256"
				},
				{
					"internalType": "address[3]",
					"name": "collections",
					"type": "address[3]"
				},
				{
					"internalType": "uint256[3]",
					"name": "tokenIds",
					"type": "uint256[3]"
				},
				{
					"internalType": "bytes32",
					"name": "commit",
					"type": "bytes32"
				}
			],
			"name": "joinGame",
			"outputs": [],
			"stateMutability": "nonpayable",
			"type": "function"
		},
		{
			"inputs": [
				{
					"internalType": "address",
					"name": "",
					"type": "address"
				}
			],
			"name": "minStakePerToken",
			"outputs": [
				{
					"internalType": "uint256",
					"name": "",
					"type": "uint256"
				}
			],
			"stateMutability": "view",
			"type": "function"
		},
		{
			"inputs": [],
			"name": "nextGameId",
			"outputs": [
				{
					"internalType": "uint256",
					"name": "",
					"type": "uint256"
				}
			],
			"stateMutability": "view",
			"type": "function"
		},
		{
			"inputs": [],
			"name": "owner",
			"outputs": [
				{
					"internalType": "address",
					"name": "",
					"type": "address"
				}
			],
			"stateMutability": "view",
			"type": "function"
		},
		{
			"inputs": [
				{
					"internalType": "address",
					"name": "token",
					"type": "address"
				}
			],
			"name": "removeStakeToken",
			"outputs": [],
			"stateMutability": "nonpayable",
			"type": "function"
		},
		{
			"inputs": [],
			"name": "renounceOwnership",
			"outputs": [],
			"stateMutability": "nonpayable",
			"type": "function"
		},
		{
			"inputs": [
				{
					"internalType": "uint256",
					"name": "gameId",
					"type": "uint256"
				},
				{
					"internalType": "uint256",
					"name": "salt",
					"type": "uint256"
				},
				{
					"internalType": "uint256[3]",
					"name": "order",
					"type": "uint256[3]"
				}
			],
			"name": "reveal",
			"outputs": [],
			"stateMutability": "nonpayable",
			"type": "function"
		},
		{
			"inputs": [
				{
					"internalType": "address",
					"name": "token",
					"type": "address"
				},
				{
					"internalType": "uint256",
					"name": "minStake",
					"type": "uint256"
				}
			],
			"name": "setMinStake",
			"outputs": [],
			"stateMutability": "nonpayable",
			"type": "function"
		},
		{
			"inputs": [
				{
					"internalType": "address",
					"name": "_teamWallet",
					"type": "address"
				}
			],
			"name": "setTeamWallet",
			"outputs": [],
			"stateMutability": "nonpayable",
			"type": "function"
		},
		{
			"inputs": [
				{
					"internalType": "uint256",
					"name": "gameId",
					"type": "uint256"
				}
			],
			"name": "settleGame",
			"outputs": [],
			"stateMutability": "nonpayable",
			"type": "function"
		},
		{
			"inputs": [],
			"name": "teamWallet",
			"outputs": [
				{
					"internalType": "address",
					"name": "",
					"type": "address"
				}
			],
			"stateMutability": "view",
			"type": "function"
		},
		{
			"inputs": [
				{
					"internalType": "address",
					"name": "newOwner",
					"type": "address"
				}
			],
			"name": "transferOwnership",
			"outputs": [],
			"stateMutability": "nonpayable",
			"type": "function"
		}
	]
}