{
	"data": {
		"bytecode": {
			"linkReferences": {},
			"object": "60806040523480156200001157600080fd5b5033600160006101000a81548173ffffffffffffffffffffffffffffffffffffffff021916908373ffffffffffffffffffffffffffffffffffffffff160217905550620000636200013860201b60201c565b7f8b73c3c69bb8fe3d512ecc4cf759cc79239f7b179b0ffacaa9a75d522b39400f6040518060400160405280600981526020017f436f7265436c6173680000000000000000000000000000000000000000000000815250805190602001206040518060400160405280600181526020017f3100000000000000000000000000000000000000000000000000000000000000815250805190602001204630604051602001620001169594939291906200034b565b6040516020818303038152906040528051906020012060028190555062000493565b620001806040518060400160405280600481526020017f476f6c640000000000000000000000000000000000000000000000000000000081525060016200025a60201b60201c565b620001c86040518060400160405280600681526020017f53696c766572000000000000000000000000000000000000000000000000000081525060016200025a60201b60201c565b620002106040518060400160405280600d81526020017f56657264616e7420477265656e0000000000000000000000000000000000000081525060016200025a60201b60201c565b620002586040518060400160405280600981526020017f526f736520476f6c64000000000000000000000000000000000000000000000081525060016200025a60201b60201c565b565b6000828051906020012090508160008083815260200190815260200160002060006101000a81548160ff0219169083151502179055507f71597d70b120b69b2ed3763b127f0f73d5475cd67f32065088360e0586a8b2508383604051620002c39291906200045f565b60405180910390a1505050565b6000819050919050565b620002e581620002d0565b82525050565b6000819050919050565b6200030081620002eb565b82525050565b600073ffffffffffffffffffffffffffffffffffffffff82169050919050565b6000620003338262000306565b9050919050565b620003458162000326565b82525050565b600060a082019050620003626000830188620002da565b620003716020830187620002da565b620003806040830186620002da565b6200038f6060830185620002f5565b6200039e60808301846200033a565b9695505050505050565b600081519050919050565b600082825260208201905092915050565b60005b83811015620003e4578082015181840152602081019050620003c7565b60008484015250505050565b6000601f19601f8301169050919050565b60006200040e82620003a8565b6200041a8185620003b3565b93506200042c818560208601620003c4565b6200043781620003f0565b840191505092915050565b60008115159050919050565b620004598162000442565b82525050565b600060408201905081810360008301526200047b818562000401565b90506200048c60208301846200044e565b9392505050565b613e5680620004a36000396000f3fe608060405234801561001057600080fd5b506004361061014d5760003560e01c80634c7b0754116100c35780638da5cb5b1161007c5780638da5cb5b14610395578063a8a6196f146103b3578063ac952671146103cf578063b710c52c146103eb578063f2fde38b14610407578063f969e592146104235761014d565b80634c7b0754146102c35780634e714ac3146102f357806359927044146103235780636093ae621461034157806364fc319b1461035d57806378150b06146103795761014d565b806317e931cf1161011557806317e931cf1461021157806320eba3f21461022f57806326232a2e1461024d578063312d7bbc1461026b5780633644e5151461028757806337479beb146102a55761014d565b806303b55dac14610152578063117a5b901461016e57806312e8e2c3146101a957806314f8fb9b146101c55780631525ff7d146101f5575b600080fd5b61016c60048036038101906101679190612982565b61043f565b005b610188600480360381019061018391906129d5565b610797565b6040516101a09c9b9a99989796959493929190612a4a565b60405180910390f35b6101c360048036038101906101be91906129d5565b61088e565b005b6101df60048036038101906101da9190612b04565b610964565b6040516101ec9190612b31565b60405180910390f35b61020f600480360381019061020a9190612b04565b610984565b005b610219610abe565b6040516102269190612b4c565b60405180910390f35b610237610ac4565b6040516102449190612b4c565b60405180910390f35b610255610ad1565b6040516102629190612b4c565b60405180910390f35b610285600480360381019061028091906129d5565b610ad7565b005b61028f610d17565b60405161029c9190612b67565b60405180910390f35b6102ad610d1d565b6040516102ba9190612b67565b60405180910390f35b6102dd60048036038101906102d891906129d5565b610d41565b6040516102ea9190612b82565b60405180910390f35b61030d60048036038101906103089190612ce3565b610d74565b60405161031a9190612b31565b60405180910390f35b61032b610da4565b6040516103389190612b82565b60405180910390f35b61035b60048036038101906103569190612db8565b610dca565b005b61037760048036038101906103729190612eb2565b610ee1565b005b610393600480360381019061038e9190612f4e565b611489565b005b61039d61156b565b6040516103aa9190612b82565b60405180910390f35b6103cd60048036038101906103c89190612fc7565b611591565b005b6103e960048036038101906103e49190613042565b611845565b005b61040560048036038101906104009190613082565b611a07565b005b610421600480360381019061041c9190612b04565b611cb8565b005b61043d60048036038101906104389190613118565b611e6e565b005b600460008473ffffffffffffffffffffffffffffffffffffffff1673ffffffffffffffffffffffffffffffffffffffff16815260200190815260200160002060009054906101000a900460ff166104cb576040517f08c379a00000000000000000000000000000000000000000000000000000000081526004016104c2906131f6565b60405180910390fd5b6104f83330848673ffffffffffffffffffffffffffffffffffffffff16612054909392919063ffffffff16565b60036040518061018001604052803373ffffffffffffffffffffffffffffffffffffffff168152602001600073ffffffffffffffffffffffffffffffffffffffff1681526020018573ffffffffffffffffffffffffffffffffffffffff1681526020018481526020018381526020016000801b815260200160001515815260200160001515815260200142815260200160008152602001600081526020016000151581525090806001815401808255809150506001900390600052602060002090600b020160009091909190915060008201518160000160006101000a81548173ffffffffffffffffffffffffffffffffffffffff021916908373ffffffffffffffffffffffffffffffffffffffff16021790555060208201518160010160006101000a81548173ffffffffffffffffffffffffffffffffffffffff021916908373ffffffffffffffffffffffffffffffffffffffff16021790555060408201518160020160006101000a81548173ffffffffffffffffffffffffffffffffffffffff021916908373ffffffffffffffffffffffffffffffffffffffff160217905550606082015181600301556080820151816004015560a0820151816005015560c08201518160060160006101000a81548160ff02191690831515021790555060e08201518160060160016101000a81548160ff02191690831515021790555061010082015181600701556101208201518160080155610140820151816009015561016082015181600a0160006101000a81548160ff02191690831515021790555050503373ffffffffffffffffffffffffffffffffffffffff1660016003805490506107669190613245565b7fc3e0f84839dc888c892a013d10c8f9d6dc05a21a879d0ce468ca558013e9121c60405160405180910390a3505050565b600381815481106107a757600080fd5b90600052602060002090600b02016000915090508060000160009054906101000a900473ffffffffffffffffffffffffffffffffffffffff16908060010160009054906101000a900473ffffffffffffffffffffffffffffffffffffffff16908060020160009054906101000a900473ffffffffffffffffffffffffffffffffffffffff16908060030154908060040154908060050154908060060160009054906101000a900460ff16908060060160019054906101000a900460ff169080600701549080600801549080600901549080600a0160009054906101000a900460ff1690508c565b600160009054906101000a900473ffffffffffffffffffffffffffffffffffffffff1673ffffffffffffffffffffffffffffffffffffffff163373ffffffffffffffffffffffffffffffffffffffff1614610915576040517f30cd747100000000000000000000000000000000000000000000000000000000815260040160405180910390fd5b6103e881111561095a576040517f08c379a0000000000000000000000000000000000000000000000000000000008152600401610951906132c5565b60405180910390fd5b8060078190555050565b60046020528060005260406000206000915054906101000a900460ff1681565b600160009054906101000a900473ffffffffffffffffffffffffffffffffffffffff1673ffffffffffffffffffffffffffffffffffffffff163373ffffffffffffffffffffffffffffffffffffffff1614610a0b576040517f30cd747100000000000000000000000000000000000000000000000000000000815260040160405180910390fd5b600073ffffffffffffffffffffffffffffffffffffffff168173ffffffffffffffffffffffffffffffffffffffff1603610a7a576040517f08c379a0000000000000000000000000000000000000000000000000000000008152600401610a7190613331565b60405180910390fd5b80600660006101000a81548173ffffffffffffffffffffffffffffffffffffffff021916908373ffffffffffffffffffffffffffffffffffffffff16021790555050565b61025881565b6000600380549050905090565b60075481565b600060038281548110610aed57610aec613351565b5b90600052602060002090600b0201905080600a0160009054906101000a900460ff1615610b4f576040517f08c379a0000000000000000000000000000000000000000000000000000000008152600401610b46906133cc565b60405180910390fd5b8060090154421115610c6a578060060160009054906101000a900460ff168015610b8857508060060160019054906101000a900460ff16155b15610bc157610bbb828260000160009054906101000a900473ffffffffffffffffffffffffffffffffffffffff166120d6565b50610d14565b8060060160019054906101000a900460ff168015610bee57508060060160009054906101000a900460ff16155b15610c2757610c21828260010160009054906101000a900473ffffffffffffffffffffffffffffffffffffffff166120d6565b50610d14565b8060060160009054906101000a900460ff16158015610c5557508060060160019054906101000a900460ff16155b15610c6957610c63826123aa565b50610d14565b5b8060060160009054906101000a900460ff168015610c9657508060060160019054906101000a900460ff165b610cd5576040517f08c379a0000000000000000000000000000000000000000000000000000000008152600401610ccc90613438565b60405180910390fd5b610d12826005600085815260200190815260200160002060009054906101000a900473ffffffffffffffffffffffffffffffffffffffff166120d6565b505b50565b60025481565b7ff9a4bb626f7677582ca1a01dcf5e2aa8f3de98d999adc0598509571b99fe8adb81565b60056020528060005260406000206000915054906101000a900473ffffffffffffffffffffffffffffffffffffffff1681565b60008060008380519060200120815260200190815260200160002060009054906101000a900460ff169050919050565b600660009054906101000a900473ffffffffffffffffffffffffffffffffffffffff1681565b600160009054906101000a900473ffffffffffffffffffffffffffffffffffffffff1673ffffffffffffffffffffffffffffffffffffffff163373ffffffffffffffffffffffffffffffffffffffff1614610e51576040517f30cd747100000000000000000000000000000000000000000000000000000000815260040160405180910390fd5b60008383905003610e8e576040517f96f0ef1a00000000000000000000000000000000000000000000000000000000815260040160405180910390fd5b610edc83838080601f016020809104026020016040519081016040528093929190818152602001838380828437600081840152601f19601f8201169050808301925050505050505082612518565b505050565b600060038781548110610ef757610ef6613351565b5b90600052602060002090600b0201905080600a0160009054906101000a900460ff1615610f59576040517f08c379a0000000000000000000000000000000000000000000000000000000008152600401610f50906133cc565b60405180910390fd5b60038383905014610f9f576040517f08c379a0000000000000000000000000000000000000000000000000000000008152600401610f96906134ca565b60405180910390fd5b60008686600060038110610fb657610fb5613351565b5b602002016020810190610fc99190612b04565b87600160038110610fdd57610fdc613351565b5b602002016020810190610ff09190612b04565b8860026003811061100457611003613351565b5b6020020160208101906110179190612b04565b8860006003811061102b5761102a613351565b5b60200201358960016003811061104457611043613351565b5b60200201358a60026003811061105d5761105c613351565b5b60200201356040516020016110789796959493929190613553565b60405160208183030381529060405280519060200120905061109a848461258c565b60005b60038110156111dc573373ffffffffffffffffffffffffffffffffffffffff168782600381106110d0576110cf613351565b5b6020020160208101906110e39190612b04565b73ffffffffffffffffffffffffffffffffffffffff16636352211e88846003811061111157611110613351565b5b60200201356040518263ffffffff1660e01b81526004016111329190612b4c565b602060405180830381865afa15801561114f573d6000803e3d6000fd5b505050506040513d601f19601f8201168201806040525081019061117391906135e9565b73ffffffffffffffffffffffffffffffffffffffff16146111c9576040517f08c379a00000000000000000000000000000000000000000000000000000000081526004016111c090613662565b60405180910390fd5b80806111d490613682565b91505061109d565b508160000160009054906101000a900473ffffffffffffffffffffffffffffffffffffffff1673ffffffffffffffffffffffffffffffffffffffff163373ffffffffffffffffffffffffffffffffffffffff16036112ee578160060160009054906101000a900460ff1615611286576040517f08c379a000000000000000000000000000000000000000000000000000000000815260040161127d90613716565b60405180910390fd5b816004015481146112cc576040517f08c379a00000000000000000000000000000000000000000000000000000000081526004016112c390613782565b60405180910390fd5b60018260060160006101000a81548160ff02191690831515021790555061143b565b8160010160009054906101000a900473ffffffffffffffffffffffffffffffffffffffff1673ffffffffffffffffffffffffffffffffffffffff163373ffffffffffffffffffffffffffffffffffffffff16036113ff578160060160019054906101000a900460ff1615611397576040517f08c379a000000000000000000000000000000000000000000000000000000000815260040161138e90613716565b60405180910390fd5b816005015481146113dd576040517f08c379a00000000000000000000000000000000000000000000000000000000081526004016113d490613782565b60405180910390fd5b60018260060160016101000a81548160ff02191690831515021790555061143a565b6040517f08c379a0000000000000000000000000000000000000000000000000000000008152600401611431906137ee565b60405180910390fd5b5b3373ffffffffffffffffffffffffffffffffffffffff16887f6e9dac3f3f833c1d527aa989d3a673884ddc11e31fdccc11ccd8aebf1ae069ac60405160405180910390a35050505050505050565b600160009054906101000a900473ffffffffffffffffffffffffffffffffffffffff1673ffffffffffffffffffffffffffffffffffffffff163373ffffffffffffffffffffffffffffffffffffffff1614611510576040517f30cd747100000000000000000000000000000000000000000000000000000000815260040160405180910390fd5b80600460008473ffffffffffffffffffffffffffffffffffffffff1673ffffffffffffffffffffffffffffffffffffffff16815260200190815260200160002060006101000a81548160ff0219169083151502179055505050565b600160009054906101000a900473ffffffffffffffffffffffffffffffffffffffff1681565b6000600386815481106115a7576115a6613351565b5b90600052602060002090600b0201905060006002547ff9a4bb626f7677582ca1a01dcf5e2aa8f3de98d999adc0598509571b99fe8adb88886040516020016115f19392919061380e565b604051602081830303815290604052805190602001206040516020016116189291906138bd565b6040516020818303038152906040528051906020012090506000600182878787604051600081526020016040526040516116559493929190613903565b6020604051602081039080840390855afa158015611677573d6000803e3d6000fd5b5050506020604051035190503373ffffffffffffffffffffffffffffffffffffffff168173ffffffffffffffffffffffffffffffffffffffff16146116f1576040517f08c379a00000000000000000000000000000000000000000000000000000000081526004016116e890613994565b60405180910390fd5b8260000160009054906101000a900473ffffffffffffffffffffffffffffffffffffffff1673ffffffffffffffffffffffffffffffffffffffff163373ffffffffffffffffffffffffffffffffffffffff1603611756578683600401819055506117f7565b8260010160009054906101000a900473ffffffffffffffffffffffffffffffffffffffff1673ffffffffffffffffffffffffffffffffffffffff163373ffffffffffffffffffffffffffffffffffffffff16036117bb578683600501819055506117f6565b6040517f08c379a00000000000000000000000000000000000000000000000000000000081526004016117ed906137ee565b60405180910390fd5b5b3373ffffffffffffffffffffffffffffffffffffffff16887faf398d01fa79335dfe9179fda01a76ccb61aa3c3e0eb5cb31ede3dcea66af76260405160405180910390a35050505050505050565b60006003838154811061185b5761185a613351565b5b90600052602060002090600b02019050600073ffffffffffffffffffffffffffffffffffffffff168160010160009054906101000a900473ffffffffffffffffffffffffffffffffffffffff1673ffffffffffffffffffffffffffffffffffffffff16146118fe576040517f08c379a00000000000000000000000000000000000000000000000000000000081526004016118f590613a00565b60405180910390fd5b611953333083600301548460020160009054906101000a900473ffffffffffffffffffffffffffffffffffffffff1673ffffffffffffffffffffffffffffffffffffffff16612054909392919063ffffffff16565b338160010160006101000a81548173ffffffffffffffffffffffffffffffffffffffff021916908373ffffffffffffffffffffffffffffffffffffffff160217905550818160050181905550428160080181905550610258426119b69190613a20565b81600901819055503373ffffffffffffffffffffffffffffffffffffffff16837f45c4f9cbafe186141862608c493f28b823fde4c2142bedc3f5169961a73fdd2260405160405180910390a3505050565b600160009054906101000a900473ffffffffffffffffffffffffffffffffffffffff1673ffffffffffffffffffffffffffffffffffffffff163373ffffffffffffffffffffffffffffffffffffffff1614611a8e576040517f30cd747100000000000000000000000000000000000000000000000000000000815260040160405180910390fd5b600060038381548110611aa457611aa3613351565b5b90600052602060002090600b0201905080600a0160009054906101000a900460ff1615611b06576040517f08c379a0000000000000000000000000000000000000000000000000000000008152600401611afd906133cc565b60405180910390fd5b8060000160009054906101000a900473ffffffffffffffffffffffffffffffffffffffff1673ffffffffffffffffffffffffffffffffffffffff168273ffffffffffffffffffffffffffffffffffffffff161480611bb357508060010160009054906101000a900473ffffffffffffffffffffffffffffffffffffffff1673ffffffffffffffffffffffffffffffffffffffff168273ffffffffffffffffffffffffffffffffffffffff16145b80611bea5750600073ffffffffffffffffffffffffffffffffffffffff168273ffffffffffffffffffffffffffffffffffffffff16145b611c29576040517f08c379a0000000000000000000000000000000000000000000000000000000008152600401611c2090613aa0565b60405180910390fd5b816005600085815260200190815260200160002060006101000a81548173ffffffffffffffffffffffffffffffffffffffff021916908373ffffffffffffffffffffffffffffffffffffffff160217905550827f4074d0bff1fdf28c9bc2363d469257d9ff1ab7fc537134b28bb50738757f8eba83604051611cab9190612b82565b60405180910390a2505050565b600160009054906101000a900473ffffffffffffffffffffffffffffffffffffffff1673ffffffffffffffffffffffffffffffffffffffff163373ffffffffffffffffffffffffffffffffffffffff1614611d3f576040517f30cd747100000000000000000000000000000000000000000000000000000000815260040160405180910390fd5b600073ffffffffffffffffffffffffffffffffffffffff168173ffffffffffffffffffffffffffffffffffffffff1603611dae576040517f08c379a0000000000000000000000000000000000000000000000000000000008152600401611da590613331565b60405180910390fd5b8073ffffffffffffffffffffffffffffffffffffffff16600160009054906101000a900473ffffffffffffffffffffffffffffffffffffffff1673ffffffffffffffffffffffffffffffffffffffff167f8be0079c531659141344cd1fd0a4f28419497f9722a3daafe3b4186f6b6457e060405160405180910390a380600160006101000a81548173ffffffffffffffffffffffffffffffffffffffff021916908373ffffffffffffffffffffffffffffffffffffffff16021790555050565b600160009054906101000a900473ffffffffffffffffffffffffffffffffffffffff1673ffffffffffffffffffffffffffffffffffffffff163373ffffffffffffffffffffffffffffffffffffffff1614611ef5576040517f30cd747100000000000000000000000000000000000000000000000000000000815260040160405180910390fd5b818190508484905014611f34576040517fff633a3800000000000000000000000000000000000000000000000000000000815260040160405180910390fd5b60005b8484905081101561204d576000858583818110611f5757611f56613351565b5b9050602002810190611f699190613acf565b905003611fa2576040517f96f0ef1a00000000000000000000000000000000000000000000000000000000815260040160405180910390fd5b61203a858583818110611fb857611fb7613351565b5b9050602002810190611fca9190613acf565b8080601f016020809104026020016040519081016040528093929190818152602001838380828437600081840152601f19601f820116905080830192505050505050508484848181106120205761201f613351565b5b90506020020160208101906120359190613b32565b612518565b808061204590613682565b915050611f37565b5050505050565b6120d0848573ffffffffffffffffffffffffffffffffffffffff166323b872dd86868660405160240161208993929190613b5f565b604051602081830303815290604052915060e01b6020820180517bffffffffffffffffffffffffffffffffffffffffffffffffffffffff8381831617835250505050612761565b50505050565b6000600383815481106120ec576120eb613351565b5b90600052602060002090600b02019050600181600a0160006101000a81548160ff02191690831515021790555060006002826003015461212c9190613b96565b90506000612710600754836121419190613b96565b61214b9190613c07565b90506000818361215b9190613245565b905060008211156121d8576121d7600660009054906101000a900473ffffffffffffffffffffffffffffffffffffffff16838660020160009054906101000a900473ffffffffffffffffffffffffffffffffffffffff1673ffffffffffffffffffffffffffffffffffffffff166128039092919063ffffffff16565b5b600073ffffffffffffffffffffffffffffffffffffffff168573ffffffffffffffffffffffffffffffffffffffff16146122605761225b85828660020160009054906101000a900473ffffffffffffffffffffffffffffffffffffffff1673ffffffffffffffffffffffffffffffffffffffff166128039092919063ffffffff16565b61236a565b6122df8460000160009054906101000a900473ffffffffffffffffffffffffffffffffffffffff166002836122959190613c07565b8660020160009054906101000a900473ffffffffffffffffffffffffffffffffffffffff1673ffffffffffffffffffffffffffffffffffffffff166128039092919063ffffffff16565b6123698460010160009054906101000a900473ffffffffffffffffffffffffffffffffffffffff166002836123149190613c07565b8361231f9190613245565b8660020160009054906101000a900473ffffffffffffffffffffffffffffffffffffffff1673ffffffffffffffffffffffffffffffffffffffff166128039092919063ffffffff16565b5b857ff27faae2acd1ebca672f8ca0d896f3e0eb13164004932b3fbcfc2547167c8bb78660405161239a9190612b82565b60405180910390a2505050505050565b6000600382815481106123c0576123bf613351565b5b90600052602060002090600b02019050600181600a0160006101000a81548160ff0219169083151502179055506124648160000160009054906101000a900473ffffffffffffffffffffffffffffffffffffffff1682600301548360020160009054906101000a900473ffffffffffffffffffffffffffffffffffffffff1673ffffffffffffffffffffffffffffffffffffffff166128039092919063ffffffff16565b6124db8160010160009054906101000a900473ffffffffffffffffffffffffffffffffffffffff1682600301548360020160009054906101000a900473ffffffffffffffffffffffffffffffffffffffff1673ffffffffffffffffffffffffffffffffffffffff166128039092919063ffffffff16565b817ff27faae2acd1ebca672f8ca0d896f3e0eb13164004932b3fbcfc2547167c8bb7600060405161250c9190612b82565b60405180910390a25050565b6000828051906020012090508160008083815260200190815260200160002060006101000a81548160ff0219169083151502179055507f71597d70b120b69b2ed3763b127f0f73d5475cd67f32065088360e0586a8b250838360405161257f929190613ca6565b60405180910390a1505050565b600382829050146125d2576040517f08c379a00000000000000000000000000000000000000000000000000000000081526004016125c990613d22565b60405180910390fd5b6125da612882565b60005b6003811015612650578383828181106125f9576125f8613351565b5b905060200281019061260b9190613acf565b604051612619929190613d72565b604051809103902082826003811061263457612633613351565b5b602002018181525050808061264890613682565b9150506125dd565b5060005b600381101561275b5760008083836003811061267357612672613351565b5b6020020151815260200190815260200160002060009054906101000a900460ff161561274857600080600090505b6003811015612701578383600381106126bd576126bc613351565b5b60200201518482600381106126d5576126d4613351565b5b6020020151036126ee5781806126ea90613682565b9250505b80806126f990613682565b9150506126a1565b506001811115612746576040517f08c379a000000000000000000000000000000000000000000000000000000000815260040161273d90613dd7565b60405180910390fd5b505b808061275390613682565b915050612654565b50505050565b600080602060008451602086016000885af180612784576040513d6000823e3d81fd5b3d92506000519150506000821461279f5760018114156127bb565b60008473ffffffffffffffffffffffffffffffffffffffff163b145b156127fd57836040517f5274afe70000000000000000000000000000000000000000000000000000000081526004016127f49190612b82565b60405180910390fd5b50505050565b61287d838473ffffffffffffffffffffffffffffffffffffffff1663a9059cbb8585604051602401612836929190613df7565b604051602081830303815290604052915060e01b6020820180517bffffffffffffffffffffffffffffffffffffffffffffffffffffffff8381831617835250505050612761565b505050565b6040518060600160405280600390602082028036833780820191505090505090565b6000604051905090565b600080fd5b600080fd5b600073ffffffffffffffffffffffffffffffffffffffff82169050919050565b60006128e3826128b8565b9050919050565b6128f3816128d8565b81146128fe57600080fd5b50565b600081359050612910816128ea565b92915050565b6000819050919050565b61292981612916565b811461293457600080fd5b50565b60008135905061294681612920565b92915050565b6000819050919050565b61295f8161294c565b811461296a57600080fd5b50565b60008135905061297c81612956565b92915050565b60008060006060848603121561299b5761299a6128ae565b5b60006129a986828701612901565b93505060206129ba86828701612937565b92505060406129cb8682870161296d565b9150509250925092565b6000602082840312156129eb576129ea6128ae565b5b60006129f984828501612937565b91505092915050565b612a0b816128d8565b82525050565b612a1a81612916565b82525050565b612a298161294c565b82525050565b60008115159050919050565b612a4481612a2f565b82525050565b600061018082019050612a60600083018f612a02565b612a6d602083018e612a02565b612a7a604083018d612a02565b612a87606083018c612a11565b612a94608083018b612a20565b612aa160a083018a612a20565b612aae60c0830189612a3b565b612abb60e0830188612a3b565b612ac9610100830187612a11565b612ad7610120830186612a11565b612ae5610140830185612a11565b612af3610160830184612a3b565b9d9c50505050505050505050505050565b600060208284031215612b1a57612b196128ae565b5b6000612b2884828501612901565b91505092915050565b6000602082019050612b466000830184612a3b565b92915050565b6000602082019050612b616000830184612a11565b92915050565b6000602082019050612b7c6000830184612a20565b92915050565b6000602082019050612b976000830184612a02565b92915050565b600080fd5b600080fd5b6000601f19601f8301169050919050565b7f4e487b7100000000000000000000000000000000000000000000000000000000600052604160045260246000fd5b612bf082612ba7565b810181811067ffffffffffffffff82111715612c0f57612c0e612bb8565b5b80604052505050565b6000612c226128a4565b9050612c2e8282612be7565b919050565b600067ffffffffffffffff821115612c4e57612c4d612bb8565b5b612c5782612ba7565b9050602081019050919050565b82818337600083830152505050565b6000612c86612c8184612c33565b612c18565b905082815260208101848484011115612ca257612ca1612ba2565b5b612cad848285612c64565b509392505050565b600082601f830112612cca57612cc9612b9d565b5b8135612cda848260208601612c73565b91505092915050565b600060208284031215612cf957612cf86128ae565b5b600082013567ffffffffffffffff811115612d1757612d166128b3565b5b612d2384828501612cb5565b91505092915050565b600080fd5b600080fd5b60008083601f840112612d4c57612d4b612b9d565b5b8235905067ffffffffffffffff811115612d6957612d68612d2c565b5b602083019150836001820283011115612d8557612d84612d31565b5b9250929050565b612d9581612a2f565b8114612da057600080fd5b50565b600081359050612db281612d8c565b92915050565b600080600060408486031215612dd157612dd06128ae565b5b600084013567ffffffffffffffff811115612def57612dee6128b3565b5b612dfb86828701612d36565b93509350506020612e0e86828701612da3565b9150509250925092565b600081905082602060030282011115612e3457612e33612d31565b5b92915050565b600081905082602060030282011115612e5657612e55612d31565b5b92915050565b60008083601f840112612e7257612e71612b9d565b5b8235905067ffffffffffffffff811115612e8f57612e8e612d2c565b5b602083019150836020820283011115612eab57612eaa612d31565b5b9250929050565b6000806000806000806101208789031215612ed057612ecf6128ae565b5b6000612ede89828a01612937565b9650506020612eef89828a01612937565b9550506040612f0089828a01612e18565b94505060a0612f1189828a01612e3a565b93505061010087013567ffffffffffffffff811115612f3357612f326128b3565b5b612f3f89828a01612e5c565b92509250509295509295509295565b60008060408385031215612f6557612f646128ae565b5b6000612f7385828601612901565b9250506020612f8485828601612da3565b9150509250929050565b600060ff82169050919050565b612fa481612f8e565b8114612faf57600080fd5b50565b600081359050612fc181612f9b565b92915050565b600080600080600060a08688031215612fe357612fe26128ae565b5b6000612ff188828901612937565b95505060206130028882890161296d565b945050604061301388828901612fb2565b93505060606130248882890161296d565b92505060806130358882890161296d565b9150509295509295909350565b60008060408385031215613059576130586128ae565b5b600061306785828601612937565b92505060206130788582860161296d565b9150509250929050565b60008060408385031215613099576130986128ae565b5b60006130a785828601612937565b92505060206130b885828601612901565b9150509250929050565b60008083601f8401126130d8576130d7612b9d565b5b8235905067ffffffffffffffff8111156130f5576130f4612d2c565b5b60208301915083602082028301111561311157613110612d31565b5b9250929050565b60008060008060408587031215613132576131316128ae565b5b600085013567ffffffffffffffff8111156131505761314f6128b3565b5b61315c87828801612e5c565b9450945050602085013567ffffffffffffffff81111561317f5761317e6128b3565b5b61318b878288016130c2565b925092505092959194509250565b600082825260208201905092915050565b7f4552433230206e6f7420616c6c6f776564000000000000000000000000000000600082015250565b60006131e0601183613199565b91506131eb826131aa565b602082019050919050565b6000602082019050818103600083015261320f816131d3565b9050919050565b7f4e487b7100000000000000000000000000000000000000000000000000000000600052601160045260246000fd5b600061325082612916565b915061325b83612916565b925082820390508181111561327357613272613216565b5b92915050565b7f46656520746f6f20686967680000000000000000000000000000000000000000600082015250565b60006132af600c83613199565b91506132ba82613279565b602082019050919050565b600060208201905081810360008301526132de816132a2565b9050919050565b7f5a65726f20616464726573730000000000000000000000000000000000000000600082015250565b600061331b600c83613199565b9150613326826132e5565b602082019050919050565b6000602082019050818103600083015261334a8161330e565b9050919050565b7f4e487b7100000000000000000000000000000000000000000000000000000000600052603260045260246000fd5b7f536574746c656400000000000000000000000000000000000000000000000000600082015250565b60006133b6600783613199565b91506133c182613380565b602082019050919050565b600060208201905081810360008301526133e5816133a9565b9050919050565b7f52657665616c2070656e64696e67000000000000000000000000000000000000600082015250565b6000613422600e83613199565b915061342d826133ec565b602082019050919050565b6000602082019050818103600083015261345181613415565b9050919050565b7f4d7573742070726f766964652065786163746c792033206261636b67726f756e60008201527f6473000000000000000000000000000000000000000000000000000000000000602082015250565b60006134b4602283613199565b91506134bf82613458565b604082019050919050565b600060208201905081810360008301526134e3816134a7565b9050919050565b6000819050919050565b61350561350082612916565b6134ea565b82525050565b60008160601b9050919050565b60006135238261350b565b9050919050565b600061353582613518565b9050919050565b61354d613548826128d8565b61352a565b82525050565b600061355f828a6134f4565b60208201915061356f828961353c565b60148201915061357f828861353c565b60148201915061358f828761353c565b60148201915061359f82866134f4565b6020820191506135af82856134f4565b6020820191506135bf82846134f4565b60208201915081905098975050505050505050565b6000815190506135e3816128ea565b92915050565b6000602082840312156135ff576135fe6128ae565b5b600061360d848285016135d4565b91505092915050565b7f4e6f74204e4654206f776e657200000000000000000000000000000000000000600082015250565b600061364c600d83613199565b915061365782613616565b602082019050919050565b6000602082019050818103600083015261367b8161363f565b9050919050565b600061368d82612916565b91507fffffffffffffffffffffffffffffffffffffffffffffffffffffffffffffffff82036136bf576136be613216565b5b600182019050919050565b7f416c72656164792072657665616c656400000000000000000000000000000000600082015250565b6000613700601083613199565b915061370b826136ca565b602082019050919050565b6000602082019050818103600083015261372f816136f3565b9050919050565b7f4261642072657665616c00000000000000000000000000000000000000000000600082015250565b600061376c600a83613199565b915061377782613736565b602082019050919050565b6000602082019050818103600083015261379b8161375f565b9050919050565b7f4e6f7420706c6179657200000000000000000000000000000000000000000000600082015250565b60006137d8600a83613199565b91506137e3826137a2565b602082019050919050565b60006020820190508181036000830152613807816137cb565b9050919050565b60006060820190506138236000830186612a20565b6138306020830185612a11565b61383d6040830184612a20565b949350505050565b600081905092915050565b7f1901000000000000000000000000000000000000000000000000000000000000600082015250565b6000613886600283613845565b915061389182613850565b600282019050919050565b6000819050919050565b6138b76138b28261294c565b61389c565b82525050565b60006138c882613879565b91506138d482856138a6565b6020820191506138e482846138a6565b6020820191508190509392505050565b6138fd81612f8e565b82525050565b60006080820190506139186000830187612a20565b61392560208301866138f4565b6139326040830185612a20565b61393f6060830184612a20565b95945050505050565b7f426164207369676e617475726500000000000000000000000000000000000000600082015250565b600061397e600d83613199565b915061398982613948565b602082019050919050565b600060208201905081810360008301526139ad81613971565b9050919050565b7f416c7265616479206a6f696e6564000000000000000000000000000000000000600082015250565b60006139ea600e83613199565b91506139f5826139b4565b602082019050919050565b60006020820190508181036000830152613a19816139dd565b9050919050565b6000613a2b82612916565b9150613a3683612916565b9250828201905080821115613a4e57613a4d613216565b5b92915050565b7f496e76616c696400000000000000000000000000000000000000000000000000600082015250565b6000613a8a600783613199565b9150613a9582613a54565b602082019050919050565b60006020820190508181036000830152613ab981613a7d565b9050919050565b600080fd5b600080fd5b600080fd5b60008083356001602003843603038112613aec57613aeb613ac0565b5b80840192508235915067ffffffffffffffff821115613b0e57613b0d613ac5565b5b602083019250600182023603831315613b2a57613b29613aca565b5b509250929050565b600060208284031215613b4857613b476128ae565b5b6000613b5684828501612da3565b91505092915050565b6000606082019050613b746000830186612a02565b613b816020830185612a02565b613b8e6040830184612a11565b949350505050565b6000613ba182612916565b9150613bac83612916565b9250828202613bba81612916565b91508282048414831517613bd157613bd0613216565b5b5092915050565b7f4e487b7100000000000000000000000000000000000000000000000000000000600052601260045260246000fd5b6000613c1282612916565b9150613c1d83612916565b925082613c2d57613c2c613bd8565b5b828204905092915050565b600081519050919050565b60005b83811015613c61578082015181840152602081019050613c46565b60008484015250505050565b6000613c7882613c38565b613c828185613199565b9350613c92818560208601613c43565b613c9b81612ba7565b840191505092915050565b60006040820190508181036000830152613cc08185613c6d565b9050613ccf6020830184612a3b565b9392505050565b7f496e76616c6964206261636b67726f756e6473206c656e677468000000000000600082015250565b6000613d0c601a83613199565b9150613d1782613cd6565b602082019050919050565b60006020820190508181036000830152613d3b81613cff565b9050919050565b600081905092915050565b6000613d598385613d42565b9350613d66838584612c64565b82840190509392505050565b6000613d7f828486613d4d565b91508190509392505050565b7f5261726974792064757000000000000000000000000000000000000000000000600082015250565b6000613dc1600a83613199565b9150613dcc82613d8b565b602082019050919050565b60006020820190508181036000830152613df081613db4565b9050919050565b6000604082019050613e0c6000830185612a02565b613e196020830184612a11565b939250505056fea2646970667358221220a0997ed2370bd3c488310632bf74df86e1b9338d23c50316bdf0c74d2a50dfa964736f6c63430008140033",
			"opcodes": "PUSH1 0x80 PUSH1 0x40 MSTORE CALLVALUE DUP1 ISZERO PUSH3 0x11 JUMPI PUSH1 0x0 DUP1 REVERT JUMPDEST POP CALLER PUSH1 0x1 PUSH1 0x0 PUSH2 0x100 EXP DUP2 SLOAD DUP2 PUSH20 0xFFFFFFFFFFFFFFFFFFFFFFFFFFFFFFFFFFFFFFFF MUL NOT AND SWAP1 DUP4 PUSH20 0xFFFFFFFFFFFFFFFFFFFFFFFFFFFFFFFFFFFFFFFF AND MUL OR SWAP1 SSTORE POP PUSH3 0x63 PUSH3 0x138 PUSH1 0x20 SHL PUSH1 0x20 SHR JUMP JUMPDEST PUSH32 0x8B73C3C69BB8FE3D512ECC4CF759CC79239F7B179B0FFACAA9A75D522B39400F PUSH1 0x40 MLOAD DUP1 PUSH1 0x40 ADD PUSH1 0x40 MSTORE DUP1 PUSH1 0x9 DUP2 MSTORE PUSH1 0x20 ADD PUSH32 0x436F7265436C6173680000000000000000000000000000000000000000000000 DUP2 MSTORE POP DUP1 MLOAD SWAP1 PUSH1 0x20 ADD KECCAK256 PUSH1 0x40 MLOAD DUP1 PUSH1 0x40 ADD PUSH1 0x40 MSTORE DUP1 PUSH1 0x1 DUP2 MSTORE PUSH1 0x20 ADD PUSH32 0x3100000000000000000000000000000000000000000000000000000000000000 DUP2 MSTORE POP DUP1 MLOAD SWAP1 PUSH1 0x20 ADD KECCAK256 CHAINID ADDRESS PUSH1 0x40 MLOAD PUSH1 0x20 ADD PUSH3 0x116 SWAP6 SWAP5 SWAP4 SWAP3 SWAP2 SWAP1 PUSH3 0x34B JUMP JUMPDEST PUSH1 0x40 MLOAD PUSH1 0x20 DUP2 DUP4 SUB SUB DUP2 MSTORE SWAP1 PUSH1 0x40 MSTORE DUP1 MLOAD SWAP1 PUSH1 0x20 ADD KECCAK256 PUSH1 0x2 DUP2 SWAP1 SSTORE POP PUSH3 0x493 JUMP JUMPDEST PUSH3 0x180 PUSH1 0x40 MLOAD DUP1 PUSH1 0x40 ADD PUSH1 0x40 MSTORE DUP1 PUSH1 0x4 DUP2 MSTORE PUSH1 0x20 ADD PUSH32 0x476F6C6400000000000000000000000000000000000000000000000000000000 DUP2 MSTORE POP PUSH1 0x1 PUSH3 0x25A PUSH1 0x20 SHL PUSH1 0x20 SHR JUMP JUMPDEST PUSH3 0x1C8 PUSH1 0x40 MLOAD DUP1 PUSH1 0x40 ADD PUSH1 0x40 MSTORE DUP1 PUSH1 0x6 DUP2 MSTORE PUSH1 0x20 ADD PUSH32 0x53696C7665720000000000000000000000000000000000000000000000000000 DUP2 MSTORE POP PUSH1 0x1 PUSH3 0x25A PUSH1 0x20 SHL PUSH1 0x20 SHR JUMP JUMPDEST PUSH3 0x210 PUSH1 0x40 MLOAD DUP1 PUSH1 0x40 ADD PUSH1 0x40 MSTORE DUP1 PUSH1 0xD DUP2 MSTORE PUSH1 0x20 ADD PUSH32 0x56657264616E7420477265656E00000000000000000000000000000000000000 DUP2 MSTORE POP PUSH1 0x1 PUSH3 0x25A PUSH1 0x20 SHL PUSH1 0x20 SHR JUMP JUMPDEST PUSH3 0x258 PUSH1 0x40 MLOAD DUP1 PUSH1 0x40 ADD PUSH1 0x40 MSTORE DUP1 PUSH1 0x9 DUP2 MSTORE PUSH1 0x20 ADD PUSH32 0x526F736520476F6C640000000000000000000000000000000000000000000000 DUP2 MSTORE POP PUSH1 0x1 PUSH3 0x25A PUSH1 0x20 SHL PUSH1 0x20 SHR JUMP JUMPDEST JUMP JUMPDEST PUSH1 0x0 DUP3 DUP1 MLOAD SWAP1 PUSH1 0x20 ADD KECCAK256 SWAP1 POP DUP2 PUSH1 0x0 DUP1 DUP4 DUP2 MSTORE PUSH1 0x20 ADD SWAP1 DUP2 MSTORE PUSH1 0x20 ADD PUSH1 0x0 KECCAK256 PUSH1 0x0 PUSH2 0x100 EXP DUP2 SLOAD DUP2 PUSH1 0xFF MUL NOT AND SWAP1 DUP4 ISZERO ISZERO MUL OR SWAP1 SSTORE POP PUSH32 0x71597D70B120B69B2ED3763B127F0F73D5475CD67F32065088360E0586A8B250 DUP4 DUP4 PUSH1 0x40 MLOAD PUSH3 0x2C3 SWAP3 SWAP2 SWAP1 PUSH3 0x45F JUMP JUMPDEST PUSH1 0x40 MLOAD DUP1 SWAP2 SUB SWAP1 LOG1 POP POP POP JUMP JUMPDEST PUSH1 0x0 DUP2 SWAP1 POP SWAP2 SWAP1 POP JUMP JUMPDEST PUSH3 0x2E5 DUP2 PUSH3 0x2D0 JUMP JUMPDEST DUP3 MSTORE POP POP JUMP JUMPDEST PUSH1 0x0 DUP2 SWAP1 POP SWAP2 SWAP1 POP JUMP JUMPDEST PUSH3 0x300 DUP2 PUSH3 0x2EB JUMP JUMPDEST DUP3 MSTORE POP POP JUMP JUMPDEST PUSH1 0x0 PUSH20 0xFFFFFFFFFFFFFFFFFFFFFFFFFFFFFFFFFFFFFFFF DUP3 AND SWAP1 POP SWAP2 SWAP1 POP JUMP JUMPDEST PUSH1 0x0 PUSH3 0x333 DUP3 PUSH3 0x306 JUMP JUMPDEST SWAP1 POP SWAP2 SWAP1 POP JUMP JUMPDEST PUSH3 0x345 DUP2 PUSH3 0x326 JUMP JUMPDEST DUP3 MSTORE POP POP JUMP JUMPDEST PUSH1 0x0 PUSH1 0xA0 DUP3 ADD SWAP1 POP PUSH3 0x362 PUSH1 0x0 DUP4 ADD DUP9 PUSH3 0x2DA JUMP JUMPDEST PUSH3 0x371 PUSH1 0x20 DUP4 ADD DUP8 PUSH3 0x2DA JUMP JUMPDEST PUSH3 0x380 PUSH1 0x40 DUP4 ADD DUP7 PUSH3 0x2DA JUMP JUMPDEST PUSH3 0x38F PUSH1 0x60 DUP4 ADD DUP6 PUSH3 0x2F5 JUMP JUMPDEST PUSH3 0x39E PUSH1 0x80 DUP4 ADD DUP5 PUSH3 0x33A JUMP JUMPDEST SWAP7 SWAP6 POP POP POP POP POP POP JUMP JUMPDEST PUSH1 0x0 DUP2 MLOAD SWAP1 POP SWAP2 SWAP1 POP JUMP JUMPDEST PUSH1 0x0 DUP3 DUP3 MSTORE PUSH1 0x20 DUP3 ADD SWAP1 POP SWAP3 SWAP2 POP POP JUMP JUMPDEST PUSH1 0x0 JUMPDEST DUP4 DUP2 LT ISZERO PUSH3 0x3E4 JUMPI DUP1 DUP3 ADD MLOAD DUP2 DUP5 ADD MSTORE PUSH1 0x20 DUP2 ADD SWAP1 POP PUSH3 0x3C7 JUMP JUMPDEST PUSH1 0x0 DUP5 DUP5 ADD MSTORE POP POP POP POP JUMP JUMPDEST PUSH1 0x0 PUSH1 0x1F NOT PUSH1 0x1F DUP4 ADD AND SWAP1 POP SWAP2 SWAP1 POP JUMP JUMPDEST PUSH1 0x0 PUSH3 0x40E DUP3 PUSH3 0x3A8 JUMP JUMPDEST PUSH3 0x41A DUP2 DUP6 PUSH3 0x3B3 JUMP JUMPDEST SWAP4 POP PUSH3 0x42C DUP2 DUP6 PUSH1 0x20 DUP7 ADD PUSH3 0x3C4 JUMP JUMPDEST PUSH3 0x437 DUP2 PUSH3 0x3F0 JUMP JUMPDEST DUP5 ADD SWAP2 POP POP SWAP3 SWAP2 POP POP JUMP JUMPDEST PUSH1 0x0 DUP2 ISZERO ISZERO SWAP1 POP SWAP2 SWAP1 POP JUMP JUMPDEST PUSH3 0x459 DUP2 PUSH3 0x442 JUMP JUMPDEST DUP3 MSTORE POP POP JUMP JUMPDEST PUSH1 0x0 PUSH1 0x40 DUP3 ADD SWAP1 POP DUP2 DUP2 SUB PUSH1 0x0 DUP4 ADD MSTORE PUSH3 0x47B DUP2 DUP6 PUSH3 0x401 JUMP JUMPDEST SWAP1 POP PUSH3 0x48C PUSH1 0x20 DUP4 ADD DUP5 PUSH3 0x44E JUMP JUMPDEST SWAP4 SWAP3 POP POP POP JUMP JUMPDEST PUSH2 0x3E56 DUP1 PUSH3 0x4A3 PUSH1 0x0 CODECOPY PUSH1 0x0 RETURN INVALID PUSH1 0x80 PUSH1 0x40 MSTORE CALLVALUE DUP1 ISZERO PUSH2 0x10 JUMPI PUSH1 0x0 DUP1 REVERT JUMPDEST POP PUSH1 0x4 CALLDATASIZE LT PUSH2 0x14D JUMPI PUSH1 0x0 CALLDATALOAD PUSH1 0xE0 SHR DUP1 PUSH4 0x4C7B0754 GT PUSH2 0xC3 JUMPI DUP1 PUSH4 0x8DA5CB5B GT PUSH2 0x7C JUMPI DUP1 PUSH4 0x8DA5CB5B EQ PUSH2 0x395 JUMPI DUP1 PUSH4 0xA8A6196F EQ PUSH2 0x3B3 JUMPI DUP1 PUSH4 0xAC952671 EQ PUSH2 0x3CF JUMPI DUP1 PUSH4 0xB710C52C EQ PUSH2 0x3EB JUMPI DUP1 PUSH4 0xF2FDE38B EQ PUSH2 0x407 JUMPI DUP1 PUSH4 0xF969E592 EQ PUSH2 0x423 JUMPI PUSH2 0x14D JUMP JUMPDEST DUP1 PUSH4 0x4C7B0754 EQ PUSH2 0x2C3 JUMPI DUP1 PUSH4 0x4E714AC3 EQ PUSH2 0x2F3 JUMPI DUP1 PUSH4 0x59927044 EQ PUSH2 0x323 JUMPI DUP1 PUSH4 0x6093AE62 EQ PUSH2 0x341 JUMPI DUP1 PUSH4 0x64FC319B EQ PUSH2 0x35D JUMPI DUP1 PUSH4 0x78150B06 EQ PUSH2 0x379 JUMPI PUSH2 0x14D JUMP JUMPDEST DUP1 PUSH4 0x17E931CF GT PUSH2 0x115 JUMPI DUP1 PUSH4 0x17E931CF EQ PUSH2 0x211 JUMPI DUP1 PUSH4 0x20EBA3F2 EQ PUSH2 0x22F JUMPI DUP1 PUSH4 0x26232A2E EQ PUSH2 0x24D JUMPI DUP1 PUSH4 0x312D7BBC EQ PUSH2 0x26B JUMPI DUP1 PUSH4 0x3644E515 EQ PUSH2 0x287 JUMPI DUP1 PUSH4 0x37479BEB EQ PUSH2 0x2A5 JUMPI PUSH2 0x14D JUMP JUMPDEST DUP1 PUSH4 0x3B55DAC EQ PUSH2 0x152 JUMPI DUP1 PUSH4 0x117A5B90 EQ PUSH2 0x16E JUMPI DUP1 PUSH4 0x12E8E2C3 EQ PUSH2 0x1A9 JUMPI DUP1 PUSH4 0x14F8FB9B EQ PUSH2 0x1C5 JUMPI DUP1 PUSH4 0x1525FF7D EQ PUSH2 0x1F5 JUMPI JUMPDEST PUSH1 0x0 DUP1 REVERT JUMPDEST PUSH2 0x16C PUSH1 0x4 DUP1 CALLDATASIZE SUB DUP2 ADD SWAP1 PUSH2 0x167 SWAP2 SWAP1 PUSH2 0x2982 JUMP JUMPDEST PUSH2 0x43F JUMP JUMPDEST STOP JUMPDEST PUSH2 0x188 PUSH1 0x4 DUP1 CALLDATASIZE SUB DUP2 ADD SWAP1 PUSH2 0x183 SWAP2 SWAP1 PUSH2 0x29D5 JUMP JUMPDEST PUSH2 0x797 JUMP JUMPDEST PUSH1 0x40 MLOAD PUSH2 0x1A0 SWAP13 SWAP12 SWAP11 SWAP10 SWAP9 SWAP8 SWAP7 SWAP6 SWAP5 SWAP4 SWAP3 SWAP2 SWAP1 PUSH2 0x2A4A JUMP JUMPDEST PUSH1 0x40 MLOAD DUP1 SWAP2 SUB SWAP1 RETURN JUMPDEST PUSH2 0x1C3 PUSH1 0x4 DUP1 CALLDATASIZE SUB DUP2 ADD SWAP1 PUSH2 0x1BE SWAP2 SWAP1 PUSH2 0x29D5 JUMP JUMPDEST PUSH2 0x88E JUMP JUMPDEST STOP JUMPDEST PUSH2 0x1DF PUSH1 0x4 DUP1 CALLDATASIZE SUB DUP2 ADD SWAP1 PUSH2 0x1DA SWAP2 SWAP1 PUSH2 0x2B04 JUMP JUMPDEST PUSH2 0x964 JUMP JUMPDEST PUSH1 0x40 MLOAD PUSH2 0x1EC SWAP2 SWAP1 PUSH2 0x2B31 JUMP JUMPDEST PUSH1 0x40 MLOAD DUP1 SWAP2 SUB SWAP1 RETURN JUMPDEST PUSH2 0x20F PUSH1 0x4 DUP1 CALLDATASIZE SUB DUP2 ADD SWAP1 PUSH2 0x20A SWAP2 SWAP1 PUSH2 0x2B04 JUMP JUMPDEST PUSH2 0x984 JUMP JUMPDEST STOP JUMPDEST PUSH2 0x219 PUSH2 0xABE JUMP JUMPDEST PUSH1 0x40 MLOAD PUSH2 0x226 SWAP2 SWAP1 PUSH2 0x2B4C JUMP JUMPDEST PUSH1 0x40 MLOAD DUP1 SWAP2 SUB SWAP1 RETURN JUMPDEST PUSH2 0x237 PUSH2 0xAC4 JUMP JUMPDEST PUSH1 0x40 MLOAD PUSH2 0x244 SWAP2 SWAP1 PUSH2 0x2B4C JUMP JUMPDEST PUSH1 0x40 MLOAD DUP1 SWAP2 SUB SWAP1 RETURN JUMPDEST PUSH2 0x255 PUSH2 0xAD1 JUMP JUMPDEST PUSH1 0x40 MLOAD PUSH2 0x262 SWAP2 SWAP1 PUSH2 0x2B4C JUMP JUMPDEST PUSH1 0x40 MLOAD DUP1 SWAP2 SUB SWAP1 RETURN JUMPDEST PUSH2 0x285 PUSH1 0x4 DUP1 CALLDATASIZE SUB DUP2 ADD SWAP1 PUSH2 0x280 SWAP2 SWAP1 PUSH2 0x29D5 JUMP JUMPDEST PUSH2 0xAD7 JUMP JUMPDEST STOP JUMPDEST PUSH2 0x28F PUSH2 0xD17 JUMP JUMPDEST PUSH1 0x40 MLOAD PUSH2 0x29C SWAP2 SWAP1 PUSH2 0x2B67 JUMP JUMPDEST PUSH1 0x40 MLOAD DUP1 SWAP2 SUB SWAP1 RETURN JUMPDEST PUSH2 0x2AD PUSH2 0xD1D JUMP JUMPDEST PUSH1 0x40 MLOAD PUSH2 0x2BA SWAP2 SWAP1 PUSH2 0x2B67 JUMP JUMPDEST PUSH1 0x40 MLOAD DUP1 SWAP2 SUB SWAP1 RETURN JUMPDEST PUSH2 0x2DD PUSH1 0x4 DUP1 CALLDATASIZE SUB DUP2 ADD SWAP1 PUSH2 0x2D8 SWAP2 SWAP1 PUSH2 0x29D5 JUMP JUMPDEST PUSH2 0xD41 JUMP JUMPDEST PUSH1 0x40 MLOAD PUSH2 0x2EA SWAP2 SWAP1 PUSH2 0x2B82 JUMP JUMPDEST PUSH1 0x40 MLOAD DUP1 SWAP2 SUB SWAP1 RETURN JUMPDEST PUSH2 0x30D PUSH1 0x4 DUP1 CALLDATASIZE SUB DUP2 ADD SWAP1 PUSH2 0x308 SWAP2 SWAP1 PUSH2 0x2CE3 JUMP JUMPDEST PUSH2 0xD74 JUMP JUMPDEST PUSH1 0x40 MLOAD PUSH2 0x31A SWAP2 SWAP1 PUSH2 0x2B31 JUMP JUMPDEST PUSH1 0x40 MLOAD DUP1 SWAP2 SUB SWAP1 RETURN JUMPDEST PUSH2 0x32B PUSH2 0xDA4 JUMP JUMPDEST PUSH1 0x40 MLOAD PUSH2 0x338 SWAP2 SWAP1 PUSH2 0x2B82 JUMP JUMPDEST PUSH1 0x40 MLOAD DUP1 SWAP2 SUB SWAP1 RETURN JUMPDEST PUSH2 0x35B PUSH1 0x4 DUP1 CALLDATASIZE SUB DUP2 ADD SWAP1 PUSH2 0x356 SWAP2 SWAP1 PUSH2 0x2DB8 JUMP JUMPDEST PUSH2 0xDCA JUMP JUMPDEST STOP JUMPDEST PUSH2 0x377 PUSH1 0x4 DUP1 CALLDATASIZE SUB DUP2 ADD SWAP1 PUSH2 0x372 SWAP2 SWAP1 PUSH2 0x2EB2 JUMP JUMPDEST PUSH2 0xEE1 JUMP JUMPDEST STOP JUMPDEST PUSH2 0x393 PUSH1 0x4 DUP1 CALLDATASIZE SUB DUP2 ADD SWAP1 PUSH2 0x38E SWAP2 SWAP1 PUSH2 0x2F4E JUMP JUMPDEST PUSH2 0x1489 JUMP JUMPDEST STOP JUMPDEST PUSH2 0x39D PUSH2 0x156B JUMP JUMPDEST PUSH1 0x40 MLOAD PUSH2 0x3AA SWAP2 SWAP1 PUSH2 0x2B82 JUMP JUMPDEST PUSH1 0x40 MLOAD DUP1 SWAP2 SUB SWAP1 RETURN JUMPDEST PUSH2 0x3CD PUSH1 0x4 DUP1 CALLDATASIZE SUB DUP2 ADD SWAP1 PUSH2 0x3C8 SWAP2 SWAP1 PUSH2 0x2FC7 JUMP JUMPDEST PUSH2 0x1591 JUMP JUMPDEST STOP JUMPDEST PUSH2 0x3E9 PUSH1 0x4 DUP1 CALLDATASIZE SUB DUP2 ADD SWAP1 PUSH2 0x3E4 SWAP2 SWAP1 PUSH2 0x3042 JUMP JUMPDEST PUSH2 0x1845 JUMP JUMPDEST STOP JUMPDEST PUSH2 0x405 PUSH1 0x4 DUP1 CALLDATASIZE SUB DUP2 ADD SWAP1 PUSH2 0x400 SWAP2 SWAP1 PUSH2 0x3082 JUMP JUMPDEST PUSH2 0x1A07 JUMP JUMPDEST STOP JUMPDEST PUSH2 0x421 PUSH1 0x4 DUP1 CALLDATASIZE SUB DUP2 ADD SWAP1 PUSH2 0x41C SWAP2 SWAP1 PUSH2 0x2B04 JUMP JUMPDEST PUSH2 0x1CB8 JUMP JUMPDEST STOP JUMPDEST PUSH2 0x43D PUSH1 0x4 DUP1 CALLDATASIZE SUB DUP2 ADD SWAP1 PUSH2 0x438 SWAP2 SWAP1 PUSH2 0x3118 JUMP JUMPDEST PUSH2 0x1E6E JUMP JUMPDEST STOP JUMPDEST PUSH1 0x4 PUSH1 0x0 DUP5 PUSH20 0xFFFFFFFFFFFFFFFFFFFFFFFFFFFFFFFFFFFFFFFF AND PUSH20 0xFFFFFFFFFFFFFFFFFFFFFFFFFFFFFFFFFFFFFFFF AND DUP2 MSTORE PUSH1 0x20 ADD SWAP1 DUP2 MSTORE PUSH1 0x20 ADD PUSH1 0x0 KECCAK256 PUSH1 0x0 SWAP1 SLOAD SWAP1 PUSH2 0x100 EXP SWAP1 DIV PUSH1 0xFF AND PUSH2 0x4CB JUMPI PUSH1 0x40 MLOAD PUSH32 0x8C379A000000000000000000000000000000000000000000000000000000000 DUP2 MSTORE PUSH1 0x4 ADD PUSH2 0x4C2 SWAP1 PUSH2 0x31F6 JUMP JUMPDEST PUSH1 0x40 MLOAD DUP1 SWAP2 SUB SWAP1 REVERT JUMPDEST PUSH2 0x4F8 CALLER ADDRESS DUP5 DUP7 PUSH20 0xFFFFFFFFFFFFFFFFFFFFFFFFFFFFFFFFFFFFFFFF AND PUSH2 0x2054 SWAP1 SWAP4 SWAP3 SWAP2 SWAP1 PUSH4 0xFFFFFFFF AND JUMP JUMPDEST PUSH1 0x3 PUSH1 0x40 MLOAD DUP1 PUSH2 0x180 ADD PUSH1 0x40 MSTORE DUP1 CALLER PUSH20 0xFFFFFFFFFFFFFFFFFFFFFFFFFFFFFFFFFFFFFFFF AND DUP2 MSTORE PUSH1 0x20 ADD PUSH1 0x0 PUSH20 0xFFFFFFFFFFFFFFFFFFFFFFFFFFFFFFFFFFFFFFFF AND DUP2 MSTORE PUSH1 0x20 ADD DUP6 PUSH20 0xFFFFFFFFFFFFFFFFFFFFFFFFFFFFFFFFFFFFFFFF AND DUP2 MSTORE PUSH1 0x20 ADD DUP5 DUP2 MSTORE PUSH1 0x20 ADD DUP4 DUP2 MSTORE PUSH1 0x20 ADD PUSH1 0x0 DUP1 SHL DUP2 MSTORE PUSH1 0x20 ADD PUSH1 0x0 ISZERO ISZERO DUP2 MSTORE PUSH1 0x20 ADD PUSH1 0x0 ISZERO ISZERO DUP2 MSTORE PUSH1 0x20 ADD TIMESTAMP DUP2 MSTORE PUSH1 0x20 ADD PUSH1 0x0 DUP2 MSTORE PUSH1 0x20 ADD PUSH1 0x0 DUP2 MSTORE PUSH1 0x20 ADD PUSH1 0x0 ISZERO ISZERO DUP2 MSTORE POP SWAP1 DUP1 PUSH1 0x1 DUP2 SLOAD ADD DUP1 DUP3 SSTORE DUP1 SWAP2 POP POP PUSH1 0x1 SWAP1 SUB SWAP1 PUSH1 0x0 MSTORE PUSH1 0x20 PUSH1 0x0 KECCAK256 SWAP1 PUSH1 0xB MUL ADD PUSH1 0x0 SWAP1 SWAP2 SWAP1 SWAP2 SWAP1 SWAP2 POP PUSH1 0x0 DUP3 ADD MLOAD DUP2 PUSH1 0x0 ADD PUSH1 0x0 PUSH2 0x100 EXP DUP2 SLOAD DUP2 PUSH20 0xFFFFFFFFFFFFFFFFFFFFFFFFFFFFFFFFFFFFFFFF MUL NOT AND SWAP1 DUP4 PUSH20 0xFFFFFFFFFFFFFFFFFFFFFFFFFFFFFFFFFFFFFFFF AND MUL OR SWAP1 SSTORE POP PUSH1 0x20 DUP3 ADD MLOAD DUP2 PUSH1 0x1 ADD PUSH1 0x0 PUSH2 0x100 EXP DUP2 SLOAD DUP2 PUSH20 0xFFFFFFFFFFFFFFFFFFFFFFFFFFFFFFFFFFFFFFFF MUL NOT AND SWAP1 DUP4 PUSH20 0xFFFFFFFFFFFFFFFFFFFFFFFFFFFFFFFFFFFFFFFF AND MUL OR SWAP1 SSTORE POP PUSH1 0x40 DUP3 ADD MLOAD DUP2 PUSH1 0x2 ADD PUSH1 0x0 PUSH2 0x100 EXP DUP2 SLOAD DUP2 PUSH20 0xFFFFFFFFFFFFFFFFFFFFFFFFFFFFFFFFFFFFFFFF MUL NOT AND SWAP1 DUP4 PUSH20 0xFFFFFFFFFFFFFFFFFFFFFFFFFFFFFFFFFFFFFFFF AND MUL OR SWAP1 SSTORE POP PUSH1 0x60 DUP3 ADD MLOAD DUP2 PUSH1 0x3 ADD SSTORE PUSH1 0x80 DUP3 ADD MLOAD DUP2 PUSH1 0x4 ADD SSTORE PUSH1 0xA0 DUP3 ADD MLOAD DUP2 PUSH1 0x5 ADD SSTORE PUSH1 0xC0 DUP3 ADD MLOAD DUP2 PUSH1 0x6 ADD PUSH1 0x0 PUSH2 0x100 EXP DUP2 SLOAD DUP2 PUSH1 0xFF MUL NOT AND SWAP1 DUP4 ISZERO ISZERO MUL OR SWAP1 SSTORE POP PUSH1 0xE0 DUP3 ADD MLOAD DUP2 PUSH1 0x6 ADD PUSH1 0x1 PUSH2 0x100 EXP DUP2 SLOAD DUP2 PUSH1 0xFF MUL NOT AND SWAP1 DUP4 ISZERO ISZERO MUL OR SWAP1 SSTORE POP PUSH2 0x100 DUP3 ADD MLOAD DUP2 PUSH1 0x7 ADD SSTORE PUSH2 0x120 DUP3 ADD MLOAD DUP2 PUSH1 0x8 ADD SSTORE PUSH2 0x140 DUP3 ADD MLOAD DUP2 PUSH1 0x9 ADD SSTORE PUSH2 0x160 DUP3 ADD MLOAD DUP2 PUSH1 0xA ADD PUSH1 0x0 PUSH2 0x100 EXP DUP2 SLOAD DUP2 PUSH1 0xFF MUL NOT AND SWAP1 DUP4 ISZERO ISZERO MUL OR SWAP1 SSTORE POP POP POP CALLER PUSH20 0xFFFFFFFFFFFFFFFFFFFFFFFFFFFFFFFFFFFFFFFF AND PUSH1 0x1 PUSH1 0x3 DUP1 SLOAD SWAP1 POP PUSH2 0x766 SWAP2 SWAP1 PUSH2 0x3245 JUMP JUMPDEST PUSH32 0xC3E0F84839DC888C892A013D10C8F9D6DC05A21A879D0CE468CA558013E9121C PUSH1 0x40 MLOAD PUSH1 0x40 MLOAD DUP1 SWAP2 SUB SWAP1 LOG3 POP POP POP JUMP JUMPDEST PUSH1 0x3 DUP2 DUP2 SLOAD DUP2 LT PUSH2 0x7A7 JUMPI PUSH1 0x0 DUP1 REVERT JUMPDEST SWAP1 PUSH1 0x0 MSTORE PUSH1 0x20 PUSH1 0x0 KECCAK256 SWAP1 PUSH1 0xB MUL ADD PUSH1 0x0 SWAP2 POP SWAP1 POP DUP1 PUSH1 0x0 ADD PUSH1 0x0 SWAP1 SLOAD SWAP1 PUSH2 0x100 EXP SWAP1 DIV PUSH20 0xFFFFFFFFFFFFFFFFFFFFFFFFFFFFFFFFFFFFFFFF AND SWAP1 DUP1 PUSH1 0x1 ADD PUSH1 0x0 SWAP1 SLOAD SWAP1 PUSH2 0x100 EXP SWAP1 DIV PUSH20 0xFFFFFFFFFFFFFFFFFFFFFFFFFFFFFFFFFFFFFFFF AND SWAP1 DUP1 PUSH1 0x2 ADD PUSH1 0x0 SWAP1 SLOAD SWAP1 PUSH2 0x100 EXP SWAP1 DIV PUSH20 0xFFFFFFFFFFFFFFFFFFFFFFFFFFFFFFFFFFFFFFFF AND SWAP1 DUP1 PUSH1 0x3 ADD SLOAD SWAP1 DUP1 PUSH1 0x4 ADD SLOAD SWAP1 DUP1 PUSH1 0x5 ADD SLOAD SWAP1 DUP1 PUSH1 0x6 ADD PUSH1 0x0 SWAP1 SLOAD SWAP1 PUSH2 0x100 EXP SWAP1 DIV PUSH1 0xFF AND SWAP1 DUP1 PUSH1 0x6 ADD PUSH1 0x1 SWAP1 SLOAD SWAP1 PUSH2 0x100 EXP SWAP1 DIV PUSH1 0xFF AND SWAP1 DUP1 PUSH1 0x7 ADD SLOAD SWAP1 DUP1 PUSH1 0x8 ADD SLOAD SWAP1 DUP1 PUSH1 0x9 ADD SLOAD SWAP1 DUP1 PUSH1 0xA ADD PUSH1 0x0 SWAP1 SLOAD SWAP1 PUSH2 0x100 EXP SWAP1 DIV PUSH1 0xFF AND SWAP1 POP DUP13 JUMP JUMPDEST PUSH1 0x1 PUSH1 0x0 SWAP1 SLOAD SWAP1 PUSH2 0x100 EXP SWAP1 DIV PUSH20 0xFFFFFFFFFFFFFFFFFFFFFFFFFFFFFFFFFFFFFFFF AND PUSH20 0xFFFFFFFFFFFFFFFFFFFFFFFFFFFFFFFFFFFFFFFF AND CALLER PUSH20 0xFFFFFFFFFFFFFFFFFFFFFFFFFFFFFFFFFFFFFFFF AND EQ PUSH2 0x915 JUMPI PUSH1 0x40 MLOAD PUSH32 0x30CD747100000000000000000000000000000000000000000000000000000000 DUP2 MSTORE PUSH1 0x4 ADD PUSH1 0x40 MLOAD DUP1 SWAP2 SUB SWAP1 REVERT JUMPDEST PUSH2 0x3E8 DUP2 GT ISZERO PUSH2 0x95A JUMPI PUSH1 0x40 MLOAD PUSH32 0x8C379A000000000000000000000000000000000000000000000000000000000 DUP2 MSTORE PUSH1 0x4 ADD PUSH2 0x951 SWAP1 PUSH2 0x32C5 JUMP JUMPDEST PUSH1 0x40 MLOAD DUP1 SWAP2 SUB SWAP1 REVERT JUMPDEST DUP1 PUSH1 0x7 DUP2 SWAP1 SSTORE POP POP JUMP JUMPDEST PUSH1 0x4 PUSH1 0x20 MSTORE DUP1 PUSH1 0x0 MSTORE PUSH1 0x40 PUSH1 0x0 KECCAK256 PUSH1 0x0 SWAP2 POP SLOAD SWAP1 PUSH2 0x100 EXP SWAP1 DIV PUSH1 0xFF AND DUP2 JUMP JUMPDEST PUSH1 0x1 PUSH1 0x0 SWAP1 SLOAD SWAP1 PUSH2 0x100 EXP SWAP1 DIV PUSH20 0xFFFFFFFFFFFFFFFFFFFFFFFFFFFFFFFFFFFFFFFF AND PUSH20 0xFFFFFFFFFFFFFFFFFFFFFFFFFFFFFFFFFFFFFFFF AND CALLER PUSH20 0xFFFFFFFFFFFFFFFFFFFFFFFFFFFFFFFFFFFFFFFF AND EQ PUSH2 0xA0B JUMPI PUSH1 0x40 MLOAD PUSH32 0x30CD747100000000000000000000000000000000000000000000000000000000 DUP2 MSTORE PUSH1 0x4 ADD PUSH1 0x40 MLOAD DUP1 SWAP2 SUB SWAP1 REVERT JUMPDEST PUSH1 0x0 PUSH20 0xFFFFFFFFFFFFFFFFFFFFFFFFFFFFFFFFFFFFFFFF AND DUP2 PUSH20 0xFFFFFFFFFFFFFFFFFFFFFFFFFFFFFFFFFFFFFFFF AND SUB PUSH2 0xA7A JUMPI PUSH1 0x40 MLOAD PUSH32 0x8C379A000000000000000000000000000000000000000000000000000000000 DUP2 MSTORE PUSH1 0x4 ADD PUSH2 0xA71 SWAP1 PUSH2 0x3331 JUMP JUMPDEST PUSH1 0x40 MLOAD DUP1 SWAP2 SUB SWAP1 REVERT JUMPDEST DUP1 PUSH1 0x6 PUSH1 0x0 PUSH2 0x100 EXP DUP2 SLOAD DUP2 PUSH20 0xFFFFFFFFFFFFFFFFFFFFFFFFFFFFFFFFFFFFFFFF MUL NOT AND SWAP1 DUP4 PUSH20 0xFFFFFFFFFFFFFFFFFFFFFFFFFFFFFFFFFFFFFFFF AND MUL OR SWAP1 SSTORE POP POP JUMP JUMPDEST PUSH2 0x258 DUP2 JUMP JUMPDEST PUSH1 0x0 PUSH1 0x3 DUP1 SLOAD SWAP1 POP SWAP1 POP SWAP1 JUMP JUMPDEST PUSH1 0x7 SLOAD DUP2 JUMP JUMPDEST PUSH1 0x0 PUSH1 0x3 DUP3 DUP2 SLOAD DUP2 LT PUSH2 0xAED JUMPI PUSH2 0xAEC PUSH2 0x3351 JUMP JUMPDEST JUMPDEST SWAP1 PUSH1 0x0 MSTORE PUSH1 0x20 PUSH1 0x0 KECCAK256 SWAP1 PUSH1 0xB MUL ADD SWAP1 POP DUP1 PUSH1 0xA ADD PUSH1 0x0 SWAP1 SLOAD SWAP1 PUSH2 0x100 EXP SWAP1 DIV PUSH1 0xFF AND ISZERO PUSH2 0xB4F JUMPI PUSH1 0x40 MLOAD PUSH32 0x8C379A000000000000000000000000000000000000000000000000000000000 DUP2 MSTORE PUSH1 0x4 ADD PUSH2 0xB46 SWAP1 PUSH2 0x33CC JUMP JUMPDEST PUSH1 0x40 MLOAD DUP1 SWAP2 SUB SWAP1 REVERT JUMPDEST DUP1 PUSH1 0x9 ADD SLOAD TIMESTAMP GT ISZERO PUSH2 0xC6A JUMPI DUP1 PUSH1 0x6 ADD PUSH1 0x0 SWAP1 SLOAD SWAP1 PUSH2 0x100 EXP SWAP1 DIV PUSH1 0xFF AND DUP1 ISZERO PUSH2 0xB88 JUMPI POP DUP1 PUSH1 0x6 ADD PUSH1 0x1 SWAP1 SLOAD SWAP1 PUSH2 0x100 EXP SWAP1 DIV PUSH1 0xFF AND ISZERO JUMPDEST ISZERO PUSH2 0xBC1 JUMPI PUSH2 0xBBB DUP3 DUP3 PUSH1 0x0 ADD PUSH1 0x0 SWAP1 SLOAD SWAP1 PUSH2 0x100 EXP SWAP1 DIV PUSH20 0xFFFFFFFFFFFFFFFFFFFFFFFFFFFFFFFFFFFFFFFF AND PUSH2 0x20D6 JUMP JUMPDEST POP PUSH2 0xD14 JUMP JUMPDEST DUP1 PUSH1 0x6 ADD PUSH1 0x1 SWAP1 SLOAD SWAP1 PUSH2 0x100 EXP SWAP1 DIV PUSH1 0xFF AND DUP1 ISZERO PUSH2 0xBEE JUMPI POP DUP1 PUSH1 0x6 ADD PUSH1 0x0 SWAP1 SLOAD SWAP1 PUSH2 0x100 EXP SWAP1 DIV PUSH1 0xFF AND ISZERO JUMPDEST ISZERO PUSH2 0xC27 JUMPI PUSH2 0xC21 DUP3 DUP3 PUSH1 0x1 ADD PUSH1 0x0 SWAP1 SLOAD SWAP1 PUSH2 0x100 EXP SWAP1 DIV PUSH20 0xFFFFFFFFFFFFFFFFFFFFFFFFFFFFFFFFFFFFFFFF AND PUSH2 0x20D6 JUMP JUMPDEST POP PUSH2 0xD14 JUMP JUMPDEST DUP1 PUSH1 0x6 ADD PUSH1 0x0 SWAP1 SLOAD SWAP1 PUSH2 0x100 EXP SWAP1 DIV PUSH1 0xFF AND ISZERO DUP1 ISZERO PUSH2 0xC55 JUMPI POP DUP1 PUSH1 0x6 ADD PUSH1 0x1 SWAP1 SLOAD SWAP1 PUSH2 0x100 EXP SWAP1 DIV PUSH1 0xFF AND ISZERO JUMPDEST ISZERO PUSH2 0xC69 JUMPI PUSH2 0xC63 DUP3 PUSH2 0x23AA JUMP JUMPDEST POP PUSH2 0xD14 JUMP JUMPDEST JUMPDEST DUP1 PUSH1 0x6 ADD PUSH1 0x0 SWAP1 SLOAD SWAP1 PUSH2 0x100 EXP SWAP1 DIV PUSH1 0xFF AND DUP1 ISZERO PUSH2 0xC96 JUMPI POP DUP1 PUSH1 0x6 ADD PUSH1 0x1 SWAP1 SLOAD SWAP1 PUSH2 0x100 EXP SWAP1 DIV PUSH1 0xFF AND JUMPDEST PUSH2 0xCD5 JUMPI PUSH1 0x40 MLOAD PUSH32 0x8C379A000000000000000000000000000000000000000000000000000000000 DUP2 MSTORE PUSH1 0x4 ADD PUSH2 0xCCC SWAP1 PUSH2 0x3438 JUMP JUMPDEST PUSH1 0x40 MLOAD DUP1 SWAP2 SUB SWAP1 REVERT JUMPDEST PUSH2 0xD12 DUP3 PUSH1 0x5 PUSH1 0x0 DUP6 DUP2 MSTORE PUSH1 0x20 ADD SWAP1 DUP2 MSTORE PUSH1 0x20 ADD PUSH1 0x0 KECCAK256 PUSH1 0x0 SWAP1 SLOAD SWAP1 PUSH2 0x100 EXP SWAP1 DIV PUSH20 0xFFFFFFFFFFFFFFFFFFFFFFFFFFFFFFFFFFFFFFFF AND PUSH2 0x20D6 JUMP JUMPDEST POP JUMPDEST POP JUMP JUMPDEST PUSH1 0x2 SLOAD DUP2 JUMP JUMPDEST PUSH32 0xF9A4BB626F7677582CA1A01DCF5E2AA8F3DE98D999ADC0598509571B99FE8ADB DUP2 JUMP JUMPDEST PUSH1 0x5 PUSH1 0x20 MSTORE DUP1 PUSH1 0x0 MSTORE PUSH1 0x40 PUSH1 0x0 KECCAK256 PUSH1 0x0 SWAP2 POP SLOAD SWAP1 PUSH2 0x100 EXP SWAP1 DIV PUSH20 0xFFFFFFFFFFFFFFFFFFFFFFFFFFFFFFFFFFFFFFFF AND DUP2 JUMP JUMPDEST PUSH1 0x0 DUP1 PUSH1 0x0 DUP4 DUP1 MLOAD SWAP1 PUSH1 0x20 ADD KECCAK256 DUP2 MSTORE PUSH1 0x20 ADD SWAP1 DUP2 MSTORE PUSH1 0x20 ADD PUSH1 0x0 KECCAK256 PUSH1 0x0 SWAP1 SLOAD SWAP1 PUSH2 0x100 EXP SWAP1 DIV PUSH1 0xFF AND SWAP1 POP SWAP2 SWAP1 POP JUMP JUMPDEST PUSH1 0x6 PUSH1 0x0 SWAP1 SLOAD SWAP1 PUSH2 0x100 EXP SWAP1 DIV PUSH20 0xFFFFFFFFFFFFFFFFFFFFFFFFFFFFFFFFFFFFFFFF AND DUP2 JUMP JUMPDEST PUSH1 0x1 PUSH1 0x0 SWAP1 SLOAD SWAP1 PUSH2 0x100 EXP SWAP1 DIV PUSH20 0xFFFFFFFFFFFFFFFFFFFFFFFFFFFFFFFFFFFFFFFF AND PUSH20 0xFFFFFFFFFFFFFFFFFFFFFFFFFFFFFFFFFFFFFFFF AND CALLER PUSH20 0xFFFFFFFFFFFFFFFFFFFFFFFFFFFFFFFFFFFFFFFF AND EQ PUSH2 0xE51 JUMPI PUSH1 0x40 MLOAD PUSH32 0x30CD747100000000000000000000000000000000000000000000000000000000 DUP2 MSTORE PUSH1 0x4 ADD PUSH1 0x40 MLOAD DUP1 SWAP2 SUB SWAP1 REVERT JUMPDEST PUSH1 0x0 DUP4 DUP4 SWAP1 POP SUB PUSH2 0xE8E JUMPI PUSH1 0x40 MLOAD PUSH32 0x96F0EF1A00000000000000000000000000000000000000000000000000000000 DUP2 MSTORE PUSH1 0x4 ADD PUSH1 0x40 MLOAD DUP1 SWAP2 SUB SWAP1 REVERT JUMPDEST PUSH2 0xEDC DUP4 DUP4 DUP1 DUP1 PUSH1 0x1F ADD PUSH1 0x20 DUP1 SWAP2 DIV MUL PUSH1 0x20 ADD PUSH1 0x40 MLOAD SWAP1 DUP2 ADD PUSH1 0x40 MSTORE DUP1 SWAP4 SWAP3 SWAP2 SWAP1 DUP2 DUP2 MSTORE PUSH1 0x20 ADD DUP4 DUP4 DUP1 DUP3 DUP5 CALLDATACOPY PUSH1 0x0 DUP2 DUP5 ADD MSTORE PUSH1 0x1F NOT PUSH1 0x1F DUP3 ADD AND SWAP1 POP DUP1 DUP4 ADD SWAP3 POP POP POP POP POP POP POP DUP3 PUSH2 0x2518 JUMP JUMPDEST POP POP POP JUMP JUMPDEST PUSH1 0x0 PUSH1 0x3 DUP8 DUP2 SLOAD DUP2 LT PUSH2 0xEF7 JUMPI PUSH2 0xEF6 PUSH2 0x3351 JUMP JUMPDEST JUMPDEST SWAP1 PUSH1 0x0 MSTORE PUSH1 0x20 PUSH1 0x0 KECCAK256 SWAP1 PUSH1 0xB MUL ADD SWAP1 POP DUP1 PUSH1 0xA ADD PUSH1 0x0 SWAP1 SLOAD SWAP1 PUSH2 0x100 EXP SWAP1 DIV PUSH1 0xFF AND ISZERO PUSH2 0xF59 JUMPI PUSH1 0x40 MLOAD PUSH32 0x8C379A000000000000000000000000000000000000000000000000000000000 DUP2 MSTORE PUSH1 0x4 ADD PUSH2 0xF50 SWAP1 PUSH2 0x33CC JUMP JUMPDEST PUSH1 0x40 MLOAD DUP1 SWAP2 SUB SWAP1 REVERT JUMPDEST PUSH1 0x3 DUP4 DUP4 SWAP1 POP EQ PUSH2 0xF9F JUMPI PUSH1 0x40 MLOAD PUSH32 0x8C379A000000000000000000000000000000000000000000000000000000000 DUP2 MSTORE PUSH1 0x4 ADD PUSH2 0xF96 SWAP1 PUSH2 0x34CA JUMP JUMPDEST PUSH1 0x40 MLOAD DUP1 SWAP2 SUB SWAP1 REVERT JUMPDEST PUSH1 0x0 DUP7 DUP7 PUSH1 0x0 PUSH1 0x3 DUP2 LT PUSH2 0xFB6 JUMPI PUSH2 0xFB5 PUSH2 0x3351 JUMP JUMPDEST JUMPDEST PUSH1 0x20 MUL ADD PUSH1 0x20 DUP2 ADD SWAP1 PUSH2 0xFC9 SWAP2 SWAP1 PUSH2 0x2B04 JUMP JUMPDEST DUP8 PUSH1 0x1 PUSH1 0x3 DUP2 LT PUSH2 0xFDD JUMPI PUSH2 0xFDC PUSH2 0x3351 JUMP JUMPDEST JUMPDEST PUSH1 0x20 MUL ADD PUSH1 0x20 DUP2 ADD SWAP1 PUSH2 0xFF0 SWAP2 SWAP1 PUSH2 0x2B04 JUMP JUMPDEST DUP9 PUSH1 0x2 PUSH1 0x3 DUP2 LT PUSH2 0x1004 JUMPI PUSH2 0x1003 PUSH2 0x3351 JUMP JUMPDEST JUMPDEST PUSH1 0x20 MUL ADD PUSH1 0x20 DUP2 ADD SWAP1 PUSH2 0x1017 SWAP2 SWAP1 PUSH2 0x2B04 JUMP JUMPDEST DUP9 PUSH1 0x0 PUSH1 0x3 DUP2 LT PUSH2 0x102B JUMPI PUSH2 0x102A PUSH2 0x3351 JUMP JUMPDEST JUMPDEST PUSH1 0x20 MUL ADD CALLDATALOAD DUP10 PUSH1 0x1 PUSH1 0x3 DUP2 LT PUSH2 0x1044 JUMPI PUSH2 0x1043 PUSH2 0x3351 JUMP JUMPDEST JUMPDEST PUSH1 0x20 MUL ADD CALLDATALOAD DUP11 PUSH1 0x2 PUSH1 0x3 DUP2 LT PUSH2 0x105D JUMPI PUSH2 0x105C PUSH2 0x3351 JUMP JUMPDEST JUMPDEST PUSH1 0x20 MUL ADD CALLDATALOAD PUSH1 0x40 MLOAD PUSH1 0x20 ADD PUSH2 0x1078 SWAP8 SWAP7 SWAP6 SWAP5 SWAP4 SWAP3 SWAP2 SWAP1 PUSH2 0x3553 JUMP JUMPDEST PUSH1 0x40 MLOAD PUSH1 0x20 DUP2 DUP4 SUB SUB DUP2 MSTORE SWAP1 PUSH1 0x40 MSTORE DUP1 MLOAD SWAP1 PUSH1 0x20 ADD KECCAK256 SWAP1 POP PUSH2 0x109A DUP5 DUP5 PUSH2 0x258C JUMP JUMPDEST PUSH1 0x0 JUMPDEST PUSH1 0x3 DUP2 LT ISZERO PUSH2 0x11DC JUMPI CALLER PUSH20 0xFFFFFFFFFFFFFFFFFFFFFFFFFFFFFFFFFFFFFFFF AND DUP8 DUP3 PUSH1 0x3 DUP2 LT PUSH2 0x10D0 JUMPI PUSH2 0x10CF PUSH2 0x3351 JUMP JUMPDEST JUMPDEST PUSH1 0x20 MUL ADD PUSH1 0x20 DUP2 ADD SWAP1 PUSH2 0x10E3 SWAP2 SWAP1 PUSH2 0x2B04 JUMP JUMPDEST PUSH20 0xFFFFFFFFFFFFFFFFFFFFFFFFFFFFFFFFFFFFFFFF AND PUSH4 0x6352211E DUP9 DUP5 PUSH1 0x3 DUP2 LT PUSH2 0x1111 JUMPI PUSH2 0x1110 PUSH2 0x3351 JUMP JUMPDEST JUMPDEST PUSH1 0x20 MUL ADD CALLDATALOAD PUSH1 0x40 MLOAD DUP3 PUSH4 0xFFFFFFFF AND PUSH1 0xE0 SHL DUP2 MSTORE PUSH1 0x4 ADD PUSH2 0x1132 SWAP2 SWAP1 PUSH2 0x2B4C JUMP JUMPDEST PUSH1 0x20 PUSH1 0x40 MLOAD DUP1 DUP4 SUB DUP2 DUP7 GAS STATICCALL ISZERO DUP1 ISZERO PUSH2 0x114F JUMPI RETURNDATASIZE PUSH1 0x0 DUP1 RETURNDATACOPY RETURNDATASIZE PUSH1 0x0 REVERT JUMPDEST POP POP POP POP PUSH1 0x40 MLOAD RETURNDATASIZE PUSH1 0x1F NOT PUSH1 0x1F DUP3 ADD AND DUP3 ADD DUP1 PUSH1 0x40 MSTORE POP DUP2 ADD SWAP1 PUSH2 0x1173 SWAP2 SWAP1 PUSH2 0x35E9 JUMP JUMPDEST PUSH20 0xFFFFFFFFFFFFFFFFFFFFFFFFFFFFFFFFFFFFFFFF AND EQ PUSH2 0x11C9 JUMPI PUSH1 0x40 MLOAD PUSH32 0x8C379A000000000000000000000000000000000000000000000000000000000 DUP2 MSTORE PUSH1 0x4 ADD PUSH2 0x11C0 SWAP1 PUSH2 0x3662 JUMP JUMPDEST PUSH1 0x40 MLOAD DUP1 SWAP2 SUB SWAP1 REVERT JUMPDEST DUP1 DUP1 PUSH2 0x11D4 SWAP1 PUSH2 0x3682 JUMP JUMPDEST SWAP2 POP POP PUSH2 0x109D JUMP JUMPDEST POP DUP2 PUSH1 0x0 ADD PUSH1 0x0 SWAP1 SLOAD SWAP1 PUSH2 0x100 EXP SWAP1 DIV PUSH20 0xFFFFFFFFFFFFFFFFFFFFFFFFFFFFFFFFFFFFFFFF AND PUSH20 0xFFFFFFFFFFFFFFFFFFFFFFFFFFFFFFFFFFFFFFFF AND CALLER PUSH20 0xFFFFFFFFFFFFFFFFFFFFFFFFFFFFFFFFFFFFFFFF AND SUB PUSH2 0x12EE JUMPI DUP2 PUSH1 0x6 ADD PUSH1 0x0 SWAP1 SLOAD SWAP1 PUSH2 0x100 EXP SWAP1 DIV PUSH1 0xFF AND ISZERO PUSH2 0x1286 JUMPI PUSH1 0x40 MLOAD PUSH32 0x8C379A000000000000000000000000000000000000000000000000000000000 DUP2 MSTORE PUSH1 0x4 ADD PUSH2 0x127D SWAP1 PUSH2 0x3716 JUMP JUMPDEST PUSH1 0x40 MLOAD DUP1 SWAP2 SUB SWAP1 REVERT JUMPDEST DUP2 PUSH1 0x4 ADD SLOAD DUP2 EQ PUSH2 0x12CC JUMPI PUSH1 0x40 MLOAD PUSH32 0x8C379A000000000000000000000000000000000000000000000000000000000 DUP2 MSTORE PUSH1 0x4 ADD PUSH2 0x12C3 SWAP1 PUSH2 0x3782 JUMP JUMPDEST PUSH1 0x40 MLOAD DUP1 SWAP2 SUB SWAP1 REVERT JUMPDEST PUSH1 0x1 DUP3 PUSH1 0x6 ADD PUSH1 0x0 PUSH2 0x100 EXP DUP2 SLOAD DUP2 PUSH1 0xFF MUL NOT AND SWAP1 DUP4 ISZERO ISZERO MUL OR SWAP1 SSTORE POP PUSH2 0x143B JUMP JUMPDEST DUP2 PUSH1 0x1 ADD PUSH1 0x0 SWAP1 SLOAD SWAP1 PUSH2 0x100 EXP SWAP1 DIV PUSH20 0xFFFFFFFFFFFFFFFFFFFFFFFFFFFFFFFFFFFFFFFF AND PUSH20 0xFFFFFFFFFFFFFFFFFFFFFFFFFFFFFFFFFFFFFFFF AND CALLER PUSH20 0xFFFFFFFFFFFFFFFFFFFFFFFFFFFFFFFFFFFFFFFF AND SUB PUSH2 0x13FF JUMPI DUP2 PUSH1 0x6 ADD PUSH1 0x1 SWAP1 SLOAD SWAP1 PUSH2 0x100 EXP SWAP1 DIV PUSH1 0xFF AND ISZERO PUSH2 0x1397 JUMPI PUSH1 0x40 MLOAD PUSH32 0x8C379A000000000000000000000000000000000000000000000000000000000 DUP2 MSTORE PUSH1 0x4 ADD PUSH2 0x138E SWAP1 PUSH2 0x3716 JUMP JUMPDEST PUSH1 0x40 MLOAD DUP1 SWAP2 SUB SWAP1 REVERT JUMPDEST DUP2 PUSH1 0x5 ADD SLOAD DUP2 EQ PUSH2 0x13DD JUMPI PUSH1 0x40 MLOAD PUSH32 0x8C379A000000000000000000000000000000000000000000000000000000000 DUP2 MSTORE PUSH1 0x4 ADD PUSH2 0x13D4 SWAP1 PUSH2 0x3782 JUMP JUMPDEST PUSH1 0x40 MLOAD DUP1 SWAP2 SUB SWAP1 REVERT JUMPDEST PUSH1 0x1 DUP3 PUSH1 0x6 ADD PUSH1 0x1 PUSH2 0x100 EXP DUP2 SLOAD DUP2 PUSH1 0xFF MUL NOT AND SWAP1 DUP4 ISZERO ISZERO MUL OR SWAP1 SSTORE POP PUSH2 0x143A JUMP JUMPDEST PUSH1 0x40 MLOAD PUSH32 0x8C379A000000000000000000000000000000000000000000000000000000000 DUP2 MSTORE PUSH1 0x4 ADD PUSH2 0x1431 SWAP1 PUSH2 0x37EE JUMP JUMPDEST PUSH1 0x40 MLOAD DUP1 SWAP2 SUB SWAP1 REVERT JUMPDEST JUMPDEST CALLER PUSH20 0xFFFFFFFFFFFFFFFFFFFFFFFFFFFFFFFFFFFFFFFF AND DUP9 PUSH32 0x6E9DAC3F3F833C1D527AA989D3A673884DDC11E31FDCCC11CCD8AEBF1AE069AC PUSH1 0x40 MLOAD PUSH1 0x40 MLOAD DUP1 SWAP2 SUB SWAP1 LOG3 POP POP POP POP POP POP POP POP JUMP JUMPDEST PUSH1 0x1 PUSH1 0x0 SWAP1 SLOAD SWAP1 PUSH2 0x100 EXP SWAP1 DIV PUSH20 0xFFFFFFFFFFFFFFFFFFFFFFFFFFFFFFFFFFFFFFFF AND PUSH20 0xFFFFFFFFFFFFFFFFFFFFFFFFFFFFFFFFFFFFFFFF AND CALLER PUSH20 0xFFFFFFFFFFFFFFFFFFFFFFFFFFFFFFFFFFFFFFFF AND EQ PUSH2 0x1510 JUMPI PUSH1 0x40 MLOAD PUSH32 0x30CD747100000000000000000000000000000000000000000000000000000000 DUP2 MSTORE PUSH1 0x4 ADD PUSH1 0x40 MLOAD DUP1 SWAP2 SUB SWAP1 REVERT JUMPDEST DUP1 PUSH1 0x4 PUSH1 0x0 DUP5 PUSH20 0xFFFFFFFFFFFFFFFFFFFFFFFFFFFFFFFFFFFFFFFF AND PUSH20 0xFFFFFFFFFFFFFFFFFFFFFFFFFFFFFFFFFFFFFFFF AND DUP2 MSTORE PUSH1 0x20 ADD SWAP1 DUP2 MSTORE PUSH1 0x20 ADD PUSH1 0x0 KECCAK256 PUSH1 0x0 PUSH2 0x100 EXP DUP2 SLOAD DUP2 PUSH1 0xFF MUL NOT AND SWAP1 DUP4 ISZERO ISZERO MUL OR SWAP1 SSTORE POP POP POP JUMP JUMPDEST PUSH1 0x1 PUSH1 0x0 SWAP1 SLOAD SWAP1 PUSH2 0x100 EXP SWAP1 DIV PUSH20 0xFFFFFFFFFFFFFFFFFFFFFFFFFFFFFFFFFFFFFFFF AND DUP2 JUMP JUMPDEST PUSH1 0x0 PUSH1 0x3 DUP7 DUP2 SLOAD DUP2 LT PUSH2 0x15A7 JUMPI PUSH2 0x15A6 PUSH2 0x3351 JUMP JUMPDEST JUMPDEST SWAP1 PUSH1 0x0 MSTORE PUSH1 0x20 PUSH1 0x0 KECCAK256 SWAP1 PUSH1 0xB MUL ADD SWAP1 POP PUSH1 0x0 PUSH1 0x2 SLOAD PUSH32 0xF9A4BB626F7677582CA1A01DCF5E2AA8F3DE98D999ADC0598509571B99FE8ADB DUP9 DUP9 PUSH1 0x40 MLOAD PUSH1 0x20 ADD PUSH2 0x15F1 SWAP4 SWAP3 SWAP2 SWAP1 PUSH2 0x380E JUMP JUMPDEST PUSH1 0x40 MLOAD PUSH1 0x20 DUP2 DUP4 SUB SUB DUP2 MSTORE SWAP1 PUSH1 0x40 MSTORE DUP1 MLOAD SWAP1 PUSH1 0x20 ADD KECCAK256 PUSH1 0x40 MLOAD PUSH1 0x20 ADD PUSH2 0x1618 SWAP3 SWAP2 SWAP1 PUSH2 0x38BD JUMP JUMPDEST PUSH1 0x40 MLOAD PUSH1 0x20 DUP2 DUP4 SUB SUB DUP2 MSTORE SWAP1 PUSH1 0x40 MSTORE DUP1 MLOAD SWAP1 PUSH1 0x20 ADD KECCAK256 SWAP1 POP PUSH1 0x0 PUSH1 0x1 DUP3 DUP8 DUP8 DUP8 PUSH1 0x40 MLOAD PUSH1 0x0 DUP2 MSTORE PUSH1 0x20 ADD PUSH1 0x40 MSTORE PUSH1 0x40 MLOAD PUSH2 0x1655 SWAP5 SWAP4 SWAP3 SWAP2 SWAP1 PUSH2 0x3903 JUMP JUMPDEST PUSH1 0x20 PUSH1 0x40 MLOAD PUSH1 0x20 DUP2 SUB SWAP1 DUP1 DUP5 SUB SWAP1 DUP6 GAS STATICCALL ISZERO DUP1 ISZERO PUSH2 0x1677 JUMPI RETURNDATASIZE PUSH1 0x0 DUP1 RETURNDATACOPY RETURNDATASIZE PUSH1 0x0 REVERT JUMPDEST POP POP POP PUSH1 0x20 PUSH1 0x40 MLOAD SUB MLOAD SWAP1 POP CALLER PUSH20 0xFFFFFFFFFFFFFFFFFFFFFFFFFFFFFFFFFFFFFFFF AND DUP2 PUSH20 0xFFFFFFFFFFFFFFFFFFFFFFFFFFFFFFFFFFFFFFFF AND EQ PUSH2 0x16F1 JUMPI PUSH1 0x40 MLOAD PUSH32 0x8C379A000000000000000000000000000000000000000000000000000000000 DUP2 MSTORE PUSH1 0x4 ADD PUSH2 0x16E8 SWAP1 PUSH2 0x3994 JUMP JUMPDEST PUSH1 0x40 MLOAD DUP1 SWAP2 SUB SWAP1 REVERT JUMPDEST DUP3 PUSH1 0x0 ADD PUSH1 0x0 SWAP1 SLOAD SWAP1 PUSH2 0x100 EXP SWAP1 DIV PUSH20 0xFFFFFFFFFFFFFFFFFFFFFFFFFFFFFFFFFFFFFFFF AND PUSH20 0xFFFFFFFFFFFFFFFFFFFFFFFFFFFFFFFFFFFFFFFF AND CALLER PUSH20 0xFFFFFFFFFFFFFFFFFFFFFFFFFFFFFFFFFFFFFFFF AND SUB PUSH2 0x1756 JUMPI DUP7 DUP4 PUSH1 0x4 ADD DUP2 SWAP1 SSTORE POP PUSH2 0x17F7 JUMP JUMPDEST DUP3 PUSH1 0x1 ADD PUSH1 0x0 SWAP1 SLOAD SWAP1 PUSH2 0x100 EXP SWAP1 DIV PUSH20 0xFFFFFFFFFFFFFFFFFFFFFFFFFFFFFFFFFFFFFFFF AND PUSH20 0xFFFFFFFFFFFFFFFFFFFFFFFFFFFFFFFFFFFFFFFF AND CALLER PUSH20 0xFFFFFFFFFFFFFFFFFFFFFFFFFFFFFFFFFFFFFFFF AND SUB PUSH2 0x17BB JUMPI DUP7 DUP4 PUSH1 0x5 ADD DUP2 SWAP1 SSTORE POP PUSH2 0x17F6 JUMP JUMPDEST PUSH1 0x40 MLOAD PUSH32 0x8C379A000000000000000000000000000000000000000000000000000000000 DUP2 MSTORE PUSH1 0x4 ADD PUSH2 0x17ED SWAP1 PUSH2 0x37EE JUMP JUMPDEST PUSH1 0x40 MLOAD DUP1 SWAP2 SUB SWAP1 REVERT JUMPDEST JUMPDEST CALLER PUSH20 0xFFFFFFFFFFFFFFFFFFFFFFFFFFFFFFFFFFFFFFFF AND DUP9 PUSH32 0xAF398D01FA79335DFE9179FDA01A76CCB61AA3C3E0EB5CB31EDE3DCEA66AF762 PUSH1 0x40 MLOAD PUSH1 0x40 MLOAD DUP1 SWAP2 SUB SWAP1 LOG3 POP POP POP POP POP POP POP POP JUMP JUMPDEST PUSH1 0x0 PUSH1 0x3 DUP4 DUP2 SLOAD DUP2 LT PUSH2 0x185B JUMPI PUSH2 0x185A PUSH2 0x3351 JUMP JUMPDEST JUMPDEST SWAP1 PUSH1 0x0 MSTORE PUSH1 0x20 PUSH1 0x0 KECCAK256 SWAP1 PUSH1 0xB MUL ADD SWAP1 POP PUSH1 0x0 PUSH20 0xFFFFFFFFFFFFFFFFFFFFFFFFFFFFFFFFFFFFFFFF AND DUP2 PUSH1 0x1 ADD PUSH1 0x0 SWAP1 SLOAD SWAP1 PUSH2 0x100 EXP SWAP1 DIV PUSH20 0xFFFFFFFFFFFFFFFFFFFFFFFFFFFFFFFFFFFFFFFF AND PUSH20 0xFFFFFFFFFFFFFFFFFFFFFFFFFFFFFFFFFFFFFFFF AND EQ PUSH2 0x18FE JUMPI PUSH1 0x40 MLOAD PUSH32 0x8C379A000000000000000000000000000000000000000000000000000000000 DUP2 MSTORE PUSH1 0x4 ADD PUSH2 0x18F5 SWAP1 PUSH2 0x3A00 JUMP JUMPDEST PUSH1 0x40 MLOAD DUP1 SWAP2 SUB SWAP1 REVERT JUMPDEST PUSH2 0x1953 CALLER ADDRESS DUP4 PUSH1 0x3 ADD SLOAD DUP5 PUSH1 0x2 ADD PUSH1 0x0 SWAP1 SLOAD SWAP1 PUSH2 0x100 EXP SWAP1 DIV PUSH20 0xFFFFFFFFFFFFFFFFFFFFFFFFFFFFFFFFFFFFFFFF AND PUSH20 0xFFFFFFFFFFFFFFFFFFFFFFFFFFFFFFFFFFFFFFFF AND PUSH2 0x2054 SWAP1 SWAP4 SWAP3 SWAP2 SWAP1 PUSH4 0xFFFFFFFF AND JUMP JUMPDEST CALLER DUP2 PUSH1 0x1 ADD PUSH1 0x0 PUSH2 0x100 EXP DUP2 SLOAD DUP2 PUSH20 0xFFFFFFFFFFFFFFFFFFFFFFFFFFFFFFFFFFFFFFFF MUL NOT AND SWAP1 DUP4 PUSH20 0xFFFFFFFFFFFFFFFFFFFFFFFFFFFFFFFFFFFFFFFF AND MUL OR SWAP1 SSTORE POP DUP2 DUP2 PUSH1 0x5 ADD DUP2 SWAP1 SSTORE POP TIMESTAMP DUP2 PUSH1 0x8 ADD DUP2 SWAP1 SSTORE POP PUSH2 0x258 TIMESTAMP PUSH2 0x19B6 SWAP2 SWAP1 PUSH2 0x3A20 JUMP JUMPDEST DUP2 PUSH1 0x9 ADD DUP2 SWAP1 SSTORE POP CALLER PUSH20 0xFFFFFFFFFFFFFFFFFFFFFFFFFFFFFFFFFFFFFFFF AND DUP4 PUSH32 0x45C4F9CBAFE186141862608C493F28B823FDE4C2142BEDC3F5169961A73FDD22 PUSH1 0x40 MLOAD PUSH1 0x40 MLOAD DUP1 SWAP2 SUB SWAP1 LOG3 POP POP POP JUMP JUMPDEST PUSH1 0x1 PUSH1 0x0 SWAP1 SLOAD SWAP1 PUSH2 0x100 EXP SWAP1 DIV PUSH20 0xFFFFFFFFFFFFFFFFFFFFFFFFFFFFFFFFFFFFFFFF AND PUSH20 0xFFFFFFFFFFFFFFFFFFFFFFFFFFFFFFFFFFFFFFFF AND CALLER PUSH20 0xFFFFFFFFFFFFFFFFFFFFFFFFFFFFFFFFFFFFFFFF AND EQ PUSH2 0x1A8E JUMPI PUSH1 0x40 MLOAD PUSH32 0x30CD747100000000000000000000000000000000000000000000000000000000 DUP2 MSTORE PUSH1 0x4 ADD PUSH1 0x40 MLOAD DUP1 SWAP2 SUB SWAP1 REVERT JUMPDEST PUSH1 0x0 PUSH1 0x3 DUP4 DUP2 SLOAD DUP2 LT PUSH2 0x1AA4 JUMPI PUSH2 0x1AA3 PUSH2 0x3351 JUMP JUMPDEST JUMPDEST SWAP1 PUSH1 0x0 MSTORE PUSH1 0x20 PUSH1 0x0 KECCAK256 SWAP1 PUSH1 0xB MUL ADD SWAP1 POP DUP1 PUSH1 0xA ADD PUSH1 0x0 SWAP1 SLOAD SWAP1 PUSH2 0x100 EXP SWAP1 DIV PUSH1 0xFF AND ISZERO PUSH2 0x1B06 JUMPI PUSH1 0x40 MLOAD PUSH32 0x8C379A000000000000000000000000000000000000000000000000000000000 DUP2 MSTORE PUSH1 0x4 ADD PUSH2 0x1AFD SWAP1 PUSH2 0x33CC JUMP JUMPDEST PUSH1 0x40 MLOAD DUP1 SWAP2 SUB SWAP1 REVERT JUMPDEST DUP1 PUSH1 0x0 ADD PUSH1 0x0 SWAP1 SLOAD SWAP1 PUSH2 0x100 EXP SWAP1 DIV PUSH20 0xFFFFFFFFFFFFFFFFFFFFFFFFFFFFFFFFFFFFFFFF AND PUSH20 0xFFFFFFFFFFFFFFFFFFFFFFFFFFFFFFFFFFFFFFFF AND DUP3 PUSH20 0xFFFFFFFFFFFFFFFFFFFFFFFFFFFFFFFFFFFFFFFF AND EQ DUP1 PUSH2 0x1BB3 JUMPI POP DUP1 PUSH1 0x1 ADD PUSH1 0x0 SWAP1 SLOAD SWAP1 PUSH2 0x100 EXP SWAP1 DIV PUSH20 0xFFFFFFFFFFFFFFFFFFFFFFFFFFFFFFFFFFFFFFFF AND PUSH20 0xFFFFFFFFFFFFFFFFFFFFFFFFFFFFFFFFFFFFFFFF AND DUP3 PUSH20 0xFFFFFFFFFFFFFFFFFFFFFFFFFFFFFFFFFFFFFFFF AND EQ JUMPDEST DUP1 PUSH2 0x1BEA JUMPI POP PUSH1 0x0 PUSH20 0xFFFFFFFFFFFFFFFFFFFFFFFFFFFFFFFFFFFFFFFF AND DUP3 PUSH20 0xFFFFFFFFFFFFFFFFFFFFFFFFFFFFFFFFFFFFFFFF AND EQ JUMPDEST PUSH2 0x1C29 JUMPI PUSH1 0x40 MLOAD PUSH32 0x8C379A000000000000000000000000000000000000000000000000000000000 DUP2 MSTORE PUSH1 0x4 ADD PUSH2 0x1C20 SWAP1 PUSH2 0x3AA0 JUMP JUMPDEST PUSH1 0x40 MLOAD DUP1 SWAP2 SUB SWAP1 REVERT JUMPDEST DUP2 PUSH1 0x5 PUSH1 0x0 DUP6 DUP2 MSTORE PUSH1 0x20 ADD SWAP1 DUP2 MSTORE PUSH1 0x20 ADD PUSH1 0x0 KECCAK256 PUSH1 0x0 PUSH2 0x100 EXP DUP2 SLOAD DUP2 PUSH20 0xFFFFFFFFFFFFFFFFFFFFFFFFFFFFFFFFFFFFFFFF MUL NOT AND SWAP1 DUP4 PUSH20 0xFFFFFFFFFFFFFFFFFFFFFFFFFFFFFFFFFFFFFFFF AND MUL OR SWAP1 SSTORE POP DUP3 PUSH32 0x4074D0BFF1FDF28C9BC2363D469257D9FF1AB7FC537134B28BB50738757F8EBA DUP4 PUSH1 0x40 MLOAD PUSH2 0x1CAB SWAP2 SWAP1 PUSH2 0x2B82 JUMP JUMPDEST PUSH1 0x40 MLOAD DUP1 SWAP2 SUB SWAP1 LOG2 POP POP POP JUMP JUMPDEST PUSH1 0x1 PUSH1 0x0 SWAP1 SLOAD SWAP1 PUSH2 0x100 EXP SWAP1 DIV PUSH20 0xFFFFFFFFFFFFFFFFFFFFFFFFFFFFFFFFFFFFFFFF AND PUSH20 0xFFFFFFFFFFFFFFFFFFFFFFFFFFFFFFFFFFFFFFFF AND CALLER PUSH20 0xFFFFFFFFFFFFFFFFFFFFFFFFFFFFFFFFFFFFFFFF AND EQ PUSH2 0x1D3F JUMPI PUSH1 0x40 MLOAD PUSH32 0x30CD747100000000000000000000000000000000000000000000000000000000 DUP2 MSTORE PUSH1 0x4 ADD PUSH1 0x40 MLOAD DUP1 SWAP2 SUB SWAP1 REVERT JUMPDEST PUSH1 0x0 PUSH20 0xFFFFFFFFFFFFFFFFFFFFFFFFFFFFFFFFFFFFFFFF AND DUP2 PUSH20 0xFFFFFFFFFFFFFFFFFFFFFFFFFFFFFFFFFFFFFFFF AND SUB PUSH2 0x1DAE JUMPI PUSH1 0x40 MLOAD PUSH32 0x8C379A000000000000000000000000000000000000000000000000000000000 DUP2 MSTORE PUSH1 0x4 ADD PUSH2 0x1DA5 SWAP1 PUSH2 0x3331 JUMP JUMPDEST PUSH1 0x40 MLOAD DUP1 SWAP2 SUB SWAP1 REVERT JUMPDEST DUP1 PUSH20 0xFFFFFFFFFFFFFFFFFFFFFFFFFFFFFFFFFFFFFFFF AND PUSH1 0x1 PUSH1 0x0 SWAP1 SLOAD SWAP1 PUSH2 0x100 EXP SWAP1 DIV PUSH20 0xFFFFFFFFFFFFFFFFFFFFFFFFFFFFFFFFFFFFFFFF AND PUSH20 0xFFFFFFFFFFFFFFFFFFFFFFFFFFFFFFFFFFFFFFFF AND PUSH32 0x8BE0079C531659141344CD1FD0A4F28419497F9722A3DAAFE3B4186F6B6457E0 PUSH1 0x40 MLOAD PUSH1 0x40 MLOAD DUP1 SWAP2 SUB SWAP1 LOG3 DUP1 PUSH1 0x1 PUSH1 0x0 PUSH2 0x100 EXP DUP2 SLOAD DUP2 PUSH20 0xFFFFFFFFFFFFFFFFFFFFFFFFFFFFFFFFFFFFFFFF MUL NOT AND SWAP1 DUP4 PUSH20 0xFFFFFFFFFFFFFFFFFFFFFFFFFFFFFFFFFFFFFFFF AND MUL OR SWAP1 SSTORE POP POP JUMP JUMPDEST PUSH1 0x1 PUSH1 0x0 SWAP1 SLOAD SWAP1 PUSH2 0x100 EXP SWAP1 DIV PUSH20 0xFFFFFFFFFFFFFFFFFFFFFFFFFFFFFFFFFFFFFFFF AND PUSH20 0xFFFFFFFFFFFFFFFFFFFFFFFFFFFFFFFFFFFFFFFF AND CALLER PUSH20 0xFFFFFFFFFFFFFFFFFFFFFFFFFFFFFFFFFFFFFFFF AND EQ PUSH2 0x1EF5 JUMPI PUSH1 0x40 MLOAD PUSH32 0x30CD747100000000000000000000000000000000000000000000000000000000 DUP2 MSTORE PUSH1 0x4 ADD PUSH1 0x40 MLOAD DUP1 SWAP2 SUB SWAP1 REVERT JUMPDEST DUP2 DUP2 SWAP1 POP DUP5 DUP5 SWAP1 POP EQ PUSH2 0x1F34 JUMPI PUSH1 0x40 MLOAD PUSH32 0xFF633A3800000000000000000000000000000000000000000000000000000000 DUP2 MSTORE PUSH1 0x4 ADD PUSH1 0x40 MLOAD DUP1 SWAP2 SUB SWAP1 REVERT JUMPDEST PUSH1 0x0 JUMPDEST DUP5 DUP5 SWAP1 POP DUP2 LT ISZERO PUSH2 0x204D JUMPI PUSH1 0x0 DUP6 DUP6 DUP4 DUP2 DUP2 LT PUSH2 0x1F57 JUMPI PUSH2 0x1F56 PUSH2 0x3351 JUMP JUMPDEST JUMPDEST SWAP1 POP PUSH1 0x20 MUL DUP2 ADD SWAP1 PUSH2 0x1F69 SWAP2 SWAP1 PUSH2 0x3ACF JUMP JUMPDEST SWAP1 POP SUB PUSH2 0x1FA2 JUMPI PUSH1 0x40 MLOAD PUSH32 0x96F0EF1A00000000000000000000000000000000000000000000000000000000 DUP2 MSTORE PUSH1 0x4 ADD PUSH1 0x40 MLOAD DUP1 SWAP2 SUB SWAP1 REVERT JUMPDEST PUSH2 0x203A DUP6 DUP6 DUP4 DUP2 DUP2 LT PUSH2 0x1FB8 JUMPI PUSH2 0x1FB7 PUSH2 0x3351 JUMP JUMPDEST JUMPDEST SWAP1 POP PUSH1 0x20 MUL DUP2 ADD SWAP1 PUSH2 0x1FCA SWAP2 SWAP1 PUSH2 0x3ACF JUMP JUMPDEST DUP1 DUP1 PUSH1 0x1F ADD PUSH1 0x20 DUP1 SWAP2 DIV MUL PUSH1 0x20 ADD PUSH1 0x40 MLOAD SWAP1 DUP2 ADD PUSH1 0x40 MSTORE DUP1 SWAP4 SWAP3 SWAP2 SWAP1 DUP2 DUP2 MSTORE PUSH1 0x20 ADD DUP4 DUP4 DUP1 DUP3 DUP5 CALLDATACOPY PUSH1 0x0 DUP2 DUP5 ADD MSTORE PUSH1 0x1F NOT PUSH1 0x1F DUP3 ADD AND SWAP1 POP DUP1 DUP4 ADD SWAP3 POP POP POP POP POP POP POP DUP5 DUP5 DUP5 DUP2 DUP2 LT PUSH2 0x2020 JUMPI PUSH2 0x201F PUSH2 0x3351 JUMP JUMPDEST JUMPDEST SWAP1 POP PUSH1 0x20 MUL ADD PUSH1 0x20 DUP2 ADD SWAP1 PUSH2 0x2035 SWAP2 SWAP1 PUSH2 0x3B32 JUMP JUMPDEST PUSH2 0x2518 JUMP JUMPDEST DUP1 DUP1 PUSH2 0x2045 SWAP1 PUSH2 0x3682 JUMP JUMPDEST SWAP2 POP POP PUSH2 0x1F37 JUMP JUMPDEST POP POP POP POP POP JUMP JUMPDEST PUSH2 0x20D0 DUP5 DUP6 PUSH20 0xFFFFFFFFFFFFFFFFFFFFFFFFFFFFFFFFFFFFFFFF AND PUSH4 0x23B872DD DUP7 DUP7 DUP7 PUSH1 0x40 MLOAD PUSH1 0x24 ADD PUSH2 0x2089 SWAP4 SWAP3 SWAP2 SWAP1 PUSH2 0x3B5F JUMP JUMPDEST PUSH1 0x40 MLOAD PUSH1 0x20 DUP2 DUP4 SUB SUB DUP2 MSTORE SWAP1 PUSH1 0x40 MSTORE SWAP2 POP PUSH1 0xE0 SHL PUSH1 0x20 DUP3 ADD DUP1 MLOAD PUSH28 0xFFFFFFFFFFFFFFFFFFFFFFFFFFFFFFFFFFFFFFFFFFFFFFFFFFFFFFFF DUP4 DUP2 DUP4 AND OR DUP4 MSTORE POP POP POP POP PUSH2 0x2761 JUMP JUMPDEST POP POP POP POP JUMP JUMPDEST PUSH1 0x0 PUSH1 0x3 DUP4 DUP2 SLOAD DUP2 LT PUSH2 0x20EC JUMPI PUSH2 0x20EB PUSH2 0x3351 JUMP JUMPDEST JUMPDEST SWAP1 PUSH1 0x0 MSTORE PUSH1 0x20 PUSH1 0x0 KECCAK256 SWAP1 PUSH1 0xB MUL ADD SWAP1 POP PUSH1 0x1 DUP2 PUSH1 0xA ADD PUSH1 0x0 PUSH2 0x100 EXP DUP2 SLOAD DUP2 PUSH1 0xFF MUL NOT AND SWAP1 DUP4 ISZERO ISZERO MUL OR SWAP1 SSTORE POP PUSH1 0x0 PUSH1 0x2 DUP3 PUSH1 0x3 ADD SLOAD PUSH2 0x212C SWAP2 SWAP1 PUSH2 0x3B96 JUMP JUMPDEST SWAP1 POP PUSH1 0x0 PUSH2 0x2710 PUSH1 0x7 SLOAD DUP4 PUSH2 0x2141 SWAP2 SWAP1 PUSH2 0x3B96 JUMP JUMPDEST PUSH2 0x214B SWAP2 SWAP1 PUSH2 0x3C07 JUMP JUMPDEST SWAP1 POP PUSH1 0x0 DUP2 DUP4 PUSH2 0x215B SWAP2 SWAP1 PUSH2 0x3245 JUMP JUMPDEST SWAP1 POP PUSH1 0x0 DUP3 GT ISZERO PUSH2 0x21D8 JUMPI PUSH2 0x21D7 PUSH1 0x6 PUSH1 0x0 SWAP1 SLOAD SWAP1 PUSH2 0x100 EXP SWAP1 DIV PUSH20 0xFFFFFFFFFFFFFFFFFFFFFFFFFFFFFFFFFFFFFFFF AND DUP4 DUP7 PUSH1 0x2 ADD PUSH1 0x0 SWAP1 SLOAD SWAP1 PUSH2 0x100 EXP SWAP1 DIV PUSH20 0xFFFFFFFFFFFFFFFFFFFFFFFFFFFFFFFFFFFFFFFF AND PUSH20 0xFFFFFFFFFFFFFFFFFFFFFFFFFFFFFFFFFFFFFFFF AND PUSH2 0x2803 SWAP1 SWAP3 SWAP2 SWAP1 PUSH4 0xFFFFFFFF AND JUMP JUMPDEST JUMPDEST PUSH1 0x0 PUSH20 0xFFFFFFFFFFFFFFFFFFFFFFFFFFFFFFFFFFFFFFFF AND DUP6 PUSH20 0xFFFFFFFFFFFFFFFFFFFFFFFFFFFFFFFFFFFFFFFF AND EQ PUSH2 0x2260 JUMPI PUSH2 0x225B DUP6 DUP3 DUP7 PUSH1 0x2 ADD PUSH1 0x0 SWAP1 SLOAD SWAP1 PUSH2 0x100 EXP SWAP1 DIV PUSH20 0xFFFFFFFFFFFFFFFFFFFFFFFFFFFFFFFFFFFFFFFF AND PUSH20 0xFFFFFFFFFFFFFFFFFFFFFFFFFFFFFFFFFFFFFFFF AND PUSH2 0x2803 SWAP1 SWAP3 SWAP2 SWAP1 PUSH4 0xFFFFFFFF AND JUMP JUMPDEST PUSH2 0x236A JUMP JUMPDEST PUSH2 0x22DF DUP5 PUSH1 0x0 ADD PUSH1 0x0 SWAP1 SLOAD SWAP1 PUSH2 0x100 EXP SWAP1 DIV PUSH20 0xFFFFFFFFFFFFFFFFFFFFFFFFFFFFFFFFFFFFFFFF AND PUSH1 0x2 DUP4 PUSH2 0x2295 SWAP2 SWAP1 PUSH2 0x3C07 JUMP JUMPDEST DUP7 PUSH1 0x2 ADD PUSH1 0x0 SWAP1 SLOAD SWAP1 PUSH2 0x100 EXP SWAP1 DIV PUSH20 0xFFFFFFFFFFFFFFFFFFFFFFFFFFFFFFFFFFFFFFFF AND PUSH20 0xFFFFFFFFFFFFFFFFFFFFFFFFFFFFFFFFFFFFFFFF AND PUSH2 0x2803 SWAP1 SWAP3 SWAP2 SWAP1 PUSH4 0xFFFFFFFF AND JUMP JUMPDEST PUSH2 0x2369 DUP5 PUSH1 0x1 ADD PUSH1 0x0 SWAP1 SLOAD SWAP1 PUSH2 0x100 EXP SWAP1 DIV PUSH20 0xFFFFFFFFFFFFFFFFFFFFFFFFFFFFFFFFFFFFFFFF AND PUSH1 0x2 DUP4 PUSH2 0x2314 SWAP2 SWAP1 PUSH2 0x3C07 JUMP JUMPDEST DUP4 PUSH2 0x231F SWAP2 SWAP1 PUSH2 0x3245 JUMP JUMPDEST DUP7 PUSH1 0x2 ADD PUSH1 0x0 SWAP1 SLOAD SWAP1 PUSH2 0x100 EXP SWAP1 DIV PUSH20 0xFFFFFFFFFFFFFFFFFFFFFFFFFFFFFFFFFFFFFFFF AND PUSH20 0xFFFFFFFFFFFFFFFFFFFFFFFFFFFFFFFFFFFFFFFF AND PUSH2 0x2803 SWAP1 SWAP3 SWAP2 SWAP1 PUSH4 0xFFFFFFFF AND JUMP JUMPDEST JUMPDEST DUP6 PUSH32 0xF27FAAE2ACD1EBCA672F8CA0D896F3E0EB13164004932B3FBCFC2547167C8BB7 DUP7 PUSH1 0x40 MLOAD PUSH2 0x239A SWAP2 SWAP1 PUSH2 0x2B82 JUMP JUMPDEST PUSH1 0x40 MLOAD DUP1 SWAP2 SUB SWAP1 LOG2 POP POP POP POP POP POP JUMP JUMPDEST PUSH1 0x0 PUSH1 0x3 DUP3 DUP2 SLOAD DUP2 LT PUSH2 0x23C0 JUMPI PUSH2 0x23BF PUSH2 0x3351 JUMP JUMPDEST JUMPDEST SWAP1 PUSH1 0x0 MSTORE PUSH1 0x20 PUSH1 0x0 KECCAK256 SWAP1 PUSH1 0xB MUL ADD SWAP1 POP PUSH1 0x1 DUP2 PUSH1 0xA ADD PUSH1 0x0 PUSH2 0x100 EXP DUP2 SLOAD DUP2 PUSH1 0xFF MUL NOT AND SWAP1 DUP4 ISZERO ISZERO MUL OR SWAP1 SSTORE POP PUSH2 0x2464 DUP2 PUSH1 0x0 ADD PUSH1 0x0 SWAP1 SLOAD SWAP1 PUSH2 0x100 EXP SWAP1 DIV PUSH20 0xFFFFFFFFFFFFFFFFFFFFFFFFFFFFFFFFFFFFFFFF AND DUP3 PUSH1 0x3 ADD SLOAD DUP4 PUSH1 0x2 ADD PUSH1 0x0 SWAP1 SLOAD SWAP1 PUSH2 0x100 EXP SWAP1 DIV PUSH20 0xFFFFFFFFFFFFFFFFFFFFFFFFFFFFFFFFFFFFFFFF AND PUSH20 0xFFFFFFFFFFFFFFFFFFFFFFFFFFFFFFFFFFFFFFFF AND PUSH2 0x2803 SWAP1 SWAP3 SWAP2 SWAP1 PUSH4 0xFFFFFFFF AND JUMP JUMPDEST PUSH2 0x24DB DUP2 PUSH1 0x1 ADD PUSH1 0x0 SWAP1 SLOAD SWAP1 PUSH2 0x100 EXP SWAP1 DIV PUSH20 0xFFFFFFFFFFFFFFFFFFFFFFFFFFFFFFFFFFFFFFFF AND DUP3 PUSH1 0x3 ADD SLOAD DUP4 PUSH1 0x2 ADD PUSH1 0x0 SWAP1 SLOAD SWAP1 PUSH2 0x100 EXP SWAP1 DIV PUSH20 0xFFFFFFFFFFFFFFFFFFFFFFFFFFFFFFFFFFFFFFFF AND PUSH20 0xFFFFFFFFFFFFFFFFFFFFFFFFFFFFFFFFFFFFFFFF AND PUSH2 0x2803 SWAP1 SWAP3 SWAP2 SWAP1 PUSH4 0xFFFFFFFF AND JUMP JUMPDEST DUP2 PUSH32 0xF27FAAE2ACD1EBCA672F8CA0D896F3E0EB13164004932B3FBCFC2547167C8BB7 PUSH1 0x0 PUSH1 0x40 MLOAD PUSH2 0x250C SWAP2 SWAP1 PUSH2 0x2B82 JUMP JUMPDEST PUSH1 0x40 MLOAD DUP1 SWAP2 SUB SWAP1 LOG2 POP POP JUMP JUMPDEST PUSH1 0x0 DUP3 DUP1 MLOAD SWAP1 PUSH1 0x20 ADD KECCAK256 SWAP1 POP DUP2 PUSH1 0x0 DUP1 DUP4 DUP2 MSTORE PUSH1 0x20 ADD SWAP1 DUP2 MSTORE PUSH1 0x20 ADD PUSH1 0x0 KECCAK256 PUSH1 0x0 PUSH2 0x100 EXP DUP2 SLOAD DUP2 PUSH1 0xFF MUL NOT AND SWAP1 DUP4 ISZERO ISZERO MUL OR SWAP1 SSTORE POP PUSH32 0x71597D70B120B69B2ED3763B127F0F73D5475CD67F32065088360E0586A8B250 DUP4 DUP4 PUSH1 0x40 MLOAD PUSH2 0x257F SWAP3 SWAP2 SWAP1 PUSH2 0x3CA6 JUMP JUMPDEST PUSH1 0x40 MLOAD DUP1 SWAP2 SUB SWAP1 LOG1 POP POP POP JUMP JUMPDEST PUSH1 0x3 DUP3 DUP3 SWAP1 POP EQ PUSH2 0x25D2 JUMPI PUSH1 0x40 MLOAD PUSH32 0x8C379A000000000000000000000000000000000000000000000000000000000 DUP2 MSTORE PUSH1 0x4 ADD PUSH2 0x25C9 SWAP1 PUSH2 0x3D22 JUMP JUMPDEST PUSH1 0x40 MLOAD DUP1 SWAP2 SUB SWAP1 REVERT JUMPDEST PUSH2 0x25DA PUSH2 0x2882 JUMP JUMPDEST PUSH1 0x0 JUMPDEST PUSH1 0x3 DUP2 LT ISZERO PUSH2 0x2650 JUMPI DUP4 DUP4 DUP3 DUP2 DUP2 LT PUSH2 0x25F9 JUMPI PUSH2 0x25F8 PUSH2 0x3351 JUMP JUMPDEST JUMPDEST SWAP1 POP PUSH1 0x20 MUL DUP2 ADD SWAP1 PUSH2 0x260B SWAP2 SWAP1 PUSH2 0x3ACF JUMP JUMPDEST PUSH1 0x40 MLOAD PUSH2 0x2619 SWAP3 SWAP2 SWAP1 PUSH2 0x3D72 JUMP JUMPDEST PUSH1 0x40 MLOAD DUP1 SWAP2 SUB SWAP1 KECCAK256 DUP3 DUP3 PUSH1 0x3 DUP2 LT PUSH2 0x2634 JUMPI PUSH2 0x2633 PUSH2 0x3351 JUMP JUMPDEST JUMPDEST PUSH1 0x20 MUL ADD DUP2 DUP2 MSTORE POP POP DUP1 DUP1 PUSH2 0x2648 SWAP1 PUSH2 0x3682 JUMP JUMPDEST SWAP2 POP POP PUSH2 0x25DD JUMP JUMPDEST POP PUSH1 0x0 JUMPDEST PUSH1 0x3 DUP2 LT ISZERO PUSH2 0x275B JUMPI PUSH1 0x0 DUP1 DUP4 DUP4 PUSH1 0x3 DUP2 LT PUSH2 0x2673 JUMPI PUSH2 0x2672 PUSH2 0x3351 JUMP JUMPDEST JUMPDEST PUSH1 0x20 MUL ADD MLOAD DUP2 MSTORE PUSH1 0x20 ADD SWAP1 DUP2 MSTORE PUSH1 0x20 ADD PUSH1 0x0 KECCAK256 PUSH1 0x0 SWAP1 SLOAD SWAP1 PUSH2 0x100 EXP SWAP1 DIV PUSH1 0xFF AND ISZERO PUSH2 0x2748 JUMPI PUSH1 0x0 DUP1 PUSH1 0x0 SWAP1 POP JUMPDEST PUSH1 0x3 DUP2 LT ISZERO PUSH2 0x2701 JUMPI DUP4 DUP4 PUSH1 0x3 DUP2 LT PUSH2 0x26BD JUMPI PUSH2 0x26BC PUSH2 0x3351 JUMP JUMPDEST JUMPDEST PUSH1 0x20 MUL ADD MLOAD DUP5 DUP3 PUSH1 0x3 DUP2 LT PUSH2 0x26D5 JUMPI PUSH2 0x26D4 PUSH2 0x3351 JUMP JUMPDEST JUMPDEST PUSH1 0x20 MUL ADD MLOAD SUB PUSH2 0x26EE JUMPI DUP2 DUP1 PUSH2 0x26EA SWAP1 PUSH2 0x3682 JUMP JUMPDEST SWAP3 POP POP JUMPDEST DUP1 DUP1 PUSH2 0x26F9 SWAP1 PUSH2 0x3682 JUMP JUMPDEST SWAP2 POP POP PUSH2 0x26A1 JUMP JUMPDEST POP PUSH1 0x1 DUP2 GT ISZERO PUSH2 0x2746 JUMPI PUSH1 0x40 MLOAD PUSH32 0x8C379A000000000000000000000000000000000000000000000000000000000 DUP2 MSTORE PUSH1 0x4 ADD PUSH2 0x273D SWAP1 PUSH2 0x3DD7 JUMP JUMPDEST PUSH1 0x40 MLOAD DUP1 SWAP2 SUB SWAP1 REVERT JUMPDEST POP JUMPDEST DUP1 DUP1 PUSH2 0x2753 SWAP1 PUSH2 0x3682 JUMP JUMPDEST SWAP2 POP POP PUSH2 0x2654 JUMP JUMPDEST POP POP POP POP JUMP JUMPDEST PUSH1 0x0 DUP1 PUSH1 0x20 PUSH1 0x0 DUP5 MLOAD PUSH1 0x20 DUP7 ADD PUSH1 0x0 DUP9 GAS CALL DUP1 PUSH2 0x2784 JUMPI PUSH1 0x40 MLOAD RETURNDATASIZE PUSH1 0x0 DUP3 RETURNDATACOPY RETURNDATASIZE DUP2 REVERT JUMPDEST RETURNDATASIZE SWAP3 POP PUSH1 0x0 MLOAD SWAP2 POP POP PUSH1 0x0 DUP3 EQ PUSH2 0x279F JUMPI PUSH1 0x1 DUP2 EQ ISZERO PUSH2 0x27BB JUMP JUMPDEST PUSH1 0x0 DUP5 PUSH20 0xFFFFFFFFFFFFFFFFFFFFFFFFFFFFFFFFFFFFFFFF AND EXTCODESIZE EQ JUMPDEST ISZERO PUSH2 0x27FD JUMPI DUP4 PUSH1 0x40 MLOAD PUSH32 0x5274AFE700000000000000000000000000000000000000000000000000000000 DUP2 MSTORE PUSH1 0x4 ADD PUSH2 0x27F4 SWAP2 SWAP1 PUSH2 0x2B82 JUMP JUMPDEST PUSH1 0x40 MLOAD DUP1 SWAP2 SUB SWAP1 REVERT JUMPDEST POP POP POP POP JUMP JUMPDEST PUSH2 0x287D DUP4 DUP5 PUSH20 0xFFFFFFFFFFFFFFFFFFFFFFFFFFFFFFFFFFFFFFFF AND PUSH4 0xA9059CBB DUP6 DUP6 PUSH1 0x40 MLOAD PUSH1 0x24 ADD PUSH2 0x2836 SWAP3 SWAP2 SWAP1 PUSH2 0x3DF7 JUMP JUMPDEST PUSH1 0x40 MLOAD PUSH1 0x20 DUP2 DUP4 SUB SUB DUP2 MSTORE SWAP1 PUSH1 0x40 MSTORE SWAP2 POP PUSH1 0xE0 SHL PUSH1 0x20 DUP3 ADD DUP1 MLOAD PUSH28 0xFFFFFFFFFFFFFFFFFFFFFFFFFFFFFFFFFFFFFFFFFFFFFFFFFFFFFFFF DUP4 DUP2 DUP4 AND OR DUP4 MSTORE POP POP POP POP PUSH2 0x2761 JUMP JUMPDEST POP POP POP JUMP JUMPDEST PUSH1 0x40 MLOAD DUP1 PUSH1 0x60 ADD PUSH1 0x40 MSTORE DUP1 PUSH1 0x3 SWAP1 PUSH1 0x20 DUP3 MUL DUP1 CALLDATASIZE DUP4 CALLDATACOPY DUP1 DUP3 ADD SWAP2 POP POP SWAP1 POP POP SWAP1 JUMP JUMPDEST PUSH1 0x0 PUSH1 0x40 MLOAD SWAP1 POP SWAP1 JUMP JUMPDEST PUSH1 0x0 DUP1 REVERT JUMPDEST PUSH1 0x0 DUP1 REVERT JUMPDEST PUSH1 0x0 PUSH20 0xFFFFFFFFFFFFFFFFFFFFFFFFFFFFFFFFFFFFFFFF DUP3 AND SWAP1 POP SWAP2 SWAP1 POP JUMP JUMPDEST PUSH1 0x0 PUSH2 0x28E3 DUP3 PUSH2 0x28B8 JUMP JUMPDEST SWAP1 POP SWAP2 SWAP1 POP JUMP JUMPDEST PUSH2 0x28F3 DUP2 PUSH2 0x28D8 JUMP JUMPDEST DUP2 EQ PUSH2 0x28FE JUMPI PUSH1 0x0 DUP1 REVERT JUMPDEST POP JUMP JUMPDEST PUSH1 0x0 DUP2 CALLDATALOAD SWAP1 POP PUSH2 0x2910 DUP2 PUSH2 0x28EA JUMP JUMPDEST SWAP3 SWAP2 POP POP JUMP JUMPDEST PUSH1 0x0 DUP2 SWAP1 POP SWAP2 SWAP1 POP JUMP JUMPDEST PUSH2 0x2929 DUP2 PUSH2 0x2916 JUMP JUMPDEST DUP2 EQ PUSH2 0x2934 JUMPI PUSH1 0x0 DUP1 REVERT JUMPDEST POP JUMP JUMPDEST PUSH1 0x0 DUP2 CALLDATALOAD SWAP1 POP PUSH2 0x2946 DUP2 PUSH2 0x2920 JUMP JUMPDEST SWAP3 SWAP2 POP POP JUMP JUMPDEST PUSH1 0x0 DUP2 SWAP1 POP SWAP2 SWAP1 POP JUMP JUMPDEST PUSH2 0x295F DUP2 PUSH2 0x294C JUMP JUMPDEST DUP2 EQ PUSH2 0x296A JUMPI PUSH1 0x0 DUP1 REVERT JUMPDEST POP JUMP JUMPDEST PUSH1 0x0 DUP2 CALLDATALOAD SWAP1 POP PUSH2 0x297C DUP2 PUSH2 0x2956 JUMP JUMPDEST SWAP3 SWAP2 POP POP JUMP JUMPDEST PUSH1 0x0 DUP1 PUSH1 0x0 PUSH1 0x60 DUP5 DUP7 SUB SLT ISZERO PUSH2 0x299B JUMPI PUSH2 0x299A PUSH2 0x28AE JUMP JUMPDEST JUMPDEST PUSH1 0x0 PUSH2 0x29A9 DUP7 DUP3 DUP8 ADD PUSH2 0x2901 JUMP JUMPDEST SWAP4 POP POP PUSH1 0x20 PUSH2 0x29BA DUP7 DUP3 DUP8 ADD PUSH2 0x2937 JUMP JUMPDEST SWAP3 POP POP PUSH1 0x40 PUSH2 0x29CB DUP7 DUP3 DUP8 ADD PUSH2 0x296D JUMP JUMPDEST SWAP2 POP POP SWAP3 POP SWAP3 POP SWAP3 JUMP JUMPDEST PUSH1 0x0 PUSH1 0x20 DUP3 DUP5 SUB SLT ISZERO PUSH2 0x29EB JUMPI PUSH2 0x29EA PUSH2 0x28AE JUMP JUMPDEST JUMPDEST PUSH1 0x0 PUSH2 0x29F9 DUP5 DUP3 DUP6 ADD PUSH2 0x2937 JUMP JUMPDEST SWAP2 POP POP SWAP3 SWAP2 POP POP JUMP JUMPDEST PUSH2 0x2A0B DUP2 PUSH2 0x28D8 JUMP JUMPDEST DUP3 MSTORE POP POP JUMP JUMPDEST PUSH2 0x2A1A DUP2 PUSH2 0x2916 JUMP JUMPDEST DUP3 MSTORE POP POP JUMP JUMPDEST PUSH2 0x2A29 DUP2 PUSH2 0x294C JUMP JUMPDEST DUP3 MSTORE POP POP JUMP JUMPDEST PUSH1 0x0 DUP2 ISZERO ISZERO SWAP1 POP SWAP2 SWAP1 POP JUMP JUMPDEST PUSH2 0x2A44 DUP2 PUSH2 0x2A2F JUMP JUMPDEST DUP3 MSTORE POP POP JUMP JUMPDEST PUSH1 0x0 PUSH2 0x180 DUP3 ADD SWAP1 POP PUSH2 0x2A60 PUSH1 0x0 DUP4 ADD DUP16 PUSH2 0x2A02 JUMP JUMPDEST PUSH2 0x2A6D PUSH1 0x20 DUP4 ADD DUP15 PUSH2 0x2A02 JUMP JUMPDEST PUSH2 0x2A7A PUSH1 0x40 DUP4 ADD DUP14 PUSH2 0x2A02 JUMP JUMPDEST PUSH2 0x2A87 PUSH1 0x60 DUP4 ADD DUP13 PUSH2 0x2A11 JUMP JUMPDEST PUSH2 0x2A94 PUSH1 0x80 DUP4 ADD DUP12 PUSH2 0x2A20 JUMP JUMPDEST PUSH2 0x2AA1 PUSH1 0xA0 DUP4 ADD DUP11 PUSH2 0x2A20 JUMP JUMPDEST PUSH2 0x2AAE PUSH1 0xC0 DUP4 ADD DUP10 PUSH2 0x2A3B JUMP JUMPDEST PUSH2 0x2ABB PUSH1 0xE0 DUP4 ADD DUP9 PUSH2 0x2A3B JUMP JUMPDEST PUSH2 0x2AC9 PUSH2 0x100 DUP4 ADD DUP8 PUSH2 0x2A11 JUMP JUMPDEST PUSH2 0x2AD7 PUSH2 0x120 DUP4 ADD DUP7 PUSH2 0x2A11 JUMP JUMPDEST PUSH2 0x2AE5 PUSH2 0x140 DUP4 ADD DUP6 PUSH2 0x2A11 JUMP JUMPDEST PUSH2 0x2AF3 PUSH2 0x160 DUP4 ADD DUP5 PUSH2 0x2A3B JUMP JUMPDEST SWAP14 SWAP13 POP POP POP POP POP POP POP POP POP POP POP POP POP JUMP JUMPDEST PUSH1 0x0 PUSH1 0x20 DUP3 DUP5 SUB SLT ISZERO PUSH2 0x2B1A JUMPI PUSH2 0x2B19 PUSH2 0x28AE JUMP JUMPDEST JUMPDEST PUSH1 0x0 PUSH2 0x2B28 DUP5 DUP3 DUP6 ADD PUSH2 0x2901 JUMP JUMPDEST SWAP2 POP POP SWAP3 SWAP2 POP POP JUMP JUMPDEST PUSH1 0x0 PUSH1 0x20 DUP3 ADD SWAP1 POP PUSH2 0x2B46 PUSH1 0x0 DUP4 ADD DUP5 PUSH2 0x2A3B JUMP JUMPDEST SWAP3 SWAP2 POP POP JUMP JUMPDEST PUSH1 0x0 PUSH1 0x20 DUP3 ADD SWAP1 POP PUSH2 0x2B61 PUSH1 0x0 DUP4 ADD DUP5 PUSH2 0x2A11 JUMP JUMPDEST SWAP3 SWAP2 POP POP JUMP JUMPDEST PUSH1 0x0 PUSH1 0x20 DUP3 ADD SWAP1 POP PUSH2 0x2B7C PUSH1 0x0 DUP4 ADD DUP5 PUSH2 0x2A20 JUMP JUMPDEST SWAP3 SWAP2 POP POP JUMP JUMPDEST PUSH1 0x0 PUSH1 0x20 DUP3 ADD SWAP1 POP PUSH2 0x2B97 PUSH1 0x0 DUP4 ADD DUP5 PUSH2 0x2A02 JUMP JUMPDEST SWAP3 SWAP2 POP POP JUMP JUMPDEST PUSH1 0x0 DUP1 REVERT JUMPDEST PUSH1 0x0 DUP1 REVERT JUMPDEST PUSH1 0x0 PUSH1 0x1F NOT PUSH1 0x1F DUP4 ADD AND SWAP1 POP SWAP2 SWAP1 POP JUMP JUMPDEST PUSH32 0x4E487B7100000000000000000000000000000000000000000000000000000000 PUSH1 0x0 MSTORE PUSH1 0x41 PUSH1 0x4 MSTORE PUSH1 0x24 PUSH1 0x0 REVERT JUMPDEST PUSH2 0x2BF0 DUP3 PUSH2 0x2BA7 JUMP JUMPDEST DUP2 ADD DUP2 DUP2 LT PUSH8 0xFFFFFFFFFFFFFFFF DUP3 GT OR ISZERO PUSH2 0x2C0F JUMPI PUSH2 0x2C0E PUSH2 0x2BB8 JUMP JUMPDEST JUMPDEST DUP1 PUSH1 0x40 MSTORE POP POP POP JUMP JUMPDEST PUSH1 0x0 PUSH2 0x2C22 PUSH2 0x28A4 JUMP JUMPDEST SWAP1 POP PUSH2 0x2C2E DUP3 DUP3 PUSH2 0x2BE7 JUMP JUMPDEST SWAP2 SWAP1 POP JUMP JUMPDEST PUSH1 0x0 PUSH8 0xFFFFFFFFFFFFFFFF DUP3 GT ISZERO PUSH2 0x2C4E JUMPI PUSH2 0x2C4D PUSH2 0x2BB8 JUMP JUMPDEST JUMPDEST PUSH2 0x2C57 DUP3 PUSH2 0x2BA7 JUMP JUMPDEST SWAP1 POP PUSH1 0x20 DUP2 ADD SWAP1 POP SWAP2 SWAP1 POP JUMP JUMPDEST DUP3 DUP2 DUP4 CALLDATACOPY PUSH1 0x0 DUP4 DUP4 ADD MSTORE POP POP POP JUMP JUMPDEST PUSH1 0x0 PUSH2 0x2C86 PUSH2 0x2C81 DUP5 PUSH2 0x2C33 JUMP JUMPDEST PUSH2 0x2C18 JUMP JUMPDEST SWAP1 POP DUP3 DUP2 MSTORE PUSH1 0x20 DUP2 ADD DUP5 DUP5 DUP5 ADD GT ISZERO PUSH2 0x2CA2 JUMPI PUSH2 0x2CA1 PUSH2 0x2BA2 JUMP JUMPDEST JUMPDEST PUSH2 0x2CAD DUP5 DUP3 DUP6 PUSH2 0x2C64 JUMP JUMPDEST POP SWAP4 SWAP3 POP POP POP JUMP JUMPDEST PUSH1 0x0 DUP3 PUSH1 0x1F DUP4 ADD SLT PUSH2 0x2CCA JUMPI PUSH2 0x2CC9 PUSH2 0x2B9D JUMP JUMPDEST JUMPDEST DUP2 CALLDATALOAD PUSH2 0x2CDA DUP5 DUP3 PUSH1 0x20 DUP7 ADD PUSH2 0x2C73 JUMP JUMPDEST SWAP2 POP POP SWAP3 SWAP2 POP POP JUMP JUMPDEST PUSH1 0x0 PUSH1 0x20 DUP3 DUP5 SUB SLT ISZERO PUSH2 0x2CF9 JUMPI PUSH2 0x2CF8 PUSH2 0x28AE JUMP JUMPDEST JUMPDEST PUSH1 0x0 DUP3 ADD CALLDATALOAD PUSH8 0xFFFFFFFFFFFFFFFF DUP2 GT ISZERO PUSH2 0x2D17 JUMPI PUSH2 0x2D16 PUSH2 0x28B3 JUMP JUMPDEST JUMPDEST PUSH2 0x2D23 DUP5 DUP3 DUP6 ADD PUSH2 0x2CB5 JUMP JUMPDEST SWAP2 POP POP SWAP3 SWAP2 POP POP JUMP JUMPDEST PUSH1 0x0 DUP1 REVERT JUMPDEST PUSH1 0x0 DUP1 REVERT JUMPDEST PUSH1 0x0 DUP1 DUP4 PUSH1 0x1F DUP5 ADD SLT PUSH2 0x2D4C JUMPI PUSH2 0x2D4B PUSH2 0x2B9D JUMP JUMPDEST JUMPDEST DUP3 CALLDATALOAD SWAP1 POP PUSH8 0xFFFFFFFFFFFFFFFF DUP2 GT ISZERO PUSH2 0x2D69 JUMPI PUSH2 0x2D68 PUSH2 0x2D2C JUMP JUMPDEST JUMPDEST PUSH1 0x20 DUP4 ADD SWAP2 POP DUP4 PUSH1 0x1 DUP3 MUL DUP4 ADD GT ISZERO PUSH2 0x2D85 JUMPI PUSH2 0x2D84 PUSH2 0x2D31 JUMP JUMPDEST JUMPDEST SWAP3 POP SWAP3 SWAP1 POP JUMP JUMPDEST PUSH2 0x2D95 DUP2 PUSH2 0x2A2F JUMP JUMPDEST DUP2 EQ PUSH2 0x2DA0 JUMPI PUSH1 0x0 DUP1 REVERT JUMPDEST POP JUMP JUMPDEST PUSH1 0x0 DUP2 CALLDATALOAD SWAP1 POP PUSH2 0x2DB2 DUP2 PUSH2 0x2D8C JUMP JUMPDEST SWAP3 SWAP2 POP POP JUMP JUMPDEST PUSH1 0x0 DUP1 PUSH1 0x0 PUSH1 0x40 DUP5 DUP7 SUB SLT ISZERO PUSH2 0x2DD1 JUMPI PUSH2 0x2DD0 PUSH2 0x28AE JUMP JUMPDEST JUMPDEST PUSH1 0x0 DUP5 ADD CALLDATALOAD PUSH8 0xFFFFFFFFFFFFFFFF DUP2 GT ISZERO PUSH2 0x2DEF JUMPI PUSH2 0x2DEE PUSH2 0x28B3 JUMP JUMPDEST JUMPDEST PUSH2 0x2DFB DUP7 DUP3 DUP8 ADD PUSH2 0x2D36 JUMP JUMPDEST SWAP4 POP SWAP4 POP POP PUSH1 0x20 PUSH2 0x2E0E DUP7 DUP3 DUP8 ADD PUSH2 0x2DA3 JUMP JUMPDEST SWAP2 POP POP SWAP3 POP SWAP3 POP SWAP3 JUMP JUMPDEST PUSH1 0x0 DUP2 SWAP1 POP DUP3 PUSH1 0x20 PUSH1 0x3 MUL DUP3 ADD GT ISZERO PUSH2 0x2E34 JUMPI PUSH2 0x2E33 PUSH2 0x2D31 JUMP JUMPDEST JUMPDEST SWAP3 SWAP2 POP POP JUMP JUMPDEST PUSH1 0x0 DUP2 SWAP1 POP DUP3 PUSH1 0x20 PUSH1 0x3 MUL DUP3 ADD GT ISZERO PUSH2 0x2E56 JUMPI PUSH2 0x2E55 PUSH2 0x2D31 JUMP JUMPDEST JUMPDEST SWAP3 SWAP2 POP POP JUMP JUMPDEST PUSH1 0x0 DUP1 DUP4 PUSH1 0x1F DUP5 ADD SLT PUSH2 0x2E72 JUMPI PUSH2 0x2E71 PUSH2 0x2B9D JUMP JUMPDEST JUMPDEST DUP3 CALLDATALOAD SWAP1 POP PUSH8 0xFFFFFFFFFFFFFFFF DUP2 GT ISZERO PUSH2 0x2E8F JUMPI PUSH2 0x2E8E PUSH2 0x2D2C JUMP JUMPDEST JUMPDEST PUSH1 0x20 DUP4 ADD SWAP2 POP DUP4 PUSH1 0x20 DUP3 MUL DUP4 ADD GT ISZERO PUSH2 0x2EAB JUMPI PUSH2 0x2EAA PUSH2 0x2D31 JUMP JUMPDEST JUMPDEST SWAP3 POP SWAP3 SWAP1 POP JUMP JUMPDEST PUSH1 0x0 DUP1 PUSH1 0x0 DUP1 PUSH1 0x0 DUP1 PUSH2 0x120 DUP8 DUP10 SUB SLT ISZERO PUSH2 0x2ED0 JUMPI PUSH2 0x2ECF PUSH2 0x28AE JUMP JUMPDEST JUMPDEST PUSH1 0x0 PUSH2 0x2EDE DUP10 DUP3 DUP11 ADD PUSH2 0x2937 JUMP JUMPDEST SWAP7 POP POP PUSH1 0x20 PUSH2 0x2EEF DUP10 DUP3 DUP11 ADD PUSH2 0x2937 JUMP JUMPDEST SWAP6 POP POP PUSH1 0x40 PUSH2 0x2F00 DUP10 DUP3 DUP11 ADD PUSH2 0x2E18 JUMP JUMPDEST SWAP5 POP POP PUSH1 0xA0 PUSH2 0x2F11 DUP10 DUP3 DUP11 ADD PUSH2 0x2E3A JUMP JUMPDEST SWAP4 POP POP PUSH2 0x100 DUP8 ADD CALLDATALOAD PUSH8 0xFFFFFFFFFFFFFFFF DUP2 GT ISZERO PUSH2 0x2F33 JUMPI PUSH2 0x2F32 PUSH2 0x28B3 JUMP JUMPDEST JUMPDEST PUSH2 0x2F3F DUP10 DUP3 DUP11 ADD PUSH2 0x2E5C JUMP JUMPDEST SWAP3 POP SWAP3 POP POP SWAP3 SWAP6 POP SWAP3 SWAP6 POP SWAP3 SWAP6 JUMP JUMPDEST PUSH1 0x0 DUP1 PUSH1 0x40 DUP4 DUP6 SUB SLT ISZERO PUSH2 0x2F65 JUMPI PUSH2 0x2F64 PUSH2 0x28AE JUMP JUMPDEST JUMPDEST PUSH1 0x0 PUSH2 0x2F73 DUP6 DUP3 DUP7 ADD PUSH2 0x2901 JUMP JUMPDEST SWAP3 POP POP PUSH1 0x20 PUSH2 0x2F84 DUP6 DUP3 DUP7 ADD PUSH2 0x2DA3 JUMP JUMPDEST SWAP2 POP POP SWAP3 POP SWAP3 SWAP1 POP JUMP JUMPDEST PUSH1 0x0 PUSH1 0xFF DUP3 AND SWAP1 POP SWAP2 SWAP1 POP JUMP JUMPDEST PUSH2 0x2FA4 DUP2 PUSH2 0x2F8E JUMP JUMPDEST DUP2 EQ PUSH2 0x2FAF JUMPI PUSH1 0x0 DUP1 REVERT JUMPDEST POP JUMP JUMPDEST PUSH1 0x0 DUP2 CALLDATALOAD SWAP1 POP PUSH2 0x2FC1 DUP2 PUSH2 0x2F9B JUMP JUMPDEST SWAP3 SWAP2 POP POP JUMP JUMPDEST PUSH1 0x0 DUP1 PUSH1 0x0 DUP1 PUSH1 0x0 PUSH1 0xA0 DUP7 DUP9 SUB SLT ISZERO PUSH2 0x2FE3 JUMPI PUSH2 0x2FE2 PUSH2 0x28AE JUMP JUMPDEST JUMPDEST PUSH1 0x0 PUSH2 0x2FF1 DUP9 DUP3 DUP10 ADD PUSH2 0x2937 JUMP JUMPDEST SWAP6 POP POP PUSH1 0x20 PUSH2 0x3002 DUP9 DUP3 DUP10 ADD PUSH2 0x296D JUMP JUMPDEST SWAP5 POP POP PUSH1 0x40 PUSH2 0x3013 DUP9 DUP3 DUP10 ADD PUSH2 0x2FB2 JUMP JUMPDEST SWAP4 POP POP PUSH1 0x60 PUSH2 0x3024 DUP9 DUP3 DUP10 ADD PUSH2 0x296D JUMP JUMPDEST SWAP3 POP POP PUSH1 0x80 PUSH2 0x3035 DUP9 DUP3 DUP10 ADD PUSH2 0x296D JUMP JUMPDEST SWAP2 POP POP SWAP3 SWAP6 POP SWAP3 SWAP6 SWAP1 SWAP4 POP JUMP JUMPDEST PUSH1 0x0 DUP1 PUSH1 0x40 DUP4 DUP6 SUB SLT ISZERO PUSH2 0x3059 JUMPI PUSH2 0x3058 PUSH2 0x28AE JUMP JUMPDEST JUMPDEST PUSH1 0x0 PUSH2 0x3067 DUP6 DUP3 DUP7 ADD PUSH2 0x2937 JUMP JUMPDEST SWAP3 POP POP PUSH1 0x20 PUSH2 0x3078 DUP6 DUP3 DUP7 ADD PUSH2 0x296D JUMP JUMPDEST SWAP2 POP POP SWAP3 POP SWAP3 SWAP1 POP JUMP JUMPDEST PUSH1 0x0 DUP1 PUSH1 0x40 DUP4 DUP6 SUB SLT ISZERO PUSH2 0x3099 JUMPI PUSH2 0x3098 PUSH2 0x28AE JUMP JUMPDEST JUMPDEST PUSH1 0x0 PUSH2 0x30A7 DUP6 DUP3 DUP7 ADD PUSH2 0x2937 JUMP JUMPDEST SWAP3 POP POP PUSH1 0x20 PUSH2 0x30B8 DUP6 DUP3 DUP7 ADD PUSH2 0x2901 JUMP JUMPDEST SWAP2 POP POP SWAP3 POP SWAP3 SWAP1 POP JUMP JUMPDEST PUSH1 0x0 DUP1 DUP4 PUSH1 0x1F DUP5 ADD SLT PUSH2 0x30D8 JUMPI PUSH2 0x30D7 PUSH2 0x2B9D JUMP JUMPDEST JUMPDEST DUP3 CALLDATALOAD SWAP1 POP PUSH8 0xFFFFFFFFFFFFFFFF DUP2 GT ISZERO PUSH2 0x30F5 JUMPI PUSH2 0x30F4 PUSH2 0x2D2C JUMP JUMPDEST JUMPDEST PUSH1 0x20 DUP4 ADD SWAP2 POP DUP4 PUSH1 0x20 DUP3 MUL DUP4 ADD GT ISZERO PUSH2 0x3111 JUMPI PUSH2 0x3110 PUSH2 0x2D31 JUMP JUMPDEST JUMPDEST SWAP3 POP SWAP3 SWAP1 POP JUMP JUMPDEST PUSH1 0x0 DUP1 PUSH1 0x0 DUP1 PUSH1 0x40 DUP6 DUP8 SUB SLT ISZERO PUSH2 0x3132 JUMPI PUSH2 0x3131 PUSH2 0x28AE JUMP JUMPDEST JUMPDEST PUSH1 0x0 DUP6 ADD CALLDATALOAD PUSH8 0xFFFFFFFFFFFFFFFF DUP2 GT ISZERO PUSH2 0x3150 JUMPI PUSH2 0x314F PUSH2 0x28B3 JUMP JUMPDEST JUMPDEST PUSH2 0x315C DUP8 DUP3 DUP9 ADD PUSH2 0x2E5C JUMP JUMPDEST SWAP5 POP SWAP5 POP POP PUSH1 0x20 DUP6 ADD CALLDATALOAD PUSH8 0xFFFFFFFFFFFFFFFF DUP2 GT ISZERO PUSH2 0x317F JUMPI PUSH2 0x317E PUSH2 0x28B3 JUMP JUMPDEST JUMPDEST PUSH2 0x318B DUP8 DUP3 DUP9 ADD PUSH2 0x30C2 JUMP JUMPDEST SWAP3 POP SWAP3 POP POP SWAP3 SWAP6 SWAP2 SWAP5 POP SWAP3 POP JUMP JUMPDEST PUSH1 0x0 DUP3 DUP3 MSTORE PUSH1 0x20 DUP3 ADD SWAP1 POP SWAP3 SWAP2 POP POP JUMP JUMPDEST PUSH32 0x4552433230206E6F7420616C6C6F776564000000000000000000000000000000 PUSH1 0x0 DUP3 ADD MSTORE POP JUMP JUMPDEST PUSH1 0x0 PUSH2 0x31E0 PUSH1 0x11 DUP4 PUSH2 0x3199 JUMP JUMPDEST SWAP2 POP PUSH2 0x31EB DUP3 PUSH2 0x31AA JUMP JUMPDEST PUSH1 0x20 DUP3 ADD SWAP1 POP SWAP2 SWAP1 POP JUMP JUMPDEST PUSH1 0x0 PUSH1 0x20 DUP3 ADD SWAP1 POP DUP2 DUP2 SUB PUSH1 0x0 DUP4 ADD MSTORE PUSH2 0x320F DUP2 PUSH2 0x31D3 JUMP JUMPDEST SWAP1 POP SWAP2 SWAP1 POP JUMP JUMPDEST PUSH32 0x4E487B7100000000000000000000000000000000000000000000000000000000 PUSH1 0x0 MSTORE PUSH1 0x11 PUSH1 0x4 MSTORE PUSH1 0x24 PUSH1 0x0 REVERT JUMPDEST PUSH1 0x0 PUSH2 0x3250 DUP3 PUSH2 0x2916 JUMP JUMPDEST SWAP2 POP PUSH2 0x325B DUP4 PUSH2 0x2916 JUMP JUMPDEST SWAP3 POP DUP3 DUP3 SUB SWAP1 POP DUP2 DUP2 GT ISZERO PUSH2 0x3273 JUMPI PUSH2 0x3272 PUSH2 0x3216 JUMP JUMPDEST JUMPDEST SWAP3 SWAP2 POP POP JUMP JUMPDEST PUSH32 0x46656520746F6F20686967680000000000000000000000000000000000000000 PUSH1 0x0 DUP3 ADD MSTORE POP JUMP JUMPDEST PUSH1 0x0 PUSH2 0x32AF PUSH1 0xC DUP4 PUSH2 0x3199 JUMP JUMPDEST SWAP2 POP PUSH2 0x32BA DUP3 PUSH2 0x3279 JUMP JUMPDEST PUSH1 0x20 DUP3 ADD SWAP1 POP SWAP2 SWAP1 POP JUMP JUMPDEST PUSH1 0x0 PUSH1 0x20 DUP3 ADD SWAP1 POP DUP2 DUP2 SUB PUSH1 0x0 DUP4 ADD MSTORE PUSH2 0x32DE DUP2 PUSH2 0x32A2 JUMP JUMPDEST SWAP1 POP SWAP2 SWAP1 POP JUMP JUMPDEST PUSH32 0x5A65726F20616464726573730000000000000000000000000000000000000000 PUSH1 0x0 DUP3 ADD MSTORE POP JUMP JUMPDEST PUSH1 0x0 PUSH2 0x331B PUSH1 0xC DUP4 PUSH2 0x3199 JUMP JUMPDEST SWAP2 POP PUSH2 0x3326 DUP3 PUSH2 0x32E5 JUMP JUMPDEST PUSH1 0x20 DUP3 ADD SWAP1 POP SWAP2 SWAP1 POP JUMP JUMPDEST PUSH1 0x0 PUSH1 0x20 DUP3 ADD SWAP1 POP DUP2 DUP2 SUB PUSH1 0x0 DUP4 ADD MSTORE PUSH2 0x334A DUP2 PUSH2 0x330E JUMP JUMPDEST SWAP1 POP SWAP2 SWAP1 POP JUMP JUMPDEST PUSH32 0x4E487B7100000000000000000000000000000000000000000000000000000000 PUSH1 0x0 MSTORE PUSH1 0x32 PUSH1 0x4 MSTORE PUSH1 0x24 PUSH1 0x0 REVERT JUMPDEST PUSH32 0x536574746C656400000000000000000000000000000000000000000000000000 PUSH1 0x0 DUP3 ADD MSTORE POP JUMP JUMPDEST PUSH1 0x0 PUSH2 0x33B6 PUSH1 0x7 DUP4 PUSH2 0x3199 JUMP JUMPDEST SWAP2 POP PUSH2 0x33C1 DUP3 PUSH2 0x3380 JUMP JUMPDEST PUSH1 0x20 DUP3 ADD SWAP1 POP SWAP2 SWAP1 POP JUMP JUMPDEST PUSH1 0x0 PUSH1 0x20 DUP3 ADD SWAP1 POP DUP2 DUP2 SUB PUSH1 0x0 DUP4 ADD MSTORE PUSH2 0x33E5 DUP2 PUSH2 0x33A9 JUMP JUMPDEST SWAP1 POP SWAP2 SWAP1 POP JUMP JUMPDEST PUSH32 0x52657665616C2070656E64696E67000000000000000000000000000000000000 PUSH1 0x0 DUP3 ADD MSTORE POP JUMP JUMPDEST PUSH1 0x0 PUSH2 0x3422 PUSH1 0xE DUP4 PUSH2 0x3199 JUMP JUMPDEST SWAP2 POP PUSH2 0x342D DUP3 PUSH2 0x33EC JUMP JUMPDEST PUSH1 0x20 DUP3 ADD SWAP1 POP SWAP2 SWAP1 POP JUMP JUMPDEST PUSH1 0x0 PUSH1 0x20 DUP3 ADD SWAP1 POP DUP2 DUP2 SUB PUSH1 0x0 DUP4 ADD MSTORE PUSH2 0x3451 DUP2 PUSH2 0x3415 JUMP JUMPDEST SWAP1 POP SWAP2 SWAP1 POP JUMP JUMPDEST PUSH32 0x4D7573742070726F766964652065786163746C792033206261636B67726F756E PUSH1 0x0 DUP3 ADD MSTORE PUSH32 0x6473000000000000000000000000000000000000000000000000000000000000 PUSH1 0x20 DUP3 ADD MSTORE POP JUMP JUMPDEST PUSH1 0x0 PUSH2 0x34B4 PUSH1 0x22 DUP4 PUSH2 0x3199 JUMP JUMPDEST SWAP2 POP PUSH2 0x34BF DUP3 PUSH2 0x3458 JUMP JUMPDEST PUSH1 0x40 DUP3 ADD SWAP1 POP SWAP2 SWAP1 POP JUMP JUMPDEST PUSH1 0x0 PUSH1 0x20 DUP3 ADD SWAP1 POP DUP2 DUP2 SUB PUSH1 0x0 DUP4 ADD MSTORE PUSH2 0x34E3 DUP2 PUSH2 0x34A7 JUMP JUMPDEST SWAP1 POP SWAP2 SWAP1 POP JUMP JUMPDEST PUSH1 0x0 DUP2 SWAP1 POP SWAP2 SWAP1 POP JUMP JUMPDEST PUSH2 0x3505 PUSH2 0x3500 DUP3 PUSH2 0x2916 JUMP JUMPDEST PUSH2 0x34EA JUMP JUMPDEST DUP3 MSTORE POP POP JUMP JUMPDEST PUSH1 0x0 DUP2 PUSH1 0x60 SHL SWAP1 POP SWAP2 SWAP1 POP JUMP JUMPDEST PUSH1 0x0 PUSH2 0x3523 DUP3 PUSH2 0x350B JUMP JUMPDEST SWAP1 POP SWAP2 SWAP1 POP JUMP JUMPDEST PUSH1 0x0 PUSH2 0x3535 DUP3 PUSH2 0x3518 JUMP JUMPDEST SWAP1 POP SWAP2 SWAP1 POP JUMP JUMPDEST PUSH2 0x354D PUSH2 0x3548 DUP3 PUSH2 0x28D8 JUMP JUMPDEST PUSH2 0x352A JUMP JUMPDEST DUP3 MSTORE POP POP JUMP JUMPDEST PUSH1 0x0 PUSH2 0x355F DUP3 DUP11 PUSH2 0x34F4 JUMP JUMPDEST PUSH1 0x20 DUP3 ADD SWAP2 POP PUSH2 0x356F DUP3 DUP10 PUSH2 0x353C JUMP JUMPDEST PUSH1 0x14 DUP3 ADD SWAP2 POP PUSH2 0x357F DUP3 DUP9 PUSH2 0x353C JUMP JUMPDEST PUSH1 0x14 DUP3 ADD SWAP2 POP PUSH2 0x358F DUP3 DUP8 PUSH2 0x353C JUMP JUMPDEST PUSH1 0x14 DUP3 ADD SWAP2 POP PUSH2 0x359F DUP3 DUP7 PUSH2 0x34F4 JUMP JUMPDEST PUSH1 0x20 DUP3 ADD SWAP2 POP PUSH2 0x35AF DUP3 DUP6 PUSH2 0x34F4 JUMP JUMPDEST PUSH1 0x20 DUP3 ADD SWAP2 POP PUSH2 0x35BF DUP3 DUP5 PUSH2 0x34F4 JUMP JUMPDEST PUSH1 0x20 DUP3 ADD SWAP2 POP DUP2 SWAP1 POP SWAP9 SWAP8 POP POP POP POP POP POP POP POP JUMP JUMPDEST PUSH1 0x0 DUP2 MLOAD SWAP1 POP PUSH2 0x35E3 DUP2 PUSH2 0x28EA JUMP JUMPDEST SWAP3 SWAP2 POP POP JUMP JUMPDEST PUSH1 0x0 PUSH1 0x20 DUP3 DUP5 SUB SLT ISZERO PUSH2 0x35FF JUMPI PUSH2 0x35FE PUSH2 0x28AE JUMP JUMPDEST JUMPDEST PUSH1 0x0 PUSH2 0x360D DUP5 DUP3 DUP6 ADD PUSH2 0x35D4 JUMP JUMPDEST SWAP2 POP POP SWAP3 SWAP2 POP POP JUMP JUMPDEST PUSH32 0x4E6F74204E4654206F776E657200000000000000000000000000000000000000 PUSH1 0x0 DUP3 ADD MSTORE POP JUMP JUMPDEST PUSH1 0x0 PUSH2 0x364C PUSH1 0xD DUP4 PUSH2 0x3199 JUMP JUMPDEST SWAP2 POP PUSH2 0x3657 DUP3 PUSH2 0x3616 JUMP JUMPDEST PUSH1 0x20 DUP3 ADD SWAP1 POP SWAP2 SWAP1 POP JUMP JUMPDEST PUSH1 0x0 PUSH1 0x20 DUP3 ADD SWAP1 POP DUP2 DUP2 SUB PUSH1 0x0 DUP4 ADD MSTORE PUSH2 0x367B DUP2 PUSH2 0x363F JUMP JUMPDEST SWAP1 POP SWAP2 SWAP1 POP JUMP JUMPDEST PUSH1 0x0 PUSH2 0x368D DUP3 PUSH2 0x2916 JUMP JUMPDEST SWAP2 POP PUSH32 0xFFFFFFFFFFFFFFFFFFFFFFFFFFFFFFFFFFFFFFFFFFFFFFFFFFFFFFFFFFFFFFFF DUP3 SUB PUSH2 0x36BF JUMPI PUSH2 0x36BE PUSH2 0x3216 JUMP JUMPDEST JUMPDEST PUSH1 0x1 DUP3 ADD SWAP1 POP SWAP2 SWAP1 POP JUMP JUMPDEST PUSH32 0x416C72656164792072657665616C656400000000000000000000000000000000 PUSH1 0x0 DUP3 ADD MSTORE POP JUMP JUMPDEST PUSH1 0x0 PUSH2 0x3700 PUSH1 0x10 DUP4 PUSH2 0x3199 JUMP JUMPDEST SWAP2 POP PUSH2 0x370B DUP3 PUSH2 0x36CA JUMP JUMPDEST PUSH1 0x20 DUP3 ADD SWAP1 POP SWAP2 SWAP1 POP JUMP JUMPDEST PUSH1 0x0 PUSH1 0x20 DUP3 ADD SWAP1 POP DUP2 DUP2 SUB PUSH1 0x0 DUP4 ADD MSTORE PUSH2 0x372F DUP2 PUSH2 0x36F3 JUMP JUMPDEST SWAP1 POP SWAP2 SWAP1 POP JUMP JUMPDEST PUSH32 0x4261642072657665616C00000000000000000000000000000000000000000000 PUSH1 0x0 DUP3 ADD MSTORE POP JUMP JUMPDEST PUSH1 0x0 PUSH2 0x376C PUSH1 0xA DUP4 PUSH2 0x3199 JUMP JUMPDEST SWAP2 POP PUSH2 0x3777 DUP3 PUSH2 0x3736 JUMP JUMPDEST PUSH1 0x20 DUP3 ADD SWAP1 POP SWAP2 SWAP1 POP JUMP JUMPDEST PUSH1 0x0 PUSH1 0x20 DUP3 ADD SWAP1 POP DUP2 DUP2 SUB PUSH1 0x0 DUP4 ADD MSTORE PUSH2 0x379B DUP2 PUSH2 0x375F JUMP JUMPDEST SWAP1 POP SWAP2 SWAP1 POP JUMP JUMPDEST PUSH32 0x4E6F7420706C6179657200000000000000000000000000000000000000000000 PUSH1 0x0 DUP3 ADD MSTORE POP JUMP JUMPDEST PUSH1 0x0 PUSH2 0x37D8 PUSH1 0xA DUP4 PUSH2 0x3199 JUMP JUMPDEST SWAP2 POP PUSH2 0x37E3 DUP3 PUSH2 0x37A2 JUMP JUMPDEST PUSH1 0x20 DUP3 ADD SWAP1 POP SWAP2 SWAP1 POP JUMP JUMPDEST PUSH1 0x0 PUSH1 0x20 DUP3 ADD SWAP1 POP DUP2 DUP2 SUB PUSH1 0x0 DUP4 ADD MSTORE PUSH2 0x3807 DUP2 PUSH2 0x37CB JUMP JUMPDEST SWAP1 POP SWAP2 SWAP1 POP JUMP JUMPDEST PUSH1 0x0 PUSH1 0x60 DUP3 ADD SWAP1 POP PUSH2 0x3823 PUSH1 0x0 DUP4 ADD DUP7 PUSH2 0x2A20 JUMP JUMPDEST PUSH2 0x3830 PUSH1 0x20 DUP4 ADD DUP6 PUSH2 0x2A11 JUMP JUMPDEST PUSH2 0x383D PUSH1 0x40 DUP4 ADD DUP5 PUSH2 0x2A20 JUMP JUMPDEST SWAP5 SWAP4 POP POP POP POP JUMP JUMPDEST PUSH1 0x0 DUP2 SWAP1 POP SWAP3 SWAP2 POP POP JUMP JUMPDEST PUSH32 0x1901000000000000000000000000000000000000000000000000000000000000 PUSH1 0x0 DUP3 ADD MSTORE POP JUMP JUMPDEST PUSH1 0x0 PUSH2 0x3886 PUSH1 0x2 DUP4 PUSH2 0x3845 JUMP JUMPDEST SWAP2 POP PUSH2 0x3891 DUP3 PUSH2 0x3850 JUMP JUMPDEST PUSH1 0x2 DUP3 ADD SWAP1 POP SWAP2 SWAP1 POP JUMP JUMPDEST PUSH1 0x0 DUP2 SWAP1 POP SWAP2 SWAP1 POP JUMP JUMPDEST PUSH2 0x38B7 PUSH2 0x38B2 DUP3 PUSH2 0x294C JUMP JUMPDEST PUSH2 0x389C JUMP JUMPDEST DUP3 MSTORE POP POP JUMP JUMPDEST PUSH1 0x0 PUSH2 0x38C8 DUP3 PUSH2 0x3879 JUMP JUMPDEST SWAP2 POP PUSH2 0x38D4 DUP3 DUP6 PUSH2 0x38A6 JUMP JUMPDEST PUSH1 0x20 DUP3 ADD SWAP2 POP PUSH2 0x38E4 DUP3 DUP5 PUSH2 0x38A6 JUMP JUMPDEST PUSH1 0x20 DUP3 ADD SWAP2 POP DUP2 SWAP1 POP SWAP4 SWAP3 POP POP POP JUMP JUMPDEST PUSH2 0x38FD DUP2 PUSH2 0x2F8E JUMP JUMPDEST DUP3 MSTORE POP POP JUMP JUMPDEST PUSH1 0x0 PUSH1 0x80 DUP3 ADD SWAP1 POP PUSH2 0x3918 PUSH1 0x0 DUP4 ADD DUP8 PUSH2 0x2A20 JUMP JUMPDEST PUSH2 0x3925 PUSH1 0x20 DUP4 ADD DUP7 PUSH2 0x38F4 JUMP JUMPDEST PUSH2 0x3932 PUSH1 0x40 DUP4 ADD DUP6 PUSH2 0x2A20 JUMP JUMPDEST PUSH2 0x393F PUSH1 0x60 DUP4 ADD DUP5 PUSH2 0x2A20 JUMP JUMPDEST SWAP6 SWAP5 POP POP POP POP POP JUMP JUMPDEST PUSH32 0x426164207369676E617475726500000000000000000000000000000000000000 PUSH1 0x0 DUP3 ADD MSTORE POP JUMP JUMPDEST PUSH1 0x0 PUSH2 0x397E PUSH1 0xD DUP4 PUSH2 0x3199 JUMP JUMPDEST SWAP2 POP PUSH2 0x3989 DUP3 PUSH2 0x3948 JUMP JUMPDEST PUSH1 0x20 DUP3 ADD SWAP1 POP SWAP2 SWAP1 POP JUMP JUMPDEST PUSH1 0x0 PUSH1 0x20 DUP3 ADD SWAP1 POP DUP2 DUP2 SUB PUSH1 0x0 DUP4 ADD MSTORE PUSH2 0x39AD DUP2 PUSH2 0x3971 JUMP JUMPDEST SWAP1 POP SWAP2 SWAP1 POP JUMP JUMPDEST PUSH32 0x416C7265616479206A6F696E6564000000000000000000000000000000000000 PUSH1 0x0 DUP3 ADD MSTORE POP JUMP JUMPDEST PUSH1 0x0 PUSH2 0x39EA PUSH1 0xE DUP4 PUSH2 0x3199 JUMP JUMPDEST SWAP2 POP PUSH2 0x39F5 DUP3 PUSH2 0x39B4 JUMP JUMPDEST PUSH1 0x20 DUP3 ADD SWAP1 POP SWAP2 SWAP1 POP JUMP JUMPDEST PUSH1 0x0 PUSH1 0x20 DUP3 ADD SWAP1 POP DUP2 DUP2 SUB PUSH1 0x0 DUP4 ADD MSTORE PUSH2 0x3A19 DUP2 PUSH2 0x39DD JUMP JUMPDEST SWAP1 POP SWAP2 SWAP1 POP JUMP JUMPDEST PUSH1 0x0 PUSH2 0x3A2B DUP3 PUSH2 0x2916 JUMP JUMPDEST SWAP2 POP PUSH2 0x3A36 DUP4 PUSH2 0x2916 JUMP JUMPDEST SWAP3 POP DUP3 DUP3 ADD SWAP1 POP DUP1 DUP3 GT ISZERO PUSH2 0x3A4E JUMPI PUSH2 0x3A4D PUSH2 0x3216 JUMP JUMPDEST JUMPDEST SWAP3 SWAP2 POP POP JUMP JUMPDEST PUSH32 0x496E76616C696400000000000000000000000000000000000000000000000000 PUSH1 0x0 DUP3 ADD MSTORE POP JUMP JUMPDEST PUSH1 0x0 PUSH2 0x3A8A PUSH1 0x7 DUP4 PUSH2 0x3199 JUMP JUMPDEST SWAP2 POP PUSH2 0x3A95 DUP3 PUSH2 0x3A54 JUMP JUMPDEST PUSH1 0x20 DUP3 ADD SWAP1 POP SWAP2 SWAP1 POP JUMP JUMPDEST PUSH1 0x0 PUSH1 0x20 DUP3 ADD SWAP1 POP DUP2 DUP2 SUB PUSH1 0x0 DUP4 ADD MSTORE PUSH2 0x3AB9 DUP2 PUSH2 0x3A7D JUMP JUMPDEST SWAP1 POP SWAP2 SWAP1 POP JUMP JUMPDEST PUSH1 0x0 DUP1 REVERT JUMPDEST PUSH1 0x0 DUP1 REVERT JUMPDEST PUSH1 0x0 DUP1 REVERT JUMPDEST PUSH1 0x0 DUP1 DUP4 CALLDATALOAD PUSH1 0x1 PUSH1 0x20 SUB DUP5 CALLDATASIZE SUB SUB DUP2 SLT PUSH2 0x3AEC JUMPI PUSH2 0x3AEB PUSH2 0x3AC0 JUMP JUMPDEST JUMPDEST DUP1 DUP5 ADD SWAP3 POP DUP3 CALLDATALOAD SWAP2 POP PUSH8 0xFFFFFFFFFFFFFFFF DUP3 GT ISZERO PUSH2 0x3B0E JUMPI PUSH2 0x3B0D PUSH2 0x3AC5 JUMP JUMPDEST JUMPDEST PUSH1 0x20 DUP4 ADD SWAP3 POP PUSH1 0x1 DUP3 MUL CALLDATASIZE SUB DUP4 SGT ISZERO PUSH2 0x3B2A JUMPI PUSH2 0x3B29 PUSH2 0x3ACA JUMP JUMPDEST JUMPDEST POP SWAP3 POP SWAP3 SWAP1 POP JUMP JUMPDEST PUSH1 0x0 PUSH1 0x20 DUP3 DUP5 SUB SLT ISZERO PUSH2 0x3B48 JUMPI PUSH2 0x3B47 PUSH2 0x28AE JUMP JUMPDEST JUMPDEST PUSH1 0x0 PUSH2 0x3B56 DUP5 DUP3 DUP6 ADD PUSH2 0x2DA3 JUMP JUMPDEST SWAP2 POP POP SWAP3 SWAP2 POP POP JUMP JUMPDEST PUSH1 0x0 PUSH1 0x60 DUP3 ADD SWAP1 POP PUSH2 0x3B74 PUSH1 0x0 DUP4 ADD DUP7 PUSH2 0x2A02 JUMP JUMPDEST PUSH2 0x3B81 PUSH1 0x20 DUP4 ADD DUP6 PUSH2 0x2A02 JUMP JUMPDEST PUSH2 0x3B8E PUSH1 0x40 DUP4 ADD DUP5 PUSH2 0x2A11 JUMP JUMPDEST SWAP5 SWAP4 POP POP POP POP JUMP JUMPDEST PUSH1 0x0 PUSH2 0x3BA1 DUP3 PUSH2 0x2916 JUMP JUMPDEST SWAP2 POP PUSH2 0x3BAC DUP4 PUSH2 0x2916 JUMP JUMPDEST SWAP3 POP DUP3 DUP3 MUL PUSH2 0x3BBA DUP2 PUSH2 0x2916 JUMP JUMPDEST SWAP2 POP DUP3 DUP3 DIV DUP5 EQ DUP4 ISZERO OR PUSH2 0x3BD1 JUMPI PUSH2 0x3BD0 PUSH2 0x3216 JUMP JUMPDEST JUMPDEST POP SWAP3 SWAP2 POP POP JUMP JUMPDEST PUSH32 0x4E487B7100000000000000000000000000000000000000000000000000000000 PUSH1 0x0 MSTORE PUSH1 0x12 PUSH1 0x4 MSTORE PUSH1 0x24 PUSH1 0x0 REVERT JUMPDEST PUSH1 0x0 PUSH2 0x3C12 DUP3 PUSH2 0x2916 JUMP JUMPDEST SWAP2 POP PUSH2 0x3C1D DUP4 PUSH2 0x2916 JUMP JUMPDEST SWAP3 POP DUP3 PUSH2 0x3C2D JUMPI PUSH2 0x3C2C PUSH2 0x3BD8 JUMP JUMPDEST JUMPDEST DUP3 DUP3 DIV SWAP1 POP SWAP3 SWAP2 POP POP JUMP JUMPDEST PUSH1 0x0 DUP2 MLOAD SWAP1 POP SWAP2 SWAP1 POP JUMP JUMPDEST PUSH1 0x0 JUMPDEST DUP4 DUP2 LT ISZERO PUSH2 0x3C61 JUMPI DUP1 DUP3 ADD MLOAD DUP2 DUP5 ADD MSTORE PUSH1 0x20 DUP2 ADD SWAP1 POP PUSH2 0x3C46 JUMP JUMPDEST PUSH1 0x0 DUP5 DUP5 ADD MSTORE POP POP POP POP JUMP JUMPDEST PUSH1 0x0 PUSH2 0x3C78 DUP3 PUSH2 0x3C38 JUMP JUMPDEST PUSH2 0x3C82 DUP2 DUP6 PUSH2 0x3199 JUMP JUMPDEST SWAP4 POP PUSH2 0x3C92 DUP2 DUP6 PUSH1 0x20 DUP7 ADD PUSH2 0x3C43 JUMP JUMPDEST PUSH2 0x3C9B DUP2 PUSH2 0x2BA7 JUMP JUMPDEST DUP5 ADD SWAP2 POP POP SWAP3 SWAP2 POP POP JUMP JUMPDEST PUSH1 0x0 PUSH1 0x40 DUP3 ADD SWAP1 POP DUP2 DUP2 SUB PUSH1 0x0 DUP4 ADD MSTORE PUSH2 0x3CC0 DUP2 DUP6 PUSH2 0x3C6D JUMP JUMPDEST SWAP1 POP PUSH2 0x3CCF PUSH1 0x20 DUP4 ADD DUP5 PUSH2 0x2A3B JUMP JUMPDEST SWAP4 SWAP3 POP POP POP JUMP JUMPDEST PUSH32 0x496E76616C6964206261636B67726F756E6473206C656E677468000000000000 PUSH1 0x0 DUP3 ADD MSTORE POP JUMP JUMPDEST PUSH1 0x0 PUSH2 0x3D0C PUSH1 0x1A DUP4 PUSH2 0x3199 JUMP JUMPDEST SWAP2 POP PUSH2 0x3D17 DUP3 PUSH2 0x3CD6 JUMP JUMPDEST PUSH1 0x20 DUP3 ADD SWAP1 POP SWAP2 SWAP1 POP JUMP JUMPDEST PUSH1 0x0 PUSH1 0x20 DUP3 ADD SWAP1 POP DUP2 DUP2 SUB PUSH1 0x0 DUP4 ADD MSTORE PUSH2 0x3D3B DUP2 PUSH2 0x3CFF JUMP JUMPDEST SWAP1 POP SWAP2 SWAP1 POP JUMP JUMPDEST PUSH1 0x0 DUP2 SWAP1 POP SWAP3 SWAP2 POP POP JUMP JUMPDEST PUSH1 0x0 PUSH2 0x3D59 DUP4 DUP6 PUSH2 0x3D42 JUMP JUMPDEST SWAP4 POP PUSH2 0x3D66 DUP4 DUP6 DUP5 PUSH2 0x2C64 JUMP JUMPDEST DUP3 DUP5 ADD SWAP1 POP SWAP4 SWAP3 POP POP POP JUMP JUMPDEST PUSH1 0x0 PUSH2 0x3D7F DUP3 DUP5 DUP7 PUSH2 0x3D4D JUMP JUMPDEST SWAP2 POP DUP2 SWAP1 POP SWAP4 SWAP3 POP POP POP JUMP JUMPDEST PUSH32 0x5261726974792064757000000000000000000000000000000000000000000000 PUSH1 0x0 DUP3 ADD MSTORE POP JUMP JUMPDEST PUSH1 0x0 PUSH2 0x3DC1 PUSH1 0xA DUP4 PUSH2 0x3199 JUMP JUMPDEST SWAP2 POP PUSH2 0x3DCC DUP3 PUSH2 0x3D8B JUMP JUMPDEST PUSH1 0x20 DUP3 ADD SWAP1 POP SWAP2 SWAP1 POP JUMP JUMPDEST PUSH1 0x0 PUSH1 0x20 DUP3 ADD SWAP1 POP DUP2 DUP2 SUB PUSH1 0x0 DUP4 ADD MSTORE PUSH2 0x3DF0 DUP2 PUSH2 0x3DB4 JUMP JUMPDEST SWAP1 POP SWAP2 SWAP1 POP JUMP JUMPDEST PUSH1 0x0 PUSH1 0x40 DUP3 ADD SWAP1 POP PUSH2 0x3E0C PUSH1 0x0 DUP4 ADD DUP6 PUSH2 0x2A02 JUMP JUMPDEST PUSH2 0x3E19 PUSH1 0x20 DUP4 ADD DUP5 PUSH2 0x2A11 JUMP JUMPDEST SWAP4 SWAP3 POP POP POP JUMP INVALID LOG2 PUSH5 0x6970667358 0x22 SLT KECCAK256 LOG0 SWAP10 PUSH31 0xD2370BD3C488310632BF74DF86E1B9338D23C50316BDF0C74D2A50DFA96473 PUSH16 0x6C634300081400330000000000000000 "
		},
		"gasEstimates": {
			"creation": {
				"codeDepositCost": "3191600",
				"executionCost": "infinite",
				"totalCost": "infinite"
			},
			"external": {
				"COMMIT_TYPEHASH()": "462",
				"DOMAIN_SEPARATOR()": "2540",
				"REVEAL_WINDOW()": "352",
				"allowedERC20(address)": "2935",
				"backendWinner(uint256)": "2862",
				"createGame(address,uint256,bytes32)": "infinite",
				"games(uint256)": "infinite",
				"gamesLength()": "2490",
				"isRestrictedRarity(string)": "infinite",
				"joinGame(uint256,bytes32)": "infinite",
				"owner()": "2536",
				"platformFee()": "2496",
				"postWinner(uint256,address)": "infinite",
				"reveal(uint256,uint256,address[3],uint256[3],string[])": "infinite",
				"setAllowedERC20(address,bool)": "27294",
				"setPlatformFee(uint256)": "24784",
				"setRestrictedRarities(string[],bool[])": "infinite",
				"setRestrictedRarity(string,bool)": "infinite",
				"setTeamWallet(address)": "27039",
				"settleGame(uint256)": "infinite",
				"submitCommit(uint256,bytes32,uint8,bytes32,bytes32)": "infinite",
				"teamWallet()": "2581",
				"transferOwnership(address)": "30718"
			},
			"internal": {
				"_payout(uint256,address)": "infinite",
				"_refund(uint256)": "infinite"
			}
		},
		"methodIdentifiers": {
			"COMMIT_TYPEHASH()": "37479beb",
			"DOMAIN_SEPARATOR()": "3644e515",
			"REVEAL_WINDOW()": "17e931cf",
			"allowedERC20(address)": "14f8fb9b",
			"backendWinner(uint256)": "4c7b0754",
			"createGame(address,uint256,bytes32)": "03b55dac",
			"games(uint256)": "117a5b90",
			"gamesLength()": "20eba3f2",
			"isRestrictedRarity(string)": "4e714ac3",
			"joinGame(uint256,bytes32)": "ac952671",
			"owner()": "8da5cb5b",
			"platformFee()": "26232a2e",
			"postWinner(uint256,address)": "b710c52c",
			"reveal(uint256,uint256,address[3],uint256[3],string[])": "64fc319b",
			"setAllowedERC20(address,bool)": "78150b06",
			"setPlatformFee(uint256)": "12e8e2c3",
			"setRestrictedRarities(string[],bool[])": "f969e592",
			"setRestrictedRarity(string,bool)": "6093ae62",
			"setTeamWallet(address)": "1525ff7d",
			"settleGame(uint256)": "312d7bbc",
			"submitCommit(uint256,bytes32,uint8,bytes32,bytes32)": "a8a6196f",
			"teamWallet()": "59927044",
			"transferOwnership(address)": "f2fde38b"
		}
	},
	"abi": [
		{
			"inputs": [],
			"stateMutability": "nonpayable",
			"type": "constructor"
		},
		{
			"inputs": [],
			"name": "EmptyRarity",
			"type": "error"
		},
		{
			"inputs": [],
			"name": "LengthMismatch",
			"type": "error"
		},
		{
			"inputs": [],
			"name": "NotOwner",
			"type": "error"
		},
		{
			"inputs": [
				{
					"internalType": "address",
					"name": "token",
					"type": "address"
				}
			],
			"name": "SafeERC20FailedOperation",
			"type": "error"
		},
		{
			"anonymous": false,
			"inputs": [
				{
					"indexed": true,
					"internalType": "uint256",
					"name": "gameId",
					"type": "uint256"
				},
				{
					"indexed": true,
					"internalType": "address",
					"name": "player",
					"type": "address"
				}
			],
			"name": "CommitSubmitted",
			"type": "event"
		},
		{
			"anonymous": false,
			"inputs": [
				{
					"indexed": true,
					"internalType": "uint256",
					"name": "gameId",
					"type": "uint256"
				},
				{
					"indexed": true,
					"internalType": "address",
					"name": "player1",
					"type": "address"
				}
			],
			"name": "GameCreated",
			"type": "event"
		},
		{
			"anonymous": false,
			"inputs": [
				{
					"indexed": true,
					"internalType": "uint256",
					"name": "gameId",
					"type": "uint256"
				},
				{
					"indexed": true,
					"internalType": "address",
					"name": "player2",
					"type": "address"
				}
			],
			"name": "GameJoined",
			"type": "event"
		},
		{
			"anonymous": false,
			"inputs": [
				{
					"indexed": true,
					"internalType": "uint256",
					"name": "gameId",
					"type": "uint256"
				},
				{
					"indexed": false,
					"internalType": "address",
					"name": "winner",
					"type": "address"
				}
			],
			"name": "GameSettled",
			"type": "event"
		},
		{
			"anonymous": false,
			"inputs": [
				{
					"indexed": true,
					"internalType": "address",
					"name": "oldOwner",
					"type": "address"
				},
				{
					"indexed": true,
					"internalType": "address",
					"name": "newOwner",
					"type": "address"
				}
			],
			"name": "OwnershipTransferred",
			"type": "event"
		},
		{
			"anonymous": false,
			"inputs": [
				{
					"indexed": false,
					"internalType": "string",
					"name": "rarity",
					"type": "string"
				},
				{
					"indexed": false,
					"internalType": "bool",
					"name": "restricted",
					"type": "bool"
				}
			],
			"name": "RarityRestrictionSet",
			"type": "event"
		},
		{
			"anonymous": false,
			"inputs": [
				{
					"indexed": true,
					"internalType": "uint256",
					"name": "gameId",
					"type": "uint256"
				},
				{
					"indexed": true,
					"internalType": "address",
					"name": "player",
					"type": "address"
				}
			],
			"name": "Revealed",
			"type": "event"
		},
		{
			"anonymous": false,
			"inputs": [
				{
					"indexed": true,
					"internalType": "uint256",
					"name": "gameId",
					"type": "uint256"
				},
				{
					"indexed": false,
					"internalType": "address",
					"name": "winner",
					"type": "address"
				}
			],
			"name": "WinnerPosted",
			"type": "event"
		},
		{
			"inputs": [],
			"name": "COMMIT_TYPEHASH",
			"outputs": [
				{
					"internalType": "bytes32",
					"name": "",
					"type": "bytes32"
				}
			],
			"stateMutability": "view",
			"type": "function"
		},
		{
			"inputs": [],
			"name": "DOMAIN_SEPARATOR",
			"outputs": [
				{
					"internalType": "bytes32",
					"name": "",
					"type": "bytes32"
				}
			],
			"stateMutability": "view",
			"type": "function"
		},
		{
			"inputs": [],
			"name": "REVEAL_WINDOW",
			"outputs": [
				{
					"internalType": "uint256",
					"name": "",
					"type": "uint256"
				}
			],
			"stateMutability": "view",
			"type": "function"
		},
		{
			"inputs": [
				{
					"internalType": "address",
					"name": "",
					"type": "address"
				}
			],
			"name": "allowedERC20",
			"outputs": [
				{
					"internalType": "bool",
					"name": "",
					"type": "bool"
				}
			],
			"stateMutability": "view",
			"type": "function"
		},
		{
			"inputs": [
				{
					"internalType": "uint256",
					"name": "",
					"type": "uint256"
				}
			],
			"name": "backendWinner",
			"outputs": [
				{
					"internalType": "address",
					"name": "",
					"type": "address"
				}
			],
			"stateMutability": "view",
			"type": "function"
		},
		{
			"inputs": [
				{
					"internalType": "address",
					"name": "stakeToken",
					"type": "address"
				},
				{
					"internalType": "uint256",
					"name": "stakeAmount",
					"type": "uint256"
				},
				{
					"internalType": "bytes32",
					"name": "commit",
					"type": "bytes32"
				}
			],
			"name": "createGame",
			"outputs": [],
			"stateMutability": "nonpayable",
			"type": "function"
		},
		{
			"inputs": [
				{
					"internalType": "uint256",
					"name": "",
					"type": "uint256"
				}
			],
			"name": "games",
			"outputs": [
				{
					"internalType": "address",
					"name": "player1",
					"type": "address"
				},
				{
					"internalType": "address",
					"name": "player2",
					"type": "address"
				},
				{
					"internalType": "address",
					"name": "stakeToken",
					"type": "address"
				},
				{
					"internalType": "uint256",
					"name": "stakeAmount",
					"type": "uint256"
				},
				{
					"internalType": "bytes32",
					"name": "player1Commit",
					"type": "bytes32"
				},
				{
					"internalType": "bytes32",
					"name": "player2Commit",
					"type": "bytes32"
				},
				{
					"internalType": "bool",
					"name": "player1Revealed",
					"type": "bool"
				},
				{
					"internalType": "bool",
					"name": "player2Revealed",
					"type": "bool"
				},
				{
					"internalType": "uint256",
					"name": "createdAt",
					"type": "uint256"
				},
				{
					"internalType": "uint256",
					"name": "joinTimestamp",
					"type": "uint256"
				},
				{
					"internalType": "uint256",
					"name": "revealDeadline",
					"type": "uint256"
				},
				{
					"internalType": "bool",
					"name": "settled",
					"type": "bool"
				}
			],
			"stateMutability": "view",
			"type": "function"
		},
		{
			"inputs": [],
			"name": "gamesLength",
			"outputs": [
				{
					"internalType": "uint256",
					"name": "",
					"type": "uint256"
				}
			],
			"stateMutability": "view",
			"type": "function"
		},
		{
			"inputs": [
				{
					"internalType": "string",
					"name": "rarity",
					"type": "string"
				}
			],
			"name": "isRestrictedRarity",
			"outputs": [
				{
					"internalType": "bool",
					"name": "",
					"type": "bool"
				}
			],
			"stateMutability": "view",
			"type": "function"
		},
		{
			"inputs": [
				{
					"internalType": "uint256",
					"name": "gameId",
					"type": "uint256"
				},
				{
					"internalType": "bytes32",
					"name": "commit",
					"type": "bytes32"
				}
			],
			"name": "joinGame",
			"outputs": [],
			"stateMutability": "nonpayable",
			"type": "function"
		},
		{
			"inputs": [],
			"name": "owner",
			"outputs": [
				{
					"internalType": "address",
					"name": "",
					"type": "address"
				}
			],
			"stateMutability": "view",
			"type": "function"
		},
		{
			"inputs": [],
			"name": "platformFee",
			"outputs": [
				{
					"internalType": "uint256",
					"name": "",
					"type": "uint256"
				}
			],
			"stateMutability": "view",
			"type": "function"
		},
		{
			"inputs": [
				{
					"internalType": "uint256",
					"name": "gameId",
					"type": "uint256"
				},
				{
					"internalType": "address",
					"name": "winner",
					"type": "address"
				}
			],
			"name": "postWinner",
			"outputs": [],
			"stateMutability": "nonpayable",
			"type": "function"
		},
		{
			"inputs": [
				{
					"internalType": "uint256",
					"name": "gameId",
					"type": "uint256"
				},
				{
					"internalType": "uint256",
					"name": "salt",
					"type": "uint256"
				},
				{
					"internalType": "address[3]",
					"name": "nftContracts",
					"type": "address[3]"
				},
				{
					"internalType": "uint256[3]",
					"name": "nftIds",
					"type": "uint256[3]"
				},
				{
					"internalType": "string[]",
					"name": "backgrounds",
					"type": "string[]"
				}
			],
			"name": "reveal",
			"outputs": [],
			"stateMutability": "nonpayable",
			"type": "function"
		},
		{
			"inputs": [
				{
					"internalType": "address",
					"name": "token",
					"type": "address"
				},
				{
					"internalType": "bool",
					"name": "allowed",
					"type": "bool"
				}
			],
			"name": "setAllowedERC20",
			"outputs": [],
			"stateMutability": "nonpayable",
			"type": "function"
		},
		{
			"inputs": [
				{
					"internalType": "uint256",
					"name": "feeBps",
					"type": "uint256"
				}
			],
			"name": "setPlatformFee",
			"outputs": [],
			"stateMutability": "nonpayable",
			"type": "function"
		},
		{
			"inputs": [
				{
					"internalType": "string[]",
					"name": "rarities",
					"type": "string[]"
				},
				{
					"internalType": "bool[]",
					"name": "restricted",
					"type": "bool[]"
				}
			],
			"name": "setRestrictedRarities",
			"outputs": [],
			"stateMutability": "nonpayable",
			"type": "function"
		},
		{
			"inputs": [
				{
					"internalType": "string",
					"name": "rarity",
					"type": "string"
				},
				{
					"internalType": "bool",
					"name": "restricted",
					"type": "bool"
				}
			],
			"name": "setRestrictedRarity",
			"outputs": [],
			"stateMutability": "nonpayable",
			"type": "function"
		},
		{
			"inputs": [
				{
					"internalType": "address",
					"name": "wallet",
					"type": "address"
				}
			],
			"name": "setTeamWallet",
			"outputs": [],
			"stateMutability": "nonpayable",
			"type": "function"
		},
		{
			"inputs": [
				{
					"internalType": "uint256",
					"name": "gameId",
					"type": "uint256"
				}
			],
			"name": "settleGame",
			"outputs": [],
			"stateMutability": "nonpayable",
			"type": "function"
		},
		{
			"inputs": [
				{
					"internalType": "uint256",
					"name": "gameId",
					"type": "uint256"
				},
				{
					"internalType": "bytes32",
					"name": "commit",
					"type": "bytes32"
				},
				{
					"internalType": "uint8",
					"name": "v",
					"type": "uint8"
				},
				{
					"internalType": "bytes32",
					"name": "r",
					"type": "bytes32"
				},
				{
					"internalType": "bytes32",
					"name": "s",
					"type": "bytes32"
				}
			],
			"name": "submitCommit",
			"outputs": [],
			"stateMutability": "nonpayable",
			"type": "function"
		},
		{
			"inputs": [],
			"name": "teamWallet",
			"outputs": [
				{
					"internalType": "address",
					"name": "",
					"type": "address"
				}
			],
			"stateMutability": "view",
			"type": "function"
		},
		{
			"inputs": [
				{
					"internalType": "address",
					"name": "newOwner",
					"type": "address"
				}
			],
			"name": "transferOwnership",
			"outputs": [],
			"stateMutability": "nonpayable",
			"type": "function"
		}
	]
}