{
	"data": {
		"bytecode": {
			"linkReferences": {},
			"object": "60806040523480156200001157600080fd5b5060405162005ec038038062005ec08339818101604052810190620000379190620002da565b33600073ffffffffffffffffffffffffffffffffffffffff168173ffffffffffffffffffffffffffffffffffffffff1603620000ad5760006040517f1e4fbdf7000000000000000000000000000000000000000000000000000000008152600401620000a491906200031d565b60405180910390fd5b620000be81620001ac60201b60201c565b5080600560006101000a81548173ffffffffffffffffffffffffffffffffffffffff021916908373ffffffffffffffffffffffffffffffffffffffff16021790555060016003604051620001129062000395565b908152602001604051809103902060006101000a81548160ff021916908315150217905550600160036040516200014990620003fc565b908152602001604051809103902060006101000a81548160ff02191690831515021790555060016003604051620001809062000463565b908152602001604051809103902060006101000a81548160ff021916908315150217905550506200047a565b60008060009054906101000a900473ffffffffffffffffffffffffffffffffffffffff169050816000806101000a81548173ffffffffffffffffffffffffffffffffffffffff021916908373ffffffffffffffffffffffffffffffffffffffff1602179055508173ffffffffffffffffffffffffffffffffffffffff168173ffffffffffffffffffffffffffffffffffffffff167f8be0079c531659141344cd1fd0a4f28419497f9722a3daafe3b4186f6b6457e060405160405180910390a35050565b600080fd5b600073ffffffffffffffffffffffffffffffffffffffff82169050919050565b6000620002a28262000275565b9050919050565b620002b48162000295565b8114620002c057600080fd5b50565b600081519050620002d481620002a9565b92915050565b600060208284031215620002f357620002f262000270565b5b60006200030384828501620002c3565b91505092915050565b620003178162000295565b82525050565b60006020820190506200033460008301846200030c565b92915050565b600081905092915050565b7f476f6c6400000000000000000000000000000000000000000000000000000000600082015250565b60006200037d6004836200033a565b91506200038a8262000345565b600482019050919050565b6000620003a2826200036e565b9150819050919050565b7f53696c7665720000000000000000000000000000000000000000000000000000600082015250565b6000620003e46006836200033a565b9150620003f182620003ac565b600682019050919050565b60006200040982620003d5565b9150819050919050565b7f56657264616e7420477265656e00000000000000000000000000000000000000600082015250565b60006200044b600d836200033a565b9150620004588262000413565b600d82019050919050565b600062000470826200043c565b9150819050919050565b615a36806200048a6000396000f3fe608060405234801561001057600080fd5b50600436106101425760003560e01c80637d761f7a116100b8578063b135bbb01161007c578063b135bbb014610367578063b43a509814610385578063eaf7ac9f146103a1578063eaf98d23146103bf578063ec07fb74146103dd578063f2fde38b1461040d57610142565b80637d761f7a146102d957806381f7d942146102f55780638da5cb5b14610311578063a174e77a1461032f578063ad59951d1461034b57610142565b8063312d7bbc1161010a578063312d7bbc1461021957806344bf95c6146102355780634e714ac314610265578063599270441461029557806366333422146102b3578063715018a6146102cf57610142565b8063060b89c51461014757806306b5fbe814610163578063117a5b90146101935780631525ff7d146101cd5780632d54cafe146101e9575b600080fd5b610161600480360381019061015c919061443f565b610429565b005b61017d6004803603810190610178919061447f565b61053e565b60405161018a91906144bb565b60405180910390f35b6101ad60048036038101906101a891906144d6565b610556565b6040516101c49b9a999897969594939291906145a5565b60405180910390f35b6101e760048036038101906101e2919061447f565b610637565b005b61020360048036038101906101fe9190614650565b610683565b60405161021091906144bb565b60405180910390f35b610233600480360381019061022e91906144d6565b610e4d565b005b61024f600480360381019061024a919061447f565b611fd7565b60405161025c9190614690565b60405180910390f35b61027f600480360381019061027a91906147f1565b611ff7565b60405161028c9190614690565b60405180910390f35b61029d61202d565b6040516102aa919061483a565b60405180910390f35b6102cd60048036038101906102c8919061490b565b612053565b005b6102d76124b0565b005b6102f360048036038101906102ee9190614a3b565b6124c4565b005b61030f600480360381019061030a919061443f565b612b0d565b005b610319612c5d565b604051610326919061483a565b60405180910390f35b6103496004803603810190610344919061447f565b612c86565b005b61036560048036038101906103609190614aa3565b612d1f565b005b61036f61370d565b60405161037c91906144bb565b60405180910390f35b61039f600480360381019061039a91906147f1565b613713565b005b6103a961378c565b6040516103b691906144bb565b60405180910390f35b6103c7613793565b6040516103d491906144bb565b60405180910390f35b6103f760048036038101906103f2919061447f565b613798565b6040516104049190614690565b60405180910390f35b6104276004803603810190610422919061447f565b6137b8565b005b61043161383e565b600260008373ffffffffffffffffffffffffffffffffffffffff1673ffffffffffffffffffffffffffffffffffffffff16815260200190815260200160002060009054906101000a900460ff166104bd576040517f08c379a00000000000000000000000000000000000000000000000000000000081526004016104b490614b7d565b60405180910390fd5b80600460008473ffffffffffffffffffffffffffffffffffffffff1673ffffffffffffffffffffffffffffffffffffffff168152602001908152602001600020819055507fe8714ba99b4a6efbde0c674bdbec2836ccfe51b4ded655734fbe67d66bd7c4c28282604051610532929190614b9d565b60405180910390a15050565b60046020528060005260406000206000915090505481565b60066020528060005260406000206000915090508060000160009054906101000a900473ffffffffffffffffffffffffffffffffffffffff169080600701549080600b0160009054906101000a900460ff169080600b0160019054906101000a900473ffffffffffffffffffffffffffffffffffffffff16908060120154908060160160009054906101000a900460ff16908060160160019054906101000a900473ffffffffffffffffffffffffffffffffffffffff169080601701549080601801549080601901549080601a0160009054906101000a900460ff1690508b565b61063f61383e565b80600560006101000a81548173ffffffffffffffffffffffffffffffffffffffff021916908373ffffffffffffffffffffffffffffffffffffffff16021790555050565b600060075483106106c9576040517f08c379a00000000000000000000000000000000000000000000000000000000081526004016106c090614c12565b60405180910390fd5b600060075483856106da9190614c61565b116106f05782846106eb9190614c61565b6106f4565b6007545b90506000915060008490505b81811015610e4557600060066000838152602001908152602001600020905080601a0160009054906101000a900460ff1661073b5750610e32565b600081601701549050600073ffffffffffffffffffffffffffffffffffffffff1682600b0160019054906101000a900473ffffffffffffffffffffffffffffffffffffffff1673ffffffffffffffffffffffffffffffffffffffff161480156107b6575062093a8082601801546107b29190614c61565b4210155b156109f2578160160160019054906101000a900473ffffffffffffffffffffffffffffffffffffffff1673ffffffffffffffffffffffffffffffffffffffff1663a9059cbb8360000160009054906101000a900473ffffffffffffffffffffffffffffffffffffffff16836040518363ffffffff1660e01b815260040161083e929190614b9d565b6020604051808303816000875af115801561085d573d6000803e3d6000fd5b505050506040513d601f19601f820116820180604052508101906108819190614cc1565b5060005b6003811015610982578260010181600381106108a4576108a3614cee565b5b0160009054906101000a900473ffffffffffffffffffffffffffffffffffffffff1673ffffffffffffffffffffffffffffffffffffffff166323b872dd308560000160009054906101000a900473ffffffffffffffffffffffffffffffffffffffff1686600401856003811061091d5761091c614cee565b5b01546040518463ffffffff1660e01b815260040161093d93929190614d1d565b600060405180830381600087803b15801561095757600080fd5b505af115801561096b573d6000803e3d6000fd5b50505050808061097a90614d54565b915050610885565b50600082601a0160006101000a81548160ff0219169083151502179055507f70513431fe7f36611e21ff99aa229c501699d89165596d29c077697d177422d483600060016040516109d593929190614d9c565b60405180910390a184806109e890614d54565b9550505050610e32565b60008260190154118015610a18575062093a808260190154610a149190614c61565b4210155b15610e2f5781600b0160009054906101000a900460ff161580610a4a57508160160160009054906101000a900460ff16155b15610e2e578160160160019054906101000a900473ffffffffffffffffffffffffffffffffffffffff1673ffffffffffffffffffffffffffffffffffffffff1663a9059cbb8360000160009054906101000a900473ffffffffffffffffffffffffffffffffffffffff16836040518363ffffffff1660e01b8152600401610ad2929190614b9d565b6020604051808303816000875af1158015610af1573d6000803e3d6000fd5b505050506040513d601f19601f82011682018060405250810190610b159190614cc1565b508160160160019054906101000a900473ffffffffffffffffffffffffffffffffffffffff1673ffffffffffffffffffffffffffffffffffffffff1663a9059cbb83600b0160019054906101000a900473ffffffffffffffffffffffffffffffffffffffff16836040518363ffffffff1660e01b8152600401610b99929190614b9d565b6020604051808303816000875af1158015610bb8573d6000803e3d6000fd5b505050506040513d601f19601f82011682018060405250810190610bdc9190614cc1565b5060005b6003811015610dbe57826001018160038110610bff57610bfe614cee565b5b0160009054906101000a900473ffffffffffffffffffffffffffffffffffffffff1673ffffffffffffffffffffffffffffffffffffffff166323b872dd308560000160009054906101000a900473ffffffffffffffffffffffffffffffffffffffff16866004018560038110610c7857610c77614cee565b5b01546040518463ffffffff1660e01b8152600401610c9893929190614d1d565b600060405180830381600087803b158015610cb257600080fd5b505af1158015610cc6573d6000803e3d6000fd5b5050505082600c018160038110610ce057610cdf614cee565b5b0160009054906101000a900473ffffffffffffffffffffffffffffffffffffffff1673ffffffffffffffffffffffffffffffffffffffff166323b872dd3085600b0160019054906101000a900473ffffffffffffffffffffffffffffffffffffffff1686600f018560038110610d5957610d58614cee565b5b01546040518463ffffffff1660e01b8152600401610d7993929190614d1d565b600060405180830381600087803b158015610d9357600080fd5b505af1158015610da7573d6000803e3d6000fd5b505050508080610db690614d54565b915050610be0565b50600082601a0160006101000a81548160ff0219169083151502179055507f70513431fe7f36611e21ff99aa229c501699d89165596d29c077697d177422d48360006001604051610e1193929190614d9c565b60405180910390a18480610e2490614d54565b9550505050610e32565b5b50505b8080610e3d90614d54565b915050610700565b505092915050565b600060066000838152602001908152602001600020905080601a0160009054906101000a900460ff16610eb5576040517f08c379a0000000000000000000000000000000000000000000000000000000008152600401610eac90614e1f565b60405180910390fd5b600081601701549050600073ffffffffffffffffffffffffffffffffffffffff1682600b0160019054906101000a900473ffffffffffffffffffffffffffffffffffffffff1673ffffffffffffffffffffffffffffffffffffffff16148015610f30575062093a808260180154610f2c9190614c61565b4210155b1561115e578160160160019054906101000a900473ffffffffffffffffffffffffffffffffffffffff1673ffffffffffffffffffffffffffffffffffffffff1663a9059cbb8360000160009054906101000a900473ffffffffffffffffffffffffffffffffffffffff16836040518363ffffffff1660e01b8152600401610fb8929190614b9d565b6020604051808303816000875af1158015610fd7573d6000803e3d6000fd5b505050506040513d601f19601f82011682018060405250810190610ffb9190614cc1565b5060005b60038110156110fc5782600101816003811061101e5761101d614cee565b5b0160009054906101000a900473ffffffffffffffffffffffffffffffffffffffff1673ffffffffffffffffffffffffffffffffffffffff166323b872dd308560000160009054906101000a900473ffffffffffffffffffffffffffffffffffffffff1686600401856003811061109757611096614cee565b5b01546040518463ffffffff1660e01b81526004016110b793929190614d1d565b600060405180830381600087803b1580156110d157600080fd5b505af11580156110e5573d6000803e3d6000fd5b5050505080806110f490614d54565b915050610fff565b50600082601a0160006101000a81548160ff0219169083151502179055507f70513431fe7f36611e21ff99aa229c501699d89165596d29c077697d177422d4836000600160405161114f93929190614d9c565b60405180910390a15050611fd4565b60008260190154118015611184575062093a8082601901546111809190614c61565b4210155b1561158d5781600b0160009054906101000a900460ff1615806111b657508160160160009054906101000a900460ff16155b1561158c578160160160019054906101000a900473ffffffffffffffffffffffffffffffffffffffff1673ffffffffffffffffffffffffffffffffffffffff1663a9059cbb8360000160009054906101000a900473ffffffffffffffffffffffffffffffffffffffff16836040518363ffffffff1660e01b815260040161123e929190614b9d565b6020604051808303816000875af115801561125d573d6000803e3d6000fd5b505050506040513d601f19601f820116820180604052508101906112819190614cc1565b508160160160019054906101000a900473ffffffffffffffffffffffffffffffffffffffff1673ffffffffffffffffffffffffffffffffffffffff1663a9059cbb83600b0160019054906101000a900473ffffffffffffffffffffffffffffffffffffffff16836040518363ffffffff1660e01b8152600401611305929190614b9d565b6020604051808303816000875af1158015611324573d6000803e3d6000fd5b505050506040513d601f19601f820116820180604052508101906113489190614cc1565b5060005b600381101561152a5782600101816003811061136b5761136a614cee565b5b0160009054906101000a900473ffffffffffffffffffffffffffffffffffffffff1673ffffffffffffffffffffffffffffffffffffffff166323b872dd308560000160009054906101000a900473ffffffffffffffffffffffffffffffffffffffff168660040185600381106113e4576113e3614cee565b5b01546040518463ffffffff1660e01b815260040161140493929190614d1d565b600060405180830381600087803b15801561141e57600080fd5b505af1158015611432573d6000803e3d6000fd5b5050505082600c01816003811061144c5761144b614cee565b5b0160009054906101000a900473ffffffffffffffffffffffffffffffffffffffff1673ffffffffffffffffffffffffffffffffffffffff166323b872dd3085600b0160019054906101000a900473ffffffffffffffffffffffffffffffffffffffff1686600f0185600381106114c5576114c4614cee565b5b01546040518463ffffffff1660e01b81526004016114e593929190614d1d565b600060405180830381600087803b1580156114ff57600080fd5b505af1158015611513573d6000803e3d6000fd5b50505050808061152290614d54565b91505061134c565b50600082601a0160006101000a81548160ff0219169083151502179055507f70513431fe7f36611e21ff99aa229c501699d89165596d29c077697d177422d4836000600160405161157d93929190614d9c565b60405180910390a15050611fd4565b5b81600b0160009054906101000a900460ff1680156115b957508160160160009054906101000a900460ff165b6115f8576040517f08c379a00000000000000000000000000000000000000000000000000000000081526004016115ef90614e8b565b60405180910390fd5b6000806000805b600381101561177e5760008660080182600381106116205761161f614cee565b5b01549050600087600101826003811061163c5761163b614cee565b5b0160009054906101000a900473ffffffffffffffffffffffffffffffffffffffff169050600088600401836003811061167857611677614cee565b5b01549050600089601301856003811061169457611693614cee565b5b0154905060008a600c0182600381106116b0576116af614cee565b5b0160009054906101000a900473ffffffffffffffffffffffffffffffffffffffff16905060008b600f0183600381106116ec576116eb614cee565b5b0154905060006116fe868685856138c5565b9050806020015160ff16816000015160ff161115611729578a8061172190614d54565b9b505061174f565b806000015160ff16816020015160ff16111561174e57898061174a90614d54565b9a50505b5b806040015160010b896117629190614eb5565b985050505050505050808061177690614d54565b9150506115ff565b50600060028561178e9190614ef9565b9050600060646002836117a19190614ef9565b6117ab9190614f6a565b9050600081836117bb9190614f9b565b90508760160160019054906101000a900473ffffffffffffffffffffffffffffffffffffffff1673ffffffffffffffffffffffffffffffffffffffff1663a9059cbb600560009054906101000a900473ffffffffffffffffffffffffffffffffffffffff16846040518363ffffffff1660e01b815260040161183e929190614b9d565b6020604051808303816000875af115801561185d573d6000803e3d6000fd5b505050506040513d601f19601f820116820180604052508101906118819190614cc1565b506000806000905086881115611960578960000160009054906101000a900473ffffffffffffffffffffffffffffffffffffffff1691508960160160019054906101000a900473ffffffffffffffffffffffffffffffffffffffff1673ffffffffffffffffffffffffffffffffffffffff1663a9059cbb83856040518363ffffffff1660e01b8152600401611917929190614b9d565b6020604051808303816000875af1158015611936573d6000803e3d6000fd5b505050506040513d601f19601f8201168201806040525081019061195a9190614cc1565b50611d8f565b87871115611a375789600b0160019054906101000a900473ffffffffffffffffffffffffffffffffffffffff1691508960160160019054906101000a900473ffffffffffffffffffffffffffffffffffffffff1673ffffffffffffffffffffffffffffffffffffffff1663a9059cbb83856040518363ffffffff1660e01b81526004016119ee929190614b9d565b6020604051808303816000875af1158015611a0d573d6000803e3d6000fd5b505050506040513d601f19601f82011682018060405250810190611a319190614cc1565b50611d8e565b6000861315611b0f578960000160009054906101000a900473ffffffffffffffffffffffffffffffffffffffff1691508960160160019054906101000a900473ffffffffffffffffffffffffffffffffffffffff1673ffffffffffffffffffffffffffffffffffffffff1663a9059cbb83856040518363ffffffff1660e01b8152600401611ac6929190614b9d565b6020604051808303816000875af1158015611ae5573d6000803e3d6000fd5b505050506040513d601f19601f82011682018060405250810190611b099190614cc1565b50611d8d565b6000861215611be75789600b0160019054906101000a900473ffffffffffffffffffffffffffffffffffffffff1691508960160160019054906101000a900473ffffffffffffffffffffffffffffffffffffffff1673ffffffffffffffffffffffffffffffffffffffff1663a9059cbb83856040518363ffffffff1660e01b8152600401611b9e929190614b9d565b6020604051808303816000875af1158015611bbd573d6000803e3d6000fd5b505050506040513d601f19601f82011682018060405250810190611be19190614cc1565b50611d8c565b600190506000600284611bfa9190614f6a565b90508a60160160019054906101000a900473ffffffffffffffffffffffffffffffffffffffff1673ffffffffffffffffffffffffffffffffffffffff1663a9059cbb8c60000160009054906101000a900473ffffffffffffffffffffffffffffffffffffffff16836040518363ffffffff1660e01b8152600401611c7f929190614b9d565b6020604051808303816000875af1158015611c9e573d6000803e3d6000fd5b505050506040513d601f19601f82011682018060405250810190611cc29190614cc1565b508a60160160019054906101000a900473ffffffffffffffffffffffffffffffffffffffff1673ffffffffffffffffffffffffffffffffffffffff1663a9059cbb8c600b0160019054906101000a900473ffffffffffffffffffffffffffffffffffffffff16836040518363ffffffff1660e01b8152600401611d46929190614b9d565b6020604051808303816000875af1158015611d65573d6000803e3d6000fd5b505050506040513d601f19601f82011682018060405250810190611d899190614cc1565b50505b5b5b5b60005b6003811015611f70578a6001018160038110611db157611db0614cee565b5b0160009054906101000a900473ffffffffffffffffffffffffffffffffffffffff1673ffffffffffffffffffffffffffffffffffffffff166323b872dd308d60000160009054906101000a900473ffffffffffffffffffffffffffffffffffffffff168e6004018560038110611e2a57611e29614cee565b5b01546040518463ffffffff1660e01b8152600401611e4a93929190614d1d565b600060405180830381600087803b158015611e6457600080fd5b505af1158015611e78573d6000803e3d6000fd5b505050508a600c018160038110611e9257611e91614cee565b5b0160009054906101000a900473ffffffffffffffffffffffffffffffffffffffff1673ffffffffffffffffffffffffffffffffffffffff166323b872dd308d600b0160019054906101000a900473ffffffffffffffffffffffffffffffffffffffff168e600f018560038110611f0b57611f0a614cee565b5b01546040518463ffffffff1660e01b8152600401611f2b93929190614d1d565b600060405180830381600087803b158015611f4557600080fd5b505af1158015611f59573d6000803e3d6000fd5b505050508080611f6890614d54565b915050611d92565b5060008a601a0160006101000a81548160ff0219169083151502179055507f70513431fe7f36611e21ff99aa229c501699d89165596d29c077697d177422d48b8383604051611fc193929190614d9c565b60405180910390a1505050505050505050505b50565b60026020528060005260406000206000915054906101000a900460ff1681565b6003818051602081018201805184825260208301602085012081835280955050505050506000915054906101000a900460ff1681565b600560009054906101000a900473ffffffffffffffffffffffffffffffffffffffff1681565b600060066000858152602001908152602001600020905080601a0160009054906101000a900460ff166120bb576040517f08c379a00000000000000000000000000000000000000000000000000000000081526004016120b290614e1f565b60405180910390fd5b60008160000160009054906101000a900473ffffffffffffffffffffffffffffffffffffffff1673ffffffffffffffffffffffffffffffffffffffff163373ffffffffffffffffffffffffffffffffffffffff16149050600082600b0160019054906101000a900473ffffffffffffffffffffffffffffffffffffffff1673ffffffffffffffffffffffffffffffffffffffff163373ffffffffffffffffffffffffffffffffffffffff1614905081806121725750805b6121b1576040517f08c379a00000000000000000000000000000000000000000000000000000000081526004016121a89061501b565b60405180910390fd5b6000826121c25783601201546121c8565b83600701545b90506000836121e8578460160160009054906101000a900460ff166121fb565b84600b0160009054906101000a900460ff165b9050801561223e576040517f08c379a000000000000000000000000000000000000000000000000000000000815260040161223590615087565b60405180910390fd5b6000878760006003811061225557612254614cee565b5b60200201518860016003811061226e5761226d614cee565b5b60200201518960026003811061228757612286614cee565b5b602002015160405160200161229f94939291906150c8565b6040516020818303038152906040528051906020012090508281146122f9576040517f08c379a00000000000000000000000000000000000000000000000000000000081526004016122f090615162565b60405180910390fd5b61230161424a565b60005b60038110156123fc57600089826003811061232257612321614cee565b5b602002015190506003811061236c576040517f08c379a0000000000000000000000000000000000000000000000000000000008152600401612363906151ce565b60405180910390fd5b82816003811061237f5761237e614cee565b5b6020020151156123c4576040517f08c379a00000000000000000000000000000000000000000000000000000000081526004016123bb9061523a565b60405180910390fd5b60018382600381106123d9576123d8614cee565b5b6020020190151590811515815250505080806123f490614d54565b915050612304565b50851561243957878760080190600361241692919061426c565b50600187600b0160006101000a81548160ff02191690831515021790555061246b565b878760130190600361244c92919061426c565b5060018760160160006101000a81548160ff0219169083151502179055505b7fca89dc79ca69ffb087e833ce20114ee29dc90b746538266055b11d9b008efe188a3360405161249c92919061525a565b60405180910390a150505050505050505050565b6124b861383e565b6124c26000613f68565b565b600060066000868152602001908152602001600020905080601a0160009054906101000a900460ff1661252c576040517f08c379a000000000000000000000000000000000000000000000000000000000815260040161252390614e1f565b60405180910390fd5b600073ffffffffffffffffffffffffffffffffffffffff1681600b0160019054906101000a900473ffffffffffffffffffffffffffffffffffffffff1673ffffffffffffffffffffffffffffffffffffffff16146125bf576040517f08c379a00000000000000000000000000000000000000000000000000000000081526004016125b6906152cf565b60405180910390fd5b6000801b8203612604576040517f08c379a00000000000000000000000000000000000000000000000000000000081526004016125fb9061533b565b60405180910390fd5b60005b60038110156128df576001600086836003811061262757612626614cee565b5b602002015173ffffffffffffffffffffffffffffffffffffffff1673ffffffffffffffffffffffffffffffffffffffff16815260200190815260200160002060009054906101000a900460ff166126b3576040517f08c379a00000000000000000000000000000000000000000000000000000000081526004016126aa906153a7565b60405180910390fd5b60008582600381106126c8576126c7614cee565b5b602002015190503373ffffffffffffffffffffffffffffffffffffffff168173ffffffffffffffffffffffffffffffffffffffff16636352211e87856003811061271557612714614cee565b5b60200201516040518263ffffffff1660e01b815260040161273691906144bb565b602060405180830381865afa158015612753573d6000803e3d6000fd5b505050506040513d601f19601f8201168201806040525081019061277791906153dc565b73ffffffffffffffffffffffffffffffffffffffff16146127cd576040517f08c379a00000000000000000000000000000000000000000000000000000000081526004016127c490615455565b60405180910390fd5b3073ffffffffffffffffffffffffffffffffffffffff168173ffffffffffffffffffffffffffffffffffffffff1663081812fc87856003811061281357612812614cee565b5b60200201516040518263ffffffff1660e01b815260040161283491906144bb565b602060405180830381865afa158015612851573d6000803e3d6000fd5b505050506040513d601f19601f8201168201806040525081019061287591906153dc565b73ffffffffffffffffffffffffffffffffffffffff16146128cb576040517f08c379a00000000000000000000000000000000000000000000000000000000081526004016128c2906154c1565b60405180910390fd5b5080806128d790614d54565b915050612607565b506128ea848461402c565b60005b60038110156129a65784816003811061290957612908614cee565b5b602002015173ffffffffffffffffffffffffffffffffffffffff166323b872dd333087856003811061293e5761293d614cee565b5b60200201516040518463ffffffff1660e01b815260040161296193929190614d1d565b600060405180830381600087803b15801561297b57600080fd5b505af115801561298f573d6000803e3d6000fd5b50505050808061299e90614d54565b9150506128ed565b508060160160019054906101000a900473ffffffffffffffffffffffffffffffffffffffff1673ffffffffffffffffffffffffffffffffffffffff166323b872dd333084601701546040518463ffffffff1660e01b8152600401612a0c93929190614d1d565b6020604051808303816000875af1158015612a2b573d6000803e3d6000fd5b505050506040513d601f19601f82011682018060405250810190612a4f9190614cc1565b503381600b0160016101000a81548173ffffffffffffffffffffffffffffffffffffffff021916908373ffffffffffffffffffffffffffffffffffffffff1602179055508381600c01906003612aa69291906142ac565b508281600f01906003612aba92919061426c565b508181601201819055504281601901819055507f45c4f9cbafe186141862608c493f28b823fde4c2142bedc3f5169961a73fdd228533604051612afe92919061525a565b60405180910390a15050505050565b612b1561383e565b600073ffffffffffffffffffffffffffffffffffffffff168273ffffffffffffffffffffffffffffffffffffffff1603612b84576040517f08c379a0000000000000000000000000000000000000000000000000000000008152600401612b7b9061552d565b60405180910390fd5b6001600260008473ffffffffffffffffffffffffffffffffffffffff1673ffffffffffffffffffffffffffffffffffffffff16815260200190815260200160002060006101000a81548160ff02191690831515021790555080600460008473ffffffffffffffffffffffffffffffffffffffff1673ffffffffffffffffffffffffffffffffffffffff168152602001908152602001600020819055507f0c9655a80db9d34e23dd9d483cb2b684e4761154a66f935d9b42c174892dd3258282604051612c51929190614b9d565b60405180910390a15050565b60008060009054906101000a900473ffffffffffffffffffffffffffffffffffffffff16905090565b612c8e61383e565b60018060008373ffffffffffffffffffffffffffffffffffffffff1673ffffffffffffffffffffffffffffffffffffffff16815260200190815260200160002060006101000a81548160ff0219169083151502179055507f7701426aaa4c0c88a30924a7aba88dce66b18c4020b54e4e19c9e0eb0abc299281604051612d14919061483a565b60405180910390a150565b60008411612d62576040517f08c379a0000000000000000000000000000000000000000000000000000000008152600401612d5990615599565b60405180910390fd5b600460008673ffffffffffffffffffffffffffffffffffffffff1673ffffffffffffffffffffffffffffffffffffffff16815260200190815260200160002054841015612de4576040517f08c379a0000000000000000000000000000000000000000000000000000000008152600401612ddb90615605565b60405180910390fd5b600260008673ffffffffffffffffffffffffffffffffffffffff1673ffffffffffffffffffffffffffffffffffffffff16815260200190815260200160002060009054906101000a900460ff16612e70576040517f08c379a0000000000000000000000000000000000000000000000000000000008152600401612e6790615671565b60405180910390fd5b60008590506000801b8203612eba576040517f08c379a0000000000000000000000000000000000000000000000000000000008152600401612eb19061533b565b60405180910390fd5b60005b60038110156131955760016000868360038110612edd57612edc614cee565b5b602002015173ffffffffffffffffffffffffffffffffffffffff1673ffffffffffffffffffffffffffffffffffffffff16815260200190815260200160002060009054906101000a900460ff16612f69576040517f08c379a0000000000000000000000000000000000000000000000000000000008152600401612f60906153a7565b60405180910390fd5b6000858260038110612f7e57612f7d614cee565b5b602002015190503373ffffffffffffffffffffffffffffffffffffffff168173ffffffffffffffffffffffffffffffffffffffff16636352211e878560038110612fcb57612fca614cee565b5b60200201516040518263ffffffff1660e01b8152600401612fec91906144bb565b602060405180830381865afa158015613009573d6000803e3d6000fd5b505050506040513d601f19601f8201168201806040525081019061302d91906153dc565b73ffffffffffffffffffffffffffffffffffffffff1614613083576040517f08c379a000000000000000000000000000000000000000000000000000000000815260040161307a90615455565b60405180910390fd5b3073ffffffffffffffffffffffffffffffffffffffff168173ffffffffffffffffffffffffffffffffffffffff1663081812fc8785600381106130c9576130c8614cee565b5b60200201516040518263ffffffff1660e01b81526004016130ea91906144bb565b602060405180830381865afa158015613107573d6000803e3d6000fd5b505050506040513d601f19601f8201168201806040525081019061312b91906153dc565b73ffffffffffffffffffffffffffffffffffffffff1614613181576040517f08c379a0000000000000000000000000000000000000000000000000000000008152600401613178906154c1565b60405180910390fd5b50808061318d90614d54565b915050612ebd565b506131a0848461402c565b60005b600381101561325c578481600381106131bf576131be614cee565b5b602002015173ffffffffffffffffffffffffffffffffffffffff166323b872dd33308785600381106131f4576131f3614cee565b5b60200201516040518463ffffffff1660e01b815260040161321793929190614d1d565b600060405180830381600087803b15801561323157600080fd5b505af1158015613245573d6000803e3d6000fd5b50505050808061325490614d54565b9150506131a3565b508073ffffffffffffffffffffffffffffffffffffffff166323b872dd3330886040518463ffffffff1660e01b815260040161329a93929190614d1d565b6020604051808303816000875af11580156132b9573d6000803e3d6000fd5b505050506040513d601f19601f820116820180604052508101906132dd9190614cc1565b506000600760008154809291906132f390614d54565b9190505590506040518061022001604052803373ffffffffffffffffffffffffffffffffffffffff1681526020018681526020018581526020018481526020016040518060600160405280600081526020016000815260200160008152508152602001600015158152602001600073ffffffffffffffffffffffffffffffffffffffff1681526020016040518060600160405280600073ffffffffffffffffffffffffffffffffffffffff1673ffffffffffffffffffffffffffffffffffffffff168152602001600073ffffffffffffffffffffffffffffffffffffffff1673ffffffffffffffffffffffffffffffffffffffff168152602001600073ffffffffffffffffffffffffffffffffffffffff1673ffffffffffffffffffffffffffffffffffffffff16815250815260200160405180606001604052806000815260200160008152602001600081525081526020016000801b815260200160405180606001604052806000815260200160008152602001600081525081526020016000151581526020018373ffffffffffffffffffffffffffffffffffffffff16815260200187815260200142815260200160008152602001600115158152506006600083815260200190815260200160002060008201518160000160006101000a81548173ffffffffffffffffffffffffffffffffffffffff021916908373ffffffffffffffffffffffffffffffffffffffff1602179055506020820151816001019060036135229291906142ac565b5060408201518160040190600361353a92919061426c565b506060820151816007015560808201518160080190600361355c92919061426c565b5060a082015181600b0160006101000a81548160ff02191690831515021790555060c082015181600b0160016101000a81548173ffffffffffffffffffffffffffffffffffffffff021916908373ffffffffffffffffffffffffffffffffffffffff16021790555060e082015181600c019060036135db9291906142ac565b5061010082015181600f019060036135f492919061426c565b5061012082015181601201556101408201518160130190600361361892919061426c565b506101608201518160160160006101000a81548160ff0219169083151502179055506101808201518160160160016101000a81548173ffffffffffffffffffffffffffffffffffffffff021916908373ffffffffffffffffffffffffffffffffffffffff1602179055506101a082015181601701556101c082015181601801556101e0820151816019015561020082015181601a0160006101000a81548160ff0219169083151502179055509050507f6200407c0ea392b8107b21a9be480acd41fda186d04bed28cc7da2d4b53d56e2813389896040516136fc9493929190615691565b60405180910390a150505050505050565b60075481565b61371b61383e565b600160038260405161372d9190615747565b908152602001604051809103902060006101000a81548160ff0219169083151502179055507f8a241d3bf6deb30e6d35a55b4cf6074a0b298b83c3ee264a18c8cfc4feea471d816040516137819190615797565b60405180910390a150565b62093a8081565b600281565b60016020528060005260406000206000915054906101000a900460ff1681565b6137c061383e565b600073ffffffffffffffffffffffffffffffffffffffff168173ffffffffffffffffffffffffffffffffffffffff16036138325760006040517f1e4fbdf7000000000000000000000000000000000000000000000000000000008152600401613829919061483a565b60405180910390fd5b61383b81613f68565b50565b613846614242565b73ffffffffffffffffffffffffffffffffffffffff16613864612c5d565b73ffffffffffffffffffffffffffffffffffffffff16146138c357613887614242565b6040517f118cdaa70000000000000000000000000000000000000000000000000000000081526004016138ba919061483a565b60405180910390fd5b565b6138cd614329565b600085905060008490506000806000808573ffffffffffffffffffffffffffffffffffffffff1663cff840f08b6040518263ffffffff1660e01b815260040161391691906144bb565b602060405180830381865afa158015613933573d6000803e3d6000fd5b505050506040513d601f19601f8201168201806040525081019061395791906157ce565b905060008573ffffffffffffffffffffffffffffffffffffffff1663cff840f08a6040518263ffffffff1660e01b815260040161399491906144bb565b602060405180830381865afa1580156139b1573d6000803e3d6000fd5b505050506040513d601f19601f820116820180604052508101906139d591906157ce565b9050808211156139f25784806139ea90615808565b955050613a0a565b81811115613a09578380613a0590615808565b9450505b5b8082613a169190615831565b83613a219190615881565b92508673ffffffffffffffffffffffffffffffffffffffff1663eb22daa38c6040518263ffffffff1660e01b8152600401613a5c91906144bb565b602060405180830381865afa158015613a79573d6000803e3d6000fd5b505050506040513d601f19601f82011682018060405250810190613a9d91906157ce565b91508573ffffffffffffffffffffffffffffffffffffffff1663eb22daa38a6040518263ffffffff1660e01b8152600401613ad891906144bb565b602060405180830381865afa158015613af5573d6000803e3d6000fd5b505050506040513d601f19601f82011682018060405250810190613b1991906157ce565b905080821115613b36578480613b2e90615808565b955050613b4e565b81811115613b4d578380613b4990615808565b9450505b5b8082613b5a9190615831565b83613b659190615881565b92508673ffffffffffffffffffffffffffffffffffffffff166369d1cc928c6040518263ffffffff1660e01b8152600401613ba091906144bb565b602060405180830381865afa158015613bbd573d6000803e3d6000fd5b505050506040513d601f19601f82011682018060405250810190613be191906157ce565b91508573ffffffffffffffffffffffffffffffffffffffff166369d1cc928a6040518263ffffffff1660e01b8152600401613c1c91906144bb565b602060405180830381865afa158015613c39573d6000803e3d6000fd5b505050506040513d601f19601f82011682018060405250810190613c5d91906157ce565b905080821115613c7a578480613c7290615808565b955050613c92565b81811115613c91578380613c8d90615808565b9450505b5b8082613c9e9190615831565b83613ca99190615881565b92508673ffffffffffffffffffffffffffffffffffffffff16638bbee1f38c6040518263ffffffff1660e01b8152600401613ce491906144bb565b602060405180830381865afa158015613d01573d6000803e3d6000fd5b505050506040513d601f19601f82011682018060405250810190613d2591906157ce565b91508573ffffffffffffffffffffffffffffffffffffffff16638bbee1f38a6040518263ffffffff1660e01b8152600401613d6091906144bb565b602060405180830381865afa158015613d7d573d6000803e3d6000fd5b505050506040513d601f19601f82011682018060405250810190613da191906157ce565b905080821115613dbe578480613db690615808565b955050613dd6565b81811115613dd5578380613dd190615808565b9450505b5b8082613de29190615831565b83613ded9190615881565b92508673ffffffffffffffffffffffffffffffffffffffff1663252079b28c6040518263ffffffff1660e01b8152600401613e2891906144bb565b602060405180830381865afa158015613e45573d6000803e3d6000fd5b505050506040513d601f19601f82011682018060405250810190613e6991906157ce565b91508573ffffffffffffffffffffffffffffffffffffffff1663252079b28a6040518263ffffffff1660e01b8152600401613ea491906144bb565b602060405180830381865afa158015613ec1573d6000803e3d6000fd5b505050506040513d601f19601f82011682018060405250810190613ee591906157ce565b905080821115613f02578480613efa90615808565b955050613f1a565b81811115613f19578380613f1590615808565b9450505b5b8082613f269190615831565b83613f319190615881565b925060405180606001604052808660ff1681526020018560ff1681526020018460010b815250975050505050505050949350505050565b60008060009054906101000a900473ffffffffffffffffffffffffffffffffffffffff169050816000806101000a81548173ffffffffffffffffffffffffffffffffffffffff021916908373ffffffffffffffffffffffffffffffffffffffff1602179055508173ffffffffffffffffffffffffffffffffffffffff168173ffffffffffffffffffffffffffffffffffffffff167f8be0079c531659141344cd1fd0a4f28419497f9722a3daafe3b4186f6b6457e060405160405180910390a35050565b614034614353565b60005b600381101561411b5783816003811061405357614052614cee565b5b602002015173ffffffffffffffffffffffffffffffffffffffff1663e8d887d384836003811061408657614085614cee565b5b60200201516040518263ffffffff1660e01b81526004016140a791906144bb565b600060405180830381865afa1580156140c4573d6000803e3d6000fd5b505050506040513d6000823e3d601f19601f820116820180604052508101906140ed919061594b565b828260038110614100576140ff614cee565b5b6020020181905250808061411390614d54565b915050614037565b5060005b600381101561423c57600382826003811061413d5761413c614cee565b5b602002015160405161414f9190615747565b908152602001604051809103902060009054906101000a900460ff1615614229576000805b60038110156141e2578383600381106141905761418f614cee565b5b6020020151805190602001208482600381106141af576141ae614cee565b5b602002015180519060200120036141cf5781806141cb90614d54565b9250505b80806141da90614d54565b915050614174565b506001811115614227576040517f08c379a000000000000000000000000000000000000000000000000000000000815260040161421e906159e0565b60405180910390fd5b505b808061423490614d54565b91505061411f565b50505050565b600033905090565b6040518060600160405280600390602082028036833780820191505090505090565b826003810192821561429b579160200282015b8281111561429a57825182559160200191906001019061427f565b5b5090506142a8919061437a565b5090565b8260038101928215614318579160200282015b828111156143175782518260006101000a81548173ffffffffffffffffffffffffffffffffffffffff021916908373ffffffffffffffffffffffffffffffffffffffff160217905550916020019190600101906142bf565b5b509050614325919061437a565b5090565b6040518060600160405280600060ff168152602001600060ff168152602001600060010b81525090565b60405180606001604052806003905b60608152602001906001900390816143625790505090565b5b8082111561439357600081600090555060010161437b565b5090565b6000604051905090565b600080fd5b600080fd5b600073ffffffffffffffffffffffffffffffffffffffff82169050919050565b60006143d6826143ab565b9050919050565b6143e6816143cb565b81146143f157600080fd5b50565b600081359050614403816143dd565b92915050565b6000819050919050565b61441c81614409565b811461442757600080fd5b50565b60008135905061443981614413565b92915050565b60008060408385031215614456576144556143a1565b5b6000614464858286016143f4565b92505060206144758582860161442a565b9150509250929050565b600060208284031215614495576144946143a1565b5b60006144a3848285016143f4565b91505092915050565b6144b581614409565b82525050565b60006020820190506144d060008301846144ac565b92915050565b6000602082840312156144ec576144eb6143a1565b5b60006144fa8482850161442a565b91505092915050565b61450c816143cb565b82525050565b6000819050919050565b61452581614512565b82525050565b60008115159050919050565b6145408161452b565b82525050565b6000819050919050565b600061456b614566614561846143ab565b614546565b6143ab565b9050919050565b600061457d82614550565b9050919050565b600061458f82614572565b9050919050565b61459f81614584565b82525050565b6000610160820190506145bb600083018e614503565b6145c8602083018d61451c565b6145d5604083018c614537565b6145e2606083018b614503565b6145ef608083018a61451c565b6145fc60a0830189614537565b61460960c0830188614596565b61461660e08301876144ac565b6146246101008301866144ac565b6146326101208301856144ac565b614640610140830184614537565b9c9b505050505050505050505050565b60008060408385031215614667576146666143a1565b5b60006146758582860161442a565b92505060206146868582860161442a565b9150509250929050565b60006020820190506146a56000830184614537565b92915050565b600080fd5b600080fd5b6000601f19601f8301169050919050565b7f4e487b7100000000000000000000000000000000000000000000000000000000600052604160045260246000fd5b6146fe826146b5565b810181811067ffffffffffffffff8211171561471d5761471c6146c6565b5b80604052505050565b6000614730614397565b905061473c82826146f5565b919050565b600067ffffffffffffffff82111561475c5761475b6146c6565b5b614765826146b5565b9050602081019050919050565b82818337600083830152505050565b600061479461478f84614741565b614726565b9050828152602081018484840111156147b0576147af6146b0565b5b6147bb848285614772565b509392505050565b600082601f8301126147d8576147d76146ab565b5b81356147e8848260208601614781565b91505092915050565b600060208284031215614807576148066143a1565b5b600082013567ffffffffffffffff811115614825576148246143a6565b5b614831848285016147c3565b91505092915050565b600060208201905061484f6000830184614503565b92915050565b600067ffffffffffffffff8211156148705761486f6146c6565b5b602082029050919050565b600080fd5b600061489361488e84614855565b614726565b905080602084028301858111156148ad576148ac61487b565b5b835b818110156148d657806148c2888261442a565b8452602084019350506020810190506148af565b5050509392505050565b600082601f8301126148f5576148f46146ab565b5b6003614902848285614880565b91505092915050565b600080600060a08486031215614924576149236143a1565b5b60006149328682870161442a565b93505060206149438682870161442a565b9250506040614954868287016148e0565b9150509250925092565b600067ffffffffffffffff821115614979576149786146c6565b5b602082029050919050565b60006149976149928461495e565b614726565b905080602084028301858111156149b1576149b061487b565b5b835b818110156149da57806149c688826143f4565b8452602084019350506020810190506149b3565b5050509392505050565b600082601f8301126149f9576149f86146ab565b5b6003614a06848285614984565b91505092915050565b614a1881614512565b8114614a2357600080fd5b50565b600081359050614a3581614a0f565b92915050565b6000806000806101008587031215614a5657614a556143a1565b5b6000614a648782880161442a565b9450506020614a75878288016149e4565b9350506080614a86878288016148e0565b92505060e0614a9787828801614a26565b91505092959194509250565b60008060008060006101208688031215614ac057614abf6143a1565b5b6000614ace888289016143f4565b9550506020614adf8882890161442a565b9450506040614af0888289016149e4565b93505060a0614b01888289016148e0565b925050610100614b1388828901614a26565b9150509295509295909350565b600082825260208201905092915050565b7f546f6b656e206e6f7420617070726f7665640000000000000000000000000000600082015250565b6000614b67601283614b20565b9150614b7282614b31565b602082019050919050565b60006020820190508181036000830152614b9681614b5a565b9050919050565b6000604082019050614bb26000830185614503565b614bbf60208301846144ac565b9392505050565b7f537461727420494420746f6f2068696768000000000000000000000000000000600082015250565b6000614bfc601183614b20565b9150614c0782614bc6565b602082019050919050565b60006020820190508181036000830152614c2b81614bef565b9050919050565b7f4e487b7100000000000000000000000000000000000000000000000000000000600052601160045260246000fd5b6000614c6c82614409565b9150614c7783614409565b9250828201905080821115614c8f57614c8e614c32565b5b92915050565b614c9e8161452b565b8114614ca957600080fd5b50565b600081519050614cbb81614c95565b92915050565b600060208284031215614cd757614cd66143a1565b5b6000614ce584828501614cac565b91505092915050565b7f4e487b7100000000000000000000000000000000000000000000000000000000600052603260045260246000fd5b6000606082019050614d326000830186614503565b614d3f6020830185614503565b614d4c60408301846144ac565b949350505050565b6000614d5f82614409565b91507fffffffffffffffffffffffffffffffffffffffffffffffffffffffffffffffff8203614d9157614d90614c32565b5b600182019050919050565b6000606082019050614db160008301866144ac565b614dbe6020830185614503565b614dcb6040830184614537565b949350505050565b7f47616d65206e6f74206163746976650000000000000000000000000000000000600082015250565b6000614e09600f83614b20565b9150614e1482614dd3565b602082019050919050565b60006020820190508181036000830152614e3881614dfc565b9050919050565b7f4e6f7420626f74682072657665616c6564000000000000000000000000000000600082015250565b6000614e75601183614b20565b9150614e8082614e3f565b602082019050919050565b60006020820190508181036000830152614ea481614e68565b9050919050565b6000819050919050565b6000614ec082614eab565b9150614ecb83614eab565b925082820190508281121560008312168382126000841215161715614ef357614ef2614c32565b5b92915050565b6000614f0482614409565b9150614f0f83614409565b9250828202614f1d81614409565b91508282048414831517614f3457614f33614c32565b5b5092915050565b7f4e487b7100000000000000000000000000000000000000000000000000000000600052601260045260246000fd5b6000614f7582614409565b9150614f8083614409565b925082614f9057614f8f614f3b565b5b828204905092915050565b6000614fa682614409565b9150614fb183614409565b9250828203905081811115614fc957614fc8614c32565b5b92915050565b7f4e6f74206120706c617965720000000000000000000000000000000000000000600082015250565b6000615005600c83614b20565b915061501082614fcf565b602082019050919050565b6000602082019050818103600083015261503481614ff8565b9050919050565b7f416c72656164792072657665616c656400000000000000000000000000000000600082015250565b6000615071601083614b20565b915061507c8261503b565b602082019050919050565b600060208201905081810360008301526150a081615064565b9050919050565b6000819050919050565b6150c26150bd82614409565b6150a7565b82525050565b60006150d482876150b1565b6020820191506150e482866150b1565b6020820191506150f482856150b1565b60208201915061510482846150b1565b60208201915081905095945050505050565b7f496e76616c69642072657665616c000000000000000000000000000000000000600082015250565b600061514c600e83614b20565b915061515782615116565b602082019050919050565b6000602082019050818103600083015261517b8161513f565b9050919050565b7f496e646578206f7574206f662072616e67650000000000000000000000000000600082015250565b60006151b8601283614b20565b91506151c382615182565b602082019050919050565b600060208201905081810360008301526151e7816151ab565b9050919050565b7f4475706c696361746520696e6465780000000000000000000000000000000000600082015250565b6000615224600f83614b20565b915061522f826151ee565b602082019050919050565b6000602082019050818103600083015261525381615217565b9050919050565b600060408201905061526f60008301856144ac565b61527c6020830184614503565b9392505050565b7f47616d6520616c7265616479206a6f696e656400000000000000000000000000600082015250565b60006152b9601383614b20565b91506152c482615283565b602082019050919050565b600060208201905081810360008301526152e8816152ac565b9050919050565b7f496e76616c696420636f6d6d6974000000000000000000000000000000000000600082015250565b6000615325600e83614b20565b9150615330826152ef565b602082019050919050565b6000602082019050818103600083015261535481615318565b9050919050565b7f436f6c6c656374696f6e206e6f7420617070726f766564000000000000000000600082015250565b6000615391601783614b20565b915061539c8261535b565b602082019050919050565b600060208201905081810360008301526153c081615384565b9050919050565b6000815190506153d6816143dd565b92915050565b6000602082840312156153f2576153f16143a1565b5b6000615400848285016153c7565b91505092915050565b7f4e6f74206f776e65720000000000000000000000000000000000000000000000600082015250565b600061543f600983614b20565b915061544a82615409565b602082019050919050565b6000602082019050818103600083015261546e81615432565b9050919050565b7f4e6f7420617070726f7665640000000000000000000000000000000000000000600082015250565b60006154ab600c83614b20565b91506154b682615475565b602082019050919050565b600060208201905081810360008301526154da8161549e565b9050919050565b7f496e76616c696420746f6b656e00000000000000000000000000000000000000600082015250565b6000615517600d83614b20565b9150615522826154e1565b602082019050919050565b600060208201905081810360008301526155468161550a565b9050919050565b7f5374616b65206d75737420626520706f73697469766500000000000000000000600082015250565b6000615583601683614b20565b915061558e8261554d565b602082019050919050565b600060208201905081810360008301526155b281615576565b9050919050565b7f5374616b652062656c6f7720746f6b656e206d696e696d756d00000000000000600082015250565b60006155ef601983614b20565b91506155fa826155b9565b602082019050919050565b6000602082019050818103600083015261561e816155e2565b9050919050565b7f5374616b6520746f6b656e206e6f7420617070726f7665640000000000000000600082015250565b600061565b601883614b20565b915061566682615625565b602082019050919050565b6000602082019050818103600083015261568a8161564e565b9050919050565b60006080820190506156a660008301876144ac565b6156b36020830186614503565b6156c06040830185614503565b6156cd60608301846144ac565b95945050505050565b600081519050919050565b600081905092915050565b60005b8381101561570a5780820151818401526020810190506156ef565b60008484015250505050565b6000615721826156d6565b61572b81856156e1565b935061573b8185602086016156ec565b80840191505092915050565b60006157538284615716565b915081905092915050565b6000615769826156d6565b6157738185614b20565b93506157838185602086016156ec565b61578c816146b5565b840191505092915050565b600060208201905081810360008301526157b1818461575e565b905092915050565b6000815190506157c881614413565b92915050565b6000602082840312156157e4576157e36143a1565b5b60006157f2848285016157b9565b91505092915050565b600060ff82169050919050565b6000615813826157fb565b915060ff820361582657615825614c32565b5b600182019050919050565b600061583c82614eab565b915061584783614eab565b925082820390508181126000841216828213600085121516171561586e5761586d614c32565b5b92915050565b60008160010b9050919050565b600061588c82615874565b915061589783615874565b925082820190507fffffffffffffffffffffffffffffffffffffffffffffffffffffffffffff80008112617fff821317156158d5576158d4614c32565b5b92915050565b60006158ee6158e984614741565b614726565b90508281526020810184848401111561590a576159096146b0565b5b6159158482856156ec565b509392505050565b600082601f830112615932576159316146ab565b5b81516159428482602086016158db565b91505092915050565b600060208284031215615961576159606143a1565b5b600082015167ffffffffffffffff81111561597f5761597e6143a6565b5b61598b8482850161591d565b91505092915050565b7f546f6f206d616e79206f662073616d6520726172697479000000000000000000600082015250565b60006159ca601783614b20565b91506159d582615994565b602082019050919050565b600060208201905081810360008301526159f9816159bd565b905091905056fea2646970667358221220fd53ebc00fa953fe713365ab19c8655be28cc796b1faa0296d84dc23db3673d464736f6c63430008140033",
			"opcodes": "PUSH1 0x80 PUSH1 0x40 MSTORE CALLVALUE DUP1 ISZERO PUSH3 0x11 JUMPI PUSH1 0x0 DUP1 REVERT JUMPDEST POP PUSH1 0x40 MLOAD PUSH3 0x5EC0 CODESIZE SUB DUP1 PUSH3 0x5EC0 DUP4 CODECOPY DUP2 DUP2 ADD PUSH1 0x40 MSTORE DUP2 ADD SWAP1 PUSH3 0x37 SWAP2 SWAP1 PUSH3 0x2DA JUMP JUMPDEST CALLER PUSH1 0x0 PUSH20 0xFFFFFFFFFFFFFFFFFFFFFFFFFFFFFFFFFFFFFFFF AND DUP2 PUSH20 0xFFFFFFFFFFFFFFFFFFFFFFFFFFFFFFFFFFFFFFFF AND SUB PUSH3 0xAD JUMPI PUSH1 0x0 PUSH1 0x40 MLOAD PUSH32 0x1E4FBDF700000000000000000000000000000000000000000000000000000000 DUP2 MSTORE PUSH1 0x4 ADD PUSH3 0xA4 SWAP2 SWAP1 PUSH3 0x31D JUMP JUMPDEST PUSH1 0x40 MLOAD DUP1 SWAP2 SUB SWAP1 REVERT JUMPDEST PUSH3 0xBE DUP2 PUSH3 0x1AC PUSH1 0x20 SHL PUSH1 0x20 SHR JUMP JUMPDEST POP DUP1 PUSH1 0x5 PUSH1 0x0 PUSH2 0x100 EXP DUP2 SLOAD DUP2 PUSH20 0xFFFFFFFFFFFFFFFFFFFFFFFFFFFFFFFFFFFFFFFF MUL NOT AND SWAP1 DUP4 PUSH20 0xFFFFFFFFFFFFFFFFFFFFFFFFFFFFFFFFFFFFFFFF AND MUL OR SWAP1 SSTORE POP PUSH1 0x1 PUSH1 0x3 PUSH1 0x40 MLOAD PUSH3 0x112 SWAP1 PUSH3 0x395 JUMP JUMPDEST SWAP1 DUP2 MSTORE PUSH1 0x20 ADD PUSH1 0x40 MLOAD DUP1 SWAP2 SUB SWAP1 KECCAK256 PUSH1 0x0 PUSH2 0x100 EXP DUP2 SLOAD DUP2 PUSH1 0xFF MUL NOT AND SWAP1 DUP4 ISZERO ISZERO MUL OR SWAP1 SSTORE POP PUSH1 0x1 PUSH1 0x3 PUSH1 0x40 MLOAD PUSH3 0x149 SWAP1 PUSH3 0x3FC JUMP JUMPDEST SWAP1 DUP2 MSTORE PUSH1 0x20 ADD PUSH1 0x40 MLOAD DUP1 SWAP2 SUB SWAP1 KECCAK256 PUSH1 0x0 PUSH2 0x100 EXP DUP2 SLOAD DUP2 PUSH1 0xFF MUL NOT AND SWAP1 DUP4 ISZERO ISZERO MUL OR SWAP1 SSTORE POP PUSH1 0x1 PUSH1 0x3 PUSH1 0x40 MLOAD PUSH3 0x180 SWAP1 PUSH3 0x463 JUMP JUMPDEST SWAP1 DUP2 MSTORE PUSH1 0x20 ADD PUSH1 0x40 MLOAD DUP1 SWAP2 SUB SWAP1 KECCAK256 PUSH1 0x0 PUSH2 0x100 EXP DUP2 SLOAD DUP2 PUSH1 0xFF MUL NOT AND SWAP1 DUP4 ISZERO ISZERO MUL OR SWAP1 SSTORE POP POP PUSH3 0x47A JUMP JUMPDEST PUSH1 0x0 DUP1 PUSH1 0x0 SWAP1 SLOAD SWAP1 PUSH2 0x100 EXP SWAP1 DIV PUSH20 0xFFFFFFFFFFFFFFFFFFFFFFFFFFFFFFFFFFFFFFFF AND SWAP1 POP DUP2 PUSH1 0x0 DUP1 PUSH2 0x100 EXP DUP2 SLOAD DUP2 PUSH20 0xFFFFFFFFFFFFFFFFFFFFFFFFFFFFFFFFFFFFFFFF MUL NOT AND SWAP1 DUP4 PUSH20 0xFFFFFFFFFFFFFFFFFFFFFFFFFFFFFFFFFFFFFFFF AND MUL OR SWAP1 SSTORE POP DUP2 PUSH20 0xFFFFFFFFFFFFFFFFFFFFFFFFFFFFFFFFFFFFFFFF AND DUP2 PUSH20 0xFFFFFFFFFFFFFFFFFFFFFFFFFFFFFFFFFFFFFFFF AND PUSH32 0x8BE0079C531659141344CD1FD0A4F28419497F9722A3DAAFE3B4186F6B6457E0 PUSH1 0x40 MLOAD PUSH1 0x40 MLOAD DUP1 SWAP2 SUB SWAP1 LOG3 POP POP JUMP JUMPDEST PUSH1 0x0 DUP1 REVERT JUMPDEST PUSH1 0x0 PUSH20 0xFFFFFFFFFFFFFFFFFFFFFFFFFFFFFFFFFFFFFFFF DUP3 AND SWAP1 POP SWAP2 SWAP1 POP JUMP JUMPDEST PUSH1 0x0 PUSH3 0x2A2 DUP3 PUSH3 0x275 JUMP JUMPDEST SWAP1 POP SWAP2 SWAP1 POP JUMP JUMPDEST PUSH3 0x2B4 DUP2 PUSH3 0x295 JUMP JUMPDEST DUP2 EQ PUSH3 0x2C0 JUMPI PUSH1 0x0 DUP1 REVERT JUMPDEST POP JUMP JUMPDEST PUSH1 0x0 DUP2 MLOAD SWAP1 POP PUSH3 0x2D4 DUP2 PUSH3 0x2A9 JUMP JUMPDEST SWAP3 SWAP2 POP POP JUMP JUMPDEST PUSH1 0x0 PUSH1 0x20 DUP3 DUP5 SUB SLT ISZERO PUSH3 0x2F3 JUMPI PUSH3 0x2F2 PUSH3 0x270 JUMP JUMPDEST JUMPDEST PUSH1 0x0 PUSH3 0x303 DUP5 DUP3 DUP6 ADD PUSH3 0x2C3 JUMP JUMPDEST SWAP2 POP POP SWAP3 SWAP2 POP POP JUMP JUMPDEST PUSH3 0x317 DUP2 PUSH3 0x295 JUMP JUMPDEST DUP3 MSTORE POP POP JUMP JUMPDEST PUSH1 0x0 PUSH1 0x20 DUP3 ADD SWAP1 POP PUSH3 0x334 PUSH1 0x0 DUP4 ADD DUP5 PUSH3 0x30C JUMP JUMPDEST SWAP3 SWAP2 POP POP JUMP JUMPDEST PUSH1 0x0 DUP2 SWAP1 POP SWAP3 SWAP2 POP POP JUMP JUMPDEST PUSH32 0x476F6C6400000000000000000000000000000000000000000000000000000000 PUSH1 0x0 DUP3 ADD MSTORE POP JUMP JUMPDEST PUSH1 0x0 PUSH3 0x37D PUSH1 0x4 DUP4 PUSH3 0x33A JUMP JUMPDEST SWAP2 POP PUSH3 0x38A DUP3 PUSH3 0x345 JUMP JUMPDEST PUSH1 0x4 DUP3 ADD SWAP1 POP SWAP2 SWAP1 POP JUMP JUMPDEST PUSH1 0x0 PUSH3 0x3A2 DUP3 PUSH3 0x36E JUMP JUMPDEST SWAP2 POP DUP2 SWAP1 POP SWAP2 SWAP1 POP JUMP JUMPDEST PUSH32 0x53696C7665720000000000000000000000000000000000000000000000000000 PUSH1 0x0 DUP3 ADD MSTORE POP JUMP JUMPDEST PUSH1 0x0 PUSH3 0x3E4 PUSH1 0x6 DUP4 PUSH3 0x33A JUMP JUMPDEST SWAP2 POP PUSH3 0x3F1 DUP3 PUSH3 0x3AC JUMP JUMPDEST PUSH1 0x6 DUP3 ADD SWAP1 POP SWAP2 SWAP1 POP JUMP JUMPDEST PUSH1 0x0 PUSH3 0x409 DUP3 PUSH3 0x3D5 JUMP JUMPDEST SWAP2 POP DUP2 SWAP1 POP SWAP2 SWAP1 POP JUMP JUMPDEST PUSH32 0x56657264616E7420477265656E00000000000000000000000000000000000000 PUSH1 0x0 DUP3 ADD MSTORE POP JUMP JUMPDEST PUSH1 0x0 PUSH3 0x44B PUSH1 0xD DUP4 PUSH3 0x33A JUMP JUMPDEST SWAP2 POP PUSH3 0x458 DUP3 PUSH3 0x413 JUMP JUMPDEST PUSH1 0xD DUP3 ADD SWAP1 POP SWAP2 SWAP1 POP JUMP JUMPDEST PUSH1 0x0 PUSH3 0x470 DUP3 PUSH3 0x43C JUMP JUMPDEST SWAP2 POP DUP2 SWAP1 POP SWAP2 SWAP1 POP JUMP JUMPDEST PUSH2 0x5A36 DUP1 PUSH3 0x48A PUSH1 0x0 CODECOPY PUSH1 0x0 RETURN INVALID PUSH1 0x80 PUSH1 0x40 MSTORE CALLVALUE DUP1 ISZERO PUSH2 0x10 JUMPI PUSH1 0x0 DUP1 REVERT JUMPDEST POP PUSH1 0x4 CALLDATASIZE LT PUSH2 0x142 JUMPI PUSH1 0x0 CALLDATALOAD PUSH1 0xE0 SHR DUP1 PUSH4 0x7D761F7A GT PUSH2 0xB8 JUMPI DUP1 PUSH4 0xB135BBB0 GT PUSH2 0x7C JUMPI DUP1 PUSH4 0xB135BBB0 EQ PUSH2 0x367 JUMPI DUP1 PUSH4 0xB43A5098 EQ PUSH2 0x385 JUMPI DUP1 PUSH4 0xEAF7AC9F EQ PUSH2 0x3A1 JUMPI DUP1 PUSH4 0xEAF98D23 EQ PUSH2 0x3BF JUMPI DUP1 PUSH4 0xEC07FB74 EQ PUSH2 0x3DD JUMPI DUP1 PUSH4 0xF2FDE38B EQ PUSH2 0x40D JUMPI PUSH2 0x142 JUMP JUMPDEST DUP1 PUSH4 0x7D761F7A EQ PUSH2 0x2D9 JUMPI DUP1 PUSH4 0x81F7D942 EQ PUSH2 0x2F5 JUMPI DUP1 PUSH4 0x8DA5CB5B EQ PUSH2 0x311 JUMPI DUP1 PUSH4 0xA174E77A EQ PUSH2 0x32F JUMPI DUP1 PUSH4 0xAD59951D EQ PUSH2 0x34B JUMPI PUSH2 0x142 JUMP JUMPDEST DUP1 PUSH4 0x312D7BBC GT PUSH2 0x10A JUMPI DUP1 PUSH4 0x312D7BBC EQ PUSH2 0x219 JUMPI DUP1 PUSH4 0x44BF95C6 EQ PUSH2 0x235 JUMPI DUP1 PUSH4 0x4E714AC3 EQ PUSH2 0x265 JUMPI DUP1 PUSH4 0x59927044 EQ PUSH2 0x295 JUMPI DUP1 PUSH4 0x66333422 EQ PUSH2 0x2B3 JUMPI DUP1 PUSH4 0x715018A6 EQ PUSH2 0x2CF JUMPI PUSH2 0x142 JUMP JUMPDEST DUP1 PUSH4 0x60B89C5 EQ PUSH2 0x147 JUMPI DUP1 PUSH4 0x6B5FBE8 EQ PUSH2 0x163 JUMPI DUP1 PUSH4 0x117A5B90 EQ PUSH2 0x193 JUMPI DUP1 PUSH4 0x1525FF7D EQ PUSH2 0x1CD JUMPI DUP1 PUSH4 0x2D54CAFE EQ PUSH2 0x1E9 JUMPI JUMPDEST PUSH1 0x0 DUP1 REVERT JUMPDEST PUSH2 0x161 PUSH1 0x4 DUP1 CALLDATASIZE SUB DUP2 ADD SWAP1 PUSH2 0x15C SWAP2 SWAP1 PUSH2 0x443F JUMP JUMPDEST PUSH2 0x429 JUMP JUMPDEST STOP JUMPDEST PUSH2 0x17D PUSH1 0x4 DUP1 CALLDATASIZE SUB DUP2 ADD SWAP1 PUSH2 0x178 SWAP2 SWAP1 PUSH2 0x447F JUMP JUMPDEST PUSH2 0x53E JUMP JUMPDEST PUSH1 0x40 MLOAD PUSH2 0x18A SWAP2 SWAP1 PUSH2 0x44BB JUMP JUMPDEST PUSH1 0x40 MLOAD DUP1 SWAP2 SUB SWAP1 RETURN JUMPDEST PUSH2 0x1AD PUSH1 0x4 DUP1 CALLDATASIZE SUB DUP2 ADD SWAP1 PUSH2 0x1A8 SWAP2 SWAP1 PUSH2 0x44D6 JUMP JUMPDEST PUSH2 0x556 JUMP JUMPDEST PUSH1 0x40 MLOAD PUSH2 0x1C4 SWAP12 SWAP11 SWAP10 SWAP9 SWAP8 SWAP7 SWAP6 SWAP5 SWAP4 SWAP3 SWAP2 SWAP1 PUSH2 0x45A5 JUMP JUMPDEST PUSH1 0x40 MLOAD DUP1 SWAP2 SUB SWAP1 RETURN JUMPDEST PUSH2 0x1E7 PUSH1 0x4 DUP1 CALLDATASIZE SUB DUP2 ADD SWAP1 PUSH2 0x1E2 SWAP2 SWAP1 PUSH2 0x447F JUMP JUMPDEST PUSH2 0x637 JUMP JUMPDEST STOP JUMPDEST PUSH2 0x203 PUSH1 0x4 DUP1 CALLDATASIZE SUB DUP2 ADD SWAP1 PUSH2 0x1FE SWAP2 SWAP1 PUSH2 0x4650 JUMP JUMPDEST PUSH2 0x683 JUMP JUMPDEST PUSH1 0x40 MLOAD PUSH2 0x210 SWAP2 SWAP1 PUSH2 0x44BB JUMP JUMPDEST PUSH1 0x40 MLOAD DUP1 SWAP2 SUB SWAP1 RETURN JUMPDEST PUSH2 0x233 PUSH1 0x4 DUP1 CALLDATASIZE SUB DUP2 ADD SWAP1 PUSH2 0x22E SWAP2 SWAP1 PUSH2 0x44D6 JUMP JUMPDEST PUSH2 0xE4D JUMP JUMPDEST STOP JUMPDEST PUSH2 0x24F PUSH1 0x4 DUP1 CALLDATASIZE SUB DUP2 ADD SWAP1 PUSH2 0x24A SWAP2 SWAP1 PUSH2 0x447F JUMP JUMPDEST PUSH2 0x1FD7 JUMP JUMPDEST PUSH1 0x40 MLOAD PUSH2 0x25C SWAP2 SWAP1 PUSH2 0x4690 JUMP JUMPDEST PUSH1 0x40 MLOAD DUP1 SWAP2 SUB SWAP1 RETURN JUMPDEST PUSH2 0x27F PUSH1 0x4 DUP1 CALLDATASIZE SUB DUP2 ADD SWAP1 PUSH2 0x27A SWAP2 SWAP1 PUSH2 0x47F1 JUMP JUMPDEST PUSH2 0x1FF7 JUMP JUMPDEST PUSH1 0x40 MLOAD PUSH2 0x28C SWAP2 SWAP1 PUSH2 0x4690 JUMP JUMPDEST PUSH1 0x40 MLOAD DUP1 SWAP2 SUB SWAP1 RETURN JUMPDEST PUSH2 0x29D PUSH2 0x202D JUMP JUMPDEST PUSH1 0x40 MLOAD PUSH2 0x2AA SWAP2 SWAP1 PUSH2 0x483A JUMP JUMPDEST PUSH1 0x40 MLOAD DUP1 SWAP2 SUB SWAP1 RETURN JUMPDEST PUSH2 0x2CD PUSH1 0x4 DUP1 CALLDATASIZE SUB DUP2 ADD SWAP1 PUSH2 0x2C8 SWAP2 SWAP1 PUSH2 0x490B JUMP JUMPDEST PUSH2 0x2053 JUMP JUMPDEST STOP JUMPDEST PUSH2 0x2D7 PUSH2 0x24B0 JUMP JUMPDEST STOP JUMPDEST PUSH2 0x2F3 PUSH1 0x4 DUP1 CALLDATASIZE SUB DUP2 ADD SWAP1 PUSH2 0x2EE SWAP2 SWAP1 PUSH2 0x4A3B JUMP JUMPDEST PUSH2 0x24C4 JUMP JUMPDEST STOP JUMPDEST PUSH2 0x30F PUSH1 0x4 DUP1 CALLDATASIZE SUB DUP2 ADD SWAP1 PUSH2 0x30A SWAP2 SWAP1 PUSH2 0x443F JUMP JUMPDEST PUSH2 0x2B0D JUMP JUMPDEST STOP JUMPDEST PUSH2 0x319 PUSH2 0x2C5D JUMP JUMPDEST PUSH1 0x40 MLOAD PUSH2 0x326 SWAP2 SWAP1 PUSH2 0x483A JUMP JUMPDEST PUSH1 0x40 MLOAD DUP1 SWAP2 SUB SWAP1 RETURN JUMPDEST PUSH2 0x349 PUSH1 0x4 DUP1 CALLDATASIZE SUB DUP2 ADD SWAP1 PUSH2 0x344 SWAP2 SWAP1 PUSH2 0x447F JUMP JUMPDEST PUSH2 0x2C86 JUMP JUMPDEST STOP JUMPDEST PUSH2 0x365 PUSH1 0x4 DUP1 CALLDATASIZE SUB DUP2 ADD SWAP1 PUSH2 0x360 SWAP2 SWAP1 PUSH2 0x4AA3 JUMP JUMPDEST PUSH2 0x2D1F JUMP JUMPDEST STOP JUMPDEST PUSH2 0x36F PUSH2 0x370D JUMP JUMPDEST PUSH1 0x40 MLOAD PUSH2 0x37C SWAP2 SWAP1 PUSH2 0x44BB JUMP JUMPDEST PUSH1 0x40 MLOAD DUP1 SWAP2 SUB SWAP1 RETURN JUMPDEST PUSH2 0x39F PUSH1 0x4 DUP1 CALLDATASIZE SUB DUP2 ADD SWAP1 PUSH2 0x39A SWAP2 SWAP1 PUSH2 0x47F1 JUMP JUMPDEST PUSH2 0x3713 JUMP JUMPDEST STOP JUMPDEST PUSH2 0x3A9 PUSH2 0x378C JUMP JUMPDEST PUSH1 0x40 MLOAD PUSH2 0x3B6 SWAP2 SWAP1 PUSH2 0x44BB JUMP JUMPDEST PUSH1 0x40 MLOAD DUP1 SWAP2 SUB SWAP1 RETURN JUMPDEST PUSH2 0x3C7 PUSH2 0x3793 JUMP JUMPDEST PUSH1 0x40 MLOAD PUSH2 0x3D4 SWAP2 SWAP1 PUSH2 0x44BB JUMP JUMPDEST PUSH1 0x40 MLOAD DUP1 SWAP2 SUB SWAP1 RETURN JUMPDEST PUSH2 0x3F7 PUSH1 0x4 DUP1 CALLDATASIZE SUB DUP2 ADD SWAP1 PUSH2 0x3F2 SWAP2 SWAP1 PUSH2 0x447F JUMP JUMPDEST PUSH2 0x3798 JUMP JUMPDEST PUSH1 0x40 MLOAD PUSH2 0x404 SWAP2 SWAP1 PUSH2 0x4690 JUMP JUMPDEST PUSH1 0x40 MLOAD DUP1 SWAP2 SUB SWAP1 RETURN JUMPDEST PUSH2 0x427 PUSH1 0x4 DUP1 CALLDATASIZE SUB DUP2 ADD SWAP1 PUSH2 0x422 SWAP2 SWAP1 PUSH2 0x447F JUMP JUMPDEST PUSH2 0x37B8 JUMP JUMPDEST STOP JUMPDEST PUSH2 0x431 PUSH2 0x383E JUMP JUMPDEST PUSH1 0x2 PUSH1 0x0 DUP4 PUSH20 0xFFFFFFFFFFFFFFFFFFFFFFFFFFFFFFFFFFFFFFFF AND PUSH20 0xFFFFFFFFFFFFFFFFFFFFFFFFFFFFFFFFFFFFFFFF AND DUP2 MSTORE PUSH1 0x20 ADD SWAP1 DUP2 MSTORE PUSH1 0x20 ADD PUSH1 0x0 KECCAK256 PUSH1 0x0 SWAP1 SLOAD SWAP1 PUSH2 0x100 EXP SWAP1 DIV PUSH1 0xFF AND PUSH2 0x4BD JUMPI PUSH1 0x40 MLOAD PUSH32 0x8C379A000000000000000000000000000000000000000000000000000000000 DUP2 MSTORE PUSH1 0x4 ADD PUSH2 0x4B4 SWAP1 PUSH2 0x4B7D JUMP JUMPDEST PUSH1 0x40 MLOAD DUP1 SWAP2 SUB SWAP1 REVERT JUMPDEST DUP1 PUSH1 0x4 PUSH1 0x0 DUP5 PUSH20 0xFFFFFFFFFFFFFFFFFFFFFFFFFFFFFFFFFFFFFFFF AND PUSH20 0xFFFFFFFFFFFFFFFFFFFFFFFFFFFFFFFFFFFFFFFF AND DUP2 MSTORE PUSH1 0x20 ADD SWAP1 DUP2 MSTORE PUSH1 0x20 ADD PUSH1 0x0 KECCAK256 DUP2 SWAP1 SSTORE POP PUSH32 0xE8714BA99B4A6EFBDE0C674BDBEC2836CCFE51B4DED655734FBE67D66BD7C4C2 DUP3 DUP3 PUSH1 0x40 MLOAD PUSH2 0x532 SWAP3 SWAP2 SWAP1 PUSH2 0x4B9D JUMP JUMPDEST PUSH1 0x40 MLOAD DUP1 SWAP2 SUB SWAP1 LOG1 POP POP JUMP JUMPDEST PUSH1 0x4 PUSH1 0x20 MSTORE DUP1 PUSH1 0x0 MSTORE PUSH1 0x40 PUSH1 0x0 KECCAK256 PUSH1 0x0 SWAP2 POP SWAP1 POP SLOAD DUP2 JUMP JUMPDEST PUSH1 0x6 PUSH1 0x20 MSTORE DUP1 PUSH1 0x0 MSTORE PUSH1 0x40 PUSH1 0x0 KECCAK256 PUSH1 0x0 SWAP2 POP SWAP1 POP DUP1 PUSH1 0x0 ADD PUSH1 0x0 SWAP1 SLOAD SWAP1 PUSH2 0x100 EXP SWAP1 DIV PUSH20 0xFFFFFFFFFFFFFFFFFFFFFFFFFFFFFFFFFFFFFFFF AND SWAP1 DUP1 PUSH1 0x7 ADD SLOAD SWAP1 DUP1 PUSH1 0xB ADD PUSH1 0x0 SWAP1 SLOAD SWAP1 PUSH2 0x100 EXP SWAP1 DIV PUSH1 0xFF AND SWAP1 DUP1 PUSH1 0xB ADD PUSH1 0x1 SWAP1 SLOAD SWAP1 PUSH2 0x100 EXP SWAP1 DIV PUSH20 0xFFFFFFFFFFFFFFFFFFFFFFFFFFFFFFFFFFFFFFFF AND SWAP1 DUP1 PUSH1 0x12 ADD SLOAD SWAP1 DUP1 PUSH1 0x16 ADD PUSH1 0x0 SWAP1 SLOAD SWAP1 PUSH2 0x100 EXP SWAP1 DIV PUSH1 0xFF AND SWAP1 DUP1 PUSH1 0x16 ADD PUSH1 0x1 SWAP1 SLOAD SWAP1 PUSH2 0x100 EXP SWAP1 DIV PUSH20 0xFFFFFFFFFFFFFFFFFFFFFFFFFFFFFFFFFFFFFFFF AND SWAP1 DUP1 PUSH1 0x17 ADD SLOAD SWAP1 DUP1 PUSH1 0x18 ADD SLOAD SWAP1 DUP1 PUSH1 0x19 ADD SLOAD SWAP1 DUP1 PUSH1 0x1A ADD PUSH1 0x0 SWAP1 SLOAD SWAP1 PUSH2 0x100 EXP SWAP1 DIV PUSH1 0xFF AND SWAP1 POP DUP12 JUMP JUMPDEST PUSH2 0x63F PUSH2 0x383E JUMP JUMPDEST DUP1 PUSH1 0x5 PUSH1 0x0 PUSH2 0x100 EXP DUP2 SLOAD DUP2 PUSH20 0xFFFFFFFFFFFFFFFFFFFFFFFFFFFFFFFFFFFFFFFF MUL NOT AND SWAP1 DUP4 PUSH20 0xFFFFFFFFFFFFFFFFFFFFFFFFFFFFFFFFFFFFFFFF AND MUL OR SWAP1 SSTORE POP POP JUMP JUMPDEST PUSH1 0x0 PUSH1 0x7 SLOAD DUP4 LT PUSH2 0x6C9 JUMPI PUSH1 0x40 MLOAD PUSH32 0x8C379A000000000000000000000000000000000000000000000000000000000 DUP2 MSTORE PUSH1 0x4 ADD PUSH2 0x6C0 SWAP1 PUSH2 0x4C12 JUMP JUMPDEST PUSH1 0x40 MLOAD DUP1 SWAP2 SUB SWAP1 REVERT JUMPDEST PUSH1 0x0 PUSH1 0x7 SLOAD DUP4 DUP6 PUSH2 0x6DA SWAP2 SWAP1 PUSH2 0x4C61 JUMP JUMPDEST GT PUSH2 0x6F0 JUMPI DUP3 DUP5 PUSH2 0x6EB SWAP2 SWAP1 PUSH2 0x4C61 JUMP JUMPDEST PUSH2 0x6F4 JUMP JUMPDEST PUSH1 0x7 SLOAD JUMPDEST SWAP1 POP PUSH1 0x0 SWAP2 POP PUSH1 0x0 DUP5 SWAP1 POP JUMPDEST DUP2 DUP2 LT ISZERO PUSH2 0xE45 JUMPI PUSH1 0x0 PUSH1 0x6 PUSH1 0x0 DUP4 DUP2 MSTORE PUSH1 0x20 ADD SWAP1 DUP2 MSTORE PUSH1 0x20 ADD PUSH1 0x0 KECCAK256 SWAP1 POP DUP1 PUSH1 0x1A ADD PUSH1 0x0 SWAP1 SLOAD SWAP1 PUSH2 0x100 EXP SWAP1 DIV PUSH1 0xFF AND PUSH2 0x73B JUMPI POP PUSH2 0xE32 JUMP JUMPDEST PUSH1 0x0 DUP2 PUSH1 0x17 ADD SLOAD SWAP1 POP PUSH1 0x0 PUSH20 0xFFFFFFFFFFFFFFFFFFFFFFFFFFFFFFFFFFFFFFFF AND DUP3 PUSH1 0xB ADD PUSH1 0x1 SWAP1 SLOAD SWAP1 PUSH2 0x100 EXP SWAP1 DIV PUSH20 0xFFFFFFFFFFFFFFFFFFFFFFFFFFFFFFFFFFFFFFFF AND PUSH20 0xFFFFFFFFFFFFFFFFFFFFFFFFFFFFFFFFFFFFFFFF AND EQ DUP1 ISZERO PUSH2 0x7B6 JUMPI POP PUSH3 0x93A80 DUP3 PUSH1 0x18 ADD SLOAD PUSH2 0x7B2 SWAP2 SWAP1 PUSH2 0x4C61 JUMP JUMPDEST TIMESTAMP LT ISZERO JUMPDEST ISZERO PUSH2 0x9F2 JUMPI DUP2 PUSH1 0x16 ADD PUSH1 0x1 SWAP1 SLOAD SWAP1 PUSH2 0x100 EXP SWAP1 DIV PUSH20 0xFFFFFFFFFFFFFFFFFFFFFFFFFFFFFFFFFFFFFFFF AND PUSH20 0xFFFFFFFFFFFFFFFFFFFFFFFFFFFFFFFFFFFFFFFF AND PUSH4 0xA9059CBB DUP4 PUSH1 0x0 ADD PUSH1 0x0 SWAP1 SLOAD SWAP1 PUSH2 0x100 EXP SWAP1 DIV PUSH20 0xFFFFFFFFFFFFFFFFFFFFFFFFFFFFFFFFFFFFFFFF AND DUP4 PUSH1 0x40 MLOAD DUP4 PUSH4 0xFFFFFFFF AND PUSH1 0xE0 SHL DUP2 MSTORE PUSH1 0x4 ADD PUSH2 0x83E SWAP3 SWAP2 SWAP1 PUSH2 0x4B9D JUMP JUMPDEST PUSH1 0x20 PUSH1 0x40 MLOAD DUP1 DUP4 SUB DUP2 PUSH1 0x0 DUP8 GAS CALL ISZERO DUP1 ISZERO PUSH2 0x85D JUMPI RETURNDATASIZE PUSH1 0x0 DUP1 RETURNDATACOPY RETURNDATASIZE PUSH1 0x0 REVERT JUMPDEST POP POP POP POP PUSH1 0x40 MLOAD RETURNDATASIZE PUSH1 0x1F NOT PUSH1 0x1F DUP3 ADD AND DUP3 ADD DUP1 PUSH1 0x40 MSTORE POP DUP2 ADD SWAP1 PUSH2 0x881 SWAP2 SWAP1 PUSH2 0x4CC1 JUMP JUMPDEST POP PUSH1 0x0 JUMPDEST PUSH1 0x3 DUP2 LT ISZERO PUSH2 0x982 JUMPI DUP3 PUSH1 0x1 ADD DUP2 PUSH1 0x3 DUP2 LT PUSH2 0x8A4 JUMPI PUSH2 0x8A3 PUSH2 0x4CEE JUMP JUMPDEST JUMPDEST ADD PUSH1 0x0 SWAP1 SLOAD SWAP1 PUSH2 0x100 EXP SWAP1 DIV PUSH20 0xFFFFFFFFFFFFFFFFFFFFFFFFFFFFFFFFFFFFFFFF AND PUSH20 0xFFFFFFFFFFFFFFFFFFFFFFFFFFFFFFFFFFFFFFFF AND PUSH4 0x23B872DD ADDRESS DUP6 PUSH1 0x0 ADD PUSH1 0x0 SWAP1 SLOAD SWAP1 PUSH2 0x100 EXP SWAP1 DIV PUSH20 0xFFFFFFFFFFFFFFFFFFFFFFFFFFFFFFFFFFFFFFFF AND DUP7 PUSH1 0x4 ADD DUP6 PUSH1 0x3 DUP2 LT PUSH2 0x91D JUMPI PUSH2 0x91C PUSH2 0x4CEE JUMP JUMPDEST JUMPDEST ADD SLOAD PUSH1 0x40 MLOAD DUP5 PUSH4 0xFFFFFFFF AND PUSH1 0xE0 SHL DUP2 MSTORE PUSH1 0x4 ADD PUSH2 0x93D SWAP4 SWAP3 SWAP2 SWAP1 PUSH2 0x4D1D JUMP JUMPDEST PUSH1 0x0 PUSH1 0x40 MLOAD DUP1 DUP4 SUB DUP2 PUSH1 0x0 DUP8 DUP1 EXTCODESIZE ISZERO DUP1 ISZERO PUSH2 0x957 JUMPI PUSH1 0x0 DUP1 REVERT JUMPDEST POP GAS CALL ISZERO DUP1 ISZERO PUSH2 0x96B JUMPI RETURNDATASIZE PUSH1 0x0 DUP1 RETURNDATACOPY RETURNDATASIZE PUSH1 0x0 REVERT JUMPDEST POP POP POP POP DUP1 DUP1 PUSH2 0x97A SWAP1 PUSH2 0x4D54 JUMP JUMPDEST SWAP2 POP POP PUSH2 0x885 JUMP JUMPDEST POP PUSH1 0x0 DUP3 PUSH1 0x1A ADD PUSH1 0x0 PUSH2 0x100 EXP DUP2 SLOAD DUP2 PUSH1 0xFF MUL NOT AND SWAP1 DUP4 ISZERO ISZERO MUL OR SWAP1 SSTORE POP PUSH32 0x70513431FE7F36611E21FF99AA229C501699D89165596D29C077697D177422D4 DUP4 PUSH1 0x0 PUSH1 0x1 PUSH1 0x40 MLOAD PUSH2 0x9D5 SWAP4 SWAP3 SWAP2 SWAP1 PUSH2 0x4D9C JUMP JUMPDEST PUSH1 0x40 MLOAD DUP1 SWAP2 SUB SWAP1 LOG1 DUP5 DUP1 PUSH2 0x9E8 SWAP1 PUSH2 0x4D54 JUMP JUMPDEST SWAP6 POP POP POP POP PUSH2 0xE32 JUMP JUMPDEST PUSH1 0x0 DUP3 PUSH1 0x19 ADD SLOAD GT DUP1 ISZERO PUSH2 0xA18 JUMPI POP PUSH3 0x93A80 DUP3 PUSH1 0x19 ADD SLOAD PUSH2 0xA14 SWAP2 SWAP1 PUSH2 0x4C61 JUMP JUMPDEST TIMESTAMP LT ISZERO JUMPDEST ISZERO PUSH2 0xE2F JUMPI DUP2 PUSH1 0xB ADD PUSH1 0x0 SWAP1 SLOAD SWAP1 PUSH2 0x100 EXP SWAP1 DIV PUSH1 0xFF AND ISZERO DUP1 PUSH2 0xA4A JUMPI POP DUP2 PUSH1 0x16 ADD PUSH1 0x0 SWAP1 SLOAD SWAP1 PUSH2 0x100 EXP SWAP1 DIV PUSH1 0xFF AND ISZERO JUMPDEST ISZERO PUSH2 0xE2E JUMPI DUP2 PUSH1 0x16 ADD PUSH1 0x1 SWAP1 SLOAD SWAP1 PUSH2 0x100 EXP SWAP1 DIV PUSH20 0xFFFFFFFFFFFFFFFFFFFFFFFFFFFFFFFFFFFFFFFF AND PUSH20 0xFFFFFFFFFFFFFFFFFFFFFFFFFFFFFFFFFFFFFFFF AND PUSH4 0xA9059CBB DUP4 PUSH1 0x0 ADD PUSH1 0x0 SWAP1 SLOAD SWAP1 PUSH2 0x100 EXP SWAP1 DIV PUSH20 0xFFFFFFFFFFFFFFFFFFFFFFFFFFFFFFFFFFFFFFFF AND DUP4 PUSH1 0x40 MLOAD DUP4 PUSH4 0xFFFFFFFF AND PUSH1 0xE0 SHL DUP2 MSTORE PUSH1 0x4 ADD PUSH2 0xAD2 SWAP3 SWAP2 SWAP1 PUSH2 0x4B9D JUMP JUMPDEST PUSH1 0x20 PUSH1 0x40 MLOAD DUP1 DUP4 SUB DUP2 PUSH1 0x0 DUP8 GAS CALL ISZERO DUP1 ISZERO PUSH2 0xAF1 JUMPI RETURNDATASIZE PUSH1 0x0 DUP1 RETURNDATACOPY RETURNDATASIZE PUSH1 0x0 REVERT JUMPDEST POP POP POP POP PUSH1 0x40 MLOAD RETURNDATASIZE PUSH1 0x1F NOT PUSH1 0x1F DUP3 ADD AND DUP3 ADD DUP1 PUSH1 0x40 MSTORE POP DUP2 ADD SWAP1 PUSH2 0xB15 SWAP2 SWAP1 PUSH2 0x4CC1 JUMP JUMPDEST POP DUP2 PUSH1 0x16 ADD PUSH1 0x1 SWAP1 SLOAD SWAP1 PUSH2 0x100 EXP SWAP1 DIV PUSH20 0xFFFFFFFFFFFFFFFFFFFFFFFFFFFFFFFFFFFFFFFF AND PUSH20 0xFFFFFFFFFFFFFFFFFFFFFFFFFFFFFFFFFFFFFFFF AND PUSH4 0xA9059CBB DUP4 PUSH1 0xB ADD PUSH1 0x1 SWAP1 SLOAD SWAP1 PUSH2 0x100 EXP SWAP1 DIV PUSH20 0xFFFFFFFFFFFFFFFFFFFFFFFFFFFFFFFFFFFFFFFF AND DUP4 PUSH1 0x40 MLOAD DUP4 PUSH4 0xFFFFFFFF AND PUSH1 0xE0 SHL DUP2 MSTORE PUSH1 0x4 ADD PUSH2 0xB99 SWAP3 SWAP2 SWAP1 PUSH2 0x4B9D JUMP JUMPDEST PUSH1 0x20 PUSH1 0x40 MLOAD DUP1 DUP4 SUB DUP2 PUSH1 0x0 DUP8 GAS CALL ISZERO DUP1 ISZERO PUSH2 0xBB8 JUMPI RETURNDATASIZE PUSH1 0x0 DUP1 RETURNDATACOPY RETURNDATASIZE PUSH1 0x0 REVERT JUMPDEST POP POP POP POP PUSH1 0x40 MLOAD RETURNDATASIZE PUSH1 0x1F NOT PUSH1 0x1F DUP3 ADD AND DUP3 ADD DUP1 PUSH1 0x40 MSTORE POP DUP2 ADD SWAP1 PUSH2 0xBDC SWAP2 SWAP1 PUSH2 0x4CC1 JUMP JUMPDEST POP PUSH1 0x0 JUMPDEST PUSH1 0x3 DUP2 LT ISZERO PUSH2 0xDBE JUMPI DUP3 PUSH1 0x1 ADD DUP2 PUSH1 0x3 DUP2 LT PUSH2 0xBFF JUMPI PUSH2 0xBFE PUSH2 0x4CEE JUMP JUMPDEST JUMPDEST ADD PUSH1 0x0 SWAP1 SLOAD SWAP1 PUSH2 0x100 EXP SWAP1 DIV PUSH20 0xFFFFFFFFFFFFFFFFFFFFFFFFFFFFFFFFFFFFFFFF AND PUSH20 0xFFFFFFFFFFFFFFFFFFFFFFFFFFFFFFFFFFFFFFFF AND PUSH4 0x23B872DD ADDRESS DUP6 PUSH1 0x0 ADD PUSH1 0x0 SWAP1 SLOAD SWAP1 PUSH2 0x100 EXP SWAP1 DIV PUSH20 0xFFFFFFFFFFFFFFFFFFFFFFFFFFFFFFFFFFFFFFFF AND DUP7 PUSH1 0x4 ADD DUP6 PUSH1 0x3 DUP2 LT PUSH2 0xC78 JUMPI PUSH2 0xC77 PUSH2 0x4CEE JUMP JUMPDEST JUMPDEST ADD SLOAD PUSH1 0x40 MLOAD DUP5 PUSH4 0xFFFFFFFF AND PUSH1 0xE0 SHL DUP2 MSTORE PUSH1 0x4 ADD PUSH2 0xC98 SWAP4 SWAP3 SWAP2 SWAP1 PUSH2 0x4D1D JUMP JUMPDEST PUSH1 0x0 PUSH1 0x40 MLOAD DUP1 DUP4 SUB DUP2 PUSH1 0x0 DUP8 DUP1 EXTCODESIZE ISZERO DUP1 ISZERO PUSH2 0xCB2 JUMPI PUSH1 0x0 DUP1 REVERT JUMPDEST POP GAS CALL ISZERO DUP1 ISZERO PUSH2 0xCC6 JUMPI RETURNDATASIZE PUSH1 0x0 DUP1 RETURNDATACOPY RETURNDATASIZE PUSH1 0x0 REVERT JUMPDEST POP POP POP POP DUP3 PUSH1 0xC ADD DUP2 PUSH1 0x3 DUP2 LT PUSH2 0xCE0 JUMPI PUSH2 0xCDF PUSH2 0x4CEE JUMP JUMPDEST JUMPDEST ADD PUSH1 0x0 SWAP1 SLOAD SWAP1 PUSH2 0x100 EXP SWAP1 DIV PUSH20 0xFFFFFFFFFFFFFFFFFFFFFFFFFFFFFFFFFFFFFFFF AND PUSH20 0xFFFFFFFFFFFFFFFFFFFFFFFFFFFFFFFFFFFFFFFF AND PUSH4 0x23B872DD ADDRESS DUP6 PUSH1 0xB ADD PUSH1 0x1 SWAP1 SLOAD SWAP1 PUSH2 0x100 EXP SWAP1 DIV PUSH20 0xFFFFFFFFFFFFFFFFFFFFFFFFFFFFFFFFFFFFFFFF AND DUP7 PUSH1 0xF ADD DUP6 PUSH1 0x3 DUP2 LT PUSH2 0xD59 JUMPI PUSH2 0xD58 PUSH2 0x4CEE JUMP JUMPDEST JUMPDEST ADD SLOAD PUSH1 0x40 MLOAD DUP5 PUSH4 0xFFFFFFFF AND PUSH1 0xE0 SHL DUP2 MSTORE PUSH1 0x4 ADD PUSH2 0xD79 SWAP4 SWAP3 SWAP2 SWAP1 PUSH2 0x4D1D JUMP JUMPDEST PUSH1 0x0 PUSH1 0x40 MLOAD DUP1 DUP4 SUB DUP2 PUSH1 0x0 DUP8 DUP1 EXTCODESIZE ISZERO DUP1 ISZERO PUSH2 0xD93 JUMPI PUSH1 0x0 DUP1 REVERT JUMPDEST POP GAS CALL ISZERO DUP1 ISZERO PUSH2 0xDA7 JUMPI RETURNDATASIZE PUSH1 0x0 DUP1 RETURNDATACOPY RETURNDATASIZE PUSH1 0x0 REVERT JUMPDEST POP POP POP POP DUP1 DUP1 PUSH2 0xDB6 SWAP1 PUSH2 0x4D54 JUMP JUMPDEST SWAP2 POP POP PUSH2 0xBE0 JUMP JUMPDEST POP PUSH1 0x0 DUP3 PUSH1 0x1A ADD PUSH1 0x0 PUSH2 0x100 EXP DUP2 SLOAD DUP2 PUSH1 0xFF MUL NOT AND SWAP1 DUP4 ISZERO ISZERO MUL OR SWAP1 SSTORE POP PUSH32 0x70513431FE7F36611E21FF99AA229C501699D89165596D29C077697D177422D4 DUP4 PUSH1 0x0 PUSH1 0x1 PUSH1 0x40 MLOAD PUSH2 0xE11 SWAP4 SWAP3 SWAP2 SWAP1 PUSH2 0x4D9C JUMP JUMPDEST PUSH1 0x40 MLOAD DUP1 SWAP2 SUB SWAP1 LOG1 DUP5 DUP1 PUSH2 0xE24 SWAP1 PUSH2 0x4D54 JUMP JUMPDEST SWAP6 POP POP POP POP PUSH2 0xE32 JUMP JUMPDEST JUMPDEST POP POP JUMPDEST DUP1 DUP1 PUSH2 0xE3D SWAP1 PUSH2 0x4D54 JUMP JUMPDEST SWAP2 POP POP PUSH2 0x700 JUMP JUMPDEST POP POP SWAP3 SWAP2 POP POP JUMP JUMPDEST PUSH1 0x0 PUSH1 0x6 PUSH1 0x0 DUP4 DUP2 MSTORE PUSH1 0x20 ADD SWAP1 DUP2 MSTORE PUSH1 0x20 ADD PUSH1 0x0 KECCAK256 SWAP1 POP DUP1 PUSH1 0x1A ADD PUSH1 0x0 SWAP1 SLOAD SWAP1 PUSH2 0x100 EXP SWAP1 DIV PUSH1 0xFF AND PUSH2 0xEB5 JUMPI PUSH1 0x40 MLOAD PUSH32 0x8C379A000000000000000000000000000000000000000000000000000000000 DUP2 MSTORE PUSH1 0x4 ADD PUSH2 0xEAC SWAP1 PUSH2 0x4E1F JUMP JUMPDEST PUSH1 0x40 MLOAD DUP1 SWAP2 SUB SWAP1 REVERT JUMPDEST PUSH1 0x0 DUP2 PUSH1 0x17 ADD SLOAD SWAP1 POP PUSH1 0x0 PUSH20 0xFFFFFFFFFFFFFFFFFFFFFFFFFFFFFFFFFFFFFFFF AND DUP3 PUSH1 0xB ADD PUSH1 0x1 SWAP1 SLOAD SWAP1 PUSH2 0x100 EXP SWAP1 DIV PUSH20 0xFFFFFFFFFFFFFFFFFFFFFFFFFFFFFFFFFFFFFFFF AND PUSH20 0xFFFFFFFFFFFFFFFFFFFFFFFFFFFFFFFFFFFFFFFF AND EQ DUP1 ISZERO PUSH2 0xF30 JUMPI POP PUSH3 0x93A80 DUP3 PUSH1 0x18 ADD SLOAD PUSH2 0xF2C SWAP2 SWAP1 PUSH2 0x4C61 JUMP JUMPDEST TIMESTAMP LT ISZERO JUMPDEST ISZERO PUSH2 0x115E JUMPI DUP2 PUSH1 0x16 ADD PUSH1 0x1 SWAP1 SLOAD SWAP1 PUSH2 0x100 EXP SWAP1 DIV PUSH20 0xFFFFFFFFFFFFFFFFFFFFFFFFFFFFFFFFFFFFFFFF AND PUSH20 0xFFFFFFFFFFFFFFFFFFFFFFFFFFFFFFFFFFFFFFFF AND PUSH4 0xA9059CBB DUP4 PUSH1 0x0 ADD PUSH1 0x0 SWAP1 SLOAD SWAP1 PUSH2 0x100 EXP SWAP1 DIV PUSH20 0xFFFFFFFFFFFFFFFFFFFFFFFFFFFFFFFFFFFFFFFF AND DUP4 PUSH1 0x40 MLOAD DUP4 PUSH4 0xFFFFFFFF AND PUSH1 0xE0 SHL DUP2 MSTORE PUSH1 0x4 ADD PUSH2 0xFB8 SWAP3 SWAP2 SWAP1 PUSH2 0x4B9D JUMP JUMPDEST PUSH1 0x20 PUSH1 0x40 MLOAD DUP1 DUP4 SUB DUP2 PUSH1 0x0 DUP8 GAS CALL ISZERO DUP1 ISZERO PUSH2 0xFD7 JUMPI RETURNDATASIZE PUSH1 0x0 DUP1 RETURNDATACOPY RETURNDATASIZE PUSH1 0x0 REVERT JUMPDEST POP POP POP POP PUSH1 0x40 MLOAD RETURNDATASIZE PUSH1 0x1F NOT PUSH1 0x1F DUP3 ADD AND DUP3 ADD DUP1 PUSH1 0x40 MSTORE POP DUP2 ADD SWAP1 PUSH2 0xFFB SWAP2 SWAP1 PUSH2 0x4CC1 JUMP JUMPDEST POP PUSH1 0x0 JUMPDEST PUSH1 0x3 DUP2 LT ISZERO PUSH2 0x10FC JUMPI DUP3 PUSH1 0x1 ADD DUP2 PUSH1 0x3 DUP2 LT PUSH2 0x101E JUMPI PUSH2 0x101D PUSH2 0x4CEE JUMP JUMPDEST JUMPDEST ADD PUSH1 0x0 SWAP1 SLOAD SWAP1 PUSH2 0x100 EXP SWAP1 DIV PUSH20 0xFFFFFFFFFFFFFFFFFFFFFFFFFFFFFFFFFFFFFFFF AND PUSH20 0xFFFFFFFFFFFFFFFFFFFFFFFFFFFFFFFFFFFFFFFF AND PUSH4 0x23B872DD ADDRESS DUP6 PUSH1 0x0 ADD PUSH1 0x0 SWAP1 SLOAD SWAP1 PUSH2 0x100 EXP SWAP1 DIV PUSH20 0xFFFFFFFFFFFFFFFFFFFFFFFFFFFFFFFFFFFFFFFF AND DUP7 PUSH1 0x4 ADD DUP6 PUSH1 0x3 DUP2 LT PUSH2 0x1097 JUMPI PUSH2 0x1096 PUSH2 0x4CEE JUMP JUMPDEST JUMPDEST ADD SLOAD PUSH1 0x40 MLOAD DUP5 PUSH4 0xFFFFFFFF AND PUSH1 0xE0 SHL DUP2 MSTORE PUSH1 0x4 ADD PUSH2 0x10B7 SWAP4 SWAP3 SWAP2 SWAP1 PUSH2 0x4D1D JUMP JUMPDEST PUSH1 0x0 PUSH1 0x40 MLOAD DUP1 DUP4 SUB DUP2 PUSH1 0x0 DUP8 DUP1 EXTCODESIZE ISZERO DUP1 ISZERO PUSH2 0x10D1 JUMPI PUSH1 0x0 DUP1 REVERT JUMPDEST POP GAS CALL ISZERO DUP1 ISZERO PUSH2 0x10E5 JUMPI RETURNDATASIZE PUSH1 0x0 DUP1 RETURNDATACOPY RETURNDATASIZE PUSH1 0x0 REVERT JUMPDEST POP POP POP POP DUP1 DUP1 PUSH2 0x10F4 SWAP1 PUSH2 0x4D54 JUMP JUMPDEST SWAP2 POP POP PUSH2 0xFFF JUMP JUMPDEST POP PUSH1 0x0 DUP3 PUSH1 0x1A ADD PUSH1 0x0 PUSH2 0x100 EXP DUP2 SLOAD DUP2 PUSH1 0xFF MUL NOT AND SWAP1 DUP4 ISZERO ISZERO MUL OR SWAP1 SSTORE POP PUSH32 0x70513431FE7F36611E21FF99AA229C501699D89165596D29C077697D177422D4 DUP4 PUSH1 0x0 PUSH1 0x1 PUSH1 0x40 MLOAD PUSH2 0x114F SWAP4 SWAP3 SWAP2 SWAP1 PUSH2 0x4D9C JUMP JUMPDEST PUSH1 0x40 MLOAD DUP1 SWAP2 SUB SWAP1 LOG1 POP POP PUSH2 0x1FD4 JUMP JUMPDEST PUSH1 0x0 DUP3 PUSH1 0x19 ADD SLOAD GT DUP1 ISZERO PUSH2 0x1184 JUMPI POP PUSH3 0x93A80 DUP3 PUSH1 0x19 ADD SLOAD PUSH2 0x1180 SWAP2 SWAP1 PUSH2 0x4C61 JUMP JUMPDEST TIMESTAMP LT ISZERO JUMPDEST ISZERO PUSH2 0x158D JUMPI DUP2 PUSH1 0xB ADD PUSH1 0x0 SWAP1 SLOAD SWAP1 PUSH2 0x100 EXP SWAP1 DIV PUSH1 0xFF AND ISZERO DUP1 PUSH2 0x11B6 JUMPI POP DUP2 PUSH1 0x16 ADD PUSH1 0x0 SWAP1 SLOAD SWAP1 PUSH2 0x100 EXP SWAP1 DIV PUSH1 0xFF AND ISZERO JUMPDEST ISZERO PUSH2 0x158C JUMPI DUP2 PUSH1 0x16 ADD PUSH1 0x1 SWAP1 SLOAD SWAP1 PUSH2 0x100 EXP SWAP1 DIV PUSH20 0xFFFFFFFFFFFFFFFFFFFFFFFFFFFFFFFFFFFFFFFF AND PUSH20 0xFFFFFFFFFFFFFFFFFFFFFFFFFFFFFFFFFFFFFFFF AND PUSH4 0xA9059CBB DUP4 PUSH1 0x0 ADD PUSH1 0x0 SWAP1 SLOAD SWAP1 PUSH2 0x100 EXP SWAP1 DIV PUSH20 0xFFFFFFFFFFFFFFFFFFFFFFFFFFFFFFFFFFFFFFFF AND DUP4 PUSH1 0x40 MLOAD DUP4 PUSH4 0xFFFFFFFF AND PUSH1 0xE0 SHL DUP2 MSTORE PUSH1 0x4 ADD PUSH2 0x123E SWAP3 SWAP2 SWAP1 PUSH2 0x4B9D JUMP JUMPDEST PUSH1 0x20 PUSH1 0x40 MLOAD DUP1 DUP4 SUB DUP2 PUSH1 0x0 DUP8 GAS CALL ISZERO DUP1 ISZERO PUSH2 0x125D JUMPI RETURNDATASIZE PUSH1 0x0 DUP1 RETURNDATACOPY RETURNDATASIZE PUSH1 0x0 REVERT JUMPDEST POP POP POP POP PUSH1 0x40 MLOAD RETURNDATASIZE PUSH1 0x1F NOT PUSH1 0x1F DUP3 ADD AND DUP3 ADD DUP1 PUSH1 0x40 MSTORE POP DUP2 ADD SWAP1 PUSH2 0x1281 SWAP2 SWAP1 PUSH2 0x4CC1 JUMP JUMPDEST POP DUP2 PUSH1 0x16 ADD PUSH1 0x1 SWAP1 SLOAD SWAP1 PUSH2 0x100 EXP SWAP1 DIV PUSH20 0xFFFFFFFFFFFFFFFFFFFFFFFFFFFFFFFFFFFFFFFF AND PUSH20 0xFFFFFFFFFFFFFFFFFFFFFFFFFFFFFFFFFFFFFFFF AND PUSH4 0xA9059CBB DUP4 PUSH1 0xB ADD PUSH1 0x1 SWAP1 SLOAD SWAP1 PUSH2 0x100 EXP SWAP1 DIV PUSH20 0xFFFFFFFFFFFFFFFFFFFFFFFFFFFFFFFFFFFFFFFF AND DUP4 PUSH1 0x40 MLOAD DUP4 PUSH4 0xFFFFFFFF AND PUSH1 0xE0 SHL DUP2 MSTORE PUSH1 0x4 ADD PUSH2 0x1305 SWAP3 SWAP2 SWAP1 PUSH2 0x4B9D JUMP JUMPDEST PUSH1 0x20 PUSH1 0x40 MLOAD DUP1 DUP4 SUB DUP2 PUSH1 0x0 DUP8 GAS CALL ISZERO DUP1 ISZERO PUSH2 0x1324 JUMPI RETURNDATASIZE PUSH1 0x0 DUP1 RETURNDATACOPY RETURNDATASIZE PUSH1 0x0 REVERT JUMPDEST POP POP POP POP PUSH1 0x40 MLOAD RETURNDATASIZE PUSH1 0x1F NOT PUSH1 0x1F DUP3 ADD AND DUP3 ADD DUP1 PUSH1 0x40 MSTORE POP DUP2 ADD SWAP1 PUSH2 0x1348 SWAP2 SWAP1 PUSH2 0x4CC1 JUMP JUMPDEST POP PUSH1 0x0 JUMPDEST PUSH1 0x3 DUP2 LT ISZERO PUSH2 0x152A JUMPI DUP3 PUSH1 0x1 ADD DUP2 PUSH1 0x3 DUP2 LT PUSH2 0x136B JUMPI PUSH2 0x136A PUSH2 0x4CEE JUMP JUMPDEST JUMPDEST ADD PUSH1 0x0 SWAP1 SLOAD SWAP1 PUSH2 0x100 EXP SWAP1 DIV PUSH20 0xFFFFFFFFFFFFFFFFFFFFFFFFFFFFFFFFFFFFFFFF AND PUSH20 0xFFFFFFFFFFFFFFFFFFFFFFFFFFFFFFFFFFFFFFFF AND PUSH4 0x23B872DD ADDRESS DUP6 PUSH1 0x0 ADD PUSH1 0x0 SWAP1 SLOAD SWAP1 PUSH2 0x100 EXP SWAP1 DIV PUSH20 0xFFFFFFFFFFFFFFFFFFFFFFFFFFFFFFFFFFFFFFFF AND DUP7 PUSH1 0x4 ADD DUP6 PUSH1 0x3 DUP2 LT PUSH2 0x13E4 JUMPI PUSH2 0x13E3 PUSH2 0x4CEE JUMP JUMPDEST JUMPDEST ADD SLOAD PUSH1 0x40 MLOAD DUP5 PUSH4 0xFFFFFFFF AND PUSH1 0xE0 SHL DUP2 MSTORE PUSH1 0x4 ADD PUSH2 0x1404 SWAP4 SWAP3 SWAP2 SWAP1 PUSH2 0x4D1D JUMP JUMPDEST PUSH1 0x0 PUSH1 0x40 MLOAD DUP1 DUP4 SUB DUP2 PUSH1 0x0 DUP8 DUP1 EXTCODESIZE ISZERO DUP1 ISZERO PUSH2 0x141E JUMPI PUSH1 0x0 DUP1 REVERT JUMPDEST POP GAS CALL ISZERO DUP1 ISZERO PUSH2 0x1432 JUMPI RETURNDATASIZE PUSH1 0x0 DUP1 RETURNDATACOPY RETURNDATASIZE PUSH1 0x0 REVERT JUMPDEST POP POP POP POP DUP3 PUSH1 0xC ADD DUP2 PUSH1 0x3 DUP2 LT PUSH2 0x144C JUMPI PUSH2 0x144B PUSH2 0x4CEE JUMP JUMPDEST JUMPDEST ADD PUSH1 0x0 SWAP1 SLOAD SWAP1 PUSH2 0x100 EXP SWAP1 DIV PUSH20 0xFFFFFFFFFFFFFFFFFFFFFFFFFFFFFFFFFFFFFFFF AND PUSH20 0xFFFFFFFFFFFFFFFFFFFFFFFFFFFFFFFFFFFFFFFF AND PUSH4 0x23B872DD ADDRESS DUP6 PUSH1 0xB ADD PUSH1 0x1 SWAP1 SLOAD SWAP1 PUSH2 0x100 EXP SWAP1 DIV PUSH20 0xFFFFFFFFFFFFFFFFFFFFFFFFFFFFFFFFFFFFFFFF AND DUP7 PUSH1 0xF ADD DUP6 PUSH1 0x3 DUP2 LT PUSH2 0x14C5 JUMPI PUSH2 0x14C4 PUSH2 0x4CEE JUMP JUMPDEST JUMPDEST ADD SLOAD PUSH1 0x40 MLOAD DUP5 PUSH4 0xFFFFFFFF AND PUSH1 0xE0 SHL DUP2 MSTORE PUSH1 0x4 ADD PUSH2 0x14E5 SWAP4 SWAP3 SWAP2 SWAP1 PUSH2 0x4D1D JUMP JUMPDEST PUSH1 0x0 PUSH1 0x40 MLOAD DUP1 DUP4 SUB DUP2 PUSH1 0x0 DUP8 DUP1 EXTCODESIZE ISZERO DUP1 ISZERO PUSH2 0x14FF JUMPI PUSH1 0x0 DUP1 REVERT JUMPDEST POP GAS CALL ISZERO DUP1 ISZERO PUSH2 0x1513 JUMPI RETURNDATASIZE PUSH1 0x0 DUP1 RETURNDATACOPY RETURNDATASIZE PUSH1 0x0 REVERT JUMPDEST POP POP POP POP DUP1 DUP1 PUSH2 0x1522 SWAP1 PUSH2 0x4D54 JUMP JUMPDEST SWAP2 POP POP PUSH2 0x134C JUMP JUMPDEST POP PUSH1 0x0 DUP3 PUSH1 0x1A ADD PUSH1 0x0 PUSH2 0x100 EXP DUP2 SLOAD DUP2 PUSH1 0xFF MUL NOT AND SWAP1 DUP4 ISZERO ISZERO MUL OR SWAP1 SSTORE POP PUSH32 0x70513431FE7F36611E21FF99AA229C501699D89165596D29C077697D177422D4 DUP4 PUSH1 0x0 PUSH1 0x1 PUSH1 0x40 MLOAD PUSH2 0x157D SWAP4 SWAP3 SWAP2 SWAP1 PUSH2 0x4D9C JUMP JUMPDEST PUSH1 0x40 MLOAD DUP1 SWAP2 SUB SWAP1 LOG1 POP POP PUSH2 0x1FD4 JUMP JUMPDEST JUMPDEST DUP2 PUSH1 0xB ADD PUSH1 0x0 SWAP1 SLOAD SWAP1 PUSH2 0x100 EXP SWAP1 DIV PUSH1 0xFF AND DUP1 ISZERO PUSH2 0x15B9 JUMPI POP DUP2 PUSH1 0x16 ADD PUSH1 0x0 SWAP1 SLOAD SWAP1 PUSH2 0x100 EXP SWAP1 DIV PUSH1 0xFF AND JUMPDEST PUSH2 0x15F8 JUMPI PUSH1 0x40 MLOAD PUSH32 0x8C379A000000000000000000000000000000000000000000000000000000000 DUP2 MSTORE PUSH1 0x4 ADD PUSH2 0x15EF SWAP1 PUSH2 0x4E8B JUMP JUMPDEST PUSH1 0x40 MLOAD DUP1 SWAP2 SUB SWAP1 REVERT JUMPDEST PUSH1 0x0 DUP1 PUSH1 0x0 DUP1 JUMPDEST PUSH1 0x3 DUP2 LT ISZERO PUSH2 0x177E JUMPI PUSH1 0x0 DUP7 PUSH1 0x8 ADD DUP3 PUSH1 0x3 DUP2 LT PUSH2 0x1620 JUMPI PUSH2 0x161F PUSH2 0x4CEE JUMP JUMPDEST JUMPDEST ADD SLOAD SWAP1 POP PUSH1 0x0 DUP8 PUSH1 0x1 ADD DUP3 PUSH1 0x3 DUP2 LT PUSH2 0x163C JUMPI PUSH2 0x163B PUSH2 0x4CEE JUMP JUMPDEST JUMPDEST ADD PUSH1 0x0 SWAP1 SLOAD SWAP1 PUSH2 0x100 EXP SWAP1 DIV PUSH20 0xFFFFFFFFFFFFFFFFFFFFFFFFFFFFFFFFFFFFFFFF AND SWAP1 POP PUSH1 0x0 DUP9 PUSH1 0x4 ADD DUP4 PUSH1 0x3 DUP2 LT PUSH2 0x1678 JUMPI PUSH2 0x1677 PUSH2 0x4CEE JUMP JUMPDEST JUMPDEST ADD SLOAD SWAP1 POP PUSH1 0x0 DUP10 PUSH1 0x13 ADD DUP6 PUSH1 0x3 DUP2 LT PUSH2 0x1694 JUMPI PUSH2 0x1693 PUSH2 0x4CEE JUMP JUMPDEST JUMPDEST ADD SLOAD SWAP1 POP PUSH1 0x0 DUP11 PUSH1 0xC ADD DUP3 PUSH1 0x3 DUP2 LT PUSH2 0x16B0 JUMPI PUSH2 0x16AF PUSH2 0x4CEE JUMP JUMPDEST JUMPDEST ADD PUSH1 0x0 SWAP1 SLOAD SWAP1 PUSH2 0x100 EXP SWAP1 DIV PUSH20 0xFFFFFFFFFFFFFFFFFFFFFFFFFFFFFFFFFFFFFFFF AND SWAP1 POP PUSH1 0x0 DUP12 PUSH1 0xF ADD DUP4 PUSH1 0x3 DUP2 LT PUSH2 0x16EC JUMPI PUSH2 0x16EB PUSH2 0x4CEE JUMP JUMPDEST JUMPDEST ADD SLOAD SWAP1 POP PUSH1 0x0 PUSH2 0x16FE DUP7 DUP7 DUP6 DUP6 PUSH2 0x38C5 JUMP JUMPDEST SWAP1 POP DUP1 PUSH1 0x20 ADD MLOAD PUSH1 0xFF AND DUP2 PUSH1 0x0 ADD MLOAD PUSH1 0xFF AND GT ISZERO PUSH2 0x1729 JUMPI DUP11 DUP1 PUSH2 0x1721 SWAP1 PUSH2 0x4D54 JUMP JUMPDEST SWAP12 POP POP PUSH2 0x174F JUMP JUMPDEST DUP1 PUSH1 0x0 ADD MLOAD PUSH1 0xFF AND DUP2 PUSH1 0x20 ADD MLOAD PUSH1 0xFF AND GT ISZERO PUSH2 0x174E JUMPI DUP10 DUP1 PUSH2 0x174A SWAP1 PUSH2 0x4D54 JUMP JUMPDEST SWAP11 POP POP JUMPDEST JUMPDEST DUP1 PUSH1 0x40 ADD MLOAD PUSH1 0x1 SIGNEXTEND DUP10 PUSH2 0x1762 SWAP2 SWAP1 PUSH2 0x4EB5 JUMP JUMPDEST SWAP9 POP POP POP POP POP POP POP POP DUP1 DUP1 PUSH2 0x1776 SWAP1 PUSH2 0x4D54 JUMP JUMPDEST SWAP2 POP POP PUSH2 0x15FF JUMP JUMPDEST POP PUSH1 0x0 PUSH1 0x2 DUP6 PUSH2 0x178E SWAP2 SWAP1 PUSH2 0x4EF9 JUMP JUMPDEST SWAP1 POP PUSH1 0x0 PUSH1 0x64 PUSH1 0x2 DUP4 PUSH2 0x17A1 SWAP2 SWAP1 PUSH2 0x4EF9 JUMP JUMPDEST PUSH2 0x17AB SWAP2 SWAP1 PUSH2 0x4F6A JUMP JUMPDEST SWAP1 POP PUSH1 0x0 DUP2 DUP4 PUSH2 0x17BB SWAP2 SWAP1 PUSH2 0x4F9B JUMP JUMPDEST SWAP1 POP DUP8 PUSH1 0x16 ADD PUSH1 0x1 SWAP1 SLOAD SWAP1 PUSH2 0x100 EXP SWAP1 DIV PUSH20 0xFFFFFFFFFFFFFFFFFFFFFFFFFFFFFFFFFFFFFFFF AND PUSH20 0xFFFFFFFFFFFFFFFFFFFFFFFFFFFFFFFFFFFFFFFF AND PUSH4 0xA9059CBB PUSH1 0x5 PUSH1 0x0 SWAP1 SLOAD SWAP1 PUSH2 0x100 EXP SWAP1 DIV PUSH20 0xFFFFFFFFFFFFFFFFFFFFFFFFFFFFFFFFFFFFFFFF AND DUP5 PUSH1 0x40 MLOAD DUP4 PUSH4 0xFFFFFFFF AND PUSH1 0xE0 SHL DUP2 MSTORE PUSH1 0x4 ADD PUSH2 0x183E SWAP3 SWAP2 SWAP1 PUSH2 0x4B9D JUMP JUMPDEST PUSH1 0x20 PUSH1 0x40 MLOAD DUP1 DUP4 SUB DUP2 PUSH1 0x0 DUP8 GAS CALL ISZERO DUP1 ISZERO PUSH2 0x185D JUMPI RETURNDATASIZE PUSH1 0x0 DUP1 RETURNDATACOPY RETURNDATASIZE PUSH1 0x0 REVERT JUMPDEST POP POP POP POP PUSH1 0x40 MLOAD RETURNDATASIZE PUSH1 0x1F NOT PUSH1 0x1F DUP3 ADD AND DUP3 ADD DUP1 PUSH1 0x40 MSTORE POP DUP2 ADD SWAP1 PUSH2 0x1881 SWAP2 SWAP1 PUSH2 0x4CC1 JUMP JUMPDEST POP PUSH1 0x0 DUP1 PUSH1 0x0 SWAP1 POP DUP7 DUP9 GT ISZERO PUSH2 0x1960 JUMPI DUP10 PUSH1 0x0 ADD PUSH1 0x0 SWAP1 SLOAD SWAP1 PUSH2 0x100 EXP SWAP1 DIV PUSH20 0xFFFFFFFFFFFFFFFFFFFFFFFFFFFFFFFFFFFFFFFF AND SWAP2 POP DUP10 PUSH1 0x16 ADD PUSH1 0x1 SWAP1 SLOAD SWAP1 PUSH2 0x100 EXP SWAP1 DIV PUSH20 0xFFFFFFFFFFFFFFFFFFFFFFFFFFFFFFFFFFFFFFFF AND PUSH20 0xFFFFFFFFFFFFFFFFFFFFFFFFFFFFFFFFFFFFFFFF AND PUSH4 0xA9059CBB DUP4 DUP6 PUSH1 0x40 MLOAD DUP4 PUSH4 0xFFFFFFFF AND PUSH1 0xE0 SHL DUP2 MSTORE PUSH1 0x4 ADD PUSH2 0x1917 SWAP3 SWAP2 SWAP1 PUSH2 0x4B9D JUMP JUMPDEST PUSH1 0x20 PUSH1 0x40 MLOAD DUP1 DUP4 SUB DUP2 PUSH1 0x0 DUP8 GAS CALL ISZERO DUP1 ISZERO PUSH2 0x1936 JUMPI RETURNDATASIZE PUSH1 0x0 DUP1 RETURNDATACOPY RETURNDATASIZE PUSH1 0x0 REVERT JUMPDEST POP POP POP POP PUSH1 0x40 MLOAD RETURNDATASIZE PUSH1 0x1F NOT PUSH1 0x1F DUP3 ADD AND DUP3 ADD DUP1 PUSH1 0x40 MSTORE POP DUP2 ADD SWAP1 PUSH2 0x195A SWAP2 SWAP1 PUSH2 0x4CC1 JUMP JUMPDEST POP PUSH2 0x1D8F JUMP JUMPDEST DUP8 DUP8 GT ISZERO PUSH2 0x1A37 JUMPI DUP10 PUSH1 0xB ADD PUSH1 0x1 SWAP1 SLOAD SWAP1 PUSH2 0x100 EXP SWAP1 DIV PUSH20 0xFFFFFFFFFFFFFFFFFFFFFFFFFFFFFFFFFFFFFFFF AND SWAP2 POP DUP10 PUSH1 0x16 ADD PUSH1 0x1 SWAP1 SLOAD SWAP1 PUSH2 0x100 EXP SWAP1 DIV PUSH20 0xFFFFFFFFFFFFFFFFFFFFFFFFFFFFFFFFFFFFFFFF AND PUSH20 0xFFFFFFFFFFFFFFFFFFFFFFFFFFFFFFFFFFFFFFFF AND PUSH4 0xA9059CBB DUP4 DUP6 PUSH1 0x40 MLOAD DUP4 PUSH4 0xFFFFFFFF AND PUSH1 0xE0 SHL DUP2 MSTORE PUSH1 0x4 ADD PUSH2 0x19EE SWAP3 SWAP2 SWAP1 PUSH2 0x4B9D JUMP JUMPDEST PUSH1 0x20 PUSH1 0x40 MLOAD DUP1 DUP4 SUB DUP2 PUSH1 0x0 DUP8 GAS CALL ISZERO DUP1 ISZERO PUSH2 0x1A0D JUMPI RETURNDATASIZE PUSH1 0x0 DUP1 RETURNDATACOPY RETURNDATASIZE PUSH1 0x0 REVERT JUMPDEST POP POP POP POP PUSH1 0x40 MLOAD RETURNDATASIZE PUSH1 0x1F NOT PUSH1 0x1F DUP3 ADD AND DUP3 ADD DUP1 PUSH1 0x40 MSTORE POP DUP2 ADD SWAP1 PUSH2 0x1A31 SWAP2 SWAP1 PUSH2 0x4CC1 JUMP JUMPDEST POP PUSH2 0x1D8E JUMP JUMPDEST PUSH1 0x0 DUP7 SGT ISZERO PUSH2 0x1B0F JUMPI DUP10 PUSH1 0x0 ADD PUSH1 0x0 SWAP1 SLOAD SWAP1 PUSH2 0x100 EXP SWAP1 DIV PUSH20 0xFFFFFFFFFFFFFFFFFFFFFFFFFFFFFFFFFFFFFFFF AND SWAP2 POP DUP10 PUSH1 0x16 ADD PUSH1 0x1 SWAP1 SLOAD SWAP1 PUSH2 0x100 EXP SWAP1 DIV PUSH20 0xFFFFFFFFFFFFFFFFFFFFFFFFFFFFFFFFFFFFFFFF AND PUSH20 0xFFFFFFFFFFFFFFFFFFFFFFFFFFFFFFFFFFFFFFFF AND PUSH4 0xA9059CBB DUP4 DUP6 PUSH1 0x40 MLOAD DUP4 PUSH4 0xFFFFFFFF AND PUSH1 0xE0 SHL DUP2 MSTORE PUSH1 0x4 ADD PUSH2 0x1AC6 SWAP3 SWAP2 SWAP1 PUSH2 0x4B9D JUMP JUMPDEST PUSH1 0x20 PUSH1 0x40 MLOAD DUP1 DUP4 SUB DUP2 PUSH1 0x0 DUP8 GAS CALL ISZERO DUP1 ISZERO PUSH2 0x1AE5 JUMPI RETURNDATASIZE PUSH1 0x0 DUP1 RETURNDATACOPY RETURNDATASIZE PUSH1 0x0 REVERT JUMPDEST POP POP POP POP PUSH1 0x40 MLOAD RETURNDATASIZE PUSH1 0x1F NOT PUSH1 0x1F DUP3 ADD AND DUP3 ADD DUP1 PUSH1 0x40 MSTORE POP DUP2 ADD SWAP1 PUSH2 0x1B09 SWAP2 SWAP1 PUSH2 0x4CC1 JUMP JUMPDEST POP PUSH2 0x1D8D JUMP JUMPDEST PUSH1 0x0 DUP7 SLT ISZERO PUSH2 0x1BE7 JUMPI DUP10 PUSH1 0xB ADD PUSH1 0x1 SWAP1 SLOAD SWAP1 PUSH2 0x100 EXP SWAP1 DIV PUSH20 0xFFFFFFFFFFFFFFFFFFFFFFFFFFFFFFFFFFFFFFFF AND SWAP2 POP DUP10 PUSH1 0x16 ADD PUSH1 0x1 SWAP1 SLOAD SWAP1 PUSH2 0x100 EXP SWAP1 DIV PUSH20 0xFFFFFFFFFFFFFFFFFFFFFFFFFFFFFFFFFFFFFFFF AND PUSH20 0xFFFFFFFFFFFFFFFFFFFFFFFFFFFFFFFFFFFFFFFF AND PUSH4 0xA9059CBB DUP4 DUP6 PUSH1 0x40 MLOAD DUP4 PUSH4 0xFFFFFFFF AND PUSH1 0xE0 SHL DUP2 MSTORE PUSH1 0x4 ADD PUSH2 0x1B9E SWAP3 SWAP2 SWAP1 PUSH2 0x4B9D JUMP JUMPDEST PUSH1 0x20 PUSH1 0x40 MLOAD DUP1 DUP4 SUB DUP2 PUSH1 0x0 DUP8 GAS CALL ISZERO DUP1 ISZERO PUSH2 0x1BBD JUMPI RETURNDATASIZE PUSH1 0x0 DUP1 RETURNDATACOPY RETURNDATASIZE PUSH1 0x0 REVERT JUMPDEST POP POP POP POP PUSH1 0x40 MLOAD RETURNDATASIZE PUSH1 0x1F NOT PUSH1 0x1F DUP3 ADD AND DUP3 ADD DUP1 PUSH1 0x40 MSTORE POP DUP2 ADD SWAP1 PUSH2 0x1BE1 SWAP2 SWAP1 PUSH2 0x4CC1 JUMP JUMPDEST POP PUSH2 0x1D8C JUMP JUMPDEST PUSH1 0x1 SWAP1 POP PUSH1 0x0 PUSH1 0x2 DUP5 PUSH2 0x1BFA SWAP2 SWAP1 PUSH2 0x4F6A JUMP JUMPDEST SWAP1 POP DUP11 PUSH1 0x16 ADD PUSH1 0x1 SWAP1 SLOAD SWAP1 PUSH2 0x100 EXP SWAP1 DIV PUSH20 0xFFFFFFFFFFFFFFFFFFFFFFFFFFFFFFFFFFFFFFFF AND PUSH20 0xFFFFFFFFFFFFFFFFFFFFFFFFFFFFFFFFFFFFFFFF AND PUSH4 0xA9059CBB DUP13 PUSH1 0x0 ADD PUSH1 0x0 SWAP1 SLOAD SWAP1 PUSH2 0x100 EXP SWAP1 DIV PUSH20 0xFFFFFFFFFFFFFFFFFFFFFFFFFFFFFFFFFFFFFFFF AND DUP4 PUSH1 0x40 MLOAD DUP4 PUSH4 0xFFFFFFFF AND PUSH1 0xE0 SHL DUP2 MSTORE PUSH1 0x4 ADD PUSH2 0x1C7F SWAP3 SWAP2 SWAP1 PUSH2 0x4B9D JUMP JUMPDEST PUSH1 0x20 PUSH1 0x40 MLOAD DUP1 DUP4 SUB DUP2 PUSH1 0x0 DUP8 GAS CALL ISZERO DUP1 ISZERO PUSH2 0x1C9E JUMPI RETURNDATASIZE PUSH1 0x0 DUP1 RETURNDATACOPY RETURNDATASIZE PUSH1 0x0 REVERT JUMPDEST POP POP POP POP PUSH1 0x40 MLOAD RETURNDATASIZE PUSH1 0x1F NOT PUSH1 0x1F DUP3 ADD AND DUP3 ADD DUP1 PUSH1 0x40 MSTORE POP DUP2 ADD SWAP1 PUSH2 0x1CC2 SWAP2 SWAP1 PUSH2 0x4CC1 JUMP JUMPDEST POP DUP11 PUSH1 0x16 ADD PUSH1 0x1 SWAP1 SLOAD SWAP1 PUSH2 0x100 EXP SWAP1 DIV PUSH20 0xFFFFFFFFFFFFFFFFFFFFFFFFFFFFFFFFFFFFFFFF AND PUSH20 0xFFFFFFFFFFFFFFFFFFFFFFFFFFFFFFFFFFFFFFFF AND PUSH4 0xA9059CBB DUP13 PUSH1 0xB ADD PUSH1 0x1 SWAP1 SLOAD SWAP1 PUSH2 0x100 EXP SWAP1 DIV PUSH20 0xFFFFFFFFFFFFFFFFFFFFFFFFFFFFFFFFFFFFFFFF AND DUP4 PUSH1 0x40 MLOAD DUP4 PUSH4 0xFFFFFFFF AND PUSH1 0xE0 SHL DUP2 MSTORE PUSH1 0x4 ADD PUSH2 0x1D46 SWAP3 SWAP2 SWAP1 PUSH2 0x4B9D JUMP JUMPDEST PUSH1 0x20 PUSH1 0x40 MLOAD DUP1 DUP4 SUB DUP2 PUSH1 0x0 DUP8 GAS CALL ISZERO DUP1 ISZERO PUSH2 0x1D65 JUMPI RETURNDATASIZE PUSH1 0x0 DUP1 RETURNDATACOPY RETURNDATASIZE PUSH1 0x0 REVERT JUMPDEST POP POP POP POP PUSH1 0x40 MLOAD RETURNDATASIZE PUSH1 0x1F NOT PUSH1 0x1F DUP3 ADD AND DUP3 ADD DUP1 PUSH1 0x40 MSTORE POP DUP2 ADD SWAP1 PUSH2 0x1D89 SWAP2 SWAP1 PUSH2 0x4CC1 JUMP JUMPDEST POP POP JUMPDEST JUMPDEST JUMPDEST JUMPDEST PUSH1 0x0 JUMPDEST PUSH1 0x3 DUP2 LT ISZERO PUSH2 0x1F70 JUMPI DUP11 PUSH1 0x1 ADD DUP2 PUSH1 0x3 DUP2 LT PUSH2 0x1DB1 JUMPI PUSH2 0x1DB0 PUSH2 0x4CEE JUMP JUMPDEST JUMPDEST ADD PUSH1 0x0 SWAP1 SLOAD SWAP1 PUSH2 0x100 EXP SWAP1 DIV PUSH20 0xFFFFFFFFFFFFFFFFFFFFFFFFFFFFFFFFFFFFFFFF AND PUSH20 0xFFFFFFFFFFFFFFFFFFFFFFFFFFFFFFFFFFFFFFFF AND PUSH4 0x23B872DD ADDRESS DUP14 PUSH1 0x0 ADD PUSH1 0x0 SWAP1 SLOAD SWAP1 PUSH2 0x100 EXP SWAP1 DIV PUSH20 0xFFFFFFFFFFFFFFFFFFFFFFFFFFFFFFFFFFFFFFFF AND DUP15 PUSH1 0x4 ADD DUP6 PUSH1 0x3 DUP2 LT PUSH2 0x1E2A JUMPI PUSH2 0x1E29 PUSH2 0x4CEE JUMP JUMPDEST JUMPDEST ADD SLOAD PUSH1 0x40 MLOAD DUP5 PUSH4 0xFFFFFFFF AND PUSH1 0xE0 SHL DUP2 MSTORE PUSH1 0x4 ADD PUSH2 0x1E4A SWAP4 SWAP3 SWAP2 SWAP1 PUSH2 0x4D1D JUMP JUMPDEST PUSH1 0x0 PUSH1 0x40 MLOAD DUP1 DUP4 SUB DUP2 PUSH1 0x0 DUP8 DUP1 EXTCODESIZE ISZERO DUP1 ISZERO PUSH2 0x1E64 JUMPI PUSH1 0x0 DUP1 REVERT JUMPDEST POP GAS CALL ISZERO DUP1 ISZERO PUSH2 0x1E78 JUMPI RETURNDATASIZE PUSH1 0x0 DUP1 RETURNDATACOPY RETURNDATASIZE PUSH1 0x0 REVERT JUMPDEST POP POP POP POP DUP11 PUSH1 0xC ADD DUP2 PUSH1 0x3 DUP2 LT PUSH2 0x1E92 JUMPI PUSH2 0x1E91 PUSH2 0x4CEE JUMP JUMPDEST JUMPDEST ADD PUSH1 0x0 SWAP1 SLOAD SWAP1 PUSH2 0x100 EXP SWAP1 DIV PUSH20 0xFFFFFFFFFFFFFFFFFFFFFFFFFFFFFFFFFFFFFFFF AND PUSH20 0xFFFFFFFFFFFFFFFFFFFFFFFFFFFFFFFFFFFFFFFF AND PUSH4 0x23B872DD ADDRESS DUP14 PUSH1 0xB ADD PUSH1 0x1 SWAP1 SLOAD SWAP1 PUSH2 0x100 EXP SWAP1 DIV PUSH20 0xFFFFFFFFFFFFFFFFFFFFFFFFFFFFFFFFFFFFFFFF AND DUP15 PUSH1 0xF ADD DUP6 PUSH1 0x3 DUP2 LT PUSH2 0x1F0B JUMPI PUSH2 0x1F0A PUSH2 0x4CEE JUMP JUMPDEST JUMPDEST ADD SLOAD PUSH1 0x40 MLOAD DUP5 PUSH4 0xFFFFFFFF AND PUSH1 0xE0 SHL DUP2 MSTORE PUSH1 0x4 ADD PUSH2 0x1F2B SWAP4 SWAP3 SWAP2 SWAP1 PUSH2 0x4D1D JUMP JUMPDEST PUSH1 0x0 PUSH1 0x40 MLOAD DUP1 DUP4 SUB DUP2 PUSH1 0x0 DUP8 DUP1 EXTCODESIZE ISZERO DUP1 ISZERO PUSH2 0x1F45 JUMPI PUSH1 0x0 DUP1 REVERT JUMPDEST POP GAS CALL ISZERO DUP1 ISZERO PUSH2 0x1F59 JUMPI RETURNDATASIZE PUSH1 0x0 DUP1 RETURNDATACOPY RETURNDATASIZE PUSH1 0x0 REVERT JUMPDEST POP POP POP POP DUP1 DUP1 PUSH2 0x1F68 SWAP1 PUSH2 0x4D54 JUMP JUMPDEST SWAP2 POP POP PUSH2 0x1D92 JUMP JUMPDEST POP PUSH1 0x0 DUP11 PUSH1 0x1A ADD PUSH1 0x0 PUSH2 0x100 EXP DUP2 SLOAD DUP2 PUSH1 0xFF MUL NOT AND SWAP1 DUP4 ISZERO ISZERO MUL OR SWAP1 SSTORE POP PUSH32 0x70513431FE7F36611E21FF99AA229C501699D89165596D29C077697D177422D4 DUP12 DUP4 DUP4 PUSH1 0x40 MLOAD PUSH2 0x1FC1 SWAP4 SWAP3 SWAP2 SWAP1 PUSH2 0x4D9C JUMP JUMPDEST PUSH1 0x40 MLOAD DUP1 SWAP2 SUB SWAP1 LOG1 POP POP POP POP POP POP POP POP POP POP JUMPDEST POP JUMP JUMPDEST PUSH1 0x2 PUSH1 0x20 MSTORE DUP1 PUSH1 0x0 MSTORE PUSH1 0x40 PUSH1 0x0 KECCAK256 PUSH1 0x0 SWAP2 POP SLOAD SWAP1 PUSH2 0x100 EXP SWAP1 DIV PUSH1 0xFF AND DUP2 JUMP JUMPDEST PUSH1 0x3 DUP2 DUP1 MLOAD PUSH1 0x20 DUP2 ADD DUP3 ADD DUP1 MLOAD DUP5 DUP3 MSTORE PUSH1 0x20 DUP4 ADD PUSH1 0x20 DUP6 ADD KECCAK256 DUP2 DUP4 MSTORE DUP1 SWAP6 POP POP POP POP POP POP PUSH1 0x0 SWAP2 POP SLOAD SWAP1 PUSH2 0x100 EXP SWAP1 DIV PUSH1 0xFF AND DUP2 JUMP JUMPDEST PUSH1 0x5 PUSH1 0x0 SWAP1 SLOAD SWAP1 PUSH2 0x100 EXP SWAP1 DIV PUSH20 0xFFFFFFFFFFFFFFFFFFFFFFFFFFFFFFFFFFFFFFFF AND DUP2 JUMP JUMPDEST PUSH1 0x0 PUSH1 0x6 PUSH1 0x0 DUP6 DUP2 MSTORE PUSH1 0x20 ADD SWAP1 DUP2 MSTORE PUSH1 0x20 ADD PUSH1 0x0 KECCAK256 SWAP1 POP DUP1 PUSH1 0x1A ADD PUSH1 0x0 SWAP1 SLOAD SWAP1 PUSH2 0x100 EXP SWAP1 DIV PUSH1 0xFF AND PUSH2 0x20BB JUMPI PUSH1 0x40 MLOAD PUSH32 0x8C379A000000000000000000000000000000000000000000000000000000000 DUP2 MSTORE PUSH1 0x4 ADD PUSH2 0x20B2 SWAP1 PUSH2 0x4E1F JUMP JUMPDEST PUSH1 0x40 MLOAD DUP1 SWAP2 SUB SWAP1 REVERT JUMPDEST PUSH1 0x0 DUP2 PUSH1 0x0 ADD PUSH1 0x0 SWAP1 SLOAD SWAP1 PUSH2 0x100 EXP SWAP1 DIV PUSH20 0xFFFFFFFFFFFFFFFFFFFFFFFFFFFFFFFFFFFFFFFF AND PUSH20 0xFFFFFFFFFFFFFFFFFFFFFFFFFFFFFFFFFFFFFFFF AND CALLER PUSH20 0xFFFFFFFFFFFFFFFFFFFFFFFFFFFFFFFFFFFFFFFF AND EQ SWAP1 POP PUSH1 0x0 DUP3 PUSH1 0xB ADD PUSH1 0x1 SWAP1 SLOAD SWAP1 PUSH2 0x100 EXP SWAP1 DIV PUSH20 0xFFFFFFFFFFFFFFFFFFFFFFFFFFFFFFFFFFFFFFFF AND PUSH20 0xFFFFFFFFFFFFFFFFFFFFFFFFFFFFFFFFFFFFFFFF AND CALLER PUSH20 0xFFFFFFFFFFFFFFFFFFFFFFFFFFFFFFFFFFFFFFFF AND EQ SWAP1 POP DUP2 DUP1 PUSH2 0x2172 JUMPI POP DUP1 JUMPDEST PUSH2 0x21B1 JUMPI PUSH1 0x40 MLOAD PUSH32 0x8C379A000000000000000000000000000000000000000000000000000000000 DUP2 MSTORE PUSH1 0x4 ADD PUSH2 0x21A8 SWAP1 PUSH2 0x501B JUMP JUMPDEST PUSH1 0x40 MLOAD DUP1 SWAP2 SUB SWAP1 REVERT JUMPDEST PUSH1 0x0 DUP3 PUSH2 0x21C2 JUMPI DUP4 PUSH1 0x12 ADD SLOAD PUSH2 0x21C8 JUMP JUMPDEST DUP4 PUSH1 0x7 ADD SLOAD JUMPDEST SWAP1 POP PUSH1 0x0 DUP4 PUSH2 0x21E8 JUMPI DUP5 PUSH1 0x16 ADD PUSH1 0x0 SWAP1 SLOAD SWAP1 PUSH2 0x100 EXP SWAP1 DIV PUSH1 0xFF AND PUSH2 0x21FB JUMP JUMPDEST DUP5 PUSH1 0xB ADD PUSH1 0x0 SWAP1 SLOAD SWAP1 PUSH2 0x100 EXP SWAP1 DIV PUSH1 0xFF AND JUMPDEST SWAP1 POP DUP1 ISZERO PUSH2 0x223E JUMPI PUSH1 0x40 MLOAD PUSH32 0x8C379A000000000000000000000000000000000000000000000000000000000 DUP2 MSTORE PUSH1 0x4 ADD PUSH2 0x2235 SWAP1 PUSH2 0x5087 JUMP JUMPDEST PUSH1 0x40 MLOAD DUP1 SWAP2 SUB SWAP1 REVERT JUMPDEST PUSH1 0x0 DUP8 DUP8 PUSH1 0x0 PUSH1 0x3 DUP2 LT PUSH2 0x2255 JUMPI PUSH2 0x2254 PUSH2 0x4CEE JUMP JUMPDEST JUMPDEST PUSH1 0x20 MUL ADD MLOAD DUP9 PUSH1 0x1 PUSH1 0x3 DUP2 LT PUSH2 0x226E JUMPI PUSH2 0x226D PUSH2 0x4CEE JUMP JUMPDEST JUMPDEST PUSH1 0x20 MUL ADD MLOAD DUP10 PUSH1 0x2 PUSH1 0x3 DUP2 LT PUSH2 0x2287 JUMPI PUSH2 0x2286 PUSH2 0x4CEE JUMP JUMPDEST JUMPDEST PUSH1 0x20 MUL ADD MLOAD PUSH1 0x40 MLOAD PUSH1 0x20 ADD PUSH2 0x229F SWAP5 SWAP4 SWAP3 SWAP2 SWAP1 PUSH2 0x50C8 JUMP JUMPDEST PUSH1 0x40 MLOAD PUSH1 0x20 DUP2 DUP4 SUB SUB DUP2 MSTORE SWAP1 PUSH1 0x40 MSTORE DUP1 MLOAD SWAP1 PUSH1 0x20 ADD KECCAK256 SWAP1 POP DUP3 DUP2 EQ PUSH2 0x22F9 JUMPI PUSH1 0x40 MLOAD PUSH32 0x8C379A000000000000000000000000000000000000000000000000000000000 DUP2 MSTORE PUSH1 0x4 ADD PUSH2 0x22F0 SWAP1 PUSH2 0x5162 JUMP JUMPDEST PUSH1 0x40 MLOAD DUP1 SWAP2 SUB SWAP1 REVERT JUMPDEST PUSH2 0x2301 PUSH2 0x424A JUMP JUMPDEST PUSH1 0x0 JUMPDEST PUSH1 0x3 DUP2 LT ISZERO PUSH2 0x23FC JUMPI PUSH1 0x0 DUP10 DUP3 PUSH1 0x3 DUP2 LT PUSH2 0x2322 JUMPI PUSH2 0x2321 PUSH2 0x4CEE JUMP JUMPDEST JUMPDEST PUSH1 0x20 MUL ADD MLOAD SWAP1 POP PUSH1 0x3 DUP2 LT PUSH2 0x236C JUMPI PUSH1 0x40 MLOAD PUSH32 0x8C379A000000000000000000000000000000000000000000000000000000000 DUP2 MSTORE PUSH1 0x4 ADD PUSH2 0x2363 SWAP1 PUSH2 0x51CE JUMP JUMPDEST PUSH1 0x40 MLOAD DUP1 SWAP2 SUB SWAP1 REVERT JUMPDEST DUP3 DUP2 PUSH1 0x3 DUP2 LT PUSH2 0x237F JUMPI PUSH2 0x237E PUSH2 0x4CEE JUMP JUMPDEST JUMPDEST PUSH1 0x20 MUL ADD MLOAD ISZERO PUSH2 0x23C4 JUMPI PUSH1 0x40 MLOAD PUSH32 0x8C379A000000000000000000000000000000000000000000000000000000000 DUP2 MSTORE PUSH1 0x4 ADD PUSH2 0x23BB SWAP1 PUSH2 0x523A JUMP JUMPDEST PUSH1 0x40 MLOAD DUP1 SWAP2 SUB SWAP1 REVERT JUMPDEST PUSH1 0x1 DUP4 DUP3 PUSH1 0x3 DUP2 LT PUSH2 0x23D9 JUMPI PUSH2 0x23D8 PUSH2 0x4CEE JUMP JUMPDEST JUMPDEST PUSH1 0x20 MUL ADD SWAP1 ISZERO ISZERO SWAP1 DUP2 ISZERO ISZERO DUP2 MSTORE POP POP POP DUP1 DUP1 PUSH2 0x23F4 SWAP1 PUSH2 0x4D54 JUMP JUMPDEST SWAP2 POP POP PUSH2 0x2304 JUMP JUMPDEST POP DUP6 ISZERO PUSH2 0x2439 JUMPI DUP8 DUP8 PUSH1 0x8 ADD SWAP1 PUSH1 0x3 PUSH2 0x2416 SWAP3 SWAP2 SWAP1 PUSH2 0x426C JUMP JUMPDEST POP PUSH1 0x1 DUP8 PUSH1 0xB ADD PUSH1 0x0 PUSH2 0x100 EXP DUP2 SLOAD DUP2 PUSH1 0xFF MUL NOT AND SWAP1 DUP4 ISZERO ISZERO MUL OR SWAP1 SSTORE POP PUSH2 0x246B JUMP JUMPDEST DUP8 DUP8 PUSH1 0x13 ADD SWAP1 PUSH1 0x3 PUSH2 0x244C SWAP3 SWAP2 SWAP1 PUSH2 0x426C JUMP JUMPDEST POP PUSH1 0x1 DUP8 PUSH1 0x16 ADD PUSH1 0x0 PUSH2 0x100 EXP DUP2 SLOAD DUP2 PUSH1 0xFF MUL NOT AND SWAP1 DUP4 ISZERO ISZERO MUL OR SWAP1 SSTORE POP JUMPDEST PUSH32 0xCA89DC79CA69FFB087E833CE20114EE29DC90B746538266055B11D9B008EFE18 DUP11 CALLER PUSH1 0x40 MLOAD PUSH2 0x249C SWAP3 SWAP2 SWAP1 PUSH2 0x525A JUMP JUMPDEST PUSH1 0x40 MLOAD DUP1 SWAP2 SUB SWAP1 LOG1 POP POP POP POP POP POP POP POP POP POP JUMP JUMPDEST PUSH2 0x24B8 PUSH2 0x383E JUMP JUMPDEST PUSH2 0x24C2 PUSH1 0x0 PUSH2 0x3F68 JUMP JUMPDEST JUMP JUMPDEST PUSH1 0x0 PUSH1 0x6 PUSH1 0x0 DUP7 DUP2 MSTORE PUSH1 0x20 ADD SWAP1 DUP2 MSTORE PUSH1 0x20 ADD PUSH1 0x0 KECCAK256 SWAP1 POP DUP1 PUSH1 0x1A ADD PUSH1 0x0 SWAP1 SLOAD SWAP1 PUSH2 0x100 EXP SWAP1 DIV PUSH1 0xFF AND PUSH2 0x252C JUMPI PUSH1 0x40 MLOAD PUSH32 0x8C379A000000000000000000000000000000000000000000000000000000000 DUP2 MSTORE PUSH1 0x4 ADD PUSH2 0x2523 SWAP1 PUSH2 0x4E1F JUMP JUMPDEST PUSH1 0x40 MLOAD DUP1 SWAP2 SUB SWAP1 REVERT JUMPDEST PUSH1 0x0 PUSH20 0xFFFFFFFFFFFFFFFFFFFFFFFFFFFFFFFFFFFFFFFF AND DUP2 PUSH1 0xB ADD PUSH1 0x1 SWAP1 SLOAD SWAP1 PUSH2 0x100 EXP SWAP1 DIV PUSH20 0xFFFFFFFFFFFFFFFFFFFFFFFFFFFFFFFFFFFFFFFF AND PUSH20 0xFFFFFFFFFFFFFFFFFFFFFFFFFFFFFFFFFFFFFFFF AND EQ PUSH2 0x25BF JUMPI PUSH1 0x40 MLOAD PUSH32 0x8C379A000000000000000000000000000000000000000000000000000000000 DUP2 MSTORE PUSH1 0x4 ADD PUSH2 0x25B6 SWAP1 PUSH2 0x52CF JUMP JUMPDEST PUSH1 0x40 MLOAD DUP1 SWAP2 SUB SWAP1 REVERT JUMPDEST PUSH1 0x0 DUP1 SHL DUP3 SUB PUSH2 0x2604 JUMPI PUSH1 0x40 MLOAD PUSH32 0x8C379A000000000000000000000000000000000000000000000000000000000 DUP2 MSTORE PUSH1 0x4 ADD PUSH2 0x25FB SWAP1 PUSH2 0x533B JUMP JUMPDEST PUSH1 0x40 MLOAD DUP1 SWAP2 SUB SWAP1 REVERT JUMPDEST PUSH1 0x0 JUMPDEST PUSH1 0x3 DUP2 LT ISZERO PUSH2 0x28DF JUMPI PUSH1 0x1 PUSH1 0x0 DUP7 DUP4 PUSH1 0x3 DUP2 LT PUSH2 0x2627 JUMPI PUSH2 0x2626 PUSH2 0x4CEE JUMP JUMPDEST JUMPDEST PUSH1 0x20 MUL ADD MLOAD PUSH20 0xFFFFFFFFFFFFFFFFFFFFFFFFFFFFFFFFFFFFFFFF AND PUSH20 0xFFFFFFFFFFFFFFFFFFFFFFFFFFFFFFFFFFFFFFFF AND DUP2 MSTORE PUSH1 0x20 ADD SWAP1 DUP2 MSTORE PUSH1 0x20 ADD PUSH1 0x0 KECCAK256 PUSH1 0x0 SWAP1 SLOAD SWAP1 PUSH2 0x100 EXP SWAP1 DIV PUSH1 0xFF AND PUSH2 0x26B3 JUMPI PUSH1 0x40 MLOAD PUSH32 0x8C379A000000000000000000000000000000000000000000000000000000000 DUP2 MSTORE PUSH1 0x4 ADD PUSH2 0x26AA SWAP1 PUSH2 0x53A7 JUMP JUMPDEST PUSH1 0x40 MLOAD DUP1 SWAP2 SUB SWAP1 REVERT JUMPDEST PUSH1 0x0 DUP6 DUP3 PUSH1 0x3 DUP2 LT PUSH2 0x26C8 JUMPI PUSH2 0x26C7 PUSH2 0x4CEE JUMP JUMPDEST JUMPDEST PUSH1 0x20 MUL ADD MLOAD SWAP1 POP CALLER PUSH20 0xFFFFFFFFFFFFFFFFFFFFFFFFFFFFFFFFFFFFFFFF AND DUP2 PUSH20 0xFFFFFFFFFFFFFFFFFFFFFFFFFFFFFFFFFFFFFFFF AND PUSH4 0x6352211E DUP8 DUP6 PUSH1 0x3 DUP2 LT PUSH2 0x2715 JUMPI PUSH2 0x2714 PUSH2 0x4CEE JUMP JUMPDEST JUMPDEST PUSH1 0x20 MUL ADD MLOAD PUSH1 0x40 MLOAD DUP3 PUSH4 0xFFFFFFFF AND PUSH1 0xE0 SHL DUP2 MSTORE PUSH1 0x4 ADD PUSH2 0x2736 SWAP2 SWAP1 PUSH2 0x44BB JUMP JUMPDEST PUSH1 0x20 PUSH1 0x40 MLOAD DUP1 DUP4 SUB DUP2 DUP7 GAS STATICCALL ISZERO DUP1 ISZERO PUSH2 0x2753 JUMPI RETURNDATASIZE PUSH1 0x0 DUP1 RETURNDATACOPY RETURNDATASIZE PUSH1 0x0 REVERT JUMPDEST POP POP POP POP PUSH1 0x40 MLOAD RETURNDATASIZE PUSH1 0x1F NOT PUSH1 0x1F DUP3 ADD AND DUP3 ADD DUP1 PUSH1 0x40 MSTORE POP DUP2 ADD SWAP1 PUSH2 0x2777 SWAP2 SWAP1 PUSH2 0x53DC JUMP JUMPDEST PUSH20 0xFFFFFFFFFFFFFFFFFFFFFFFFFFFFFFFFFFFFFFFF AND EQ PUSH2 0x27CD JUMPI PUSH1 0x40 MLOAD PUSH32 0x8C379A000000000000000000000000000000000000000000000000000000000 DUP2 MSTORE PUSH1 0x4 ADD PUSH2 0x27C4 SWAP1 PUSH2 0x5455 JUMP JUMPDEST PUSH1 0x40 MLOAD DUP1 SWAP2 SUB SWAP1 REVERT JUMPDEST ADDRESS PUSH20 0xFFFFFFFFFFFFFFFFFFFFFFFFFFFFFFFFFFFFFFFF AND DUP2 PUSH20 0xFFFFFFFFFFFFFFFFFFFFFFFFFFFFFFFFFFFFFFFF AND PUSH4 0x81812FC DUP8 DUP6 PUSH1 0x3 DUP2 LT PUSH2 0x2813 JUMPI PUSH2 0x2812 PUSH2 0x4CEE JUMP JUMPDEST JUMPDEST PUSH1 0x20 MUL ADD MLOAD PUSH1 0x40 MLOAD DUP3 PUSH4 0xFFFFFFFF AND PUSH1 0xE0 SHL DUP2 MSTORE PUSH1 0x4 ADD PUSH2 0x2834 SWAP2 SWAP1 PUSH2 0x44BB JUMP JUMPDEST PUSH1 0x20 PUSH1 0x40 MLOAD DUP1 DUP4 SUB DUP2 DUP7 GAS STATICCALL ISZERO DUP1 ISZERO PUSH2 0x2851 JUMPI RETURNDATASIZE PUSH1 0x0 DUP1 RETURNDATACOPY RETURNDATASIZE PUSH1 0x0 REVERT JUMPDEST POP POP POP POP PUSH1 0x40 MLOAD RETURNDATASIZE PUSH1 0x1F NOT PUSH1 0x1F DUP3 ADD AND DUP3 ADD DUP1 PUSH1 0x40 MSTORE POP DUP2 ADD SWAP1 PUSH2 0x2875 SWAP2 SWAP1 PUSH2 0x53DC JUMP JUMPDEST PUSH20 0xFFFFFFFFFFFFFFFFFFFFFFFFFFFFFFFFFFFFFFFF AND EQ PUSH2 0x28CB JUMPI PUSH1 0x40 MLOAD PUSH32 0x8C379A000000000000000000000000000000000000000000000000000000000 DUP2 MSTORE PUSH1 0x4 ADD PUSH2 0x28C2 SWAP1 PUSH2 0x54C1 JUMP JUMPDEST PUSH1 0x40 MLOAD DUP1 SWAP2 SUB SWAP1 REVERT JUMPDEST POP DUP1 DUP1 PUSH2 0x28D7 SWAP1 PUSH2 0x4D54 JUMP JUMPDEST SWAP2 POP POP PUSH2 0x2607 JUMP JUMPDEST POP PUSH2 0x28EA DUP5 DUP5 PUSH2 0x402C JUMP JUMPDEST PUSH1 0x0 JUMPDEST PUSH1 0x3 DUP2 LT ISZERO PUSH2 0x29A6 JUMPI DUP5 DUP2 PUSH1 0x3 DUP2 LT PUSH2 0x2909 JUMPI PUSH2 0x2908 PUSH2 0x4CEE JUMP JUMPDEST JUMPDEST PUSH1 0x20 MUL ADD MLOAD PUSH20 0xFFFFFFFFFFFFFFFFFFFFFFFFFFFFFFFFFFFFFFFF AND PUSH4 0x23B872DD CALLER ADDRESS DUP8 DUP6 PUSH1 0x3 DUP2 LT PUSH2 0x293E JUMPI PUSH2 0x293D PUSH2 0x4CEE JUMP JUMPDEST JUMPDEST PUSH1 0x20 MUL ADD MLOAD PUSH1 0x40 MLOAD DUP5 PUSH4 0xFFFFFFFF AND PUSH1 0xE0 SHL DUP2 MSTORE PUSH1 0x4 ADD PUSH2 0x2961 SWAP4 SWAP3 SWAP2 SWAP1 PUSH2 0x4D1D JUMP JUMPDEST PUSH1 0x0 PUSH1 0x40 MLOAD DUP1 DUP4 SUB DUP2 PUSH1 0x0 DUP8 DUP1 EXTCODESIZE ISZERO DUP1 ISZERO PUSH2 0x297B JUMPI PUSH1 0x0 DUP1 REVERT JUMPDEST POP GAS CALL ISZERO DUP1 ISZERO PUSH2 0x298F JUMPI RETURNDATASIZE PUSH1 0x0 DUP1 RETURNDATACOPY RETURNDATASIZE PUSH1 0x0 REVERT JUMPDEST POP POP POP POP DUP1 DUP1 PUSH2 0x299E SWAP1 PUSH2 0x4D54 JUMP JUMPDEST SWAP2 POP POP PUSH2 0x28ED JUMP JUMPDEST POP DUP1 PUSH1 0x16 ADD PUSH1 0x1 SWAP1 SLOAD SWAP1 PUSH2 0x100 EXP SWAP1 DIV PUSH20 0xFFFFFFFFFFFFFFFFFFFFFFFFFFFFFFFFFFFFFFFF AND PUSH20 0xFFFFFFFFFFFFFFFFFFFFFFFFFFFFFFFFFFFFFFFF AND PUSH4 0x23B872DD CALLER ADDRESS DUP5 PUSH1 0x17 ADD SLOAD PUSH1 0x40 MLOAD DUP5 PUSH4 0xFFFFFFFF AND PUSH1 0xE0 SHL DUP2 MSTORE PUSH1 0x4 ADD PUSH2 0x2A0C SWAP4 SWAP3 SWAP2 SWAP1 PUSH2 0x4D1D JUMP JUMPDEST PUSH1 0x20 PUSH1 0x40 MLOAD DUP1 DUP4 SUB DUP2 PUSH1 0x0 DUP8 GAS CALL ISZERO DUP1 ISZERO PUSH2 0x2A2B JUMPI RETURNDATASIZE PUSH1 0x0 DUP1 RETURNDATACOPY RETURNDATASIZE PUSH1 0x0 REVERT JUMPDEST POP POP POP POP PUSH1 0x40 MLOAD RETURNDATASIZE PUSH1 0x1F NOT PUSH1 0x1F DUP3 ADD AND DUP3 ADD DUP1 PUSH1 0x40 MSTORE POP DUP2 ADD SWAP1 PUSH2 0x2A4F SWAP2 SWAP1 PUSH2 0x4CC1 JUMP JUMPDEST POP CALLER DUP2 PUSH1 0xB ADD PUSH1 0x1 PUSH2 0x100 EXP DUP2 SLOAD DUP2 PUSH20 0xFFFFFFFFFFFFFFFFFFFFFFFFFFFFFFFFFFFFFFFF MUL NOT AND SWAP1 DUP4 PUSH20 0xFFFFFFFFFFFFFFFFFFFFFFFFFFFFFFFFFFFFFFFF AND MUL OR SWAP1 SSTORE POP DUP4 DUP2 PUSH1 0xC ADD SWAP1 PUSH1 0x3 PUSH2 0x2AA6 SWAP3 SWAP2 SWAP1 PUSH2 0x42AC JUMP JUMPDEST POP DUP3 DUP2 PUSH1 0xF ADD SWAP1 PUSH1 0x3 PUSH2 0x2ABA SWAP3 SWAP2 SWAP1 PUSH2 0x426C JUMP JUMPDEST POP DUP2 DUP2 PUSH1 0x12 ADD DUP2 SWAP1 SSTORE POP TIMESTAMP DUP2 PUSH1 0x19 ADD DUP2 SWAP1 SSTORE POP PUSH32 0x45C4F9CBAFE186141862608C493F28B823FDE4C2142BEDC3F5169961A73FDD22 DUP6 CALLER PUSH1 0x40 MLOAD PUSH2 0x2AFE SWAP3 SWAP2 SWAP1 PUSH2 0x525A JUMP JUMPDEST PUSH1 0x40 MLOAD DUP1 SWAP2 SUB SWAP1 LOG1 POP POP POP POP POP JUMP JUMPDEST PUSH2 0x2B15 PUSH2 0x383E JUMP JUMPDEST PUSH1 0x0 PUSH20 0xFFFFFFFFFFFFFFFFFFFFFFFFFFFFFFFFFFFFFFFF AND DUP3 PUSH20 0xFFFFFFFFFFFFFFFFFFFFFFFFFFFFFFFFFFFFFFFF AND SUB PUSH2 0x2B84 JUMPI PUSH1 0x40 MLOAD PUSH32 0x8C379A000000000000000000000000000000000000000000000000000000000 DUP2 MSTORE PUSH1 0x4 ADD PUSH2 0x2B7B SWAP1 PUSH2 0x552D JUMP JUMPDEST PUSH1 0x40 MLOAD DUP1 SWAP2 SUB SWAP1 REVERT JUMPDEST PUSH1 0x1 PUSH1 0x2 PUSH1 0x0 DUP5 PUSH20 0xFFFFFFFFFFFFFFFFFFFFFFFFFFFFFFFFFFFFFFFF AND PUSH20 0xFFFFFFFFFFFFFFFFFFFFFFFFFFFFFFFFFFFFFFFF AND DUP2 MSTORE PUSH1 0x20 ADD SWAP1 DUP2 MSTORE PUSH1 0x20 ADD PUSH1 0x0 KECCAK256 PUSH1 0x0 PUSH2 0x100 EXP DUP2 SLOAD DUP2 PUSH1 0xFF MUL NOT AND SWAP1 DUP4 ISZERO ISZERO MUL OR SWAP1 SSTORE POP DUP1 PUSH1 0x4 PUSH1 0x0 DUP5 PUSH20 0xFFFFFFFFFFFFFFFFFFFFFFFFFFFFFFFFFFFFFFFF AND PUSH20 0xFFFFFFFFFFFFFFFFFFFFFFFFFFFFFFFFFFFFFFFF AND DUP2 MSTORE PUSH1 0x20 ADD SWAP1 DUP2 MSTORE PUSH1 0x20 ADD PUSH1 0x0 KECCAK256 DUP2 SWAP1 SSTORE POP PUSH32 0xC9655A80DB9D34E23DD9D483CB2B684E4761154A66F935D9B42C174892DD325 DUP3 DUP3 PUSH1 0x40 MLOAD PUSH2 0x2C51 SWAP3 SWAP2 SWAP1 PUSH2 0x4B9D JUMP JUMPDEST PUSH1 0x40 MLOAD DUP1 SWAP2 SUB SWAP1 LOG1 POP POP JUMP JUMPDEST PUSH1 0x0 DUP1 PUSH1 0x0 SWAP1 SLOAD SWAP1 PUSH2 0x100 EXP SWAP1 DIV PUSH20 0xFFFFFFFFFFFFFFFFFFFFFFFFFFFFFFFFFFFFFFFF AND SWAP1 POP SWAP1 JUMP JUMPDEST PUSH2 0x2C8E PUSH2 0x383E JUMP JUMPDEST PUSH1 0x1 DUP1 PUSH1 0x0 DUP4 PUSH20 0xFFFFFFFFFFFFFFFFFFFFFFFFFFFFFFFFFFFFFFFF AND PUSH20 0xFFFFFFFFFFFFFFFFFFFFFFFFFFFFFFFFFFFFFFFF AND DUP2 MSTORE PUSH1 0x20 ADD SWAP1 DUP2 MSTORE PUSH1 0x20 ADD PUSH1 0x0 KECCAK256 PUSH1 0x0 PUSH2 0x100 EXP DUP2 SLOAD DUP2 PUSH1 0xFF MUL NOT AND SWAP1 DUP4 ISZERO ISZERO MUL OR SWAP1 SSTORE POP PUSH32 0x7701426AAA4C0C88A30924A7ABA88DCE66B18C4020B54E4E19C9E0EB0ABC2992 DUP2 PUSH1 0x40 MLOAD PUSH2 0x2D14 SWAP2 SWAP1 PUSH2 0x483A JUMP JUMPDEST PUSH1 0x40 MLOAD DUP1 SWAP2 SUB SWAP1 LOG1 POP JUMP JUMPDEST PUSH1 0x0 DUP5 GT PUSH2 0x2D62 JUMPI PUSH1 0x40 MLOAD PUSH32 0x8C379A000000000000000000000000000000000000000000000000000000000 DUP2 MSTORE PUSH1 0x4 ADD PUSH2 0x2D59 SWAP1 PUSH2 0x5599 JUMP JUMPDEST PUSH1 0x40 MLOAD DUP1 SWAP2 SUB SWAP1 REVERT JUMPDEST PUSH1 0x4 PUSH1 0x0 DUP7 PUSH20 0xFFFFFFFFFFFFFFFFFFFFFFFFFFFFFFFFFFFFFFFF AND PUSH20 0xFFFFFFFFFFFFFFFFFFFFFFFFFFFFFFFFFFFFFFFF AND DUP2 MSTORE PUSH1 0x20 ADD SWAP1 DUP2 MSTORE PUSH1 0x20 ADD PUSH1 0x0 KECCAK256 SLOAD DUP5 LT ISZERO PUSH2 0x2DE4 JUMPI PUSH1 0x40 MLOAD PUSH32 0x8C379A000000000000000000000000000000000000000000000000000000000 DUP2 MSTORE PUSH1 0x4 ADD PUSH2 0x2DDB SWAP1 PUSH2 0x5605 JUMP JUMPDEST PUSH1 0x40 MLOAD DUP1 SWAP2 SUB SWAP1 REVERT JUMPDEST PUSH1 0x2 PUSH1 0x0 DUP7 PUSH20 0xFFFFFFFFFFFFFFFFFFFFFFFFFFFFFFFFFFFFFFFF AND PUSH20 0xFFFFFFFFFFFFFFFFFFFFFFFFFFFFFFFFFFFFFFFF AND DUP2 MSTORE PUSH1 0x20 ADD SWAP1 DUP2 MSTORE PUSH1 0x20 ADD PUSH1 0x0 KECCAK256 PUSH1 0x0 SWAP1 SLOAD SWAP1 PUSH2 0x100 EXP SWAP1 DIV PUSH1 0xFF AND PUSH2 0x2E70 JUMPI PUSH1 0x40 MLOAD PUSH32 0x8C379A000000000000000000000000000000000000000000000000000000000 DUP2 MSTORE PUSH1 0x4 ADD PUSH2 0x2E67 SWAP1 PUSH2 0x5671 JUMP JUMPDEST PUSH1 0x40 MLOAD DUP1 SWAP2 SUB SWAP1 REVERT JUMPDEST PUSH1 0x0 DUP6 SWAP1 POP PUSH1 0x0 DUP1 SHL DUP3 SUB PUSH2 0x2EBA JUMPI PUSH1 0x40 MLOAD PUSH32 0x8C379A000000000000000000000000000000000000000000000000000000000 DUP2 MSTORE PUSH1 0x4 ADD PUSH2 0x2EB1 SWAP1 PUSH2 0x533B JUMP JUMPDEST PUSH1 0x40 MLOAD DUP1 SWAP2 SUB SWAP1 REVERT JUMPDEST PUSH1 0x0 JUMPDEST PUSH1 0x3 DUP2 LT ISZERO PUSH2 0x3195 JUMPI PUSH1 0x1 PUSH1 0x0 DUP7 DUP4 PUSH1 0x3 DUP2 LT PUSH2 0x2EDD JUMPI PUSH2 0x2EDC PUSH2 0x4CEE JUMP JUMPDEST JUMPDEST PUSH1 0x20 MUL ADD MLOAD PUSH20 0xFFFFFFFFFFFFFFFFFFFFFFFFFFFFFFFFFFFFFFFF AND PUSH20 0xFFFFFFFFFFFFFFFFFFFFFFFFFFFFFFFFFFFFFFFF AND DUP2 MSTORE PUSH1 0x20 ADD SWAP1 DUP2 MSTORE PUSH1 0x20 ADD PUSH1 0x0 KECCAK256 PUSH1 0x0 SWAP1 SLOAD SWAP1 PUSH2 0x100 EXP SWAP1 DIV PUSH1 0xFF AND PUSH2 0x2F69 JUMPI PUSH1 0x40 MLOAD PUSH32 0x8C379A000000000000000000000000000000000000000000000000000000000 DUP2 MSTORE PUSH1 0x4 ADD PUSH2 0x2F60 SWAP1 PUSH2 0x53A7 JUMP JUMPDEST PUSH1 0x40 MLOAD DUP1 SWAP2 SUB SWAP1 REVERT JUMPDEST PUSH1 0x0 DUP6 DUP3 PUSH1 0x3 DUP2 LT PUSH2 0x2F7E JUMPI PUSH2 0x2F7D PUSH2 0x4CEE JUMP JUMPDEST JUMPDEST PUSH1 0x20 MUL ADD MLOAD SWAP1 POP CALLER PUSH20 0xFFFFFFFFFFFFFFFFFFFFFFFFFFFFFFFFFFFFFFFF AND DUP2 PUSH20 0xFFFFFFFFFFFFFFFFFFFFFFFFFFFFFFFFFFFFFFFF AND PUSH4 0x6352211E DUP8 DUP6 PUSH1 0x3 DUP2 LT PUSH2 0x2FCB JUMPI PUSH2 0x2FCA PUSH2 0x4CEE JUMP JUMPDEST JUMPDEST PUSH1 0x20 MUL ADD MLOAD PUSH1 0x40 MLOAD DUP3 PUSH4 0xFFFFFFFF AND PUSH1 0xE0 SHL DUP2 MSTORE PUSH1 0x4 ADD PUSH2 0x2FEC SWAP2 SWAP1 PUSH2 0x44BB JUMP JUMPDEST PUSH1 0x20 PUSH1 0x40 MLOAD DUP1 DUP4 SUB DUP2 DUP7 GAS STATICCALL ISZERO DUP1 ISZERO PUSH2 0x3009 JUMPI RETURNDATASIZE PUSH1 0x0 DUP1 RETURNDATACOPY RETURNDATASIZE PUSH1 0x0 REVERT JUMPDEST POP POP POP POP PUSH1 0x40 MLOAD RETURNDATASIZE PUSH1 0x1F NOT PUSH1 0x1F DUP3 ADD AND DUP3 ADD DUP1 PUSH1 0x40 MSTORE POP DUP2 ADD SWAP1 PUSH2 0x302D SWAP2 SWAP1 PUSH2 0x53DC JUMP JUMPDEST PUSH20 0xFFFFFFFFFFFFFFFFFFFFFFFFFFFFFFFFFFFFFFFF AND EQ PUSH2 0x3083 JUMPI PUSH1 0x40 MLOAD PUSH32 0x8C379A000000000000000000000000000000000000000000000000000000000 DUP2 MSTORE PUSH1 0x4 ADD PUSH2 0x307A SWAP1 PUSH2 0x5455 JUMP JUMPDEST PUSH1 0x40 MLOAD DUP1 SWAP2 SUB SWAP1 REVERT JUMPDEST ADDRESS PUSH20 0xFFFFFFFFFFFFFFFFFFFFFFFFFFFFFFFFFFFFFFFF AND DUP2 PUSH20 0xFFFFFFFFFFFFFFFFFFFFFFFFFFFFFFFFFFFFFFFF AND PUSH4 0x81812FC DUP8 DUP6 PUSH1 0x3 DUP2 LT PUSH2 0x30C9 JUMPI PUSH2 0x30C8 PUSH2 0x4CEE JUMP JUMPDEST JUMPDEST PUSH1 0x20 MUL ADD MLOAD PUSH1 0x40 MLOAD DUP3 PUSH4 0xFFFFFFFF AND PUSH1 0xE0 SHL DUP2 MSTORE PUSH1 0x4 ADD PUSH2 0x30EA SWAP2 SWAP1 PUSH2 0x44BB JUMP JUMPDEST PUSH1 0x20 PUSH1 0x40 MLOAD DUP1 DUP4 SUB DUP2 DUP7 GAS STATICCALL ISZERO DUP1 ISZERO PUSH2 0x3107 JUMPI RETURNDATASIZE PUSH1 0x0 DUP1 RETURNDATACOPY RETURNDATASIZE PUSH1 0x0 REVERT JUMPDEST POP POP POP POP PUSH1 0x40 MLOAD RETURNDATASIZE PUSH1 0x1F NOT PUSH1 0x1F DUP3 ADD AND DUP3 ADD DUP1 PUSH1 0x40 MSTORE POP DUP2 ADD SWAP1 PUSH2 0x312B SWAP2 SWAP1 PUSH2 0x53DC JUMP JUMPDEST PUSH20 0xFFFFFFFFFFFFFFFFFFFFFFFFFFFFFFFFFFFFFFFF AND EQ PUSH2 0x3181 JUMPI PUSH1 0x40 MLOAD PUSH32 0x8C379A000000000000000000000000000000000000000000000000000000000 DUP2 MSTORE PUSH1 0x4 ADD PUSH2 0x3178 SWAP1 PUSH2 0x54C1 JUMP JUMPDEST PUSH1 0x40 MLOAD DUP1 SWAP2 SUB SWAP1 REVERT JUMPDEST POP DUP1 DUP1 PUSH2 0x318D SWAP1 PUSH2 0x4D54 JUMP JUMPDEST SWAP2 POP POP PUSH2 0x2EBD JUMP JUMPDEST POP PUSH2 0x31A0 DUP5 DUP5 PUSH2 0x402C JUMP JUMPDEST PUSH1 0x0 JUMPDEST PUSH1 0x3 DUP2 LT ISZERO PUSH2 0x325C JUMPI DUP5 DUP2 PUSH1 0x3 DUP2 LT PUSH2 0x31BF JUMPI PUSH2 0x31BE PUSH2 0x4CEE JUMP JUMPDEST JUMPDEST PUSH1 0x20 MUL ADD MLOAD PUSH20 0xFFFFFFFFFFFFFFFFFFFFFFFFFFFFFFFFFFFFFFFF AND PUSH4 0x23B872DD CALLER ADDRESS DUP8 DUP6 PUSH1 0x3 DUP2 LT PUSH2 0x31F4 JUMPI PUSH2 0x31F3 PUSH2 0x4CEE JUMP JUMPDEST JUMPDEST PUSH1 0x20 MUL ADD MLOAD PUSH1 0x40 MLOAD DUP5 PUSH4 0xFFFFFFFF AND PUSH1 0xE0 SHL DUP2 MSTORE PUSH1 0x4 ADD PUSH2 0x3217 SWAP4 SWAP3 SWAP2 SWAP1 PUSH2 0x4D1D JUMP JUMPDEST PUSH1 0x0 PUSH1 0x40 MLOAD DUP1 DUP4 SUB DUP2 PUSH1 0x0 DUP8 DUP1 EXTCODESIZE ISZERO DUP1 ISZERO PUSH2 0x3231 JUMPI PUSH1 0x0 DUP1 REVERT JUMPDEST POP GAS CALL ISZERO DUP1 ISZERO PUSH2 0x3245 JUMPI RETURNDATASIZE PUSH1 0x0 DUP1 RETURNDATACOPY RETURNDATASIZE PUSH1 0x0 REVERT JUMPDEST POP POP POP POP DUP1 DUP1 PUSH2 0x3254 SWAP1 PUSH2 0x4D54 JUMP JUMPDEST SWAP2 POP POP PUSH2 0x31A3 JUMP JUMPDEST POP DUP1 PUSH20 0xFFFFFFFFFFFFFFFFFFFFFFFFFFFFFFFFFFFFFFFF AND PUSH4 0x23B872DD CALLER ADDRESS DUP9 PUSH1 0x40 MLOAD DUP5 PUSH4 0xFFFFFFFF AND PUSH1 0xE0 SHL DUP2 MSTORE PUSH1 0x4 ADD PUSH2 0x329A SWAP4 SWAP3 SWAP2 SWAP1 PUSH2 0x4D1D JUMP JUMPDEST PUSH1 0x20 PUSH1 0x40 MLOAD DUP1 DUP4 SUB DUP2 PUSH1 0x0 DUP8 GAS CALL ISZERO DUP1 ISZERO PUSH2 0x32B9 JUMPI RETURNDATASIZE PUSH1 0x0 DUP1 RETURNDATACOPY RETURNDATASIZE PUSH1 0x0 REVERT JUMPDEST POP POP POP POP PUSH1 0x40 MLOAD RETURNDATASIZE PUSH1 0x1F NOT PUSH1 0x1F DUP3 ADD AND DUP3 ADD DUP1 PUSH1 0x40 MSTORE POP DUP2 ADD SWAP1 PUSH2 0x32DD SWAP2 SWAP1 PUSH2 0x4CC1 JUMP JUMPDEST POP PUSH1 0x0 PUSH1 0x7 PUSH1 0x0 DUP2 SLOAD DUP1 SWAP3 SWAP2 SWAP1 PUSH2 0x32F3 SWAP1 PUSH2 0x4D54 JUMP JUMPDEST SWAP2 SWAP1 POP SSTORE SWAP1 POP PUSH1 0x40 MLOAD DUP1 PUSH2 0x220 ADD PUSH1 0x40 MSTORE DUP1 CALLER PUSH20 0xFFFFFFFFFFFFFFFFFFFFFFFFFFFFFFFFFFFFFFFF AND DUP2 MSTORE PUSH1 0x20 ADD DUP7 DUP2 MSTORE PUSH1 0x20 ADD DUP6 DUP2 MSTORE PUSH1 0x20 ADD DUP5 DUP2 MSTORE PUSH1 0x20 ADD PUSH1 0x40 MLOAD DUP1 PUSH1 0x60 ADD PUSH1 0x40 MSTORE DUP1 PUSH1 0x0 DUP2 MSTORE PUSH1 0x20 ADD PUSH1 0x0 DUP2 MSTORE PUSH1 0x20 ADD PUSH1 0x0 DUP2 MSTORE POP DUP2 MSTORE PUSH1 0x20 ADD PUSH1 0x0 ISZERO ISZERO DUP2 MSTORE PUSH1 0x20 ADD PUSH1 0x0 PUSH20 0xFFFFFFFFFFFFFFFFFFFFFFFFFFFFFFFFFFFFFFFF AND DUP2 MSTORE PUSH1 0x20 ADD PUSH1 0x40 MLOAD DUP1 PUSH1 0x60 ADD PUSH1 0x40 MSTORE DUP1 PUSH1 0x0 PUSH20 0xFFFFFFFFFFFFFFFFFFFFFFFFFFFFFFFFFFFFFFFF AND PUSH20 0xFFFFFFFFFFFFFFFFFFFFFFFFFFFFFFFFFFFFFFFF AND DUP2 MSTORE PUSH1 0x20 ADD PUSH1 0x0 PUSH20 0xFFFFFFFFFFFFFFFFFFFFFFFFFFFFFFFFFFFFFFFF AND PUSH20 0xFFFFFFFFFFFFFFFFFFFFFFFFFFFFFFFFFFFFFFFF AND DUP2 MSTORE PUSH1 0x20 ADD PUSH1 0x0 PUSH20 0xFFFFFFFFFFFFFFFFFFFFFFFFFFFFFFFFFFFFFFFF AND PUSH20 0xFFFFFFFFFFFFFFFFFFFFFFFFFFFFFFFFFFFFFFFF AND DUP2 MSTORE POP DUP2 MSTORE PUSH1 0x20 ADD PUSH1 0x40 MLOAD DUP1 PUSH1 0x60 ADD PUSH1 0x40 MSTORE DUP1 PUSH1 0x0 DUP2 MSTORE PUSH1 0x20 ADD PUSH1 0x0 DUP2 MSTORE PUSH1 0x20 ADD PUSH1 0x0 DUP2 MSTORE POP DUP2 MSTORE PUSH1 0x20 ADD PUSH1 0x0 DUP1 SHL DUP2 MSTORE PUSH1 0x20 ADD PUSH1 0x40 MLOAD DUP1 PUSH1 0x60 ADD PUSH1 0x40 MSTORE DUP1 PUSH1 0x0 DUP2 MSTORE PUSH1 0x20 ADD PUSH1 0x0 DUP2 MSTORE PUSH1 0x20 ADD PUSH1 0x0 DUP2 MSTORE POP DUP2 MSTORE PUSH1 0x20 ADD PUSH1 0x0 ISZERO ISZERO DUP2 MSTORE PUSH1 0x20 ADD DUP4 PUSH20 0xFFFFFFFFFFFFFFFFFFFFFFFFFFFFFFFFFFFFFFFF AND DUP2 MSTORE PUSH1 0x20 ADD DUP8 DUP2 MSTORE PUSH1 0x20 ADD TIMESTAMP DUP2 MSTORE PUSH1 0x20 ADD PUSH1 0x0 DUP2 MSTORE PUSH1 0x20 ADD PUSH1 0x1 ISZERO ISZERO DUP2 MSTORE POP PUSH1 0x6 PUSH1 0x0 DUP4 DUP2 MSTORE PUSH1 0x20 ADD SWAP1 DUP2 MSTORE PUSH1 0x20 ADD PUSH1 0x0 KECCAK256 PUSH1 0x0 DUP3 ADD MLOAD DUP2 PUSH1 0x0 ADD PUSH1 0x0 PUSH2 0x100 EXP DUP2 SLOAD DUP2 PUSH20 0xFFFFFFFFFFFFFFFFFFFFFFFFFFFFFFFFFFFFFFFF MUL NOT AND SWAP1 DUP4 PUSH20 0xFFFFFFFFFFFFFFFFFFFFFFFFFFFFFFFFFFFFFFFF AND MUL OR SWAP1 SSTORE POP PUSH1 0x20 DUP3 ADD MLOAD DUP2 PUSH1 0x1 ADD SWAP1 PUSH1 0x3 PUSH2 0x3522 SWAP3 SWAP2 SWAP1 PUSH2 0x42AC JUMP JUMPDEST POP PUSH1 0x40 DUP3 ADD MLOAD DUP2 PUSH1 0x4 ADD SWAP1 PUSH1 0x3 PUSH2 0x353A SWAP3 SWAP2 SWAP1 PUSH2 0x426C JUMP JUMPDEST POP PUSH1 0x60 DUP3 ADD MLOAD DUP2 PUSH1 0x7 ADD SSTORE PUSH1 0x80 DUP3 ADD MLOAD DUP2 PUSH1 0x8 ADD SWAP1 PUSH1 0x3 PUSH2 0x355C SWAP3 SWAP2 SWAP1 PUSH2 0x426C JUMP JUMPDEST POP PUSH1 0xA0 DUP3 ADD MLOAD DUP2 PUSH1 0xB ADD PUSH1 0x0 PUSH2 0x100 EXP DUP2 SLOAD DUP2 PUSH1 0xFF MUL NOT AND SWAP1 DUP4 ISZERO ISZERO MUL OR SWAP1 SSTORE POP PUSH1 0xC0 DUP3 ADD MLOAD DUP2 PUSH1 0xB ADD PUSH1 0x1 PUSH2 0x100 EXP DUP2 SLOAD DUP2 PUSH20 0xFFFFFFFFFFFFFFFFFFFFFFFFFFFFFFFFFFFFFFFF MUL NOT AND SWAP1 DUP4 PUSH20 0xFFFFFFFFFFFFFFFFFFFFFFFFFFFFFFFFFFFFFFFF AND MUL OR SWAP1 SSTORE POP PUSH1 0xE0 DUP3 ADD MLOAD DUP2 PUSH1 0xC ADD SWAP1 PUSH1 0x3 PUSH2 0x35DB SWAP3 SWAP2 SWAP1 PUSH2 0x42AC JUMP JUMPDEST POP PUSH2 0x100 DUP3 ADD MLOAD DUP2 PUSH1 0xF ADD SWAP1 PUSH1 0x3 PUSH2 0x35F4 SWAP3 SWAP2 SWAP1 PUSH2 0x426C JUMP JUMPDEST POP PUSH2 0x120 DUP3 ADD MLOAD DUP2 PUSH1 0x12 ADD SSTORE PUSH2 0x140 DUP3 ADD MLOAD DUP2 PUSH1 0x13 ADD SWAP1 PUSH1 0x3 PUSH2 0x3618 SWAP3 SWAP2 SWAP1 PUSH2 0x426C JUMP JUMPDEST POP PUSH2 0x160 DUP3 ADD MLOAD DUP2 PUSH1 0x16 ADD PUSH1 0x0 PUSH2 0x100 EXP DUP2 SLOAD DUP2 PUSH1 0xFF MUL NOT AND SWAP1 DUP4 ISZERO ISZERO MUL OR SWAP1 SSTORE POP PUSH2 0x180 DUP3 ADD MLOAD DUP2 PUSH1 0x16 ADD PUSH1 0x1 PUSH2 0x100 EXP DUP2 SLOAD DUP2 PUSH20 0xFFFFFFFFFFFFFFFFFFFFFFFFFFFFFFFFFFFFFFFF MUL NOT AND SWAP1 DUP4 PUSH20 0xFFFFFFFFFFFFFFFFFFFFFFFFFFFFFFFFFFFFFFFF AND MUL OR SWAP1 SSTORE POP PUSH2 0x1A0 DUP3 ADD MLOAD DUP2 PUSH1 0x17 ADD SSTORE PUSH2 0x1C0 DUP3 ADD MLOAD DUP2 PUSH1 0x18 ADD SSTORE PUSH2 0x1E0 DUP3 ADD MLOAD DUP2 PUSH1 0x19 ADD SSTORE PUSH2 0x200 DUP3 ADD MLOAD DUP2 PUSH1 0x1A ADD PUSH1 0x0 PUSH2 0x100 EXP DUP2 SLOAD DUP2 PUSH1 0xFF MUL NOT AND SWAP1 DUP4 ISZERO ISZERO MUL OR SWAP1 SSTORE POP SWAP1 POP POP PUSH32 0x6200407C0EA392B8107B21A9BE480ACD41FDA186D04BED28CC7DA2D4B53D56E2 DUP2 CALLER DUP10 DUP10 PUSH1 0x40 MLOAD PUSH2 0x36FC SWAP5 SWAP4 SWAP3 SWAP2 SWAP1 PUSH2 0x5691 JUMP JUMPDEST PUSH1 0x40 MLOAD DUP1 SWAP2 SUB SWAP1 LOG1 POP POP POP POP POP POP POP JUMP JUMPDEST PUSH1 0x7 SLOAD DUP2 JUMP JUMPDEST PUSH2 0x371B PUSH2 0x383E JUMP JUMPDEST PUSH1 0x1 PUSH1 0x3 DUP3 PUSH1 0x40 MLOAD PUSH2 0x372D SWAP2 SWAP1 PUSH2 0x5747 JUMP JUMPDEST SWAP1 DUP2 MSTORE PUSH1 0x20 ADD PUSH1 0x40 MLOAD DUP1 SWAP2 SUB SWAP1 KECCAK256 PUSH1 0x0 PUSH2 0x100 EXP DUP2 SLOAD DUP2 PUSH1 0xFF MUL NOT AND SWAP1 DUP4 ISZERO ISZERO MUL OR SWAP1 SSTORE POP PUSH32 0x8A241D3BF6DEB30E6D35A55B4CF6074A0B298B83C3EE264A18C8CFC4FEEA471D DUP2 PUSH1 0x40 MLOAD PUSH2 0x3781 SWAP2 SWAP1 PUSH2 0x5797 JUMP JUMPDEST PUSH1 0x40 MLOAD DUP1 SWAP2 SUB SWAP1 LOG1 POP JUMP JUMPDEST PUSH3 0x93A80 DUP2 JUMP JUMPDEST PUSH1 0x2 DUP2 JUMP JUMPDEST PUSH1 0x1 PUSH1 0x20 MSTORE DUP1 PUSH1 0x0 MSTORE PUSH1 0x40 PUSH1 0x0 KECCAK256 PUSH1 0x0 SWAP2 POP SLOAD SWAP1 PUSH2 0x100 EXP SWAP1 DIV PUSH1 0xFF AND DUP2 JUMP JUMPDEST PUSH2 0x37C0 PUSH2 0x383E JUMP JUMPDEST PUSH1 0x0 PUSH20 0xFFFFFFFFFFFFFFFFFFFFFFFFFFFFFFFFFFFFFFFF AND DUP2 PUSH20 0xFFFFFFFFFFFFFFFFFFFFFFFFFFFFFFFFFFFFFFFF AND SUB PUSH2 0x3832 JUMPI PUSH1 0x0 PUSH1 0x40 MLOAD PUSH32 0x1E4FBDF700000000000000000000000000000000000000000000000000000000 DUP2 MSTORE PUSH1 0x4 ADD PUSH2 0x3829 SWAP2 SWAP1 PUSH2 0x483A JUMP JUMPDEST PUSH1 0x40 MLOAD DUP1 SWAP2 SUB SWAP1 REVERT JUMPDEST PUSH2 0x383B DUP2 PUSH2 0x3F68 JUMP JUMPDEST POP JUMP JUMPDEST PUSH2 0x3846 PUSH2 0x4242 JUMP JUMPDEST PUSH20 0xFFFFFFFFFFFFFFFFFFFFFFFFFFFFFFFFFFFFFFFF AND PUSH2 0x3864 PUSH2 0x2C5D JUMP JUMPDEST PUSH20 0xFFFFFFFFFFFFFFFFFFFFFFFFFFFFFFFFFFFFFFFF AND EQ PUSH2 0x38C3 JUMPI PUSH2 0x3887 PUSH2 0x4242 JUMP JUMPDEST PUSH1 0x40 MLOAD PUSH32 0x118CDAA700000000000000000000000000000000000000000000000000000000 DUP2 MSTORE PUSH1 0x4 ADD PUSH2 0x38BA SWAP2 SWAP1 PUSH2 0x483A JUMP JUMPDEST PUSH1 0x40 MLOAD DUP1 SWAP2 SUB SWAP1 REVERT JUMPDEST JUMP JUMPDEST PUSH2 0x38CD PUSH2 0x4329 JUMP JUMPDEST PUSH1 0x0 DUP6 SWAP1 POP PUSH1 0x0 DUP5 SWAP1 POP PUSH1 0x0 DUP1 PUSH1 0x0 DUP1 DUP6 PUSH20 0xFFFFFFFFFFFFFFFFFFFFFFFFFFFFFFFFFFFFFFFF AND PUSH4 0xCFF840F0 DUP12 PUSH1 0x40 MLOAD DUP3 PUSH4 0xFFFFFFFF AND PUSH1 0xE0 SHL DUP2 MSTORE PUSH1 0x4 ADD PUSH2 0x3916 SWAP2 SWAP1 PUSH2 0x44BB JUMP JUMPDEST PUSH1 0x20 PUSH1 0x40 MLOAD DUP1 DUP4 SUB DUP2 DUP7 GAS STATICCALL ISZERO DUP1 ISZERO PUSH2 0x3933 JUMPI RETURNDATASIZE PUSH1 0x0 DUP1 RETURNDATACOPY RETURNDATASIZE PUSH1 0x0 REVERT JUMPDEST POP POP POP POP PUSH1 0x40 MLOAD RETURNDATASIZE PUSH1 0x1F NOT PUSH1 0x1F DUP3 ADD AND DUP3 ADD DUP1 PUSH1 0x40 MSTORE POP DUP2 ADD SWAP1 PUSH2 0x3957 SWAP2 SWAP1 PUSH2 0x57CE JUMP JUMPDEST SWAP1 POP PUSH1 0x0 DUP6 PUSH20 0xFFFFFFFFFFFFFFFFFFFFFFFFFFFFFFFFFFFFFFFF AND PUSH4 0xCFF840F0 DUP11 PUSH1 0x40 MLOAD DUP3 PUSH4 0xFFFFFFFF AND PUSH1 0xE0 SHL DUP2 MSTORE PUSH1 0x4 ADD PUSH2 0x3994 SWAP2 SWAP1 PUSH2 0x44BB JUMP JUMPDEST PUSH1 0x20 PUSH1 0x40 MLOAD DUP1 DUP4 SUB DUP2 DUP7 GAS STATICCALL ISZERO DUP1 ISZERO PUSH2 0x39B1 JUMPI RETURNDATASIZE PUSH1 0x0 DUP1 RETURNDATACOPY RETURNDATASIZE PUSH1 0x0 REVERT JUMPDEST POP POP POP POP PUSH1 0x40 MLOAD RETURNDATASIZE PUSH1 0x1F NOT PUSH1 0x1F DUP3 ADD AND DUP3 ADD DUP1 PUSH1 0x40 MSTORE POP DUP2 ADD SWAP1 PUSH2 0x39D5 SWAP2 SWAP1 PUSH2 0x57CE JUMP JUMPDEST SWAP1 POP DUP1 DUP3 GT ISZERO PUSH2 0x39F2 JUMPI DUP5 DUP1 PUSH2 0x39EA SWAP1 PUSH2 0x5808 JUMP JUMPDEST SWAP6 POP POP PUSH2 0x3A0A JUMP JUMPDEST DUP2 DUP2 GT ISZERO PUSH2 0x3A09 JUMPI DUP4 DUP1 PUSH2 0x3A05 SWAP1 PUSH2 0x5808 JUMP JUMPDEST SWAP5 POP POP JUMPDEST JUMPDEST DUP1 DUP3 PUSH2 0x3A16 SWAP2 SWAP1 PUSH2 0x5831 JUMP JUMPDEST DUP4 PUSH2 0x3A21 SWAP2 SWAP1 PUSH2 0x5881 JUMP JUMPDEST SWAP3 POP DUP7 PUSH20 0xFFFFFFFFFFFFFFFFFFFFFFFFFFFFFFFFFFFFFFFF AND PUSH4 0xEB22DAA3 DUP13 PUSH1 0x40 MLOAD DUP3 PUSH4 0xFFFFFFFF AND PUSH1 0xE0 SHL DUP2 MSTORE PUSH1 0x4 ADD PUSH2 0x3A5C SWAP2 SWAP1 PUSH2 0x44BB JUMP JUMPDEST PUSH1 0x20 PUSH1 0x40 MLOAD DUP1 DUP4 SUB DUP2 DUP7 GAS STATICCALL ISZERO DUP1 ISZERO PUSH2 0x3A79 JUMPI RETURNDATASIZE PUSH1 0x0 DUP1 RETURNDATACOPY RETURNDATASIZE PUSH1 0x0 REVERT JUMPDEST POP POP POP POP PUSH1 0x40 MLOAD RETURNDATASIZE PUSH1 0x1F NOT PUSH1 0x1F DUP3 ADD AND DUP3 ADD DUP1 PUSH1 0x40 MSTORE POP DUP2 ADD SWAP1 PUSH2 0x3A9D SWAP2 SWAP1 PUSH2 0x57CE JUMP JUMPDEST SWAP2 POP DUP6 PUSH20 0xFFFFFFFFFFFFFFFFFFFFFFFFFFFFFFFFFFFFFFFF AND PUSH4 0xEB22DAA3 DUP11 PUSH1 0x40 MLOAD DUP3 PUSH4 0xFFFFFFFF AND PUSH1 0xE0 SHL DUP2 MSTORE PUSH1 0x4 ADD PUSH2 0x3AD8 SWAP2 SWAP1 PUSH2 0x44BB JUMP JUMPDEST PUSH1 0x20 PUSH1 0x40 MLOAD DUP1 DUP4 SUB DUP2 DUP7 GAS STATICCALL ISZERO DUP1 ISZERO PUSH2 0x3AF5 JUMPI RETURNDATASIZE PUSH1 0x0 DUP1 RETURNDATACOPY RETURNDATASIZE PUSH1 0x0 REVERT JUMPDEST POP POP POP POP PUSH1 0x40 MLOAD RETURNDATASIZE PUSH1 0x1F NOT PUSH1 0x1F DUP3 ADD AND DUP3 ADD DUP1 PUSH1 0x40 MSTORE POP DUP2 ADD SWAP1 PUSH2 0x3B19 SWAP2 SWAP1 PUSH2 0x57CE JUMP JUMPDEST SWAP1 POP DUP1 DUP3 GT ISZERO PUSH2 0x3B36 JUMPI DUP5 DUP1 PUSH2 0x3B2E SWAP1 PUSH2 0x5808 JUMP JUMPDEST SWAP6 POP POP PUSH2 0x3B4E JUMP JUMPDEST DUP2 DUP2 GT ISZERO PUSH2 0x3B4D JUMPI DUP4 DUP1 PUSH2 0x3B49 SWAP1 PUSH2 0x5808 JUMP JUMPDEST SWAP5 POP POP JUMPDEST JUMPDEST DUP1 DUP3 PUSH2 0x3B5A SWAP2 SWAP1 PUSH2 0x5831 JUMP JUMPDEST DUP4 PUSH2 0x3B65 SWAP2 SWAP1 PUSH2 0x5881 JUMP JUMPDEST SWAP3 POP DUP7 PUSH20 0xFFFFFFFFFFFFFFFFFFFFFFFFFFFFFFFFFFFFFFFF AND PUSH4 0x69D1CC92 DUP13 PUSH1 0x40 MLOAD DUP3 PUSH4 0xFFFFFFFF AND PUSH1 0xE0 SHL DUP2 MSTORE PUSH1 0x4 ADD PUSH2 0x3BA0 SWAP2 SWAP1 PUSH2 0x44BB JUMP JUMPDEST PUSH1 0x20 PUSH1 0x40 MLOAD DUP1 DUP4 SUB DUP2 DUP7 GAS STATICCALL ISZERO DUP1 ISZERO PUSH2 0x3BBD JUMPI RETURNDATASIZE PUSH1 0x0 DUP1 RETURNDATACOPY RETURNDATASIZE PUSH1 0x0 REVERT JUMPDEST POP POP POP POP PUSH1 0x40 MLOAD RETURNDATASIZE PUSH1 0x1F NOT PUSH1 0x1F DUP3 ADD AND DUP3 ADD DUP1 PUSH1 0x40 MSTORE POP DUP2 ADD SWAP1 PUSH2 0x3BE1 SWAP2 SWAP1 PUSH2 0x57CE JUMP JUMPDEST SWAP2 POP DUP6 PUSH20 0xFFFFFFFFFFFFFFFFFFFFFFFFFFFFFFFFFFFFFFFF AND PUSH4 0x69D1CC92 DUP11 PUSH1 0x40 MLOAD DUP3 PUSH4 0xFFFFFFFF AND PUSH1 0xE0 SHL DUP2 MSTORE PUSH1 0x4 ADD PUSH2 0x3C1C SWAP2 SWAP1 PUSH2 0x44BB JUMP JUMPDEST PUSH1 0x20 PUSH1 0x40 MLOAD DUP1 DUP4 SUB DUP2 DUP7 GAS STATICCALL ISZERO DUP1 ISZERO PUSH2 0x3C39 JUMPI RETURNDATASIZE PUSH1 0x0 DUP1 RETURNDATACOPY RETURNDATASIZE PUSH1 0x0 REVERT JUMPDEST POP POP POP POP PUSH1 0x40 MLOAD RETURNDATASIZE PUSH1 0x1F NOT PUSH1 0x1F DUP3 ADD AND DUP3 ADD DUP1 PUSH1 0x40 MSTORE POP DUP2 ADD SWAP1 PUSH2 0x3C5D SWAP2 SWAP1 PUSH2 0x57CE JUMP JUMPDEST SWAP1 POP DUP1 DUP3 GT ISZERO PUSH2 0x3C7A JUMPI DUP5 DUP1 PUSH2 0x3C72 SWAP1 PUSH2 0x5808 JUMP JUMPDEST SWAP6 POP POP PUSH2 0x3C92 JUMP JUMPDEST DUP2 DUP2 GT ISZERO PUSH2 0x3C91 JUMPI DUP4 DUP1 PUSH2 0x3C8D SWAP1 PUSH2 0x5808 JUMP JUMPDEST SWAP5 POP POP JUMPDEST JUMPDEST DUP1 DUP3 PUSH2 0x3C9E SWAP2 SWAP1 PUSH2 0x5831 JUMP JUMPDEST DUP4 PUSH2 0x3CA9 SWAP2 SWAP1 PUSH2 0x5881 JUMP JUMPDEST SWAP3 POP DUP7 PUSH20 0xFFFFFFFFFFFFFFFFFFFFFFFFFFFFFFFFFFFFFFFF AND PUSH4 0x8BBEE1F3 DUP13 PUSH1 0x40 MLOAD DUP3 PUSH4 0xFFFFFFFF AND PUSH1 0xE0 SHL DUP2 MSTORE PUSH1 0x4 ADD PUSH2 0x3CE4 SWAP2 SWAP1 PUSH2 0x44BB JUMP JUMPDEST PUSH1 0x20 PUSH1 0x40 MLOAD DUP1 DUP4 SUB DUP2 DUP7 GAS STATICCALL ISZERO DUP1 ISZERO PUSH2 0x3D01 JUMPI RETURNDATASIZE PUSH1 0x0 DUP1 RETURNDATACOPY RETURNDATASIZE PUSH1 0x0 REVERT JUMPDEST POP POP POP POP PUSH1 0x40 MLOAD RETURNDATASIZE PUSH1 0x1F NOT PUSH1 0x1F DUP3 ADD AND DUP3 ADD DUP1 PUSH1 0x40 MSTORE POP DUP2 ADD SWAP1 PUSH2 0x3D25 SWAP2 SWAP1 PUSH2 0x57CE JUMP JUMPDEST SWAP2 POP DUP6 PUSH20 0xFFFFFFFFFFFFFFFFFFFFFFFFFFFFFFFFFFFFFFFF AND PUSH4 0x8BBEE1F3 DUP11 PUSH1 0x40 MLOAD DUP3 PUSH4 0xFFFFFFFF AND PUSH1 0xE0 SHL DUP2 MSTORE PUSH1 0x4 ADD PUSH2 0x3D60 SWAP2 SWAP1 PUSH2 0x44BB JUMP JUMPDEST PUSH1 0x20 PUSH1 0x40 MLOAD DUP1 DUP4 SUB DUP2 DUP7 GAS STATICCALL ISZERO DUP1 ISZERO PUSH2 0x3D7D JUMPI RETURNDATASIZE PUSH1 0x0 DUP1 RETURNDATACOPY RETURNDATASIZE PUSH1 0x0 REVERT JUMPDEST POP POP POP POP PUSH1 0x40 MLOAD RETURNDATASIZE PUSH1 0x1F NOT PUSH1 0x1F DUP3 ADD AND DUP3 ADD DUP1 PUSH1 0x40 MSTORE POP DUP2 ADD SWAP1 PUSH2 0x3DA1 SWAP2 SWAP1 PUSH2 0x57CE JUMP JUMPDEST SWAP1 POP DUP1 DUP3 GT ISZERO PUSH2 0x3DBE JUMPI DUP5 DUP1 PUSH2 0x3DB6 SWAP1 PUSH2 0x5808 JUMP JUMPDEST SWAP6 POP POP PUSH2 0x3DD6 JUMP JUMPDEST DUP2 DUP2 GT ISZERO PUSH2 0x3DD5 JUMPI DUP4 DUP1 PUSH2 0x3DD1 SWAP1 PUSH2 0x5808 JUMP JUMPDEST SWAP5 POP POP JUMPDEST JUMPDEST DUP1 DUP3 PUSH2 0x3DE2 SWAP2 SWAP1 PUSH2 0x5831 JUMP JUMPDEST DUP4 PUSH2 0x3DED SWAP2 SWAP1 PUSH2 0x5881 JUMP JUMPDEST SWAP3 POP DUP7 PUSH20 0xFFFFFFFFFFFFFFFFFFFFFFFFFFFFFFFFFFFFFFFF AND PUSH4 0x252079B2 DUP13 PUSH1 0x40 MLOAD DUP3 PUSH4 0xFFFFFFFF AND PUSH1 0xE0 SHL DUP2 MSTORE PUSH1 0x4 ADD PUSH2 0x3E28 SWAP2 SWAP1 PUSH2 0x44BB JUMP JUMPDEST PUSH1 0x20 PUSH1 0x40 MLOAD DUP1 DUP4 SUB DUP2 DUP7 GAS STATICCALL ISZERO DUP1 ISZERO PUSH2 0x3E45 JUMPI RETURNDATASIZE PUSH1 0x0 DUP1 RETURNDATACOPY RETURNDATASIZE PUSH1 0x0 REVERT JUMPDEST POP POP POP POP PUSH1 0x40 MLOAD RETURNDATASIZE PUSH1 0x1F NOT PUSH1 0x1F DUP3 ADD AND DUP3 ADD DUP1 PUSH1 0x40 MSTORE POP DUP2 ADD SWAP1 PUSH2 0x3E69 SWAP2 SWAP1 PUSH2 0x57CE JUMP JUMPDEST SWAP2 POP DUP6 PUSH20 0xFFFFFFFFFFFFFFFFFFFFFFFFFFFFFFFFFFFFFFFF AND PUSH4 0x252079B2 DUP11 PUSH1 0x40 MLOAD DUP3 PUSH4 0xFFFFFFFF AND PUSH1 0xE0 SHL DUP2 MSTORE PUSH1 0x4 ADD PUSH2 0x3EA4 SWAP2 SWAP1 PUSH2 0x44BB JUMP JUMPDEST PUSH1 0x20 PUSH1 0x40 MLOAD DUP1 DUP4 SUB DUP2 DUP7 GAS STATICCALL ISZERO DUP1 ISZERO PUSH2 0x3EC1 JUMPI RETURNDATASIZE PUSH1 0x0 DUP1 RETURNDATACOPY RETURNDATASIZE PUSH1 0x0 REVERT JUMPDEST POP POP POP POP PUSH1 0x40 MLOAD RETURNDATASIZE PUSH1 0x1F NOT PUSH1 0x1F DUP3 ADD AND DUP3 ADD DUP1 PUSH1 0x40 MSTORE POP DUP2 ADD SWAP1 PUSH2 0x3EE5 SWAP2 SWAP1 PUSH2 0x57CE JUMP JUMPDEST SWAP1 POP DUP1 DUP3 GT ISZERO PUSH2 0x3F02 JUMPI DUP5 DUP1 PUSH2 0x3EFA SWAP1 PUSH2 0x5808 JUMP JUMPDEST SWAP6 POP POP PUSH2 0x3F1A JUMP JUMPDEST DUP2 DUP2 GT ISZERO PUSH2 0x3F19 JUMPI DUP4 DUP1 PUSH2 0x3F15 SWAP1 PUSH2 0x5808 JUMP JUMPDEST SWAP5 POP POP JUMPDEST JUMPDEST DUP1 DUP3 PUSH2 0x3F26 SWAP2 SWAP1 PUSH2 0x5831 JUMP JUMPDEST DUP4 PUSH2 0x3F31 SWAP2 SWAP1 PUSH2 0x5881 JUMP JUMPDEST SWAP3 POP PUSH1 0x40 MLOAD DUP1 PUSH1 0x60 ADD PUSH1 0x40 MSTORE DUP1 DUP7 PUSH1 0xFF AND DUP2 MSTORE PUSH1 0x20 ADD DUP6 PUSH1 0xFF AND DUP2 MSTORE PUSH1 0x20 ADD DUP5 PUSH1 0x1 SIGNEXTEND DUP2 MSTORE POP SWAP8 POP POP POP POP POP POP POP POP SWAP5 SWAP4 POP POP POP POP JUMP JUMPDEST PUSH1 0x0 DUP1 PUSH1 0x0 SWAP1 SLOAD SWAP1 PUSH2 0x100 EXP SWAP1 DIV PUSH20 0xFFFFFFFFFFFFFFFFFFFFFFFFFFFFFFFFFFFFFFFF AND SWAP1 POP DUP2 PUSH1 0x0 DUP1 PUSH2 0x100 EXP DUP2 SLOAD DUP2 PUSH20 0xFFFFFFFFFFFFFFFFFFFFFFFFFFFFFFFFFFFFFFFF MUL NOT AND SWAP1 DUP4 PUSH20 0xFFFFFFFFFFFFFFFFFFFFFFFFFFFFFFFFFFFFFFFF AND MUL OR SWAP1 SSTORE POP DUP2 PUSH20 0xFFFFFFFFFFFFFFFFFFFFFFFFFFFFFFFFFFFFFFFF AND DUP2 PUSH20 0xFFFFFFFFFFFFFFFFFFFFFFFFFFFFFFFFFFFFFFFF AND PUSH32 0x8BE0079C531659141344CD1FD0A4F28419497F9722A3DAAFE3B4186F6B6457E0 PUSH1 0x40 MLOAD PUSH1 0x40 MLOAD DUP1 SWAP2 SUB SWAP1 LOG3 POP POP JUMP JUMPDEST PUSH2 0x4034 PUSH2 0x4353 JUMP JUMPDEST PUSH1 0x0 JUMPDEST PUSH1 0x3 DUP2 LT ISZERO PUSH2 0x411B JUMPI DUP4 DUP2 PUSH1 0x3 DUP2 LT PUSH2 0x4053 JUMPI PUSH2 0x4052 PUSH2 0x4CEE JUMP JUMPDEST JUMPDEST PUSH1 0x20 MUL ADD MLOAD PUSH20 0xFFFFFFFFFFFFFFFFFFFFFFFFFFFFFFFFFFFFFFFF AND PUSH4 0xE8D887D3 DUP5 DUP4 PUSH1 0x3 DUP2 LT PUSH2 0x4086 JUMPI PUSH2 0x4085 PUSH2 0x4CEE JUMP JUMPDEST JUMPDEST PUSH1 0x20 MUL ADD MLOAD PUSH1 0x40 MLOAD DUP3 PUSH4 0xFFFFFFFF AND PUSH1 0xE0 SHL DUP2 MSTORE PUSH1 0x4 ADD PUSH2 0x40A7 SWAP2 SWAP1 PUSH2 0x44BB JUMP JUMPDEST PUSH1 0x0 PUSH1 0x40 MLOAD DUP1 DUP4 SUB DUP2 DUP7 GAS STATICCALL ISZERO DUP1 ISZERO PUSH2 0x40C4 JUMPI RETURNDATASIZE PUSH1 0x0 DUP1 RETURNDATACOPY RETURNDATASIZE PUSH1 0x0 REVERT JUMPDEST POP POP POP POP PUSH1 0x40 MLOAD RETURNDATASIZE PUSH1 0x0 DUP3 RETURNDATACOPY RETURNDATASIZE PUSH1 0x1F NOT PUSH1 0x1F DUP3 ADD AND DUP3 ADD DUP1 PUSH1 0x40 MSTORE POP DUP2 ADD SWAP1 PUSH2 0x40ED SWAP2 SWAP1 PUSH2 0x594B JUMP JUMPDEST DUP3 DUP3 PUSH1 0x3 DUP2 LT PUSH2 0x4100 JUMPI PUSH2 0x40FF PUSH2 0x4CEE JUMP JUMPDEST JUMPDEST PUSH1 0x20 MUL ADD DUP2 SWAP1 MSTORE POP DUP1 DUP1 PUSH2 0x4113 SWAP1 PUSH2 0x4D54 JUMP JUMPDEST SWAP2 POP POP PUSH2 0x4037 JUMP JUMPDEST POP PUSH1 0x0 JUMPDEST PUSH1 0x3 DUP2 LT ISZERO PUSH2 0x423C JUMPI PUSH1 0x3 DUP3 DUP3 PUSH1 0x3 DUP2 LT PUSH2 0x413D JUMPI PUSH2 0x413C PUSH2 0x4CEE JUMP JUMPDEST JUMPDEST PUSH1 0x20 MUL ADD MLOAD PUSH1 0x40 MLOAD PUSH2 0x414F SWAP2 SWAP1 PUSH2 0x5747 JUMP JUMPDEST SWAP1 DUP2 MSTORE PUSH1 0x20 ADD PUSH1 0x40 MLOAD DUP1 SWAP2 SUB SWAP1 KECCAK256 PUSH1 0x0 SWAP1 SLOAD SWAP1 PUSH2 0x100 EXP SWAP1 DIV PUSH1 0xFF AND ISZERO PUSH2 0x4229 JUMPI PUSH1 0x0 DUP1 JUMPDEST PUSH1 0x3 DUP2 LT ISZERO PUSH2 0x41E2 JUMPI DUP4 DUP4 PUSH1 0x3 DUP2 LT PUSH2 0x4190 JUMPI PUSH2 0x418F PUSH2 0x4CEE JUMP JUMPDEST JUMPDEST PUSH1 0x20 MUL ADD MLOAD DUP1 MLOAD SWAP1 PUSH1 0x20 ADD KECCAK256 DUP5 DUP3 PUSH1 0x3 DUP2 LT PUSH2 0x41AF JUMPI PUSH2 0x41AE PUSH2 0x4CEE JUMP JUMPDEST JUMPDEST PUSH1 0x20 MUL ADD MLOAD DUP1 MLOAD SWAP1 PUSH1 0x20 ADD KECCAK256 SUB PUSH2 0x41CF JUMPI DUP2 DUP1 PUSH2 0x41CB SWAP1 PUSH2 0x4D54 JUMP JUMPDEST SWAP3 POP POP JUMPDEST DUP1 DUP1 PUSH2 0x41DA SWAP1 PUSH2 0x4D54 JUMP JUMPDEST SWAP2 POP POP PUSH2 0x4174 JUMP JUMPDEST POP PUSH1 0x1 DUP2 GT ISZERO PUSH2 0x4227 JUMPI PUSH1 0x40 MLOAD PUSH32 0x8C379A000000000000000000000000000000000000000000000000000000000 DUP2 MSTORE PUSH1 0x4 ADD PUSH2 0x421E SWAP1 PUSH2 0x59E0 JUMP JUMPDEST PUSH1 0x40 MLOAD DUP1 SWAP2 SUB SWAP1 REVERT JUMPDEST POP JUMPDEST DUP1 DUP1 PUSH2 0x4234 SWAP1 PUSH2 0x4D54 JUMP JUMPDEST SWAP2 POP POP PUSH2 0x411F JUMP JUMPDEST POP POP POP POP JUMP JUMPDEST PUSH1 0x0 CALLER SWAP1 POP SWAP1 JUMP JUMPDEST PUSH1 0x40 MLOAD DUP1 PUSH1 0x60 ADD PUSH1 0x40 MSTORE DUP1 PUSH1 0x3 SWAP1 PUSH1 0x20 DUP3 MUL DUP1 CALLDATASIZE DUP4 CALLDATACOPY DUP1 DUP3 ADD SWAP2 POP POP SWAP1 POP POP SWAP1 JUMP JUMPDEST DUP3 PUSH1 0x3 DUP2 ADD SWAP3 DUP3 ISZERO PUSH2 0x429B JUMPI SWAP2 PUSH1 0x20 MUL DUP3 ADD JUMPDEST DUP3 DUP2 GT ISZERO PUSH2 0x429A JUMPI DUP3 MLOAD DUP3 SSTORE SWAP2 PUSH1 0x20 ADD SWAP2 SWAP1 PUSH1 0x1 ADD SWAP1 PUSH2 0x427F JUMP JUMPDEST JUMPDEST POP SWAP1 POP PUSH2 0x42A8 SWAP2 SWAP1 PUSH2 0x437A JUMP JUMPDEST POP SWAP1 JUMP JUMPDEST DUP3 PUSH1 0x3 DUP2 ADD SWAP3 DUP3 ISZERO PUSH2 0x4318 JUMPI SWAP2 PUSH1 0x20 MUL DUP3 ADD JUMPDEST DUP3 DUP2 GT ISZERO PUSH2 0x4317 JUMPI DUP3 MLOAD DUP3 PUSH1 0x0 PUSH2 0x100 EXP DUP2 SLOAD DUP2 PUSH20 0xFFFFFFFFFFFFFFFFFFFFFFFFFFFFFFFFFFFFFFFF MUL NOT AND SWAP1 DUP4 PUSH20 0xFFFFFFFFFFFFFFFFFFFFFFFFFFFFFFFFFFFFFFFF AND MUL OR SWAP1 SSTORE POP SWAP2 PUSH1 0x20 ADD SWAP2 SWAP1 PUSH1 0x1 ADD SWAP1 PUSH2 0x42BF JUMP JUMPDEST JUMPDEST POP SWAP1 POP PUSH2 0x4325 SWAP2 SWAP1 PUSH2 0x437A JUMP JUMPDEST POP SWAP1 JUMP JUMPDEST PUSH1 0x40 MLOAD DUP1 PUSH1 0x60 ADD PUSH1 0x40 MSTORE DUP1 PUSH1 0x0 PUSH1 0xFF AND DUP2 MSTORE PUSH1 0x20 ADD PUSH1 0x0 PUSH1 0xFF AND DUP2 MSTORE PUSH1 0x20 ADD PUSH1 0x0 PUSH1 0x1 SIGNEXTEND DUP2 MSTORE POP SWAP1 JUMP JUMPDEST PUSH1 0x40 MLOAD DUP1 PUSH1 0x60 ADD PUSH1 0x40 MSTORE DUP1 PUSH1 0x3 SWAP1 JUMPDEST PUSH1 0x60 DUP2 MSTORE PUSH1 0x20 ADD SWAP1 PUSH1 0x1 SWAP1 SUB SWAP1 DUP2 PUSH2 0x4362 JUMPI SWAP1 POP POP SWAP1 JUMP JUMPDEST JUMPDEST DUP1 DUP3 GT ISZERO PUSH2 0x4393 JUMPI PUSH1 0x0 DUP2 PUSH1 0x0 SWAP1 SSTORE POP PUSH1 0x1 ADD PUSH2 0x437B JUMP JUMPDEST POP SWAP1 JUMP JUMPDEST PUSH1 0x0 PUSH1 0x40 MLOAD SWAP1 POP SWAP1 JUMP JUMPDEST PUSH1 0x0 DUP1 REVERT JUMPDEST PUSH1 0x0 DUP1 REVERT JUMPDEST PUSH1 0x0 PUSH20 0xFFFFFFFFFFFFFFFFFFFFFFFFFFFFFFFFFFFFFFFF DUP3 AND SWAP1 POP SWAP2 SWAP1 POP JUMP JUMPDEST PUSH1 0x0 PUSH2 0x43D6 DUP3 PUSH2 0x43AB JUMP JUMPDEST SWAP1 POP SWAP2 SWAP1 POP JUMP JUMPDEST PUSH2 0x43E6 DUP2 PUSH2 0x43CB JUMP JUMPDEST DUP2 EQ PUSH2 0x43F1 JUMPI PUSH1 0x0 DUP1 REVERT JUMPDEST POP JUMP JUMPDEST PUSH1 0x0 DUP2 CALLDATALOAD SWAP1 POP PUSH2 0x4403 DUP2 PUSH2 0x43DD JUMP JUMPDEST SWAP3 SWAP2 POP POP JUMP JUMPDEST PUSH1 0x0 DUP2 SWAP1 POP SWAP2 SWAP1 POP JUMP JUMPDEST PUSH2 0x441C DUP2 PUSH2 0x4409 JUMP JUMPDEST DUP2 EQ PUSH2 0x4427 JUMPI PUSH1 0x0 DUP1 REVERT JUMPDEST POP JUMP JUMPDEST PUSH1 0x0 DUP2 CALLDATALOAD SWAP1 POP PUSH2 0x4439 DUP2 PUSH2 0x4413 JUMP JUMPDEST SWAP3 SWAP2 POP POP JUMP JUMPDEST PUSH1 0x0 DUP1 PUSH1 0x40 DUP4 DUP6 SUB SLT ISZERO PUSH2 0x4456 JUMPI PUSH2 0x4455 PUSH2 0x43A1 JUMP JUMPDEST JUMPDEST PUSH1 0x0 PUSH2 0x4464 DUP6 DUP3 DUP7 ADD PUSH2 0x43F4 JUMP JUMPDEST SWAP3 POP POP PUSH1 0x20 PUSH2 0x4475 DUP6 DUP3 DUP7 ADD PUSH2 0x442A JUMP JUMPDEST SWAP2 POP POP SWAP3 POP SWAP3 SWAP1 POP JUMP JUMPDEST PUSH1 0x0 PUSH1 0x20 DUP3 DUP5 SUB SLT ISZERO PUSH2 0x4495 JUMPI PUSH2 0x4494 PUSH2 0x43A1 JUMP JUMPDEST JUMPDEST PUSH1 0x0 PUSH2 0x44A3 DUP5 DUP3 DUP6 ADD PUSH2 0x43F4 JUMP JUMPDEST SWAP2 POP POP SWAP3 SWAP2 POP POP JUMP JUMPDEST PUSH2 0x44B5 DUP2 PUSH2 0x4409 JUMP JUMPDEST DUP3 MSTORE POP POP JUMP JUMPDEST PUSH1 0x0 PUSH1 0x20 DUP3 ADD SWAP1 POP PUSH2 0x44D0 PUSH1 0x0 DUP4 ADD DUP5 PUSH2 0x44AC JUMP JUMPDEST SWAP3 SWAP2 POP POP JUMP JUMPDEST PUSH1 0x0 PUSH1 0x20 DUP3 DUP5 SUB SLT ISZERO PUSH2 0x44EC JUMPI PUSH2 0x44EB PUSH2 0x43A1 JUMP JUMPDEST JUMPDEST PUSH1 0x0 PUSH2 0x44FA DUP5 DUP3 DUP6 ADD PUSH2 0x442A JUMP JUMPDEST SWAP2 POP POP SWAP3 SWAP2 POP POP JUMP JUMPDEST PUSH2 0x450C DUP2 PUSH2 0x43CB JUMP JUMPDEST DUP3 MSTORE POP POP JUMP JUMPDEST PUSH1 0x0 DUP2 SWAP1 POP SWAP2 SWAP1 POP JUMP JUMPDEST PUSH2 0x4525 DUP2 PUSH2 0x4512 JUMP JUMPDEST DUP3 MSTORE POP POP JUMP JUMPDEST PUSH1 0x0 DUP2 ISZERO ISZERO SWAP1 POP SWAP2 SWAP1 POP JUMP JUMPDEST PUSH2 0x4540 DUP2 PUSH2 0x452B JUMP JUMPDEST DUP3 MSTORE POP POP JUMP JUMPDEST PUSH1 0x0 DUP2 SWAP1 POP SWAP2 SWAP1 POP JUMP JUMPDEST PUSH1 0x0 PUSH2 0x456B PUSH2 0x4566 PUSH2 0x4561 DUP5 PUSH2 0x43AB JUMP JUMPDEST PUSH2 0x4546 JUMP JUMPDEST PUSH2 0x43AB JUMP JUMPDEST SWAP1 POP SWAP2 SWAP1 POP JUMP JUMPDEST PUSH1 0x0 PUSH2 0x457D DUP3 PUSH2 0x4550 JUMP JUMPDEST SWAP1 POP SWAP2 SWAP1 POP JUMP JUMPDEST PUSH1 0x0 PUSH2 0x458F DUP3 PUSH2 0x4572 JUMP JUMPDEST SWAP1 POP SWAP2 SWAP1 POP JUMP JUMPDEST PUSH2 0x459F DUP2 PUSH2 0x4584 JUMP JUMPDEST DUP3 MSTORE POP POP JUMP JUMPDEST PUSH1 0x0 PUSH2 0x160 DUP3 ADD SWAP1 POP PUSH2 0x45BB PUSH1 0x0 DUP4 ADD DUP15 PUSH2 0x4503 JUMP JUMPDEST PUSH2 0x45C8 PUSH1 0x20 DUP4 ADD DUP14 PUSH2 0x451C JUMP JUMPDEST PUSH2 0x45D5 PUSH1 0x40 DUP4 ADD DUP13 PUSH2 0x4537 JUMP JUMPDEST PUSH2 0x45E2 PUSH1 0x60 DUP4 ADD DUP12 PUSH2 0x4503 JUMP JUMPDEST PUSH2 0x45EF PUSH1 0x80 DUP4 ADD DUP11 PUSH2 0x451C JUMP JUMPDEST PUSH2 0x45FC PUSH1 0xA0 DUP4 ADD DUP10 PUSH2 0x4537 JUMP JUMPDEST PUSH2 0x4609 PUSH1 0xC0 DUP4 ADD DUP9 PUSH2 0x4596 JUMP JUMPDEST PUSH2 0x4616 PUSH1 0xE0 DUP4 ADD DUP8 PUSH2 0x44AC JUMP JUMPDEST PUSH2 0x4624 PUSH2 0x100 DUP4 ADD DUP7 PUSH2 0x44AC JUMP JUMPDEST PUSH2 0x4632 PUSH2 0x120 DUP4 ADD DUP6 PUSH2 0x44AC JUMP JUMPDEST PUSH2 0x4640 PUSH2 0x140 DUP4 ADD DUP5 PUSH2 0x4537 JUMP JUMPDEST SWAP13 SWAP12 POP POP POP POP POP POP POP POP POP POP POP POP JUMP JUMPDEST PUSH1 0x0 DUP1 PUSH1 0x40 DUP4 DUP6 SUB SLT ISZERO PUSH2 0x4667 JUMPI PUSH2 0x4666 PUSH2 0x43A1 JUMP JUMPDEST JUMPDEST PUSH1 0x0 PUSH2 0x4675 DUP6 DUP3 DUP7 ADD PUSH2 0x442A JUMP JUMPDEST SWAP3 POP POP PUSH1 0x20 PUSH2 0x4686 DUP6 DUP3 DUP7 ADD PUSH2 0x442A JUMP JUMPDEST SWAP2 POP POP SWAP3 POP SWAP3 SWAP1 POP JUMP JUMPDEST PUSH1 0x0 PUSH1 0x20 DUP3 ADD SWAP1 POP PUSH2 0x46A5 PUSH1 0x0 DUP4 ADD DUP5 PUSH2 0x4537 JUMP JUMPDEST SWAP3 SWAP2 POP POP JUMP JUMPDEST PUSH1 0x0 DUP1 REVERT JUMPDEST PUSH1 0x0 DUP1 REVERT JUMPDEST PUSH1 0x0 PUSH1 0x1F NOT PUSH1 0x1F DUP4 ADD AND SWAP1 POP SWAP2 SWAP1 POP JUMP JUMPDEST PUSH32 0x4E487B7100000000000000000000000000000000000000000000000000000000 PUSH1 0x0 MSTORE PUSH1 0x41 PUSH1 0x4 MSTORE PUSH1 0x24 PUSH1 0x0 REVERT JUMPDEST PUSH2 0x46FE DUP3 PUSH2 0x46B5 JUMP JUMPDEST DUP2 ADD DUP2 DUP2 LT PUSH8 0xFFFFFFFFFFFFFFFF DUP3 GT OR ISZERO PUSH2 0x471D JUMPI PUSH2 0x471C PUSH2 0x46C6 JUMP JUMPDEST JUMPDEST DUP1 PUSH1 0x40 MSTORE POP POP POP JUMP JUMPDEST PUSH1 0x0 PUSH2 0x4730 PUSH2 0x4397 JUMP JUMPDEST SWAP1 POP PUSH2 0x473C DUP3 DUP3 PUSH2 0x46F5 JUMP JUMPDEST SWAP2 SWAP1 POP JUMP JUMPDEST PUSH1 0x0 PUSH8 0xFFFFFFFFFFFFFFFF DUP3 GT ISZERO PUSH2 0x475C JUMPI PUSH2 0x475B PUSH2 0x46C6 JUMP JUMPDEST JUMPDEST PUSH2 0x4765 DUP3 PUSH2 0x46B5 JUMP JUMPDEST SWAP1 POP PUSH1 0x20 DUP2 ADD SWAP1 POP SWAP2 SWAP1 POP JUMP JUMPDEST DUP3 DUP2 DUP4 CALLDATACOPY PUSH1 0x0 DUP4 DUP4 ADD MSTORE POP POP POP JUMP JUMPDEST PUSH1 0x0 PUSH2 0x4794 PUSH2 0x478F DUP5 PUSH2 0x4741 JUMP JUMPDEST PUSH2 0x4726 JUMP JUMPDEST SWAP1 POP DUP3 DUP2 MSTORE PUSH1 0x20 DUP2 ADD DUP5 DUP5 DUP5 ADD GT ISZERO PUSH2 0x47B0 JUMPI PUSH2 0x47AF PUSH2 0x46B0 JUMP JUMPDEST JUMPDEST PUSH2 0x47BB DUP5 DUP3 DUP6 PUSH2 0x4772 JUMP JUMPDEST POP SWAP4 SWAP3 POP POP POP JUMP JUMPDEST PUSH1 0x0 DUP3 PUSH1 0x1F DUP4 ADD SLT PUSH2 0x47D8 JUMPI PUSH2 0x47D7 PUSH2 0x46AB JUMP JUMPDEST JUMPDEST DUP2 CALLDATALOAD PUSH2 0x47E8 DUP5 DUP3 PUSH1 0x20 DUP7 ADD PUSH2 0x4781 JUMP JUMPDEST SWAP2 POP POP SWAP3 SWAP2 POP POP JUMP JUMPDEST PUSH1 0x0 PUSH1 0x20 DUP3 DUP5 SUB SLT ISZERO PUSH2 0x4807 JUMPI PUSH2 0x4806 PUSH2 0x43A1 JUMP JUMPDEST JUMPDEST PUSH1 0x0 DUP3 ADD CALLDATALOAD PUSH8 0xFFFFFFFFFFFFFFFF DUP2 GT ISZERO PUSH2 0x4825 JUMPI PUSH2 0x4824 PUSH2 0x43A6 JUMP JUMPDEST JUMPDEST PUSH2 0x4831 DUP5 DUP3 DUP6 ADD PUSH2 0x47C3 JUMP JUMPDEST SWAP2 POP POP SWAP3 SWAP2 POP POP JUMP JUMPDEST PUSH1 0x0 PUSH1 0x20 DUP3 ADD SWAP1 POP PUSH2 0x484F PUSH1 0x0 DUP4 ADD DUP5 PUSH2 0x4503 JUMP JUMPDEST SWAP3 SWAP2 POP POP JUMP JUMPDEST PUSH1 0x0 PUSH8 0xFFFFFFFFFFFFFFFF DUP3 GT ISZERO PUSH2 0x4870 JUMPI PUSH2 0x486F PUSH2 0x46C6 JUMP JUMPDEST JUMPDEST PUSH1 0x20 DUP3 MUL SWAP1 POP SWAP2 SWAP1 POP JUMP JUMPDEST PUSH1 0x0 DUP1 REVERT JUMPDEST PUSH1 0x0 PUSH2 0x4893 PUSH2 0x488E DUP5 PUSH2 0x4855 JUMP JUMPDEST PUSH2 0x4726 JUMP JUMPDEST SWAP1 POP DUP1 PUSH1 0x20 DUP5 MUL DUP4 ADD DUP6 DUP2 GT ISZERO PUSH2 0x48AD JUMPI PUSH2 0x48AC PUSH2 0x487B JUMP JUMPDEST JUMPDEST DUP4 JUMPDEST DUP2 DUP2 LT ISZERO PUSH2 0x48D6 JUMPI DUP1 PUSH2 0x48C2 DUP9 DUP3 PUSH2 0x442A JUMP JUMPDEST DUP5 MSTORE PUSH1 0x20 DUP5 ADD SWAP4 POP POP PUSH1 0x20 DUP2 ADD SWAP1 POP PUSH2 0x48AF JUMP JUMPDEST POP POP POP SWAP4 SWAP3 POP POP POP JUMP JUMPDEST PUSH1 0x0 DUP3 PUSH1 0x1F DUP4 ADD SLT PUSH2 0x48F5 JUMPI PUSH2 0x48F4 PUSH2 0x46AB JUMP JUMPDEST JUMPDEST PUSH1 0x3 PUSH2 0x4902 DUP5 DUP3 DUP6 PUSH2 0x4880 JUMP JUMPDEST SWAP2 POP POP SWAP3 SWAP2 POP POP JUMP JUMPDEST PUSH1 0x0 DUP1 PUSH1 0x0 PUSH1 0xA0 DUP5 DUP7 SUB SLT ISZERO PUSH2 0x4924 JUMPI PUSH2 0x4923 PUSH2 0x43A1 JUMP JUMPDEST JUMPDEST PUSH1 0x0 PUSH2 0x4932 DUP7 DUP3 DUP8 ADD PUSH2 0x442A JUMP JUMPDEST SWAP4 POP POP PUSH1 0x20 PUSH2 0x4943 DUP7 DUP3 DUP8 ADD PUSH2 0x442A JUMP JUMPDEST SWAP3 POP POP PUSH1 0x40 PUSH2 0x4954 DUP7 DUP3 DUP8 ADD PUSH2 0x48E0 JUMP JUMPDEST SWAP2 POP POP SWAP3 POP SWAP3 POP SWAP3 JUMP JUMPDEST PUSH1 0x0 PUSH8 0xFFFFFFFFFFFFFFFF DUP3 GT ISZERO PUSH2 0x4979 JUMPI PUSH2 0x4978 PUSH2 0x46C6 JUMP JUMPDEST JUMPDEST PUSH1 0x20 DUP3 MUL SWAP1 POP SWAP2 SWAP1 POP JUMP JUMPDEST PUSH1 0x0 PUSH2 0x4997 PUSH2 0x4992 DUP5 PUSH2 0x495E JUMP JUMPDEST PUSH2 0x4726 JUMP JUMPDEST SWAP1 POP DUP1 PUSH1 0x20 DUP5 MUL DUP4 ADD DUP6 DUP2 GT ISZERO PUSH2 0x49B1 JUMPI PUSH2 0x49B0 PUSH2 0x487B JUMP JUMPDEST JUMPDEST DUP4 JUMPDEST DUP2 DUP2 LT ISZERO PUSH2 0x49DA JUMPI DUP1 PUSH2 0x49C6 DUP9 DUP3 PUSH2 0x43F4 JUMP JUMPDEST DUP5 MSTORE PUSH1 0x20 DUP5 ADD SWAP4 POP POP PUSH1 0x20 DUP2 ADD SWAP1 POP PUSH2 0x49B3 JUMP JUMPDEST POP POP POP SWAP4 SWAP3 POP POP POP JUMP JUMPDEST PUSH1 0x0 DUP3 PUSH1 0x1F DUP4 ADD SLT PUSH2 0x49F9 JUMPI PUSH2 0x49F8 PUSH2 0x46AB JUMP JUMPDEST JUMPDEST PUSH1 0x3 PUSH2 0x4A06 DUP5 DUP3 DUP6 PUSH2 0x4984 JUMP JUMPDEST SWAP2 POP POP SWAP3 SWAP2 POP POP JUMP JUMPDEST PUSH2 0x4A18 DUP2 PUSH2 0x4512 JUMP JUMPDEST DUP2 EQ PUSH2 0x4A23 JUMPI PUSH1 0x0 DUP1 REVERT JUMPDEST POP JUMP JUMPDEST PUSH1 0x0 DUP2 CALLDATALOAD SWAP1 POP PUSH2 0x4A35 DUP2 PUSH2 0x4A0F JUMP JUMPDEST SWAP3 SWAP2 POP POP JUMP JUMPDEST PUSH1 0x0 DUP1 PUSH1 0x0 DUP1 PUSH2 0x100 DUP6 DUP8 SUB SLT ISZERO PUSH2 0x4A56 JUMPI PUSH2 0x4A55 PUSH2 0x43A1 JUMP JUMPDEST JUMPDEST PUSH1 0x0 PUSH2 0x4A64 DUP8 DUP3 DUP9 ADD PUSH2 0x442A JUMP JUMPDEST SWAP5 POP POP PUSH1 0x20 PUSH2 0x4A75 DUP8 DUP3 DUP9 ADD PUSH2 0x49E4 JUMP JUMPDEST SWAP4 POP POP PUSH1 0x80 PUSH2 0x4A86 DUP8 DUP3 DUP9 ADD PUSH2 0x48E0 JUMP JUMPDEST SWAP3 POP POP PUSH1 0xE0 PUSH2 0x4A97 DUP8 DUP3 DUP9 ADD PUSH2 0x4A26 JUMP JUMPDEST SWAP2 POP POP SWAP3 SWAP6 SWAP2 SWAP5 POP SWAP3 POP JUMP JUMPDEST PUSH1 0x0 DUP1 PUSH1 0x0 DUP1 PUSH1 0x0 PUSH2 0x120 DUP7 DUP9 SUB SLT ISZERO PUSH2 0x4AC0 JUMPI PUSH2 0x4ABF PUSH2 0x43A1 JUMP JUMPDEST JUMPDEST PUSH1 0x0 PUSH2 0x4ACE DUP9 DUP3 DUP10 ADD PUSH2 0x43F4 JUMP JUMPDEST SWAP6 POP POP PUSH1 0x20 PUSH2 0x4ADF DUP9 DUP3 DUP10 ADD PUSH2 0x442A JUMP JUMPDEST SWAP5 POP POP PUSH1 0x40 PUSH2 0x4AF0 DUP9 DUP3 DUP10 ADD PUSH2 0x49E4 JUMP JUMPDEST SWAP4 POP POP PUSH1 0xA0 PUSH2 0x4B01 DUP9 DUP3 DUP10 ADD PUSH2 0x48E0 JUMP JUMPDEST SWAP3 POP POP PUSH2 0x100 PUSH2 0x4B13 DUP9 DUP3 DUP10 ADD PUSH2 0x4A26 JUMP JUMPDEST SWAP2 POP POP SWAP3 SWAP6 POP SWAP3 SWAP6 SWAP1 SWAP4 POP JUMP JUMPDEST PUSH1 0x0 DUP3 DUP3 MSTORE PUSH1 0x20 DUP3 ADD SWAP1 POP SWAP3 SWAP2 POP POP JUMP JUMPDEST PUSH32 0x546F6B656E206E6F7420617070726F7665640000000000000000000000000000 PUSH1 0x0 DUP3 ADD MSTORE POP JUMP JUMPDEST PUSH1 0x0 PUSH2 0x4B67 PUSH1 0x12 DUP4 PUSH2 0x4B20 JUMP JUMPDEST SWAP2 POP PUSH2 0x4B72 DUP3 PUSH2 0x4B31 JUMP JUMPDEST PUSH1 0x20 DUP3 ADD SWAP1 POP SWAP2 SWAP1 POP JUMP JUMPDEST PUSH1 0x0 PUSH1 0x20 DUP3 ADD SWAP1 POP DUP2 DUP2 SUB PUSH1 0x0 DUP4 ADD MSTORE PUSH2 0x4B96 DUP2 PUSH2 0x4B5A JUMP JUMPDEST SWAP1 POP SWAP2 SWAP1 POP JUMP JUMPDEST PUSH1 0x0 PUSH1 0x40 DUP3 ADD SWAP1 POP PUSH2 0x4BB2 PUSH1 0x0 DUP4 ADD DUP6 PUSH2 0x4503 JUMP JUMPDEST PUSH2 0x4BBF PUSH1 0x20 DUP4 ADD DUP5 PUSH2 0x44AC JUMP JUMPDEST SWAP4 SWAP3 POP POP POP JUMP JUMPDEST PUSH32 0x537461727420494420746F6F2068696768000000000000000000000000000000 PUSH1 0x0 DUP3 ADD MSTORE POP JUMP JUMPDEST PUSH1 0x0 PUSH2 0x4BFC PUSH1 0x11 DUP4 PUSH2 0x4B20 JUMP JUMPDEST SWAP2 POP PUSH2 0x4C07 DUP3 PUSH2 0x4BC6 JUMP JUMPDEST PUSH1 0x20 DUP3 ADD SWAP1 POP SWAP2 SWAP1 POP JUMP JUMPDEST PUSH1 0x0 PUSH1 0x20 DUP3 ADD SWAP1 POP DUP2 DUP2 SUB PUSH1 0x0 DUP4 ADD MSTORE PUSH2 0x4C2B DUP2 PUSH2 0x4BEF JUMP JUMPDEST SWAP1 POP SWAP2 SWAP1 POP JUMP JUMPDEST PUSH32 0x4E487B7100000000000000000000000000000000000000000000000000000000 PUSH1 0x0 MSTORE PUSH1 0x11 PUSH1 0x4 MSTORE PUSH1 0x24 PUSH1 0x0 REVERT JUMPDEST PUSH1 0x0 PUSH2 0x4C6C DUP3 PUSH2 0x4409 JUMP JUMPDEST SWAP2 POP PUSH2 0x4C77 DUP4 PUSH2 0x4409 JUMP JUMPDEST SWAP3 POP DUP3 DUP3 ADD SWAP1 POP DUP1 DUP3 GT ISZERO PUSH2 0x4C8F JUMPI PUSH2 0x4C8E PUSH2 0x4C32 JUMP JUMPDEST JUMPDEST SWAP3 SWAP2 POP POP JUMP JUMPDEST PUSH2 0x4C9E DUP2 PUSH2 0x452B JUMP JUMPDEST DUP2 EQ PUSH2 0x4CA9 JUMPI PUSH1 0x0 DUP1 REVERT JUMPDEST POP JUMP JUMPDEST PUSH1 0x0 DUP2 MLOAD SWAP1 POP PUSH2 0x4CBB DUP2 PUSH2 0x4C95 JUMP JUMPDEST SWAP3 SWAP2 POP POP JUMP JUMPDEST PUSH1 0x0 PUSH1 0x20 DUP3 DUP5 SUB SLT ISZERO PUSH2 0x4CD7 JUMPI PUSH2 0x4CD6 PUSH2 0x43A1 JUMP JUMPDEST JUMPDEST PUSH1 0x0 PUSH2 0x4CE5 DUP5 DUP3 DUP6 ADD PUSH2 0x4CAC JUMP JUMPDEST SWAP2 POP POP SWAP3 SWAP2 POP POP JUMP JUMPDEST PUSH32 0x4E487B7100000000000000000000000000000000000000000000000000000000 PUSH1 0x0 MSTORE PUSH1 0x32 PUSH1 0x4 MSTORE PUSH1 0x24 PUSH1 0x0 REVERT JUMPDEST PUSH1 0x0 PUSH1 0x60 DUP3 ADD SWAP1 POP PUSH2 0x4D32 PUSH1 0x0 DUP4 ADD DUP7 PUSH2 0x4503 JUMP JUMPDEST PUSH2 0x4D3F PUSH1 0x20 DUP4 ADD DUP6 PUSH2 0x4503 JUMP JUMPDEST PUSH2 0x4D4C PUSH1 0x40 DUP4 ADD DUP5 PUSH2 0x44AC JUMP JUMPDEST SWAP5 SWAP4 POP POP POP POP JUMP JUMPDEST PUSH1 0x0 PUSH2 0x4D5F DUP3 PUSH2 0x4409 JUMP JUMPDEST SWAP2 POP PUSH32 0xFFFFFFFFFFFFFFFFFFFFFFFFFFFFFFFFFFFFFFFFFFFFFFFFFFFFFFFFFFFFFFFF DUP3 SUB PUSH2 0x4D91 JUMPI PUSH2 0x4D90 PUSH2 0x4C32 JUMP JUMPDEST JUMPDEST PUSH1 0x1 DUP3 ADD SWAP1 POP SWAP2 SWAP1 POP JUMP JUMPDEST PUSH1 0x0 PUSH1 0x60 DUP3 ADD SWAP1 POP PUSH2 0x4DB1 PUSH1 0x0 DUP4 ADD DUP7 PUSH2 0x44AC JUMP JUMPDEST PUSH2 0x4DBE PUSH1 0x20 DUP4 ADD DUP6 PUSH2 0x4503 JUMP JUMPDEST PUSH2 0x4DCB PUSH1 0x40 DUP4 ADD DUP5 PUSH2 0x4537 JUMP JUMPDEST SWAP5 SWAP4 POP POP POP POP JUMP JUMPDEST PUSH32 0x47616D65206E6F74206163746976650000000000000000000000000000000000 PUSH1 0x0 DUP3 ADD MSTORE POP JUMP JUMPDEST PUSH1 0x0 PUSH2 0x4E09 PUSH1 0xF DUP4 PUSH2 0x4B20 JUMP JUMPDEST SWAP2 POP PUSH2 0x4E14 DUP3 PUSH2 0x4DD3 JUMP JUMPDEST PUSH1 0x20 DUP3 ADD SWAP1 POP SWAP2 SWAP1 POP JUMP JUMPDEST PUSH1 0x0 PUSH1 0x20 DUP3 ADD SWAP1 POP DUP2 DUP2 SUB PUSH1 0x0 DUP4 ADD MSTORE PUSH2 0x4E38 DUP2 PUSH2 0x4DFC JUMP JUMPDEST SWAP1 POP SWAP2 SWAP1 POP JUMP JUMPDEST PUSH32 0x4E6F7420626F74682072657665616C6564000000000000000000000000000000 PUSH1 0x0 DUP3 ADD MSTORE POP JUMP JUMPDEST PUSH1 0x0 PUSH2 0x4E75 PUSH1 0x11 DUP4 PUSH2 0x4B20 JUMP JUMPDEST SWAP2 POP PUSH2 0x4E80 DUP3 PUSH2 0x4E3F JUMP JUMPDEST PUSH1 0x20 DUP3 ADD SWAP1 POP SWAP2 SWAP1 POP JUMP JUMPDEST PUSH1 0x0 PUSH1 0x20 DUP3 ADD SWAP1 POP DUP2 DUP2 SUB PUSH1 0x0 DUP4 ADD MSTORE PUSH2 0x4EA4 DUP2 PUSH2 0x4E68 JUMP JUMPDEST SWAP1 POP SWAP2 SWAP1 POP JUMP JUMPDEST PUSH1 0x0 DUP2 SWAP1 POP SWAP2 SWAP1 POP JUMP JUMPDEST PUSH1 0x0 PUSH2 0x4EC0 DUP3 PUSH2 0x4EAB JUMP JUMPDEST SWAP2 POP PUSH2 0x4ECB DUP4 PUSH2 0x4EAB JUMP JUMPDEST SWAP3 POP DUP3 DUP3 ADD SWAP1 POP DUP3 DUP2 SLT ISZERO PUSH1 0x0 DUP4 SLT AND DUP4 DUP3 SLT PUSH1 0x0 DUP5 SLT ISZERO AND OR ISZERO PUSH2 0x4EF3 JUMPI PUSH2 0x4EF2 PUSH2 0x4C32 JUMP JUMPDEST JUMPDEST SWAP3 SWAP2 POP POP JUMP JUMPDEST PUSH1 0x0 PUSH2 0x4F04 DUP3 PUSH2 0x4409 JUMP JUMPDEST SWAP2 POP PUSH2 0x4F0F DUP4 PUSH2 0x4409 JUMP JUMPDEST SWAP3 POP DUP3 DUP3 MUL PUSH2 0x4F1D DUP2 PUSH2 0x4409 JUMP JUMPDEST SWAP2 POP DUP3 DUP3 DIV DUP5 EQ DUP4 ISZERO OR PUSH2 0x4F34 JUMPI PUSH2 0x4F33 PUSH2 0x4C32 JUMP JUMPDEST JUMPDEST POP SWAP3 SWAP2 POP POP JUMP JUMPDEST PUSH32 0x4E487B7100000000000000000000000000000000000000000000000000000000 PUSH1 0x0 MSTORE PUSH1 0x12 PUSH1 0x4 MSTORE PUSH1 0x24 PUSH1 0x0 REVERT JUMPDEST PUSH1 0x0 PUSH2 0x4F75 DUP3 PUSH2 0x4409 JUMP JUMPDEST SWAP2 POP PUSH2 0x4F80 DUP4 PUSH2 0x4409 JUMP JUMPDEST SWAP3 POP DUP3 PUSH2 0x4F90 JUMPI PUSH2 0x4F8F PUSH2 0x4F3B JUMP JUMPDEST JUMPDEST DUP3 DUP3 DIV SWAP1 POP SWAP3 SWAP2 POP POP JUMP JUMPDEST PUSH1 0x0 PUSH2 0x4FA6 DUP3 PUSH2 0x4409 JUMP JUMPDEST SWAP2 POP PUSH2 0x4FB1 DUP4 PUSH2 0x4409 JUMP JUMPDEST SWAP3 POP DUP3 DUP3 SUB SWAP1 POP DUP2 DUP2 GT ISZERO PUSH2 0x4FC9 JUMPI PUSH2 0x4FC8 PUSH2 0x4C32 JUMP JUMPDEST JUMPDEST SWAP3 SWAP2 POP POP JUMP JUMPDEST PUSH32 0x4E6F74206120706C617965720000000000000000000000000000000000000000 PUSH1 0x0 DUP3 ADD MSTORE POP JUMP JUMPDEST PUSH1 0x0 PUSH2 0x5005 PUSH1 0xC DUP4 PUSH2 0x4B20 JUMP JUMPDEST SWAP2 POP PUSH2 0x5010 DUP3 PUSH2 0x4FCF JUMP JUMPDEST PUSH1 0x20 DUP3 ADD SWAP1 POP SWAP2 SWAP1 POP JUMP JUMPDEST PUSH1 0x0 PUSH1 0x20 DUP3 ADD SWAP1 POP DUP2 DUP2 SUB PUSH1 0x0 DUP4 ADD MSTORE PUSH2 0x5034 DUP2 PUSH2 0x4FF8 JUMP JUMPDEST SWAP1 POP SWAP2 SWAP1 POP JUMP JUMPDEST PUSH32 0x416C72656164792072657665616C656400000000000000000000000000000000 PUSH1 0x0 DUP3 ADD MSTORE POP JUMP JUMPDEST PUSH1 0x0 PUSH2 0x5071 PUSH1 0x10 DUP4 PUSH2 0x4B20 JUMP JUMPDEST SWAP2 POP PUSH2 0x507C DUP3 PUSH2 0x503B JUMP JUMPDEST PUSH1 0x20 DUP3 ADD SWAP1 POP SWAP2 SWAP1 POP JUMP JUMPDEST PUSH1 0x0 PUSH1 0x20 DUP3 ADD SWAP1 POP DUP2 DUP2 SUB PUSH1 0x0 DUP4 ADD MSTORE PUSH2 0x50A0 DUP2 PUSH2 0x5064 JUMP JUMPDEST SWAP1 POP SWAP2 SWAP1 POP JUMP JUMPDEST PUSH1 0x0 DUP2 SWAP1 POP SWAP2 SWAP1 POP JUMP JUMPDEST PUSH2 0x50C2 PUSH2 0x50BD DUP3 PUSH2 0x4409 JUMP JUMPDEST PUSH2 0x50A7 JUMP JUMPDEST DUP3 MSTORE POP POP JUMP JUMPDEST PUSH1 0x0 PUSH2 0x50D4 DUP3 DUP8 PUSH2 0x50B1 JUMP JUMPDEST PUSH1 0x20 DUP3 ADD SWAP2 POP PUSH2 0x50E4 DUP3 DUP7 PUSH2 0x50B1 JUMP JUMPDEST PUSH1 0x20 DUP3 ADD SWAP2 POP PUSH2 0x50F4 DUP3 DUP6 PUSH2 0x50B1 JUMP JUMPDEST PUSH1 0x20 DUP3 ADD SWAP2 POP PUSH2 0x5104 DUP3 DUP5 PUSH2 0x50B1 JUMP JUMPDEST PUSH1 0x20 DUP3 ADD SWAP2 POP DUP2 SWAP1 POP SWAP6 SWAP5 POP POP POP POP POP JUMP JUMPDEST PUSH32 0x496E76616C69642072657665616C000000000000000000000000000000000000 PUSH1 0x0 DUP3 ADD MSTORE POP JUMP JUMPDEST PUSH1 0x0 PUSH2 0x514C PUSH1 0xE DUP4 PUSH2 0x4B20 JUMP JUMPDEST SWAP2 POP PUSH2 0x5157 DUP3 PUSH2 0x5116 JUMP JUMPDEST PUSH1 0x20 DUP3 ADD SWAP1 POP SWAP2 SWAP1 POP JUMP JUMPDEST PUSH1 0x0 PUSH1 0x20 DUP3 ADD SWAP1 POP DUP2 DUP2 SUB PUSH1 0x0 DUP4 ADD MSTORE PUSH2 0x517B DUP2 PUSH2 0x513F JUMP JUMPDEST SWAP1 POP SWAP2 SWAP1 POP JUMP JUMPDEST PUSH32 0x496E646578206F7574206F662072616E67650000000000000000000000000000 PUSH1 0x0 DUP3 ADD MSTORE POP JUMP JUMPDEST PUSH1 0x0 PUSH2 0x51B8 PUSH1 0x12 DUP4 PUSH2 0x4B20 JUMP JUMPDEST SWAP2 POP PUSH2 0x51C3 DUP3 PUSH2 0x5182 JUMP JUMPDEST PUSH1 0x20 DUP3 ADD SWAP1 POP SWAP2 SWAP1 POP JUMP JUMPDEST PUSH1 0x0 PUSH1 0x20 DUP3 ADD SWAP1 POP DUP2 DUP2 SUB PUSH1 0x0 DUP4 ADD MSTORE PUSH2 0x51E7 DUP2 PUSH2 0x51AB JUMP JUMPDEST SWAP1 POP SWAP2 SWAP1 POP JUMP JUMPDEST PUSH32 0x4475706C696361746520696E6465780000000000000000000000000000000000 PUSH1 0x0 DUP3 ADD MSTORE POP JUMP JUMPDEST PUSH1 0x0 PUSH2 0x5224 PUSH1 0xF DUP4 PUSH2 0x4B20 JUMP JUMPDEST SWAP2 POP PUSH2 0x522F DUP3 PUSH2 0x51EE JUMP JUMPDEST PUSH1 0x20 DUP3 ADD SWAP1 POP SWAP2 SWAP1 POP JUMP JUMPDEST PUSH1 0x0 PUSH1 0x20 DUP3 ADD SWAP1 POP DUP2 DUP2 SUB PUSH1 0x0 DUP4 ADD MSTORE PUSH2 0x5253 DUP2 PUSH2 0x5217 JUMP JUMPDEST SWAP1 POP SWAP2 SWAP1 POP JUMP JUMPDEST PUSH1 0x0 PUSH1 0x40 DUP3 ADD SWAP1 POP PUSH2 0x526F PUSH1 0x0 DUP4 ADD DUP6 PUSH2 0x44AC JUMP JUMPDEST PUSH2 0x527C PUSH1 0x20 DUP4 ADD DUP5 PUSH2 0x4503 JUMP JUMPDEST SWAP4 SWAP3 POP POP POP JUMP JUMPDEST PUSH32 0x47616D6520616C7265616479206A6F696E656400000000000000000000000000 PUSH1 0x0 DUP3 ADD MSTORE POP JUMP JUMPDEST PUSH1 0x0 PUSH2 0x52B9 PUSH1 0x13 DUP4 PUSH2 0x4B20 JUMP JUMPDEST SWAP2 POP PUSH2 0x52C4 DUP3 PUSH2 0x5283 JUMP JUMPDEST PUSH1 0x20 DUP3 ADD SWAP1 POP SWAP2 SWAP1 POP JUMP JUMPDEST PUSH1 0x0 PUSH1 0x20 DUP3 ADD SWAP1 POP DUP2 DUP2 SUB PUSH1 0x0 DUP4 ADD MSTORE PUSH2 0x52E8 DUP2 PUSH2 0x52AC JUMP JUMPDEST SWAP1 POP SWAP2 SWAP1 POP JUMP JUMPDEST PUSH32 0x496E76616C696420636F6D6D6974000000000000000000000000000000000000 PUSH1 0x0 DUP3 ADD MSTORE POP JUMP JUMPDEST PUSH1 0x0 PUSH2 0x5325 PUSH1 0xE DUP4 PUSH2 0x4B20 JUMP JUMPDEST SWAP2 POP PUSH2 0x5330 DUP3 PUSH2 0x52EF JUMP JUMPDEST PUSH1 0x20 DUP3 ADD SWAP1 POP SWAP2 SWAP1 POP JUMP JUMPDEST PUSH1 0x0 PUSH1 0x20 DUP3 ADD SWAP1 POP DUP2 DUP2 SUB PUSH1 0x0 DUP4 ADD MSTORE PUSH2 0x5354 DUP2 PUSH2 0x5318 JUMP JUMPDEST SWAP1 POP SWAP2 SWAP1 POP JUMP JUMPDEST PUSH32 0x436F6C6C656374696F6E206E6F7420617070726F766564000000000000000000 PUSH1 0x0 DUP3 ADD MSTORE POP JUMP JUMPDEST PUSH1 0x0 PUSH2 0x5391 PUSH1 0x17 DUP4 PUSH2 0x4B20 JUMP JUMPDEST SWAP2 POP PUSH2 0x539C DUP3 PUSH2 0x535B JUMP JUMPDEST PUSH1 0x20 DUP3 ADD SWAP1 POP SWAP2 SWAP1 POP JUMP JUMPDEST PUSH1 0x0 PUSH1 0x20 DUP3 ADD SWAP1 POP DUP2 DUP2 SUB PUSH1 0x0 DUP4 ADD MSTORE PUSH2 0x53C0 DUP2 PUSH2 0x5384 JUMP JUMPDEST SWAP1 POP SWAP2 SWAP1 POP JUMP JUMPDEST PUSH1 0x0 DUP2 MLOAD SWAP1 POP PUSH2 0x53D6 DUP2 PUSH2 0x43DD JUMP JUMPDEST SWAP3 SWAP2 POP POP JUMP JUMPDEST PUSH1 0x0 PUSH1 0x20 DUP3 DUP5 SUB SLT ISZERO PUSH2 0x53F2 JUMPI PUSH2 0x53F1 PUSH2 0x43A1 JUMP JUMPDEST JUMPDEST PUSH1 0x0 PUSH2 0x5400 DUP5 DUP3 DUP6 ADD PUSH2 0x53C7 JUMP JUMPDEST SWAP2 POP POP SWAP3 SWAP2 POP POP JUMP JUMPDEST PUSH32 0x4E6F74206F776E65720000000000000000000000000000000000000000000000 PUSH1 0x0 DUP3 ADD MSTORE POP JUMP JUMPDEST PUSH1 0x0 PUSH2 0x543F PUSH1 0x9 DUP4 PUSH2 0x4B20 JUMP JUMPDEST SWAP2 POP PUSH2 0x544A DUP3 PUSH2 0x5409 JUMP JUMPDEST PUSH1 0x20 DUP3 ADD SWAP1 POP SWAP2 SWAP1 POP JUMP JUMPDEST PUSH1 0x0 PUSH1 0x20 DUP3 ADD SWAP1 POP DUP2 DUP2 SUB PUSH1 0x0 DUP4 ADD MSTORE PUSH2 0x546E DUP2 PUSH2 0x5432 JUMP JUMPDEST SWAP1 POP SWAP2 SWAP1 POP JUMP JUMPDEST PUSH32 0x4E6F7420617070726F7665640000000000000000000000000000000000000000 PUSH1 0x0 DUP3 ADD MSTORE POP JUMP JUMPDEST PUSH1 0x0 PUSH2 0x54AB PUSH1 0xC DUP4 PUSH2 0x4B20 JUMP JUMPDEST SWAP2 POP PUSH2 0x54B6 DUP3 PUSH2 0x5475 JUMP JUMPDEST PUSH1 0x20 DUP3 ADD SWAP1 POP SWAP2 SWAP1 POP JUMP JUMPDEST PUSH1 0x0 PUSH1 0x20 DUP3 ADD SWAP1 POP DUP2 DUP2 SUB PUSH1 0x0 DUP4 ADD MSTORE PUSH2 0x54DA DUP2 PUSH2 0x549E JUMP JUMPDEST SWAP1 POP SWAP2 SWAP1 POP JUMP JUMPDEST PUSH32 0x496E76616C696420746F6B656E00000000000000000000000000000000000000 PUSH1 0x0 DUP3 ADD MSTORE POP JUMP JUMPDEST PUSH1 0x0 PUSH2 0x5517 PUSH1 0xD DUP4 PUSH2 0x4B20 JUMP JUMPDEST SWAP2 POP PUSH2 0x5522 DUP3 PUSH2 0x54E1 JUMP JUMPDEST PUSH1 0x20 DUP3 ADD SWAP1 POP SWAP2 SWAP1 POP JUMP JUMPDEST PUSH1 0x0 PUSH1 0x20 DUP3 ADD SWAP1 POP DUP2 DUP2 SUB PUSH1 0x0 DUP4 ADD MSTORE PUSH2 0x5546 DUP2 PUSH2 0x550A JUMP JUMPDEST SWAP1 POP SWAP2 SWAP1 POP JUMP JUMPDEST PUSH32 0x5374616B65206D75737420626520706F73697469766500000000000000000000 PUSH1 0x0 DUP3 ADD MSTORE POP JUMP JUMPDEST PUSH1 0x0 PUSH2 0x5583 PUSH1 0x16 DUP4 PUSH2 0x4B20 JUMP JUMPDEST SWAP2 POP PUSH2 0x558E DUP3 PUSH2 0x554D JUMP JUMPDEST PUSH1 0x20 DUP3 ADD SWAP1 POP SWAP2 SWAP1 POP JUMP JUMPDEST PUSH1 0x0 PUSH1 0x20 DUP3 ADD SWAP1 POP DUP2 DUP2 SUB PUSH1 0x0 DUP4 ADD MSTORE PUSH2 0x55B2 DUP2 PUSH2 0x5576 JUMP JUMPDEST SWAP1 POP SWAP2 SWAP1 POP JUMP JUMPDEST PUSH32 0x5374616B652062656C6F7720746F6B656E206D696E696D756D00000000000000 PUSH1 0x0 DUP3 ADD MSTORE POP JUMP JUMPDEST PUSH1 0x0 PUSH2 0x55EF PUSH1 0x19 DUP4 PUSH2 0x4B20 JUMP JUMPDEST SWAP2 POP PUSH2 0x55FA DUP3 PUSH2 0x55B9 JUMP JUMPDEST PUSH1 0x20 DUP3 ADD SWAP1 POP SWAP2 SWAP1 POP JUMP JUMPDEST PUSH1 0x0 PUSH1 0x20 DUP3 ADD SWAP1 POP DUP2 DUP2 SUB PUSH1 0x0 DUP4 ADD MSTORE PUSH2 0x561E DUP2 PUSH2 0x55E2 JUMP JUMPDEST SWAP1 POP SWAP2 SWAP1 POP JUMP JUMPDEST PUSH32 0x5374616B6520746F6B656E206E6F7420617070726F7665640000000000000000 PUSH1 0x0 DUP3 ADD MSTORE POP JUMP JUMPDEST PUSH1 0x0 PUSH2 0x565B PUSH1 0x18 DUP4 PUSH2 0x4B20 JUMP JUMPDEST SWAP2 POP PUSH2 0x5666 DUP3 PUSH2 0x5625 JUMP JUMPDEST PUSH1 0x20 DUP3 ADD SWAP1 POP SWAP2 SWAP1 POP JUMP JUMPDEST PUSH1 0x0 PUSH1 0x20 DUP3 ADD SWAP1 POP DUP2 DUP2 SUB PUSH1 0x0 DUP4 ADD MSTORE PUSH2 0x568A DUP2 PUSH2 0x564E JUMP JUMPDEST SWAP1 POP SWAP2 SWAP1 POP JUMP JUMPDEST PUSH1 0x0 PUSH1 0x80 DUP3 ADD SWAP1 POP PUSH2 0x56A6 PUSH1 0x0 DUP4 ADD DUP8 PUSH2 0x44AC JUMP JUMPDEST PUSH2 0x56B3 PUSH1 0x20 DUP4 ADD DUP7 PUSH2 0x4503 JUMP JUMPDEST PUSH2 0x56C0 PUSH1 0x40 DUP4 ADD DUP6 PUSH2 0x4503 JUMP JUMPDEST PUSH2 0x56CD PUSH1 0x60 DUP4 ADD DUP5 PUSH2 0x44AC JUMP JUMPDEST SWAP6 SWAP5 POP POP POP POP POP JUMP JUMPDEST PUSH1 0x0 DUP2 MLOAD SWAP1 POP SWAP2 SWAP1 POP JUMP JUMPDEST PUSH1 0x0 DUP2 SWAP1 POP SWAP3 SWAP2 POP POP JUMP JUMPDEST PUSH1 0x0 JUMPDEST DUP4 DUP2 LT ISZERO PUSH2 0x570A JUMPI DUP1 DUP3 ADD MLOAD DUP2 DUP5 ADD MSTORE PUSH1 0x20 DUP2 ADD SWAP1 POP PUSH2 0x56EF JUMP JUMPDEST PUSH1 0x0 DUP5 DUP5 ADD MSTORE POP POP POP POP JUMP JUMPDEST PUSH1 0x0 PUSH2 0x5721 DUP3 PUSH2 0x56D6 JUMP JUMPDEST PUSH2 0x572B DUP2 DUP6 PUSH2 0x56E1 JUMP JUMPDEST SWAP4 POP PUSH2 0x573B DUP2 DUP6 PUSH1 0x20 DUP7 ADD PUSH2 0x56EC JUMP JUMPDEST DUP1 DUP5 ADD SWAP2 POP POP SWAP3 SWAP2 POP POP JUMP JUMPDEST PUSH1 0x0 PUSH2 0x5753 DUP3 DUP5 PUSH2 0x5716 JUMP JUMPDEST SWAP2 POP DUP2 SWAP1 POP SWAP3 SWAP2 POP POP JUMP JUMPDEST PUSH1 0x0 PUSH2 0x5769 DUP3 PUSH2 0x56D6 JUMP JUMPDEST PUSH2 0x5773 DUP2 DUP6 PUSH2 0x4B20 JUMP JUMPDEST SWAP4 POP PUSH2 0x5783 DUP2 DUP6 PUSH1 0x20 DUP7 ADD PUSH2 0x56EC JUMP JUMPDEST PUSH2 0x578C DUP2 PUSH2 0x46B5 JUMP JUMPDEST DUP5 ADD SWAP2 POP POP SWAP3 SWAP2 POP POP JUMP JUMPDEST PUSH1 0x0 PUSH1 0x20 DUP3 ADD SWAP1 POP DUP2 DUP2 SUB PUSH1 0x0 DUP4 ADD MSTORE PUSH2 0x57B1 DUP2 DUP5 PUSH2 0x575E JUMP JUMPDEST SWAP1 POP SWAP3 SWAP2 POP POP JUMP JUMPDEST PUSH1 0x0 DUP2 MLOAD SWAP1 POP PUSH2 0x57C8 DUP2 PUSH2 0x4413 JUMP JUMPDEST SWAP3 SWAP2 POP POP JUMP JUMPDEST PUSH1 0x0 PUSH1 0x20 DUP3 DUP5 SUB SLT ISZERO PUSH2 0x57E4 JUMPI PUSH2 0x57E3 PUSH2 0x43A1 JUMP JUMPDEST JUMPDEST PUSH1 0x0 PUSH2 0x57F2 DUP5 DUP3 DUP6 ADD PUSH2 0x57B9 JUMP JUMPDEST SWAP2 POP POP SWAP3 SWAP2 POP POP JUMP JUMPDEST PUSH1 0x0 PUSH1 0xFF DUP3 AND SWAP1 POP SWAP2 SWAP1 POP JUMP JUMPDEST PUSH1 0x0 PUSH2 0x5813 DUP3 PUSH2 0x57FB JUMP JUMPDEST SWAP2 POP PUSH1 0xFF DUP3 SUB PUSH2 0x5826 JUMPI PUSH2 0x5825 PUSH2 0x4C32 JUMP JUMPDEST JUMPDEST PUSH1 0x1 DUP3 ADD SWAP1 POP SWAP2 SWAP1 POP JUMP JUMPDEST PUSH1 0x0 PUSH2 0x583C DUP3 PUSH2 0x4EAB JUMP JUMPDEST SWAP2 POP PUSH2 0x5847 DUP4 PUSH2 0x4EAB JUMP JUMPDEST SWAP3 POP DUP3 DUP3 SUB SWAP1 POP DUP2 DUP2 SLT PUSH1 0x0 DUP5 SLT AND DUP3 DUP3 SGT PUSH1 0x0 DUP6 SLT ISZERO AND OR ISZERO PUSH2 0x586E JUMPI PUSH2 0x586D PUSH2 0x4C32 JUMP JUMPDEST JUMPDEST SWAP3 SWAP2 POP POP JUMP JUMPDEST PUSH1 0x0 DUP2 PUSH1 0x1 SIGNEXTEND SWAP1 POP SWAP2 SWAP1 POP JUMP JUMPDEST PUSH1 0x0 PUSH2 0x588C DUP3 PUSH2 0x5874 JUMP JUMPDEST SWAP2 POP PUSH2 0x5897 DUP4 PUSH2 0x5874 JUMP JUMPDEST SWAP3 POP DUP3 DUP3 ADD SWAP1 POP PUSH32 0xFFFFFFFFFFFFFFFFFFFFFFFFFFFFFFFFFFFFFFFFFFFFFFFFFFFFFFFFFFFF8000 DUP2 SLT PUSH2 0x7FFF DUP3 SGT OR ISZERO PUSH2 0x58D5 JUMPI PUSH2 0x58D4 PUSH2 0x4C32 JUMP JUMPDEST JUMPDEST SWAP3 SWAP2 POP POP JUMP JUMPDEST PUSH1 0x0 PUSH2 0x58EE PUSH2 0x58E9 DUP5 PUSH2 0x4741 JUMP JUMPDEST PUSH2 0x4726 JUMP JUMPDEST SWAP1 POP DUP3 DUP2 MSTORE PUSH1 0x20 DUP2 ADD DUP5 DUP5 DUP5 ADD GT ISZERO PUSH2 0x590A JUMPI PUSH2 0x5909 PUSH2 0x46B0 JUMP JUMPDEST JUMPDEST PUSH2 0x5915 DUP5 DUP3 DUP6 PUSH2 0x56EC JUMP JUMPDEST POP SWAP4 SWAP3 POP POP POP JUMP JUMPDEST PUSH1 0x0 DUP3 PUSH1 0x1F DUP4 ADD SLT PUSH2 0x5932 JUMPI PUSH2 0x5931 PUSH2 0x46AB JUMP JUMPDEST JUMPDEST DUP2 MLOAD PUSH2 0x5942 DUP5 DUP3 PUSH1 0x20 DUP7 ADD PUSH2 0x58DB JUMP JUMPDEST SWAP2 POP POP SWAP3 SWAP2 POP POP JUMP JUMPDEST PUSH1 0x0 PUSH1 0x20 DUP3 DUP5 SUB SLT ISZERO PUSH2 0x5961 JUMPI PUSH2 0x5960 PUSH2 0x43A1 JUMP JUMPDEST JUMPDEST PUSH1 0x0 DUP3 ADD MLOAD PUSH8 0xFFFFFFFFFFFFFFFF DUP2 GT ISZERO PUSH2 0x597F JUMPI PUSH2 0x597E PUSH2 0x43A6 JUMP JUMPDEST JUMPDEST PUSH2 0x598B DUP5 DUP3 DUP6 ADD PUSH2 0x591D JUMP JUMPDEST SWAP2 POP POP SWAP3 SWAP2 POP POP JUMP JUMPDEST PUSH32 0x546F6F206D616E79206F662073616D6520726172697479000000000000000000 PUSH1 0x0 DUP3 ADD MSTORE POP JUMP JUMPDEST PUSH1 0x0 PUSH2 0x59CA PUSH1 0x17 DUP4 PUSH2 0x4B20 JUMP JUMPDEST SWAP2 POP PUSH2 0x59D5 DUP3 PUSH2 0x5994 JUMP JUMPDEST PUSH1 0x20 DUP3 ADD SWAP1 POP SWAP2 SWAP1 POP JUMP JUMPDEST PUSH1 0x0 PUSH1 0x20 DUP3 ADD SWAP1 POP DUP2 DUP2 SUB PUSH1 0x0 DUP4 ADD MSTORE PUSH2 0x59F9 DUP2 PUSH2 0x59BD JUMP JUMPDEST SWAP1 POP SWAP2 SWAP1 POP JUMP INVALID LOG2 PUSH5 0x6970667358 0x22 SLT KECCAK256 REVERT MSTORE8 0xEB 0xC0 0xF 0xA9 MSTORE8 INVALID PUSH18 0x3365AB19C8655BE28CC796B1FAA0296D84DC 0x23 0xDB CALLDATASIZE PUSH20 0xD464736F6C634300081400330000000000000000 "
		},
		"gasEstimates": {
			"creation": {
				"codeDepositCost": "4618800",
				"executionCost": "infinite",
				"totalCost": "infinite"
			},
			"external": {
				"FEE_PERCENT()": "417",
				"TIMEOUT_DURATION()": "395",
				"addCollection(address)": "infinite",
				"addRestrictedRarity(string)": "infinite",
				"addStakeToken(address,uint256)": "infinite",
				"approvedCollections(address)": "2955",
				"approvedStakeTokens(address)": "2890",
				"batchSettleTimeouts(uint256,uint256)": "infinite",
				"createGame(address,uint256,address[3],uint256[3],bytes32)": "infinite",
				"games(uint256)": "infinite",
				"isRestrictedRarity(string)": "infinite",
				"joinGame(uint256,address[3],uint256[3],bytes32)": "infinite",
				"minStakePerToken(address)": "2860",
				"nextGameId()": "2451",
				"owner()": "2589",
				"renounceOwnership()": "infinite",
				"reveal(uint256,uint256,uint256[3])": "infinite",
				"setMinStake(address,uint256)": "infinite",
				"setTeamWallet(address)": "infinite",
				"settleGame(uint256)": "infinite",
				"teamWallet()": "2603",
				"transferOwnership(address)": "infinite"
			},
			"internal": {
				"getRoundResult(address,uint256,address,uint256)": "infinite",
				"validateRarity(address[3] memory,uint256[3] memory)": "infinite"
			}
		},
		"methodIdentifiers": {
			"FEE_PERCENT()": "eaf98d23",
			"TIMEOUT_DURATION()": "eaf7ac9f",
			"addCollection(address)": "a174e77a",
			"addRestrictedRarity(string)": "b43a5098",
			"addStakeToken(address,uint256)": "81f7d942",
			"approvedCollections(address)": "ec07fb74",
			"approvedStakeTokens(address)": "44bf95c6",
			"batchSettleTimeouts(uint256,uint256)": "2d54cafe",
			"createGame(address,uint256,address[3],uint256[3],bytes32)": "ad59951d",
			"games(uint256)": "117a5b90",
			"isRestrictedRarity(string)": "4e714ac3",
			"joinGame(uint256,address[3],uint256[3],bytes32)": "7d761f7a",
			"minStakePerToken(address)": "06b5fbe8",
			"nextGameId()": "b135bbb0",
			"owner()": "8da5cb5b",
			"renounceOwnership()": "715018a6",
			"reveal(uint256,uint256,uint256[3])": "66333422",
			"setMinStake(address,uint256)": "060b89c5",
			"setTeamWallet(address)": "1525ff7d",
			"settleGame(uint256)": "312d7bbc",
			"teamWallet()": "59927044",
			"transferOwnership(address)": "f2fde38b"
		}
	},
	"abi": [
		{
			"inputs": [
				{
					"internalType": "address",
					"name": "_teamWallet",
					"type": "address"
				}
			],
			"stateMutability": "nonpayable",
			"type": "constructor"
		},
		{
			"inputs": [
				{
					"internalType": "address",
					"name": "owner",
					"type": "address"
				}
			],
			"name": "OwnableInvalidOwner",
			"type": "error"
		},
		{
			"inputs": [
				{
					"internalType": "address",
					"name": "account",
					"type": "address"
				}
			],
			"name": "OwnableUnauthorizedAccount",
			"type": "error"
		},
		{
			"anonymous": false,
			"inputs": [
				{
					"indexed": false,
					"internalType": "address",
					"name": "collection",
					"type": "address"
				}
			],
			"name": "CollectionAdded",
			"type": "event"
		},
		{
			"anonymous": false,
			"inputs": [
				{
					"indexed": false,
					"internalType": "uint256",
					"name": "gameId",
					"type": "uint256"
				},
				{
					"indexed": false,
					"internalType": "address",
					"name": "player1",
					"type": "address"
				},
				{
					"indexed": false,
					"internalType": "address",
					"name": "stakeToken",
					"type": "address"
				},
				{
					"indexed": false,
					"internalType": "uint256",
					"name": "stakeAmount",
					"type": "uint256"
				}
			],
			"name": "GameCreated",
			"type": "event"
		},
		{
			"anonymous": false,
			"inputs": [
				{
					"indexed": false,
					"internalType": "uint256",
					"name": "gameId",
					"type": "uint256"
				},
				{
					"indexed": false,
					"internalType": "address",
					"name": "player2",
					"type": "address"
				}
			],
			"name": "GameJoined",
			"type": "event"
		},
		{
			"anonymous": false,
			"inputs": [
				{
					"indexed": false,
					"internalType": "uint256",
					"name": "gameId",
					"type": "uint256"
				},
				{
					"indexed": false,
					"internalType": "address",
					"name": "player",
					"type": "address"
				}
			],
			"name": "GameRevealed",
			"type": "event"
		},
		{
			"anonymous": false,
			"inputs": [
				{
					"indexed": false,
					"internalType": "uint256",
					"name": "gameId",
					"type": "uint256"
				},
				{
					"indexed": false,
					"internalType": "address",
					"name": "winner",
					"type": "address"
				},
				{
					"indexed": false,
					"internalType": "bool",
					"name": "isTie",
					"type": "bool"
				}
			],
			"name": "GameSettled",
			"type": "event"
		},
		{
			"anonymous": false,
			"inputs": [
				{
					"indexed": false,
					"internalType": "address",
					"name": "token",
					"type": "address"
				},
				{
					"indexed": false,
					"internalType": "uint256",
					"name": "minStake",
					"type": "uint256"
				}
			],
			"name": "MinStakeUpdated",
			"type": "event"
		},
		{
			"anonymous": false,
			"inputs": [
				{
					"indexed": true,
					"internalType": "address",
					"name": "previousOwner",
					"type": "address"
				},
				{
					"indexed": true,
					"internalType": "address",
					"name": "newOwner",
					"type": "address"
				}
			],
			"name": "OwnershipTransferred",
			"type": "event"
		},
		{
			"anonymous": false,
			"inputs": [
				{
					"indexed": false,
					"internalType": "string",
					"name": "rarity",
					"type": "string"
				}
			],
			"name": "RestrictedRarityAdded",
			"type": "event"
		},
		{
			"anonymous": false,
			"inputs": [
				{
					"indexed": false,
					"internalType": "address",
					"name": "token",
					"type": "address"
				},
				{
					"indexed": false,
					"internalType": "uint256",
					"name": "minStake",
					"type": "uint256"
				}
			],
			"name": "StakeTokenAdded",
			"type": "event"
		},
		{
			"inputs": [],
			"name": "FEE_PERCENT",
			"outputs": [
				{
					"internalType": "uint256",
					"name": "",
					"type": "uint256"
				}
			],
			"stateMutability": "view",
			"type": "function"
		},
		{
			"inputs": [],
			"name": "TIMEOUT_DURATION",
			"outputs": [
				{
					"internalType": "uint256",
					"name": "",
					"type": "uint256"
				}
			],
			"stateMutability": "view",
			"type": "function"
		},
		{
			"inputs": [
				{
					"internalType": "address",
					"name": "nftContract",
					"type": "address"
				}
			],
			"name": "addCollection",
			"outputs": [],
			"stateMutability": "nonpayable",
			"type": "function"
		},
		{
			"inputs": [
				{
					"internalType": "string",
					"name": "rarity",
					"type": "string"
				}
			],
			"name": "addRestrictedRarity",
			"outputs": [],
			"stateMutability": "nonpayable",
			"type": "function"
		},
		{
			"inputs": [
				{
					"internalType": "address",
					"name": "token",
					"type": "address"
				},
				{
					"internalType": "uint256",
					"name": "minStake",
					"type": "uint256"
				}
			],
			"name": "addStakeToken",
			"outputs": [],
			"stateMutability": "nonpayable",
			"type": "function"
		},
		{
			"inputs": [
				{
					"internalType": "address",
					"name": "",
					"type": "address"
				}
			],
			"name": "approvedCollections",
			"outputs": [
				{
					"internalType": "bool",
					"name": "",
					"type": "bool"
				}
			],
			"stateMutability": "view",
			"type": "function"
		},
		{
			"inputs": [
				{
					"internalType": "address",
					"name": "",
					"type": "address"
				}
			],
			"name": "approvedStakeTokens",
			"outputs": [
				{
					"internalType": "bool",
					"name": "",
					"type": "bool"
				}
			],
			"stateMutability": "view",
			"type": "function"
		},
		{
			"inputs": [
				{
					"internalType": "uint256",
					"name": "startId",
					"type": "uint256"
				},
				{
					"internalType": "uint256",
					"name": "maxGames",
					"type": "uint256"
				}
			],
			"name": "batchSettleTimeouts",
			"outputs": [
				{
					"internalType": "uint256",
					"name": "settledCount",
					"type": "uint256"
				}
			],
			"stateMutability": "nonpayable",
			"type": "function"
		},
		{
			"inputs": [
				{
					"internalType": "address",
					"name": "stakeTokenAddr",
					"type": "address"
				},
				{
					"internalType": "uint256",
					"name": "stakeAmount",
					"type": "uint256"
				},
				{
					"internalType": "address[3]",
					"name": "collections",
					"type": "address[3]"
				},
				{
					"internalType": "uint256[3]",
					"name": "tokenIds",
					"type": "uint256[3]"
				},
				{
					"internalType": "bytes32",
					"name": "commit",
					"type": "bytes32"
				}
			],
			"name": "createGame",
			"outputs": [],
			"stateMutability": "nonpayable",
			"type": "function"
		},
		{
			"inputs": [
				{
					"internalType": "uint256",
					"name": "",
					"type": "uint256"
				}
			],
			"name": "games",
			"outputs": [
				{
					"internalType": "address",
					"name": "player1",
					"type": "address"
				},
				{
					"internalType": "bytes32",
					"name": "player1Commit",
					"type": "bytes32"
				},
				{
					"internalType": "bool",
					"name": "player1Revealed",
					"type": "bool"
				},
				{
					"internalType": "address",
					"name": "player2",
					"type": "address"
				},
				{
					"internalType": "bytes32",
					"name": "player2Commit",
					"type": "bytes32"
				},
				{
					"internalType": "bool",
					"name": "player2Revealed",
					"type": "bool"
				},
				{
					"internalType": "contract IERC20",
					"name": "stakeToken",
					"type": "address"
				},
				{
					"internalType": "uint256",
					"name": "stakeAmount",
					"type": "uint256"
				},
				{
					"internalType": "uint256",
					"name": "createTimestamp",
					"type": "uint256"
				},
				{
					"internalType": "uint256",
					"name": "joinTimestamp",
					"type": "uint256"
				},
				{
					"internalType": "bool",
					"name": "active",
					"type": "bool"
				}
			],
			"stateMutability": "view",
			"type": "function"
		},
		{
			"inputs": [
				{
					"internalType": "string",
					"name": "",
					"type": "string"
				}
			],
			"name": "isRestrictedRarity",
			"outputs": [
				{
					"internalType": "bool",
					"name": "",
					"type": "bool"
				}
			],
			"stateMutability": "view",
			"type": "function"
		},
		{
			"inputs": [
				{
					"internalType": "uint256",
					"name": "gameId",
					"type": "uint256"
				},
				{
					"internalType": "address[3]",
					"name": "collections",
					"type": "address[3]"
				},
				{
					"internalType": "uint256[3]",
					"name": "tokenIds",
					"type": "uint256[3]"
				},
				{
					"internalType": "bytes32",
					"name": "commit",
					"type": "bytes32"
				}
			],
			"name": "joinGame",
			"outputs": [],
			"stateMutability": "nonpayable",
			"type": "function"
		},
		{
			"inputs": [
				{
					"internalType": "address",
					"name": "",
					"type": "address"
				}
			],
			"name": "minStakePerToken",
			"outputs": [
				{
					"internalType": "uint256",
					"name": "",
					"type": "uint256"
				}
			],
			"stateMutability": "view",
			"type": "function"
		},
		{
			"inputs": [],
			"name": "nextGameId",
			"outputs": [
				{
					"internalType": "uint256",
					"name": "",
					"type": "uint256"
				}
			],
			"stateMutability": "view",
			"type": "function"
		},
		{
			"inputs": [],
			"name": "owner",
			"outputs": [
				{
					"internalType": "address",
					"name": "",
					"type": "address"
				}
			],
			"stateMutability": "view",
			"type": "function"
		},
		{
			"inputs": [],
			"name": "renounceOwnership",
			"outputs": [],
			"stateMutability": "nonpayable",
			"type": "function"
		},
		{
			"inputs": [
				{
					"internalType": "uint256",
					"name": "gameId",
					"type": "uint256"
				},
				{
					"internalType": "uint256",
					"name": "salt",
					"type": "uint256"
				},
				{
					"internalType": "uint256[3]",
					"name": "order",
					"type": "uint256[3]"
				}
			],
			"name": "reveal",
			"outputs": [],
			"stateMutability": "nonpayable",
			"type": "function"
		},
		{
			"inputs": [
				{
					"internalType": "address",
					"name": "token",
					"type": "address"
				},
				{
					"internalType": "uint256",
					"name": "minStake",
					"type": "uint256"
				}
			],
			"name": "setMinStake",
			"outputs": [],
			"stateMutability": "nonpayable",
			"type": "function"
		},
		{
			"inputs": [
				{
					"internalType": "address",
					"name": "_teamWallet",
					"type": "address"
				}
			],
			"name": "setTeamWallet",
			"outputs": [],
			"stateMutability": "nonpayable",
			"type": "function"
		},
		{
			"inputs": [
				{
					"internalType": "uint256",
					"name": "gameId",
					"type": "uint256"
				}
			],
			"name": "settleGame",
			"outputs": [],
			"stateMutability": "nonpayable",
			"type": "function"
		},
		{
			"inputs": [],
			"name": "teamWallet",
			"outputs": [
				{
					"internalType": "address",
					"name": "",
					"type": "address"
				}
			],
			"stateMutability": "view",
			"type": "function"
		},
		{
			"inputs": [
				{
					"internalType": "address",
					"name": "newOwner",
					"type": "address"
				}
			],
			"name": "transferOwnership",
			"outputs": [],
			"stateMutability": "nonpayable",
			"type": "function"
		}
	]
}